{
  "contractName": "AccesoService",
  "abi": [
    {
      "inputs": [],
      "stateMutability": "nonpayable",
      "type": "constructor"
    },
    {
      "inputs": [],
      "name": "creador",
      "outputs": [
        {
          "internalType": "address",
          "name": "",
          "type": "address"
        }
      ],
      "stateMutability": "view",
      "type": "function",
      "constant": true
    },
    {
      "inputs": [],
      "name": "login",
      "outputs": [
        {
          "components": [
            {
              "internalType": "string",
              "name": "primerNombre",
              "type": "string"
            },
            {
              "internalType": "string",
              "name": "segundoNombre",
              "type": "string"
            },
            {
              "internalType": "string",
              "name": "primerApellido",
              "type": "string"
            },
            {
              "internalType": "string",
              "name": "segundoApellido",
              "type": "string"
            },
            {
              "internalType": "string",
              "name": "identificacion",
              "type": "string"
            },
            {
              "internalType": "string",
              "name": "tipoIdentificacion",
              "type": "string"
            },
            {
              "internalType": "contract Usuario",
              "name": "accesoUsuario",
              "type": "address"
            },
            {
              "internalType": "bool",
              "name": "isValue",
              "type": "bool"
            }
          ],
          "internalType": "struct Persona.PersonaStruct",
          "name": "",
          "type": "tuple"
        }
      ],
      "stateMutability": "nonpayable",
      "type": "function"
    }
  ],
  "bytecode": "0x608060405234801561001057600080fd5b50336000806101000a81548173ffffffffffffffffffffffffffffffffffffffff021916908373ffffffffffffffffffffffffffffffffffffffff16021790555060405161005d906100bf565b604051809103906000f080158015610079573d6000803e3d6000fd5b50600160006101000a81548173ffffffffffffffffffffffffffffffffffffffff021916908373ffffffffffffffffffffffffffffffffffffffff1602179055506100cc565b6111398061088c83390190565b6107b1806100db6000396000f3fe608060405234801561001057600080fd5b50600436106100365760003560e01c806392ebdcd21461003b578063b34e97e814610059575b600080fd5b610043610077565b60405161005091906101ef565b60405180910390f35b61006161009b565b60405161006e91906103f0565b60405180910390f35b60008054906101000a900473ffffffffffffffffffffffffffffffffffffffff1681565b6100a3610151565b6000339050600160009054906101000a900473ffffffffffffffffffffffffffffffffffffffff1673ffffffffffffffffffffffffffffffffffffffff16637da8f6a5826040518263ffffffff1660e01b815260040161010391906101ef565b6000604051808303816000875af1158015610122573d6000803e3d6000fd5b505050506040513d6000823e3d601f19601f8201168201806040525081019061014b9190610732565b91505090565b604051806101000160405280606081526020016060815260200160608152602001606081526020016060815260200160608152602001600073ffffffffffffffffffffffffffffffffffffffff1681526020016000151581525090565b600073ffffffffffffffffffffffffffffffffffffffff82169050919050565b60006101d9826101ae565b9050919050565b6101e9816101ce565b82525050565b600060208201905061020460008301846101e0565b92915050565b600081519050919050565b600082825260208201905092915050565b60005b83811015610244578082015181840152602081019050610229565b83811115610253576000848401525b50505050565b6000601f19601f8301169050919050565b60006102758261020a565b61027f8185610215565b935061028f818560208601610226565b61029881610259565b840191505092915050565b6000819050919050565b60006102c86102c36102be846101ae565b6102a3565b6101ae565b9050919050565b60006102da826102ad565b9050919050565b60006102ec826102cf565b9050919050565b6102fc816102e1565b82525050565b60008115159050919050565b61031781610302565b82525050565b600061010083016000830151848203600086015261033b828261026a565b91505060208301518482036020860152610355828261026a565b9150506040830151848203604086015261036f828261026a565b91505060608301518482036060860152610389828261026a565b915050608083015184820360808601526103a3828261026a565b91505060a083015184820360a08601526103bd828261026a565b91505060c08301516103d260c08601826102f3565b5060e08301516103e560e086018261030e565b508091505092915050565b6000602082019050818103600083015261040a818461031d565b905092915050565b6000604051905090565b600080fd5b600080fd5b600080fd5b7f4e487b7100000000000000000000000000000000000000000000000000000000600052604160045260246000fd5b61046382610259565b810181811067ffffffffffffffff821117156104825761048161042b565b5b80604052505050565b6000610495610412565b90506104a1828261045a565b919050565b600080fd5b600080fd5b600080fd5b600067ffffffffffffffff8211156104d0576104cf61042b565b5b6104d982610259565b9050602081019050919050565b60006104f96104f4846104b5565b61048b565b905082815260208101848484011115610515576105146104b0565b5b610520848285610226565b509392505050565b600082601f83011261053d5761053c6104ab565b5b815161054d8482602086016104e6565b91505092915050565b6000610561826101ce565b9050919050565b61057181610556565b811461057c57600080fd5b50565b60008151905061058e81610568565b92915050565b61059d81610302565b81146105a857600080fd5b50565b6000815190506105ba81610594565b92915050565b600061010082840312156105d7576105d6610426565b5b6105e261010061048b565b9050600082015167ffffffffffffffff811115610602576106016104a6565b5b61060e84828501610528565b600083015250602082015167ffffffffffffffff811115610632576106316104a6565b5b61063e84828501610528565b602083015250604082015167ffffffffffffffff811115610662576106616104a6565b5b61066e84828501610528565b604083015250606082015167ffffffffffffffff811115610692576106916104a6565b5b61069e84828501610528565b606083015250608082015167ffffffffffffffff8111156106c2576106c16104a6565b5b6106ce84828501610528565b60808301525060a082015167ffffffffffffffff8111156106f2576106f16104a6565b5b6106fe84828501610528565b60a08301525060c06107128482850161057f565b60c08301525060e0610726848285016105ab565b60e08301525092915050565b6000602082840312156107485761074761041c565b5b600082015167ffffffffffffffff81111561076657610765610421565b5b610772848285016105c0565b9150509291505056fea26469706673582212201ff67aaf2d973f6eb9fd045996970ab765679032ccd3f939c0b217e9f1f4e43d64736f6c634300080b0033608060405234801561001057600080fd5b50336000806101000a81548173ffffffffffffffffffffffffffffffffffffffff021916908373ffffffffffffffffffffffffffffffffffffffff1602179055506110d9806100606000396000f3fe608060405234801561001057600080fd5b506004361061004c5760003560e01c806326d0a380146100515780637da8f6a51461008857806392ebdcd2146100b8578063be381c59146100d6575b600080fd5b61006b60048036038101906100669190610aa5565b6100f2565b60405161007f989796959493929190610be5565b60405180910390f35b6100a2600480360381019061009d9190610aa5565b610497565b6040516100af9190610dc8565b60405180910390f35b6100c06109bd565b6040516100cd9190610df9565b60405180910390f35b6100f060048036038101906100eb9190610e52565b6109e1565b005b600160205280600052604060002060009150905080600001805461011590610ec1565b80601f016020809104026020016040519081016040528092919081815260200182805461014190610ec1565b801561018e5780601f106101635761010080835404028352916020019161018e565b820191906000526020600020905b81548152906001019060200180831161017157829003601f168201915b5050505050908060010180546101a390610ec1565b80601f01602080910402602001604051908101604052809291908181526020018280546101cf90610ec1565b801561021c5780601f106101f15761010080835404028352916020019161021c565b820191906000526020600020905b8154815290600101906020018083116101ff57829003601f168201915b50505050509080600201805461023190610ec1565b80601f016020809104026020016040519081016040528092919081815260200182805461025d90610ec1565b80156102aa5780601f1061027f576101008083540402835291602001916102aa565b820191906000526020600020905b81548152906001019060200180831161028d57829003601f168201915b5050505050908060030180546102bf90610ec1565b80601f01602080910402602001604051908101604052809291908181526020018280546102eb90610ec1565b80156103385780601f1061030d57610100808354040283529160200191610338565b820191906000526020600020905b81548152906001019060200180831161031b57829003601f168201915b50505050509080600401805461034d90610ec1565b80601f016020809104026020016040519081016040528092919081815260200182805461037990610ec1565b80156103c65780601f1061039b576101008083540402835291602001916103c6565b820191906000526020600020905b8154815290600101906020018083116103a957829003601f168201915b5050505050908060050180546103db90610ec1565b80601f016020809104026020016040519081016040528092919081815260200182805461040790610ec1565b80156104545780601f1061042957610100808354040283529160200191610454565b820191906000526020600020905b81548152906001019060200180831161043757829003601f168201915b5050505050908060060160009054906101000a900473ffffffffffffffffffffffffffffffffffffffff16908060060160149054906101000a900460ff16905088565b61049f6109e5565b7fcf34ef537ac33ee1ac626ca1587a0a7e8e51561e5514f8cb36afa1c5102b3bab6040516104cc90610f3f565b60405180910390a16000600160008473ffffffffffffffffffffffffffffffffffffffff1673ffffffffffffffffffffffffffffffffffffffff1681526020019081526020016000206040518061010001604052908160008201805461053190610ec1565b80601f016020809104026020016040519081016040528092919081815260200182805461055d90610ec1565b80156105aa5780601f1061057f576101008083540402835291602001916105aa565b820191906000526020600020905b81548152906001019060200180831161058d57829003601f168201915b505050505081526020016001820180546105c390610ec1565b80601f01602080910402602001604051908101604052809291908181526020018280546105ef90610ec1565b801561063c5780601f106106115761010080835404028352916020019161063c565b820191906000526020600020905b81548152906001019060200180831161061f57829003601f168201915b5050505050815260200160028201805461065590610ec1565b80601f016020809104026020016040519081016040528092919081815260200182805461068190610ec1565b80156106ce5780601f106106a3576101008083540402835291602001916106ce565b820191906000526020600020905b8154815290600101906020018083116106b157829003601f168201915b505050505081526020016003820180546106e790610ec1565b80601f016020809104026020016040519081016040528092919081815260200182805461071390610ec1565b80156107605780601f1061073557610100808354040283529160200191610760565b820191906000526020600020905b81548152906001019060200180831161074357829003601f168201915b5050505050815260200160048201805461077990610ec1565b80601f01602080910402602001604051908101604052809291908181526020018280546107a590610ec1565b80156107f25780601f106107c7576101008083540402835291602001916107f2565b820191906000526020600020905b8154815290600101906020018083116107d557829003601f168201915b5050505050815260200160058201805461080b90610ec1565b80601f016020809104026020016040519081016040528092919081815260200182805461083790610ec1565b80156108845780601f1061085957610100808354040283529160200191610884565b820191906000526020600020905b81548152906001019060200180831161086757829003601f168201915b505050505081526020016006820160009054906101000a900473ffffffffffffffffffffffffffffffffffffffff1673ffffffffffffffffffffffffffffffffffffffff1673ffffffffffffffffffffffffffffffffffffffff1681526020016006820160149054906101000a900460ff16151515158152505090508060e0015115610948577fcf34ef537ac33ee1ac626ca1587a0a7e8e51561e5514f8cb36afa1c5102b3bab60405161093790610fab565b60405180910390a1809150506109b8565b7fcf34ef537ac33ee1ac626ca1587a0a7e8e51561e5514f8cb36afa1c5102b3bab60405161097590611017565b60405180910390a16040517f08c379a00000000000000000000000000000000000000000000000000000000081526004016109af90611083565b60405180910390fd5b919050565b60008054906101000a900473ffffffffffffffffffffffffffffffffffffffff1681565b5050565b604051806101000160405280606081526020016060815260200160608152602001606081526020016060815260200160608152602001600073ffffffffffffffffffffffffffffffffffffffff1681526020016000151581525090565b600080fd5b600073ffffffffffffffffffffffffffffffffffffffff82169050919050565b6000610a7282610a47565b9050919050565b610a8281610a67565b8114610a8d57600080fd5b50565b600081359050610a9f81610a79565b92915050565b600060208284031215610abb57610aba610a42565b5b6000610ac984828501610a90565b91505092915050565b600081519050919050565b600082825260208201905092915050565b60005b83811015610b0c578082015181840152602081019050610af1565b83811115610b1b576000848401525b50505050565b6000601f19601f8301169050919050565b6000610b3d82610ad2565b610b478185610add565b9350610b57818560208601610aee565b610b6081610b21565b840191505092915050565b6000819050919050565b6000610b90610b8b610b8684610a47565b610b6b565b610a47565b9050919050565b6000610ba282610b75565b9050919050565b6000610bb482610b97565b9050919050565b610bc481610ba9565b82525050565b60008115159050919050565b610bdf81610bca565b82525050565b6000610100820190508181036000830152610c00818b610b32565b90508181036020830152610c14818a610b32565b90508181036040830152610c288189610b32565b90508181036060830152610c3c8188610b32565b90508181036080830152610c508187610b32565b905081810360a0830152610c648186610b32565b9050610c7360c0830185610bbb565b610c8060e0830184610bd6565b9998505050505050505050565b600082825260208201905092915050565b6000610ca982610ad2565b610cb38185610c8d565b9350610cc3818560208601610aee565b610ccc81610b21565b840191505092915050565b610ce081610ba9565b82525050565b610cef81610bca565b82525050565b6000610100830160008301518482036000860152610d138282610c9e565b91505060208301518482036020860152610d2d8282610c9e565b91505060408301518482036040860152610d478282610c9e565b91505060608301518482036060860152610d618282610c9e565b91505060808301518482036080860152610d7b8282610c9e565b91505060a083015184820360a0860152610d958282610c9e565b91505060c0830151610daa60c0860182610cd7565b5060e0830151610dbd60e0860182610ce6565b508091505092915050565b60006020820190508181036000830152610de28184610cf5565b905092915050565b610df381610a67565b82525050565b6000602082019050610e0e6000830184610dea565b92915050565b6000610e1f82610a67565b9050919050565b610e2f81610e14565b8114610e3a57600080fd5b50565b600081359050610e4c81610e26565b92915050565b60008060408385031215610e6957610e68610a42565b5b6000610e7785828601610a90565b9250506020610e8885828601610e3d565b9150509250929050565b7f4e487b7100000000000000000000000000000000000000000000000000000000600052602260045260246000fd5b60006002820490506001821680610ed957607f821691505b60208210811415610eed57610eec610e92565b5b50919050565b7f656e74726f206120636f6e73756c746172000000000000000000000000000000600082015250565b6000610f29601183610add565b9150610f3482610ef3565b602082019050919050565b60006020820190508181036000830152610f5881610f1c565b9050919050565b7f7573756172696f2076616c69646f000000000000000000000000000000000000600082015250565b6000610f95600e83610add565b9150610fa082610f5f565b602082019050919050565b60006020820190508181036000830152610fc481610f88565b9050919050565b7f6e6f2065786973746520656c207573756172696f000000000000000000000000600082015250565b6000611001601483610add565b915061100c82610fcb565b602082019050919050565b6000602082019050818103600083015261103081610ff4565b9050919050565b7f4e6f20657869737465206573652070616369656e746500000000000000000000600082015250565b600061106d601683610add565b915061107882611037565b602082019050919050565b6000602082019050818103600083015261109c81611060565b905091905056fea2646970667358221220c540bc16a1f5ef0c33060df818a76470e349978032c1c2854199dfa448d7e43c64736f6c634300080b0033",
  "immutableReferences": {},
  "source": "pragma solidity >=0.4.22 <0.9.0; // TODO: Ajustar la versin por consenso con Jos\n\nimport \"../logica/Persona.sol\";\nimport \"../persistence/PersonaDAO.sol\";\n\ncontract AccesoService {\n    address public creador;\n\n    PersonaDAO private personaDao;\n\n    constructor() public {\n        creador = msg.sender; // creador del contrato\n        personaDao = new PersonaDAO(); //TODO: verificar si queda guardado el objeto o si hay mejor manera\n        // TODO: quiza deba aplicar singleton a los dao para no tener multiples listas con diferente informacin\n    }\n\n    function login() public returns (Persona.PersonaStruct memory) {\n        address direccion = msg.sender;\n        // TODO: buscar persona en arreglo\n        return personaDao.consultar(direccion);\n    }\n\n    /*\n    // TODO: buscar porque es uint256\n    function buscarPermisosDeRol(uint256 funcionId) public view returns(bool){\n        address direccion = msg.sender;\n        // TODO: esto es como un filtro (averiguar si lo hay en solidity) y sirve para ver si un usario tiene acceso a x metodo\n    }\n    */\n}\n",
  "sourcePath": "/home/felipe/Documentos/Blockchain/codigo/back-hce/contracts/service/AccesoService.sol",
  "compiler": {
    "name": "solc",
    "version": "0.8.11+commit.d7f03943.Emscripten.clang"
  },
  "schemaVersion": "3.4.4",
  "updatedAt": "2022-01-22T03:55:50.322Z",
  "networkType": "ethereum",
  "devdoc": {
    "kind": "dev",
    "methods": {},
    "version": 1
  },
  "userdoc": {
    "kind": "user",
    "methods": {},
    "version": 1
  }
}