{
  "contractName": "AccesoHistoriaClinicaMapper",
  "abi": [
    {
      "inputs": [],
      "stateMutability": "nonpayable",
      "type": "constructor"
    },
    {
      "anonymous": false,
      "inputs": [
        {
          "indexed": false,
          "internalType": "string",
          "name": "data",
          "type": "string"
        }
      ],
      "name": "Log",
      "type": "event"
    },
    {
      "inputs": [],
      "name": "creador",
      "outputs": [
        {
          "internalType": "address",
          "name": "",
          "type": "address"
        }
      ],
      "stateMutability": "view",
      "type": "function",
      "constant": true
    },
    {
      "inputs": [
        {
          "internalType": "address",
          "name": "direccionPaciente",
          "type": "address"
        },
        {
          "internalType": "address",
          "name": "direccionMedico",
          "type": "address"
        },
        {
          "internalType": "contract PermisoDeAccesoVO",
          "name": "permiso",
          "type": "address"
        }
      ],
      "name": "setPermiso",
      "outputs": [
        {
          "internalType": "uint256",
          "name": "",
          "type": "uint256"
        }
      ],
      "stateMutability": "nonpayable",
      "type": "function"
    },
    {
      "inputs": [
        {
          "internalType": "address",
          "name": "direccion",
          "type": "address"
        }
      ],
      "name": "getPermisosDeAccesoActivosPorHistoriaClinica",
      "outputs": [
        {
          "internalType": "contract PermisoDeAccesoVO[]",
          "name": "response",
          "type": "address[]"
        }
      ],
      "stateMutability": "view",
      "type": "function",
      "constant": true
    },
    {
      "inputs": [
        {
          "internalType": "address",
          "name": "direccion",
          "type": "address"
        }
      ],
      "name": "getPermisosDeAccesoPorHistoriaClinica",
      "outputs": [
        {
          "internalType": "contract PermisoDeAccesoVO[]",
          "name": "",
          "type": "address[]"
        }
      ],
      "stateMutability": "view",
      "type": "function",
      "constant": true
    },
    {
      "inputs": [
        {
          "internalType": "address",
          "name": "direccionPaciente",
          "type": "address"
        },
        {
          "internalType": "address",
          "name": "direccionMedico",
          "type": "address"
        }
      ],
      "name": "esPermisoVigente",
      "outputs": [
        {
          "internalType": "bool",
          "name": "",
          "type": "bool"
        }
      ],
      "stateMutability": "view",
      "type": "function",
      "constant": true
    },
    {
      "inputs": [
        {
          "internalType": "address",
          "name": "direccion",
          "type": "address"
        }
      ],
      "name": "getPermisosDeAccesoActivosPorMedico",
      "outputs": [
        {
          "internalType": "contract PermisoDeAccesoVO[]",
          "name": "response",
          "type": "address[]"
        }
      ],
      "stateMutability": "view",
      "type": "function",
      "constant": true
    },
    {
      "inputs": [
        {
          "internalType": "address",
          "name": "direccion",
          "type": "address"
        }
      ],
      "name": "getPermisosDeAccesoPorMedico",
      "outputs": [
        {
          "internalType": "contract PermisoDeAccesoVO[]",
          "name": "",
          "type": "address[]"
        }
      ],
      "stateMutability": "view",
      "type": "function",
      "constant": true
    },
    {
      "inputs": [
        {
          "internalType": "address",
          "name": "direccionPaciente",
          "type": "address"
        },
        {
          "internalType": "address",
          "name": "direccionMedico",
          "type": "address"
        }
      ],
      "name": "getPermisos",
      "outputs": [
        {
          "internalType": "contract PermisoDeAccesoVO[]",
          "name": "",
          "type": "address[]"
        }
      ],
      "stateMutability": "view",
      "type": "function",
      "constant": true
    },
    {
      "inputs": [
        {
          "internalType": "contract PermisoDeAccesoVO[]",
          "name": "permisos",
          "type": "address[]"
        }
      ],
      "name": "filtroPermisosDeAccesoActivos",
      "outputs": [
        {
          "internalType": "contract PermisoDeAccesoVO[]",
          "name": "",
          "type": "address[]"
        }
      ],
      "stateMutability": "view",
      "type": "function",
      "constant": true
    },
    {
      "inputs": [
        {
          "internalType": "contract PermisoDeAccesoVO[]",
          "name": "permisos",
          "type": "address[]"
        }
      ],
      "name": "filtroPermisosDeAccesoPendientes",
      "outputs": [
        {
          "internalType": "contract PermisoDeAccesoVO[]",
          "name": "",
          "type": "address[]"
        }
      ],
      "stateMutability": "view",
      "type": "function",
      "constant": true
    },
    {
      "inputs": [
        {
          "internalType": "address",
          "name": "direccionPaciente",
          "type": "address"
        },
        {
          "internalType": "address",
          "name": "direccionMedico",
          "type": "address"
        }
      ],
      "name": "crearLlave",
      "outputs": [
        {
          "internalType": "string",
          "name": "",
          "type": "string"
        }
      ],
      "stateMutability": "pure",
      "type": "function",
      "constant": true
    },
    {
      "inputs": [],
      "name": "selfDestruct",
      "outputs": [],
      "stateMutability": "nonpayable",
      "type": "function"
    }
  ],
  "bytecode": "0x608060405234801561001057600080fd5b50600080546001600160a01b03191633179055611cbc806100326000396000f3fe608060405234801561001057600080fd5b50600436106100d45760003560e01c80637d02769f11610081578063da2f42611161005b578063da2f4261146101b1578063dd2861b7146101d4578063dd563d53146101e757600080fd5b80637d02769f1461016957806392ebdcd21461017c5780639cb8a26a146101a757600080fd5b806353d9c209116100b257806353d9c209146101435780636ef6f497146101565780636ff30e691461012357600080fd5b8063013f8516146100d95780634bfb14c5146101025780634dfc9b4c14610123575b600080fd5b6100ec6100e73660046116c5565b6101fa565b6040516100f9919061174e565b60405180910390f35b610115610110366004611761565b610256565b6040519081526020016100f9565b6101366101313660046117ac565b610903565b6040516100f991906117c9565b6101366101513660046116c5565b6109a0565b610136610164366004611881565b610a2a565b610136610177366004611881565b610c56565b60005461018f906001600160a01b031681565b6040516001600160a01b0390911681526020016100f9565b6101af610e51565b005b6101c46101bf3660046116c5565b610f05565b60405190151581526020016100f9565b6101366101e23660046117ac565b610fba565b6101366101f53660046117ac565b6111ce565b6060610205836113e2565b6040516020016102159190611920565b60405160208183030381529060405261022d836113e2565b60405160200161023e929190611961565b60405160208183030381529060405290505b92915050565b60008061026385856101fa565b905060006001826040516102779190611990565b9081526040519081900360200190208054909150156104275760006102f4828054806020026020016040519081016040528092919081815260200182805480156102ea57602002820191906000526020600020905b81546001600160a01b031681526001909101906020018083116102cc575b5050505050610c56565b80519091501561034b5760405162461bcd60e51b815260206004820152601b60248201527f59612065786973746520756e207065726d69736f2061637469766f000000000060448201526064015b60405180910390fd5b6103ad828054806020026020016040519081016040528092919081815260200182805480156103a357602002820191906000526020600020905b81546001600160a01b03168152600190910190602001808311610385575b5050505050610a2a565b8051909150156104255760405162461bcd60e51b815260206004820152602b60248201527f59612065786973746520756e207065726d69736f2070656e6469656e7465206460448201527f6520726573706f6e6465720000000000000000000000000000000000000000006064820152608401610342565b505b6040517f16f167500000000000000000000000000000000000000000000000000000000081526001600160a01b0387811660048301528516906316f1675090602401600060405180830381600087803b15801561048357600080fd5b505af1158015610497573d6000803e3d6000fd5b50506040517ffd2f22390000000000000000000000000000000000000000000000000000000081526001600160a01b0388811660048301528716925063fd2f22399150602401600060405180830381600087803b1580156104f757600080fd5b505af115801561050b573d6000803e3d6000fd5b505082546001810184556000848152602080822090920180547fffffffffffffffffffffffff0000000000000000000000000000000000000000166001600160a01b038a8116919091179091558a168152600382526040808220805482518186028101860190935280835290955061063c945087939192869284015b828210156106335783829060005260206000200180546105a6906119ac565b80601f01602080910402602001604051908101604052809291908181526020018280546105d2906119ac565b801561061f5780601f106105f45761010080835404028352916020019161061f565b820191906000526020600020905b81548152906001019060200180831161060257829003601f168201915b505050505081526020019060010190610587565b505050506113f8565b61065e5780546001810182556000828152602090200161065c8482611a35565b505b6001600160a01b038616600090815260026020908152604080832080548251818502810185019093528083529093610746938893928692909184015b828210156106335783829060005260206000200180546106b9906119ac565b80601f01602080910402602001604051908101604052809291908181526020018280546106e5906119ac565b80156107325780601f1061070757610100808354040283529160200191610732565b820191906000526020600020905b81548152906001019060200180831161071557829003601f168201915b50505050508152602001906001019061069a565b610768578054600181018255600082815260209020016107668582611a35565b505b600480546001810182556000919091527f8a35acfbc15ff81a39ae7d344fd709f28e8600b4aa8c65c6b64bfe7fe36bd19b81016107a58682611a35565b506040517fd0e0ba95000000000000000000000000000000000000000000000000000000008152600481018290526001600160a01b0388169063d0e0ba9590602401600060405180830381600087803b15801561080157600080fd5b505af1158015610815573d6000803e3d6000fd5b50506040517fab2d092c0000000000000000000000000000000000000000000000000000000081526001600160a01b038a16925063ab2d092c915061085e90889060040161174e565b600060405180830381600087803b15801561087857600080fd5b505af115801561088c573d6000803e3d6000fd5b505050507fcf34ef537ac33ee1ac626ca1587a0a7e8e51561e5514f8cb36afa1c5102b3bab6040516108ef9060208082526015908201527f536520736f6c696369746f20756e2061636365736f0000000000000000000000604082015260600190565b60405180910390a198975050505050505050565b6040517fdd563d530000000000000000000000000000000000000000000000000000000081526001600160a01b0382166004820152606090600090309063dd563d5390602401600060405180830381865afa158015610966573d6000803e3d6000fd5b505050506040513d6000823e601f3d908101601f1916820160405261098e9190810190611af5565b905061099981610c56565b9392505050565b606060006109ae84846101fa565b90506001816040516109c09190611990565b9081526040805191829003602090810183208054808302850183019093528284529190830182828015610a1c57602002820191906000526020600020905b81546001600160a01b031681526001909101906020018083116109fe575b505050505091505092915050565b60606000805b8351811015610ad857838181518110610a4b57610a4b611b84565b60200260200101516001600160a01b03166350cfa3b86040518163ffffffff1660e01b8152600401602060405180830381865afa158015610a90573d6000803e3d6000fd5b505050506040513d601f19601f82011682018060405250810190610ab49190611b9a565b610ac65781610ac281611bd2565b9250505b80610ad081611bd2565b915050610a30565b5080600003610b155760005b604051908082528060200260200182016040528015610b0d578160200160208202803683370190505b509392505050565b60008167ffffffffffffffff811115610b3057610b30611816565b604051908082528060200260200182016040528015610b59578160200160208202803683370190505b5090506000805b8551811015610c4c57858181518110610b7b57610b7b611b84565b60200260200101516001600160a01b03166350cfa3b86040518163ffffffff1660e01b8152600401602060405180830381865afa158015610bc0573d6000803e3d6000fd5b505050506040513d601f19601f82011682018060405250810190610be49190611b9a565b610c3a57858181518110610bfa57610bfa611b84565b6020026020010151838381518110610c1457610c14611b84565b6001600160a01b039092166020928302919091019091015281610c3681611bd2565b9250505b80610c4481611bd2565b915050610b60565b5090949350505050565b60606000805b8351811015610d075742848281518110610c7857610c78611b84565b60200260200101516001600160a01b031663b251f0056040518163ffffffff1660e01b8152600401602060405180830381865afa158015610cbd573d6000803e3d6000fd5b505050506040513d601f19601f82011682018060405250810190610ce19190611beb565b1115610cf55781610cf181611bd2565b9250505b80610cff81611bd2565b915050610c5c565b5080600003610d17576000610ae4565b60008167ffffffffffffffff811115610d3257610d32611816565b604051908082528060200260200182016040528015610d5b578160200160208202803683370190505b5090506000805b8551811015610c4c5742868281518110610d7e57610d7e611b84565b60200260200101516001600160a01b031663b251f0056040518163ffffffff1660e01b8152600401602060405180830381865afa158015610dc3573d6000803e3d6000fd5b505050506040513d601f19601f82011682018060405250810190610de79190611beb565b1115610e3f57858181518110610dff57610dff611b84565b6020026020010151838381518110610e1957610e19611b84565b6001600160a01b039092166020928302919091019091015281610e3b81611bd2565b9250505b80610e4981611bd2565b915050610d62565b6000546001600160a01b03163314610ef75760405162461bcd60e51b815260206004820152604160248201527f457374612066756e63696f6e20736f6c6f2070756564652073657220656a656360448201527f757461646120706f7220656c2063726561646f722064656c20636f6e7472617460648201527f6f00000000000000000000000000000000000000000000000000000000000000608482015260a401610342565b6000546001600160a01b0316ff5b600080610f1284846101fa565b90506000600182604051610f269190611990565b908152602001604051809103902090506000610f98828054806020026020016040519081016040528092919081815260200182805480156102ea576020028201919060005260206000209081546001600160a01b031681526001909101906020018083116102cc575050505050610c56565b805190915015610fae5760019350505050610250565b60009350505050610250565b6001600160a01b038116600090815260026020526040812080546060929067ffffffffffffffff811115610ff057610ff0611816565b604051908082528060200260200182016040528015611019578160200160208202803683370190505b5082549091505b8015610b0d57600083611034600184611c04565b8154811061104457611044611b84565b906000526020600020018054611059906119ac565b80601f0160208091040260200160405190810160405280929190818152602001828054611085906119ac565b80156110d25780601f106110a7576101008083540402835291602001916110d2565b820191906000526020600020905b8154815290600101906020018083116110b557829003601f168201915b5050505050905060006001826040516110eb9190611990565b908152604080519182900360209081018320805480830285018301909352828452919083018282801561114757602002820191906000526020600020905b81546001600160a01b03168152600190910190602001808311611129575b505050505090506000816001835161115f9190611c04565b8151811061116f5761116f611b84565b6020026020010151905080856001866111889190611c04565b8151811061119857611198611b84565b60200260200101906001600160a01b031690816001600160a01b03168152505050505080806111c690611c17565b915050611020565b6001600160a01b038116600090815260036020526040812080546060929067ffffffffffffffff81111561120457611204611816565b60405190808252806020026020018201604052801561122d578160200160208202803683370190505b5082549091505b8015610b0d57600083611248600184611c04565b8154811061125857611258611b84565b90600052602060002001805461126d906119ac565b80601f0160208091040260200160405190810160405280929190818152602001828054611299906119ac565b80156112e65780601f106112bb576101008083540402835291602001916112e6565b820191906000526020600020905b8154815290600101906020018083116112c957829003601f168201915b5050505050905060006001826040516112ff9190611990565b908152604080519182900360209081018320805480830285018301909352828452919083018282801561135b57602002820191906000526020600020905b81546001600160a01b0316815260019091019060200180831161133d575b50505050509050600081600183516113739190611c04565b8151811061138357611383611b84565b60200260200101519050808560018661139c9190611c04565b815181106113ac576113ac611b84565b60200260200101906001600160a01b031690816001600160a01b03168152505050505080806113da90611c17565b915050611234565b60606102506001600160a01b03831660146114cc565b80516000905b80156114c25773__Utils_________________________________63bed34bba8461142a600185611c04565b8151811061143a5761143a611b84565b6020026020010151866040518363ffffffff1660e01b8152600401611460929190611c2e565b602060405180830381865af415801561147d573d6000803e3d6000fd5b505050506040513d601f19601f820116820180604052508101906114a19190611b9a565b156114b0576001915050610250565b806114ba81611c17565b9150506113fe565b5060009392505050565b606060006114db836002611c5c565b6114e6906002611c73565b67ffffffffffffffff8111156114fe576114fe611816565b6040519080825280601f01601f191660200182016040528015611528576020820181803683370190505b5090507f30000000000000000000000000000000000000000000000000000000000000008160008151811061155f5761155f611b84565b60200101906001600160f81b031916908160001a9053507f7800000000000000000000000000000000000000000000000000000000000000816001815181106115aa576115aa611b84565b60200101906001600160f81b031916908160001a90535060006115ce846002611c5c565b6115d9906001611c73565b90505b600181111561165e577f303132333435363738396162636465660000000000000000000000000000000085600f166010811061161a5761161a611b84565b1a60f81b82828151811061163057611630611b84565b60200101906001600160f81b031916908160001a90535060049490941c9361165781611c17565b90506115dc565b5083156109995760405162461bcd60e51b815260206004820181905260248201527f537472696e67733a20686578206c656e67746820696e73756666696369656e746044820152606401610342565b6001600160a01b03811681146116c257600080fd5b50565b600080604083850312156116d857600080fd5b82356116e3816116ad565b915060208301356116f3816116ad565b809150509250929050565b60005b83811015611719578181015183820152602001611701565b50506000910152565b6000815180845261173a8160208601602086016116fe565b601f01601f19169290920160200192915050565b6020815260006109996020830184611722565b60008060006060848603121561177657600080fd5b8335611781816116ad565b92506020840135611791816116ad565b915060408401356117a1816116ad565b809150509250925092565b6000602082840312156117be57600080fd5b8135610999816116ad565b6020808252825182820181905260009190848201906040850190845b8181101561180a5783516001600160a01b0316835292840192918401916001016117e5565b50909695505050505050565b634e487b7160e01b600052604160045260246000fd5b604051601f8201601f1916810167ffffffffffffffff8111828210171561185557611855611816565b604052919050565b600067ffffffffffffffff82111561187757611877611816565b5060051b60200190565b6000602080838503121561189457600080fd5b823567ffffffffffffffff8111156118ab57600080fd5b8301601f810185136118bc57600080fd5b80356118cf6118ca8261185d565b61182c565b81815260059190911b820183019083810190878311156118ee57600080fd5b928401925b82841015611915578335611906816116ad565b825292840192908401906118f3565b979650505050505050565b600082516119328184602087016116fe565b7f2d00000000000000000000000000000000000000000000000000000000000000920191825250600101919050565b600083516119738184602088016116fe565b8351908301906119878183602088016116fe565b01949350505050565b600082516119a28184602087016116fe565b9190910192915050565b600181811c908216806119c057607f821691505b6020821081036119e057634e487b7160e01b600052602260045260246000fd5b50919050565b601f821115611a3057600081815260208120601f850160051c81016020861015611a0d5750805b601f850160051c820191505b81811015611a2c57828155600101611a19565b5050505b505050565b815167ffffffffffffffff811115611a4f57611a4f611816565b611a6381611a5d84546119ac565b846119e6565b602080601f831160018114611a985760008415611a805750858301515b600019600386901b1c1916600185901b178555611a2c565b600085815260208120601f198616915b82811015611ac757888601518255948401946001909101908401611aa8565b5085821015611ae55787850151600019600388901b60f8161c191681555b5050505050600190811b01905550565b60006020808385031215611b0857600080fd5b825167ffffffffffffffff811115611b1f57600080fd5b8301601f81018513611b3057600080fd5b8051611b3e6118ca8261185d565b81815260059190911b82018301908381019087831115611b5d57600080fd5b928401925b82841015611915578351611b75816116ad565b82529284019290840190611b62565b634e487b7160e01b600052603260045260246000fd5b600060208284031215611bac57600080fd5b8151801515811461099957600080fd5b634e487b7160e01b600052601160045260246000fd5b600060018201611be457611be4611bbc565b5060010190565b600060208284031215611bfd57600080fd5b5051919050565b8181038181111561025057610250611bbc565b600081611c2657611c26611bbc565b506000190190565b604081526000611c416040830185611722565b8281036020840152611c538185611722565b95945050505050565b808202811582820484141761025057610250611bbc565b8082018082111561025057610250611bbc56fea26469706673582212204523dbddc0d1e8111f42e065f5a03a4eab6563a2100c730bb949ea257525a30e64736f6c63430008110033",
  "immutableReferences": {},
  "source": "// SPDX-License-Identifier: MIT\npragma solidity ^0.8.17;\n\nimport \"./AccesoHistoriaClinicaMapperInterface.sol\";\nimport \"@openzeppelin/contracts/utils/Strings.sol\";\nimport \"../utils/Utils.sol\";\n\ncontract AccesoHistoriaClinicaMapper is AccesoHistoriaClinicaMapperInterface {\n\n    address public creador;\n\n    // TODO: Actualizar clase en enterprise architect\n\n    mapping(string => PermisoDeAccesoVO[]) private permisosDeAccesoTemporal;\n    mapping(address => string[]) private permisosDeAccesoMedico;\n    mapping(address => string[]) private permisosDeAccesoHistoriaClinica;\n    string[] private indices;\n\n    constructor() {\n        creador = msg.sender;\n    }\n\n    function setPermiso(\n        address direccionPaciente,\n        address direccionMedico,\n        PermisoDeAccesoVO permiso\n    ) external returns (uint256) {\n        // https://dev.to/hannudaniel/concatenate-two-strings-on-the-blockchain-using-solidity-smart-contracts-new-feature-in-v0812-549g\n        string memory llave = crearLlave(direccionPaciente, direccionMedico);\n        /*\n        bool hayPermisoVigente = this.esPermisoVigente(direccionPaciente, direccionMedico);\n        if (hayPermisoVigente) {\n            revert(\"Ya existe un permiso activo\");\n        }\n        */\n        PermisoDeAccesoVO[] storage permisos = permisosDeAccesoTemporal[llave];\n\n        if (permisos.length > 0) {\n            PermisoDeAccesoVO[]\n                memory permisosinvalidos = filtroPermisosDeAccesoActivos(\n                    permisos\n                );\n\n            if (permisosinvalidos.length > 0) {\n                revert(\"Ya existe un permiso activo\");\n            }\n\n            permisosinvalidos = filtroPermisosDeAccesoPendientes(permisos);\n\n            if (permisosinvalidos.length > 0) {\n                revert(\"Ya existe un permiso pendiente de responder\");\n            }\n        }\n\n        // TODO: Validar si hay una solicitud en curso (Estado false)\n\n        permiso.setPaciente(direccionPaciente);\n        permiso.setSolicitante(direccionMedico);\n\n        permisos.push(permiso);        \n\n        string[]\n            storage listaDeLlavesHistoriaClinica = permisosDeAccesoHistoriaClinica[\n                direccionPaciente\n            ];\n        if (!existeLlaveEnLista(llave, listaDeLlavesHistoriaClinica)) {\n            listaDeLlavesHistoriaClinica.push(llave);\n        }\n        string[] storage listaDeLlavesMedico = permisosDeAccesoMedico[\n            direccionMedico\n        ];\n        if (!existeLlaveEnLista(llave, listaDeLlavesMedico)) {\n            listaDeLlavesMedico.push(llave);\n        }\n\n        uint256 id = indices.length;\n        indices.push(llave);\n        \n        permiso.setId(id);\n        permiso.setLlave(llave);\n\n        emit Log(\"Se solicito un acceso\");\n        return id;\n    }\n\n    function getPermisosDeAccesoActivosPorHistoriaClinica(address direccion)\n        external\n        view\n        returns (PermisoDeAccesoVO[] memory response)\n    {\n        PermisoDeAccesoVO[] memory permisosHistoriaClinica = this\n            .getPermisosDeAccesoPorHistoriaClinica(direccion);\n        return filtroPermisosDeAccesoActivos(permisosHistoriaClinica);\n    }\n\n    // MELA, probar\n    function getPermisosDeAccesoPorHistoriaClinica(address direccion)\n        public\n        view\n        returns (PermisoDeAccesoVO[] memory)\n    {\n        string[] storage listaDeLlaves = permisosDeAccesoHistoriaClinica[\n            direccion\n        ];\n        // TODO If y return si es 0\n        PermisoDeAccesoVO[] memory response = new PermisoDeAccesoVO[](\n            listaDeLlaves.length\n        );\n\n        for (uint256 i = listaDeLlaves.length; i > 0; i--) {\n            string memory llave = listaDeLlaves[i - 1];\n            PermisoDeAccesoVO[]\n                memory historialDePermisos = permisosDeAccesoTemporal[llave];\n            PermisoDeAccesoVO permisoMasReciente = historialDePermisos[\n                historialDePermisos.length - 1\n            ];\n            // ajustar orden del response descendente\n            response[i - 1] = permisoMasReciente;\n        }\n        return response;\n    }\n\n    function esPermisoVigente(\n        address direccionPaciente,\n        address direccionMedico\n    ) external view returns (bool) {\n        string memory llave = crearLlave(direccionPaciente, direccionMedico);\n        PermisoDeAccesoVO[] storage permisos = permisosDeAccesoTemporal[llave];\n        PermisoDeAccesoVO[]\n            memory permisosActivos = filtroPermisosDeAccesoActivos(permisos);\n        if (permisosActivos.length > 0) {\n            return true;\n        } else {\n            return false;\n        }\n    }\n\n    function getPermisosDeAccesoActivosPorMedico(address direccion)\n        external\n        view\n        returns (PermisoDeAccesoVO[] memory response)\n    {\n        PermisoDeAccesoVO[] memory permisosHistoriaClinica = this\n            .getPermisosDeAccesoPorHistoriaClinica(direccion);\n        return filtroPermisosDeAccesoActivos(permisosHistoriaClinica);\n    }\n\n    // TODO\n    function getPermisosDeAccesoPorMedico(address direccion)\n        external\n        view\n        returns (PermisoDeAccesoVO[] memory)\n    {\n        string[] storage listaDeLlaves = permisosDeAccesoMedico[direccion];\n\n        PermisoDeAccesoVO[] memory response = new PermisoDeAccesoVO[](\n            listaDeLlaves.length\n        );\n\n        for (uint256 i = listaDeLlaves.length; i > 0; i--) {\n            string memory llave = listaDeLlaves[i - 1];\n            PermisoDeAccesoVO[]\n                memory historialDePermisos = permisosDeAccesoTemporal[llave];\n            PermisoDeAccesoVO permisoMasReciente = historialDePermisos[\n                historialDePermisos.length - 1\n            ];\n            response[i - 1] = permisoMasReciente;\n        }\n        return response;\n    }\n\n    function getPermisos(address direccionPaciente, address direccionMedico)\n        external\n        view\n        returns (PermisoDeAccesoVO[] memory)\n    {\n        string memory llave = crearLlave(direccionPaciente, direccionMedico);\n        return permisosDeAccesoTemporal[llave];\n    }\n\n    /* internal*/\n    function filtroPermisosDeAccesoActivos(PermisoDeAccesoVO[] memory permisos)\n        public\n        view\n        returns (PermisoDeAccesoVO[] memory)\n    {\n        uint256 size = 0;\n        for (uint256 i = 0; i < permisos.length; i++) {\n            if (uint256(permisos[i].getFechaExpiracion()) > block.timestamp) {\n                size++;\n            }\n        }\n\n        if (size == 0) {\n            return new PermisoDeAccesoVO[](0);\n        }\n        PermisoDeAccesoVO[] memory response = new PermisoDeAccesoVO[](size);\n        uint256 index = 0;\n        for (uint256 i = 0; i < permisos.length; i++) {\n            if (uint256(permisos[i].getFechaExpiracion()) > block.timestamp) {\n                response[index] = permisos[i];\n                index++;\n            }\n        }\n        return response;\n    }\n\n        /* internal*/\n    function filtroPermisosDeAccesoPendientes(PermisoDeAccesoVO[] memory permisos)\n        public\n        view\n        returns (PermisoDeAccesoVO[] memory)\n    {\n        uint256 size = 0;\n        for (uint256 i = 0; i < permisos.length; i++) {\n            if (!permisos[i].getFueRespondido()) {\n                size++;\n            }\n        }\n\n        if (size == 0) {\n            return new PermisoDeAccesoVO[](0);\n        }\n        PermisoDeAccesoVO[] memory response = new PermisoDeAccesoVO[](size);\n        uint256 index = 0;\n        for (uint256 i = 0; i < permisos.length; i++) {\n            if (!permisos[i].getFueRespondido()) {\n                response[index] = permisos[i];\n                index++;\n            }\n        }\n        return response;\n    }\n\n    /* internal*/\n    function crearLlave(address direccionPaciente, address direccionMedico)\n        public\n        pure\n        returns (string memory)\n    {\n        return\n            string.concat(\n                string.concat(Strings.toHexString(direccionPaciente), \"-\"),\n                Strings.toHexString(direccionMedico)\n            );\n    }\n\n    // Un medico verifica si tiene x HC en su lista (solo para uso interno)\n    function existeLlaveEnLista(\n        string memory llave,\n        string[] memory listDeLlaves\n    ) internal pure returns (bool) {\n        for (uint256 i = listDeLlaves.length; i > 0; i--) {\n            if (Utils.compareStrings(listDeLlaves[i - 1], llave)) {\n                return true;\n            }\n        }\n        return false;\n    }\n\n    modifier esPropietario() {\n        require(\n            msg.sender == creador,\n            \"Esta funcion solo puede ser ejecutada por el creador del contrato\"\n        );\n        _; // ac se ejecuta la funcin\n    }\n\n    function selfDestruct() public esPropietario {\n        selfdestruct(payable(creador));\n    }\n}\n",
  "sourcePath": "/back/contracts/persistence/AccesoHistoriaClinicaMapper.sol",
  "compiler": {
    "name": "solc",
    "version": "0.8.17+commit.8df45f5f.Emscripten.clang"
  },
  "schemaVersion": "3.4.13",
  "updatedAt": "2023-05-03T22:20:05.964Z",
  "networkType": "ethereum",
  "devdoc": {
    "kind": "dev",
    "methods": {},
    "version": 1
  },
  "userdoc": {
    "kind": "user",
    "methods": {},
    "version": 1
  }
}