{
  "contractName": "AccesoService",
  "abi": [
    {
      "inputs": [],
      "stateMutability": "nonpayable",
      "type": "constructor"
    },
    {
      "anonymous": false,
      "inputs": [
        {
          "indexed": false,
          "internalType": "string",
          "name": "data",
          "type": "string"
        }
      ],
      "name": "Log",
      "type": "event"
    },
    {
      "inputs": [],
      "name": "ContratoPersonaAddress",
      "outputs": [
        {
          "internalType": "address",
          "name": "",
          "type": "address"
        }
      ],
      "stateMutability": "view",
      "type": "function"
    },
    {
      "inputs": [],
      "name": "creador",
      "outputs": [
        {
          "internalType": "address",
          "name": "",
          "type": "address"
        }
      ],
      "stateMutability": "view",
      "type": "function"
    },
    {
      "inputs": [],
      "name": "login",
      "outputs": [
        {
          "components": [
            {
              "internalType": "string",
              "name": "primerNombre",
              "type": "string"
            },
            {
              "internalType": "string",
              "name": "segundoNombre",
              "type": "string"
            },
            {
              "internalType": "string",
              "name": "primerApellido",
              "type": "string"
            },
            {
              "internalType": "string",
              "name": "segundoApellido",
              "type": "string"
            },
            {
              "internalType": "string",
              "name": "identificacion",
              "type": "string"
            },
            {
              "components": [
                {
                  "internalType": "string",
                  "name": "nombre",
                  "type": "string"
                },
                {
                  "internalType": "string",
                  "name": "descripcion",
                  "type": "string"
                },
                {
                  "internalType": "bool",
                  "name": "estaActiva",
                  "type": "bool"
                }
              ],
              "internalType": "struct TipoIdentificacionStruct",
              "name": "tipoIdentificacionId",
              "type": "tuple"
            },
            {
              "internalType": "uint256",
              "name": "rolId",
              "type": "uint256"
            },
            {
              "internalType": "bool",
              "name": "isValue",
              "type": "bool"
            }
          ],
          "internalType": "struct PersonaStruct",
          "name": "",
          "type": "tuple"
        }
      ],
      "stateMutability": "nonpayable",
      "type": "function"
    },
    {
      "inputs": [
        {
          "internalType": "address",
          "name": "direccionUsuario",
          "type": "address"
        }
      ],
      "name": "consultarRol",
      "outputs": [
        {
          "internalType": "uint256",
          "name": "",
          "type": "uint256"
        }
      ],
      "stateMutability": "nonpayable",
      "type": "function"
    },
    {
      "inputs": [
        {
          "internalType": "address",
          "name": "direccion",
          "type": "address"
        }
      ],
      "name": "setContratoPersonaAddress",
      "outputs": [],
      "stateMutability": "nonpayable",
      "type": "function"
    }
  ],
  "bytecode": "0x608060405234801561001057600080fd5b50336000806101000a81548173ffffffffffffffffffffffffffffffffffffffff021916908373ffffffffffffffffffffffffffffffffffffffff160217905550610fdf806100606000396000f3fe608060405234801561001057600080fd5b50600436106100575760003560e01c806340cd7a601461005c578063928c135c1461007857806392ebdcd214610096578063b34e97e8146100b4578063ba542708146100d2575b600080fd5b610076600480360381019061007191906105dd565b610102565b005b610080610237565b60405161008d9190610619565b60405180910390f35b61009e61025d565b6040516100ab9190610619565b60405180910390f35b6100bc610281565b6040516100c9919061082b565b60405180910390f35b6100ec60048036038101906100e791906105dd565b610446565b6040516100f9919061085c565b60405180910390f35b60008054906101000a900473ffffffffffffffffffffffffffffffffffffffff1673ffffffffffffffffffffffffffffffffffffffff163373ffffffffffffffffffffffffffffffffffffffff1614610190576040517f08c379a000000000000000000000000000000000000000000000000000000000815260040161018790610920565b60405180910390fd5b80600160006101000a81548173ffffffffffffffffffffffffffffffffffffffff021916908373ffffffffffffffffffffffffffffffffffffffff160217905550600160009054906101000a900473ffffffffffffffffffffffffffffffffffffffff16600260006101000a81548173ffffffffffffffffffffffffffffffffffffffff021916908373ffffffffffffffffffffffffffffffffffffffff16021790555050565b600160009054906101000a900473ffffffffffffffffffffffffffffffffffffffff1681565b60008054906101000a900473ffffffffffffffffffffffffffffffffffffffff1681565b6102896104fb565b6000339050600260009054906101000a900473ffffffffffffffffffffffffffffffffffffffff1673ffffffffffffffffffffffffffffffffffffffff16637da8f6a5826040518263ffffffff1660e01b81526004016102e99190610619565b6000604051808303816000875af192505050801561032a57506040513d6000823e3d601f19601f820116820180604052508101906103279190610cd6565b60015b61040957610336610d2c565b806308c379a014156103fd575061034b610d4e565b8061035657506103ff565b7fcf34ef537ac33ee1ac626ca1587a0a7e8e51561e5514f8cb36afa1c5102b3bab60405161038390610e56565b60405180910390a17fcf34ef537ac33ee1ac626ca1587a0a7e8e51561e5514f8cb36afa1c5102b3bab816040516103ba9190610eaf565b60405180910390a16040517f08c379a00000000000000000000000000000000000000000000000000000000081526004016103f490610f1d565b60405180910390fd5b505b3d6000803e3d6000fd5b7fcf34ef537ac33ee1ac626ca1587a0a7e8e51561e5514f8cb36afa1c5102b3bab60405161043690610f89565b60405180910390a1809250505090565b600080600260009054906101000a900473ffffffffffffffffffffffffffffffffffffffff1673ffffffffffffffffffffffffffffffffffffffff16637da8f6a5846040518263ffffffff1660e01b81526004016104a49190610619565b6000604051808303816000875af11580156104c3573d6000803e3d6000fd5b505050506040513d6000823e3d601f19601f820116820180604052508101906104ec9190610cd6565b90508060c00151915050919050565b6040518061010001604052806060815260200160608152602001606081526020016060815260200160608152602001610532610548565b8152602001600081526020016000151581525090565b604051806060016040528060608152602001606081526020016000151581525090565b6000604051905090565b600080fd5b600080fd5b600073ffffffffffffffffffffffffffffffffffffffff82169050919050565b60006105aa8261057f565b9050919050565b6105ba8161059f565b81146105c557600080fd5b50565b6000813590506105d7816105b1565b92915050565b6000602082840312156105f3576105f2610575565b5b6000610601848285016105c8565b91505092915050565b6106138161059f565b82525050565b600060208201905061062e600083018461060a565b92915050565b600081519050919050565b600082825260208201905092915050565b60005b8381101561066e578082015181840152602081019050610653565b8381111561067d576000848401525b50505050565b6000601f19601f8301169050919050565b600061069f82610634565b6106a9818561063f565b93506106b9818560208601610650565b6106c281610683565b840191505092915050565b60008115159050919050565b6106e2816106cd565b82525050565b600060608301600083015184820360008601526107058282610694565b9150506020830151848203602086015261071f8282610694565b915050604083015161073460408601826106d9565b508091505092915050565b6000819050919050565b6107528161073f565b82525050565b60006101008301600083015184820360008601526107768282610694565b915050602083015184820360208601526107908282610694565b915050604083015184820360408601526107aa8282610694565b915050606083015184820360608601526107c48282610694565b915050608083015184820360808601526107de8282610694565b91505060a083015184820360a08601526107f882826106e8565b91505060c083015161080d60c0860182610749565b5060e083015161082060e08601826106d9565b508091505092915050565b600060208201905081810360008301526108458184610758565b905092915050565b6108568161073f565b82525050565b6000602082019050610871600083018461084d565b92915050565b600082825260208201905092915050565b7f457374612066756e63696f6e20736f6c6f2070756564652073657220656a656360008201527f757461646120706f7220656c2063726561646f722064656c20636f6e7472617460208201527f6f00000000000000000000000000000000000000000000000000000000000000604082015250565b600061090a604183610877565b915061091582610888565b606082019050919050565b60006020820190508181036000830152610939816108fd565b9050919050565b600080fd5b7f4e487b7100000000000000000000000000000000000000000000000000000000600052604160045260246000fd5b61097d82610683565b810181811067ffffffffffffffff8211171561099c5761099b610945565b5b80604052505050565b60006109af61056b565b90506109bb8282610974565b919050565b600080fd5b600080fd5b600080fd5b600067ffffffffffffffff8211156109ea576109e9610945565b5b6109f382610683565b9050602081019050919050565b6000610a13610a0e846109cf565b6109a5565b905082815260208101848484011115610a2f57610a2e6109ca565b5b610a3a848285610650565b509392505050565b600082601f830112610a5757610a566109c5565b5b8151610a67848260208601610a00565b91505092915050565b610a79816106cd565b8114610a8457600080fd5b50565b600081519050610a9681610a70565b92915050565b600060608284031215610ab257610ab1610940565b5b610abc60606109a5565b9050600082015167ffffffffffffffff811115610adc57610adb6109c0565b5b610ae884828501610a42565b600083015250602082015167ffffffffffffffff811115610b0c57610b0b6109c0565b5b610b1884828501610a42565b6020830152506040610b2c84828501610a87565b60408301525092915050565b610b418161073f565b8114610b4c57600080fd5b50565b600081519050610b5e81610b38565b92915050565b60006101008284031215610b7b57610b7a610940565b5b610b866101006109a5565b9050600082015167ffffffffffffffff811115610ba657610ba56109c0565b5b610bb284828501610a42565b600083015250602082015167ffffffffffffffff811115610bd657610bd56109c0565b5b610be284828501610a42565b602083015250604082015167ffffffffffffffff811115610c0657610c056109c0565b5b610c1284828501610a42565b604083015250606082015167ffffffffffffffff811115610c3657610c356109c0565b5b610c4284828501610a42565b606083015250608082015167ffffffffffffffff811115610c6657610c656109c0565b5b610c7284828501610a42565b60808301525060a082015167ffffffffffffffff811115610c9657610c956109c0565b5b610ca284828501610a9c565b60a08301525060c0610cb684828501610b4f565b60c08301525060e0610cca84828501610a87565b60e08301525092915050565b600060208284031215610cec57610ceb610575565b5b600082015167ffffffffffffffff811115610d0a57610d0961057a565b5b610d1684828501610b64565b91505092915050565b60008160e01c9050919050565b600060033d1115610d4b5760046000803e610d48600051610d1f565b90505b90565b600060443d1015610d5e57610de1565b610d6661056b565b60043d036004823e80513d602482011167ffffffffffffffff82111715610d8e575050610de1565b808201805167ffffffffffffffff811115610dac5750505050610de1565b80602083010160043d038501811115610dc9575050505050610de1565b610dd882602001850186610974565b82955050505050505b90565b7f736520726f6d70696f20706f7220756e20726576657274206f2072657175697260008201527f6500000000000000000000000000000000000000000000000000000000000000602082015250565b6000610e40602183610877565b9150610e4b82610de4565b604082019050919050565b60006020820190508181036000830152610e6f81610e33565b9050919050565b6000610e8182610634565b610e8b8185610877565b9350610e9b818560208601610650565b610ea481610683565b840191505092915050565b60006020820190508181036000830152610ec98184610e76565b905092915050565b7f4e6f2065786973746520657365207573756172696f0000000000000000000000600082015250565b6000610f07601583610877565b9150610f1282610ed1565b602082019050919050565b60006020820190508181036000830152610f3681610efa565b9050919050565b7f656e636f6e74726f206c6120706572736f6e6100000000000000000000000000600082015250565b6000610f73601383610877565b9150610f7e82610f3d565b602082019050919050565b60006020820190508181036000830152610fa281610f66565b905091905056fea26469706673582212200bf19c9ff46d84660308225c858ccb9c9869690f46d1797eacdc64264865f20f64736f6c634300080b0033",
  "immutableReferences": {},
  "source": "// SPDX-License-Identifier: MIT\npragma solidity ^0.8.10; \n\nimport \"../logica/Persona.sol\";\n\ncontract AccesoService {\n    event Log(string data);\n    address public creador;\n    address public ContratoPersonaAddress;\n    Persona private contratoPersona;\n\n    constructor() {\n        creador = msg.sender; // creador del contrato       \n    }\n\n    function login() external returns (PersonaStruct memory) {\n        address direccionUsuario = msg.sender;\n        // TODO: buscar persona en arreglo        ;\n        try contratoPersona.consultar(direccionUsuario) returns (\n            PersonaStruct memory response\n        ) {\n            emit Log(\"encontro la persona\");\n            return response;\n        } catch Error(string memory e) {\n            /*reason*/\n            emit Log(\"se rompio por un revert o require\");\n            emit Log(e);\n            revert(\"No existe ese usuario\");\n        }\n    }\n\n    function consultarRol(address direccionUsuario) public returns (uint256) {\n        PersonaStruct memory response = contratoPersona.consultar(direccionUsuario);\n        return response.rolId;\n    }\n\n    /*\n    // TODO: buscar porque es uint256\n    function buscarPermisosDeRol(uint256 funcionId) public view returns(bool){\n        address direccion = msg.sender;\n        // TODO: esto es como un filtro (averiguar si lo hay en solidity) y sirve para ver si un usario tiene acceso a x metodo\n    }\n    */\n\nfunction setContratoPersonaAddress(address direccion) public esPropietario {\n        ContratoPersonaAddress = direccion;\n        contratoPersona = Persona(ContratoPersonaAddress);\n    }\n\n    modifier esPropietario() {\n        require(\n            msg.sender == creador,\n            \"Esta funcion solo puede ser ejecutada por el creador del contrato\"\n        );\n        _; // ac se ejecuta la funcin\n    }\n}\n",
  "sourcePath": "/home/felipe/Documentos/Blockchain/codigo/back-hce/contracts/service/AccesoService.sol",
  "compiler": {
    "name": "solc",
    "version": "0.8.11+commit.d7f03943.Emscripten.clang"
  },
  "schemaVersion": "3.4.4",
  "updatedAt": "2022-02-07T00:46:03.891Z",
  "devdoc": {
    "kind": "dev",
    "methods": {},
    "version": 1
  },
  "userdoc": {
    "kind": "user",
    "methods": {},
    "version": 1
  }
}