{
  "contractName": "AccesoHistoriaClinica",
  "abi": [
    {
      "inputs": [],
      "stateMutability": "nonpayable",
      "type": "constructor"
    },
    {
      "anonymous": false,
      "inputs": [
        {
          "indexed": false,
          "internalType": "string",
          "name": "data",
          "type": "string"
        },
        {
          "indexed": true,
          "internalType": "address",
          "name": "generador",
          "type": "address"
        },
        {
          "indexed": true,
          "internalType": "address",
          "name": "notificado",
          "type": "address"
        }
      ],
      "name": "Respuesta",
      "type": "event"
    },
    {
      "anonymous": false,
      "inputs": [
        {
          "indexed": false,
          "internalType": "string",
          "name": "data",
          "type": "string"
        },
        {
          "indexed": true,
          "internalType": "address",
          "name": "generador",
          "type": "address"
        },
        {
          "indexed": true,
          "internalType": "address",
          "name": "notificado",
          "type": "address"
        }
      ],
      "name": "Solicitud",
      "type": "event"
    },
    {
      "inputs": [],
      "name": "creador",
      "outputs": [
        {
          "internalType": "address",
          "name": "",
          "type": "address"
        }
      ],
      "stateMutability": "view",
      "type": "function",
      "constant": true
    },
    {
      "inputs": [],
      "name": "getAcceso",
      "outputs": [
        {
          "internalType": "contract Acceso",
          "name": "",
          "type": "address"
        }
      ],
      "stateMutability": "view",
      "type": "function",
      "constant": true
    },
    {
      "inputs": [
        {
          "internalType": "contract Acceso",
          "name": "_accesoAddress",
          "type": "address"
        }
      ],
      "name": "setAcceso",
      "outputs": [],
      "stateMutability": "nonpayable",
      "type": "function"
    },
    {
      "inputs": [
        {
          "internalType": "contract AccesoHistoriaClinica",
          "name": "_accesoHistoriaClinicaAddress",
          "type": "address"
        }
      ],
      "name": "setAccesoHistoriaClinica",
      "outputs": [],
      "stateMutability": "nonpayable",
      "type": "function"
    },
    {
      "inputs": [
        {
          "internalType": "uint256",
          "name": "permisoId",
          "type": "uint256"
        }
      ],
      "name": "tieneAccesoFunc",
      "outputs": [
        {
          "internalType": "bool",
          "name": "",
          "type": "bool"
        }
      ],
      "stateMutability": "nonpayable",
      "type": "function"
    },
    {
      "inputs": [
        {
          "internalType": "address",
          "name": "direccionMedico",
          "type": "address"
        },
        {
          "internalType": "bool",
          "name": "acepta",
          "type": "bool"
        }
      ],
      "name": "responderSolicitudDeAcceso",
      "outputs": [],
      "stateMutability": "nonpayable",
      "type": "function"
    },
    {
      "inputs": [
        {
          "internalType": "address",
          "name": "direccionPaciente",
          "type": "address"
        }
      ],
      "name": "solicitarAccesoHistoriaClinica",
      "outputs": [
        {
          "internalType": "uint256",
          "name": "",
          "type": "uint256"
        }
      ],
      "stateMutability": "nonpayable",
      "type": "function"
    },
    {
      "inputs": [
        {
          "internalType": "address",
          "name": "direccionMedico",
          "type": "address"
        }
      ],
      "name": "esMedicoActivo",
      "outputs": [
        {
          "internalType": "bool",
          "name": "",
          "type": "bool"
        }
      ],
      "stateMutability": "nonpayable",
      "type": "function"
    },
    {
      "inputs": [
        {
          "internalType": "int256",
          "name": "_tiempoPermisoEnMinutos",
          "type": "int256"
        }
      ],
      "name": "setTiempoPermisoEnMinutos",
      "outputs": [],
      "stateMutability": "nonpayable",
      "type": "function"
    },
    {
      "inputs": [],
      "name": "getTiempoPermisoEnMinutos",
      "outputs": [
        {
          "internalType": "int256",
          "name": "",
          "type": "int256"
        }
      ],
      "stateMutability": "view",
      "type": "function",
      "constant": true
    },
    {
      "inputs": [
        {
          "internalType": "address",
          "name": "direccionPaciente",
          "type": "address"
        },
        {
          "internalType": "address",
          "name": "direccionMedico",
          "type": "address"
        }
      ],
      "name": "esSolicitudVigente",
      "outputs": [
        {
          "internalType": "bool",
          "name": "",
          "type": "bool"
        }
      ],
      "stateMutability": "nonpayable",
      "type": "function"
    },
    {
      "inputs": [
        {
          "internalType": "address",
          "name": "direccionPaciente",
          "type": "address"
        }
      ],
      "name": "getPermisosDeAccesoActivosPorHistoriaClinica",
      "outputs": [
        {
          "internalType": "contract PermisoDeAccesoVO[]",
          "name": "",
          "type": "address[]"
        }
      ],
      "stateMutability": "nonpayable",
      "type": "function"
    },
    {
      "inputs": [
        {
          "internalType": "address",
          "name": "direccionPaciente",
          "type": "address"
        }
      ],
      "name": "getPermisosDeAccesoPorHistoriaClinica",
      "outputs": [
        {
          "internalType": "contract PermisoDeAccesoVO[]",
          "name": "",
          "type": "address[]"
        }
      ],
      "stateMutability": "nonpayable",
      "type": "function"
    },
    {
      "inputs": [
        {
          "internalType": "address",
          "name": "direccionMedico",
          "type": "address"
        }
      ],
      "name": "getPermisosDeAccesoActivosPorMedico",
      "outputs": [
        {
          "internalType": "contract PermisoDeAccesoVO[]",
          "name": "",
          "type": "address[]"
        }
      ],
      "stateMutability": "nonpayable",
      "type": "function"
    },
    {
      "inputs": [
        {
          "internalType": "address",
          "name": "direccionMedico",
          "type": "address"
        }
      ],
      "name": "getPermisosDeAccesoPorMedico",
      "outputs": [
        {
          "internalType": "contract PermisoDeAccesoVO[]",
          "name": "",
          "type": "address[]"
        }
      ],
      "stateMutability": "nonpayable",
      "type": "function"
    },
    {
      "inputs": [
        {
          "internalType": "contract AccesoHistoriaClinicaMapper",
          "name": "_accesoHistoriaClinicaMapper",
          "type": "address"
        }
      ],
      "name": "setAccesoHistoriaClinicaMapper",
      "outputs": [],
      "stateMutability": "nonpayable",
      "type": "function"
    },
    {
      "inputs": [
        {
          "internalType": "contract MedicoMapperInterface",
          "name": "_medicoMapper",
          "type": "address"
        }
      ],
      "name": "setMedicoMapper",
      "outputs": [],
      "stateMutability": "nonpayable",
      "type": "function"
    },
    {
      "inputs": [],
      "name": "selfDestruct",
      "outputs": [],
      "stateMutability": "nonpayable",
      "type": "function"
    }
  ],
  "bytecode": "0x608060405234801561001057600080fd5b50600080546001600160a01b03191633179055601e600555612710806100376000396000f3fe608060405234801561001057600080fd5b50600436106101365760003560e01c8063af2ffc33116100b2578063d58fe82511610081578063dd563d5311610066578063dd563d5314610288578063fa7af2bb1461029b578063fa7e054e146102ae57600080fd5b8063d58fe82514610262578063dd2861b71461027557600080fd5b8063af2ffc3314610217578063ba7864171461022a578063ce40d7b61461023c578063d4a798661461024f57600080fd5b80635821eb36116101095780637d034e6f116100ee5780637d034e6f146101d157806392ebdcd2146101e45780639cb8a26a1461020f57600080fd5b80635821eb36146101ab5780636ff30e69146101be57600080fd5b8063137d47221461013b5780633de2d76d146101505780634022d672146101785780634dfc9b4c1461018b575b600080fd5b61014e6101493660046117c9565b6102bf565b005b61016361015e3660046117c9565b61037d565b60405190151581526020015b60405180910390f35b61014e6101863660046117c9565b6104ea565b61019e6101993660046117c9565b6105a3565b60405161016f91906117ed565b61014e6101b9366004611848565b6106fe565b61019e6101cc3660046117c9565b610cbb565b61014e6101df366004611881565b610dcd565b6000546101f7906001600160a01b031681565b6040516001600160a01b03909116815260200161016f565b61014e610e22565b61016361022536600461189a565b610eba565b6005545b60405190815260200161016f565b61014e61024a3660046117c9565b610f53565b61016361025d366004611881565b61100c565b61022e6102703660046117c9565b611082565b61019e6102833660046117c9565b611392565b61019e6102963660046117c9565b6114a4565b61014e6102a93660046117c9565b6115b6565b6001546001600160a01b03166101f7565b6000546001600160a01b0316331461034e5760405162461bcd60e51b815260206004820152604160248201527f457374612066756e63696f6e20736f6c6f2070756564652073657220656a656360448201527f757461646120706f7220656c2063726561646f722064656c20636f6e747261746064820152606f60f81b608482015260a4015b60405180910390fd5b6001805473ffffffffffffffffffffffffffffffffffffffff19166001600160a01b0392909216919091179055565b600480546040517f7da8f6a50000000000000000000000000000000000000000000000000000000081526001600160a01b038481169382019390935260009283921690637da8f6a5906024016020604051808303816000875af11580156103e8573d6000803e3d6000fd5b505050506040513d601f19601f8201168201806040525081019061040c91906118c8565b9050806001600160a01b0316636d07d7e36040518163ffffffff1660e01b8152600401602060405180830381865afa15801561044c573d6000803e3d6000fd5b505050506040513d601f19601f8201168201806040525081019061047091906118c8565b6001600160a01b0316635d1ca6316040518163ffffffff1660e01b8152600401602060405180830381865afa1580156104ad573d6000803e3d6000fd5b505050506040513d601f19601f820116820180604052508101906104d191906118e5565b6001036104e15750600192915050565b50600092915050565b6000546001600160a01b031633146105745760405162461bcd60e51b815260206004820152604160248201527f457374612066756e63696f6e20736f6c6f2070756564652073657220656a656360448201527f757461646120706f7220656c2063726561646f722064656c20636f6e747261746064820152606f60f81b608482015260a401610345565b6002805473ffffffffffffffffffffffffffffffffffffffff19166001600160a01b0392909216919091179055565b6001546040516336a664e960e11b815233600482015260186024820181905260609290916000916001600160a01b031690636d4cc9d2906044016020604051808303816000875af11580156105fc573d6000803e3d6000fd5b505050506040513d601f19601f8201168201806040525081019061062091906118fe565b90508061062c8361166f565b60405160200161063c919061193f565b604051602081830303815290604052906106695760405162461bcd60e51b815260040161034591906119aa565b506003546040517f4dfc9b4c0000000000000000000000000000000000000000000000000000000081526001600160a01b03868116600483015290911690634dfc9b4c906024015b600060405180830381865afa1580156106ce573d6000803e3d6000fd5b505050506040513d6000823e601f3d908101601f191682016040526106f69190810190611a03565b949350505050565b6001546040516336a664e960e11b8152336004820152601360248201819052916000916001600160a01b0390911690636d4cc9d2906044016020604051808303816000875af1158015610755573d6000803e3d6000fd5b505050506040513d601f19601f8201168201806040525081019061077991906118fe565b9050806107858361166f565b604051602001610795919061193f565b604051602081830303815290604052906107c25760405162461bcd60e51b815260040161034591906119aa565b506003546040517f53d9c2090000000000000000000000000000000000000000000000000000000081523360048201526001600160a01b03868116602483015260009216906353d9c20990604401600060405180830381865afa15801561082d573d6000803e3d6000fd5b505050506040513d6000823e601f3d908101601f191682016040526108559190810190611a03565b805190915060009042905b8015610c465783610872600183611ade565b8151811061088257610882611af1565b60200260200101519250826001600160a01b03166350cfa3b86040518163ffffffff1660e01b8152600401602060405180830381865afa1580156108ca573d6000803e3d6000fd5b505050506040513d601f19601f820116820180604052508101906108ee91906118fe565b610c345760405163087ecde360e31b8152600160048201526001600160a01b038416906343f66f1890602401600060405180830381600087803b15801561093457600080fd5b505af1158015610948573d6000803e3d6000fd5b505050508615610a885760405163f291782760e01b8152600160048201526001600160a01b0384169063f291782790602401600060405180830381600087803b15801561099457600080fd5b505af11580156109a8573d6000803e3d6000fd5b5050604051636b96e67360e11b8152600481018590526001600160a01b038616925063d72dcce69150602401600060405180830381600087803b1580156109ee57600080fd5b505af1158015610a02573d6000803e3d6000fd5b505050506000600554603c610a179190611b07565b90506001600160a01b0384166366cb6c41610a328386611b53565b6040518263ffffffff1660e01b8152600401610a5091815260200190565b600060405180830381600087803b158015610a6a57600080fd5b505af1158015610a7e573d6000803e3d6000fd5b5050505050610bb0565b60405163f291782760e01b8152600060048201526001600160a01b0384169063f291782790602401600060405180830381600087803b158015610aca57600080fd5b505af1158015610ade573d6000803e3d6000fd5b5050604051636b96e67360e11b8152600481018590526001600160a01b038616925063d72dcce69150602401600060405180830381600087803b158015610b2457600080fd5b505af1158015610b38573d6000803e3d6000fd5b50506040517f66cb6c41000000000000000000000000000000000000000000000000000000008152600060048201526001600160a01b03861692506366cb6c419150602401600060405180830381600087803b158015610b9757600080fd5b505af1158015610bab573d6000803e3d6000fd5b505050505b876001600160a01b0316336001600160a01b03167f8d023a16ae4ab7cd562a0a1e907b62e8b5cc9cff86c0707917d425c719afdc50604051610c23906020808252601b908201527f4c6120736f6c6963697475642066756520726573706f6e646964610000000000604082015260600190565b60405180910390a350505050610cb5565b80610c3e81611b7b565b915050610860565b5060405162461bcd60e51b815260206004820152602d60248201527f4e6f2065786973746520756e6120736f6c696369747564206465207065726d6960448201527f736f20656e2070726f6365736f000000000000000000000000000000000000006064820152608401610345565b50505050565b6001546040516336a664e960e11b815233600482015260166024820181905260609290916000916001600160a01b031690636d4cc9d2906044016020604051808303816000875af1158015610d14573d6000803e3d6000fd5b505050506040513d601f19601f82011682018060405250810190610d3891906118fe565b905080610d448361166f565b604051602001610d54919061193f565b60405160208183030381529060405290610d815760405162461bcd60e51b815260040161034591906119aa565b506003546040517f6ff30e690000000000000000000000000000000000000000000000000000000081526001600160a01b03868116600483015290911690636ff30e69906024016106b1565b60008113610e1d5760405162461bcd60e51b815260206004820152601f60248201527f456c207469656d706f206465626520736572206d61796f722061206365726f006044820152606401610345565b600555565b6000546001600160a01b03163314610eac5760405162461bcd60e51b815260206004820152604160248201527f457374612066756e63696f6e20736f6c6f2070756564652073657220656a656360448201527f757461646120706f7220656c2063726561646f722064656c20636f6e747261746064820152606f60f81b608482015260a401610345565b6000546001600160a01b0316ff5b6003546040517fda2f42610000000000000000000000000000000000000000000000000000000081526001600160a01b0384811660048301528381166024830152600092169063da2f426190604401602060405180830381865afa158015610f26573d6000803e3d6000fd5b505050506040513d601f19601f82011682018060405250810190610f4a91906118fe565b90505b92915050565b6000546001600160a01b03163314610fdd5760405162461bcd60e51b815260206004820152604160248201527f457374612066756e63696f6e20736f6c6f2070756564652073657220656a656360448201527f757461646120706f7220656c2063726561646f722064656c20636f6e747261746064820152606f60f81b608482015260a401610345565b6003805473ffffffffffffffffffffffffffffffffffffffff19166001600160a01b0392909216919091179055565b6001546040516336a664e960e11b8152336004820152602481018390526000916001600160a01b031690636d4cc9d2906044016020604051808303816000875af115801561105e573d6000803e3d6000fd5b505050506040513d601f19601f82011682018060405250810190610f4d91906118fe565b6001546040516336a664e960e11b8152336004820152601460248201819052600092909183916001600160a01b031690636d4cc9d2906044016020604051808303816000875af11580156110da573d6000803e3d6000fd5b505050506040513d601f19601f820116820180604052508101906110fe91906118fe565b90508061110a8361166f565b60405160200161111a919061193f565b604051602081830303815290604052906111475760405162461bcd60e51b815260040161034591906119aa565b5060006111533361037d565b9050806111ee5760405162461bcd60e51b815260206004820152604960248201527f4d656469636f206e6f2076616c69646f207061726120736f6c6963697461722060448201527f61636365736f73202876616c6964656c6f20636f6e20656c2073697374656d6160648201527f2065787465726e6f290000000000000000000000000000000000000000000000608482015260a401610345565b60006040516111fc906117a4565b604051809103906000f080158015611218573d6000803e3d6000fd5b5060405163087ecde360e31b8152600060048201529091506001600160a01b038216906343f66f1890602401600060405180830381600087803b15801561125e57600080fd5b505af1158015611272573d6000803e3d6000fd5b50505050856001600160a01b0316336001600160a01b03167f758fa53bb23ffd5c9e7280ae205590e391b9c77de047e5a16821a73ed27280cb6040516112e99060208082526015908201527f536520736f6c696369746f20756e2061636365736f0000000000000000000000604082015260600190565b60405180910390a36003546040517f4bfb14c50000000000000000000000000000000000000000000000000000000081526001600160a01b038881166004830152336024830152838116604483015290911690634bfb14c5906064016020604051808303816000875af1158015611364573d6000803e3d6000fd5b505050506040513d601f19601f8201168201806040525081019061138891906118e5565b9695505050505050565b6001546040516336a664e960e11b815233600482015260196024820181905260609290916000916001600160a01b031690636d4cc9d2906044016020604051808303816000875af11580156113eb573d6000803e3d6000fd5b505050506040513d601f19601f8201168201806040525081019061140f91906118fe565b90508061141b8361166f565b60405160200161142b919061193f565b604051602081830303815290604052906114585760405162461bcd60e51b815260040161034591906119aa565b506003546040517fdd2861b70000000000000000000000000000000000000000000000000000000081526001600160a01b0386811660048301529091169063dd2861b7906024016106b1565b6001546040516336a664e960e11b815233600482015260176024820181905260609290916000916001600160a01b031690636d4cc9d2906044016020604051808303816000875af11580156114fd573d6000803e3d6000fd5b505050506040513d601f19601f8201168201806040525081019061152191906118fe565b90508061152d8361166f565b60405160200161153d919061193f565b6040516020818303038152906040529061156a5760405162461bcd60e51b815260040161034591906119aa565b506003546040517fdd563d530000000000000000000000000000000000000000000000000000000081526001600160a01b0386811660048301529091169063dd563d53906024016106b1565b6000546001600160a01b031633146116405760405162461bcd60e51b815260206004820152604160248201527f457374612066756e63696f6e20736f6c6f2070756564652073657220656a656360448201527f757461646120706f7220656c2063726561646f722064656c20636f6e747261746064820152606f60f81b608482015260a401610345565b6004805473ffffffffffffffffffffffffffffffffffffffff19166001600160a01b0392909216919091179055565b6060816000036116b257505060408051808201909152600181527f3000000000000000000000000000000000000000000000000000000000000000602082015290565b8160005b81156116dc57806116c681611b92565b91506116d59050600a83611bc1565b91506116b6565b60008167ffffffffffffffff8111156116f7576116f76119dd565b6040519080825280601f01601f191660200182016040528015611721576020820181803683370190505b5090505b84156106f657611736600183611ade565b9150611743600a86611bd5565b61174e906030611be9565b60f81b81838151811061176357611763611af1565b60200101907effffffffffffffffffffffffffffffffffffffffffffffffffffffffffffff1916908160001a90535061179d600a86611bc1565b9450611725565b610ade80611bfd83390190565b6001600160a01b03811681146117c657600080fd5b50565b6000602082840312156117db57600080fd5b81356117e6816117b1565b9392505050565b6020808252825182820181905260009190848201906040850190845b8181101561182e5783516001600160a01b031683529284019291840191600101611809565b50909695505050505050565b80151581146117c657600080fd5b6000806040838503121561185b57600080fd5b8235611866816117b1565b915060208301356118768161183a565b809150509250929050565b60006020828403121561189357600080fd5b5035919050565b600080604083850312156118ad57600080fd5b82356118b8816117b1565b91506020830135611876816117b1565b6000602082840312156118da57600080fd5b81516117e6816117b1565b6000602082840312156118f757600080fd5b5051919050565b60006020828403121561191057600080fd5b81516117e68161183a565b60005b8381101561193657818101518382015260200161191e565b50506000910152565b7f456c207573756172696f206e6f207469656e652061636365736f20706f72207281527f6f6c2061206c612066756e63696f6e3a2000000000000000000000000000000060208201526000825161199d81603185016020870161191b565b9190910160310192915050565b60208152600082518060208401526119c981604085016020870161191b565b601f01601f19169190910160400192915050565b634e487b7160e01b600052604160045260246000fd5b80516119fe816117b1565b919050565b60006020808385031215611a1657600080fd5b825167ffffffffffffffff80821115611a2e57600080fd5b818501915085601f830112611a4257600080fd5b815181811115611a5457611a546119dd565b8060051b604051601f19603f83011681018181108582111715611a7957611a796119dd565b604052918252848201925083810185019188831115611a9757600080fd5b938501935b82851015611abc57611aad856119f3565b84529385019392850192611a9c565b98975050505050505050565b634e487b7160e01b600052601160045260246000fd5b81810381811115610f4d57610f4d611ac8565b634e487b7160e01b600052603260045260246000fd5b808202600082127f800000000000000000000000000000000000000000000000000000000000000084141615611b3f57611b3f611ac8565b8181058314821517610f4d57610f4d611ac8565b8082018281126000831280158216821582161715611b7357611b73611ac8565b505092915050565b600081611b8a57611b8a611ac8565b506000190190565b600060018201611ba457611ba4611ac8565b5060010190565b634e487b7160e01b600052601260045260246000fd5b600082611bd057611bd0611bab565b500490565b600082611be457611be4611bab565b500690565b80820180821115610f4d57610f4d611ac856fe608060405234801561001057600080fd5b50600080546001600160a01b03191633179055610aac806100326000396000f3fe608060405234801561001057600080fd5b50600436106101515760003560e01c8063a2c499a7116100cd578063e0b0019211610081578063f291782711610066578063f2917827146102f8578063fd2f223914610324578063fe341d6a1461036157600080fd5b8063e0b00192146102d2578063ebbf321b146102e757600080fd5b8063b251f005116100b2578063b251f005146102a4578063d0e0ba95146102ac578063d72dcce6146102bf57600080fd5b8063a2c499a714610289578063ab2d092c1461029157600080fd5b80635d1ca6311161012457806366cb6c411161010957806366cb6c411461023657806392ebdcd21461024957806399e30e1e1461027457600080fd5b80635d1ca631146102125780636109a3a71461022457600080fd5b806316f1675014610156578063366d0f721461019557806343f66f18146101a857806350cfa3b8146101ef575b600080fd5b610193610164366004610603565b6003805473ffffffffffffffffffffffffffffffffffffffff19166001600160a01b0392909216919091179055565b005b6101936101a3366004610702565b610372565b6101936101b63660046107d5565b60048054911515600160a01b027fffffffffffffffffffffff00ffffffffffffffffffffffffffffffffffffffff909216919091179055565b600454600160a01b900460ff165b60405190151581526020015b60405180910390f35b6001545b604051908152602001610209565b600454600160a81b900460ff166101fd565b6101936102443660046107f0565b600655565b60005461025c906001600160a01b031681565b6040516001600160a01b039091168152602001610209565b61027c6103ef565b604051610209919061084f565b600554610216565b61019361029f3660046108dd565b610545565b600654610216565b6101936102ba3660046107f0565b600155565b6101936102cd3660046107f0565b600555565b6102da610555565b604051610209919061091a565b6004546001600160a01b031661025c565b6101936103063660046107d5565b60048054911515600160a81b0260ff60a81b19909216919091179055565b610193610332366004610603565b6004805473ffffffffffffffffffffffffffffffffffffffff19166001600160a01b0392909216919091179055565b6003546001600160a01b031661025c565b8051600155602081015160029061038990826109b6565b5060808101516004805460a08401511515600160a81b0260ff60a81b19931515600160a01b02939093167fffffffffffffffffffff0000ffffffffffffffffffffffffffffffffffffffff9091161791909117905560c081015160055560e00151600655565b61044d604051806101000160405280600081526020016060815260200160006001600160a01b0316815260200160006001600160a01b0316815260200160001515815260200160001515815260200160008152602001600081525090565b60405180610100016040528060015481526020016002805461046e9061092d565b80601f016020809104026020016040519081016040528092919081815260200182805461049a9061092d565b80156104e75780601f106104bc576101008083540402835291602001916104e7565b820191906000526020600020905b8154815290600101906020018083116104ca57829003601f168201915b50505091835250506003546001600160a01b039081166020830152600454908116604083015260ff600160a01b8204811615156060840152600160a81b909104161515608082015260055460a082015260065460c090910152919050565b600261055182826109b6565b5050565b6060600280546105649061092d565b80601f01602080910402602001604051908101604052809291908181526020018280546105909061092d565b80156105dd5780601f106105b2576101008083540402835291602001916105dd565b820191906000526020600020905b8154815290600101906020018083116105c057829003601f168201915b5050505050905090565b80356001600160a01b03811681146105fe57600080fd5b919050565b60006020828403121561061557600080fd5b61061e826105e7565b9392505050565b634e487b7160e01b600052604160045260246000fd5b604051610100810167ffffffffffffffff8111828210171561065f5761065f610625565b60405290565b600082601f83011261067657600080fd5b813567ffffffffffffffff8082111561069157610691610625565b604051601f8301601f19908116603f011681019082821181831017156106b9576106b9610625565b816040528381528660208588010111156106d257600080fd5b836020870160208301376000602085830101528094505050505092915050565b803580151581146105fe57600080fd5b60006020828403121561071457600080fd5b813567ffffffffffffffff8082111561072c57600080fd5b90830190610100828603121561074157600080fd5b61074961063b565b8235815260208301358281111561075f57600080fd5b61076b87828601610665565b60208301525061077d604084016105e7565b604082015261078e606084016105e7565b606082015261079f608084016106f2565b60808201526107b060a084016106f2565b60a082015260c083013560c082015260e083013560e082015280935050505092915050565b6000602082840312156107e757600080fd5b61061e826106f2565b60006020828403121561080257600080fd5b5035919050565b6000815180845260005b8181101561082f57602081850181015186830182015201610813565b506000602082860101526020601f19601f83011685010191505092915050565b602081528151602082015260006020830151610100806040850152610878610120850183610809565b915060408501516001600160a01b038082166060870152806060880151166080870152505060808501516108b060a086018215159052565b5060a085015180151560c08601525060c085015160e085015260e085015181850152508091505092915050565b6000602082840312156108ef57600080fd5b813567ffffffffffffffff81111561090657600080fd5b61091284828501610665565b949350505050565b60208152600061061e6020830184610809565b600181811c9082168061094157607f821691505b60208210810361096157634e487b7160e01b600052602260045260246000fd5b50919050565b601f8211156109b157600081815260208120601f850160051c8101602086101561098e5750805b601f850160051c820191505b818110156109ad5782815560010161099a565b5050505b505050565b815167ffffffffffffffff8111156109d0576109d0610625565b6109e4816109de845461092d565b84610967565b602080601f831160018114610a195760008415610a015750858301515b600019600386901b1c1916600185901b1785556109ad565b600085815260208120601f198616915b82811015610a4857888601518255948401946001909101908401610a29565b5085821015610a665787850151600019600388901b60f8161c191681555b5050505050600190811b0190555056fea26469706673582212202564c5ed41756d8ee7772a869f951af3d898226d1d49f33c57e250cabd289a6964736f6c63430008110033a2646970667358221220289455b252451769a1f13d39075f2a9e7a0d1b3a661b1757435982ba9d0a233d64736f6c63430008110033",
  "immutableReferences": {},
  "source": "// SPDX-License-Identifier: MIT\npragma solidity ^0.8.17;\n\nimport \"../persistence/AccesoHistoriaClinicaMapper.sol\";\nimport \"../persistence/MedicoMapper.sol\";\nimport \"../utils/Modifiers.sol\";\n\ncontract AccesoHistoriaClinica is Modifiers {\n\n    AccesoHistoriaClinicaMapperInterface private accesoHistoriaClinicaMapper;\n    MedicoMapperInterface private medicoMapper;\n    int256 private tiempoPermisoEnMinutos;\n\n    event Respuesta(string data, address indexed generador, address indexed notificado);\n    event Solicitud(string data, address indexed generador, address indexed notificado);\n\n    constructor() {\n        creador = msg.sender;\n        tiempoPermisoEnMinutos = 30;\n    }\n\n    // TODO: Actualizar en enterprise\n    // Lo hace el paciente\n    function responderSolicitudDeAcceso(address direccionMedico, bool acepta)\n        external\n        tieneAcceso(19)\n    {\n        PermisoDeAccesoVO[] memory permisos = accesoHistoriaClinicaMapper\n            .getPermisos(msg.sender, direccionMedico);\n        PermisoDeAccesoVO permiso;\n        int256 fechaActual = int256(block.timestamp);\n        for (uint256 i = permisos.length; i > 0; i--) {\n            permiso = permisos[i - 1];\n            if (!permiso.getFueRespondido()) {  \n                permiso.setFueRespondido(true);              \n                if (acepta) {\n                    permiso.setFueAceptado(true);\n                    permiso.setFechaSolicitud(fechaActual);\n                    // TODO Descomentar\n                    // permiso.setFechaExpiracion(fechaActual + 3 hours);\n                    int256 duracionPermiso = tiempoPermisoEnMinutos * 1 minutes;\n                    permiso.setFechaExpiracion(fechaActual + duracionPermiso);                    \n                } else {\n                    permiso.setFueAceptado(false);\n                    permiso.setFechaSolicitud(fechaActual);\n                    permiso.setFechaExpiracion(0);                    \n                }\n                emit Respuesta(\"La solicitud fue respondida\", msg.sender, direccionMedico);\n                return;\n            }\n        }\n        revert(\"No existe una solicitud de permiso en proceso\");\n    }\n\n    // TODO: Actualizar en enterprise architech\n    // Lo hace el mdico\n    function solicitarAccesoHistoriaClinica(address direccionPaciente)\n        external\n        tieneAcceso(20)\n        returns (uint256)\n    {\n        bool esMedicoActivo = esMedicoActivo(msg.sender);\n        if(!esMedicoActivo) {\n            revert(\"Medico no valido para solicitar accesos (validelo con el sistema externo)\");\n        }\n        PermisoDeAccesoVO permiso = new PermisoDeAccesoVO();\n        permiso.setFueRespondido(false); // TODO: agregar aqui fecha de daolicitud en permiso\n        emit Solicitud(\"Se solicito un acceso\", msg.sender, direccionPaciente);\n        return\n            accesoHistoriaClinicaMapper.setPermiso(\n                direccionPaciente,\n                msg.sender,\n                permiso\n            );\n    }\n\n    // TODO: agregar a enterprise architect\n    function esMedicoActivo(address direccionMedico) public returns (bool) {\n        MedicoVO informacionMedico = medicoMapper.consultar(direccionMedico);\n\n        if(informacionMedico.getEstado().getId() == 1) {            \n            // TODO: 1 es cuando un usuario esta activo\n            return true;\n        }\n        return false;\n    }\n\n    function setTiempoPermisoEnMinutos(int256 _tiempoPermisoEnMinutos) public {\n        if(_tiempoPermisoEnMinutos <= 0) {\n            revert(\"El tiempo debe ser mayor a cero\");\n        }\n        tiempoPermisoEnMinutos = _tiempoPermisoEnMinutos;\n    }\n\n    function getTiempoPermisoEnMinutos() public view returns (int256){\n        return tiempoPermisoEnMinutos;\n    }\n\n    // TODO: hacer funcin que traiga permisos por aprobar\n\n    // TODO: Actualizar en enterprise architect\n    function esSolicitudVigente(\n        address direccionPaciente,\n        address direccionMedico\n    ) external returns (bool) {\n        return\n            accesoHistoriaClinicaMapper.esPermisoVigente(\n                direccionPaciente,\n                direccionMedico\n            );\n    }\n\n    function getPermisosDeAccesoActivosPorHistoriaClinica(\n        address direccionPaciente\n    ) public tieneAcceso(22) returns(PermisoDeAccesoVO[] memory) {\n        return accesoHistoriaClinicaMapper.getPermisosDeAccesoActivosPorHistoriaClinica(direccionPaciente);\n    }\n\n    function getPermisosDeAccesoPorHistoriaClinica(\n        address direccionPaciente\n    ) public tieneAcceso(23) returns(PermisoDeAccesoVO[] memory) {\n        return accesoHistoriaClinicaMapper.getPermisosDeAccesoPorHistoriaClinica(direccionPaciente);\n    }\n\n    function getPermisosDeAccesoActivosPorMedico(\n        address direccionMedico\n    ) public tieneAcceso(24) returns(PermisoDeAccesoVO[] memory) {        \n        return accesoHistoriaClinicaMapper.getPermisosDeAccesoActivosPorMedico(direccionMedico);\n    }\n\n    function getPermisosDeAccesoPorMedico(\n        address direccionMedico\n    ) public tieneAcceso(25) returns(PermisoDeAccesoVO[] memory) {\n        return accesoHistoriaClinicaMapper.getPermisosDeAccesoPorMedico(direccionMedico);\n    }\n\n    function setAccesoHistoriaClinicaMapper(\n        AccesoHistoriaClinicaMapper _accesoHistoriaClinicaMapper\n    ) public esPropietario {\n        accesoHistoriaClinicaMapper = _accesoHistoriaClinicaMapper;\n    }\n\n    function setMedicoMapper(MedicoMapperInterface _medicoMapper)\n        public esPropietario\n    {\n        medicoMapper = _medicoMapper;\n    }\n\n    function selfDestruct() public esPropietario {\n        selfdestruct(payable(creador));\n    }\n\n}\n",
  "sourcePath": "/back/contracts/logica/AccesoHistoriaClinica.sol",
  "compiler": {
    "name": "solc",
    "version": "0.8.17+commit.8df45f5f.Emscripten.clang"
  },
  "schemaVersion": "3.4.11",
  "updatedAt": "2023-06-26T00:49:04.479Z",
  "networkType": "ethereum",
  "devdoc": {
    "kind": "dev",
    "methods": {},
    "version": 1
  },
  "userdoc": {
    "kind": "user",
    "methods": {},
    "version": 1
  }
}