{
  "contractName": "AccesoService",
  "abi": [
    {
      "inputs": [],
      "stateMutability": "nonpayable",
      "type": "constructor"
    },
    {
      "inputs": [],
      "name": "creador",
      "outputs": [
        {
          "internalType": "address",
          "name": "",
          "type": "address"
        }
      ],
      "stateMutability": "view",
      "type": "function",
      "constant": true
    },
    {
      "inputs": [],
      "name": "login",
      "outputs": [
        {
          "components": [
            {
              "internalType": "string",
              "name": "primerNombre",
              "type": "string"
            },
            {
              "internalType": "string",
              "name": "segundoNombre",
              "type": "string"
            },
            {
              "internalType": "string",
              "name": "primerApellido",
              "type": "string"
            },
            {
              "internalType": "string",
              "name": "segundoApellido",
              "type": "string"
            },
            {
              "internalType": "string",
              "name": "identificacion",
              "type": "string"
            },
            {
              "internalType": "string",
              "name": "tipoIdentificacion",
              "type": "string"
            },
            {
              "internalType": "bool",
              "name": "isValue",
              "type": "bool"
            }
          ],
          "internalType": "struct Persona.PersonaStruct",
          "name": "",
          "type": "tuple"
        }
      ],
      "stateMutability": "nonpayable",
      "type": "function"
    }
  ],
  "bytecode": "0x608060405234801561001057600080fd5b50336000806101000a81548173ffffffffffffffffffffffffffffffffffffffff021916908373ffffffffffffffffffffffffffffffffffffffff16021790555060405161005d906100bf565b604051809103906000f080158015610079573d6000803e3d6000fd5b50600160006101000a81548173ffffffffffffffffffffffffffffffffffffffff021916908373ffffffffffffffffffffffffffffffffffffffff1602179055506100cc565b61146e806107a783390190565b6106cc806100db6000396000f3fe608060405234801561001057600080fd5b50600436106100365760003560e01c806392ebdcd21461003b578063b34e97e814610059575b600080fd5b610043610077565b60405161005091906101d1565b60405180910390f35b61006161009b565b60405161006e919061035f565b60405180910390f35b60008054906101000a900473ffffffffffffffffffffffffffffffffffffffff1681565b6100a3610151565b6000339050600160009054906101000a900473ffffffffffffffffffffffffffffffffffffffff1673ffffffffffffffffffffffffffffffffffffffff16637da8f6a5826040518263ffffffff1660e01b815260040161010391906101d1565b6000604051808303816000875af1158015610122573d6000803e3d6000fd5b505050506040513d6000823e3d601f19601f8201168201806040525081019061014b919061064d565b91505090565b6040518060e001604052806060815260200160608152602001606081526020016060815260200160608152602001606081526020016000151581525090565b600073ffffffffffffffffffffffffffffffffffffffff82169050919050565b60006101bb82610190565b9050919050565b6101cb816101b0565b82525050565b60006020820190506101e660008301846101c2565b92915050565b600081519050919050565b600082825260208201905092915050565b60005b8381101561022657808201518184015260208101905061020b565b83811115610235576000848401525b50505050565b6000601f19601f8301169050919050565b6000610257826101ec565b61026181856101f7565b9350610271818560208601610208565b61027a8161023b565b840191505092915050565b60008115159050919050565b61029a81610285565b82525050565b600060e08301600083015184820360008601526102bd828261024c565b915050602083015184820360208601526102d7828261024c565b915050604083015184820360408601526102f1828261024c565b9150506060830151848203606086015261030b828261024c565b91505060808301518482036080860152610325828261024c565b91505060a083015184820360a086015261033f828261024c565b91505060c083015161035460c0860182610291565b508091505092915050565b6000602082019050818103600083015261037981846102a0565b905092915050565b6000604051905090565b600080fd5b600080fd5b600080fd5b7f4e487b7100000000000000000000000000000000000000000000000000000000600052604160045260246000fd5b6103d28261023b565b810181811067ffffffffffffffff821117156103f1576103f061039a565b5b80604052505050565b6000610404610381565b905061041082826103c9565b919050565b600080fd5b600080fd5b600080fd5b600067ffffffffffffffff82111561043f5761043e61039a565b5b6104488261023b565b9050602081019050919050565b600061046861046384610424565b6103fa565b9050828152602081018484840111156104845761048361041f565b5b61048f848285610208565b509392505050565b600082601f8301126104ac576104ab61041a565b5b81516104bc848260208601610455565b91505092915050565b6104ce81610285565b81146104d957600080fd5b50565b6000815190506104eb816104c5565b92915050565b600060e0828403121561050757610506610395565b5b61051160e06103fa565b9050600082015167ffffffffffffffff81111561053157610530610415565b5b61053d84828501610497565b600083015250602082015167ffffffffffffffff81111561056157610560610415565b5b61056d84828501610497565b602083015250604082015167ffffffffffffffff81111561059157610590610415565b5b61059d84828501610497565b604083015250606082015167ffffffffffffffff8111156105c1576105c0610415565b5b6105cd84828501610497565b606083015250608082015167ffffffffffffffff8111156105f1576105f0610415565b5b6105fd84828501610497565b60808301525060a082015167ffffffffffffffff81111561062157610620610415565b5b61062d84828501610497565b60a08301525060c0610641848285016104dc565b60c08301525092915050565b6000602082840312156106635761066261038b565b5b600082015167ffffffffffffffff81111561068157610680610390565b5b61068d848285016104f1565b9150509291505056fea2646970667358221220183d0b2a6af99d3d8ec598d604bb8ecd9fd9875b9256613b5778d40467cb6ec264736f6c634300080b0033608060405234801561001057600080fd5b50336000806101000a81548173ffffffffffffffffffffffffffffffffffffffff021916908373ffffffffffffffffffffffffffffffffffffffff16021790555061140e806100606000396000f3fe608060405234801561001057600080fd5b506004361061004c5760003560e01c8063133584b11461005157806326d0a3801461006d5780637da8f6a5146100a357806392ebdcd2146100d3575b600080fd5b61006b60048036038101906100669190610eaa565b6100f1565b005b61008760048036038101906100829190610f06565b610206565b60405161009a9796959493929190610fca565b60405180910390f35b6100bd60048036038101906100b89190610f06565b610585565b6040516100ca919061117b565b60405180910390f35b6100db610a4e565b6040516100e891906111ac565b60405180910390f35b80600160008473ffffffffffffffffffffffffffffffffffffffff1673ffffffffffffffffffffffffffffffffffffffff168152602001908152602001600020600082015181600001908051906020019061014d929190610a72565b50602082015181600101908051906020019061016a929190610a72565b506040820151816002019080519060200190610187929190610a72565b5060608201518160030190805190602001906101a4929190610a72565b5060808201518160040190805190602001906101c1929190610a72565b5060a08201518160050190805190602001906101de929190610a72565b5060c08201518160060160006101000a81548160ff0219169083151502179055509050505050565b6001602052806000526040600020600091509050806000018054610229906111f6565b80601f0160208091040260200160405190810160405280929190818152602001828054610255906111f6565b80156102a25780601f10610277576101008083540402835291602001916102a2565b820191906000526020600020905b81548152906001019060200180831161028557829003601f168201915b5050505050908060010180546102b7906111f6565b80601f01602080910402602001604051908101604052809291908181526020018280546102e3906111f6565b80156103305780601f1061030557610100808354040283529160200191610330565b820191906000526020600020905b81548152906001019060200180831161031357829003601f168201915b505050505090806002018054610345906111f6565b80601f0160208091040260200160405190810160405280929190818152602001828054610371906111f6565b80156103be5780601f10610393576101008083540402835291602001916103be565b820191906000526020600020905b8154815290600101906020018083116103a157829003601f168201915b5050505050908060030180546103d3906111f6565b80601f01602080910402602001604051908101604052809291908181526020018280546103ff906111f6565b801561044c5780601f106104215761010080835404028352916020019161044c565b820191906000526020600020905b81548152906001019060200180831161042f57829003601f168201915b505050505090806004018054610461906111f6565b80601f016020809104026020016040519081016040528092919081815260200182805461048d906111f6565b80156104da5780601f106104af576101008083540402835291602001916104da565b820191906000526020600020905b8154815290600101906020018083116104bd57829003601f168201915b5050505050908060050180546104ef906111f6565b80601f016020809104026020016040519081016040528092919081815260200182805461051b906111f6565b80156105685780601f1061053d57610100808354040283529160200191610568565b820191906000526020600020905b81548152906001019060200180831161054b57829003601f168201915b5050505050908060060160009054906101000a900460ff16905087565b61058d610af8565b7fcf34ef537ac33ee1ac626ca1587a0a7e8e51561e5514f8cb36afa1c5102b3bab6040516105ba90611274565b60405180910390a16000600160008473ffffffffffffffffffffffffffffffffffffffff1673ffffffffffffffffffffffffffffffffffffffff1681526020019081526020016000206040518060e001604052908160008201805461061e906111f6565b80601f016020809104026020016040519081016040528092919081815260200182805461064a906111f6565b80156106975780601f1061066c57610100808354040283529160200191610697565b820191906000526020600020905b81548152906001019060200180831161067a57829003601f168201915b505050505081526020016001820180546106b0906111f6565b80601f01602080910402602001604051908101604052809291908181526020018280546106dc906111f6565b80156107295780601f106106fe57610100808354040283529160200191610729565b820191906000526020600020905b81548152906001019060200180831161070c57829003601f168201915b50505050508152602001600282018054610742906111f6565b80601f016020809104026020016040519081016040528092919081815260200182805461076e906111f6565b80156107bb5780601f10610790576101008083540402835291602001916107bb565b820191906000526020600020905b81548152906001019060200180831161079e57829003601f168201915b505050505081526020016003820180546107d4906111f6565b80601f0160208091040260200160405190810160405280929190818152602001828054610800906111f6565b801561084d5780601f106108225761010080835404028352916020019161084d565b820191906000526020600020905b81548152906001019060200180831161083057829003601f168201915b50505050508152602001600482018054610866906111f6565b80601f0160208091040260200160405190810160405280929190818152602001828054610892906111f6565b80156108df5780601f106108b4576101008083540402835291602001916108df565b820191906000526020600020905b8154815290600101906020018083116108c257829003601f168201915b505050505081526020016005820180546108f8906111f6565b80601f0160208091040260200160405190810160405280929190818152602001828054610924906111f6565b80156109715780601f1061094657610100808354040283529160200191610971565b820191906000526020600020905b81548152906001019060200180831161095457829003601f168201915b505050505081526020016006820160009054906101000a900460ff16151515158152505090508060c00151610a10577fcf34ef537ac33ee1ac626ca1587a0a7e8e51561e5514f8cb36afa1c5102b3bab6040516109cd906112e0565b60405180910390a16040517f08c379a0000000000000000000000000000000000000000000000000000000008152600401610a079061134c565b60405180910390fd5b7fcf34ef537ac33ee1ac626ca1587a0a7e8e51561e5514f8cb36afa1c5102b3bab604051610a3d906113b8565b60405180910390a180915050919050565b60008054906101000a900473ffffffffffffffffffffffffffffffffffffffff1681565b828054610a7e906111f6565b90600052602060002090601f016020900481019282610aa05760008555610ae7565b82601f10610ab957805160ff1916838001178555610ae7565b82800160010185558215610ae7579182015b82811115610ae6578251825591602001919060010190610acb565b5b509050610af49190610b37565b5090565b6040518060e001604052806060815260200160608152602001606081526020016060815260200160608152602001606081526020016000151581525090565b5b80821115610b50576000816000905550600101610b38565b5090565b6000604051905090565b600080fd5b600080fd5b600073ffffffffffffffffffffffffffffffffffffffff82169050919050565b6000610b9382610b68565b9050919050565b610ba381610b88565b8114610bae57600080fd5b50565b600081359050610bc081610b9a565b92915050565b600080fd5b6000601f19601f8301169050919050565b7f4e487b7100000000000000000000000000000000000000000000000000000000600052604160045260246000fd5b610c1482610bcb565b810181811067ffffffffffffffff82111715610c3357610c32610bdc565b5b80604052505050565b6000610c46610b54565b9050610c528282610c0b565b919050565b600080fd5b600080fd5b600080fd5b600067ffffffffffffffff821115610c8157610c80610bdc565b5b610c8a82610bcb565b9050602081019050919050565b82818337600083830152505050565b6000610cb9610cb484610c66565b610c3c565b905082815260208101848484011115610cd557610cd4610c61565b5b610ce0848285610c97565b509392505050565b600082601f830112610cfd57610cfc610c5c565b5b8135610d0d848260208601610ca6565b91505092915050565b60008115159050919050565b610d2b81610d16565b8114610d3657600080fd5b50565b600081359050610d4881610d22565b92915050565b600060e08284031215610d6457610d63610bc6565b5b610d6e60e0610c3c565b9050600082013567ffffffffffffffff811115610d8e57610d8d610c57565b5b610d9a84828501610ce8565b600083015250602082013567ffffffffffffffff811115610dbe57610dbd610c57565b5b610dca84828501610ce8565b602083015250604082013567ffffffffffffffff811115610dee57610ded610c57565b5b610dfa84828501610ce8565b604083015250606082013567ffffffffffffffff811115610e1e57610e1d610c57565b5b610e2a84828501610ce8565b606083015250608082013567ffffffffffffffff811115610e4e57610e4d610c57565b5b610e5a84828501610ce8565b60808301525060a082013567ffffffffffffffff811115610e7e57610e7d610c57565b5b610e8a84828501610ce8565b60a08301525060c0610e9e84828501610d39565b60c08301525092915050565b60008060408385031215610ec157610ec0610b5e565b5b6000610ecf85828601610bb1565b925050602083013567ffffffffffffffff811115610ef057610eef610b63565b5b610efc85828601610d4e565b9150509250929050565b600060208284031215610f1c57610f1b610b5e565b5b6000610f2a84828501610bb1565b91505092915050565b600081519050919050565b600082825260208201905092915050565b60005b83811015610f6d578082015181840152602081019050610f52565b83811115610f7c576000848401525b50505050565b6000610f8d82610f33565b610f978185610f3e565b9350610fa7818560208601610f4f565b610fb081610bcb565b840191505092915050565b610fc481610d16565b82525050565b600060e0820190508181036000830152610fe4818a610f82565b90508181036020830152610ff88189610f82565b9050818103604083015261100c8188610f82565b905081810360608301526110208187610f82565b905081810360808301526110348186610f82565b905081810360a08301526110488185610f82565b905061105760c0830184610fbb565b98975050505050505050565b600082825260208201905092915050565b600061107f82610f33565b6110898185611063565b9350611099818560208601610f4f565b6110a281610bcb565b840191505092915050565b6110b681610d16565b82525050565b600060e08301600083015184820360008601526110d98282611074565b915050602083015184820360208601526110f38282611074565b9150506040830151848203604086015261110d8282611074565b915050606083015184820360608601526111278282611074565b915050608083015184820360808601526111418282611074565b91505060a083015184820360a086015261115b8282611074565b91505060c083015161117060c08601826110ad565b508091505092915050565b6000602082019050818103600083015261119581846110bc565b905092915050565b6111a681610b88565b82525050565b60006020820190506111c1600083018461119d565b92915050565b7f4e487b7100000000000000000000000000000000000000000000000000000000600052602260045260246000fd5b6000600282049050600182168061120e57607f821691505b60208210811415611222576112216111c7565b5b50919050565b7f656e74726f206120636f6e73756c746172000000000000000000000000000000600082015250565b600061125e601183610f3e565b915061126982611228565b602082019050919050565b6000602082019050818103600083015261128d81611251565b9050919050565b7f6e6f2065786973746520656c207573756172696f000000000000000000000000600082015250565b60006112ca601483610f3e565b91506112d582611294565b602082019050919050565b600060208201905081810360008301526112f9816112bd565b9050919050565b7f4e6f20657869737465206573652070616369656e746500000000000000000000600082015250565b6000611336601683610f3e565b915061134182611300565b602082019050919050565b6000602082019050818103600083015261136581611329565b9050919050565b7f7573756172696f2076616c69646f000000000000000000000000000000000000600082015250565b60006113a2600e83610f3e565b91506113ad8261136c565b602082019050919050565b600060208201905081810360008301526113d181611395565b905091905056fea26469706673582212209c977fb0c2f34f31086f6cb597be51fb066c5dcac4730c870576673aabe45d3264736f6c634300080b0033",
  "immutableReferences": {},
  "source": "pragma solidity >=0.4.22 <0.9.0; // TODO: Ajustar la versin por consenso con Jos\n\nimport \"../logica/Persona.sol\";\nimport \"../persistence/PersonaDAO.sol\";\n\ncontract AccesoService {\n    address public creador;\n\n    PersonaDAO private personaDao;\n\n    constructor() public {\n        creador = msg.sender; // creador del contrato\n        personaDao = new PersonaDAO(); //TODO: verificar si queda guardado el objeto o si hay mejor manera\n        // TODO: quiza deba aplicar singleton a los dao para no tener multiples listas con diferente informacin\n    }\n\n    function login() public returns (Persona.PersonaStruct memory) {\n        address direccion = msg.sender;\n        // TODO: buscar persona en arreglo\n        return personaDao.consultar(direccion);\n    }\n\n    /*\n    // TODO: buscar porque es uint256\n    function buscarPermisosDeRol(uint256 funcionId) public view returns(bool){\n        address direccion = msg.sender;\n        // TODO: esto es como un filtro (averiguar si lo hay en solidity) y sirve para ver si un usario tiene acceso a x metodo\n    }\n    */\n}\n",
  "sourcePath": "/home/felipe/Documentos/Blockchain/codigo/back-hce/contracts/service/AccesoService.sol",
  "compiler": {
    "name": "solc",
    "version": "0.8.11+commit.d7f03943.Emscripten.clang"
  },
  "schemaVersion": "3.4.4",
  "updatedAt": "2022-01-23T02:52:56.352Z",
  "networkType": "ethereum",
  "devdoc": {
    "kind": "dev",
    "methods": {},
    "version": 1
  },
  "userdoc": {
    "kind": "user",
    "methods": {},
    "version": 1
  }
}