{
  "contractName": "AccesoHistoriaClinicaMapper",
  "abi": [
    {
      "inputs": [],
      "stateMutability": "nonpayable",
      "type": "constructor"
    },
    {
      "inputs": [],
      "name": "creador",
      "outputs": [
        {
          "internalType": "address",
          "name": "",
          "type": "address"
        }
      ],
      "stateMutability": "view",
      "type": "function",
      "constant": true
    },
    {
      "inputs": [
        {
          "internalType": "address",
          "name": "direccionPaciente",
          "type": "address"
        },
        {
          "internalType": "address",
          "name": "direccionMedico",
          "type": "address"
        },
        {
          "internalType": "contract PermisoDeAccesoVO",
          "name": "permiso",
          "type": "address"
        }
      ],
      "name": "setPermiso",
      "outputs": [
        {
          "internalType": "uint256",
          "name": "",
          "type": "uint256"
        }
      ],
      "stateMutability": "nonpayable",
      "type": "function"
    },
    {
      "inputs": [
        {
          "internalType": "address",
          "name": "direccion",
          "type": "address"
        }
      ],
      "name": "getPermisosDeAccesoActivosPorHistoriaClinica",
      "outputs": [
        {
          "internalType": "contract PermisoDeAccesoVO[]",
          "name": "response",
          "type": "address[]"
        }
      ],
      "stateMutability": "view",
      "type": "function",
      "constant": true
    },
    {
      "inputs": [
        {
          "internalType": "address",
          "name": "direccion",
          "type": "address"
        }
      ],
      "name": "getPermisosDeAccesoPorHistoriaClinica",
      "outputs": [
        {
          "internalType": "contract PermisoDeAccesoVO[]",
          "name": "",
          "type": "address[]"
        }
      ],
      "stateMutability": "view",
      "type": "function",
      "constant": true
    },
    {
      "inputs": [
        {
          "internalType": "address",
          "name": "direccionPaciente",
          "type": "address"
        },
        {
          "internalType": "address",
          "name": "direccionMedico",
          "type": "address"
        }
      ],
      "name": "esPermisoVigente",
      "outputs": [
        {
          "internalType": "bool",
          "name": "",
          "type": "bool"
        }
      ],
      "stateMutability": "view",
      "type": "function",
      "constant": true
    },
    {
      "inputs": [
        {
          "internalType": "address",
          "name": "direccion",
          "type": "address"
        }
      ],
      "name": "getPermisosDeAccesoActivosPorMedico",
      "outputs": [
        {
          "internalType": "contract PermisoDeAccesoVO[]",
          "name": "response",
          "type": "address[]"
        }
      ],
      "stateMutability": "view",
      "type": "function",
      "constant": true
    },
    {
      "inputs": [
        {
          "internalType": "address",
          "name": "direccion",
          "type": "address"
        }
      ],
      "name": "getPermisosDeAccesoPorMedico",
      "outputs": [
        {
          "internalType": "contract PermisoDeAccesoVO[]",
          "name": "",
          "type": "address[]"
        }
      ],
      "stateMutability": "view",
      "type": "function",
      "constant": true
    },
    {
      "inputs": [
        {
          "internalType": "address",
          "name": "direccionPaciente",
          "type": "address"
        },
        {
          "internalType": "address",
          "name": "direccionMedico",
          "type": "address"
        }
      ],
      "name": "getPermisos",
      "outputs": [
        {
          "internalType": "contract PermisoDeAccesoVO[]",
          "name": "",
          "type": "address[]"
        }
      ],
      "stateMutability": "view",
      "type": "function",
      "constant": true
    },
    {
      "inputs": [
        {
          "internalType": "contract PermisoDeAccesoVO[]",
          "name": "permisos",
          "type": "address[]"
        }
      ],
      "name": "filtroPermisosDeAccesoActivos",
      "outputs": [
        {
          "internalType": "contract PermisoDeAccesoVO[]",
          "name": "",
          "type": "address[]"
        }
      ],
      "stateMutability": "view",
      "type": "function",
      "constant": true
    },
    {
      "inputs": [
        {
          "internalType": "contract PermisoDeAccesoVO[]",
          "name": "permisos",
          "type": "address[]"
        }
      ],
      "name": "filtroPermisosDeAccesoPendientes",
      "outputs": [
        {
          "internalType": "contract PermisoDeAccesoVO[]",
          "name": "",
          "type": "address[]"
        }
      ],
      "stateMutability": "view",
      "type": "function",
      "constant": true
    },
    {
      "inputs": [
        {
          "internalType": "address",
          "name": "direccionPaciente",
          "type": "address"
        },
        {
          "internalType": "address",
          "name": "direccionMedico",
          "type": "address"
        }
      ],
      "name": "crearLlave",
      "outputs": [
        {
          "internalType": "string",
          "name": "",
          "type": "string"
        }
      ],
      "stateMutability": "pure",
      "type": "function",
      "constant": true
    },
    {
      "inputs": [],
      "name": "selfDestruct",
      "outputs": [],
      "stateMutability": "nonpayable",
      "type": "function"
    }
  ],
  "bytecode": "0x608060405234801561001057600080fd5b50600080546001600160a01b03191633179055611c56806100326000396000f3fe608060405234801561001057600080fd5b50600436106100d45760003560e01c80637d02769f11610081578063da2f42611161005b578063da2f4261146101b1578063dd2861b7146101d4578063dd563d53146101e757600080fd5b80637d02769f1461016957806392ebdcd21461017c5780639cb8a26a146101a757600080fd5b806353d9c209116100b257806353d9c209146101435780636ef6f497146101565780636ff30e691461012357600080fd5b8063013f8516146100d95780634bfb14c5146101025780634dfc9b4c14610123575b600080fd5b6100ec6100e736600461165f565b6101fa565b6040516100f991906116e8565b60405180910390f35b6101156101103660046116fb565b610256565b6040519081526020016100f9565b610136610131366004611746565b61089d565b6040516100f99190611763565b61013661015136600461165f565b61093a565b61013661016436600461181b565b6109c4565b61013661017736600461181b565b610bf0565b60005461018f906001600160a01b031681565b6040516001600160a01b0390911681526020016100f9565b6101af610deb565b005b6101c46101bf36600461165f565b610e9f565b60405190151581526020016100f9565b6101366101e2366004611746565b610f54565b6101366101f5366004611746565b611168565b60606102058361137c565b60405160200161021591906118ba565b60405160208183030381529060405261022d8361137c565b60405160200161023e9291906118fb565b60405160208183030381529060405290505b92915050565b60008061026385856101fa565b90506000600182604051610277919061192a565b9081526040519081900360200190208054909150156104275760006102f4828054806020026020016040519081016040528092919081815260200182805480156102ea57602002820191906000526020600020905b81546001600160a01b031681526001909101906020018083116102cc575b5050505050610bf0565b80519091501561034b5760405162461bcd60e51b815260206004820152601b60248201527f59612065786973746520756e207065726d69736f2061637469766f000000000060448201526064015b60405180910390fd5b6103ad828054806020026020016040519081016040528092919081815260200182805480156103a357602002820191906000526020600020905b81546001600160a01b03168152600190910190602001808311610385575b50505050506109c4565b8051909150156104255760405162461bcd60e51b815260206004820152602b60248201527f59612065786973746520756e207065726d69736f2070656e6469656e7465206460448201527f6520726573706f6e6465720000000000000000000000000000000000000000006064820152608401610342565b505b6040517f16f167500000000000000000000000000000000000000000000000000000000081526001600160a01b0387811660048301528516906316f1675090602401600060405180830381600087803b15801561048357600080fd5b505af1158015610497573d6000803e3d6000fd5b50506040517ffd2f22390000000000000000000000000000000000000000000000000000000081526001600160a01b0388811660048301528716925063fd2f22399150602401600060405180830381600087803b1580156104f757600080fd5b505af115801561050b573d6000803e3d6000fd5b505082546001810184556000848152602080822090920180547fffffffffffffffffffffffff0000000000000000000000000000000000000000166001600160a01b038a8116919091179091558a168152600382526040808220805482518186028101860190935280835290955061063c945087939192869284015b828210156106335783829060005260206000200180546105a690611946565b80601f01602080910402602001604051908101604052809291908181526020018280546105d290611946565b801561061f5780601f106105f45761010080835404028352916020019161061f565b820191906000526020600020905b81548152906001019060200180831161060257829003601f168201915b505050505081526020019060010190610587565b50505050611392565b61065e5780546001810182556000828152602090200161065c84826119cf565b505b6001600160a01b038616600090815260026020908152604080832080548251818502810185019093528083529093610746938893928692909184015b828210156106335783829060005260206000200180546106b990611946565b80601f01602080910402602001604051908101604052809291908181526020018280546106e590611946565b80156107325780601f1061070757610100808354040283529160200191610732565b820191906000526020600020905b81548152906001019060200180831161071557829003601f168201915b50505050508152602001906001019061069a565b6107685780546001810182556000828152602090200161076685826119cf565b505b600480546001810182556000919091527f8a35acfbc15ff81a39ae7d344fd709f28e8600b4aa8c65c6b64bfe7fe36bd19b81016107a586826119cf565b506040517fd0e0ba95000000000000000000000000000000000000000000000000000000008152600481018290526001600160a01b0388169063d0e0ba9590602401600060405180830381600087803b15801561080157600080fd5b505af1158015610815573d6000803e3d6000fd5b50506040517fab2d092c0000000000000000000000000000000000000000000000000000000081526001600160a01b038a16925063ab2d092c915061085e9088906004016116e8565b600060405180830381600087803b15801561087857600080fd5b505af115801561088c573d6000803e3d6000fd5b50929b9a5050505050505050505050565b6040517fdd563d530000000000000000000000000000000000000000000000000000000081526001600160a01b0382166004820152606090600090309063dd563d5390602401600060405180830381865afa158015610900573d6000803e3d6000fd5b505050506040513d6000823e601f3d908101601f191682016040526109289190810190611a8f565b905061093381610bf0565b9392505050565b6060600061094884846101fa565b905060018160405161095a919061192a565b90815260408051918290036020908101832080548083028501830190935282845291908301828280156109b657602002820191906000526020600020905b81546001600160a01b03168152600190910190602001808311610998575b505050505091505092915050565b60606000805b8351811015610a72578381815181106109e5576109e5611b1e565b60200260200101516001600160a01b03166350cfa3b86040518163ffffffff1660e01b8152600401602060405180830381865afa158015610a2a573d6000803e3d6000fd5b505050506040513d601f19601f82011682018060405250810190610a4e9190611b34565b610a605781610a5c81611b6c565b9250505b80610a6a81611b6c565b9150506109ca565b5080600003610aaf5760005b604051908082528060200260200182016040528015610aa7578160200160208202803683370190505b509392505050565b60008167ffffffffffffffff811115610aca57610aca6117b0565b604051908082528060200260200182016040528015610af3578160200160208202803683370190505b5090506000805b8551811015610be657858181518110610b1557610b15611b1e565b60200260200101516001600160a01b03166350cfa3b86040518163ffffffff1660e01b8152600401602060405180830381865afa158015610b5a573d6000803e3d6000fd5b505050506040513d601f19601f82011682018060405250810190610b7e9190611b34565b610bd457858181518110610b9457610b94611b1e565b6020026020010151838381518110610bae57610bae611b1e565b6001600160a01b039092166020928302919091019091015281610bd081611b6c565b9250505b80610bde81611b6c565b915050610afa565b5090949350505050565b60606000805b8351811015610ca15742848281518110610c1257610c12611b1e565b60200260200101516001600160a01b031663b251f0056040518163ffffffff1660e01b8152600401602060405180830381865afa158015610c57573d6000803e3d6000fd5b505050506040513d601f19601f82011682018060405250810190610c7b9190611b85565b1115610c8f5781610c8b81611b6c565b9250505b80610c9981611b6c565b915050610bf6565b5080600003610cb1576000610a7e565b60008167ffffffffffffffff811115610ccc57610ccc6117b0565b604051908082528060200260200182016040528015610cf5578160200160208202803683370190505b5090506000805b8551811015610be65742868281518110610d1857610d18611b1e565b60200260200101516001600160a01b031663b251f0056040518163ffffffff1660e01b8152600401602060405180830381865afa158015610d5d573d6000803e3d6000fd5b505050506040513d601f19601f82011682018060405250810190610d819190611b85565b1115610dd957858181518110610d9957610d99611b1e565b6020026020010151838381518110610db357610db3611b1e565b6001600160a01b039092166020928302919091019091015281610dd581611b6c565b9250505b80610de381611b6c565b915050610cfc565b6000546001600160a01b03163314610e915760405162461bcd60e51b815260206004820152604160248201527f457374612066756e63696f6e20736f6c6f2070756564652073657220656a656360448201527f757461646120706f7220656c2063726561646f722064656c20636f6e7472617460648201527f6f00000000000000000000000000000000000000000000000000000000000000608482015260a401610342565b6000546001600160a01b0316ff5b600080610eac84846101fa565b90506000600182604051610ec0919061192a565b908152602001604051809103902090506000610f32828054806020026020016040519081016040528092919081815260200182805480156102ea576020028201919060005260206000209081546001600160a01b031681526001909101906020018083116102cc575050505050610bf0565b805190915015610f485760019350505050610250565b60009350505050610250565b6001600160a01b038116600090815260026020526040812080546060929067ffffffffffffffff811115610f8a57610f8a6117b0565b604051908082528060200260200182016040528015610fb3578160200160208202803683370190505b5082549091505b8015610aa757600083610fce600184611b9e565b81548110610fde57610fde611b1e565b906000526020600020018054610ff390611946565b80601f016020809104026020016040519081016040528092919081815260200182805461101f90611946565b801561106c5780601f106110415761010080835404028352916020019161106c565b820191906000526020600020905b81548152906001019060200180831161104f57829003601f168201915b505050505090506000600182604051611085919061192a565b90815260408051918290036020908101832080548083028501830190935282845291908301828280156110e157602002820191906000526020600020905b81546001600160a01b031681526001909101906020018083116110c3575b50505050509050600081600183516110f99190611b9e565b8151811061110957611109611b1e565b6020026020010151905080856001866111229190611b9e565b8151811061113257611132611b1e565b60200260200101906001600160a01b031690816001600160a01b031681525050505050808061116090611bb1565b915050610fba565b6001600160a01b038116600090815260036020526040812080546060929067ffffffffffffffff81111561119e5761119e6117b0565b6040519080825280602002602001820160405280156111c7578160200160208202803683370190505b5082549091505b8015610aa7576000836111e2600184611b9e565b815481106111f2576111f2611b1e565b90600052602060002001805461120790611946565b80601f016020809104026020016040519081016040528092919081815260200182805461123390611946565b80156112805780601f1061125557610100808354040283529160200191611280565b820191906000526020600020905b81548152906001019060200180831161126357829003601f168201915b505050505090506000600182604051611299919061192a565b90815260408051918290036020908101832080548083028501830190935282845291908301828280156112f557602002820191906000526020600020905b81546001600160a01b031681526001909101906020018083116112d7575b505050505090506000816001835161130d9190611b9e565b8151811061131d5761131d611b1e565b6020026020010151905080856001866113369190611b9e565b8151811061134657611346611b1e565b60200260200101906001600160a01b031690816001600160a01b031681525050505050808061137490611bb1565b9150506111ce565b60606102506001600160a01b0383166014611466565b80516000905b801561145c5773__Utils_________________________________63bed34bba846113c4600185611b9e565b815181106113d4576113d4611b1e565b6020026020010151866040518363ffffffff1660e01b81526004016113fa929190611bc8565b602060405180830381865af4158015611417573d6000803e3d6000fd5b505050506040513d601f19601f8201168201806040525081019061143b9190611b34565b1561144a576001915050610250565b8061145481611bb1565b915050611398565b5060009392505050565b60606000611475836002611bf6565b611480906002611c0d565b67ffffffffffffffff811115611498576114986117b0565b6040519080825280601f01601f1916602001820160405280156114c2576020820181803683370190505b5090507f3000000000000000000000000000000000000000000000000000000000000000816000815181106114f9576114f9611b1e565b60200101906001600160f81b031916908160001a9053507f78000000000000000000000000000000000000000000000000000000000000008160018151811061154457611544611b1e565b60200101906001600160f81b031916908160001a9053506000611568846002611bf6565b611573906001611c0d565b90505b60018111156115f8577f303132333435363738396162636465660000000000000000000000000000000085600f16601081106115b4576115b4611b1e565b1a60f81b8282815181106115ca576115ca611b1e565b60200101906001600160f81b031916908160001a90535060049490941c936115f181611bb1565b9050611576565b5083156109335760405162461bcd60e51b815260206004820181905260248201527f537472696e67733a20686578206c656e67746820696e73756666696369656e746044820152606401610342565b6001600160a01b038116811461165c57600080fd5b50565b6000806040838503121561167257600080fd5b823561167d81611647565b9150602083013561168d81611647565b809150509250929050565b60005b838110156116b357818101518382015260200161169b565b50506000910152565b600081518084526116d4816020860160208601611698565b601f01601f19169290920160200192915050565b60208152600061093360208301846116bc565b60008060006060848603121561171057600080fd5b833561171b81611647565b9250602084013561172b81611647565b9150604084013561173b81611647565b809150509250925092565b60006020828403121561175857600080fd5b813561093381611647565b6020808252825182820181905260009190848201906040850190845b818110156117a45783516001600160a01b03168352928401929184019160010161177f565b50909695505050505050565b634e487b7160e01b600052604160045260246000fd5b604051601f8201601f1916810167ffffffffffffffff811182821017156117ef576117ef6117b0565b604052919050565b600067ffffffffffffffff821115611811576118116117b0565b5060051b60200190565b6000602080838503121561182e57600080fd5b823567ffffffffffffffff81111561184557600080fd5b8301601f8101851361185657600080fd5b8035611869611864826117f7565b6117c6565b81815260059190911b8201830190838101908783111561188857600080fd5b928401925b828410156118af5783356118a081611647565b8252928401929084019061188d565b979650505050505050565b600082516118cc818460208701611698565b7f2d00000000000000000000000000000000000000000000000000000000000000920191825250600101919050565b6000835161190d818460208801611698565b835190830190611921818360208801611698565b01949350505050565b6000825161193c818460208701611698565b9190910192915050565b600181811c9082168061195a57607f821691505b60208210810361197a57634e487b7160e01b600052602260045260246000fd5b50919050565b601f8211156119ca57600081815260208120601f850160051c810160208610156119a75750805b601f850160051c820191505b818110156119c6578281556001016119b3565b5050505b505050565b815167ffffffffffffffff8111156119e9576119e96117b0565b6119fd816119f78454611946565b84611980565b602080601f831160018114611a325760008415611a1a5750858301515b600019600386901b1c1916600185901b1785556119c6565b600085815260208120601f198616915b82811015611a6157888601518255948401946001909101908401611a42565b5085821015611a7f5787850151600019600388901b60f8161c191681555b5050505050600190811b01905550565b60006020808385031215611aa257600080fd5b825167ffffffffffffffff811115611ab957600080fd5b8301601f81018513611aca57600080fd5b8051611ad8611864826117f7565b81815260059190911b82018301908381019087831115611af757600080fd5b928401925b828410156118af578351611b0f81611647565b82529284019290840190611afc565b634e487b7160e01b600052603260045260246000fd5b600060208284031215611b4657600080fd5b8151801515811461093357600080fd5b634e487b7160e01b600052601160045260246000fd5b600060018201611b7e57611b7e611b56565b5060010190565b600060208284031215611b9757600080fd5b5051919050565b8181038181111561025057610250611b56565b600081611bc057611bc0611b56565b506000190190565b604081526000611bdb60408301856116bc565b8281036020840152611bed81856116bc565b95945050505050565b808202811582820484141761025057610250611b56565b8082018082111561025057610250611b5656fea26469706673582212200ce4860d8a70ff91a6a131391dd5c083210f075257a9e5179483ed1d4ec9ad6e64736f6c63430008110033",
  "immutableReferences": {},
  "source": "// SPDX-License-Identifier: MIT\npragma solidity ^0.8.17;\n\nimport \"./AccesoHistoriaClinicaMapperInterface.sol\";\nimport \"@openzeppelin/contracts/utils/Strings.sol\";\nimport \"../utils/Utils.sol\";\n\ncontract AccesoHistoriaClinicaMapper is AccesoHistoriaClinicaMapperInterface {\n\n    address public creador;\n\n    // TODO: Actualizar clase en enterprise architect\n\n    mapping(string => PermisoDeAccesoVO[]) private permisosDeAccesoTemporal;\n    mapping(address => string[]) private permisosDeAccesoMedico;\n    mapping(address => string[]) private permisosDeAccesoHistoriaClinica;\n    string[] private indices;\n\n    constructor() {\n        creador = msg.sender;\n    }\n\n    function setPermiso(\n        address direccionPaciente,\n        address direccionMedico,\n        PermisoDeAccesoVO permiso\n    ) external returns (uint256) {\n        // https://dev.to/hannudaniel/concatenate-two-strings-on-the-blockchain-using-solidity-smart-contracts-new-feature-in-v0812-549g\n        string memory llave = crearLlave(direccionPaciente, direccionMedico);\n        /*\n        bool hayPermisoVigente = this.esPermisoVigente(direccionPaciente, direccionMedico);\n        if (hayPermisoVigente) {\n            revert(\"Ya existe un permiso activo\");\n        }\n        */\n        PermisoDeAccesoVO[] storage permisos = permisosDeAccesoTemporal[llave];\n\n        if (permisos.length > 0) {\n            PermisoDeAccesoVO[]\n                memory permisosinvalidos = filtroPermisosDeAccesoActivos(\n                    permisos\n                );\n\n            if (permisosinvalidos.length > 0) {\n                revert(\"Ya existe un permiso activo\");\n            }\n\n            permisosinvalidos = filtroPermisosDeAccesoPendientes(permisos);\n\n            if (permisosinvalidos.length > 0) {\n                revert(\"Ya existe un permiso pendiente de responder\");\n            }\n        }\n\n        // TODO: Validar si hay una solicitud en curso (Estado false)\n\n        permiso.setPaciente(direccionPaciente);\n        permiso.setSolicitante(direccionMedico);\n\n        permisos.push(permiso);        \n\n        string[]\n            storage listaDeLlavesHistoriaClinica = permisosDeAccesoHistoriaClinica[\n                direccionPaciente\n            ];\n        if (!existeLlaveEnLista(llave, listaDeLlavesHistoriaClinica)) {\n            listaDeLlavesHistoriaClinica.push(llave);\n        }\n        string[] storage listaDeLlavesMedico = permisosDeAccesoMedico[\n            direccionMedico\n        ];\n        if (!existeLlaveEnLista(llave, listaDeLlavesMedico)) {\n            listaDeLlavesMedico.push(llave);\n        }\n\n        uint256 id = indices.length;\n        indices.push(llave);\n        \n        permiso.setId(id);\n        permiso.setLlave(llave);\n        return id;\n    }\n\n    function getPermisosDeAccesoActivosPorHistoriaClinica(address direccion)\n        external\n        view\n        returns (PermisoDeAccesoVO[] memory response)\n    {\n        PermisoDeAccesoVO[] memory permisosHistoriaClinica = this\n            .getPermisosDeAccesoPorHistoriaClinica(direccion);\n        return filtroPermisosDeAccesoActivos(permisosHistoriaClinica);\n    }\n\n    // MELA, probar\n    function getPermisosDeAccesoPorHistoriaClinica(address direccion)\n        public\n        view\n        returns (PermisoDeAccesoVO[] memory)\n    {\n        string[] storage listaDeLlaves = permisosDeAccesoHistoriaClinica[\n            direccion\n        ];\n        // TODO If y return si es 0\n        PermisoDeAccesoVO[] memory response = new PermisoDeAccesoVO[](\n            listaDeLlaves.length\n        );\n\n        for (uint256 i = listaDeLlaves.length; i > 0; i--) {\n            string memory llave = listaDeLlaves[i - 1];\n            PermisoDeAccesoVO[]\n                memory historialDePermisos = permisosDeAccesoTemporal[llave];\n            PermisoDeAccesoVO permisoMasReciente = historialDePermisos[\n                historialDePermisos.length - 1\n            ];\n            // ajustar orden del response descendente\n            response[i - 1] = permisoMasReciente;\n        }\n        return response;\n    }\n\n    function esPermisoVigente(\n        address direccionPaciente,\n        address direccionMedico\n    ) external view returns (bool) {\n        string memory llave = crearLlave(direccionPaciente, direccionMedico);\n        PermisoDeAccesoVO[] storage permisos = permisosDeAccesoTemporal[llave];\n        PermisoDeAccesoVO[]\n            memory permisosActivos = filtroPermisosDeAccesoActivos(permisos);\n        if (permisosActivos.length > 0) {\n            return true;\n        } else {\n            return false;\n        }\n    }\n\n    function getPermisosDeAccesoActivosPorMedico(address direccion)\n        external\n        view\n        returns (PermisoDeAccesoVO[] memory response)\n    {\n        PermisoDeAccesoVO[] memory permisosHistoriaClinica = this\n            .getPermisosDeAccesoPorHistoriaClinica(direccion);\n        return filtroPermisosDeAccesoActivos(permisosHistoriaClinica);\n    }\n\n    // TODO\n    function getPermisosDeAccesoPorMedico(address direccion)\n        external\n        view\n        returns (PermisoDeAccesoVO[] memory)\n    {\n        string[] storage listaDeLlaves = permisosDeAccesoMedico[direccion];\n\n        PermisoDeAccesoVO[] memory response = new PermisoDeAccesoVO[](\n            listaDeLlaves.length\n        );\n\n        for (uint256 i = listaDeLlaves.length; i > 0; i--) {\n            string memory llave = listaDeLlaves[i - 1];\n            PermisoDeAccesoVO[]\n                memory historialDePermisos = permisosDeAccesoTemporal[llave];\n            PermisoDeAccesoVO permisoMasReciente = historialDePermisos[\n                historialDePermisos.length - 1\n            ];\n            response[i - 1] = permisoMasReciente;\n        }\n        return response;\n    }\n\n    function getPermisos(address direccionPaciente, address direccionMedico)\n        external\n        view\n        returns (PermisoDeAccesoVO[] memory)\n    {\n        string memory llave = crearLlave(direccionPaciente, direccionMedico);\n        return permisosDeAccesoTemporal[llave];\n    }\n\n    /* internal*/\n    function filtroPermisosDeAccesoActivos(PermisoDeAccesoVO[] memory permisos)\n        public\n        view\n        returns (PermisoDeAccesoVO[] memory)\n    {\n        uint256 size = 0;\n        for (uint256 i = 0; i < permisos.length; i++) {\n            if (uint256(permisos[i].getFechaExpiracion()) > block.timestamp) {\n                size++;\n            }\n        }\n\n        if (size == 0) {\n            return new PermisoDeAccesoVO[](0);\n        }\n        PermisoDeAccesoVO[] memory response = new PermisoDeAccesoVO[](size);\n        uint256 index = 0;\n        for (uint256 i = 0; i < permisos.length; i++) {\n            if (uint256(permisos[i].getFechaExpiracion()) > block.timestamp) {\n                response[index] = permisos[i];\n                index++;\n            }\n        }\n        return response;\n    }\n\n        /* internal*/\n    function filtroPermisosDeAccesoPendientes(PermisoDeAccesoVO[] memory permisos)\n        public\n        view\n        returns (PermisoDeAccesoVO[] memory)\n    {\n        uint256 size = 0;\n        for (uint256 i = 0; i < permisos.length; i++) {\n            if (!permisos[i].getFueRespondido()) {\n                size++;\n            }\n        }\n\n        if (size == 0) {\n            return new PermisoDeAccesoVO[](0);\n        }\n        PermisoDeAccesoVO[] memory response = new PermisoDeAccesoVO[](size);\n        uint256 index = 0;\n        for (uint256 i = 0; i < permisos.length; i++) {\n            if (!permisos[i].getFueRespondido()) {\n                response[index] = permisos[i];\n                index++;\n            }\n        }\n        return response;\n    }\n\n    /* internal*/\n    function crearLlave(address direccionPaciente, address direccionMedico)\n        public\n        pure\n        returns (string memory)\n    {\n        return\n            string.concat(\n                string.concat(Strings.toHexString(direccionPaciente), \"-\"),\n                Strings.toHexString(direccionMedico)\n            );\n    }\n\n    // Un medico verifica si tiene x HC en su lista (solo para uso interno)\n    function existeLlaveEnLista(\n        string memory llave,\n        string[] memory listDeLlaves\n    ) internal pure returns (bool) {\n        for (uint256 i = listDeLlaves.length; i > 0; i--) {\n            if (Utils.compareStrings(listDeLlaves[i - 1], llave)) {\n                return true;\n            }\n        }\n        return false;\n    }\n\n    modifier esPropietario() {\n        require(\n            msg.sender == creador,\n            \"Esta funcion solo puede ser ejecutada por el creador del contrato\"\n        );\n        _; // ac se ejecuta la funcin\n    }\n\n    function selfDestruct() public esPropietario {\n        selfdestruct(payable(creador));\n    }\n}\n",
  "sourcePath": "/back/contracts/persistence/AccesoHistoriaClinicaMapper.sol",
  "compiler": {
    "name": "solc",
    "version": "0.8.17+commit.8df45f5f.Emscripten.clang"
  },
  "schemaVersion": "3.4.11",
  "updatedAt": "2023-06-25T00:24:01.878Z",
  "networkType": "ethereum",
  "devdoc": {
    "kind": "dev",
    "methods": {},
    "version": 1
  },
  "userdoc": {
    "kind": "user",
    "methods": {},
    "version": 1
  }
}