{
  "contractName": "AccesoService",
  "abi": [
    {
      "inputs": [],
      "stateMutability": "nonpayable",
      "type": "constructor"
    },
    {
      "anonymous": false,
      "inputs": [
        {
          "indexed": false,
          "internalType": "string",
          "name": "data",
          "type": "string"
        }
      ],
      "name": "Log",
      "type": "event"
    },
    {
      "inputs": [],
      "name": "ContratoPersonaAddress",
      "outputs": [
        {
          "internalType": "address",
          "name": "",
          "type": "address"
        }
      ],
      "stateMutability": "view",
      "type": "function",
      "constant": true
    },
    {
      "inputs": [],
      "name": "creador",
      "outputs": [
        {
          "internalType": "address",
          "name": "",
          "type": "address"
        }
      ],
      "stateMutability": "view",
      "type": "function",
      "constant": true
    },
    {
      "inputs": [],
      "name": "login",
      "outputs": [
        {
          "components": [
            {
              "internalType": "string",
              "name": "primerNombre",
              "type": "string"
            },
            {
              "internalType": "string",
              "name": "segundoNombre",
              "type": "string"
            },
            {
              "internalType": "string",
              "name": "primerApellido",
              "type": "string"
            },
            {
              "internalType": "string",
              "name": "segundoApellido",
              "type": "string"
            },
            {
              "internalType": "string",
              "name": "identificacion",
              "type": "string"
            },
            {
              "components": [
                {
                  "internalType": "string",
                  "name": "nombre",
                  "type": "string"
                },
                {
                  "internalType": "string",
                  "name": "descripcion",
                  "type": "string"
                },
                {
                  "internalType": "bool",
                  "name": "estaActiva",
                  "type": "bool"
                }
              ],
              "internalType": "struct TipoIdentificacionStruct",
              "name": "tipoIdentificacionId",
              "type": "tuple"
            },
            {
              "internalType": "uint256",
              "name": "rolId",
              "type": "uint256"
            },
            {
              "internalType": "bool",
              "name": "isValue",
              "type": "bool"
            }
          ],
          "internalType": "struct PersonaStruct",
          "name": "",
          "type": "tuple"
        }
      ],
      "stateMutability": "nonpayable",
      "type": "function"
    },
    {
      "inputs": [
        {
          "internalType": "address",
          "name": "direccionUsuario",
          "type": "address"
        }
      ],
      "name": "consultarRol",
      "outputs": [
        {
          "internalType": "uint256",
          "name": "",
          "type": "uint256"
        }
      ],
      "stateMutability": "nonpayable",
      "type": "function"
    },
    {
      "inputs": [
        {
          "internalType": "address",
          "name": "direccion",
          "type": "address"
        }
      ],
      "name": "setContratoPersonaAddress",
      "outputs": [],
      "stateMutability": "nonpayable",
      "type": "function"
    },
    {
      "inputs": [],
      "name": "selfDestruct",
      "outputs": [],
      "stateMutability": "nonpayable",
      "type": "function"
    }
  ],
  "bytecode": "0x608060405234801561001057600080fd5b50336000806101000a81548173ffffffffffffffffffffffffffffffffffffffff021916908373ffffffffffffffffffffffffffffffffffffffff1602179055506110bb806100606000396000f3fe608060405234801561001057600080fd5b50600436106100625760003560e01c806340cd7a6014610067578063928c135c1461008357806392ebdcd2146100a15780639cb8a26a146100bf578063b34e97e8146100c9578063ba542708146100e7575b600080fd5b610081600480360381019061007c91906106b9565b610117565b005b61008b61024c565b60405161009891906106f5565b60405180910390f35b6100a9610272565b6040516100b691906106f5565b60405180910390f35b6100c7610296565b005b6100d161035d565b6040516100de9190610907565b60405180910390f35b61010160048036038101906100fc91906106b9565b610522565b60405161010e9190610938565b60405180910390f35b60008054906101000a900473ffffffffffffffffffffffffffffffffffffffff1673ffffffffffffffffffffffffffffffffffffffff163373ffffffffffffffffffffffffffffffffffffffff16146101a5576040517f08c379a000000000000000000000000000000000000000000000000000000000815260040161019c906109fc565b60405180910390fd5b80600160006101000a81548173ffffffffffffffffffffffffffffffffffffffff021916908373ffffffffffffffffffffffffffffffffffffffff160217905550600160009054906101000a900473ffffffffffffffffffffffffffffffffffffffff16600260006101000a81548173ffffffffffffffffffffffffffffffffffffffff021916908373ffffffffffffffffffffffffffffffffffffffff16021790555050565b600160009054906101000a900473ffffffffffffffffffffffffffffffffffffffff1681565b60008054906101000a900473ffffffffffffffffffffffffffffffffffffffff1681565b60008054906101000a900473ffffffffffffffffffffffffffffffffffffffff1673ffffffffffffffffffffffffffffffffffffffff163373ffffffffffffffffffffffffffffffffffffffff1614610324576040517f08c379a000000000000000000000000000000000000000000000000000000000815260040161031b906109fc565b60405180910390fd5b60008054906101000a900473ffffffffffffffffffffffffffffffffffffffff1673ffffffffffffffffffffffffffffffffffffffff16ff5b6103656105d7565b6000339050600260009054906101000a900473ffffffffffffffffffffffffffffffffffffffff1673ffffffffffffffffffffffffffffffffffffffff16637da8f6a5826040518263ffffffff1660e01b81526004016103c591906106f5565b6000604051808303816000875af192505050801561040657506040513d6000823e3d601f19601f820116820180604052508101906104039190610db2565b60015b6104e557610412610e08565b806308c379a014156104d95750610427610e2a565b8061043257506104db565b7fcf34ef537ac33ee1ac626ca1587a0a7e8e51561e5514f8cb36afa1c5102b3bab60405161045f90610f32565b60405180910390a17fcf34ef537ac33ee1ac626ca1587a0a7e8e51561e5514f8cb36afa1c5102b3bab816040516104969190610f8b565b60405180910390a16040517f08c379a00000000000000000000000000000000000000000000000000000000081526004016104d090610ff9565b60405180910390fd5b505b3d6000803e3d6000fd5b7fcf34ef537ac33ee1ac626ca1587a0a7e8e51561e5514f8cb36afa1c5102b3bab60405161051290611065565b60405180910390a1809250505090565b600080600260009054906101000a900473ffffffffffffffffffffffffffffffffffffffff1673ffffffffffffffffffffffffffffffffffffffff16637da8f6a5846040518263ffffffff1660e01b815260040161058091906106f5565b6000604051808303816000875af115801561059f573d6000803e3d6000fd5b505050506040513d6000823e3d601f19601f820116820180604052508101906105c89190610db2565b90508060c00151915050919050565b604051806101000160405280606081526020016060815260200160608152602001606081526020016060815260200161060e610624565b8152602001600081526020016000151581525090565b604051806060016040528060608152602001606081526020016000151581525090565b6000604051905090565b600080fd5b600080fd5b600073ffffffffffffffffffffffffffffffffffffffff82169050919050565b60006106868261065b565b9050919050565b6106968161067b565b81146106a157600080fd5b50565b6000813590506106b38161068d565b92915050565b6000602082840312156106cf576106ce610651565b5b60006106dd848285016106a4565b91505092915050565b6106ef8161067b565b82525050565b600060208201905061070a60008301846106e6565b92915050565b600081519050919050565b600082825260208201905092915050565b60005b8381101561074a57808201518184015260208101905061072f565b83811115610759576000848401525b50505050565b6000601f19601f8301169050919050565b600061077b82610710565b610785818561071b565b935061079581856020860161072c565b61079e8161075f565b840191505092915050565b60008115159050919050565b6107be816107a9565b82525050565b600060608301600083015184820360008601526107e18282610770565b915050602083015184820360208601526107fb8282610770565b915050604083015161081060408601826107b5565b508091505092915050565b6000819050919050565b61082e8161081b565b82525050565b60006101008301600083015184820360008601526108528282610770565b9150506020830151848203602086015261086c8282610770565b915050604083015184820360408601526108868282610770565b915050606083015184820360608601526108a08282610770565b915050608083015184820360808601526108ba8282610770565b91505060a083015184820360a08601526108d482826107c4565b91505060c08301516108e960c0860182610825565b5060e08301516108fc60e08601826107b5565b508091505092915050565b600060208201905081810360008301526109218184610834565b905092915050565b6109328161081b565b82525050565b600060208201905061094d6000830184610929565b92915050565b600082825260208201905092915050565b7f457374612066756e63696f6e20736f6c6f2070756564652073657220656a656360008201527f757461646120706f7220656c2063726561646f722064656c20636f6e7472617460208201527f6f00000000000000000000000000000000000000000000000000000000000000604082015250565b60006109e6604183610953565b91506109f182610964565b606082019050919050565b60006020820190508181036000830152610a15816109d9565b9050919050565b600080fd5b7f4e487b7100000000000000000000000000000000000000000000000000000000600052604160045260246000fd5b610a598261075f565b810181811067ffffffffffffffff82111715610a7857610a77610a21565b5b80604052505050565b6000610a8b610647565b9050610a978282610a50565b919050565b600080fd5b600080fd5b600080fd5b600067ffffffffffffffff821115610ac657610ac5610a21565b5b610acf8261075f565b9050602081019050919050565b6000610aef610aea84610aab565b610a81565b905082815260208101848484011115610b0b57610b0a610aa6565b5b610b1684828561072c565b509392505050565b600082601f830112610b3357610b32610aa1565b5b8151610b43848260208601610adc565b91505092915050565b610b55816107a9565b8114610b6057600080fd5b50565b600081519050610b7281610b4c565b92915050565b600060608284031215610b8e57610b8d610a1c565b5b610b986060610a81565b9050600082015167ffffffffffffffff811115610bb857610bb7610a9c565b5b610bc484828501610b1e565b600083015250602082015167ffffffffffffffff811115610be857610be7610a9c565b5b610bf484828501610b1e565b6020830152506040610c0884828501610b63565b60408301525092915050565b610c1d8161081b565b8114610c2857600080fd5b50565b600081519050610c3a81610c14565b92915050565b60006101008284031215610c5757610c56610a1c565b5b610c62610100610a81565b9050600082015167ffffffffffffffff811115610c8257610c81610a9c565b5b610c8e84828501610b1e565b600083015250602082015167ffffffffffffffff811115610cb257610cb1610a9c565b5b610cbe84828501610b1e565b602083015250604082015167ffffffffffffffff811115610ce257610ce1610a9c565b5b610cee84828501610b1e565b604083015250606082015167ffffffffffffffff811115610d1257610d11610a9c565b5b610d1e84828501610b1e565b606083015250608082015167ffffffffffffffff811115610d4257610d41610a9c565b5b610d4e84828501610b1e565b60808301525060a082015167ffffffffffffffff811115610d7257610d71610a9c565b5b610d7e84828501610b78565b60a08301525060c0610d9284828501610c2b565b60c08301525060e0610da684828501610b63565b60e08301525092915050565b600060208284031215610dc857610dc7610651565b5b600082015167ffffffffffffffff811115610de657610de5610656565b5b610df284828501610c40565b91505092915050565b60008160e01c9050919050565b600060033d1115610e275760046000803e610e24600051610dfb565b90505b90565b600060443d1015610e3a57610ebd565b610e42610647565b60043d036004823e80513d602482011167ffffffffffffffff82111715610e6a575050610ebd565b808201805167ffffffffffffffff811115610e885750505050610ebd565b80602083010160043d038501811115610ea5575050505050610ebd565b610eb482602001850186610a50565b82955050505050505b90565b7f736520726f6d70696f20706f7220756e20726576657274206f2072657175697260008201527f6500000000000000000000000000000000000000000000000000000000000000602082015250565b6000610f1c602183610953565b9150610f2782610ec0565b604082019050919050565b60006020820190508181036000830152610f4b81610f0f565b9050919050565b6000610f5d82610710565b610f678185610953565b9350610f7781856020860161072c565b610f808161075f565b840191505092915050565b60006020820190508181036000830152610fa58184610f52565b905092915050565b7f4e6f2065786973746520657365207573756172696f0000000000000000000000600082015250565b6000610fe3601583610953565b9150610fee82610fad565b602082019050919050565b6000602082019050818103600083015261101281610fd6565b9050919050565b7f656e636f6e74726f206c6120706572736f6e6100000000000000000000000000600082015250565b600061104f601383610953565b915061105a82611019565b602082019050919050565b6000602082019050818103600083015261107e81611042565b905091905056fea2646970667358221220a8e8746c77ddd397ac8c1732a8084a72d4327ad0d642dac0858a05946a7e4cae64736f6c634300080b0033",
  "immutableReferences": {},
  "source": "// SPDX-License-Identifier: MIT\npragma solidity ^0.8.10; \n\nimport \"../logica/Persona.sol\";\n\ncontract AccesoService {\n    event Log(string data);\n    address public creador;\n    address public ContratoPersonaAddress;\n    Persona private contratoPersona;\n\n    constructor() {\n        creador = msg.sender; // creador del contrato       \n    }\n\n    function login() external returns (PersonaStruct memory) {\n        address direccionUsuario = msg.sender;\n        // TODO: buscar persona en arreglo        ;\n        try contratoPersona.consultar(direccionUsuario) returns (\n            PersonaStruct memory response\n        ) {\n            emit Log(\"encontro la persona\");\n            return response;\n        } catch Error(string memory e) {\n            /*reason*/\n            emit Log(\"se rompio por un revert o require\");\n            emit Log(e);\n            revert(\"No existe ese usuario\");\n        }\n    }\n\n    function consultarRol(address direccionUsuario) public returns (uint256) {\n        PersonaStruct memory response = contratoPersona.consultar(direccionUsuario);\n        return response.rolId;\n    }\n\n    /*\n    // TODO: buscar porque es uint256\n    function buscarPermisosDeRol(uint256 funcionId) public view returns(bool){\n        address direccion = msg.sender;\n        // TODO: esto es como un filtro (averiguar si lo hay en solidity) y sirve para ver si un usario tiene acceso a x metodo\n    }\n    */\n\nfunction setContratoPersonaAddress(address direccion) public esPropietario {\n        ContratoPersonaAddress = direccion;\n        contratoPersona = Persona(ContratoPersonaAddress);\n    }\n\n    modifier esPropietario() {\n        require(\n            msg.sender == creador,\n            \"Esta funcion solo puede ser ejecutada por el creador del contrato\"\n        );\n        _; // ac se ejecuta la funcin\n    }\n\n    function selfDestruct() public esPropietario {\n        selfdestruct(payable(creador));\n    }\n}\n",
  "sourcePath": "/home/felipe/Documentos/Blockchain/codigo/back-hce/contracts/service/AccesoService.sol",
  "compiler": {
    "name": "solc",
    "version": "0.8.11+commit.d7f03943.Emscripten.clang"
  },
  "schemaVersion": "3.4.4",
  "updatedAt": "2022-02-18T22:43:22.262Z",
  "networkType": "ethereum",
  "devdoc": {
    "kind": "dev",
    "methods": {},
    "version": 1
  },
  "userdoc": {
    "kind": "user",
    "methods": {},
    "version": 1
  }
}