{
  "contractName": "AccesoService",
  "abi": [
    {
      "inputs": [],
      "stateMutability": "nonpayable",
      "type": "constructor"
    },
    {
      "anonymous": false,
      "inputs": [
        {
          "indexed": false,
          "internalType": "string",
          "name": "data",
          "type": "string"
        }
      ],
      "name": "Log",
      "type": "event"
    },
    {
      "inputs": [],
      "name": "ContratoPersonaAddress",
      "outputs": [
        {
          "internalType": "address",
          "name": "",
          "type": "address"
        }
      ],
      "stateMutability": "view",
      "type": "function"
    },
    {
      "inputs": [],
      "name": "creador",
      "outputs": [
        {
          "internalType": "address",
          "name": "",
          "type": "address"
        }
      ],
      "stateMutability": "view",
      "type": "function"
    },
    {
      "inputs": [],
      "name": "login",
      "outputs": [
        {
          "components": [
            {
              "internalType": "string",
              "name": "primerNombre",
              "type": "string"
            },
            {
              "internalType": "string",
              "name": "segundoNombre",
              "type": "string"
            },
            {
              "internalType": "string",
              "name": "primerApellido",
              "type": "string"
            },
            {
              "internalType": "string",
              "name": "segundoApellido",
              "type": "string"
            },
            {
              "internalType": "string",
              "name": "identificacion",
              "type": "string"
            },
            {
              "components": [
                {
                  "internalType": "string",
                  "name": "nombre",
                  "type": "string"
                },
                {
                  "internalType": "string",
                  "name": "descripcion",
                  "type": "string"
                },
                {
                  "internalType": "bool",
                  "name": "estaActiva",
                  "type": "bool"
                }
              ],
              "internalType": "struct TipoIdentificacionStruct",
              "name": "tipoIdentificacion",
              "type": "tuple"
            },
            {
              "internalType": "bool",
              "name": "isValue",
              "type": "bool"
            }
          ],
          "internalType": "struct PersonaStruct",
          "name": "",
          "type": "tuple"
        }
      ],
      "stateMutability": "nonpayable",
      "type": "function"
    },
    {
      "inputs": [
        {
          "internalType": "address",
          "name": "direccion",
          "type": "address"
        }
      ],
      "name": "setContratoPersonaAddress",
      "outputs": [],
      "stateMutability": "nonpayable",
      "type": "function"
    }
  ],
  "bytecode": "0x608060405234801561001057600080fd5b50336000806101000a81548173ffffffffffffffffffffffffffffffffffffffff021916908373ffffffffffffffffffffffffffffffffffffffff160217905550610e4e806100606000396000f3fe608060405234801561001057600080fd5b506004361061004c5760003560e01c806340cd7a6014610051578063928c135c1461006d57806392ebdcd21461008b578063b34e97e8146100a9575b600080fd5b61006b600480360381019061006691906104e5565b6100c7565b005b6100756101fc565b6040516100829190610521565b60405180910390f35b610093610222565b6040516100a09190610521565b60405180910390f35b6100b1610246565b6040516100be9190610706565b60405180910390f35b60008054906101000a900473ffffffffffffffffffffffffffffffffffffffff1673ffffffffffffffffffffffffffffffffffffffff163373ffffffffffffffffffffffffffffffffffffffff1614610155576040517f08c379a000000000000000000000000000000000000000000000000000000000815260040161014c906107d1565b60405180910390fd5b80600160006101000a81548173ffffffffffffffffffffffffffffffffffffffff021916908373ffffffffffffffffffffffffffffffffffffffff160217905550600160009054906101000a900473ffffffffffffffffffffffffffffffffffffffff16600260006101000a81548173ffffffffffffffffffffffffffffffffffffffff021916908373ffffffffffffffffffffffffffffffffffffffff16021790555050565b600160009054906101000a900473ffffffffffffffffffffffffffffffffffffffff1681565b60008054906101000a900473ffffffffffffffffffffffffffffffffffffffff1681565b61024e61040b565b6000339050600260009054906101000a900473ffffffffffffffffffffffffffffffffffffffff1673ffffffffffffffffffffffffffffffffffffffff16637da8f6a5826040518263ffffffff1660e01b81526004016102ae9190610521565b6000604051808303816000875af19250505080156102ef57506040513d6000823e3d601f19601f820116820180604052508101906102ec9190610b45565b60015b6103ce576102fb610b9b565b806308c379a014156103c25750610310610bbd565b8061031b57506103c4565b7fcf34ef537ac33ee1ac626ca1587a0a7e8e51561e5514f8cb36afa1c5102b3bab60405161034890610cc5565b60405180910390a17fcf34ef537ac33ee1ac626ca1587a0a7e8e51561e5514f8cb36afa1c5102b3bab8160405161037f9190610d1e565b60405180910390a16040517f08c379a00000000000000000000000000000000000000000000000000000000081526004016103b990610d8c565b60405180910390fd5b505b3d6000803e3d6000fd5b7fcf34ef537ac33ee1ac626ca1587a0a7e8e51561e5514f8cb36afa1c5102b3bab6040516103fb90610df8565b60405180910390a1809250505090565b6040518060e001604052806060815260200160608152602001606081526020016060815260200160608152602001610441610450565b81526020016000151581525090565b604051806060016040528060608152602001606081526020016000151581525090565b6000604051905090565b600080fd5b600080fd5b600073ffffffffffffffffffffffffffffffffffffffff82169050919050565b60006104b282610487565b9050919050565b6104c2816104a7565b81146104cd57600080fd5b50565b6000813590506104df816104b9565b92915050565b6000602082840312156104fb576104fa61047d565b5b6000610509848285016104d0565b91505092915050565b61051b816104a7565b82525050565b60006020820190506105366000830184610512565b92915050565b600081519050919050565b600082825260208201905092915050565b60005b8381101561057657808201518184015260208101905061055b565b83811115610585576000848401525b50505050565b6000601f19601f8301169050919050565b60006105a78261053c565b6105b18185610547565b93506105c1818560208601610558565b6105ca8161058b565b840191505092915050565b60008115159050919050565b6105ea816105d5565b82525050565b6000606083016000830151848203600086015261060d828261059c565b91505060208301518482036020860152610627828261059c565b915050604083015161063c60408601826105e1565b508091505092915050565b600060e0830160008301518482036000860152610664828261059c565b9150506020830151848203602086015261067e828261059c565b91505060408301518482036040860152610698828261059c565b915050606083015184820360608601526106b2828261059c565b915050608083015184820360808601526106cc828261059c565b91505060a083015184820360a08601526106e682826105f0565b91505060c08301516106fb60c08601826105e1565b508091505092915050565b600060208201905081810360008301526107208184610647565b905092915050565b600082825260208201905092915050565b7f457374612066756e63696f6e20736f6c6f2070756564652073657220656a656360008201527f757461646120706f7220656c2063726561646f722064656c20636f6e7472617460208201527f6f00000000000000000000000000000000000000000000000000000000000000604082015250565b60006107bb604183610728565b91506107c682610739565b606082019050919050565b600060208201905081810360008301526107ea816107ae565b9050919050565b600080fd5b7f4e487b7100000000000000000000000000000000000000000000000000000000600052604160045260246000fd5b61082e8261058b565b810181811067ffffffffffffffff8211171561084d5761084c6107f6565b5b80604052505050565b6000610860610473565b905061086c8282610825565b919050565b600080fd5b600080fd5b600080fd5b600067ffffffffffffffff82111561089b5761089a6107f6565b5b6108a48261058b565b9050602081019050919050565b60006108c46108bf84610880565b610856565b9050828152602081018484840111156108e0576108df61087b565b5b6108eb848285610558565b509392505050565b600082601f83011261090857610907610876565b5b81516109188482602086016108b1565b91505092915050565b61092a816105d5565b811461093557600080fd5b50565b60008151905061094781610921565b92915050565b600060608284031215610963576109626107f1565b5b61096d6060610856565b9050600082015167ffffffffffffffff81111561098d5761098c610871565b5b610999848285016108f3565b600083015250602082015167ffffffffffffffff8111156109bd576109bc610871565b5b6109c9848285016108f3565b60208301525060406109dd84828501610938565b60408301525092915050565b600060e082840312156109ff576109fe6107f1565b5b610a0960e0610856565b9050600082015167ffffffffffffffff811115610a2957610a28610871565b5b610a35848285016108f3565b600083015250602082015167ffffffffffffffff811115610a5957610a58610871565b5b610a65848285016108f3565b602083015250604082015167ffffffffffffffff811115610a8957610a88610871565b5b610a95848285016108f3565b604083015250606082015167ffffffffffffffff811115610ab957610ab8610871565b5b610ac5848285016108f3565b606083015250608082015167ffffffffffffffff811115610ae957610ae8610871565b5b610af5848285016108f3565b60808301525060a082015167ffffffffffffffff811115610b1957610b18610871565b5b610b258482850161094d565b60a08301525060c0610b3984828501610938565b60c08301525092915050565b600060208284031215610b5b57610b5a61047d565b5b600082015167ffffffffffffffff811115610b7957610b78610482565b5b610b85848285016109e9565b91505092915050565b60008160e01c9050919050565b600060033d1115610bba5760046000803e610bb7600051610b8e565b90505b90565b600060443d1015610bcd57610c50565b610bd5610473565b60043d036004823e80513d602482011167ffffffffffffffff82111715610bfd575050610c50565b808201805167ffffffffffffffff811115610c1b5750505050610c50565b80602083010160043d038501811115610c38575050505050610c50565b610c4782602001850186610825565b82955050505050505b90565b7f736520726f6d70696f20706f7220756e20726576657274206f2072657175697260008201527f6500000000000000000000000000000000000000000000000000000000000000602082015250565b6000610caf602183610728565b9150610cba82610c53565b604082019050919050565b60006020820190508181036000830152610cde81610ca2565b9050919050565b6000610cf08261053c565b610cfa8185610728565b9350610d0a818560208601610558565b610d138161058b565b840191505092915050565b60006020820190508181036000830152610d388184610ce5565b905092915050565b7f4e6f2065786973746520657365207573756172696f0000000000000000000000600082015250565b6000610d76601583610728565b9150610d8182610d40565b602082019050919050565b60006020820190508181036000830152610da581610d69565b9050919050565b7f656e636f6e74726f206c6120706572736f6e6100000000000000000000000000600082015250565b6000610de2601383610728565b9150610ded82610dac565b602082019050919050565b60006020820190508181036000830152610e1181610dd5565b905091905056fea2646970667358221220460d562de19a398f35f277c2bb3cd380184220fdac2a82e24a58ab94367e7f0c64736f6c634300080b0033",
  "immutableReferences": {},
  "source": "// SPDX-License-Identifier: MIT\npragma solidity ^0.8.10; \n\nimport \"../logica/Persona.sol\";\n\ncontract AccesoService {\n    event Log(string data);\n    address public creador;\n    address public ContratoPersonaAddress;\n    Persona private contratoPersona;\n\n    constructor() {\n        creador = msg.sender; // creador del contrato       \n    }\n\n    function login() external returns (PersonaStruct memory) {\n        address direccionUsuario = msg.sender;\n        // TODO: buscar persona en arreglo        ;\n        try contratoPersona.consultar(direccionUsuario) returns (\n            PersonaStruct memory response\n        ) {\n            emit Log(\"encontro la persona\");\n            return response;\n        } catch Error(string memory e) {\n            /*reason*/\n            emit Log(\"se rompio por un revert o require\");\n            emit Log(e);\n            revert(\"No existe ese usuario\");\n        }\n    }\n\n    /*\n    // TODO: buscar porque es uint256\n    function buscarPermisosDeRol(uint256 funcionId) public view returns(bool){\n        address direccion = msg.sender;\n        // TODO: esto es como un filtro (averiguar si lo hay en solidity) y sirve para ver si un usario tiene acceso a x metodo\n    }\n    */\n\nfunction setContratoPersonaAddress(address direccion) public esPropietario {\n        ContratoPersonaAddress = direccion;\n        contratoPersona = Persona(ContratoPersonaAddress);\n    }\n\n    modifier esPropietario() {\n        require(\n            msg.sender == creador,\n            \"Esta funcion solo puede ser ejecutada por el creador del contrato\"\n        );\n        _; // ac se ejecuta la funcin\n    }\n}\n",
  "sourcePath": "/home/felipe/Documentos/Blockchain/codigo/back-hce/contracts/service/AccesoService.sol",
  "compiler": {
    "name": "solc",
    "version": "0.8.11+commit.d7f03943.Emscripten.clang"
  },
  "schemaVersion": "3.4.4",
  "updatedAt": "2022-02-06T00:45:08.497Z",
  "devdoc": {
    "kind": "dev",
    "methods": {},
    "version": 1
  },
  "userdoc": {
    "kind": "user",
    "methods": {},
    "version": 1
  }
}