{
  "contractName": "AccesoHistoriaClinica",
  "abi": [
    {
      "inputs": [],
      "stateMutability": "nonpayable",
      "type": "constructor"
    },
    {
      "anonymous": false,
      "inputs": [
        {
          "indexed": false,
          "internalType": "string",
          "name": "data",
          "type": "string"
        }
      ],
      "name": "Log",
      "type": "event"
    },
    {
      "anonymous": false,
      "inputs": [
        {
          "indexed": false,
          "internalType": "string",
          "name": "data",
          "type": "string"
        },
        {
          "indexed": true,
          "internalType": "address",
          "name": "notificado",
          "type": "address"
        }
      ],
      "name": "Notification",
      "type": "event"
    },
    {
      "inputs": [],
      "name": "creador",
      "outputs": [
        {
          "internalType": "address",
          "name": "",
          "type": "address"
        }
      ],
      "stateMutability": "view",
      "type": "function",
      "constant": true
    },
    {
      "inputs": [],
      "name": "getAcceso",
      "outputs": [
        {
          "internalType": "contract Acceso",
          "name": "",
          "type": "address"
        }
      ],
      "stateMutability": "view",
      "type": "function",
      "constant": true
    },
    {
      "inputs": [
        {
          "internalType": "contract Acceso",
          "name": "_accesoAddress",
          "type": "address"
        }
      ],
      "name": "setAcceso",
      "outputs": [],
      "stateMutability": "nonpayable",
      "type": "function"
    },
    {
      "inputs": [
        {
          "internalType": "contract AccesoHistoriaClinica",
          "name": "_accesoHistoriaClinicaAddress",
          "type": "address"
        }
      ],
      "name": "setAccesoHistoriaClinica",
      "outputs": [],
      "stateMutability": "nonpayable",
      "type": "function"
    },
    {
      "inputs": [
        {
          "internalType": "uint256",
          "name": "permisoId",
          "type": "uint256"
        }
      ],
      "name": "tieneAccesoFunc",
      "outputs": [
        {
          "internalType": "bool",
          "name": "",
          "type": "bool"
        }
      ],
      "stateMutability": "nonpayable",
      "type": "function"
    },
    {
      "inputs": [
        {
          "internalType": "address",
          "name": "direccionMedico",
          "type": "address"
        },
        {
          "internalType": "bool",
          "name": "acepta",
          "type": "bool"
        }
      ],
      "name": "responderSolicitudDeAcceso",
      "outputs": [],
      "stateMutability": "nonpayable",
      "type": "function"
    },
    {
      "inputs": [
        {
          "internalType": "address",
          "name": "direccionPaciente",
          "type": "address"
        }
      ],
      "name": "solicitarAccesoHistoriaClinica",
      "outputs": [
        {
          "internalType": "uint256",
          "name": "",
          "type": "uint256"
        }
      ],
      "stateMutability": "nonpayable",
      "type": "function"
    },
    {
      "inputs": [
        {
          "internalType": "address",
          "name": "direccionMedico",
          "type": "address"
        }
      ],
      "name": "esMedicoActivo",
      "outputs": [
        {
          "internalType": "bool",
          "name": "",
          "type": "bool"
        }
      ],
      "stateMutability": "nonpayable",
      "type": "function"
    },
    {
      "inputs": [
        {
          "internalType": "address",
          "name": "direccionPaciente",
          "type": "address"
        },
        {
          "internalType": "address",
          "name": "direccionMedico",
          "type": "address"
        }
      ],
      "name": "esSolicitudVigente",
      "outputs": [
        {
          "internalType": "bool",
          "name": "",
          "type": "bool"
        }
      ],
      "stateMutability": "nonpayable",
      "type": "function"
    },
    {
      "inputs": [
        {
          "internalType": "address",
          "name": "direccionPaciente",
          "type": "address"
        }
      ],
      "name": "getPermisosDeAccesoActivosPorHistoriaClinica",
      "outputs": [
        {
          "internalType": "contract PermisoDeAccesoVO[]",
          "name": "",
          "type": "address[]"
        }
      ],
      "stateMutability": "nonpayable",
      "type": "function"
    },
    {
      "inputs": [
        {
          "internalType": "address",
          "name": "direccionPaciente",
          "type": "address"
        }
      ],
      "name": "getPermisosDeAccesoPorHistoriaClinica",
      "outputs": [
        {
          "internalType": "contract PermisoDeAccesoVO[]",
          "name": "",
          "type": "address[]"
        }
      ],
      "stateMutability": "nonpayable",
      "type": "function"
    },
    {
      "inputs": [
        {
          "internalType": "address",
          "name": "direccionMedico",
          "type": "address"
        }
      ],
      "name": "getPermisosDeAccesoActivosPorMedico",
      "outputs": [
        {
          "internalType": "contract PermisoDeAccesoVO[]",
          "name": "",
          "type": "address[]"
        }
      ],
      "stateMutability": "nonpayable",
      "type": "function"
    },
    {
      "inputs": [
        {
          "internalType": "address",
          "name": "direccionMedico",
          "type": "address"
        }
      ],
      "name": "getPermisosDeAccesoPorMedico",
      "outputs": [
        {
          "internalType": "contract PermisoDeAccesoVO[]",
          "name": "",
          "type": "address[]"
        }
      ],
      "stateMutability": "nonpayable",
      "type": "function"
    },
    {
      "inputs": [
        {
          "internalType": "contract AccesoHistoriaClinicaMapper",
          "name": "_accesoHistoriaClinicaMapper",
          "type": "address"
        }
      ],
      "name": "setAccesoHistoriaClinicaMapper",
      "outputs": [],
      "stateMutability": "nonpayable",
      "type": "function"
    },
    {
      "inputs": [
        {
          "internalType": "contract MedicoMapperInterface",
          "name": "_medicoMapper",
          "type": "address"
        }
      ],
      "name": "setMedicoMapper",
      "outputs": [],
      "stateMutability": "nonpayable",
      "type": "function"
    },
    {
      "inputs": [],
      "name": "selfDestruct",
      "outputs": [],
      "stateMutability": "nonpayable",
      "type": "function"
    }
  ],
  "bytecode": "0x608060405234801561001057600080fd5b50600080546001600160a01b0319163317905561245d806100326000396000f3fe608060405234801561001057600080fd5b50600436106101005760003560e01c8063af2ffc3311610097578063dd2861b711610066578063dd2861b714610228578063dd563d531461023b578063fa7af2bb1461024e578063fa7e054e1461026157600080fd5b8063af2ffc33146101ce578063ce40d7b6146101e1578063d4a79866146101f4578063d58fe8251461020757600080fd5b80635821eb36116100d35780635821eb36146101755780636ff30e691461018857806392ebdcd21461019b5780639cb8a26a146101c657600080fd5b8063137d4722146101055780633de2d76d1461011a5780634022d672146101425780634dfc9b4c14610155575b600080fd5b61011861011336600461166c565b610272565b005b61012d61012836600461166c565b610330565b60405190151581526020015b60405180910390f35b61011861015036600461166c565b61049d565b61016861016336600461166c565b610556565b6040516101399190611690565b6101186101833660046116eb565b6106b1565b61016861019636600461166c565b610bbd565b6000546101ae906001600160a01b031681565b6040516001600160a01b039091168152602001610139565b610118610ccf565b61012d6101dc366004611724565b610d67565b6101186101ef36600461166c565b610e00565b61012d610202366004611752565b610eb9565b61021a61021536600461166c565b610f2f565b604051908152602001610139565b61016861023636600461166c565b611235565b61016861024936600461166c565b611347565b61011861025c36600461166c565b611459565b6001546001600160a01b03166101ae565b6000546001600160a01b031633146103015760405162461bcd60e51b815260206004820152604160248201527f457374612066756e63696f6e20736f6c6f2070756564652073657220656a656360448201527f757461646120706f7220656c2063726561646f722064656c20636f6e747261746064820152606f60f81b608482015260a4015b60405180910390fd5b6001805473ffffffffffffffffffffffffffffffffffffffff19166001600160a01b0392909216919091179055565b600480546040517f7da8f6a50000000000000000000000000000000000000000000000000000000081526001600160a01b038481169382019390935260009283921690637da8f6a5906024016020604051808303816000875af115801561039b573d6000803e3d6000fd5b505050506040513d601f19601f820116820180604052508101906103bf919061176b565b9050806001600160a01b0316636d07d7e36040518163ffffffff1660e01b8152600401602060405180830381865afa1580156103ff573d6000803e3d6000fd5b505050506040513d601f19601f82011682018060405250810190610423919061176b565b6001600160a01b0316635d1ca6316040518163ffffffff1660e01b8152600401602060405180830381865afa158015610460573d6000803e3d6000fd5b505050506040513d601f19601f820116820180604052508101906104849190611788565b6001036104945750600192915050565b50600092915050565b6000546001600160a01b031633146105275760405162461bcd60e51b815260206004820152604160248201527f457374612066756e63696f6e20736f6c6f2070756564652073657220656a656360448201527f757461646120706f7220656c2063726561646f722064656c20636f6e747261746064820152606f60f81b608482015260a4016102f8565b6002805473ffffffffffffffffffffffffffffffffffffffff19166001600160a01b0392909216919091179055565b6001546040516336a664e960e11b815233600482015260186024820181905260609290916000916001600160a01b031690636d4cc9d2906044016020604051808303816000875af11580156105af573d6000803e3d6000fd5b505050506040513d601f19601f820116820180604052508101906105d391906117a1565b9050806105df83611512565b6040516020016105ef91906117e2565b6040516020818303038152906040529061061c5760405162461bcd60e51b81526004016102f8919061184d565b506003546040517f4dfc9b4c0000000000000000000000000000000000000000000000000000000081526001600160a01b03868116600483015290911690634dfc9b4c906024015b600060405180830381865afa158015610681573d6000803e3d6000fd5b505050506040513d6000823e601f3d908101601f191682016040526106a991908101906118a6565b949350505050565b6001546040516336a664e960e11b8152336004820152601360248201819052916000916001600160a01b0390911690636d4cc9d2906044016020604051808303816000875af1158015610708573d6000803e3d6000fd5b505050506040513d601f19601f8201168201806040525081019061072c91906117a1565b90508061073883611512565b60405160200161074891906117e2565b604051602081830303815290604052906107755760405162461bcd60e51b81526004016102f8919061184d565b506003546040517f53d9c2090000000000000000000000000000000000000000000000000000000081523360048201526001600160a01b03868116602483015260009216906353d9c20990604401600060405180830381865afa1580156107e0573d6000803e3d6000fd5b505050506040513d6000823e601f3d908101601f1916820160405261080891908101906118a6565b805190915060009042905b8015610b485783610825600183611981565b8151811061083557610835611994565b60200260200101519250826001600160a01b03166350cfa3b86040518163ffffffff1660e01b8152600401602060405180830381865afa15801561087d573d6000803e3d6000fd5b505050506040513d601f19601f820116820180604052508101906108a191906117a1565b610b36577fcf34ef537ac33ee1ac626ca1587a0a7e8e51561e5514f8cb36afa1c5102b3bab604051610904906020808252601b908201527f4c6120736f6c6963697475642066756520726573706f6e646964610000000000604082015260600190565b60405180910390a18615610a3c5760405163087ecde360e31b8152600160048201526001600160a01b038416906343f66f1890602401600060405180830381600087803b15801561095457600080fd5b505af1158015610968573d6000803e3d6000fd5b5050604051636b96e67360e11b8152600481018590526001600160a01b038616925063d72dcce69150602401600060405180830381600087803b1580156109ae57600080fd5b505af11580156109c2573d6000803e3d6000fd5b50505050826001600160a01b03166366cb6c41836107086109e391906119aa565b6040518263ffffffff1660e01b8152600401610a0191815260200190565b600060405180830381600087803b158015610a1b57600080fd5b505af1158015610a2f573d6000803e3d6000fd5b5050505050505050610bb7565b60405163087ecde360e31b8152600160048201526001600160a01b038416906343f66f1890602401600060405180830381600087803b158015610a7e57600080fd5b505af1158015610a92573d6000803e3d6000fd5b5050604051636b96e67360e11b8152600481018590526001600160a01b038616925063d72dcce69150602401600060405180830381600087803b158015610ad857600080fd5b505af1158015610aec573d6000803e3d6000fd5b50506040517f66cb6c41000000000000000000000000000000000000000000000000000000008152600060048201526001600160a01b03861692506366cb6c419150602401610a01565b80610b40816119d2565b915050610813565b5060405162461bcd60e51b815260206004820152602d60248201527f4e6f2065786973746520756e6120736f6c696369747564206465207065726d6960448201527f736f20656e2070726f6365736f0000000000000000000000000000000000000060648201526084016102f8565b50505050565b6001546040516336a664e960e11b815233600482015260166024820181905260609290916000916001600160a01b031690636d4cc9d2906044016020604051808303816000875af1158015610c16573d6000803e3d6000fd5b505050506040513d601f19601f82011682018060405250810190610c3a91906117a1565b905080610c4683611512565b604051602001610c5691906117e2565b60405160208183030381529060405290610c835760405162461bcd60e51b81526004016102f8919061184d565b506003546040517f6ff30e690000000000000000000000000000000000000000000000000000000081526001600160a01b03868116600483015290911690636ff30e6990602401610664565b6000546001600160a01b03163314610d595760405162461bcd60e51b815260206004820152604160248201527f457374612066756e63696f6e20736f6c6f2070756564652073657220656a656360448201527f757461646120706f7220656c2063726561646f722064656c20636f6e747261746064820152606f60f81b608482015260a4016102f8565b6000546001600160a01b0316ff5b6003546040517fda2f42610000000000000000000000000000000000000000000000000000000081526001600160a01b0384811660048301528381166024830152600092169063da2f426190604401602060405180830381865afa158015610dd3573d6000803e3d6000fd5b505050506040513d601f19601f82011682018060405250810190610df791906117a1565b90505b92915050565b6000546001600160a01b03163314610e8a5760405162461bcd60e51b815260206004820152604160248201527f457374612066756e63696f6e20736f6c6f2070756564652073657220656a656360448201527f757461646120706f7220656c2063726561646f722064656c20636f6e747261746064820152606f60f81b608482015260a4016102f8565b6003805473ffffffffffffffffffffffffffffffffffffffff19166001600160a01b0392909216919091179055565b6001546040516336a664e960e11b8152336004820152602481018390526000916001600160a01b031690636d4cc9d2906044016020604051808303816000875af1158015610f0b573d6000803e3d6000fd5b505050506040513d601f19601f82011682018060405250810190610dfa91906117a1565b6001546040516336a664e960e11b8152336004820152601460248201819052600092909183916001600160a01b031690636d4cc9d2906044016020604051808303816000875af1158015610f87573d6000803e3d6000fd5b505050506040513d601f19601f82011682018060405250810190610fab91906117a1565b905080610fb783611512565b604051602001610fc791906117e2565b60405160208183030381529060405290610ff45760405162461bcd60e51b81526004016102f8919061184d565b50600061100033610330565b90508061109b5760405162461bcd60e51b815260206004820152604960248201527f4d656469636f206e6f2076616c69646f207061726120736f6c6963697461722060448201527f61636365736f73202876616c6964656c6f20636f6e20656c2073697374656d6160648201527f2065787465726e6f290000000000000000000000000000000000000000000000608482015260a4016102f8565b60006040516110a990611647565b604051809103906000f0801580156110c5573d6000803e3d6000fd5b5060405163087ecde360e31b8152600060048201529091506001600160a01b038216906343f66f1890602401600060405180830381600087803b15801561110b57600080fd5b505af115801561111f573d6000803e3d6000fd5b50505050856001600160a01b03167f4d1919bd0df5ca6d4c1d352a1025604f2c4574dfbd41bdca5e526ade3062e89760405161118c9060208082526015908201527f536520736f6c696369746f20756e2061636365736f0000000000000000000000604082015260600190565b60405180910390a26003546040517f4bfb14c50000000000000000000000000000000000000000000000000000000081526001600160a01b038881166004830152336024830152838116604483015290911690634bfb14c5906064016020604051808303816000875af1158015611207573d6000803e3d6000fd5b505050506040513d601f19601f8201168201806040525081019061122b9190611788565b9695505050505050565b6001546040516336a664e960e11b815233600482015260196024820181905260609290916000916001600160a01b031690636d4cc9d2906044016020604051808303816000875af115801561128e573d6000803e3d6000fd5b505050506040513d601f19601f820116820180604052508101906112b291906117a1565b9050806112be83611512565b6040516020016112ce91906117e2565b604051602081830303815290604052906112fb5760405162461bcd60e51b81526004016102f8919061184d565b506003546040517fdd2861b70000000000000000000000000000000000000000000000000000000081526001600160a01b0386811660048301529091169063dd2861b790602401610664565b6001546040516336a664e960e11b815233600482015260176024820181905260609290916000916001600160a01b031690636d4cc9d2906044016020604051808303816000875af11580156113a0573d6000803e3d6000fd5b505050506040513d601f19601f820116820180604052508101906113c491906117a1565b9050806113d083611512565b6040516020016113e091906117e2565b6040516020818303038152906040529061140d5760405162461bcd60e51b81526004016102f8919061184d565b506003546040517fdd563d530000000000000000000000000000000000000000000000000000000081526001600160a01b0386811660048301529091169063dd563d5390602401610664565b6000546001600160a01b031633146114e35760405162461bcd60e51b815260206004820152604160248201527f457374612066756e63696f6e20736f6c6f2070756564652073657220656a656360448201527f757461646120706f7220656c2063726561646f722064656c20636f6e747261746064820152606f60f81b608482015260a4016102f8565b6004805473ffffffffffffffffffffffffffffffffffffffff19166001600160a01b0392909216919091179055565b60608160000361155557505060408051808201909152600181527f3000000000000000000000000000000000000000000000000000000000000000602082015290565b8160005b811561157f5780611569816119e9565b91506115789050600a83611a18565b9150611559565b60008167ffffffffffffffff81111561159a5761159a611880565b6040519080825280601f01601f1916602001820160405280156115c4576020820181803683370190505b5090505b84156106a9576115d9600183611981565b91506115e6600a86611a2c565b6115f1906030611a40565b60f81b81838151811061160657611606611994565b60200101907effffffffffffffffffffffffffffffffffffffffffffffffffffffffffffff1916908160001a905350611640600a86611a18565b94506115c8565b6109d480611a5483390190565b6001600160a01b038116811461166957600080fd5b50565b60006020828403121561167e57600080fd5b813561168981611654565b9392505050565b6020808252825182820181905260009190848201906040850190845b818110156116d15783516001600160a01b0316835292840192918401916001016116ac565b50909695505050505050565b801515811461166957600080fd5b600080604083850312156116fe57600080fd5b823561170981611654565b91506020830135611719816116dd565b809150509250929050565b6000806040838503121561173757600080fd5b823561174281611654565b9150602083013561171981611654565b60006020828403121561176457600080fd5b5035919050565b60006020828403121561177d57600080fd5b815161168981611654565b60006020828403121561179a57600080fd5b5051919050565b6000602082840312156117b357600080fd5b8151611689816116dd565b60005b838110156117d95781810151838201526020016117c1565b50506000910152565b7f456c207573756172696f206e6f207469656e652061636365736f20706f72207281527f6f6c2061206c612066756e63696f6e3a200000000000000000000000000000006020820152600082516118408160318501602087016117be565b9190910160310192915050565b602081526000825180602084015261186c8160408501602087016117be565b601f01601f19169190910160400192915050565b634e487b7160e01b600052604160045260246000fd5b80516118a181611654565b919050565b600060208083850312156118b957600080fd5b825167ffffffffffffffff808211156118d157600080fd5b818501915085601f8301126118e557600080fd5b8151818111156118f7576118f7611880565b8060051b604051601f19603f8301168101818110858211171561191c5761191c611880565b60405291825284820192508381018501918883111561193a57600080fd5b938501935b8285101561195f5761195085611896565b8452938501939285019261193f565b98975050505050505050565b634e487b7160e01b600052601160045260246000fd5b81810381811115610dfa57610dfa61196b565b634e487b7160e01b600052603260045260246000fd5b80820182811260008312801582168215821617156119ca576119ca61196b565b505092915050565b6000816119e1576119e161196b565b506000190190565b6000600182016119fb576119fb61196b565b5060010190565b634e487b7160e01b600052601260045260246000fd5b600082611a2757611a27611a02565b500490565b600082611a3b57611a3b611a02565b500690565b80820180821115610dfa57610dfa61196b56fe608060405234801561001057600080fd5b50600080546001600160a01b031916331790556109a2806100326000396000f3fe608060405234801561001057600080fd5b506004361061011b5760003560e01c8063a2c499a7116100b2578063d72dcce611610081578063ebbf321b11610066578063ebbf321b14610283578063fd2f223914610294578063fe341d6a146102d157600080fd5b8063d72dcce61461025b578063e0b001921461026e57600080fd5b8063a2c499a714610225578063ab2d092c1461022d578063b251f00514610240578063d0e0ba951461024857600080fd5b80635d1ca631116100ee5780635d1ca631146101c057806366cb6c41146101d257806392ebdcd2146101e557806399e30e1e1461021057600080fd5b806316f167501461012057806343f66f181461015f57806350cfa3b81461018b578063542f17e4146101ad575b600080fd5b61015d61012e366004610524565b6003805473ffffffffffffffffffffffffffffffffffffffff19166001600160a01b0392909216919091179055565b005b61015d61016d366004610556565b60048054911515600160a01b0260ff60a01b19909216919091179055565b600454600160a01b900460ff1660405190151581526020015b60405180910390f35b61015d6101bb36600461063d565b6102e2565b6001545b6040519081526020016101a4565b61015d6101e03660046106fe565b600655565b6000546101f8906001600160a01b031681565b6040516001600160a01b0390911681526020016101a4565b61021861032c565b6040516101a4919061075d565b6005546101c4565b61015d61023b3660046107d3565b610466565b6006546101c4565b61015d6102563660046106fe565b600155565b61015d6102693660046106fe565b600555565b610276610476565b6040516101a49190610810565b6004546001600160a01b03166101f8565b61015d6102a2366004610524565b6004805473ffffffffffffffffffffffffffffffffffffffff19166001600160a01b0392909216919091179055565b6003546001600160a01b03166101f8565b805160015560208101516002906102f990826108ac565b50608081015160048054911515600160a01b0260ff60a01b1990921691909117905560a081015160055560c00151600655565b6103806040518060e00160405280600081526020016060815260200160006001600160a01b0316815260200160006001600160a01b0316815260200160001515815260200160008152602001600081525090565b6040518060e001604052806001548152602001600280546103a090610823565b80601f01602080910402602001604051908101604052809291908181526020018280546103cc90610823565b80156104195780601f106103ee57610100808354040283529160200191610419565b820191906000526020600020905b8154815290600101906020018083116103fc57829003601f168201915b50505091835250506003546001600160a01b0390811660208301526004549081166040830152600160a01b900460ff1615156060820152600554608082015260065460a090910152919050565b600261047282826108ac565b5050565b60606002805461048590610823565b80601f01602080910402602001604051908101604052809291908181526020018280546104b190610823565b80156104fe5780601f106104d3576101008083540402835291602001916104fe565b820191906000526020600020905b8154815290600101906020018083116104e157829003601f168201915b5050505050905090565b80356001600160a01b038116811461051f57600080fd5b919050565b60006020828403121561053657600080fd5b61053f82610508565b9392505050565b8035801515811461051f57600080fd5b60006020828403121561056857600080fd5b61053f82610546565b634e487b7160e01b600052604160045260246000fd5b60405160e0810167ffffffffffffffff811182821017156105aa576105aa610571565b60405290565b600082601f8301126105c157600080fd5b813567ffffffffffffffff808211156105dc576105dc610571565b604051601f8301601f19908116603f0116810190828211818310171561060457610604610571565b8160405283815286602085880101111561061d57600080fd5b836020870160208301376000602085830101528094505050505092915050565b60006020828403121561064f57600080fd5b813567ffffffffffffffff8082111561066757600080fd5b9083019060e0828603121561067b57600080fd5b610683610587565b8235815260208301358281111561069957600080fd5b6106a5878286016105b0565b6020830152506106b760408401610508565b60408201526106c860608401610508565b60608201526106d960808401610546565b608082015260a083013560a082015260c083013560c082015280935050505092915050565b60006020828403121561071057600080fd5b5035919050565b6000815180845260005b8181101561073d57602081850181015186830182015201610721565b506000602082860101526020601f19601f83011685010191505092915050565b60208152815160208201526000602083015160e06040840152610784610100840182610717565b905060408401516001600160a01b03808216606086015280606087015116608086015250506080840151151560a084015260a084015160c084015260c084015160e08401528091505092915050565b6000602082840312156107e557600080fd5b813567ffffffffffffffff8111156107fc57600080fd5b610808848285016105b0565b949350505050565b60208152600061053f6020830184610717565b600181811c9082168061083757607f821691505b60208210810361085757634e487b7160e01b600052602260045260246000fd5b50919050565b601f8211156108a757600081815260208120601f850160051c810160208610156108845750805b601f850160051c820191505b818110156108a357828155600101610890565b5050505b505050565b815167ffffffffffffffff8111156108c6576108c6610571565b6108da816108d48454610823565b8461085d565b602080601f83116001811461090f57600084156108f75750858301515b600019600386901b1c1916600185901b1785556108a3565b600085815260208120601f198616915b8281101561093e5788860151825594840194600190910190840161091f565b508582101561095c5787850151600019600388901b60f8161c191681555b5050505050600190811b0190555056fea2646970667358221220d4a96ee21dcac12f724232d0bfa0f493fd38f7965c034b6f421dd9db5080ad8564736f6c63430008110033a26469706673582212205d6c0c7bd494897baa1d6c3842695b532d1555e42f0eadf9cd6c12ed5a62d0ab64736f6c63430008110033",
  "immutableReferences": {},
  "source": "pragma solidity ^0.8.17;\n\nimport \"../persistence/AccesoHistoriaClinicaMapper.sol\";\nimport \"../persistence/MedicoMapper.sol\";\nimport \"../utils/Modifiers.sol\";\n\ncontract AccesoHistoriaClinica is Modifiers {\n\nAccesoHistoriaClinicaMapperInterface private accesoHistoriaClinicaMapper;\nMedicoMapperInterface private medicoMapper;\n\n    event Log(string data);\n    event Notification(string data, address indexed notificado);\n\n    constructor() {\n        creador = msg.sender;\n    }\n\n    // TODO: Actualizar en enterprise\n    // Lo hace el paciente\n    function responderSolicitudDeAcceso(address direccionMedico, bool acepta)\n        external\n        tieneAcceso(19)\n    {\n        PermisoDeAccesoVO[] memory permisos = accesoHistoriaClinicaMapper\n            .getPermisos(msg.sender, direccionMedico);\n        PermisoDeAccesoVO permiso;\n        int256 fechaActual = int256(block.timestamp);\n        for (uint256 i = permisos.length; i > 0; i--) {\n            permiso = permisos[i - 1];\n            if (!permiso.getFueRespondido()) {\n                emit Log(\"La solicitud fue respondida\");\n                if (acepta) {\n                    permiso.setFueRespondido(true);\n                    permiso.setFechaSolicitud(fechaActual);\n                    // TODO Descomentar\n                    // permiso.setFechaExpiracion(fechaActual + 3 hours);\n                    permiso.setFechaExpiracion(fechaActual + 30 minutes);\n                    return;\n                } else {\n                    permiso.setFueRespondido(true);\n                    permiso.setFechaSolicitud(fechaActual);\n                    permiso.setFechaExpiracion(0);\n                    return;\n                }\n            }\n        }\n        revert(\"No existe una solicitud de permiso en proceso\");\n    }\n\n    // TODO: Actualizar en enterprise architech\n    // Lo hace el mdico\n    function solicitarAccesoHistoriaClinica(address direccionPaciente)\n        external\n        tieneAcceso(20)\n        returns (uint256)\n    {\n        bool esMedicoActivo = esMedicoActivo(msg.sender);\n        if(!esMedicoActivo) {\n            revert(\"Medico no valido para solicitar accesos (validelo con el sistema externo)\");\n        }\n        PermisoDeAccesoVO permiso = new PermisoDeAccesoVO();\n        permiso.setFueRespondido(false); // TODO: agregar aqui fecha de daolicitud en permiso\n        emit Notification(\"Se solicito un acceso\", direccionPaciente);\n        return\n            accesoHistoriaClinicaMapper.setPermiso(\n                direccionPaciente,\n                msg.sender,\n                permiso\n            );\n    }\n\n    // TODO: agregar a enterprise architect\n    function esMedicoActivo(address direccionMedico) public returns (bool) {\n        MedicoVO informacionMedico = medicoMapper.consultar(direccionMedico);\n\n        if(informacionMedico.getEstado().getId() == 1) {            \n            // TODO: 1 es cuando un usuario esta activo\n            return true;\n        }\n        return false;\n    }\n\n    // TODO: hacer funcin que traiga permisos por aprobar\n\n    // TODO: Actualizar en enterprise architect\n    function esSolicitudVigente(\n        address direccionPaciente,\n        address direccionMedico\n    ) external returns (bool) {\n        return\n            accesoHistoriaClinicaMapper.esPermisoVigente(\n                direccionPaciente,\n                direccionMedico\n            );\n    }\n\n    function getPermisosDeAccesoActivosPorHistoriaClinica(\n        address direccionPaciente\n    ) public tieneAcceso(22) returns(PermisoDeAccesoVO[] memory) {\n        return accesoHistoriaClinicaMapper.getPermisosDeAccesoActivosPorHistoriaClinica(direccionPaciente);\n    }\n\n    function getPermisosDeAccesoPorHistoriaClinica(\n        address direccionPaciente\n    ) public tieneAcceso(23) returns(PermisoDeAccesoVO[] memory) {\n        return accesoHistoriaClinicaMapper.getPermisosDeAccesoPorHistoriaClinica(direccionPaciente);\n    }\n\n    function getPermisosDeAccesoActivosPorMedico(\n        address direccionMedico\n    ) public tieneAcceso(24) returns(PermisoDeAccesoVO[] memory) {        \n        return accesoHistoriaClinicaMapper.getPermisosDeAccesoActivosPorMedico(direccionMedico);\n    }\n\n    function getPermisosDeAccesoPorMedico(\n        address direccionMedico\n    ) public tieneAcceso(25) returns(PermisoDeAccesoVO[] memory) {\n        return accesoHistoriaClinicaMapper.getPermisosDeAccesoPorMedico(direccionMedico);\n    }\n\n    function setAccesoHistoriaClinicaMapper(\n        AccesoHistoriaClinicaMapper _accesoHistoriaClinicaMapper\n    ) public esPropietario {\n        accesoHistoriaClinicaMapper = _accesoHistoriaClinicaMapper;\n    }\n\n    function setMedicoMapper(MedicoMapperInterface _medicoMapper)\n        public esPropietario\n    {\n        medicoMapper = _medicoMapper;\n    }\n\n    function selfDestruct() public esPropietario {\n        selfdestruct(payable(creador));\n    }\n\n}\n",
  "sourcePath": "/back/contracts/logica/AccesoHistoriaClinica.sol",
  "compiler": {
    "name": "solc",
    "version": "0.8.17+commit.8df45f5f.Emscripten.clang"
  },
  "schemaVersion": "3.4.13",
  "updatedAt": "2023-05-03T22:20:12.611Z",
  "networkType": "ethereum",
  "devdoc": {
    "kind": "dev",
    "methods": {},
    "version": 1
  },
  "userdoc": {
    "kind": "user",
    "methods": {},
    "version": 1
  }
}