{
  "contractName": "Acceso",
  "abi": [
    {
      "inputs": [],
      "stateMutability": "nonpayable",
      "type": "constructor"
    },
    {
      "inputs": [],
      "name": "creador",
      "outputs": [
        {
          "internalType": "address",
          "name": "",
          "type": "address"
        }
      ],
      "stateMutability": "view",
      "type": "function",
      "constant": true
    },
    {
      "inputs": [],
      "name": "login",
      "outputs": [
        {
          "components": [
            {
              "internalType": "address",
              "name": "direccion",
              "type": "address"
            },
            {
              "components": [
                {
                  "internalType": "uint256",
                  "name": "id",
                  "type": "uint256"
                },
                {
                  "internalType": "string",
                  "name": "nombre",
                  "type": "string"
                },
                {
                  "internalType": "string",
                  "name": "descripcion",
                  "type": "string"
                }
              ],
              "internalType": "struct RolVO.RolVoStruct",
              "name": "rol",
              "type": "tuple"
            },
            {
              "internalType": "bool",
              "name": "estaActivo",
              "type": "bool"
            }
          ],
          "internalType": "struct UsuarioVO.UsuarioVoStruct",
          "name": "",
          "type": "tuple"
        }
      ],
      "stateMutability": "nonpayable",
      "type": "function"
    },
    {
      "inputs": [
        {
          "internalType": "address",
          "name": "_direccion",
          "type": "address"
        }
      ],
      "name": "buscarUsuarioActivo",
      "outputs": [
        {
          "internalType": "contract UsuarioVO",
          "name": "",
          "type": "address"
        }
      ],
      "stateMutability": "nonpayable",
      "type": "function"
    },
    {
      "inputs": [
        {
          "internalType": "address",
          "name": "_direccion",
          "type": "address"
        },
        {
          "internalType": "uint256",
          "name": "permisoId",
          "type": "uint256"
        }
      ],
      "name": "validarPermisoDeRol",
      "outputs": [
        {
          "internalType": "bool",
          "name": "",
          "type": "bool"
        }
      ],
      "stateMutability": "nonpayable",
      "type": "function"
    },
    {
      "inputs": [
        {
          "internalType": "contract UsuarioMapperInterface",
          "name": "_usuarioMapperAddress",
          "type": "address"
        }
      ],
      "name": "setUsuarioMapper",
      "outputs": [],
      "stateMutability": "nonpayable",
      "type": "function"
    },
    {
      "inputs": [],
      "name": "selfDestruct",
      "outputs": [],
      "stateMutability": "nonpayable",
      "type": "function"
    }
  ],
  "bytecode": "0x608060405234801561001057600080fd5b50600080546001600160a01b03191633179055610b39806100326000396000f3fe608060405234801561001057600080fd5b50600436106100725760003560e01c80639cb8a26a116100505780639cb8a26a146100df578063b34e97e8146100e7578063e2b9b006146100fc57600080fd5b8063596e15e6146100775780636d4cc9d21461008c57806392ebdcd2146100b4575b600080fd5b61008a6100853660046106ab565b61010f565b005b61009f61009a3660046106cf565b6101d8565b60405190151581526020015b60405180910390f35b6000546100c7906001600160a01b031681565b6040516001600160a01b0390911681526020016100ab565b61008a61040e565b6100ef6104a6565b6040516100ab919061074b565b6100c761010a3660046106ab565b610523565b6000546001600160a01b0316331461019e5760405162461bcd60e51b815260206004820152604160248201527f457374612066756e63696f6e20736f6c6f2070756564652073657220656a656360448201527f757461646120706f7220656c2063726561646f722064656c20636f6e747261746064820152606f60f81b608482015260a4015b60405180910390fd5b600180547fffffffffffffffffffffffff0000000000000000000000000000000000000000166001600160a01b0392909216919091179055565b600154604051637da8f6a560e01b81526001600160a01b0384811660048301526000921690637da8f6a5906024016020604051808303816000875af1925050508015610241575060408051601f3d908101601f1916820190925261023e918101906107c5565b60015b6102a65761024d6107e2565b806308c379a00361029a5750610261610880565b8061026c575061029c565b8260040361027e576001915050610408565b82600803610290576001915050610408565b6000915050610408565b505b3d6000803e3d6000fd5b806001600160a01b031663af9958466040518163ffffffff1660e01b8152600401602060405180830381865afa1580156102e4573d6000803e3d6000fd5b505050506040513d601f19601f82011682018060405250810190610308919061091f565b610316576000915050610408565b6000816001600160a01b031663c3e00aff6040518163ffffffff1660e01b8152600401602060405180830381865afa158015610356573d6000803e3d6000fd5b505050506040513d601f19601f8201168201806040525081019061037a91906107c5565b6040517fade2a612000000000000000000000000000000000000000000000000000000008152600481018690529091506001600160a01b0382169063ade2a61290602401606060405180830381865afa1580156103db573d6000803e3d6000fd5b505050506040513d601f19601f820116820180604052508101906103ff919061093a565b60400151925050505b92915050565b6000546001600160a01b031633146104985760405162461bcd60e51b815260206004820152604160248201527f457374612066756e63696f6e20736f6c6f2070756564652073657220656a656360448201527f757461646120706f7220656c2063726561646f722064656c20636f6e747261746064820152606f60f81b608482015260a401610195565b6000546001600160a01b0316ff5b6104ae610647565b336104b881610523565b6001600160a01b03166364ff6bbe6040518163ffffffff1660e01b8152600401600060405180830381865afa1580156104f5573d6000803e3d6000fd5b505050506040513d6000823e601f3d908101601f1916820160405261051d9190810190610a11565b91505090565b600154604051637da8f6a560e01b81526001600160a01b0383811660048301526000928392911690637da8f6a5906024016020604051808303816000875af1158015610573573d6000803e3d6000fd5b505050506040513d601f19601f8201168201806040525081019061059791906107c5565b9050806001600160a01b031663af9958466040518163ffffffff1660e01b8152600401602060405180830381865afa1580156105d7573d6000803e3d6000fd5b505050506040513d601f19601f820116820180604052508101906105fb919061091f565b6104085760405162461bcd60e51b815260206004820152601060248201527f5573756172696f20696e61637469766f000000000000000000000000000000006044820152606401610195565b604051806060016040528060006001600160a01b0316815260200161068660405180606001604052806000815260200160608152602001606081525090565b8152600060209091015290565b6001600160a01b03811681146106a857600080fd5b50565b6000602082840312156106bd57600080fd5b81356106c881610693565b9392505050565b600080604083850312156106e257600080fd5b82356106ed81610693565b946020939093013593505050565b60005b838110156107165781810151838201526020016106fe565b50506000910152565b600081518084526107378160208601602086016106fb565b601f01601f19169290920160200192915050565b602081526001600160a01b0382511660208201526000602083015160606040840152805160808401526020810151606060a085015261078d60e085018261071f565b905060408201519150607f198482030160c08501526107ac818361071f565b9150506040840151151560608401528091505092915050565b6000602082840312156107d757600080fd5b81516106c881610693565b600060033d11156107fb5760046000803e5060005160e01c5b90565b7f4e487b7100000000000000000000000000000000000000000000000000000000600052604160045260246000fd5b6060810181811067ffffffffffffffff8211171561084d5761084d6107fe565b60405250565b601f8201601f1916810167ffffffffffffffff81118282101715610879576108796107fe565b6040525050565b600060443d101561088e5790565b6040516003193d81016004833e81513d67ffffffffffffffff81602484011181841117156108be57505050505090565b82850191508151818111156108d65750505050505090565b843d87010160208285010111156108f05750505050505090565b6108ff60208286010187610853565b509095945050505050565b8051801515811461091a57600080fd5b919050565b60006020828403121561093157600080fd5b6106c88261090a565b60006060828403121561094c57600080fd5b6040516060810181811067ffffffffffffffff8211171561096f5761096f6107fe565b60405282518152602083015161098481610693565b60208201526109956040840161090a565b60408201529392505050565b600082601f8301126109b257600080fd5b815167ffffffffffffffff8111156109cc576109cc6107fe565b6040516109e3601f8301601f191660200182610853565b8181528460208386010111156109f857600080fd5b610a098260208301602087016106fb565b949350505050565b600060208284031215610a2357600080fd5b815167ffffffffffffffff80821115610a3b57600080fd5b9083019060608286031215610a4f57600080fd5b60408051610a5c8161082d565b8351610a6781610693565b8152602084015183811115610a7b57600080fd5b840160608189031215610a8d57600080fd5b8251610a988161082d565b81518152602082015185811115610aae57600080fd5b610aba8a8285016109a1565b6020830152508382015185811115610ad157600080fd5b610add8a8285016109a1565b8286015250602083015250610af384830161090a565b918101919091529594505050505056fea2646970667358221220e1d7acbb819cbf75f1b90cf1a455386597bf536135e5bef7a9b8755f78145ac264736f6c63430008110033",
  "immutableReferences": {},
  "source": "// SPDX-License-Identifier: MIT\npragma solidity ^0.8.17;\n\nimport \"../persistence/RolMapperInterface.sol\";\nimport \"../persistence/UsuarioMapperInterface.sol\";\nimport \"../persistence/RolMapper.sol\";\nimport \"../persistence/UsuarioMapper.sol\";\n\ncontract Acceso {\n    address public creador;\n\n    UsuarioMapperInterface private usuarioMapper;\n\n    constructor() {\n        creador = msg.sender;\n    }\n\n    function login() public returns (UsuarioVO.UsuarioVoStruct memory) {\n        address direccion = msg.sender;\n        return buscarUsuarioActivo(direccion).getUsuarioVOValue();\n    }\n\n    // TODO Actualizar nombre y atributos de clase (eliminar registrar de deagrama de clases en la clase acceso)\n    function buscarUsuarioActivo(address _direccion)\n        public\n        returns (UsuarioVO)\n    {\n        UsuarioVO usuario = usuarioMapper.consultar(_direccion);\n        if (!usuario.getEstaActivo()) {\n            revert(\"Usuario inactivo\");\n        }\n        return usuario;\n    }\n\n    // TODO: Quiz cambiar el nombre por otro que describa mejor que valida que un usuario tenga un permiso especifico\n    function validarPermisoDeRol(address _direccion, uint256 permisoId)\n        public\n        returns (bool)\n    {\n        try usuarioMapper.consultar(_direccion) returns (UsuarioVO usuario) {\n            if (!usuario.getEstaActivo()) {\n                return false;\n            }\n            RolVO rol = usuario.getRol();\n            return rol.getPermiso(permisoId).accesoPermitido;\n        } catch Error(string memory e) {\n            /** Permisos especiales para usuarios nuevos */\n            if (permisoId == 4) {return true;}\n            if (permisoId == 8) {return true;}\n            // TODO: Pasar estos valores a un arreglo de permisos excepcionales que sea modificable\n            return false;\n        }\n    }\n\n    function setUsuarioMapper(UsuarioMapperInterface _usuarioMapperAddress)\n        public\n        esPropietario\n    {\n        usuarioMapper = _usuarioMapperAddress;\n    }\n\n    modifier esPropietario() {\n        require(\n            msg.sender == creador,\n            \"Esta funcion solo puede ser ejecutada por el creador del contrato\"\n        );\n        _; // ac se ejecuta la funcin\n    }\n\n    function selfDestruct() public esPropietario {\n        selfdestruct(payable(creador));\n    }\n}\n",
  "sourcePath": "/back/contracts/logica/Acceso.sol",
  "compiler": {
    "name": "solc",
    "version": "0.8.17+commit.8df45f5f.Emscripten.clang"
  },
  "schemaVersion": "3.4.11",
  "updatedAt": "2023-05-03T04:15:01.538Z",
  "networkType": "ethereum",
  "devdoc": {
    "kind": "dev",
    "methods": {},
    "version": 1
  },
  "userdoc": {
    "kind": "user",
    "methods": {},
    "version": 1
  }
}