{
  "contractName": "AlergiaVO",
  "abi": [
    {
      "inputs": [],
      "stateMutability": "nonpayable",
      "type": "constructor"
    },
    {
      "inputs": [],
      "name": "creador",
      "outputs": [
        {
          "internalType": "address",
          "name": "",
          "type": "address"
        }
      ],
      "stateMutability": "view",
      "type": "function"
    },
    {
      "inputs": [],
      "name": "getCodPrestadorServicioDeSalud",
      "outputs": [
        {
          "internalType": "address",
          "name": "",
          "type": "address"
        }
      ],
      "stateMutability": "view",
      "type": "function"
    },
    {
      "inputs": [],
      "name": "getFechaRegistro",
      "outputs": [
        {
          "internalType": "int256",
          "name": "",
          "type": "int256"
        }
      ],
      "stateMutability": "view",
      "type": "function"
    },
    {
      "inputs": [],
      "name": "getId",
      "outputs": [
        {
          "internalType": "uint256",
          "name": "",
          "type": "uint256"
        }
      ],
      "stateMutability": "view",
      "type": "function"
    },
    {
      "inputs": [],
      "name": "getRegistroMedico",
      "outputs": [
        {
          "components": [
            {
              "internalType": "uint256",
              "name": "id",
              "type": "uint256"
            },
            {
              "internalType": "address",
              "name": "codPrestadorServicioDeSalud",
              "type": "address"
            },
            {
              "internalType": "int256",
              "name": "fechaRegistro",
              "type": "int256"
            },
            {
              "internalType": "enum TipoRegistroMedico",
              "name": "tipoRegistroMedico",
              "type": "uint8"
            }
          ],
          "internalType": "struct RegistroMedico.RegistroMedicoStruct",
          "name": "",
          "type": "tuple"
        }
      ],
      "stateMutability": "view",
      "type": "function"
    },
    {
      "inputs": [],
      "name": "getTipoRegistroMedico",
      "outputs": [
        {
          "internalType": "enum TipoRegistroMedico",
          "name": "",
          "type": "uint8"
        }
      ],
      "stateMutability": "view",
      "type": "function"
    },
    {
      "inputs": [],
      "name": "selfDestruct",
      "outputs": [],
      "stateMutability": "nonpayable",
      "type": "function"
    },
    {
      "inputs": [
        {
          "internalType": "address",
          "name": "_codPrestadorServicioDeSalud",
          "type": "address"
        }
      ],
      "name": "setCodPrestadorServicioDeSalud",
      "outputs": [],
      "stateMutability": "nonpayable",
      "type": "function"
    },
    {
      "inputs": [
        {
          "internalType": "int256",
          "name": "_fechaRegistro",
          "type": "int256"
        }
      ],
      "name": "setFechaRegistro",
      "outputs": [],
      "stateMutability": "nonpayable",
      "type": "function"
    },
    {
      "inputs": [
        {
          "internalType": "uint256",
          "name": "_id",
          "type": "uint256"
        }
      ],
      "name": "setId",
      "outputs": [],
      "stateMutability": "nonpayable",
      "type": "function"
    },
    {
      "inputs": [
        {
          "components": [
            {
              "internalType": "uint256",
              "name": "id",
              "type": "uint256"
            },
            {
              "internalType": "address",
              "name": "codPrestadorServicioDeSalud",
              "type": "address"
            },
            {
              "internalType": "int256",
              "name": "fechaRegistro",
              "type": "int256"
            },
            {
              "internalType": "enum TipoRegistroMedico",
              "name": "tipoRegistroMedico",
              "type": "uint8"
            }
          ],
          "internalType": "struct RegistroMedico.RegistroMedicoStruct",
          "name": "registro",
          "type": "tuple"
        }
      ],
      "name": "setRegistroMedico",
      "outputs": [],
      "stateMutability": "nonpayable",
      "type": "function"
    },
    {
      "inputs": [
        {
          "internalType": "enum TipoRegistroMedico",
          "name": "_tipoRegistroMedico",
          "type": "uint8"
        }
      ],
      "name": "setTipoRegistroMedico",
      "outputs": [],
      "stateMutability": "nonpayable",
      "type": "function"
    },
    {
      "inputs": [],
      "name": "getDescripcionSustancia",
      "outputs": [
        {
          "internalType": "string",
          "name": "",
          "type": "string"
        }
      ],
      "stateMutability": "view",
      "type": "function"
    },
    {
      "inputs": [],
      "name": "getAlergiaStruct",
      "outputs": [
        {
          "components": [
            {
              "internalType": "string",
              "name": "descripcionSustancia",
              "type": "string"
            }
          ],
          "internalType": "struct AlergiaVO.AlergiaStruct",
          "name": "",
          "type": "tuple"
        }
      ],
      "stateMutability": "view",
      "type": "function"
    },
    {
      "inputs": [
        {
          "components": [
            {
              "internalType": "string",
              "name": "descripcionSustancia",
              "type": "string"
            }
          ],
          "internalType": "struct AlergiaVO.AlergiaStruct",
          "name": "_alergiaStruct",
          "type": "tuple"
        }
      ],
      "name": "setAlergiaStruct",
      "outputs": [],
      "stateMutability": "nonpayable",
      "type": "function"
    },
    {
      "inputs": [
        {
          "internalType": "string",
          "name": "_descripcionSustancia",
          "type": "string"
        }
      ],
      "name": "setDescripcionSustancia",
      "outputs": [],
      "stateMutability": "nonpayable",
      "type": "function"
    }
  ],
  "bytecode": "0x608060405234801561001057600080fd5b506004805460ff1916905560008054336001600160a01b0319909116179055610a868061003e6000396000f3fe608060405234801561001057600080fd5b50600436106101005760003560e01c8063803a56ec116100975780639cb8a26a116100665780639cb8a26a1461022e578063ca3c5a1314610236578063d0e0ba9514610249578063ee9fbf331461025c57600080fd5b8063803a56ec146101a257806392ebdcd2146101df57806393be08ef1461020a5780639a9d9cae1461021b57600080fd5b80634724f284116100d35780634724f2841461015d5780635d1ca631146101725780635f3774d41461017a57806370db3f131461018d57600080fd5b8063045c7bbe146101055780630bcacc1b1461011a5780631b59abb91461013857806344517a9a1461014a575b600080fd5b6101186101133660046105b2565b600355565b005b61012261026f565b60405161012f9190610603565b60405180910390f35b6003545b60405190815260200161012f565b60045460ff1660405161012f9190610645565b6101656102e4565b60405161012f919061069f565b60015461013c565b6101186101883660046106fa565b610379565b6101956103e5565b60405161012f9190610769565b6101186101b036600461078c565b6002805473ffffffffffffffffffffffffffffffffffffffff19166001600160a01b0392909216919091179055565b6000546101f2906001600160a01b031681565b6040516001600160a01b03909116815260200161012f565b6002546001600160a01b03166101f2565b610118610229366004610834565b610498565b6101186104a8565b610118610244366004610869565b61057a565b6101186102573660046105b2565b600155565b61011861026a366004610884565b610599565b6102976040805160808101825260008082526020820181905291810182905290606082015290565b6040805160808101825260015481526002546001600160a01b0316602082015260035491810191909152600454606082019060ff1660128111156102dd576102dd6105cb565b9052919050565b6060600560000180546102f690610907565b80601f016020809104026020016040519081016040528092919081815260200182805461032290610907565b801561036f5780601f106103445761010080835404028352916020019161036f565b820191906000526020600020905b81548152906001019060200180831161035257829003601f168201915b5050505050905090565b8051600190815560208201516002805473ffffffffffffffffffffffffffffffffffffffff19166001600160a01b0390921691909117905560408201516003556060820151600480549192909160ff1916908360128111156103dd576103dd6105cb565b021790555050565b604080516020810190915260608152600560405180602001604052908160008201805461041190610907565b80601f016020809104026020016040519081016040528092919081815260200182805461043d90610907565b801561048a5780601f1061045f5761010080835404028352916020019161048a565b820191906000526020600020905b81548152906001019060200180831161046d57829003601f168201915b505050505081525050905090565b60056104a48282610990565b5050565b6000546001600160a01b0316331461056c576040517f08c379a000000000000000000000000000000000000000000000000000000000815260206004820152604160248201527f457374612066756e63696f6e20736f6c6f2070756564652073657220656a656360448201527f757461646120706f7220656c2063726561646f722064656c20636f6e7472617460648201527f6f00000000000000000000000000000000000000000000000000000000000000608482015260a40160405180910390fd5b6000546001600160a01b0316ff5b6004805482919060ff191660018360128111156103dd576103dd6105cb565b8051819060059081906105ac9082610990565b50505050565b6000602082840312156105c457600080fd5b5035919050565b634e487b7160e01b600052602160045260246000fd5b601381106105ff57634e487b7160e01b600052602160045260246000fd5b9052565b6000608082019050825182526001600160a01b03602084015116602083015260408301516040830152606083015161063e60608401826105e1565b5092915050565b6020810161065382846105e1565b92915050565b6000815180845260005b8181101561067f57602081850181015186830182015201610663565b506000602082860101526020601f19601f83011685010191505092915050565b6020815260006106b26020830184610659565b9392505050565b634e487b7160e01b600052604160045260246000fd5b80356001600160a01b03811681146106e657600080fd5b919050565b8035601381106106e657600080fd5b60006080828403121561070c57600080fd5b6040516080810181811067ffffffffffffffff8211171561072f5761072f6106b9565b60405282358152610742602084016106cf565b60208201526040830135604082015261075d606084016106eb565b60608201529392505050565b60208152600082516020808401526107846040840182610659565b949350505050565b60006020828403121561079e57600080fd5b6106b2826106cf565b600082601f8301126107b857600080fd5b813567ffffffffffffffff808211156107d3576107d36106b9565b604051601f8301601f19908116603f011681019082821181831017156107fb576107fb6106b9565b8160405283815286602085880101111561081457600080fd5b836020870160208301376000602085830101528094505050505092915050565b60006020828403121561084657600080fd5b813567ffffffffffffffff81111561085d57600080fd5b610784848285016107a7565b60006020828403121561087b57600080fd5b6106b2826106eb565b60006020828403121561089657600080fd5b813567ffffffffffffffff808211156108ae57600080fd5b90830190602082860312156108c257600080fd5b6040516020810181811083821117156108dd576108dd6106b9565b6040528235828111156108ef57600080fd5b6108fb878286016107a7565b82525095945050505050565b600181811c9082168061091b57607f821691505b60208210810361093b57634e487b7160e01b600052602260045260246000fd5b50919050565b601f82111561098b57600081815260208120601f850160051c810160208610156109685750805b601f850160051c820191505b8181101561098757828155600101610974565b5050505b505050565b815167ffffffffffffffff8111156109aa576109aa6106b9565b6109be816109b88454610907565b84610941565b602080601f8311600181146109f357600084156109db5750858301515b600019600386901b1c1916600185901b178555610987565b600085815260208120601f198616915b82811015610a2257888601518255948401946001909101908401610a03565b5085821015610a405787850151600019600388901b60f8161c191681555b5050505050600190811b0190555056fea264697066735822122031796765b42a8caa0bec50e0d912392c814286bb5b2b365b68ee7bd9df769bbc64736f6c63430008110033",
  "immutableReferences": {},
  "source": "// SPDX-License-Identifier: MIT\npragma solidity ^0.8.17;\n\nimport \"./RegistroMedico.sol\";\n\n//import \"./structsGenerales/DatosPersonalesStruct.sol\";\n\ncontract AlergiaVO is RegistroMedico (TipoRegistroMedico.ALERGIAVO) {\n    struct AlergiaStruct {\n        string descripcionSustancia;\n    }\n\n    AlergiaStruct private alergiaStruct;\n\n    constructor() {\n        creador = msg.sender;\n    }\n\n    function getDescripcionSustancia() public view returns (string memory) {\n        return alergiaStruct.descripcionSustancia;\n    }\n\n    function getAlergiaStruct() public view returns (AlergiaStruct memory) {\n        return alergiaStruct;\n    }\n\n    function setAlergiaStruct(AlergiaStruct memory _alergiaStruct) public {\n        alergiaStruct = _alergiaStruct;\n    }\n\n    function setDescripcionSustancia(string memory _descripcionSustancia) public{\n        alergiaStruct.descripcionSustancia = _descripcionSustancia;\n    }\n    \n}\n",
  "sourcePath": "/back/contracts/models/historiaClinica/AlergiaVO.sol",
  "compiler": {
    "name": "solc",
    "version": "0.8.17+commit.8df45f5f.Emscripten.clang"
  },
  "schemaVersion": "3.4.11",
  "updatedAt": "2023-05-03T04:13:42.758Z",
  "devdoc": {
    "kind": "dev",
    "methods": {},
    "version": 1
  },
  "userdoc": {
    "kind": "user",
    "methods": {},
    "version": 1
  }
}