{
  "contractName": "AlergiaVO",
  "abi": [
    {
      "inputs": [],
      "stateMutability": "nonpayable",
      "type": "constructor"
    },
    {
      "inputs": [],
      "name": "creador",
      "outputs": [
        {
          "internalType": "address",
          "name": "",
          "type": "address"
        }
      ],
      "stateMutability": "view",
      "type": "function"
    },
    {
      "inputs": [],
      "name": "getCodPrestadorServicioDeSalud",
      "outputs": [
        {
          "internalType": "address",
          "name": "",
          "type": "address"
        }
      ],
      "stateMutability": "view",
      "type": "function"
    },
    {
      "inputs": [],
      "name": "getFechaRegistro",
      "outputs": [
        {
          "internalType": "uint256",
          "name": "",
          "type": "uint256"
        }
      ],
      "stateMutability": "view",
      "type": "function"
    },
    {
      "inputs": [],
      "name": "getId",
      "outputs": [
        {
          "internalType": "uint256",
          "name": "",
          "type": "uint256"
        }
      ],
      "stateMutability": "view",
      "type": "function"
    },
    {
      "inputs": [],
      "name": "getRegistroMedico",
      "outputs": [
        {
          "components": [
            {
              "internalType": "uint256",
              "name": "id",
              "type": "uint256"
            },
            {
              "internalType": "address",
              "name": "codPrestadorServicioDeSalud",
              "type": "address"
            },
            {
              "internalType": "uint256",
              "name": "fechaRegistro",
              "type": "uint256"
            },
            {
              "internalType": "enum TipoRegistroMedico",
              "name": "tipoRegistroMedico",
              "type": "uint8"
            }
          ],
          "internalType": "struct RegistroMedico.RegistroMedicoStruct",
          "name": "",
          "type": "tuple"
        }
      ],
      "stateMutability": "view",
      "type": "function"
    },
    {
      "inputs": [],
      "name": "getTipoRegistroMedico",
      "outputs": [
        {
          "internalType": "enum TipoRegistroMedico",
          "name": "",
          "type": "uint8"
        }
      ],
      "stateMutability": "view",
      "type": "function"
    },
    {
      "inputs": [],
      "name": "selfDestruct",
      "outputs": [],
      "stateMutability": "nonpayable",
      "type": "function"
    },
    {
      "inputs": [
        {
          "internalType": "address",
          "name": "_codPrestadorServicioDeSalud",
          "type": "address"
        }
      ],
      "name": "setCodPrestadorServicioDeSalud",
      "outputs": [],
      "stateMutability": "nonpayable",
      "type": "function"
    },
    {
      "inputs": [
        {
          "internalType": "uint256",
          "name": "_fechaRegistro",
          "type": "uint256"
        }
      ],
      "name": "setFechaRegistro",
      "outputs": [],
      "stateMutability": "nonpayable",
      "type": "function"
    },
    {
      "inputs": [
        {
          "internalType": "uint256",
          "name": "_id",
          "type": "uint256"
        }
      ],
      "name": "setId",
      "outputs": [],
      "stateMutability": "nonpayable",
      "type": "function"
    },
    {
      "inputs": [
        {
          "components": [
            {
              "internalType": "uint256",
              "name": "id",
              "type": "uint256"
            },
            {
              "internalType": "address",
              "name": "codPrestadorServicioDeSalud",
              "type": "address"
            },
            {
              "internalType": "uint256",
              "name": "fechaRegistro",
              "type": "uint256"
            },
            {
              "internalType": "enum TipoRegistroMedico",
              "name": "tipoRegistroMedico",
              "type": "uint8"
            }
          ],
          "internalType": "struct RegistroMedico.RegistroMedicoStruct",
          "name": "registro",
          "type": "tuple"
        }
      ],
      "name": "setRegistroMedico",
      "outputs": [],
      "stateMutability": "nonpayable",
      "type": "function"
    },
    {
      "inputs": [
        {
          "internalType": "enum TipoRegistroMedico",
          "name": "_tipoRegistroMedico",
          "type": "uint8"
        }
      ],
      "name": "setTipoRegistroMedico",
      "outputs": [],
      "stateMutability": "nonpayable",
      "type": "function"
    },
    {
      "inputs": [],
      "name": "getDescripcionSustancia",
      "outputs": [
        {
          "internalType": "string",
          "name": "",
          "type": "string"
        }
      ],
      "stateMutability": "view",
      "type": "function"
    },
    {
      "inputs": [],
      "name": "getAlergiaStruct",
      "outputs": [
        {
          "components": [
            {
              "internalType": "string",
              "name": "descripcionSustancia",
              "type": "string"
            }
          ],
          "internalType": "struct AlergiaVO.AlergiaStruct",
          "name": "",
          "type": "tuple"
        }
      ],
      "stateMutability": "view",
      "type": "function"
    },
    {
      "inputs": [
        {
          "components": [
            {
              "internalType": "string",
              "name": "descripcionSustancia",
              "type": "string"
            }
          ],
          "internalType": "struct AlergiaVO.AlergiaStruct",
          "name": "_alergiaStruct",
          "type": "tuple"
        }
      ],
      "name": "setAlergiaStruct",
      "outputs": [],
      "stateMutability": "nonpayable",
      "type": "function"
    },
    {
      "inputs": [
        {
          "internalType": "string",
          "name": "_descripcionSustancia",
          "type": "string"
        }
      ],
      "name": "setDescripcionSustancia",
      "outputs": [],
      "stateMutability": "nonpayable",
      "type": "function"
    }
  ],
  "bytecode": "0x608060405234801561001057600080fd5b506004805460ff1916905560008054336001600160a01b0319909116179055610a868061003e6000396000f3fe608060405234801561001057600080fd5b50600436106101005760003560e01c806392ebdcd211610097578063a204b7c911610066578063a204b7c914610223578063ca3c5a1314610236578063d0e0ba9514610249578063ee9fbf331461025c57600080fd5b806392ebdcd2146101cc57806393be08ef146101f75780639a9d9cae146102085780639cb8a26a1461021b57600080fd5b80634724f284116100d35780634724f2841461015d5780635d1ca6311461017257806370db3f131461017a578063803a56ec1461018f57600080fd5b80630bcacc1b146101055780631b59abb91461012357806327f074cf1461013557806344517a9a1461014a575b600080fd5b61010d61026f565b60405161011a91906105ea565b60405180910390f35b6003545b60405190815260200161011a565b61014861014336600461062c565b600355565b005b60045460ff1660405161011a9190610645565b6101656102e4565b60405161011a919061069f565b600154610127565b610182610379565b60405161011a91906106b9565b61014861019d3660046106f8565b6002805473ffffffffffffffffffffffffffffffffffffffff19166001600160a01b0392909216919091179055565b6000546101df906001600160a01b031681565b6040516001600160a01b03909116815260200161011a565b6002546001600160a01b03166101df565b6101486102163660046107b6565b61042c565b61014861043c565b6101486102313660046107fa565b61050e565b610148610244366004610869565b61057a565b61014861025736600461062c565b600155565b61014861026a366004610884565b610599565b6102976040805160808101825260008082526020820181905291810182905290606082015290565b6040805160808101825260015481526002546001600160a01b0316602082015260035491810191909152600454606082019060ff1660128111156102dd576102dd6105b2565b9052919050565b6060600560000180546102f690610907565b80601f016020809104026020016040519081016040528092919081815260200182805461032290610907565b801561036f5780601f106103445761010080835404028352916020019161036f565b820191906000526020600020905b81548152906001019060200180831161035257829003601f168201915b5050505050905090565b60408051602081019091526060815260056040518060200160405290816000820180546103a590610907565b80601f01602080910402602001604051908101604052809291908181526020018280546103d190610907565b801561041e5780601f106103f35761010080835404028352916020019161041e565b820191906000526020600020905b81548152906001019060200180831161040157829003601f168201915b505050505081525050905090565b60056104388282610990565b5050565b6000546001600160a01b03163314610500576040517f08c379a000000000000000000000000000000000000000000000000000000000815260206004820152604160248201527f457374612066756e63696f6e20736f6c6f2070756564652073657220656a656360448201527f757461646120706f7220656c2063726561646f722064656c20636f6e7472617460648201527f6f00000000000000000000000000000000000000000000000000000000000000608482015260a40160405180910390fd5b6000546001600160a01b0316ff5b8051600190815560208201516002805473ffffffffffffffffffffffffffffffffffffffff19166001600160a01b0390921691909117905560408201516003556060820151600480549192909160ff191690836012811115610572576105726105b2565b021790555050565b6004805482919060ff19166001836012811115610572576105726105b2565b8051819060059081906105ac9082610990565b50505050565b634e487b7160e01b600052602160045260246000fd5b601381106105e657634e487b7160e01b600052602160045260246000fd5b9052565b6000608082019050825182526001600160a01b03602084015116602083015260408301516040830152606083015161062560608401826105c8565b5092915050565b60006020828403121561063e57600080fd5b5035919050565b6020810161065382846105c8565b92915050565b6000815180845260005b8181101561067f57602081850181015186830182015201610663565b506000602082860101526020601f19601f83011685010191505092915050565b6020815260006106b26020830184610659565b9392505050565b60208152600082516020808401526106d46040840182610659565b949350505050565b80356001600160a01b03811681146106f357600080fd5b919050565b60006020828403121561070a57600080fd5b6106b2826106dc565b634e487b7160e01b600052604160045260246000fd5b600082601f83011261073a57600080fd5b813567ffffffffffffffff8082111561075557610755610713565b604051601f8301601f19908116603f0116810190828211818310171561077d5761077d610713565b8160405283815286602085880101111561079657600080fd5b836020870160208301376000602085830101528094505050505092915050565b6000602082840312156107c857600080fd5b813567ffffffffffffffff8111156107df57600080fd5b6106d484828501610729565b8035601381106106f357600080fd5b60006080828403121561080c57600080fd5b6040516080810181811067ffffffffffffffff8211171561082f5761082f610713565b60405282358152610842602084016106dc565b60208201526040830135604082015261085d606084016107eb565b60608201529392505050565b60006020828403121561087b57600080fd5b6106b2826107eb565b60006020828403121561089657600080fd5b813567ffffffffffffffff808211156108ae57600080fd5b90830190602082860312156108c257600080fd5b6040516020810181811083821117156108dd576108dd610713565b6040528235828111156108ef57600080fd5b6108fb87828601610729565b82525095945050505050565b600181811c9082168061091b57607f821691505b60208210810361093b57634e487b7160e01b600052602260045260246000fd5b50919050565b601f82111561098b57600081815260208120601f850160051c810160208610156109685750805b601f850160051c820191505b8181101561098757828155600101610974565b5050505b505050565b815167ffffffffffffffff8111156109aa576109aa610713565b6109be816109b88454610907565b84610941565b602080601f8311600181146109f357600084156109db5750858301515b600019600386901b1c1916600185901b178555610987565b600085815260208120601f198616915b82811015610a2257888601518255948401946001909101908401610a03565b5085821015610a405787850151600019600388901b60f8161c191681555b5050505050600190811b0190555056fea26469706673582212205ee0afee879c23fb37ecccef392840e79e0c2fa6086a1e06267bf342aa00699364736f6c63430008110033",
  "immutableReferences": {},
  "source": "// SPDX-License-Identifier: MIT\npragma solidity ^0.8.17;\n\nimport \"./RegistroMedico.sol\";\n\n//import \"./structsGenerales/DatosPersonalesStruct.sol\";\n\ncontract AlergiaVO is RegistroMedico (TipoRegistroMedico.ALERGIAVO) {\n    struct AlergiaStruct {\n        string descripcionSustancia;\n    }\n\n    AlergiaStruct private alergiaStruct;\n\n    constructor() {\n        creador = msg.sender;\n    }\n\n    function getDescripcionSustancia() public view returns (string memory) {\n        return alergiaStruct.descripcionSustancia;\n    }\n\n    function getAlergiaStruct() public view returns (AlergiaStruct memory) {\n        return alergiaStruct;\n    }\n\n    function setAlergiaStruct(AlergiaStruct memory _alergiaStruct) public {\n        alergiaStruct = _alergiaStruct;\n    }\n\n    function setDescripcionSustancia(string memory _descripcionSustancia) public{\n        alergiaStruct.descripcionSustancia = _descripcionSustancia;\n    }\n    \n}\n",
  "sourcePath": "/home/felipe/Documentos/Blockchain/codigo/HCE-full/back-hce/contracts/models/historiaClinica/AlergiaVO.sol",
  "compiler": {
    "name": "solc",
    "version": "0.8.17+commit.8df45f5f.Emscripten.clang"
  },
  "schemaVersion": "3.4.8",
  "updatedAt": "2023-04-05T22:10:23.006Z",
  "devdoc": {
    "kind": "dev",
    "methods": {},
    "version": 1
  },
  "userdoc": {
    "kind": "user",
    "methods": {},
    "version": 1
  }
}