{
  "contractName": "AntecedentePatologicoPersonalVO",
  "abi": [
    {
      "inputs": [],
      "name": "creador",
      "outputs": [
        {
          "internalType": "address",
          "name": "",
          "type": "address"
        }
      ],
      "stateMutability": "view",
      "type": "function"
    },
    {
      "inputs": [],
      "name": "getCodPrestadorServicioDeSalud",
      "outputs": [
        {
          "internalType": "address",
          "name": "",
          "type": "address"
        }
      ],
      "stateMutability": "view",
      "type": "function"
    },
    {
      "inputs": [],
      "name": "getFechaRegistro",
      "outputs": [
        {
          "internalType": "uint256",
          "name": "",
          "type": "uint256"
        }
      ],
      "stateMutability": "view",
      "type": "function"
    },
    {
      "inputs": [],
      "name": "getId",
      "outputs": [
        {
          "internalType": "uint256",
          "name": "",
          "type": "uint256"
        }
      ],
      "stateMutability": "view",
      "type": "function"
    },
    {
      "inputs": [],
      "name": "getRegistroMedico",
      "outputs": [
        {
          "components": [
            {
              "internalType": "uint256",
              "name": "id",
              "type": "uint256"
            },
            {
              "internalType": "address",
              "name": "codPrestadorServicioDeSalud",
              "type": "address"
            },
            {
              "internalType": "uint256",
              "name": "fechaRegistro",
              "type": "uint256"
            },
            {
              "internalType": "enum TipoRegistroMedico",
              "name": "tipoRegistroMedico",
              "type": "uint8"
            }
          ],
          "internalType": "struct RegistroMedico.RegistroMedicoStruct",
          "name": "",
          "type": "tuple"
        }
      ],
      "stateMutability": "view",
      "type": "function"
    },
    {
      "inputs": [],
      "name": "getTipoRegistroMedico",
      "outputs": [
        {
          "internalType": "enum TipoRegistroMedico",
          "name": "",
          "type": "uint8"
        }
      ],
      "stateMutability": "view",
      "type": "function"
    },
    {
      "inputs": [],
      "name": "selfDestruct",
      "outputs": [],
      "stateMutability": "nonpayable",
      "type": "function"
    },
    {
      "inputs": [
        {
          "internalType": "address",
          "name": "_codPrestadorServicioDeSalud",
          "type": "address"
        }
      ],
      "name": "setCodPrestadorServicioDeSalud",
      "outputs": [],
      "stateMutability": "nonpayable",
      "type": "function"
    },
    {
      "inputs": [
        {
          "internalType": "uint256",
          "name": "_fechaRegistro",
          "type": "uint256"
        }
      ],
      "name": "setFechaRegistro",
      "outputs": [],
      "stateMutability": "nonpayable",
      "type": "function"
    },
    {
      "inputs": [
        {
          "internalType": "uint256",
          "name": "_id",
          "type": "uint256"
        }
      ],
      "name": "setId",
      "outputs": [],
      "stateMutability": "nonpayable",
      "type": "function"
    },
    {
      "inputs": [
        {
          "components": [
            {
              "internalType": "uint256",
              "name": "id",
              "type": "uint256"
            },
            {
              "internalType": "address",
              "name": "codPrestadorServicioDeSalud",
              "type": "address"
            },
            {
              "internalType": "uint256",
              "name": "fechaRegistro",
              "type": "uint256"
            },
            {
              "internalType": "enum TipoRegistroMedico",
              "name": "tipoRegistroMedico",
              "type": "uint8"
            }
          ],
          "internalType": "struct RegistroMedico.RegistroMedicoStruct",
          "name": "registro",
          "type": "tuple"
        }
      ],
      "name": "setRegistroMedico",
      "outputs": [],
      "stateMutability": "nonpayable",
      "type": "function"
    },
    {
      "inputs": [
        {
          "internalType": "enum TipoRegistroMedico",
          "name": "_tipoRegistroMedico",
          "type": "uint8"
        }
      ],
      "name": "setTipoRegistroMedico",
      "outputs": [],
      "stateMutability": "nonpayable",
      "type": "function"
    },
    {
      "inputs": [],
      "name": "getEnfermedad",
      "outputs": [
        {
          "internalType": "string",
          "name": "",
          "type": "string"
        }
      ],
      "stateMutability": "view",
      "type": "function"
    },
    {
      "inputs": [],
      "name": "getFechaAproximada",
      "outputs": [
        {
          "internalType": "uint256",
          "name": "",
          "type": "uint256"
        }
      ],
      "stateMutability": "view",
      "type": "function"
    },
    {
      "inputs": [],
      "name": "getAntecedentePatologicoPersonalStruct",
      "outputs": [
        {
          "components": [
            {
              "internalType": "string",
              "name": "enfermedad",
              "type": "string"
            },
            {
              "internalType": "uint256",
              "name": "fechaAproximada",
              "type": "uint256"
            }
          ],
          "internalType": "struct AntecedentePatologicoPersonalVO.AntecedentePatologicoPersonalStruct",
          "name": "",
          "type": "tuple"
        }
      ],
      "stateMutability": "view",
      "type": "function"
    },
    {
      "inputs": [
        {
          "components": [
            {
              "internalType": "string",
              "name": "enfermedad",
              "type": "string"
            },
            {
              "internalType": "uint256",
              "name": "fechaAproximada",
              "type": "uint256"
            }
          ],
          "internalType": "struct AntecedentePatologicoPersonalVO.AntecedentePatologicoPersonalStruct",
          "name": "_antecedentePatologicoFamiliarStruct",
          "type": "tuple"
        }
      ],
      "name": "setAntecedentePatologicoPersonalStruct",
      "outputs": [],
      "stateMutability": "nonpayable",
      "type": "function"
    },
    {
      "inputs": [
        {
          "internalType": "string",
          "name": "_enfermedad",
          "type": "string"
        }
      ],
      "name": "setEnfermedad",
      "outputs": [],
      "stateMutability": "nonpayable",
      "type": "function"
    },
    {
      "inputs": [
        {
          "internalType": "uint256",
          "name": "_fechaAproximada",
          "type": "uint256"
        }
      ],
      "name": "setFechaAproximada",
      "outputs": [],
      "stateMutability": "nonpayable",
      "type": "function"
    }
  ],
  "bytecode": "0x608060405234801561001057600080fd5b506004805460ff19166003179055610b128061002d6000396000f3fe608060405234801561001057600080fd5b50600436106101365760003560e01c806392ebdcd2116100b2578063a204b7c911610081578063ca3c5a1311610066578063ca3c5a1314610287578063d0e0ba951461029a578063f9c0cba7146102ad57600080fd5b8063a204b7c91461025f578063c089097b1461027257600080fd5b806392ebdcd21461020657806393be08ef146102315780639cb8a26a146102425780639ddca4e91461024a57600080fd5b806344517a9a116101095780635d1ca631116100ee5780635d1ca631146101ae578063802ed085146101b6578063803a56ec146101c957600080fd5b806344517a9a146101935780634ec4b32d146101a657600080fd5b80630bcacc1b1461013b57806311ef5a1b146101595780631b59abb91461016e57806327f074cf14610180575b600080fd5b6101436102c0565b6040516101509190610652565b60405180910390f35b61016c610167366004610737565b610335565b005b6003545b604051908152602001610150565b61016c61018e366004610774565b600355565b60045460ff16604051610150919061078d565b600654610172565b600154610172565b61016c6101c43660046107a1565b610345565b61016c6101d736600461084d565b6002805473ffffffffffffffffffffffffffffffffffffffff19166001600160a01b0392909216919091179055565b600054610219906001600160a01b031681565b6040516001600160a01b039091168152602001610150565b6002546001600160a01b0316610219565b61016c610369565b61025261043b565b60405161015091906108b5565b61016c61026d3660046108d7565b6104d0565b61027a61053c565b6040516101509190610946565b61016c610295366004610978565b6105ff565b61016c6102a8366004610774565b600155565b61016c6102bb366004610774565b600655565b6102e86040805160808101825260008082526020820181905291810182905290606082015290565b6040805160808101825260015481526002546001600160a01b0316602082015260035491810191909152600454606082019060ff16601281111561032e5761032e61061a565b9052919050565b60056103418282610a1c565b5050565b8051819060059081906103589082610a1c565b506020820151816001015590505050565b6000546001600160a01b0316331461042d576040517f08c379a000000000000000000000000000000000000000000000000000000000815260206004820152604160248201527f457374612066756e63696f6e20736f6c6f2070756564652073657220656a656360448201527f757461646120706f7220656c2063726561646f722064656c20636f6e7472617460648201527f6f00000000000000000000000000000000000000000000000000000000000000608482015260a40160405180910390fd5b6000546001600160a01b0316ff5b60606005600001805461044d90610993565b80601f016020809104026020016040519081016040528092919081815260200182805461047990610993565b80156104c65780601f1061049b576101008083540402835291602001916104c6565b820191906000526020600020905b8154815290600101906020018083116104a957829003601f168201915b5050505050905090565b8051600190815560208201516002805473ffffffffffffffffffffffffffffffffffffffff19166001600160a01b0390921691909117905560408201516003556060820151600480549192909160ff1916908360128111156105345761053461061a565b021790555050565b604080518082019091526060815260006020820152600560405180604001604052908160008201805461056e90610993565b80601f016020809104026020016040519081016040528092919081815260200182805461059a90610993565b80156105e75780601f106105bc576101008083540402835291602001916105e7565b820191906000526020600020905b8154815290600101906020018083116105ca57829003601f168201915b50505050508152602001600182015481525050905090565b6004805482919060ff19166001836012811115610534576105345b634e487b7160e01b600052602160045260246000fd5b6013811061064e57634e487b7160e01b600052602160045260246000fd5b9052565b6000608082019050825182526001600160a01b03602084015116602083015260408301516040830152606083015161068d6060840182610630565b5092915050565b634e487b7160e01b600052604160045260246000fd5b600082601f8301126106bb57600080fd5b813567ffffffffffffffff808211156106d6576106d6610694565b604051601f8301601f19908116603f011681019082821181831017156106fe576106fe610694565b8160405283815286602085880101111561071757600080fd5b836020870160208301376000602085830101528094505050505092915050565b60006020828403121561074957600080fd5b813567ffffffffffffffff81111561076057600080fd5b61076c848285016106aa565b949350505050565b60006020828403121561078657600080fd5b5035919050565b6020810161079b8284610630565b92915050565b6000602082840312156107b357600080fd5b813567ffffffffffffffff808211156107cb57600080fd5b90830190604082860312156107df57600080fd5b6040516040810181811083821117156107fa576107fa610694565b60405282358281111561080c57600080fd5b610818878286016106aa565b8252506020830135602082015280935050505092915050565b80356001600160a01b038116811461084857600080fd5b919050565b60006020828403121561085f57600080fd5b61086882610831565b9392505050565b6000815180845260005b8181101561089557602081850181015186830182015201610879565b506000602082860101526020601f19601f83011685010191505092915050565b602081526000610868602083018461086f565b80356013811061084857600080fd5b6000608082840312156108e957600080fd5b6040516080810181811067ffffffffffffffff8211171561090c5761090c610694565b6040528235815261091f60208401610831565b60208201526040830135604082015261093a606084016108c8565b60608201529392505050565b602081526000825160406020840152610962606084018261086f565b9050602084015160408401528091505092915050565b60006020828403121561098a57600080fd5b610868826108c8565b600181811c908216806109a757607f821691505b6020821081036109c757634e487b7160e01b600052602260045260246000fd5b50919050565b601f821115610a1757600081815260208120601f850160051c810160208610156109f45750805b601f850160051c820191505b81811015610a1357828155600101610a00565b5050505b505050565b815167ffffffffffffffff811115610a3657610a36610694565b610a4a81610a448454610993565b846109cd565b602080601f831160018114610a7f5760008415610a675750858301515b600019600386901b1c1916600185901b178555610a13565b600085815260208120601f198616915b82811015610aae57888601518255948401946001909101908401610a8f565b5085821015610acc5787850151600019600388901b60f8161c191681555b5050505050600190811b0190555056fea2646970667358221220d9ab8aea62dc389838afd12b09a951605670925b81aae53a9fb19f0f2b5c031f64736f6c63430008110033",
  "immutableReferences": {},
  "source": "// SPDX-License-Identifier: MIT\npragma solidity ^0.8.17;\n\nimport \"./RegistroMedico.sol\";\n\n//import \"./structsGenerales/DatosPersonalesStruct.sol\";\n\ncontract AntecedentePatologicoPersonalVO is RegistroMedico(TipoRegistroMedico.ANTECEDENTEPATOLOGICOPERSONALVO) {\n    struct AntecedentePatologicoPersonalStruct {\n        string enfermedad; // Quiz deba existir una lista de enfermedades en una nueva tabla\n        uint256 fechaAproximada;\n    }\n\n    AntecedentePatologicoPersonalStruct\n        private antecedentePatologicoPersonalStruct;\n\n    function getEnfermedad() public view returns (string memory) {\n        return antecedentePatologicoPersonalStruct.enfermedad;\n    }\n\n    function getFechaAproximada() public view returns (uint256) {\n        return antecedentePatologicoPersonalStruct.fechaAproximada;\n    }\n\n    function getAntecedentePatologicoPersonalStruct()\n        public\n        view\n        returns (AntecedentePatologicoPersonalStruct memory)\n    {\n        return antecedentePatologicoPersonalStruct;\n    }\n\n    function setAntecedentePatologicoPersonalStruct(\n        AntecedentePatologicoPersonalStruct\n            memory _antecedentePatologicoFamiliarStruct\n    ) public {\n        antecedentePatologicoPersonalStruct = _antecedentePatologicoFamiliarStruct;\n    }\n\n    function setEnfermedad(string memory _enfermedad) public {\n        antecedentePatologicoPersonalStruct.enfermedad = _enfermedad;\n    }\n\n    function setFechaAproximada(uint256 _fechaAproximada) public {\n        antecedentePatologicoPersonalStruct.fechaAproximada = _fechaAproximada;\n    }\n}\n",
  "sourcePath": "/home/felipe/Documentos/Blockchain/codigo/HCE-full/back-hce/contracts/models/historiaClinica/AntecedentePatologicoPersonalVO.sol",
  "compiler": {
    "name": "solc",
    "version": "0.8.17+commit.8df45f5f.Emscripten.clang"
  },
  "schemaVersion": "3.4.8",
  "updatedAt": "2023-04-05T22:10:23.199Z",
  "devdoc": {
    "kind": "dev",
    "methods": {},
    "version": 1
  },
  "userdoc": {
    "kind": "user",
    "methods": {},
    "version": 1
  }
}