{
  "contractName": "AntecedenteLaboralVO",
  "abi": [
    {
      "inputs": [],
      "name": "creador",
      "outputs": [
        {
          "internalType": "address",
          "name": "",
          "type": "address"
        }
      ],
      "stateMutability": "view",
      "type": "function"
    },
    {
      "inputs": [],
      "name": "getCodPrestadorServicioDeSalud",
      "outputs": [
        {
          "internalType": "address",
          "name": "",
          "type": "address"
        }
      ],
      "stateMutability": "view",
      "type": "function"
    },
    {
      "inputs": [],
      "name": "getFechaRegistro",
      "outputs": [
        {
          "internalType": "int256",
          "name": "",
          "type": "int256"
        }
      ],
      "stateMutability": "view",
      "type": "function"
    },
    {
      "inputs": [],
      "name": "getId",
      "outputs": [
        {
          "internalType": "uint256",
          "name": "",
          "type": "uint256"
        }
      ],
      "stateMutability": "view",
      "type": "function"
    },
    {
      "inputs": [],
      "name": "getRegistroMedico",
      "outputs": [
        {
          "components": [
            {
              "internalType": "uint256",
              "name": "id",
              "type": "uint256"
            },
            {
              "internalType": "address",
              "name": "codPrestadorServicioDeSalud",
              "type": "address"
            },
            {
              "internalType": "int256",
              "name": "fechaRegistro",
              "type": "int256"
            },
            {
              "internalType": "enum TipoRegistroMedico",
              "name": "tipoRegistroMedico",
              "type": "uint8"
            }
          ],
          "internalType": "struct RegistroMedico.RegistroMedicoStruct",
          "name": "",
          "type": "tuple"
        }
      ],
      "stateMutability": "view",
      "type": "function"
    },
    {
      "inputs": [],
      "name": "getTipoRegistroMedico",
      "outputs": [
        {
          "internalType": "enum TipoRegistroMedico",
          "name": "",
          "type": "uint8"
        }
      ],
      "stateMutability": "view",
      "type": "function"
    },
    {
      "inputs": [],
      "name": "selfDestruct",
      "outputs": [],
      "stateMutability": "nonpayable",
      "type": "function"
    },
    {
      "inputs": [
        {
          "internalType": "address",
          "name": "_codPrestadorServicioDeSalud",
          "type": "address"
        }
      ],
      "name": "setCodPrestadorServicioDeSalud",
      "outputs": [],
      "stateMutability": "nonpayable",
      "type": "function"
    },
    {
      "inputs": [
        {
          "internalType": "int256",
          "name": "_fechaRegistro",
          "type": "int256"
        }
      ],
      "name": "setFechaRegistro",
      "outputs": [],
      "stateMutability": "nonpayable",
      "type": "function"
    },
    {
      "inputs": [
        {
          "internalType": "uint256",
          "name": "_id",
          "type": "uint256"
        }
      ],
      "name": "setId",
      "outputs": [],
      "stateMutability": "nonpayable",
      "type": "function"
    },
    {
      "inputs": [
        {
          "components": [
            {
              "internalType": "uint256",
              "name": "id",
              "type": "uint256"
            },
            {
              "internalType": "address",
              "name": "codPrestadorServicioDeSalud",
              "type": "address"
            },
            {
              "internalType": "int256",
              "name": "fechaRegistro",
              "type": "int256"
            },
            {
              "internalType": "enum TipoRegistroMedico",
              "name": "tipoRegistroMedico",
              "type": "uint8"
            }
          ],
          "internalType": "struct RegistroMedico.RegistroMedicoStruct",
          "name": "registro",
          "type": "tuple"
        }
      ],
      "name": "setRegistroMedico",
      "outputs": [],
      "stateMutability": "nonpayable",
      "type": "function"
    },
    {
      "inputs": [
        {
          "internalType": "enum TipoRegistroMedico",
          "name": "_tipoRegistroMedico",
          "type": "uint8"
        }
      ],
      "name": "setTipoRegistroMedico",
      "outputs": [],
      "stateMutability": "nonpayable",
      "type": "function"
    },
    {
      "inputs": [],
      "name": "getDescripcionLabor",
      "outputs": [
        {
          "internalType": "string",
          "name": "",
          "type": "string"
        }
      ],
      "stateMutability": "view",
      "type": "function"
    },
    {
      "inputs": [],
      "name": "getActividadRealizada",
      "outputs": [
        {
          "internalType": "string",
          "name": "",
          "type": "string"
        }
      ],
      "stateMutability": "view",
      "type": "function"
    },
    {
      "inputs": [],
      "name": "getFechaInicio",
      "outputs": [
        {
          "internalType": "int256",
          "name": "",
          "type": "int256"
        }
      ],
      "stateMutability": "view",
      "type": "function"
    },
    {
      "inputs": [],
      "name": "getFechaRetiro",
      "outputs": [
        {
          "internalType": "int256",
          "name": "",
          "type": "int256"
        }
      ],
      "stateMutability": "view",
      "type": "function"
    },
    {
      "inputs": [],
      "name": "getAntecedenteLaboralStruct",
      "outputs": [
        {
          "components": [
            {
              "internalType": "string",
              "name": "descripcionLabor",
              "type": "string"
            },
            {
              "internalType": "string",
              "name": "actividadRealizada",
              "type": "string"
            },
            {
              "internalType": "int256",
              "name": "fechaInicio",
              "type": "int256"
            },
            {
              "internalType": "int256",
              "name": "fechaRetiro",
              "type": "int256"
            }
          ],
          "internalType": "struct AntecedenteLaboralVO.AntecedenteLaboralStruct",
          "name": "",
          "type": "tuple"
        }
      ],
      "stateMutability": "view",
      "type": "function"
    },
    {
      "inputs": [
        {
          "components": [
            {
              "internalType": "string",
              "name": "descripcionLabor",
              "type": "string"
            },
            {
              "internalType": "string",
              "name": "actividadRealizada",
              "type": "string"
            },
            {
              "internalType": "int256",
              "name": "fechaInicio",
              "type": "int256"
            },
            {
              "internalType": "int256",
              "name": "fechaRetiro",
              "type": "int256"
            }
          ],
          "internalType": "struct AntecedenteLaboralVO.AntecedenteLaboralStruct",
          "name": "_antecedenteLaboralStruct",
          "type": "tuple"
        }
      ],
      "name": "setAntecedenteLaboralStruct",
      "outputs": [],
      "stateMutability": "nonpayable",
      "type": "function"
    },
    {
      "inputs": [
        {
          "internalType": "string",
          "name": "_descripcionLabor",
          "type": "string"
        }
      ],
      "name": "setDescripcionLabor",
      "outputs": [],
      "stateMutability": "nonpayable",
      "type": "function"
    },
    {
      "inputs": [
        {
          "internalType": "string",
          "name": "_actividadRealizada",
          "type": "string"
        }
      ],
      "name": "setActividadRealizada",
      "outputs": [],
      "stateMutability": "nonpayable",
      "type": "function"
    },
    {
      "inputs": [
        {
          "internalType": "int256",
          "name": "_fechaInicio",
          "type": "int256"
        }
      ],
      "name": "setFechaInicio",
      "outputs": [],
      "stateMutability": "nonpayable",
      "type": "function"
    },
    {
      "inputs": [
        {
          "internalType": "int256",
          "name": "_fechaRetiro",
          "type": "int256"
        }
      ],
      "name": "setFechaRetiro",
      "outputs": [],
      "stateMutability": "nonpayable",
      "type": "function"
    }
  ],
  "bytecode": "0x608060405234801561001057600080fd5b506004805460ff19166001179055610ceb8061002d6000396000f3fe608060405234801561001057600080fd5b50600436106101825760003560e01c806392ebdcd2116100d8578063d28564fc1161008c578063e40fe6df11610066578063e40fe6df1461031b578063e9f25aa014610323578063f5a4746d1461032b57600080fd5b8063d28564fc146102e2578063d3572a1a146102f5578063dfca29071461030857600080fd5b80639cb8a26a116100bd5780639cb8a26a146102b4578063ca3c5a13146102bc578063d0e0ba95146102cf57600080fd5b806392ebdcd21461027857806393be08ef146102a357600080fd5b80634780cd441161013a5780636c9f31e9116101145780636c9f31e914610213578063803a56ec146102285780638488ebe61461026557600080fd5b80634780cd44146101e35780635d1ca631146101f85780635f3774d41461020057600080fd5b80630bcacc1b1161016b5780630bcacc1b146101b35780631b59abb9146101c857806344517a9a146101d057600080fd5b8063045c7bbe146101875780630b81e9e51461019c575b600080fd5b61019a61019536600461078a565b600355565b005b6007545b6040519081526020015b60405180910390f35b6101bb61033e565b6040516101aa91906107db565b6003546101a0565b60045460ff166040516101aa919061081d565b6101eb6103b3565b6040516101aa9190610877565b6001546101a0565b61019a61020e36600461093b565b610528565b61021b610594565b6040516101aa91906109aa565b61019a6102363660046109c4565b6002805473ffffffffffffffffffffffffffffffffffffffff19166001600160a01b0392909216919091179055565b61019a61027336600461078a565b600855565b60005461028b906001600160a01b031681565b6040516001600160a01b0390911681526020016101aa565b6002546001600160a01b031661028b565b61019a610629565b61019a6102ca3660046109df565b6106fb565b61019a6102dd36600461078a565b600155565b61019a6102f0366004610a87565b61071a565b61019a61030336600461078a565b600755565b61019a610316366004610ac4565b61072a565b61021b61076c565b6008546101a0565b61019a610339366004610a87565b61077e565b6103666040805160808101825260008082526020820181905291810182905290606082015290565b6040805160808101825260015481526002546001600160a01b0316602082015260035491810191909152600454606082019060ff1660128111156103ac576103ac6107a3565b9052919050565b6103de6040518060800160405280606081526020016060815260200160008152602001600081525090565b60056040518060800160405290816000820180546103fb90610b6c565b80601f016020809104026020016040519081016040528092919081815260200182805461042790610b6c565b80156104745780601f1061044957610100808354040283529160200191610474565b820191906000526020600020905b81548152906001019060200180831161045757829003601f168201915b5050505050815260200160018201805461048d90610b6c565b80601f01602080910402602001604051908101604052809291908181526020018280546104b990610b6c565b80156105065780601f106104db57610100808354040283529160200191610506565b820191906000526020600020905b8154815290600101906020018083116104e957829003601f168201915b5050505050815260200160028201548152602001600382015481525050905090565b8051600190815560208201516002805473ffffffffffffffffffffffffffffffffffffffff19166001600160a01b0390921691909117905560408201516003556060820151600480549192909160ff19169083601281111561058c5761058c6107a3565b021790555050565b6060600560010180546105a690610b6c565b80601f01602080910402602001604051908101604052809291908181526020018280546105d290610b6c565b801561061f5780601f106105f45761010080835404028352916020019161061f565b820191906000526020600020905b81548152906001019060200180831161060257829003601f168201915b5050505050905090565b6000546001600160a01b031633146106ed576040517f08c379a000000000000000000000000000000000000000000000000000000000815260206004820152604160248201527f457374612066756e63696f6e20736f6c6f2070756564652073657220656a656360448201527f757461646120706f7220656c2063726561646f722064656c20636f6e7472617460648201527f6f00000000000000000000000000000000000000000000000000000000000000608482015260a40160405180910390fd5b6000546001600160a01b0316ff5b6004805482919060ff1916600183601281111561058c5761058c6107a3565b60056107268282610bf5565b5050565b80518190600590819061073d9082610bf5565b50602082015160018201906107529082610bf5565b506040820151600282015560609091015160039091015550565b6060600560000180546105a690610b6c565b60066107268282610bf5565b60006020828403121561079c57600080fd5b5035919050565b634e487b7160e01b600052602160045260246000fd5b601381106107d757634e487b7160e01b600052602160045260246000fd5b9052565b6000608082019050825182526001600160a01b03602084015116602083015260408301516040830152606083015161081660608401826107b9565b5092915050565b6020810161082b82846107b9565b92915050565b6000815180845260005b818110156108575760208185018101518683018201520161083b565b506000602082860101526020601f19601f83011685010191505092915050565b60208152600082516080602084015261089360a0840182610831565b90506020840151601f198483030160408501526108b08282610831565b91505060408401516060840152606084015160808401528091505092915050565b634e487b7160e01b600052604160045260246000fd5b6040516080810167ffffffffffffffff8111828210171561090a5761090a6108d1565b60405290565b80356001600160a01b038116811461092757600080fd5b919050565b80356013811061092757600080fd5b60006080828403121561094d57600080fd5b6040516080810181811067ffffffffffffffff82111715610970576109706108d1565b6040528235815261098360208401610910565b60208201526040830135604082015261099e6060840161092c565b60608201529392505050565b6020815260006109bd6020830184610831565b9392505050565b6000602082840312156109d657600080fd5b6109bd82610910565b6000602082840312156109f157600080fd5b6109bd8261092c565b600082601f830112610a0b57600080fd5b813567ffffffffffffffff80821115610a2657610a266108d1565b604051601f8301601f19908116603f01168101908282118183101715610a4e57610a4e6108d1565b81604052838152866020858801011115610a6757600080fd5b836020870160208301376000602085830101528094505050505092915050565b600060208284031215610a9957600080fd5b813567ffffffffffffffff811115610ab057600080fd5b610abc848285016109fa565b949350505050565b600060208284031215610ad657600080fd5b813567ffffffffffffffff80821115610aee57600080fd5b9083019060808286031215610b0257600080fd5b610b0a6108e7565b823582811115610b1957600080fd5b610b25878286016109fa565b825250602083013582811115610b3a57600080fd5b610b46878286016109fa565b602083015250604083013560408201526060830135606082015280935050505092915050565b600181811c90821680610b8057607f821691505b602082108103610ba057634e487b7160e01b600052602260045260246000fd5b50919050565b601f821115610bf057600081815260208120601f850160051c81016020861015610bcd5750805b601f850160051c820191505b81811015610bec57828155600101610bd9565b5050505b505050565b815167ffffffffffffffff811115610c0f57610c0f6108d1565b610c2381610c1d8454610b6c565b84610ba6565b602080601f831160018114610c585760008415610c405750858301515b600019600386901b1c1916600185901b178555610bec565b600085815260208120601f198616915b82811015610c8757888601518255948401946001909101908401610c68565b5085821015610ca55787850151600019600388901b60f8161c191681555b5050505050600190811b0190555056fea2646970667358221220bc6320bd47d5ce38087d3eb6911e3a93146a876b5fff0c1045a25b893a0c0c3d64736f6c63430008110033",
  "immutableReferences": {},
  "source": "// SPDX-License-Identifier: MIT\npragma solidity ^0.8.17;\n\nimport \"./RegistroMedico.sol\";\n\n//import \"./structsGenerales/DatosPersonalesStruct.sol\";\n\ncontract AntecedenteLaboralVO is RegistroMedico (TipoRegistroMedico.ANTECEDENTELABORALVO){\n    struct AntecedenteLaboralStruct {\n        string descripcionLabor;\n        string actividadRealizada;\n        int256 fechaInicio;\n        int256 fechaRetiro;\n    }\n\n    AntecedenteLaboralStruct private antecedenteLaboralStruct;\n\n    function getDescripcionLabor() public view returns (string memory) {\n        return antecedenteLaboralStruct.descripcionLabor;\n    }\n\n    function getActividadRealizada() public view returns (string memory) {\n        return antecedenteLaboralStruct.actividadRealizada;\n    }\n\n    function getFechaInicio() public view returns (int256) {\n        return antecedenteLaboralStruct.fechaInicio;\n    }\n\n    function getFechaRetiro() public view returns (int256) {\n        return antecedenteLaboralStruct.fechaRetiro;\n    }\n\n    function getAntecedenteLaboralStruct()\n        public\n        view\n        returns (AntecedenteLaboralStruct memory)\n    {\n        return antecedenteLaboralStruct;\n    }\n\n    function setAntecedenteLaboralStruct(\n        AntecedenteLaboralStruct memory _antecedenteLaboralStruct\n    ) public {\n        antecedenteLaboralStruct = _antecedenteLaboralStruct;\n    }\n\n    function setDescripcionLabor(string memory _descripcionLabor) public {\n        antecedenteLaboralStruct.descripcionLabor = _descripcionLabor;\n    }\n\n    function setActividadRealizada(string memory _actividadRealizada) public {\n        antecedenteLaboralStruct.actividadRealizada = _actividadRealizada;\n    }\n\n    function setFechaInicio(int256 _fechaInicio) public {\n        antecedenteLaboralStruct.fechaInicio = _fechaInicio;\n    }\n\n    function setFechaRetiro(int256 _fechaRetiro) public {\n        antecedenteLaboralStruct.fechaRetiro = _fechaRetiro;\n    }\n}\n",
  "sourcePath": "/back/contracts/models/historiaClinica/AntecedenteLaboralVO.sol",
  "compiler": {
    "name": "solc",
    "version": "0.8.17+commit.8df45f5f.Emscripten.clang"
  },
  "schemaVersion": "3.4.11",
  "updatedAt": "2023-05-03T04:13:42.992Z",
  "devdoc": {
    "kind": "dev",
    "methods": {},
    "version": 1
  },
  "userdoc": {
    "kind": "user",
    "methods": {},
    "version": 1
  }
}