{
  "contractName": "AntecedentePatologicoFamiliarVO",
  "abi": [
    {
      "inputs": [],
      "name": "creador",
      "outputs": [
        {
          "internalType": "address",
          "name": "",
          "type": "address"
        }
      ],
      "stateMutability": "view",
      "type": "function"
    },
    {
      "inputs": [],
      "name": "getCodPrestadorServicioDeSalud",
      "outputs": [
        {
          "internalType": "address",
          "name": "",
          "type": "address"
        }
      ],
      "stateMutability": "view",
      "type": "function"
    },
    {
      "inputs": [],
      "name": "getFechaRegistro",
      "outputs": [
        {
          "internalType": "int256",
          "name": "",
          "type": "int256"
        }
      ],
      "stateMutability": "view",
      "type": "function"
    },
    {
      "inputs": [],
      "name": "getId",
      "outputs": [
        {
          "internalType": "uint256",
          "name": "",
          "type": "uint256"
        }
      ],
      "stateMutability": "view",
      "type": "function"
    },
    {
      "inputs": [],
      "name": "getRegistroMedico",
      "outputs": [
        {
          "components": [
            {
              "internalType": "uint256",
              "name": "id",
              "type": "uint256"
            },
            {
              "internalType": "address",
              "name": "codPrestadorServicioDeSalud",
              "type": "address"
            },
            {
              "internalType": "int256",
              "name": "fechaRegistro",
              "type": "int256"
            },
            {
              "internalType": "enum TipoRegistroMedico",
              "name": "tipoRegistroMedico",
              "type": "uint8"
            }
          ],
          "internalType": "struct RegistroMedico.RegistroMedicoStruct",
          "name": "",
          "type": "tuple"
        }
      ],
      "stateMutability": "view",
      "type": "function"
    },
    {
      "inputs": [],
      "name": "getTipoRegistroMedico",
      "outputs": [
        {
          "internalType": "enum TipoRegistroMedico",
          "name": "",
          "type": "uint8"
        }
      ],
      "stateMutability": "view",
      "type": "function"
    },
    {
      "inputs": [],
      "name": "selfDestruct",
      "outputs": [],
      "stateMutability": "nonpayable",
      "type": "function"
    },
    {
      "inputs": [
        {
          "internalType": "address",
          "name": "_codPrestadorServicioDeSalud",
          "type": "address"
        }
      ],
      "name": "setCodPrestadorServicioDeSalud",
      "outputs": [],
      "stateMutability": "nonpayable",
      "type": "function"
    },
    {
      "inputs": [
        {
          "internalType": "int256",
          "name": "_fechaRegistro",
          "type": "int256"
        }
      ],
      "name": "setFechaRegistro",
      "outputs": [],
      "stateMutability": "nonpayable",
      "type": "function"
    },
    {
      "inputs": [
        {
          "internalType": "uint256",
          "name": "_id",
          "type": "uint256"
        }
      ],
      "name": "setId",
      "outputs": [],
      "stateMutability": "nonpayable",
      "type": "function"
    },
    {
      "inputs": [
        {
          "components": [
            {
              "internalType": "uint256",
              "name": "id",
              "type": "uint256"
            },
            {
              "internalType": "address",
              "name": "codPrestadorServicioDeSalud",
              "type": "address"
            },
            {
              "internalType": "int256",
              "name": "fechaRegistro",
              "type": "int256"
            },
            {
              "internalType": "enum TipoRegistroMedico",
              "name": "tipoRegistroMedico",
              "type": "uint8"
            }
          ],
          "internalType": "struct RegistroMedico.RegistroMedicoStruct",
          "name": "registro",
          "type": "tuple"
        }
      ],
      "name": "setRegistroMedico",
      "outputs": [],
      "stateMutability": "nonpayable",
      "type": "function"
    },
    {
      "inputs": [
        {
          "internalType": "enum TipoRegistroMedico",
          "name": "_tipoRegistroMedico",
          "type": "uint8"
        }
      ],
      "name": "setTipoRegistroMedico",
      "outputs": [],
      "stateMutability": "nonpayable",
      "type": "function"
    },
    {
      "inputs": [],
      "name": "getParentesco",
      "outputs": [
        {
          "internalType": "string",
          "name": "",
          "type": "string"
        }
      ],
      "stateMutability": "view",
      "type": "function"
    },
    {
      "inputs": [],
      "name": "getEnfermedad",
      "outputs": [
        {
          "internalType": "string",
          "name": "",
          "type": "string"
        }
      ],
      "stateMutability": "view",
      "type": "function"
    },
    {
      "inputs": [],
      "name": "getFechaAproximada",
      "outputs": [
        {
          "internalType": "int256",
          "name": "",
          "type": "int256"
        }
      ],
      "stateMutability": "view",
      "type": "function"
    },
    {
      "inputs": [],
      "name": "getAntecedentePatologicoFamiliarStruct",
      "outputs": [
        {
          "components": [
            {
              "internalType": "string",
              "name": "parentesco",
              "type": "string"
            },
            {
              "internalType": "string",
              "name": "enfermedad",
              "type": "string"
            },
            {
              "internalType": "int256",
              "name": "fechaAproximada",
              "type": "int256"
            }
          ],
          "internalType": "struct AntecedentePatologicoFamiliarVO.AntecedentePatologicoFamiliarStruct",
          "name": "",
          "type": "tuple"
        }
      ],
      "stateMutability": "view",
      "type": "function"
    },
    {
      "inputs": [
        {
          "components": [
            {
              "internalType": "string",
              "name": "parentesco",
              "type": "string"
            },
            {
              "internalType": "string",
              "name": "enfermedad",
              "type": "string"
            },
            {
              "internalType": "int256",
              "name": "fechaAproximada",
              "type": "int256"
            }
          ],
          "internalType": "struct AntecedentePatologicoFamiliarVO.AntecedentePatologicoFamiliarStruct",
          "name": "_antecedentePatologicoFamiliarStruct",
          "type": "tuple"
        }
      ],
      "name": "setAntecedentePatologicoFamiliarStruct",
      "outputs": [],
      "stateMutability": "nonpayable",
      "type": "function"
    },
    {
      "inputs": [
        {
          "internalType": "string",
          "name": "_parentesco",
          "type": "string"
        }
      ],
      "name": "setParentesco",
      "outputs": [],
      "stateMutability": "nonpayable",
      "type": "function"
    },
    {
      "inputs": [
        {
          "internalType": "string",
          "name": "_enfermedad",
          "type": "string"
        }
      ],
      "name": "setEnfermedad",
      "outputs": [],
      "stateMutability": "nonpayable",
      "type": "function"
    },
    {
      "inputs": [
        {
          "internalType": "int256",
          "name": "_fechaAproximada",
          "type": "int256"
        }
      ],
      "name": "setFechaAproximada",
      "outputs": [],
      "stateMutability": "nonpayable",
      "type": "function"
    }
  ],
  "bytecode": "0x608060405234801561001057600080fd5b506004805460ff19166002179055610c7d8061002d6000396000f3fe608060405234801561001057600080fd5b506004361061016c5760003560e01c806378b83fdf116100cd5780639cb8a26a11610081578063ca3c5a1311610066578063ca3c5a13146102e3578063d0e0ba95146102f6578063e123c99a1461030957600080fd5b80639cb8a26a146102c65780639ddca4e9146102ce57600080fd5b8063803a56ec116100b2578063803a56ec1461024d57806392ebdcd21461028a57806393be08ef146102b557600080fd5b806378b83fdf146102275780637ea4847b1461023a57600080fd5b806344517a9a116101245780635b9e8dd3116101095780635b9e8dd3146101f95780635d1ca6311461020c5780635f3774d41461021457600080fd5b806344517a9a146101de5780634ec4b32d146101f157600080fd5b806311ef5a1b1161015557806311ef5a1b146101a45780631b59abb9146101b757806340debf75146101c957600080fd5b8063045c7bbe146101715780630bcacc1b14610186575b600080fd5b61018461017f366004610743565b600355565b005b61018e610311565b60405161019b9190610794565b60405180910390f35b6101846101b2366004610879565b610386565b6003545b60405190815260200161019b565b6101d1610396565b60405161019b91906108fc565b60045460ff1660405161019b919061094c565b6007546101bb565b610184610207366004610960565b6104fa565b6001546101bb565b610184610222366004610a3f565b610533565b610184610235366004610743565b600755565b610184610248366004610879565b61059f565b61018461025b366004610aae565b6002805473ffffffffffffffffffffffffffffffffffffffff19166001600160a01b0392909216919091179055565b60005461029d906001600160a01b031681565b6040516001600160a01b03909116815260200161019b565b6002546001600160a01b031661029d565b6101846105ab565b6102d661067d565b60405161019b9190610ad0565b6101846102f1366004610ae3565b610712565b610184610304366004610743565b600155565b6102d6610731565b6103396040805160808101825260008082526020820181905291810182905290606082015290565b6040805160808101825260015481526002546001600160a01b0316602082015260035491810191909152600454606082019060ff16601281111561037f5761037f61075c565b9052919050565b60066103928282610b87565b5050565b6103ba60405180606001604052806060815260200160608152602001600081525090565b60056040518060600160405290816000820180546103d790610afe565b80601f016020809104026020016040519081016040528092919081815260200182805461040390610afe565b80156104505780601f1061042557610100808354040283529160200191610450565b820191906000526020600020905b81548152906001019060200180831161043357829003601f168201915b5050505050815260200160018201805461046990610afe565b80601f016020809104026020016040519081016040528092919081815260200182805461049590610afe565b80156104e25780601f106104b7576101008083540402835291602001916104e2565b820191906000526020600020905b8154815290600101906020018083116104c557829003601f168201915b50505050508152602001600282015481525050905090565b80518190600590819061050d9082610b87565b50602082015160018201906105229082610b87565b506040820151816002015590505050565b8051600190815560208201516002805473ffffffffffffffffffffffffffffffffffffffff19166001600160a01b0390921691909117905560408201516003556060820151600480549192909160ff1916908360128111156105975761059761075c565b021790555050565b60056103928282610b87565b6000546001600160a01b0316331461066f576040517f08c379a000000000000000000000000000000000000000000000000000000000815260206004820152604160248201527f457374612066756e63696f6e20736f6c6f2070756564652073657220656a656360448201527f757461646120706f7220656c2063726561646f722064656c20636f6e7472617460648201527f6f00000000000000000000000000000000000000000000000000000000000000608482015260a40160405180910390fd5b6000546001600160a01b0316ff5b60606005600101805461068f90610afe565b80601f01602080910402602001604051908101604052809291908181526020018280546106bb90610afe565b80156107085780601f106106dd57610100808354040283529160200191610708565b820191906000526020600020905b8154815290600101906020018083116106eb57829003601f168201915b5050505050905090565b6004805482919060ff191660018360128111156105975761059761075c565b60606005600001805461068f90610afe565b60006020828403121561075557600080fd5b5035919050565b634e487b7160e01b600052602160045260246000fd5b6013811061079057634e487b7160e01b600052602160045260246000fd5b9052565b6000608082019050825182526001600160a01b0360208401511660208301526040830151604083015260608301516107cf6060840182610772565b5092915050565b634e487b7160e01b600052604160045260246000fd5b600082601f8301126107fd57600080fd5b813567ffffffffffffffff80821115610818576108186107d6565b604051601f8301601f19908116603f01168101908282118183101715610840576108406107d6565b8160405283815286602085880101111561085957600080fd5b836020870160208301376000602085830101528094505050505092915050565b60006020828403121561088b57600080fd5b813567ffffffffffffffff8111156108a257600080fd5b6108ae848285016107ec565b949350505050565b6000815180845260005b818110156108dc576020818501810151868301820152016108c0565b506000602082860101526020601f19601f83011685010191505092915050565b60208152600082516060602084015261091860808401826108b6565b90506020840151601f1984830301604085015261093582826108b6565b915050604084015160608401528091505092915050565b6020810161095a8284610772565b92915050565b60006020828403121561097257600080fd5b813567ffffffffffffffff8082111561098a57600080fd5b908301906060828603121561099e57600080fd5b6040516060810181811083821117156109b9576109b96107d6565b6040528235828111156109cb57600080fd5b6109d7878286016107ec565b8252506020830135828111156109ec57600080fd5b6109f8878286016107ec565b6020830152506040830135604082015280935050505092915050565b80356001600160a01b0381168114610a2b57600080fd5b919050565b803560138110610a2b57600080fd5b600060808284031215610a5157600080fd5b6040516080810181811067ffffffffffffffff82111715610a7457610a746107d6565b60405282358152610a8760208401610a14565b602082015260408301356040820152610aa260608401610a30565b60608201529392505050565b600060208284031215610ac057600080fd5b610ac982610a14565b9392505050565b602081526000610ac960208301846108b6565b600060208284031215610af557600080fd5b610ac982610a30565b600181811c90821680610b1257607f821691505b602082108103610b3257634e487b7160e01b600052602260045260246000fd5b50919050565b601f821115610b8257600081815260208120601f850160051c81016020861015610b5f5750805b601f850160051c820191505b81811015610b7e57828155600101610b6b565b5050505b505050565b815167ffffffffffffffff811115610ba157610ba16107d6565b610bb581610baf8454610afe565b84610b38565b602080601f831160018114610bea5760008415610bd25750858301515b600019600386901b1c1916600185901b178555610b7e565b600085815260208120601f198616915b82811015610c1957888601518255948401946001909101908401610bfa565b5085821015610c375787850151600019600388901b60f8161c191681555b5050505050600190811b0190555056fea2646970667358221220a0b30885fe2c52764c35d069ea94bdc46b9ce7a51a1bc658f8764db67ab25b0064736f6c63430008110033",
  "immutableReferences": {},
  "source": "// SPDX-License-Identifier: MIT\npragma solidity ^0.8.17;\n\nimport \"./RegistroMedico.sol\";\n\n//import \"./structsGenerales/DatosPersonalesStruct.sol\";\n\ncontract AntecedentePatologicoFamiliarVO is RegistroMedico(TipoRegistroMedico.ANTECEDENTEPATOLOGICOFAMILIARVO) {\n    struct AntecedentePatologicoFamiliarStruct {\n        string parentesco;\n        string enfermedad; // Quiz deba existir una lista de enfermedades en una nueva tabla\n        int256 fechaAproximada;        \n    }\n\n    AntecedentePatologicoFamiliarStruct private antecedentePatologicoFamiliarStruct;\n\n    function getParentesco() public view returns (string memory) {\n        return antecedentePatologicoFamiliarStruct.parentesco;\n    }\n\n    function getEnfermedad() public view returns (string memory) {\n        return antecedentePatologicoFamiliarStruct.enfermedad;\n    }\n\n    function getFechaAproximada() public view returns (int256) {\n        return antecedentePatologicoFamiliarStruct.fechaAproximada;\n    }\n\n    function getAntecedentePatologicoFamiliarStruct()\n        public\n        view\n        returns (AntecedentePatologicoFamiliarStruct memory)\n    {\n        return antecedentePatologicoFamiliarStruct;\n    }\n\n    function setAntecedentePatologicoFamiliarStruct(\n        AntecedentePatologicoFamiliarStruct memory _antecedentePatologicoFamiliarStruct\n    ) public {\n        antecedentePatologicoFamiliarStruct = _antecedentePatologicoFamiliarStruct;\n    }\n\n    function setParentesco(string memory _parentesco) public {\n        antecedentePatologicoFamiliarStruct.parentesco = _parentesco;\n    }\n\n    function setEnfermedad(string memory _enfermedad) public {\n        antecedentePatologicoFamiliarStruct.enfermedad = _enfermedad;\n    }\n\n    function setFechaAproximada(int256 _fechaAproximada) public {\n        antecedentePatologicoFamiliarStruct.fechaAproximada = _fechaAproximada;\n    }\n}\n",
  "sourcePath": "/back/contracts/models/historiaClinica/AntecedentePatologicoFamiliarVO.sol",
  "compiler": {
    "name": "solc",
    "version": "0.8.17+commit.8df45f5f.Emscripten.clang"
  },
  "schemaVersion": "3.4.13",
  "updatedAt": "2023-05-03T22:18:40.825Z",
  "devdoc": {
    "kind": "dev",
    "methods": {},
    "version": 1
  },
  "userdoc": {
    "kind": "user",
    "methods": {},
    "version": 1
  }
}