{
  "contractName": "AntecedentePatologicoPersonalVO",
  "abi": [
    {
      "inputs": [],
      "name": "creador",
      "outputs": [
        {
          "internalType": "address",
          "name": "",
          "type": "address"
        }
      ],
      "stateMutability": "view",
      "type": "function"
    },
    {
      "inputs": [],
      "name": "getCodPrestadorServicioDeSalud",
      "outputs": [
        {
          "internalType": "address",
          "name": "",
          "type": "address"
        }
      ],
      "stateMutability": "view",
      "type": "function"
    },
    {
      "inputs": [],
      "name": "getFechaRegistro",
      "outputs": [
        {
          "internalType": "int256",
          "name": "",
          "type": "int256"
        }
      ],
      "stateMutability": "view",
      "type": "function"
    },
    {
      "inputs": [],
      "name": "getId",
      "outputs": [
        {
          "internalType": "uint256",
          "name": "",
          "type": "uint256"
        }
      ],
      "stateMutability": "view",
      "type": "function"
    },
    {
      "inputs": [],
      "name": "getRegistroMedico",
      "outputs": [
        {
          "components": [
            {
              "internalType": "uint256",
              "name": "id",
              "type": "uint256"
            },
            {
              "internalType": "address",
              "name": "codPrestadorServicioDeSalud",
              "type": "address"
            },
            {
              "internalType": "int256",
              "name": "fechaRegistro",
              "type": "int256"
            },
            {
              "internalType": "enum TipoRegistroMedico",
              "name": "tipoRegistroMedico",
              "type": "uint8"
            }
          ],
          "internalType": "struct RegistroMedico.RegistroMedicoStruct",
          "name": "",
          "type": "tuple"
        }
      ],
      "stateMutability": "view",
      "type": "function"
    },
    {
      "inputs": [],
      "name": "getTipoRegistroMedico",
      "outputs": [
        {
          "internalType": "enum TipoRegistroMedico",
          "name": "",
          "type": "uint8"
        }
      ],
      "stateMutability": "view",
      "type": "function"
    },
    {
      "inputs": [],
      "name": "selfDestruct",
      "outputs": [],
      "stateMutability": "nonpayable",
      "type": "function"
    },
    {
      "inputs": [
        {
          "internalType": "address",
          "name": "_codPrestadorServicioDeSalud",
          "type": "address"
        }
      ],
      "name": "setCodPrestadorServicioDeSalud",
      "outputs": [],
      "stateMutability": "nonpayable",
      "type": "function"
    },
    {
      "inputs": [
        {
          "internalType": "int256",
          "name": "_fechaRegistro",
          "type": "int256"
        }
      ],
      "name": "setFechaRegistro",
      "outputs": [],
      "stateMutability": "nonpayable",
      "type": "function"
    },
    {
      "inputs": [
        {
          "internalType": "uint256",
          "name": "_id",
          "type": "uint256"
        }
      ],
      "name": "setId",
      "outputs": [],
      "stateMutability": "nonpayable",
      "type": "function"
    },
    {
      "inputs": [
        {
          "components": [
            {
              "internalType": "uint256",
              "name": "id",
              "type": "uint256"
            },
            {
              "internalType": "address",
              "name": "codPrestadorServicioDeSalud",
              "type": "address"
            },
            {
              "internalType": "int256",
              "name": "fechaRegistro",
              "type": "int256"
            },
            {
              "internalType": "enum TipoRegistroMedico",
              "name": "tipoRegistroMedico",
              "type": "uint8"
            }
          ],
          "internalType": "struct RegistroMedico.RegistroMedicoStruct",
          "name": "registro",
          "type": "tuple"
        }
      ],
      "name": "setRegistroMedico",
      "outputs": [],
      "stateMutability": "nonpayable",
      "type": "function"
    },
    {
      "inputs": [
        {
          "internalType": "enum TipoRegistroMedico",
          "name": "_tipoRegistroMedico",
          "type": "uint8"
        }
      ],
      "name": "setTipoRegistroMedico",
      "outputs": [],
      "stateMutability": "nonpayable",
      "type": "function"
    },
    {
      "inputs": [],
      "name": "getEnfermedad",
      "outputs": [
        {
          "internalType": "string",
          "name": "",
          "type": "string"
        }
      ],
      "stateMutability": "view",
      "type": "function"
    },
    {
      "inputs": [],
      "name": "getFechaAproximada",
      "outputs": [
        {
          "internalType": "int256",
          "name": "",
          "type": "int256"
        }
      ],
      "stateMutability": "view",
      "type": "function"
    },
    {
      "inputs": [],
      "name": "getAntecedentePatologicoPersonalStruct",
      "outputs": [
        {
          "components": [
            {
              "internalType": "string",
              "name": "enfermedad",
              "type": "string"
            },
            {
              "internalType": "int256",
              "name": "fechaAproximada",
              "type": "int256"
            }
          ],
          "internalType": "struct AntecedentePatologicoPersonalVO.AntecedentePatologicoPersonalStruct",
          "name": "",
          "type": "tuple"
        }
      ],
      "stateMutability": "view",
      "type": "function"
    },
    {
      "inputs": [
        {
          "components": [
            {
              "internalType": "string",
              "name": "enfermedad",
              "type": "string"
            },
            {
              "internalType": "int256",
              "name": "fechaAproximada",
              "type": "int256"
            }
          ],
          "internalType": "struct AntecedentePatologicoPersonalVO.AntecedentePatologicoPersonalStruct",
          "name": "_antecedentePatologicoFamiliarStruct",
          "type": "tuple"
        }
      ],
      "name": "setAntecedentePatologicoPersonalStruct",
      "outputs": [],
      "stateMutability": "nonpayable",
      "type": "function"
    },
    {
      "inputs": [
        {
          "internalType": "string",
          "name": "_enfermedad",
          "type": "string"
        }
      ],
      "name": "setEnfermedad",
      "outputs": [],
      "stateMutability": "nonpayable",
      "type": "function"
    },
    {
      "inputs": [
        {
          "internalType": "int256",
          "name": "_fechaAproximada",
          "type": "int256"
        }
      ],
      "name": "setFechaAproximada",
      "outputs": [],
      "stateMutability": "nonpayable",
      "type": "function"
    }
  ],
  "bytecode": "0x608060405234801561001057600080fd5b506004805460ff19166003179055610b168061002d6000396000f3fe608060405234801561001057600080fd5b50600436106101365760003560e01c806378b83fdf116100b25780639cb8a26a11610081578063c089097b11610066578063c089097b14610285578063ca3c5a131461029a578063d0e0ba95146102ad57600080fd5b80639cb8a26a146102685780639ddca4e91461027057600080fd5b806378b83fdf146101dc578063803a56ec146101ef57806392ebdcd21461022c57806393be08ef1461025757600080fd5b80632a59ea97116101095780634ec4b32d116100ee5780634ec4b32d146101b95780635d1ca631146101c15780635f3774d4146101c957600080fd5b80632a59ea971461019357806344517a9a146101a657600080fd5b8063045c7bbe1461013b5780630bcacc1b1461015057806311ef5a1b1461016e5780631b59abb914610181575b600080fd5b61014e61014936600461061e565b600355565b005b6101586102c0565b604051610165919061066f565b60405180910390f35b61014e61017c366004610754565b610335565b6003545b604051908152602001610165565b61014e6101a1366004610791565b610345565b60045460ff166040516101659190610821565b600654610185565b600154610185565b61014e6101d7366004610860565b610369565b61014e6101ea36600461061e565b600655565b61014e6101fd3660046108cf565b6002805473ffffffffffffffffffffffffffffffffffffffff19166001600160a01b0392909216919091179055565b60005461023f906001600160a01b031681565b6040516001600160a01b039091168152602001610165565b6002546001600160a01b031661023f565b61014e6103d5565b6102786104a7565b6040516101659190610937565b61028d61053c565b604051610165919061094a565b61014e6102a836600461097c565b6105ff565b61014e6102bb36600461061e565b600155565b6102e86040805160808101825260008082526020820181905291810182905290606082015290565b6040805160808101825260015481526002546001600160a01b0316602082015260035491810191909152600454606082019060ff16601281111561032e5761032e610637565b9052919050565b60056103418282610a20565b5050565b8051819060059081906103589082610a20565b506020820151816001015590505050565b8051600190815560208201516002805473ffffffffffffffffffffffffffffffffffffffff19166001600160a01b0390921691909117905560408201516003556060820151600480549192909160ff1916908360128111156103cd576103cd610637565b021790555050565b6000546001600160a01b03163314610499576040517f08c379a000000000000000000000000000000000000000000000000000000000815260206004820152604160248201527f457374612066756e63696f6e20736f6c6f2070756564652073657220656a656360448201527f757461646120706f7220656c2063726561646f722064656c20636f6e7472617460648201527f6f00000000000000000000000000000000000000000000000000000000000000608482015260a40160405180910390fd5b6000546001600160a01b0316ff5b6060600560000180546104b990610997565b80601f01602080910402602001604051908101604052809291908181526020018280546104e590610997565b80156105325780601f1061050757610100808354040283529160200191610532565b820191906000526020600020905b81548152906001019060200180831161051557829003601f168201915b5050505050905090565b604080518082019091526060815260006020820152600560405180604001604052908160008201805461056e90610997565b80601f016020809104026020016040519081016040528092919081815260200182805461059a90610997565b80156105e75780601f106105bc576101008083540402835291602001916105e7565b820191906000526020600020905b8154815290600101906020018083116105ca57829003601f168201915b50505050508152602001600182015481525050905090565b6004805482919060ff191660018360128111156103cd576103cd610637565b60006020828403121561063057600080fd5b5035919050565b634e487b7160e01b600052602160045260246000fd5b6013811061066b57634e487b7160e01b600052602160045260246000fd5b9052565b6000608082019050825182526001600160a01b0360208401511660208301526040830151604083015260608301516106aa606084018261064d565b5092915050565b634e487b7160e01b600052604160045260246000fd5b600082601f8301126106d857600080fd5b813567ffffffffffffffff808211156106f3576106f36106b1565b604051601f8301601f19908116603f0116810190828211818310171561071b5761071b6106b1565b8160405283815286602085880101111561073457600080fd5b836020870160208301376000602085830101528094505050505092915050565b60006020828403121561076657600080fd5b813567ffffffffffffffff81111561077d57600080fd5b610789848285016106c7565b949350505050565b6000602082840312156107a357600080fd5b813567ffffffffffffffff808211156107bb57600080fd5b90830190604082860312156107cf57600080fd5b6040516040810181811083821117156107ea576107ea6106b1565b6040528235828111156107fc57600080fd5b610808878286016106c7565b8252506020830135602082015280935050505092915050565b6020810161082f828461064d565b92915050565b80356001600160a01b038116811461084c57600080fd5b919050565b80356013811061084c57600080fd5b60006080828403121561087257600080fd5b6040516080810181811067ffffffffffffffff82111715610895576108956106b1565b604052823581526108a860208401610835565b6020820152604083013560408201526108c360608401610851565b60608201529392505050565b6000602082840312156108e157600080fd5b6108ea82610835565b9392505050565b6000815180845260005b81811015610917576020818501810151868301820152016108fb565b506000602082860101526020601f19601f83011685010191505092915050565b6020815260006108ea60208301846108f1565b60208152600082516040602084015261096660608401826108f1565b9050602084015160408401528091505092915050565b60006020828403121561098e57600080fd5b6108ea82610851565b600181811c908216806109ab57607f821691505b6020821081036109cb57634e487b7160e01b600052602260045260246000fd5b50919050565b601f821115610a1b57600081815260208120601f850160051c810160208610156109f85750805b601f850160051c820191505b81811015610a1757828155600101610a04565b5050505b505050565b815167ffffffffffffffff811115610a3a57610a3a6106b1565b610a4e81610a488454610997565b846109d1565b602080601f831160018114610a835760008415610a6b5750858301515b600019600386901b1c1916600185901b178555610a17565b600085815260208120601f198616915b82811015610ab257888601518255948401946001909101908401610a93565b5085821015610ad05787850151600019600388901b60f8161c191681555b5050505050600190811b0190555056fea264697066735822122035f5099077cd99b8988d0c78e3d632406ec8ed833efddd63dd35ecef7e4d1e8964736f6c63430008110033",
  "immutableReferences": {},
  "source": "// SPDX-License-Identifier: MIT\npragma solidity ^0.8.17;\n\nimport \"./RegistroMedico.sol\";\n\n//import \"./structsGenerales/DatosPersonalesStruct.sol\";\n\ncontract AntecedentePatologicoPersonalVO is RegistroMedico(TipoRegistroMedico.ANTECEDENTEPATOLOGICOPERSONALVO) {\n    struct AntecedentePatologicoPersonalStruct {\n        string enfermedad; // Quiz deba existir una lista de enfermedades en una nueva tabla\n        int256 fechaAproximada;\n    }\n\n    AntecedentePatologicoPersonalStruct\n        private antecedentePatologicoPersonalStruct;\n\n    function getEnfermedad() public view returns (string memory) {\n        return antecedentePatologicoPersonalStruct.enfermedad;\n    }\n\n    function getFechaAproximada() public view returns (int256) {\n        return antecedentePatologicoPersonalStruct.fechaAproximada;\n    }\n\n    function getAntecedentePatologicoPersonalStruct()\n        public\n        view\n        returns (AntecedentePatologicoPersonalStruct memory)\n    {\n        return antecedentePatologicoPersonalStruct;\n    }\n\n    function setAntecedentePatologicoPersonalStruct(\n        AntecedentePatologicoPersonalStruct\n            memory _antecedentePatologicoFamiliarStruct\n    ) public {\n        antecedentePatologicoPersonalStruct = _antecedentePatologicoFamiliarStruct;\n    }\n\n    function setEnfermedad(string memory _enfermedad) public {\n        antecedentePatologicoPersonalStruct.enfermedad = _enfermedad;\n    }\n\n    function setFechaAproximada(int256 _fechaAproximada) public {\n        antecedentePatologicoPersonalStruct.fechaAproximada = _fechaAproximada;\n    }\n}\n",
  "sourcePath": "/back/contracts/models/historiaClinica/AntecedentePatologicoPersonalVO.sol",
  "compiler": {
    "name": "solc",
    "version": "0.8.17+commit.8df45f5f.Emscripten.clang"
  },
  "schemaVersion": "3.4.13",
  "updatedAt": "2023-05-03T22:18:40.831Z",
  "devdoc": {
    "kind": "dev",
    "methods": {},
    "version": 1
  },
  "userdoc": {
    "kind": "user",
    "methods": {},
    "version": 1
  }
}