{
  "contractName": "AntecedentePatologicoFamiliarVO",
  "abi": [
    {
      "inputs": [],
      "name": "creador",
      "outputs": [
        {
          "internalType": "address",
          "name": "",
          "type": "address"
        }
      ],
      "stateMutability": "view",
      "type": "function"
    },
    {
      "inputs": [],
      "name": "getCodPrestadorServicioDeSalud",
      "outputs": [
        {
          "internalType": "address",
          "name": "",
          "type": "address"
        }
      ],
      "stateMutability": "view",
      "type": "function"
    },
    {
      "inputs": [],
      "name": "getFechaRegistro",
      "outputs": [
        {
          "internalType": "uint256",
          "name": "",
          "type": "uint256"
        }
      ],
      "stateMutability": "view",
      "type": "function"
    },
    {
      "inputs": [],
      "name": "getId",
      "outputs": [
        {
          "internalType": "uint256",
          "name": "",
          "type": "uint256"
        }
      ],
      "stateMutability": "view",
      "type": "function"
    },
    {
      "inputs": [],
      "name": "getRegistroMedico",
      "outputs": [
        {
          "components": [
            {
              "internalType": "uint256",
              "name": "id",
              "type": "uint256"
            },
            {
              "internalType": "address",
              "name": "codPrestadorServicioDeSalud",
              "type": "address"
            },
            {
              "internalType": "uint256",
              "name": "fechaRegistro",
              "type": "uint256"
            },
            {
              "internalType": "enum TipoRegistroMedico",
              "name": "tipoRegistroMedico",
              "type": "uint8"
            }
          ],
          "internalType": "struct RegistroMedico.RegistroMedicoStruct",
          "name": "",
          "type": "tuple"
        }
      ],
      "stateMutability": "view",
      "type": "function"
    },
    {
      "inputs": [],
      "name": "getTipoRegistroMedico",
      "outputs": [
        {
          "internalType": "enum TipoRegistroMedico",
          "name": "",
          "type": "uint8"
        }
      ],
      "stateMutability": "view",
      "type": "function"
    },
    {
      "inputs": [],
      "name": "selfDestruct",
      "outputs": [],
      "stateMutability": "nonpayable",
      "type": "function"
    },
    {
      "inputs": [
        {
          "internalType": "address",
          "name": "_codPrestadorServicioDeSalud",
          "type": "address"
        }
      ],
      "name": "setCodPrestadorServicioDeSalud",
      "outputs": [],
      "stateMutability": "nonpayable",
      "type": "function"
    },
    {
      "inputs": [
        {
          "internalType": "uint256",
          "name": "_fechaRegistro",
          "type": "uint256"
        }
      ],
      "name": "setFechaRegistro",
      "outputs": [],
      "stateMutability": "nonpayable",
      "type": "function"
    },
    {
      "inputs": [
        {
          "internalType": "uint256",
          "name": "_id",
          "type": "uint256"
        }
      ],
      "name": "setId",
      "outputs": [],
      "stateMutability": "nonpayable",
      "type": "function"
    },
    {
      "inputs": [
        {
          "components": [
            {
              "internalType": "uint256",
              "name": "id",
              "type": "uint256"
            },
            {
              "internalType": "address",
              "name": "codPrestadorServicioDeSalud",
              "type": "address"
            },
            {
              "internalType": "uint256",
              "name": "fechaRegistro",
              "type": "uint256"
            },
            {
              "internalType": "enum TipoRegistroMedico",
              "name": "tipoRegistroMedico",
              "type": "uint8"
            }
          ],
          "internalType": "struct RegistroMedico.RegistroMedicoStruct",
          "name": "registro",
          "type": "tuple"
        }
      ],
      "name": "setRegistroMedico",
      "outputs": [],
      "stateMutability": "nonpayable",
      "type": "function"
    },
    {
      "inputs": [
        {
          "internalType": "enum TipoRegistroMedico",
          "name": "_tipoRegistroMedico",
          "type": "uint8"
        }
      ],
      "name": "setTipoRegistroMedico",
      "outputs": [],
      "stateMutability": "nonpayable",
      "type": "function"
    },
    {
      "inputs": [],
      "name": "getParentesco",
      "outputs": [
        {
          "internalType": "string",
          "name": "",
          "type": "string"
        }
      ],
      "stateMutability": "view",
      "type": "function"
    },
    {
      "inputs": [],
      "name": "getEnfermedad",
      "outputs": [
        {
          "internalType": "string",
          "name": "",
          "type": "string"
        }
      ],
      "stateMutability": "view",
      "type": "function"
    },
    {
      "inputs": [],
      "name": "getFechaAproximada",
      "outputs": [
        {
          "internalType": "uint256",
          "name": "",
          "type": "uint256"
        }
      ],
      "stateMutability": "view",
      "type": "function"
    },
    {
      "inputs": [],
      "name": "getAntecedentePatologicoFamiliarStruct",
      "outputs": [
        {
          "components": [
            {
              "internalType": "string",
              "name": "parentesco",
              "type": "string"
            },
            {
              "internalType": "string",
              "name": "enfermedad",
              "type": "string"
            },
            {
              "internalType": "uint256",
              "name": "fechaAproximada",
              "type": "uint256"
            }
          ],
          "internalType": "struct AntecedentePatologicoFamiliarVO.AntecedentePatologicoFamiliarStruct",
          "name": "",
          "type": "tuple"
        }
      ],
      "stateMutability": "view",
      "type": "function"
    },
    {
      "inputs": [
        {
          "components": [
            {
              "internalType": "string",
              "name": "parentesco",
              "type": "string"
            },
            {
              "internalType": "string",
              "name": "enfermedad",
              "type": "string"
            },
            {
              "internalType": "uint256",
              "name": "fechaAproximada",
              "type": "uint256"
            }
          ],
          "internalType": "struct AntecedentePatologicoFamiliarVO.AntecedentePatologicoFamiliarStruct",
          "name": "_antecedentePatologicoFamiliarStruct",
          "type": "tuple"
        }
      ],
      "name": "setAntecedentePatologicoFamiliarStruct",
      "outputs": [],
      "stateMutability": "nonpayable",
      "type": "function"
    },
    {
      "inputs": [
        {
          "internalType": "string",
          "name": "_parentesco",
          "type": "string"
        }
      ],
      "name": "setParentesco",
      "outputs": [],
      "stateMutability": "nonpayable",
      "type": "function"
    },
    {
      "inputs": [
        {
          "internalType": "string",
          "name": "_enfermedad",
          "type": "string"
        }
      ],
      "name": "setEnfermedad",
      "outputs": [],
      "stateMutability": "nonpayable",
      "type": "function"
    },
    {
      "inputs": [
        {
          "internalType": "uint256",
          "name": "_fechaAproximada",
          "type": "uint256"
        }
      ],
      "name": "setFechaAproximada",
      "outputs": [],
      "stateMutability": "nonpayable",
      "type": "function"
    }
  ],
  "bytecode": "0x608060405234801561001057600080fd5b506004805460ff19166002179055610c7d8061002d6000396000f3fe608060405234801561001057600080fd5b506004361061016c5760003560e01c8063803a56ec116100cd578063a204b7c911610081578063d0e0ba9511610066578063d0e0ba95146102e3578063e123c99a146102f6578063f9c0cba7146102fe57600080fd5b8063a204b7c9146102bd578063ca3c5a13146102d057600080fd5b806393be08ef116100b257806393be08ef1461028f5780639cb8a26a146102a05780639ddca4e9146102a857600080fd5b8063803a56ec1461022757806392ebdcd21461026457600080fd5b806344517a9a11610124578063586076121161010957806358607612146101f95780635d1ca6311461020c5780637ea4847b1461021457600080fd5b806344517a9a146101de5780634ec4b32d146101f157600080fd5b80631b59abb9116101555780631b59abb9146101a457806327f074cf146101b657806340debf75146101c957600080fd5b80630bcacc1b1461017157806311ef5a1b1461018f575b600080fd5b610179610311565b604051610186919061077b565b60405180910390f35b6101a261019d366004610860565b610386565b005b6003545b604051908152602001610186565b6101a26101c436600461089d565b600355565b6101d1610396565b60405161018691906108fc565b60045460ff16604051610186919061094c565b6007546101a8565b6101a2610207366004610960565b6104fa565b6001546101a8565b6101a2610222366004610860565b610533565b6101a2610235366004610a30565b6002805473ffffffffffffffffffffffffffffffffffffffff19166001600160a01b0392909216919091179055565b600054610277906001600160a01b031681565b6040516001600160a01b039091168152602001610186565b6002546001600160a01b0316610277565b6101a261053f565b6102b0610611565b6040516101869190610a52565b6101a26102cb366004610a74565b6106a6565b6101a26102de366004610ae3565b610712565b6101a26102f136600461089d565b600155565b6102b0610731565b6101a261030c36600461089d565b600755565b6103396040805160808101825260008082526020820181905291810182905290606082015290565b6040805160808101825260015481526002546001600160a01b0316602082015260035491810191909152600454606082019060ff16601281111561037f5761037f610743565b9052919050565b60066103928282610b87565b5050565b6103ba60405180606001604052806060815260200160608152602001600081525090565b60056040518060600160405290816000820180546103d790610afe565b80601f016020809104026020016040519081016040528092919081815260200182805461040390610afe565b80156104505780601f1061042557610100808354040283529160200191610450565b820191906000526020600020905b81548152906001019060200180831161043357829003601f168201915b5050505050815260200160018201805461046990610afe565b80601f016020809104026020016040519081016040528092919081815260200182805461049590610afe565b80156104e25780601f106104b7576101008083540402835291602001916104e2565b820191906000526020600020905b8154815290600101906020018083116104c557829003601f168201915b50505050508152602001600282015481525050905090565b80518190600590819061050d9082610b87565b50602082015160018201906105229082610b87565b506040820151816002015590505050565b60056103928282610b87565b6000546001600160a01b03163314610603576040517f08c379a000000000000000000000000000000000000000000000000000000000815260206004820152604160248201527f457374612066756e63696f6e20736f6c6f2070756564652073657220656a656360448201527f757461646120706f7220656c2063726561646f722064656c20636f6e7472617460648201527f6f00000000000000000000000000000000000000000000000000000000000000608482015260a40160405180910390fd5b6000546001600160a01b0316ff5b60606005600101805461062390610afe565b80601f016020809104026020016040519081016040528092919081815260200182805461064f90610afe565b801561069c5780601f106106715761010080835404028352916020019161069c565b820191906000526020600020905b81548152906001019060200180831161067f57829003601f168201915b5050505050905090565b8051600190815560208201516002805473ffffffffffffffffffffffffffffffffffffffff19166001600160a01b0390921691909117905560408201516003556060820151600480549192909160ff19169083601281111561070a5761070a610743565b021790555050565b6004805482919060ff1916600183601281111561070a5761070a610743565b60606005600001805461062390610afe565b634e487b7160e01b600052602160045260246000fd5b6013811061077757634e487b7160e01b600052602160045260246000fd5b9052565b6000608082019050825182526001600160a01b0360208401511660208301526040830151604083015260608301516107b66060840182610759565b5092915050565b634e487b7160e01b600052604160045260246000fd5b600082601f8301126107e457600080fd5b813567ffffffffffffffff808211156107ff576107ff6107bd565b604051601f8301601f19908116603f01168101908282118183101715610827576108276107bd565b8160405283815286602085880101111561084057600080fd5b836020870160208301376000602085830101528094505050505092915050565b60006020828403121561087257600080fd5b813567ffffffffffffffff81111561088957600080fd5b610895848285016107d3565b949350505050565b6000602082840312156108af57600080fd5b5035919050565b6000815180845260005b818110156108dc576020818501810151868301820152016108c0565b506000602082860101526020601f19601f83011685010191505092915050565b60208152600082516060602084015261091860808401826108b6565b90506020840151601f1984830301604085015261093582826108b6565b915050604084015160608401528091505092915050565b6020810161095a8284610759565b92915050565b60006020828403121561097257600080fd5b813567ffffffffffffffff8082111561098a57600080fd5b908301906060828603121561099e57600080fd5b6040516060810181811083821117156109b9576109b96107bd565b6040528235828111156109cb57600080fd5b6109d7878286016107d3565b8252506020830135828111156109ec57600080fd5b6109f8878286016107d3565b6020830152506040830135604082015280935050505092915050565b80356001600160a01b0381168114610a2b57600080fd5b919050565b600060208284031215610a4257600080fd5b610a4b82610a14565b9392505050565b602081526000610a4b60208301846108b6565b803560138110610a2b57600080fd5b600060808284031215610a8657600080fd5b6040516080810181811067ffffffffffffffff82111715610aa957610aa96107bd565b60405282358152610abc60208401610a14565b602082015260408301356040820152610ad760608401610a65565b60608201529392505050565b600060208284031215610af557600080fd5b610a4b82610a65565b600181811c90821680610b1257607f821691505b602082108103610b3257634e487b7160e01b600052602260045260246000fd5b50919050565b601f821115610b8257600081815260208120601f850160051c81016020861015610b5f5750805b601f850160051c820191505b81811015610b7e57828155600101610b6b565b5050505b505050565b815167ffffffffffffffff811115610ba157610ba16107bd565b610bb581610baf8454610afe565b84610b38565b602080601f831160018114610bea5760008415610bd25750858301515b600019600386901b1c1916600185901b178555610b7e565b600085815260208120601f198616915b82811015610c1957888601518255948401946001909101908401610bfa565b5085821015610c375787850151600019600388901b60f8161c191681555b5050505050600190811b0190555056fea2646970667358221220749dc5749a94a85d561a9d935a40151ab995109e178a266758d8788cd9bb271d64736f6c63430008110033",
  "immutableReferences": {},
  "source": "// SPDX-License-Identifier: MIT\npragma solidity ^0.8.17;\n\nimport \"./RegistroMedico.sol\";\n\n//import \"./structsGenerales/DatosPersonalesStruct.sol\";\n\ncontract AntecedentePatologicoFamiliarVO is RegistroMedico(TipoRegistroMedico.ANTECEDENTEPATOLOGICOFAMILIARVO) {\n    struct AntecedentePatologicoFamiliarStruct {\n        string parentesco;\n        string enfermedad; // Quiz deba existir una lista de enfermedades en una nueva tabla\n        uint256 fechaAproximada;        \n    }\n\n    AntecedentePatologicoFamiliarStruct private antecedentePatologicoFamiliarStruct;\n\n    function getParentesco() public view returns (string memory) {\n        return antecedentePatologicoFamiliarStruct.parentesco;\n    }\n\n    function getEnfermedad() public view returns (string memory) {\n        return antecedentePatologicoFamiliarStruct.enfermedad;\n    }\n\n    function getFechaAproximada() public view returns (uint256) {\n        return antecedentePatologicoFamiliarStruct.fechaAproximada;\n    }\n\n    function getAntecedentePatologicoFamiliarStruct()\n        public\n        view\n        returns (AntecedentePatologicoFamiliarStruct memory)\n    {\n        return antecedentePatologicoFamiliarStruct;\n    }\n\n    function setAntecedentePatologicoFamiliarStruct(\n        AntecedentePatologicoFamiliarStruct memory _antecedentePatologicoFamiliarStruct\n    ) public {\n        antecedentePatologicoFamiliarStruct = _antecedentePatologicoFamiliarStruct;\n    }\n\n    function setParentesco(string memory _parentesco) public {\n        antecedentePatologicoFamiliarStruct.parentesco = _parentesco;\n    }\n\n    function setEnfermedad(string memory _enfermedad) public {\n        antecedentePatologicoFamiliarStruct.enfermedad = _enfermedad;\n    }\n\n    function setFechaAproximada(uint256 _fechaAproximada) public {\n        antecedentePatologicoFamiliarStruct.fechaAproximada = _fechaAproximada;\n    }\n}\n",
  "sourcePath": "/home/felipe/Documentos/Blockchain/codigo/HCE-full/back-hce/contracts/models/historiaClinica/AntecedentePatologicoFamiliarVO.sol",
  "compiler": {
    "name": "solc",
    "version": "0.8.17+commit.8df45f5f.Emscripten.clang"
  },
  "schemaVersion": "3.4.8",
  "updatedAt": "2023-04-05T22:10:23.016Z",
  "devdoc": {
    "kind": "dev",
    "methods": {},
    "version": 1
  },
  "userdoc": {
    "kind": "user",
    "methods": {},
    "version": 1
  }
}