{
  "contractName": "AntecedenteLaboralVO",
  "abi": [
    {
      "inputs": [],
      "stateMutability": "nonpayable",
      "type": "constructor"
    },
    {
      "inputs": [],
      "name": "creador",
      "outputs": [
        {
          "internalType": "address",
          "name": "",
          "type": "address"
        }
      ],
      "stateMutability": "view",
      "type": "function"
    },
    {
      "inputs": [],
      "name": "getCodPrestadorServicioDeSalud",
      "outputs": [
        {
          "internalType": "address",
          "name": "",
          "type": "address"
        }
      ],
      "stateMutability": "view",
      "type": "function"
    },
    {
      "inputs": [],
      "name": "getFechaRegistro",
      "outputs": [
        {
          "internalType": "int256",
          "name": "",
          "type": "int256"
        }
      ],
      "stateMutability": "view",
      "type": "function"
    },
    {
      "inputs": [],
      "name": "getId",
      "outputs": [
        {
          "internalType": "uint256",
          "name": "",
          "type": "uint256"
        }
      ],
      "stateMutability": "view",
      "type": "function"
    },
    {
      "inputs": [],
      "name": "getRegistroMedico",
      "outputs": [
        {
          "components": [
            {
              "internalType": "uint256",
              "name": "id",
              "type": "uint256"
            },
            {
              "internalType": "address",
              "name": "codPrestadorServicioDeSalud",
              "type": "address"
            },
            {
              "internalType": "int256",
              "name": "fechaRegistro",
              "type": "int256"
            },
            {
              "internalType": "enum TipoRegistroMedico",
              "name": "tipoRegistroMedico",
              "type": "uint8"
            }
          ],
          "internalType": "struct RegistroMedico.RegistroMedicoStruct",
          "name": "",
          "type": "tuple"
        }
      ],
      "stateMutability": "view",
      "type": "function"
    },
    {
      "inputs": [],
      "name": "getTipoRegistroMedico",
      "outputs": [
        {
          "internalType": "enum TipoRegistroMedico",
          "name": "",
          "type": "uint8"
        }
      ],
      "stateMutability": "view",
      "type": "function"
    },
    {
      "inputs": [],
      "name": "selfDestruct",
      "outputs": [],
      "stateMutability": "nonpayable",
      "type": "function"
    },
    {
      "inputs": [
        {
          "internalType": "address",
          "name": "_codPrestadorServicioDeSalud",
          "type": "address"
        }
      ],
      "name": "setCodPrestadorServicioDeSalud",
      "outputs": [],
      "stateMutability": "nonpayable",
      "type": "function"
    },
    {
      "inputs": [
        {
          "internalType": "int256",
          "name": "_fechaRegistro",
          "type": "int256"
        }
      ],
      "name": "setFechaRegistro",
      "outputs": [],
      "stateMutability": "nonpayable",
      "type": "function"
    },
    {
      "inputs": [
        {
          "internalType": "uint256",
          "name": "_id",
          "type": "uint256"
        }
      ],
      "name": "setId",
      "outputs": [],
      "stateMutability": "nonpayable",
      "type": "function"
    },
    {
      "inputs": [
        {
          "components": [
            {
              "internalType": "uint256",
              "name": "id",
              "type": "uint256"
            },
            {
              "internalType": "address",
              "name": "codPrestadorServicioDeSalud",
              "type": "address"
            },
            {
              "internalType": "int256",
              "name": "fechaRegistro",
              "type": "int256"
            },
            {
              "internalType": "enum TipoRegistroMedico",
              "name": "tipoRegistroMedico",
              "type": "uint8"
            }
          ],
          "internalType": "struct RegistroMedico.RegistroMedicoStruct",
          "name": "registro",
          "type": "tuple"
        }
      ],
      "name": "setRegistroMedico",
      "outputs": [],
      "stateMutability": "nonpayable",
      "type": "function"
    },
    {
      "inputs": [
        {
          "internalType": "enum TipoRegistroMedico",
          "name": "_tipoRegistroMedico",
          "type": "uint8"
        }
      ],
      "name": "setTipoRegistroMedico",
      "outputs": [],
      "stateMutability": "nonpayable",
      "type": "function"
    },
    {
      "inputs": [],
      "name": "getDescripcionLabor",
      "outputs": [
        {
          "internalType": "string",
          "name": "",
          "type": "string"
        }
      ],
      "stateMutability": "view",
      "type": "function"
    },
    {
      "inputs": [],
      "name": "getActividadRealizada",
      "outputs": [
        {
          "internalType": "string",
          "name": "",
          "type": "string"
        }
      ],
      "stateMutability": "view",
      "type": "function"
    },
    {
      "inputs": [],
      "name": "getFechaInicio",
      "outputs": [
        {
          "internalType": "int256",
          "name": "",
          "type": "int256"
        }
      ],
      "stateMutability": "view",
      "type": "function"
    },
    {
      "inputs": [],
      "name": "getFechaRetiro",
      "outputs": [
        {
          "internalType": "int256",
          "name": "",
          "type": "int256"
        }
      ],
      "stateMutability": "view",
      "type": "function"
    },
    {
      "inputs": [],
      "name": "getEsActividadActual",
      "outputs": [
        {
          "internalType": "bool",
          "name": "",
          "type": "bool"
        }
      ],
      "stateMutability": "view",
      "type": "function"
    },
    {
      "inputs": [],
      "name": "getAntecedenteLaboralStruct",
      "outputs": [
        {
          "components": [
            {
              "internalType": "string",
              "name": "descripcionLabor",
              "type": "string"
            },
            {
              "internalType": "string",
              "name": "actividadRealizada",
              "type": "string"
            },
            {
              "internalType": "int256",
              "name": "fechaInicio",
              "type": "int256"
            },
            {
              "internalType": "int256",
              "name": "fechaRetiro",
              "type": "int256"
            },
            {
              "internalType": "bool",
              "name": "esActividadActual",
              "type": "bool"
            }
          ],
          "internalType": "struct AntecedenteLaboralVO.AntecedenteLaboralStruct",
          "name": "",
          "type": "tuple"
        }
      ],
      "stateMutability": "view",
      "type": "function"
    },
    {
      "inputs": [
        {
          "components": [
            {
              "internalType": "string",
              "name": "descripcionLabor",
              "type": "string"
            },
            {
              "internalType": "string",
              "name": "actividadRealizada",
              "type": "string"
            },
            {
              "internalType": "int256",
              "name": "fechaInicio",
              "type": "int256"
            },
            {
              "internalType": "int256",
              "name": "fechaRetiro",
              "type": "int256"
            },
            {
              "internalType": "bool",
              "name": "esActividadActual",
              "type": "bool"
            }
          ],
          "internalType": "struct AntecedenteLaboralVO.AntecedenteLaboralStruct",
          "name": "_antecedenteLaboralStruct",
          "type": "tuple"
        }
      ],
      "name": "setAntecedenteLaboralStruct",
      "outputs": [],
      "stateMutability": "nonpayable",
      "type": "function"
    },
    {
      "inputs": [
        {
          "internalType": "string",
          "name": "_descripcionLabor",
          "type": "string"
        }
      ],
      "name": "setDescripcionLabor",
      "outputs": [],
      "stateMutability": "nonpayable",
      "type": "function"
    },
    {
      "inputs": [
        {
          "internalType": "string",
          "name": "_actividadRealizada",
          "type": "string"
        }
      ],
      "name": "setActividadRealizada",
      "outputs": [],
      "stateMutability": "nonpayable",
      "type": "function"
    },
    {
      "inputs": [
        {
          "internalType": "int256",
          "name": "_fechaInicio",
          "type": "int256"
        }
      ],
      "name": "setFechaInicio",
      "outputs": [],
      "stateMutability": "nonpayable",
      "type": "function"
    },
    {
      "inputs": [
        {
          "internalType": "int256",
          "name": "_fechaRetiro",
          "type": "int256"
        }
      ],
      "name": "setFechaRetiro",
      "outputs": [],
      "stateMutability": "nonpayable",
      "type": "function"
    },
    {
      "inputs": [
        {
          "internalType": "bool",
          "name": "_esActividadActual",
          "type": "bool"
        }
      ],
      "name": "setEsActividadActual",
      "outputs": [],
      "stateMutability": "nonpayable",
      "type": "function"
    }
  ],
  "bytecode": "0x608060405234801561001057600080fd5b506004805460ff1916600117905560008054336001600160a01b0319909116179055610dae806100416000396000f3fe608060405234801561001057600080fd5b50600436106101985760003560e01c80638488ebe6116100e3578063d0e0ba951161008c578063e40fe6df11610066578063e40fe6df14610368578063e9f25aa014610370578063f5a4746d1461037857600080fd5b8063d0e0ba951461032f578063d28564fc14610342578063d3572a1a1461035557600080fd5b80639cb8a26a116100bd5780639cb8a26a14610301578063ca3c5a1314610309578063cf8072a51461031c57600080fd5b80638488ebe6146102b257806392ebdcd2146102c557806393be08ef146102f057600080fd5b80634780cd441161014557806362fde2931161011f57806362fde2931461023f5780636c9f31e914610260578063803a56ec1461027557600080fd5b80634780cd441461020f5780635d1ca631146102245780635f3774d41461022c57600080fd5b80631b59abb9116101765780631b59abb9146101de578063245bca65146101e657806344517a9a146101fc57600080fd5b8063045c7bbe1461019d5780630b81e9e5146101b25780630bcacc1b146101c9575b600080fd5b6101b06101ab366004610808565b600355565b005b6007545b6040519081526020015b60405180910390f35b6101d161038b565b6040516101c09190610859565b6003546101b6565b60095460ff1660405190151581526020016101c0565b60045460ff166040516101c0919061089b565b610217610400565b6040516101c091906108f5565b6001546101b6565b6101b061023a3660046109c5565b61058e565b6101b061024d366004610a44565b6009805460ff1916911515919091179055565b6102686105fa565b6040516101c09190610a66565b6101b0610283366004610a79565b6002805473ffffffffffffffffffffffffffffffffffffffff19166001600160a01b0392909216919091179055565b6101b06102c0366004610808565b600855565b6000546102d8906001600160a01b031681565b6040516001600160a01b0390911681526020016101c0565b6002546001600160a01b03166102d8565b6101b061068f565b6101b0610317366004610a94565b610761565b6101b061032a366004610b3c565b610780565b6101b061033d366004610808565b600155565b6101b0610350366004610bf2565b6107da565b6101b0610363366004610808565b600755565b6102686107ea565b6008546101b6565b6101b0610386366004610bf2565b6107fc565b6103b36040805160808101825260008082526020820181905291810182905290606082015290565b6040805160808101825260015481526002546001600160a01b0316602082015260035491810191909152600454606082019060ff1660128111156103f9576103f9610821565b9052919050565b6104346040518060a00160405280606081526020016060815260200160008152602001600081526020016000151581525090565b60056040518060a001604052908160008201805461045190610c2f565b80601f016020809104026020016040519081016040528092919081815260200182805461047d90610c2f565b80156104ca5780601f1061049f576101008083540402835291602001916104ca565b820191906000526020600020905b8154815290600101906020018083116104ad57829003601f168201915b505050505081526020016001820180546104e390610c2f565b80601f016020809104026020016040519081016040528092919081815260200182805461050f90610c2f565b801561055c5780601f106105315761010080835404028352916020019161055c565b820191906000526020600020905b81548152906001019060200180831161053f57829003601f168201915b5050509183525050600282015460208201526003820154604082015260049091015460ff161515606090910152919050565b8051600190815560208201516002805473ffffffffffffffffffffffffffffffffffffffff19166001600160a01b0390921691909117905560408201516003556060820151600480549192909160ff1916908360128111156105f2576105f2610821565b021790555050565b60606005600101805461060c90610c2f565b80601f016020809104026020016040519081016040528092919081815260200182805461063890610c2f565b80156106855780601f1061065a57610100808354040283529160200191610685565b820191906000526020600020905b81548152906001019060200180831161066857829003601f168201915b5050505050905090565b6000546001600160a01b03163314610753576040517f08c379a000000000000000000000000000000000000000000000000000000000815260206004820152604160248201527f457374612066756e63696f6e20736f6c6f2070756564652073657220656a656360448201527f757461646120706f7220656c2063726561646f722064656c20636f6e7472617460648201527f6f00000000000000000000000000000000000000000000000000000000000000608482015260a40160405180910390fd5b6000546001600160a01b0316ff5b6004805482919060ff191660018360128111156105f2576105f2610821565b8051819060059081906107939082610cb8565b50602082015160018201906107a89082610cb8565b5060408201516002820155606082015160038201556080909101516004909101805460ff191691151591909117905550565b60056107e68282610cb8565b5050565b60606005600001805461060c90610c2f565b60066107e68282610cb8565b60006020828403121561081a57600080fd5b5035919050565b634e487b7160e01b600052602160045260246000fd5b6013811061085557634e487b7160e01b600052602160045260246000fd5b9052565b6000608082019050825182526001600160a01b0360208401511660208301526040830151604083015260608301516108946060840182610837565b5092915050565b602081016108a98284610837565b92915050565b6000815180845260005b818110156108d5576020818501810151868301820152016108b9565b506000602082860101526020601f19601f83011685010191505092915050565b602081526000825160a0602084015261091160c08401826108af565b90506020840151601f1984830301604085015261092e82826108af565b91505060408401516060840152606084015160808401526080840151151560a08401528091505092915050565b634e487b7160e01b600052604160045260246000fd5b60405160a0810167ffffffffffffffff811182821017156109945761099461095b565b60405290565b80356001600160a01b03811681146109b157600080fd5b919050565b8035601381106109b157600080fd5b6000608082840312156109d757600080fd5b6040516080810181811067ffffffffffffffff821117156109fa576109fa61095b565b60405282358152610a0d6020840161099a565b602082015260408301356040820152610a28606084016109b6565b60608201529392505050565b803580151581146109b157600080fd5b600060208284031215610a5657600080fd5b610a5f82610a34565b9392505050565b602081526000610a5f60208301846108af565b600060208284031215610a8b57600080fd5b610a5f8261099a565b600060208284031215610aa657600080fd5b610a5f826109b6565b600082601f830112610ac057600080fd5b813567ffffffffffffffff80821115610adb57610adb61095b565b604051601f8301601f19908116603f01168101908282118183101715610b0357610b0361095b565b81604052838152866020858801011115610b1c57600080fd5b836020870160208301376000602085830101528094505050505092915050565b600060208284031215610b4e57600080fd5b813567ffffffffffffffff80821115610b6657600080fd5b9083019060a08286031215610b7a57600080fd5b610b82610971565b823582811115610b9157600080fd5b610b9d87828601610aaf565b825250602083013582811115610bb257600080fd5b610bbe87828601610aaf565b6020830152506040830135604082015260608301356060820152610be460808401610a34565b608082015295945050505050565b600060208284031215610c0457600080fd5b813567ffffffffffffffff811115610c1b57600080fd5b610c2784828501610aaf565b949350505050565b600181811c90821680610c4357607f821691505b602082108103610c6357634e487b7160e01b600052602260045260246000fd5b50919050565b601f821115610cb357600081815260208120601f850160051c81016020861015610c905750805b601f850160051c820191505b81811015610caf57828155600101610c9c565b5050505b505050565b815167ffffffffffffffff811115610cd257610cd261095b565b610ce681610ce08454610c2f565b84610c69565b602080601f831160018114610d1b5760008415610d035750858301515b600019600386901b1c1916600185901b178555610caf565b600085815260208120601f198616915b82811015610d4a57888601518255948401946001909101908401610d2b565b5085821015610d685787850151600019600388901b60f8161c191681555b5050505050600190811b0190555056fea2646970667358221220b31c43ff925bb81a23c47fc268868db9f3320252def7022cbf04a435aec6630964736f6c63430008110033",
  "immutableReferences": {},
  "source": "// SPDX-License-Identifier: MIT\npragma solidity ^0.8.17;\n\nimport \"./RegistroMedico.sol\";\n\n//import \"./structsGenerales/DatosPersonalesStruct.sol\";\n\ncontract AntecedenteLaboralVO is RegistroMedico (TipoRegistroMedico.ANTECEDENTELABORALVO){\n    struct AntecedenteLaboralStruct {\n        string descripcionLabor;\n        string actividadRealizada;\n        int256 fechaInicio;\n        int256 fechaRetiro;\n        bool esActividadActual;\n    }\n\n    AntecedenteLaboralStruct private antecedenteLaboralStruct;\n\n    constructor() {\n        creador = msg.sender;\n    }\n\n\n    function getDescripcionLabor() public view returns (string memory) {\n        return antecedenteLaboralStruct.descripcionLabor;\n    }\n\n    function getActividadRealizada() public view returns (string memory) {\n        return antecedenteLaboralStruct.actividadRealizada;\n    }\n\n    function getFechaInicio() public view returns (int256) {\n        return antecedenteLaboralStruct.fechaInicio;\n    }\n\n    function getFechaRetiro() public view returns (int256) {\n        return antecedenteLaboralStruct.fechaRetiro;\n    }\n\n    function getEsActividadActual() public view returns (bool) {\n        return antecedenteLaboralStruct.esActividadActual;\n    }\n\n    function getAntecedenteLaboralStruct()\n        public\n        view\n        returns (AntecedenteLaboralStruct memory)\n    {\n        return antecedenteLaboralStruct;\n    }\n\n    function setAntecedenteLaboralStruct(\n        AntecedenteLaboralStruct memory _antecedenteLaboralStruct\n    ) public {\n        antecedenteLaboralStruct = _antecedenteLaboralStruct;\n    }\n\n    function setDescripcionLabor(string memory _descripcionLabor) public {\n        antecedenteLaboralStruct.descripcionLabor = _descripcionLabor;\n    }\n\n    function setActividadRealizada(string memory _actividadRealizada) public {\n        antecedenteLaboralStruct.actividadRealizada = _actividadRealizada;\n    }\n\n    function setFechaInicio(int256 _fechaInicio) public {\n        antecedenteLaboralStruct.fechaInicio = _fechaInicio;\n    }\n\n    function setFechaRetiro(int256 _fechaRetiro) public {\n        antecedenteLaboralStruct.fechaRetiro = _fechaRetiro;\n    }\n\n    function setEsActividadActual(bool _esActividadActual) public {\n        antecedenteLaboralStruct.esActividadActual = _esActividadActual;\n    }\n}\n",
  "sourcePath": "/back/contracts/models/historiaClinica/AntecedenteLaboralVO.sol",
  "compiler": {
    "name": "solc",
    "version": "0.8.17+commit.8df45f5f.Emscripten.clang"
  },
  "schemaVersion": "3.4.11",
  "updatedAt": "2023-06-25T00:22:44.033Z",
  "devdoc": {
    "kind": "dev",
    "methods": {},
    "version": 1
  },
  "userdoc": {
    "kind": "user",
    "methods": {},
    "version": 1
  }
}