{
  "contractName": "AntecedenteLaboralVO",
  "abi": [
    {
      "inputs": [],
      "name": "creador",
      "outputs": [
        {
          "internalType": "address",
          "name": "",
          "type": "address"
        }
      ],
      "stateMutability": "view",
      "type": "function"
    },
    {
      "inputs": [],
      "name": "getCodPrestadorServicioDeSalud",
      "outputs": [
        {
          "internalType": "address",
          "name": "",
          "type": "address"
        }
      ],
      "stateMutability": "view",
      "type": "function"
    },
    {
      "inputs": [],
      "name": "getFechaRegistro",
      "outputs": [
        {
          "internalType": "uint256",
          "name": "",
          "type": "uint256"
        }
      ],
      "stateMutability": "view",
      "type": "function"
    },
    {
      "inputs": [],
      "name": "getId",
      "outputs": [
        {
          "internalType": "uint256",
          "name": "",
          "type": "uint256"
        }
      ],
      "stateMutability": "view",
      "type": "function"
    },
    {
      "inputs": [],
      "name": "getRegistroMedico",
      "outputs": [
        {
          "components": [
            {
              "internalType": "uint256",
              "name": "id",
              "type": "uint256"
            },
            {
              "internalType": "address",
              "name": "codPrestadorServicioDeSalud",
              "type": "address"
            },
            {
              "internalType": "uint256",
              "name": "fechaRegistro",
              "type": "uint256"
            },
            {
              "internalType": "enum TipoRegistroMedico",
              "name": "tipoRegistroMedico",
              "type": "uint8"
            }
          ],
          "internalType": "struct RegistroMedico.RegistroMedicoStruct",
          "name": "",
          "type": "tuple"
        }
      ],
      "stateMutability": "view",
      "type": "function"
    },
    {
      "inputs": [],
      "name": "getTipoRegistroMedico",
      "outputs": [
        {
          "internalType": "enum TipoRegistroMedico",
          "name": "",
          "type": "uint8"
        }
      ],
      "stateMutability": "view",
      "type": "function"
    },
    {
      "inputs": [],
      "name": "selfDestruct",
      "outputs": [],
      "stateMutability": "nonpayable",
      "type": "function"
    },
    {
      "inputs": [
        {
          "internalType": "address",
          "name": "_codPrestadorServicioDeSalud",
          "type": "address"
        }
      ],
      "name": "setCodPrestadorServicioDeSalud",
      "outputs": [],
      "stateMutability": "nonpayable",
      "type": "function"
    },
    {
      "inputs": [
        {
          "internalType": "uint256",
          "name": "_fechaRegistro",
          "type": "uint256"
        }
      ],
      "name": "setFechaRegistro",
      "outputs": [],
      "stateMutability": "nonpayable",
      "type": "function"
    },
    {
      "inputs": [
        {
          "internalType": "uint256",
          "name": "_id",
          "type": "uint256"
        }
      ],
      "name": "setId",
      "outputs": [],
      "stateMutability": "nonpayable",
      "type": "function"
    },
    {
      "inputs": [
        {
          "components": [
            {
              "internalType": "uint256",
              "name": "id",
              "type": "uint256"
            },
            {
              "internalType": "address",
              "name": "codPrestadorServicioDeSalud",
              "type": "address"
            },
            {
              "internalType": "uint256",
              "name": "fechaRegistro",
              "type": "uint256"
            },
            {
              "internalType": "enum TipoRegistroMedico",
              "name": "tipoRegistroMedico",
              "type": "uint8"
            }
          ],
          "internalType": "struct RegistroMedico.RegistroMedicoStruct",
          "name": "registro",
          "type": "tuple"
        }
      ],
      "name": "setRegistroMedico",
      "outputs": [],
      "stateMutability": "nonpayable",
      "type": "function"
    },
    {
      "inputs": [
        {
          "internalType": "enum TipoRegistroMedico",
          "name": "_tipoRegistroMedico",
          "type": "uint8"
        }
      ],
      "name": "setTipoRegistroMedico",
      "outputs": [],
      "stateMutability": "nonpayable",
      "type": "function"
    },
    {
      "inputs": [],
      "name": "getDescripcionLabor",
      "outputs": [
        {
          "internalType": "string",
          "name": "",
          "type": "string"
        }
      ],
      "stateMutability": "view",
      "type": "function"
    },
    {
      "inputs": [],
      "name": "getActividadRealizada",
      "outputs": [
        {
          "internalType": "string",
          "name": "",
          "type": "string"
        }
      ],
      "stateMutability": "view",
      "type": "function"
    },
    {
      "inputs": [],
      "name": "getFechaInicio",
      "outputs": [
        {
          "internalType": "uint256",
          "name": "",
          "type": "uint256"
        }
      ],
      "stateMutability": "view",
      "type": "function"
    },
    {
      "inputs": [],
      "name": "getFechaRetiro",
      "outputs": [
        {
          "internalType": "uint256",
          "name": "",
          "type": "uint256"
        }
      ],
      "stateMutability": "view",
      "type": "function"
    },
    {
      "inputs": [],
      "name": "getAntecedenteLaboralStruct",
      "outputs": [
        {
          "components": [
            {
              "internalType": "string",
              "name": "descripcionLabor",
              "type": "string"
            },
            {
              "internalType": "string",
              "name": "actividadRealizada",
              "type": "string"
            },
            {
              "internalType": "uint256",
              "name": "fechaInicio",
              "type": "uint256"
            },
            {
              "internalType": "uint256",
              "name": "fechaRetiro",
              "type": "uint256"
            }
          ],
          "internalType": "struct AntecedenteLaboralVO.AntecedenteLaboralStruct",
          "name": "",
          "type": "tuple"
        }
      ],
      "stateMutability": "view",
      "type": "function"
    },
    {
      "inputs": [
        {
          "components": [
            {
              "internalType": "string",
              "name": "descripcionLabor",
              "type": "string"
            },
            {
              "internalType": "string",
              "name": "actividadRealizada",
              "type": "string"
            },
            {
              "internalType": "uint256",
              "name": "fechaInicio",
              "type": "uint256"
            },
            {
              "internalType": "uint256",
              "name": "fechaRetiro",
              "type": "uint256"
            }
          ],
          "internalType": "struct AntecedenteLaboralVO.AntecedenteLaboralStruct",
          "name": "_antecedenteLaboralStruct",
          "type": "tuple"
        }
      ],
      "name": "setAntecedenteLaboralStruct",
      "outputs": [],
      "stateMutability": "nonpayable",
      "type": "function"
    },
    {
      "inputs": [
        {
          "internalType": "string",
          "name": "_descripcionLabor",
          "type": "string"
        }
      ],
      "name": "setDescripcionLabor",
      "outputs": [],
      "stateMutability": "nonpayable",
      "type": "function"
    },
    {
      "inputs": [
        {
          "internalType": "string",
          "name": "_actividadRealizada",
          "type": "string"
        }
      ],
      "name": "setActividadRealizada",
      "outputs": [],
      "stateMutability": "nonpayable",
      "type": "function"
    },
    {
      "inputs": [
        {
          "internalType": "uint256",
          "name": "_fechaInicio",
          "type": "uint256"
        }
      ],
      "name": "setFechaInicio",
      "outputs": [],
      "stateMutability": "nonpayable",
      "type": "function"
    },
    {
      "inputs": [
        {
          "internalType": "uint256",
          "name": "_fechaRetiro",
          "type": "uint256"
        }
      ],
      "name": "setFechaRetiro",
      "outputs": [],
      "stateMutability": "nonpayable",
      "type": "function"
    }
  ],
  "bytecode": "0x608060405234801561001057600080fd5b506004805460ff19166001179055610ceb8061002d6000396000f3fe608060405234801561001057600080fd5b50600436106101825760003560e01c806393be08ef116100d8578063d0e0ba951161008c578063e40fe6df11610066578063e40fe6df1461031b578063e9f25aa014610323578063f5a4746d1461032b57600080fd5b8063d0e0ba95146102e2578063d28564fc146102f5578063dc4cf7ec1461030857600080fd5b8063a204b7c9116100bd578063a204b7c9146102a9578063b5ea5e9d146102bc578063ca3c5a13146102cf57600080fd5b806393be08ef146102905780639cb8a26a146102a157600080fd5b806344517a9a1161013a5780636c9f31e9116101145780636c9f31e914610213578063803a56ec1461022857806392ebdcd21461026557600080fd5b806344517a9a146101e35780634780cd44146101f65780635d1ca6311461020b57600080fd5b80631b59abb91161016b5780631b59abb9146101b357806327f074cf146101bb5780632e5a14ba146101d057600080fd5b80630b81e9e5146101875780630bcacc1b1461019e575b600080fd5b6007545b6040519081526020015b60405180910390f35b6101a661033e565b60405161019591906107c2565b60035461018b565b6101ce6101c9366004610804565b600355565b005b6101ce6101de3660046108e9565b6103b3565b60045460ff166040516101959190610991565b6101fe6103f5565b60405161019591906109eb565b60015461018b565b61021b61056a565b6040516101959190610a45565b6101ce610236366004610a7b565b6002805473ffffffffffffffffffffffffffffffffffffffff19166001600160a01b0392909216919091179055565b600054610278906001600160a01b031681565b6040516001600160a01b039091168152602001610195565b6002546001600160a01b0316610278565b6101ce6105ff565b6101ce6102b7366004610aa5565b6106d1565b6101ce6102ca366004610804565b600855565b6101ce6102dd366004610b14565b61073d565b6101ce6102f0366004610804565b600155565b6101ce610303366004610b2f565b61075c565b6101ce610316366004610804565b600755565b61021b61076c565b60085461018b565b6101ce610339366004610b2f565b61077e565b6103666040805160808101825260008082526020820181905291810182905290606082015290565b6040805160808101825260015481526002546001600160a01b0316602082015260035491810191909152600454606082019060ff1660128111156103ac576103ac61078a565b9052919050565b8051819060059081906103c69082610bf5565b50602082015160018201906103db9082610bf5565b506040820151600282015560609091015160039091015550565b6104206040518060800160405280606081526020016060815260200160008152602001600081525090565b600560405180608001604052908160008201805461043d90610b6c565b80601f016020809104026020016040519081016040528092919081815260200182805461046990610b6c565b80156104b65780601f1061048b576101008083540402835291602001916104b6565b820191906000526020600020905b81548152906001019060200180831161049957829003601f168201915b505050505081526020016001820180546104cf90610b6c565b80601f01602080910402602001604051908101604052809291908181526020018280546104fb90610b6c565b80156105485780601f1061051d57610100808354040283529160200191610548565b820191906000526020600020905b81548152906001019060200180831161052b57829003601f168201915b5050505050815260200160028201548152602001600382015481525050905090565b60606005600101805461057c90610b6c565b80601f01602080910402602001604051908101604052809291908181526020018280546105a890610b6c565b80156105f55780601f106105ca576101008083540402835291602001916105f5565b820191906000526020600020905b8154815290600101906020018083116105d857829003601f168201915b5050505050905090565b6000546001600160a01b031633146106c3576040517f08c379a000000000000000000000000000000000000000000000000000000000815260206004820152604160248201527f457374612066756e63696f6e20736f6c6f2070756564652073657220656a656360448201527f757461646120706f7220656c2063726561646f722064656c20636f6e7472617460648201527f6f00000000000000000000000000000000000000000000000000000000000000608482015260a40160405180910390fd5b6000546001600160a01b0316ff5b8051600190815560208201516002805473ffffffffffffffffffffffffffffffffffffffff19166001600160a01b0390921691909117905560408201516003556060820151600480549192909160ff1916908360128111156107355761073561078a565b021790555050565b6004805482919060ff191660018360128111156107355761073561078a565b60056107688282610bf5565b5050565b60606005600001805461057c90610b6c565b60066107688282610bf5565b634e487b7160e01b600052602160045260246000fd5b601381106107be57634e487b7160e01b600052602160045260246000fd5b9052565b6000608082019050825182526001600160a01b0360208401511660208301526040830151604083015260608301516107fd60608401826107a0565b5092915050565b60006020828403121561081657600080fd5b5035919050565b634e487b7160e01b600052604160045260246000fd5b6040516080810167ffffffffffffffff811182821017156108565761085661081d565b60405290565b600082601f83011261086d57600080fd5b813567ffffffffffffffff808211156108885761088861081d565b604051601f8301601f19908116603f011681019082821181831017156108b0576108b061081d565b816040528381528660208588010111156108c957600080fd5b836020870160208301376000602085830101528094505050505092915050565b6000602082840312156108fb57600080fd5b813567ffffffffffffffff8082111561091357600080fd5b908301906080828603121561092757600080fd5b61092f610833565b82358281111561093e57600080fd5b61094a8782860161085c565b82525060208301358281111561095f57600080fd5b61096b8782860161085c565b602083015250604083013560408201526060830135606082015280935050505092915050565b6020810161099f82846107a0565b92915050565b6000815180845260005b818110156109cb576020818501810151868301820152016109af565b506000602082860101526020601f19601f83011685010191505092915050565b602081526000825160806020840152610a0760a08401826109a5565b90506020840151601f19848303016040850152610a2482826109a5565b91505060408401516060840152606084015160808401528091505092915050565b602081526000610a5860208301846109a5565b9392505050565b80356001600160a01b0381168114610a7657600080fd5b919050565b600060208284031215610a8d57600080fd5b610a5882610a5f565b803560138110610a7657600080fd5b600060808284031215610ab757600080fd5b6040516080810181811067ffffffffffffffff82111715610ada57610ada61081d565b60405282358152610aed60208401610a5f565b602082015260408301356040820152610b0860608401610a96565b60608201529392505050565b600060208284031215610b2657600080fd5b610a5882610a96565b600060208284031215610b4157600080fd5b813567ffffffffffffffff811115610b5857600080fd5b610b648482850161085c565b949350505050565b600181811c90821680610b8057607f821691505b602082108103610ba057634e487b7160e01b600052602260045260246000fd5b50919050565b601f821115610bf057600081815260208120601f850160051c81016020861015610bcd5750805b601f850160051c820191505b81811015610bec57828155600101610bd9565b5050505b505050565b815167ffffffffffffffff811115610c0f57610c0f61081d565b610c2381610c1d8454610b6c565b84610ba6565b602080601f831160018114610c585760008415610c405750858301515b600019600386901b1c1916600185901b178555610bec565b600085815260208120601f198616915b82811015610c8757888601518255948401946001909101908401610c68565b5085821015610ca55787850151600019600388901b60f8161c191681555b5050505050600190811b0190555056fea26469706673582212200feed115d6d8cdd9dc34d43674c2b44fb7a64be6ede5efc85fb59e6a2b5d8a2d64736f6c63430008110033",
  "immutableReferences": {},
  "source": "// SPDX-License-Identifier: MIT\npragma solidity ^0.8.17;\n\nimport \"./RegistroMedico.sol\";\n\n//import \"./structsGenerales/DatosPersonalesStruct.sol\";\n\ncontract AntecedenteLaboralVO is RegistroMedico (TipoRegistroMedico.ANTECEDENTELABORALVO){\n    struct AntecedenteLaboralStruct {\n        string descripcionLabor;\n        string actividadRealizada;\n        uint256 fechaInicio;\n        uint256 fechaRetiro;\n    }\n\n    AntecedenteLaboralStruct private antecedenteLaboralStruct;\n\n    function getDescripcionLabor() public view returns (string memory) {\n        return antecedenteLaboralStruct.descripcionLabor;\n    }\n\n    function getActividadRealizada() public view returns (string memory) {\n        return antecedenteLaboralStruct.actividadRealizada;\n    }\n\n    function getFechaInicio() public view returns (uint256) {\n        return antecedenteLaboralStruct.fechaInicio;\n    }\n\n    function getFechaRetiro() public view returns (uint256) {\n        return antecedenteLaboralStruct.fechaRetiro;\n    }\n\n    function getAntecedenteLaboralStruct()\n        public\n        view\n        returns (AntecedenteLaboralStruct memory)\n    {\n        return antecedenteLaboralStruct;\n    }\n\n    function setAntecedenteLaboralStruct(\n        AntecedenteLaboralStruct memory _antecedenteLaboralStruct\n    ) public {\n        antecedenteLaboralStruct = _antecedenteLaboralStruct;\n    }\n\n    function setDescripcionLabor(string memory _descripcionLabor) public {\n        antecedenteLaboralStruct.descripcionLabor = _descripcionLabor;\n    }\n\n    function setActividadRealizada(string memory _actividadRealizada) public {\n        antecedenteLaboralStruct.actividadRealizada = _actividadRealizada;\n    }\n\n    function setFechaInicio(uint256 _fechaInicio) public {\n        antecedenteLaboralStruct.fechaInicio = _fechaInicio;\n    }\n\n    function setFechaRetiro(uint256 _fechaRetiro) public {\n        antecedenteLaboralStruct.fechaRetiro = _fechaRetiro;\n    }\n}\n",
  "sourcePath": "/home/felipe/Documentos/Blockchain/codigo/HCE-full/back-hce/contracts/models/historiaClinica/AntecedenteLaboralVO.sol",
  "compiler": {
    "name": "solc",
    "version": "0.8.17+commit.8df45f5f.Emscripten.clang"
  },
  "schemaVersion": "3.4.8",
  "updatedAt": "2023-04-05T22:10:23.011Z",
  "devdoc": {
    "kind": "dev",
    "methods": {},
    "version": 1
  },
  "userdoc": {
    "kind": "user",
    "methods": {},
    "version": 1
  }
}