{
  "contractName": "AnticonceptivoVO",
  "abi": [
    {
      "inputs": [],
      "name": "creador",
      "outputs": [
        {
          "internalType": "address",
          "name": "",
          "type": "address"
        }
      ],
      "stateMutability": "view",
      "type": "function"
    },
    {
      "inputs": [],
      "name": "getCodPrestadorServicioDeSalud",
      "outputs": [
        {
          "internalType": "address",
          "name": "",
          "type": "address"
        }
      ],
      "stateMutability": "view",
      "type": "function"
    },
    {
      "inputs": [],
      "name": "getFechaRegistro",
      "outputs": [
        {
          "internalType": "int256",
          "name": "",
          "type": "int256"
        }
      ],
      "stateMutability": "view",
      "type": "function"
    },
    {
      "inputs": [],
      "name": "getId",
      "outputs": [
        {
          "internalType": "uint256",
          "name": "",
          "type": "uint256"
        }
      ],
      "stateMutability": "view",
      "type": "function"
    },
    {
      "inputs": [],
      "name": "getRegistroMedico",
      "outputs": [
        {
          "components": [
            {
              "internalType": "uint256",
              "name": "id",
              "type": "uint256"
            },
            {
              "internalType": "address",
              "name": "codPrestadorServicioDeSalud",
              "type": "address"
            },
            {
              "internalType": "int256",
              "name": "fechaRegistro",
              "type": "int256"
            },
            {
              "internalType": "enum TipoRegistroMedico",
              "name": "tipoRegistroMedico",
              "type": "uint8"
            }
          ],
          "internalType": "struct RegistroMedico.RegistroMedicoStruct",
          "name": "",
          "type": "tuple"
        }
      ],
      "stateMutability": "view",
      "type": "function"
    },
    {
      "inputs": [],
      "name": "getTipoRegistroMedico",
      "outputs": [
        {
          "internalType": "enum TipoRegistroMedico",
          "name": "",
          "type": "uint8"
        }
      ],
      "stateMutability": "view",
      "type": "function"
    },
    {
      "inputs": [],
      "name": "selfDestruct",
      "outputs": [],
      "stateMutability": "nonpayable",
      "type": "function"
    },
    {
      "inputs": [
        {
          "internalType": "address",
          "name": "_codPrestadorServicioDeSalud",
          "type": "address"
        }
      ],
      "name": "setCodPrestadorServicioDeSalud",
      "outputs": [],
      "stateMutability": "nonpayable",
      "type": "function"
    },
    {
      "inputs": [
        {
          "internalType": "int256",
          "name": "_fechaRegistro",
          "type": "int256"
        }
      ],
      "name": "setFechaRegistro",
      "outputs": [],
      "stateMutability": "nonpayable",
      "type": "function"
    },
    {
      "inputs": [
        {
          "internalType": "uint256",
          "name": "_id",
          "type": "uint256"
        }
      ],
      "name": "setId",
      "outputs": [],
      "stateMutability": "nonpayable",
      "type": "function"
    },
    {
      "inputs": [
        {
          "components": [
            {
              "internalType": "uint256",
              "name": "id",
              "type": "uint256"
            },
            {
              "internalType": "address",
              "name": "codPrestadorServicioDeSalud",
              "type": "address"
            },
            {
              "internalType": "int256",
              "name": "fechaRegistro",
              "type": "int256"
            },
            {
              "internalType": "enum TipoRegistroMedico",
              "name": "tipoRegistroMedico",
              "type": "uint8"
            }
          ],
          "internalType": "struct RegistroMedico.RegistroMedicoStruct",
          "name": "registro",
          "type": "tuple"
        }
      ],
      "name": "setRegistroMedico",
      "outputs": [],
      "stateMutability": "nonpayable",
      "type": "function"
    },
    {
      "inputs": [
        {
          "internalType": "enum TipoRegistroMedico",
          "name": "_tipoRegistroMedico",
          "type": "uint8"
        }
      ],
      "name": "setTipoRegistroMedico",
      "outputs": [],
      "stateMutability": "nonpayable",
      "type": "function"
    },
    {
      "inputs": [],
      "name": "getAnticonceptivoStruct",
      "outputs": [
        {
          "components": [
            {
              "internalType": "string",
              "name": "descripcion",
              "type": "string"
            },
            {
              "internalType": "string",
              "name": "efectividad",
              "type": "string"
            },
            {
              "internalType": "string",
              "name": "nombre",
              "type": "string"
            }
          ],
          "internalType": "struct AnticonceptivoVO.AnticonceptivoStruct",
          "name": "",
          "type": "tuple"
        }
      ],
      "stateMutability": "view",
      "type": "function"
    },
    {
      "inputs": [
        {
          "components": [
            {
              "internalType": "string",
              "name": "descripcion",
              "type": "string"
            },
            {
              "internalType": "string",
              "name": "efectividad",
              "type": "string"
            },
            {
              "internalType": "string",
              "name": "nombre",
              "type": "string"
            }
          ],
          "internalType": "struct AnticonceptivoVO.AnticonceptivoStruct",
          "name": "_anticonceptivoStruct",
          "type": "tuple"
        }
      ],
      "name": "setAnticonceptivoStruct",
      "outputs": [],
      "stateMutability": "nonpayable",
      "type": "function"
    },
    {
      "inputs": [],
      "name": "getDescripcion",
      "outputs": [
        {
          "internalType": "string",
          "name": "",
          "type": "string"
        }
      ],
      "stateMutability": "view",
      "type": "function"
    },
    {
      "inputs": [],
      "name": "getEfectividad",
      "outputs": [
        {
          "internalType": "string",
          "name": "",
          "type": "string"
        }
      ],
      "stateMutability": "view",
      "type": "function"
    },
    {
      "inputs": [],
      "name": "getNombre",
      "outputs": [
        {
          "internalType": "string",
          "name": "",
          "type": "string"
        }
      ],
      "stateMutability": "view",
      "type": "function"
    },
    {
      "inputs": [
        {
          "internalType": "string",
          "name": "_descripcion",
          "type": "string"
        }
      ],
      "name": "setDescripcion",
      "outputs": [],
      "stateMutability": "nonpayable",
      "type": "function"
    },
    {
      "inputs": [
        {
          "internalType": "string",
          "name": "_efectividad",
          "type": "string"
        }
      ],
      "name": "setEfectividad",
      "outputs": [],
      "stateMutability": "nonpayable",
      "type": "function"
    },
    {
      "inputs": [
        {
          "internalType": "string",
          "name": "_nombre",
          "type": "string"
        }
      ],
      "name": "setNombre",
      "outputs": [],
      "stateMutability": "nonpayable",
      "type": "function"
    }
  ],
  "bytecode": "0x608060405234801561001057600080fd5b506004805460ff19166012179055610d678061002d6000396000f3fe608060405234801561001057600080fd5b506004361061016b5760003560e01c8063803a56ec116100cd578063ca3c5a1311610081578063d45795cb11610066578063d45795cb146102ed578063d75cbf9b14610300578063f9a9ff9d1461030857600080fd5b8063ca3c5a13146102c7578063d0e0ba95146102da57600080fd5b806393be08ef116100b257806393be08ef1461029b5780639cb8a26a146102ac578063bcd3dca2146102b457600080fd5b8063803a56ec1461023357806392ebdcd21461027057600080fd5b80633bd4858a116101245780635d1ca631116101095780635d1ca631146102055780635f3774d41461020d5780636be0994a1461022057600080fd5b80633bd4858a146101dd57806344517a9a146101f257600080fd5b80630bcacc1b116101555780630bcacc1b146101985780631195748b146101b65780631b59abb9146101cb57600080fd5b806202736b14610170578063045c7bbe14610185575b600080fd5b61018361017e3660046108be565b610310565b005b6101836101933660046108fb565b600355565b6101a0610320565b6040516101ad919061094c565b60405180910390f35b6101be610395565b6040516101ad91906109d4565b6003545b6040519081526020016101ad565b6101e5610581565b6040516101ad9190610a35565b60045460ff166040516101ad9190610a4f565b6001546101cf565b61018361021b366004610a8e565b610616565b61018361022e3660046108be565b610682565b610183610241366004610afd565b6002805473ffffffffffffffffffffffffffffffffffffffff19166001600160a01b0392909216919091179055565b600054610283906001600160a01b031681565b6040516001600160a01b0390911681526020016101ad565b6002546001600160a01b0316610283565b61018361068e565b6101836102c2366004610b18565b610760565b6101836102d5366004610bcd565b6107a3565b6101836102e83660046108fb565b600155565b6101836102fb3660046108be565b6107c2565b6101e56107ce565b6101e56107e0565b600761031c8282610c71565b5050565b6103486040805160808101825260008082526020820181905291810182905290606082015290565b6040805160808101825260015481526002546001600160a01b0316602082015260035491810191909152600454606082019060ff16601281111561038e5761038e610914565b9052919050565b6103b960405180606001604052806060815260200160608152602001606081525090565b60056040518060600160405290816000820180546103d690610be8565b80601f016020809104026020016040519081016040528092919081815260200182805461040290610be8565b801561044f5780601f106104245761010080835404028352916020019161044f565b820191906000526020600020905b81548152906001019060200180831161043257829003601f168201915b5050505050815260200160018201805461046890610be8565b80601f016020809104026020016040519081016040528092919081815260200182805461049490610be8565b80156104e15780601f106104b6576101008083540402835291602001916104e1565b820191906000526020600020905b8154815290600101906020018083116104c457829003601f168201915b505050505081526020016002820180546104fa90610be8565b80601f016020809104026020016040519081016040528092919081815260200182805461052690610be8565b80156105735780601f1061054857610100808354040283529160200191610573565b820191906000526020600020905b81548152906001019060200180831161055657829003601f168201915b505050505081525050905090565b60606005600101805461059390610be8565b80601f01602080910402602001604051908101604052809291908181526020018280546105bf90610be8565b801561060c5780601f106105e15761010080835404028352916020019161060c565b820191906000526020600020905b8154815290600101906020018083116105ef57829003601f168201915b5050505050905090565b8051600190815560208201516002805473ffffffffffffffffffffffffffffffffffffffff19166001600160a01b0390921691909117905560408201516003556060820151600480549192909160ff19169083601281111561067a5761067a610914565b021790555050565b600661031c8282610c71565b6000546001600160a01b03163314610752576040517f08c379a000000000000000000000000000000000000000000000000000000000815260206004820152604160248201527f457374612066756e63696f6e20736f6c6f2070756564652073657220656a656360448201527f757461646120706f7220656c2063726561646f722064656c20636f6e7472617460648201527f6f00000000000000000000000000000000000000000000000000000000000000608482015260a40160405180910390fd5b6000546001600160a01b0316ff5b8051819060059081906107739082610c71565b50602082015160018201906107889082610c71565b506040820151600282019061079d9082610c71565b50505050565b6004805482919060ff1916600183601281111561067a5761067a610914565b600561031c8282610c71565b60606005600201805461059390610be8565b60606005600001805461059390610be8565b634e487b7160e01b600052604160045260246000fd5b6040516060810167ffffffffffffffff8111828210171561082b5761082b6107f2565b60405290565b600082601f83011261084257600080fd5b813567ffffffffffffffff8082111561085d5761085d6107f2565b604051601f8301601f19908116603f01168101908282118183101715610885576108856107f2565b8160405283815286602085880101111561089e57600080fd5b836020870160208301376000602085830101528094505050505092915050565b6000602082840312156108d057600080fd5b813567ffffffffffffffff8111156108e757600080fd5b6108f384828501610831565b949350505050565b60006020828403121561090d57600080fd5b5035919050565b634e487b7160e01b600052602160045260246000fd5b6013811061094857634e487b7160e01b600052602160045260246000fd5b9052565b6000608082019050825182526001600160a01b036020840151166020830152604083015160408301526060830151610987606084018261092a565b5092915050565b6000815180845260005b818110156109b457602081850181015186830182015201610998565b506000602082860101526020601f19601f83011685010191505092915050565b6020815260008251606060208401526109f0608084018261098e565b90506020840151601f1980858403016040860152610a0e838361098e565b9250604086015191508085840301606086015250610a2c828261098e565b95945050505050565b602081526000610a48602083018461098e565b9392505050565b60208101610a5d828461092a565b92915050565b80356001600160a01b0381168114610a7a57600080fd5b919050565b803560138110610a7a57600080fd5b600060808284031215610aa057600080fd5b6040516080810181811067ffffffffffffffff82111715610ac357610ac36107f2565b60405282358152610ad660208401610a63565b602082015260408301356040820152610af160608401610a7f565b60608201529392505050565b600060208284031215610b0f57600080fd5b610a4882610a63565b600060208284031215610b2a57600080fd5b813567ffffffffffffffff80821115610b4257600080fd5b9083019060608286031215610b5657600080fd5b610b5e610808565b823582811115610b6d57600080fd5b610b7987828601610831565b825250602083013582811115610b8e57600080fd5b610b9a87828601610831565b602083015250604083013582811115610bb257600080fd5b610bbe87828601610831565b60408301525095945050505050565b600060208284031215610bdf57600080fd5b610a4882610a7f565b600181811c90821680610bfc57607f821691505b602082108103610c1c57634e487b7160e01b600052602260045260246000fd5b50919050565b601f821115610c6c57600081815260208120601f850160051c81016020861015610c495750805b601f850160051c820191505b81811015610c6857828155600101610c55565b5050505b505050565b815167ffffffffffffffff811115610c8b57610c8b6107f2565b610c9f81610c998454610be8565b84610c22565b602080601f831160018114610cd45760008415610cbc5750858301515b600019600386901b1c1916600185901b178555610c68565b600085815260208120601f198616915b82811015610d0357888601518255948401946001909101908401610ce4565b5085821015610d215787850151600019600388901b60f8161c191681555b5050505050600190811b0190555056fea2646970667358221220e4b3b0d3b6589ee5ab412562f17b0356e7b38a5cdd2f7439dbc247de658fe9bc64736f6c63430008110033",
  "immutableReferences": {},
  "source": "// SPDX-License-Identifier: MIT\npragma solidity ^0.8.17;\n\nimport \"./RegistroMedico.sol\";\nimport \"../structsGenerales/IncapacidadStruct.sol\";\nimport \"../structsGenerales/ExploracionPorRegionesStruct.sol\";\nimport \"../structsGenerales/ExploracionPorSistemasStruct.sol\";\n\n//import \"./structsGenerales/DatosPersonalesStruct.sol\";\n\ncontract AnticonceptivoVO is RegistroMedico (TipoRegistroMedico.ANTICONCEPTIVO) {\n    struct AnticonceptivoStruct {\n        string descripcion;\n        string efectividad;\n        string nombre;\n    }\n\n    AnticonceptivoStruct private anticonceptivoStruct;\n\n    function getAnticonceptivoStruct()\n        public\n        view\n        returns (AnticonceptivoStruct memory)\n    {\n        return anticonceptivoStruct;\n    }\n\n    function setAnticonceptivoStruct(\n        AnticonceptivoStruct memory _anticonceptivoStruct\n    ) public {\n        anticonceptivoStruct = _anticonceptivoStruct;\n    }\n\n    function getDescripcion() public view returns (string memory) {\n        return anticonceptivoStruct.descripcion;\n    }\n\n    function getEfectividad() public view returns (string memory) {\n        return anticonceptivoStruct.efectividad;\n    }\n\n    function getNombre() public view returns (string memory) {\n        return anticonceptivoStruct.nombre;\n    }\n\n    function setDescripcion(string memory _descripcion) public {\n        anticonceptivoStruct.descripcion = _descripcion;\n    }\n\n    function setEfectividad(string memory _efectividad) public {\n        anticonceptivoStruct.efectividad = _efectividad;\n    }\n\n    function setNombre(string memory _nombre) public {\n        anticonceptivoStruct.nombre = _nombre;\n    }\n}",
  "sourcePath": "/back/contracts/models/historiaClinica/AnticonceptivoVO.sol",
  "compiler": {
    "name": "solc",
    "version": "0.8.17+commit.8df45f5f.Emscripten.clang"
  },
  "schemaVersion": "3.4.11",
  "updatedAt": "2023-05-03T04:13:43.019Z",
  "devdoc": {
    "kind": "dev",
    "methods": {},
    "version": 1
  },
  "userdoc": {
    "kind": "user",
    "methods": {},
    "version": 1
  }
}