{
  "contractName": "AseguradoraVO",
  "abi": [
    {
      "inputs": [],
      "name": "getAseguradoraVOValue",
      "outputs": [
        {
          "components": [
            {
              "internalType": "uint256",
              "name": "id",
              "type": "uint256"
            },
            {
              "internalType": "string",
              "name": "nombre",
              "type": "string"
            },
            {
              "internalType": "bool",
              "name": "estaActivo",
              "type": "bool"
            }
          ],
          "internalType": "struct AseguradoraVO.AseguradoraVOStruct",
          "name": "",
          "type": "tuple"
        }
      ],
      "stateMutability": "view",
      "type": "function"
    },
    {
      "inputs": [
        {
          "components": [
            {
              "internalType": "uint256",
              "name": "id",
              "type": "uint256"
            },
            {
              "internalType": "string",
              "name": "nombre",
              "type": "string"
            },
            {
              "internalType": "bool",
              "name": "estaActivo",
              "type": "bool"
            }
          ],
          "internalType": "struct AseguradoraVO.AseguradoraVOStruct",
          "name": "aseguradoraVOStruct",
          "type": "tuple"
        }
      ],
      "name": "setValueOfAseguradoraVOStruct",
      "outputs": [],
      "stateMutability": "nonpayable",
      "type": "function"
    },
    {
      "inputs": [],
      "name": "getId",
      "outputs": [
        {
          "internalType": "uint256",
          "name": "",
          "type": "uint256"
        }
      ],
      "stateMutability": "view",
      "type": "function"
    },
    {
      "inputs": [],
      "name": "getNombre",
      "outputs": [
        {
          "internalType": "string",
          "name": "",
          "type": "string"
        }
      ],
      "stateMutability": "view",
      "type": "function"
    },
    {
      "inputs": [],
      "name": "getEstaActivo",
      "outputs": [
        {
          "internalType": "bool",
          "name": "",
          "type": "bool"
        }
      ],
      "stateMutability": "view",
      "type": "function"
    },
    {
      "inputs": [
        {
          "internalType": "string",
          "name": "_nombre",
          "type": "string"
        }
      ],
      "name": "setNombre",
      "outputs": [],
      "stateMutability": "nonpayable",
      "type": "function"
    },
    {
      "inputs": [
        {
          "internalType": "bool",
          "name": "_estaActivo",
          "type": "bool"
        }
      ],
      "name": "setEstaActivo",
      "outputs": [],
      "stateMutability": "nonpayable",
      "type": "function"
    },
    {
      "inputs": [
        {
          "internalType": "uint256",
          "name": "_id",
          "type": "uint256"
        }
      ],
      "name": "setId",
      "outputs": [],
      "stateMutability": "nonpayable",
      "type": "function"
    }
  ],
  "bytecode": "0x608060405234801561001057600080fd5b506106cd806100206000396000f3fe608060405234801561001057600080fd5b50600436106100875760003560e01c8063b3199bcd1161005b578063b3199bcd146100e2578063d0e0ba95146100f5578063d75cbf9b14610108578063fdaef4831461011d57600080fd5b806202736b1461008c5780635d1ca631146100a157806395ac1755146100b7578063af995846146100cc575b600080fd5b61009f61009a36600461038c565b61013e565b005b6000546040519081526020015b60405180910390f35b6100bf61014e565b6040516100ae919061040f565b60025460ff1660405190151581526020016100ae565b61009f6100f0366004610462565b610228565b61009f610103366004610500565b600055565b610110610257565b6040516100ae9190610519565b61009f61012b366004610533565b6002805460ff1916911515919091179055565b600161014a82826105d7565b5050565b610174604051806060016040528060008152602001606081526020016000151581525090565b60405180606001604052806000548152602001600180546101949061054e565b80601f01602080910402602001604051908101604052809291908181526020018280546101c09061054e565b801561020d5780601f106101e25761010080835404028352916020019161020d565b820191906000526020600020905b8154815290600101906020018083116101f057829003601f168201915b505050918352505060025460ff161515602090910152919050565b8051600055602081015160019061023f90826105d7565b50604001516002805460ff1916911515919091179055565b6060600180546102669061054e565b80601f01602080910402602001604051908101604052809291908181526020018280546102929061054e565b80156102df5780601f106102b4576101008083540402835291602001916102df565b820191906000526020600020905b8154815290600101906020018083116102c257829003601f168201915b5050505050905090565b634e487b7160e01b600052604160045260246000fd5b600082601f83011261031057600080fd5b813567ffffffffffffffff8082111561032b5761032b6102e9565b604051601f8301601f19908116603f01168101908282118183101715610353576103536102e9565b8160405283815286602085880101111561036c57600080fd5b836020870160208301376000602085830101528094505050505092915050565b60006020828403121561039e57600080fd5b813567ffffffffffffffff8111156103b557600080fd5b6103c1848285016102ff565b949350505050565b6000815180845260005b818110156103ef576020818501810151868301820152016103d3565b506000602082860101526020601f19601f83011685010191505092915050565b6020815281516020820152600060208301516060604084015261043560808401826103c9565b90506040840151151560608401528091505092915050565b8035801515811461045d57600080fd5b919050565b60006020828403121561047457600080fd5b813567ffffffffffffffff8082111561048c57600080fd5b90830190606082860312156104a057600080fd5b6040516060810181811083821117156104bb576104bb6102e9565b604052823581526020830135828111156104d457600080fd5b6104e0878286016102ff565b6020830152506104f26040840161044d565b604082015295945050505050565b60006020828403121561051257600080fd5b5035919050565b60208152600061052c60208301846103c9565b9392505050565b60006020828403121561054557600080fd5b61052c8261044d565b600181811c9082168061056257607f821691505b60208210810361058257634e487b7160e01b600052602260045260246000fd5b50919050565b601f8211156105d257600081815260208120601f850160051c810160208610156105af5750805b601f850160051c820191505b818110156105ce578281556001016105bb565b5050505b505050565b815167ffffffffffffffff8111156105f1576105f16102e9565b610605816105ff845461054e565b84610588565b602080601f83116001811461063a57600084156106225750858301515b600019600386901b1c1916600185901b1785556105ce565b600085815260208120601f198616915b828110156106695788860151825594840194600190910190840161064a565b50858210156106875787850151600019600388901b60f8161c191681555b5050505050600190811b0190555056fea264697066735822122010e2f26a8c4ecc19fc0a3bca636c0ba4488f5191476be03d9eaf68d8e17e1ac164736f6c63430008110033",
  "immutableReferences": {},
  "source": "// SPDX-License-Identifier: MIT\npragma solidity ^0.8.17;\n\ncontract AseguradoraVO {\n    uint256 private id;\n    string private nombre;\n    bool private estaActivo;\n   \n    struct AseguradoraVOStruct {\n        uint256 id;\n        string nombre;\n        bool estaActivo;\n    }\n\n    function getAseguradoraVOValue()\n        public\n        view\n        returns (AseguradoraVOStruct memory)\n    {\n        return AseguradoraVOStruct(id, nombre, estaActivo);\n    }\n\n    function setValueOfAseguradoraVOStruct(\n        AseguradoraVOStruct memory aseguradoraVOStruct\n    ) public {\n        id = aseguradoraVOStruct.id;\n        nombre = aseguradoraVOStruct.nombre;\n        estaActivo = aseguradoraVOStruct.estaActivo;\n    }\n\n    function getId() public view returns (uint256) {\n        return id;\n    }\n\n    function getNombre() public view returns (string memory) {\n        return nombre;\n    }\n\n    function getEstaActivo() public view returns (bool) {\n        return estaActivo;\n    }\n\n    function setNombre(string memory _nombre) public {\n        nombre = _nombre;\n    }\n\n    function setEstaActivo(bool _estaActivo) public {\n        estaActivo= _estaActivo;\n    }\n\n    function setId(uint256 _id) public {\n        id = _id;\n    }\n}\n",
  "sourcePath": "/back/contracts/models/VOGenerales/AseguradoraVO.sol",
  "compiler": {
    "name": "solc",
    "version": "0.8.17+commit.8df45f5f.Emscripten.clang"
  },
  "schemaVersion": "3.4.11",
  "updatedAt": "2023-06-12T22:38:51.903Z",
  "devdoc": {
    "kind": "dev",
    "methods": {},
    "version": 1
  },
  "userdoc": {
    "kind": "user",
    "methods": {},
    "version": 1
  }
}