{
  "contractName": "AtencionUrgenciasVO",
  "abi": [
    {
      "inputs": [],
      "name": "creador",
      "outputs": [
        {
          "internalType": "address",
          "name": "",
          "type": "address"
        }
      ],
      "stateMutability": "view",
      "type": "function"
    },
    {
      "inputs": [],
      "name": "getCodPrestadorServicioDeSalud",
      "outputs": [
        {
          "internalType": "address",
          "name": "",
          "type": "address"
        }
      ],
      "stateMutability": "view",
      "type": "function"
    },
    {
      "inputs": [],
      "name": "getFechaRegistro",
      "outputs": [
        {
          "internalType": "uint256",
          "name": "",
          "type": "uint256"
        }
      ],
      "stateMutability": "view",
      "type": "function"
    },
    {
      "inputs": [],
      "name": "getId",
      "outputs": [
        {
          "internalType": "uint256",
          "name": "",
          "type": "uint256"
        }
      ],
      "stateMutability": "view",
      "type": "function"
    },
    {
      "inputs": [],
      "name": "getRegistroMedico",
      "outputs": [
        {
          "components": [
            {
              "internalType": "uint256",
              "name": "id",
              "type": "uint256"
            },
            {
              "internalType": "address",
              "name": "codPrestadorServicioDeSalud",
              "type": "address"
            },
            {
              "internalType": "uint256",
              "name": "fechaRegistro",
              "type": "uint256"
            },
            {
              "internalType": "enum TipoRegistroMedico",
              "name": "tipoRegistroMedico",
              "type": "uint8"
            }
          ],
          "internalType": "struct RegistroMedico.RegistroMedicoStruct",
          "name": "",
          "type": "tuple"
        }
      ],
      "stateMutability": "view",
      "type": "function"
    },
    {
      "inputs": [],
      "name": "getTipoRegistroMedico",
      "outputs": [
        {
          "internalType": "enum TipoRegistroMedico",
          "name": "",
          "type": "uint8"
        }
      ],
      "stateMutability": "view",
      "type": "function"
    },
    {
      "inputs": [],
      "name": "selfDestruct",
      "outputs": [],
      "stateMutability": "nonpayable",
      "type": "function"
    },
    {
      "inputs": [
        {
          "internalType": "address",
          "name": "_codPrestadorServicioDeSalud",
          "type": "address"
        }
      ],
      "name": "setCodPrestadorServicioDeSalud",
      "outputs": [],
      "stateMutability": "nonpayable",
      "type": "function"
    },
    {
      "inputs": [
        {
          "internalType": "uint256",
          "name": "_fechaRegistro",
          "type": "uint256"
        }
      ],
      "name": "setFechaRegistro",
      "outputs": [],
      "stateMutability": "nonpayable",
      "type": "function"
    },
    {
      "inputs": [
        {
          "internalType": "uint256",
          "name": "_id",
          "type": "uint256"
        }
      ],
      "name": "setId",
      "outputs": [],
      "stateMutability": "nonpayable",
      "type": "function"
    },
    {
      "inputs": [
        {
          "components": [
            {
              "internalType": "uint256",
              "name": "id",
              "type": "uint256"
            },
            {
              "internalType": "address",
              "name": "codPrestadorServicioDeSalud",
              "type": "address"
            },
            {
              "internalType": "uint256",
              "name": "fechaRegistro",
              "type": "uint256"
            },
            {
              "internalType": "enum TipoRegistroMedico",
              "name": "tipoRegistroMedico",
              "type": "uint8"
            }
          ],
          "internalType": "struct RegistroMedico.RegistroMedicoStruct",
          "name": "registro",
          "type": "tuple"
        }
      ],
      "name": "setRegistroMedico",
      "outputs": [],
      "stateMutability": "nonpayable",
      "type": "function"
    },
    {
      "inputs": [
        {
          "internalType": "enum TipoRegistroMedico",
          "name": "_tipoRegistroMedico",
          "type": "uint8"
        }
      ],
      "name": "setTipoRegistroMedico",
      "outputs": [],
      "stateMutability": "nonpayable",
      "type": "function"
    },
    {
      "inputs": [],
      "name": "getFechaIngreso",
      "outputs": [
        {
          "internalType": "uint256",
          "name": "",
          "type": "uint256"
        }
      ],
      "stateMutability": "view",
      "type": "function"
    },
    {
      "inputs": [],
      "name": "getFechaSalida",
      "outputs": [
        {
          "internalType": "uint256",
          "name": "",
          "type": "uint256"
        }
      ],
      "stateMutability": "view",
      "type": "function"
    },
    {
      "inputs": [],
      "name": "getCondicion",
      "outputs": [
        {
          "internalType": "string",
          "name": "",
          "type": "string"
        }
      ],
      "stateMutability": "view",
      "type": "function"
    },
    {
      "inputs": [],
      "name": "getHorasDeObservacion",
      "outputs": [
        {
          "internalType": "uint256",
          "name": "",
          "type": "uint256"
        }
      ],
      "stateMutability": "view",
      "type": "function"
    },
    {
      "inputs": [],
      "name": "getSalidaVivo",
      "outputs": [
        {
          "internalType": "bool",
          "name": "",
          "type": "bool"
        }
      ],
      "stateMutability": "view",
      "type": "function"
    },
    {
      "inputs": [],
      "name": "getIncapacidad",
      "outputs": [
        {
          "components": [
            {
              "internalType": "uint256",
              "name": "dias",
              "type": "uint256"
            },
            {
              "internalType": "uint256",
              "name": "motivo",
              "type": "uint256"
            }
          ],
          "internalType": "struct IncapacidadStruct",
          "name": "",
          "type": "tuple"
        }
      ],
      "stateMutability": "view",
      "type": "function"
    },
    {
      "inputs": [],
      "name": "getMotivo",
      "outputs": [
        {
          "internalType": "string",
          "name": "",
          "type": "string"
        }
      ],
      "stateMutability": "view",
      "type": "function"
    },
    {
      "inputs": [],
      "name": "getDiagnosticoIngreso",
      "outputs": [
        {
          "internalType": "string",
          "name": "",
          "type": "string"
        }
      ],
      "stateMutability": "view",
      "type": "function"
    },
    {
      "inputs": [],
      "name": "getDiagnosticoSalida",
      "outputs": [
        {
          "internalType": "string",
          "name": "",
          "type": "string"
        }
      ],
      "stateMutability": "view",
      "type": "function"
    },
    {
      "inputs": [],
      "name": "getAtencionUrgenciasStruct",
      "outputs": [
        {
          "components": [
            {
              "internalType": "uint256",
              "name": "fechaIngreso",
              "type": "uint256"
            },
            {
              "internalType": "uint256",
              "name": "fechaSalida",
              "type": "uint256"
            },
            {
              "internalType": "string",
              "name": "condicion",
              "type": "string"
            },
            {
              "internalType": "uint256",
              "name": "horasDeObservacion",
              "type": "uint256"
            },
            {
              "internalType": "bool",
              "name": "salidaVivo",
              "type": "bool"
            },
            {
              "components": [
                {
                  "internalType": "uint256",
                  "name": "dias",
                  "type": "uint256"
                },
                {
                  "internalType": "uint256",
                  "name": "motivo",
                  "type": "uint256"
                }
              ],
              "internalType": "struct IncapacidadStruct",
              "name": "incapacidad",
              "type": "tuple"
            },
            {
              "internalType": "string",
              "name": "motivo",
              "type": "string"
            },
            {
              "internalType": "string",
              "name": "diagnosticoIngreso",
              "type": "string"
            },
            {
              "internalType": "string",
              "name": "diagnosticoSalida",
              "type": "string"
            }
          ],
          "internalType": "struct AtencionUrgenciasVO.AtencionUrgenciasStruct",
          "name": "",
          "type": "tuple"
        }
      ],
      "stateMutability": "view",
      "type": "function"
    },
    {
      "inputs": [
        {
          "components": [
            {
              "internalType": "uint256",
              "name": "fechaIngreso",
              "type": "uint256"
            },
            {
              "internalType": "uint256",
              "name": "fechaSalida",
              "type": "uint256"
            },
            {
              "internalType": "string",
              "name": "condicion",
              "type": "string"
            },
            {
              "internalType": "uint256",
              "name": "horasDeObservacion",
              "type": "uint256"
            },
            {
              "internalType": "bool",
              "name": "salidaVivo",
              "type": "bool"
            },
            {
              "components": [
                {
                  "internalType": "uint256",
                  "name": "dias",
                  "type": "uint256"
                },
                {
                  "internalType": "uint256",
                  "name": "motivo",
                  "type": "uint256"
                }
              ],
              "internalType": "struct IncapacidadStruct",
              "name": "incapacidad",
              "type": "tuple"
            },
            {
              "internalType": "string",
              "name": "motivo",
              "type": "string"
            },
            {
              "internalType": "string",
              "name": "diagnosticoIngreso",
              "type": "string"
            },
            {
              "internalType": "string",
              "name": "diagnosticoSalida",
              "type": "string"
            }
          ],
          "internalType": "struct AtencionUrgenciasVO.AtencionUrgenciasStruct",
          "name": "_atencionUrgenciasStruct",
          "type": "tuple"
        }
      ],
      "name": "setAtencionUrgenciasStruct",
      "outputs": [],
      "stateMutability": "nonpayable",
      "type": "function"
    },
    {
      "inputs": [
        {
          "internalType": "uint256",
          "name": "_fechaIngreso",
          "type": "uint256"
        }
      ],
      "name": "setFechaIngreso",
      "outputs": [],
      "stateMutability": "nonpayable",
      "type": "function"
    },
    {
      "inputs": [
        {
          "internalType": "uint256",
          "name": "_fechaSalida",
          "type": "uint256"
        }
      ],
      "name": "setFechaSalida",
      "outputs": [],
      "stateMutability": "nonpayable",
      "type": "function"
    },
    {
      "inputs": [
        {
          "internalType": "string",
          "name": "_condicion",
          "type": "string"
        }
      ],
      "name": "setCondicion",
      "outputs": [],
      "stateMutability": "nonpayable",
      "type": "function"
    },
    {
      "inputs": [
        {
          "internalType": "uint256",
          "name": "_horasDeObservacion",
          "type": "uint256"
        }
      ],
      "name": "setHorasDeObservacion",
      "outputs": [],
      "stateMutability": "nonpayable",
      "type": "function"
    },
    {
      "inputs": [
        {
          "internalType": "bool",
          "name": "_salidaVivo",
          "type": "bool"
        }
      ],
      "name": "setSalidaVivo",
      "outputs": [],
      "stateMutability": "nonpayable",
      "type": "function"
    },
    {
      "inputs": [
        {
          "components": [
            {
              "internalType": "uint256",
              "name": "dias",
              "type": "uint256"
            },
            {
              "internalType": "uint256",
              "name": "motivo",
              "type": "uint256"
            }
          ],
          "internalType": "struct IncapacidadStruct",
          "name": "_incapacidad",
          "type": "tuple"
        }
      ],
      "name": "setIncapacidad",
      "outputs": [],
      "stateMutability": "nonpayable",
      "type": "function"
    },
    {
      "inputs": [
        {
          "internalType": "string",
          "name": "_motivo",
          "type": "string"
        }
      ],
      "name": "setMotivo",
      "outputs": [],
      "stateMutability": "nonpayable",
      "type": "function"
    },
    {
      "inputs": [
        {
          "internalType": "string",
          "name": "_diagnosticoIngreso",
          "type": "string"
        }
      ],
      "name": "setDiagnosticoIngreso",
      "outputs": [],
      "stateMutability": "nonpayable",
      "type": "function"
    },
    {
      "inputs": [
        {
          "internalType": "string",
          "name": "_diagnosticoSalida",
          "type": "string"
        }
      ],
      "name": "setDiagnosticoSalida",
      "outputs": [],
      "stateMutability": "nonpayable",
      "type": "function"
    }
  ],
  "bytecode": "0x608060405234801561001057600080fd5b506004805460ff19168117905561121d8061002c6000396000f3fe608060405234801561001057600080fd5b50600436106101f05760003560e01c806392ef6b801161010f578063cbb9fa2b116100a2578063e6148fc111610071578063e6148fc114610443578063eb98a3171461044b578063ec2debc31461046c578063f34714e41461047457600080fd5b8063cbb9fa2b146103f4578063d0e0ba951461040a578063d3295e401461041d578063de26f6ac1461043057600080fd5b8063a197d4a7116100de578063a197d4a7146103be578063a204b7c9146103c6578063b01474cf146103d9578063ca3c5a13146103e157600080fd5b806392ef6b801461038a57806393be08ef1461039257806393deede8146103a35780639cb8a26a146103b657600080fd5b806340285219116101875780636160497e116101565780636160497e146102da578063803a56ec146102ed57806385c0ec0d1461032a57806392ebdcd21461035f57600080fd5b8063402852191461029057806344517a9a146102a357806344f9206a146102b65780635d1ca631146102d257600080fd5b8063147714d0116101c3578063147714d0146102505780631b59abb91461025857806327f074cf1461026a5780633418df311461027d57600080fd5b80630587efce146101f5578063065fe9ca1461020a57806308d3c0d2146102285780630bcacc1b1461023b575b600080fd5b610208610203366004610bf1565b610489565b005b610212610499565b60405161021f9190610c74565b60405180910390f35b610208610236366004610c8e565b600555565b61024361052e565b60405161021f9190610cdf565b6102126105a3565b6003545b60405190815260200161021f565b610208610278366004610c8e565b600355565b61020861028b366004610bf1565b6105b5565b61020861029e366004610c8e565b600655565b60045460ff1660405161021f9190610d21565b6102086102c4366004610d84565b8051600a5560200151600b55565b60015461025c565b6102086102e8366004610c8e565b600855565b6102086102fb366004610dbc565b6002805473ffffffffffffffffffffffffffffffffffffffff19166001600160a01b0392909216919091179055565b60408051808201825260008082526020918201528151808301909252600a548252600b549082015260405161021f9190610dd7565b600054610372906001600160a01b031681565b6040516001600160a01b03909116815260200161021f565b6102126105c1565b6002546001600160a01b0316610372565b6102086103b1366004610bf1565b6105d3565b6102086105df565b6102126106b1565b6102086103d4366004610dfd565b6106c3565b60085461025c565b6102086103ef366004610e6c565b61072f565b60095460ff16604051901515815260200161021f565b610208610418366004610c8e565b600155565b61020861042b366004610bf1565b61074e565b61020861043e366004610e97565b61075a565b60065461025c565b610208610459366004610fb7565b6009805460ff1916911515919091179055565b60055461025c565b61047c6107fb565b60405161021f9190610fd2565b600d6104958282611127565b5050565b6060600560090180546104ab9061109e565b80601f01602080910402602001604051908101604052809291908181526020018280546104d79061109e565b80156105245780601f106104f957610100808354040283529160200191610524565b820191906000526020600020905b81548152906001019060200180831161050757829003601f168201915b5050505050905090565b6105566040805160808101825260008082526020820181905291810182905290606082015290565b6040805160808101825260015481526002546001600160a01b0316602082015260035491810191909152600454606082019060ff16601281111561059c5761059c610ca7565b9052919050565b6060600560080180546104ab9061109e565b600c6104958282611127565b6060600560020180546104ab9061109e565b60076104958282611127565b6000546001600160a01b031633146106a3576040517f08c379a000000000000000000000000000000000000000000000000000000000815260206004820152604160248201527f457374612066756e63696f6e20736f6c6f2070756564652073657220656a656360448201527f757461646120706f7220656c2063726561646f722064656c20636f6e7472617460648201527f6f00000000000000000000000000000000000000000000000000000000000000608482015260a40160405180910390fd5b6000546001600160a01b0316ff5b6060600560070180546104ab9061109e565b8051600190815560208201516002805473ffffffffffffffffffffffffffffffffffffffff19166001600160a01b0390921691909117905560408201516003556060820151600480549192909160ff19169083601281111561072757610727610ca7565b021790555050565b6004805482919060ff1916600183601281111561072757610727610ca7565b600e6104958282611127565b805160059081556020820151600655604082015182919060079061077e9082611127565b5060608201516003820155608082015160048201805460ff191691151591909117905560a08201518051600583015560200151600682015560c082015160078201906107ca9082611127565b5060e082015160088201906107df9082611127565b5061010082015160098201906107f59082611127565b50505050565b610803610abb565b604080516101208101825260058054825260065460208301526007805492939192918401916108319061109e565b80601f016020809104026020016040519081016040528092919081815260200182805461085d9061109e565b80156108aa5780601f1061087f576101008083540402835291602001916108aa565b820191906000526020600020905b81548152906001019060200180831161088d57829003601f168201915b50505050508152602001600382015481526020016004820160009054906101000a900460ff16151515158152602001600582016040518060400160405290816000820154815260200160018201548152505081526020016007820180546109109061109e565b80601f016020809104026020016040519081016040528092919081815260200182805461093c9061109e565b80156109895780601f1061095e57610100808354040283529160200191610989565b820191906000526020600020905b81548152906001019060200180831161096c57829003601f168201915b505050505081526020016008820180546109a29061109e565b80601f01602080910402602001604051908101604052809291908181526020018280546109ce9061109e565b8015610a1b5780601f106109f057610100808354040283529160200191610a1b565b820191906000526020600020905b8154815290600101906020018083116109fe57829003601f168201915b50505050508152602001600982018054610a349061109e565b80601f0160208091040260200160405190810160405280929190818152602001828054610a609061109e565b8015610aad5780601f10610a8257610100808354040283529160200191610aad565b820191906000526020600020905b815481529060010190602001808311610a9057829003601f168201915b505050505081525050905090565b60405180610120016040528060008152602001600081526020016060815260200160008152602001600015158152602001610b09604051806040016040528060008152602001600081525090565b81526020016060815260200160608152602001606081525090565b634e487b7160e01b600052604160045260246000fd5b604051610120810167ffffffffffffffff81118282101715610b5e57610b5e610b24565b60405290565b600082601f830112610b7557600080fd5b813567ffffffffffffffff80821115610b9057610b90610b24565b604051601f8301601f19908116603f01168101908282118183101715610bb857610bb8610b24565b81604052838152866020858801011115610bd157600080fd5b836020870160208301376000602085830101528094505050505092915050565b600060208284031215610c0357600080fd5b813567ffffffffffffffff811115610c1a57600080fd5b610c2684828501610b64565b949350505050565b6000815180845260005b81811015610c5457602081850181015186830182015201610c38565b506000602082860101526020601f19601f83011685010191505092915050565b602081526000610c876020830184610c2e565b9392505050565b600060208284031215610ca057600080fd5b5035919050565b634e487b7160e01b600052602160045260246000fd5b60138110610cdb57634e487b7160e01b600052602160045260246000fd5b9052565b6000608082019050825182526001600160a01b036020840151166020830152604083015160408301526060830151610d1a6060840182610cbd565b5092915050565b60208101610d2f8284610cbd565b92915050565b600060408284031215610d4757600080fd5b6040516040810181811067ffffffffffffffff82111715610d6a57610d6a610b24565b604052823581526020928301359281019290925250919050565b600060408284031215610d9657600080fd5b610c878383610d35565b80356001600160a01b0381168114610db757600080fd5b919050565b600060208284031215610dce57600080fd5b610c8782610da0565b815181526020808301519082015260408101610d2f565b803560138110610db757600080fd5b600060808284031215610e0f57600080fd5b6040516080810181811067ffffffffffffffff82111715610e3257610e32610b24565b60405282358152610e4560208401610da0565b602082015260408301356040820152610e6060608401610dee565b60608201529392505050565b600060208284031215610e7e57600080fd5b610c8782610dee565b80358015158114610db757600080fd5b600060208284031215610ea957600080fd5b813567ffffffffffffffff80821115610ec157600080fd5b908301906101408286031215610ed657600080fd5b610ede610b3a565b8235815260208301356020820152604083013582811115610efe57600080fd5b610f0a87828601610b64565b60408301525060608301356060820152610f2660808401610e87565b6080820152610f388660a08501610d35565b60a082015260e083013582811115610f4f57600080fd5b610f5b87828601610b64565b60c0830152506101008084013583811115610f7557600080fd5b610f8188828701610b64565b60e08401525061012084013583811115610f9a57600080fd5b610fa688828701610b64565b918301919091525095945050505050565b600060208284031215610fc957600080fd5b610c8782610e87565b60208152815160208201526020820151604082015260006040830151610140806060850152611005610160850183610c2e565b915060608501516080850152608085015161102460a086018215159052565b5060a0850151805160c0860152602081015160e08601525060c0850151601f1961010081878603018188015261105a8584610c2e565b945060e0880151925081878603016101208801526110788584610c2e565b9088015187820390920184880152935090506110948382610c2e565b9695505050505050565b600181811c908216806110b257607f821691505b6020821081036110d257634e487b7160e01b600052602260045260246000fd5b50919050565b601f82111561112257600081815260208120601f850160051c810160208610156110ff5750805b601f850160051c820191505b8181101561111e5782815560010161110b565b5050505b505050565b815167ffffffffffffffff81111561114157611141610b24565b6111558161114f845461109e565b846110d8565b602080601f83116001811461118a57600084156111725750858301515b600019600386901b1c1916600185901b17855561111e565b600085815260208120601f198616915b828110156111b95788860151825594840194600190910190840161119a565b50858210156111d75787850151600019600388901b60f8161c191681555b5050505050600190811b0190555056fea264697066735822122081bd0ece897d2f08197c2a1b9b158dc07e5b6a5b98dcddeaaf3188742529758564736f6c63430008110033",
  "immutableReferences": {},
  "source": "// SPDX-License-Identifier: MIT\npragma solidity ^0.8.17;\n\nimport \"./RegistroMedico.sol\";\nimport \"../structsGenerales/IncapacidadStruct.sol\";\n\ncontract AtencionUrgenciasVO is RegistroMedico(TipoRegistroMedico.ATENCIONURGENCIASVO) {\n    struct AtencionUrgenciasStruct {\n        uint256 fechaIngreso;\n        uint256 fechaSalida;\n        string condicion;\n        uint256 horasDeObservacion;\n        bool salidaVivo;\n        IncapacidadStruct incapacidad;\n        string motivo;\n        string diagnosticoIngreso;\n        string diagnosticoSalida;\n    }\n\n    AtencionUrgenciasStruct private atencionUrgenciasStruct;\n\n    function getFechaIngreso() public view returns (uint256) {\n        return atencionUrgenciasStruct.fechaIngreso;\n    }\n\n    function getFechaSalida() public view returns (uint256) {\n        return atencionUrgenciasStruct.fechaSalida;\n    }\n\n    function getCondicion() public view returns (string memory) {\n        return atencionUrgenciasStruct.condicion;\n    }\n\n    function getHorasDeObservacion() public view returns (uint256) {\n        return atencionUrgenciasStruct.horasDeObservacion;\n    }\n\n    function getSalidaVivo() public view returns (bool) {\n        return atencionUrgenciasStruct.salidaVivo;\n    }\n\n    function getIncapacidad() public view returns (IncapacidadStruct memory) {\n        return atencionUrgenciasStruct.incapacidad;\n    }\n\n    function getMotivo() public view returns (string memory) {\n        return atencionUrgenciasStruct.motivo;\n    }\n\n    function getDiagnosticoIngreso() public view returns (string memory) {\n        return atencionUrgenciasStruct.diagnosticoIngreso;\n    }\n\n    function getDiagnosticoSalida() public view returns (string memory) {\n        return atencionUrgenciasStruct.diagnosticoSalida;\n    }\n\n    function getAtencionUrgenciasStruct()\n        public\n        view\n        returns (AtencionUrgenciasStruct memory)\n    {\n        return atencionUrgenciasStruct;\n    }\n\n    function setAtencionUrgenciasStruct(\n        AtencionUrgenciasStruct memory _atencionUrgenciasStruct\n    ) public {\n        atencionUrgenciasStruct = _atencionUrgenciasStruct;\n    }\n\n    function setFechaIngreso(uint256 _fechaIngreso) public {\n        atencionUrgenciasStruct.fechaIngreso = _fechaIngreso;\n    }\n\n    function setFechaSalida(uint256 _fechaSalida) public {\n        atencionUrgenciasStruct.fechaSalida = _fechaSalida;\n    }\n\n    function setCondicion(string memory _condicion) public {\n        atencionUrgenciasStruct.condicion = _condicion;\n    }\n\n    function setHorasDeObservacion(uint256 _horasDeObservacion) public {\n        atencionUrgenciasStruct.horasDeObservacion = _horasDeObservacion;\n    }\n\n    function setSalidaVivo(bool _salidaVivo) public {\n        atencionUrgenciasStruct.salidaVivo = _salidaVivo;\n    }\n\n    function setIncapacidad(IncapacidadStruct memory _incapacidad) public {\n        atencionUrgenciasStruct.incapacidad = _incapacidad;\n    }\n\n    function setMotivo(string memory _motivo) public {\n        atencionUrgenciasStruct.motivo = _motivo;\n    }\n\n    function setDiagnosticoIngreso(string memory _diagnosticoIngreso) public {\n        atencionUrgenciasStruct.diagnosticoIngreso = _diagnosticoIngreso;\n    }\n\n    function setDiagnosticoSalida(string memory _diagnosticoSalida) public {\n        atencionUrgenciasStruct.diagnosticoSalida = _diagnosticoSalida;\n    }\n}\n",
  "sourcePath": "/home/felipe/Documentos/Blockchain/codigo/HCE-full/back-hce/contracts/models/historiaClinica/AtencionUrgenciasVO.sol",
  "compiler": {
    "name": "solc",
    "version": "0.8.17+commit.8df45f5f.Emscripten.clang"
  },
  "schemaVersion": "3.4.8",
  "updatedAt": "2023-04-05T22:10:23.223Z",
  "devdoc": {
    "kind": "dev",
    "methods": {},
    "version": 1
  },
  "userdoc": {
    "kind": "user",
    "methods": {},
    "version": 1
  }
}