{
  "contractName": "ConsultaIndividualVO",
  "abi": [
    {
      "inputs": [],
      "name": "creador",
      "outputs": [
        {
          "internalType": "address",
          "name": "",
          "type": "address"
        }
      ],
      "stateMutability": "view",
      "type": "function"
    },
    {
      "inputs": [],
      "name": "getCodPrestadorServicioDeSalud",
      "outputs": [
        {
          "internalType": "address",
          "name": "",
          "type": "address"
        }
      ],
      "stateMutability": "view",
      "type": "function"
    },
    {
      "inputs": [],
      "name": "getFechaRegistro",
      "outputs": [
        {
          "internalType": "int256",
          "name": "",
          "type": "int256"
        }
      ],
      "stateMutability": "view",
      "type": "function"
    },
    {
      "inputs": [],
      "name": "getId",
      "outputs": [
        {
          "internalType": "uint256",
          "name": "",
          "type": "uint256"
        }
      ],
      "stateMutability": "view",
      "type": "function"
    },
    {
      "inputs": [],
      "name": "getRegistroMedico",
      "outputs": [
        {
          "components": [
            {
              "internalType": "uint256",
              "name": "id",
              "type": "uint256"
            },
            {
              "internalType": "address",
              "name": "codPrestadorServicioDeSalud",
              "type": "address"
            },
            {
              "internalType": "int256",
              "name": "fechaRegistro",
              "type": "int256"
            },
            {
              "internalType": "enum TipoRegistroMedico",
              "name": "tipoRegistroMedico",
              "type": "uint8"
            }
          ],
          "internalType": "struct RegistroMedico.RegistroMedicoStruct",
          "name": "",
          "type": "tuple"
        }
      ],
      "stateMutability": "view",
      "type": "function"
    },
    {
      "inputs": [],
      "name": "getTipoRegistroMedico",
      "outputs": [
        {
          "internalType": "enum TipoRegistroMedico",
          "name": "",
          "type": "uint8"
        }
      ],
      "stateMutability": "view",
      "type": "function"
    },
    {
      "inputs": [],
      "name": "selfDestruct",
      "outputs": [],
      "stateMutability": "nonpayable",
      "type": "function"
    },
    {
      "inputs": [
        {
          "internalType": "address",
          "name": "_codPrestadorServicioDeSalud",
          "type": "address"
        }
      ],
      "name": "setCodPrestadorServicioDeSalud",
      "outputs": [],
      "stateMutability": "nonpayable",
      "type": "function"
    },
    {
      "inputs": [
        {
          "internalType": "int256",
          "name": "_fechaRegistro",
          "type": "int256"
        }
      ],
      "name": "setFechaRegistro",
      "outputs": [],
      "stateMutability": "nonpayable",
      "type": "function"
    },
    {
      "inputs": [
        {
          "internalType": "uint256",
          "name": "_id",
          "type": "uint256"
        }
      ],
      "name": "setId",
      "outputs": [],
      "stateMutability": "nonpayable",
      "type": "function"
    },
    {
      "inputs": [
        {
          "components": [
            {
              "internalType": "uint256",
              "name": "id",
              "type": "uint256"
            },
            {
              "internalType": "address",
              "name": "codPrestadorServicioDeSalud",
              "type": "address"
            },
            {
              "internalType": "int256",
              "name": "fechaRegistro",
              "type": "int256"
            },
            {
              "internalType": "enum TipoRegistroMedico",
              "name": "tipoRegistroMedico",
              "type": "uint8"
            }
          ],
          "internalType": "struct RegistroMedico.RegistroMedicoStruct",
          "name": "registro",
          "type": "tuple"
        }
      ],
      "name": "setRegistroMedico",
      "outputs": [],
      "stateMutability": "nonpayable",
      "type": "function"
    },
    {
      "inputs": [
        {
          "internalType": "enum TipoRegistroMedico",
          "name": "_tipoRegistroMedico",
          "type": "uint8"
        }
      ],
      "name": "setTipoRegistroMedico",
      "outputs": [],
      "stateMutability": "nonpayable",
      "type": "function"
    },
    {
      "inputs": [],
      "name": "getConsultaIndividualStruct",
      "outputs": [
        {
          "components": [
            {
              "internalType": "int256",
              "name": "fechaAtencion",
              "type": "int256"
            },
            {
              "internalType": "bool",
              "name": "consultaPrioritaria",
              "type": "bool"
            },
            {
              "internalType": "uint256",
              "name": "especialidadId",
              "type": "uint256"
            },
            {
              "internalType": "string",
              "name": "padecimiento",
              "type": "string"
            },
            {
              "internalType": "string",
              "name": "sintomas",
              "type": "string"
            },
            {
              "internalType": "uint256",
              "name": "causaExternaId",
              "type": "uint256"
            },
            {
              "components": [
                {
                  "internalType": "string",
                  "name": "cabeza",
                  "type": "string"
                },
                {
                  "internalType": "string",
                  "name": "cuello",
                  "type": "string"
                },
                {
                  "internalType": "string",
                  "name": "abdomen",
                  "type": "string"
                },
                {
                  "internalType": "string",
                  "name": "torax",
                  "type": "string"
                },
                {
                  "internalType": "string",
                  "name": "genitales",
                  "type": "string"
                },
                {
                  "internalType": "string",
                  "name": "miembros",
                  "type": "string"
                },
                {
                  "components": [
                    {
                      "internalType": "uint256",
                      "name": "frecuenciaCardiaca",
                      "type": "uint256"
                    },
                    {
                      "internalType": "uint256",
                      "name": "frecuenciaRespiratoria",
                      "type": "uint256"
                    },
                    {
                      "internalType": "string",
                      "name": "tensionArterial",
                      "type": "string"
                    },
                    {
                      "internalType": "uint256",
                      "name": "peso",
                      "type": "uint256"
                    },
                    {
                      "internalType": "uint256",
                      "name": "temperatura",
                      "type": "uint256"
                    }
                  ],
                  "internalType": "struct SignosVitalesStruct",
                  "name": "signosVitalesStruct",
                  "type": "tuple"
                }
              ],
              "internalType": "struct ExploracionPorRegionesStruct",
              "name": "exploracionPorRegiones",
              "type": "tuple"
            },
            {
              "components": [
                {
                  "internalType": "string",
                  "name": "aparatoCardiovascular",
                  "type": "string"
                },
                {
                  "internalType": "string",
                  "name": "aparatoDigestivo",
                  "type": "string"
                },
                {
                  "internalType": "string",
                  "name": "aparatoRespiratorio",
                  "type": "string"
                },
                {
                  "internalType": "string",
                  "name": "aparatoGenital",
                  "type": "string"
                },
                {
                  "internalType": "string",
                  "name": "aparatoUrinario",
                  "type": "string"
                },
                {
                  "internalType": "string",
                  "name": "aparatoHematologico",
                  "type": "string"
                },
                {
                  "internalType": "string",
                  "name": "aparatoOsteomuscular",
                  "type": "string"
                },
                {
                  "internalType": "string",
                  "name": "sistemaEndocrino",
                  "type": "string"
                },
                {
                  "internalType": "string",
                  "name": "sistemaNervioso",
                  "type": "string"
                },
                {
                  "internalType": "string",
                  "name": "sistemaSensorial",
                  "type": "string"
                },
                {
                  "internalType": "string",
                  "name": "sistemaPsicosomatico",
                  "type": "string"
                }
              ],
              "internalType": "struct ExploracionPorSistemasStruct",
              "name": "exploracionPorSistemas",
              "type": "tuple"
            },
            {
              "internalType": "uint256",
              "name": "codigoDiagnostico",
              "type": "uint256"
            },
            {
              "internalType": "string",
              "name": "conducta",
              "type": "string"
            },
            {
              "internalType": "uint256",
              "name": "tipoDiagnostico",
              "type": "uint256"
            },
            {
              "internalType": "uint256",
              "name": "numeroConsultaDelAno",
              "type": "uint256"
            },
            {
              "components": [
                {
                  "internalType": "uint256",
                  "name": "dias",
                  "type": "uint256"
                },
                {
                  "internalType": "uint256",
                  "name": "motivo",
                  "type": "uint256"
                }
              ],
              "internalType": "struct IncapacidadStruct",
              "name": "incapacidad",
              "type": "tuple"
            }
          ],
          "internalType": "struct ConsultaIndividualVO.ConsultaIndividualStruct",
          "name": "",
          "type": "tuple"
        }
      ],
      "stateMutability": "view",
      "type": "function"
    },
    {
      "inputs": [
        {
          "components": [
            {
              "internalType": "int256",
              "name": "fechaAtencion",
              "type": "int256"
            },
            {
              "internalType": "bool",
              "name": "consultaPrioritaria",
              "type": "bool"
            },
            {
              "internalType": "uint256",
              "name": "especialidadId",
              "type": "uint256"
            },
            {
              "internalType": "string",
              "name": "padecimiento",
              "type": "string"
            },
            {
              "internalType": "string",
              "name": "sintomas",
              "type": "string"
            },
            {
              "internalType": "uint256",
              "name": "causaExternaId",
              "type": "uint256"
            },
            {
              "components": [
                {
                  "internalType": "string",
                  "name": "cabeza",
                  "type": "string"
                },
                {
                  "internalType": "string",
                  "name": "cuello",
                  "type": "string"
                },
                {
                  "internalType": "string",
                  "name": "abdomen",
                  "type": "string"
                },
                {
                  "internalType": "string",
                  "name": "torax",
                  "type": "string"
                },
                {
                  "internalType": "string",
                  "name": "genitales",
                  "type": "string"
                },
                {
                  "internalType": "string",
                  "name": "miembros",
                  "type": "string"
                },
                {
                  "components": [
                    {
                      "internalType": "uint256",
                      "name": "frecuenciaCardiaca",
                      "type": "uint256"
                    },
                    {
                      "internalType": "uint256",
                      "name": "frecuenciaRespiratoria",
                      "type": "uint256"
                    },
                    {
                      "internalType": "string",
                      "name": "tensionArterial",
                      "type": "string"
                    },
                    {
                      "internalType": "uint256",
                      "name": "peso",
                      "type": "uint256"
                    },
                    {
                      "internalType": "uint256",
                      "name": "temperatura",
                      "type": "uint256"
                    }
                  ],
                  "internalType": "struct SignosVitalesStruct",
                  "name": "signosVitalesStruct",
                  "type": "tuple"
                }
              ],
              "internalType": "struct ExploracionPorRegionesStruct",
              "name": "exploracionPorRegiones",
              "type": "tuple"
            },
            {
              "components": [
                {
                  "internalType": "string",
                  "name": "aparatoCardiovascular",
                  "type": "string"
                },
                {
                  "internalType": "string",
                  "name": "aparatoDigestivo",
                  "type": "string"
                },
                {
                  "internalType": "string",
                  "name": "aparatoRespiratorio",
                  "type": "string"
                },
                {
                  "internalType": "string",
                  "name": "aparatoGenital",
                  "type": "string"
                },
                {
                  "internalType": "string",
                  "name": "aparatoUrinario",
                  "type": "string"
                },
                {
                  "internalType": "string",
                  "name": "aparatoHematologico",
                  "type": "string"
                },
                {
                  "internalType": "string",
                  "name": "aparatoOsteomuscular",
                  "type": "string"
                },
                {
                  "internalType": "string",
                  "name": "sistemaEndocrino",
                  "type": "string"
                },
                {
                  "internalType": "string",
                  "name": "sistemaNervioso",
                  "type": "string"
                },
                {
                  "internalType": "string",
                  "name": "sistemaSensorial",
                  "type": "string"
                },
                {
                  "internalType": "string",
                  "name": "sistemaPsicosomatico",
                  "type": "string"
                }
              ],
              "internalType": "struct ExploracionPorSistemasStruct",
              "name": "exploracionPorSistemas",
              "type": "tuple"
            },
            {
              "internalType": "uint256",
              "name": "codigoDiagnostico",
              "type": "uint256"
            },
            {
              "internalType": "string",
              "name": "conducta",
              "type": "string"
            },
            {
              "internalType": "uint256",
              "name": "tipoDiagnostico",
              "type": "uint256"
            },
            {
              "internalType": "uint256",
              "name": "numeroConsultaDelAno",
              "type": "uint256"
            },
            {
              "components": [
                {
                  "internalType": "uint256",
                  "name": "dias",
                  "type": "uint256"
                },
                {
                  "internalType": "uint256",
                  "name": "motivo",
                  "type": "uint256"
                }
              ],
              "internalType": "struct IncapacidadStruct",
              "name": "incapacidad",
              "type": "tuple"
            }
          ],
          "internalType": "struct ConsultaIndividualVO.ConsultaIndividualStruct",
          "name": "_consultaIndividualStruct",
          "type": "tuple"
        }
      ],
      "name": "setConsultaIndividualStruct",
      "outputs": [],
      "stateMutability": "nonpayable",
      "type": "function"
    },
    {
      "inputs": [],
      "name": "getFechaAtencion",
      "outputs": [
        {
          "internalType": "int256",
          "name": "",
          "type": "int256"
        }
      ],
      "stateMutability": "view",
      "type": "function"
    },
    {
      "inputs": [],
      "name": "getConsultaPrioritaria",
      "outputs": [
        {
          "internalType": "bool",
          "name": "",
          "type": "bool"
        }
      ],
      "stateMutability": "view",
      "type": "function"
    },
    {
      "inputs": [],
      "name": "getEspecialidadId",
      "outputs": [
        {
          "internalType": "uint256",
          "name": "",
          "type": "uint256"
        }
      ],
      "stateMutability": "view",
      "type": "function"
    },
    {
      "inputs": [],
      "name": "getPadecimiento",
      "outputs": [
        {
          "internalType": "string",
          "name": "",
          "type": "string"
        }
      ],
      "stateMutability": "view",
      "type": "function"
    },
    {
      "inputs": [],
      "name": "getSintomas",
      "outputs": [
        {
          "internalType": "string",
          "name": "",
          "type": "string"
        }
      ],
      "stateMutability": "view",
      "type": "function"
    },
    {
      "inputs": [],
      "name": "getCausaExternaId",
      "outputs": [
        {
          "internalType": "uint256",
          "name": "",
          "type": "uint256"
        }
      ],
      "stateMutability": "view",
      "type": "function"
    },
    {
      "inputs": [],
      "name": "getExploracionPorRegionesStruct",
      "outputs": [
        {
          "components": [
            {
              "internalType": "string",
              "name": "cabeza",
              "type": "string"
            },
            {
              "internalType": "string",
              "name": "cuello",
              "type": "string"
            },
            {
              "internalType": "string",
              "name": "abdomen",
              "type": "string"
            },
            {
              "internalType": "string",
              "name": "torax",
              "type": "string"
            },
            {
              "internalType": "string",
              "name": "genitales",
              "type": "string"
            },
            {
              "internalType": "string",
              "name": "miembros",
              "type": "string"
            },
            {
              "components": [
                {
                  "internalType": "uint256",
                  "name": "frecuenciaCardiaca",
                  "type": "uint256"
                },
                {
                  "internalType": "uint256",
                  "name": "frecuenciaRespiratoria",
                  "type": "uint256"
                },
                {
                  "internalType": "string",
                  "name": "tensionArterial",
                  "type": "string"
                },
                {
                  "internalType": "uint256",
                  "name": "peso",
                  "type": "uint256"
                },
                {
                  "internalType": "uint256",
                  "name": "temperatura",
                  "type": "uint256"
                }
              ],
              "internalType": "struct SignosVitalesStruct",
              "name": "signosVitalesStruct",
              "type": "tuple"
            }
          ],
          "internalType": "struct ExploracionPorRegionesStruct",
          "name": "",
          "type": "tuple"
        }
      ],
      "stateMutability": "view",
      "type": "function"
    },
    {
      "inputs": [],
      "name": "getExploracionPorSistemasStruct",
      "outputs": [
        {
          "components": [
            {
              "internalType": "string",
              "name": "aparatoCardiovascular",
              "type": "string"
            },
            {
              "internalType": "string",
              "name": "aparatoDigestivo",
              "type": "string"
            },
            {
              "internalType": "string",
              "name": "aparatoRespiratorio",
              "type": "string"
            },
            {
              "internalType": "string",
              "name": "aparatoGenital",
              "type": "string"
            },
            {
              "internalType": "string",
              "name": "aparatoUrinario",
              "type": "string"
            },
            {
              "internalType": "string",
              "name": "aparatoHematologico",
              "type": "string"
            },
            {
              "internalType": "string",
              "name": "aparatoOsteomuscular",
              "type": "string"
            },
            {
              "internalType": "string",
              "name": "sistemaEndocrino",
              "type": "string"
            },
            {
              "internalType": "string",
              "name": "sistemaNervioso",
              "type": "string"
            },
            {
              "internalType": "string",
              "name": "sistemaSensorial",
              "type": "string"
            },
            {
              "internalType": "string",
              "name": "sistemaPsicosomatico",
              "type": "string"
            }
          ],
          "internalType": "struct ExploracionPorSistemasStruct",
          "name": "",
          "type": "tuple"
        }
      ],
      "stateMutability": "view",
      "type": "function"
    },
    {
      "inputs": [],
      "name": "getCodigoDiagnostico",
      "outputs": [
        {
          "internalType": "uint256",
          "name": "",
          "type": "uint256"
        }
      ],
      "stateMutability": "view",
      "type": "function"
    },
    {
      "inputs": [],
      "name": "getConducta",
      "outputs": [
        {
          "internalType": "string",
          "name": "",
          "type": "string"
        }
      ],
      "stateMutability": "view",
      "type": "function"
    },
    {
      "inputs": [],
      "name": "getTipoDiagnostico",
      "outputs": [
        {
          "internalType": "uint256",
          "name": "",
          "type": "uint256"
        }
      ],
      "stateMutability": "view",
      "type": "function"
    },
    {
      "inputs": [],
      "name": "getNumeroConsultaDelAno",
      "outputs": [
        {
          "internalType": "uint256",
          "name": "",
          "type": "uint256"
        }
      ],
      "stateMutability": "view",
      "type": "function"
    },
    {
      "inputs": [],
      "name": "getIncapacidad",
      "outputs": [
        {
          "components": [
            {
              "internalType": "uint256",
              "name": "dias",
              "type": "uint256"
            },
            {
              "internalType": "uint256",
              "name": "motivo",
              "type": "uint256"
            }
          ],
          "internalType": "struct IncapacidadStruct",
          "name": "",
          "type": "tuple"
        }
      ],
      "stateMutability": "view",
      "type": "function"
    },
    {
      "inputs": [
        {
          "internalType": "int256",
          "name": "_fechaAtencion",
          "type": "int256"
        }
      ],
      "name": "setFechaAtencion",
      "outputs": [],
      "stateMutability": "nonpayable",
      "type": "function"
    },
    {
      "inputs": [
        {
          "internalType": "bool",
          "name": "_consultaPrioritaria",
          "type": "bool"
        }
      ],
      "name": "setConsultaPrioritaria",
      "outputs": [],
      "stateMutability": "nonpayable",
      "type": "function"
    },
    {
      "inputs": [
        {
          "internalType": "uint256",
          "name": "_especialidadId",
          "type": "uint256"
        }
      ],
      "name": "setEspecialidadId",
      "outputs": [],
      "stateMutability": "nonpayable",
      "type": "function"
    },
    {
      "inputs": [
        {
          "internalType": "string",
          "name": "_padecimiento",
          "type": "string"
        }
      ],
      "name": "setPadecimiento",
      "outputs": [],
      "stateMutability": "nonpayable",
      "type": "function"
    },
    {
      "inputs": [
        {
          "internalType": "string",
          "name": "_sintomas",
          "type": "string"
        }
      ],
      "name": "setSintomas",
      "outputs": [],
      "stateMutability": "nonpayable",
      "type": "function"
    },
    {
      "inputs": [
        {
          "internalType": "uint256",
          "name": "_causaExternaId",
          "type": "uint256"
        }
      ],
      "name": "setCausaExternaId",
      "outputs": [],
      "stateMutability": "nonpayable",
      "type": "function"
    },
    {
      "inputs": [
        {
          "components": [
            {
              "internalType": "string",
              "name": "cabeza",
              "type": "string"
            },
            {
              "internalType": "string",
              "name": "cuello",
              "type": "string"
            },
            {
              "internalType": "string",
              "name": "abdomen",
              "type": "string"
            },
            {
              "internalType": "string",
              "name": "torax",
              "type": "string"
            },
            {
              "internalType": "string",
              "name": "genitales",
              "type": "string"
            },
            {
              "internalType": "string",
              "name": "miembros",
              "type": "string"
            },
            {
              "components": [
                {
                  "internalType": "uint256",
                  "name": "frecuenciaCardiaca",
                  "type": "uint256"
                },
                {
                  "internalType": "uint256",
                  "name": "frecuenciaRespiratoria",
                  "type": "uint256"
                },
                {
                  "internalType": "string",
                  "name": "tensionArterial",
                  "type": "string"
                },
                {
                  "internalType": "uint256",
                  "name": "peso",
                  "type": "uint256"
                },
                {
                  "internalType": "uint256",
                  "name": "temperatura",
                  "type": "uint256"
                }
              ],
              "internalType": "struct SignosVitalesStruct",
              "name": "signosVitalesStruct",
              "type": "tuple"
            }
          ],
          "internalType": "struct ExploracionPorRegionesStruct",
          "name": "_exploracionPorRegiones",
          "type": "tuple"
        }
      ],
      "name": "setExploracionPorRegionesStruct",
      "outputs": [],
      "stateMutability": "nonpayable",
      "type": "function"
    },
    {
      "inputs": [
        {
          "components": [
            {
              "internalType": "string",
              "name": "aparatoCardiovascular",
              "type": "string"
            },
            {
              "internalType": "string",
              "name": "aparatoDigestivo",
              "type": "string"
            },
            {
              "internalType": "string",
              "name": "aparatoRespiratorio",
              "type": "string"
            },
            {
              "internalType": "string",
              "name": "aparatoGenital",
              "type": "string"
            },
            {
              "internalType": "string",
              "name": "aparatoUrinario",
              "type": "string"
            },
            {
              "internalType": "string",
              "name": "aparatoHematologico",
              "type": "string"
            },
            {
              "internalType": "string",
              "name": "aparatoOsteomuscular",
              "type": "string"
            },
            {
              "internalType": "string",
              "name": "sistemaEndocrino",
              "type": "string"
            },
            {
              "internalType": "string",
              "name": "sistemaNervioso",
              "type": "string"
            },
            {
              "internalType": "string",
              "name": "sistemaSensorial",
              "type": "string"
            },
            {
              "internalType": "string",
              "name": "sistemaPsicosomatico",
              "type": "string"
            }
          ],
          "internalType": "struct ExploracionPorSistemasStruct",
          "name": "_exploracionPorSistemas",
          "type": "tuple"
        }
      ],
      "name": "setExploracionPorSistemasStruct",
      "outputs": [],
      "stateMutability": "nonpayable",
      "type": "function"
    },
    {
      "inputs": [
        {
          "internalType": "uint256",
          "name": "_codigoDiagnostico",
          "type": "uint256"
        }
      ],
      "name": "setCodigoDiagnostico",
      "outputs": [],
      "stateMutability": "nonpayable",
      "type": "function"
    },
    {
      "inputs": [
        {
          "internalType": "string",
          "name": "_conducta",
          "type": "string"
        }
      ],
      "name": "setConducta",
      "outputs": [],
      "stateMutability": "nonpayable",
      "type": "function"
    },
    {
      "inputs": [
        {
          "internalType": "uint256",
          "name": "_tipoDiagnostico",
          "type": "uint256"
        }
      ],
      "name": "setTipoDiagnostico",
      "outputs": [],
      "stateMutability": "nonpayable",
      "type": "function"
    },
    {
      "inputs": [
        {
          "internalType": "uint256",
          "name": "_numeroConsultaDelAno",
          "type": "uint256"
        }
      ],
      "name": "setNumeroConsultaDelAno",
      "outputs": [],
      "stateMutability": "nonpayable",
      "type": "function"
    },
    {
      "inputs": [
        {
          "components": [
            {
              "internalType": "uint256",
              "name": "dias",
              "type": "uint256"
            },
            {
              "internalType": "uint256",
              "name": "motivo",
              "type": "uint256"
            }
          ],
          "internalType": "struct IncapacidadStruct",
          "name": "_incapacidad",
          "type": "tuple"
        }
      ],
      "name": "setIncapacidad",
      "outputs": [],
      "stateMutability": "nonpayable",
      "type": "function"
    }
  ],
  "bytecode": "0x608060405234801561001057600080fd5b506004805460ff191660051790556133fc8061002d6000396000f3fe608060405234801561001057600080fd5b50600436106102c85760003560e01c8063735ef2e71161017b578063a1d7fba5116100d8578063ca3c5a131161008c578063d0e0ba9511610071578063d0e0ba95146105b2578063d105f808146105c5578063db6299d7146105cd57600080fd5b8063ca3c5a131461057e578063ce1c353c1461059157600080fd5b8063a876e889116100bd578063a876e88914610550578063aee5de7514610563578063af8d3e841461057657600080fd5b8063a1d7fba514610535578063a4d750591461054857600080fd5b8063931cb7c61161012f57806394ab80371161011457806394ab8037146105125780639cb8a26a1461051a5780639dfdee7c1461052257600080fd5b8063931cb7c6146104ee57806393be08ef1461050157600080fd5b806385c0ec0d1161016057806385c0ec0d1461047b57806391911de6146104b057806392ebdcd2146104c357600080fd5b8063735ef2e714610436578063803a56ec1461043e57600080fd5b80632dba4240116102295780635ccd6b8a116101dd5780635f3774d4116101c25780635f3774d4146103fb57806369e4e77c1461040e5780636dc56adc1461042157600080fd5b80635ccd6b8a146103e05780635d1ca631146103f357600080fd5b806344517a9a1161020e57806344517a9a146103a957806344f9206a146103bc5780634c38385f146103d857600080fd5b80632dba424014610381578063359646891461039457600080fd5b80631b59abb91161028057806321f7cbd71161026557806321f7cbd714610351578063277ea526146103645780632abf366a1461036c57600080fd5b80631b59abb914610336578063219a95e51461033e57600080fd5b80630bcacc1b116102b15780630bcacc1b146102f95780630f455ec11461030e578063170e2f121461032157600080fd5b8063045c7bbe146102cd57806304a765b2146102e2575b600080fd5b6102e06102db3660046125ef565b600355565b005b6007545b6040519081526020015b60405180910390f35b6103016105e3565b6040516102f09190612640565b6102e061031c366004612b72565b610638565b61032961089d565b6040516102f09190612e4a565b6003546102e6565b6102e061034c366004612e64565b610f52565b6102e061035f3660046125ef565b600555565b6023546102e6565b610374611017565b6040516102f09190612ea1565b6102e061038f3660046125ef565b602455565b61039c6110ac565b6040516102f09190612fb6565b60045460ff166040516102f091906130d3565b6102e06103ca3660046130e7565b805160255560200151602655565b6005546102e6565b6102e06103ee3660046125ef565b600a55565b6001546102e6565b6102e0610409366004613129565b611d96565b6102e061041c366004613198565b611e02565b610429611e12565b6040516102f091906131cd565b610374612265565b6102e061044c3660046131e0565b6002805473ffffffffffffffffffffffffffffffffffffffff19166001600160a01b0392909216919091179055565b604080518082018252600080825260209182015281518083019092526025548252602654908201526040516102f091906131fb565b6102e06104be366004613198565b612277565b6000546104d6906001600160a01b031681565b6040516001600160a01b0390911681526020016102f0565b6102e06104fc3660046125ef565b602155565b6002546001600160a01b03166104d6565b610374612283565b6102e0612295565b6102e0610530366004613212565b612367565b6102e06105433660046125ef565b602355565b6024546102e6565b6102e061055e366004613198565b612455565b6102e06105713660046125ef565b600755565b6021546102e6565b6102e061058c366004613247565b612461565b6102e061059f366004613262565b6006805460ff1916911515919091179055565b6102e06105c03660046125ef565b600155565b600a546102e6565b60065460ff1660405190151581526020016102f0565b6105eb612480565b6040805160808101825260015481526002546001600160a01b0316602082015260035491810191909152600454606082019060ff16601281111561063157610631612608565b9052919050565b8051600590815560208201516006805460ff1916911515919091179055604082015160075560608201518291906008906106729082613306565b50608082015160048201906106879082613306565b5060a0820151600582015560c08201518051600683019081906106aa9082613306565b50602082015160018201906106bf9082613306565b50604082015160028201906106d49082613306565b50606082015160038201906106e99082613306565b50608082015160048201906106fe9082613306565b5060a082015160058201906107139082613306565b5060c082015180516006830190815560208201516007840155604082015160088401906107409082613306565b5060608201516003820155608090910151600490910155505060e08201518051601183019081906107719082613306565b50602082015160018201906107869082613306565b506040820151600282019061079b9082613306565b50606082015160038201906107b09082613306565b50608082015160048201906107c59082613306565b5060a082015160058201906107da9082613306565b5060c082015160068201906107ef9082613306565b5060e082015160078201906108049082613306565b50610100820151600882019061081a9082613306565b5061012082015160098201906108309082613306565b50610140820151600a8201906108469082613306565b505050610100820151601c820155610120820151601d8201906108699082613306565b50610140820151601e820155610160820151601f820155610180909101518051602080840191909155015160219091015550565b6108fa60405180610160016040528060608152602001606081526020016060815260200160608152602001606081526020016060815260200160608152602001606081526020016060815260200160608152602001606081525090565b60408051610160810190915260168054829082906109179061327d565b80601f01602080910402602001604051908101604052809291908181526020018280546109439061327d565b80156109905780601f1061096557610100808354040283529160200191610990565b820191906000526020600020905b81548152906001019060200180831161097357829003601f168201915b505050505081526020016001820180546109a99061327d565b80601f01602080910402602001604051908101604052809291908181526020018280546109d59061327d565b8015610a225780601f106109f757610100808354040283529160200191610a22565b820191906000526020600020905b815481529060010190602001808311610a0557829003601f168201915b50505050508152602001600282018054610a3b9061327d565b80601f0160208091040260200160405190810160405280929190818152602001828054610a679061327d565b8015610ab45780601f10610a8957610100808354040283529160200191610ab4565b820191906000526020600020905b815481529060010190602001808311610a9757829003601f168201915b50505050508152602001600382018054610acd9061327d565b80601f0160208091040260200160405190810160405280929190818152602001828054610af99061327d565b8015610b465780601f10610b1b57610100808354040283529160200191610b46565b820191906000526020600020905b815481529060010190602001808311610b2957829003601f168201915b50505050508152602001600482018054610b5f9061327d565b80601f0160208091040260200160405190810160405280929190818152602001828054610b8b9061327d565b8015610bd85780601f10610bad57610100808354040283529160200191610bd8565b820191906000526020600020905b815481529060010190602001808311610bbb57829003601f168201915b50505050508152602001600582018054610bf19061327d565b80601f0160208091040260200160405190810160405280929190818152602001828054610c1d9061327d565b8015610c6a5780601f10610c3f57610100808354040283529160200191610c6a565b820191906000526020600020905b815481529060010190602001808311610c4d57829003601f168201915b50505050508152602001600682018054610c839061327d565b80601f0160208091040260200160405190810160405280929190818152602001828054610caf9061327d565b8015610cfc5780601f10610cd157610100808354040283529160200191610cfc565b820191906000526020600020905b815481529060010190602001808311610cdf57829003601f168201915b50505050508152602001600782018054610d159061327d565b80601f0160208091040260200160405190810160405280929190818152602001828054610d419061327d565b8015610d8e5780601f10610d6357610100808354040283529160200191610d8e565b820191906000526020600020905b815481529060010190602001808311610d7157829003601f168201915b50505050508152602001600882018054610da79061327d565b80601f0160208091040260200160405190810160405280929190818152602001828054610dd39061327d565b8015610e205780601f10610df557610100808354040283529160200191610e20565b820191906000526020600020905b815481529060010190602001808311610e0357829003601f168201915b50505050508152602001600982018054610e399061327d565b80601f0160208091040260200160405190810160405280929190818152602001828054610e659061327d565b8015610eb25780601f10610e8757610100808354040283529160200191610eb2565b820191906000526020600020905b815481529060010190602001808311610e9557829003601f168201915b50505050508152602001600a82018054610ecb9061327d565b80601f0160208091040260200160405190810160405280929190818152602001828054610ef79061327d565b8015610f445780601f10610f1957610100808354040283529160200191610f44565b820191906000526020600020905b815481529060010190602001808311610f2757829003601f168201915b505050505081525050905090565b80518190600b908190610f659082613306565b5060208201516001820190610f7a9082613306565b5060408201516002820190610f8f9082613306565b5060608201516003820190610fa49082613306565b5060808201516004820190610fb99082613306565b5060a08201516005820190610fce9082613306565b5060c08201518051600683019081556020820151600784015560408201516008840190610ffb9082613306565b5060608201516003820155608090910151600490910155505050565b60606005601d0180546110299061327d565b80601f01602080910402602001604051908101604052809291908181526020018280546110559061327d565b80156110a25780601f10611077576101008083540402835291602001916110a2565b820191906000526020600020905b81548152906001019060200180831161108557829003601f168201915b5050505050905090565b6110b46124a8565b604080516101a08101825260058054825260065460ff161515602083015260075492820192909252600880549192916060840191906110f29061327d565b80601f016020809104026020016040519081016040528092919081815260200182805461111e9061327d565b801561116b5780601f106111405761010080835404028352916020019161116b565b820191906000526020600020905b81548152906001019060200180831161114e57829003601f168201915b505050505081526020016004820180546111849061327d565b80601f01602080910402602001604051908101604052809291908181526020018280546111b09061327d565b80156111fd5780601f106111d2576101008083540402835291602001916111fd565b820191906000526020600020905b8154815290600101906020018083116111e057829003601f168201915b5050505050815260200160058201548152602001600682016040518060e00160405290816000820180546112309061327d565b80601f016020809104026020016040519081016040528092919081815260200182805461125c9061327d565b80156112a95780601f1061127e576101008083540402835291602001916112a9565b820191906000526020600020905b81548152906001019060200180831161128c57829003601f168201915b505050505081526020016001820180546112c29061327d565b80601f01602080910402602001604051908101604052809291908181526020018280546112ee9061327d565b801561133b5780601f106113105761010080835404028352916020019161133b565b820191906000526020600020905b81548152906001019060200180831161131e57829003601f168201915b505050505081526020016002820180546113549061327d565b80601f01602080910402602001604051908101604052809291908181526020018280546113809061327d565b80156113cd5780601f106113a2576101008083540402835291602001916113cd565b820191906000526020600020905b8154815290600101906020018083116113b057829003601f168201915b505050505081526020016003820180546113e69061327d565b80601f01602080910402602001604051908101604052809291908181526020018280546114129061327d565b801561145f5780601f106114345761010080835404028352916020019161145f565b820191906000526020600020905b81548152906001019060200180831161144257829003601f168201915b505050505081526020016004820180546114789061327d565b80601f01602080910402602001604051908101604052809291908181526020018280546114a49061327d565b80156114f15780601f106114c6576101008083540402835291602001916114f1565b820191906000526020600020905b8154815290600101906020018083116114d457829003601f168201915b5050505050815260200160058201805461150a9061327d565b80601f01602080910402602001604051908101604052809291908181526020018280546115369061327d565b80156115835780601f1061155857610100808354040283529160200191611583565b820191906000526020600020905b81548152906001019060200180831161156657829003601f168201915b50505050508152602001600682016040518060a001604052908160008201548152602001600182015481526020016002820180546115c09061327d565b80601f01602080910402602001604051908101604052809291908181526020018280546115ec9061327d565b80156116395780601f1061160e57610100808354040283529160200191611639565b820191906000526020600020905b81548152906001019060200180831161161c57829003601f168201915b5050505050815260200160038201548152602001600482015481525050815250508152602001601182016040518061016001604052908160008201805461167f9061327d565b80601f01602080910402602001604051908101604052809291908181526020018280546116ab9061327d565b80156116f85780601f106116cd576101008083540402835291602001916116f8565b820191906000526020600020905b8154815290600101906020018083116116db57829003601f168201915b505050505081526020016001820180546117119061327d565b80601f016020809104026020016040519081016040528092919081815260200182805461173d9061327d565b801561178a5780601f1061175f5761010080835404028352916020019161178a565b820191906000526020600020905b81548152906001019060200180831161176d57829003601f168201915b505050505081526020016002820180546117a39061327d565b80601f01602080910402602001604051908101604052809291908181526020018280546117cf9061327d565b801561181c5780601f106117f15761010080835404028352916020019161181c565b820191906000526020600020905b8154815290600101906020018083116117ff57829003601f168201915b505050505081526020016003820180546118359061327d565b80601f01602080910402602001604051908101604052809291908181526020018280546118619061327d565b80156118ae5780601f10611883576101008083540402835291602001916118ae565b820191906000526020600020905b81548152906001019060200180831161189157829003601f168201915b505050505081526020016004820180546118c79061327d565b80601f01602080910402602001604051908101604052809291908181526020018280546118f39061327d565b80156119405780601f1061191557610100808354040283529160200191611940565b820191906000526020600020905b81548152906001019060200180831161192357829003601f168201915b505050505081526020016005820180546119599061327d565b80601f01602080910402602001604051908101604052809291908181526020018280546119859061327d565b80156119d25780601f106119a7576101008083540402835291602001916119d2565b820191906000526020600020905b8154815290600101906020018083116119b557829003601f168201915b505050505081526020016006820180546119eb9061327d565b80601f0160208091040260200160405190810160405280929190818152602001828054611a179061327d565b8015611a645780601f10611a3957610100808354040283529160200191611a64565b820191906000526020600020905b815481529060010190602001808311611a4757829003601f168201915b50505050508152602001600782018054611a7d9061327d565b80601f0160208091040260200160405190810160405280929190818152602001828054611aa99061327d565b8015611af65780601f10611acb57610100808354040283529160200191611af6565b820191906000526020600020905b815481529060010190602001808311611ad957829003601f168201915b50505050508152602001600882018054611b0f9061327d565b80601f0160208091040260200160405190810160405280929190818152602001828054611b3b9061327d565b8015611b885780601f10611b5d57610100808354040283529160200191611b88565b820191906000526020600020905b815481529060010190602001808311611b6b57829003601f168201915b50505050508152602001600982018054611ba19061327d565b80601f0160208091040260200160405190810160405280929190818152602001828054611bcd9061327d565b8015611c1a5780601f10611bef57610100808354040283529160200191611c1a565b820191906000526020600020905b815481529060010190602001808311611bfd57829003601f168201915b50505050508152602001600a82018054611c339061327d565b80601f0160208091040260200160405190810160405280929190818152602001828054611c5f9061327d565b8015611cac5780601f10611c8157610100808354040283529160200191611cac565b820191906000526020600020905b815481529060010190602001808311611c8f57829003601f168201915b5050505050815250508152602001601c8201548152602001601d82018054611cd39061327d565b80601f0160208091040260200160405190810160405280929190818152602001828054611cff9061327d565b8015611d4c5780601f10611d2157610100808354040283529160200191611d4c565b820191906000526020600020905b815481529060010190602001808311611d2f57829003601f168201915b50505050508152602001601e8201548152602001601f8201548152602001602082016040518060400160405290816000820154815260200160018201548152505081525050905090565b8051600190815560208201516002805473ffffffffffffffffffffffffffffffffffffffff19166001600160a01b0390921691909117905560408201516003556060820151600480549192909160ff191690836012811115611dfa57611dfa612608565b021790555050565b6022611e0e8282613306565b5050565b611e1a612588565b6040805160e08101909152600b805482908290611e369061327d565b80601f0160208091040260200160405190810160405280929190818152602001828054611e629061327d565b8015611eaf5780601f10611e8457610100808354040283529160200191611eaf565b820191906000526020600020905b815481529060010190602001808311611e9257829003601f168201915b50505050508152602001600182018054611ec89061327d565b80601f0160208091040260200160405190810160405280929190818152602001828054611ef49061327d565b8015611f415780601f10611f1657610100808354040283529160200191611f41565b820191906000526020600020905b815481529060010190602001808311611f2457829003601f168201915b50505050508152602001600282018054611f5a9061327d565b80601f0160208091040260200160405190810160405280929190818152602001828054611f869061327d565b8015611fd35780601f10611fa857610100808354040283529160200191611fd3565b820191906000526020600020905b815481529060010190602001808311611fb657829003601f168201915b50505050508152602001600382018054611fec9061327d565b80601f01602080910402602001604051908101604052809291908181526020018280546120189061327d565b80156120655780601f1061203a57610100808354040283529160200191612065565b820191906000526020600020905b81548152906001019060200180831161204857829003601f168201915b5050505050815260200160048201805461207e9061327d565b80601f01602080910402602001604051908101604052809291908181526020018280546120aa9061327d565b80156120f75780601f106120cc576101008083540402835291602001916120f7565b820191906000526020600020905b8154815290600101906020018083116120da57829003601f168201915b505050505081526020016005820180546121109061327d565b80601f016020809104026020016040519081016040528092919081815260200182805461213c9061327d565b80156121895780601f1061215e57610100808354040283529160200191612189565b820191906000526020600020905b81548152906001019060200180831161216c57829003601f168201915b50505050508152602001600682016040518060a001604052908160008201548152602001600182015481526020016002820180546121c69061327d565b80601f01602080910402602001604051908101604052809291908181526020018280546121f29061327d565b801561223f5780601f106122145761010080835404028352916020019161223f565b820191906000526020600020905b81548152906001019060200180831161222257829003601f168201915b505050505081526020016003820154815260200160048201548152505081525050905090565b6060600560040180546110299061327d565b6009611e0e8282613306565b6060600560030180546110299061327d565b6000546001600160a01b03163314612359576040517f08c379a000000000000000000000000000000000000000000000000000000000815260206004820152604160248201527f457374612066756e63696f6e20736f6c6f2070756564652073657220656a656360448201527f757461646120706f7220656c2063726561646f722064656c20636f6e7472617460648201527f6f00000000000000000000000000000000000000000000000000000000000000608482015260a40160405180910390fd5b6000546001600160a01b0316ff5b80518190601690819061237a9082613306565b506020820151600182019061238f9082613306565b50604082015160028201906123a49082613306565b50606082015160038201906123b99082613306565b50608082015160048201906123ce9082613306565b5060a082015160058201906123e39082613306565b5060c082015160068201906123f89082613306565b5060e0820151600782019061240d9082613306565b5061010082015160088201906124239082613306565b5061012082015160098201906124399082613306565b50610140820151600a82019061244f9082613306565b50505050565b6008611e0e8282613306565b6004805482919060ff19166001836012811115611dfa57611dfa612608565b604080516080810182526000808252602082018190529181018290529060608201905b905290565b604051806101a0016040528060008152602001600015158152602001600081526020016060815260200160608152602001600081526020016124e8612588565b815260200161254a60405180610160016040528060608152602001606081526020016060815260200160608152602001606081526020016060815260200160608152602001606081526020016060815260200160608152602001606081525090565b8152602001600081526020016060815260200160008152602001600081526020016124a3604051806040016040528060008152602001600081525090565b6040518060e001604052806060815260200160608152602001606081526020016060815260200160608152602001606081526020016124a36040518060a0016040528060008152602001600081526020016060815260200160008152602001600081525090565b60006020828403121561260157600080fd5b5035919050565b634e487b7160e01b600052602160045260246000fd5b6013811061263c57634e487b7160e01b600052602160045260246000fd5b9052565b6000608082019050825182526001600160a01b03602084015116602083015260408301516040830152606083015161267b606084018261261e565b5092915050565b634e487b7160e01b600052604160045260246000fd5b60405160e0810167ffffffffffffffff811182821017156126bb576126bb612682565b60405290565b604051610160810167ffffffffffffffff811182821017156126bb576126bb612682565b6040516101a0810167ffffffffffffffff811182821017156126bb576126bb612682565b8035801515811461271957600080fd5b919050565b600082601f83011261272f57600080fd5b813567ffffffffffffffff8082111561274a5761274a612682565b604051601f8301601f19908116603f0116810190828211818310171561277257612772612682565b8160405283815286602085880101111561278b57600080fd5b836020870160208301376000602085830101528094505050505092915050565b600060a082840312156127bd57600080fd5b60405160a0810167ffffffffffffffff82821081831117156127e1576127e1612682565b816040528293508435835260208501356020840152604085013591508082111561280a57600080fd5b506128178582860161271e565b60408301525060608301356060820152608083013560808201525092915050565b600060e0828403121561284a57600080fd5b612852612698565b9050813567ffffffffffffffff8082111561286c57600080fd5b6128788583860161271e565b8352602084013591508082111561288e57600080fd5b61289a8583860161271e565b602084015260408401359150808211156128b357600080fd5b6128bf8583860161271e565b604084015260608401359150808211156128d857600080fd5b6128e48583860161271e565b606084015260808401359150808211156128fd57600080fd5b6129098583860161271e565b608084015260a084013591508082111561292257600080fd5b61292e8583860161271e565b60a084015260c084013591508082111561294757600080fd5b50612954848285016127ab565b60c08301525092915050565b6000610160828403121561297357600080fd5b61297b6126c1565b9050813567ffffffffffffffff8082111561299557600080fd5b6129a18583860161271e565b835260208401359150808211156129b757600080fd5b6129c38583860161271e565b602084015260408401359150808211156129dc57600080fd5b6129e88583860161271e565b60408401526060840135915080821115612a0157600080fd5b612a0d8583860161271e565b60608401526080840135915080821115612a2657600080fd5b612a328583860161271e565b608084015260a0840135915080821115612a4b57600080fd5b612a578583860161271e565b60a084015260c0840135915080821115612a7057600080fd5b612a7c8583860161271e565b60c084015260e0840135915080821115612a9557600080fd5b612aa18583860161271e565b60e084015261010091508184013581811115612abc57600080fd5b612ac88682870161271e565b838501525061012091508184013581811115612ae357600080fd5b612aef8682870161271e565b838501525061014091508184013581811115612b0a57600080fd5b612b168682870161271e565b8385015250505092915050565b600060408284031215612b3557600080fd5b6040516040810181811067ffffffffffffffff82111715612b5857612b58612682565b604052823581526020928301359281019290925250919050565b600060208284031215612b8457600080fd5b813567ffffffffffffffff80821115612b9c57600080fd5b908301906101c08286031215612bb157600080fd5b612bb96126e5565b82358152612bc960208401612709565b602082015260408301356040820152606083013582811115612bea57600080fd5b612bf68782860161271e565b606083015250608083013582811115612c0e57600080fd5b612c1a8782860161271e565b60808301525060a083013560a082015260c083013582811115612c3c57600080fd5b612c4887828601612838565b60c08301525060e083013582811115612c6057600080fd5b612c6c87828601612960565b60e08301525061010083810135908201526101208084013583811115612c9157600080fd5b612c9d8882870161271e565b9183019190915250610140838101359082015261016080840135908201526101809150612ccc86838501612b23565b91810191909152949350505050565b6000815180845260005b81811015612d0157602081850181015186830182015201612ce5565b506000602082860101526020601f19601f83011685010191505092915050565b60006101608251818552612d3782860182612cdb565b91505060208301518482036020860152612d518282612cdb565b91505060408301518482036040860152612d6b8282612cdb565b91505060608301518482036060860152612d858282612cdb565b91505060808301518482036080860152612d9f8282612cdb565b91505060a083015184820360a0860152612db98282612cdb565b91505060c083015184820360c0860152612dd38282612cdb565b91505060e083015184820360e0860152612ded8282612cdb565b9150506101008084015185830382870152612e088382612cdb565b925050506101208084015185830382870152612e248382612cdb565b925050506101408084015185830382870152612e408382612cdb565b9695505050505050565b602081526000612e5d6020830184612d21565b9392505050565b600060208284031215612e7657600080fd5b813567ffffffffffffffff811115612e8d57600080fd5b612e9984828501612838565b949350505050565b602081526000612e5d6020830184612cdb565b80518252602081015160208301526000604082015160a06040850152612edd60a0850182612cdb565b905060608301516060850152608083015160808501528091505092915050565b6000815160e08452612f1260e0850182612cdb565b905060208301518482036020860152612f2b8282612cdb565b91505060408301518482036040860152612f458282612cdb565b91505060608301518482036060860152612f5f8282612cdb565b91505060808301518482036080860152612f798282612cdb565b91505060a083015184820360a0860152612f938282612cdb565b91505060c083015184820360c0860152612fad8282612eb4565b95945050505050565b602081528151602082015260006020830151612fd6604084018215159052565b506040830151606083015260608301516101c06080840152612ffc6101e0840182612cdb565b90506080840151601f19808584030160a086015261301a8383612cdb565b925060a086015160c086015260c08601519150808584030160e08601526130418383612efd565b925060e086015191506101008186850301818701526130608484612d21565b93508087015192505061012082818701528087015192505061014081868503018187015261308e8484612cdb565b90870151610160878101919091528701516101808088019190915287015180516101a088015260208101516101c088015290935091506130cb9050565b509392505050565b602081016130e1828461261e565b92915050565b6000604082840312156130f957600080fd5b612e5d8383612b23565b80356001600160a01b038116811461271957600080fd5b80356013811061271957600080fd5b60006080828403121561313b57600080fd5b6040516080810181811067ffffffffffffffff8211171561315e5761315e612682565b6040528235815261317160208401613103565b60208201526040830135604082015261318c6060840161311a565b60608201529392505050565b6000602082840312156131aa57600080fd5b813567ffffffffffffffff8111156131c157600080fd5b612e998482850161271e565b602081526000612e5d6020830184612efd565b6000602082840312156131f257600080fd5b612e5d82613103565b8151815260208083015190820152604081016130e1565b60006020828403121561322457600080fd5b813567ffffffffffffffff81111561323b57600080fd5b612e9984828501612960565b60006020828403121561325957600080fd5b612e5d8261311a565b60006020828403121561327457600080fd5b612e5d82612709565b600181811c9082168061329157607f821691505b6020821081036132b157634e487b7160e01b600052602260045260246000fd5b50919050565b601f82111561330157600081815260208120601f850160051c810160208610156132de5750805b601f850160051c820191505b818110156132fd578281556001016132ea565b5050505b505050565b815167ffffffffffffffff81111561332057613320612682565b6133348161332e845461327d565b846132b7565b602080601f83116001811461336957600084156133515750858301515b600019600386901b1c1916600185901b1785556132fd565b600085815260208120601f198616915b8281101561339857888601518255948401946001909101908401613379565b50858210156133b65787850151600019600388901b60f8161c191681555b5050505050600190811b0190555056fea2646970667358221220735eeebc0e8db795d6ae3e29bb83b0eac31b36d053186641882cd6b24755850264736f6c63430008110033",
  "immutableReferences": {},
  "source": "// SPDX-License-Identifier: MIT\npragma solidity ^0.8.17;\n\nimport \"./RegistroMedico.sol\";\nimport \"../structsGenerales/IncapacidadStruct.sol\";\nimport \"../structsGenerales/ExploracionPorRegionesStruct.sol\";\nimport \"../structsGenerales/ExploracionPorSistemasStruct.sol\";\n\n//import \"./structsGenerales/DatosPersonalesStruct.sol\";\n\ncontract ConsultaIndividualVO is RegistroMedico (TipoRegistroMedico.CONSULTAINDIVIDUALVO) {\n    struct ConsultaIndividualStruct {\n        int256 fechaAtencion;\n        bool consultaPrioritaria;\n        uint256 especialidadId;\n        string padecimiento;\n        string sintomas;\n        uint256 causaExternaId;\n        ExploracionPorRegionesStruct exploracionPorRegiones;\n        ExploracionPorSistemasStruct exploracionPorSistemas;\n        uint256 codigoDiagnostico;\n        string conducta; // TODO: Revisar conducto\n        uint256 tipoDiagnostico;\n        uint256 numeroConsultaDelAno;\n        IncapacidadStruct incapacidad;\n    }\n\n    ConsultaIndividualStruct private consultaIndividualStruct;\n\n    function getConsultaIndividualStruct()\n        public\n        view\n        returns (ConsultaIndividualStruct memory)\n    {\n        return consultaIndividualStruct;\n    }\n\n    function setConsultaIndividualStruct(\n        ConsultaIndividualStruct memory _consultaIndividualStruct\n    ) public {\n        consultaIndividualStruct = _consultaIndividualStruct;\n    }\n\n\n\n    function getFechaAtencion() public view returns (int256) {\n        return consultaIndividualStruct.fechaAtencion;\n    }\n\n    function getConsultaPrioritaria() public view returns (bool) {\n        return consultaIndividualStruct.consultaPrioritaria;\n    }\n\n    function getEspecialidadId() public view returns (uint256) {\n        return consultaIndividualStruct.especialidadId;\n    }\n\n    function getPadecimiento() public view returns (string memory) {\n        return consultaIndividualStruct.padecimiento;\n    }\n\n    function getSintomas() public view returns (string memory) {\n        return consultaIndividualStruct.sintomas;\n    }\n\n    function getCausaExternaId() public view returns (uint256) {\n        return consultaIndividualStruct.causaExternaId;\n    }\n\n    function getExploracionPorRegionesStruct()\n        public\n        view\n        returns (ExploracionPorRegionesStruct memory)\n    {\n        return consultaIndividualStruct.exploracionPorRegiones;\n    }\n\n    function getExploracionPorSistemasStruct()\n        public\n        view\n        returns (ExploracionPorSistemasStruct memory)\n    {\n        return consultaIndividualStruct.exploracionPorSistemas;\n    }\n\n    function getCodigoDiagnostico() public view returns (uint256) {\n        return consultaIndividualStruct.codigoDiagnostico;\n    }\n\n    function getConducta() public view returns (string memory) {\n        return consultaIndividualStruct.conducta;\n    }\n\n    function getTipoDiagnostico() public view returns (uint256) {\n        return consultaIndividualStruct.tipoDiagnostico;\n    }\n\n    function getNumeroConsultaDelAno() public view returns (uint256) {\n        return consultaIndividualStruct.numeroConsultaDelAno;\n    }\n\n    function getIncapacidad() public view returns (IncapacidadStruct memory) {\n        return consultaIndividualStruct.incapacidad;\n    }\n\n\n    function setFechaAtencion(int256 _fechaAtencion) public {\n        consultaIndividualStruct.fechaAtencion = _fechaAtencion;\n    }\n\n    function setConsultaPrioritaria(bool _consultaPrioritaria) public {\n        consultaIndividualStruct.consultaPrioritaria = _consultaPrioritaria;\n    }\n\n    function setEspecialidadId(uint256 _especialidadId) public {\n        consultaIndividualStruct.especialidadId = _especialidadId;\n    }\n\n    function setPadecimiento(string memory _padecimiento) public {\n        consultaIndividualStruct.padecimiento = _padecimiento;\n    }\n\n    function setSintomas(string memory _sintomas) public {\n        consultaIndividualStruct.sintomas = _sintomas;\n    }\n\n    function setCausaExternaId(uint256 _causaExternaId) public {\n        consultaIndividualStruct.causaExternaId = _causaExternaId;\n    }\n\n    function setExploracionPorRegionesStruct(\n        ExploracionPorRegionesStruct memory _exploracionPorRegiones\n    ) public {\n        consultaIndividualStruct\n            .exploracionPorRegiones = _exploracionPorRegiones;\n    }\n\n    function setExploracionPorSistemasStruct(\n        ExploracionPorSistemasStruct memory _exploracionPorSistemas\n    ) public {\n        consultaIndividualStruct\n            .exploracionPorSistemas = _exploracionPorSistemas;\n    }\n\n    function setCodigoDiagnostico(uint256 _codigoDiagnostico) public {\n        consultaIndividualStruct.codigoDiagnostico = _codigoDiagnostico;\n    }\n\n    function setConducta(string memory _conducta) public {\n        consultaIndividualStruct.conducta = _conducta;\n        \n    }\n\n    function setTipoDiagnostico(uint256 _tipoDiagnostico) public {\n        consultaIndividualStruct.tipoDiagnostico = _tipoDiagnostico;\n    }\n\n    function setNumeroConsultaDelAno(uint256 _numeroConsultaDelAno) public {\n        consultaIndividualStruct.numeroConsultaDelAno = _numeroConsultaDelAno;\n    }\n\n    function setIncapacidad(IncapacidadStruct memory _incapacidad) public {\n        consultaIndividualStruct.incapacidad = _incapacidad;\n    }\n}\n",
  "sourcePath": "/back/contracts/models/historiaClinica/ConsultaIndividualVO.sol",
  "compiler": {
    "name": "solc",
    "version": "0.8.17+commit.8df45f5f.Emscripten.clang"
  },
  "schemaVersion": "3.4.11",
  "updatedAt": "2023-05-03T04:13:43.041Z",
  "devdoc": {
    "kind": "dev",
    "methods": {},
    "version": 1
  },
  "userdoc": {
    "kind": "user",
    "methods": {},
    "version": 1
  }
}