{
  "contractName": "ConsultaIndividualVO",
  "abi": [
    {
      "inputs": [],
      "name": "creador",
      "outputs": [
        {
          "internalType": "address",
          "name": "",
          "type": "address"
        }
      ],
      "stateMutability": "view",
      "type": "function"
    },
    {
      "inputs": [],
      "name": "getCodPrestadorServicioDeSalud",
      "outputs": [
        {
          "internalType": "address",
          "name": "",
          "type": "address"
        }
      ],
      "stateMutability": "view",
      "type": "function"
    },
    {
      "inputs": [],
      "name": "getFechaRegistro",
      "outputs": [
        {
          "internalType": "uint256",
          "name": "",
          "type": "uint256"
        }
      ],
      "stateMutability": "view",
      "type": "function"
    },
    {
      "inputs": [],
      "name": "getId",
      "outputs": [
        {
          "internalType": "uint256",
          "name": "",
          "type": "uint256"
        }
      ],
      "stateMutability": "view",
      "type": "function"
    },
    {
      "inputs": [],
      "name": "getRegistroMedico",
      "outputs": [
        {
          "components": [
            {
              "internalType": "uint256",
              "name": "id",
              "type": "uint256"
            },
            {
              "internalType": "address",
              "name": "codPrestadorServicioDeSalud",
              "type": "address"
            },
            {
              "internalType": "uint256",
              "name": "fechaRegistro",
              "type": "uint256"
            },
            {
              "internalType": "enum TipoRegistroMedico",
              "name": "tipoRegistroMedico",
              "type": "uint8"
            }
          ],
          "internalType": "struct RegistroMedico.RegistroMedicoStruct",
          "name": "",
          "type": "tuple"
        }
      ],
      "stateMutability": "view",
      "type": "function"
    },
    {
      "inputs": [],
      "name": "getTipoRegistroMedico",
      "outputs": [
        {
          "internalType": "enum TipoRegistroMedico",
          "name": "",
          "type": "uint8"
        }
      ],
      "stateMutability": "view",
      "type": "function"
    },
    {
      "inputs": [],
      "name": "selfDestruct",
      "outputs": [],
      "stateMutability": "nonpayable",
      "type": "function"
    },
    {
      "inputs": [
        {
          "internalType": "address",
          "name": "_codPrestadorServicioDeSalud",
          "type": "address"
        }
      ],
      "name": "setCodPrestadorServicioDeSalud",
      "outputs": [],
      "stateMutability": "nonpayable",
      "type": "function"
    },
    {
      "inputs": [
        {
          "internalType": "uint256",
          "name": "_fechaRegistro",
          "type": "uint256"
        }
      ],
      "name": "setFechaRegistro",
      "outputs": [],
      "stateMutability": "nonpayable",
      "type": "function"
    },
    {
      "inputs": [
        {
          "internalType": "uint256",
          "name": "_id",
          "type": "uint256"
        }
      ],
      "name": "setId",
      "outputs": [],
      "stateMutability": "nonpayable",
      "type": "function"
    },
    {
      "inputs": [
        {
          "components": [
            {
              "internalType": "uint256",
              "name": "id",
              "type": "uint256"
            },
            {
              "internalType": "address",
              "name": "codPrestadorServicioDeSalud",
              "type": "address"
            },
            {
              "internalType": "uint256",
              "name": "fechaRegistro",
              "type": "uint256"
            },
            {
              "internalType": "enum TipoRegistroMedico",
              "name": "tipoRegistroMedico",
              "type": "uint8"
            }
          ],
          "internalType": "struct RegistroMedico.RegistroMedicoStruct",
          "name": "registro",
          "type": "tuple"
        }
      ],
      "name": "setRegistroMedico",
      "outputs": [],
      "stateMutability": "nonpayable",
      "type": "function"
    },
    {
      "inputs": [
        {
          "internalType": "enum TipoRegistroMedico",
          "name": "_tipoRegistroMedico",
          "type": "uint8"
        }
      ],
      "name": "setTipoRegistroMedico",
      "outputs": [],
      "stateMutability": "nonpayable",
      "type": "function"
    },
    {
      "inputs": [],
      "name": "getConsultaIndividualStruct",
      "outputs": [
        {
          "components": [
            {
              "internalType": "uint256",
              "name": "fechaAtencion",
              "type": "uint256"
            },
            {
              "internalType": "bool",
              "name": "consultaPrioritaria",
              "type": "bool"
            },
            {
              "internalType": "uint256",
              "name": "especialidadId",
              "type": "uint256"
            },
            {
              "internalType": "string",
              "name": "padecimiento",
              "type": "string"
            },
            {
              "internalType": "string",
              "name": "sintomas",
              "type": "string"
            },
            {
              "internalType": "uint256",
              "name": "causaExternaId",
              "type": "uint256"
            },
            {
              "components": [
                {
                  "internalType": "string",
                  "name": "cabeza",
                  "type": "string"
                },
                {
                  "internalType": "string",
                  "name": "cuello",
                  "type": "string"
                },
                {
                  "internalType": "string",
                  "name": "abdomen",
                  "type": "string"
                },
                {
                  "internalType": "string",
                  "name": "torax",
                  "type": "string"
                },
                {
                  "internalType": "string",
                  "name": "genitales",
                  "type": "string"
                },
                {
                  "internalType": "string",
                  "name": "miembros",
                  "type": "string"
                },
                {
                  "components": [
                    {
                      "internalType": "uint256",
                      "name": "frecuenciaCardiaca",
                      "type": "uint256"
                    },
                    {
                      "internalType": "uint256",
                      "name": "frecuenciaRespiratoria",
                      "type": "uint256"
                    },
                    {
                      "internalType": "string",
                      "name": "tensionArterial",
                      "type": "string"
                    },
                    {
                      "internalType": "uint256",
                      "name": "peso",
                      "type": "uint256"
                    },
                    {
                      "internalType": "uint256",
                      "name": "temperatura",
                      "type": "uint256"
                    }
                  ],
                  "internalType": "struct SignosVitalesStruct",
                  "name": "signosVitalesStruct",
                  "type": "tuple"
                }
              ],
              "internalType": "struct ExploracionPorRegionesStruct",
              "name": "exploracionPorRegiones",
              "type": "tuple"
            },
            {
              "components": [
                {
                  "internalType": "string",
                  "name": "aparatoCardiovascular",
                  "type": "string"
                },
                {
                  "internalType": "string",
                  "name": "aparatoDigestivo",
                  "type": "string"
                },
                {
                  "internalType": "string",
                  "name": "aparatoRespiratorio",
                  "type": "string"
                },
                {
                  "internalType": "string",
                  "name": "aparatoGenital",
                  "type": "string"
                },
                {
                  "internalType": "string",
                  "name": "aparatoUrinario",
                  "type": "string"
                },
                {
                  "internalType": "string",
                  "name": "aparatoHematologico",
                  "type": "string"
                },
                {
                  "internalType": "string",
                  "name": "aparatoOsteomuscular",
                  "type": "string"
                },
                {
                  "internalType": "string",
                  "name": "sistemaEndocrino",
                  "type": "string"
                },
                {
                  "internalType": "string",
                  "name": "sistemaNervioso",
                  "type": "string"
                },
                {
                  "internalType": "string",
                  "name": "sistemaSensorial",
                  "type": "string"
                },
                {
                  "internalType": "string",
                  "name": "sistemaPsicosomatico",
                  "type": "string"
                }
              ],
              "internalType": "struct ExploracionPorSistemasStruct",
              "name": "exploracionPorSistemas",
              "type": "tuple"
            },
            {
              "internalType": "uint256",
              "name": "codigoDiagnostico",
              "type": "uint256"
            },
            {
              "internalType": "string",
              "name": "conducta",
              "type": "string"
            },
            {
              "internalType": "uint256",
              "name": "tipoDiagnostico",
              "type": "uint256"
            },
            {
              "internalType": "uint256",
              "name": "numeroConsultaDelAno",
              "type": "uint256"
            },
            {
              "components": [
                {
                  "internalType": "uint256",
                  "name": "dias",
                  "type": "uint256"
                },
                {
                  "internalType": "uint256",
                  "name": "motivo",
                  "type": "uint256"
                }
              ],
              "internalType": "struct IncapacidadStruct",
              "name": "incapacidad",
              "type": "tuple"
            }
          ],
          "internalType": "struct ConsultaIndividualVO.ConsultaIndividualStruct",
          "name": "",
          "type": "tuple"
        }
      ],
      "stateMutability": "view",
      "type": "function"
    },
    {
      "inputs": [
        {
          "components": [
            {
              "internalType": "uint256",
              "name": "fechaAtencion",
              "type": "uint256"
            },
            {
              "internalType": "bool",
              "name": "consultaPrioritaria",
              "type": "bool"
            },
            {
              "internalType": "uint256",
              "name": "especialidadId",
              "type": "uint256"
            },
            {
              "internalType": "string",
              "name": "padecimiento",
              "type": "string"
            },
            {
              "internalType": "string",
              "name": "sintomas",
              "type": "string"
            },
            {
              "internalType": "uint256",
              "name": "causaExternaId",
              "type": "uint256"
            },
            {
              "components": [
                {
                  "internalType": "string",
                  "name": "cabeza",
                  "type": "string"
                },
                {
                  "internalType": "string",
                  "name": "cuello",
                  "type": "string"
                },
                {
                  "internalType": "string",
                  "name": "abdomen",
                  "type": "string"
                },
                {
                  "internalType": "string",
                  "name": "torax",
                  "type": "string"
                },
                {
                  "internalType": "string",
                  "name": "genitales",
                  "type": "string"
                },
                {
                  "internalType": "string",
                  "name": "miembros",
                  "type": "string"
                },
                {
                  "components": [
                    {
                      "internalType": "uint256",
                      "name": "frecuenciaCardiaca",
                      "type": "uint256"
                    },
                    {
                      "internalType": "uint256",
                      "name": "frecuenciaRespiratoria",
                      "type": "uint256"
                    },
                    {
                      "internalType": "string",
                      "name": "tensionArterial",
                      "type": "string"
                    },
                    {
                      "internalType": "uint256",
                      "name": "peso",
                      "type": "uint256"
                    },
                    {
                      "internalType": "uint256",
                      "name": "temperatura",
                      "type": "uint256"
                    }
                  ],
                  "internalType": "struct SignosVitalesStruct",
                  "name": "signosVitalesStruct",
                  "type": "tuple"
                }
              ],
              "internalType": "struct ExploracionPorRegionesStruct",
              "name": "exploracionPorRegiones",
              "type": "tuple"
            },
            {
              "components": [
                {
                  "internalType": "string",
                  "name": "aparatoCardiovascular",
                  "type": "string"
                },
                {
                  "internalType": "string",
                  "name": "aparatoDigestivo",
                  "type": "string"
                },
                {
                  "internalType": "string",
                  "name": "aparatoRespiratorio",
                  "type": "string"
                },
                {
                  "internalType": "string",
                  "name": "aparatoGenital",
                  "type": "string"
                },
                {
                  "internalType": "string",
                  "name": "aparatoUrinario",
                  "type": "string"
                },
                {
                  "internalType": "string",
                  "name": "aparatoHematologico",
                  "type": "string"
                },
                {
                  "internalType": "string",
                  "name": "aparatoOsteomuscular",
                  "type": "string"
                },
                {
                  "internalType": "string",
                  "name": "sistemaEndocrino",
                  "type": "string"
                },
                {
                  "internalType": "string",
                  "name": "sistemaNervioso",
                  "type": "string"
                },
                {
                  "internalType": "string",
                  "name": "sistemaSensorial",
                  "type": "string"
                },
                {
                  "internalType": "string",
                  "name": "sistemaPsicosomatico",
                  "type": "string"
                }
              ],
              "internalType": "struct ExploracionPorSistemasStruct",
              "name": "exploracionPorSistemas",
              "type": "tuple"
            },
            {
              "internalType": "uint256",
              "name": "codigoDiagnostico",
              "type": "uint256"
            },
            {
              "internalType": "string",
              "name": "conducta",
              "type": "string"
            },
            {
              "internalType": "uint256",
              "name": "tipoDiagnostico",
              "type": "uint256"
            },
            {
              "internalType": "uint256",
              "name": "numeroConsultaDelAno",
              "type": "uint256"
            },
            {
              "components": [
                {
                  "internalType": "uint256",
                  "name": "dias",
                  "type": "uint256"
                },
                {
                  "internalType": "uint256",
                  "name": "motivo",
                  "type": "uint256"
                }
              ],
              "internalType": "struct IncapacidadStruct",
              "name": "incapacidad",
              "type": "tuple"
            }
          ],
          "internalType": "struct ConsultaIndividualVO.ConsultaIndividualStruct",
          "name": "_consultaIndividualStruct",
          "type": "tuple"
        }
      ],
      "name": "setConsultaIndividualStruct",
      "outputs": [],
      "stateMutability": "nonpayable",
      "type": "function"
    },
    {
      "inputs": [],
      "name": "getFechaAtencion",
      "outputs": [
        {
          "internalType": "uint256",
          "name": "",
          "type": "uint256"
        }
      ],
      "stateMutability": "view",
      "type": "function"
    },
    {
      "inputs": [],
      "name": "getConsultaPrioritaria",
      "outputs": [
        {
          "internalType": "bool",
          "name": "",
          "type": "bool"
        }
      ],
      "stateMutability": "view",
      "type": "function"
    },
    {
      "inputs": [],
      "name": "getEspecialidadId",
      "outputs": [
        {
          "internalType": "uint256",
          "name": "",
          "type": "uint256"
        }
      ],
      "stateMutability": "view",
      "type": "function"
    },
    {
      "inputs": [],
      "name": "getPadecimiento",
      "outputs": [
        {
          "internalType": "string",
          "name": "",
          "type": "string"
        }
      ],
      "stateMutability": "view",
      "type": "function"
    },
    {
      "inputs": [],
      "name": "getSintomas",
      "outputs": [
        {
          "internalType": "string",
          "name": "",
          "type": "string"
        }
      ],
      "stateMutability": "view",
      "type": "function"
    },
    {
      "inputs": [],
      "name": "getCausaExternaId",
      "outputs": [
        {
          "internalType": "uint256",
          "name": "",
          "type": "uint256"
        }
      ],
      "stateMutability": "view",
      "type": "function"
    },
    {
      "inputs": [],
      "name": "getExploracionPorRegionesStruct",
      "outputs": [
        {
          "components": [
            {
              "internalType": "string",
              "name": "cabeza",
              "type": "string"
            },
            {
              "internalType": "string",
              "name": "cuello",
              "type": "string"
            },
            {
              "internalType": "string",
              "name": "abdomen",
              "type": "string"
            },
            {
              "internalType": "string",
              "name": "torax",
              "type": "string"
            },
            {
              "internalType": "string",
              "name": "genitales",
              "type": "string"
            },
            {
              "internalType": "string",
              "name": "miembros",
              "type": "string"
            },
            {
              "components": [
                {
                  "internalType": "uint256",
                  "name": "frecuenciaCardiaca",
                  "type": "uint256"
                },
                {
                  "internalType": "uint256",
                  "name": "frecuenciaRespiratoria",
                  "type": "uint256"
                },
                {
                  "internalType": "string",
                  "name": "tensionArterial",
                  "type": "string"
                },
                {
                  "internalType": "uint256",
                  "name": "peso",
                  "type": "uint256"
                },
                {
                  "internalType": "uint256",
                  "name": "temperatura",
                  "type": "uint256"
                }
              ],
              "internalType": "struct SignosVitalesStruct",
              "name": "signosVitalesStruct",
              "type": "tuple"
            }
          ],
          "internalType": "struct ExploracionPorRegionesStruct",
          "name": "",
          "type": "tuple"
        }
      ],
      "stateMutability": "view",
      "type": "function"
    },
    {
      "inputs": [],
      "name": "getExploracionPorSistemasStruct",
      "outputs": [
        {
          "components": [
            {
              "internalType": "string",
              "name": "aparatoCardiovascular",
              "type": "string"
            },
            {
              "internalType": "string",
              "name": "aparatoDigestivo",
              "type": "string"
            },
            {
              "internalType": "string",
              "name": "aparatoRespiratorio",
              "type": "string"
            },
            {
              "internalType": "string",
              "name": "aparatoGenital",
              "type": "string"
            },
            {
              "internalType": "string",
              "name": "aparatoUrinario",
              "type": "string"
            },
            {
              "internalType": "string",
              "name": "aparatoHematologico",
              "type": "string"
            },
            {
              "internalType": "string",
              "name": "aparatoOsteomuscular",
              "type": "string"
            },
            {
              "internalType": "string",
              "name": "sistemaEndocrino",
              "type": "string"
            },
            {
              "internalType": "string",
              "name": "sistemaNervioso",
              "type": "string"
            },
            {
              "internalType": "string",
              "name": "sistemaSensorial",
              "type": "string"
            },
            {
              "internalType": "string",
              "name": "sistemaPsicosomatico",
              "type": "string"
            }
          ],
          "internalType": "struct ExploracionPorSistemasStruct",
          "name": "",
          "type": "tuple"
        }
      ],
      "stateMutability": "view",
      "type": "function"
    },
    {
      "inputs": [],
      "name": "getCodigoDiagnostico",
      "outputs": [
        {
          "internalType": "uint256",
          "name": "",
          "type": "uint256"
        }
      ],
      "stateMutability": "view",
      "type": "function"
    },
    {
      "inputs": [],
      "name": "getConducta",
      "outputs": [
        {
          "internalType": "string",
          "name": "",
          "type": "string"
        }
      ],
      "stateMutability": "view",
      "type": "function"
    },
    {
      "inputs": [],
      "name": "getTipoDiagnostico",
      "outputs": [
        {
          "internalType": "uint256",
          "name": "",
          "type": "uint256"
        }
      ],
      "stateMutability": "view",
      "type": "function"
    },
    {
      "inputs": [],
      "name": "getNumeroConsultaDelAno",
      "outputs": [
        {
          "internalType": "uint256",
          "name": "",
          "type": "uint256"
        }
      ],
      "stateMutability": "view",
      "type": "function"
    },
    {
      "inputs": [],
      "name": "getIncapacidad",
      "outputs": [
        {
          "components": [
            {
              "internalType": "uint256",
              "name": "dias",
              "type": "uint256"
            },
            {
              "internalType": "uint256",
              "name": "motivo",
              "type": "uint256"
            }
          ],
          "internalType": "struct IncapacidadStruct",
          "name": "",
          "type": "tuple"
        }
      ],
      "stateMutability": "view",
      "type": "function"
    },
    {
      "inputs": [
        {
          "internalType": "uint256",
          "name": "_fechaAtencion",
          "type": "uint256"
        }
      ],
      "name": "setFechaAtencion",
      "outputs": [],
      "stateMutability": "nonpayable",
      "type": "function"
    },
    {
      "inputs": [
        {
          "internalType": "bool",
          "name": "_consultaPrioritaria",
          "type": "bool"
        }
      ],
      "name": "setConsultaPrioritaria",
      "outputs": [],
      "stateMutability": "nonpayable",
      "type": "function"
    },
    {
      "inputs": [
        {
          "internalType": "uint256",
          "name": "_especialidadId",
          "type": "uint256"
        }
      ],
      "name": "setEspecialidadId",
      "outputs": [],
      "stateMutability": "nonpayable",
      "type": "function"
    },
    {
      "inputs": [
        {
          "internalType": "string",
          "name": "_padecimiento",
          "type": "string"
        }
      ],
      "name": "setPadecimiento",
      "outputs": [],
      "stateMutability": "nonpayable",
      "type": "function"
    },
    {
      "inputs": [
        {
          "internalType": "string",
          "name": "_sintomas",
          "type": "string"
        }
      ],
      "name": "setSintomas",
      "outputs": [],
      "stateMutability": "nonpayable",
      "type": "function"
    },
    {
      "inputs": [
        {
          "internalType": "uint256",
          "name": "_causaExternaId",
          "type": "uint256"
        }
      ],
      "name": "setCausaExternaId",
      "outputs": [],
      "stateMutability": "nonpayable",
      "type": "function"
    },
    {
      "inputs": [
        {
          "components": [
            {
              "internalType": "string",
              "name": "cabeza",
              "type": "string"
            },
            {
              "internalType": "string",
              "name": "cuello",
              "type": "string"
            },
            {
              "internalType": "string",
              "name": "abdomen",
              "type": "string"
            },
            {
              "internalType": "string",
              "name": "torax",
              "type": "string"
            },
            {
              "internalType": "string",
              "name": "genitales",
              "type": "string"
            },
            {
              "internalType": "string",
              "name": "miembros",
              "type": "string"
            },
            {
              "components": [
                {
                  "internalType": "uint256",
                  "name": "frecuenciaCardiaca",
                  "type": "uint256"
                },
                {
                  "internalType": "uint256",
                  "name": "frecuenciaRespiratoria",
                  "type": "uint256"
                },
                {
                  "internalType": "string",
                  "name": "tensionArterial",
                  "type": "string"
                },
                {
                  "internalType": "uint256",
                  "name": "peso",
                  "type": "uint256"
                },
                {
                  "internalType": "uint256",
                  "name": "temperatura",
                  "type": "uint256"
                }
              ],
              "internalType": "struct SignosVitalesStruct",
              "name": "signosVitalesStruct",
              "type": "tuple"
            }
          ],
          "internalType": "struct ExploracionPorRegionesStruct",
          "name": "_exploracionPorRegiones",
          "type": "tuple"
        }
      ],
      "name": "setExploracionPorRegionesStruct",
      "outputs": [],
      "stateMutability": "nonpayable",
      "type": "function"
    },
    {
      "inputs": [
        {
          "components": [
            {
              "internalType": "string",
              "name": "aparatoCardiovascular",
              "type": "string"
            },
            {
              "internalType": "string",
              "name": "aparatoDigestivo",
              "type": "string"
            },
            {
              "internalType": "string",
              "name": "aparatoRespiratorio",
              "type": "string"
            },
            {
              "internalType": "string",
              "name": "aparatoGenital",
              "type": "string"
            },
            {
              "internalType": "string",
              "name": "aparatoUrinario",
              "type": "string"
            },
            {
              "internalType": "string",
              "name": "aparatoHematologico",
              "type": "string"
            },
            {
              "internalType": "string",
              "name": "aparatoOsteomuscular",
              "type": "string"
            },
            {
              "internalType": "string",
              "name": "sistemaEndocrino",
              "type": "string"
            },
            {
              "internalType": "string",
              "name": "sistemaNervioso",
              "type": "string"
            },
            {
              "internalType": "string",
              "name": "sistemaSensorial",
              "type": "string"
            },
            {
              "internalType": "string",
              "name": "sistemaPsicosomatico",
              "type": "string"
            }
          ],
          "internalType": "struct ExploracionPorSistemasStruct",
          "name": "_exploracionPorSistemas",
          "type": "tuple"
        }
      ],
      "name": "setExploracionPorSistemasStruct",
      "outputs": [],
      "stateMutability": "nonpayable",
      "type": "function"
    },
    {
      "inputs": [
        {
          "internalType": "uint256",
          "name": "_codigoDiagnostico",
          "type": "uint256"
        }
      ],
      "name": "setCodigoDiagnostico",
      "outputs": [],
      "stateMutability": "nonpayable",
      "type": "function"
    },
    {
      "inputs": [
        {
          "internalType": "string",
          "name": "_conducta",
          "type": "string"
        }
      ],
      "name": "setConducta",
      "outputs": [],
      "stateMutability": "nonpayable",
      "type": "function"
    },
    {
      "inputs": [
        {
          "internalType": "uint256",
          "name": "_tipoDiagnostico",
          "type": "uint256"
        }
      ],
      "name": "setTipoDiagnostico",
      "outputs": [],
      "stateMutability": "nonpayable",
      "type": "function"
    },
    {
      "inputs": [
        {
          "internalType": "uint256",
          "name": "_numeroConsultaDelAno",
          "type": "uint256"
        }
      ],
      "name": "setNumeroConsultaDelAno",
      "outputs": [],
      "stateMutability": "nonpayable",
      "type": "function"
    },
    {
      "inputs": [
        {
          "components": [
            {
              "internalType": "uint256",
              "name": "dias",
              "type": "uint256"
            },
            {
              "internalType": "uint256",
              "name": "motivo",
              "type": "uint256"
            }
          ],
          "internalType": "struct IncapacidadStruct",
          "name": "_incapacidad",
          "type": "tuple"
        }
      ],
      "name": "setIncapacidad",
      "outputs": [],
      "stateMutability": "nonpayable",
      "type": "function"
    }
  ],
  "bytecode": "0x608060405234801561001057600080fd5b506004805460ff191660051790556133fc8061002d6000396000f3fe608060405234801561001057600080fd5b50600436106102c85760003560e01c8063803a56ec1161017b578063a204b7c9116100d8578063ca3c5a131161008c578063d0e0ba9511610071578063d0e0ba95146105b2578063d105f808146105c5578063db6299d7146105cd57600080fd5b8063ca3c5a131461057e578063ce1c353c1461059157600080fd5b8063a876e889116100bd578063a876e88914610550578063aee5de7514610563578063af8d3e841461057657600080fd5b8063a204b7c914610535578063a4d750591461054857600080fd5b806393be08ef1161012f5780639cb8a26a116101145780639cb8a26a146105075780639dfdee7c1461050f578063a1d7fba51461052257600080fd5b806393be08ef146104ee57806394ab8037146104ff57600080fd5b806391911de61161016057806391911de61461049d57806392ebdcd2146104b0578063931cb7c6146104db57600080fd5b8063803a56ec1461042b57806385c0ec0d1461046857600080fd5b806344517a9a116102295780635d1ca631116101dd5780636dc56adc116101c25780636dc56adc146103fb578063735ef2e7146104105780637ca73d6a1461041857600080fd5b80635d1ca631146103e057806369e4e77c146103e857600080fd5b80634658bded1161020e5780634658bded146103b25780634c38385f146103c55780635ccd6b8a146103cd57600080fd5b806344517a9a1461038357806344f9206a1461039657600080fd5b8063277ea526116102805780632abf366a116102655780632abf366a146103465780632dba42401461035b578063359646891461036e57600080fd5b8063277ea5261461032b57806327f074cf1461033357600080fd5b8063170e2f12116102b1578063170e2f12146102f95780631b59abb91461030e578063219a95e51461031657600080fd5b806304a765b2146102cd5780630bcacc1b146102e4575b600080fd5b6007545b6040519081526020015b60405180910390f35b6102ec6105e3565b6040516102db9190612627565b610301610638565b6040516102db91906127d8565b6003546102d1565b610329610324366004612abb565b610ced565b005b6023546102d1565b610329610341366004612af8565b600355565b61034e610db2565b6040516102db9190612b11565b610329610369366004612af8565b602455565b610376610e47565b6040516102db9190612c26565b60045460ff166040516102db9190612d43565b6103296103a4366004612da6565b805160255560200151602655565b6103296103c0366004612f9a565b611b31565b6005546102d1565b6103296103db366004612af8565b600a55565b6001546102d1565b6103296103f6366004613103565b611d96565b610403611da6565b6040516102db9190613138565b61034e6121f9565b610329610426366004612af8565b600555565b610329610439366004613162565b6002805473ffffffffffffffffffffffffffffffffffffffff19166001600160a01b0392909216919091179055565b604080518082018252600080825260209182015281518083019092526025548252602654908201526040516102db919061317d565b6103296104ab366004613103565b61220b565b6000546104c3906001600160a01b031681565b6040516001600160a01b0390911681526020016102db565b6103296104e9366004612af8565b602155565b6002546001600160a01b03166104c3565b61034e612217565b610329612229565b61032961051d366004613194565b6122fb565b610329610530366004612af8565b602355565b6103296105433660046131d8565b6123e9565b6024546102d1565b61032961055e366004613103565b612455565b610329610571366004612af8565b600755565b6021546102d1565b61032961058c366004613247565b612461565b61032961059f366004613262565b6006805460ff1916911515919091179055565b6103296105c0366004612af8565b600155565b600a546102d1565b60065460ff1660405190151581526020016102db565b6105eb612480565b6040805160808101825260015481526002546001600160a01b0316602082015260035491810191909152600454606082019060ff166012811115610631576106316125ef565b9052919050565b61069560405180610160016040528060608152602001606081526020016060815260200160608152602001606081526020016060815260200160608152602001606081526020016060815260200160608152602001606081525090565b60408051610160810190915260168054829082906106b29061327d565b80601f01602080910402602001604051908101604052809291908181526020018280546106de9061327d565b801561072b5780601f106107005761010080835404028352916020019161072b565b820191906000526020600020905b81548152906001019060200180831161070e57829003601f168201915b505050505081526020016001820180546107449061327d565b80601f01602080910402602001604051908101604052809291908181526020018280546107709061327d565b80156107bd5780601f10610792576101008083540402835291602001916107bd565b820191906000526020600020905b8154815290600101906020018083116107a057829003601f168201915b505050505081526020016002820180546107d69061327d565b80601f01602080910402602001604051908101604052809291908181526020018280546108029061327d565b801561084f5780601f106108245761010080835404028352916020019161084f565b820191906000526020600020905b81548152906001019060200180831161083257829003601f168201915b505050505081526020016003820180546108689061327d565b80601f01602080910402602001604051908101604052809291908181526020018280546108949061327d565b80156108e15780601f106108b6576101008083540402835291602001916108e1565b820191906000526020600020905b8154815290600101906020018083116108c457829003601f168201915b505050505081526020016004820180546108fa9061327d565b80601f01602080910402602001604051908101604052809291908181526020018280546109269061327d565b80156109735780601f1061094857610100808354040283529160200191610973565b820191906000526020600020905b81548152906001019060200180831161095657829003601f168201915b5050505050815260200160058201805461098c9061327d565b80601f01602080910402602001604051908101604052809291908181526020018280546109b89061327d565b8015610a055780601f106109da57610100808354040283529160200191610a05565b820191906000526020600020905b8154815290600101906020018083116109e857829003601f168201915b50505050508152602001600682018054610a1e9061327d565b80601f0160208091040260200160405190810160405280929190818152602001828054610a4a9061327d565b8015610a975780601f10610a6c57610100808354040283529160200191610a97565b820191906000526020600020905b815481529060010190602001808311610a7a57829003601f168201915b50505050508152602001600782018054610ab09061327d565b80601f0160208091040260200160405190810160405280929190818152602001828054610adc9061327d565b8015610b295780601f10610afe57610100808354040283529160200191610b29565b820191906000526020600020905b815481529060010190602001808311610b0c57829003601f168201915b50505050508152602001600882018054610b429061327d565b80601f0160208091040260200160405190810160405280929190818152602001828054610b6e9061327d565b8015610bbb5780601f10610b9057610100808354040283529160200191610bbb565b820191906000526020600020905b815481529060010190602001808311610b9e57829003601f168201915b50505050508152602001600982018054610bd49061327d565b80601f0160208091040260200160405190810160405280929190818152602001828054610c009061327d565b8015610c4d5780601f10610c2257610100808354040283529160200191610c4d565b820191906000526020600020905b815481529060010190602001808311610c3057829003601f168201915b50505050508152602001600a82018054610c669061327d565b80601f0160208091040260200160405190810160405280929190818152602001828054610c929061327d565b8015610cdf5780601f10610cb457610100808354040283529160200191610cdf565b820191906000526020600020905b815481529060010190602001808311610cc257829003601f168201915b505050505081525050905090565b80518190600b908190610d009082613306565b5060208201516001820190610d159082613306565b5060408201516002820190610d2a9082613306565b5060608201516003820190610d3f9082613306565b5060808201516004820190610d549082613306565b5060a08201516005820190610d699082613306565b5060c08201518051600683019081556020820151600784015560408201516008840190610d969082613306565b5060608201516003820155608090910151600490910155505050565b60606005601d018054610dc49061327d565b80601f0160208091040260200160405190810160405280929190818152602001828054610df09061327d565b8015610e3d5780601f10610e1257610100808354040283529160200191610e3d565b820191906000526020600020905b815481529060010190602001808311610e2057829003601f168201915b5050505050905090565b610e4f6124a8565b604080516101a08101825260058054825260065460ff16151560208301526007549282019290925260088054919291606084019190610e8d9061327d565b80601f0160208091040260200160405190810160405280929190818152602001828054610eb99061327d565b8015610f065780601f10610edb57610100808354040283529160200191610f06565b820191906000526020600020905b815481529060010190602001808311610ee957829003601f168201915b50505050508152602001600482018054610f1f9061327d565b80601f0160208091040260200160405190810160405280929190818152602001828054610f4b9061327d565b8015610f985780601f10610f6d57610100808354040283529160200191610f98565b820191906000526020600020905b815481529060010190602001808311610f7b57829003601f168201915b5050505050815260200160058201548152602001600682016040518060e0016040529081600082018054610fcb9061327d565b80601f0160208091040260200160405190810160405280929190818152602001828054610ff79061327d565b80156110445780601f1061101957610100808354040283529160200191611044565b820191906000526020600020905b81548152906001019060200180831161102757829003601f168201915b5050505050815260200160018201805461105d9061327d565b80601f01602080910402602001604051908101604052809291908181526020018280546110899061327d565b80156110d65780601f106110ab576101008083540402835291602001916110d6565b820191906000526020600020905b8154815290600101906020018083116110b957829003601f168201915b505050505081526020016002820180546110ef9061327d565b80601f016020809104026020016040519081016040528092919081815260200182805461111b9061327d565b80156111685780601f1061113d57610100808354040283529160200191611168565b820191906000526020600020905b81548152906001019060200180831161114b57829003601f168201915b505050505081526020016003820180546111819061327d565b80601f01602080910402602001604051908101604052809291908181526020018280546111ad9061327d565b80156111fa5780601f106111cf576101008083540402835291602001916111fa565b820191906000526020600020905b8154815290600101906020018083116111dd57829003601f168201915b505050505081526020016004820180546112139061327d565b80601f016020809104026020016040519081016040528092919081815260200182805461123f9061327d565b801561128c5780601f106112615761010080835404028352916020019161128c565b820191906000526020600020905b81548152906001019060200180831161126f57829003601f168201915b505050505081526020016005820180546112a59061327d565b80601f01602080910402602001604051908101604052809291908181526020018280546112d19061327d565b801561131e5780601f106112f35761010080835404028352916020019161131e565b820191906000526020600020905b81548152906001019060200180831161130157829003601f168201915b50505050508152602001600682016040518060a0016040529081600082015481526020016001820154815260200160028201805461135b9061327d565b80601f01602080910402602001604051908101604052809291908181526020018280546113879061327d565b80156113d45780601f106113a9576101008083540402835291602001916113d4565b820191906000526020600020905b8154815290600101906020018083116113b757829003601f168201915b5050505050815260200160038201548152602001600482015481525050815250508152602001601182016040518061016001604052908160008201805461141a9061327d565b80601f01602080910402602001604051908101604052809291908181526020018280546114469061327d565b80156114935780601f1061146857610100808354040283529160200191611493565b820191906000526020600020905b81548152906001019060200180831161147657829003601f168201915b505050505081526020016001820180546114ac9061327d565b80601f01602080910402602001604051908101604052809291908181526020018280546114d89061327d565b80156115255780601f106114fa57610100808354040283529160200191611525565b820191906000526020600020905b81548152906001019060200180831161150857829003601f168201915b5050505050815260200160028201805461153e9061327d565b80601f016020809104026020016040519081016040528092919081815260200182805461156a9061327d565b80156115b75780601f1061158c576101008083540402835291602001916115b7565b820191906000526020600020905b81548152906001019060200180831161159a57829003601f168201915b505050505081526020016003820180546115d09061327d565b80601f01602080910402602001604051908101604052809291908181526020018280546115fc9061327d565b80156116495780601f1061161e57610100808354040283529160200191611649565b820191906000526020600020905b81548152906001019060200180831161162c57829003601f168201915b505050505081526020016004820180546116629061327d565b80601f016020809104026020016040519081016040528092919081815260200182805461168e9061327d565b80156116db5780601f106116b0576101008083540402835291602001916116db565b820191906000526020600020905b8154815290600101906020018083116116be57829003601f168201915b505050505081526020016005820180546116f49061327d565b80601f01602080910402602001604051908101604052809291908181526020018280546117209061327d565b801561176d5780601f106117425761010080835404028352916020019161176d565b820191906000526020600020905b81548152906001019060200180831161175057829003601f168201915b505050505081526020016006820180546117869061327d565b80601f01602080910402602001604051908101604052809291908181526020018280546117b29061327d565b80156117ff5780601f106117d4576101008083540402835291602001916117ff565b820191906000526020600020905b8154815290600101906020018083116117e257829003601f168201915b505050505081526020016007820180546118189061327d565b80601f01602080910402602001604051908101604052809291908181526020018280546118449061327d565b80156118915780601f1061186657610100808354040283529160200191611891565b820191906000526020600020905b81548152906001019060200180831161187457829003601f168201915b505050505081526020016008820180546118aa9061327d565b80601f01602080910402602001604051908101604052809291908181526020018280546118d69061327d565b80156119235780601f106118f857610100808354040283529160200191611923565b820191906000526020600020905b81548152906001019060200180831161190657829003601f168201915b5050505050815260200160098201805461193c9061327d565b80601f01602080910402602001604051908101604052809291908181526020018280546119689061327d565b80156119b55780601f1061198a576101008083540402835291602001916119b5565b820191906000526020600020905b81548152906001019060200180831161199857829003601f168201915b50505050508152602001600a820180546119ce9061327d565b80601f01602080910402602001604051908101604052809291908181526020018280546119fa9061327d565b8015611a475780601f10611a1c57610100808354040283529160200191611a47565b820191906000526020600020905b815481529060010190602001808311611a2a57829003601f168201915b5050505050815250508152602001601c8201548152602001601d82018054611a6e9061327d565b80601f0160208091040260200160405190810160405280929190818152602001828054611a9a9061327d565b8015611ae75780601f10611abc57610100808354040283529160200191611ae7565b820191906000526020600020905b815481529060010190602001808311611aca57829003601f168201915b50505050508152602001601e8201548152602001601f8201548152602001602082016040518060400160405290816000820154815260200160018201548152505081525050905090565b8051600590815560208201516006805460ff191691151591909117905560408201516007556060820151829190600890611b6b9082613306565b5060808201516004820190611b809082613306565b5060a0820151600582015560c0820151805160068301908190611ba39082613306565b5060208201516001820190611bb89082613306565b5060408201516002820190611bcd9082613306565b5060608201516003820190611be29082613306565b5060808201516004820190611bf79082613306565b5060a08201516005820190611c0c9082613306565b5060c08201518051600683019081556020820151600784015560408201516008840190611c399082613306565b5060608201516003820155608090910151600490910155505060e0820151805160118301908190611c6a9082613306565b5060208201516001820190611c7f9082613306565b5060408201516002820190611c949082613306565b5060608201516003820190611ca99082613306565b5060808201516004820190611cbe9082613306565b5060a08201516005820190611cd39082613306565b5060c08201516006820190611ce89082613306565b5060e08201516007820190611cfd9082613306565b506101008201516008820190611d139082613306565b506101208201516009820190611d299082613306565b50610140820151600a820190611d3f9082613306565b505050610100820151601c820155610120820151601d820190611d629082613306565b50610140820151601e820155610160820151601f820155610180909101518051602080840191909155015160219091015550565b6022611da28282613306565b5050565b611dae612588565b6040805160e08101909152600b805482908290611dca9061327d565b80601f0160208091040260200160405190810160405280929190818152602001828054611df69061327d565b8015611e435780601f10611e1857610100808354040283529160200191611e43565b820191906000526020600020905b815481529060010190602001808311611e2657829003601f168201915b50505050508152602001600182018054611e5c9061327d565b80601f0160208091040260200160405190810160405280929190818152602001828054611e889061327d565b8015611ed55780601f10611eaa57610100808354040283529160200191611ed5565b820191906000526020600020905b815481529060010190602001808311611eb857829003601f168201915b50505050508152602001600282018054611eee9061327d565b80601f0160208091040260200160405190810160405280929190818152602001828054611f1a9061327d565b8015611f675780601f10611f3c57610100808354040283529160200191611f67565b820191906000526020600020905b815481529060010190602001808311611f4a57829003601f168201915b50505050508152602001600382018054611f809061327d565b80601f0160208091040260200160405190810160405280929190818152602001828054611fac9061327d565b8015611ff95780601f10611fce57610100808354040283529160200191611ff9565b820191906000526020600020905b815481529060010190602001808311611fdc57829003601f168201915b505050505081526020016004820180546120129061327d565b80601f016020809104026020016040519081016040528092919081815260200182805461203e9061327d565b801561208b5780601f106120605761010080835404028352916020019161208b565b820191906000526020600020905b81548152906001019060200180831161206e57829003601f168201915b505050505081526020016005820180546120a49061327d565b80601f01602080910402602001604051908101604052809291908181526020018280546120d09061327d565b801561211d5780601f106120f25761010080835404028352916020019161211d565b820191906000526020600020905b81548152906001019060200180831161210057829003601f168201915b50505050508152602001600682016040518060a0016040529081600082015481526020016001820154815260200160028201805461215a9061327d565b80601f01602080910402602001604051908101604052809291908181526020018280546121869061327d565b80156121d35780601f106121a8576101008083540402835291602001916121d3565b820191906000526020600020905b8154815290600101906020018083116121b657829003601f168201915b505050505081526020016003820154815260200160048201548152505081525050905090565b606060056004018054610dc49061327d565b6009611da28282613306565b606060056003018054610dc49061327d565b6000546001600160a01b031633146122ed576040517f08c379a000000000000000000000000000000000000000000000000000000000815260206004820152604160248201527f457374612066756e63696f6e20736f6c6f2070756564652073657220656a656360448201527f757461646120706f7220656c2063726561646f722064656c20636f6e7472617460648201527f6f00000000000000000000000000000000000000000000000000000000000000608482015260a40160405180910390fd5b6000546001600160a01b0316ff5b80518190601690819061230e9082613306565b50602082015160018201906123239082613306565b50604082015160028201906123389082613306565b506060820151600382019061234d9082613306565b50608082015160048201906123629082613306565b5060a082015160058201906123779082613306565b5060c0820151600682019061238c9082613306565b5060e082015160078201906123a19082613306565b5061010082015160088201906123b79082613306565b5061012082015160098201906123cd9082613306565b50610140820151600a8201906123e39082613306565b50505050565b8051600190815560208201516002805473ffffffffffffffffffffffffffffffffffffffff19166001600160a01b0390921691909117905560408201516003556060820151600480549192909160ff19169083601281111561244d5761244d6125ef565b021790555050565b6008611da28282613306565b6004805482919060ff1916600183601281111561244d5761244d6125ef565b604080516080810182526000808252602082018190529181018290529060608201905b905290565b604051806101a0016040528060008152602001600015158152602001600081526020016060815260200160608152602001600081526020016124e8612588565b815260200161254a60405180610160016040528060608152602001606081526020016060815260200160608152602001606081526020016060815260200160608152602001606081526020016060815260200160608152602001606081525090565b8152602001600081526020016060815260200160008152602001600081526020016124a3604051806040016040528060008152602001600081525090565b6040518060e001604052806060815260200160608152602001606081526020016060815260200160608152602001606081526020016124a36040518060a0016040528060008152602001600081526020016060815260200160008152602001600081525090565b634e487b7160e01b600052602160045260246000fd5b6013811061262357634e487b7160e01b600052602160045260246000fd5b9052565b6000608082019050825182526001600160a01b0360208401511660208301526040830151604083015260608301516126626060840182612605565b5092915050565b6000815180845260005b8181101561268f57602081850181015186830182015201612673565b506000602082860101526020601f19601f83011685010191505092915050565b600061016082518185526126c582860182612669565b915050602083015184820360208601526126df8282612669565b915050604083015184820360408601526126f98282612669565b915050606083015184820360608601526127138282612669565b9150506080830151848203608086015261272d8282612669565b91505060a083015184820360a08601526127478282612669565b91505060c083015184820360c08601526127618282612669565b91505060e083015184820360e086015261277b8282612669565b91505061010080840151858303828701526127968382612669565b9250505061012080840151858303828701526127b28382612669565b9250505061014080840151858303828701526127ce8382612669565b9695505050505050565b6020815260006127eb60208301846126af565b9392505050565b634e487b7160e01b600052604160045260246000fd5b60405160e0810167ffffffffffffffff8111828210171561282b5761282b6127f2565b60405290565b604051610160810167ffffffffffffffff8111828210171561282b5761282b6127f2565b6040516101a0810167ffffffffffffffff8111828210171561282b5761282b6127f2565b600082601f83011261288a57600080fd5b813567ffffffffffffffff808211156128a5576128a56127f2565b604051601f8301601f19908116603f011681019082821181831017156128cd576128cd6127f2565b816040528381528660208588010111156128e657600080fd5b836020870160208301376000602085830101528094505050505092915050565b600060a0828403121561291857600080fd5b60405160a0810167ffffffffffffffff828210818311171561293c5761293c6127f2565b816040528293508435835260208501356020840152604085013591508082111561296557600080fd5b5061297285828601612879565b60408301525060608301356060820152608083013560808201525092915050565b600060e082840312156129a557600080fd5b6129ad612808565b9050813567ffffffffffffffff808211156129c757600080fd5b6129d385838601612879565b835260208401359150808211156129e957600080fd5b6129f585838601612879565b60208401526040840135915080821115612a0e57600080fd5b612a1a85838601612879565b60408401526060840135915080821115612a3357600080fd5b612a3f85838601612879565b60608401526080840135915080821115612a5857600080fd5b612a6485838601612879565b608084015260a0840135915080821115612a7d57600080fd5b612a8985838601612879565b60a084015260c0840135915080821115612aa257600080fd5b50612aaf84828501612906565b60c08301525092915050565b600060208284031215612acd57600080fd5b813567ffffffffffffffff811115612ae457600080fd5b612af084828501612993565b949350505050565b600060208284031215612b0a57600080fd5b5035919050565b6020815260006127eb6020830184612669565b80518252602081015160208301526000604082015160a06040850152612b4d60a0850182612669565b905060608301516060850152608083015160808501528091505092915050565b6000815160e08452612b8260e0850182612669565b905060208301518482036020860152612b9b8282612669565b91505060408301518482036040860152612bb58282612669565b91505060608301518482036060860152612bcf8282612669565b91505060808301518482036080860152612be98282612669565b91505060a083015184820360a0860152612c038282612669565b91505060c083015184820360c0860152612c1d8282612b24565b95945050505050565b602081528151602082015260006020830151612c46604084018215159052565b506040830151606083015260608301516101c06080840152612c6c6101e0840182612669565b90506080840151601f19808584030160a0860152612c8a8383612669565b925060a086015160c086015260c08601519150808584030160e0860152612cb18383612b6d565b925060e08601519150610100818685030181870152612cd084846126af565b935080870151925050610120828187015280870151925050610140818685030181870152612cfe8484612669565b90870151610160878101919091528701516101808088019190915287015180516101a088015260208101516101c08801529093509150612d3b9050565b509392505050565b60208101612d518284612605565b92915050565b600060408284031215612d6957600080fd5b6040516040810181811067ffffffffffffffff82111715612d8c57612d8c6127f2565b604052823581526020928301359281019290925250919050565b600060408284031215612db857600080fd5b6127eb8383612d57565b80358015158114612dd257600080fd5b919050565b60006101608284031215612dea57600080fd5b612df2612831565b9050813567ffffffffffffffff80821115612e0c57600080fd5b612e1885838601612879565b83526020840135915080821115612e2e57600080fd5b612e3a85838601612879565b60208401526040840135915080821115612e5357600080fd5b612e5f85838601612879565b60408401526060840135915080821115612e7857600080fd5b612e8485838601612879565b60608401526080840135915080821115612e9d57600080fd5b612ea985838601612879565b608084015260a0840135915080821115612ec257600080fd5b612ece85838601612879565b60a084015260c0840135915080821115612ee757600080fd5b612ef385838601612879565b60c084015260e0840135915080821115612f0c57600080fd5b612f1885838601612879565b60e084015261010091508184013581811115612f3357600080fd5b612f3f86828701612879565b838501525061012091508184013581811115612f5a57600080fd5b612f6686828701612879565b838501525061014091508184013581811115612f8157600080fd5b612f8d86828701612879565b8385015250505092915050565b600060208284031215612fac57600080fd5b813567ffffffffffffffff80821115612fc457600080fd5b908301906101c08286031215612fd957600080fd5b612fe1612855565b82358152612ff160208401612dc2565b60208201526040830135604082015260608301358281111561301257600080fd5b61301e87828601612879565b60608301525060808301358281111561303657600080fd5b61304287828601612879565b60808301525060a083013560a082015260c08301358281111561306457600080fd5b61307087828601612993565b60c08301525060e08301358281111561308857600080fd5b61309487828601612dd7565b60e083015250610100838101359082015261012080840135838111156130b957600080fd5b6130c588828701612879565b91830191909152506101408381013590820152610160808401359082015261018091506130f486838501612d57565b91810191909152949350505050565b60006020828403121561311557600080fd5b813567ffffffffffffffff81111561312c57600080fd5b612af084828501612879565b6020815260006127eb6020830184612b6d565b80356001600160a01b0381168114612dd257600080fd5b60006020828403121561317457600080fd5b6127eb8261314b565b815181526020808301519082015260408101612d51565b6000602082840312156131a657600080fd5b813567ffffffffffffffff8111156131bd57600080fd5b612af084828501612dd7565b803560138110612dd257600080fd5b6000608082840312156131ea57600080fd5b6040516080810181811067ffffffffffffffff8211171561320d5761320d6127f2565b604052823581526132206020840161314b565b60208201526040830135604082015261323b606084016131c9565b60608201529392505050565b60006020828403121561325957600080fd5b6127eb826131c9565b60006020828403121561327457600080fd5b6127eb82612dc2565b600181811c9082168061329157607f821691505b6020821081036132b157634e487b7160e01b600052602260045260246000fd5b50919050565b601f82111561330157600081815260208120601f850160051c810160208610156132de5750805b601f850160051c820191505b818110156132fd578281556001016132ea565b5050505b505050565b815167ffffffffffffffff811115613320576133206127f2565b6133348161332e845461327d565b846132b7565b602080601f83116001811461336957600084156133515750858301515b600019600386901b1c1916600185901b1785556132fd565b600085815260208120601f198616915b8281101561339857888601518255948401946001909101908401613379565b50858210156133b65787850151600019600388901b60f8161c191681555b5050505050600190811b0190555056fea26469706673582212203d5fb4391058e5f88105e7670e968ca711b7d66ef585df3090b2ce19af3b332764736f6c63430008110033",
  "immutableReferences": {},
  "source": "// SPDX-License-Identifier: MIT\npragma solidity ^0.8.17;\n\nimport \"./RegistroMedico.sol\";\nimport \"../structsGenerales/IncapacidadStruct.sol\";\nimport \"../structsGenerales/ExploracionPorRegionesStruct.sol\";\nimport \"../structsGenerales/ExploracionPorSistemasStruct.sol\";\n\n//import \"./structsGenerales/DatosPersonalesStruct.sol\";\n\ncontract ConsultaIndividualVO is RegistroMedico (TipoRegistroMedico.CONSULTAINDIVIDUALVO) {\n    struct ConsultaIndividualStruct {\n        uint256 fechaAtencion;\n        bool consultaPrioritaria;\n        uint256 especialidadId;\n        string padecimiento;\n        string sintomas;\n        uint256 causaExternaId;\n        ExploracionPorRegionesStruct exploracionPorRegiones;\n        ExploracionPorSistemasStruct exploracionPorSistemas;\n        uint256 codigoDiagnostico;\n        string conducta; // TODO: Revisar conducto\n        uint256 tipoDiagnostico;\n        uint256 numeroConsultaDelAno;\n        IncapacidadStruct incapacidad;\n    }\n\n    ConsultaIndividualStruct private consultaIndividualStruct;\n\n    function getConsultaIndividualStruct()\n        public\n        view\n        returns (ConsultaIndividualStruct memory)\n    {\n        return consultaIndividualStruct;\n    }\n\n    function setConsultaIndividualStruct(\n        ConsultaIndividualStruct memory _consultaIndividualStruct\n    ) public {\n        consultaIndividualStruct = _consultaIndividualStruct;\n    }\n\n\n\n    function getFechaAtencion() public view returns (uint256) {\n        return consultaIndividualStruct.fechaAtencion;\n    }\n\n    function getConsultaPrioritaria() public view returns (bool) {\n        return consultaIndividualStruct.consultaPrioritaria;\n    }\n\n    function getEspecialidadId() public view returns (uint256) {\n        return consultaIndividualStruct.especialidadId;\n    }\n\n    function getPadecimiento() public view returns (string memory) {\n        return consultaIndividualStruct.padecimiento;\n    }\n\n    function getSintomas() public view returns (string memory) {\n        return consultaIndividualStruct.sintomas;\n    }\n\n    function getCausaExternaId() public view returns (uint256) {\n        return consultaIndividualStruct.causaExternaId;\n    }\n\n    function getExploracionPorRegionesStruct()\n        public\n        view\n        returns (ExploracionPorRegionesStruct memory)\n    {\n        return consultaIndividualStruct.exploracionPorRegiones;\n    }\n\n    function getExploracionPorSistemasStruct()\n        public\n        view\n        returns (ExploracionPorSistemasStruct memory)\n    {\n        return consultaIndividualStruct.exploracionPorSistemas;\n    }\n\n    function getCodigoDiagnostico() public view returns (uint256) {\n        return consultaIndividualStruct.codigoDiagnostico;\n    }\n\n    function getConducta() public view returns (string memory) {\n        return consultaIndividualStruct.conducta;\n    }\n\n    function getTipoDiagnostico() public view returns (uint256) {\n        return consultaIndividualStruct.tipoDiagnostico;\n    }\n\n    function getNumeroConsultaDelAno() public view returns (uint256) {\n        return consultaIndividualStruct.numeroConsultaDelAno;\n    }\n\n    function getIncapacidad() public view returns (IncapacidadStruct memory) {\n        return consultaIndividualStruct.incapacidad;\n    }\n\n\n    function setFechaAtencion(uint256 _fechaAtencion) public {\n        consultaIndividualStruct.fechaAtencion = _fechaAtencion;\n    }\n\n    function setConsultaPrioritaria(bool _consultaPrioritaria) public {\n        consultaIndividualStruct.consultaPrioritaria = _consultaPrioritaria;\n    }\n\n    function setEspecialidadId(uint256 _especialidadId) public {\n        consultaIndividualStruct.especialidadId = _especialidadId;\n    }\n\n    function setPadecimiento(string memory _padecimiento) public {\n        consultaIndividualStruct.padecimiento = _padecimiento;\n    }\n\n    function setSintomas(string memory _sintomas) public {\n        consultaIndividualStruct.sintomas = _sintomas;\n    }\n\n    function setCausaExternaId(uint256 _causaExternaId) public {\n        consultaIndividualStruct.causaExternaId = _causaExternaId;\n    }\n\n    function setExploracionPorRegionesStruct(\n        ExploracionPorRegionesStruct memory _exploracionPorRegiones\n    ) public {\n        consultaIndividualStruct\n            .exploracionPorRegiones = _exploracionPorRegiones;\n    }\n\n    function setExploracionPorSistemasStruct(\n        ExploracionPorSistemasStruct memory _exploracionPorSistemas\n    ) public {\n        consultaIndividualStruct\n            .exploracionPorSistemas = _exploracionPorSistemas;\n    }\n\n    function setCodigoDiagnostico(uint256 _codigoDiagnostico) public {\n        consultaIndividualStruct.codigoDiagnostico = _codigoDiagnostico;\n    }\n\n    function setConducta(string memory _conducta) public {\n        consultaIndividualStruct.conducta = _conducta;\n        \n    }\n\n    function setTipoDiagnostico(uint256 _tipoDiagnostico) public {\n        consultaIndividualStruct.tipoDiagnostico = _tipoDiagnostico;\n    }\n\n    function setNumeroConsultaDelAno(uint256 _numeroConsultaDelAno) public {\n        consultaIndividualStruct.numeroConsultaDelAno = _numeroConsultaDelAno;\n    }\n\n    function setIncapacidad(IncapacidadStruct memory _incapacidad) public {\n        consultaIndividualStruct.incapacidad = _incapacidad;\n    }\n}\n",
  "sourcePath": "/home/felipe/Documentos/Blockchain/codigo/HCE-full/back-hce/contracts/models/historiaClinica/ConsultaIndividualVO.sol",
  "compiler": {
    "name": "solc",
    "version": "0.8.17+commit.8df45f5f.Emscripten.clang"
  },
  "schemaVersion": "3.4.8",
  "updatedAt": "2023-04-05T22:10:23.245Z",
  "devdoc": {
    "kind": "dev",
    "methods": {},
    "version": 1
  },
  "userdoc": {
    "kind": "user",
    "methods": {},
    "version": 1
  }
}