{
  "contractName": "DatosParametricosMapper",
  "abi": [
    {
      "inputs": [],
      "stateMutability": "nonpayable",
      "type": "constructor"
    },
    {
      "anonymous": false,
      "inputs": [
        {
          "indexed": false,
          "internalType": "string",
          "name": "data",
          "type": "string"
        }
      ],
      "name": "Log",
      "type": "event"
    },
    {
      "inputs": [],
      "name": "creador",
      "outputs": [
        {
          "internalType": "address",
          "name": "",
          "type": "address"
        }
      ],
      "stateMutability": "view",
      "type": "function",
      "constant": true
    },
    {
      "inputs": [
        {
          "internalType": "uint256",
          "name": "",
          "type": "uint256"
        }
      ],
      "name": "tipoIdentificacionAddressList",
      "outputs": [
        {
          "internalType": "address",
          "name": "",
          "type": "address"
        }
      ],
      "stateMutability": "view",
      "type": "function",
      "constant": true
    },
    {
      "inputs": [],
      "name": "registros",
      "outputs": [
        {
          "internalType": "uint256",
          "name": "",
          "type": "uint256"
        }
      ],
      "stateMutability": "view",
      "type": "function",
      "constant": true
    },
    {
      "inputs": [
        {
          "internalType": "uint256",
          "name": "_id",
          "type": "uint256"
        }
      ],
      "name": "consultarTipoIdentificacionVO",
      "outputs": [
        {
          "internalType": "contract TipoIdentificacionVO",
          "name": "",
          "type": "address"
        }
      ],
      "stateMutability": "view",
      "type": "function",
      "constant": true
    },
    {
      "inputs": [
        {
          "internalType": "contract TipoIdentificacionVO",
          "name": "_tipoIdentificacion",
          "type": "address"
        }
      ],
      "name": "guardarTipoIdentificacionVO",
      "outputs": [
        {
          "internalType": "uint256",
          "name": "",
          "type": "uint256"
        }
      ],
      "stateMutability": "nonpayable",
      "type": "function"
    },
    {
      "inputs": [
        {
          "internalType": "uint256",
          "name": "_id",
          "type": "uint256"
        },
        {
          "internalType": "contract TipoIdentificacionVO",
          "name": "_tipoIdentificacion",
          "type": "address"
        }
      ],
      "name": "actualizarTipoIdentificacionVO",
      "outputs": [],
      "stateMutability": "nonpayable",
      "type": "function"
    },
    {
      "inputs": [
        {
          "internalType": "uint256",
          "name": "_id",
          "type": "uint256"
        }
      ],
      "name": "consultarEstadoVO",
      "outputs": [
        {
          "internalType": "contract EstadoVO",
          "name": "",
          "type": "address"
        }
      ],
      "stateMutability": "view",
      "type": "function",
      "constant": true
    },
    {
      "inputs": [
        {
          "internalType": "contract EstadoVO",
          "name": "_estado",
          "type": "address"
        }
      ],
      "name": "guardarEstadoVO",
      "outputs": [
        {
          "internalType": "uint256",
          "name": "",
          "type": "uint256"
        }
      ],
      "stateMutability": "nonpayable",
      "type": "function"
    },
    {
      "inputs": [
        {
          "internalType": "uint256",
          "name": "_id",
          "type": "uint256"
        },
        {
          "internalType": "contract EstadoVO",
          "name": "estado",
          "type": "address"
        }
      ],
      "name": "actualizarEstadoVO",
      "outputs": [],
      "stateMutability": "nonpayable",
      "type": "function"
    },
    {
      "inputs": [
        {
          "internalType": "uint256",
          "name": "_id",
          "type": "uint256"
        }
      ],
      "name": "consultarEstadoCivilVO",
      "outputs": [
        {
          "internalType": "contract EstadoCivilVO",
          "name": "",
          "type": "address"
        }
      ],
      "stateMutability": "view",
      "type": "function",
      "constant": true
    },
    {
      "inputs": [
        {
          "internalType": "contract EstadoCivilVO",
          "name": "_estadoCivil",
          "type": "address"
        }
      ],
      "name": "guardarEstadoCivilVO",
      "outputs": [
        {
          "internalType": "uint256",
          "name": "",
          "type": "uint256"
        }
      ],
      "stateMutability": "nonpayable",
      "type": "function"
    },
    {
      "inputs": [
        {
          "internalType": "uint256",
          "name": "_id",
          "type": "uint256"
        },
        {
          "internalType": "contract EstadoCivilVO",
          "name": "_estadoCivil",
          "type": "address"
        }
      ],
      "name": "actualizarEstadoCivilVO",
      "outputs": [],
      "stateMutability": "nonpayable",
      "type": "function"
    },
    {
      "inputs": [
        {
          "internalType": "uint256",
          "name": "_id",
          "type": "uint256"
        }
      ],
      "name": "consultarAseguradoraVO",
      "outputs": [
        {
          "internalType": "contract AseguradoraVO",
          "name": "",
          "type": "address"
        }
      ],
      "stateMutability": "view",
      "type": "function",
      "constant": true
    },
    {
      "inputs": [
        {
          "internalType": "contract AseguradoraVO",
          "name": "_aseguradora",
          "type": "address"
        }
      ],
      "name": "guardarAseguradoraVO",
      "outputs": [
        {
          "internalType": "uint256",
          "name": "",
          "type": "uint256"
        }
      ],
      "stateMutability": "nonpayable",
      "type": "function"
    },
    {
      "inputs": [
        {
          "internalType": "uint256",
          "name": "_id",
          "type": "uint256"
        },
        {
          "internalType": "contract AseguradoraVO",
          "name": "_aseguradoraVO",
          "type": "address"
        }
      ],
      "name": "actualizarAseguradoraVO",
      "outputs": [],
      "stateMutability": "nonpayable",
      "type": "function"
    },
    {
      "inputs": [
        {
          "internalType": "uint256",
          "name": "_id",
          "type": "uint256"
        }
      ],
      "name": "consultarTipoVinculacionVO",
      "outputs": [
        {
          "internalType": "contract TipoVinculacionVO",
          "name": "",
          "type": "address"
        }
      ],
      "stateMutability": "view",
      "type": "function",
      "constant": true
    },
    {
      "inputs": [
        {
          "internalType": "contract TipoVinculacionVO",
          "name": "_tipoVinculacion",
          "type": "address"
        }
      ],
      "name": "guardarTipoVinculacionVO",
      "outputs": [
        {
          "internalType": "uint256",
          "name": "",
          "type": "uint256"
        }
      ],
      "stateMutability": "nonpayable",
      "type": "function"
    },
    {
      "inputs": [
        {
          "internalType": "uint256",
          "name": "_id",
          "type": "uint256"
        },
        {
          "internalType": "contract TipoVinculacionVO",
          "name": "_tipoVinculacion",
          "type": "address"
        }
      ],
      "name": "actualizarTipoVinculacionVO",
      "outputs": [],
      "stateMutability": "nonpayable",
      "type": "function"
    },
    {
      "inputs": [
        {
          "internalType": "uint256",
          "name": "_id",
          "type": "uint256"
        }
      ],
      "name": "consultarEstadoHCEVO",
      "outputs": [
        {
          "internalType": "contract EstadoHCEVO",
          "name": "",
          "type": "address"
        }
      ],
      "stateMutability": "view",
      "type": "function",
      "constant": true
    },
    {
      "inputs": [
        {
          "internalType": "contract EstadoHCEVO",
          "name": "_estadoHCE",
          "type": "address"
        }
      ],
      "name": "guardarEstadoHCEVO",
      "outputs": [
        {
          "internalType": "uint256",
          "name": "",
          "type": "uint256"
        }
      ],
      "stateMutability": "nonpayable",
      "type": "function"
    },
    {
      "inputs": [
        {
          "internalType": "uint256",
          "name": "_id",
          "type": "uint256"
        },
        {
          "internalType": "contract EstadoHCEVO",
          "name": "_estadoHCE",
          "type": "address"
        }
      ],
      "name": "actualizarEstadoHCEVO",
      "outputs": [],
      "stateMutability": "nonpayable",
      "type": "function"
    },
    {
      "inputs": [],
      "name": "selfDestruct",
      "outputs": [],
      "stateMutability": "nonpayable",
      "type": "function"
    }
  ],
  "bytecode": "0x608060405234801561001057600080fd5b50600080546001600160a01b03191633179055611452806100326000396000f3fe608060405234801561001057600080fd5b50600436106101825760003560e01c806372bd4f7b116100d85780639cb8a26a1161008c578063fac4714d11610066578063fac4714d14610307578063facdcc741461031a578063fd558f6b1461032d57600080fd5b80639cb8a26a146102d9578063af86577e146102e1578063c6865569146102f457600080fd5b80638336a7d7116100bd5780638336a7d7146102a05780638c303f74146102b357806392ebdcd2146102c657600080fd5b806372bd4f7b1461027a5780637fd2430d1461028d57600080fd5b806325a5b0c81161013a5780634b10094b116101145780634b10094b1461024c5780634ce678be146102545780635d56f1751461026757600080fd5b806325a5b0c8146102055780633754a15014610226578063480c42a01461023957600080fd5b80631c9f42591161016b5780631c9f4259146101cc5780631dbaf403146101df5780631e8264a9146101f257600080fd5b806302a2f10614610187578063069a6e57146101b7575b600080fd5b61019a610195366004611368565b610340565b6040516001600160a01b0390911681526020015b60405180910390f35b6101ca6101c5366004611399565b6103d7565b005b61019a6101da366004611368565b610478565b61019a6101ed366004611368565b61050a565b61019a610200366004611368565b6105b1565b6102186102133660046113c9565b610643565b6040519081526020016101ae565b6101ca610234366004611399565b610792565b61019a610247366004611368565b610833565b600254610218565b6102186102623660046113c9565b6108c5565b6102186102753660046113c9565b610a14565b6102186102883660046113c9565b610b63565b61019a61029b366004611368565b610cb2565b6102186102ae3660046113c9565b610d44565b6101ca6102c1366004611399565b610e93565b60005461019a906001600160a01b031681565b6101ca610f49565b6101ca6102ef366004611399565b610ffd565b6101ca610302366004611399565b61109e565b6102186103153660046113c9565b61113f565b61019a610328366004611368565b61129d565b6101ca61033b366004611399565b6112c7565b600080600a8381548110610356576103566113ed565b6000918252602090912001546001600160a01b03169050806103b65760405162461bcd60e51b81526020600482015260146024820152734e6f20657869737465206573652065737461646f60601b60448201526064015b60405180910390fd5b6001600160a01b039081166000908152600960205260409020541692915050565b6000600683815481106103ec576103ec6113ed565b6000918252602090912001546001600160a01b03169050806104475760405162461bcd60e51b81526020600482015260146024820152734e6f20657869737465206573652065737461646f60601b60448201526064016103ad565b6001600160a01b0390811660009081526005602052604090208054919092166001600160a01b031990911617905550565b600080600c838154811061048e5761048e6113ed565b6000918252602090912001546001600160a01b03169050806104e95760405162461bcd60e51b81526020600482015260146024820152734e6f20657869737465206573652065737461646f60601b60448201526064016103ad565b6001600160a01b039081166000908152600b60205260409020541692915050565b60008060028381548110610520576105206113ed565b6000918252602090912001546001600160a01b03169050806105905760405162461bcd60e51b8152602060048201526024808201527f4e6f2065786973746520657365207469706f206465206964656e74696669636160448201526331b4b7b760e11b60648201526084016103ad565b6001600160a01b039081166000908152600160205260409020541692915050565b600080600683815481106105c7576105c76113ed565b6000918252602090912001546001600160a01b03169050806106225760405162461bcd60e51b81526020600482015260146024820152734e6f20657869737465206573652065737461646f60601b60448201526064016103ad565b6001600160a01b039081166000908152600560205260409020541692915050565b6001600160a01b038082166000908152600960205260408120549091839116156106c65760405162461bcd60e51b815260206004820152602e60248201527f59612065786973746520756e2065737461646f207265676973747261646f206360448201526d6f6e20657365206164647265737360901b60648201526084016103ad565b600a5460405163d0e0ba9560e01b8152600481018290526001600160a01b0385169063d0e0ba9590602401600060405180830381600087803b15801561070b57600080fd5b505af115801561071f573d6000803e3d6000fd5b5050506001600160a01b0392831660008181526009602052604081208054959097166001600160a01b031995861617909655600a805460018101825596527fc65a7bb8d6351c1cf70c95a316cc6a92839c986682d98bc35f958f4883f9d2a8909501805490931690941790915592915050565b6000600483815481106107a7576107a76113ed565b6000918252602090912001546001600160a01b03169050806108025760405162461bcd60e51b81526020600482015260146024820152734e6f20657869737465206573652065737461646f60601b60448201526064016103ad565b6001600160a01b0390811660009081526003602052604090208054919092166001600160a01b031990911617905550565b60008060048381548110610849576108496113ed565b6000918252602090912001546001600160a01b03169050806108a45760405162461bcd60e51b81526020600482015260146024820152734e6f20657869737465206573652065737461646f60601b60448201526064016103ad565b6001600160a01b039081166000908152600360205260409020541692915050565b6001600160a01b038082166000908152600360205260408120549091839116156109485760405162461bcd60e51b815260206004820152602e60248201527f59612065786973746520756e2065737461646f207265676973747261646f206360448201526d6f6e20657365206164647265737360901b60648201526084016103ad565b6004805460405163d0e0ba9560e01b8152918201819052906001600160a01b0385169063d0e0ba9590602401600060405180830381600087803b15801561098e57600080fd5b505af11580156109a2573d6000803e3d6000fd5b505060048054600181019091557f8a35acfbc15ff81a39ae7d344fd709f28e8600b4aa8c65c6b64bfe7fe36bd19b0180546001600160a01b039586166001600160a01b031991821681179092556000918252600360205260409091208054979095169616959095179092559392505050565b6001600160a01b03808216600090815260076020526040812054909183911615610a975760405162461bcd60e51b815260206004820152602e60248201527f59612065786973746520756e2065737461646f207265676973747261646f206360448201526d6f6e20657365206164647265737360901b60648201526084016103ad565b60085460405163d0e0ba9560e01b8152600481018290526001600160a01b0385169063d0e0ba9590602401600060405180830381600087803b158015610adc57600080fd5b505af1158015610af0573d6000803e3d6000fd5b5050506001600160a01b0392831660008181526007602052604081208054959097166001600160a01b0319958616179096556008805460018101825596527ff3f7a9fe364faab93b216da50a3214154f22a0a2b415b23a84c8169e8b636ee3909501805490931690941790915592915050565b6001600160a01b038082166000908152600b6020526040812054909183911615610be65760405162461bcd60e51b815260206004820152602e60248201527f59612065786973746520756e2065737461646f207265676973747261646f206360448201526d6f6e20657365206164647265737360901b60648201526084016103ad565b600c5460405163d0e0ba9560e01b8152600481018290526001600160a01b0385169063d0e0ba9590602401600060405180830381600087803b158015610c2b57600080fd5b505af1158015610c3f573d6000803e3d6000fd5b5050506001600160a01b039283166000818152600b602052604081208054959097166001600160a01b031995861617909655600c805460018101825596527fdf6966c971051c3d54ec59162606531493a51404a002842f56009d7e5cf4a8c7909501805490931690941790915592915050565b60008060088381548110610cc857610cc86113ed565b6000918252602090912001546001600160a01b0316905080610d235760405162461bcd60e51b81526020600482015260146024820152734e6f20657869737465206573652065737461646f60601b60448201526064016103ad565b6001600160a01b039081166000908152600760205260409020541692915050565b6001600160a01b03808216600090815260056020526040812054909183911615610dc75760405162461bcd60e51b815260206004820152602e60248201527f59612065786973746520756e2065737461646f207265676973747261646f206360448201526d6f6e20657365206164647265737360901b60648201526084016103ad565b60065460405163d0e0ba9560e01b8152600481018290526001600160a01b0385169063d0e0ba9590602401600060405180830381600087803b158015610e0c57600080fd5b505af1158015610e20573d6000803e3d6000fd5b5050506001600160a01b0392831660008181526005602052604081208054959097166001600160a01b0319958616179096556006805460018101825596527ff652222313e28459528d920b65115c16c04f3efc82aaedc97be59f3f377c0d3f909501805490931690941790915592915050565b600060028381548110610ea857610ea86113ed565b6000918252602090912001546001600160a01b0316905080610f185760405162461bcd60e51b8152602060048201526024808201527f4e6f2065786973746520657365207469706f206465206964656e74696669636160448201526331b4b7b760e11b60648201526084016103ad565b6001600160a01b0390811660009081526001602052604090208054919092166001600160a01b031990911617905550565b6000546001600160a01b03163314610fef5760405162461bcd60e51b815260206004820152604160248201527f457374612066756e63696f6e20736f6c6f2070756564652073657220656a656360448201527f757461646120706f7220656c2063726561646f722064656c20636f6e7472617460648201527f6f00000000000000000000000000000000000000000000000000000000000000608482015260a4016103ad565b6000546001600160a01b0316ff5b600060088381548110611012576110126113ed565b6000918252602090912001546001600160a01b031690508061106d5760405162461bcd60e51b81526020600482015260146024820152734e6f20657869737465206573652065737461646f60601b60448201526064016103ad565b6001600160a01b0390811660009081526007602052604090208054919092166001600160a01b031990911617905550565b6000600c83815481106110b3576110b36113ed565b6000918252602090912001546001600160a01b031690508061110e5760405162461bcd60e51b81526020600482015260146024820152734e6f20657869737465206573652065737461646f60601b60448201526064016103ad565b6001600160a01b039081166000908152600b602052604090208054919092166001600160a01b031990911617905550565b6001600160a01b038082166000908152600160205260408120549091839116156111d15760405162461bcd60e51b815260206004820152603e60248201527f59612065786973746520756e207469706f206465206964656e7469666963616360448201527f696f6e207265676973747261646f20636f6e206573652061646472657373000060648201526084016103ad565b60025460405163d0e0ba9560e01b8152600481018290526001600160a01b0385169063d0e0ba9590602401600060405180830381600087803b15801561121657600080fd5b505af115801561122a573d6000803e3d6000fd5b50506002805460018181019092557f405787fa12a823e0f2b7631cc41b3ba8828b3321ca811111fa75cd3aa3bb5ace0180546001600160a01b039687166001600160a01b031991821681179092556000918252602092909252604090208054979095169616959095179092559392505050565b600281815481106112ad57600080fd5b6000918252602090912001546001600160a01b0316905081565b6000600a83815481106112dc576112dc6113ed565b6000918252602090912001546001600160a01b03169050806113375760405162461bcd60e51b81526020600482015260146024820152734e6f20657869737465206573652065737461646f60601b60448201526064016103ad565b6001600160a01b0390811660009081526009602052604090208054919092166001600160a01b031990911617905550565b60006020828403121561137a57600080fd5b5035919050565b6001600160a01b038116811461139657600080fd5b50565b600080604083850312156113ac57600080fd5b8235915060208301356113be81611381565b809150509250929050565b6000602082840312156113db57600080fd5b81356113e681611381565b9392505050565b7f4e487b7100000000000000000000000000000000000000000000000000000000600052603260045260246000fdfea264697066735822122082d21e44a3d0b65eb4daf45392576664a2c7b8a980fc11a6e8610bb7c159eb1864736f6c63430008110033",
  "immutableReferences": {},
  "source": "// SPDX-License-Identifier: MIT\npragma solidity ^0.8.17;\n\nimport \"../models/VOGenerales/TipoIdentificacionVO.sol\";\nimport \"../models/VOGenerales/EstadoVO.sol\";\nimport \"../models/VOGenerales/EstadoCivilVO.sol\";\nimport \"../models/VOGenerales/AseguradoraVO.sol\";\nimport \"../models/VOGenerales/TipoVinculacionVO.sol\";\nimport \"../models/VOGenerales/EstadoHCEVO.sol\";\nimport \"./DatosParametricosMapperInterface.sol\";\n\ncontract DatosParametricosMapper is DatosParametricosMapperInterface {\n    address public creador;\n\n    // Convertir TipoIdentificacionStruct a VO\n    mapping(address => TipoIdentificacionVO) private tipoIdentificacion;\n    address[] public tipoIdentificacionAddressList; // NOTE Mapped Structs with Index\n    mapping(address => EstadoVO) private estados; // TODO: Agregar a diagrama de clases\n    address[] private estadosAddressList; // NOTE Mapped Structs with Index\n    mapping(address => EstadoCivilVO) private estadoCivilVO;\n    address[] private estadoCivilVOAddressList; // NOTE Mapped Structs with Index\n    mapping(address => AseguradoraVO) private aseguradoraVO;\n    address[] private aseguradoraVOAddressList; // NOTE Mapped Structs with Index\n    mapping(address => TipoVinculacionVO) private tipoVinculacionVO;\n    address[] private tipoVinculacionVOAddressList; // NOTE Mapped Structs with Index\n    mapping(address => EstadoHCEVO) private estadoHCEVO;\n    address[] private estadoHCEVOAddressList; // NOTE Mapped Structs with Index\n\n    constructor() {\n        creador = msg.sender;\n    }\n\n    // TODO: TipoIdentificacionStruct\n\n    function registros() external view returns(uint256){\n        return tipoIdentificacionAddressList.length;\n    }\n\n    function consultarTipoIdentificacionVO(uint256 _id)\n        external\n        view\n        returns (TipoIdentificacionVO)\n    {\n        address direccion = tipoIdentificacionAddressList[_id];\n        if (direccion == address(0)) {\n            revert(\"No existe ese tipo de identificacion\");\n        }\n        TipoIdentificacionVO tipoIdentificacionVO = tipoIdentificacion[\n            direccion\n        ];\n        return tipoIdentificacionVO;\n    }\n\n    function guardarTipoIdentificacionVO(\n        TipoIdentificacionVO _tipoIdentificacion\n    ) external returns (uint256) {\n        address direccion = address(_tipoIdentificacion);\n        if (address(tipoIdentificacion[direccion]) != address(0))\n            revert(\n                \"Ya existe un tipo de identificacion registrado con ese address\"\n            );\n        uint256 id = tipoIdentificacionAddressList.length;\n        _tipoIdentificacion.setId(id);\n        tipoIdentificacionAddressList.push(direccion);\n        tipoIdentificacion[direccion] = _tipoIdentificacion;\n        return id;\n    }\n\n    function actualizarTipoIdentificacionVO(\n        uint256 _id,\n        TipoIdentificacionVO _tipoIdentificacion\n    ) external {\n        address direccion = tipoIdentificacionAddressList[_id];\n        if (direccion == address(0)) {\n            revert(\"No existe ese tipo de identificacion\");\n        }\n        tipoIdentificacion[direccion] = _tipoIdentificacion;\n    }\n\n    // TODO: EstadoVO\n    function consultarEstadoVO(uint256 _id) external view returns (EstadoVO) {\n        address direccion = estadosAddressList[_id];\n        if (direccion == address(0)) {\n            revert(\"No existe ese estado\");\n        }\n        EstadoVO estadoVO = estados[direccion];\n        return estadoVO;\n    }\n\n    function guardarEstadoVO(EstadoVO _estado) external returns (uint256) {\n        address direccion = address(_estado);\n        if (address(estados[direccion]) != address(0))\n            revert(\"Ya existe un estado registrado con ese address\");\n        uint256 id = estadosAddressList.length;\n        _estado.setId(id);        \n        estadosAddressList.push(direccion);\n        estados[direccion] = _estado;\n        return id;\n    }\n\n    function actualizarEstadoVO(uint256 _id, EstadoVO estado) external {\n        address direccion = estadosAddressList[_id];\n        if (direccion == address(0)) {\n            revert(\"No existe ese estado\");\n        }\n        estados[direccion] = estado;\n    }\n\n    // TODO: EstadoCivilVO\n    function consultarEstadoCivilVO(uint256 _id)\n        external\n        view\n        returns (EstadoCivilVO)\n    {\n        address direccion = estadoCivilVOAddressList[_id];\n        if (direccion == address(0)) {\n            revert(\"No existe ese estado\");\n        }\n        EstadoCivilVO estadoCivil = estadoCivilVO[direccion];\n        return estadoCivil;\n    }\n\n    function guardarEstadoCivilVO(EstadoCivilVO _estadoCivil)\n        external\n        returns (uint256)\n    {\n        address direccion = address(_estadoCivil);\n        if (address(estadoCivilVO[direccion]) != address(0))\n            revert(\"Ya existe un estado registrado con ese address\");\n        uint256 id = estadoCivilVOAddressList.length;\n        _estadoCivil.setId(id);\n        estadoCivilVO[direccion] = _estadoCivil;\n        estadoCivilVOAddressList.push(direccion);\n        return id;\n    }\n\n    function actualizarEstadoCivilVO(uint256 _id, EstadoCivilVO _estadoCivil)\n        external\n    {\n        address direccion = estadoCivilVOAddressList[_id];\n        if (direccion == address(0)) {\n            revert(\"No existe ese estado\");\n        }\n        estadoCivilVO[direccion] = _estadoCivil;\n    }\n\n    // TODO: AseguradoraVO\n    function consultarAseguradoraVO(uint256 _id)\n        external\n        view\n        returns (AseguradoraVO)\n    {\n        address direccion = aseguradoraVOAddressList[_id];\n        if (direccion == address(0)) {\n            revert(\"No existe ese estado\");\n        }\n        AseguradoraVO aseguradora = aseguradoraVO[direccion];\n        return aseguradora;\n    }\n\n    function guardarAseguradoraVO(AseguradoraVO _aseguradora)\n        external\n        returns (uint256)\n    {\n        address direccion = address(_aseguradora);\n        if (address(aseguradoraVO[direccion]) != address(0))\n            revert(\"Ya existe un estado registrado con ese address\");\n        uint256 id = aseguradoraVOAddressList.length;\n        _aseguradora.setId(id);\n        aseguradoraVO[direccion] = _aseguradora;\n        aseguradoraVOAddressList.push(direccion);\n        return id;\n    }\n\n    function actualizarAseguradoraVO(uint256 _id, AseguradoraVO _aseguradoraVO)\n        external\n    {\n        address direccion = aseguradoraVOAddressList[_id];\n        if (direccion == address(0)) {\n            revert(\"No existe ese estado\");\n        }\n        aseguradoraVO[direccion] = _aseguradoraVO;\n    }\n\n    // TODO: TipoVinculacionVO\n    function consultarTipoVinculacionVO(uint256 _id)\n        external\n        view\n        returns (TipoVinculacionVO)\n    {\n        address direccion = tipoVinculacionVOAddressList[_id];\n        if (direccion == address(0)) {\n            revert(\"No existe ese estado\");\n        }\n        TipoVinculacionVO tipoVinculacion = tipoVinculacionVO[direccion];\n        return tipoVinculacion;\n    }\n\n    function guardarTipoVinculacionVO(TipoVinculacionVO _tipoVinculacion)\n        external\n        returns (uint256)\n    {\n        address direccion = address(_tipoVinculacion);\n        if (address(tipoVinculacionVO[direccion]) != address(0))\n            revert(\"Ya existe un estado registrado con ese address\");\n        uint256 id = tipoVinculacionVOAddressList.length;\n        _tipoVinculacion.setId(id);\n        tipoVinculacionVO[direccion] = _tipoVinculacion;\n        tipoVinculacionVOAddressList.push(direccion);\n        return id;\n    }\n\n    function actualizarTipoVinculacionVO(\n        uint256 _id,\n        TipoVinculacionVO _tipoVinculacion\n    ) external {\n        address direccion = tipoVinculacionVOAddressList[_id];\n        if (direccion == address(0)) {\n            revert(\"No existe ese estado\");\n        }\n        tipoVinculacionVO[direccion] = _tipoVinculacion;\n    }\n\n    // TODO: EstadoHCEVO\n    /**\n        Los posibles estados son:\n         activo 0\n         inactivo 1\n         cerrado 2\n     */\n    function consultarEstadoHCEVO(uint256 _id)\n        external\n        view\n        returns (EstadoHCEVO)\n    {\n        address direccion = estadoHCEVOAddressList[_id];\n        if (direccion == address(0)) {\n            revert(\"No existe ese estado\");\n        }\n        EstadoHCEVO estadoHCE = estadoHCEVO[direccion];\n        return estadoHCE;\n    }\n\n    function guardarEstadoHCEVO(EstadoHCEVO _estadoHCE)\n        external\n        returns (uint256)\n    {\n        address direccion = address(_estadoHCE);\n        if (address(estadoHCEVO[direccion]) != address(0))\n            revert(\"Ya existe un estado registrado con ese address\");\n        uint256 id = estadoHCEVOAddressList.length ;\n        _estadoHCE.setId(id);\n        estadoHCEVO[direccion] = _estadoHCE;\n        estadoHCEVOAddressList.push(direccion);\n        return id;\n    }\n\n    function actualizarEstadoHCEVO(uint256 _id, EstadoHCEVO _estadoHCE)\n        external\n    {\n        address direccion = estadoHCEVOAddressList[_id];\n        if (direccion == address(0)) {\n            revert(\"No existe ese estado\");\n        }\n        estadoHCEVO[direccion] = _estadoHCE;\n    }\n\n    modifier esPropietario() {\n        require(\n            msg.sender == creador,\n            \"Esta funcion solo puede ser ejecutada por el creador del contrato\"\n        );\n        _; // ac se ejecuta la funcin\n    }\n\n    function selfDestruct() external esPropietario {\n        selfdestruct(payable(creador));\n    }\n}\n",
  "sourcePath": "/back/contracts/persistence/DatosParametricosMapper.sol",
  "compiler": {
    "name": "solc",
    "version": "0.8.17+commit.8df45f5f.Emscripten.clang"
  },
  "schemaVersion": "3.4.11",
  "updatedAt": "2023-05-03T04:14:37.683Z",
  "networkType": "ethereum",
  "devdoc": {
    "kind": "dev",
    "methods": {},
    "version": 1
  },
  "userdoc": {
    "kind": "user",
    "methods": {
      "consultarEstadoHCEVO(uint256)": {
        "notice": "Los posibles estados son: activo 0 inactivo 1 cerrado 2"
      }
    },
    "version": 1
  }
}