{
  "contractName": "EstadoHCEVO",
  "abi": [
    {
      "inputs": [],
      "name": "getEstadoHCEVOValue",
      "outputs": [
        {
          "components": [
            {
              "internalType": "uint256",
              "name": "id",
              "type": "uint256"
            },
            {
              "internalType": "string",
              "name": "nombre",
              "type": "string"
            },
            {
              "internalType": "string",
              "name": "descripcion",
              "type": "string"
            },
            {
              "internalType": "bool",
              "name": "estaActivo",
              "type": "bool"
            }
          ],
          "internalType": "struct EstadoHCEVO.EstadoHCEVOStruct",
          "name": "",
          "type": "tuple"
        }
      ],
      "stateMutability": "view",
      "type": "function"
    },
    {
      "inputs": [
        {
          "components": [
            {
              "internalType": "uint256",
              "name": "id",
              "type": "uint256"
            },
            {
              "internalType": "string",
              "name": "nombre",
              "type": "string"
            },
            {
              "internalType": "string",
              "name": "descripcion",
              "type": "string"
            },
            {
              "internalType": "bool",
              "name": "estaActivo",
              "type": "bool"
            }
          ],
          "internalType": "struct EstadoHCEVO.EstadoHCEVOStruct",
          "name": "estadoHCEVOStruct",
          "type": "tuple"
        }
      ],
      "name": "setValueOfEstadoVOStruct",
      "outputs": [],
      "stateMutability": "nonpayable",
      "type": "function"
    },
    {
      "inputs": [],
      "name": "getId",
      "outputs": [
        {
          "internalType": "uint256",
          "name": "",
          "type": "uint256"
        }
      ],
      "stateMutability": "view",
      "type": "function"
    },
    {
      "inputs": [],
      "name": "getNombre",
      "outputs": [
        {
          "internalType": "string",
          "name": "",
          "type": "string"
        }
      ],
      "stateMutability": "view",
      "type": "function"
    },
    {
      "inputs": [],
      "name": "getDescripcion",
      "outputs": [
        {
          "internalType": "string",
          "name": "",
          "type": "string"
        }
      ],
      "stateMutability": "view",
      "type": "function"
    },
    {
      "inputs": [],
      "name": "getEstaActivo",
      "outputs": [
        {
          "internalType": "bool",
          "name": "",
          "type": "bool"
        }
      ],
      "stateMutability": "view",
      "type": "function"
    },
    {
      "inputs": [
        {
          "internalType": "string",
          "name": "_nombre",
          "type": "string"
        }
      ],
      "name": "setNombre",
      "outputs": [],
      "stateMutability": "nonpayable",
      "type": "function"
    },
    {
      "inputs": [
        {
          "internalType": "string",
          "name": "_descripcion",
          "type": "string"
        }
      ],
      "name": "setDescripcion",
      "outputs": [],
      "stateMutability": "nonpayable",
      "type": "function"
    },
    {
      "inputs": [
        {
          "internalType": "bool",
          "name": "_estaActivo",
          "type": "bool"
        }
      ],
      "name": "setEstaActivo",
      "outputs": [],
      "stateMutability": "nonpayable",
      "type": "function"
    },
    {
      "inputs": [
        {
          "internalType": "uint256",
          "name": "_id",
          "type": "uint256"
        }
      ],
      "name": "setId",
      "outputs": [],
      "stateMutability": "nonpayable",
      "type": "function"
    }
  ],
  "bytecode": "0x608060405234801561001057600080fd5b50610838806100206000396000f3fe608060405234801561001057600080fd5b50600436106100bd5760003560e01c8063d0e0ba9511610076578063d75cbf9b1161005b578063d75cbf9b14610151578063f9a9ff9d14610166578063fdaef4831461016e57600080fd5b8063d0e0ba951461012b578063d45795cb1461013e57600080fd5b806361e14382116100a757806361e14382146100ed57806391017aca14610102578063af9958461461011557600080fd5b806202736b146100c25780635d1ca631146100d7575b600080fd5b6100d56100d03660046104cb565b61018f565b005b6000546040519081526020015b60405180910390f35b6100f561019f565b6040516100e4919061054e565b6100d56101103660046105bf565b610310565b60035460ff1660405190151581526020016100e4565b6100d561013936600461066b565b600055565b6100d561014c3660046104cb565b610352565b61015961035e565b6040516100e49190610684565b6101596103f0565b6100d561017c36600461069e565b6003805460ff1916911515919091179055565b600161019b8282610742565b5050565b6101cc60405180608001604052806000815260200160608152602001606081526020016000151581525090565b60405180608001604052806000548152602001600180546101ec906106b9565b80601f0160208091040260200160405190810160405280929190818152602001828054610218906106b9565b80156102655780601f1061023a57610100808354040283529160200191610265565b820191906000526020600020905b81548152906001019060200180831161024857829003601f168201915b505050505081526020016002805461027c906106b9565b80601f01602080910402602001604051908101604052809291908181526020018280546102a8906106b9565b80156102f55780601f106102ca576101008083540402835291602001916102f5565b820191906000526020600020905b8154815290600101906020018083116102d857829003601f168201915b505050918352505060035460ff161515602090910152919050565b805160005560208101516001906103279082610742565b50604081015160029061033a9082610742565b50606001516003805460ff1916911515919091179055565b600261019b8282610742565b60606001805461036d906106b9565b80601f0160208091040260200160405190810160405280929190818152602001828054610399906106b9565b80156103e65780601f106103bb576101008083540402835291602001916103e6565b820191906000526020600020905b8154815290600101906020018083116103c957829003601f168201915b5050505050905090565b60606002805461036d906106b9565b634e487b7160e01b600052604160045260246000fd5b6040516080810167ffffffffffffffff81118282101715610438576104386103ff565b60405290565b600082601f83011261044f57600080fd5b813567ffffffffffffffff8082111561046a5761046a6103ff565b604051601f8301601f19908116603f01168101908282118183101715610492576104926103ff565b816040528381528660208588010111156104ab57600080fd5b836020870160208301376000602085830101528094505050505092915050565b6000602082840312156104dd57600080fd5b813567ffffffffffffffff8111156104f457600080fd5b6105008482850161043e565b949350505050565b6000815180845260005b8181101561052e57602081850181015186830182015201610512565b506000602082860101526020601f19601f83011685010191505092915050565b6020815281516020820152600060208301516080604084015261057460a0840182610508565b90506040840151601f198483030160608501526105918282610508565b9150506060840151151560808401528091505092915050565b803580151581146105ba57600080fd5b919050565b6000602082840312156105d157600080fd5b813567ffffffffffffffff808211156105e957600080fd5b90830190608082860312156105fd57600080fd5b610605610415565b8235815260208301358281111561061b57600080fd5b6106278782860161043e565b60208301525060408301358281111561063f57600080fd5b61064b8782860161043e565b60408301525061065d606084016105aa565b606082015295945050505050565b60006020828403121561067d57600080fd5b5035919050565b6020815260006106976020830184610508565b9392505050565b6000602082840312156106b057600080fd5b610697826105aa565b600181811c908216806106cd57607f821691505b6020821081036106ed57634e487b7160e01b600052602260045260246000fd5b50919050565b601f82111561073d57600081815260208120601f850160051c8101602086101561071a5750805b601f850160051c820191505b8181101561073957828155600101610726565b5050505b505050565b815167ffffffffffffffff81111561075c5761075c6103ff565b6107708161076a84546106b9565b846106f3565b602080601f8311600181146107a5576000841561078d5750858301515b600019600386901b1c1916600185901b178555610739565b600085815260208120601f198616915b828110156107d4578886015182559484019460019091019084016107b5565b50858210156107f25787850151600019600388901b60f8161c191681555b5050505050600190811b0190555056fea2646970667358221220dd3565bd83c9df481277d7e95ab660eaf826d4762b986f771ac92e20f8151d8d64736f6c63430008110033",
  "immutableReferences": {},
  "source": "// SPDX-License-Identifier: MIT\npragma solidity ^0.8.17;\n\ncontract EstadoHCEVO {\n    uint256 private id;\n    string private nombre;\n    string private descripcion;\n    bool private estaActivo;\n\n    struct EstadoHCEVOStruct {\n        uint256 id;\n        string nombre;\n        string descripcion;\n        bool estaActivo;\n    }\n\n    function getEstadoHCEVOValue()\n        public\n        view\n        returns (EstadoHCEVOStruct memory)\n    {\n        return EstadoHCEVOStruct(id, nombre, descripcion, estaActivo);\n    }\n\n    function setValueOfEstadoVOStruct(\n        EstadoHCEVOStruct memory estadoHCEVOStruct\n    ) public {\n        id = estadoHCEVOStruct.id;\n        nombre = estadoHCEVOStruct.nombre;\n        descripcion = estadoHCEVOStruct.descripcion;\n        estaActivo = estadoHCEVOStruct.estaActivo;\n    }\n\n    function getId() public view returns (uint256) {\n        return id;\n    }\n\n    function getNombre() public view returns (string memory) {\n        return nombre;\n    }\n\n    function getDescripcion() public view returns (string memory) {\n        return descripcion;\n    }\n\n    function getEstaActivo() public view returns (bool) {\n        return estaActivo;\n    }\n\n    function setNombre(string memory _nombre) public {\n        nombre = _nombre;\n    }\n\n    function setDescripcion(string memory _descripcion) public {\n        descripcion = _descripcion;\n    }\n    \n    function setEstaActivo(bool _estaActivo) public {\n        estaActivo= _estaActivo;\n    }\n\n    function setId(uint256 _id) public {\n        id = _id;\n    }\n}\n",
  "sourcePath": "/back/contracts/models/VOGenerales/EstadoHCEVO.sol",
  "compiler": {
    "name": "solc",
    "version": "0.8.17+commit.8df45f5f.Emscripten.clang"
  },
  "schemaVersion": "3.4.11",
  "updatedAt": "2023-05-03T03:35:49.418Z",
  "devdoc": {
    "kind": "dev",
    "methods": {},
    "version": 1
  },
  "userdoc": {
    "kind": "user",
    "methods": {},
    "version": 1
  }
}