{
  "contractName": "EstadoCivilVO",
  "abi": [
    {
      "inputs": [],
      "name": "getEstadoCivilVOValue",
      "outputs": [
        {
          "components": [
            {
              "internalType": "uint256",
              "name": "id",
              "type": "uint256"
            },
            {
              "internalType": "string",
              "name": "nombre",
              "type": "string"
            },
            {
              "internalType": "string",
              "name": "descripcion",
              "type": "string"
            }
          ],
          "internalType": "struct EstadoCivilVO.EstadoCivilVOStruct",
          "name": "",
          "type": "tuple"
        }
      ],
      "stateMutability": "view",
      "type": "function"
    },
    {
      "inputs": [
        {
          "components": [
            {
              "internalType": "uint256",
              "name": "id",
              "type": "uint256"
            },
            {
              "internalType": "string",
              "name": "nombre",
              "type": "string"
            },
            {
              "internalType": "string",
              "name": "descripcion",
              "type": "string"
            }
          ],
          "internalType": "struct EstadoCivilVO.EstadoCivilVOStruct",
          "name": "estadoCivilVOStruct",
          "type": "tuple"
        }
      ],
      "name": "setValueOfEstadoCivilVOStruct",
      "outputs": [],
      "stateMutability": "nonpayable",
      "type": "function"
    },
    {
      "inputs": [],
      "name": "getId",
      "outputs": [
        {
          "internalType": "uint256",
          "name": "",
          "type": "uint256"
        }
      ],
      "stateMutability": "view",
      "type": "function"
    },
    {
      "inputs": [],
      "name": "getNombre",
      "outputs": [
        {
          "internalType": "string",
          "name": "",
          "type": "string"
        }
      ],
      "stateMutability": "view",
      "type": "function"
    },
    {
      "inputs": [],
      "name": "getDescripcion",
      "outputs": [
        {
          "internalType": "string",
          "name": "",
          "type": "string"
        }
      ],
      "stateMutability": "view",
      "type": "function"
    },
    {
      "inputs": [
        {
          "internalType": "string",
          "name": "_nombre",
          "type": "string"
        }
      ],
      "name": "setNombre",
      "outputs": [],
      "stateMutability": "nonpayable",
      "type": "function"
    },
    {
      "inputs": [
        {
          "internalType": "string",
          "name": "_descripcion",
          "type": "string"
        }
      ],
      "name": "setDescripcion",
      "outputs": [],
      "stateMutability": "nonpayable",
      "type": "function"
    },
    {
      "inputs": [
        {
          "internalType": "uint256",
          "name": "_id",
          "type": "uint256"
        }
      ],
      "name": "setId",
      "outputs": [],
      "stateMutability": "nonpayable",
      "type": "function"
    }
  ],
  "bytecode": "0x608060405234801561001057600080fd5b5061073c806100206000396000f3fe608060405234801561001057600080fd5b50600436106100875760003560e01c8063d45795cb1161005b578063d45795cb146100e3578063d75cbf9b146100f6578063ed631fab1461010b578063f9a9ff9d1461011e57600080fd5b806202736b1461008c5780634295ba5f146100a15780635d1ca631146100bf578063d0e0ba95146100d0575b600080fd5b61009f61009a36600461040a565b610126565b005b6100a9610136565b6040516100b6919061048d565b60405180910390f35b6000546040519081526020016100b6565b61009f6100de3660046104d9565b600055565b61009f6100f136600461040a565b610290565b6100fe61029c565b6040516100b691906104f2565b61009f61011936600461050c565b61032e565b6100fe610358565b60016101328282610646565b5050565b61015a60405180606001604052806000815260200160608152602001606081525090565b604051806060016040528060005481526020016001805461017a906105bd565b80601f01602080910402602001604051908101604052809291908181526020018280546101a6906105bd565b80156101f35780601f106101c8576101008083540402835291602001916101f3565b820191906000526020600020905b8154815290600101906020018083116101d657829003601f168201915b505050505081526020016002805461020a906105bd565b80601f0160208091040260200160405190810160405280929190818152602001828054610236906105bd565b80156102835780601f1061025857610100808354040283529160200191610283565b820191906000526020600020905b81548152906001019060200180831161026657829003601f168201915b5050505050815250905090565b60026101328282610646565b6060600180546102ab906105bd565b80601f01602080910402602001604051908101604052809291908181526020018280546102d7906105bd565b80156103245780601f106102f957610100808354040283529160200191610324565b820191906000526020600020905b81548152906001019060200180831161030757829003601f168201915b5050505050905090565b805160005560208101516001906103459082610646565b5060408101516002906101329082610646565b6060600280546102ab906105bd565b634e487b7160e01b600052604160045260246000fd5b600082601f83011261038e57600080fd5b813567ffffffffffffffff808211156103a9576103a9610367565b604051601f8301601f19908116603f011681019082821181831017156103d1576103d1610367565b816040528381528660208588010111156103ea57600080fd5b836020870160208301376000602085830101528094505050505092915050565b60006020828403121561041c57600080fd5b813567ffffffffffffffff81111561043357600080fd5b61043f8482850161037d565b949350505050565b6000815180845260005b8181101561046d57602081850181015186830182015201610451565b506000602082860101526020601f19601f83011685010191505092915050565b602081528151602082015260006020830151606060408401526104b36080840182610447565b90506040840151601f198483030160608501526104d08282610447565b95945050505050565b6000602082840312156104eb57600080fd5b5035919050565b6020815260006105056020830184610447565b9392505050565b60006020828403121561051e57600080fd5b813567ffffffffffffffff8082111561053657600080fd5b908301906060828603121561054a57600080fd5b60405160608101818110838211171561056557610565610367565b6040528235815260208301358281111561057e57600080fd5b61058a8782860161037d565b6020830152506040830135828111156105a257600080fd5b6105ae8782860161037d565b60408301525095945050505050565b600181811c908216806105d157607f821691505b6020821081036105f157634e487b7160e01b600052602260045260246000fd5b50919050565b601f82111561064157600081815260208120601f850160051c8101602086101561061e5750805b601f850160051c820191505b8181101561063d5782815560010161062a565b5050505b505050565b815167ffffffffffffffff81111561066057610660610367565b6106748161066e84546105bd565b846105f7565b602080601f8311600181146106a957600084156106915750858301515b600019600386901b1c1916600185901b17855561063d565b600085815260208120601f198616915b828110156106d8578886015182559484019460019091019084016106b9565b50858210156106f65787850151600019600388901b60f8161c191681555b5050505050600190811b0190555056fea2646970667358221220f5ccc7250d186c31f8b53e4ba8a8017e1442008e0c4ddfa32a8cb981c250194564736f6c63430008110033",
  "immutableReferences": {},
  "source": "// SPDX-License-Identifier: MIT\npragma solidity ^0.8.17;\n\ncontract EstadoCivilVO{ // Actualizar el diagrma de clases\n    uint256 private id;\n    string private nombre;\n    string private descripcion;\n\n    struct EstadoCivilVOStruct {\n        uint256  id;\n        string  nombre;\n        string  descripcion;\n        \n    }\n\n    function getEstadoCivilVOValue() public view returns (EstadoCivilVOStruct memory) {\n        return EstadoCivilVOStruct(\n            id,\n            nombre,\n            descripcion\n        );\n    }\n\n    function setValueOfEstadoCivilVOStruct(EstadoCivilVOStruct memory estadoCivilVOStruct) public {\n        id = estadoCivilVOStruct.id;\n        nombre = estadoCivilVOStruct.nombre;\n        descripcion = estadoCivilVOStruct.descripcion;\n    }\n\n    function getId() public view returns (uint256) {\n        return id;\n    }\n\n    function getNombre() public view returns (string memory) {\n        return nombre;\n    }\n\n    function getDescripcion() public view returns (string memory) {\n        return descripcion;\n    }\n\n\n    function setNombre(string memory _nombre) public {\n        nombre = _nombre;\n    }\n\n    function setDescripcion(string memory _descripcion) public {\n        descripcion = _descripcion;\n    }\n\n    function setId(uint256 _id) public {\n        id = _id;\n    }\n}",
  "sourcePath": "/home/felipe/Documentos/Blockchain/codigo/HCE-full/back-hce/contracts/models/VOGenerales/EstadoCivilVO.sol",
  "compiler": {
    "name": "solc",
    "version": "0.8.17+commit.8df45f5f.Emscripten.clang"
  },
  "schemaVersion": "3.4.8",
  "updatedAt": "2023-03-26T17:17:11.274Z",
  "devdoc": {
    "kind": "dev",
    "methods": {},
    "version": 1
  },
  "userdoc": {
    "kind": "user",
    "methods": {},
    "version": 1
  }
}