{
  "contractName": "FiltroTipoRegistroMedicoIterator",
  "abi": [
    {
      "inputs": [
        {
          "internalType": "contract RegistroMedico[]",
          "name": "_todosLosRegistros",
          "type": "address[]"
        },
        {
          "internalType": "enum TipoRegistroMedico",
          "name": "_tipoRegistroMedico",
          "type": "uint8"
        }
      ],
      "stateMutability": "nonpayable",
      "type": "constructor"
    },
    {
      "inputs": [],
      "name": "creador",
      "outputs": [
        {
          "internalType": "address",
          "name": "",
          "type": "address"
        }
      ],
      "stateMutability": "view",
      "type": "function"
    },
    {
      "inputs": [],
      "name": "hasMore",
      "outputs": [
        {
          "internalType": "bool",
          "name": "",
          "type": "bool"
        }
      ],
      "stateMutability": "nonpayable",
      "type": "function"
    },
    {
      "inputs": [],
      "name": "getNext",
      "outputs": [
        {
          "internalType": "contract RegistroMedico",
          "name": "",
          "type": "address"
        }
      ],
      "stateMutability": "nonpayable",
      "type": "function"
    },
    {
      "inputs": [],
      "name": "selfDestruct",
      "outputs": [],
      "stateMutability": "nonpayable",
      "type": "function"
    }
  ],
  "bytecode": "0x60806040526000600355600060045534801561001a57600080fd5b506040516105a33803806105a38339810160408190526100399161014b565b600080546001600160a01b03191633179055815161005e906001906020850190610090565b506000805482919060ff60a01b1916600160a01b83601281111561008457610084610221565b02179055505050610237565b8280548282559060005260206000209081019282156100e5579160200282015b828111156100e557825182546001600160a01b0319166001600160a01b039091161782556020909201916001909101906100b0565b506100f19291506100f5565b5090565b5b808211156100f157600081556001016100f6565b634e487b7160e01b600052604160045260246000fd5b80516001600160a01b038116811461013757600080fd5b919050565b80516013811061013757600080fd5b6000806040838503121561015e57600080fd5b82516001600160401b038082111561017557600080fd5b818501915085601f83011261018957600080fd5b815160208282111561019d5761019d61010a565b8160051b604051601f19603f830116810181811086821117156101c2576101c261010a565b6040529283528183019350848101820192898411156101e057600080fd5b948201945b83861015610205576101f686610120565b855294820194938201936101e5565b9650610214905087820161013c565b9450505050509250929050565b634e487b7160e01b600052602160045260246000fd5b61035d806102466000396000f3fe608060405234801561001057600080fd5b506004361061004c5760003560e01c806392ebdcd2146100515780639cb8a26a14610081578063f3638f781461008b578063fb045cc914610093575b600080fd5b600054610064906001600160a01b031681565b6040516001600160a01b0390911681526020015b60405180910390f35b6100896100ab565b005b6100646100b9565b61009b610174565b6040519015158152602001610078565b6000546001600160a01b0316ff5b60006100c3610174565b1561010e5760006001600454815481106100df576100df61028b565b6000918252602090912001546004546001600160a01b0390911691506101069060016102b7565b600355919050565b6040517f08c379a000000000000000000000000000000000000000000000000000000000815260206004820152601360248201527f4e6f2068617920756e207369677569656e746500000000000000000000000000604482015260640160405180910390fd5b6003546000905b6001548110156102835760005474010000000000000000000000000000000000000000900460ff1660128111156101b4576101b46102d0565b600182815481106101c7576101c761028b565b60009182526020918290200154604080517f44517a9a00000000000000000000000000000000000000000000000000000000815290516001600160a01b03909216926344517a9a926004808401938290030181865afa15801561022e573d6000803e3d6000fd5b505050506040513d601f19601f8201168201806040525081019061025291906102e6565b6012811115610263576102636102d0565b036102715760045550600190565b8061027b8161030e565b91505061017b565b600091505090565b634e487b7160e01b600052603260045260246000fd5b634e487b7160e01b600052601160045260246000fd5b808201808211156102ca576102ca6102a1565b92915050565b634e487b7160e01b600052602160045260246000fd5b6000602082840312156102f857600080fd5b81516013811061030757600080fd5b9392505050565b600060018201610320576103206102a1565b506001019056fea2646970667358221220ab7e3413d54aef67939edbf22203ce8e54adec8afe8e1298401435d98420eb3464736f6c63430008110033",
  "immutableReferences": {},
  "source": "// SPDX-License-Identifier: MIT\npragma solidity ^0.8.10;\n\nimport \"./RegistroMedicoIterator.sol\";\nimport \"../../models/historiaClinica/RegistroMedico.sol\";\nimport \"../../models/historiaClinica/enums/TipoRegistroEnum.sol\";\n\ncontract FiltroTipoRegistroMedicoIterator  is RegistroMedicoIterator{\n    /* TODO: Ajustar que las creaciones de estos objetos, pueden ser muy costosos \n     si quedan en storge\n     */\n    address public creador;\n\n    TipoRegistroMedico tipoRegistroMedico;\n\n    RegistroMedico[]  todosLosRegistros;\n    RegistroMedico siguiente;\n    uint256 posicionActual=0;\n    uint256 posicionSiguiente=0;\n\n    constructor(\n        RegistroMedico[] memory _todosLosRegistros,\n        TipoRegistroMedico _tipoRegistroMedico\n        ) {\n        creador = msg.sender; // creador del contrato\n        todosLosRegistros = _todosLosRegistros;\n        tipoRegistroMedico = _tipoRegistroMedico;\n    }\n\n    function hasMore() public override returns(bool){\n        uint256 posicion = posicionActual;\n        while (posicion < todosLosRegistros.length ) {\n            if(todosLosRegistros[posicion].getTipoRegistroMedico() == tipoRegistroMedico) {\n                posicionSiguiente = posicion;\n                return true;\n            }\n            posicion++;\n        }\n        return false;\n    }\n\n    function getNext() public override returns(RegistroMedico) {        \n        if(hasMore()){\n            RegistroMedico registroMedico = todosLosRegistros[posicionSiguiente];\n            posicionActual = posicionSiguiente + 1;         \n            return registroMedico;\n        } \n        revert(\"No hay un siguiente\");\n    }\n\n    function selfDestruct() public {\n        selfdestruct(payable(creador));\n    }\n\n    \n}",
  "sourcePath": "/back/contracts/logica/IteradorHCE/FiltroTipoRegistroMedicoIterator.sol",
  "compiler": {
    "name": "solc",
    "version": "0.8.17+commit.8df45f5f.Emscripten.clang"
  },
  "schemaVersion": "3.4.11",
  "updatedAt": "2023-06-26T00:47:43.268Z",
  "devdoc": {
    "kind": "dev",
    "methods": {},
    "version": 1
  },
  "userdoc": {
    "kind": "user",
    "methods": {},
    "version": 1
  }
}