{
  "contractName": "FiltroFechaRegistroMedicoIterator",
  "abi": [
    {
      "inputs": [],
      "stateMutability": "nonpayable",
      "type": "constructor"
    },
    {
      "inputs": [],
      "name": "creador",
      "outputs": [
        {
          "internalType": "address",
          "name": "",
          "type": "address"
        }
      ],
      "stateMutability": "view",
      "type": "function"
    },
    {
      "inputs": [],
      "name": "hasMore",
      "outputs": [
        {
          "internalType": "bool",
          "name": "",
          "type": "bool"
        }
      ],
      "stateMutability": "view",
      "type": "function"
    },
    {
      "inputs": [],
      "name": "getNext",
      "outputs": [
        {
          "internalType": "contract RegistroMedico",
          "name": "",
          "type": "address"
        }
      ],
      "stateMutability": "nonpayable",
      "type": "function"
    },
    {
      "inputs": [],
      "name": "selfDestruct",
      "outputs": [],
      "stateMutability": "nonpayable",
      "type": "function"
    }
  ],
  "bytecode": "0x6080604052600060035534801561001557600080fd5b50600080546001600160a01b03191633179055610280806100376000396000f3fe608060405234801561001057600080fd5b506004361061004c5760003560e01c806392ebdcd2146100515780639cb8a26a14610081578063f3638f781461008b578063fb045cc914610093575b600080fd5b600054610064906001600160a01b031681565b6040516001600160a01b0390911681526020015b60405180910390f35b6100896100a8565b005b6100646100b6565b60015460035460405191118152602001610078565b6000546001600160a01b0316ff5b6000426100c66001546003541090565b156101e8576003546100d99060016101f4565b6003819055600180546000929081106100f4576100f461021b565b9060005260206000200160009054906101000a90046001600160a01b0316905081816001600160a01b0316631b59abb96040518163ffffffff1660e01b8152600401602060405180830381865afa158015610153573d6000803e3d6000fd5b505050506040513d601f19601f820116820180604052508101906101779190610231565b036101d5576001600354815481106101915761019161021b565b600091825260209091200154600280547fffffffffffffffffffffffff0000000000000000000000000000000000000000166001600160a01b039092169190911790555b50506002546001600160a01b0316919050565b6101f06100a8565b5090565b8082018082111561021557634e487b7160e01b600052601160045260246000fd5b92915050565b634e487b7160e01b600052603260045260246000fd5b60006020828403121561024357600080fd5b505191905056fea264697066735822122091321451b1e0deb4c3abf21ea33324179c648f09b2607a916fd0514a7e5d367964736f6c63430008110033",
  "immutableReferences": {},
  "source": "// SPDX-License-Identifier: MIT\npragma solidity ^0.8.17;\n\nimport \"./RegistroMedicoIterator.sol\";\nimport \"../../models/historiaClinica/RegistroMedico.sol\";\n\ncontract FiltroFechaRegistroMedicoIterator is RegistroMedicoIterator {\n    /* TODO: Ajustar que las creaciones de estos objetos, pueden ser muy costosos \n     si quedan en storge\n     */\n\n    address public creador;\n\n    RegistroMedico[] todosLosRegistros;\n    RegistroMedico siguiente;\n    uint256 posicionActual = 0;\n\n    constructor() {\n        creador = msg.sender; // creador del contrato\n    }\n\n    function hasMore() public view override returns (bool) {\n        return posicionActual < todosLosRegistros.length;\n    }\n\n    function getNext() public override returns (RegistroMedico) {\n        uint256 fechaActual = block.timestamp;\n        if (hasMore()) {\n            posicionActual = posicionActual + 1;\n            RegistroMedico regMedico = todosLosRegistros[posicionActual];\n            if (regMedico.getFechaRegistro() == fechaActual) {\n                siguiente = todosLosRegistros[posicionActual];\n            }\n            return siguiente;\n        } else {\n            selfDestruct();\n            // revert(\"No hay un siguiente\");\n        }\n    }\n\n    // Agregar un self destruct para matarlo al finalizar\n\n    function selfDestruct() public {\n        selfdestruct(payable(creador));\n    }\n}\n",
  "sourcePath": "/home/felipe/Documentos/Blockchain/codigo/HCE-full/back-hce/contracts/logica/IteradorHCE/FiltroFechaRegistroMedicoIterator.sol",
  "compiler": {
    "name": "solc",
    "version": "0.8.17+commit.8df45f5f.Emscripten.clang"
  },
  "schemaVersion": "3.4.8",
  "updatedAt": "2023-04-05T22:10:22.930Z",
  "devdoc": {
    "kind": "dev",
    "methods": {},
    "version": 1
  },
  "userdoc": {
    "kind": "user",
    "methods": {},
    "version": 1
  }
}