{
  "contractName": "GinecobstetriciaVO",
  "abi": [
    {
      "inputs": [],
      "name": "creador",
      "outputs": [
        {
          "internalType": "address",
          "name": "",
          "type": "address"
        }
      ],
      "stateMutability": "view",
      "type": "function"
    },
    {
      "inputs": [],
      "name": "getCodPrestadorServicioDeSalud",
      "outputs": [
        {
          "internalType": "address",
          "name": "",
          "type": "address"
        }
      ],
      "stateMutability": "view",
      "type": "function"
    },
    {
      "inputs": [],
      "name": "getFechaRegistro",
      "outputs": [
        {
          "internalType": "uint256",
          "name": "",
          "type": "uint256"
        }
      ],
      "stateMutability": "view",
      "type": "function"
    },
    {
      "inputs": [],
      "name": "getId",
      "outputs": [
        {
          "internalType": "uint256",
          "name": "",
          "type": "uint256"
        }
      ],
      "stateMutability": "view",
      "type": "function"
    },
    {
      "inputs": [],
      "name": "getRegistroMedico",
      "outputs": [
        {
          "components": [
            {
              "internalType": "uint256",
              "name": "id",
              "type": "uint256"
            },
            {
              "internalType": "address",
              "name": "codPrestadorServicioDeSalud",
              "type": "address"
            },
            {
              "internalType": "uint256",
              "name": "fechaRegistro",
              "type": "uint256"
            },
            {
              "internalType": "enum TipoRegistroMedico",
              "name": "tipoRegistroMedico",
              "type": "uint8"
            }
          ],
          "internalType": "struct RegistroMedico.RegistroMedicoStruct",
          "name": "",
          "type": "tuple"
        }
      ],
      "stateMutability": "view",
      "type": "function"
    },
    {
      "inputs": [],
      "name": "getTipoRegistroMedico",
      "outputs": [
        {
          "internalType": "enum TipoRegistroMedico",
          "name": "",
          "type": "uint8"
        }
      ],
      "stateMutability": "view",
      "type": "function"
    },
    {
      "inputs": [],
      "name": "selfDestruct",
      "outputs": [],
      "stateMutability": "nonpayable",
      "type": "function"
    },
    {
      "inputs": [
        {
          "internalType": "address",
          "name": "_codPrestadorServicioDeSalud",
          "type": "address"
        }
      ],
      "name": "setCodPrestadorServicioDeSalud",
      "outputs": [],
      "stateMutability": "nonpayable",
      "type": "function"
    },
    {
      "inputs": [
        {
          "internalType": "uint256",
          "name": "_fechaRegistro",
          "type": "uint256"
        }
      ],
      "name": "setFechaRegistro",
      "outputs": [],
      "stateMutability": "nonpayable",
      "type": "function"
    },
    {
      "inputs": [
        {
          "internalType": "uint256",
          "name": "_id",
          "type": "uint256"
        }
      ],
      "name": "setId",
      "outputs": [],
      "stateMutability": "nonpayable",
      "type": "function"
    },
    {
      "inputs": [
        {
          "components": [
            {
              "internalType": "uint256",
              "name": "id",
              "type": "uint256"
            },
            {
              "internalType": "address",
              "name": "codPrestadorServicioDeSalud",
              "type": "address"
            },
            {
              "internalType": "uint256",
              "name": "fechaRegistro",
              "type": "uint256"
            },
            {
              "internalType": "enum TipoRegistroMedico",
              "name": "tipoRegistroMedico",
              "type": "uint8"
            }
          ],
          "internalType": "struct RegistroMedico.RegistroMedicoStruct",
          "name": "registro",
          "type": "tuple"
        }
      ],
      "name": "setRegistroMedico",
      "outputs": [],
      "stateMutability": "nonpayable",
      "type": "function"
    },
    {
      "inputs": [
        {
          "internalType": "enum TipoRegistroMedico",
          "name": "_tipoRegistroMedico",
          "type": "uint8"
        }
      ],
      "name": "setTipoRegistroMedico",
      "outputs": [],
      "stateMutability": "nonpayable",
      "type": "function"
    },
    {
      "inputs": [],
      "name": "getGinecobstetriciaStruct",
      "outputs": [
        {
          "components": [
            {
              "internalType": "uint256",
              "name": "cantidadAbortos",
              "type": "uint256"
            },
            {
              "internalType": "uint256",
              "name": "cantidadPartos",
              "type": "uint256"
            },
            {
              "internalType": "bool",
              "name": "cesareas",
              "type": "bool"
            },
            {
              "internalType": "bool",
              "name": "climaterio",
              "type": "bool"
            },
            {
              "internalType": "string",
              "name": "desarrolloSexual",
              "type": "string"
            },
            {
              "internalType": "uint256",
              "name": "fechaProbableParto",
              "type": "uint256"
            },
            {
              "internalType": "string",
              "name": "flujoPlasmaticoRenal",
              "type": "string"
            },
            {
              "internalType": "uint256",
              "name": "menarca",
              "type": "uint256"
            },
            {
              "internalType": "bool",
              "name": "menopausia",
              "type": "bool"
            },
            {
              "internalType": "string",
              "name": "ritmoMenstrual",
              "type": "string"
            },
            {
              "internalType": "string",
              "name": "vidaSexual",
              "type": "string"
            }
          ],
          "internalType": "struct GinecobstetriciaVO.GinecobstetriciaStruct",
          "name": "",
          "type": "tuple"
        }
      ],
      "stateMutability": "view",
      "type": "function"
    },
    {
      "inputs": [
        {
          "components": [
            {
              "internalType": "uint256",
              "name": "cantidadAbortos",
              "type": "uint256"
            },
            {
              "internalType": "uint256",
              "name": "cantidadPartos",
              "type": "uint256"
            },
            {
              "internalType": "bool",
              "name": "cesareas",
              "type": "bool"
            },
            {
              "internalType": "bool",
              "name": "climaterio",
              "type": "bool"
            },
            {
              "internalType": "string",
              "name": "desarrolloSexual",
              "type": "string"
            },
            {
              "internalType": "uint256",
              "name": "fechaProbableParto",
              "type": "uint256"
            },
            {
              "internalType": "string",
              "name": "flujoPlasmaticoRenal",
              "type": "string"
            },
            {
              "internalType": "uint256",
              "name": "menarca",
              "type": "uint256"
            },
            {
              "internalType": "bool",
              "name": "menopausia",
              "type": "bool"
            },
            {
              "internalType": "string",
              "name": "ritmoMenstrual",
              "type": "string"
            },
            {
              "internalType": "string",
              "name": "vidaSexual",
              "type": "string"
            }
          ],
          "internalType": "struct GinecobstetriciaVO.GinecobstetriciaStruct",
          "name": "_ginecobstetriciaStruct",
          "type": "tuple"
        }
      ],
      "name": "setGinecobstetriciaStruct",
      "outputs": [],
      "stateMutability": "nonpayable",
      "type": "function"
    },
    {
      "inputs": [],
      "name": "getCantidadAbortos",
      "outputs": [
        {
          "internalType": "uint256",
          "name": "",
          "type": "uint256"
        }
      ],
      "stateMutability": "view",
      "type": "function"
    },
    {
      "inputs": [],
      "name": "getCesareas",
      "outputs": [
        {
          "internalType": "bool",
          "name": "",
          "type": "bool"
        }
      ],
      "stateMutability": "view",
      "type": "function"
    },
    {
      "inputs": [],
      "name": "getClimaterio",
      "outputs": [
        {
          "internalType": "bool",
          "name": "",
          "type": "bool"
        }
      ],
      "stateMutability": "view",
      "type": "function"
    },
    {
      "inputs": [],
      "name": "getDesarrolloSexual",
      "outputs": [
        {
          "internalType": "string",
          "name": "",
          "type": "string"
        }
      ],
      "stateMutability": "view",
      "type": "function"
    },
    {
      "inputs": [],
      "name": "getFechaProbableParto",
      "outputs": [
        {
          "internalType": "uint256",
          "name": "",
          "type": "uint256"
        }
      ],
      "stateMutability": "view",
      "type": "function"
    },
    {
      "inputs": [],
      "name": "getFlujoPlasmaticoRenal",
      "outputs": [
        {
          "internalType": "string",
          "name": "",
          "type": "string"
        }
      ],
      "stateMutability": "view",
      "type": "function"
    },
    {
      "inputs": [],
      "name": "getMenarca",
      "outputs": [
        {
          "internalType": "uint256",
          "name": "",
          "type": "uint256"
        }
      ],
      "stateMutability": "view",
      "type": "function"
    },
    {
      "inputs": [],
      "name": "getMenopausia",
      "outputs": [
        {
          "internalType": "bool",
          "name": "",
          "type": "bool"
        }
      ],
      "stateMutability": "view",
      "type": "function"
    },
    {
      "inputs": [],
      "name": "getRitmoMenstrual",
      "outputs": [
        {
          "internalType": "string",
          "name": "",
          "type": "string"
        }
      ],
      "stateMutability": "view",
      "type": "function"
    },
    {
      "inputs": [],
      "name": "getVidaSexual",
      "outputs": [
        {
          "internalType": "string",
          "name": "",
          "type": "string"
        }
      ],
      "stateMutability": "view",
      "type": "function"
    },
    {
      "inputs": [
        {
          "internalType": "uint256",
          "name": "_cantidadAbortos",
          "type": "uint256"
        }
      ],
      "name": "setCantidadAbortos",
      "outputs": [],
      "stateMutability": "nonpayable",
      "type": "function"
    },
    {
      "inputs": [
        {
          "internalType": "uint256",
          "name": "_cantidadPartos",
          "type": "uint256"
        }
      ],
      "name": "setCantidadPartos",
      "outputs": [],
      "stateMutability": "nonpayable",
      "type": "function"
    },
    {
      "inputs": [
        {
          "internalType": "bool",
          "name": "_cesareas",
          "type": "bool"
        }
      ],
      "name": "setCesareas",
      "outputs": [],
      "stateMutability": "nonpayable",
      "type": "function"
    },
    {
      "inputs": [
        {
          "internalType": "bool",
          "name": "_climaterio",
          "type": "bool"
        }
      ],
      "name": "setClimaterio",
      "outputs": [],
      "stateMutability": "nonpayable",
      "type": "function"
    },
    {
      "inputs": [
        {
          "internalType": "string",
          "name": "_desarrolloSexual",
          "type": "string"
        }
      ],
      "name": "setDesarrolloSexual",
      "outputs": [],
      "stateMutability": "nonpayable",
      "type": "function"
    },
    {
      "inputs": [
        {
          "internalType": "string",
          "name": "_flujoPlasmaticoRenal",
          "type": "string"
        }
      ],
      "name": "setFechaProbableParto",
      "outputs": [],
      "stateMutability": "nonpayable",
      "type": "function"
    },
    {
      "inputs": [
        {
          "internalType": "uint256",
          "name": "_menarca",
          "type": "uint256"
        }
      ],
      "name": "setMenarca",
      "outputs": [],
      "stateMutability": "nonpayable",
      "type": "function"
    },
    {
      "inputs": [
        {
          "internalType": "bool",
          "name": "_menopausia",
          "type": "bool"
        }
      ],
      "name": "setMenopausia",
      "outputs": [],
      "stateMutability": "nonpayable",
      "type": "function"
    },
    {
      "inputs": [
        {
          "internalType": "string",
          "name": "_ritmoMenstrual",
          "type": "string"
        }
      ],
      "name": "setRitmoMenstrual",
      "outputs": [],
      "stateMutability": "nonpayable",
      "type": "function"
    },
    {
      "inputs": [
        {
          "internalType": "string",
          "name": "_vidaSexual",
          "type": "string"
        }
      ],
      "name": "setVidaSexual",
      "outputs": [],
      "stateMutability": "nonpayable",
      "type": "function"
    }
  ],
  "bytecode": "0x608060405234801561001057600080fd5b506004805460ff191660111790556112288061002d6000396000f3fe608060405234801561001057600080fd5b50600436106102265760003560e01c806393be08ef1161012a578063b9498366116100bd578063dc9c1c431161008c578063e32293bb11610071578063e32293bb146104a1578063e40c389c146104a9578063efacf3a0146104bc57600080fd5b8063dc9c1c4314610466578063e0a7babd1461047957600080fd5b8063b94983661461042d578063ca3c5a1314610435578063cc4075ba14610448578063d0e0ba951461045357600080fd5b80639cb8a26a116100f95780639cb8a26a146103ec578063a204b7c9146103f4578063a47da36714610407578063b709b6f41461041a57600080fd5b806393be08ef1461039d5780639456cf67146103ae57806395162abc146103c35780639b3560ad146103e457600080fd5b80632b0c4dac116101bd5780634a1dc9a81161018c578063803a56ec11610171578063803a56ec14610320578063883e34991461035d57806392ebdcd21461037257600080fd5b80634a1dc9a8146103105780635d1ca6311461031857600080fd5b80632b0c4dac146102b95780633c438c51146102da5780633d8310f5146102ea57806344517a9a146102fd57600080fd5b80631d1105fd116101f95780631d1105fd146102765780632629c3b61461028b5780632708eb671461029e57806327f074cf146102a657600080fd5b80630597abe91461022b5780630bcacc1b146102475780631287c1871461025c5780631b59abb91461026e575b600080fd5b600c5460ff165b60405190151581526020015b60405180910390f35b61024f6104cf565b60405161023e9190610bb2565b600b545b60405190815260200161023e565b600354610260565b610289610284366004610cd6565b610544565b005b610289610299366004610e12565b600555565b600954610260565b6102896102b4366004610e12565b600355565b6102896102c7366004610e2b565b600c805460ff1916911515919091179055565b600754610100900460ff16610232565b6102896102f8366004610e12565b600655565b60045460ff1660405161023e9190610e4d565b600554610260565b600154610260565b61028961032e366004610e78565b6002805473ffffffffffffffffffffffffffffffffffffffff19166001600160a01b0392909216919091179055565b610365610609565b60405161023e9190610ed9565b600054610385906001600160a01b031681565b6040516001600160a01b03909116815260200161023e565b6002546001600160a01b0316610385565b6103b661091f565b60405161023e9190610fc0565b6102896103d1366004610e2b565b6007805460ff1916911515919091179055565b6103b66109b4565b6102896109c6565b610289610402366004610fe2565b610a98565b610289610415366004611051565b610b04565b610289610428366004611051565b610b14565b6103b6610b20565b61028961044336600461108e565b610b31565b60075460ff16610232565b610289610461366004610e12565b600155565b610289610474366004610e12565b600b55565b610289610487366004610e2b565b600780549115156101000261ff0019909216919091179055565b6103b6610b50565b6102896104b7366004611051565b610b62565b6102896104ca366004611051565b610b6e565b6104f76040805160808101825260008082526020820181905291810182905290606082015290565b6040805160808101825260015481526002546001600160a01b0316602082015260035491810191909152600454606082019060ff16601281111561053d5761053d610b7a565b9052919050565b805160059081556020820151600655604082015160078054606085015115156101000261ff00199315159390931661ffff199091161791909117905560808201518291906008906105959082611132565b5060a0820151600482015560c082015160058201906105b49082611132565b5060e0820151600682015561010082015160078201805460ff191691151591909117905561012082015160088201906105ed9082611132565b5061014082015160098201906106039082611132565b50505050565b61066c60405180610160016040528060008152602001600081526020016000151581526020016000151581526020016060815260200160008152602001606081526020016000815260200160001515815260200160608152602001606081525090565b6040805161016081018252600580548252600654602083015260075460ff808216151594840194909452610100900490921615156060820152600880549192916080840191906106bb906110a9565b80601f01602080910402602001604051908101604052809291908181526020018280546106e7906110a9565b80156107345780601f1061070957610100808354040283529160200191610734565b820191906000526020600020905b81548152906001019060200180831161071757829003601f168201915b5050505050815260200160048201548152602001600582018054610757906110a9565b80601f0160208091040260200160405190810160405280929190818152602001828054610783906110a9565b80156107d05780601f106107a5576101008083540402835291602001916107d0565b820191906000526020600020905b8154815290600101906020018083116107b357829003601f168201915b505050918352505060068201546020820152600782015460ff1615156040820152600882018054606090920191610806906110a9565b80601f0160208091040260200160405190810160405280929190818152602001828054610832906110a9565b801561087f5780601f106108545761010080835404028352916020019161087f565b820191906000526020600020905b81548152906001019060200180831161086257829003601f168201915b50505050508152602001600982018054610898906110a9565b80601f01602080910402602001604051908101604052809291908181526020018280546108c4906110a9565b80156109115780601f106108e657610100808354040283529160200191610911565b820191906000526020600020905b8154815290600101906020018083116108f457829003601f168201915b505050505081525050905090565b606060056009018054610931906110a9565b80601f016020809104026020016040519081016040528092919081815260200182805461095d906110a9565b80156109aa5780601f1061097f576101008083540402835291602001916109aa565b820191906000526020600020905b81548152906001019060200180831161098d57829003601f168201915b5050505050905090565b606060056008018054610931906110a9565b6000546001600160a01b03163314610a8a576040517f08c379a000000000000000000000000000000000000000000000000000000000815260206004820152604160248201527f457374612066756e63696f6e20736f6c6f2070756564652073657220656a656360448201527f757461646120706f7220656c2063726561646f722064656c20636f6e7472617460648201527f6f00000000000000000000000000000000000000000000000000000000000000608482015260a40160405180910390fd5b6000546001600160a01b0316ff5b8051600190815560208201516002805473ffffffffffffffffffffffffffffffffffffffff19166001600160a01b0390921691909117905560408201516003556060820151600480549192909160ff191690836012811115610afc57610afc610b7a565b021790555050565b600e610b108282611132565b5050565b600a610b108282611132565b6060600580018054610931906110a9565b6004805482919060ff19166001836012811115610afc57610afc610b7a565b606060056003018054610931906110a9565b6008610b108282611132565b600d610b108282611132565b634e487b7160e01b600052602160045260246000fd5b60138110610bae57634e487b7160e01b600052602160045260246000fd5b9052565b6000608082019050825182526001600160a01b036020840151166020830152604083015160408301526060830151610bed6060840182610b90565b5092915050565b634e487b7160e01b600052604160045260246000fd5b604051610160810167ffffffffffffffff81118282101715610c2e57610c2e610bf4565b60405290565b80358015158114610c4457600080fd5b919050565b600082601f830112610c5a57600080fd5b813567ffffffffffffffff80821115610c7557610c75610bf4565b604051601f8301601f19908116603f01168101908282118183101715610c9d57610c9d610bf4565b81604052838152866020858801011115610cb657600080fd5b836020870160208301376000602085830101528094505050505092915050565b600060208284031215610ce857600080fd5b813567ffffffffffffffff80821115610d0057600080fd5b908301906101608286031215610d1557600080fd5b610d1d610c0a565b8235815260208301356020820152610d3760408401610c34565b6040820152610d4860608401610c34565b6060820152608083013582811115610d5f57600080fd5b610d6b87828601610c49565b60808301525060a083013560a082015260c083013582811115610d8d57600080fd5b610d9987828601610c49565b60c08301525060e083013560e0820152610100610db7818501610c34565b908201526101208381013583811115610dcf57600080fd5b610ddb88828701610c49565b8284015250506101408084013583811115610df557600080fd5b610e0188828701610c49565b918301919091525095945050505050565b600060208284031215610e2457600080fd5b5035919050565b600060208284031215610e3d57600080fd5b610e4682610c34565b9392505050565b60208101610e5b8284610b90565b92915050565b80356001600160a01b0381168114610c4457600080fd5b600060208284031215610e8a57600080fd5b610e4682610e61565b6000815180845260005b81811015610eb957602081850181015186830182015201610e9d565b506000602082860101526020601f19601f83011685010191505092915050565b60208152815160208201526020820151604082015260006040830151610f03606084018215159052565b50606083015180151560808401525060808301516101608060a0850152610f2e610180850183610e93565b915060a085015160c085015260c0850151601f19808685030160e0870152610f568483610e93565b60e0880151610100888101919091528801519094509150610120610f7d8188018415159052565b80880151925050610140818786030181880152610f9a8584610e93565b908801518782039092018488015293509050610fb68382610e93565b9695505050505050565b602081526000610e466020830184610e93565b803560138110610c4457600080fd5b600060808284031215610ff457600080fd5b6040516080810181811067ffffffffffffffff8211171561101757611017610bf4565b6040528235815261102a60208401610e61565b60208201526040830135604082015261104560608401610fd3565b60608201529392505050565b60006020828403121561106357600080fd5b813567ffffffffffffffff81111561107a57600080fd5b61108684828501610c49565b949350505050565b6000602082840312156110a057600080fd5b610e4682610fd3565b600181811c908216806110bd57607f821691505b6020821081036110dd57634e487b7160e01b600052602260045260246000fd5b50919050565b601f82111561112d57600081815260208120601f850160051c8101602086101561110a5750805b601f850160051c820191505b8181101561112957828155600101611116565b5050505b505050565b815167ffffffffffffffff81111561114c5761114c610bf4565b6111608161115a84546110a9565b846110e3565b602080601f831160018114611195576000841561117d5750858301515b600019600386901b1c1916600185901b178555611129565b600085815260208120601f198616915b828110156111c4578886015182559484019460019091019084016111a5565b50858210156111e25787850151600019600388901b60f8161c191681555b5050505050600190811b0190555056fea26469706673582212208870ea8ed9b89b27a1330dd5bed02609eabdf1b82bdce59700bd4c885cc5efc564736f6c63430008110033",
  "immutableReferences": {},
  "source": "// SPDX-License-Identifier: MIT\npragma solidity ^0.8.17;\n\nimport \"./RegistroMedico.sol\";\nimport \"../structsGenerales/IncapacidadStruct.sol\";\nimport \"../structsGenerales/ExploracionPorRegionesStruct.sol\";\nimport \"../structsGenerales/ExploracionPorSistemasStruct.sol\";\n\n//import \"./structsGenerales/DatosPersonalesStruct.sol\";\n\ncontract GinecobstetriciaVO is RegistroMedico (TipoRegistroMedico.GINECOBSTETRICIA) {\n    struct GinecobstetriciaStruct {\n        uint256 cantidadAbortos;\n        uint256 cantidadPartos;\n        bool cesareas;\n        bool climaterio;\n        string desarrolloSexual;\n        uint256 fechaProbableParto;\n        string flujoPlasmaticoRenal;\n        uint256 menarca;\n        bool menopausia;\n        string ritmoMenstrual;\n        string vidaSexual;\n    }\n\n    GinecobstetriciaStruct private ginecobstetriciaStruct;\n\n    function getGinecobstetriciaStruct()\n        public\n        view\n        returns (GinecobstetriciaStruct memory)\n    {\n        return ginecobstetriciaStruct;\n    }\n\n    function setGinecobstetriciaStruct(\n        GinecobstetriciaStruct memory _ginecobstetriciaStruct\n    ) public {\n        ginecobstetriciaStruct = _ginecobstetriciaStruct;\n    }\n\n    function getCantidadAbortos() public view returns (uint256) {\n        return ginecobstetriciaStruct.cantidadAbortos;\n    }\n\n    function getCesareas() public view returns (bool) {\n        return ginecobstetriciaStruct.cesareas;\n    }\n\n    function getClimaterio() public view returns (bool) {\n        return ginecobstetriciaStruct.climaterio;\n    }\n\n    function getDesarrolloSexual() public view returns (string memory) {\n        return ginecobstetriciaStruct.desarrolloSexual;\n    }\n\n    function getFechaProbableParto() public view returns (uint256) {\n        return ginecobstetriciaStruct.fechaProbableParto;\n    }\n\n    function getFlujoPlasmaticoRenal() public view returns (string memory) {\n        return ginecobstetriciaStruct.flujoPlasmaticoRenal;\n    }\n\n    function getMenarca() public view returns (uint256) {\n        return ginecobstetriciaStruct.menarca;\n    }\n\n    function getMenopausia() public view returns (bool) {\n        return ginecobstetriciaStruct.menopausia;\n    }\n\n    function getRitmoMenstrual() public view returns (string memory) {\n        return ginecobstetriciaStruct.ritmoMenstrual;\n    }\n\n    function getVidaSexual() public view returns (string memory) {\n        return ginecobstetriciaStruct.vidaSexual;\n    }\n\n    function setCantidadAbortos(uint256 _cantidadAbortos) public {\n        ginecobstetriciaStruct.cantidadAbortos = _cantidadAbortos;\n    }\n\n    function setCantidadPartos(uint256 _cantidadPartos) public {\n        ginecobstetriciaStruct.cantidadPartos = _cantidadPartos;\n    }\n\n    function setCesareas(bool _cesareas) public {\n        ginecobstetriciaStruct.cesareas = _cesareas;\n    }\n\n    function setClimaterio(bool _climaterio) public {\n        ginecobstetriciaStruct.climaterio = _climaterio;\n    }\n\n    function setDesarrolloSexual(string memory _desarrolloSexual) public {\n        ginecobstetriciaStruct.desarrolloSexual = _desarrolloSexual;\n    }\n\n    function setFechaProbableParto(string memory _flujoPlasmaticoRenal) public {\n        ginecobstetriciaStruct.flujoPlasmaticoRenal = _flujoPlasmaticoRenal;\n    }\n\n    function setMenarca(uint256 _menarca) public {\n        ginecobstetriciaStruct.menarca = _menarca;\n    }\n\n    function setMenopausia(bool _menopausia) public {\n        ginecobstetriciaStruct.menopausia = _menopausia;\n    }\n\n    function setRitmoMenstrual(string memory _ritmoMenstrual) public {\n        ginecobstetriciaStruct.ritmoMenstrual = _ritmoMenstrual;\n    }\n\n    function setVidaSexual(string memory _vidaSexual) public {\n        ginecobstetriciaStruct.vidaSexual = _vidaSexual;\n    }\n}",
  "sourcePath": "/home/felipe/Documentos/Blockchain/codigo/HCE-full/back-hce/contracts/models/historiaClinica/GinecobstetriciaVO.sol",
  "compiler": {
    "name": "solc",
    "version": "0.8.17+commit.8df45f5f.Emscripten.clang"
  },
  "schemaVersion": "3.4.8",
  "updatedAt": "2023-04-05T22:10:23.265Z",
  "devdoc": {
    "kind": "dev",
    "methods": {},
    "version": 1
  },
  "userdoc": {
    "kind": "user",
    "methods": {},
    "version": 1
  }
}