{
  "contractName": "GinecobstetriciaVO",
  "abi": [
    {
      "inputs": [],
      "stateMutability": "nonpayable",
      "type": "constructor"
    },
    {
      "inputs": [],
      "name": "creador",
      "outputs": [
        {
          "internalType": "address",
          "name": "",
          "type": "address"
        }
      ],
      "stateMutability": "view",
      "type": "function"
    },
    {
      "inputs": [],
      "name": "getCodPrestadorServicioDeSalud",
      "outputs": [
        {
          "internalType": "address",
          "name": "",
          "type": "address"
        }
      ],
      "stateMutability": "view",
      "type": "function"
    },
    {
      "inputs": [],
      "name": "getFechaRegistro",
      "outputs": [
        {
          "internalType": "int256",
          "name": "",
          "type": "int256"
        }
      ],
      "stateMutability": "view",
      "type": "function"
    },
    {
      "inputs": [],
      "name": "getId",
      "outputs": [
        {
          "internalType": "uint256",
          "name": "",
          "type": "uint256"
        }
      ],
      "stateMutability": "view",
      "type": "function"
    },
    {
      "inputs": [],
      "name": "getRegistroMedico",
      "outputs": [
        {
          "components": [
            {
              "internalType": "uint256",
              "name": "id",
              "type": "uint256"
            },
            {
              "internalType": "address",
              "name": "codPrestadorServicioDeSalud",
              "type": "address"
            },
            {
              "internalType": "int256",
              "name": "fechaRegistro",
              "type": "int256"
            },
            {
              "internalType": "enum TipoRegistroMedico",
              "name": "tipoRegistroMedico",
              "type": "uint8"
            }
          ],
          "internalType": "struct RegistroMedico.RegistroMedicoStruct",
          "name": "",
          "type": "tuple"
        }
      ],
      "stateMutability": "view",
      "type": "function"
    },
    {
      "inputs": [],
      "name": "getTipoRegistroMedico",
      "outputs": [
        {
          "internalType": "enum TipoRegistroMedico",
          "name": "",
          "type": "uint8"
        }
      ],
      "stateMutability": "view",
      "type": "function"
    },
    {
      "inputs": [],
      "name": "selfDestruct",
      "outputs": [],
      "stateMutability": "nonpayable",
      "type": "function"
    },
    {
      "inputs": [
        {
          "internalType": "address",
          "name": "_codPrestadorServicioDeSalud",
          "type": "address"
        }
      ],
      "name": "setCodPrestadorServicioDeSalud",
      "outputs": [],
      "stateMutability": "nonpayable",
      "type": "function"
    },
    {
      "inputs": [
        {
          "internalType": "int256",
          "name": "_fechaRegistro",
          "type": "int256"
        }
      ],
      "name": "setFechaRegistro",
      "outputs": [],
      "stateMutability": "nonpayable",
      "type": "function"
    },
    {
      "inputs": [
        {
          "internalType": "uint256",
          "name": "_id",
          "type": "uint256"
        }
      ],
      "name": "setId",
      "outputs": [],
      "stateMutability": "nonpayable",
      "type": "function"
    },
    {
      "inputs": [
        {
          "components": [
            {
              "internalType": "uint256",
              "name": "id",
              "type": "uint256"
            },
            {
              "internalType": "address",
              "name": "codPrestadorServicioDeSalud",
              "type": "address"
            },
            {
              "internalType": "int256",
              "name": "fechaRegistro",
              "type": "int256"
            },
            {
              "internalType": "enum TipoRegistroMedico",
              "name": "tipoRegistroMedico",
              "type": "uint8"
            }
          ],
          "internalType": "struct RegistroMedico.RegistroMedicoStruct",
          "name": "registro",
          "type": "tuple"
        }
      ],
      "name": "setRegistroMedico",
      "outputs": [],
      "stateMutability": "nonpayable",
      "type": "function"
    },
    {
      "inputs": [
        {
          "internalType": "enum TipoRegistroMedico",
          "name": "_tipoRegistroMedico",
          "type": "uint8"
        }
      ],
      "name": "setTipoRegistroMedico",
      "outputs": [],
      "stateMutability": "nonpayable",
      "type": "function"
    },
    {
      "inputs": [],
      "name": "getGinecobstetriciaStruct",
      "outputs": [
        {
          "components": [
            {
              "internalType": "uint256",
              "name": "cantidadAbortos",
              "type": "uint256"
            },
            {
              "internalType": "uint256",
              "name": "cantidadPartos",
              "type": "uint256"
            },
            {
              "internalType": "bool",
              "name": "cesareas",
              "type": "bool"
            },
            {
              "internalType": "bool",
              "name": "climaterio",
              "type": "bool"
            },
            {
              "internalType": "string",
              "name": "desarrolloSexual",
              "type": "string"
            },
            {
              "internalType": "int256",
              "name": "fechaProbableParto",
              "type": "int256"
            },
            {
              "internalType": "string",
              "name": "flujoPlasmaticoRenal",
              "type": "string"
            },
            {
              "internalType": "int256",
              "name": "menarca",
              "type": "int256"
            },
            {
              "internalType": "bool",
              "name": "menopausia",
              "type": "bool"
            },
            {
              "internalType": "string",
              "name": "ritmoMenstrual",
              "type": "string"
            },
            {
              "internalType": "string",
              "name": "vidaSexual",
              "type": "string"
            }
          ],
          "internalType": "struct GinecobstetriciaVO.GinecobstetriciaStruct",
          "name": "",
          "type": "tuple"
        }
      ],
      "stateMutability": "view",
      "type": "function"
    },
    {
      "inputs": [
        {
          "components": [
            {
              "internalType": "uint256",
              "name": "cantidadAbortos",
              "type": "uint256"
            },
            {
              "internalType": "uint256",
              "name": "cantidadPartos",
              "type": "uint256"
            },
            {
              "internalType": "bool",
              "name": "cesareas",
              "type": "bool"
            },
            {
              "internalType": "bool",
              "name": "climaterio",
              "type": "bool"
            },
            {
              "internalType": "string",
              "name": "desarrolloSexual",
              "type": "string"
            },
            {
              "internalType": "int256",
              "name": "fechaProbableParto",
              "type": "int256"
            },
            {
              "internalType": "string",
              "name": "flujoPlasmaticoRenal",
              "type": "string"
            },
            {
              "internalType": "int256",
              "name": "menarca",
              "type": "int256"
            },
            {
              "internalType": "bool",
              "name": "menopausia",
              "type": "bool"
            },
            {
              "internalType": "string",
              "name": "ritmoMenstrual",
              "type": "string"
            },
            {
              "internalType": "string",
              "name": "vidaSexual",
              "type": "string"
            }
          ],
          "internalType": "struct GinecobstetriciaVO.GinecobstetriciaStruct",
          "name": "_ginecobstetriciaStruct",
          "type": "tuple"
        }
      ],
      "name": "setGinecobstetriciaStruct",
      "outputs": [],
      "stateMutability": "nonpayable",
      "type": "function"
    },
    {
      "inputs": [],
      "name": "getCantidadAbortos",
      "outputs": [
        {
          "internalType": "uint256",
          "name": "",
          "type": "uint256"
        }
      ],
      "stateMutability": "view",
      "type": "function"
    },
    {
      "inputs": [],
      "name": "getCesareas",
      "outputs": [
        {
          "internalType": "bool",
          "name": "",
          "type": "bool"
        }
      ],
      "stateMutability": "view",
      "type": "function"
    },
    {
      "inputs": [],
      "name": "getClimaterio",
      "outputs": [
        {
          "internalType": "bool",
          "name": "",
          "type": "bool"
        }
      ],
      "stateMutability": "view",
      "type": "function"
    },
    {
      "inputs": [],
      "name": "getDesarrolloSexual",
      "outputs": [
        {
          "internalType": "string",
          "name": "",
          "type": "string"
        }
      ],
      "stateMutability": "view",
      "type": "function"
    },
    {
      "inputs": [],
      "name": "getFechaProbableParto",
      "outputs": [
        {
          "internalType": "int256",
          "name": "",
          "type": "int256"
        }
      ],
      "stateMutability": "view",
      "type": "function"
    },
    {
      "inputs": [],
      "name": "getFlujoPlasmaticoRenal",
      "outputs": [
        {
          "internalType": "string",
          "name": "",
          "type": "string"
        }
      ],
      "stateMutability": "view",
      "type": "function"
    },
    {
      "inputs": [],
      "name": "getMenarca",
      "outputs": [
        {
          "internalType": "int256",
          "name": "",
          "type": "int256"
        }
      ],
      "stateMutability": "view",
      "type": "function"
    },
    {
      "inputs": [],
      "name": "getMenopausia",
      "outputs": [
        {
          "internalType": "bool",
          "name": "",
          "type": "bool"
        }
      ],
      "stateMutability": "view",
      "type": "function"
    },
    {
      "inputs": [],
      "name": "getRitmoMenstrual",
      "outputs": [
        {
          "internalType": "string",
          "name": "",
          "type": "string"
        }
      ],
      "stateMutability": "view",
      "type": "function"
    },
    {
      "inputs": [],
      "name": "getVidaSexual",
      "outputs": [
        {
          "internalType": "string",
          "name": "",
          "type": "string"
        }
      ],
      "stateMutability": "view",
      "type": "function"
    },
    {
      "inputs": [
        {
          "internalType": "uint256",
          "name": "_cantidadAbortos",
          "type": "uint256"
        }
      ],
      "name": "setCantidadAbortos",
      "outputs": [],
      "stateMutability": "nonpayable",
      "type": "function"
    },
    {
      "inputs": [
        {
          "internalType": "uint256",
          "name": "_cantidadPartos",
          "type": "uint256"
        }
      ],
      "name": "setCantidadPartos",
      "outputs": [],
      "stateMutability": "nonpayable",
      "type": "function"
    },
    {
      "inputs": [
        {
          "internalType": "bool",
          "name": "_cesareas",
          "type": "bool"
        }
      ],
      "name": "setCesareas",
      "outputs": [],
      "stateMutability": "nonpayable",
      "type": "function"
    },
    {
      "inputs": [
        {
          "internalType": "bool",
          "name": "_climaterio",
          "type": "bool"
        }
      ],
      "name": "setClimaterio",
      "outputs": [],
      "stateMutability": "nonpayable",
      "type": "function"
    },
    {
      "inputs": [
        {
          "internalType": "string",
          "name": "_desarrolloSexual",
          "type": "string"
        }
      ],
      "name": "setDesarrolloSexual",
      "outputs": [],
      "stateMutability": "nonpayable",
      "type": "function"
    },
    {
      "inputs": [
        {
          "internalType": "string",
          "name": "_flujoPlasmaticoRenal",
          "type": "string"
        }
      ],
      "name": "setFechaProbableParto",
      "outputs": [],
      "stateMutability": "nonpayable",
      "type": "function"
    },
    {
      "inputs": [
        {
          "internalType": "int256",
          "name": "_menarca",
          "type": "int256"
        }
      ],
      "name": "setMenarca",
      "outputs": [],
      "stateMutability": "nonpayable",
      "type": "function"
    },
    {
      "inputs": [
        {
          "internalType": "bool",
          "name": "_menopausia",
          "type": "bool"
        }
      ],
      "name": "setMenopausia",
      "outputs": [],
      "stateMutability": "nonpayable",
      "type": "function"
    },
    {
      "inputs": [
        {
          "internalType": "string",
          "name": "_ritmoMenstrual",
          "type": "string"
        }
      ],
      "name": "setRitmoMenstrual",
      "outputs": [],
      "stateMutability": "nonpayable",
      "type": "function"
    },
    {
      "inputs": [
        {
          "internalType": "string",
          "name": "_vidaSexual",
          "type": "string"
        }
      ],
      "name": "setVidaSexual",
      "outputs": [],
      "stateMutability": "nonpayable",
      "type": "function"
    }
  ],
  "bytecode": "0x608060405234801561001057600080fd5b506004805460ff1916601117905560008054336001600160a01b0319909116179055611228806100416000396000f3fe608060405234801561001057600080fd5b50600436106102265760003560e01c806392ebdcd21161012a578063b709b6f4116100bd578063d0e0ba951161008c578063e32293bb11610071578063e32293bb146104a1578063e40c389c146104a9578063efacf3a0146104bc57600080fd5b8063d0e0ba9514610466578063e0a7babd1461047957600080fd5b8063b709b6f41461042d578063b949836614610440578063ca3c5a1314610448578063cc4075ba1461045b57600080fd5b80639b3560ad116100f95780639b3560ad146103f75780639cb8a26a146103ff578063a47da36714610407578063b14399c41461041a57600080fd5b806392ebdcd21461038557806393be08ef146103b05780639456cf67146103c157806395162abc146103d657600080fd5b80632b0c4dac116101bd5780634a1dc9a81161018c5780635f3774d4116101715780635f3774d414610320578063803a56ec14610333578063883e34991461037057600080fd5b80634a1dc9a8146103105780635d1ca6311461031857600080fd5b80632b0c4dac146102b95780633c438c51146102da5780633d8310f5146102ea57806344517a9a146102fd57600080fd5b806317d1941c116101f957806317d1941c146102835780631b59abb9146102965780632629c3b61461029e5780632708eb67146102b157600080fd5b8063045c7bbe1461022b5780630597abe9146102405780630bcacc1b1461025c5780631287c18714610271575b600080fd5b61023e610239366004610b7a565b600355565b005b600c5460ff165b60405190151581526020015b60405180910390f35b6102646104cf565b6040516102539190610bcb565b600b545b604051908152602001610253565b61023e610291366004610cef565b610544565b600354610275565b61023e6102ac366004610b7a565b600555565b600954610275565b61023e6102c7366004610e2b565b600c805460ff1916911515919091179055565b600754610100900460ff16610247565b61023e6102f8366004610b7a565b600655565b60045460ff166040516102539190610e4d565b600554610275565b600154610275565b61023e61032e366004610e87565b610609565b61023e610341366004610ef6565b6002805473ffffffffffffffffffffffffffffffffffffffff19166001600160a01b0392909216919091179055565b610378610675565b6040516102539190610f57565b600054610398906001600160a01b031681565b6040516001600160a01b039091168152602001610253565b6002546001600160a01b0316610398565b6103c961098b565b604051610253919061103e565b61023e6103e4366004610e2b565b6007805460ff1916911515919091179055565b6103c9610a20565b61023e610a32565b61023e610415366004611051565b610b04565b61023e610428366004610b7a565b600b55565b61023e61043b366004611051565b610b14565b6103c9610b20565b61023e61045636600461108e565b610b31565b60075460ff16610247565b61023e610474366004610b7a565b600155565b61023e610487366004610e2b565b600780549115156101000261ff0019909216919091179055565b6103c9610b50565b61023e6104b7366004611051565b610b62565b61023e6104ca366004611051565b610b6e565b6104f76040805160808101825260008082526020820181905291810182905290606082015290565b6040805160808101825260015481526002546001600160a01b0316602082015260035491810191909152600454606082019060ff16601281111561053d5761053d610b93565b9052919050565b805160059081556020820151600655604082015160078054606085015115156101000261ff00199315159390931661ffff199091161791909117905560808201518291906008906105959082611132565b5060a0820151600482015560c082015160058201906105b49082611132565b5060e0820151600682015561010082015160078201805460ff191691151591909117905561012082015160088201906105ed9082611132565b5061014082015160098201906106039082611132565b50505050565b8051600190815560208201516002805473ffffffffffffffffffffffffffffffffffffffff19166001600160a01b0390921691909117905560408201516003556060820151600480549192909160ff19169083601281111561066d5761066d610b93565b021790555050565b6106d860405180610160016040528060008152602001600081526020016000151581526020016000151581526020016060815260200160008152602001606081526020016000815260200160001515815260200160608152602001606081525090565b6040805161016081018252600580548252600654602083015260075460ff80821615159484019490945261010090049092161515606082015260088054919291608084019190610727906110a9565b80601f0160208091040260200160405190810160405280929190818152602001828054610753906110a9565b80156107a05780601f10610775576101008083540402835291602001916107a0565b820191906000526020600020905b81548152906001019060200180831161078357829003601f168201915b50505050508152602001600482015481526020016005820180546107c3906110a9565b80601f01602080910402602001604051908101604052809291908181526020018280546107ef906110a9565b801561083c5780601f106108115761010080835404028352916020019161083c565b820191906000526020600020905b81548152906001019060200180831161081f57829003601f168201915b505050918352505060068201546020820152600782015460ff1615156040820152600882018054606090920191610872906110a9565b80601f016020809104026020016040519081016040528092919081815260200182805461089e906110a9565b80156108eb5780601f106108c0576101008083540402835291602001916108eb565b820191906000526020600020905b8154815290600101906020018083116108ce57829003601f168201915b50505050508152602001600982018054610904906110a9565b80601f0160208091040260200160405190810160405280929190818152602001828054610930906110a9565b801561097d5780601f106109525761010080835404028352916020019161097d565b820191906000526020600020905b81548152906001019060200180831161096057829003601f168201915b505050505081525050905090565b60606005600901805461099d906110a9565b80601f01602080910402602001604051908101604052809291908181526020018280546109c9906110a9565b8015610a165780601f106109eb57610100808354040283529160200191610a16565b820191906000526020600020905b8154815290600101906020018083116109f957829003601f168201915b5050505050905090565b60606005600801805461099d906110a9565b6000546001600160a01b03163314610af6576040517f08c379a000000000000000000000000000000000000000000000000000000000815260206004820152604160248201527f457374612066756e63696f6e20736f6c6f2070756564652073657220656a656360448201527f757461646120706f7220656c2063726561646f722064656c20636f6e7472617460648201527f6f00000000000000000000000000000000000000000000000000000000000000608482015260a40160405180910390fd5b6000546001600160a01b0316ff5b600e610b108282611132565b5050565b600a610b108282611132565b606060058001805461099d906110a9565b6004805482919060ff1916600183601281111561066d5761066d610b93565b60606005600301805461099d906110a9565b6008610b108282611132565b600d610b108282611132565b600060208284031215610b8c57600080fd5b5035919050565b634e487b7160e01b600052602160045260246000fd5b60138110610bc757634e487b7160e01b600052602160045260246000fd5b9052565b6000608082019050825182526001600160a01b036020840151166020830152604083015160408301526060830151610c066060840182610ba9565b5092915050565b634e487b7160e01b600052604160045260246000fd5b604051610160810167ffffffffffffffff81118282101715610c4757610c47610c0d565b60405290565b80358015158114610c5d57600080fd5b919050565b600082601f830112610c7357600080fd5b813567ffffffffffffffff80821115610c8e57610c8e610c0d565b604051601f8301601f19908116603f01168101908282118183101715610cb657610cb6610c0d565b81604052838152866020858801011115610ccf57600080fd5b836020870160208301376000602085830101528094505050505092915050565b600060208284031215610d0157600080fd5b813567ffffffffffffffff80821115610d1957600080fd5b908301906101608286031215610d2e57600080fd5b610d36610c23565b8235815260208301356020820152610d5060408401610c4d565b6040820152610d6160608401610c4d565b6060820152608083013582811115610d7857600080fd5b610d8487828601610c62565b60808301525060a083013560a082015260c083013582811115610da657600080fd5b610db287828601610c62565b60c08301525060e083013560e0820152610100610dd0818501610c4d565b908201526101208381013583811115610de857600080fd5b610df488828701610c62565b8284015250506101408084013583811115610e0e57600080fd5b610e1a88828701610c62565b918301919091525095945050505050565b600060208284031215610e3d57600080fd5b610e4682610c4d565b9392505050565b60208101610e5b8284610ba9565b92915050565b80356001600160a01b0381168114610c5d57600080fd5b803560138110610c5d57600080fd5b600060808284031215610e9957600080fd5b6040516080810181811067ffffffffffffffff82111715610ebc57610ebc610c0d565b60405282358152610ecf60208401610e61565b602082015260408301356040820152610eea60608401610e78565b60608201529392505050565b600060208284031215610f0857600080fd5b610e4682610e61565b6000815180845260005b81811015610f3757602081850181015186830182015201610f1b565b506000602082860101526020601f19601f83011685010191505092915050565b60208152815160208201526020820151604082015260006040830151610f81606084018215159052565b50606083015180151560808401525060808301516101608060a0850152610fac610180850183610f11565b915060a085015160c085015260c0850151601f19808685030160e0870152610fd48483610f11565b60e0880151610100888101919091528801519094509150610120610ffb8188018415159052565b808801519250506101408187860301818801526110188584610f11565b9088015187820390920184880152935090506110348382610f11565b9695505050505050565b602081526000610e466020830184610f11565b60006020828403121561106357600080fd5b813567ffffffffffffffff81111561107a57600080fd5b61108684828501610c62565b949350505050565b6000602082840312156110a057600080fd5b610e4682610e78565b600181811c908216806110bd57607f821691505b6020821081036110dd57634e487b7160e01b600052602260045260246000fd5b50919050565b601f82111561112d57600081815260208120601f850160051c8101602086101561110a5750805b601f850160051c820191505b8181101561112957828155600101611116565b5050505b505050565b815167ffffffffffffffff81111561114c5761114c610c0d565b6111608161115a84546110a9565b846110e3565b602080601f831160018114611195576000841561117d5750858301515b600019600386901b1c1916600185901b178555611129565b600085815260208120601f198616915b828110156111c4578886015182559484019460019091019084016111a5565b50858210156111e25787850151600019600388901b60f8161c191681555b5050505050600190811b0190555056fea26469706673582212201f223b32e100d17dae1a52f4fa0786b7923ee632e9c50886314c3b25d8fd811264736f6c63430008110033",
  "immutableReferences": {},
  "source": "// SPDX-License-Identifier: MIT\npragma solidity ^0.8.17;\n\nimport \"./RegistroMedico.sol\";\nimport \"../structsGenerales/IncapacidadStruct.sol\";\nimport \"../structsGenerales/ExploracionPorRegionesStruct.sol\";\nimport \"../structsGenerales/ExploracionPorSistemasStruct.sol\";\n\n//import \"./structsGenerales/DatosPersonalesStruct.sol\";\n\ncontract GinecobstetriciaVO is RegistroMedico (TipoRegistroMedico.GINECOBSTETRICIA) {\n    struct GinecobstetriciaStruct {\n        uint256 cantidadAbortos;\n        uint256 cantidadPartos;\n        bool cesareas;\n        bool climaterio;\n        string desarrolloSexual;\n        int256 fechaProbableParto;\n        string flujoPlasmaticoRenal;\n        int256 menarca;\n        bool menopausia;\n        string ritmoMenstrual;\n        string vidaSexual;\n    }\n\n    GinecobstetriciaStruct private ginecobstetriciaStruct;\n\n    constructor() {\n        creador = msg.sender;\n    }\n\n    function getGinecobstetriciaStruct()\n        public\n        view\n        returns (GinecobstetriciaStruct memory)\n    {\n        return ginecobstetriciaStruct;\n    }\n\n    function setGinecobstetriciaStruct(\n        GinecobstetriciaStruct memory _ginecobstetriciaStruct\n    ) public {\n        ginecobstetriciaStruct = _ginecobstetriciaStruct;\n    }\n\n    function getCantidadAbortos() public view returns (uint256) {\n        return ginecobstetriciaStruct.cantidadAbortos;\n    }\n\n    function getCesareas() public view returns (bool) {\n        return ginecobstetriciaStruct.cesareas;\n    }\n\n    function getClimaterio() public view returns (bool) {\n        return ginecobstetriciaStruct.climaterio;\n    }\n\n    function getDesarrolloSexual() public view returns (string memory) {\n        return ginecobstetriciaStruct.desarrolloSexual;\n    }\n\n    function getFechaProbableParto() public view returns (int256) {\n        return ginecobstetriciaStruct.fechaProbableParto;\n    }\n\n    function getFlujoPlasmaticoRenal() public view returns (string memory) {\n        return ginecobstetriciaStruct.flujoPlasmaticoRenal;\n    }\n\n    function getMenarca() public view returns (int256) {\n        return ginecobstetriciaStruct.menarca;\n    }\n\n    function getMenopausia() public view returns (bool) {\n        return ginecobstetriciaStruct.menopausia;\n    }\n\n    function getRitmoMenstrual() public view returns (string memory) {\n        return ginecobstetriciaStruct.ritmoMenstrual;\n    }\n\n    function getVidaSexual() public view returns (string memory) {\n        return ginecobstetriciaStruct.vidaSexual;\n    }\n\n    function setCantidadAbortos(uint256 _cantidadAbortos) public {\n        ginecobstetriciaStruct.cantidadAbortos = _cantidadAbortos;\n    }\n\n    function setCantidadPartos(uint256 _cantidadPartos) public {\n        ginecobstetriciaStruct.cantidadPartos = _cantidadPartos;\n    }\n\n    function setCesareas(bool _cesareas) public {\n        ginecobstetriciaStruct.cesareas = _cesareas;\n    }\n\n    function setClimaterio(bool _climaterio) public {\n        ginecobstetriciaStruct.climaterio = _climaterio;\n    }\n\n    function setDesarrolloSexual(string memory _desarrolloSexual) public {\n        ginecobstetriciaStruct.desarrolloSexual = _desarrolloSexual;\n    }\n\n    function setFechaProbableParto(string memory _flujoPlasmaticoRenal) public {\n        ginecobstetriciaStruct.flujoPlasmaticoRenal = _flujoPlasmaticoRenal;\n    }\n\n    function setMenarca(int256 _menarca) public {\n        ginecobstetriciaStruct.menarca = _menarca;\n    }\n\n    function setMenopausia(bool _menopausia) public {\n        ginecobstetriciaStruct.menopausia = _menopausia;\n    }\n\n    function setRitmoMenstrual(string memory _ritmoMenstrual) public {\n        ginecobstetriciaStruct.ritmoMenstrual = _ritmoMenstrual;\n    }\n\n    function setVidaSexual(string memory _vidaSexual) public {\n        ginecobstetriciaStruct.vidaSexual = _vidaSexual;\n    }\n}",
  "sourcePath": "/back/contracts/models/historiaClinica/GinecobstetriciaVO.sol",
  "compiler": {
    "name": "solc",
    "version": "0.8.17+commit.8df45f5f.Emscripten.clang"
  },
  "schemaVersion": "3.4.11",
  "updatedAt": "2023-06-26T00:47:43.485Z",
  "devdoc": {
    "kind": "dev",
    "methods": {},
    "version": 1
  },
  "userdoc": {
    "kind": "user",
    "methods": {},
    "version": 1
  }
}