{
  "contractName": "HabitosPersonalesVO",
  "abi": [
    {
      "inputs": [],
      "stateMutability": "nonpayable",
      "type": "constructor"
    },
    {
      "inputs": [],
      "name": "creador",
      "outputs": [
        {
          "internalType": "address",
          "name": "",
          "type": "address"
        }
      ],
      "stateMutability": "view",
      "type": "function"
    },
    {
      "inputs": [],
      "name": "getCodPrestadorServicioDeSalud",
      "outputs": [
        {
          "internalType": "address",
          "name": "",
          "type": "address"
        }
      ],
      "stateMutability": "view",
      "type": "function"
    },
    {
      "inputs": [],
      "name": "getFechaRegistro",
      "outputs": [
        {
          "internalType": "int256",
          "name": "",
          "type": "int256"
        }
      ],
      "stateMutability": "view",
      "type": "function"
    },
    {
      "inputs": [],
      "name": "getId",
      "outputs": [
        {
          "internalType": "uint256",
          "name": "",
          "type": "uint256"
        }
      ],
      "stateMutability": "view",
      "type": "function"
    },
    {
      "inputs": [],
      "name": "getRegistroMedico",
      "outputs": [
        {
          "components": [
            {
              "internalType": "uint256",
              "name": "id",
              "type": "uint256"
            },
            {
              "internalType": "address",
              "name": "codPrestadorServicioDeSalud",
              "type": "address"
            },
            {
              "internalType": "int256",
              "name": "fechaRegistro",
              "type": "int256"
            },
            {
              "internalType": "enum TipoRegistroMedico",
              "name": "tipoRegistroMedico",
              "type": "uint8"
            }
          ],
          "internalType": "struct RegistroMedico.RegistroMedicoStruct",
          "name": "",
          "type": "tuple"
        }
      ],
      "stateMutability": "view",
      "type": "function"
    },
    {
      "inputs": [],
      "name": "getTipoRegistroMedico",
      "outputs": [
        {
          "internalType": "enum TipoRegistroMedico",
          "name": "",
          "type": "uint8"
        }
      ],
      "stateMutability": "view",
      "type": "function"
    },
    {
      "inputs": [],
      "name": "selfDestruct",
      "outputs": [],
      "stateMutability": "nonpayable",
      "type": "function"
    },
    {
      "inputs": [
        {
          "internalType": "address",
          "name": "_codPrestadorServicioDeSalud",
          "type": "address"
        }
      ],
      "name": "setCodPrestadorServicioDeSalud",
      "outputs": [],
      "stateMutability": "nonpayable",
      "type": "function"
    },
    {
      "inputs": [
        {
          "internalType": "int256",
          "name": "_fechaRegistro",
          "type": "int256"
        }
      ],
      "name": "setFechaRegistro",
      "outputs": [],
      "stateMutability": "nonpayable",
      "type": "function"
    },
    {
      "inputs": [
        {
          "internalType": "uint256",
          "name": "_id",
          "type": "uint256"
        }
      ],
      "name": "setId",
      "outputs": [],
      "stateMutability": "nonpayable",
      "type": "function"
    },
    {
      "inputs": [
        {
          "components": [
            {
              "internalType": "uint256",
              "name": "id",
              "type": "uint256"
            },
            {
              "internalType": "address",
              "name": "codPrestadorServicioDeSalud",
              "type": "address"
            },
            {
              "internalType": "int256",
              "name": "fechaRegistro",
              "type": "int256"
            },
            {
              "internalType": "enum TipoRegistroMedico",
              "name": "tipoRegistroMedico",
              "type": "uint8"
            }
          ],
          "internalType": "struct RegistroMedico.RegistroMedicoStruct",
          "name": "registro",
          "type": "tuple"
        }
      ],
      "name": "setRegistroMedico",
      "outputs": [],
      "stateMutability": "nonpayable",
      "type": "function"
    },
    {
      "inputs": [
        {
          "internalType": "enum TipoRegistroMedico",
          "name": "_tipoRegistroMedico",
          "type": "uint8"
        }
      ],
      "name": "setTipoRegistroMedico",
      "outputs": [],
      "stateMutability": "nonpayable",
      "type": "function"
    },
    {
      "inputs": [],
      "name": "getToxicomanias",
      "outputs": [
        {
          "internalType": "string",
          "name": "",
          "type": "string"
        }
      ],
      "stateMutability": "view",
      "type": "function"
    },
    {
      "inputs": [],
      "name": "getLavadoDientes",
      "outputs": [
        {
          "internalType": "uint256",
          "name": "",
          "type": "uint256"
        }
      ],
      "stateMutability": "view",
      "type": "function"
    },
    {
      "inputs": [],
      "name": "getDefecacion",
      "outputs": [
        {
          "internalType": "string",
          "name": "",
          "type": "string"
        }
      ],
      "stateMutability": "view",
      "type": "function"
    },
    {
      "inputs": [],
      "name": "getHabitacion",
      "outputs": [
        {
          "internalType": "string",
          "name": "",
          "type": "string"
        }
      ],
      "stateMutability": "view",
      "type": "function"
    },
    {
      "inputs": [],
      "name": "getAlcoholismo",
      "outputs": [
        {
          "internalType": "string",
          "name": "",
          "type": "string"
        }
      ],
      "stateMutability": "view",
      "type": "function"
    },
    {
      "inputs": [],
      "name": "getTabaquismo",
      "outputs": [
        {
          "internalType": "string",
          "name": "",
          "type": "string"
        }
      ],
      "stateMutability": "view",
      "type": "function"
    },
    {
      "inputs": [],
      "name": "getBano",
      "outputs": [
        {
          "internalType": "string",
          "name": "",
          "type": "string"
        }
      ],
      "stateMutability": "view",
      "type": "function"
    },
    {
      "inputs": [],
      "name": "getAlimentacion",
      "outputs": [
        {
          "internalType": "string",
          "name": "",
          "type": "string"
        }
      ],
      "stateMutability": "view",
      "type": "function"
    },
    {
      "inputs": [],
      "name": "getDeportes",
      "outputs": [
        {
          "internalType": "string",
          "name": "",
          "type": "string"
        }
      ],
      "stateMutability": "view",
      "type": "function"
    },
    {
      "inputs": [],
      "name": "getEscolaridad",
      "outputs": [
        {
          "internalType": "string",
          "name": "",
          "type": "string"
        }
      ],
      "stateMutability": "view",
      "type": "function"
    },
    {
      "inputs": [],
      "name": "getPasatiempos",
      "outputs": [
        {
          "internalType": "string",
          "name": "",
          "type": "string"
        }
      ],
      "stateMutability": "view",
      "type": "function"
    },
    {
      "inputs": [],
      "name": "getTrabajo",
      "outputs": [
        {
          "internalType": "string",
          "name": "",
          "type": "string"
        }
      ],
      "stateMutability": "view",
      "type": "function"
    },
    {
      "inputs": [],
      "name": "getHabitosPersonalesStruct",
      "outputs": [
        {
          "components": [
            {
              "internalType": "string",
              "name": "toxicomanias",
              "type": "string"
            },
            {
              "internalType": "uint256",
              "name": "lavadoDientes",
              "type": "uint256"
            },
            {
              "internalType": "string",
              "name": "defecacion",
              "type": "string"
            },
            {
              "internalType": "string",
              "name": "habitacion",
              "type": "string"
            },
            {
              "internalType": "string",
              "name": "alcoholismo",
              "type": "string"
            },
            {
              "internalType": "string",
              "name": "tabaquismo",
              "type": "string"
            },
            {
              "internalType": "string",
              "name": "bano",
              "type": "string"
            },
            {
              "internalType": "string",
              "name": "alimentacion",
              "type": "string"
            },
            {
              "internalType": "string",
              "name": "deportes",
              "type": "string"
            },
            {
              "internalType": "string",
              "name": "escolaridad",
              "type": "string"
            },
            {
              "internalType": "string",
              "name": "pasatiempos",
              "type": "string"
            },
            {
              "internalType": "string",
              "name": "trabajo",
              "type": "string"
            }
          ],
          "internalType": "struct HabitosPersonalesVO.HabitosPersonalesStruct",
          "name": "",
          "type": "tuple"
        }
      ],
      "stateMutability": "view",
      "type": "function"
    },
    {
      "inputs": [
        {
          "components": [
            {
              "internalType": "string",
              "name": "toxicomanias",
              "type": "string"
            },
            {
              "internalType": "uint256",
              "name": "lavadoDientes",
              "type": "uint256"
            },
            {
              "internalType": "string",
              "name": "defecacion",
              "type": "string"
            },
            {
              "internalType": "string",
              "name": "habitacion",
              "type": "string"
            },
            {
              "internalType": "string",
              "name": "alcoholismo",
              "type": "string"
            },
            {
              "internalType": "string",
              "name": "tabaquismo",
              "type": "string"
            },
            {
              "internalType": "string",
              "name": "bano",
              "type": "string"
            },
            {
              "internalType": "string",
              "name": "alimentacion",
              "type": "string"
            },
            {
              "internalType": "string",
              "name": "deportes",
              "type": "string"
            },
            {
              "internalType": "string",
              "name": "escolaridad",
              "type": "string"
            },
            {
              "internalType": "string",
              "name": "pasatiempos",
              "type": "string"
            },
            {
              "internalType": "string",
              "name": "trabajo",
              "type": "string"
            }
          ],
          "internalType": "struct HabitosPersonalesVO.HabitosPersonalesStruct",
          "name": "_habitosPersonalesStruct",
          "type": "tuple"
        }
      ],
      "name": "setHabitosPersonalesStruct",
      "outputs": [],
      "stateMutability": "nonpayable",
      "type": "function"
    },
    {
      "inputs": [
        {
          "internalType": "string",
          "name": "_toxicomanias",
          "type": "string"
        }
      ],
      "name": "setToxicomanias",
      "outputs": [],
      "stateMutability": "nonpayable",
      "type": "function"
    },
    {
      "inputs": [
        {
          "internalType": "uint256",
          "name": "_lavadoDientes",
          "type": "uint256"
        }
      ],
      "name": "setLavadoDientes",
      "outputs": [],
      "stateMutability": "nonpayable",
      "type": "function"
    },
    {
      "inputs": [
        {
          "internalType": "string",
          "name": "_defecacion",
          "type": "string"
        }
      ],
      "name": "setDefecacion",
      "outputs": [],
      "stateMutability": "nonpayable",
      "type": "function"
    },
    {
      "inputs": [
        {
          "internalType": "string",
          "name": "_habitacion",
          "type": "string"
        }
      ],
      "name": "setHabitacion",
      "outputs": [],
      "stateMutability": "nonpayable",
      "type": "function"
    },
    {
      "inputs": [
        {
          "internalType": "string",
          "name": "_alcoholismo",
          "type": "string"
        }
      ],
      "name": "setAlcoholismo",
      "outputs": [],
      "stateMutability": "nonpayable",
      "type": "function"
    },
    {
      "inputs": [
        {
          "internalType": "string",
          "name": "_tabaquismo",
          "type": "string"
        }
      ],
      "name": "setTabaquismo",
      "outputs": [],
      "stateMutability": "nonpayable",
      "type": "function"
    },
    {
      "inputs": [
        {
          "internalType": "string",
          "name": "_bano",
          "type": "string"
        }
      ],
      "name": "setbano",
      "outputs": [],
      "stateMutability": "nonpayable",
      "type": "function"
    },
    {
      "inputs": [
        {
          "internalType": "string",
          "name": "_alimentacion",
          "type": "string"
        }
      ],
      "name": "setAlimentacion",
      "outputs": [],
      "stateMutability": "nonpayable",
      "type": "function"
    },
    {
      "inputs": [
        {
          "internalType": "string",
          "name": "_deportes",
          "type": "string"
        }
      ],
      "name": "setDeportes",
      "outputs": [],
      "stateMutability": "nonpayable",
      "type": "function"
    },
    {
      "inputs": [
        {
          "internalType": "string",
          "name": "_escolaridad",
          "type": "string"
        }
      ],
      "name": "setEscolaridad",
      "outputs": [],
      "stateMutability": "nonpayable",
      "type": "function"
    },
    {
      "inputs": [
        {
          "internalType": "string",
          "name": "_pasatiempos",
          "type": "string"
        }
      ],
      "name": "setPasatiempos",
      "outputs": [],
      "stateMutability": "nonpayable",
      "type": "function"
    },
    {
      "inputs": [
        {
          "internalType": "string",
          "name": "_trabajo",
          "type": "string"
        }
      ],
      "name": "settrabajo",
      "outputs": [],
      "stateMutability": "nonpayable",
      "type": "function"
    }
  ],
  "bytecode": "0x608060405234801561001057600080fd5b506004805460ff1916600617905560008054336001600160a01b0319909116179055611833806100416000396000f3fe608060405234801561001057600080fd5b50600436106102925760003560e01c8063808f23ab11610160578063c241aa2a116100d8578063da4d7afe1161008c578063e191090811610071578063e191090814610505578063f905f9ae1461050d578063fb1e1bbc1461052257600080fd5b8063da4d7afe146104df578063da66f996146104f257600080fd5b8063d0e0ba95116100bd578063d0e0ba95146104a6578063d10ceeab146104b9578063d4da56eb146104cc57600080fd5b8063c241aa2a1461048b578063ca3c5a131461049357600080fd5b8063979682601161012f5780639cb8a26a116101145780639cb8a26a14610468578063ac3db7c114610470578063c0c3d94e1461048357600080fd5b8063979682601461044d5780639a1b3c2e1461045557600080fd5b8063808f23ab146103f6578063889333a01461040957806392ebdcd21461041157806393be08ef1461043c57600080fd5b80632ffc97ec1161020e5780635f3774d4116101c257806370763099116101a7578063707630991461039e578063781b43ac146103a6578063803a56ec146103b957600080fd5b80635f3774d414610383578063662de9901461039657600080fd5b806344517a9a116101f357806344517a9a14610360578063598ad6f3146103735780635d1ca6311461037b57600080fd5b80632ffc97ec1461033a578063335f543e1461034d57600080fd5b80630bcacc1b11610265578063110a47691161024a578063110a47691461030d578063197ebc49146103205780631b59abb91461032857600080fd5b80630bcacc1b146102f05780630f4b65241461030557600080fd5b80630378899814610297578063045c7bbe146102ac578063070d6ab7146102bf578063086db19c146102dd575b600080fd5b6102aa6102a5366004611159565b61052a565b005b6102aa6102ba366004611196565b600355565b6102c761053a565b6040516102d491906111f5565b60405180910390f35b6102aa6102eb366004611159565b6105cf565b6102f86105db565b6040516102d49190611247565b6102c7610650565b6102aa61031b366004611159565b610662565b6102c761066e565b6003545b6040519081526020016102d4565b6102aa610348366004611159565b61067f565b6102aa61035b366004611159565b61068b565b60045460ff166040516102d49190611289565b6102c7610697565b60015461032c565b6102aa6103913660046112c8565b6106a9565b6102c7610715565b6102c7610727565b6102aa6103b4366004611159565b610739565b6102aa6103c7366004611337565b6002805473ffffffffffffffffffffffffffffffffffffffff19166001600160a01b0392909216919091179055565b6102aa610404366004611159565b610745565b6102c7610751565b600054610424906001600160a01b031681565b6040516001600160a01b0390911681526020016102d4565b6002546001600160a01b0316610424565b6102c7610763565b6102aa610463366004611159565b610775565b6102aa610781565b6102aa61047e366004611159565b610853565b60065461032c565b6102c761085f565b6102aa6104a1366004611352565b610871565b6102aa6104b4366004611196565b600155565b6102aa6104c7366004611196565b600655565b6102aa6104da36600461136d565b610890565b6102aa6104ed366004611159565b610989565b6102aa610500366004611159565b610995565b6102c76109a1565b6105156109b3565b6040516102d49190611557565b6102c761107a565b600b610536828261173d565b5050565b60606005600b01805461054c906116b4565b80601f0160208091040260200160405190810160405280929190818152602001828054610578906116b4565b80156105c55780601f1061059a576101008083540402835291602001916105c5565b820191906000526020600020905b8154815290600101906020018083116105a857829003601f168201915b5050505050905090565b600c610536828261173d565b6106036040805160808101825260008082526020820181905291810182905290606082015290565b6040805160808101825260015481526002546001600160a01b0316602082015260035491810191909152600454606082019060ff1660128111156106495761064961120f565b9052919050565b60606005600201805461054c906116b4565b6008610536828261173d565b606060058001805461054c906116b4565b600d610536828261173d565b6009610536828261173d565b60606005600001805461054c906116b4565b8051600190815560208201516002805473ffffffffffffffffffffffffffffffffffffffff19166001600160a01b0390921691909117905560408201516003556060820151600480549192909160ff19169083601281111561070d5761070d61120f565b021790555050565b60606005600301805461054c906116b4565b60606005600a01805461054c906116b4565b600f610536828261173d565b600e610536828261173d565b60606005600701805461054c906116b4565b60606005600901805461054c906116b4565b6010610536828261173d565b6000546001600160a01b03163314610845576040517f08c379a000000000000000000000000000000000000000000000000000000000815260206004820152604160248201527f457374612066756e63696f6e20736f6c6f2070756564652073657220656a656360448201527f757461646120706f7220656c2063726561646f722064656c20636f6e7472617460648201527f6f00000000000000000000000000000000000000000000000000000000000000608482015260a40160405180910390fd5b6000546001600160a01b0316ff5b600a610536828261173d565b60606005600601805461054c906116b4565b6004805482919060ff1916600183601281111561070d5761070d61120f565b8051819060059081906108a3908261173d565b5060208201516001820155604082015160028201906108c2908261173d565b50606082015160038201906108d7908261173d565b50608082015160048201906108ec908261173d565b5060a08201516005820190610901908261173d565b5060c08201516006820190610916908261173d565b5060e0820151600782019061092b908261173d565b506101008201516008820190610941908261173d565b506101208201516009820190610957908261173d565b50610140820151600a82019061096d908261173d565b50610160820151600b820190610983908261173d565b50505050565b6005610536828261173d565b6007610536828261173d565b60606005600401805461054c906116b4565b610a176040518061018001604052806060815260200160008152602001606081526020016060815260200160608152602001606081526020016060815260200160608152602001606081526020016060815260200160608152602001606081525090565b600560405180610180016040529081600082018054610a35906116b4565b80601f0160208091040260200160405190810160405280929190818152602001828054610a61906116b4565b8015610aae5780601f10610a8357610100808354040283529160200191610aae565b820191906000526020600020905b815481529060010190602001808311610a9157829003601f168201915b5050505050815260200160018201548152602001600282018054610ad1906116b4565b80601f0160208091040260200160405190810160405280929190818152602001828054610afd906116b4565b8015610b4a5780601f10610b1f57610100808354040283529160200191610b4a565b820191906000526020600020905b815481529060010190602001808311610b2d57829003601f168201915b50505050508152602001600382018054610b63906116b4565b80601f0160208091040260200160405190810160405280929190818152602001828054610b8f906116b4565b8015610bdc5780601f10610bb157610100808354040283529160200191610bdc565b820191906000526020600020905b815481529060010190602001808311610bbf57829003601f168201915b50505050508152602001600482018054610bf5906116b4565b80601f0160208091040260200160405190810160405280929190818152602001828054610c21906116b4565b8015610c6e5780601f10610c4357610100808354040283529160200191610c6e565b820191906000526020600020905b815481529060010190602001808311610c5157829003601f168201915b50505050508152602001600582018054610c87906116b4565b80601f0160208091040260200160405190810160405280929190818152602001828054610cb3906116b4565b8015610d005780601f10610cd557610100808354040283529160200191610d00565b820191906000526020600020905b815481529060010190602001808311610ce357829003601f168201915b50505050508152602001600682018054610d19906116b4565b80601f0160208091040260200160405190810160405280929190818152602001828054610d45906116b4565b8015610d925780601f10610d6757610100808354040283529160200191610d92565b820191906000526020600020905b815481529060010190602001808311610d7557829003601f168201915b50505050508152602001600782018054610dab906116b4565b80601f0160208091040260200160405190810160405280929190818152602001828054610dd7906116b4565b8015610e245780601f10610df957610100808354040283529160200191610e24565b820191906000526020600020905b815481529060010190602001808311610e0757829003601f168201915b50505050508152602001600882018054610e3d906116b4565b80601f0160208091040260200160405190810160405280929190818152602001828054610e69906116b4565b8015610eb65780601f10610e8b57610100808354040283529160200191610eb6565b820191906000526020600020905b815481529060010190602001808311610e9957829003601f168201915b50505050508152602001600982018054610ecf906116b4565b80601f0160208091040260200160405190810160405280929190818152602001828054610efb906116b4565b8015610f485780601f10610f1d57610100808354040283529160200191610f48565b820191906000526020600020905b815481529060010190602001808311610f2b57829003601f168201915b50505050508152602001600a82018054610f61906116b4565b80601f0160208091040260200160405190810160405280929190818152602001828054610f8d906116b4565b8015610fda5780601f10610faf57610100808354040283529160200191610fda565b820191906000526020600020905b815481529060010190602001808311610fbd57829003601f168201915b50505050508152602001600b82018054610ff3906116b4565b80601f016020809104026020016040519081016040528092919081815260200182805461101f906116b4565b801561106c5780601f106110415761010080835404028352916020019161106c565b820191906000526020600020905b81548152906001019060200180831161104f57829003601f168201915b505050505081525050905090565b60606005600801805461054c906116b4565b634e487b7160e01b600052604160045260246000fd5b604051610180810167ffffffffffffffff811182821017156110c6576110c661108c565b60405290565b600082601f8301126110dd57600080fd5b813567ffffffffffffffff808211156110f8576110f861108c565b604051601f8301601f19908116603f011681019082821181831017156111205761112061108c565b8160405283815286602085880101111561113957600080fd5b836020870160208301376000602085830101528094505050505092915050565b60006020828403121561116b57600080fd5b813567ffffffffffffffff81111561118257600080fd5b61118e848285016110cc565b949350505050565b6000602082840312156111a857600080fd5b5035919050565b6000815180845260005b818110156111d5576020818501810151868301820152016111b9565b506000602082860101526020601f19601f83011685010191505092915050565b60208152600061120860208301846111af565b9392505050565b634e487b7160e01b600052602160045260246000fd5b6013811061124357634e487b7160e01b600052602160045260246000fd5b9052565b6000608082019050825182526001600160a01b0360208401511660208301526040830151604083015260608301516112826060840182611225565b5092915050565b602081016112978284611225565b92915050565b80356001600160a01b03811681146112b457600080fd5b919050565b8035601381106112b457600080fd5b6000608082840312156112da57600080fd5b6040516080810181811067ffffffffffffffff821117156112fd576112fd61108c565b604052823581526113106020840161129d565b60208201526040830135604082015261132b606084016112b9565b60608201529392505050565b60006020828403121561134957600080fd5b6112088261129d565b60006020828403121561136457600080fd5b611208826112b9565b60006020828403121561137f57600080fd5b813567ffffffffffffffff8082111561139757600080fd5b9083019061018082860312156113ac57600080fd5b6113b46110a2565b8235828111156113c357600080fd5b6113cf878286016110cc565b825250602083013560208201526040830135828111156113ee57600080fd5b6113fa878286016110cc565b60408301525060608301358281111561141257600080fd5b61141e878286016110cc565b60608301525060808301358281111561143657600080fd5b611442878286016110cc565b60808301525060a08301358281111561145a57600080fd5b611466878286016110cc565b60a08301525060c08301358281111561147e57600080fd5b61148a878286016110cc565b60c08301525060e0830135828111156114a257600080fd5b6114ae878286016110cc565b60e08301525061010080840135838111156114c857600080fd5b6114d4888287016110cc565b82840152505061012080840135838111156114ee57600080fd5b6114fa888287016110cc565b828401525050610140808401358381111561151457600080fd5b611520888287016110cc565b828401525050610160808401358381111561153a57600080fd5b611546888287016110cc565b918301919091525095945050505050565b60208152600082516101808060208501526115766101a08501836111af565b9150602085015160408501526040850151601f198086850301606087015261159e84836111af565b935060608701519150808685030160808701526115bb84836111af565b935060808701519150808685030160a08701526115d884836111af565b935060a08701519150808685030160c08701526115f584836111af565b935060c08701519150808685030160e087015261161284836111af565b935060e0870151915061010081878603018188015261163185846111af565b94508088015192505061012081878603018188015261165085846111af565b94508088015192505061014081878603018188015261166f85846111af565b94508088015192505061016081878603018188015261168e85846111af565b9088015187820390920184880152935090506116aa83826111af565b9695505050505050565b600181811c908216806116c857607f821691505b6020821081036116e857634e487b7160e01b600052602260045260246000fd5b50919050565b601f82111561173857600081815260208120601f850160051c810160208610156117155750805b601f850160051c820191505b8181101561173457828155600101611721565b5050505b505050565b815167ffffffffffffffff8111156117575761175761108c565b61176b8161176584546116b4565b846116ee565b602080601f8311600181146117a057600084156117885750858301515b600019600386901b1c1916600185901b178555611734565b600085815260208120601f198616915b828110156117cf578886015182559484019460019091019084016117b0565b50858210156117ed5787850151600019600388901b60f8161c191681555b5050505050600190811b0190555056fea264697066735822122035caae0cbdc4af02a838ae57789c0d08a2d986407307e4335e771e903e6a932664736f6c63430008110033",
  "immutableReferences": {},
  "source": "// SPDX-License-Identifier: MIT\npragma solidity ^0.8.17;\n\nimport \"./RegistroMedico.sol\";\n\ncontract HabitosPersonalesVO is RegistroMedico (TipoRegistroMedico.HABITOSPERSONALESVO) {\n    struct HabitosPersonalesStruct {\n        string toxicomanias;\n        uint256 lavadoDientes;\n        string defecacion;\n        string habitacion;\n        string alcoholismo;\n        string tabaquismo;\n        string bano;\n        string alimentacion;\n        string deportes;\n        string escolaridad;\n        string pasatiempos;\n        string trabajo;\n    }\n\n    HabitosPersonalesStruct private habitosPersonalesStruct;\n\n    constructor() {\n        creador = msg.sender;\n    }\n\n    function getToxicomanias() public view returns (string memory) {\n        return habitosPersonalesStruct.toxicomanias;\n    }\n\n    function getLavadoDientes() public view returns (uint256) {\n        return habitosPersonalesStruct.lavadoDientes;\n    }\n\n    function getDefecacion() public view returns (string memory) {\n        return habitosPersonalesStruct.defecacion;\n    }\n\n    function getHabitacion() public view returns (string memory) {\n        return habitosPersonalesStruct.habitacion;\n    }\n\n    function getAlcoholismo() public view returns (string memory) {\n        return habitosPersonalesStruct.alcoholismo;\n    }\n\n    function getTabaquismo() public view returns (string memory) {\n        return habitosPersonalesStruct.tabaquismo;\n    }\n\n    function getBano() public view returns (string memory) {\n        return habitosPersonalesStruct.bano;\n    }\n\n    function getAlimentacion() public view returns (string memory) {\n        return habitosPersonalesStruct.alimentacion;\n    }\n\n    function getDeportes() public view returns (string memory) {\n        return habitosPersonalesStruct.deportes;\n    }\n\n    function getEscolaridad() public view returns (string memory) {\n        return habitosPersonalesStruct.escolaridad;\n    }\n\n    function getPasatiempos() public view returns (string memory) {\n        return habitosPersonalesStruct.pasatiempos;\n    }\n\n    function getTrabajo() public view returns (string memory) {\n        return habitosPersonalesStruct.trabajo;\n    }\n\n    function getHabitosPersonalesStruct()\n        public\n        view\n        returns (HabitosPersonalesStruct memory)\n    {\n        return habitosPersonalesStruct;\n    }\n\n    function setHabitosPersonalesStruct(\n        HabitosPersonalesStruct memory _habitosPersonalesStruct\n    ) public {\n        habitosPersonalesStruct = _habitosPersonalesStruct;\n    }\n\n    function setToxicomanias(string memory _toxicomanias) public {\n        habitosPersonalesStruct.toxicomanias = _toxicomanias;\n    }\n\n    function setLavadoDientes(uint256 _lavadoDientes) public {\n        habitosPersonalesStruct.lavadoDientes = _lavadoDientes;\n    }\n\n    function setDefecacion(string memory _defecacion) public {\n        habitosPersonalesStruct.defecacion = _defecacion;\n    }\n\n    function setHabitacion(string memory _habitacion) public {\n        habitosPersonalesStruct.habitacion = _habitacion;\n    }\n\n    function setAlcoholismo(string memory _alcoholismo) public {\n        habitosPersonalesStruct.alcoholismo = _alcoholismo;\n    }\n\n    function setTabaquismo(string memory _tabaquismo) public {\n        habitosPersonalesStruct.tabaquismo = _tabaquismo;\n    }\n\n    function setbano(string memory _bano) public {\n        habitosPersonalesStruct.bano = _bano;\n    }\n\n    function setAlimentacion(string memory _alimentacion) public {\n        habitosPersonalesStruct.alimentacion = _alimentacion;\n    }\n\n    function setDeportes(string memory _deportes) public {\n        habitosPersonalesStruct.deportes = _deportes;\n    }\n\n    function setEscolaridad(string memory _escolaridad) public {\n        habitosPersonalesStruct.escolaridad = _escolaridad;\n    }\n\n    function setPasatiempos(string memory _pasatiempos) public {\n        habitosPersonalesStruct.pasatiempos = _pasatiempos;\n    }\n\n    function settrabajo(string memory _trabajo) public {\n        habitosPersonalesStruct.trabajo = _trabajo;\n    }\n}\n",
  "sourcePath": "/back/contracts/models/historiaClinica/HabitosPersonalesVO.sol",
  "compiler": {
    "name": "solc",
    "version": "0.8.17+commit.8df45f5f.Emscripten.clang"
  },
  "schemaVersion": "3.4.11",
  "updatedAt": "2023-06-25T00:22:44.365Z",
  "devdoc": {
    "kind": "dev",
    "methods": {},
    "version": 1
  },
  "userdoc": {
    "kind": "user",
    "methods": {},
    "version": 1
  }
}