{
  "contractName": "HistoriaClinicaMapper",
  "abi": [
    {
      "inputs": [],
      "stateMutability": "nonpayable",
      "type": "constructor"
    },
    {
      "inputs": [],
      "name": "creador",
      "outputs": [
        {
          "internalType": "address",
          "name": "",
          "type": "address"
        }
      ],
      "stateMutability": "view",
      "type": "function",
      "constant": true
    },
    {
      "inputs": [
        {
          "internalType": "address",
          "name": "direccion",
          "type": "address"
        }
      ],
      "name": "consultar",
      "outputs": [
        {
          "internalType": "contract HistoriaClinicaVO",
          "name": "",
          "type": "address"
        }
      ],
      "stateMutability": "view",
      "type": "function",
      "constant": true
    },
    {
      "inputs": [
        {
          "internalType": "address",
          "name": "direccion",
          "type": "address"
        },
        {
          "internalType": "contract HistoriaClinicaVO",
          "name": "_historiaClinicaVO",
          "type": "address"
        }
      ],
      "name": "guardar",
      "outputs": [],
      "stateMutability": "nonpayable",
      "type": "function"
    },
    {
      "inputs": [
        {
          "internalType": "address",
          "name": "direccion",
          "type": "address"
        },
        {
          "internalType": "contract HistoriaClinicaVO",
          "name": "_historiaClinicaVO",
          "type": "address"
        }
      ],
      "name": "actualizar",
      "outputs": [],
      "stateMutability": "nonpayable",
      "type": "function"
    },
    {
      "inputs": [
        {
          "internalType": "uint256",
          "name": "id",
          "type": "uint256"
        }
      ],
      "name": "getPropietarioHistoriaClinica",
      "outputs": [
        {
          "internalType": "address",
          "name": "",
          "type": "address"
        }
      ],
      "stateMutability": "view",
      "type": "function",
      "constant": true
    },
    {
      "inputs": [
        {
          "internalType": "address",
          "name": "direccion",
          "type": "address"
        }
      ],
      "name": "getHistoriaClinicaId",
      "outputs": [
        {
          "internalType": "uint256",
          "name": "",
          "type": "uint256"
        }
      ],
      "stateMutability": "view",
      "type": "function",
      "constant": true
    },
    {
      "inputs": [],
      "name": "size",
      "outputs": [
        {
          "internalType": "uint256",
          "name": "",
          "type": "uint256"
        }
      ],
      "stateMutability": "view",
      "type": "function",
      "constant": true
    },
    {
      "inputs": [],
      "name": "selfDestruct",
      "outputs": [],
      "stateMutability": "nonpayable",
      "type": "function"
    }
  ],
  "bytecode": "0x608060405234801561001057600080fd5b50600080546001600160a01b031916331790556106f0806100326000396000f3fe608060405234801561001057600080fd5b50600436106100885760003560e01c80639cb8a26a1161005b5780639cb8a26a146100f7578063be381c59146100ff578063f08d543e14610112578063f98a5c901461012557600080fd5b80630da7d7a51461008d5780637da8f6a5146100a257806392ebdcd2146100d2578063949d225d146100e5575b600080fd5b6100a061009b3660046105e6565b610138565b005b6100b56100b036600461061f565b610205565b6040516001600160a01b0390911681526020015b60405180910390f35b6000546100b5906001600160a01b031681565b6002545b6040519081526020016100c9565b6100a0610275565b6100a061010d3660046105e6565b610329565b6100b561012036600461063c565b61042e565b6100e961013336600461061f565b6104dd565b6001600160a01b03828116600090815260016020526040902054166101ca5760405162461bcd60e51b815260206004820152603960248201527f4e6f2065786973746520756e6120686973746f72696120636c696e696361207260448201527f65676973747261646120636f6e2065736520616464726573730000000000000060648201526084015b60405180910390fd5b6001600160a01b039182166000908152600160205260409020805473ffffffffffffffffffffffffffffffffffffffff191691909216179055565b6001600160a01b038082166000908152600160205260408120549091168061026f5760405162461bcd60e51b815260206004820152601e60248201527f4e6f206578697374652065736120686973746f72696120636c696e696361000060448201526064016101c1565b92915050565b6000546001600160a01b0316331461031b5760405162461bcd60e51b815260206004820152604160248201527f457374612066756e63696f6e20736f6c6f2070756564652073657220656a656360448201527f757461646120706f7220656c2063726561646f722064656c20636f6e7472617460648201527f6f00000000000000000000000000000000000000000000000000000000000000608482015260a4016101c1565b6000546001600160a01b0316ff5b6001600160a01b0382811660009081526001602052604090205416156103b75760405162461bcd60e51b815260206004820152603960248201527f59612065786973746520756e6120686973746f72696120636c696e696361207260448201527f65676973747261646120636f6e2065736520616464726573730000000000000060648201526084016101c1565b6001600160a01b039182166000818152600160208190526040822080549590941673ffffffffffffffffffffffffffffffffffffffff199586161790935560028054938401815590527f405787fa12a823e0f2b7631cc41b3ba8828b3321ca811111fa75cd3aa3bb5ace9091018054909216179055565b6000806001600160a01b03166002838154811061044d5761044d610655565b6000918252602090912001546001600160a01b0316036104af5760405162461bcd60e51b815260206004820152601e60248201527f4e6f206578697374652065736120686973746f72696120636c696e696361000060448201526064016101c1565b600282815481106104c2576104c2610655565b6000918252602090912001546001600160a01b031692915050565b6040517f7da8f6a50000000000000000000000000000000000000000000000000000000081526001600160a01b038216600482015260009081903090637da8f6a590602401602060405180830381865afa15801561053f573d6000803e3d6000fd5b505050506040513d601f19601f820116820180604052508101906105639190610684565b9050806001600160a01b0316635d1ca6316040518163ffffffff1660e01b8152600401602060405180830381865afa1580156105a3573d6000803e3d6000fd5b505050506040513d601f19601f820116820180604052508101906105c791906106a1565b9392505050565b6001600160a01b03811681146105e357600080fd5b50565b600080604083850312156105f957600080fd5b8235610604816105ce565b91506020830135610614816105ce565b809150509250929050565b60006020828403121561063157600080fd5b81356105c7816105ce565b60006020828403121561064e57600080fd5b5035919050565b7f4e487b7100000000000000000000000000000000000000000000000000000000600052603260045260246000fd5b60006020828403121561069657600080fd5b81516105c7816105ce565b6000602082840312156106b357600080fd5b505191905056fea2646970667358221220368539dc8ade16c679f22042eef08926a6d3e0cda5d9e6a7977eebc24e16030c64736f6c63430008110033",
  "immutableReferences": {},
  "source": "// SPDX-License-Identifier: MIT\npragma solidity ^0.8.17;\nimport \"../models/historiaClinica/HistoriaClinicaVO.sol\";\nimport \"./HistoriaClinicaMapperInterface.sol\";\n\ncontract HistoriaClinicaMapper is HistoriaClinicaMapperInterface {\n    address public creador;\n\n    mapping(address => HistoriaClinicaVO) private historiasClinicas;\n    address[] private addressList; // NOTE Mapped Structs with Index\n\n    constructor() {\n        creador = msg.sender;\n    }\n\n    function consultar(address direccion)\n        external\n        view\n        returns (HistoriaClinicaVO)\n    {\n        HistoriaClinicaVO historiasClinica = historiasClinicas[direccion];\n        if (address(historiasClinica) == address(0)) {\n            revert(\"No existe esa historia clinica\");\n        }\n        return historiasClinica;\n    }\n\n    function guardar(address direccion, HistoriaClinicaVO _historiaClinicaVO)\n        public\n    {\n        if (address(historiasClinicas[direccion]) != address(0)) {\n            revert(\"Ya existe una historia clinica registrada con ese address\");\n        }\n        historiasClinicas[direccion] = _historiaClinicaVO;\n        addressList.push(direccion);\n    }\n\n    function actualizar(address direccion, HistoriaClinicaVO _historiaClinicaVO)\n        public\n    {\n        if (address(historiasClinicas[direccion]) == address(0)) {\n            revert(\"No existe una historia clinica registrada con ese address\");\n        }\n        historiasClinicas[direccion] = _historiaClinicaVO;\n    }\n\n    function getPropietarioHistoriaClinica(uint256 id)\n        external view\n        returns (address)\n    {\n        if (address(addressList[id]) == address(0)) {\n            revert(\"No existe esa historia clinica\");\n        }\n        return addressList[id];\n    }\n\n    function getHistoriaClinicaId(address direccion) external view returns (uint256) {\n        HistoriaClinicaVO historiasClinica = this.consultar(direccion);\n        return historiasClinica.getId(); \n    }\n\n    function size() external view returns (uint256) {\n        return addressList.length;\n    }\n\n    modifier esPropietario() {\n        require(\n            msg.sender == creador,\n            \"Esta funcion solo puede ser ejecutada por el creador del contrato\"\n        );\n        _; // ac se ejecuta la funcin\n    }\n\n    function selfDestruct() public esPropietario {\n        selfdestruct(payable(creador));\n    }\n}\n",
  "sourcePath": "/back/contracts/persistence/HistoriaClinicaMapper.sol",
  "compiler": {
    "name": "solc",
    "version": "0.8.17+commit.8df45f5f.Emscripten.clang"
  },
  "schemaVersion": "3.4.11",
  "updatedAt": "2023-06-26T00:48:53.945Z",
  "networkType": "ethereum",
  "devdoc": {
    "kind": "dev",
    "methods": {},
    "version": 1
  },
  "userdoc": {
    "kind": "user",
    "methods": {},
    "version": 1
  }
}