{
  "contractName": "HistoriaClinica",
  "abi": [
    {
      "inputs": [],
      "stateMutability": "nonpayable",
      "type": "constructor"
    },
    {
      "anonymous": false,
      "inputs": [
        {
          "indexed": false,
          "internalType": "string",
          "name": "data",
          "type": "string"
        },
        {
          "indexed": true,
          "internalType": "address",
          "name": "generador",
          "type": "address"
        },
        {
          "indexed": true,
          "internalType": "address",
          "name": "notificado",
          "type": "address"
        }
      ],
      "name": "ActivacionHCE",
      "type": "event"
    },
    {
      "anonymous": false,
      "inputs": [
        {
          "indexed": false,
          "internalType": "string",
          "name": "data",
          "type": "string"
        },
        {
          "indexed": true,
          "internalType": "address",
          "name": "generador",
          "type": "address"
        },
        {
          "indexed": true,
          "internalType": "address",
          "name": "notificado",
          "type": "address"
        }
      ],
      "name": "NuevoRegistro",
      "type": "event"
    },
    {
      "inputs": [],
      "name": "creador",
      "outputs": [
        {
          "internalType": "address",
          "name": "",
          "type": "address"
        }
      ],
      "stateMutability": "view",
      "type": "function",
      "constant": true
    },
    {
      "inputs": [],
      "name": "getAcceso",
      "outputs": [
        {
          "internalType": "contract Acceso",
          "name": "",
          "type": "address"
        }
      ],
      "stateMutability": "view",
      "type": "function",
      "constant": true
    },
    {
      "inputs": [
        {
          "internalType": "contract Acceso",
          "name": "_accesoAddress",
          "type": "address"
        }
      ],
      "name": "setAcceso",
      "outputs": [],
      "stateMutability": "nonpayable",
      "type": "function"
    },
    {
      "inputs": [
        {
          "internalType": "contract AccesoHistoriaClinica",
          "name": "_accesoHistoriaClinicaAddress",
          "type": "address"
        }
      ],
      "name": "setAccesoHistoriaClinica",
      "outputs": [],
      "stateMutability": "nonpayable",
      "type": "function"
    },
    {
      "inputs": [
        {
          "internalType": "uint256",
          "name": "permisoId",
          "type": "uint256"
        }
      ],
      "name": "tieneAccesoFunc",
      "outputs": [
        {
          "internalType": "bool",
          "name": "",
          "type": "bool"
        }
      ],
      "stateMutability": "nonpayable",
      "type": "function"
    },
    {
      "inputs": [
        {
          "internalType": "address",
          "name": "direccion",
          "type": "address"
        }
      ],
      "name": "getHistoriaClinica",
      "outputs": [
        {
          "components": [
            {
              "internalType": "uint256",
              "name": "id",
              "type": "uint256"
            },
            {
              "internalType": "uint256",
              "name": "estadoId",
              "type": "uint256"
            }
          ],
          "internalType": "struct HistoriaClinicaVO.HistoriaClinicaStruct",
          "name": "",
          "type": "tuple"
        }
      ],
      "stateMutability": "nonpayable",
      "type": "function"
    },
    {
      "inputs": [
        {
          "internalType": "address",
          "name": "direccionPaciente",
          "type": "address"
        }
      ],
      "name": "inicializarHCE",
      "outputs": [],
      "stateMutability": "nonpayable",
      "type": "function"
    },
    {
      "inputs": [
        {
          "internalType": "address",
          "name": "direccionPaciente",
          "type": "address"
        },
        {
          "internalType": "contract RegistroMedico",
          "name": "registroMedico",
          "type": "address"
        }
      ],
      "name": "agregarRegistro",
      "outputs": [],
      "stateMutability": "nonpayable",
      "type": "function"
    },
    {
      "inputs": [
        {
          "internalType": "address",
          "name": "direccionPaciente",
          "type": "address"
        },
        {
          "internalType": "uint256",
          "name": "idRegistro",
          "type": "uint256"
        }
      ],
      "name": "consultarRegistro",
      "outputs": [
        {
          "internalType": "contract RegistroMedico",
          "name": "",
          "type": "address"
        }
      ],
      "stateMutability": "nonpayable",
      "type": "function"
    },
    {
      "inputs": [
        {
          "internalType": "address",
          "name": "direccionPaciente",
          "type": "address"
        },
        {
          "internalType": "uint256",
          "name": "idRegistro",
          "type": "uint256"
        }
      ],
      "name": "eliminarRegistro",
      "outputs": [],
      "stateMutability": "nonpayable",
      "type": "function"
    },
    {
      "inputs": [
        {
          "internalType": "address",
          "name": "direccionPaciente",
          "type": "address"
        },
        {
          "internalType": "uint256",
          "name": "idRegistro",
          "type": "uint256"
        }
      ],
      "name": "registrosFiltradosPorFecha",
      "outputs": [
        {
          "internalType": "contract RegistroMedico[]",
          "name": "",
          "type": "address[]"
        }
      ],
      "stateMutability": "nonpayable",
      "type": "function"
    },
    {
      "inputs": [
        {
          "internalType": "address",
          "name": "direccionPaciente",
          "type": "address"
        },
        {
          "internalType": "enum TipoRegistroMedico",
          "name": "tipoRegistroMedico",
          "type": "uint8"
        }
      ],
      "name": "registrosFiltradosPorTipo",
      "outputs": [
        {
          "internalType": "contract RegistroMedico[]",
          "name": "",
          "type": "address[]"
        }
      ],
      "stateMutability": "nonpayable",
      "type": "function"
    },
    {
      "inputs": [
        {
          "internalType": "address",
          "name": "direccionPaciente",
          "type": "address"
        },
        {
          "internalType": "enum TipoRegistroMedico",
          "name": "tipoRegistroMedico",
          "type": "uint8"
        }
      ],
      "name": "cantidadregistrosPorTipo",
      "outputs": [
        {
          "internalType": "uint256",
          "name": "",
          "type": "uint256"
        }
      ],
      "stateMutability": "nonpayable",
      "type": "function"
    },
    {
      "inputs": [
        {
          "internalType": "contract HistoriaClinicaMapperInterface",
          "name": "_historiaClinicaMapper",
          "type": "address"
        }
      ],
      "name": "setHistoriaClinicaMapper",
      "outputs": [],
      "stateMutability": "nonpayable",
      "type": "function"
    },
    {
      "inputs": [
        {
          "internalType": "contract DatosParametricosMapperInterface",
          "name": "_datosParametricosMapperAddress",
          "type": "address"
        }
      ],
      "name": "setDatosParametricosMapper",
      "outputs": [],
      "stateMutability": "nonpayable",
      "type": "function"
    },
    {
      "inputs": [],
      "name": "selfDestruct",
      "outputs": [],
      "stateMutability": "nonpayable",
      "type": "function"
    }
  ],
  "bytecode": "0x608060405234801561001057600080fd5b50600080546001600160a01b0319163317905561376c806100326000396000f3fe60806040523480156200001157600080fd5b5060043610620001155760003560e01c80639cb8a26a11620000a3578063c15d1357116200006e578063c15d1357146200025b578063c204c17d146200028e578063d4a7986614620002a5578063fa7e054e14620002cd57600080fd5b80639cb8a26a14620001fd578063a05ea2791462000207578063b82b2980146200021e578063baf61b0a146200023557600080fd5b80635218635a11620000e45780635218635a1462000195578063672481a214620001bb57806392ebdcd214620001d25780639437afc614620001e657600080fd5b8063137d4722146200011a57806318058dcf14620001335780631b32fd4f14620001675780634022d672146200017e575b600080fd5b620001316200012b366004620023fc565b620002df565b005b6200014a6200014436600462002423565b6200039e565b6040516001600160a01b0390911681526020015b60405180910390f35b620001316200017836600462002452565b62000660565b620001316200018f366004620023fc565b62000b54565b620001ac620001a636600462002423565b62000c0f565b6040516200015e9190620024d6565b62000131620001cc366004620023fc565b62000eb5565b6000546200014a906001600160a01b031681565b62000131620001f7366004620023fc565b620012c4565b620001316200137f565b620001ac62000218366004620024f9565b62001419565b620001316200022f36600462002423565b620018bb565b6200024c62000246366004620024f9565b62001b69565b6040519081526020016200015e565b620002726200026c366004620023fc565b62001f83565b604080518251815260209283015192810192909252016200015e565b620001316200029f366004620023fc565b62002140565b620002bc620002b63660046200252c565b620021fb565b60405190151581526020016200015e565b6001546001600160a01b03166200014a565b6000546001600160a01b031633146200036f5760405162461bcd60e51b815260206004820152604160248201527f457374612066756e63696f6e20736f6c6f2070756564652073657220656a656360448201527f757461646120706f7220656c2063726561646f722064656c20636f6e747261746064820152606f60f81b608482015260a4015b60405180910390fd5b6001805473ffffffffffffffffffffffffffffffffffffffff19166001600160a01b0392909216919091179055565b6001546040516336a664e960e11b8152336004820152600f60248201819052600092909183916001600160a01b031690636d4cc9d2906044016020604051808303816000875af1158015620003f7573d6000803e3d6000fd5b505050506040513d601f19601f820116820180604052508101906200041d919062002546565b9050806200042b836200227a565b6040516020016200043d919062002590565b604051602081830303815290604052906200046d5760405162461bcd60e51b8152600401620003669190620025fd565b50846001600160a01b0381163314620005595760025460405163af2ffc3360e01b81526001600160a01b038381166004830152336024830152600092169063af2ffc33906044016020604051808303816000875af1158015620004d4573d6000803e3d6000fd5b505050506040513d601f19601f82011682018060405250810190620004fa919062002546565b905080620005575760405162461bcd60e51b815260206004820152602360248201527f456c207573756172696f206e6f207469656e652061636365736f2074656d706f6044820152621c985b60ea1b606482015260840162000366565b505b600354604051637da8f6a560e01b81526001600160a01b0388811660048301526000921690637da8f6a5906024016020604051808303816000875af1158015620005a7573d6000803e3d6000fd5b505050506040513d601f19601f82011682018060405250810190620005cd919062002632565b9050806001600160a01b031663940422a96040518163ffffffff1660e01b8152600401600060405180830381865afa1580156200060e573d6000803e3d6000fd5b505050506040513d6000823e601f3d908101601f1916820160405262000638919081019062002698565b86815181106200064c576200064c62002758565b602002602001015194505050505092915050565b6001546040516336a664e960e11b8152336004820152600e60248201819052916000916001600160a01b0390911690636d4cc9d2906044016020604051808303816000875af1158015620006b8573d6000803e3d6000fd5b505050506040513d601f19601f82011682018060405250810190620006de919062002546565b905080620006ec836200227a565b604051602001620006fe919062002590565b604051602081830303815290604052906200072e5760405162461bcd60e51b8152600401620003669190620025fd565b50836001600160a01b03811633146200081a5760025460405163af2ffc3360e01b81526001600160a01b038381166004830152336024830152600092169063af2ffc33906044016020604051808303816000875af115801562000795573d6000803e3d6000fd5b505050506040513d601f19601f82011682018060405250810190620007bb919062002546565b905080620008185760405162461bcd60e51b815260206004820152602360248201527f456c207573756172696f206e6f207469656e652061636365736f2074656d706f6044820152621c985b60ea1b606482015260840162000366565b505b6040517f803a56ec0000000000000000000000000000000000000000000000000000000081523360048201526001600160a01b0385169063803a56ec90602401600060405180830381600087803b1580156200087557600080fd5b505af11580156200088a573d6000803e3d6000fd5b50506040517f045c7bbe0000000000000000000000000000000000000000000000000000000081524260048201526001600160a01b038716925063045c7bbe9150602401600060405180830381600087803b158015620008e957600080fd5b505af1158015620008fe573d6000803e3d6000fd5b5050505060006200096e86866001600160a01b03166344517a9a6040518163ffffffff1660e01b8152600401602060405180830381865afa15801562000948573d6000803e3d6000fd5b505050506040513d601f19601f820116820180604052508101906200024691906200276e565b90506001600160a01b03851663d0e0ba956200098c836001620027a4565b6040518263ffffffff1660e01b8152600401620009ab91815260200190565b600060405180830381600087803b158015620009c657600080fd5b505af1158015620009db573d6000803e3d6000fd5b5050600354604051637da8f6a560e01b81526001600160a01b038a81166004830152600094509091169150637da8f6a5906024016020604051808303816000875af115801562000a2f573d6000803e3d6000fd5b505050506040513d601f19601f8201168201806040525081019062000a55919062002632565b6040517f86fcb1a30000000000000000000000000000000000000000000000000000000081526001600160a01b038881166004830152919250908216906386fcb1a390602401600060405180830381600087803b15801562000ab657600080fd5b505af115801562000acb573d6000803e3d6000fd5b50505050866001600160a01b0316336001600160a01b03167f2305b4d7254afedccc172eda137cb6ee4f47285b80d85d258a7411b9f61845c960405162000b439060208082526017908201527f4e7565766f20726567697374726f20616772656761646f000000000000000000604082015260600190565b60405180910390a350505050505050565b6000546001600160a01b0316331462000be05760405162461bcd60e51b815260206004820152604160248201527f457374612066756e63696f6e20736f6c6f2070756564652073657220656a656360448201527f757461646120706f7220656c2063726561646f722064656c20636f6e747261746064820152606f60f81b608482015260a40162000366565b6002805473ffffffffffffffffffffffffffffffffffffffff19166001600160a01b0392909216919091179055565b6001546040516336a664e960e11b815233600482015260116024820181905260609290916000916001600160a01b031690636d4cc9d2906044016020604051808303816000875af115801562000c69573d6000803e3d6000fd5b505050506040513d601f19601f8201168201806040525081019062000c8f919062002546565b90508062000c9d836200227a565b60405160200162000caf919062002590565b6040516020818303038152906040529062000cdf5760405162461bcd60e51b8152600401620003669190620025fd565b50846001600160a01b038116331462000dcb5760025460405163af2ffc3360e01b81526001600160a01b038381166004830152336024830152600092169063af2ffc33906044016020604051808303816000875af115801562000d46573d6000803e3d6000fd5b505050506040513d601f19601f8201168201806040525081019062000d6c919062002546565b90508062000dc95760405162461bcd60e51b815260206004820152602360248201527f456c207573756172696f206e6f207469656e652061636365736f2074656d706f6044820152621c985b60ea1b606482015260840162000366565b505b600354604051637da8f6a560e01b81526001600160a01b0388811660048301526000921690637da8f6a5906024016020604051808303816000875af115801562000e19573d6000803e3d6000fd5b505050506040513d601f19601f8201168201806040525081019062000e3f919062002632565b9050806001600160a01b031663940422a96040518163ffffffff1660e01b8152600401600060405180830381865afa15801562000e80573d6000803e3d6000fd5b505050506040513d6000823e601f3d908101601f1916820160405262000eaa919081019062002698565b979650505050505050565b6001546040516336a664e960e11b8152336004820152600d60248201819052916000916001600160a01b0390911690636d4cc9d2906044016020604051808303816000875af115801562000f0d573d6000803e3d6000fd5b505050506040513d601f19601f8201168201806040525081019062000f33919062002546565b90508062000f41836200227a565b60405160200162000f53919062002590565b6040516020818303038152906040529062000f835760405162461bcd60e51b8152600401620003669190620025fd565b506002546040517f3de2d76d0000000000000000000000000000000000000000000000000000000081523360048201526000916001600160a01b031690633de2d76d906024016020604051808303816000875af115801562000fe9573d6000803e3d6000fd5b505050506040513d601f19601f820116820180604052508101906200100f919062002546565b905080620010865760405162461bcd60e51b815260206004820152603860248201527f456c207573756172696f206e6f20657320756e206d656469636f20616374697660448201527f6f20656e20656c2073697374656d61206e6163696f6e616c0000000000000000606482015260840162000366565b60006040516200109690620023c7565b604051809103906000f080158015620010b3573d6000803e3d6000fd5b50600480546040517f1c9f4259000000000000000000000000000000000000000000000000000000008152600092810183905292935090916001600160a01b0390911690631c9f425990602401602060405180830381865afa1580156200111e573d6000803e3d6000fd5b505050506040513d601f19601f8201168201806040525081019062001144919062002632565b6040517fef974e800000000000000000000000000000000000000000000000000000000081526001600160a01b0380831660048301529192509083169063ef974e8090602401600060405180830381600087803b158015620011a557600080fd5b505af1158015620011ba573d6000803e3d6000fd5b50506003546040517fbe381c590000000000000000000000000000000000000000000000000000000081526001600160a01b038a811660048301528681166024830152909116925063be381c599150604401600060405180830381600087803b1580156200122757600080fd5b505af11580156200123c573d6000803e3d6000fd5b50505050856001600160a01b0316336001600160a01b03167fc76fdf14cc356a6ec2a75fffb77dc1b2e87fb230b3f78a651b32b07605dc3450604051620012b49060208082526019908201527f486973746f72696120636c696e69636120616374697661646100000000000000604082015260600190565b60405180910390a3505050505050565b6000546001600160a01b03163314620013505760405162461bcd60e51b815260206004820152604160248201527f457374612066756e63696f6e20736f6c6f2070756564652073657220656a656360448201527f757461646120706f7220656c2063726561646f722064656c20636f6e747261746064820152606f60f81b608482015260a40162000366565b6003805473ffffffffffffffffffffffffffffffffffffffff19166001600160a01b0392909216919091179055565b6000546001600160a01b031633146200140b5760405162461bcd60e51b815260206004820152604160248201527f457374612066756e63696f6e20736f6c6f2070756564652073657220656a656360448201527f757461646120706f7220656c2063726561646f722064656c20636f6e747261746064820152606f60f81b608482015260a40162000366565b6000546001600160a01b0316ff5b6001546040516336a664e960e11b815233600482015260126024820181905260609290916000916001600160a01b031690636d4cc9d2906044016020604051808303816000875af115801562001473573d6000803e3d6000fd5b505050506040513d601f19601f8201168201806040525081019062001499919062002546565b905080620014a7836200227a565b604051602001620014b9919062002590565b60405160208183030381529060405290620014e95760405162461bcd60e51b8152600401620003669190620025fd565b50846001600160a01b0381163314620015d55760025460405163af2ffc3360e01b81526001600160a01b038381166004830152336024830152600092169063af2ffc33906044016020604051808303816000875af115801562001550573d6000803e3d6000fd5b505050506040513d601f19601f8201168201806040525081019062001576919062002546565b905080620015d35760405162461bcd60e51b815260206004820152602360248201527f456c207573756172696f206e6f207469656e652061636365736f2074656d706f6044820152621c985b60ea1b606482015260840162000366565b505b600354604051637da8f6a560e01b81526001600160a01b0388811660048301526000921690637da8f6a5906024016020604051808303816000875af115801562001623573d6000803e3d6000fd5b505050506040513d601f19601f8201168201806040525081019062001649919062002632565b90506000816001600160a01b031663940422a96040518163ffffffff1660e01b8152600401600060405180830381865afa1580156200168c573d6000803e3d6000fd5b505050506040513d6000823e601f3d908101601f19168201604052620016b6919081019062002698565b905060008188604051620016ca90620023d5565b620016d7929190620027ba565b604051809103906000f080158015620016f4573d6000803e3d6000fd5b5090506000825167ffffffffffffffff81111562001716576200171662002652565b60405190808252806020026020018201604052801562001740578160200160208202803683370190505b509050600160005b81156200185657836001600160a01b031663f3638f786040518163ffffffff1660e01b81526004016020604051808303816000875af1925050508015620017ae575060408051601f3d908101601f19168201909252620017ab9181019062002632565b60015b620017f857620017bd620027fd565b806308c379a003620017ec5750620017d46200281a565b80620017e15750620017ee565b600092505062001748565b505b3d6000803e3d6000fd5b6001600160a01b0381166200181157600092506200184f565b8084838151811062001827576200182762002758565b6001600160a01b03909216602092830291909101909101526200184c826001620027a4565b91505b5062001748565b836001600160a01b0316639cb8a26a6040518163ffffffff1660e01b8152600401600060405180830381600087803b1580156200189257600080fd5b505af1158015620018a7573d6000803e3d6000fd5b50949e9d5050505050505050505050505050565b6001546040516336a664e960e11b8152336004820152601060248201819052916000916001600160a01b0390911690636d4cc9d2906044016020604051808303816000875af115801562001913573d6000803e3d6000fd5b505050506040513d601f19601f8201168201806040525081019062001939919062002546565b90508062001947836200227a565b60405160200162001959919062002590565b60405160208183030381529060405290620019895760405162461bcd60e51b8152600401620003669190620025fd565b50836001600160a01b038116331462001a755760025460405163af2ffc3360e01b81526001600160a01b038381166004830152336024830152600092169063af2ffc33906044016020604051808303816000875af1158015620019f0573d6000803e3d6000fd5b505050506040513d601f19601f8201168201806040525081019062001a16919062002546565b90508062001a735760405162461bcd60e51b815260206004820152602360248201527f456c207573756172696f206e6f207469656e652061636365736f2074656d706f6044820152621c985b60ea1b606482015260840162000366565b505b600354604051637da8f6a560e01b81526001600160a01b0387811660048301526000921690637da8f6a5906024016020604051808303816000875af115801562001ac3573d6000803e3d6000fd5b505050506040513d601f19601f8201168201806040525081019062001ae9919062002632565b6040517f9e087b40000000000000000000000000000000000000000000000000000000008152600481018790529091506001600160a01b03821690639e087b4090602401600060405180830381600087803b15801562001b4857600080fd5b505af115801562001b5d573d6000803e3d6000fd5b50505050505050505050565b6001546040516336a664e960e11b8152336004820152601260248201819052600092909183916001600160a01b031690636d4cc9d2906044016020604051808303816000875af115801562001bc2573d6000803e3d6000fd5b505050506040513d601f19601f8201168201806040525081019062001be8919062002546565b90508062001bf6836200227a565b60405160200162001c08919062002590565b6040516020818303038152906040529062001c385760405162461bcd60e51b8152600401620003669190620025fd565b50846001600160a01b038116331462001d245760025460405163af2ffc3360e01b81526001600160a01b038381166004830152336024830152600092169063af2ffc33906044016020604051808303816000875af115801562001c9f573d6000803e3d6000fd5b505050506040513d601f19601f8201168201806040525081019062001cc5919062002546565b90508062001d225760405162461bcd60e51b815260206004820152602360248201527f456c207573756172696f206e6f207469656e652061636365736f2074656d706f6044820152621c985b60ea1b606482015260840162000366565b505b600354604051637da8f6a560e01b81526001600160a01b0388811660048301526000921690637da8f6a5906024016020604051808303816000875af115801562001d72573d6000803e3d6000fd5b505050506040513d601f19601f8201168201806040525081019062001d98919062002632565b90506000816001600160a01b031663940422a96040518163ffffffff1660e01b8152600401600060405180830381865afa15801562001ddb573d6000803e3d6000fd5b505050506040513d6000823e601f3d908101601f1916820160405262001e05919081019062002698565b90506000818860405162001e1990620023d5565b62001e26929190620027ba565b604051809103906000f08015801562001e43573d6000803e3d6000fd5b509050600160005b811562001f1f57826001600160a01b031663f3638f786040518163ffffffff1660e01b81526004016020604051808303816000875af192505050801562001eb1575060408051601f3d908101601f1916820190925262001eae9181019062002632565b60015b62001eef5762001ec0620027fd565b806308c379a003620017ec575062001ed76200281a565b8062001ee45750620017ee565b600092505062001e4b565b6001600160a01b03811662001f08576000925062001f18565b62001f15826001620027a4565b91505b5062001e4b565b826001600160a01b0316639cb8a26a6040518163ffffffff1660e01b8152600401600060405180830381600087803b15801562001f5b57600080fd5b505af115801562001f70573d6000803e3d6000fd5b50929d9c50505050505050505050505050565b60408051808201825260008082526020820181905260015492516336a664e960e11b8152336004820152600c6024820181905292936001600160a01b031690636d4cc9d2906044016020604051808303816000875af115801562001feb573d6000803e3d6000fd5b505050506040513d601f19601f8201168201806040525081019062002011919062002546565b9050806200201f836200227a565b60405160200162002031919062002590565b60405160208183030381529060405290620020615760405162461bcd60e51b8152600401620003669190620025fd565b50600354604051637da8f6a560e01b81526001600160a01b03868116600483015290911690637da8f6a5906024016020604051808303816000875af1158015620020af573d6000803e3d6000fd5b505050506040513d601f19601f82011682018060405250810190620020d5919062002632565b6001600160a01b03166375a295d96040518163ffffffff1660e01b81526004016040805180830381865afa15801562002112573d6000803e3d6000fd5b505050506040513d601f19601f82011682018060405250810190620021389190620028aa565b949350505050565b6000546001600160a01b03163314620021cc5760405162461bcd60e51b815260206004820152604160248201527f457374612066756e63696f6e20736f6c6f2070756564652073657220656a656360448201527f757461646120706f7220656c2063726561646f722064656c20636f6e747261746064820152606f60f81b608482015260a40162000366565b6004805473ffffffffffffffffffffffffffffffffffffffff19166001600160a01b0392909216919091179055565b6001546040516336a664e960e11b8152336004820152602481018390526000916001600160a01b031690636d4cc9d2906044016020604051808303816000875af11580156200224e573d6000803e3d6000fd5b505050506040513d601f19601f8201168201806040525081019062002274919062002546565b92915050565b606081600003620022be57505060408051808201909152600181527f3000000000000000000000000000000000000000000000000000000000000000602082015290565b8160005b8115620022ee5780620022d581620028fd565b9150620022e69050600a836200292f565b9150620022c2565b60008167ffffffffffffffff8111156200230c576200230c62002652565b6040519080825280601f01601f19166020018201604052801562002337576020820181803683370190505b5090505b841562002138576200234f60018362002946565b91506200235e600a866200295c565b6200236b906030620027a4565b60f81b81838151811062002383576200238362002758565b60200101907effffffffffffffffffffffffffffffffffffffffffffffffffffffffffffff1916908160001a905350620023bf600a866200292f565b94506200233b565b610820806200297483390190565b6105a3806200319483390190565b6001600160a01b0381168114620023f957600080fd5b50565b6000602082840312156200240f57600080fd5b81356200241c81620023e3565b9392505050565b600080604083850312156200243757600080fd5b82356200244481620023e3565b946020939093013593505050565b600080604083850312156200246657600080fd5b82356200247381620023e3565b915060208301356200248581620023e3565b809150509250929050565b600081518084526020808501945080840160005b83811015620024cb5781516001600160a01b031687529582019590820190600101620024a4565b509495945050505050565b6020815260006200241c602083018462002490565b60138110620023f957600080fd5b600080604083850312156200250d57600080fd5b82356200251a81620023e3565b915060208301356200248581620024eb565b6000602082840312156200253f57600080fd5b5035919050565b6000602082840312156200255957600080fd5b815180151581146200241c57600080fd5b60005b83811015620025875781810151838201526020016200256d565b50506000910152565b7f456c207573756172696f206e6f207469656e652061636365736f20706f72207281527f6f6c2061206c612066756e63696f6e3a20000000000000000000000000000000602082015260008251620025f08160318501602087016200256a565b9190910160310192915050565b60208152600082518060208401526200261e8160408501602087016200256a565b601f01601f19169190910160400192915050565b6000602082840312156200264557600080fd5b81516200241c81620023e3565b634e487b7160e01b600052604160045260246000fd5b601f8201601f1916810167ffffffffffffffff8111828210171562002691576200269162002652565b6040525050565b60006020808385031215620026ac57600080fd5b825167ffffffffffffffff80821115620026c557600080fd5b818501915085601f830112620026da57600080fd5b815181811115620026ef57620026ef62002652565b8060051b9150604051620027068584018262002668565b818152918301840191848101888411156200272057600080fd5b938501935b838510156200274c57845192506200273d83620023e3565b82815293850193850162002725565b50979650505050505050565b634e487b7160e01b600052603260045260246000fd5b6000602082840312156200278157600080fd5b81516200241c81620024eb565b634e487b7160e01b600052601160045260246000fd5b808201808211156200227457620022746200278e565b604081526000620027cf604083018562002490565b905060138310620027f057634e487b7160e01b600052602160045260246000fd5b8260208301529392505050565b600060033d1115620028175760046000803e5060005160e01c5b90565b600060443d1015620028295790565b6040516003193d81016004833e81513d67ffffffffffffffff81602484011181841117156200285a57505050505090565b8285019150815181811115620028735750505050505090565b843d87010160208285010111156200288e5750505050505090565b6200289f6020828601018762002668565b509095945050505050565b600060408284031215620028bd57600080fd5b6040516040810181811067ffffffffffffffff82111715620028e357620028e362002652565b604052825181526020928301519281019290925250919050565b6000600182016200291257620029126200278e565b5060010190565b634e487b7160e01b600052601260045260246000fd5b60008262002941576200294162002919565b500490565b818103818111156200227457620022746200278e565b6000826200296e576200296e62002919565b50069056fe608060405234801561001057600080fd5b50610800806100206000396000f3fe608060405234801561001057600080fd5b50600436106100be5760003560e01c8063940422a911610076578063d0e0ba951161005b578063d0e0ba9514610188578063ee65d3dd1461019b578063ef974e80146101ae57600080fd5b8063940422a9146101605780639e087b401461017557600080fd5b80636d07d7e3116100a75780636d07d7e31461010f57806375a295d91461012a57806386fcb1a31461014d57600080fd5b80632bcdc617146100c35780635d1ca631146100f9575b600080fd5b6100f76100d136600461057b565b9051600055600280546001600160a01b0319166001600160a01b03909216919091179055565b005b6000546040519081526020015b60405180910390f35b6002546040516001600160a01b039091168152602001610106565b6101326101de565b60408051825181526020928301519281019290925201610106565b6100f761015b3660046105ee565b610283565b61016861034c565b6040516101069190610612565b6100f761018336600461065f565b6103ae565b6100f761019636600461065f565b600055565b6100f76101a9366004610678565b61048b565b6100f76101bc3660046105ee565b600280546001600160a01b0319166001600160a01b0392909216919091179055565b604080518082019091526000808252602082015260405180604001604052806000548152602001600260009054906101000a90046001600160a01b03166001600160a01b0316635d1ca6316040518163ffffffff1660e01b8152600401602060405180830381865afa158015610258573d6000803e3d6000fd5b505050506040513d601f19601f8201168201806040525081019061027c919061072a565b9052919050565b6001546040517fd0e0ba95000000000000000000000000000000000000000000000000000000008152600481018290526001600160a01b0383169063d0e0ba9590602401600060405180830381600087803b1580156102e157600080fd5b505af11580156102f5573d6000803e3d6000fd5b50506001805480820182556000919091527fb10e2d527612073b26eecdfd717e6a320cf44b4afac2b0732d9fcbe2b7fa0cf60180546001600160a01b0319166001600160a01b039590951694909417909355505050565b606060018054806020026020016040519081016040528092919081815260200182805480156103a457602002820191906000526020600020905b81546001600160a01b03168152600190910190602001808311610386575b5050505050905090565b60015481106103ba5750565b805b600180546103ca9190610759565b8110156104545760016103dd8282610772565b815481106103ed576103ed610785565b600091825260209091200154600180546001600160a01b03909216918390811061041957610419610785565b600091825260209091200180546001600160a01b0319166001600160a01b03929092169190911790558061044c8161079b565b9150506103bc565b506001805480610466576104666107b4565b600082815260209020810160001990810180546001600160a01b031916905501905550565b805161049e9060019060208401906104a2565b5050565b8280548282559060005260206000209081019282156104f7579160200282015b828111156104f757825182546001600160a01b0319166001600160a01b039091161782556020909201916001909101906104c2565b50610503929150610507565b5090565b5b808211156105035760008155600101610508565b634e487b7160e01b600052604160045260246000fd5b604051601f8201601f1916810167ffffffffffffffff8111828210171561055b5761055b61051c565b604052919050565b6001600160a01b038116811461057857600080fd5b50565b600080828403606081121561058f57600080fd5b604081121561059d57600080fd5b506040516040810181811067ffffffffffffffff821117156105c1576105c161051c565b604090815284358252602080860135908301529092508301356105e381610563565b809150509250929050565b60006020828403121561060057600080fd5b813561060b81610563565b9392505050565b6020808252825182820181905260009190848201906040850190845b818110156106535783516001600160a01b03168352928401929184019160010161062e565b50909695505050505050565b60006020828403121561067157600080fd5b5035919050565b6000602080838503121561068b57600080fd5b823567ffffffffffffffff808211156106a357600080fd5b818501915085601f8301126106b757600080fd5b8135818111156106c9576106c961051c565b8060051b91506106da848301610532565b81815291830184019184810190888411156106f457600080fd5b938501935b8385101561071e578435925061070e83610563565b82825293850193908501906106f9565b98975050505050505050565b60006020828403121561073c57600080fd5b5051919050565b634e487b7160e01b600052601160045260246000fd5b8181038181111561076c5761076c610743565b92915050565b8082018082111561076c5761076c610743565b634e487b7160e01b600052603260045260246000fd5b6000600182016107ad576107ad610743565b5060010190565b634e487b7160e01b600052603160045260246000fdfea2646970667358221220587954c328d203c8269f21f1b15c98d12ab84e563dbcab726f03e56c858c900464736f6c6343000811003360806040526000600355600060045534801561001a57600080fd5b506040516105a33803806105a38339810160408190526100399161014b565b600080546001600160a01b03191633179055815161005e906001906020850190610090565b506000805482919060ff60a01b1916600160a01b83601281111561008457610084610221565b02179055505050610237565b8280548282559060005260206000209081019282156100e5579160200282015b828111156100e557825182546001600160a01b0319166001600160a01b039091161782556020909201916001909101906100b0565b506100f19291506100f5565b5090565b5b808211156100f157600081556001016100f6565b634e487b7160e01b600052604160045260246000fd5b80516001600160a01b038116811461013757600080fd5b919050565b80516013811061013757600080fd5b6000806040838503121561015e57600080fd5b82516001600160401b038082111561017557600080fd5b818501915085601f83011261018957600080fd5b815160208282111561019d5761019d61010a565b8160051b604051601f19603f830116810181811086821117156101c2576101c261010a565b6040529283528183019350848101820192898411156101e057600080fd5b948201945b83861015610205576101f686610120565b855294820194938201936101e5565b9650610214905087820161013c565b9450505050509250929050565b634e487b7160e01b600052602160045260246000fd5b61035d806102466000396000f3fe608060405234801561001057600080fd5b506004361061004c5760003560e01c806392ebdcd2146100515780639cb8a26a14610081578063f3638f781461008b578063fb045cc914610093575b600080fd5b600054610064906001600160a01b031681565b6040516001600160a01b0390911681526020015b60405180910390f35b6100896100ab565b005b6100646100b9565b61009b610174565b6040519015158152602001610078565b6000546001600160a01b0316ff5b60006100c3610174565b1561010e5760006001600454815481106100df576100df61028b565b6000918252602090912001546004546001600160a01b0390911691506101069060016102b7565b600355919050565b6040517f08c379a000000000000000000000000000000000000000000000000000000000815260206004820152601360248201527f4e6f2068617920756e207369677569656e746500000000000000000000000000604482015260640160405180910390fd5b6003546000905b6001548110156102835760005474010000000000000000000000000000000000000000900460ff1660128111156101b4576101b46102d0565b600182815481106101c7576101c761028b565b60009182526020918290200154604080517f44517a9a00000000000000000000000000000000000000000000000000000000815290516001600160a01b03909216926344517a9a926004808401938290030181865afa15801561022e573d6000803e3d6000fd5b505050506040513d601f19601f8201168201806040525081019061025291906102e6565b6012811115610263576102636102d0565b036102715760045550600190565b8061027b8161030e565b91505061017b565b600091505090565b634e487b7160e01b600052603260045260246000fd5b634e487b7160e01b600052601160045260246000fd5b808201808211156102ca576102ca6102a1565b92915050565b634e487b7160e01b600052602160045260246000fd5b6000602082840312156102f857600080fd5b81516013811061030757600080fd5b9392505050565b600060018201610320576103206102a1565b506001019056fea2646970667358221220ab7e3413d54aef67939edbf22203ce8e54adec8afe8e1298401435d98420eb3464736f6c63430008110033a26469706673582212207516c58d10d8802a7b4185d60d69bdd7071c915681045ff121d87d38c43c48af64736f6c63430008110033",
  "immutableReferences": {},
  "source": "// SPDX-License-Identifier: MIT\npragma solidity ^0.8.17;\n\nimport \"../models/historiaClinica/HistoriaClinicaVO.sol\";\nimport \"../persistence/HistoriaClinicaMapper.sol\";\nimport \"../persistence/DatosParametricosMapper.sol\";\nimport \"./IteradorHCE/FiltroTipoRegistroMedicoIterator.sol\";\nimport \"../utils/Modifiers.sol\";\n\n// import \"../persistence/HistoriaClinicaMapper.sol\";\n\ncontract HistoriaClinica is Modifiers {\n    HistoriaClinicaMapperInterface private historiaClinicaMapper;\n    DatosParametricosMapperInterface private datosParametricosMapper;\n\n    event ActivacionHCE(string data, address indexed generador, address indexed notificado);\n    event NuevoRegistro(string data, address indexed generador, address indexed notificado);\n\n    constructor() {\n        creador = msg.sender;\n    }\n\n    // TODO: Actualizar en enterprise\n    // TODO: Agregar validador de permiso por tiempo\n    function getHistoriaClinica(address direccion)\n        public\n        tieneAcceso(12)        \n        returns (HistoriaClinicaVO.HistoriaClinicaStruct memory)\n    {\n        return\n            historiaClinicaMapper\n                .consultar(direccion)\n                .getHistoriaClinicaStruct();\n    }\n\n    function inicializarHCE(address direccionPaciente) public tieneAcceso(13) esMedicoActivoModifier() {\n        HistoriaClinicaVO nuevaHistoriaClinica = new HistoriaClinicaVO();\n        // Llamar un estado del mapper de estados, y guardarlo\n        EstadoHCEVO estadoHCE = datosParametricosMapper.consultarEstadoHCEVO(0);\n        nuevaHistoriaClinica.setEstado(estadoHCE);\n        historiaClinicaMapper.guardar(direccionPaciente, nuevaHistoriaClinica);\n        emit ActivacionHCE(\"Historia clinica activada\", msg.sender, direccionPaciente);\n    }\n\n    function agregarRegistro(\n        address direccionPaciente,\n        RegistroMedico registroMedico\n    ) public tieneAcceso(14) tienePermisoDeAccesoTemporal(direccionPaciente) {\n        registroMedico.setCodPrestadorServicioDeSalud(msg.sender);\n        registroMedico.setFechaRegistro(int256(block.timestamp));\n        uint256 id = cantidadregistrosPorTipo(direccionPaciente,registroMedico.getTipoRegistroMedico());\n        registroMedico.setId(id+1);\n\n        HistoriaClinicaVO historiaClinica = historiaClinicaMapper.consultar(\n            direccionPaciente\n        );\n        historiaClinica.agregarRegistroMedico(registroMedico);\n        emit NuevoRegistro(\"Nuevo registro agregado\", msg.sender, direccionPaciente);\n    }\n\n    // TODO: Agregar validador de permiso por tiempo\n    function consultarRegistro(address direccionPaciente, uint256 idRegistro)\n        public\n        tieneAcceso(15) tienePermisoDeAccesoTemporal(direccionPaciente)\n        returns (RegistroMedico)\n    {\n        HistoriaClinicaVO historiaClinica = historiaClinicaMapper.consultar(\n            direccionPaciente\n        );\n        return historiaClinica.getListaRegistros()[idRegistro];\n    }\n\n    // TODO: Validar en enterprise architect\n    function eliminarRegistro(address direccionPaciente, uint256 idRegistro)\n        public\n        tieneAcceso(16) tienePermisoDeAccesoTemporal(direccionPaciente)\n    {\n        HistoriaClinicaVO historiaClinica = historiaClinicaMapper.consultar(\n            direccionPaciente\n        );\n        historiaClinica.eliminarRegistroMedico(idRegistro);\n    }\n\n    function registrosFiltradosPorFecha(\n        address direccionPaciente,\n        uint256 idRegistro\n    ) public tieneAcceso(17) tienePermisoDeAccesoTemporal(direccionPaciente) returns (RegistroMedico[] memory) {\n        HistoriaClinicaVO historiaClinica = historiaClinicaMapper.consultar(\n            direccionPaciente\n        );\n        return historiaClinica.getListaRegistros();\n    }\n\n    // TODO: Agregar modifier para saber si puede consultar o no\n    function registrosFiltradosPorTipo(\n        address direccionPaciente,\n        TipoRegistroMedico tipoRegistroMedico\n    ) public tieneAcceso(18) tienePermisoDeAccesoTemporal(direccionPaciente) returns (RegistroMedico[] memory) {\n        HistoriaClinicaVO historiaClinica = historiaClinicaMapper.consultar(\n            direccionPaciente\n        );\n        RegistroMedico[] memory listaDeRegistros = historiaClinica\n            .getListaRegistros();\n\n        FiltroTipoRegistroMedicoIterator filtro = new FiltroTipoRegistroMedicoIterator(\n                listaDeRegistros,\n                tipoRegistroMedico\n            );\n\n        RegistroMedico[]\n            memory listaDeRegistrosFiltrados = new RegistroMedico[](\n                listaDeRegistros.length\n            );\n\n        bool hayMasRegistros = true;\n        uint256 posicion = 0;\n        while (hayMasRegistros) {\n            try filtro.getNext() returns (RegistroMedico registro) {\n                if (address(registro) == address(0)) {\n                    hayMasRegistros = false;\n                } else {\n                    listaDeRegistrosFiltrados[posicion] = registro;\n                    posicion = posicion + 1;\n                }\n            } catch Error(string memory e) {\n                hayMasRegistros = false;\n            }\n        }\n        filtro.selfDestruct();\n        return listaDeRegistrosFiltrados;\n    }\n\n    function cantidadregistrosPorTipo(\n        address direccionPaciente,\n        TipoRegistroMedico tipoRegistroMedico\n    ) public tieneAcceso(18) tienePermisoDeAccesoTemporal(direccionPaciente) returns (uint256) {\n        HistoriaClinicaVO historiaClinica = historiaClinicaMapper.consultar(\n            direccionPaciente\n        );\n        RegistroMedico[] memory listaDeRegistros = historiaClinica\n            .getListaRegistros();\n\n        FiltroTipoRegistroMedicoIterator filtro = new FiltroTipoRegistroMedicoIterator(\n                listaDeRegistros,\n                tipoRegistroMedico\n            );\n\n        bool hayMasRegistros = true;\n        uint256 posicion = 0;\n        while (hayMasRegistros) {\n            try filtro.getNext() returns (RegistroMedico registro) {\n                if (address(registro) == address(0)) {\n                    hayMasRegistros = false;\n                } else {\n                    \n                    posicion = posicion + 1;\n                }\n            } catch Error(string memory e) {\n                hayMasRegistros = false;\n            }\n        }\n        filtro.selfDestruct();\n        return posicion;\n    }\n\n    function setHistoriaClinicaMapper(\n        HistoriaClinicaMapperInterface _historiaClinicaMapper\n    ) public esPropietario {\n        historiaClinicaMapper = _historiaClinicaMapper;\n    }\n\n    function setDatosParametricosMapper(\n        DatosParametricosMapperInterface _datosParametricosMapperAddress\n    ) public esPropietario {\n        datosParametricosMapper = _datosParametricosMapperAddress;\n    }\n\n    function selfDestruct() public esPropietario {\n        selfdestruct(payable(creador));\n    }\n}\n",
  "sourcePath": "/back/contracts/logica/HistoriaClinica.sol",
  "compiler": {
    "name": "solc",
    "version": "0.8.17+commit.8df45f5f.Emscripten.clang"
  },
  "schemaVersion": "3.4.11",
  "updatedAt": "2023-06-25T00:23:51.360Z",
  "networkType": "ethereum",
  "devdoc": {
    "kind": "dev",
    "methods": {},
    "version": 1
  },
  "userdoc": {
    "kind": "user",
    "methods": {},
    "version": 1
  }
}