{
  "contractName": "HistoriaClinica",
  "abi": [
    {
      "inputs": [],
      "stateMutability": "nonpayable",
      "type": "constructor"
    },
    {
      "inputs": [],
      "name": "creador",
      "outputs": [
        {
          "internalType": "address",
          "name": "",
          "type": "address"
        }
      ],
      "stateMutability": "view",
      "type": "function",
      "constant": true
    },
    {
      "inputs": [],
      "name": "getAcceso",
      "outputs": [
        {
          "internalType": "contract Acceso",
          "name": "",
          "type": "address"
        }
      ],
      "stateMutability": "view",
      "type": "function",
      "constant": true
    },
    {
      "inputs": [
        {
          "internalType": "contract Acceso",
          "name": "_accesoAddress",
          "type": "address"
        }
      ],
      "name": "setAcceso",
      "outputs": [],
      "stateMutability": "nonpayable",
      "type": "function"
    },
    {
      "inputs": [
        {
          "internalType": "contract AccesoHistoriaClinica",
          "name": "_accesoHistoriaClinicaAddress",
          "type": "address"
        }
      ],
      "name": "setAccesoHistoriaClinica",
      "outputs": [],
      "stateMutability": "nonpayable",
      "type": "function"
    },
    {
      "inputs": [
        {
          "internalType": "uint256",
          "name": "permisoId",
          "type": "uint256"
        }
      ],
      "name": "tieneAccesoFunc",
      "outputs": [
        {
          "internalType": "bool",
          "name": "",
          "type": "bool"
        }
      ],
      "stateMutability": "nonpayable",
      "type": "function"
    },
    {
      "inputs": [
        {
          "internalType": "address",
          "name": "direccion",
          "type": "address"
        }
      ],
      "name": "getHistoriaClinica",
      "outputs": [
        {
          "components": [
            {
              "internalType": "uint256",
              "name": "id",
              "type": "uint256"
            },
            {
              "internalType": "uint256",
              "name": "estadoId",
              "type": "uint256"
            }
          ],
          "internalType": "struct HistoriaClinicaVO.HistoriaClinicaStruct",
          "name": "",
          "type": "tuple"
        }
      ],
      "stateMutability": "nonpayable",
      "type": "function"
    },
    {
      "inputs": [
        {
          "internalType": "address",
          "name": "direccionPaciente",
          "type": "address"
        }
      ],
      "name": "inicializarHCE",
      "outputs": [],
      "stateMutability": "nonpayable",
      "type": "function"
    },
    {
      "inputs": [
        {
          "internalType": "address",
          "name": "direccionPaciente",
          "type": "address"
        },
        {
          "internalType": "contract RegistroMedico",
          "name": "registroMedico",
          "type": "address"
        }
      ],
      "name": "agregarRegistro",
      "outputs": [],
      "stateMutability": "nonpayable",
      "type": "function"
    },
    {
      "inputs": [
        {
          "internalType": "address",
          "name": "direccionPaciente",
          "type": "address"
        },
        {
          "internalType": "uint256",
          "name": "idRegistro",
          "type": "uint256"
        }
      ],
      "name": "consultarRegistro",
      "outputs": [
        {
          "internalType": "contract RegistroMedico",
          "name": "",
          "type": "address"
        }
      ],
      "stateMutability": "nonpayable",
      "type": "function"
    },
    {
      "inputs": [
        {
          "internalType": "address",
          "name": "direccionPaciente",
          "type": "address"
        },
        {
          "internalType": "uint256",
          "name": "idRegistro",
          "type": "uint256"
        }
      ],
      "name": "eliminarRegistro",
      "outputs": [],
      "stateMutability": "nonpayable",
      "type": "function"
    },
    {
      "inputs": [
        {
          "internalType": "address",
          "name": "direccionPaciente",
          "type": "address"
        },
        {
          "internalType": "uint256",
          "name": "idRegistro",
          "type": "uint256"
        }
      ],
      "name": "registrosFiltradosPorFecha",
      "outputs": [
        {
          "internalType": "contract RegistroMedico[]",
          "name": "",
          "type": "address[]"
        }
      ],
      "stateMutability": "nonpayable",
      "type": "function"
    },
    {
      "inputs": [
        {
          "internalType": "address",
          "name": "direccionPaciente",
          "type": "address"
        },
        {
          "internalType": "enum TipoRegistroMedico",
          "name": "tipoRegistroMedico",
          "type": "uint8"
        }
      ],
      "name": "registrosFiltradosPorTipo",
      "outputs": [
        {
          "internalType": "contract RegistroMedico[]",
          "name": "",
          "type": "address[]"
        }
      ],
      "stateMutability": "nonpayable",
      "type": "function"
    },
    {
      "inputs": [
        {
          "internalType": "contract HistoriaClinicaMapperInterface",
          "name": "_historiaClinicaMapper",
          "type": "address"
        }
      ],
      "name": "setHistoriaClinicaMapper",
      "outputs": [],
      "stateMutability": "nonpayable",
      "type": "function"
    },
    {
      "inputs": [
        {
          "internalType": "contract DatosParametricosMapperInterface",
          "name": "_datosParametricosMapperAddress",
          "type": "address"
        }
      ],
      "name": "setDatosParametricosMapper",
      "outputs": [],
      "stateMutability": "nonpayable",
      "type": "function"
    },
    {
      "inputs": [],
      "name": "selfDestruct",
      "outputs": [],
      "stateMutability": "nonpayable",
      "type": "function"
    }
  ],
  "bytecode": "0x608060405234801561001057600080fd5b50600080546001600160a01b031916331790556130b4806100326000396000f3fe60806040523480156200001157600080fd5b5060043610620001095760003560e01c80639437afc611620000a3578063c15d1357116200006e578063c15d13571462000229578063c204c17d146200025c578063d4a798661462000273578063fa7e054e146200029b57600080fd5b80639437afc614620001da5780639cb8a26a14620001f1578063a05ea27914620001fb578063b82b2980146200021257600080fd5b80634022d67211620000e45780634022d67214620001725780635218635a1462000189578063672481a214620001af57806392ebdcd214620001c657600080fd5b8063137d4722146200010e57806318058dcf14620001275780631b32fd4f146200015b575b600080fd5b620001256200011f36600462001d6f565b620002ad565b005b6200013e6200013836600462001d96565b6200036c565b6040516001600160a01b0390911681526020015b60405180910390f35b620001256200016c36600462001dc5565b6200062e565b620001256200018336600462001d6f565b620009c9565b620001a06200019a36600462001d96565b62000a84565b60405162000152919062001e49565b62000125620001c036600462001d6f565b62000d2a565b6000546200013e906001600160a01b031681565b62000125620001eb36600462001d6f565b62001087565b6200012562001142565b620001a06200020c36600462001e5e565b620011dc565b620001256200022336600462001d96565b6200167e565b620002406200023a36600462001d6f565b620018f6565b6040805182518152602092830151928101929092520162000152565b620001256200026d36600462001d6f565b62001ab3565b6200028a6200028436600462001e94565b62001b6e565b604051901515815260200162000152565b6001546001600160a01b03166200013e565b6000546001600160a01b031633146200033d5760405162461bcd60e51b815260206004820152604160248201527f457374612066756e63696f6e20736f6c6f2070756564652073657220656a656360448201527f757461646120706f7220656c2063726561646f722064656c20636f6e747261746064820152606f60f81b608482015260a4015b60405180910390fd5b6001805473ffffffffffffffffffffffffffffffffffffffff19166001600160a01b0392909216919091179055565b6001546040516336a664e960e11b8152336004820152600f60248201819052600092909183916001600160a01b031690636d4cc9d2906044016020604051808303816000875af1158015620003c5573d6000803e3d6000fd5b505050506040513d601f19601f82011682018060405250810190620003eb919062001eae565b905080620003f98362001bed565b6040516020016200040b919062001ef8565b604051602081830303815290604052906200043b5760405162461bcd60e51b815260040162000334919062001f65565b50846001600160a01b0381163314620005275760025460405163af2ffc3360e01b81526001600160a01b038381166004830152336024830152600092169063af2ffc33906044016020604051808303816000875af1158015620004a2573d6000803e3d6000fd5b505050506040513d601f19601f82011682018060405250810190620004c8919062001eae565b905080620005255760405162461bcd60e51b815260206004820152602360248201527f456c207573756172696f206e6f207469656e652061636365736f2074656d706f6044820152621c985b60ea1b606482015260840162000334565b505b600354604051637da8f6a560e01b81526001600160a01b0388811660048301526000921690637da8f6a5906024016020604051808303816000875af115801562000575573d6000803e3d6000fd5b505050506040513d601f19601f820116820180604052508101906200059b919062001f9a565b9050806001600160a01b031663940422a96040518163ffffffff1660e01b8152600401600060405180830381865afa158015620005dc573d6000803e3d6000fd5b505050506040513d6000823e601f3d908101601f1916820160405262000606919081019062002000565b86815181106200061a576200061a620020c0565b602002602001015194505050505092915050565b6001546040516336a664e960e11b8152336004820152600e60248201819052916000916001600160a01b0390911690636d4cc9d2906044016020604051808303816000875af115801562000686573d6000803e3d6000fd5b505050506040513d601f19601f82011682018060405250810190620006ac919062001eae565b905080620006ba8362001bed565b604051602001620006cc919062001ef8565b60405160208183030381529060405290620006fc5760405162461bcd60e51b815260040162000334919062001f65565b50836001600160a01b0381163314620007e85760025460405163af2ffc3360e01b81526001600160a01b038381166004830152336024830152600092169063af2ffc33906044016020604051808303816000875af115801562000763573d6000803e3d6000fd5b505050506040513d601f19601f8201168201806040525081019062000789919062001eae565b905080620007e65760405162461bcd60e51b815260206004820152602360248201527f456c207573756172696f206e6f207469656e652061636365736f2074656d706f6044820152621c985b60ea1b606482015260840162000334565b505b6040517f803a56ec0000000000000000000000000000000000000000000000000000000081523360048201526001600160a01b0385169063803a56ec90602401600060405180830381600087803b1580156200084357600080fd5b505af115801562000858573d6000803e3d6000fd5b50506040517f045c7bbe0000000000000000000000000000000000000000000000000000000081524260048201526001600160a01b038716925063045c7bbe9150602401600060405180830381600087803b158015620008b757600080fd5b505af1158015620008cc573d6000803e3d6000fd5b5050600354604051637da8f6a560e01b81526001600160a01b038981166004830152600094509091169150637da8f6a5906024016020604051808303816000875af115801562000920573d6000803e3d6000fd5b505050506040513d601f19601f8201168201806040525081019062000946919062001f9a565b6040517f86fcb1a30000000000000000000000000000000000000000000000000000000081526001600160a01b038781166004830152919250908216906386fcb1a3906024015b600060405180830381600087803b158015620009a857600080fd5b505af1158015620009bd573d6000803e3d6000fd5b50505050505050505050565b6000546001600160a01b0316331462000a555760405162461bcd60e51b815260206004820152604160248201527f457374612066756e63696f6e20736f6c6f2070756564652073657220656a656360448201527f757461646120706f7220656c2063726561646f722064656c20636f6e747261746064820152606f60f81b608482015260a40162000334565b6002805473ffffffffffffffffffffffffffffffffffffffff19166001600160a01b0392909216919091179055565b6001546040516336a664e960e11b815233600482015260116024820181905260609290916000916001600160a01b031690636d4cc9d2906044016020604051808303816000875af115801562000ade573d6000803e3d6000fd5b505050506040513d601f19601f8201168201806040525081019062000b04919062001eae565b90508062000b128362001bed565b60405160200162000b24919062001ef8565b6040516020818303038152906040529062000b545760405162461bcd60e51b815260040162000334919062001f65565b50846001600160a01b038116331462000c405760025460405163af2ffc3360e01b81526001600160a01b038381166004830152336024830152600092169063af2ffc33906044016020604051808303816000875af115801562000bbb573d6000803e3d6000fd5b505050506040513d601f19601f8201168201806040525081019062000be1919062001eae565b90508062000c3e5760405162461bcd60e51b815260206004820152602360248201527f456c207573756172696f206e6f207469656e652061636365736f2074656d706f6044820152621c985b60ea1b606482015260840162000334565b505b600354604051637da8f6a560e01b81526001600160a01b0388811660048301526000921690637da8f6a5906024016020604051808303816000875af115801562000c8e573d6000803e3d6000fd5b505050506040513d601f19601f8201168201806040525081019062000cb4919062001f9a565b9050806001600160a01b031663940422a96040518163ffffffff1660e01b8152600401600060405180830381865afa15801562000cf5573d6000803e3d6000fd5b505050506040513d6000823e601f3d908101601f1916820160405262000d1f919081019062002000565b979650505050505050565b6001546040516336a664e960e11b8152336004820152600d60248201819052916000916001600160a01b0390911690636d4cc9d2906044016020604051808303816000875af115801562000d82573d6000803e3d6000fd5b505050506040513d601f19601f8201168201806040525081019062000da8919062001eae565b90508062000db68362001bed565b60405160200162000dc8919062001ef8565b6040516020818303038152906040529062000df85760405162461bcd60e51b815260040162000334919062001f65565b506002546040517f3de2d76d0000000000000000000000000000000000000000000000000000000081523360048201526000916001600160a01b031690633de2d76d906024016020604051808303816000875af115801562000e5e573d6000803e3d6000fd5b505050506040513d601f19601f8201168201806040525081019062000e84919062001eae565b90508062000efb5760405162461bcd60e51b815260206004820152603860248201527f456c207573756172696f206e6f20657320756e206d656469636f20616374697660448201527f6f20656e20656c2073697374656d61206e6163696f6e616c0000000000000000606482015260840162000334565b600060405162000f0b9062001d3a565b604051809103906000f08015801562000f28573d6000803e3d6000fd5b50600480546040517f1c9f4259000000000000000000000000000000000000000000000000000000008152600092810183905292935090916001600160a01b0390911690631c9f425990602401602060405180830381865afa15801562000f93573d6000803e3d6000fd5b505050506040513d601f19601f8201168201806040525081019062000fb9919062001f9a565b6040517fef974e800000000000000000000000000000000000000000000000000000000081526001600160a01b0380831660048301529192509083169063ef974e8090602401600060405180830381600087803b1580156200101a57600080fd5b505af11580156200102f573d6000803e3d6000fd5b50506003546040517fbe381c590000000000000000000000000000000000000000000000000000000081526001600160a01b038a811660048301528681166024830152909116925063be381c5991506044016200098d565b6000546001600160a01b03163314620011135760405162461bcd60e51b815260206004820152604160248201527f457374612066756e63696f6e20736f6c6f2070756564652073657220656a656360448201527f757461646120706f7220656c2063726561646f722064656c20636f6e747261746064820152606f60f81b608482015260a40162000334565b6003805473ffffffffffffffffffffffffffffffffffffffff19166001600160a01b0392909216919091179055565b6000546001600160a01b03163314620011ce5760405162461bcd60e51b815260206004820152604160248201527f457374612066756e63696f6e20736f6c6f2070756564652073657220656a656360448201527f757461646120706f7220656c2063726561646f722064656c20636f6e747261746064820152606f60f81b608482015260a40162000334565b6000546001600160a01b0316ff5b6001546040516336a664e960e11b815233600482015260126024820181905260609290916000916001600160a01b031690636d4cc9d2906044016020604051808303816000875af115801562001236573d6000803e3d6000fd5b505050506040513d601f19601f820116820180604052508101906200125c919062001eae565b9050806200126a8362001bed565b6040516020016200127c919062001ef8565b60405160208183030381529060405290620012ac5760405162461bcd60e51b815260040162000334919062001f65565b50846001600160a01b0381163314620013985760025460405163af2ffc3360e01b81526001600160a01b038381166004830152336024830152600092169063af2ffc33906044016020604051808303816000875af115801562001313573d6000803e3d6000fd5b505050506040513d601f19601f8201168201806040525081019062001339919062001eae565b905080620013965760405162461bcd60e51b815260206004820152602360248201527f456c207573756172696f206e6f207469656e652061636365736f2074656d706f6044820152621c985b60ea1b606482015260840162000334565b505b600354604051637da8f6a560e01b81526001600160a01b0388811660048301526000921690637da8f6a5906024016020604051808303816000875af1158015620013e6573d6000803e3d6000fd5b505050506040513d601f19601f820116820180604052508101906200140c919062001f9a565b90506000816001600160a01b031663940422a96040518163ffffffff1660e01b8152600401600060405180830381865afa1580156200144f573d6000803e3d6000fd5b505050506040513d6000823e601f3d908101601f1916820160405262001479919081019062002000565b9050600081886040516200148d9062001d48565b6200149a929190620020d6565b604051809103906000f080158015620014b7573d6000803e3d6000fd5b5090506000825167ffffffffffffffff811115620014d957620014d962001fba565b60405190808252806020026020018201604052801562001503578160200160208202803683370190505b509050600160005b81156200161957836001600160a01b031663f3638f786040518163ffffffff1660e01b81526004016020604051808303816000875af192505050801562001571575060408051601f3d908101601f191682019092526200156e9181019062001f9a565b60015b620015bb576200158062002119565b806308c379a003620015af57506200159762002136565b80620015a45750620015b1565b60009250506200150b565b505b3d6000803e3d6000fd5b6001600160a01b038116620015d4576000925062001612565b80848381518110620015ea57620015ea620020c0565b6001600160a01b03909216602092830291909101909101526200160f826001620021dc565b91505b506200150b565b836001600160a01b0316639cb8a26a6040518163ffffffff1660e01b8152600401600060405180830381600087803b1580156200165557600080fd5b505af11580156200166a573d6000803e3d6000fd5b50949e9d5050505050505050505050505050565b6001546040516336a664e960e11b8152336004820152601060248201819052916000916001600160a01b0390911690636d4cc9d2906044016020604051808303816000875af1158015620016d6573d6000803e3d6000fd5b505050506040513d601f19601f82011682018060405250810190620016fc919062001eae565b9050806200170a8362001bed565b6040516020016200171c919062001ef8565b604051602081830303815290604052906200174c5760405162461bcd60e51b815260040162000334919062001f65565b50836001600160a01b0381163314620018385760025460405163af2ffc3360e01b81526001600160a01b038381166004830152336024830152600092169063af2ffc33906044016020604051808303816000875af1158015620017b3573d6000803e3d6000fd5b505050506040513d601f19601f82011682018060405250810190620017d9919062001eae565b905080620018365760405162461bcd60e51b815260206004820152602360248201527f456c207573756172696f206e6f207469656e652061636365736f2074656d706f6044820152621c985b60ea1b606482015260840162000334565b505b600354604051637da8f6a560e01b81526001600160a01b0387811660048301526000921690637da8f6a5906024016020604051808303816000875af115801562001886573d6000803e3d6000fd5b505050506040513d601f19601f82011682018060405250810190620018ac919062001f9a565b6040517f9e087b40000000000000000000000000000000000000000000000000000000008152600481018790529091506001600160a01b03821690639e087b40906024016200098d565b60408051808201825260008082526020820181905260015492516336a664e960e11b8152336004820152600c6024820181905292936001600160a01b031690636d4cc9d2906044016020604051808303816000875af11580156200195e573d6000803e3d6000fd5b505050506040513d601f19601f8201168201806040525081019062001984919062001eae565b905080620019928362001bed565b604051602001620019a4919062001ef8565b60405160208183030381529060405290620019d45760405162461bcd60e51b815260040162000334919062001f65565b50600354604051637da8f6a560e01b81526001600160a01b03868116600483015290911690637da8f6a5906024016020604051808303816000875af115801562001a22573d6000803e3d6000fd5b505050506040513d601f19601f8201168201806040525081019062001a48919062001f9a565b6001600160a01b03166375a295d96040518163ffffffff1660e01b81526004016040805180830381865afa15801562001a85573d6000803e3d6000fd5b505050506040513d601f19601f8201168201806040525081019062001aab9190620021f2565b949350505050565b6000546001600160a01b0316331462001b3f5760405162461bcd60e51b815260206004820152604160248201527f457374612066756e63696f6e20736f6c6f2070756564652073657220656a656360448201527f757461646120706f7220656c2063726561646f722064656c20636f6e747261746064820152606f60f81b608482015260a40162000334565b6004805473ffffffffffffffffffffffffffffffffffffffff19166001600160a01b0392909216919091179055565b6001546040516336a664e960e11b8152336004820152602481018390526000916001600160a01b031690636d4cc9d2906044016020604051808303816000875af115801562001bc1573d6000803e3d6000fd5b505050506040513d601f19601f8201168201806040525081019062001be7919062001eae565b92915050565b60608160000362001c3157505060408051808201909152600181527f3000000000000000000000000000000000000000000000000000000000000000602082015290565b8160005b811562001c61578062001c488162002245565b915062001c599050600a8362002277565b915062001c35565b60008167ffffffffffffffff81111562001c7f5762001c7f62001fba565b6040519080825280601f01601f19166020018201604052801562001caa576020820181803683370190505b5090505b841562001aab5762001cc26001836200228e565b915062001cd1600a86620022a4565b62001cde906030620021dc565b60f81b81838151811062001cf65762001cf6620020c0565b60200101907effffffffffffffffffffffffffffffffffffffffffffffffffffffffffffff1916908160001a90535062001d32600a8662002277565b945062001cae565b61082080620022bc83390190565b6105a38062002adc83390190565b6001600160a01b038116811462001d6c57600080fd5b50565b60006020828403121562001d8257600080fd5b813562001d8f8162001d56565b9392505050565b6000806040838503121562001daa57600080fd5b823562001db78162001d56565b946020939093013593505050565b6000806040838503121562001dd957600080fd5b823562001de68162001d56565b9150602083013562001df88162001d56565b809150509250929050565b600081518084526020808501945080840160005b8381101562001e3e5781516001600160a01b03168752958201959082019060010162001e17565b509495945050505050565b60208152600062001d8f602083018462001e03565b6000806040838503121562001e7257600080fd5b823562001e7f8162001d56565b915060208301356013811062001df857600080fd5b60006020828403121562001ea757600080fd5b5035919050565b60006020828403121562001ec157600080fd5b8151801515811462001d8f57600080fd5b60005b8381101562001eef57818101518382015260200162001ed5565b50506000910152565b7f456c207573756172696f206e6f207469656e652061636365736f20706f72207281527f6f6c2061206c612066756e63696f6e3a2000000000000000000000000000000060208201526000825162001f5881603185016020870162001ed2565b9190910160310192915050565b602081526000825180602084015262001f8681604085016020870162001ed2565b601f01601f19169190910160400192915050565b60006020828403121562001fad57600080fd5b815162001d8f8162001d56565b634e487b7160e01b600052604160045260246000fd5b601f8201601f1916810167ffffffffffffffff8111828210171562001ff95762001ff962001fba565b6040525050565b600060208083850312156200201457600080fd5b825167ffffffffffffffff808211156200202d57600080fd5b818501915085601f8301126200204257600080fd5b81518181111562002057576200205762001fba565b8060051b91506040516200206e8584018262001fd0565b818152918301840191848101888411156200208857600080fd5b938501935b83851015620020b45784519250620020a58362001d56565b8281529385019385016200208d565b50979650505050505050565b634e487b7160e01b600052603260045260246000fd5b604081526000620020eb604083018562001e03565b9050601383106200210c57634e487b7160e01b600052602160045260246000fd5b8260208301529392505050565b600060033d1115620021335760046000803e5060005160e01c5b90565b600060443d1015620021455790565b6040516003193d81016004833e81513d67ffffffffffffffff81602484011181841117156200217657505050505090565b82850191508151818111156200218f5750505050505090565b843d8701016020828501011115620021aa5750505050505090565b620021bb6020828601018762001fd0565b509095945050505050565b634e487b7160e01b600052601160045260246000fd5b8082018082111562001be75762001be7620021c6565b6000604082840312156200220557600080fd5b6040516040810181811067ffffffffffffffff821117156200222b576200222b62001fba565b604052825181526020928301519281019290925250919050565b6000600182016200225a576200225a620021c6565b5060010190565b634e487b7160e01b600052601260045260246000fd5b60008262002289576200228962002261565b500490565b8181038181111562001be75762001be7620021c6565b600082620022b657620022b662002261565b50069056fe608060405234801561001057600080fd5b50610800806100206000396000f3fe608060405234801561001057600080fd5b50600436106100be5760003560e01c8063940422a911610076578063d0e0ba951161005b578063d0e0ba9514610188578063ee65d3dd1461019b578063ef974e80146101ae57600080fd5b8063940422a9146101605780639e087b401461017557600080fd5b80636d07d7e3116100a75780636d07d7e31461010f57806375a295d91461012a57806386fcb1a31461014d57600080fd5b80632bcdc617146100c35780635d1ca631146100f9575b600080fd5b6100f76100d136600461057b565b9051600055600280546001600160a01b0319166001600160a01b03909216919091179055565b005b6000546040519081526020015b60405180910390f35b6002546040516001600160a01b039091168152602001610106565b6101326101de565b60408051825181526020928301519281019290925201610106565b6100f761015b3660046105ee565b610283565b61016861034c565b6040516101069190610612565b6100f761018336600461065f565b6103ae565b6100f761019636600461065f565b600055565b6100f76101a9366004610678565b61048b565b6100f76101bc3660046105ee565b600280546001600160a01b0319166001600160a01b0392909216919091179055565b604080518082019091526000808252602082015260405180604001604052806000548152602001600260009054906101000a90046001600160a01b03166001600160a01b0316635d1ca6316040518163ffffffff1660e01b8152600401602060405180830381865afa158015610258573d6000803e3d6000fd5b505050506040513d601f19601f8201168201806040525081019061027c919061072a565b9052919050565b6001546040517fd0e0ba95000000000000000000000000000000000000000000000000000000008152600481018290526001600160a01b0383169063d0e0ba9590602401600060405180830381600087803b1580156102e157600080fd5b505af11580156102f5573d6000803e3d6000fd5b50506001805480820182556000919091527fb10e2d527612073b26eecdfd717e6a320cf44b4afac2b0732d9fcbe2b7fa0cf60180546001600160a01b0319166001600160a01b039590951694909417909355505050565b606060018054806020026020016040519081016040528092919081815260200182805480156103a457602002820191906000526020600020905b81546001600160a01b03168152600190910190602001808311610386575b5050505050905090565b60015481106103ba5750565b805b600180546103ca9190610759565b8110156104545760016103dd8282610772565b815481106103ed576103ed610785565b600091825260209091200154600180546001600160a01b03909216918390811061041957610419610785565b600091825260209091200180546001600160a01b0319166001600160a01b03929092169190911790558061044c8161079b565b9150506103bc565b506001805480610466576104666107b4565b600082815260209020810160001990810180546001600160a01b031916905501905550565b805161049e9060019060208401906104a2565b5050565b8280548282559060005260206000209081019282156104f7579160200282015b828111156104f757825182546001600160a01b0319166001600160a01b039091161782556020909201916001909101906104c2565b50610503929150610507565b5090565b5b808211156105035760008155600101610508565b634e487b7160e01b600052604160045260246000fd5b604051601f8201601f1916810167ffffffffffffffff8111828210171561055b5761055b61051c565b604052919050565b6001600160a01b038116811461057857600080fd5b50565b600080828403606081121561058f57600080fd5b604081121561059d57600080fd5b506040516040810181811067ffffffffffffffff821117156105c1576105c161051c565b604090815284358252602080860135908301529092508301356105e381610563565b809150509250929050565b60006020828403121561060057600080fd5b813561060b81610563565b9392505050565b6020808252825182820181905260009190848201906040850190845b818110156106535783516001600160a01b03168352928401929184019160010161062e565b50909695505050505050565b60006020828403121561067157600080fd5b5035919050565b6000602080838503121561068b57600080fd5b823567ffffffffffffffff808211156106a357600080fd5b818501915085601f8301126106b757600080fd5b8135818111156106c9576106c961051c565b8060051b91506106da848301610532565b81815291830184019184810190888411156106f457600080fd5b938501935b8385101561071e578435925061070e83610563565b82825293850193908501906106f9565b98975050505050505050565b60006020828403121561073c57600080fd5b5051919050565b634e487b7160e01b600052601160045260246000fd5b8181038181111561076c5761076c610743565b92915050565b8082018082111561076c5761076c610743565b634e487b7160e01b600052603260045260246000fd5b6000600182016107ad576107ad610743565b5060010190565b634e487b7160e01b600052603160045260246000fdfea26469706673582212206d360005f3a9547a768d8f44bdcbdeb6836b9acc872252057b5b961ff2e3706c64736f6c6343000811003360806040526000600355600060045534801561001a57600080fd5b506040516105a33803806105a38339810160408190526100399161014b565b600080546001600160a01b03191633179055815161005e906001906020850190610090565b506000805482919060ff60a01b1916600160a01b83601281111561008457610084610221565b02179055505050610237565b8280548282559060005260206000209081019282156100e5579160200282015b828111156100e557825182546001600160a01b0319166001600160a01b039091161782556020909201916001909101906100b0565b506100f19291506100f5565b5090565b5b808211156100f157600081556001016100f6565b634e487b7160e01b600052604160045260246000fd5b80516001600160a01b038116811461013757600080fd5b919050565b80516013811061013757600080fd5b6000806040838503121561015e57600080fd5b82516001600160401b038082111561017557600080fd5b818501915085601f83011261018957600080fd5b815160208282111561019d5761019d61010a565b8160051b604051601f19603f830116810181811086821117156101c2576101c261010a565b6040529283528183019350848101820192898411156101e057600080fd5b948201945b83861015610205576101f686610120565b855294820194938201936101e5565b9650610214905087820161013c565b9450505050509250929050565b634e487b7160e01b600052602160045260246000fd5b61035d806102466000396000f3fe608060405234801561001057600080fd5b506004361061004c5760003560e01c806392ebdcd2146100515780639cb8a26a14610081578063f3638f781461008b578063fb045cc914610093575b600080fd5b600054610064906001600160a01b031681565b6040516001600160a01b0390911681526020015b60405180910390f35b6100896100ab565b005b6100646100b9565b61009b610174565b6040519015158152602001610078565b6000546001600160a01b0316ff5b60006100c3610174565b1561010e5760006001600454815481106100df576100df61028b565b6000918252602090912001546004546001600160a01b0390911691506101069060016102b7565b600355919050565b6040517f08c379a000000000000000000000000000000000000000000000000000000000815260206004820152601360248201527f4e6f2068617920756e207369677569656e746500000000000000000000000000604482015260640160405180910390fd5b6003546000905b6001548110156102835760005474010000000000000000000000000000000000000000900460ff1660128111156101b4576101b46102d0565b600182815481106101c7576101c761028b565b60009182526020918290200154604080517f44517a9a00000000000000000000000000000000000000000000000000000000815290516001600160a01b03909216926344517a9a926004808401938290030181865afa15801561022e573d6000803e3d6000fd5b505050506040513d601f19601f8201168201806040525081019061025291906102e6565b6012811115610263576102636102d0565b036102715760045550600190565b8061027b8161030e565b91505061017b565b600091505090565b634e487b7160e01b600052603260045260246000fd5b634e487b7160e01b600052601160045260246000fd5b808201808211156102ca576102ca6102a1565b92915050565b634e487b7160e01b600052602160045260246000fd5b6000602082840312156102f857600080fd5b81516013811061030757600080fd5b9392505050565b600060018201610320576103206102a1565b506001019056fea2646970667358221220ab7e3413d54aef67939edbf22203ce8e54adec8afe8e1298401435d98420eb3464736f6c63430008110033a26469706673582212209b59411876ee4974fbe33508256a30a95904a6a815c6c3f6044ad70e2734e1fc64736f6c63430008110033",
  "immutableReferences": {},
  "source": "// SPDX-License-Identifier: MIT\npragma solidity ^0.8.17;\n\nimport \"../models/historiaClinica/HistoriaClinicaVO.sol\";\nimport \"../persistence/HistoriaClinicaMapper.sol\";\nimport \"../persistence/DatosParametricosMapper.sol\";\nimport \"./IteradorHCE/FiltroTipoRegistroMedicoIterator.sol\";\nimport \"../utils/Modifiers.sol\";\n\n// import \"../persistence/HistoriaClinicaMapper.sol\";\n\ncontract HistoriaClinica is Modifiers {\n    HistoriaClinicaMapperInterface private historiaClinicaMapper;\n    DatosParametricosMapperInterface private datosParametricosMapper;\n\n    constructor() {\n        creador = msg.sender;\n    }\n\n    // TODO: Actualizar en enterprise\n    // TODO: Agregar validador de permiso por tiempo\n    function getHistoriaClinica(address direccion)\n        public\n        tieneAcceso(12)        \n        returns (HistoriaClinicaVO.HistoriaClinicaStruct memory)\n    {\n        return\n            historiaClinicaMapper\n                .consultar(direccion)\n                .getHistoriaClinicaStruct();\n    }\n\n    function inicializarHCE(address direccionPaciente) public tieneAcceso(13) esMedicoActivoModifier() {\n        HistoriaClinicaVO nuevaHistoriaClinica = new HistoriaClinicaVO();\n        // Llamar un estado del mapper de estados, y guardarlo\n        EstadoHCEVO estadoHCE = datosParametricosMapper.consultarEstadoHCEVO(0);\n        nuevaHistoriaClinica.setEstado(estadoHCE);\n        historiaClinicaMapper.guardar(direccionPaciente, nuevaHistoriaClinica);\n    }\n\n    function agregarRegistro(\n        address direccionPaciente,\n        RegistroMedico registroMedico\n    ) public tieneAcceso(14) tienePermisoDeAccesoTemporal(direccionPaciente) {\n        registroMedico.setCodPrestadorServicioDeSalud(msg.sender);\n        registroMedico.setFechaRegistro(int256(block.timestamp));\n        // TODO: Setear el tipo de registro mdico desde el front\n        // TODO: Falta definir el id\n        HistoriaClinicaVO historiaClinica = historiaClinicaMapper.consultar(\n            direccionPaciente\n        );\n        historiaClinica.agregarRegistroMedico(registroMedico);\n    }\n\n    // TODO: Agregar validador de permiso por tiempo\n    function consultarRegistro(address direccionPaciente, uint256 idRegistro)\n        public\n        tieneAcceso(15) tienePermisoDeAccesoTemporal(direccionPaciente)\n        returns (RegistroMedico)\n    {\n        HistoriaClinicaVO historiaClinica = historiaClinicaMapper.consultar(\n            direccionPaciente\n        );\n        return historiaClinica.getListaRegistros()[idRegistro];\n    }\n\n    // TODO: Validar en enterprise architect\n    function eliminarRegistro(address direccionPaciente, uint256 idRegistro)\n        public\n        tieneAcceso(16) tienePermisoDeAccesoTemporal(direccionPaciente)\n    {\n        HistoriaClinicaVO historiaClinica = historiaClinicaMapper.consultar(\n            direccionPaciente\n        );\n        historiaClinica.eliminarRegistroMedico(idRegistro);\n    }\n\n    function registrosFiltradosPorFecha(\n        address direccionPaciente,\n        uint256 idRegistro\n    ) public tieneAcceso(17) tienePermisoDeAccesoTemporal(direccionPaciente) returns (RegistroMedico[] memory) {\n        HistoriaClinicaVO historiaClinica = historiaClinicaMapper.consultar(\n            direccionPaciente\n        );\n        return historiaClinica.getListaRegistros();\n    }\n\n    // TODO: Agregar modifier para saber si puede consultar o no\n    function registrosFiltradosPorTipo(\n        address direccionPaciente,\n        TipoRegistroMedico tipoRegistroMedico\n    ) public tieneAcceso(18) tienePermisoDeAccesoTemporal(direccionPaciente) returns (RegistroMedico[] memory) {\n        HistoriaClinicaVO historiaClinica = historiaClinicaMapper.consultar(\n            direccionPaciente\n        );\n        RegistroMedico[] memory listaDeRegistros = historiaClinica\n            .getListaRegistros();\n\n        FiltroTipoRegistroMedicoIterator filtro = new FiltroTipoRegistroMedicoIterator(\n                listaDeRegistros,\n                tipoRegistroMedico\n            );\n\n        RegistroMedico[]\n            memory listaDeRegistrosFiltrados = new RegistroMedico[](\n                listaDeRegistros.length\n            );\n\n        bool hayMasRegistros = true;\n        uint256 posicion = 0;\n        while (hayMasRegistros) {\n            try filtro.getNext() returns (RegistroMedico registro) {\n                if (address(registro) == address(0)) {\n                    hayMasRegistros = false;\n                } else {\n                    listaDeRegistrosFiltrados[posicion] = registro;\n                    posicion = posicion + 1;\n                }\n            } catch Error(string memory e) {\n                hayMasRegistros = false;\n            }\n        }\n        filtro.selfDestruct();\n        return listaDeRegistrosFiltrados;\n    }\n\n    function setHistoriaClinicaMapper(\n        HistoriaClinicaMapperInterface _historiaClinicaMapper\n    ) public esPropietario {\n        historiaClinicaMapper = _historiaClinicaMapper;\n    }\n\n    function setDatosParametricosMapper(\n        DatosParametricosMapperInterface _datosParametricosMapperAddress\n    ) public esPropietario {\n        datosParametricosMapper = _datosParametricosMapperAddress;\n    }\n\n    function selfDestruct() public esPropietario {\n        selfdestruct(payable(creador));\n    }\n}\n",
  "sourcePath": "/back/contracts/logica/HistoriaClinica.sol",
  "compiler": {
    "name": "solc",
    "version": "0.8.17+commit.8df45f5f.Emscripten.clang"
  },
  "schemaVersion": "3.4.11",
  "updatedAt": "2023-05-03T04:14:42.591Z",
  "networkType": "ethereum",
  "devdoc": {
    "kind": "dev",
    "methods": {},
    "version": 1
  },
  "userdoc": {
    "kind": "user",
    "methods": {},
    "version": 1
  }
}