{
  "contractName": "HistoriaClinicaVO",
  "abi": [
    {
      "inputs": [],
      "name": "getHistoriaClinicaStruct",
      "outputs": [
        {
          "components": [
            {
              "internalType": "uint256",
              "name": "id",
              "type": "uint256"
            },
            {
              "internalType": "uint256",
              "name": "estadoId",
              "type": "uint256"
            }
          ],
          "internalType": "struct HistoriaClinicaVO.HistoriaClinicaStruct",
          "name": "",
          "type": "tuple"
        }
      ],
      "stateMutability": "view",
      "type": "function"
    },
    {
      "inputs": [
        {
          "components": [
            {
              "internalType": "uint256",
              "name": "id",
              "type": "uint256"
            },
            {
              "internalType": "uint256",
              "name": "estadoId",
              "type": "uint256"
            }
          ],
          "internalType": "struct HistoriaClinicaVO.HistoriaClinicaStruct",
          "name": "_historiaClinicaStruct",
          "type": "tuple"
        },
        {
          "internalType": "contract EstadoHCEVO",
          "name": "estadoHCEVO",
          "type": "address"
        }
      ],
      "name": "setValuesOfHistoriaClinicaStruct",
      "outputs": [],
      "stateMutability": "nonpayable",
      "type": "function"
    },
    {
      "inputs": [],
      "name": "getId",
      "outputs": [
        {
          "internalType": "uint256",
          "name": "",
          "type": "uint256"
        }
      ],
      "stateMutability": "view",
      "type": "function"
    },
    {
      "inputs": [],
      "name": "getListaRegistros",
      "outputs": [
        {
          "internalType": "contract RegistroMedico[]",
          "name": "",
          "type": "address[]"
        }
      ],
      "stateMutability": "view",
      "type": "function"
    },
    {
      "inputs": [],
      "name": "getEstado",
      "outputs": [
        {
          "internalType": "contract EstadoHCEVO",
          "name": "",
          "type": "address"
        }
      ],
      "stateMutability": "view",
      "type": "function"
    },
    {
      "inputs": [
        {
          "internalType": "uint256",
          "name": "_id",
          "type": "uint256"
        }
      ],
      "name": "setId",
      "outputs": [],
      "stateMutability": "nonpayable",
      "type": "function"
    },
    {
      "inputs": [
        {
          "internalType": "contract RegistroMedico[]",
          "name": "_listaRegistros",
          "type": "address[]"
        }
      ],
      "name": "setListaRegistros",
      "outputs": [],
      "stateMutability": "nonpayable",
      "type": "function"
    },
    {
      "inputs": [
        {
          "internalType": "contract RegistroMedico",
          "name": "_registro",
          "type": "address"
        }
      ],
      "name": "agregarRegistroMedico",
      "outputs": [],
      "stateMutability": "nonpayable",
      "type": "function"
    },
    {
      "inputs": [
        {
          "internalType": "uint256",
          "name": "index",
          "type": "uint256"
        }
      ],
      "name": "eliminarRegistroMedico",
      "outputs": [],
      "stateMutability": "nonpayable",
      "type": "function"
    },
    {
      "inputs": [
        {
          "internalType": "contract EstadoHCEVO",
          "name": "_estado",
          "type": "address"
        }
      ],
      "name": "setEstado",
      "outputs": [],
      "stateMutability": "nonpayable",
      "type": "function"
    }
  ],
  "bytecode": "0x608060405234801561001057600080fd5b50610800806100206000396000f3fe608060405234801561001057600080fd5b50600436106100be5760003560e01c8063940422a911610076578063d0e0ba951161005b578063d0e0ba9514610188578063ee65d3dd1461019b578063ef974e80146101ae57600080fd5b8063940422a9146101605780639e087b401461017557600080fd5b80636d07d7e3116100a75780636d07d7e31461010f57806375a295d91461012a57806386fcb1a31461014d57600080fd5b80632bcdc617146100c35780635d1ca631146100f9575b600080fd5b6100f76100d136600461057b565b9051600055600280546001600160a01b0319166001600160a01b03909216919091179055565b005b6000546040519081526020015b60405180910390f35b6002546040516001600160a01b039091168152602001610106565b6101326101de565b60408051825181526020928301519281019290925201610106565b6100f761015b3660046105ee565b610283565b61016861034c565b6040516101069190610612565b6100f761018336600461065f565b6103ae565b6100f761019636600461065f565b600055565b6100f76101a9366004610678565b61048b565b6100f76101bc3660046105ee565b600280546001600160a01b0319166001600160a01b0392909216919091179055565b604080518082019091526000808252602082015260405180604001604052806000548152602001600260009054906101000a90046001600160a01b03166001600160a01b0316635d1ca6316040518163ffffffff1660e01b8152600401602060405180830381865afa158015610258573d6000803e3d6000fd5b505050506040513d601f19601f8201168201806040525081019061027c919061072a565b9052919050565b6001546040517fd0e0ba95000000000000000000000000000000000000000000000000000000008152600481018290526001600160a01b0383169063d0e0ba9590602401600060405180830381600087803b1580156102e157600080fd5b505af11580156102f5573d6000803e3d6000fd5b50506001805480820182556000919091527fb10e2d527612073b26eecdfd717e6a320cf44b4afac2b0732d9fcbe2b7fa0cf60180546001600160a01b0319166001600160a01b039590951694909417909355505050565b606060018054806020026020016040519081016040528092919081815260200182805480156103a457602002820191906000526020600020905b81546001600160a01b03168152600190910190602001808311610386575b5050505050905090565b60015481106103ba5750565b805b600180546103ca9190610759565b8110156104545760016103dd8282610772565b815481106103ed576103ed610785565b600091825260209091200154600180546001600160a01b03909216918390811061041957610419610785565b600091825260209091200180546001600160a01b0319166001600160a01b03929092169190911790558061044c8161079b565b9150506103bc565b506001805480610466576104666107b4565b600082815260209020810160001990810180546001600160a01b031916905501905550565b805161049e9060019060208401906104a2565b5050565b8280548282559060005260206000209081019282156104f7579160200282015b828111156104f757825182546001600160a01b0319166001600160a01b039091161782556020909201916001909101906104c2565b50610503929150610507565b5090565b5b808211156105035760008155600101610508565b634e487b7160e01b600052604160045260246000fd5b604051601f8201601f1916810167ffffffffffffffff8111828210171561055b5761055b61051c565b604052919050565b6001600160a01b038116811461057857600080fd5b50565b600080828403606081121561058f57600080fd5b604081121561059d57600080fd5b506040516040810181811067ffffffffffffffff821117156105c1576105c161051c565b604090815284358252602080860135908301529092508301356105e381610563565b809150509250929050565b60006020828403121561060057600080fd5b813561060b81610563565b9392505050565b6020808252825182820181905260009190848201906040850190845b818110156106535783516001600160a01b03168352928401929184019160010161062e565b50909695505050505050565b60006020828403121561067157600080fd5b5035919050565b6000602080838503121561068b57600080fd5b823567ffffffffffffffff808211156106a357600080fd5b818501915085601f8301126106b757600080fd5b8135818111156106c9576106c961051c565b8060051b91506106da848301610532565b81815291830184019184810190888411156106f457600080fd5b938501935b8385101561071e578435925061070e83610563565b82825293850193908501906106f9565b98975050505050505050565b60006020828403121561073c57600080fd5b5051919050565b634e487b7160e01b600052601160045260246000fd5b8181038181111561076c5761076c610743565b92915050565b8082018082111561076c5761076c610743565b634e487b7160e01b600052603260045260246000fd5b6000600182016107ad576107ad610743565b5060010190565b634e487b7160e01b600052603160045260246000fdfea2646970667358221220587954c328d203c8269f21f1b15c98d12ab84e563dbcab726f03e56c858c900464736f6c63430008110033",
  "immutableReferences": {},
  "source": "// SPDX-License-Identifier: MIT \npragma solidity ^0.8.17;\n\nimport \"./RegistroMedico.sol\";\nimport \"../VOGenerales/EstadoHCEVO.sol\";\n\n//import \"./structsGenerales/DatosPersonalesStruct.sol\";\n\ncontract HistoriaClinicaVO {\n    uint256 private id;\n    RegistroMedico[] private listaRegistros;\n    EstadoHCEVO private estado;\n\n    struct HistoriaClinicaStruct {\n        uint256 id;\n        // RegistroMedico[] listaRegistros;\n        uint256 estadoId;\n    }\n\n    function getHistoriaClinicaStruct()\n        public\n        view\n        returns (HistoriaClinicaStruct memory)\n    {\n        return HistoriaClinicaStruct(id, estado.getId());\n    }\n\n    function setValuesOfHistoriaClinicaStruct(\n        HistoriaClinicaStruct memory _historiaClinicaStruct,\n        EstadoHCEVO estadoHCEVO\n    ) public {\n        id = _historiaClinicaStruct.id;\n        estado = estadoHCEVO;\n    }\n\n    function getId() public view returns (uint256) {\n        return id;\n    }\n\n    function getListaRegistros() public view returns (RegistroMedico[] memory) {\n        return listaRegistros;\n    }\n\n    function getEstado() public view returns (EstadoHCEVO) {\n        return estado;\n    }\n\n    function setId(uint256 _id) public {\n        id = _id;\n    }\n\n    function setListaRegistros(RegistroMedico[] memory _listaRegistros) public {\n        listaRegistros = _listaRegistros;\n    }\n\n    function agregarRegistroMedico(RegistroMedico _registro) public {\n        uint256 totalRegistros = listaRegistros.length;\n        _registro.setId(totalRegistros);\n        listaRegistros.push(_registro);\n        // TODO: Puede registrarse aqui tambien para un mapper de registros mdicos, lo que permitiria un analisis de todos los registros mdicos\n    }\n\n    function eliminarRegistroMedico(uint256 index) external {\n        if (index >= listaRegistros.length) return;\n\n        for (uint256 i = index; i < listaRegistros.length - 1; i++) {\n            listaRegistros[i] = listaRegistros[i + 1];\n        }\n        listaRegistros.pop();\n    }\n\n    function setEstado(EstadoHCEVO _estado) public {\n        estado = _estado;\n    }\n}\n",
  "sourcePath": "/back/contracts/models/historiaClinica/HistoriaClinicaVO.sol",
  "compiler": {
    "name": "solc",
    "version": "0.8.17+commit.8df45f5f.Emscripten.clang"
  },
  "schemaVersion": "3.4.11",
  "updatedAt": "2023-06-25T00:22:44.485Z",
  "devdoc": {
    "kind": "dev",
    "methods": {},
    "version": 1
  },
  "userdoc": {
    "kind": "user",
    "methods": {},
    "version": 1
  }
}