{
  "contractName": "HistoriaClinicaMapper",
  "abi": [
    {
      "inputs": [],
      "stateMutability": "nonpayable",
      "type": "constructor"
    },
    {
      "anonymous": false,
      "inputs": [
        {
          "indexed": false,
          "internalType": "string",
          "name": "data",
          "type": "string"
        }
      ],
      "name": "Log",
      "type": "event"
    },
    {
      "inputs": [],
      "name": "creador",
      "outputs": [
        {
          "internalType": "address",
          "name": "",
          "type": "address"
        }
      ],
      "stateMutability": "view",
      "type": "function",
      "constant": true
    },
    {
      "inputs": [
        {
          "internalType": "address",
          "name": "direccion",
          "type": "address"
        }
      ],
      "name": "consultar",
      "outputs": [
        {
          "internalType": "contract HistoriaClinicaVO",
          "name": "",
          "type": "address"
        }
      ],
      "stateMutability": "view",
      "type": "function",
      "constant": true
    },
    {
      "inputs": [
        {
          "internalType": "address",
          "name": "direccion",
          "type": "address"
        },
        {
          "internalType": "contract HistoriaClinicaVO",
          "name": "_historiaClinicaVO",
          "type": "address"
        }
      ],
      "name": "guardar",
      "outputs": [],
      "stateMutability": "nonpayable",
      "type": "function"
    },
    {
      "inputs": [
        {
          "internalType": "address",
          "name": "direccion",
          "type": "address"
        },
        {
          "internalType": "contract HistoriaClinicaVO",
          "name": "_historiaClinicaVO",
          "type": "address"
        }
      ],
      "name": "actualizar",
      "outputs": [],
      "stateMutability": "nonpayable",
      "type": "function"
    },
    {
      "inputs": [
        {
          "internalType": "uint256",
          "name": "id",
          "type": "uint256"
        }
      ],
      "name": "getPropietarioHistoriaClinica",
      "outputs": [
        {
          "internalType": "address",
          "name": "",
          "type": "address"
        }
      ],
      "stateMutability": "view",
      "type": "function",
      "constant": true
    },
    {
      "inputs": [
        {
          "internalType": "address",
          "name": "direccion",
          "type": "address"
        }
      ],
      "name": "getHistoriaClinicaId",
      "outputs": [
        {
          "internalType": "uint256",
          "name": "",
          "type": "uint256"
        }
      ],
      "stateMutability": "view",
      "type": "function",
      "constant": true
    },
    {
      "inputs": [],
      "name": "size",
      "outputs": [
        {
          "internalType": "uint256",
          "name": "",
          "type": "uint256"
        }
      ],
      "stateMutability": "view",
      "type": "function",
      "constant": true
    },
    {
      "inputs": [],
      "name": "selfDestruct",
      "outputs": [],
      "stateMutability": "nonpayable",
      "type": "function"
    }
  ],
  "bytecode": "0x608060405234801561001057600080fd5b50600080546001600160a01b0319163317905561077d806100326000396000f3fe608060405234801561001057600080fd5b50600436106100885760003560e01c80639cb8a26a1161005b5780639cb8a26a146100f7578063be381c59146100ff578063f08d543e14610112578063f98a5c901461012557600080fd5b80630da7d7a51461008d5780637da8f6a5146100a257806392ebdcd2146100d2578063949d225d146100e5575b600080fd5b6100a061009b366004610673565b610138565b005b6100b56100b03660046106ac565b610205565b6040516001600160a01b0390911681526020015b60405180910390f35b6000546100b5906001600160a01b031681565b6002545b6040519081526020016100c9565b6100a0610275565b6100a061010d366004610673565b610329565b6100b56101203660046106c9565b6104bb565b6100e96101333660046106ac565b61056a565b6001600160a01b03828116600090815260016020526040902054166101ca5760405162461bcd60e51b815260206004820152603960248201527f4e6f2065786973746520756e6120686973746f72696120636c696e696361207260448201527f65676973747261646120636f6e2065736520616464726573730000000000000060648201526084015b60405180910390fd5b6001600160a01b039182166000908152600160205260409020805473ffffffffffffffffffffffffffffffffffffffff191691909216179055565b6001600160a01b038082166000908152600160205260408120549091168061026f5760405162461bcd60e51b815260206004820152601e60248201527f4e6f206578697374652065736120686973746f72696120636c696e696361000060448201526064016101c1565b92915050565b6000546001600160a01b0316331461031b5760405162461bcd60e51b815260206004820152604160248201527f457374612066756e63696f6e20736f6c6f2070756564652073657220656a656360448201527f757461646120706f7220656c2063726561646f722064656c20636f6e7472617460648201527f6f00000000000000000000000000000000000000000000000000000000000000608482015260a4016101c1565b6000546001600160a01b0316ff5b6001600160a01b038281166000908152600160205260409020541615610444577fcf34ef537ac33ee1ac626ca1587a0a7e8e51561e5514f8cb36afa1c5102b3bab6040516103ce9060208082526039908201527f59612065786973746520756e6120686973746f72696120636c696e696361207260408201527f65676973747261646120636f6e20657365206164647265737300000000000000606082015260800190565b60405180910390a160405162461bcd60e51b815260206004820152603960248201527f59612065786973746520756e6120686973746f72696120636c696e696361207260448201527f65676973747261646120636f6e2065736520616464726573730000000000000060648201526084016101c1565b6001600160a01b039182166000818152600160208190526040822080549590941673ffffffffffffffffffffffffffffffffffffffff199586161790935560028054938401815590527f405787fa12a823e0f2b7631cc41b3ba8828b3321ca811111fa75cd3aa3bb5ace9091018054909216179055565b6000806001600160a01b0316600283815481106104da576104da6106e2565b6000918252602090912001546001600160a01b03160361053c5760405162461bcd60e51b815260206004820152601e60248201527f4e6f206578697374652065736120686973746f72696120636c696e696361000060448201526064016101c1565b6002828154811061054f5761054f6106e2565b6000918252602090912001546001600160a01b031692915050565b6040517f7da8f6a50000000000000000000000000000000000000000000000000000000081526001600160a01b038216600482015260009081903090637da8f6a590602401602060405180830381865afa1580156105cc573d6000803e3d6000fd5b505050506040513d601f19601f820116820180604052508101906105f09190610711565b9050806001600160a01b0316635d1ca6316040518163ffffffff1660e01b8152600401602060405180830381865afa158015610630573d6000803e3d6000fd5b505050506040513d601f19601f82011682018060405250810190610654919061072e565b9392505050565b6001600160a01b038116811461067057600080fd5b50565b6000806040838503121561068657600080fd5b82356106918161065b565b915060208301356106a18161065b565b809150509250929050565b6000602082840312156106be57600080fd5b81356106548161065b565b6000602082840312156106db57600080fd5b5035919050565b7f4e487b7100000000000000000000000000000000000000000000000000000000600052603260045260246000fd5b60006020828403121561072357600080fd5b81516106548161065b565b60006020828403121561074057600080fd5b505191905056fea2646970667358221220ddb5cd03ede2773eeef946751ffe73ee92de8ea95ac39a47230390adc9e9badf64736f6c63430008110033",
  "immutableReferences": {},
  "source": "// SPDX-License-Identifier: MIT\npragma solidity ^0.8.17;\n// import \"../logica/Persona.sol\";\nimport \"../models/historiaClinica/HistoriaClinicaVO.sol\";\nimport \"./HistoriaClinicaMapperInterface.sol\";\n\ncontract HistoriaClinicaMapper is HistoriaClinicaMapperInterface {\n    address public creador;\n\n    mapping(address => HistoriaClinicaVO) private historiasClinicas;\n    address[] private addressList; // NOTE Mapped Structs with Index\n\n    constructor() {\n        creador = msg.sender;\n    }\n\n    function consultar(address direccion)\n        external\n        view\n        returns (HistoriaClinicaVO)\n    {\n        HistoriaClinicaVO historiasClinica = historiasClinicas[direccion];\n        if (address(historiasClinica) == address(0)) {\n            revert(\"No existe esa historia clinica\");\n        }\n        return historiasClinica;\n    }\n\n    function guardar(address direccion, HistoriaClinicaVO _historiaClinicaVO)\n        public\n    {\n        if (address(historiasClinicas[direccion]) != address(0)) {\n            emit Log(\n                \"Ya existe una historia clinica registrada con ese address\"\n            );\n            revert(\"Ya existe una historia clinica registrada con ese address\");\n        }\n        historiasClinicas[direccion] = _historiaClinicaVO;\n        addressList.push(direccion);\n    }\n\n    function actualizar(address direccion, HistoriaClinicaVO _historiaClinicaVO)\n        public\n    {\n        if (address(historiasClinicas[direccion]) == address(0)) {\n            revert(\"No existe una historia clinica registrada con ese address\");\n        }\n        historiasClinicas[direccion] = _historiaClinicaVO;\n    }\n\n    function getPropietarioHistoriaClinica(uint256 id)\n        external view\n        returns (address)\n    {\n        if (address(addressList[id]) == address(0)) {\n            revert(\"No existe esa historia clinica\");\n        }\n        return addressList[id];\n    }\n\n    function getHistoriaClinicaId(address direccion) external view returns (uint256) {\n        HistoriaClinicaVO historiasClinica = this.consultar(direccion);\n        return historiasClinica.getId(); \n    }\n\n    function size() external view returns (uint256) {\n        return addressList.length;\n    }\n\n    modifier esPropietario() {\n        require(\n            msg.sender == creador,\n            \"Esta funcion solo puede ser ejecutada por el creador del contrato\"\n        );\n        _; // ac se ejecuta la funcin\n    }\n\n    function selfDestruct() public esPropietario {\n        selfdestruct(payable(creador));\n    }\n}\n",
  "sourcePath": "/back/contracts/persistence/HistoriaClinicaMapper.sol",
  "compiler": {
    "name": "solc",
    "version": "0.8.17+commit.8df45f5f.Emscripten.clang"
  },
  "schemaVersion": "3.4.11",
  "updatedAt": "2023-05-03T04:14:47.836Z",
  "networkType": "ethereum",
  "devdoc": {
    "kind": "dev",
    "methods": {},
    "version": 1
  },
  "userdoc": {
    "kind": "user",
    "methods": {},
    "version": 1
  }
}