{
  "contractName": "HospitalizacionVO",
  "abi": [
    {
      "inputs": [],
      "name": "creador",
      "outputs": [
        {
          "internalType": "address",
          "name": "",
          "type": "address"
        }
      ],
      "stateMutability": "view",
      "type": "function"
    },
    {
      "inputs": [],
      "name": "getCodPrestadorServicioDeSalud",
      "outputs": [
        {
          "internalType": "address",
          "name": "",
          "type": "address"
        }
      ],
      "stateMutability": "view",
      "type": "function"
    },
    {
      "inputs": [],
      "name": "getFechaRegistro",
      "outputs": [
        {
          "internalType": "int256",
          "name": "",
          "type": "int256"
        }
      ],
      "stateMutability": "view",
      "type": "function"
    },
    {
      "inputs": [],
      "name": "getId",
      "outputs": [
        {
          "internalType": "uint256",
          "name": "",
          "type": "uint256"
        }
      ],
      "stateMutability": "view",
      "type": "function"
    },
    {
      "inputs": [],
      "name": "getRegistroMedico",
      "outputs": [
        {
          "components": [
            {
              "internalType": "uint256",
              "name": "id",
              "type": "uint256"
            },
            {
              "internalType": "address",
              "name": "codPrestadorServicioDeSalud",
              "type": "address"
            },
            {
              "internalType": "int256",
              "name": "fechaRegistro",
              "type": "int256"
            },
            {
              "internalType": "enum TipoRegistroMedico",
              "name": "tipoRegistroMedico",
              "type": "uint8"
            }
          ],
          "internalType": "struct RegistroMedico.RegistroMedicoStruct",
          "name": "",
          "type": "tuple"
        }
      ],
      "stateMutability": "view",
      "type": "function"
    },
    {
      "inputs": [],
      "name": "getTipoRegistroMedico",
      "outputs": [
        {
          "internalType": "enum TipoRegistroMedico",
          "name": "",
          "type": "uint8"
        }
      ],
      "stateMutability": "view",
      "type": "function"
    },
    {
      "inputs": [],
      "name": "selfDestruct",
      "outputs": [],
      "stateMutability": "nonpayable",
      "type": "function"
    },
    {
      "inputs": [
        {
          "internalType": "address",
          "name": "_codPrestadorServicioDeSalud",
          "type": "address"
        }
      ],
      "name": "setCodPrestadorServicioDeSalud",
      "outputs": [],
      "stateMutability": "nonpayable",
      "type": "function"
    },
    {
      "inputs": [
        {
          "internalType": "int256",
          "name": "_fechaRegistro",
          "type": "int256"
        }
      ],
      "name": "setFechaRegistro",
      "outputs": [],
      "stateMutability": "nonpayable",
      "type": "function"
    },
    {
      "inputs": [
        {
          "internalType": "uint256",
          "name": "_id",
          "type": "uint256"
        }
      ],
      "name": "setId",
      "outputs": [],
      "stateMutability": "nonpayable",
      "type": "function"
    },
    {
      "inputs": [
        {
          "components": [
            {
              "internalType": "uint256",
              "name": "id",
              "type": "uint256"
            },
            {
              "internalType": "address",
              "name": "codPrestadorServicioDeSalud",
              "type": "address"
            },
            {
              "internalType": "int256",
              "name": "fechaRegistro",
              "type": "int256"
            },
            {
              "internalType": "enum TipoRegistroMedico",
              "name": "tipoRegistroMedico",
              "type": "uint8"
            }
          ],
          "internalType": "struct RegistroMedico.RegistroMedicoStruct",
          "name": "registro",
          "type": "tuple"
        }
      ],
      "name": "setRegistroMedico",
      "outputs": [],
      "stateMutability": "nonpayable",
      "type": "function"
    },
    {
      "inputs": [
        {
          "internalType": "enum TipoRegistroMedico",
          "name": "_tipoRegistroMedico",
          "type": "uint8"
        }
      ],
      "name": "setTipoRegistroMedico",
      "outputs": [],
      "stateMutability": "nonpayable",
      "type": "function"
    },
    {
      "inputs": [],
      "name": "getCausaExterna",
      "outputs": [
        {
          "internalType": "uint256",
          "name": "",
          "type": "uint256"
        }
      ],
      "stateMutability": "view",
      "type": "function"
    },
    {
      "inputs": [],
      "name": "getDiagnosticoIngreso",
      "outputs": [
        {
          "internalType": "string",
          "name": "",
          "type": "string"
        }
      ],
      "stateMutability": "view",
      "type": "function"
    },
    {
      "inputs": [],
      "name": "getViaDeIngreso",
      "outputs": [
        {
          "internalType": "uint256",
          "name": "",
          "type": "uint256"
        }
      ],
      "stateMutability": "view",
      "type": "function"
    },
    {
      "inputs": [],
      "name": "getFechaIngreso",
      "outputs": [
        {
          "internalType": "int256",
          "name": "",
          "type": "int256"
        }
      ],
      "stateMutability": "view",
      "type": "function"
    },
    {
      "inputs": [],
      "name": "getSalidaVivo",
      "outputs": [
        {
          "internalType": "bool",
          "name": "",
          "type": "bool"
        }
      ],
      "stateMutability": "view",
      "type": "function"
    },
    {
      "inputs": [],
      "name": "getDiagnosticoEgreso",
      "outputs": [
        {
          "internalType": "string",
          "name": "",
          "type": "string"
        }
      ],
      "stateMutability": "view",
      "type": "function"
    },
    {
      "inputs": [],
      "name": "getFechaEgreso",
      "outputs": [
        {
          "internalType": "int256",
          "name": "",
          "type": "int256"
        }
      ],
      "stateMutability": "view",
      "type": "function"
    },
    {
      "inputs": [],
      "name": "getComplicacion",
      "outputs": [
        {
          "internalType": "string",
          "name": "",
          "type": "string"
        }
      ],
      "stateMutability": "view",
      "type": "function"
    },
    {
      "inputs": [],
      "name": "getIncapacidad",
      "outputs": [
        {
          "components": [
            {
              "internalType": "uint256",
              "name": "dias",
              "type": "uint256"
            },
            {
              "internalType": "uint256",
              "name": "motivo",
              "type": "uint256"
            }
          ],
          "internalType": "struct IncapacidadStruct",
          "name": "",
          "type": "tuple"
        }
      ],
      "stateMutability": "view",
      "type": "function"
    },
    {
      "inputs": [],
      "name": "getHospitalizacionStruct",
      "outputs": [
        {
          "components": [
            {
              "internalType": "uint256",
              "name": "causaExterna",
              "type": "uint256"
            },
            {
              "internalType": "string",
              "name": "diagnosticoIngreso",
              "type": "string"
            },
            {
              "internalType": "uint256",
              "name": "viaDeIngreso",
              "type": "uint256"
            },
            {
              "internalType": "int256",
              "name": "fechaIngreso",
              "type": "int256"
            },
            {
              "internalType": "bool",
              "name": "salidaVivo",
              "type": "bool"
            },
            {
              "internalType": "string",
              "name": "diagnosticoEgreso",
              "type": "string"
            },
            {
              "internalType": "int256",
              "name": "fechaEgreso",
              "type": "int256"
            },
            {
              "internalType": "string",
              "name": "complicacion",
              "type": "string"
            },
            {
              "components": [
                {
                  "internalType": "uint256",
                  "name": "dias",
                  "type": "uint256"
                },
                {
                  "internalType": "uint256",
                  "name": "motivo",
                  "type": "uint256"
                }
              ],
              "internalType": "struct IncapacidadStruct",
              "name": "incapacidad",
              "type": "tuple"
            }
          ],
          "internalType": "struct HospitalizacionVO.HospitalizacionStruct",
          "name": "",
          "type": "tuple"
        }
      ],
      "stateMutability": "view",
      "type": "function"
    },
    {
      "inputs": [
        {
          "components": [
            {
              "internalType": "uint256",
              "name": "causaExterna",
              "type": "uint256"
            },
            {
              "internalType": "string",
              "name": "diagnosticoIngreso",
              "type": "string"
            },
            {
              "internalType": "uint256",
              "name": "viaDeIngreso",
              "type": "uint256"
            },
            {
              "internalType": "int256",
              "name": "fechaIngreso",
              "type": "int256"
            },
            {
              "internalType": "bool",
              "name": "salidaVivo",
              "type": "bool"
            },
            {
              "internalType": "string",
              "name": "diagnosticoEgreso",
              "type": "string"
            },
            {
              "internalType": "int256",
              "name": "fechaEgreso",
              "type": "int256"
            },
            {
              "internalType": "string",
              "name": "complicacion",
              "type": "string"
            },
            {
              "components": [
                {
                  "internalType": "uint256",
                  "name": "dias",
                  "type": "uint256"
                },
                {
                  "internalType": "uint256",
                  "name": "motivo",
                  "type": "uint256"
                }
              ],
              "internalType": "struct IncapacidadStruct",
              "name": "incapacidad",
              "type": "tuple"
            }
          ],
          "internalType": "struct HospitalizacionVO.HospitalizacionStruct",
          "name": "_hospitalizacionStruct",
          "type": "tuple"
        }
      ],
      "name": "setHospitalizacionStruct",
      "outputs": [],
      "stateMutability": "nonpayable",
      "type": "function"
    },
    {
      "inputs": [
        {
          "internalType": "uint256",
          "name": "_causaExterna",
          "type": "uint256"
        }
      ],
      "name": "setCausaExterna",
      "outputs": [],
      "stateMutability": "nonpayable",
      "type": "function"
    },
    {
      "inputs": [
        {
          "internalType": "string",
          "name": "_diagnosticoIngreso",
          "type": "string"
        }
      ],
      "name": "setDiagnosticoIngreso",
      "outputs": [],
      "stateMutability": "nonpayable",
      "type": "function"
    },
    {
      "inputs": [
        {
          "internalType": "uint256",
          "name": "_viaDeIngreso",
          "type": "uint256"
        }
      ],
      "name": "setViaDeIngreso",
      "outputs": [],
      "stateMutability": "nonpayable",
      "type": "function"
    },
    {
      "inputs": [
        {
          "internalType": "int256",
          "name": "_fechaIngreso",
          "type": "int256"
        }
      ],
      "name": "setFechaIngreso",
      "outputs": [],
      "stateMutability": "nonpayable",
      "type": "function"
    },
    {
      "inputs": [
        {
          "internalType": "bool",
          "name": "_salidaVivo",
          "type": "bool"
        }
      ],
      "name": "setSalidaVivo",
      "outputs": [],
      "stateMutability": "nonpayable",
      "type": "function"
    },
    {
      "inputs": [
        {
          "internalType": "string",
          "name": "_diagnosticoEgreso",
          "type": "string"
        }
      ],
      "name": "setDiagnosticoEgreso",
      "outputs": [],
      "stateMutability": "nonpayable",
      "type": "function"
    },
    {
      "inputs": [
        {
          "internalType": "int256",
          "name": "_fechaEgreso",
          "type": "int256"
        }
      ],
      "name": "setFechaEgreso",
      "outputs": [],
      "stateMutability": "nonpayable",
      "type": "function"
    },
    {
      "inputs": [
        {
          "internalType": "string",
          "name": "_complicacion",
          "type": "string"
        }
      ],
      "name": "setComplicacion",
      "outputs": [],
      "stateMutability": "nonpayable",
      "type": "function"
    },
    {
      "inputs": [
        {
          "components": [
            {
              "internalType": "uint256",
              "name": "dias",
              "type": "uint256"
            },
            {
              "internalType": "uint256",
              "name": "motivo",
              "type": "uint256"
            }
          ],
          "internalType": "struct IncapacidadStruct",
          "name": "_incapacidad",
          "type": "tuple"
        }
      ],
      "name": "setIncapacidad",
      "outputs": [],
      "stateMutability": "nonpayable",
      "type": "function"
    }
  ],
  "bytecode": "0x608060405234801561001057600080fd5b506004805460ff1916600817905561113e8061002d6000396000f3fe608060405234801561001057600080fd5b50600436106101f05760003560e01c8063803a56ec1161010f578063ce641da2116100a2578063e49d5d9f11610071578063e49d5d9f14610445578063e8c0ed091461044d578063eb98a31714610460578063ec2debc31461048157600080fd5b8063ce641da214610402578063d0e0ba951461040a578063dcc00db41461041d578063e03d2dc01461043057600080fd5b80639cb8a26a116100de5780639cb8a26a146103be578063b60b32b5146103c6578063ca3c5a13146103d9578063cbb9fa2b146103ec57600080fd5b8063803a56ec1461031057806385c0ec0d1461034d57806392ebdcd21461038257806393be08ef146103ad57600080fd5b80631c6ec895116101875780635d1ca631116101565780635d1ca631146102da5780635f3774d4146102e25780636e55d490146102f55780637c4124c21461030857600080fd5b80631c6ec895146102855780632eb620191461029857806344517a9a146102ab57806344f9206a146102be57600080fd5b80630c011738116101c35780630c011738146102505780630c0d33fd14610262578063147714d0146102755780631b59abb91461027d57600080fd5b8063045c7bbe146101f55780630587efce1461020a578063088bce341461021d5780630bcacc1b1461023b575b600080fd5b610208610203366004610a69565b600355565b005b610208610218366004610b4f565b610489565b610225610499565b6040516102329190610bd2565b60405180910390f35b61024361052d565b6040516102329190610c24565b6005545b604051908152602001610232565b610208610270366004610cca565b610582565b61022561061b565b600354610254565b610208610293366004610a69565b600555565b6102086102a6366004610a69565b600755565b60045460ff166040516102329190610dd0565b6102086102cc366004610de4565b8051600d5560200151600e55565b600154610254565b6102086102f0366004610e26565b61062d565b610208610303366004610b4f565b610699565b600754610254565b61020861031e366004610e95565b6002805473ffffffffffffffffffffffffffffffffffffffff19166001600160a01b0392909216919091179055565b60408051808201825260008082526020918201528151808301909252600d548252600e54908201526040516102329190610eb0565b600054610395906001600160a01b031681565b6040516001600160a01b039091168152602001610232565b6002546001600160a01b0316610395565b6102086106a5565b6102086103d4366004610a69565b600b55565b6102086103e7366004610ec7565b610777565b60095460ff166040519015158152602001610232565b610225610796565b610208610418366004610a69565b600155565b61020861042b366004610a69565b600855565b6104386107a8565b6040516102329190610ee2565b600b54610254565b61020861045b366004610b4f565b6109d2565b61020861046e366004610fa4565b6009805460ff1916911515919091179055565b600854610254565b60066104958282611048565b5050565b60606005800180546104aa90610fbf565b80601f01602080910402602001604051908101604052809291908181526020018280546104d690610fbf565b80156105235780601f106104f857610100808354040283529160200191610523565b820191906000526020600020905b81548152906001019060200180831161050657829003601f168201915b5050505050905090565b6105356109de565b6040805160808101825260015481526002546001600160a01b0316602082015260035491810191909152600454606082019060ff16601281111561057b5761057b610bec565b9052919050565b80516005908155602082015182919060069061059e9082611048565b506040820151600282015560608201516003820155608082015160048201805460ff191691151591909117905560a082015160058201906105df9082611048565b5060c0820151600682015560e082015160078201906105fe9082611048565b506101009190910151805160088301556020015160099091015550565b6060600560010180546104aa90610fbf565b8051600190815560208201516002805473ffffffffffffffffffffffffffffffffffffffff19166001600160a01b0390921691909117905560408201516003556060820151600480549192909160ff19169083601281111561069157610691610bec565b021790555050565b600a6104958282611048565b6000546001600160a01b03163314610769576040517f08c379a000000000000000000000000000000000000000000000000000000000815260206004820152604160248201527f457374612066756e63696f6e20736f6c6f2070756564652073657220656a656360448201527f757461646120706f7220656c2063726561646f722064656c20636f6e7472617460648201527f6f00000000000000000000000000000000000000000000000000000000000000608482015260a40160405180910390fd5b6000546001600160a01b0316ff5b6004805482919060ff1916600183601281111561069157610691610bec565b6060600560070180546104aa90610fbf565b6107b0610a06565b604080516101208101909152600580548252600680546020840191906107d590610fbf565b80601f016020809104026020016040519081016040528092919081815260200182805461080190610fbf565b801561084e5780601f106108235761010080835404028352916020019161084e565b820191906000526020600020905b81548152906001019060200180831161083157829003601f168201915b50505091835250506002820154602082015260038201546040820152600482015460ff161515606082015260058201805460809092019161088e90610fbf565b80601f01602080910402602001604051908101604052809291908181526020018280546108ba90610fbf565b80156109075780601f106108dc57610100808354040283529160200191610907565b820191906000526020600020905b8154815290600101906020018083116108ea57829003601f168201915b505050505081526020016006820154815260200160078201805461092a90610fbf565b80601f016020809104026020016040519081016040528092919081815260200182805461095690610fbf565b80156109a35780601f10610978576101008083540402835291602001916109a3565b820191906000526020600020905b81548152906001019060200180831161098657829003601f168201915b505050918352505060408051808201909152600883015481526009909201546020838101919091520152919050565b600c6104958282611048565b604080516080810182526000808252602082018190529181018290529060608201905b905290565b60405180610120016040528060008152602001606081526020016000815260200160008152602001600015158152602001606081526020016000815260200160608152602001610a01604051806040016040528060008152602001600081525090565b600060208284031215610a7b57600080fd5b5035919050565b634e487b7160e01b600052604160045260246000fd5b604051610120810167ffffffffffffffff81118282101715610abc57610abc610a82565b60405290565b600082601f830112610ad357600080fd5b813567ffffffffffffffff80821115610aee57610aee610a82565b604051601f8301601f19908116603f01168101908282118183101715610b1657610b16610a82565b81604052838152866020858801011115610b2f57600080fd5b836020870160208301376000602085830101528094505050505092915050565b600060208284031215610b6157600080fd5b813567ffffffffffffffff811115610b7857600080fd5b610b8484828501610ac2565b949350505050565b6000815180845260005b81811015610bb257602081850181015186830182015201610b96565b506000602082860101526020601f19601f83011685010191505092915050565b602081526000610be56020830184610b8c565b9392505050565b634e487b7160e01b600052602160045260246000fd5b60138110610c2057634e487b7160e01b600052602160045260246000fd5b9052565b6000608082019050825182526001600160a01b036020840151166020830152604083015160408301526060830151610c5f6060840182610c02565b5092915050565b80358015158114610c7657600080fd5b919050565b600060408284031215610c8d57600080fd5b6040516040810181811067ffffffffffffffff82111715610cb057610cb0610a82565b604052823581526020928301359281019290925250919050565b600060208284031215610cdc57600080fd5b813567ffffffffffffffff80821115610cf457600080fd5b908301906101408286031215610d0957600080fd5b610d11610a98565b82358152602083013582811115610d2757600080fd5b610d3387828601610ac2565b6020830152506040830135604082015260608301356060820152610d5960808401610c66565b608082015260a083013582811115610d7057600080fd5b610d7c87828601610ac2565b60a08301525060c083013560c082015260e083013582811115610d9e57600080fd5b610daa87828601610ac2565b60e0830152506101009150610dc186838501610c7b565b91810191909152949350505050565b60208101610dde8284610c02565b92915050565b600060408284031215610df657600080fd5b610be58383610c7b565b80356001600160a01b0381168114610c7657600080fd5b803560138110610c7657600080fd5b600060808284031215610e3857600080fd5b6040516080810181811067ffffffffffffffff82111715610e5b57610e5b610a82565b60405282358152610e6e60208401610e00565b602082015260408301356040820152610e8960608401610e17565b60608201529392505050565b600060208284031215610ea757600080fd5b610be582610e00565b815181526020808301519082015260408101610dde565b600060208284031215610ed957600080fd5b610be582610e17565b6020815281516020820152600060208301516101406040840152610f0a610160840182610b8c565b905060408401516060840152606084015160808401526080840151610f3360a085018215159052565b5060a0840151601f19808584030160c0860152610f508383610b8c565b925060c086015160e086015260e08601519150610100818685030181870152610f798484610b8c565b90870151805161012088015260208101516101408801529093509150610f9c9050565b509392505050565b600060208284031215610fb657600080fd5b610be582610c66565b600181811c90821680610fd357607f821691505b602082108103610ff357634e487b7160e01b600052602260045260246000fd5b50919050565b601f82111561104357600081815260208120601f850160051c810160208610156110205750805b601f850160051c820191505b8181101561103f5782815560010161102c565b5050505b505050565b815167ffffffffffffffff81111561106257611062610a82565b611076816110708454610fbf565b84610ff9565b602080601f8311600181146110ab57600084156110935750858301515b600019600386901b1c1916600185901b17855561103f565b600085815260208120601f198616915b828110156110da578886015182559484019460019091019084016110bb565b50858210156110f85787850151600019600388901b60f8161c191681555b5050505050600190811b0190555056fea264697066735822122040647b9fc72de28eb97fdfeae64badaf73b0db44c75c7c2b9894531a5b8d9adb64736f6c63430008110033",
  "immutableReferences": {},
  "source": "// SPDX-License-Identifier: MIT\npragma solidity ^0.8.17;\n\nimport \"./RegistroMedico.sol\";\nimport \"../structsGenerales/IncapacidadStruct.sol\";\n\ncontract HospitalizacionVO is RegistroMedico (TipoRegistroMedico.HOSPITALIZACIONVO) {\n    struct HospitalizacionStruct {\n        uint256 causaExterna;\n        string diagnosticoIngreso;\n        uint256 viaDeIngreso;\n        int256 fechaIngreso;\n        bool salidaVivo; \n        string diagnosticoEgreso; // TODO quiz deba ser diagnostico salida\n        int256 fechaEgreso;\n        string complicacion;\n        IncapacidadStruct incapacidad;\n    }\n\n    HospitalizacionStruct private hospitalizacionStruct;\n\n    function getCausaExterna() public view returns (uint256) {\n        return hospitalizacionStruct.causaExterna;\n    }\n\n    function getDiagnosticoIngreso() public view returns (string memory) {\n        return hospitalizacionStruct.diagnosticoIngreso;\n    }\n\n    function getViaDeIngreso() public view returns (uint256) {\n        return hospitalizacionStruct.viaDeIngreso;\n    }\n\n    function getFechaIngreso() public view returns (int256) {\n        return hospitalizacionStruct.fechaIngreso;\n    }\n\n    function getSalidaVivo() public view returns (bool) {\n        return hospitalizacionStruct.salidaVivo;\n    }\n\n    function getDiagnosticoEgreso() public view returns (string memory) {\n        return hospitalizacionStruct.diagnosticoEgreso;\n    }\n\n    function getFechaEgreso() public view returns (int256) {\n        return hospitalizacionStruct.fechaEgreso;\n    }\n\n    function getComplicacion() public view returns (string memory) {\n        return hospitalizacionStruct.complicacion;\n    }\n\n    function getIncapacidad() public view returns (IncapacidadStruct memory) {\n        return hospitalizacionStruct.incapacidad;\n    }\n\n    function getHospitalizacionStruct()\n        public\n        view\n        returns (HospitalizacionStruct memory)\n    {\n        return hospitalizacionStruct;\n    }\n\n    function setHospitalizacionStruct(\n        HospitalizacionStruct memory _hospitalizacionStruct\n    ) public {\n        hospitalizacionStruct = _hospitalizacionStruct;\n    }\n\n    function setCausaExterna(uint256 _causaExterna) public {\n        hospitalizacionStruct.causaExterna = _causaExterna;\n    }\n\n    function setDiagnosticoIngreso(string memory _diagnosticoIngreso) public {\n        hospitalizacionStruct.diagnosticoIngreso = _diagnosticoIngreso;\n    }\n\n    function setViaDeIngreso(uint256 _viaDeIngreso) public {\n        hospitalizacionStruct.viaDeIngreso = _viaDeIngreso;\n    }\n\n    function setFechaIngreso(int256 _fechaIngreso) public {\n        hospitalizacionStruct.fechaIngreso = _fechaIngreso;\n    }\n\n    function setSalidaVivo(bool _salidaVivo) public {\n        hospitalizacionStruct.salidaVivo = _salidaVivo;\n    }\n\n    function setDiagnosticoEgreso(string memory _diagnosticoEgreso) public {\n        hospitalizacionStruct.diagnosticoEgreso = _diagnosticoEgreso;\n    }\n\n    function setFechaEgreso(int256 _fechaEgreso) public {\n        hospitalizacionStruct.fechaEgreso = _fechaEgreso;\n    }\n\n    function setComplicacion(string memory _complicacion) public {\n        hospitalizacionStruct.complicacion = _complicacion;\n    }\n\n    function setIncapacidad(IncapacidadStruct memory _incapacidad) public {\n        hospitalizacionStruct.incapacidad = _incapacidad;\n    }\n}\n",
  "sourcePath": "/back/contracts/models/historiaClinica/HospitalizacionVO.sol",
  "compiler": {
    "name": "solc",
    "version": "0.8.17+commit.8df45f5f.Emscripten.clang"
  },
  "schemaVersion": "3.4.13",
  "updatedAt": "2023-05-03T22:18:40.897Z",
  "devdoc": {
    "kind": "dev",
    "methods": {},
    "version": 1
  },
  "userdoc": {
    "kind": "user",
    "methods": {},
    "version": 1
  }
}