{
  "contractName": "InmunizacionVO",
  "abi": [
    {
      "inputs": [],
      "name": "creador",
      "outputs": [
        {
          "internalType": "address",
          "name": "",
          "type": "address"
        }
      ],
      "stateMutability": "view",
      "type": "function"
    },
    {
      "inputs": [],
      "name": "getCodPrestadorServicioDeSalud",
      "outputs": [
        {
          "internalType": "address",
          "name": "",
          "type": "address"
        }
      ],
      "stateMutability": "view",
      "type": "function"
    },
    {
      "inputs": [],
      "name": "getFechaRegistro",
      "outputs": [
        {
          "internalType": "uint256",
          "name": "",
          "type": "uint256"
        }
      ],
      "stateMutability": "view",
      "type": "function"
    },
    {
      "inputs": [],
      "name": "getId",
      "outputs": [
        {
          "internalType": "uint256",
          "name": "",
          "type": "uint256"
        }
      ],
      "stateMutability": "view",
      "type": "function"
    },
    {
      "inputs": [],
      "name": "getRegistroMedico",
      "outputs": [
        {
          "components": [
            {
              "internalType": "uint256",
              "name": "id",
              "type": "uint256"
            },
            {
              "internalType": "address",
              "name": "codPrestadorServicioDeSalud",
              "type": "address"
            },
            {
              "internalType": "uint256",
              "name": "fechaRegistro",
              "type": "uint256"
            },
            {
              "internalType": "enum TipoRegistroMedico",
              "name": "tipoRegistroMedico",
              "type": "uint8"
            }
          ],
          "internalType": "struct RegistroMedico.RegistroMedicoStruct",
          "name": "",
          "type": "tuple"
        }
      ],
      "stateMutability": "view",
      "type": "function"
    },
    {
      "inputs": [],
      "name": "getTipoRegistroMedico",
      "outputs": [
        {
          "internalType": "enum TipoRegistroMedico",
          "name": "",
          "type": "uint8"
        }
      ],
      "stateMutability": "view",
      "type": "function"
    },
    {
      "inputs": [],
      "name": "selfDestruct",
      "outputs": [],
      "stateMutability": "nonpayable",
      "type": "function"
    },
    {
      "inputs": [
        {
          "internalType": "address",
          "name": "_codPrestadorServicioDeSalud",
          "type": "address"
        }
      ],
      "name": "setCodPrestadorServicioDeSalud",
      "outputs": [],
      "stateMutability": "nonpayable",
      "type": "function"
    },
    {
      "inputs": [
        {
          "internalType": "uint256",
          "name": "_fechaRegistro",
          "type": "uint256"
        }
      ],
      "name": "setFechaRegistro",
      "outputs": [],
      "stateMutability": "nonpayable",
      "type": "function"
    },
    {
      "inputs": [
        {
          "internalType": "uint256",
          "name": "_id",
          "type": "uint256"
        }
      ],
      "name": "setId",
      "outputs": [],
      "stateMutability": "nonpayable",
      "type": "function"
    },
    {
      "inputs": [
        {
          "components": [
            {
              "internalType": "uint256",
              "name": "id",
              "type": "uint256"
            },
            {
              "internalType": "address",
              "name": "codPrestadorServicioDeSalud",
              "type": "address"
            },
            {
              "internalType": "uint256",
              "name": "fechaRegistro",
              "type": "uint256"
            },
            {
              "internalType": "enum TipoRegistroMedico",
              "name": "tipoRegistroMedico",
              "type": "uint8"
            }
          ],
          "internalType": "struct RegistroMedico.RegistroMedicoStruct",
          "name": "registro",
          "type": "tuple"
        }
      ],
      "name": "setRegistroMedico",
      "outputs": [],
      "stateMutability": "nonpayable",
      "type": "function"
    },
    {
      "inputs": [
        {
          "internalType": "enum TipoRegistroMedico",
          "name": "_tipoRegistroMedico",
          "type": "uint8"
        }
      ],
      "name": "setTipoRegistroMedico",
      "outputs": [],
      "stateMutability": "nonpayable",
      "type": "function"
    },
    {
      "inputs": [],
      "name": "getInmunizacion",
      "outputs": [
        {
          "components": [
            {
              "internalType": "string",
              "name": "nombre",
              "type": "string"
            },
            {
              "internalType": "string",
              "name": "descripcion",
              "type": "string"
            }
          ],
          "internalType": "struct InmunizacionVO.VacunaStruct",
          "name": "",
          "type": "tuple"
        }
      ],
      "stateMutability": "view",
      "type": "function"
    },
    {
      "inputs": [],
      "name": "getFechaAplicacion",
      "outputs": [
        {
          "internalType": "uint256",
          "name": "",
          "type": "uint256"
        }
      ],
      "stateMutability": "view",
      "type": "function"
    },
    {
      "inputs": [],
      "name": "getInmunizacionStruct",
      "outputs": [
        {
          "components": [
            {
              "components": [
                {
                  "internalType": "string",
                  "name": "nombre",
                  "type": "string"
                },
                {
                  "internalType": "string",
                  "name": "descripcion",
                  "type": "string"
                }
              ],
              "internalType": "struct InmunizacionVO.VacunaStruct",
              "name": "inmunizacion",
              "type": "tuple"
            },
            {
              "internalType": "uint256",
              "name": "fechaAplicacion",
              "type": "uint256"
            }
          ],
          "internalType": "struct InmunizacionVO.InmunizacionStruct",
          "name": "",
          "type": "tuple"
        }
      ],
      "stateMutability": "view",
      "type": "function"
    },
    {
      "inputs": [
        {
          "components": [
            {
              "components": [
                {
                  "internalType": "string",
                  "name": "nombre",
                  "type": "string"
                },
                {
                  "internalType": "string",
                  "name": "descripcion",
                  "type": "string"
                }
              ],
              "internalType": "struct InmunizacionVO.VacunaStruct",
              "name": "inmunizacion",
              "type": "tuple"
            },
            {
              "internalType": "uint256",
              "name": "fechaAplicacion",
              "type": "uint256"
            }
          ],
          "internalType": "struct InmunizacionVO.InmunizacionStruct",
          "name": "_inmunizacionStruct",
          "type": "tuple"
        }
      ],
      "name": "setInmunizacionStruct",
      "outputs": [],
      "stateMutability": "nonpayable",
      "type": "function"
    },
    {
      "inputs": [
        {
          "components": [
            {
              "internalType": "string",
              "name": "nombre",
              "type": "string"
            },
            {
              "internalType": "string",
              "name": "descripcion",
              "type": "string"
            }
          ],
          "internalType": "struct InmunizacionVO.VacunaStruct",
          "name": "_inmunizacion",
          "type": "tuple"
        }
      ],
      "name": "setInmunizacion",
      "outputs": [],
      "stateMutability": "nonpayable",
      "type": "function"
    },
    {
      "inputs": [
        {
          "internalType": "uint256",
          "name": "_fechaAplicacion",
          "type": "uint256"
        }
      ],
      "name": "setFechaAplicacion",
      "outputs": [],
      "stateMutability": "nonpayable",
      "type": "function"
    }
  ],
  "bytecode": "0x608060405234801561001057600080fd5b506004805460ff19166009179055610d688061002d6000396000f3fe608060405234801561001057600080fd5b50600436106101365760003560e01c806375434909116100b25780639cb8a26a11610081578063a3b7275611610066578063a3b7275614610287578063ca3c5a131461029a578063d0e0ba95146102ad57600080fd5b80639cb8a26a1461026c578063a204b7c91461027457600080fd5b806375434909146101eb578063803a56ec146101f357806392ebdcd21461023057806393be08ef1461025b57600080fd5b80631d0690da1161010957806344517a9a116100ee57806344517a9a146101bd5780635d1ca631146101d0578063613b29bc146101d857600080fd5b80631d0690da1461019557806327f074cf146101aa57600080fd5b8063054d1f5e1461013b5780630bcacc1b146101505780630c9ea4ab1461016e5780631b59abb914610183575b600080fd5b61014e6101493660046108f2565b6102c0565b005b6101586102ff565b60405161016591906109a4565b60405180910390f35b610176610374565b6040516101659190610a63565b6003545b604051908152602001610165565b61019d6104e4565b6040516101659190610a95565b61014e6101b8366004610aaf565b600355565b60045460ff166040516101659190610ac8565b600154610187565b61014e6101e6366004610adc565b61062c565b600754610187565b61014e610201366004610b35565b6002805473ffffffffffffffffffffffffffffffffffffffff19166001600160a01b0392909216919091179055565b600054610243906001600160a01b031681565b6040516001600160a01b039091168152602001610165565b6002546001600160a01b0316610243565b61014e61065a565b61014e610282366004610b5f565b61072c565b61014e610295366004610aaf565b600755565b61014e6102a8366004610bce565b610798565b61014e6102bb366004610aaf565b600155565b805180518291600591829081906102d79082610c72565b50602082015160018201906102ec9082610c72565b5050506020820151816002015590505050565b6103276040805160808101825260008082526020820181905291810182905290606082015290565b6040805160808101825260015481526002546001600160a01b0316602082015260035491810191909152600454606082019060ff16601281111561036d5761036d61096c565b9052919050565b604080516080810182526060918101828152828201929092529081526000602082015260408051608081018252600580549192909183918201908390829082906103bd90610be9565b80601f01602080910402602001604051908101604052809291908181526020018280546103e990610be9565b80156104365780601f1061040b57610100808354040283529160200191610436565b820191906000526020600020905b81548152906001019060200180831161041957829003601f168201915b5050505050815260200160018201805461044f90610be9565b80601f016020809104026020016040519081016040528092919081815260200182805461047b90610be9565b80156104c85780601f1061049d576101008083540402835291602001916104c8565b820191906000526020600020905b8154815290600101906020018083116104ab57829003601f168201915b5050505050815250508152602001600282015481525050905090565b604080518082019091526060808252602082015260408051808201909152600580548290829061051390610be9565b80601f016020809104026020016040519081016040528092919081815260200182805461053f90610be9565b801561058c5780601f106105615761010080835404028352916020019161058c565b820191906000526020600020905b81548152906001019060200180831161056f57829003601f168201915b505050505081526020016001820180546105a590610be9565b80601f01602080910402602001604051908101604052809291908181526020018280546105d190610be9565b801561061e5780601f106105f35761010080835404028352916020019161061e565b820191906000526020600020905b81548152906001019060200180831161060157829003601f168201915b505050505081525050905090565b80518190600590819061063f9082610c72565b50602082015160018201906106549082610c72565b50505050565b6000546001600160a01b0316331461071e576040517f08c379a000000000000000000000000000000000000000000000000000000000815260206004820152604160248201527f457374612066756e63696f6e20736f6c6f2070756564652073657220656a656360448201527f757461646120706f7220656c2063726561646f722064656c20636f6e7472617460648201527f6f00000000000000000000000000000000000000000000000000000000000000608482015260a40160405180910390fd5b6000546001600160a01b0316ff5b8051600190815560208201516002805473ffffffffffffffffffffffffffffffffffffffff19166001600160a01b0390921691909117905560408201516003556060820151600480549192909160ff1916908360128111156107905761079061096c565b021790555050565b6004805482919060ff191660018360128111156107905761079061096c565b634e487b7160e01b600052604160045260246000fd5b6040805190810167ffffffffffffffff811182821017156107f0576107f06107b7565b60405290565b600082601f83011261080757600080fd5b813567ffffffffffffffff80821115610822576108226107b7565b604051601f8301601f19908116603f0116810190828211818310171561084a5761084a6107b7565b8160405283815286602085880101111561086357600080fd5b836020870160208301376000602085830101528094505050505092915050565b60006040828403121561089557600080fd5b61089d6107cd565b9050813567ffffffffffffffff808211156108b757600080fd5b6108c3858386016107f6565b835260208401359150808211156108d957600080fd5b506108e6848285016107f6565b60208301525092915050565b60006020828403121561090457600080fd5b813567ffffffffffffffff8082111561091c57600080fd5b908301906040828603121561093057600080fd5b6109386107cd565b82358281111561094757600080fd5b61095387828601610883565b8252506020830135602082015280935050505092915050565b634e487b7160e01b600052602160045260246000fd5b601381106109a057634e487b7160e01b600052602160045260246000fd5b9052565b6000608082019050825182526001600160a01b0360208401511660208301526040830151604083015260608301516109df6060840182610982565b5092915050565b6000815180845260005b81811015610a0c576020818501810151868301820152016109f0565b506000602082860101526020601f19601f83011685010191505092915050565b6000815160408452610a4160408501826109e6565b905060208301518482036020860152610a5a82826109e6565b95945050505050565b602081526000825160406020840152610a7f6060840182610a2c565b9050602084015160408401528091505092915050565b602081526000610aa86020830184610a2c565b9392505050565b600060208284031215610ac157600080fd5b5035919050565b60208101610ad68284610982565b92915050565b600060208284031215610aee57600080fd5b813567ffffffffffffffff811115610b0557600080fd5b610b1184828501610883565b949350505050565b80356001600160a01b0381168114610b3057600080fd5b919050565b600060208284031215610b4757600080fd5b610aa882610b19565b803560138110610b3057600080fd5b600060808284031215610b7157600080fd5b6040516080810181811067ffffffffffffffff82111715610b9457610b946107b7565b60405282358152610ba760208401610b19565b602082015260408301356040820152610bc260608401610b50565b60608201529392505050565b600060208284031215610be057600080fd5b610aa882610b50565b600181811c90821680610bfd57607f821691505b602082108103610c1d57634e487b7160e01b600052602260045260246000fd5b50919050565b601f821115610c6d57600081815260208120601f850160051c81016020861015610c4a5750805b601f850160051c820191505b81811015610c6957828155600101610c56565b5050505b505050565b815167ffffffffffffffff811115610c8c57610c8c6107b7565b610ca081610c9a8454610be9565b84610c23565b602080601f831160018114610cd55760008415610cbd5750858301515b600019600386901b1c1916600185901b178555610c69565b600085815260208120601f198616915b82811015610d0457888601518255948401946001909101908401610ce5565b5085821015610d225787850151600019600388901b60f8161c191681555b5050505050600190811b0190555056fea2646970667358221220c8e3d547d66862c39f10bec71b720175baf3985669b0c06c84a84eec0efadd1364736f6c63430008110033",
  "immutableReferences": {},
  "source": "// SPDX-License-Identifier: MIT\npragma solidity ^0.8.17;\n\nimport \"./RegistroMedico.sol\";\n\n\ncontract InmunizacionVO is RegistroMedico (TipoRegistroMedico.INMUNIZACIONVO) {\n    struct InmunizacionStruct {\n        VacunaStruct inmunizacion;\n        uint256 fechaAplicacion;\n    }\n\n    struct VacunaStruct {\n        string nombre;\n        string descripcion;\n    }\n\n    InmunizacionStruct private inmunizacionStruct;\n\n    function getInmunizacion() public view returns (VacunaStruct memory) {\n        return inmunizacionStruct.inmunizacion;\n    }\n\n    function getFechaAplicacion() public view returns (uint256) {\n        return inmunizacionStruct.fechaAplicacion;\n    }\n\n    function getInmunizacionStruct()\n        public\n        view\n        returns (InmunizacionStruct memory)\n    {\n        return inmunizacionStruct;\n    }\n\n    function setInmunizacionStruct(\n        InmunizacionStruct memory _inmunizacionStruct\n    ) public {\n        inmunizacionStruct = _inmunizacionStruct;\n    }\n\n    function setInmunizacion(VacunaStruct memory _inmunizacion) public {\n        inmunizacionStruct.inmunizacion = _inmunizacion;\n    }\n\n    function setFechaAplicacion(uint256 _fechaAplicacion) public {\n        inmunizacionStruct.fechaAplicacion = _fechaAplicacion;\n    }\n}\n",
  "sourcePath": "/home/felipe/Documentos/Blockchain/codigo/HCE-full/back-hce/contracts/models/historiaClinica/InmunizacionVO.sol",
  "compiler": {
    "name": "solc",
    "version": "0.8.17+commit.8df45f5f.Emscripten.clang"
  },
  "schemaVersion": "3.4.8",
  "updatedAt": "2023-04-05T22:10:23.350Z",
  "devdoc": {
    "kind": "dev",
    "methods": {},
    "version": 1
  },
  "userdoc": {
    "kind": "user",
    "methods": {},
    "version": 1
  }
}