{
  "contractName": "InmunizacionVO",
  "abi": [
    {
      "inputs": [],
      "stateMutability": "nonpayable",
      "type": "constructor"
    },
    {
      "inputs": [],
      "name": "creador",
      "outputs": [
        {
          "internalType": "address",
          "name": "",
          "type": "address"
        }
      ],
      "stateMutability": "view",
      "type": "function"
    },
    {
      "inputs": [],
      "name": "getCodPrestadorServicioDeSalud",
      "outputs": [
        {
          "internalType": "address",
          "name": "",
          "type": "address"
        }
      ],
      "stateMutability": "view",
      "type": "function"
    },
    {
      "inputs": [],
      "name": "getFechaRegistro",
      "outputs": [
        {
          "internalType": "int256",
          "name": "",
          "type": "int256"
        }
      ],
      "stateMutability": "view",
      "type": "function"
    },
    {
      "inputs": [],
      "name": "getId",
      "outputs": [
        {
          "internalType": "uint256",
          "name": "",
          "type": "uint256"
        }
      ],
      "stateMutability": "view",
      "type": "function"
    },
    {
      "inputs": [],
      "name": "getRegistroMedico",
      "outputs": [
        {
          "components": [
            {
              "internalType": "uint256",
              "name": "id",
              "type": "uint256"
            },
            {
              "internalType": "address",
              "name": "codPrestadorServicioDeSalud",
              "type": "address"
            },
            {
              "internalType": "int256",
              "name": "fechaRegistro",
              "type": "int256"
            },
            {
              "internalType": "enum TipoRegistroMedico",
              "name": "tipoRegistroMedico",
              "type": "uint8"
            }
          ],
          "internalType": "struct RegistroMedico.RegistroMedicoStruct",
          "name": "",
          "type": "tuple"
        }
      ],
      "stateMutability": "view",
      "type": "function"
    },
    {
      "inputs": [],
      "name": "getTipoRegistroMedico",
      "outputs": [
        {
          "internalType": "enum TipoRegistroMedico",
          "name": "",
          "type": "uint8"
        }
      ],
      "stateMutability": "view",
      "type": "function"
    },
    {
      "inputs": [],
      "name": "selfDestruct",
      "outputs": [],
      "stateMutability": "nonpayable",
      "type": "function"
    },
    {
      "inputs": [
        {
          "internalType": "address",
          "name": "_codPrestadorServicioDeSalud",
          "type": "address"
        }
      ],
      "name": "setCodPrestadorServicioDeSalud",
      "outputs": [],
      "stateMutability": "nonpayable",
      "type": "function"
    },
    {
      "inputs": [
        {
          "internalType": "int256",
          "name": "_fechaRegistro",
          "type": "int256"
        }
      ],
      "name": "setFechaRegistro",
      "outputs": [],
      "stateMutability": "nonpayable",
      "type": "function"
    },
    {
      "inputs": [
        {
          "internalType": "uint256",
          "name": "_id",
          "type": "uint256"
        }
      ],
      "name": "setId",
      "outputs": [],
      "stateMutability": "nonpayable",
      "type": "function"
    },
    {
      "inputs": [
        {
          "components": [
            {
              "internalType": "uint256",
              "name": "id",
              "type": "uint256"
            },
            {
              "internalType": "address",
              "name": "codPrestadorServicioDeSalud",
              "type": "address"
            },
            {
              "internalType": "int256",
              "name": "fechaRegistro",
              "type": "int256"
            },
            {
              "internalType": "enum TipoRegistroMedico",
              "name": "tipoRegistroMedico",
              "type": "uint8"
            }
          ],
          "internalType": "struct RegistroMedico.RegistroMedicoStruct",
          "name": "registro",
          "type": "tuple"
        }
      ],
      "name": "setRegistroMedico",
      "outputs": [],
      "stateMutability": "nonpayable",
      "type": "function"
    },
    {
      "inputs": [
        {
          "internalType": "enum TipoRegistroMedico",
          "name": "_tipoRegistroMedico",
          "type": "uint8"
        }
      ],
      "name": "setTipoRegistroMedico",
      "outputs": [],
      "stateMutability": "nonpayable",
      "type": "function"
    },
    {
      "inputs": [],
      "name": "getInmunizacion",
      "outputs": [
        {
          "components": [
            {
              "internalType": "string",
              "name": "nombre",
              "type": "string"
            },
            {
              "internalType": "string",
              "name": "descripcion",
              "type": "string"
            }
          ],
          "internalType": "struct InmunizacionVO.VacunaStruct",
          "name": "",
          "type": "tuple"
        }
      ],
      "stateMutability": "view",
      "type": "function"
    },
    {
      "inputs": [],
      "name": "getFechaAplicacion",
      "outputs": [
        {
          "internalType": "int256",
          "name": "",
          "type": "int256"
        }
      ],
      "stateMutability": "view",
      "type": "function"
    },
    {
      "inputs": [],
      "name": "getInmunizacionStruct",
      "outputs": [
        {
          "components": [
            {
              "components": [
                {
                  "internalType": "string",
                  "name": "nombre",
                  "type": "string"
                },
                {
                  "internalType": "string",
                  "name": "descripcion",
                  "type": "string"
                }
              ],
              "internalType": "struct InmunizacionVO.VacunaStruct",
              "name": "inmunizacion",
              "type": "tuple"
            },
            {
              "internalType": "int256",
              "name": "fechaAplicacion",
              "type": "int256"
            }
          ],
          "internalType": "struct InmunizacionVO.InmunizacionStruct",
          "name": "",
          "type": "tuple"
        }
      ],
      "stateMutability": "view",
      "type": "function"
    },
    {
      "inputs": [
        {
          "components": [
            {
              "components": [
                {
                  "internalType": "string",
                  "name": "nombre",
                  "type": "string"
                },
                {
                  "internalType": "string",
                  "name": "descripcion",
                  "type": "string"
                }
              ],
              "internalType": "struct InmunizacionVO.VacunaStruct",
              "name": "inmunizacion",
              "type": "tuple"
            },
            {
              "internalType": "int256",
              "name": "fechaAplicacion",
              "type": "int256"
            }
          ],
          "internalType": "struct InmunizacionVO.InmunizacionStruct",
          "name": "_inmunizacionStruct",
          "type": "tuple"
        }
      ],
      "name": "setInmunizacionStruct",
      "outputs": [],
      "stateMutability": "nonpayable",
      "type": "function"
    },
    {
      "inputs": [
        {
          "components": [
            {
              "internalType": "string",
              "name": "nombre",
              "type": "string"
            },
            {
              "internalType": "string",
              "name": "descripcion",
              "type": "string"
            }
          ],
          "internalType": "struct InmunizacionVO.VacunaStruct",
          "name": "_inmunizacion",
          "type": "tuple"
        }
      ],
      "name": "setInmunizacion",
      "outputs": [],
      "stateMutability": "nonpayable",
      "type": "function"
    },
    {
      "inputs": [
        {
          "internalType": "int256",
          "name": "_fechaAplicacion",
          "type": "int256"
        }
      ],
      "name": "setFechaAplicacion",
      "outputs": [],
      "stateMutability": "nonpayable",
      "type": "function"
    }
  ],
  "bytecode": "0x608060405234801561001057600080fd5b506004805460ff1916600917905560008054336001600160a01b0319909116179055610d68806100416000396000f3fe608060405234801561001057600080fd5b50600436106101365760003560e01c8063613b29bc116100b257806392ebdcd2116100815780639cb8a26a116100665780639cb8a26a14610292578063ca3c5a131461029a578063d0e0ba95146102ad57600080fd5b806392ebdcd21461025657806393be08ef1461028157600080fd5b8063613b29bc146101eb5780636ee1a6c8146101fe5780637543490914610211578063803a56ec1461021957600080fd5b80631b59abb91161010957806344517a9a116100ee57806344517a9a146101bd5780635d1ca631146101d05780635f3774d4146101d857600080fd5b80631b59abb9146101965780631d0690da146101a857600080fd5b8063045c7bbe1461013b5780630bcacc1b146101505780630c9ea4ab1461016e57806315db988114610183575b600080fd5b61014e6101493660046107b7565b600355565b005b6101586102c0565b6040516101659190610808565b60405180910390f35b610176610335565b60405161016591906108c7565b61014e610191366004610a34565b6104a5565b6003545b604051908152602001610165565b6101b06104e4565b6040516101659190610aae565b60045460ff166040516101659190610ac8565b60015461019a565b61014e6101e6366004610b07565b61062c565b61014e6101f9366004610b76565b610698565b61014e61020c3660046107b7565b600755565b60075461019a565b61014e610227366004610bb3565b6002805473ffffffffffffffffffffffffffffffffffffffff19166001600160a01b0392909216919091179055565b600054610269906001600160a01b031681565b6040516001600160a01b039091168152602001610165565b6002546001600160a01b0316610269565b61014e6106c6565b61014e6102a8366004610bce565b610798565b61014e6102bb3660046107b7565b600155565b6102e86040805160808101825260008082526020820181905291810182905290606082015290565b6040805160808101825260015481526002546001600160a01b0316602082015260035491810191909152600454606082019060ff16601281111561032e5761032e6107d0565b9052919050565b6040805160808101825260609181018281528282019290925290815260006020820152604080516080810182526005805491929091839182019083908290829061037e90610be9565b80601f01602080910402602001604051908101604052809291908181526020018280546103aa90610be9565b80156103f75780601f106103cc576101008083540402835291602001916103f7565b820191906000526020600020905b8154815290600101906020018083116103da57829003601f168201915b5050505050815260200160018201805461041090610be9565b80601f016020809104026020016040519081016040528092919081815260200182805461043c90610be9565b80156104895780601f1061045e57610100808354040283529160200191610489565b820191906000526020600020905b81548152906001019060200180831161046c57829003601f168201915b5050505050815250508152602001600282015481525050905090565b805180518291600591829081906104bc9082610c72565b50602082015160018201906104d19082610c72565b5050506020820151816002015590505050565b604080518082019091526060808252602082015260408051808201909152600580548290829061051390610be9565b80601f016020809104026020016040519081016040528092919081815260200182805461053f90610be9565b801561058c5780601f106105615761010080835404028352916020019161058c565b820191906000526020600020905b81548152906001019060200180831161056f57829003601f168201915b505050505081526020016001820180546105a590610be9565b80601f01602080910402602001604051908101604052809291908181526020018280546105d190610be9565b801561061e5780601f106105f35761010080835404028352916020019161061e565b820191906000526020600020905b81548152906001019060200180831161060157829003601f168201915b505050505081525050905090565b8051600190815560208201516002805473ffffffffffffffffffffffffffffffffffffffff19166001600160a01b0390921691909117905560408201516003556060820151600480549192909160ff191690836012811115610690576106906107d0565b021790555050565b8051819060059081906106ab9082610c72565b50602082015160018201906106c09082610c72565b50505050565b6000546001600160a01b0316331461078a576040517f08c379a000000000000000000000000000000000000000000000000000000000815260206004820152604160248201527f457374612066756e63696f6e20736f6c6f2070756564652073657220656a656360448201527f757461646120706f7220656c2063726561646f722064656c20636f6e7472617460648201527f6f00000000000000000000000000000000000000000000000000000000000000608482015260a40160405180910390fd5b6000546001600160a01b0316ff5b6004805482919060ff19166001836012811115610690576106906107d0565b6000602082840312156107c957600080fd5b5035919050565b634e487b7160e01b600052602160045260246000fd5b6013811061080457634e487b7160e01b600052602160045260246000fd5b9052565b6000608082019050825182526001600160a01b03602084015116602083015260408301516040830152606083015161084360608401826107e6565b5092915050565b6000815180845260005b8181101561087057602081850181015186830182015201610854565b506000602082860101526020601f19601f83011685010191505092915050565b60008151604084526108a5604085018261084a565b9050602083015184820360208601526108be828261084a565b95945050505050565b6020815260008251604060208401526108e36060840182610890565b9050602084015160408401528091505092915050565b634e487b7160e01b600052604160045260246000fd5b6040805190810167ffffffffffffffff81118282101715610932576109326108f9565b60405290565b600082601f83011261094957600080fd5b813567ffffffffffffffff80821115610964576109646108f9565b604051601f8301601f19908116603f0116810190828211818310171561098c5761098c6108f9565b816040528381528660208588010111156109a557600080fd5b836020870160208301376000602085830101528094505050505092915050565b6000604082840312156109d757600080fd5b6109df61090f565b9050813567ffffffffffffffff808211156109f957600080fd5b610a0585838601610938565b83526020840135915080821115610a1b57600080fd5b50610a2884828501610938565b60208301525092915050565b600060208284031215610a4657600080fd5b813567ffffffffffffffff80821115610a5e57600080fd5b9083019060408286031215610a7257600080fd5b610a7a61090f565b823582811115610a8957600080fd5b610a95878286016109c5565b8252506020830135602082015280935050505092915050565b602081526000610ac16020830184610890565b9392505050565b60208101610ad682846107e6565b92915050565b80356001600160a01b0381168114610af357600080fd5b919050565b803560138110610af357600080fd5b600060808284031215610b1957600080fd5b6040516080810181811067ffffffffffffffff82111715610b3c57610b3c6108f9565b60405282358152610b4f60208401610adc565b602082015260408301356040820152610b6a60608401610af8565b60608201529392505050565b600060208284031215610b8857600080fd5b813567ffffffffffffffff811115610b9f57600080fd5b610bab848285016109c5565b949350505050565b600060208284031215610bc557600080fd5b610ac182610adc565b600060208284031215610be057600080fd5b610ac182610af8565b600181811c90821680610bfd57607f821691505b602082108103610c1d57634e487b7160e01b600052602260045260246000fd5b50919050565b601f821115610c6d57600081815260208120601f850160051c81016020861015610c4a5750805b601f850160051c820191505b81811015610c6957828155600101610c56565b5050505b505050565b815167ffffffffffffffff811115610c8c57610c8c6108f9565b610ca081610c9a8454610be9565b84610c23565b602080601f831160018114610cd55760008415610cbd5750858301515b600019600386901b1c1916600185901b178555610c69565b600085815260208120601f198616915b82811015610d0457888601518255948401946001909101908401610ce5565b5085821015610d225787850151600019600388901b60f8161c191681555b5050505050600190811b0190555056fea2646970667358221220cda2def8159c239ebc973ea0eccb2344eef3e32af742550372f536bf63980eb164736f6c63430008110033",
  "immutableReferences": {},
  "source": "// SPDX-License-Identifier: MIT\npragma solidity ^0.8.17;\n\nimport \"./RegistroMedico.sol\";\n\n\ncontract InmunizacionVO is RegistroMedico (TipoRegistroMedico.INMUNIZACIONVO) {\n    struct InmunizacionStruct {\n        VacunaStruct inmunizacion;\n        int256 fechaAplicacion;\n    }\n\n    struct VacunaStruct {\n        string nombre;\n        string descripcion;\n    }\n\n    InmunizacionStruct private inmunizacionStruct;\n\n    constructor() {\n        creador = msg.sender;\n    }\n\n    function getInmunizacion() public view returns (VacunaStruct memory) {\n        return inmunizacionStruct.inmunizacion;\n    }\n\n    function getFechaAplicacion() public view returns (int256) {\n        return inmunizacionStruct.fechaAplicacion;\n    }\n\n    function getInmunizacionStruct()\n        public\n        view\n        returns (InmunizacionStruct memory)\n    {\n        return inmunizacionStruct;\n    }\n\n    function setInmunizacionStruct(\n        InmunizacionStruct memory _inmunizacionStruct\n    ) public {\n        inmunizacionStruct = _inmunizacionStruct;\n    }\n\n    function setInmunizacion(VacunaStruct memory _inmunizacion) public {\n        inmunizacionStruct.inmunizacion = _inmunizacion;\n    }\n\n    function setFechaAplicacion(int256 _fechaAplicacion) public {\n        inmunizacionStruct.fechaAplicacion = _fechaAplicacion;\n    }\n}\n",
  "sourcePath": "/back/contracts/models/historiaClinica/InmunizacionVO.sol",
  "compiler": {
    "name": "solc",
    "version": "0.8.17+commit.8df45f5f.Emscripten.clang"
  },
  "schemaVersion": "3.4.11",
  "updatedAt": "2023-06-25T00:22:44.506Z",
  "devdoc": {
    "kind": "dev",
    "methods": {},
    "version": 1
  },
  "userdoc": {
    "kind": "user",
    "methods": {},
    "version": 1
  }
}