{
  "contractName": "IntoleranciaAMedicamentoVO",
  "abi": [
    {
      "inputs": [],
      "name": "creador",
      "outputs": [
        {
          "internalType": "address",
          "name": "",
          "type": "address"
        }
      ],
      "stateMutability": "view",
      "type": "function"
    },
    {
      "inputs": [],
      "name": "getCodPrestadorServicioDeSalud",
      "outputs": [
        {
          "internalType": "address",
          "name": "",
          "type": "address"
        }
      ],
      "stateMutability": "view",
      "type": "function"
    },
    {
      "inputs": [],
      "name": "getFechaRegistro",
      "outputs": [
        {
          "internalType": "uint256",
          "name": "",
          "type": "uint256"
        }
      ],
      "stateMutability": "view",
      "type": "function"
    },
    {
      "inputs": [],
      "name": "getId",
      "outputs": [
        {
          "internalType": "uint256",
          "name": "",
          "type": "uint256"
        }
      ],
      "stateMutability": "view",
      "type": "function"
    },
    {
      "inputs": [],
      "name": "getRegistroMedico",
      "outputs": [
        {
          "components": [
            {
              "internalType": "uint256",
              "name": "id",
              "type": "uint256"
            },
            {
              "internalType": "address",
              "name": "codPrestadorServicioDeSalud",
              "type": "address"
            },
            {
              "internalType": "uint256",
              "name": "fechaRegistro",
              "type": "uint256"
            },
            {
              "internalType": "enum TipoRegistroMedico",
              "name": "tipoRegistroMedico",
              "type": "uint8"
            }
          ],
          "internalType": "struct RegistroMedico.RegistroMedicoStruct",
          "name": "",
          "type": "tuple"
        }
      ],
      "stateMutability": "view",
      "type": "function"
    },
    {
      "inputs": [],
      "name": "getTipoRegistroMedico",
      "outputs": [
        {
          "internalType": "enum TipoRegistroMedico",
          "name": "",
          "type": "uint8"
        }
      ],
      "stateMutability": "view",
      "type": "function"
    },
    {
      "inputs": [],
      "name": "selfDestruct",
      "outputs": [],
      "stateMutability": "nonpayable",
      "type": "function"
    },
    {
      "inputs": [
        {
          "internalType": "address",
          "name": "_codPrestadorServicioDeSalud",
          "type": "address"
        }
      ],
      "name": "setCodPrestadorServicioDeSalud",
      "outputs": [],
      "stateMutability": "nonpayable",
      "type": "function"
    },
    {
      "inputs": [
        {
          "internalType": "uint256",
          "name": "_fechaRegistro",
          "type": "uint256"
        }
      ],
      "name": "setFechaRegistro",
      "outputs": [],
      "stateMutability": "nonpayable",
      "type": "function"
    },
    {
      "inputs": [
        {
          "internalType": "uint256",
          "name": "_id",
          "type": "uint256"
        }
      ],
      "name": "setId",
      "outputs": [],
      "stateMutability": "nonpayable",
      "type": "function"
    },
    {
      "inputs": [
        {
          "components": [
            {
              "internalType": "uint256",
              "name": "id",
              "type": "uint256"
            },
            {
              "internalType": "address",
              "name": "codPrestadorServicioDeSalud",
              "type": "address"
            },
            {
              "internalType": "uint256",
              "name": "fechaRegistro",
              "type": "uint256"
            },
            {
              "internalType": "enum TipoRegistroMedico",
              "name": "tipoRegistroMedico",
              "type": "uint8"
            }
          ],
          "internalType": "struct RegistroMedico.RegistroMedicoStruct",
          "name": "registro",
          "type": "tuple"
        }
      ],
      "name": "setRegistroMedico",
      "outputs": [],
      "stateMutability": "nonpayable",
      "type": "function"
    },
    {
      "inputs": [
        {
          "internalType": "enum TipoRegistroMedico",
          "name": "_tipoRegistroMedico",
          "type": "uint8"
        }
      ],
      "name": "setTipoRegistroMedico",
      "outputs": [],
      "stateMutability": "nonpayable",
      "type": "function"
    },
    {
      "inputs": [],
      "name": "getDescripcionMedicamento",
      "outputs": [
        {
          "internalType": "string",
          "name": "",
          "type": "string"
        }
      ],
      "stateMutability": "view",
      "type": "function"
    },
    {
      "inputs": [],
      "name": "getComentarios",
      "outputs": [
        {
          "internalType": "string",
          "name": "",
          "type": "string"
        }
      ],
      "stateMutability": "view",
      "type": "function"
    },
    {
      "inputs": [],
      "name": "getIntoleranciaAMedicamentoStruct",
      "outputs": [
        {
          "components": [
            {
              "internalType": "string",
              "name": "descripcionMedicamento",
              "type": "string"
            },
            {
              "internalType": "string",
              "name": "comentarios",
              "type": "string"
            }
          ],
          "internalType": "struct IntoleranciaAMedicamentoVO.IntoleranciaAMedicamentoStruct",
          "name": "",
          "type": "tuple"
        }
      ],
      "stateMutability": "view",
      "type": "function"
    },
    {
      "inputs": [
        {
          "components": [
            {
              "internalType": "string",
              "name": "descripcionMedicamento",
              "type": "string"
            },
            {
              "internalType": "string",
              "name": "comentarios",
              "type": "string"
            }
          ],
          "internalType": "struct IntoleranciaAMedicamentoVO.IntoleranciaAMedicamentoStruct",
          "name": "_intoleranciaAMedicamentoStruct",
          "type": "tuple"
        }
      ],
      "name": "setIntoleranciaAMedicamentoStruct",
      "outputs": [],
      "stateMutability": "nonpayable",
      "type": "function"
    },
    {
      "inputs": [
        {
          "internalType": "string",
          "name": "_descripcionMedicamento",
          "type": "string"
        }
      ],
      "name": "setDescripcionMedicamento",
      "outputs": [],
      "stateMutability": "nonpayable",
      "type": "function"
    },
    {
      "inputs": [
        {
          "internalType": "string",
          "name": "_comentarios",
          "type": "string"
        }
      ],
      "name": "setComentarios",
      "outputs": [],
      "stateMutability": "nonpayable",
      "type": "function"
    }
  ],
  "bytecode": "0x608060405234801561001057600080fd5b506004805460ff1916600a179055610be88061002d6000396000f3fe608060405234801561001057600080fd5b50600436106101365760003560e01c80637979400e116100b25780639cb8a26a11610081578063a204b7c911610066578063a204b7c914610287578063ca3c5a131461029a578063d0e0ba95146102ad57600080fd5b80639cb8a26a1461026c5780639df708221461027457600080fd5b80637979400e146101e0578063803a56ec146101f357806392ebdcd21461023057806393be08ef1461025b57600080fd5b806344517a9a1161010957806359d0836e116100ee57806359d0836e146101bb5780635d1ca631146101d05780636be12bc2146101d857600080fd5b806344517a9a1461019557806347136647146101a857600080fd5b80630bcacc1b1461013b5780631b59abb914610159578063269f8e011461016b57806327f074cf14610180575b600080fd5b6101436102c0565b6040516101509190610701565b60405180910390f35b6003545b604051908152602001610150565b610173610335565b6040516101509190610789565b61019361018e3660046107a3565b600355565b005b60045460ff1660405161015091906107bc565b6101936101b6366004610873565b6103ca565b6101c36103da565b60405161015091906108b0565b60015461015d565b610173610524565b6101936101ee366004610873565b610536565b61019361020136600461090e565b6002805473ffffffffffffffffffffffffffffffffffffffff19166001600160a01b0392909216919091179055565b600054610243906001600160a01b031681565b6040516001600160a01b039091168152602001610150565b6002546001600160a01b0316610243565b610193610542565b610193610282366004610929565b610614565b6101936102953660046109df565b610642565b6101936102a8366004610a4e565b6106ae565b6101936102bb3660046107a3565b600155565b6102e86040805160808101825260008082526020820181905291810182905290606082015290565b6040805160808101825260015481526002546001600160a01b0316602082015260035491810191909152600454606082019060ff16601281111561032e5761032e6106c9565b9052919050565b60606005600101805461034790610a69565b80601f016020809104026020016040519081016040528092919081815260200182805461037390610a69565b80156103c05780601f10610395576101008083540402835291602001916103c0565b820191906000526020600020905b8154815290600101906020018083116103a357829003601f168201915b5050505050905090565b60066103d68282610af2565b5050565b6040805180820190915260608082526020820152600560405180604001604052908160008201805461040b90610a69565b80601f016020809104026020016040519081016040528092919081815260200182805461043790610a69565b80156104845780601f1061045957610100808354040283529160200191610484565b820191906000526020600020905b81548152906001019060200180831161046757829003601f168201915b5050505050815260200160018201805461049d90610a69565b80601f01602080910402602001604051908101604052809291908181526020018280546104c990610a69565b80156105165780601f106104eb57610100808354040283529160200191610516565b820191906000526020600020905b8154815290600101906020018083116104f957829003601f168201915b505050505081525050905090565b60606005600001805461034790610a69565b60056103d68282610af2565b6000546001600160a01b03163314610606576040517f08c379a000000000000000000000000000000000000000000000000000000000815260206004820152604160248201527f457374612066756e63696f6e20736f6c6f2070756564652073657220656a656360448201527f757461646120706f7220656c2063726561646f722064656c20636f6e7472617460648201527f6f00000000000000000000000000000000000000000000000000000000000000608482015260a40160405180910390fd5b6000546001600160a01b0316ff5b8051819060059081906106279082610af2565b506020820151600182019061063c9082610af2565b50505050565b8051600190815560208201516002805473ffffffffffffffffffffffffffffffffffffffff19166001600160a01b0390921691909117905560408201516003556060820151600480549192909160ff1916908360128111156106a6576106a66106c9565b021790555050565b6004805482919060ff191660018360128111156106a6576106a65b634e487b7160e01b600052602160045260246000fd5b601381106106fd57634e487b7160e01b600052602160045260246000fd5b9052565b6000608082019050825182526001600160a01b03602084015116602083015260408301516040830152606083015161073c60608401826106df565b5092915050565b6000815180845260005b818110156107695760208185018101518683018201520161074d565b506000602082860101526020601f19601f83011685010191505092915050565b60208152600061079c6020830184610743565b9392505050565b6000602082840312156107b557600080fd5b5035919050565b602081016107ca82846106df565b92915050565b634e487b7160e01b600052604160045260246000fd5b600082601f8301126107f757600080fd5b813567ffffffffffffffff80821115610812576108126107d0565b604051601f8301601f19908116603f0116810190828211818310171561083a5761083a6107d0565b8160405283815286602085880101111561085357600080fd5b836020870160208301376000602085830101528094505050505092915050565b60006020828403121561088557600080fd5b813567ffffffffffffffff81111561089c57600080fd5b6108a8848285016107e6565b949350505050565b6020815260008251604060208401526108cc6060840182610743565b90506020840151601f198483030160408501526108e98282610743565b95945050505050565b80356001600160a01b038116811461090957600080fd5b919050565b60006020828403121561092057600080fd5b61079c826108f2565b60006020828403121561093b57600080fd5b813567ffffffffffffffff8082111561095357600080fd5b908301906040828603121561096757600080fd5b604051604081018181108382111715610982576109826107d0565b60405282358281111561099457600080fd5b6109a0878286016107e6565b8252506020830135828111156109b557600080fd5b6109c1878286016107e6565b60208301525095945050505050565b80356013811061090957600080fd5b6000608082840312156109f157600080fd5b6040516080810181811067ffffffffffffffff82111715610a1457610a146107d0565b60405282358152610a27602084016108f2565b602082015260408301356040820152610a42606084016109d0565b60608201529392505050565b600060208284031215610a6057600080fd5b61079c826109d0565b600181811c90821680610a7d57607f821691505b602082108103610a9d57634e487b7160e01b600052602260045260246000fd5b50919050565b601f821115610aed57600081815260208120601f850160051c81016020861015610aca5750805b601f850160051c820191505b81811015610ae957828155600101610ad6565b5050505b505050565b815167ffffffffffffffff811115610b0c57610b0c6107d0565b610b2081610b1a8454610a69565b84610aa3565b602080601f831160018114610b555760008415610b3d5750858301515b600019600386901b1c1916600185901b178555610ae9565b600085815260208120601f198616915b82811015610b8457888601518255948401946001909101908401610b65565b5085821015610ba25787850151600019600388901b60f8161c191681555b5050505050600190811b0190555056fea26469706673582212207a954f82903dc9630c8cc2c7b369fc534bc050ffcdd8ac1164950110f325627764736f6c63430008110033",
  "immutableReferences": {},
  "source": "// SPDX-License-Identifier: MIT\npragma solidity ^0.8.17;\n\nimport \"./RegistroMedico.sol\";\n\n\ncontract IntoleranciaAMedicamentoVO is RegistroMedico (TipoRegistroMedico.INTOLERACIAAMEDICAMENTOVO) {\n    struct IntoleranciaAMedicamentoStruct {\n        string descripcionMedicamento; // Quiz deba existir una lista de enfermedades en una nueva tabla\n        string comentarios;        \n    }\n\n    IntoleranciaAMedicamentoStruct private intoleranciaAMedicamentoStruct;\n\n    function getDescripcionMedicamento() public view returns (string memory) {\n        return intoleranciaAMedicamentoStruct.descripcionMedicamento;\n    }\n\n    function getComentarios() public view returns (string memory) {\n        return intoleranciaAMedicamentoStruct.comentarios;\n    }\n\n    \n    function getIntoleranciaAMedicamentoStruct()\n        public\n        view\n        returns (IntoleranciaAMedicamentoStruct memory)\n    {\n        return intoleranciaAMedicamentoStruct;\n    }\n\n    function setIntoleranciaAMedicamentoStruct(\n        IntoleranciaAMedicamentoStruct memory _intoleranciaAMedicamentoStruct\n    ) public {\n        intoleranciaAMedicamentoStruct = _intoleranciaAMedicamentoStruct;\n    }\n\n    function setDescripcionMedicamento(string memory _descripcionMedicamento) public {\n        intoleranciaAMedicamentoStruct.descripcionMedicamento = _descripcionMedicamento;\n    }\n\n    function setComentarios(string memory _comentarios) public {\n        intoleranciaAMedicamentoStruct.comentarios = _comentarios;\n    }\n}\n",
  "sourcePath": "/home/felipe/Documentos/Blockchain/codigo/HCE-full/back-hce/contracts/models/historiaClinica/IntoleranciaAMedicamentoVO.sol",
  "compiler": {
    "name": "solc",
    "version": "0.8.17+commit.8df45f5f.Emscripten.clang"
  },
  "schemaVersion": "3.4.8",
  "updatedAt": "2023-04-05T22:10:23.362Z",
  "devdoc": {
    "kind": "dev",
    "methods": {},
    "version": 1
  },
  "userdoc": {
    "kind": "user",
    "methods": {},
    "version": 1
  }
}