{
  "contractName": "IntoleranciaAMedicamentoVO",
  "abi": [
    {
      "inputs": [],
      "name": "creador",
      "outputs": [
        {
          "internalType": "address",
          "name": "",
          "type": "address"
        }
      ],
      "stateMutability": "view",
      "type": "function"
    },
    {
      "inputs": [],
      "name": "getCodPrestadorServicioDeSalud",
      "outputs": [
        {
          "internalType": "address",
          "name": "",
          "type": "address"
        }
      ],
      "stateMutability": "view",
      "type": "function"
    },
    {
      "inputs": [],
      "name": "getFechaRegistro",
      "outputs": [
        {
          "internalType": "int256",
          "name": "",
          "type": "int256"
        }
      ],
      "stateMutability": "view",
      "type": "function"
    },
    {
      "inputs": [],
      "name": "getId",
      "outputs": [
        {
          "internalType": "uint256",
          "name": "",
          "type": "uint256"
        }
      ],
      "stateMutability": "view",
      "type": "function"
    },
    {
      "inputs": [],
      "name": "getRegistroMedico",
      "outputs": [
        {
          "components": [
            {
              "internalType": "uint256",
              "name": "id",
              "type": "uint256"
            },
            {
              "internalType": "address",
              "name": "codPrestadorServicioDeSalud",
              "type": "address"
            },
            {
              "internalType": "int256",
              "name": "fechaRegistro",
              "type": "int256"
            },
            {
              "internalType": "enum TipoRegistroMedico",
              "name": "tipoRegistroMedico",
              "type": "uint8"
            }
          ],
          "internalType": "struct RegistroMedico.RegistroMedicoStruct",
          "name": "",
          "type": "tuple"
        }
      ],
      "stateMutability": "view",
      "type": "function"
    },
    {
      "inputs": [],
      "name": "getTipoRegistroMedico",
      "outputs": [
        {
          "internalType": "enum TipoRegistroMedico",
          "name": "",
          "type": "uint8"
        }
      ],
      "stateMutability": "view",
      "type": "function"
    },
    {
      "inputs": [],
      "name": "selfDestruct",
      "outputs": [],
      "stateMutability": "nonpayable",
      "type": "function"
    },
    {
      "inputs": [
        {
          "internalType": "address",
          "name": "_codPrestadorServicioDeSalud",
          "type": "address"
        }
      ],
      "name": "setCodPrestadorServicioDeSalud",
      "outputs": [],
      "stateMutability": "nonpayable",
      "type": "function"
    },
    {
      "inputs": [
        {
          "internalType": "int256",
          "name": "_fechaRegistro",
          "type": "int256"
        }
      ],
      "name": "setFechaRegistro",
      "outputs": [],
      "stateMutability": "nonpayable",
      "type": "function"
    },
    {
      "inputs": [
        {
          "internalType": "uint256",
          "name": "_id",
          "type": "uint256"
        }
      ],
      "name": "setId",
      "outputs": [],
      "stateMutability": "nonpayable",
      "type": "function"
    },
    {
      "inputs": [
        {
          "components": [
            {
              "internalType": "uint256",
              "name": "id",
              "type": "uint256"
            },
            {
              "internalType": "address",
              "name": "codPrestadorServicioDeSalud",
              "type": "address"
            },
            {
              "internalType": "int256",
              "name": "fechaRegistro",
              "type": "int256"
            },
            {
              "internalType": "enum TipoRegistroMedico",
              "name": "tipoRegistroMedico",
              "type": "uint8"
            }
          ],
          "internalType": "struct RegistroMedico.RegistroMedicoStruct",
          "name": "registro",
          "type": "tuple"
        }
      ],
      "name": "setRegistroMedico",
      "outputs": [],
      "stateMutability": "nonpayable",
      "type": "function"
    },
    {
      "inputs": [
        {
          "internalType": "enum TipoRegistroMedico",
          "name": "_tipoRegistroMedico",
          "type": "uint8"
        }
      ],
      "name": "setTipoRegistroMedico",
      "outputs": [],
      "stateMutability": "nonpayable",
      "type": "function"
    },
    {
      "inputs": [],
      "name": "getDescripcionMedicamento",
      "outputs": [
        {
          "internalType": "string",
          "name": "",
          "type": "string"
        }
      ],
      "stateMutability": "view",
      "type": "function"
    },
    {
      "inputs": [],
      "name": "getComentarios",
      "outputs": [
        {
          "internalType": "string",
          "name": "",
          "type": "string"
        }
      ],
      "stateMutability": "view",
      "type": "function"
    },
    {
      "inputs": [],
      "name": "getIntoleranciaAMedicamentoStruct",
      "outputs": [
        {
          "components": [
            {
              "internalType": "string",
              "name": "descripcionMedicamento",
              "type": "string"
            },
            {
              "internalType": "string",
              "name": "comentarios",
              "type": "string"
            }
          ],
          "internalType": "struct IntoleranciaAMedicamentoVO.IntoleranciaAMedicamentoStruct",
          "name": "",
          "type": "tuple"
        }
      ],
      "stateMutability": "view",
      "type": "function"
    },
    {
      "inputs": [
        {
          "components": [
            {
              "internalType": "string",
              "name": "descripcionMedicamento",
              "type": "string"
            },
            {
              "internalType": "string",
              "name": "comentarios",
              "type": "string"
            }
          ],
          "internalType": "struct IntoleranciaAMedicamentoVO.IntoleranciaAMedicamentoStruct",
          "name": "_intoleranciaAMedicamentoStruct",
          "type": "tuple"
        }
      ],
      "name": "setIntoleranciaAMedicamentoStruct",
      "outputs": [],
      "stateMutability": "nonpayable",
      "type": "function"
    },
    {
      "inputs": [
        {
          "internalType": "string",
          "name": "_descripcionMedicamento",
          "type": "string"
        }
      ],
      "name": "setDescripcionMedicamento",
      "outputs": [],
      "stateMutability": "nonpayable",
      "type": "function"
    },
    {
      "inputs": [
        {
          "internalType": "string",
          "name": "_comentarios",
          "type": "string"
        }
      ],
      "name": "setComentarios",
      "outputs": [],
      "stateMutability": "nonpayable",
      "type": "function"
    }
  ],
  "bytecode": "0x608060405234801561001057600080fd5b506004805460ff1916600a179055610bec8061002d6000396000f3fe608060405234801561001057600080fd5b50600436106101365760003560e01c80636be12bc2116100b257806393be08ef116100815780639df70822116100665780639df7082214610287578063ca3c5a131461029a578063d0e0ba95146102ad57600080fd5b806393be08ef1461026e5780639cb8a26a1461027f57600080fd5b80636be12bc2146101eb5780637979400e146101f3578063803a56ec1461020657806392ebdcd21461024357600080fd5b806344517a9a1161010957806359d0836e116100ee57806359d0836e146101bb5780635d1ca631146101d05780635f3774d4146101d857600080fd5b806344517a9a1461019557806347136647146101a857600080fd5b8063045c7bbe1461013b5780630bcacc1b146101505780631b59abb91461016e578063269f8e0114610180575b600080fd5b61014e6101493660046106cd565b600355565b005b6101586102c0565b604051610165919061071e565b60405180910390f35b6003545b604051908152602001610165565b610188610335565b60405161016591906107a6565b60045460ff1660405161016591906107c0565b61014e6101b6366004610877565b6103ca565b6101c36103da565b60405161016591906108b4565b600154610172565b61014e6101e6366004610921565b610524565b610188610590565b61014e610201366004610877565b6105a2565b61014e610214366004610990565b6002805473ffffffffffffffffffffffffffffffffffffffff19166001600160a01b0392909216919091179055565b600054610256906001600160a01b031681565b6040516001600160a01b039091168152602001610165565b6002546001600160a01b0316610256565b61014e6105ae565b61014e6102953660046109ab565b610680565b61014e6102a8366004610a52565b6106ae565b61014e6102bb3660046106cd565b600155565b6102e86040805160808101825260008082526020820181905291810182905290606082015290565b6040805160808101825260015481526002546001600160a01b0316602082015260035491810191909152600454606082019060ff16601281111561032e5761032e6106e6565b9052919050565b60606005600101805461034790610a6d565b80601f016020809104026020016040519081016040528092919081815260200182805461037390610a6d565b80156103c05780601f10610395576101008083540402835291602001916103c0565b820191906000526020600020905b8154815290600101906020018083116103a357829003601f168201915b5050505050905090565b60066103d68282610af6565b5050565b6040805180820190915260608082526020820152600560405180604001604052908160008201805461040b90610a6d565b80601f016020809104026020016040519081016040528092919081815260200182805461043790610a6d565b80156104845780601f1061045957610100808354040283529160200191610484565b820191906000526020600020905b81548152906001019060200180831161046757829003601f168201915b5050505050815260200160018201805461049d90610a6d565b80601f01602080910402602001604051908101604052809291908181526020018280546104c990610a6d565b80156105165780601f106104eb57610100808354040283529160200191610516565b820191906000526020600020905b8154815290600101906020018083116104f957829003601f168201915b505050505081525050905090565b8051600190815560208201516002805473ffffffffffffffffffffffffffffffffffffffff19166001600160a01b0390921691909117905560408201516003556060820151600480549192909160ff191690836012811115610588576105886106e6565b021790555050565b60606005600001805461034790610a6d565b60056103d68282610af6565b6000546001600160a01b03163314610672576040517f08c379a000000000000000000000000000000000000000000000000000000000815260206004820152604160248201527f457374612066756e63696f6e20736f6c6f2070756564652073657220656a656360448201527f757461646120706f7220656c2063726561646f722064656c20636f6e7472617460648201527f6f00000000000000000000000000000000000000000000000000000000000000608482015260a40160405180910390fd5b6000546001600160a01b0316ff5b8051819060059081906106939082610af6565b50602082015160018201906106a89082610af6565b50505050565b6004805482919060ff19166001836012811115610588576105886106e6565b6000602082840312156106df57600080fd5b5035919050565b634e487b7160e01b600052602160045260246000fd5b6013811061071a57634e487b7160e01b600052602160045260246000fd5b9052565b6000608082019050825182526001600160a01b03602084015116602083015260408301516040830152606083015161075960608401826106fc565b5092915050565b6000815180845260005b818110156107865760208185018101518683018201520161076a565b506000602082860101526020601f19601f83011685010191505092915050565b6020815260006107b96020830184610760565b9392505050565b602081016107ce82846106fc565b92915050565b634e487b7160e01b600052604160045260246000fd5b600082601f8301126107fb57600080fd5b813567ffffffffffffffff80821115610816576108166107d4565b604051601f8301601f19908116603f0116810190828211818310171561083e5761083e6107d4565b8160405283815286602085880101111561085757600080fd5b836020870160208301376000602085830101528094505050505092915050565b60006020828403121561088957600080fd5b813567ffffffffffffffff8111156108a057600080fd5b6108ac848285016107ea565b949350505050565b6020815260008251604060208401526108d06060840182610760565b90506020840151601f198483030160408501526108ed8282610760565b95945050505050565b80356001600160a01b038116811461090d57600080fd5b919050565b80356013811061090d57600080fd5b60006080828403121561093357600080fd5b6040516080810181811067ffffffffffffffff82111715610956576109566107d4565b60405282358152610969602084016108f6565b60208201526040830135604082015261098460608401610912565b60608201529392505050565b6000602082840312156109a257600080fd5b6107b9826108f6565b6000602082840312156109bd57600080fd5b813567ffffffffffffffff808211156109d557600080fd5b90830190604082860312156109e957600080fd5b604051604081018181108382111715610a0457610a046107d4565b604052823582811115610a1657600080fd5b610a22878286016107ea565b825250602083013582811115610a3757600080fd5b610a43878286016107ea565b60208301525095945050505050565b600060208284031215610a6457600080fd5b6107b982610912565b600181811c90821680610a8157607f821691505b602082108103610aa157634e487b7160e01b600052602260045260246000fd5b50919050565b601f821115610af157600081815260208120601f850160051c81016020861015610ace5750805b601f850160051c820191505b81811015610aed57828155600101610ada565b5050505b505050565b815167ffffffffffffffff811115610b1057610b106107d4565b610b2481610b1e8454610a6d565b84610aa7565b602080601f831160018114610b595760008415610b415750858301515b600019600386901b1c1916600185901b178555610aed565b600085815260208120601f198616915b82811015610b8857888601518255948401946001909101908401610b69565b5085821015610ba65787850151600019600388901b60f8161c191681555b5050505050600190811b0190555056fea2646970667358221220e77d7b319e87eab0ff58cd4b328c341b7d6571ea5c095191edd529cf23b678a064736f6c63430008110033",
  "immutableReferences": {},
  "source": "// SPDX-License-Identifier: MIT\npragma solidity ^0.8.17;\n\nimport \"./RegistroMedico.sol\";\n\n\ncontract IntoleranciaAMedicamentoVO is RegistroMedico (TipoRegistroMedico.INTOLERACIAAMEDICAMENTOVO) {\n    struct IntoleranciaAMedicamentoStruct {\n        string descripcionMedicamento; // Quiz deba existir una lista de enfermedades en una nueva tabla\n        string comentarios;        \n    }\n\n    IntoleranciaAMedicamentoStruct private intoleranciaAMedicamentoStruct;\n\n    function getDescripcionMedicamento() public view returns (string memory) {\n        return intoleranciaAMedicamentoStruct.descripcionMedicamento;\n    }\n\n    function getComentarios() public view returns (string memory) {\n        return intoleranciaAMedicamentoStruct.comentarios;\n    }\n\n    \n    function getIntoleranciaAMedicamentoStruct()\n        public\n        view\n        returns (IntoleranciaAMedicamentoStruct memory)\n    {\n        return intoleranciaAMedicamentoStruct;\n    }\n\n    function setIntoleranciaAMedicamentoStruct(\n        IntoleranciaAMedicamentoStruct memory _intoleranciaAMedicamentoStruct\n    ) public {\n        intoleranciaAMedicamentoStruct = _intoleranciaAMedicamentoStruct;\n    }\n\n    function setDescripcionMedicamento(string memory _descripcionMedicamento) public {\n        intoleranciaAMedicamentoStruct.descripcionMedicamento = _descripcionMedicamento;\n    }\n\n    function setComentarios(string memory _comentarios) public {\n        intoleranciaAMedicamentoStruct.comentarios = _comentarios;\n    }\n}\n",
  "sourcePath": "/back/contracts/models/historiaClinica/IntoleranciaAMedicamentoVO.sol",
  "compiler": {
    "name": "solc",
    "version": "0.8.17+commit.8df45f5f.Emscripten.clang"
  },
  "schemaVersion": "3.4.11",
  "updatedAt": "2023-05-03T04:13:43.284Z",
  "devdoc": {
    "kind": "dev",
    "methods": {},
    "version": 1
  },
  "userdoc": {
    "kind": "user",
    "methods": {},
    "version": 1
  }
}