{
  "contractName": "MedicoMapper",
  "abi": [
    {
      "inputs": [],
      "stateMutability": "nonpayable",
      "type": "constructor"
    },
    {
      "anonymous": false,
      "inputs": [
        {
          "indexed": false,
          "internalType": "string",
          "name": "data",
          "type": "string"
        }
      ],
      "name": "Log",
      "type": "event"
    },
    {
      "inputs": [],
      "name": "creador",
      "outputs": [
        {
          "internalType": "address",
          "name": "",
          "type": "address"
        }
      ],
      "stateMutability": "view",
      "type": "function",
      "constant": true
    },
    {
      "inputs": [
        {
          "internalType": "address",
          "name": "direccion",
          "type": "address"
        }
      ],
      "name": "consultar",
      "outputs": [
        {
          "internalType": "contract MedicoVO",
          "name": "",
          "type": "address"
        }
      ],
      "stateMutability": "nonpayable",
      "type": "function"
    },
    {
      "inputs": [
        {
          "internalType": "address",
          "name": "direccion",
          "type": "address"
        },
        {
          "internalType": "contract MedicoVO",
          "name": "medico",
          "type": "address"
        }
      ],
      "name": "guardar",
      "outputs": [
        {
          "internalType": "uint256",
          "name": "",
          "type": "uint256"
        }
      ],
      "stateMutability": "nonpayable",
      "type": "function"
    },
    {
      "inputs": [
        {
          "internalType": "address",
          "name": "direccion",
          "type": "address"
        },
        {
          "internalType": "contract MedicoVO",
          "name": "medico",
          "type": "address"
        }
      ],
      "name": "actualizar",
      "outputs": [],
      "stateMutability": "nonpayable",
      "type": "function"
    },
    {
      "inputs": [],
      "name": "size",
      "outputs": [
        {
          "internalType": "uint256",
          "name": "",
          "type": "uint256"
        }
      ],
      "stateMutability": "view",
      "type": "function",
      "constant": true
    },
    {
      "inputs": [],
      "name": "selfDestruct",
      "outputs": [],
      "stateMutability": "nonpayable",
      "type": "function"
    }
  ],
  "bytecode": "0x608060405234801561001057600080fd5b50600080546001600160a01b0319163317905561051a806100326000396000f3fe608060405234801561001057600080fd5b50600436106100725760003560e01c8063949d225d11610050578063949d225d146100cf5780639cb8a26a146100e1578063be381c59146100e957600080fd5b80630da7d7a5146100775780637da8f6a51461008c57806392ebdcd2146100bc575b600080fd5b61008a610085366004610487565b6100fc565b005b61009f61009a3660046104c0565b6101c9565b6040516001600160a01b0390911681526020015b60405180910390f35b60005461009f906001600160a01b031681565b6002545b6040519081526020016100b3565b61008a610239565b6100d36100f7366004610487565b6102ed565b6001600160a01b038281166000908152600160205260409020541661018e5760405162461bcd60e51b815260206004820152602e60248201527f4e6f2065786973746520756e206d656469636f207265676973747261646f206360448201527f6f6e20657365206164647265737300000000000000000000000000000000000060648201526084015b60405180910390fd5b6001600160a01b039182166000908152600160205260409020805473ffffffffffffffffffffffffffffffffffffffff191691909216179055565b6001600160a01b03808216600090815260016020526040812054909116806102335760405162461bcd60e51b815260206004820152601460248201527f4e6f2065786973746520657365206d656469636f0000000000000000000000006044820152606401610185565b92915050565b6000546001600160a01b031633146102df5760405162461bcd60e51b815260206004820152604160248201527f457374612066756e63696f6e20736f6c6f2070756564652073657220656a656360448201527f757461646120706f7220656c2063726561646f722064656c20636f6e7472617460648201527f6f00000000000000000000000000000000000000000000000000000000000000608482015260a401610185565b6000546001600160a01b0316ff5b6001600160a01b038281166000908152600160205260408120549091161561037d5760405162461bcd60e51b815260206004820152602e60248201527f59612065786973746520756e206d656469636f207265676973747261646f206360448201527f6f6e2065736520616464726573730000000000000000000000000000000000006064820152608401610185565b6002546040517fd0e0ba95000000000000000000000000000000000000000000000000000000008152600481018290526001600160a01b0384169063d0e0ba9590602401600060405180830381600087803b1580156103db57600080fd5b505af11580156103ef573d6000803e3d6000fd5b50506002805460018082019092557f405787fa12a823e0f2b7631cc41b3ba8828b3321ca811111fa75cd3aa3bb5ace0180546001600160a01b0398891673ffffffffffffffffffffffffffffffffffffffff1991821681179092556000918252602092909252604090208054969097169516949094179094559392505050565b6001600160a01b038116811461048457600080fd5b50565b6000806040838503121561049a57600080fd5b82356104a58161046f565b915060208301356104b58161046f565b809150509250929050565b6000602082840312156104d257600080fd5b81356104dd8161046f565b939250505056fea264697066735822122025d8470cecc551ea613751d80c20123cf356bde02eef928a2297cf71512dd79064736f6c63430008110033",
  "immutableReferences": {},
  "source": "// SPDX-License-Identifier: MIT\npragma solidity ^0.8.17;\n\nimport \"../models/MedicoVO.sol\";\nimport \"./MedicoMapperInterface.sol\";\n\ncontract MedicoMapper is MedicoMapperInterface {\n    address public creador;\n\n    mapping(address => MedicoVO) private medicos;\n    address[] private addressList; // NOTE Mapped Structs with Index\n\n    constructor() {\n        creador = msg.sender;\n    }\n\n    function consultar(address direccion) public returns (MedicoVO) {\n        MedicoVO medico = medicos[direccion];\n        if (address(medico) == address(0)) {\n            revert(\"No existe ese medico\");\n        }\n        return medico;\n    }\n\n    function guardar(address direccion, MedicoVO medico) public returns (uint256){\n        if (address(medicos[direccion]) != address(0)) {\n            revert(\"Ya existe un medico registrado con ese address\");\n        }        \n        uint256 id = addressList.length;\n        medico.setId(id);\n        addressList.push(direccion);\n        medicos[direccion] = medico;\n        return id;        \n    }\n\n    function actualizar(address direccion, MedicoVO medico) public {\n        if (address(medicos[direccion]) == address(0)) {\n            revert(\"No existe un medico registrado con ese address\");\n        }\n        medicos[direccion] = medico;\n    }\n\n    function size() external view returns (uint256) {\n        return addressList.length;\n    }\n\n    modifier esPropietario() {\n        require(\n            msg.sender == creador,\n            \"Esta funcion solo puede ser ejecutada por el creador del contrato\"\n        );\n        _; // ac se ejecuta la funcin\n    }\n\n    function selfDestruct() public esPropietario {\n        selfdestruct(payable(creador));\n    }\n}\n",
  "sourcePath": "/back/contracts/persistence/MedicoMapper.sol",
  "compiler": {
    "name": "solc",
    "version": "0.8.17+commit.8df45f5f.Emscripten.clang"
  },
  "schemaVersion": "3.4.11",
  "updatedAt": "2023-06-26T00:48:17.731Z",
  "networkType": "ethereum",
  "devdoc": {
    "kind": "dev",
    "methods": {},
    "version": 1
  },
  "userdoc": {
    "kind": "user",
    "methods": {},
    "version": 1
  }
}