{
  "contractName": "Medico",
  "abi": [
    {
      "inputs": [],
      "stateMutability": "nonpayable",
      "type": "constructor"
    },
    {
      "inputs": [],
      "name": "creador",
      "outputs": [
        {
          "internalType": "address",
          "name": "",
          "type": "address"
        }
      ],
      "stateMutability": "view",
      "type": "function",
      "constant": true
    },
    {
      "inputs": [],
      "name": "login",
      "outputs": [
        {
          "internalType": "contract Persona",
          "name": "",
          "type": "address"
        }
      ],
      "stateMutability": "view",
      "type": "function",
      "constant": true
    },
    {
      "inputs": [
        {
          "internalType": "uint256",
          "name": "funcionId",
          "type": "uint256"
        }
      ],
      "name": "buscarPermisosDeRol",
      "outputs": [
        {
          "internalType": "bool",
          "name": "",
          "type": "bool"
        }
      ],
      "stateMutability": "view",
      "type": "function",
      "constant": true
    }
  ],
  "bytecode": "0x608060405234801561001057600080fd5b50336000806101000a81548173ffffffffffffffffffffffffffffffffffffffff021916908373ffffffffffffffffffffffffffffffffffffffff160217905550610296806100606000396000f3fe608060405234801561001057600080fd5b50600436106100415760003560e01c806392ebdcd214610046578063b34e97e814610064578063f92e615314610082575b600080fd5b61004e6100b2565b60405161005b919061012d565b60405180910390f35b61006c6100d6565b60405161007991906101a7565b60405180910390f35b61009c600480360381019061009791906101fd565b6100e0565b6040516100a99190610245565b60405180910390f35b60008054906101000a900473ffffffffffffffffffffffffffffffffffffffff1681565b6000803390505090565b60008033905050919050565b600073ffffffffffffffffffffffffffffffffffffffff82169050919050565b6000610117826100ec565b9050919050565b6101278161010c565b82525050565b6000602082019050610142600083018461011e565b92915050565b6000819050919050565b600061016d610168610163846100ec565b610148565b6100ec565b9050919050565b600061017f82610152565b9050919050565b600061019182610174565b9050919050565b6101a181610186565b82525050565b60006020820190506101bc6000830184610198565b92915050565b600080fd5b6000819050919050565b6101da816101c7565b81146101e557600080fd5b50565b6000813590506101f7816101d1565b92915050565b600060208284031215610213576102126101c2565b5b6000610221848285016101e8565b91505092915050565b60008115159050919050565b61023f8161022a565b82525050565b600060208201905061025a6000830184610236565b9291505056fea264697066735822122011fee15168a5b8806e5f4304784ced2427424dbbde56175f0cc4a6b41b135f3664736f6c634300080b0033",
  "immutableReferences": {},
  "source": "pragma solidity >=0.5.0 <0.9.0; // TODO: Ajustar la versin por consenso con Jos\n\nimport \"./Usuario.sol\";\n\n// NOTE: se deja el abstrac contrac justo con sus hijos por cuestiones de ordenamiento de cdigo solidity, antes decia \"Definition of base has to precede definition of derived contract\"\n\nabstract contract Persona {\n    struct PersonaStruct {\n        string primerNombre;\n        string segundoNombre;\n        string primerApellido;\n        string segundoApellido;\n        string identificacion;\n        // TipoIdentificacionStruct public tipoIdentificacion; // TODO: cambiar tipo por el de la estructura ms adelante\n        string tipoIdentificacion;\n        // Usuario accesoUsuario;\n        bool isValue;\n    }\n    /*\n    // address public creador;\n    string private primerNombre;\n    string private segundoNombre;\n    string private primerApellido;\n    string private segundoApellido;\n    string private identificacion;\n    // TipoIdentificacionStruct public tipoIdentificacion; // TODO: cambiar tipo por el de la estructura ms adelante\n    string private tipoIdentificacion;\n    Usuario private accesoUsuario;\n    bool private isValue;\n    */\n    /*\n    // function registrar() public virtual returns(Persona); ejemplo de funcin abstracta\n    function registrar() public returns(bool){\n        // Persona persona = new Paciente();\n        return true;\n    }\n*/\n    /*\n    function getAccesoUsuario() public view returns (string memory) {\n        return primerNombre;\n    }\n\n    function setAccesoUsuario(Usuario newMessage) public {\n        accesoUsuario = newMessage;\n    }\n\n    function getIdentificacion() public view returns (string memory) {\n        return identificacion;\n    }\n\n    function setIdentificacion(string memory newMessage) public {\n        // TODO: investigar porque se pone memery en el arametros del mtodo\n        identificacion = newMessage;\n    }\n\n    function getPrimerApellido() public view returns (string memory) {\n        return primerApellido;\n    }\n\n    function setPrimerApellido(string memory newMessage) public {\n        primerApellido = newMessage;\n    }\n\n    function getPrimerNombre() public view returns (string memory) {\n        return primerNombre;\n    }\n\n    function setPrimerNombre(string memory newMessage) public {\n        primerNombre = newMessage;\n    }\n\n    function getSegundoApellido() public view returns (string memory) {\n        return segundoApellido;\n    }\n\n    function setSegundoApellido(string memory newMessage) public {\n        segundoApellido = newMessage;\n    }\n\n    function getSegundoNombre() public view returns (string memory) {\n        return segundoNombre;\n    }\n\n    function setSegundoNombre(string memory newMessage) public {\n        segundoNombre = newMessage;\n    }\n\n    function getTipoIdentificacion() public view returns (string memory) {\n        return tipoIdentificacion;\n    }\n\n    function setTipoIdentificacion(string memory newMessage) public {\n        tipoIdentificacion = newMessage;\n    }\n\n    function getIsValue() public view returns (bool) {\n        return isValue;\n    }\n\n    function setIsValue(bool newMessage) public {\n        isValue = newMessage;\n    }\n    */\n}\n\n// TODO: intentar separar en otro documento\ncontract Paciente is Persona {\n    // address public creador;\n    struct MedicoStruct {\n        PersonaStruct persona;\n        uint256 historiaClinicaId;\n    }\n\n    // EstadoStruct private estado;\n\n    // DatosPersonales private datosPersonales;\n\n    constructor() public {\n        // creador = msg.sender; // creador del contrato\n    }\n}\n\ncontract Medico is Persona {\n    address public creador;\n\n    struct MedicoStruct {\n        PersonaStruct persona;\n        string especialidad;\n        string usuario;\n        string contrasena;\n    }\n\n    // EstadoStruct private estado;\n\n    struct PerfilMedicoSistemaExternoStruct {\n        string primerNombre;\n        string segundoNombre;\n        string primerApellido;\n        string segundoApellido;\n        string identificacion; // TODO: agregar tipo de identificacion\n        string especialidad;\n    }\n\n    constructor() public {\n        creador = msg.sender; // creador del contrato\n    }\n\n    function login() public view returns (Persona) {\n        address direccion = msg.sender;\n        // TODO: buscar persona en arreglo\n    }\n\n    // TODO: buscar porque es uint256\n    function buscarPermisosDeRol(uint256 funcionId) public view returns (bool) {\n        address direccion = msg.sender;\n        // TODO: esto es como un filtro (averiguar si lo hay en solidity) y sirve para ver si un usario tiene acceso a x metodo\n    }\n}\n",
  "sourcePath": "/home/felipe/Documentos/Blockchain/codigo/back-hce/contracts/logica/Persona.sol",
  "compiler": {
    "name": "solc",
    "version": "0.8.11+commit.d7f03943.Emscripten.clang"
  },
  "schemaVersion": "3.4.4",
  "updatedAt": "2022-01-23T02:52:56.326Z",
  "networkType": "ethereum",
  "devdoc": {
    "kind": "dev",
    "methods": {},
    "version": 1
  },
  "userdoc": {
    "kind": "user",
    "methods": {},
    "version": 1
  }
}