{
  "contractName": "Medico",
  "abi": [
    {
      "inputs": [],
      "stateMutability": "nonpayable",
      "type": "constructor"
    },
    {
      "inputs": [],
      "name": "creador",
      "outputs": [
        {
          "internalType": "address",
          "name": "",
          "type": "address"
        }
      ],
      "stateMutability": "view",
      "type": "function"
    },
    {
      "inputs": [],
      "name": "getAccesoUsuario",
      "outputs": [
        {
          "internalType": "string",
          "name": "",
          "type": "string"
        }
      ],
      "stateMutability": "view",
      "type": "function"
    },
    {
      "inputs": [],
      "name": "getIdentificacion",
      "outputs": [
        {
          "internalType": "string",
          "name": "",
          "type": "string"
        }
      ],
      "stateMutability": "view",
      "type": "function"
    },
    {
      "inputs": [],
      "name": "getPrimerApellido",
      "outputs": [
        {
          "internalType": "string",
          "name": "",
          "type": "string"
        }
      ],
      "stateMutability": "view",
      "type": "function"
    },
    {
      "inputs": [],
      "name": "getPrimerNombre",
      "outputs": [
        {
          "internalType": "string",
          "name": "",
          "type": "string"
        }
      ],
      "stateMutability": "view",
      "type": "function"
    },
    {
      "inputs": [],
      "name": "getSegundoApellido",
      "outputs": [
        {
          "internalType": "string",
          "name": "",
          "type": "string"
        }
      ],
      "stateMutability": "view",
      "type": "function"
    },
    {
      "inputs": [],
      "name": "getSegundoNombre",
      "outputs": [
        {
          "internalType": "string",
          "name": "",
          "type": "string"
        }
      ],
      "stateMutability": "view",
      "type": "function"
    },
    {
      "inputs": [],
      "name": "getTipoIdentificacion",
      "outputs": [
        {
          "internalType": "string",
          "name": "",
          "type": "string"
        }
      ],
      "stateMutability": "view",
      "type": "function"
    },
    {
      "inputs": [
        {
          "internalType": "contract Usuario",
          "name": "newMessage",
          "type": "address"
        }
      ],
      "name": "setAccesoUsuario",
      "outputs": [],
      "stateMutability": "nonpayable",
      "type": "function"
    },
    {
      "inputs": [
        {
          "internalType": "string",
          "name": "newMessage",
          "type": "string"
        }
      ],
      "name": "setIdentificacion",
      "outputs": [],
      "stateMutability": "nonpayable",
      "type": "function"
    },
    {
      "inputs": [
        {
          "internalType": "string",
          "name": "newMessage",
          "type": "string"
        }
      ],
      "name": "setPrimerApellido",
      "outputs": [],
      "stateMutability": "nonpayable",
      "type": "function"
    },
    {
      "inputs": [
        {
          "internalType": "string",
          "name": "newMessage",
          "type": "string"
        }
      ],
      "name": "setPrimerNombre",
      "outputs": [],
      "stateMutability": "nonpayable",
      "type": "function"
    },
    {
      "inputs": [
        {
          "internalType": "string",
          "name": "newMessage",
          "type": "string"
        }
      ],
      "name": "setSegundoApellido",
      "outputs": [],
      "stateMutability": "nonpayable",
      "type": "function"
    },
    {
      "inputs": [
        {
          "internalType": "string",
          "name": "newMessage",
          "type": "string"
        }
      ],
      "name": "setSegundoNombre",
      "outputs": [],
      "stateMutability": "nonpayable",
      "type": "function"
    },
    {
      "inputs": [
        {
          "internalType": "string",
          "name": "newMessage",
          "type": "string"
        }
      ],
      "name": "setTipoIdentificacion",
      "outputs": [],
      "stateMutability": "nonpayable",
      "type": "function"
    },
    {
      "inputs": [],
      "name": "login",
      "outputs": [
        {
          "internalType": "contract Persona",
          "name": "",
          "type": "address"
        }
      ],
      "stateMutability": "nonpayable",
      "type": "function"
    },
    {
      "inputs": [
        {
          "internalType": "uint256",
          "name": "funcionId",
          "type": "uint256"
        }
      ],
      "name": "buscarPermisosDeRol",
      "outputs": [
        {
          "internalType": "bool",
          "name": "",
          "type": "bool"
        }
      ],
      "stateMutability": "view",
      "type": "function"
    }
  ],
  "bytecode": "0x608060405234801561001057600080fd5b5033600760006101000a81548173ffffffffffffffffffffffffffffffffffffffff021916908373ffffffffffffffffffffffffffffffffffffffff160217905550610d8d806100616000396000f3fe608060405234801561001057600080fd5b506004361061010b5760003560e01c80639ac9abd0116100a2578063b34e97e811610071578063b34e97e81461026c578063c461d52e1461028a578063cc9f930e146102a8578063eacd3b93146102c4578063f92e6153146102e25761010b565b80639ac9abd0146101f6578063ac1e324914610214578063b224583414610232578063b2f9ccbb1461024e5761010b565b80634fe5aa08116100de5780634fe5aa0814610182578063551a5cfa146101a057806383cb77b0146101bc57806392ebdcd2146101d85761010b565b806314dac2ae1461011057806328fd48731461012c5780633ca452b9146101485780634e8c23ca14610166575b600080fd5b61012a60048036038101906101259190610953565b610312565b005b61014660048036038101906101419190610ac6565b610356565b005b610150610370565b60405161015d9190610b97565b60405180910390f35b610180600480360381019061017b9190610ac6565b610402565b005b61018a61041c565b6040516101979190610b97565b60405180910390f35b6101ba60048036038101906101b59190610ac6565b6104ae565b005b6101d660048036038101906101d19190610ac6565b6104c8565b005b6101e06104e2565b6040516101ed9190610bc8565b60405180910390f35b6101fe610508565b60405161020b9190610b97565b60405180910390f35b61021c61059a565b6040516102299190610b97565b60405180910390f35b61024c60048036038101906102479190610ac6565b61062c565b005b610256610646565b6040516102639190610b97565b60405180910390f35b6102746106d8565b6040516102819190610c42565b60405180910390f35b6102926106e2565b60405161029f9190610b97565b60405180910390f35b6102c260048036038101906102bd9190610ac6565b610774565b005b6102cc61078e565b6040516102d99190610b97565b60405180910390f35b6102fc60048036038101906102f79190610c93565b610820565b6040516103099190610cdb565b60405180910390f35b80600660006101000a81548173ffffffffffffffffffffffffffffffffffffffff021916908373ffffffffffffffffffffffffffffffffffffffff16021790555050565b806004908051906020019061036c92919061082c565b5050565b60606000805461037f90610d25565b80601f01602080910402602001604051908101604052809291908181526020018280546103ab90610d25565b80156103f85780601f106103cd576101008083540402835291602001916103f8565b820191906000526020600020905b8154815290600101906020018083116103db57829003601f168201915b5050505050905090565b806003908051906020019061041892919061082c565b5050565b60606000805461042b90610d25565b80601f016020809104026020016040519081016040528092919081815260200182805461045790610d25565b80156104a45780601f10610479576101008083540402835291602001916104a4565b820191906000526020600020905b81548152906001019060200180831161048757829003601f168201915b5050505050905090565b80600190805190602001906104c492919061082c565b5050565b80600090805190602001906104de92919061082c565b5050565b600760009054906101000a900473ffffffffffffffffffffffffffffffffffffffff1681565b60606004805461051790610d25565b80601f016020809104026020016040519081016040528092919081815260200182805461054390610d25565b80156105905780601f1061056557610100808354040283529160200191610590565b820191906000526020600020905b81548152906001019060200180831161057357829003601f168201915b5050505050905090565b6060600580546105a990610d25565b80601f01602080910402602001604051908101604052809291908181526020018280546105d590610d25565b80156106225780601f106105f757610100808354040283529160200191610622565b820191906000526020600020905b81548152906001019060200180831161060557829003601f168201915b5050505050905090565b806005908051906020019061064292919061082c565b5050565b60606001805461065590610d25565b80601f016020809104026020016040519081016040528092919081815260200182805461068190610d25565b80156106ce5780601f106106a3576101008083540402835291602001916106ce565b820191906000526020600020905b8154815290600101906020018083116106b157829003601f168201915b5050505050905090565b6000803390505090565b6060600280546106f190610d25565b80601f016020809104026020016040519081016040528092919081815260200182805461071d90610d25565b801561076a5780601f1061073f5761010080835404028352916020019161076a565b820191906000526020600020905b81548152906001019060200180831161074d57829003601f168201915b5050505050905090565b806002908051906020019061078a92919061082c565b5050565b60606003805461079d90610d25565b80601f01602080910402602001604051908101604052809291908181526020018280546107c990610d25565b80156108165780601f106107eb57610100808354040283529160200191610816565b820191906000526020600020905b8154815290600101906020018083116107f957829003601f168201915b5050505050905090565b60008033905050919050565b82805461083890610d25565b90600052602060002090601f01602090048101928261085a57600085556108a1565b82601f1061087357805160ff19168380011785556108a1565b828001600101855582156108a1579182015b828111156108a0578251825591602001919060010190610885565b5b5090506108ae91906108b2565b5090565b5b808211156108cb5760008160009055506001016108b3565b5090565b6000604051905090565b600080fd5b600080fd5b600073ffffffffffffffffffffffffffffffffffffffff82169050919050565b600061090e826108e3565b9050919050565b600061092082610903565b9050919050565b61093081610915565b811461093b57600080fd5b50565b60008135905061094d81610927565b92915050565b600060208284031215610969576109686108d9565b5b60006109778482850161093e565b91505092915050565b600080fd5b600080fd5b6000601f19601f8301169050919050565b7f4e487b7100000000000000000000000000000000000000000000000000000000600052604160045260246000fd5b6109d38261098a565b810181811067ffffffffffffffff821117156109f2576109f161099b565b5b80604052505050565b6000610a056108cf565b9050610a1182826109ca565b919050565b600067ffffffffffffffff821115610a3157610a3061099b565b5b610a3a8261098a565b9050602081019050919050565b82818337600083830152505050565b6000610a69610a6484610a16565b6109fb565b905082815260208101848484011115610a8557610a84610985565b5b610a90848285610a47565b509392505050565b600082601f830112610aad57610aac610980565b5b8135610abd848260208601610a56565b91505092915050565b600060208284031215610adc57610adb6108d9565b5b600082013567ffffffffffffffff811115610afa57610af96108de565b5b610b0684828501610a98565b91505092915050565b600081519050919050565b600082825260208201905092915050565b60005b83811015610b49578082015181840152602081019050610b2e565b83811115610b58576000848401525b50505050565b6000610b6982610b0f565b610b738185610b1a565b9350610b83818560208601610b2b565b610b8c8161098a565b840191505092915050565b60006020820190508181036000830152610bb18184610b5e565b905092915050565b610bc281610903565b82525050565b6000602082019050610bdd6000830184610bb9565b92915050565b6000819050919050565b6000610c08610c03610bfe846108e3565b610be3565b6108e3565b9050919050565b6000610c1a82610bed565b9050919050565b6000610c2c82610c0f565b9050919050565b610c3c81610c21565b82525050565b6000602082019050610c576000830184610c33565b92915050565b6000819050919050565b610c7081610c5d565b8114610c7b57600080fd5b50565b600081359050610c8d81610c67565b92915050565b600060208284031215610ca957610ca86108d9565b5b6000610cb784828501610c7e565b91505092915050565b60008115159050919050565b610cd581610cc0565b82525050565b6000602082019050610cf06000830184610ccc565b92915050565b7f4e487b7100000000000000000000000000000000000000000000000000000000600052602260045260246000fd5b60006002820490506001821680610d3d57607f821691505b60208210811415610d5157610d50610cf6565b5b5091905056fea2646970667358221220a2700af72a339ff5e19172b07d72e0666b04b7ade36b00f30556d365999b036364736f6c634300080b0033",
  "immutableReferences": {},
  "source": "pragma solidity >=0.5.0 <0.9.0; // TODO: Ajustar la versin por consenso con Jos\n\nimport \"./Usuario.sol\";\n\n// NOTE: se deja el abstrac contrac justo con sus hijos por cuestiones de ordenamiento de cdigo solidity, antes decia \"Definition of base has to precede definition of derived contract\"\n\nabstract contract Persona {\n    // address public creador;\n    string private primerNombre;\n    string private segundoNombre;\n    string private primerApellido;\n    string private segundoApellido;\n    string private identificacion;\n    // TipoIdentificacionStruct public tipoIdentificacion; // TODO: cambiar tipo por el de la estructura ms adelante\n    string private tipoIdentificacion;\n    Usuario private accesoUsuario;\n\n    /*\n    // function registrar() public virtual returns(Persona); ejemplo de funcin abstracta\n    function registrar() public returns(bool){\n        // Persona persona = new Paciente();\n        return true;\n    }\n*/\n    function getAccesoUsuario() public view returns (string memory) {\n        return primerNombre;\n    }\n\n    function setAccesoUsuario(Usuario newMessage) public {\n        accesoUsuario = newMessage;\n    }\n\n    function getIdentificacion() public view returns (string memory) {\n        return identificacion;\n    }\n\n    function setIdentificacion(string memory newMessage) public {\n        // TODO: investigar porque se pone memery en el arametros del mtodo\n        identificacion = newMessage;\n    }\n\n    function getPrimerApellido() public view returns (string memory) {\n        return primerApellido;\n    }\n\n    function setPrimerApellido(string memory newMessage) public {\n        primerApellido = newMessage;\n    }\n\n    function getPrimerNombre() public view returns (string memory) {\n        return primerNombre;\n    }\n\n    function setPrimerNombre(string memory newMessage) public {\n        primerNombre = newMessage;\n    }\n\n    function getSegundoApellido() public view returns (string memory) {\n        return segundoApellido;\n    }\n\n    function setSegundoApellido(string memory newMessage) public {\n        segundoApellido = newMessage;\n    }\n\n    function getSegundoNombre() public view returns (string memory) {\n        return segundoNombre;\n    }\n\n    function setSegundoNombre(string memory newMessage) public {\n        segundoNombre = newMessage;\n    }\n\n    function getTipoIdentificacion() public view returns (string memory) {\n        return tipoIdentificacion;\n    }\n\n    function setTipoIdentificacion(string memory newMessage) public {\n        tipoIdentificacion = newMessage;\n    }\n}\n\ncontract Paciente is Persona {\n    address public creador;\n\n    // EstadoStruct private estado;\n    uint256 private historiaClinicaId;\n\n    // DatosPersonales private datosPersonales;\n\n    constructor() public {\n        creador = msg.sender; // creador del contrato\n    }\n}\n\ncontract Medico is Persona {\n    address public creador;\n\n    // EstadoStruct private estado;\n    string private especialidad;\n    string private usuario;\n    string private contrasena;\n\n    struct PerfilMedicoSistemaExternoStruct {\n        string primerNombre;\n        string segundoNombre;\n        string primerApellido;\n        string segundoApellido;\n        string identificacion; // TODO: agregar tipo de identificacion\n        string especialidad;\n    }\n\n    constructor() public {\n        creador = msg.sender; // creador del contrato\n    }\n\n    function login() public returns (Persona) {\n        address direccion = msg.sender;\n        // TODO: buscar persona en arreglo\n    }\n\n    // TODO: buscar porque es uint256\n    function buscarPermisosDeRol(uint256 funcionId) public view returns (bool) {\n        address direccion = msg.sender;\n        // TODO: esto es como un filtro (averiguar si lo hay en solidity) y sirve para ver si un usario tiene acceso a x metodo\n    }\n}\n",
  "sourcePath": "/home/felipe/Documentos/Blockchain/codigo/back-hce/contracts/logica/Persona.sol",
  "compiler": {
    "name": "solc",
    "version": "0.8.11+commit.d7f03943.Emscripten.clang"
  },
  "schemaVersion": "3.4.4",
  "updatedAt": "2022-01-18T03:13:18.655Z",
  "devdoc": {
    "kind": "dev",
    "methods": {},
    "version": 1
  },
  "userdoc": {
    "kind": "user",
    "methods": {},
    "version": 1
  }
}