{
  "contractName": "Medico",
  "abi": [
    {
      "inputs": [],
      "stateMutability": "nonpayable",
      "type": "constructor"
    },
    {
      "anonymous": false,
      "inputs": [
        {
          "indexed": false,
          "internalType": "string",
          "name": "data",
          "type": "string"
        }
      ],
      "name": "Log",
      "type": "event"
    },
    {
      "inputs": [],
      "name": "PersonaDAOAddress",
      "outputs": [
        {
          "internalType": "address",
          "name": "",
          "type": "address"
        }
      ],
      "stateMutability": "view",
      "type": "function",
      "constant": true
    },
    {
      "inputs": [
        {
          "internalType": "address",
          "name": "direccion",
          "type": "address"
        }
      ],
      "name": "consultar",
      "outputs": [
        {
          "components": [
            {
              "internalType": "string",
              "name": "primerNombre",
              "type": "string"
            },
            {
              "internalType": "string",
              "name": "segundoNombre",
              "type": "string"
            },
            {
              "internalType": "string",
              "name": "primerApellido",
              "type": "string"
            },
            {
              "internalType": "string",
              "name": "segundoApellido",
              "type": "string"
            },
            {
              "internalType": "string",
              "name": "identificacion",
              "type": "string"
            },
            {
              "components": [
                {
                  "internalType": "string",
                  "name": "nombre",
                  "type": "string"
                },
                {
                  "internalType": "string",
                  "name": "descripcion",
                  "type": "string"
                },
                {
                  "internalType": "bool",
                  "name": "estaActiva",
                  "type": "bool"
                }
              ],
              "internalType": "struct TipoIdentificacionStruct",
              "name": "tipoIdentificacion",
              "type": "tuple"
            },
            {
              "internalType": "bool",
              "name": "isValue",
              "type": "bool"
            }
          ],
          "internalType": "struct PersonaStruct",
          "name": "",
          "type": "tuple"
        }
      ],
      "stateMutability": "nonpayable",
      "type": "function"
    },
    {
      "inputs": [],
      "name": "creador",
      "outputs": [
        {
          "internalType": "address",
          "name": "",
          "type": "address"
        }
      ],
      "stateMutability": "view",
      "type": "function",
      "constant": true
    },
    {
      "inputs": [],
      "name": "propietario",
      "outputs": [
        {
          "internalType": "address",
          "name": "",
          "type": "address"
        }
      ],
      "stateMutability": "view",
      "type": "function",
      "constant": true
    },
    {
      "inputs": [
        {
          "internalType": "address",
          "name": "direccion",
          "type": "address"
        },
        {
          "components": [
            {
              "internalType": "string",
              "name": "primerNombre",
              "type": "string"
            },
            {
              "internalType": "string",
              "name": "segundoNombre",
              "type": "string"
            },
            {
              "internalType": "string",
              "name": "primerApellido",
              "type": "string"
            },
            {
              "internalType": "string",
              "name": "segundoApellido",
              "type": "string"
            },
            {
              "internalType": "string",
              "name": "identificacion",
              "type": "string"
            },
            {
              "components": [
                {
                  "internalType": "string",
                  "name": "nombre",
                  "type": "string"
                },
                {
                  "internalType": "string",
                  "name": "descripcion",
                  "type": "string"
                },
                {
                  "internalType": "bool",
                  "name": "estaActiva",
                  "type": "bool"
                }
              ],
              "internalType": "struct TipoIdentificacionStruct",
              "name": "tipoIdentificacion",
              "type": "tuple"
            },
            {
              "internalType": "bool",
              "name": "isValue",
              "type": "bool"
            }
          ],
          "internalType": "struct PersonaStruct",
          "name": "persona",
          "type": "tuple"
        }
      ],
      "name": "registrar",
      "outputs": [],
      "stateMutability": "nonpayable",
      "type": "function"
    },
    {
      "inputs": [
        {
          "internalType": "address",
          "name": "direccion",
          "type": "address"
        }
      ],
      "name": "setPersonaDAOAddress",
      "outputs": [],
      "stateMutability": "nonpayable",
      "type": "function"
    },
    {
      "inputs": [],
      "name": "login",
      "outputs": [
        {
          "internalType": "contract Persona",
          "name": "",
          "type": "address"
        }
      ],
      "stateMutability": "view",
      "type": "function",
      "constant": true
    },
    {
      "inputs": [
        {
          "internalType": "uint256",
          "name": "funcionId",
          "type": "uint256"
        }
      ],
      "name": "buscarPermisosDeRol",
      "outputs": [
        {
          "internalType": "bool",
          "name": "",
          "type": "bool"
        }
      ],
      "stateMutability": "view",
      "type": "function",
      "constant": true
    }
  ],
  "bytecode": "0x608060405234801561001057600080fd5b50336000806101000a81548173ffffffffffffffffffffffffffffffffffffffff021916908373ffffffffffffffffffffffffffffffffffffffff16021790555033600360006101000a81548173ffffffffffffffffffffffffffffffffffffffff021916908373ffffffffffffffffffffffffffffffffffffffff160217905550611589806100a16000396000f3fe608060405234801561001057600080fd5b50600436106100885760003560e01c8063af4856f81161005b578063af4856f814610117578063b34e97e814610133578063c2aa74d214610151578063f92e61531461016d57610088565b80633c4f81cd1461008d57806352340e2e146100ab5780637da8f6a5146100c957806392ebdcd2146100f9575b600080fd5b61009561019d565b6040516100a2919061073e565b60405180910390f35b6100b36101c1565b6040516100c0919061073e565b60405180910390f35b6100e360048036038101906100de9190610799565b6101e7565b6040516100f09190610990565b60405180910390f35b6101016103b3565b60405161010e919061073e565b60405180910390f35b610131600480360381019061012c9190610d15565b6103d9565b005b61013b61054a565b6040516101489190610dd0565b60405180910390f35b61016b60048036038101906101669190610799565b610554565b005b61018760048036038101906101829190610e21565b610689565b6040516101949190610e5d565b60405180910390f35b60008054906101000a900473ffffffffffffffffffffffffffffffffffffffff1681565b600160009054906101000a900473ffffffffffffffffffffffffffffffffffffffff1681565b6101ef610695565b7fcf34ef537ac33ee1ac626ca1587a0a7e8e51561e5514f8cb36afa1c5102b3bab60405161021c90610ed5565b60405180910390a1600260009054906101000a900473ffffffffffffffffffffffffffffffffffffffff1673ffffffffffffffffffffffffffffffffffffffff16637da8f6a5836040518263ffffffff1660e01b815260040161027f919061073e565b6000604051808303816000875af19250505080156102c057506040513d6000823e3d601f19601f820116820180604052508101906102bd9190611172565b60015b61036f576102cc6111c8565b806308c379a0141561035e57506102e16111ea565b806102ec5750610360565b7fcf34ef537ac33ee1ac626ca1587a0a7e8e51561e5514f8cb36afa1c5102b3bab604051610319906112f2565b60405180910390a17fcf34ef537ac33ee1ac626ca1587a0a7e8e51561e5514f8cb36afa1c5102b3bab81604051610350919061134b565b60405180910390a15061036a565b505b3d6000803e3d6000fd5b6103ad565b7fcf34ef537ac33ee1ac626ca1587a0a7e8e51561e5514f8cb36afa1c5102b3bab60405161039c906113b9565b60405180910390a1809150506103ae565b5b919050565b600360009054906101000a900473ffffffffffffffffffffffffffffffffffffffff1681565b600260009054906101000a900473ffffffffffffffffffffffffffffffffffffffff1673ffffffffffffffffffffffffffffffffffffffff16639c8508d783836040518363ffffffff1660e01b81526004016104369291906113d9565b600060405180830381600087803b15801561045057600080fd5b505af1925050508015610461575060015b6105105761046d6111c8565b806308c379a014156104ff57506104826111ea565b8061048d5750610501565b7fcf34ef537ac33ee1ac626ca1587a0a7e8e51561e5514f8cb36afa1c5102b3bab6040516104ba906112f2565b60405180910390a17fcf34ef537ac33ee1ac626ca1587a0a7e8e51561e5514f8cb36afa1c5102b3bab816040516104f1919061134b565b60405180910390a15061050b565b505b3d6000803e3d6000fd5b610546565b7fcf34ef537ac33ee1ac626ca1587a0a7e8e51561e5514f8cb36afa1c5102b3bab60405161053d9061147b565b60405180910390a15b5050565b6000803390505090565b60008054906101000a900473ffffffffffffffffffffffffffffffffffffffff1673ffffffffffffffffffffffffffffffffffffffff163373ffffffffffffffffffffffffffffffffffffffff16146105e2576040517f08c379a00000000000000000000000000000000000000000000000000000000081526004016105d990611533565b60405180910390fd5b80600160006101000a81548173ffffffffffffffffffffffffffffffffffffffff021916908373ffffffffffffffffffffffffffffffffffffffff160217905550600160009054906101000a900473ffffffffffffffffffffffffffffffffffffffff16600260006101000a81548173ffffffffffffffffffffffffffffffffffffffff021916908373ffffffffffffffffffffffffffffffffffffffff16021790555050565b60008033905050919050565b6040518060e0016040528060608152602001606081526020016060815260200160608152602001606081526020016106cb6106da565b81526020016000151581525090565b604051806060016040528060608152602001606081526020016000151581525090565b600073ffffffffffffffffffffffffffffffffffffffff82169050919050565b6000610728826106fd565b9050919050565b6107388161071d565b82525050565b6000602082019050610753600083018461072f565b92915050565b6000604051905090565b600080fd5b600080fd5b6107768161071d565b811461078157600080fd5b50565b6000813590506107938161076d565b92915050565b6000602082840312156107af576107ae610763565b5b60006107bd84828501610784565b91505092915050565b600081519050919050565b600082825260208201905092915050565b60005b838110156108005780820151818401526020810190506107e5565b8381111561080f576000848401525b50505050565b6000601f19601f8301169050919050565b6000610831826107c6565b61083b81856107d1565b935061084b8185602086016107e2565b61085481610815565b840191505092915050565b60008115159050919050565b6108748161085f565b82525050565b600060608301600083015184820360008601526108978282610826565b915050602083015184820360208601526108b18282610826565b91505060408301516108c6604086018261086b565b508091505092915050565b600060e08301600083015184820360008601526108ee8282610826565b915050602083015184820360208601526109088282610826565b915050604083015184820360408601526109228282610826565b9150506060830151848203606086015261093c8282610826565b915050608083015184820360808601526109568282610826565b91505060a083015184820360a0860152610970828261087a565b91505060c083015161098560c086018261086b565b508091505092915050565b600060208201905081810360008301526109aa81846108d1565b905092915050565b600080fd5b7f4e487b7100000000000000000000000000000000000000000000000000000000600052604160045260246000fd5b6109ef82610815565b810181811067ffffffffffffffff82111715610a0e57610a0d6109b7565b5b80604052505050565b6000610a21610759565b9050610a2d82826109e6565b919050565b600080fd5b600080fd5b600080fd5b600067ffffffffffffffff821115610a5c57610a5b6109b7565b5b610a6582610815565b9050602081019050919050565b82818337600083830152505050565b6000610a94610a8f84610a41565b610a17565b905082815260208101848484011115610ab057610aaf610a3c565b5b610abb848285610a72565b509392505050565b600082601f830112610ad857610ad7610a37565b5b8135610ae8848260208601610a81565b91505092915050565b610afa8161085f565b8114610b0557600080fd5b50565b600081359050610b1781610af1565b92915050565b600060608284031215610b3357610b326109b2565b5b610b3d6060610a17565b9050600082013567ffffffffffffffff811115610b5d57610b5c610a32565b5b610b6984828501610ac3565b600083015250602082013567ffffffffffffffff811115610b8d57610b8c610a32565b5b610b9984828501610ac3565b6020830152506040610bad84828501610b08565b60408301525092915050565b600060e08284031215610bcf57610bce6109b2565b5b610bd960e0610a17565b9050600082013567ffffffffffffffff811115610bf957610bf8610a32565b5b610c0584828501610ac3565b600083015250602082013567ffffffffffffffff811115610c2957610c28610a32565b5b610c3584828501610ac3565b602083015250604082013567ffffffffffffffff811115610c5957610c58610a32565b5b610c6584828501610ac3565b604083015250606082013567ffffffffffffffff811115610c8957610c88610a32565b5b610c9584828501610ac3565b606083015250608082013567ffffffffffffffff811115610cb957610cb8610a32565b5b610cc584828501610ac3565b60808301525060a082013567ffffffffffffffff811115610ce957610ce8610a32565b5b610cf584828501610b1d565b60a08301525060c0610d0984828501610b08565b60c08301525092915050565b60008060408385031215610d2c57610d2b610763565b5b6000610d3a85828601610784565b925050602083013567ffffffffffffffff811115610d5b57610d5a610768565b5b610d6785828601610bb9565b9150509250929050565b6000819050919050565b6000610d96610d91610d8c846106fd565b610d71565b6106fd565b9050919050565b6000610da882610d7b565b9050919050565b6000610dba82610d9d565b9050919050565b610dca81610daf565b82525050565b6000602082019050610de56000830184610dc1565b92915050565b6000819050919050565b610dfe81610deb565b8114610e0957600080fd5b50565b600081359050610e1b81610df5565b92915050565b600060208284031215610e3757610e36610763565b5b6000610e4584828501610e0c565b91505092915050565b610e578161085f565b82525050565b6000602082019050610e726000830184610e4e565b92915050565b600082825260208201905092915050565b7f656e74726f206120636f6e73756c746172000000000000000000000000000000600082015250565b6000610ebf601183610e78565b9150610eca82610e89565b602082019050919050565b60006020820190508181036000830152610eee81610eb2565b9050919050565b6000610f08610f0384610a41565b610a17565b905082815260208101848484011115610f2457610f23610a3c565b5b610f2f8482856107e2565b509392505050565b600082601f830112610f4c57610f4b610a37565b5b8151610f5c848260208601610ef5565b91505092915050565b600081519050610f7481610af1565b92915050565b600060608284031215610f9057610f8f6109b2565b5b610f9a6060610a17565b9050600082015167ffffffffffffffff811115610fba57610fb9610a32565b5b610fc684828501610f37565b600083015250602082015167ffffffffffffffff811115610fea57610fe9610a32565b5b610ff684828501610f37565b602083015250604061100a84828501610f65565b60408301525092915050565b600060e0828403121561102c5761102b6109b2565b5b61103660e0610a17565b9050600082015167ffffffffffffffff81111561105657611055610a32565b5b61106284828501610f37565b600083015250602082015167ffffffffffffffff81111561108657611085610a32565b5b61109284828501610f37565b602083015250604082015167ffffffffffffffff8111156110b6576110b5610a32565b5b6110c284828501610f37565b604083015250606082015167ffffffffffffffff8111156110e6576110e5610a32565b5b6110f284828501610f37565b606083015250608082015167ffffffffffffffff81111561111657611115610a32565b5b61112284828501610f37565b60808301525060a082015167ffffffffffffffff81111561114657611145610a32565b5b61115284828501610f7a565b60a08301525060c061116684828501610f65565b60c08301525092915050565b60006020828403121561118857611187610763565b5b600082015167ffffffffffffffff8111156111a6576111a5610768565b5b6111b284828501611016565b91505092915050565b60008160e01c9050919050565b600060033d11156111e75760046000803e6111e46000516111bb565b90505b90565b600060443d10156111fa5761127d565b611202610759565b60043d036004823e80513d602482011167ffffffffffffffff8211171561122a57505061127d565b808201805167ffffffffffffffff811115611248575050505061127d565b80602083010160043d03850181111561126557505050505061127d565b611274826020018501866109e6565b82955050505050505b90565b7f736520726f6d70696f20706f7220756e20726576657274206f2072657175697260008201527f6500000000000000000000000000000000000000000000000000000000000000602082015250565b60006112dc602183610e78565b91506112e782611280565b604082019050919050565b6000602082019050818103600083015261130b816112cf565b9050919050565b600061131d826107c6565b6113278185610e78565b93506113378185602086016107e2565b61134081610815565b840191505092915050565b600060208201905081810360008301526113658184611312565b905092915050565b7f656e636f6e74726f206c6120706572736f6e6100000000000000000000000000600082015250565b60006113a3601383610e78565b91506113ae8261136d565b602082019050919050565b600060208201905081810360008301526113d281611396565b9050919050565b60006040820190506113ee600083018561072f565b818103602083015261140081846108d1565b90509392505050565b7f536520677561726461206c6120706572736f6e6120636f7265656374616d656e60008201527f7465000000000000000000000000000000000000000000000000000000000000602082015250565b6000611465602283610e78565b915061147082611409565b604082019050919050565b6000602082019050818103600083015261149481611458565b9050919050565b7f457374612066756e63696f6e20736f6c6f2070756564652073657220656a656360008201527f757461646120706f7220656c2063726561646f722064656c20636f6e7472617460208201527f6f00000000000000000000000000000000000000000000000000000000000000604082015250565b600061151d604183610e78565b91506115288261149b565b606082019050919050565b6000602082019050818103600083015261154c81611510565b905091905056fea2646970667358221220644955c085d45ec851d7b39af0d0e6f725095cd6651aadb14533aa5378ee9f6464736f6c634300080b0033",
  "immutableReferences": {},
  "source": "pragma solidity ^0.8.10; \n\nimport \"./Persona.sol\";\nimport \"./Usuario.sol\";\nimport \"../models/PersonaStruct.sol\";\nimport \"../persistence/PersonaDAO.sol\";\n\ncontract Medico is Persona {\n    address public creador;\n\n    struct MedicoStruct {\n        PersonaStruct persona;\n        string especialidad;\n        string usuario;\n        string contrasena;\n    }\n\n    // EstadoStruct private estado;\n\n    struct PerfilMedicoSistemaExternoStruct {\n        string primerNombre;\n        string segundoNombre;\n        string primerApellido;\n        string segundoApellido;\n        string identificacion; // TODO: agregar tipo de identificacion\n        string especialidad;\n    }\n\n    constructor() public {\n        creador = msg.sender; // creador del contrato\n    }\n\n    function login() public view returns (Persona) {\n        address direccion = msg.sender;\n        // TODO: buscar persona en arreglo\n    }\n\n    // TODO: buscar porque es uint256\n    function buscarPermisosDeRol(uint256 funcionId) public view returns (bool) {\n        address direccion = msg.sender;\n        // TODO: esto es como un filtro (averiguar si lo hay en solidity) y sirve para ver si un usario tiene acceso a x metodo\n    }\n}",
  "sourcePath": "/home/felipe/Documentos/Blockchain/codigo/back-hce/contracts/logica/Medico.sol",
  "compiler": {
    "name": "solc",
    "version": "0.8.11+commit.d7f03943.Emscripten.clang"
  },
  "schemaVersion": "3.4.4",
  "updatedAt": "2022-01-27T01:23:32.110Z",
  "networkType": "ethereum",
  "devdoc": {
    "kind": "dev",
    "methods": {},
    "version": 1
  },
  "userdoc": {
    "kind": "user",
    "methods": {},
    "version": 1
  }
}