{
  "contractName": "Medico",
  "abi": [
    {
      "inputs": [],
      "stateMutability": "nonpayable",
      "type": "constructor"
    },
    {
      "anonymous": false,
      "inputs": [
        {
          "indexed": false,
          "internalType": "string",
          "name": "data",
          "type": "string"
        }
      ],
      "name": "Log",
      "type": "event"
    },
    {
      "inputs": [],
      "name": "creador",
      "outputs": [
        {
          "internalType": "address",
          "name": "",
          "type": "address"
        }
      ],
      "stateMutability": "view",
      "type": "function",
      "constant": true
    },
    {
      "inputs": [],
      "name": "medicoMapperAddress",
      "outputs": [
        {
          "internalType": "address",
          "name": "",
          "type": "address"
        }
      ],
      "stateMutability": "view",
      "type": "function",
      "constant": true
    },
    {
      "inputs": [
        {
          "internalType": "address",
          "name": "direccion",
          "type": "address"
        }
      ],
      "name": "consultar",
      "outputs": [
        {
          "components": [
            {
              "components": [
                {
                  "internalType": "address",
                  "name": "id",
                  "type": "address"
                },
                {
                  "internalType": "string",
                  "name": "primerNombre",
                  "type": "string"
                },
                {
                  "internalType": "string",
                  "name": "segundoNombre",
                  "type": "string"
                },
                {
                  "internalType": "string",
                  "name": "primerApellido",
                  "type": "string"
                },
                {
                  "internalType": "string",
                  "name": "segundoApellido",
                  "type": "string"
                },
                {
                  "internalType": "string",
                  "name": "identificacion",
                  "type": "string"
                },
                {
                  "internalType": "uint256",
                  "name": "tipoIdentificacion",
                  "type": "uint256"
                },
                {
                  "internalType": "bool",
                  "name": "isValue",
                  "type": "bool"
                }
              ],
              "internalType": "struct Persona.PersonaStruct",
              "name": "persona",
              "type": "tuple"
            },
            {
              "internalType": "uint256",
              "name": "especialidadId",
              "type": "uint256"
            },
            {
              "components": [
                {
                  "internalType": "uint256",
                  "name": "id",
                  "type": "uint256"
                },
                {
                  "internalType": "string",
                  "name": "nombre",
                  "type": "string"
                },
                {
                  "internalType": "string",
                  "name": "descripcion",
                  "type": "string"
                },
                {
                  "internalType": "bool",
                  "name": "estaActivo",
                  "type": "bool"
                }
              ],
              "internalType": "struct EstadoVO.EstadoVOStruct",
              "name": "estado",
              "type": "tuple"
            }
          ],
          "internalType": "struct MedicoVO.MedicoVOStruct",
          "name": "",
          "type": "tuple"
        }
      ],
      "stateMutability": "nonpayable",
      "type": "function"
    },
    {
      "inputs": [
        {
          "internalType": "address",
          "name": "direccion",
          "type": "address"
        },
        {
          "internalType": "contract MedicoVO",
          "name": "medico",
          "type": "address"
        }
      ],
      "name": "registrar",
      "outputs": [],
      "stateMutability": "nonpayable",
      "type": "function"
    },
    {
      "inputs": [
        {
          "internalType": "address",
          "name": "direccion",
          "type": "address"
        },
        {
          "internalType": "contract MedicoVO",
          "name": "medico",
          "type": "address"
        }
      ],
      "name": "actualizar",
      "outputs": [],
      "stateMutability": "nonpayable",
      "type": "function"
    },
    {
      "inputs": [
        {
          "internalType": "address",
          "name": "direccion",
          "type": "address"
        }
      ],
      "name": "verificarExistenciaEnSistemaExterno",
      "outputs": [
        {
          "internalType": "bool",
          "name": "",
          "type": "bool"
        }
      ],
      "stateMutability": "nonpayable",
      "type": "function"
    },
    {
      "inputs": [
        {
          "internalType": "address",
          "name": "_medicoMapperAddress",
          "type": "address"
        }
      ],
      "name": "setContratoPacienteMapperAddress",
      "outputs": [],
      "stateMutability": "nonpayable",
      "type": "function"
    },
    {
      "inputs": [],
      "name": "selfDestruct",
      "outputs": [],
      "stateMutability": "nonpayable",
      "type": "function"
    }
  ],
  "bytecode": "0x608060405234801561001057600080fd5b50600080546001600160a01b03191633179055610df3806100326000396000f3fe608060405234801561001057600080fd5b50600436106100885760003560e01c80637da8f6a51161005b5780637da8f6a5146100f157806392ebdcd2146101115780639cb8a26a1461013c578063ac121b2b1461014457600080fd5b806307b37d1d1461008d5780630da7d7a5146100a257806313429f35146100b55780635a2c9ea2146100c8575b600080fd5b6100a061009b366004610768565b610157565b005b6100a06100b0366004610768565b610362565b6100a06100c33660046107a1565b6103e6565b6100dc6100d63660046107a1565b50600190565b60405190151581526020015b60405180910390f35b6101046100ff3660046107a1565b6104b9565b6040516100e89190610872565b600054610124906001600160a01b031681565b6040516001600160a01b0390911681526020016100e8565b6100a061061c565b600154610124906001600160a01b031681565b6002546040517fbe381c590000000000000000000000000000000000000000000000000000000081526001600160a01b03848116600483015283811660248301529091169063be381c5990604401600060405180830381600087803b1580156101bf57600080fd5b505af19250505080156101d0575060015b6102d1576101dc61097e565b806308c379a014156102c557506101f1610a1c565b806101fc57506102c7565b7fcf34ef537ac33ee1ac626ca1587a0a7e8e51561e5514f8cb36afa1c5102b3bab6040516102819060208082526021908201527f736520726f6d70696f20706f7220756e20726576657274206f2072657175697260408201527f6500000000000000000000000000000000000000000000000000000000000000606082015260800190565b60405180910390a17fcf34ef537ac33ee1ac626ca1587a0a7e8e51561e5514f8cb36afa1c5102b3bab816040516102b89190610aa6565b60405180910390a1505050565b505b3d6000803e3d6000fd5b7fcf34ef537ac33ee1ac626ca1587a0a7e8e51561e5514f8cb36afa1c5102b3bab6040516103569060208082526031908201527f536520677561726461206c6120696e666f726d6163696f6e2064656c206d656460408201527f69636f20636f7272656374616d656e7465000000000000000000000000000000606082015260800190565b60405180910390a15050565b6002546040517f0da7d7a50000000000000000000000000000000000000000000000000000000081526001600160a01b038481166004830152838116602483015290911690630da7d7a590604401600060405180830381600087803b1580156103ca57600080fd5b505af11580156103de573d6000803e3d6000fd5b505050505050565b6000546001600160a01b031633146104755760405162461bcd60e51b815260206004820152604160248201527f457374612066756e63696f6e20736f6c6f2070756564652073657220656a656360448201527f757461646120706f7220656c2063726561646f722064656c20636f6e747261746064820152606f60f81b608482015260a4015b60405180910390fd5b600180546001600160a01b039092167fffffffffffffffffffffffff0000000000000000000000000000000000000000928316811790915560028054909216179055565b6104c16106b4565b7fcf34ef537ac33ee1ac626ca1587a0a7e8e51561e5514f8cb36afa1c5102b3bab6040516105209060208082526011908201527f656e74726f206120636f6e73756c746172000000000000000000000000000000604082015260600190565b60405180910390a16002546040517f7da8f6a50000000000000000000000000000000000000000000000000000000081526001600160a01b03848116600483015290911690637da8f6a5906024016020604051808303816000875af115801561058d573d6000803e3d6000fd5b505050506040513d601f19601f820116820180604052508101906105b19190610ab9565b6001600160a01b0316634f63ce136040518163ffffffff1660e01b8152600401600060405180830381865afa1580156105ee573d6000803e3d6000fd5b505050506040513d6000823e601f3d908101601f191682016040526106169190810190610c35565b92915050565b6000546001600160a01b031633146106a65760405162461bcd60e51b815260206004820152604160248201527f457374612066756e63696f6e20736f6c6f2070756564652073657220656a656360448201527f757461646120706f7220656c2063726561646f722064656c20636f6e747261746064820152606f60f81b608482015260a40161046c565b6000546001600160a01b0316ff5b604051806060016040528061071260405180610100016040528060006001600160a01b031681526020016060815260200160608152602001606081526020016060815260200160608152602001600081526020016000151581525090565b81526020016000815260200161074b60405180608001604052806000815260200160608152602001606081526020016000151581525090565b905290565b6001600160a01b038116811461076557600080fd5b50565b6000806040838503121561077b57600080fd5b823561078681610750565b9150602083013561079681610750565b809150509250929050565b6000602082840312156107b357600080fd5b81356107be81610750565b9392505050565b60005b838110156107e05781810151838201526020016107c8565b838111156107ef576000848401525b50505050565b6000815180845261080d8160208601602086016107c5565b601f01601f19169290920160200192915050565b80518252600060208201516080602085015261084060808501826107f5565b90506040830151848203604086015261085982826107f5565b9150506060830151151560608501528091505092915050565b6020815260008251606060208401526108976080840182516001600160a01b03169052565b60208101516101008060a08601526108b36101808601836107f5565b91506040830151607f19808785030160c08801526108d184836107f5565b935060608501519150808785030160e08801526108ee84836107f5565b93506080850151915080878503018388015261090a84836107f5565b935060a085015192508087850301610120880152505061092a82826107f5565b91505060c082015161014085015260e0820151915061094e61016085018315159052565b6020850151604085015260408501519150601f198482030160608501526109758183610821565b95945050505050565b600060033d11156109975760046000803e5060005160e01c5b90565b7f4e487b7100000000000000000000000000000000000000000000000000000000600052604160045260246000fd5b6060810181811067ffffffffffffffff821117156109e9576109e961099a565b60405250565b601f8201601f1916810167ffffffffffffffff81118282101715610a1557610a1561099a565b6040525050565b600060443d1015610a2a5790565b6040516003193d81016004833e81513d67ffffffffffffffff8160248401118184111715610a5a57505050505090565b8285019150815181811115610a725750505050505090565b843d8701016020828501011115610a8c5750505050505090565b610a9b602082860101876109ef565b509095945050505050565b6020815260006107be60208301846107f5565b600060208284031215610acb57600080fd5b81516107be81610750565b604051610100810167ffffffffffffffff81118282101715610afa57610afa61099a565b60405290565b8051610b0b81610750565b919050565b600082601f830112610b2157600080fd5b815167ffffffffffffffff811115610b3b57610b3b61099a565b604051610b52601f8301601f1916602001826109ef565b818152846020838601011115610b6757600080fd5b610b788260208301602087016107c5565b949350505050565b80518015158114610b0b57600080fd5b600060808284031215610ba257600080fd5b6040516080810167ffffffffffffffff8282108183111715610bc657610bc661099a565b81604052829350845183526020850151915080821115610be557600080fd5b610bf186838701610b10565b60208401526040850151915080821115610c0a57600080fd5b50610c1785828601610b10565b604083015250610c2960608401610b80565b60608201525092915050565b600060208284031215610c4757600080fd5b815167ffffffffffffffff80821115610c5f57600080fd5b9083019060608286031215610c7357600080fd5b604051610c7f816109c9565b825182811115610c8e57600080fd5b83016101008188031215610ca157600080fd5b610ca9610ad6565b610cb282610b00565b8152602082015184811115610cc657600080fd5b610cd289828501610b10565b602083015250604082015184811115610cea57600080fd5b610cf689828501610b10565b604083015250606082015184811115610d0e57600080fd5b610d1a89828501610b10565b606083015250608082015184811115610d3257600080fd5b610d3e89828501610b10565b60808301525060a082015184811115610d5657600080fd5b610d6289828501610b10565b60a08301525060c082015160c0820152610d7e60e08301610b80565b60e082015282525060208381015190820152604083015182811115610da257600080fd5b610dae87828601610b90565b6040830152509594505050505056fea2646970667358221220472e9013eb723a7ef006c9655a4228356f5d58e4472b6562d9603c8f75246cf564736f6c634300080b0033",
  "immutableReferences": {},
  "source": "pragma solidity ^0.8.10;\n\nimport \"../models/MedicoVO.sol\";\nimport \"../persistence/MedicoMapper.sol\";\n\ncontract Medico {\n    // TODO: consumir este evento desde una clase heredada o algo as\n    event Log(string data);\n    address public creador;\n    address public medicoMapperAddress;\n\n    MedicoMapperInterface private medicoMapper;\n\n    struct PerfilMedicoSistemaExternoStruct {\n        string primerNombre;\n        string segundoNombre;\n        string primerApellido;\n        string segundoApellido;\n        string identificacion; // TODO: agregar tipo de identificacion\n        string especialidad;\n    }\n\n    constructor() {\n        creador = msg.sender; // creador del contrato\n    }\n\n    function consultar(address direccion) public returns (MedicoVO.MedicoVOStruct memory) {\n        emit Log(\"entro a consultar\");\n        return medicoMapper.consultar(direccion).getMedicoVOValue();\n    }\n\n    function registrar(address direccion, MedicoVO medico) public {\n        try medicoMapper.guardar(direccion, medico) {\n            emit Log(\"Se guarda la informacion del medico correctamente\");\n        } catch Error(string memory data) {\n            /*reason*/\n            emit Log(\"se rompio por un revert o require\");\n            emit Log(data);\n        }\n    }\n\n    function actualizar(address direccion, MedicoVO medico) public {\n        medicoMapper.actualizar(direccion, medico);\n        /*\n        try contratoPacienteDAO.actualizar(direccion, paciente) {\n            emit Log(\"Se guarda la informacion de paciente correctamente\");\n        } catch Error(string memory data) {\n            /*reason*/\n        /*  emit Log(\"se rompio por un revert o require\");\n            emit Log(data);\n        }*/\n    }\n\n    function verificarExistenciaEnSistemaExterno(address direccion)\n        public\n        returns (bool)\n    {\n        /* TODO: Consultar info del medico (usuario y contrasea)\n         *  despues se hace con oraculos una consulta\n         */\n        return true;\n    }\n\n    /*function buscarPerfilMedicoSistemaExterno(address direccion) public returns (PerfilMedicoSistemaExternoStruct memory){\n        // TODO: tambien con oraculo\n    }*/\n\n    function setContratoPacienteMapperAddress(address _medicoMapperAddress)\n        public\n        esPropietario\n    {\n        medicoMapperAddress = _medicoMapperAddress;\n        medicoMapper = MedicoMapper(medicoMapperAddress); // TODO: quiz es mejor recibir el objeto como contrato\n    }\n\n    // TODO: poner en clase generica y reusarlo\n    modifier esPropietario() {\n        require(\n            msg.sender == creador,\n            \"Esta funcion solo puede ser ejecutada por el creador del contrato\"\n        );\n        _; // ac se ejecuta la funcin\n    }\n\n    function selfDestruct() public esPropietario {\n        selfdestruct(payable(creador));\n    }\n}\n",
  "sourcePath": "/home/felipe/Documentos/Blockchain/codigo/back-hce/contracts/logica/Medico.sol",
  "compiler": {
    "name": "solc",
    "version": "0.8.11+commit.d7f03943.Emscripten.clang"
  },
  "schemaVersion": "3.4.8",
  "updatedAt": "2022-07-25T00:48:05.576Z",
  "networkType": "ethereum",
  "devdoc": {
    "kind": "dev",
    "methods": {},
    "version": 1
  },
  "userdoc": {
    "kind": "user",
    "methods": {},
    "version": 1
  }
}