{
  "contractName": "Medico",
  "abi": [
    {
      "inputs": [],
      "stateMutability": "nonpayable",
      "type": "constructor"
    },
    {
      "anonymous": false,
      "inputs": [
        {
          "indexed": false,
          "internalType": "string",
          "name": "data",
          "type": "string"
        }
      ],
      "name": "Log",
      "type": "event"
    },
    {
      "inputs": [],
      "name": "creador",
      "outputs": [
        {
          "internalType": "address",
          "name": "",
          "type": "address"
        }
      ],
      "stateMutability": "view",
      "type": "function",
      "constant": true
    },
    {
      "inputs": [],
      "name": "medicoMapperAddress",
      "outputs": [
        {
          "internalType": "address",
          "name": "",
          "type": "address"
        }
      ],
      "stateMutability": "view",
      "type": "function",
      "constant": true
    },
    {
      "inputs": [
        {
          "internalType": "address",
          "name": "direccion",
          "type": "address"
        }
      ],
      "name": "consultar",
      "outputs": [
        {
          "components": [
            {
              "components": [
                {
                  "internalType": "address",
                  "name": "direccion",
                  "type": "address"
                },
                {
                  "internalType": "uint256",
                  "name": "id",
                  "type": "uint256"
                },
                {
                  "internalType": "string",
                  "name": "primerNombre",
                  "type": "string"
                },
                {
                  "internalType": "string",
                  "name": "segundoNombre",
                  "type": "string"
                },
                {
                  "internalType": "string",
                  "name": "primerApellido",
                  "type": "string"
                },
                {
                  "internalType": "string",
                  "name": "segundoApellido",
                  "type": "string"
                },
                {
                  "internalType": "string",
                  "name": "identificacion",
                  "type": "string"
                },
                {
                  "internalType": "uint256",
                  "name": "tipoIdentificacion",
                  "type": "uint256"
                },
                {
                  "internalType": "bool",
                  "name": "isValue",
                  "type": "bool"
                }
              ],
              "internalType": "struct Persona.PersonaStruct",
              "name": "persona",
              "type": "tuple"
            },
            {
              "internalType": "uint256",
              "name": "especialidadId",
              "type": "uint256"
            },
            {
              "internalType": "uint256",
              "name": "estadoId",
              "type": "uint256"
            }
          ],
          "internalType": "struct MedicoVO.MedicoVOStruct",
          "name": "",
          "type": "tuple"
        }
      ],
      "stateMutability": "nonpayable",
      "type": "function"
    },
    {
      "inputs": [
        {
          "internalType": "address",
          "name": "direccion",
          "type": "address"
        },
        {
          "internalType": "contract MedicoVO",
          "name": "medico",
          "type": "address"
        }
      ],
      "name": "registrar",
      "outputs": [],
      "stateMutability": "nonpayable",
      "type": "function"
    },
    {
      "inputs": [
        {
          "internalType": "address",
          "name": "direccion",
          "type": "address"
        },
        {
          "components": [
            {
              "components": [
                {
                  "internalType": "address",
                  "name": "direccion",
                  "type": "address"
                },
                {
                  "internalType": "uint256",
                  "name": "id",
                  "type": "uint256"
                },
                {
                  "internalType": "string",
                  "name": "primerNombre",
                  "type": "string"
                },
                {
                  "internalType": "string",
                  "name": "segundoNombre",
                  "type": "string"
                },
                {
                  "internalType": "string",
                  "name": "primerApellido",
                  "type": "string"
                },
                {
                  "internalType": "string",
                  "name": "segundoApellido",
                  "type": "string"
                },
                {
                  "internalType": "string",
                  "name": "identificacion",
                  "type": "string"
                },
                {
                  "internalType": "uint256",
                  "name": "tipoIdentificacion",
                  "type": "uint256"
                },
                {
                  "internalType": "bool",
                  "name": "isValue",
                  "type": "bool"
                }
              ],
              "internalType": "struct Persona.PersonaStruct",
              "name": "persona",
              "type": "tuple"
            },
            {
              "internalType": "uint256",
              "name": "especialidadId",
              "type": "uint256"
            },
            {
              "internalType": "uint256",
              "name": "estadoId",
              "type": "uint256"
            }
          ],
          "internalType": "struct MedicoVO.MedicoVOStruct",
          "name": "medicoVOStruct",
          "type": "tuple"
        },
        {
          "internalType": "string",
          "name": "_usuario",
          "type": "string"
        },
        {
          "internalType": "string",
          "name": "_contrasena",
          "type": "string"
        }
      ],
      "name": "registrarConStruct",
      "outputs": [],
      "stateMutability": "nonpayable",
      "type": "function"
    },
    {
      "inputs": [
        {
          "internalType": "address",
          "name": "direccion",
          "type": "address"
        },
        {
          "internalType": "contract MedicoVO",
          "name": "medico",
          "type": "address"
        }
      ],
      "name": "actualizar",
      "outputs": [],
      "stateMutability": "nonpayable",
      "type": "function"
    },
    {
      "inputs": [
        {
          "internalType": "contract MedicoMapperInterface",
          "name": "_medicoMapper",
          "type": "address"
        }
      ],
      "name": "setMedicoMapper",
      "outputs": [],
      "stateMutability": "nonpayable",
      "type": "function"
    },
    {
      "inputs": [
        {
          "internalType": "contract DatosParametricosMapperInterface",
          "name": "_datosParametricosMapperAddress",
          "type": "address"
        }
      ],
      "name": "setDatosParametricosMapper",
      "outputs": [],
      "stateMutability": "nonpayable",
      "type": "function"
    },
    {
      "inputs": [
        {
          "internalType": "contract MedicoOraculo",
          "name": "_medicoOraculo",
          "type": "address"
        }
      ],
      "name": "setMedicoOraculo",
      "outputs": [],
      "stateMutability": "nonpayable",
      "type": "function"
    },
    {
      "inputs": [
        {
          "internalType": "contract RolMapperInterface",
          "name": "_rolMapperAddress",
          "type": "address"
        }
      ],
      "name": "setRolMapper",
      "outputs": [],
      "stateMutability": "nonpayable",
      "type": "function"
    },
    {
      "inputs": [
        {
          "internalType": "contract UsuarioMapperInterface",
          "name": "_usuarioMapperAddress",
          "type": "address"
        }
      ],
      "name": "setUsuarioMapper",
      "outputs": [],
      "stateMutability": "nonpayable",
      "type": "function"
    },
    {
      "inputs": [],
      "name": "selfDestruct",
      "outputs": [],
      "stateMutability": "nonpayable",
      "type": "function"
    }
  ],
  "bytecode": "0x6080604052600160075534801561001557600080fd5b50600080546001600160a01b03191633179055613140806100376000396000f3fe608060405234801561001057600080fd5b50600436106100d45760003560e01c80639cb8a26a11610081578063c204c17d1161005b578063c204c17d146101a9578063d7756d9b146101bc578063fa7af2bb146101cf57600080fd5b80639cb8a26a1461017b578063ac121b2b14610183578063bbd1a4671461019657600080fd5b806378775d32116100b257806378775d32146101145780637da8f6a51461012757806392ebdcd21461015057600080fd5b806307b37d1d146100d95780630da7d7a5146100ee578063596e15e614610101575b600080fd5b6100ec6100e7366004610ff9565b6101e2565b005b6100ec6100fc366004610ff9565b610669565b6100ec61010f366004611032565b6106ed565b6100ec610122366004611032565b61079e565b61013a610135366004611032565b61084a565b60405161014791906111aa565b60405180910390f35b600054610163906001600160a01b031681565b6040516001600160a01b039091168152602001610147565b6100ec6109ad565b600154610163906001600160a01b031681565b6100ec6101a4366004611032565b610a45565b6100ec6101b7366004611032565b610af1565b6100ec6101ca366004611306565b610b9d565b6100ec6101dd366004611032565b610e92565b6005546007546040517fb10b65ce00000000000000000000000000000000000000000000000000000000815260048101919091526000916001600160a01b03169063b10b65ce906024016020604051808303816000875af115801561024b573d6000803e3d6000fd5b505050506040513d601f19601f8201168201806040525081019061026f91906114d7565b9050600060405161027f90610f3e565b604051809103906000f08015801561029b573d6000803e3d6000fd5b506040517f5745ab980000000000000000000000000000000000000000000000000000000081526001600160a01b03868116600483015291925090821690635745ab9890602401600060405180830381600087803b1580156102fc57600080fd5b505af1158015610310573d6000803e3d6000fd5b50506040517fce8dd29f0000000000000000000000000000000000000000000000000000000081526001600160a01b0385811660048301528416925063ce8dd29f9150602401600060405180830381600087803b15801561037057600080fd5b505af1158015610384573d6000803e3d6000fd5b50506040517ffdaef483000000000000000000000000000000000000000000000000000000008152600160048201526001600160a01b038416925063fdaef4839150602401600060405180830381600087803b1580156103e357600080fd5b505af11580156103f7573d6000803e3d6000fd5b505060065460405163be381c5960e01b81526001600160a01b0388811660048301528581166024830152909116925063be381c599150604401600060405180830381600087803b15801561044a57600080fd5b505af115801561045e573d6000803e3d6000fd5b505060025460405163be381c5960e01b81526001600160a01b0388811660048301528781166024830152909116925063be381c5991506044016020604051808303816000875af19250505080156104d2575060408051601f3d908101601f191682019092526104cf918101906114f4565b60015b6105d4576104de61150d565b806308c379a014156105c857506104f3611529565b806104fe57506105ca565b7fcf34ef537ac33ee1ac626ca1587a0a7e8e51561e5514f8cb36afa1c5102b3bab6040516105839060208082526021908201527f736520726f6d70696f20706f7220756e20726576657274206f2072657175697260408201527f6500000000000000000000000000000000000000000000000000000000000000606082015260800190565b60405180910390a17fcf34ef537ac33ee1ac626ca1587a0a7e8e51561e5514f8cb36afa1c5102b3bab816040516105ba91906115b3565b60405180910390a150610663565b505b3d6000803e3d6000fd5b507fcf34ef537ac33ee1ac626ca1587a0a7e8e51561e5514f8cb36afa1c5102b3bab60405161065a9060208082526031908201527f536520677561726461206c6120696e666f726d6163696f6e2064656c206d656460408201527f69636f20636f7272656374616d656e7465000000000000000000000000000000606082015260800190565b60405180910390a15b50505050565b6002546040517f0da7d7a50000000000000000000000000000000000000000000000000000000081526001600160a01b038481166004830152838116602483015290911690630da7d7a590604401600060405180830381600087803b1580156106d157600080fd5b505af11580156106e5573d6000803e3d6000fd5b505050505050565b6000546001600160a01b0316331461077c5760405162461bcd60e51b815260206004820152604160248201527f457374612066756e63696f6e20736f6c6f2070756564652073657220656a656360448201527f757461646120706f7220656c2063726561646f722064656c20636f6e747261746064820152606f60f81b608482015260a4015b60405180910390fd5b600680546001600160a01b0319166001600160a01b0392909216919091179055565b6000546001600160a01b031633146108285760405162461bcd60e51b815260206004820152604160248201527f457374612066756e63696f6e20736f6c6f2070756564652073657220656a656360448201527f757461646120706f7220656c2063726561646f722064656c20636f6e747261746064820152606f60f81b608482015260a401610773565b600580546001600160a01b0319166001600160a01b0392909216919091179055565b610852610f4b565b7fcf34ef537ac33ee1ac626ca1587a0a7e8e51561e5514f8cb36afa1c5102b3bab6040516108b19060208082526011908201527f656e74726f206120636f6e73756c746172000000000000000000000000000000604082015260600190565b60405180910390a16002546040517f7da8f6a50000000000000000000000000000000000000000000000000000000081526001600160a01b03848116600483015290911690637da8f6a5906024016020604051808303816000875af115801561091e573d6000803e3d6000fd5b505050506040513d601f19601f8201168201806040525081019061094291906114d7565b6001600160a01b0316634f63ce136040518163ffffffff1660e01b8152600401600060405180830381865afa15801561097f573d6000803e3d6000fd5b505050506040513d6000823e601f3d908101601f191682016040526109a79190810190611634565b92915050565b6000546001600160a01b03163314610a375760405162461bcd60e51b815260206004820152604160248201527f457374612066756e63696f6e20736f6c6f2070756564652073657220656a656360448201527f757461646120706f7220656c2063726561646f722064656c20636f6e747261746064820152606f60f81b608482015260a401610773565b6000546001600160a01b0316ff5b6000546001600160a01b03163314610acf5760405162461bcd60e51b815260206004820152604160248201527f457374612066756e63696f6e20736f6c6f2070756564652073657220656a656360448201527f757461646120706f7220656c2063726561646f722064656c20636f6e747261746064820152606f60f81b608482015260a401610773565b600480546001600160a01b0319166001600160a01b0392909216919091179055565b6000546001600160a01b03163314610b7b5760405162461bcd60e51b815260206004820152604160248201527f457374612066756e63696f6e20736f6c6f2070756564652073657220656a656360448201527f757461646120706f7220656c2063726561646f722064656c20636f6e747261746064820152606f60f81b608482015260a401610773565b600380546001600160a01b0319166001600160a01b0392909216919091179055565b600480546040517f3092ebe60000000000000000000000000000000000000000000000000000000081526000926001600160a01b0390921691633092ebe691610bea9187918791016117b4565b6020604051808303816000875af1158015610c09573d6000803e3d6000fd5b505050506040513d601f19601f82011682018060405250810190610c2d91906117d9565b905080610ca25760405162461bcd60e51b815260206004820152602360248201527f4e6f2065786973746520657365206d656469636f207061726120656c2065737460448201527f61646f00000000000000000000000000000000000000000000000000000000006064820152608401610773565b6000604051610cb090610fc4565b604051809103906000f080158015610ccc573d6000803e3d6000fd5b5060035460408088015190517f480c42a00000000000000000000000000000000000000000000000000000000081529293506000926001600160a01b039092169163480c42a091610d239160040190815260200190565b602060405180830381865afa158015610d40573d6000803e3d6000fd5b505050506040513d601f19601f82011682018060405250810190610d6491906114d7565b600354875160e001516040517f1dbaf4030000000000000000000000000000000000000000000000000000000081529293506000926001600160a01b0390921691631dbaf40391610dbb9160040190815260200190565b602060405180830381865afa158015610dd8573d6000803e3d6000fd5b505050506040513d601f19601f82011682018060405250810190610dfc91906114d7565b6040517ff700f4e60000000000000000000000000000000000000000000000000000000081529091506001600160a01b0384169063f700f4e690610e4c908a90869086908c908c906004016117f6565b600060405180830381600087803b158015610e6657600080fd5b505af1158015610e7a573d6000803e3d6000fd5b50505050610e8888846101e2565b5050505050505050565b6000546001600160a01b03163314610f1c5760405162461bcd60e51b815260206004820152604160248201527f457374612066756e63696f6e20736f6c6f2070756564652073657220656a656360448201527f757461646120706f7220656c2063726561646f722064656c20636f6e747261746064820152606f60f81b608482015260a401610773565b600280546001600160a01b0319166001600160a01b0392909216919091179055565b6105b38061185383390190565b6040518060600160405280610fb060405180610120016040528060006001600160a01b03168152602001600081526020016060815260200160608152602001606081526020016060815260200160608152602001600081526020016000151581525090565b815260200160008152602001600081525090565b61130580611e0683390190565b6001600160a01b0381168114610fe657600080fd5b50565b8035610ff481610fd1565b919050565b6000806040838503121561100c57600080fd5b823561101781610fd1565b9150602083013561102781610fd1565b809150509250929050565b60006020828403121561104457600080fd5b813561104f81610fd1565b9392505050565b60005b83811015611071578181015183820152602001611059565b838111156106635750506000910152565b6000815180845261109a816020860160208601611056565b601f01601f19169290920160200192915050565b60008151606084526110cc6060850182516001600160a01b03169052565b6020810151608085015260408101516101208060a08701526110f2610180870183611082565b91506060830151605f19808885030160c08901526111108483611082565b935060808501519150808885030160e089015261112d8483611082565b935060a085015191506101008189860301818a015261114c8584611082565b945060c086015192508189860301848a01526111688584611082565b60e08701516101408b01529501518015156101608a015294935061118b92505050565b6020840151602086015260408401516040860152809250505092915050565b60208152600061104f60208301846110ae565b7f4e487b7100000000000000000000000000000000000000000000000000000000600052604160045260246000fd5b6060810181811067ffffffffffffffff8211171561120c5761120c6111bd565b60405250565b601f8201601f1916810167ffffffffffffffff81118282101715611238576112386111bd565b6040525050565b604051610120810167ffffffffffffffff81118282101715611263576112636111bd565b60405290565b600067ffffffffffffffff821115611283576112836111bd565b50601f01601f191660200190565b600082601f8301126112a257600080fd5b81356112ad81611269565b6040516112ba8282611212565b8281528560208487010111156112cf57600080fd5b82602086016020830137600092810160200192909252509392505050565b8015158114610fe657600080fd5b8035610ff4816112ed565b6000806000806080858703121561131c57600080fd5b843561132781610fd1565b9350602085013567ffffffffffffffff8082111561134457600080fd5b908601906060828903121561135857600080fd5b60408051611365816111ec565b83358381111561137457600080fd5b8401610120818c03121561138757600080fd5b61138f61123f565b61139882610fe9565b81526020820135602082015283820135858111156113b557600080fd5b6113c18d828501611291565b85830152506060820135858111156113d857600080fd5b6113e48d828501611291565b6060830152506080820135858111156113fc57600080fd5b6114088d828501611291565b60808301525060a08201358581111561142057600080fd5b61142c8d828501611291565b60a08301525060c08201358581111561144457600080fd5b6114508d828501611291565b60c08301525060e082013560e082015261010061146e8184016112fb565b9082015282525060208481013590820152928101358184015291945090860135908082111561149c57600080fd5b6114a888838901611291565b935060608701359150808211156114be57600080fd5b506114cb87828801611291565b91505092959194509250565b6000602082840312156114e957600080fd5b815161104f81610fd1565b60006020828403121561150657600080fd5b5051919050565b600060033d11156115265760046000803e5060005160e01c5b90565b600060443d10156115375790565b6040516003193d81016004833e81513d67ffffffffffffffff816024840111818411171561156757505050505090565b828501915081518181111561157f5750505050505090565b843d87010160208285010111156115995750505050505090565b6115a860208286010187611212565b509095945050505050565b60208152600061104f6020830184611082565b8051610ff481610fd1565b600082601f8301126115e257600080fd5b81516115ed81611269565b6040516115fa8282611212565b82815285602084870101111561160f57600080fd5b611620836020830160208801611056565b95945050505050565b8051610ff4816112ed565b60006020828403121561164657600080fd5b815167ffffffffffffffff8082111561165e57600080fd5b908301906060828603121561167257600080fd5b60405161167e816111ec565b82518281111561168d57600080fd5b830161012081880312156116a057600080fd5b6116a861123f565b6116b1826115c6565b8152602082015160208201526040820151848111156116cf57600080fd5b6116db898285016115d1565b6040830152506060820151848111156116f357600080fd5b6116ff898285016115d1565b60608301525060808201518481111561171757600080fd5b611723898285016115d1565b60808301525060a08201518481111561173b57600080fd5b611747898285016115d1565b60a08301525060c08201518481111561175f57600080fd5b61176b898285016115d1565b60c08301525060e082015160e0820152610100935061178b848301611629565b848201528083525050602083015160208201526040830151604082015280935050505092915050565b6040815260006117c76040830185611082565b82810360208401526116208185611082565b6000602082840312156117eb57600080fd5b815161104f816112ed565b60a08152600061180960a08301886110ae565b6001600160a01b0387811660208501528616604084015282810360608401526118328186611082565b905082810360808401526118468185611082565b9897505050505050505056fe608060405234801561001057600080fd5b50610593806100206000396000f3fe608060405234801561001057600080fd5b506004361061007d5760003560e01c8063af9958461161005b578063af99584614610100578063c3e00aff1461011d578063ce8dd29f1461012e578063fdaef4831461016b57600080fd5b80635745ab981461008257806360749724146100c157806364ff6bbe146100eb575b600080fd5b6100bf6100903660046102d9565b6000805473ffffffffffffffffffffffffffffffffffffffff19166001600160a01b0392909216919091179055565b005b6000546001600160a01b03165b6040516001600160a01b0390911681526020015b60405180910390f35b6100f36101b2565b6040516100e29190610359565b600154600160a01b900460ff1660405190151581526020016100e2565b6001546001600160a01b03166100ce565b6100bf61013c3660046102d9565b6001805473ffffffffffffffffffffffffffffffffffffffff19166001600160a01b0392909216919091179055565b6100bf6101793660046103d3565b60018054911515600160a01b027fffffffffffffffffffffff00ffffffffffffffffffffffffffffffffffffffff909216919091179055565b6101ba610275565b60408051606081018252600080546001600160a01b03908116835260015484517fea1a6f29000000000000000000000000000000000000000000000000000000008152945193946020860194919092169263ea1a6f2992600480820193918290030181865afa158015610231573d6000803e3d6000fd5b505050506040513d6000823e601f3d908101601f1916820160405261025991908101906104ac565b8152600154600160a01b900460ff161515602090910152919050565b604051806060016040528060006001600160a01b031681526020016102b460405180606001604052806000815260200160608152602001606081525090565b8152600060209091015290565b6001600160a01b03811681146102d657600080fd5b50565b6000602082840312156102eb57600080fd5b81356102f6816102c1565b9392505050565b60005b83811015610318578181015183820152602001610300565b83811115610327576000848401525b50505050565b600081518084526103458160208601602086016102fd565b601f01601f19169290920160200192915050565b602081526001600160a01b0382511660208201526000602083015160606040840152805160808401526020810151606060a085015261039b60e085018261032d565b905060408201519150607f198482030160c08501526103ba818361032d565b9150506040840151151560608401528091505092915050565b6000602082840312156103e557600080fd5b813580151581146102f657600080fd5b7f4e487b7100000000000000000000000000000000000000000000000000000000600052604160045260246000fd5b600082601f83011261043557600080fd5b815167ffffffffffffffff80821115610450576104506103f5565b604051601f8301601f19908116603f01168101908282118183101715610478576104786103f5565b8160405283815286602085880101111561049157600080fd5b6104a28460208301602089016102fd565b9695505050505050565b6000602082840312156104be57600080fd5b815167ffffffffffffffff808211156104d657600080fd5b90830190606082860312156104ea57600080fd5b604051606081018181108382111715610505576105056103f5565b6040528251815260208301518281111561051e57600080fd5b61052a87828601610424565b60208301525060408301518281111561054257600080fd5b61054e87828601610424565b6040830152509594505050505056fea2646970667358221220ef3b78fac8f343fdc37ebaffbf94c57c3072f2bcbba4957ca82190b2fc6e191d64736f6c634300080b0033608060405234801561001057600080fd5b50600080546001600160a01b031916301790556112d3806100326000396000f3fe608060405234801561001057600080fd5b50600436106101da5760003560e01c80637d5c303211610104578063cc9f930e116100a2578063eacd3b9311610071578063eacd3b931461041d578063ec1d22dd14610425578063ef974e8014610438578063f700f4e61461046857600080fd5b8063cc9f930e146103bf578063ccae5784146103d2578063d0e0ba95146103da578063d1e360ff146103ed57600080fd5b80639ac9abd0116100de5780639ac9abd014610394578063aee5de751461039c578063b2f9ccbb146103af578063c461d52e146103b757600080fd5b80637d5c30321461035b57806383cb77b0146103705780638ba686071461038357600080fd5b8063551a5cfa1161017c5780636d07d7e31161014b5780636d07d7e3146102dd578063765fe099146102ee578063787728ab1461030157806378c7e2921461031457600080fd5b8063551a5cfa1461026d5780635745ab98146102805780635d1ca631146102b057806360749724146102b857600080fd5b80633ca452b9116101b85780633ca452b91461022857806349bc8d181461023d5780634e8c23ca146102455780634f63ce131461025857600080fd5b806304a765b2146101df57806328fd4873146101f65780633c3c069f1461020b575b600080fd5b6009545b6040519081526020015b60405180910390f35b610209610204366004610db1565b61047b565b005b600754600160a01b900460ff1660405190151581526020016101ed565b610230610492565b6040516101ed9190610e3b565b610230610524565b610209610253366004610db1565b610533565b610260610546565b6040516101ed9190610f1b565b61020961027b366004610db1565b6105ec565b61020961028e366004610f7f565b600080546001600160a01b0319166001600160a01b0392909216919091179055565b6001546101e3565b6000546001600160a01b03165b6040516001600160a01b0390911681526020016101ed565b6008546001600160a01b03166102c5565b6102096102fc3660046110c2565b6105ff565b61020961030f366004610db1565b6106df565b610209610322366004611114565b60078054911515600160a01b027fffffffffffffffffffffff00ffffffffffffffffffffffffffffffffffffffff909216919091179055565b6103636106f2565b6040516101ed919061112f565b61020961037e366004610db1565b610ad5565b6007546001600160a01b03166102c5565b610230610ae8565b6102096103aa366004611142565b600955565b610230610af7565b610230610b06565b6102096103cd366004610db1565b610b15565b610230610b28565b6102096103e8366004611142565b600155565b6102096103fb366004610f7f565b600780546001600160a01b0319166001600160a01b0392909216919091179055565b610230610b37565b610209610433366004610db1565b610b46565b610209610446366004610f7f565b600880546001600160a01b0319166001600160a01b0392909216919091179055565b61020961047636600461115b565b610b59565b805161048e906006906020840190610baf565b5050565b6060600280546104a190611249565b80601f01602080910402602001604051908101604052809291908181526020018280546104cd90611249565b801561051a5780601f106104ef5761010080835404028352916020019161051a565b820191906000526020600020905b8154815290600101906020018083116104fd57829003601f168201915b5050505050905090565b6060600a80546104a190611249565b805161048e906005906020840190610baf565b61054e610c33565b60405180606001604052806105616106f2565b81526020016009548152602001600860009054906101000a90046001600160a01b03166001600160a01b0316635d1ca6316040518163ffffffff1660e01b8152600401602060405180830381865afa1580156105c1573d6000803e3d6000fd5b505050506040513d601f19601f820116820180604052508101906105e59190611284565b9052919050565b805161048e906003906020840190610baf565b6020808301516001556040830151805161061d926002920190610baf565b506060820151805161063791600391602090910190610baf565b506080820151805161065191600491602090910190610baf565b5060a0820151805161066b91600591602090910190610baf565b5060c0820151805161068591600691602090910190610baf565b5061010090910151600780546001600160a01b039093166001600160a01b0319921515600160a01b02929092167fffffffffffffffffffffff00000000000000000000000000000000000000000090931692909217179055565b805161048e90600b906020840190610baf565b61074c60405180610120016040528060006001600160a01b03168152602001600081526020016060815260200160608152602001606081526020016060815260200160608152602001600081526020016000151581525090565b60408051610120810182526000546001600160a01b03168152600154602082015260028054919283019161077f90611249565b80601f01602080910402602001604051908101604052809291908181526020018280546107ab90611249565b80156107f85780601f106107cd576101008083540402835291602001916107f8565b820191906000526020600020905b8154815290600101906020018083116107db57829003601f168201915b505050505081526020016003805461080f90611249565b80601f016020809104026020016040519081016040528092919081815260200182805461083b90611249565b80156108885780601f1061085d57610100808354040283529160200191610888565b820191906000526020600020905b81548152906001019060200180831161086b57829003601f168201915b505050505081526020016004805461089f90611249565b80601f01602080910402602001604051908101604052809291908181526020018280546108cb90611249565b80156109185780601f106108ed57610100808354040283529160200191610918565b820191906000526020600020905b8154815290600101906020018083116108fb57829003601f168201915b505050505081526020016005805461092f90611249565b80601f016020809104026020016040519081016040528092919081815260200182805461095b90611249565b80156109a85780601f1061097d576101008083540402835291602001916109a8565b820191906000526020600020905b81548152906001019060200180831161098b57829003601f168201915b50505050508152602001600680546109bf90611249565b80601f01602080910402602001604051908101604052809291908181526020018280546109eb90611249565b8015610a385780601f10610a0d57610100808354040283529160200191610a38565b820191906000526020600020905b815481529060010190602001808311610a1b57829003601f168201915b50505050508152602001600760009054906101000a90046001600160a01b03166001600160a01b0316635d1ca6316040518163ffffffff1660e01b8152600401602060405180830381865afa158015610a95573d6000803e3d6000fd5b505050506040513d601f19601f82011682018060405250810190610ab99190611284565b8152600754600160a01b900460ff161515602090910152919050565b805161048e906002906020840190610baf565b6060600680546104a190611249565b6060600380546104a190611249565b6060600480546104a190611249565b805161048e906004906020840190610baf565b6060600b80546104a190611249565b6060600580546104a190611249565b805161048e90600a906020840190610baf565b8451610b6590846105ff565b600880546001600160a01b0319166001600160a01b0386161790558151610b9390600a906020850190610baf565b508051610ba790600b906020840190610baf565b505050505050565b828054610bbb90611249565b90600052602060002090601f016020900481019282610bdd5760008555610c23565b82601f10610bf657805160ff1916838001178555610c23565b82800160010185558215610c23579182015b82811115610c23578251825591602001919060010190610c08565b50610c2f929150610cac565b5090565b6040518060600160405280610c9860405180610120016040528060006001600160a01b03168152602001600081526020016060815260200160608152602001606081526020016060815260200160608152602001600081526020016000151581525090565b815260200160008152602001600081525090565b5b80821115610c2f5760008155600101610cad565b634e487b7160e01b600052604160045260246000fd5b604051610120810167ffffffffffffffff81118282101715610cfb57610cfb610cc1565b60405290565b6040516060810167ffffffffffffffff81118282101715610cfb57610cfb610cc1565b600082601f830112610d3557600080fd5b813567ffffffffffffffff80821115610d5057610d50610cc1565b604051601f8301601f19908116603f01168101908282118183101715610d7857610d78610cc1565b81604052838152866020858801011115610d9157600080fd5b836020870160208301376000602085830101528094505050505092915050565b600060208284031215610dc357600080fd5b813567ffffffffffffffff811115610dda57600080fd5b610de684828501610d24565b949350505050565b6000815180845260005b81811015610e1457602081850181015186830182015201610df8565b81811115610e26576000602083870101525b50601f01601f19169290920160200192915050565b602081526000610e4e6020830184610dee565b9392505050565b80516001600160a01b031682526000610120602083015160208501526040830151816040860152610e8882860182610dee565b91505060608301518482036060860152610ea28282610dee565b91505060808301518482036080860152610ebc8282610dee565b91505060a083015184820360a0860152610ed68282610dee565b91505060c083015184820360c0860152610ef08282610dee565b91505060e083015160e085015261010080840151610f118287018215159052565b5090949350505050565b602081526000825160606020840152610f376080840182610e55565b905060208401516040840152604084015160608401528091505092915050565b6001600160a01b0381168114610f6c57600080fd5b50565b8035610f7a81610f57565b919050565b600060208284031215610f9157600080fd5b8135610e4e81610f57565b80358015158114610f7a57600080fd5b60006101208284031215610fbf57600080fd5b610fc7610cd7565b9050610fd282610f6f565b815260208201356020820152604082013567ffffffffffffffff80821115610ff957600080fd5b61100585838601610d24565b6040840152606084013591508082111561101e57600080fd5b61102a85838601610d24565b6060840152608084013591508082111561104357600080fd5b61104f85838601610d24565b608084015260a084013591508082111561106857600080fd5b61107485838601610d24565b60a084015260c084013591508082111561108d57600080fd5b5061109a84828501610d24565b60c08301525060e082013560e08201526101006110b8818401610f9c565b9082015292915050565b600080604083850312156110d557600080fd5b823567ffffffffffffffff8111156110ec57600080fd5b6110f885828601610fac565b925050602083013561110981610f57565b809150509250929050565b60006020828403121561112657600080fd5b610e4e82610f9c565b602081526000610e4e6020830184610e55565b60006020828403121561115457600080fd5b5035919050565b600080600080600060a0868803121561117357600080fd5b853567ffffffffffffffff8082111561118b57600080fd5b908701906060828a03121561119f57600080fd5b6111a7610d01565b8235828111156111b657600080fd5b6111c28b828601610fac565b8252506020830135602082015260408301356040820152809750506111e960208901610f6f565b95506111f760408901610f6f565b9450606088013591508082111561120d57600080fd5b61121989838a01610d24565b9350608088013591508082111561122f57600080fd5b5061123c88828901610d24565b9150509295509295909350565b600181811c9082168061125d57607f821691505b6020821081141561127e57634e487b7160e01b600052602260045260246000fd5b50919050565b60006020828403121561129657600080fd5b505191905056fea264697066735822122064f68860b23f809ab50d2ef42663e48df1fd895227d8ccb6ecafa103488ba3ea64736f6c634300080b0033a26469706673582212203047de18edb436b239ade06f42f93dfb003d2c0634acb2da17f829f287b59b8164736f6c634300080b0033",
  "immutableReferences": {},
  "source": "pragma solidity ^0.8.10;\n\nimport \"../models/MedicoVO.sol\";\nimport \"../persistence/MedicoMapper.sol\";\nimport \"../persistence/DatosParametricosMapper.sol\";\n\nimport \"./sistemaExterno/MedicoOraculo.sol\";\nimport \"./Acceso.sol\";\n\ncontract Medico {\n    // TODO: consumir este evento desde una clase heredada o algo as\n    event Log(string data);\n    address public creador;\n    address public medicoMapperAddress;\n\n    MedicoMapperInterface private medicoMapper;\n    DatosParametricosMapperInterface private datosParametricosMapper;\n    MedicoOraculo private medicoOraculo;\n    RolMapperInterface private rolMapper;\n    UsuarioMapperInterface private usuarioMapper;\n\n    //TODO Convertir eventualmente en un enum\n    uint256 rolMedicoId = 1;\n\n    constructor() {\n        creador = msg.sender;\n    }\n\n    function consultar(address direccion)\n        public\n        returns (MedicoVO.MedicoVOStruct memory)\n    {\n        emit Log(\"entro a consultar\");\n        return medicoMapper.consultar(direccion).getMedicoVOValue();\n    }\n\n    function registrar(address direccion, MedicoVO medico) public {\n        RolVO rol = rolMapper.consultar(rolMedicoId);\n        UsuarioVO nuevoUsuario = new UsuarioVO();\n        nuevoUsuario.setDireccion(direccion);\n        nuevoUsuario.setRol(rol);\n        nuevoUsuario.setEstaActivo(true);\n        usuarioMapper.guardar(direccion, nuevoUsuario);\n        try medicoMapper.guardar(direccion, medico) {\n            emit Log(\"Se guarda la informacion del medico correctamente\");\n        } catch Error(string memory data) {\n            /*reason*/\n            emit Log(\"se rompio por un revert o require\");\n            emit Log(data);\n        }\n    }\n\n    function registrarConStruct(\n        address direccion,\n        MedicoVO.MedicoVOStruct memory medicoVOStruct,\n        string memory _usuario,\n        string memory _contrasena // TODO: Recibir encryptada\n    ) public {\n        bool medicoValido = medicoOraculo.verificarExistenciaEnSistemaExterno(\n            _usuario,\n            _contrasena\n        );\n        if (!medicoValido) {\n            revert(\"No existe ese medico para el estado\");\n        }\n        MedicoVO medicoVO = new MedicoVO();\n        EstadoVO estadoVO = datosParametricosMapper.consultarEstadoVO(\n            medicoVOStruct.estadoId\n        );\n        TipoIdentificacionVO _tipoIdentificacionVO = datosParametricosMapper\n            .consultarTipoIdentificacionVO(\n                medicoVOStruct.persona.tipoIdentificacion\n            );\n\n        medicoVO.setValuesOfMedicoVOStruct(\n            medicoVOStruct,\n            estadoVO,\n            _tipoIdentificacionVO,\n            _usuario,\n            _contrasena\n        );\n        registrar(direccion, medicoVO);\n    }\n\n    function actualizar(address direccion, MedicoVO medico) public {\n        medicoMapper.actualizar(direccion, medico);\n        /*\n        try contratoPacienteDAO.actualizar(direccion, paciente) {\n            emit Log(\"Se guarda la informacion de paciente correctamente\");\n        } catch Error(string memory data) {\n            /*reason*/\n        /*  emit Log(\"se rompio por un revert o require\");\n            emit Log(data);\n        }*/\n    }\n\n    /*function verificarExistenciaEnSistemaExterno(address direccion)\n        public\n        returns (bool)\n    {\n        /* TODO: Consultar info del medico (usuario y contrasea)\n         *  despues se hace con oraculos una consulta\n         */\n    /*\n        return true;\n    }*/\n\n    /*function buscarPerfilMedicoSistemaExterno(address direccion) public returns (PerfilMedicoSistemaExternoStruct memory){\n        // TODO: tambien con oraculo\n    }*/\n\n    function setMedicoMapper(MedicoMapperInterface _medicoMapper)\n        public\n        esPropietario\n    {\n        medicoMapper = _medicoMapper;\n    }\n\n    function setDatosParametricosMapper(\n        DatosParametricosMapperInterface _datosParametricosMapperAddress\n    ) public esPropietario {\n        datosParametricosMapper = _datosParametricosMapperAddress;\n    }\n\n    function setMedicoOraculo(MedicoOraculo _medicoOraculo)\n        public\n        esPropietario\n    {\n        medicoOraculo = _medicoOraculo;\n    }\n\n        function setRolMapper(RolMapperInterface _rolMapperAddress)\n        public\n        esPropietario\n    {\n        rolMapper = _rolMapperAddress;\n    }\n\n    function setUsuarioMapper(UsuarioMapperInterface _usuarioMapperAddress)\n        public\n        esPropietario\n    {\n        usuarioMapper = _usuarioMapperAddress;\n    }\n\n    // TODO: poner en clase generica y reusarlo\n    modifier esPropietario() {\n        require(\n            msg.sender == creador,\n            \"Esta funcion solo puede ser ejecutada por el creador del contrato\"\n        );\n        _; // ac se ejecuta la funcin\n    }\n\n    function selfDestruct() public esPropietario {\n        selfdestruct(payable(creador));\n    }\n}\n",
  "sourcePath": "/home/felipe/Documentos/Blockchain/codigo/back-hce/contracts/logica/Medico.sol",
  "compiler": {
    "name": "solc",
    "version": "0.8.11+commit.d7f03943.Emscripten.clang"
  },
  "schemaVersion": "3.4.8",
  "updatedAt": "2022-09-09T03:13:07.299Z",
  "networkType": "ethereum",
  "devdoc": {
    "kind": "dev",
    "methods": {},
    "version": 1
  },
  "userdoc": {
    "kind": "user",
    "methods": {},
    "version": 1
  }
}