{
  "contractName": "Medico",
  "abi": [
    {
      "inputs": [],
      "stateMutability": "nonpayable",
      "type": "constructor"
    },
    {
      "anonymous": false,
      "inputs": [
        {
          "indexed": false,
          "internalType": "string",
          "name": "data",
          "type": "string"
        }
      ],
      "name": "Log",
      "type": "event"
    },
    {
      "inputs": [],
      "name": "creador",
      "outputs": [
        {
          "internalType": "address",
          "name": "",
          "type": "address"
        }
      ],
      "stateMutability": "view",
      "type": "function"
    },
    {
      "inputs": [],
      "name": "medicoMapperAddress",
      "outputs": [
        {
          "internalType": "address",
          "name": "",
          "type": "address"
        }
      ],
      "stateMutability": "view",
      "type": "function"
    },
    {
      "inputs": [
        {
          "internalType": "address",
          "name": "direccion",
          "type": "address"
        }
      ],
      "name": "consultar",
      "outputs": [
        {
          "internalType": "contract MedicoVO",
          "name": "",
          "type": "address"
        }
      ],
      "stateMutability": "nonpayable",
      "type": "function"
    },
    {
      "inputs": [
        {
          "internalType": "address",
          "name": "direccion",
          "type": "address"
        },
        {
          "internalType": "contract MedicoVO",
          "name": "medico",
          "type": "address"
        }
      ],
      "name": "registrar",
      "outputs": [],
      "stateMutability": "nonpayable",
      "type": "function"
    },
    {
      "inputs": [
        {
          "internalType": "address",
          "name": "direccion",
          "type": "address"
        },
        {
          "internalType": "contract MedicoVO",
          "name": "medico",
          "type": "address"
        }
      ],
      "name": "actualizar",
      "outputs": [],
      "stateMutability": "nonpayable",
      "type": "function"
    },
    {
      "inputs": [
        {
          "internalType": "address",
          "name": "direccion",
          "type": "address"
        }
      ],
      "name": "verificarExistenciaEnSistemaExterno",
      "outputs": [
        {
          "internalType": "bool",
          "name": "",
          "type": "bool"
        }
      ],
      "stateMutability": "nonpayable",
      "type": "function"
    },
    {
      "inputs": [
        {
          "internalType": "address",
          "name": "_medicoMapperAddress",
          "type": "address"
        }
      ],
      "name": "setContratoPacienteMapperAddress",
      "outputs": [],
      "stateMutability": "nonpayable",
      "type": "function"
    },
    {
      "inputs": [],
      "name": "selfDestruct",
      "outputs": [],
      "stateMutability": "nonpayable",
      "type": "function"
    }
  ],
  "bytecode": "0x608060405234801561001057600080fd5b50336000806101000a81548173ffffffffffffffffffffffffffffffffffffffff021916908373ffffffffffffffffffffffffffffffffffffffff160217905550610f5a806100606000396000f3fe608060405234801561001057600080fd5b50600436106100885760003560e01c80637da8f6a51161005b5780637da8f6a51461011157806392ebdcd2146101415780639cb8a26a1461015f578063ac121b2b1461016957610088565b806307b37d1d1461008d5780630da7d7a5146100a957806313429f35146100c55780635a2c9ea2146100e1575b600080fd5b6100a760048036038101906100a29190610872565b610187565b005b6100c360048036038101906100be9190610872565b6102f8565b005b6100df60048036038101906100da91906108b2565b61038b565b005b6100fb60048036038101906100f691906108b2565b6104c0565b60405161010891906108fa565b60405180910390f35b61012b600480360381019061012691906108b2565b6104cb565b6040516101389190610974565b60405180910390f35b6101496106b6565b604051610156919061099e565b60405180910390f35b6101676106da565b005b6101716107a1565b60405161017e919061099e565b60405180910390f35b600260009054906101000a900473ffffffffffffffffffffffffffffffffffffffff1673ffffffffffffffffffffffffffffffffffffffff1663be381c5983836040518363ffffffff1660e01b81526004016101e49291906109b9565b600060405180830381600087803b1580156101fe57600080fd5b505af192505050801561020f575060015b6102be5761021b6109ef565b806308c379a014156102ad5750610230610a82565b8061023b57506102af565b7fcf34ef537ac33ee1ac626ca1587a0a7e8e51561e5514f8cb36afa1c5102b3bab60405161026890610b9b565b60405180910390a17fcf34ef537ac33ee1ac626ca1587a0a7e8e51561e5514f8cb36afa1c5102b3bab8160405161029f9190610c32565b60405180910390a1506102b9565b505b3d6000803e3d6000fd5b6102f4565b7fcf34ef537ac33ee1ac626ca1587a0a7e8e51561e5514f8cb36afa1c5102b3bab6040516102eb90610cc6565b60405180910390a15b5050565b600260009054906101000a900473ffffffffffffffffffffffffffffffffffffffff1673ffffffffffffffffffffffffffffffffffffffff16630da7d7a583836040518363ffffffff1660e01b81526004016103559291906109b9565b600060405180830381600087803b15801561036f57600080fd5b505af1158015610383573d6000803e3d6000fd5b505050505050565b60008054906101000a900473ffffffffffffffffffffffffffffffffffffffff1673ffffffffffffffffffffffffffffffffffffffff163373ffffffffffffffffffffffffffffffffffffffff1614610419576040517f08c379a000000000000000000000000000000000000000000000000000000000815260040161041090610d7e565b60405180910390fd5b80600160006101000a81548173ffffffffffffffffffffffffffffffffffffffff021916908373ffffffffffffffffffffffffffffffffffffffff160217905550600160009054906101000a900473ffffffffffffffffffffffffffffffffffffffff16600260006101000a81548173ffffffffffffffffffffffffffffffffffffffff021916908373ffffffffffffffffffffffffffffffffffffffff16021790555050565b600060019050919050565b60007fcf34ef537ac33ee1ac626ca1587a0a7e8e51561e5514f8cb36afa1c5102b3bab6040516104fa90610dea565b60405180910390a1600260009054906101000a900473ffffffffffffffffffffffffffffffffffffffff1673ffffffffffffffffffffffffffffffffffffffff16637da8f6a5836040518263ffffffff1660e01b815260040161055d919061099e565b6020604051808303816000875af192505050801561059957506040513d601f19601f820116820180604052508101906105969190610e1f565b60015b610678576105a56109ef565b806308c379a0141561066c57506105ba610a82565b806105c5575061066e565b7fcf34ef537ac33ee1ac626ca1587a0a7e8e51561e5514f8cb36afa1c5102b3bab6040516105f290610b9b565b60405180910390a17fcf34ef537ac33ee1ac626ca1587a0a7e8e51561e5514f8cb36afa1c5102b3bab816040516106299190610c32565b60405180910390a16040517f08c379a000000000000000000000000000000000000000000000000000000000815260040161066390610e98565b60405180910390fd5b505b3d6000803e3d6000fd5b7fcf34ef537ac33ee1ac626ca1587a0a7e8e51561e5514f8cb36afa1c5102b3bab6040516106a590610f04565b60405180910390a180915050919050565b60008054906101000a900473ffffffffffffffffffffffffffffffffffffffff1681565b60008054906101000a900473ffffffffffffffffffffffffffffffffffffffff1673ffffffffffffffffffffffffffffffffffffffff163373ffffffffffffffffffffffffffffffffffffffff1614610768576040517f08c379a000000000000000000000000000000000000000000000000000000000815260040161075f90610d7e565b60405180910390fd5b60008054906101000a900473ffffffffffffffffffffffffffffffffffffffff1673ffffffffffffffffffffffffffffffffffffffff16ff5b600160009054906101000a900473ffffffffffffffffffffffffffffffffffffffff1681565b6000604051905090565b600080fd5b600073ffffffffffffffffffffffffffffffffffffffff82169050919050565b6000610801826107d6565b9050919050565b610811816107f6565b811461081c57600080fd5b50565b60008135905061082e81610808565b92915050565b600061083f826107f6565b9050919050565b61084f81610834565b811461085a57600080fd5b50565b60008135905061086c81610846565b92915050565b60008060408385031215610889576108886107d1565b5b60006108978582860161081f565b92505060206108a88582860161085d565b9150509250929050565b6000602082840312156108c8576108c76107d1565b5b60006108d68482850161081f565b91505092915050565b60008115159050919050565b6108f4816108df565b82525050565b600060208201905061090f60008301846108eb565b92915050565b6000819050919050565b600061093a610935610930846107d6565b610915565b6107d6565b9050919050565b600061094c8261091f565b9050919050565b600061095e82610941565b9050919050565b61096e81610953565b82525050565b60006020820190506109896000830184610965565b92915050565b610998816107f6565b82525050565b60006020820190506109b3600083018461098f565b92915050565b60006040820190506109ce600083018561098f565b6109db6020830184610965565b9392505050565b60008160e01c9050919050565b600060033d1115610a0e5760046000803e610a0b6000516109e2565b90505b90565b6000601f19601f8301169050919050565b7f4e487b7100000000000000000000000000000000000000000000000000000000600052604160045260246000fd5b610a5a82610a11565b810181811067ffffffffffffffff82111715610a7957610a78610a22565b5b80604052505050565b600060443d1015610a9257610b15565b610a9a6107c7565b60043d036004823e80513d602482011167ffffffffffffffff82111715610ac2575050610b15565b808201805167ffffffffffffffff811115610ae05750505050610b15565b80602083010160043d038501811115610afd575050505050610b15565b610b0c82602001850186610a51565b82955050505050505b90565b600082825260208201905092915050565b7f736520726f6d70696f20706f7220756e20726576657274206f2072657175697260008201527f6500000000000000000000000000000000000000000000000000000000000000602082015250565b6000610b85602183610b18565b9150610b9082610b29565b604082019050919050565b60006020820190508181036000830152610bb481610b78565b9050919050565b600081519050919050565b60005b83811015610be4578082015181840152602081019050610bc9565b83811115610bf3576000848401525b50505050565b6000610c0482610bbb565b610c0e8185610b18565b9350610c1e818560208601610bc6565b610c2781610a11565b840191505092915050565b60006020820190508181036000830152610c4c8184610bf9565b905092915050565b7f536520677561726461206c6120696e666f726d6163696f6e2064656c206d656460008201527f69636f20636f7272656374616d656e7465000000000000000000000000000000602082015250565b6000610cb0603183610b18565b9150610cbb82610c54565b604082019050919050565b60006020820190508181036000830152610cdf81610ca3565b9050919050565b7f457374612066756e63696f6e20736f6c6f2070756564652073657220656a656360008201527f757461646120706f7220656c2063726561646f722064656c20636f6e7472617460208201527f6f00000000000000000000000000000000000000000000000000000000000000604082015250565b6000610d68604183610b18565b9150610d7382610ce6565b606082019050919050565b60006020820190508181036000830152610d9781610d5b565b9050919050565b7f656e74726f206120636f6e73756c746172000000000000000000000000000000600082015250565b6000610dd4601183610b18565b9150610ddf82610d9e565b602082019050919050565b60006020820190508181036000830152610e0381610dc7565b9050919050565b600081519050610e1981610846565b92915050565b600060208284031215610e3557610e346107d1565b5b6000610e4384828501610e0a565b91505092915050565b7f4e6f2065786973746520657365206d656469636f000000000000000000000000600082015250565b6000610e82601483610b18565b9150610e8d82610e4c565b602082019050919050565b60006020820190508181036000830152610eb181610e75565b9050919050565b7f656e636f6e74726f20656c206d656469636f0000000000000000000000000000600082015250565b6000610eee601283610b18565b9150610ef982610eb8565b602082019050919050565b60006020820190508181036000830152610f1d81610ee1565b905091905056fea2646970667358221220f7b3fda9f6a5b22835a5a0b9e6c041cf823fa5dd02c091a63f68cc4401bddc2664736f6c634300080b0033",
  "immutableReferences": {},
  "source": "pragma solidity ^0.8.10;\n\nimport \"../models/MedicoVO.sol\";\nimport \"../persistence/MedicoMapper.sol\";\n\ncontract Medico {\n    // TODO: consumir este evento desde una clase heredada o algo as\n    event Log(string data);\n    address public creador;\n    address public medicoMapperAddress;\n\n    MedicoMapperInterface private medicoMapper;\n\n    struct PerfilMedicoSistemaExternoStruct {\n        string primerNombre;\n        string segundoNombre;\n        string primerApellido;\n        string segundoApellido;\n        string identificacion; // TODO: agregar tipo de identificacion\n        string especialidad;\n    }\n\n    constructor() {\n        creador = msg.sender; // creador del contrato\n    }\n\n    function consultar(address direccion) public returns (MedicoVO) {\n        emit Log(\"entro a consultar\");\n        try medicoMapper.consultar(direccion) returns (MedicoVO response) {\n            emit Log(\"encontro el medico\");\n            return response;\n        } catch Error(string memory e) {\n            /*reason*/\n            emit Log(\"se rompio por un revert o require\");\n            emit Log(e);\n            revert(\"No existe ese medico\");\n        }\n    }\n\n    function registrar(address direccion, MedicoVO medico) public {\n        try medicoMapper.guardar(direccion, medico) {\n            emit Log(\"Se guarda la informacion del medico correctamente\");\n        } catch Error(string memory data) {\n            /*reason*/\n            emit Log(\"se rompio por un revert o require\");\n            emit Log(data);\n        }\n    }\n\n    function actualizar(address direccion, MedicoVO medico) public {\n        medicoMapper.actualizar(direccion, medico);\n        /*\n        try contratoPacienteDAO.actualizar(direccion, paciente) {\n            emit Log(\"Se guarda la informacion de paciente correctamente\");\n        } catch Error(string memory data) {\n            /*reason*/\n        /*  emit Log(\"se rompio por un revert o require\");\n            emit Log(data);\n        }*/\n    }\n\n    function verificarExistenciaEnSistemaExterno(address direccion)\n        public\n        returns (bool)\n    {\n        /* TODO: Consultar info del medico (usuario y contrasea)\n         *  despues se hace con oraculos una consulta\n         */\n        return true;\n    }\n\n    /*function buscarPerfilMedicoSistemaExterno(address direccion) public returns (PerfilMedicoSistemaExternoStruct memory){\n        // TODO: tambien con oraculo\n    }*/\n\n    function setContratoPacienteMapperAddress(address _medicoMapperAddress)\n        public\n        esPropietario\n    {\n        medicoMapperAddress = _medicoMapperAddress;\n        medicoMapper = MedicoMapper(medicoMapperAddress); // TODO: quiz es mejor recibir el objeto como contrato\n    }\n\n    // TODO: poner en clase generica y reusarlo\n    modifier esPropietario() {\n        require(\n            msg.sender == creador,\n            \"Esta funcion solo puede ser ejecutada por el creador del contrato\"\n        );\n        _; // ac se ejecuta la funcin\n    }\n\n    function selfDestruct() public esPropietario {\n        selfdestruct(payable(creador));\n    }\n}\n",
  "sourcePath": "/home/felipe/Documentos/Blockchain/codigo/back-hce/contracts/logica/Medico.sol",
  "compiler": {
    "name": "solc",
    "version": "0.8.11+commit.d7f03943.Emscripten.clang"
  },
  "schemaVersion": "3.4.4",
  "updatedAt": "2022-02-23T02:37:04.844Z",
  "devdoc": {
    "kind": "dev",
    "methods": {},
    "version": 1
  },
  "userdoc": {
    "kind": "user",
    "methods": {},
    "version": 1
  }
}