{
  "contractName": "Medico",
  "abi": [
    {
      "inputs": [],
      "stateMutability": "nonpayable",
      "type": "constructor"
    },
    {
      "inputs": [],
      "name": "creador",
      "outputs": [
        {
          "internalType": "address",
          "name": "",
          "type": "address"
        }
      ],
      "stateMutability": "view",
      "type": "function",
      "constant": true
    },
    {
      "inputs": [],
      "name": "getAccesoUsuario",
      "outputs": [
        {
          "internalType": "string",
          "name": "",
          "type": "string"
        }
      ],
      "stateMutability": "view",
      "type": "function",
      "constant": true
    },
    {
      "inputs": [],
      "name": "getIdentificacion",
      "outputs": [
        {
          "internalType": "string",
          "name": "",
          "type": "string"
        }
      ],
      "stateMutability": "view",
      "type": "function",
      "constant": true
    },
    {
      "inputs": [],
      "name": "getIsValue",
      "outputs": [
        {
          "internalType": "bool",
          "name": "",
          "type": "bool"
        }
      ],
      "stateMutability": "view",
      "type": "function",
      "constant": true
    },
    {
      "inputs": [],
      "name": "getPrimerApellido",
      "outputs": [
        {
          "internalType": "string",
          "name": "",
          "type": "string"
        }
      ],
      "stateMutability": "view",
      "type": "function",
      "constant": true
    },
    {
      "inputs": [],
      "name": "getPrimerNombre",
      "outputs": [
        {
          "internalType": "string",
          "name": "",
          "type": "string"
        }
      ],
      "stateMutability": "view",
      "type": "function",
      "constant": true
    },
    {
      "inputs": [],
      "name": "getSegundoApellido",
      "outputs": [
        {
          "internalType": "string",
          "name": "",
          "type": "string"
        }
      ],
      "stateMutability": "view",
      "type": "function",
      "constant": true
    },
    {
      "inputs": [],
      "name": "getSegundoNombre",
      "outputs": [
        {
          "internalType": "string",
          "name": "",
          "type": "string"
        }
      ],
      "stateMutability": "view",
      "type": "function",
      "constant": true
    },
    {
      "inputs": [],
      "name": "getTipoIdentificacion",
      "outputs": [
        {
          "internalType": "string",
          "name": "",
          "type": "string"
        }
      ],
      "stateMutability": "view",
      "type": "function",
      "constant": true
    },
    {
      "inputs": [
        {
          "internalType": "contract Usuario",
          "name": "newMessage",
          "type": "address"
        }
      ],
      "name": "setAccesoUsuario",
      "outputs": [],
      "stateMutability": "nonpayable",
      "type": "function"
    },
    {
      "inputs": [
        {
          "internalType": "string",
          "name": "newMessage",
          "type": "string"
        }
      ],
      "name": "setIdentificacion",
      "outputs": [],
      "stateMutability": "nonpayable",
      "type": "function"
    },
    {
      "inputs": [
        {
          "internalType": "bool",
          "name": "newMessage",
          "type": "bool"
        }
      ],
      "name": "setIsValue",
      "outputs": [],
      "stateMutability": "nonpayable",
      "type": "function"
    },
    {
      "inputs": [
        {
          "internalType": "string",
          "name": "newMessage",
          "type": "string"
        }
      ],
      "name": "setPrimerApellido",
      "outputs": [],
      "stateMutability": "nonpayable",
      "type": "function"
    },
    {
      "inputs": [
        {
          "internalType": "string",
          "name": "newMessage",
          "type": "string"
        }
      ],
      "name": "setPrimerNombre",
      "outputs": [],
      "stateMutability": "nonpayable",
      "type": "function"
    },
    {
      "inputs": [
        {
          "internalType": "string",
          "name": "newMessage",
          "type": "string"
        }
      ],
      "name": "setSegundoApellido",
      "outputs": [],
      "stateMutability": "nonpayable",
      "type": "function"
    },
    {
      "inputs": [
        {
          "internalType": "string",
          "name": "newMessage",
          "type": "string"
        }
      ],
      "name": "setSegundoNombre",
      "outputs": [],
      "stateMutability": "nonpayable",
      "type": "function"
    },
    {
      "inputs": [
        {
          "internalType": "string",
          "name": "newMessage",
          "type": "string"
        }
      ],
      "name": "setTipoIdentificacion",
      "outputs": [],
      "stateMutability": "nonpayable",
      "type": "function"
    },
    {
      "inputs": [],
      "name": "login",
      "outputs": [
        {
          "internalType": "contract Persona",
          "name": "",
          "type": "address"
        }
      ],
      "stateMutability": "nonpayable",
      "type": "function"
    },
    {
      "inputs": [
        {
          "internalType": "uint256",
          "name": "funcionId",
          "type": "uint256"
        }
      ],
      "name": "buscarPermisosDeRol",
      "outputs": [
        {
          "internalType": "bool",
          "name": "",
          "type": "bool"
        }
      ],
      "stateMutability": "view",
      "type": "function",
      "constant": true
    }
  ],
  "bytecode": "0x608060405234801561001057600080fd5b5033600760006101000a81548173ffffffffffffffffffffffffffffffffffffffff021916908373ffffffffffffffffffffffffffffffffffffffff160217905550610e6a806100616000396000f3fe608060405234801561001057600080fd5b50600436106101215760003560e01c806392ebdcd2116100ad578063b34e97e811610071578063b34e97e8146102bc578063c461d52e146102da578063cc9f930e146102f8578063eacd3b9314610314578063f92e61531461033257610121565b806392ebdcd2146102285780639ac9abd014610246578063ac1e324914610264578063b224583414610282578063b2f9ccbb1461029e57610121565b80634e8c23ca116100f45780634e8c23ca1461019a5780634fe5aa08146101b6578063551a5cfa146101d457806378c7e292146101f057806383cb77b01461020c57610121565b806314dac2ae1461012657806328fd4873146101425780633c3c069f1461015e5780633ca452b91461017c575b600080fd5b610140600480360381019061013b91906109d7565b610362565b005b61015c60048036038101906101579190610b4a565b6103a6565b005b6101666103c0565b6040516101739190610bae565b60405180910390f35b6101846103d7565b6040516101919190610c51565b60405180910390f35b6101b460048036038101906101af9190610b4a565b610469565b005b6101be610483565b6040516101cb9190610c51565b60405180910390f35b6101ee60048036038101906101e99190610b4a565b610515565b005b61020a60048036038101906102059190610c9f565b61052f565b005b61022660048036038101906102219190610b4a565b61054c565b005b610230610566565b60405161023d9190610cdb565b60405180910390f35b61024e61058c565b60405161025b9190610c51565b60405180910390f35b61026c61061e565b6040516102799190610c51565b60405180910390f35b61029c60048036038101906102979190610b4a565b6106b0565b005b6102a66106ca565b6040516102b39190610c51565b60405180910390f35b6102c461075c565b6040516102d19190610d55565b60405180910390f35b6102e2610766565b6040516102ef9190610c51565b60405180910390f35b610312600480360381019061030d9190610b4a565b6107f8565b005b61031c610812565b6040516103299190610c51565b60405180910390f35b61034c60048036038101906103479190610da6565b6108a4565b6040516103599190610bae565b60405180910390f35b80600660006101000a81548173ffffffffffffffffffffffffffffffffffffffff021916908373ffffffffffffffffffffffffffffffffffffffff16021790555050565b80600490805190602001906103bc9291906108b0565b5050565b6000600660149054906101000a900460ff16905090565b6060600080546103e690610e02565b80601f016020809104026020016040519081016040528092919081815260200182805461041290610e02565b801561045f5780601f106104345761010080835404028352916020019161045f565b820191906000526020600020905b81548152906001019060200180831161044257829003601f168201915b5050505050905090565b806003908051906020019061047f9291906108b0565b5050565b60606000805461049290610e02565b80601f01602080910402602001604051908101604052809291908181526020018280546104be90610e02565b801561050b5780601f106104e05761010080835404028352916020019161050b565b820191906000526020600020905b8154815290600101906020018083116104ee57829003601f168201915b5050505050905090565b806001908051906020019061052b9291906108b0565b5050565b80600660146101000a81548160ff02191690831515021790555050565b80600090805190602001906105629291906108b0565b5050565b600760009054906101000a900473ffffffffffffffffffffffffffffffffffffffff1681565b60606004805461059b90610e02565b80601f01602080910402602001604051908101604052809291908181526020018280546105c790610e02565b80156106145780601f106105e957610100808354040283529160200191610614565b820191906000526020600020905b8154815290600101906020018083116105f757829003601f168201915b5050505050905090565b60606005805461062d90610e02565b80601f016020809104026020016040519081016040528092919081815260200182805461065990610e02565b80156106a65780601f1061067b576101008083540402835291602001916106a6565b820191906000526020600020905b81548152906001019060200180831161068957829003601f168201915b5050505050905090565b80600590805190602001906106c69291906108b0565b5050565b6060600180546106d990610e02565b80601f016020809104026020016040519081016040528092919081815260200182805461070590610e02565b80156107525780601f1061072757610100808354040283529160200191610752565b820191906000526020600020905b81548152906001019060200180831161073557829003601f168201915b5050505050905090565b6000803390505090565b60606002805461077590610e02565b80601f01602080910402602001604051908101604052809291908181526020018280546107a190610e02565b80156107ee5780601f106107c3576101008083540402835291602001916107ee565b820191906000526020600020905b8154815290600101906020018083116107d157829003601f168201915b5050505050905090565b806002908051906020019061080e9291906108b0565b5050565b60606003805461082190610e02565b80601f016020809104026020016040519081016040528092919081815260200182805461084d90610e02565b801561089a5780601f1061086f5761010080835404028352916020019161089a565b820191906000526020600020905b81548152906001019060200180831161087d57829003601f168201915b5050505050905090565b60008033905050919050565b8280546108bc90610e02565b90600052602060002090601f0160209004810192826108de5760008555610925565b82601f106108f757805160ff1916838001178555610925565b82800160010185558215610925579182015b82811115610924578251825591602001919060010190610909565b5b5090506109329190610936565b5090565b5b8082111561094f576000816000905550600101610937565b5090565b6000604051905090565b600080fd5b600080fd5b600073ffffffffffffffffffffffffffffffffffffffff82169050919050565b600061099282610967565b9050919050565b60006109a482610987565b9050919050565b6109b481610999565b81146109bf57600080fd5b50565b6000813590506109d1816109ab565b92915050565b6000602082840312156109ed576109ec61095d565b5b60006109fb848285016109c2565b91505092915050565b600080fd5b600080fd5b6000601f19601f8301169050919050565b7f4e487b7100000000000000000000000000000000000000000000000000000000600052604160045260246000fd5b610a5782610a0e565b810181811067ffffffffffffffff82111715610a7657610a75610a1f565b5b80604052505050565b6000610a89610953565b9050610a958282610a4e565b919050565b600067ffffffffffffffff821115610ab557610ab4610a1f565b5b610abe82610a0e565b9050602081019050919050565b82818337600083830152505050565b6000610aed610ae884610a9a565b610a7f565b905082815260208101848484011115610b0957610b08610a09565b5b610b14848285610acb565b509392505050565b600082601f830112610b3157610b30610a04565b5b8135610b41848260208601610ada565b91505092915050565b600060208284031215610b6057610b5f61095d565b5b600082013567ffffffffffffffff811115610b7e57610b7d610962565b5b610b8a84828501610b1c565b91505092915050565b60008115159050919050565b610ba881610b93565b82525050565b6000602082019050610bc36000830184610b9f565b92915050565b600081519050919050565b600082825260208201905092915050565b60005b83811015610c03578082015181840152602081019050610be8565b83811115610c12576000848401525b50505050565b6000610c2382610bc9565b610c2d8185610bd4565b9350610c3d818560208601610be5565b610c4681610a0e565b840191505092915050565b60006020820190508181036000830152610c6b8184610c18565b905092915050565b610c7c81610b93565b8114610c8757600080fd5b50565b600081359050610c9981610c73565b92915050565b600060208284031215610cb557610cb461095d565b5b6000610cc384828501610c8a565b91505092915050565b610cd581610987565b82525050565b6000602082019050610cf06000830184610ccc565b92915050565b6000819050919050565b6000610d1b610d16610d1184610967565b610cf6565b610967565b9050919050565b6000610d2d82610d00565b9050919050565b6000610d3f82610d22565b9050919050565b610d4f81610d34565b82525050565b6000602082019050610d6a6000830184610d46565b92915050565b6000819050919050565b610d8381610d70565b8114610d8e57600080fd5b50565b600081359050610da081610d7a565b92915050565b600060208284031215610dbc57610dbb61095d565b5b6000610dca84828501610d91565b91505092915050565b7f4e487b7100000000000000000000000000000000000000000000000000000000600052602260045260246000fd5b60006002820490506001821680610e1a57607f821691505b60208210811415610e2e57610e2d610dd3565b5b5091905056fea2646970667358221220a98de05030d617362698a3dc306e6358bdf8a6f71d3966d920bc2e6365cff23e64736f6c634300080b0033",
  "immutableReferences": {},
  "source": "pragma solidity >=0.5.0 <0.9.0; // TODO: Ajustar la versin por consenso con Jos\n\nimport \"./Usuario.sol\";\n\n// NOTE: se deja el abstrac contrac justo con sus hijos por cuestiones de ordenamiento de cdigo solidity, antes decia \"Definition of base has to precede definition of derived contract\"\n\nabstract contract Persona {\n    // address public creador;\n    string private primerNombre;\n    string private segundoNombre;\n    string private primerApellido;\n    string private segundoApellido;\n    string private identificacion;\n    // TipoIdentificacionStruct public tipoIdentificacion; // TODO: cambiar tipo por el de la estructura ms adelante\n    string private tipoIdentificacion;\n    Usuario private accesoUsuario;\n    bool private isValue;\n\n    /*\n    // function registrar() public virtual returns(Persona); ejemplo de funcin abstracta\n    function registrar() public returns(bool){\n        // Persona persona = new Paciente();\n        return true;\n    }\n*/\n    function getAccesoUsuario() public view returns (string memory) {\n        return primerNombre;\n    }\n\n    function setAccesoUsuario(Usuario newMessage) public {\n        accesoUsuario = newMessage;\n    }\n\n    function getIdentificacion() public view returns (string memory) {\n        return identificacion;\n    }\n\n    function setIdentificacion(string memory newMessage) public {\n        // TODO: investigar porque se pone memery en el arametros del mtodo\n        identificacion = newMessage;\n    }\n\n    function getPrimerApellido() public view returns (string memory) {\n        return primerApellido;\n    }\n\n    function setPrimerApellido(string memory newMessage) public {\n        primerApellido = newMessage;\n    }\n\n    function getPrimerNombre() public view returns (string memory) {\n        return primerNombre;\n    }\n\n    function setPrimerNombre(string memory newMessage) public {\n        primerNombre = newMessage;\n    }\n\n    function getSegundoApellido() public view returns (string memory) {\n        return segundoApellido;\n    }\n\n    function setSegundoApellido(string memory newMessage) public {\n        segundoApellido = newMessage;\n    }\n\n    function getSegundoNombre() public view returns (string memory) {\n        return segundoNombre;\n    }\n\n    function setSegundoNombre(string memory newMessage) public {\n        segundoNombre = newMessage;\n    }\n\n    function getTipoIdentificacion() public view returns (string memory) {\n        return tipoIdentificacion;\n    }\n\n    function setTipoIdentificacion(string memory newMessage) public {\n        tipoIdentificacion = newMessage;\n    }\n\n    function getIsValue() public view returns (bool) {\n        return isValue;\n    }\n\n    function setIsValue(bool newMessage) public {\n        isValue = newMessage;\n    }\n}\n\n// TODO: intentar separar en otro documento\ncontract Paciente is Persona {\n    // address public creador;\n\n    // EstadoStruct private estado;\n    uint256 private historiaClinicaId;\n\n    // DatosPersonales private datosPersonales;\n\n    constructor() public {\n        // creador = msg.sender; // creador del contrato\n    }\n}\n\ncontract Medico is Persona {\n    address public creador;\n\n    // EstadoStruct private estado;\n    string private especialidad;\n    string private usuario;\n    string private contrasena;\n\n    struct PerfilMedicoSistemaExternoStruct {\n        string primerNombre;\n        string segundoNombre;\n        string primerApellido;\n        string segundoApellido;\n        string identificacion; // TODO: agregar tipo de identificacion\n        string especialidad;\n    }\n\n    constructor() public {\n        creador = msg.sender; // creador del contrato\n    }\n\n    function login() public returns (Persona) {\n        address direccion = msg.sender;\n        // TODO: buscar persona en arreglo\n    }\n\n    // TODO: buscar porque es uint256\n    function buscarPermisosDeRol(uint256 funcionId) public view returns (bool) {\n        address direccion = msg.sender;\n        // TODO: esto es como un filtro (averiguar si lo hay en solidity) y sirve para ver si un usario tiene acceso a x metodo\n    }\n}\n",
  "sourcePath": "/home/felipe/Documentos/Blockchain/codigo/back-hce/contracts/logica/Persona.sol",
  "compiler": {
    "name": "solc",
    "version": "0.8.11+commit.d7f03943.Emscripten.clang"
  },
  "schemaVersion": "3.4.4",
  "updatedAt": "2022-01-20T03:39:34.081Z",
  "networkType": "ethereum",
  "devdoc": {
    "kind": "dev",
    "methods": {},
    "version": 1
  },
  "userdoc": {
    "kind": "user",
    "methods": {},
    "version": 1
  }
}