{
  "contractName": "Medico",
  "abi": [
    {
      "inputs": [],
      "stateMutability": "nonpayable",
      "type": "constructor"
    },
    {
      "anonymous": false,
      "inputs": [
        {
          "indexed": false,
          "internalType": "string",
          "name": "data",
          "type": "string"
        }
      ],
      "name": "Log",
      "type": "event"
    },
    {
      "inputs": [],
      "name": "creador",
      "outputs": [
        {
          "internalType": "address",
          "name": "",
          "type": "address"
        }
      ],
      "stateMutability": "view",
      "type": "function",
      "constant": true
    },
    {
      "inputs": [],
      "name": "medicoMapperAddress",
      "outputs": [
        {
          "internalType": "address",
          "name": "",
          "type": "address"
        }
      ],
      "stateMutability": "view",
      "type": "function",
      "constant": true
    },
    {
      "inputs": [
        {
          "internalType": "contract Acceso",
          "name": "_accesoAddress",
          "type": "address"
        }
      ],
      "name": "setAcceso",
      "outputs": [],
      "stateMutability": "nonpayable",
      "type": "function"
    },
    {
      "inputs": [
        {
          "internalType": "address",
          "name": "direccion",
          "type": "address"
        }
      ],
      "name": "consultar",
      "outputs": [
        {
          "components": [
            {
              "components": [
                {
                  "internalType": "address",
                  "name": "direccion",
                  "type": "address"
                },
                {
                  "internalType": "uint256",
                  "name": "id",
                  "type": "uint256"
                },
                {
                  "internalType": "string",
                  "name": "primerNombre",
                  "type": "string"
                },
                {
                  "internalType": "string",
                  "name": "segundoNombre",
                  "type": "string"
                },
                {
                  "internalType": "string",
                  "name": "primerApellido",
                  "type": "string"
                },
                {
                  "internalType": "string",
                  "name": "segundoApellido",
                  "type": "string"
                },
                {
                  "internalType": "string",
                  "name": "identificacion",
                  "type": "string"
                },
                {
                  "internalType": "uint256",
                  "name": "tipoIdentificacion",
                  "type": "uint256"
                },
                {
                  "internalType": "bool",
                  "name": "isValue",
                  "type": "bool"
                }
              ],
              "internalType": "struct Persona.PersonaStruct",
              "name": "persona",
              "type": "tuple"
            },
            {
              "internalType": "uint256",
              "name": "especialidadId",
              "type": "uint256"
            },
            {
              "internalType": "uint256",
              "name": "estadoId",
              "type": "uint256"
            }
          ],
          "internalType": "struct MedicoVO.MedicoVOStruct",
          "name": "",
          "type": "tuple"
        }
      ],
      "stateMutability": "nonpayable",
      "type": "function"
    },
    {
      "inputs": [
        {
          "internalType": "address",
          "name": "direccion",
          "type": "address"
        },
        {
          "internalType": "contract MedicoVO",
          "name": "medico",
          "type": "address"
        }
      ],
      "name": "registrar",
      "outputs": [],
      "stateMutability": "nonpayable",
      "type": "function"
    },
    {
      "inputs": [
        {
          "internalType": "address",
          "name": "direccion",
          "type": "address"
        },
        {
          "components": [
            {
              "components": [
                {
                  "internalType": "address",
                  "name": "direccion",
                  "type": "address"
                },
                {
                  "internalType": "uint256",
                  "name": "id",
                  "type": "uint256"
                },
                {
                  "internalType": "string",
                  "name": "primerNombre",
                  "type": "string"
                },
                {
                  "internalType": "string",
                  "name": "segundoNombre",
                  "type": "string"
                },
                {
                  "internalType": "string",
                  "name": "primerApellido",
                  "type": "string"
                },
                {
                  "internalType": "string",
                  "name": "segundoApellido",
                  "type": "string"
                },
                {
                  "internalType": "string",
                  "name": "identificacion",
                  "type": "string"
                },
                {
                  "internalType": "uint256",
                  "name": "tipoIdentificacion",
                  "type": "uint256"
                },
                {
                  "internalType": "bool",
                  "name": "isValue",
                  "type": "bool"
                }
              ],
              "internalType": "struct Persona.PersonaStruct",
              "name": "persona",
              "type": "tuple"
            },
            {
              "internalType": "uint256",
              "name": "especialidadId",
              "type": "uint256"
            },
            {
              "internalType": "uint256",
              "name": "estadoId",
              "type": "uint256"
            }
          ],
          "internalType": "struct MedicoVO.MedicoVOStruct",
          "name": "medicoVOStruct",
          "type": "tuple"
        },
        {
          "internalType": "string",
          "name": "_usuario",
          "type": "string"
        },
        {
          "internalType": "string",
          "name": "_contrasena",
          "type": "string"
        }
      ],
      "name": "registrarConStruct",
      "outputs": [],
      "stateMutability": "nonpayable",
      "type": "function"
    },
    {
      "inputs": [
        {
          "internalType": "address",
          "name": "direccion",
          "type": "address"
        },
        {
          "internalType": "contract MedicoVO",
          "name": "medico",
          "type": "address"
        }
      ],
      "name": "actualizar",
      "outputs": [],
      "stateMutability": "nonpayable",
      "type": "function"
    },
    {
      "inputs": [
        {
          "internalType": "contract MedicoMapperInterface",
          "name": "_medicoMapper",
          "type": "address"
        }
      ],
      "name": "setMedicoMapper",
      "outputs": [],
      "stateMutability": "nonpayable",
      "type": "function"
    },
    {
      "inputs": [
        {
          "internalType": "contract DatosParametricosMapperInterface",
          "name": "_datosParametricosMapperAddress",
          "type": "address"
        }
      ],
      "name": "setDatosParametricosMapper",
      "outputs": [],
      "stateMutability": "nonpayable",
      "type": "function"
    },
    {
      "inputs": [
        {
          "internalType": "contract MedicoOraculo",
          "name": "_medicoOraculo",
          "type": "address"
        }
      ],
      "name": "setMedicoOraculo",
      "outputs": [],
      "stateMutability": "nonpayable",
      "type": "function"
    },
    {
      "inputs": [
        {
          "internalType": "contract RolMapperInterface",
          "name": "_rolMapperAddress",
          "type": "address"
        }
      ],
      "name": "setRolMapper",
      "outputs": [],
      "stateMutability": "nonpayable",
      "type": "function"
    },
    {
      "inputs": [
        {
          "internalType": "contract UsuarioMapperInterface",
          "name": "_usuarioMapperAddress",
          "type": "address"
        }
      ],
      "name": "setUsuarioMapper",
      "outputs": [],
      "stateMutability": "nonpayable",
      "type": "function"
    },
    {
      "inputs": [],
      "name": "selfDestruct",
      "outputs": [],
      "stateMutability": "nonpayable",
      "type": "function"
    }
  ],
  "bytecode": "0x608060405234801561001057600080fd5b50600080546001600160a01b0319163317905561327b806100326000396000f3fe608060405234801561001057600080fd5b50600436106100df5760003560e01c806392ebdcd21161008c578063bbd1a46711610066578063bbd1a467146101b4578063c204c17d146101c7578063d7756d9b146101da578063fa7af2bb146101ed57600080fd5b806392ebdcd21461016e5780639cb8a26a14610199578063ac121b2b146101a157600080fd5b8063596e15e6116100bd578063596e15e61461011f57806378775d32146101325780637da8f6a51461014557600080fd5b806307b37d1d146100e45780630da7d7a5146100f9578063137d47221461010c575b600080fd5b6100f76100f2366004611201565b610200565b005b6100f7610107366004611201565b610651565b6100f761011a36600461123a565b6107a1565b6100f761012d36600461123a565b61084d565b6100f761014036600461123a565b6108f9565b61015861015336600461123a565b6109a5565b60405161016591906113aa565b60405180910390f35b600054610181906001600160a01b031681565b6040516001600160a01b039091168152602001610165565b6100f7610bd4565b600254610181906001600160a01b031681565b6100f76101c236600461123a565b610c6c565b6100f76101d536600461123a565b610d18565b6100f76101e83660046114e8565b610dc4565b6100f76101fb36600461123a565b61109a565b6001546040516336a664e960e11b81523360048083019190915260248201819052916000916001600160a01b0390911690636d4cc9d2906044016020604051808303816000875af1158015610259573d6000803e3d6000fd5b505050506040513d601f19601f8201168201806040525081019061027d91906116c2565b9050806102d15760405162461bcd60e51b815260206004820152601a60248201527f456c207573756172696f206e6f207469656e652061636365736f00000000000060448201526064015b60405180910390fd5b6001600160a01b038416331461034f5760405162461bcd60e51b815260206004820152602860248201527f556e2070616369656e746520736520646562652072656769737472617220612060448201527f7369206d69736d6f00000000000000000000000000000000000000000000000060648201526084016102c8565b6006546040517f86dda3680000000000000000000000000000000000000000000000000000000081526000916001600160a01b0316906386dda3689061039a906001906004016116df565b6020604051808303816000875af11580156103b9573d6000803e3d6000fd5b505050506040513d601f19601f820116820180604052508101906103dd9190611707565b905060006040516103ed90611146565b604051809103906000f080158015610409573d6000803e3d6000fd5b506040517f5745ab980000000000000000000000000000000000000000000000000000000081526001600160a01b03888116600483015291925090821690635745ab9890602401600060405180830381600087803b15801561046a57600080fd5b505af115801561047e573d6000803e3d6000fd5b50506040517fce8dd29f0000000000000000000000000000000000000000000000000000000081526001600160a01b0385811660048301528416925063ce8dd29f9150602401600060405180830381600087803b1580156104de57600080fd5b505af11580156104f2573d6000803e3d6000fd5b50506040517ffdaef483000000000000000000000000000000000000000000000000000000008152600160048201526001600160a01b038416925063fdaef4839150602401600060405180830381600087803b15801561055157600080fd5b505af1158015610565573d6000803e3d6000fd5b505060075460405163be381c5960e01b81526001600160a01b038a811660048301528581166024830152909116925063be381c599150604401600060405180830381600087803b1580156105b857600080fd5b505af11580156105cc573d6000803e3d6000fd5b505060035460405163be381c5960e01b81526001600160a01b038a811660048301528981166024830152909116925063be381c5991506044016020604051808303816000875af1158015610624573d6000803e3d6000fd5b505050506040513d601f19601f820116820180604052508101906106489190611724565b50505050505050565b6001546040516336a664e960e11b8152336004820152600960248201819052916000916001600160a01b0390911690636d4cc9d2906044016020604051808303816000875af11580156106a8573d6000803e3d6000fd5b505050506040513d601f19601f820116820180604052508101906106cc91906116c2565b90508061071b5760405162461bcd60e51b815260206004820152601a60248201527f456c207573756172696f206e6f207469656e652061636365736f00000000000060448201526064016102c8565b6003546040517f0da7d7a50000000000000000000000000000000000000000000000000000000081526001600160a01b038681166004830152858116602483015290911690630da7d7a590604401600060405180830381600087803b15801561078357600080fd5b505af1158015610797573d6000803e3d6000fd5b5050505050505050565b6000546001600160a01b0316331461082b5760405162461bcd60e51b815260206004820152604160248201527f457374612066756e63696f6e20736f6c6f2070756564652073657220656a656360448201527f757461646120706f7220656c2063726561646f722064656c20636f6e747261746064820152606f60f81b608482015260a4016102c8565b600180546001600160a01b0319166001600160a01b0392909216919091179055565b6000546001600160a01b031633146108d75760405162461bcd60e51b815260206004820152604160248201527f457374612066756e63696f6e20736f6c6f2070756564652073657220656a656360448201527f757461646120706f7220656c2063726561646f722064656c20636f6e747261746064820152606f60f81b608482015260a4016102c8565b600780546001600160a01b0319166001600160a01b0392909216919091179055565b6000546001600160a01b031633146109835760405162461bcd60e51b815260206004820152604160248201527f457374612066756e63696f6e20736f6c6f2070756564652073657220656a656360448201527f757461646120706f7220656c2063726561646f722064656c20636f6e747261746064820152606f60f81b608482015260a4016102c8565b600680546001600160a01b0319166001600160a01b0392909216919091179055565b6109ad611153565b6001546040516336a664e960e11b8152336004820152600760248201819052916000916001600160a01b0390911690636d4cc9d2906044016020604051808303816000875af1158015610a04573d6000803e3d6000fd5b505050506040513d601f19601f82011682018060405250810190610a2891906116c2565b905080610a775760405162461bcd60e51b815260206004820152601a60248201527f456c207573756172696f206e6f207469656e652061636365736f00000000000060448201526064016102c8565b7fcf34ef537ac33ee1ac626ca1587a0a7e8e51561e5514f8cb36afa1c5102b3bab604051610ad69060208082526011908201527f656e74726f206120636f6e73756c746172000000000000000000000000000000604082015260600190565b60405180910390a16003546040517f7da8f6a50000000000000000000000000000000000000000000000000000000081526001600160a01b03868116600483015290911690637da8f6a5906024016020604051808303816000875af1158015610b43573d6000803e3d6000fd5b505050506040513d601f19601f82011682018060405250810190610b679190611707565b6001600160a01b0316634f63ce136040518163ffffffff1660e01b8152600401600060405180830381865afa158015610ba4573d6000803e3d6000fd5b505050506040513d6000823e601f3d908101601f19168201604052610bcc919081019061178d565b949350505050565b6000546001600160a01b03163314610c5e5760405162461bcd60e51b815260206004820152604160248201527f457374612066756e63696f6e20736f6c6f2070756564652073657220656a656360448201527f757461646120706f7220656c2063726561646f722064656c20636f6e747261746064820152606f60f81b608482015260a4016102c8565b6000546001600160a01b0316ff5b6000546001600160a01b03163314610cf65760405162461bcd60e51b815260206004820152604160248201527f457374612066756e63696f6e20736f6c6f2070756564652073657220656a656360448201527f757461646120706f7220656c2063726561646f722064656c20636f6e747261746064820152606f60f81b608482015260a4016102c8565b600580546001600160a01b0319166001600160a01b0392909216919091179055565b6000546001600160a01b03163314610da25760405162461bcd60e51b815260206004820152604160248201527f457374612066756e63696f6e20736f6c6f2070756564652073657220656a656360448201527f757461646120706f7220656c2063726561646f722064656c20636f6e747261746064820152606f60f81b608482015260a4016102c8565b600480546001600160a01b0319166001600160a01b0392909216919091179055565b6005546040517f3092ebe60000000000000000000000000000000000000000000000000000000081526000916001600160a01b031690633092ebe690610e109086908690600401611909565b6020604051808303816000875af1158015610e2f573d6000803e3d6000fd5b505050506040513d601f19601f82011682018060405250810190610e5391906116c2565b905080610ec85760405162461bcd60e51b815260206004820152602360248201527f4e6f2065786973746520657365206d656469636f207061726120656c2065737460448201527f61646f000000000000000000000000000000000000000000000000000000000060648201526084016102c8565b6000604051610ed6906111cc565b604051809103906000f080158015610ef2573d6000803e3d6000fd5b506004805460408881015190517f480c42a0000000000000000000000000000000000000000000000000000000008152928301529192506000916001600160a01b03169063480c42a090602401602060405180830381865afa158015610f5c573d6000803e3d6000fd5b505050506040513d601f19601f82011682018060405250810190610f809190611707565b60048054885160e001516040517f1dbaf403000000000000000000000000000000000000000000000000000000008152928301529192506000916001600160a01b031690631dbaf40390602401602060405180830381865afa158015610fea573d6000803e3d6000fd5b505050506040513d601f19601f8201168201806040525081019061100e9190611707565b6040517ff700f4e60000000000000000000000000000000000000000000000000000000081529091506001600160a01b0384169063f700f4e69061105e908a90869086908c908c90600401611937565b600060405180830381600087803b15801561107857600080fd5b505af115801561108c573d6000803e3d6000fd5b505050506107978884610200565b6000546001600160a01b031633146111245760405162461bcd60e51b815260206004820152604160248201527f457374612066756e63696f6e20736f6c6f2070756564652073657220656a656360448201527f757461646120706f7220656c2063726561646f722064656c20636f6e747261746064820152606f60f81b608482015260a4016102c8565b600380546001600160a01b0319166001600160a01b0392909216919091179055565b6105a78061199483390190565b60405180606001604052806111b860405180610120016040528060006001600160a01b03168152602001600081526020016060815260200160608152602001606081526020016060815260200160608152602001600081526020016000151581525090565b815260200160008152602001600081525090565b61130b80611f3b83390190565b6001600160a01b03811681146111ee57600080fd5b50565b80356111fc816111d9565b919050565b6000806040838503121561121457600080fd5b823561121f816111d9565b9150602083013561122f816111d9565b809150509250929050565b60006020828403121561124c57600080fd5b8135611257816111d9565b9392505050565b60005b83811015611279578181015183820152602001611261565b50506000910152565b6000815180845261129a81602086016020860161125e565b601f01601f19169290920160200192915050565b60008151606084526112cc6060850182516001600160a01b03169052565b6020810151608085015260408101516101208060a08701526112f2610180870183611282565b91506060830151605f19808885030160c08901526113108483611282565b935060808501519150808885030160e089015261132d8483611282565b935060a085015191506101008189860301818a015261134c8584611282565b945060c086015192508189860301848a01526113688584611282565b60e08701516101408b01529501518015156101608a015294935061138b92505050565b6020840151602086015260408401516040860152809250505092915050565b60208152600061125760208301846112ae565b634e487b7160e01b600052604160045260246000fd5b6040516060810167ffffffffffffffff811182821017156113f6576113f66113bd565b60405290565b604051610120810167ffffffffffffffff811182821017156113f6576113f66113bd565b604051601f8201601f1916810167ffffffffffffffff81118282101715611449576114496113bd565b604052919050565b600067ffffffffffffffff82111561146b5761146b6113bd565b50601f01601f191660200190565b600082601f83011261148a57600080fd5b813561149d61149882611451565b611420565b8181528460208386010111156114b257600080fd5b816020850160208301376000918101602001919091529392505050565b80151581146111ee57600080fd5b80356111fc816114cf565b600080600080608085870312156114fe57600080fd5b8435611509816111d9565b9350602085013567ffffffffffffffff8082111561152657600080fd5b908601906060828903121561153a57600080fd5b6115426113d3565b82358281111561155157600080fd5b8301610120818b03121561156457600080fd5b61156c6113fc565b611575826111f1565b81526020820135602082015260408201358481111561159357600080fd5b61159f8c828501611479565b6040830152506060820135848111156115b757600080fd5b6115c38c828501611479565b6060830152506080820135848111156115db57600080fd5b6115e78c828501611479565b60808301525060a0820135848111156115ff57600080fd5b61160b8c828501611479565b60a08301525060c08201358481111561162357600080fd5b61162f8c828501611479565b60c08301525060e082013560e082015261010061164d8184016114dd565b908201528252506020838101359082015260409283013583820152945090860135908082111561167c57600080fd5b61168888838901611479565b9350606087013591508082111561169e57600080fd5b506116ab87828801611479565b91505092959194509250565b80516111fc816114cf565b6000602082840312156116d457600080fd5b8151611257816114cf565b602081016002831061170157634e487b7160e01b600052602160045260246000fd5b91905290565b60006020828403121561171957600080fd5b8151611257816111d9565b60006020828403121561173657600080fd5b5051919050565b80516111fc816111d9565b600082601f83011261175957600080fd5b815161176761149882611451565b81815284602083860101111561177c57600080fd5b610bcc82602083016020870161125e565b60006020828403121561179f57600080fd5b815167ffffffffffffffff808211156117b757600080fd5b90830190606082860312156117cb57600080fd5b6117d36113d3565b8251828111156117e257600080fd5b830161012081880312156117f557600080fd5b6117fd6113fc565b6118068261173d565b81526020820151602082015260408201518481111561182457600080fd5b61183089828501611748565b60408301525060608201518481111561184857600080fd5b61185489828501611748565b60608301525060808201518481111561186c57600080fd5b61187889828501611748565b60808301525060a08201518481111561189057600080fd5b61189c89828501611748565b60a08301525060c0820151848111156118b457600080fd5b6118c089828501611748565b60c08301525060e082015160e082015261010093506118e08483016116b7565b848201528083525050602083015160208201526040830151604082015280935050505092915050565b60408152600061191c6040830185611282565b828103602084015261192e8185611282565b95945050505050565b60a08152600061194a60a08301886112ae565b6001600160a01b0387811660208501528616604084015282810360608401526119738186611282565b905082810360808401526119878185611282565b9897505050505050505056fe608060405234801561001057600080fd5b50610587806100206000396000f3fe608060405234801561001057600080fd5b506004361061007d5760003560e01c8063af9958461161005b578063af99584614610100578063c3e00aff1461011d578063ce8dd29f1461012e578063fdaef4831461016b57600080fd5b80635745ab981461008257806360749724146100c157806364ff6bbe146100eb575b600080fd5b6100bf6100903660046102d9565b6000805473ffffffffffffffffffffffffffffffffffffffff19166001600160a01b0392909216919091179055565b005b6000546001600160a01b03165b6040516001600160a01b0390911681526020015b60405180910390f35b6100f36101b2565b6040516100e2919061034d565b600154600160a01b900460ff1660405190151581526020016100e2565b6001546001600160a01b03166100ce565b6100bf61013c3660046102d9565b6001805473ffffffffffffffffffffffffffffffffffffffff19166001600160a01b0392909216919091179055565b6100bf6101793660046103c7565b60018054911515600160a01b027fffffffffffffffffffffff00ffffffffffffffffffffffffffffffffffffffff909216919091179055565b6101ba610275565b60408051606081018252600080546001600160a01b03908116835260015484517fea1a6f29000000000000000000000000000000000000000000000000000000008152945193946020860194919092169263ea1a6f2992600480820193918290030181865afa158015610231573d6000803e3d6000fd5b505050506040513d6000823e601f3d908101601f1916820160405261025991908101906104a0565b8152600154600160a01b900460ff161515602090910152919050565b604051806060016040528060006001600160a01b031681526020016102b460405180606001604052806000815260200160608152602001606081525090565b8152600060209091015290565b6001600160a01b03811681146102d657600080fd5b50565b6000602082840312156102eb57600080fd5b81356102f6816102c1565b9392505050565b60005b83811015610318578181015183820152602001610300565b50506000910152565b600081518084526103398160208601602086016102fd565b601f01601f19169290920160200192915050565b602081526001600160a01b0382511660208201526000602083015160606040840152805160808401526020810151606060a085015261038f60e0850182610321565b905060408201519150607f198482030160c08501526103ae8183610321565b9150506040840151151560608401528091505092915050565b6000602082840312156103d957600080fd5b813580151581146102f657600080fd5b7f4e487b7100000000000000000000000000000000000000000000000000000000600052604160045260246000fd5b600082601f83011261042957600080fd5b815167ffffffffffffffff80821115610444576104446103e9565b604051601f8301601f19908116603f0116810190828211818310171561046c5761046c6103e9565b8160405283815286602085880101111561048557600080fd5b6104968460208301602089016102fd565b9695505050505050565b6000602082840312156104b257600080fd5b815167ffffffffffffffff808211156104ca57600080fd5b90830190606082860312156104de57600080fd5b6040516060810181811083821117156104f9576104f96103e9565b6040528251815260208301518281111561051257600080fd5b61051e87828601610418565b60208301525060408301518281111561053657600080fd5b61054287828601610418565b6040830152509594505050505056fea2646970667358221220f9dd82c725c4a2ce3fb43b1afc20795be0b390ae37b2f06ffa212e62ca2113ee64736f6c63430008110033608060405234801561001057600080fd5b506112eb806100206000396000f3fe608060405234801561001057600080fd5b50600436106101da5760003560e01c80637d5c303211610104578063cc9f930e116100a2578063eacd3b9311610071578063eacd3b931461041d578063ec1d22dd14610425578063ef974e8014610438578063f700f4e61461046857600080fd5b8063cc9f930e146103bf578063ccae5784146103d2578063d0e0ba95146103da578063d1e360ff146103ed57600080fd5b80639ac9abd0116100de5780639ac9abd014610394578063aee5de751461039c578063b2f9ccbb146103af578063c461d52e146103b757600080fd5b80637d5c30321461035b57806383cb77b0146103705780638ba686071461038357600080fd5b8063551a5cfa1161017c5780636d07d7e31161014b5780636d07d7e3146102dd578063765fe099146102ee578063787728ab1461030157806378c7e2921461031457600080fd5b8063551a5cfa1461026d5780635745ab98146102805780635d1ca631146102b057806360749724146102b857600080fd5b80633ca452b9116101b85780633ca452b91461022857806349bc8d181461023d5780634e8c23ca146102455780634f63ce131461025857600080fd5b806304a765b2146101df57806328fd4873146101f65780633c3c069f1461020b575b600080fd5b6009545b6040519081526020015b60405180910390f35b610209610204366004610cc6565b61047b565b005b600754600160a01b900460ff1660405190151581526020016101ed565b61023061048b565b6040516101ed9190610d49565b61023061051d565b610209610253366004610cc6565b61052c565b610260610538565b6040516101ed9190610e29565b61020961027b366004610cc6565b6105de565b61020961028e366004610e8d565b600080546001600160a01b0319166001600160a01b0392909216919091179055565b6001546101e3565b6000546001600160a01b03165b6040516001600160a01b0390911681526020016101ed565b6008546001600160a01b03166102c5565b6102096102fc366004610fd0565b6105ea565b61020961030f366004610cc6565b6106b7565b610209610322366004611022565b60078054911515600160a01b027fffffffffffffffffffffff00ffffffffffffffffffffffffffffffffffffffff909216919091179055565b6103636106c3565b6040516101ed919061103d565b61020961037e366004610cc6565b610aa6565b6007546001600160a01b03166102c5565b610230610ab2565b6102096103aa366004611050565b600955565b610230610ac1565b610230610ad0565b6102096103cd366004610cc6565b610adf565b610230610aeb565b6102096103e8366004611050565b600155565b6102096103fb366004610e8d565b600780546001600160a01b0319166001600160a01b0392909216919091179055565b610230610afa565b610209610433366004610cc6565b610b09565b610209610446366004610e8d565b600880546001600160a01b0319166001600160a01b0392909216919091179055565b610209610476366004611069565b610b15565b600661048782826111dc565b5050565b60606002805461049a90611157565b80601f01602080910402602001604051908101604052809291908181526020018280546104c690611157565b80156105135780601f106104e857610100808354040283529160200191610513565b820191906000526020600020905b8154815290600101906020018083116104f657829003601f168201915b5050505050905090565b6060600a805461049a90611157565b600561048782826111dc565b610540610b5d565b60405180606001604052806105536106c3565b81526020016009548152602001600860009054906101000a90046001600160a01b03166001600160a01b0316635d1ca6316040518163ffffffff1660e01b8152600401602060405180830381865afa1580156105b3573d6000803e3d6000fd5b505050506040513d601f19601f820116820180604052508101906105d7919061129c565b9052919050565b600361048782826111dc565b6020820151600155604082015160029061060490826111dc565b50606082015160039061061790826111dc565b50608082015160049061062a90826111dc565b5060a082015160059061063d90826111dc565b5060c082015160069061065090826111dc565b50610100820151600780547fffffffffffffffffffffff00000000000000000000000000000000000000000016600160a01b921515929092026001600160a01b0319908116929092176001600160a01b039384161790559151600080549093169116179055565b600b61048782826111dc565b61071d60405180610120016040528060006001600160a01b03168152602001600081526020016060815260200160608152602001606081526020016060815260200160608152602001600081526020016000151581525090565b60408051610120810182526000546001600160a01b03168152600154602082015260028054919283019161075090611157565b80601f016020809104026020016040519081016040528092919081815260200182805461077c90611157565b80156107c95780601f1061079e576101008083540402835291602001916107c9565b820191906000526020600020905b8154815290600101906020018083116107ac57829003601f168201915b50505050508152602001600380546107e090611157565b80601f016020809104026020016040519081016040528092919081815260200182805461080c90611157565b80156108595780601f1061082e57610100808354040283529160200191610859565b820191906000526020600020905b81548152906001019060200180831161083c57829003601f168201915b505050505081526020016004805461087090611157565b80601f016020809104026020016040519081016040528092919081815260200182805461089c90611157565b80156108e95780601f106108be576101008083540402835291602001916108e9565b820191906000526020600020905b8154815290600101906020018083116108cc57829003601f168201915b505050505081526020016005805461090090611157565b80601f016020809104026020016040519081016040528092919081815260200182805461092c90611157565b80156109795780601f1061094e57610100808354040283529160200191610979565b820191906000526020600020905b81548152906001019060200180831161095c57829003601f168201915b505050505081526020016006805461099090611157565b80601f01602080910402602001604051908101604052809291908181526020018280546109bc90611157565b8015610a095780601f106109de57610100808354040283529160200191610a09565b820191906000526020600020905b8154815290600101906020018083116109ec57829003601f168201915b50505050508152602001600760009054906101000a90046001600160a01b03166001600160a01b0316635d1ca6316040518163ffffffff1660e01b8152600401602060405180830381865afa158015610a66573d6000803e3d6000fd5b505050506040513d601f19601f82011682018060405250810190610a8a919061129c565b8152600754600160a01b900460ff161515602090910152919050565b600261048782826111dc565b60606006805461049a90611157565b60606003805461049a90611157565b60606004805461049a90611157565b600461048782826111dc565b6060600b805461049a90611157565b60606005805461049a90611157565b600a61048782826111dc565b8451610b2190846105ea565b600880546001600160a01b0319166001600160a01b038616179055600a610b4883826111dc565b50600b610b5582826111dc565b505050505050565b6040518060600160405280610bc260405180610120016040528060006001600160a01b03168152602001600081526020016060815260200160608152602001606081526020016060815260200160608152602001600081526020016000151581525090565b815260200160008152602001600081525090565b634e487b7160e01b600052604160045260246000fd5b604051610120810167ffffffffffffffff81118282101715610c1057610c10610bd6565b60405290565b6040516060810167ffffffffffffffff81118282101715610c1057610c10610bd6565b600082601f830112610c4a57600080fd5b813567ffffffffffffffff80821115610c6557610c65610bd6565b604051601f8301601f19908116603f01168101908282118183101715610c8d57610c8d610bd6565b81604052838152866020858801011115610ca657600080fd5b836020870160208301376000602085830101528094505050505092915050565b600060208284031215610cd857600080fd5b813567ffffffffffffffff811115610cef57600080fd5b610cfb84828501610c39565b949350505050565b6000815180845260005b81811015610d2957602081850181015186830182015201610d0d565b506000602082860101526020601f19601f83011685010191505092915050565b602081526000610d5c6020830184610d03565b9392505050565b80516001600160a01b031682526000610120602083015160208501526040830151816040860152610d9682860182610d03565b91505060608301518482036060860152610db08282610d03565b91505060808301518482036080860152610dca8282610d03565b91505060a083015184820360a0860152610de48282610d03565b91505060c083015184820360c0860152610dfe8282610d03565b91505060e083015160e085015261010080840151610e1f8287018215159052565b5090949350505050565b602081526000825160606020840152610e456080840182610d63565b905060208401516040840152604084015160608401528091505092915050565b6001600160a01b0381168114610e7a57600080fd5b50565b8035610e8881610e65565b919050565b600060208284031215610e9f57600080fd5b8135610d5c81610e65565b80358015158114610e8857600080fd5b60006101208284031215610ecd57600080fd5b610ed5610bec565b9050610ee082610e7d565b815260208201356020820152604082013567ffffffffffffffff80821115610f0757600080fd5b610f1385838601610c39565b60408401526060840135915080821115610f2c57600080fd5b610f3885838601610c39565b60608401526080840135915080821115610f5157600080fd5b610f5d85838601610c39565b608084015260a0840135915080821115610f7657600080fd5b610f8285838601610c39565b60a084015260c0840135915080821115610f9b57600080fd5b50610fa884828501610c39565b60c08301525060e082013560e0820152610100610fc6818401610eaa565b9082015292915050565b60008060408385031215610fe357600080fd5b823567ffffffffffffffff811115610ffa57600080fd5b61100685828601610eba565b925050602083013561101781610e65565b809150509250929050565b60006020828403121561103457600080fd5b610d5c82610eaa565b602081526000610d5c6020830184610d63565b60006020828403121561106257600080fd5b5035919050565b600080600080600060a0868803121561108157600080fd5b853567ffffffffffffffff8082111561109957600080fd5b908701906060828a0312156110ad57600080fd5b6110b5610c16565b8235828111156110c457600080fd5b6110d08b828601610eba565b8252506020830135602082015260408301356040820152809750506110f760208901610e7d565b955061110560408901610e7d565b9450606088013591508082111561111b57600080fd5b61112789838a01610c39565b9350608088013591508082111561113d57600080fd5b5061114a88828901610c39565b9150509295509295909350565b600181811c9082168061116b57607f821691505b60208210810361118b57634e487b7160e01b600052602260045260246000fd5b50919050565b601f8211156111d757600081815260208120601f850160051c810160208610156111b85750805b601f850160051c820191505b81811015610b55578281556001016111c4565b505050565b815167ffffffffffffffff8111156111f6576111f6610bd6565b61120a816112048454611157565b84611191565b602080601f83116001811461123f57600084156112275750858301515b600019600386901b1c1916600185901b178555610b55565b600085815260208120601f198616915b8281101561126e5788860151825594840194600190910190840161124f565b508582101561128c5787850151600019600388901b60f8161c191681555b5050505050600190811b01905550565b6000602082840312156112ae57600080fd5b505191905056fea26469706673582212200ec140fc1a2a9e2462bbc6fe5adbc10b3f856ef3a53c5387b7f5abb6c89061ab64736f6c63430008110033a26469706673582212207a3a8d042a1e0319f77c5a2d573bd2a78983131c34a336539fbf8aebe2e3a2b164736f6c63430008110033",
  "immutableReferences": {},
  "source": "pragma solidity ^0.8.17;\n\nimport \"../models/MedicoVO.sol\";\nimport \"../persistence/MedicoMapper.sol\";\nimport \"../persistence/DatosParametricosMapper.sol\";\nimport \"../models/VOGenerales/enums/RolDeAccesoEnum.sol\";\nimport \"./sistemaExterno/MedicoOraculo.sol\";\nimport \"./Acceso.sol\";\nimport \"../utils/Modifiers.sol\";\n\ncontract Medico is Modifiers {\n    // TODO: consumir este evento desde una clase heredada o algo as\n    event Log(string data);\n    //address public creador;\n    address public medicoMapperAddress;\n\n    MedicoMapperInterface private medicoMapper;\n    DatosParametricosMapperInterface private datosParametricosMapper;\n    MedicoOraculo private medicoOraculo;\n    RolMapperInterface private rolMapper;\n    UsuarioMapperInterface private usuarioMapper;\n\n    constructor() {\n        creador = msg.sender;\n    }\n\n    function consultar(address direccion)\n        public\n        tieneAcceso(7)\n        returns (MedicoVO.MedicoVOStruct memory)\n    {\n        emit Log(\"entro a consultar\");\n        return medicoMapper.consultar(direccion).getMedicoVOValue();\n    }\n\n    function registrar(address direccion, MedicoVO medico)\n        public\n        tieneAcceso(4)\n    {\n        if (direccion != msg.sender) {\n            revert(\"Un paciente se debe registrar a si mismo\");\n        }\n        RolVO rol = rolMapper.consultar(RolDeAccesoEnum.MEDICO);\n        UsuarioVO nuevoUsuario = new UsuarioVO();\n        nuevoUsuario.setDireccion(direccion);\n        nuevoUsuario.setRol(rol);\n        nuevoUsuario.setEstaActivo(true);\n        usuarioMapper.guardar(direccion, nuevoUsuario);\n        medicoMapper.guardar(direccion, medico);\n        /*try  {\n            emit Log(\"Se guarda la informacion del medico correctamente\");\n        } catch Error(string memory data) {\n            /*reason*/\n            /*\n            emit Log(\"se rompio por un revert o require\");\n            emit Log(data);\n        }*/\n    }\n\n    function registrarConStruct(\n        address direccion,\n        MedicoVO.MedicoVOStruct memory medicoVOStruct,\n        string memory _usuario,\n        string memory _contrasena // TODO: Recibir encryptada\n    ) public {\n        bool medicoValido = medicoOraculo.verificarExistenciaEnSistemaExterno(\n            _usuario,\n            _contrasena\n        );\n        if (!medicoValido) {\n            revert(\"No existe ese medico para el estado\");\n        }\n        MedicoVO medicoVO = new MedicoVO();\n        EstadoVO estadoVO = datosParametricosMapper.consultarEstadoVO(\n            medicoVOStruct.estadoId\n        );\n        TipoIdentificacionVO _tipoIdentificacionVO = datosParametricosMapper\n            .consultarTipoIdentificacionVO(\n                medicoVOStruct.persona.tipoIdentificacion\n            );\n\n        medicoVO.setValuesOfMedicoVOStruct(\n            medicoVOStruct,\n            estadoVO,\n            _tipoIdentificacionVO,\n            _usuario,\n            _contrasena\n        );\n        registrar(direccion, medicoVO);\n    }\n\n    // TODO: Cambiar por struct\n    function actualizar(address direccion, MedicoVO medico)\n        public\n        tieneAcceso(9)\n    {\n        medicoMapper.actualizar(direccion, medico);\n        /*\n        try contratoPacienteDAO.actualizar(direccion, paciente) {\n            emit Log(\"Se guarda la informacion de paciente correctamente\");\n        } catch Error(string memory data) {\n            /*reason*/\n        /*  emit Log(\"se rompio por un revert o require\");\n            emit Log(data);\n        }*/\n    }\n\n    /*function verificarExistenciaEnSistemaExterno(address direccion)\n        public\n        tieneAcceso(10)\n        returns (bool)\n    {\n        /* TODO: Consultar info del medico (usuario y contrasea)\n         *  despues se hace con oraculos una consulta\n         */\n    /*\n        return true;\n    }*/\n\n    /*function buscarPerfilMedicoSistemaExterno(address direccion) public \n    tieneAcceso(11) returns (PerfilMedicoSistemaExternoStruct memory){\n        // TODO: tambien con oraculo\n    }*/\n\n    function setMedicoMapper(MedicoMapperInterface _medicoMapper)\n        public\n        esPropietario\n    {\n        medicoMapper = _medicoMapper;\n    }\n\n    function setDatosParametricosMapper(\n        DatosParametricosMapperInterface _datosParametricosMapperAddress\n    ) public esPropietario {\n        datosParametricosMapper = _datosParametricosMapperAddress;\n    }\n\n    function setMedicoOraculo(MedicoOraculo _medicoOraculo)\n        public\n        esPropietario\n    {\n        medicoOraculo = _medicoOraculo;\n    }\n\n    function setRolMapper(RolMapperInterface _rolMapperAddress)\n        public\n        esPropietario\n    {\n        rolMapper = _rolMapperAddress;\n    }\n\n    function setUsuarioMapper(UsuarioMapperInterface _usuarioMapperAddress)\n        public\n        esPropietario\n    {\n        usuarioMapper = _usuarioMapperAddress;\n    }\n\n    function selfDestruct() public esPropietario {\n        selfdestruct(payable(creador));\n    }\n}\n",
  "sourcePath": "/home/felipe/Documentos/Blockchain/codigo/back-hce/contracts/logica/Medico.sol",
  "compiler": {
    "name": "solc",
    "version": "0.8.17+commit.8df45f5f.Emscripten.clang"
  },
  "schemaVersion": "3.4.8",
  "updatedAt": "2022-11-07T23:57:15.578Z",
  "networkType": "ethereum",
  "devdoc": {
    "kind": "dev",
    "methods": {},
    "version": 1
  },
  "userdoc": {
    "kind": "user",
    "methods": {},
    "version": 1
  }
}