{
  "contractName": "Medico",
  "abi": [
    {
      "inputs": [],
      "stateMutability": "nonpayable",
      "type": "constructor"
    },
    {
      "anonymous": false,
      "inputs": [
        {
          "indexed": false,
          "internalType": "string",
          "name": "data",
          "type": "string"
        }
      ],
      "name": "Log",
      "type": "event"
    },
    {
      "inputs": [],
      "name": "ContratoMedicoDAOAddress",
      "outputs": [
        {
          "internalType": "address",
          "name": "",
          "type": "address"
        }
      ],
      "stateMutability": "view",
      "type": "function",
      "constant": true
    },
    {
      "inputs": [],
      "name": "ContratoPersonaAddress",
      "outputs": [
        {
          "internalType": "address",
          "name": "",
          "type": "address"
        }
      ],
      "stateMutability": "view",
      "type": "function",
      "constant": true
    },
    {
      "inputs": [],
      "name": "creador",
      "outputs": [
        {
          "internalType": "address",
          "name": "",
          "type": "address"
        }
      ],
      "stateMutability": "view",
      "type": "function",
      "constant": true
    },
    {
      "inputs": [
        {
          "internalType": "address",
          "name": "direccion",
          "type": "address"
        }
      ],
      "name": "consultar",
      "outputs": [
        {
          "components": [
            {
              "components": [
                {
                  "internalType": "string",
                  "name": "primerNombre",
                  "type": "string"
                },
                {
                  "internalType": "string",
                  "name": "segundoNombre",
                  "type": "string"
                },
                {
                  "internalType": "string",
                  "name": "primerApellido",
                  "type": "string"
                },
                {
                  "internalType": "string",
                  "name": "segundoApellido",
                  "type": "string"
                },
                {
                  "internalType": "string",
                  "name": "identificacion",
                  "type": "string"
                },
                {
                  "components": [
                    {
                      "internalType": "string",
                      "name": "nombre",
                      "type": "string"
                    },
                    {
                      "internalType": "string",
                      "name": "descripcion",
                      "type": "string"
                    },
                    {
                      "internalType": "bool",
                      "name": "estaActiva",
                      "type": "bool"
                    }
                  ],
                  "internalType": "struct TipoIdentificacionStruct",
                  "name": "tipoIdentificacionId",
                  "type": "tuple"
                },
                {
                  "internalType": "uint256",
                  "name": "rolId",
                  "type": "uint256"
                },
                {
                  "internalType": "bool",
                  "name": "isValue",
                  "type": "bool"
                }
              ],
              "internalType": "struct PersonaStruct",
              "name": "persona",
              "type": "tuple"
            },
            {
              "components": [
                {
                  "internalType": "string",
                  "name": "estado",
                  "type": "string"
                },
                {
                  "internalType": "string",
                  "name": "especialidad",
                  "type": "string"
                },
                {
                  "internalType": "string",
                  "name": "usuario",
                  "type": "string"
                },
                {
                  "internalType": "string",
                  "name": "contrasena",
                  "type": "string"
                },
                {
                  "internalType": "bool",
                  "name": "isValue",
                  "type": "bool"
                }
              ],
              "internalType": "struct MedicoStruct",
              "name": "medico",
              "type": "tuple"
            }
          ],
          "internalType": "struct Medico.PersonaMedicoStruct",
          "name": "medicoInfo",
          "type": "tuple"
        }
      ],
      "stateMutability": "nonpayable",
      "type": "function"
    },
    {
      "inputs": [
        {
          "internalType": "address",
          "name": "direccion",
          "type": "address"
        }
      ],
      "name": "consultarMedico",
      "outputs": [
        {
          "components": [
            {
              "internalType": "string",
              "name": "estado",
              "type": "string"
            },
            {
              "internalType": "string",
              "name": "especialidad",
              "type": "string"
            },
            {
              "internalType": "string",
              "name": "usuario",
              "type": "string"
            },
            {
              "internalType": "string",
              "name": "contrasena",
              "type": "string"
            },
            {
              "internalType": "bool",
              "name": "isValue",
              "type": "bool"
            }
          ],
          "internalType": "struct MedicoStruct",
          "name": "",
          "type": "tuple"
        }
      ],
      "stateMutability": "nonpayable",
      "type": "function"
    },
    {
      "inputs": [
        {
          "internalType": "address",
          "name": "direccion",
          "type": "address"
        }
      ],
      "name": "consultarPersona",
      "outputs": [
        {
          "components": [
            {
              "internalType": "string",
              "name": "primerNombre",
              "type": "string"
            },
            {
              "internalType": "string",
              "name": "segundoNombre",
              "type": "string"
            },
            {
              "internalType": "string",
              "name": "primerApellido",
              "type": "string"
            },
            {
              "internalType": "string",
              "name": "segundoApellido",
              "type": "string"
            },
            {
              "internalType": "string",
              "name": "identificacion",
              "type": "string"
            },
            {
              "components": [
                {
                  "internalType": "string",
                  "name": "nombre",
                  "type": "string"
                },
                {
                  "internalType": "string",
                  "name": "descripcion",
                  "type": "string"
                },
                {
                  "internalType": "bool",
                  "name": "estaActiva",
                  "type": "bool"
                }
              ],
              "internalType": "struct TipoIdentificacionStruct",
              "name": "tipoIdentificacionId",
              "type": "tuple"
            },
            {
              "internalType": "uint256",
              "name": "rolId",
              "type": "uint256"
            },
            {
              "internalType": "bool",
              "name": "isValue",
              "type": "bool"
            }
          ],
          "internalType": "struct PersonaStruct",
          "name": "",
          "type": "tuple"
        }
      ],
      "stateMutability": "nonpayable",
      "type": "function"
    },
    {
      "inputs": [
        {
          "internalType": "address",
          "name": "direccion",
          "type": "address"
        },
        {
          "components": [
            {
              "internalType": "string",
              "name": "estado",
              "type": "string"
            },
            {
              "internalType": "string",
              "name": "especialidad",
              "type": "string"
            },
            {
              "internalType": "string",
              "name": "usuario",
              "type": "string"
            },
            {
              "internalType": "string",
              "name": "contrasena",
              "type": "string"
            },
            {
              "internalType": "bool",
              "name": "isValue",
              "type": "bool"
            }
          ],
          "internalType": "struct MedicoStruct",
          "name": "medico",
          "type": "tuple"
        }
      ],
      "name": "registrar",
      "outputs": [],
      "stateMutability": "nonpayable",
      "type": "function"
    },
    {
      "inputs": [
        {
          "internalType": "address",
          "name": "direccion",
          "type": "address"
        }
      ],
      "name": "verificarExistenciaEnSistemaExterno",
      "outputs": [
        {
          "internalType": "bool",
          "name": "",
          "type": "bool"
        }
      ],
      "stateMutability": "nonpayable",
      "type": "function"
    },
    {
      "inputs": [
        {
          "internalType": "address",
          "name": "direccion",
          "type": "address"
        }
      ],
      "name": "setContratoPersonaAddress",
      "outputs": [],
      "stateMutability": "nonpayable",
      "type": "function"
    },
    {
      "inputs": [
        {
          "internalType": "address",
          "name": "direccion",
          "type": "address"
        }
      ],
      "name": "setContratoPacienteDAOAddress",
      "outputs": [],
      "stateMutability": "nonpayable",
      "type": "function"
    },
    {
      "inputs": [],
      "name": "selfDestruct",
      "outputs": [],
      "stateMutability": "nonpayable",
      "type": "function"
    }
  ],
  "bytecode": "0x608060405234801561001057600080fd5b50336000806101000a81548173ffffffffffffffffffffffffffffffffffffffff021916908373ffffffffffffffffffffffffffffffffffffffff160217905550611ee2806100606000396000f3fe608060405234801561001057600080fd5b50600436106100a95760003560e01c806380ac891c1161007157806380ac891c1461016257806380bce03014610180578063928c135c146101b057806392ebdcd2146101ce57806398b8fe71146101ec5780639cb8a26a1461021c576100a9565b806317627994146100ae57806340cd7a60146100ca5780634845da3e146100e65780635a2c9ea2146101025780637da8f6a514610132575b600080fd5b6100c860048036038101906100c39190610f50565b610226565b005b6100e460048036038101906100df9190610fac565b610397565b005b61010060048036038101906100fb9190610fac565b6104cc565b005b61011c60048036038101906101179190610fac565b610601565b6040516101299190610fe8565b60405180910390f35b61014c60048036038101906101479190610fac565b61060c565b60405161015991906112ac565b60405180910390f35b61016a610670565b60405161017791906112dd565b60405180910390f35b61019a60048036038101906101959190610fac565b610696565b6040516101a79190611383565b60405180910390f35b6101b861088c565b6040516101c591906112dd565b60405180910390f35b6101d66108b2565b6040516101e391906112dd565b60405180910390f35b61020660048036038101906102019190610fac565b6108d6565b6040516102139190611478565b60405180910390f35b610224610acc565b005b600360009054906101000a900473ffffffffffffffffffffffffffffffffffffffff1673ffffffffffffffffffffffffffffffffffffffff166333b6fb8983836040518363ffffffff1660e01b815260040161028392919061149a565b600060405180830381600087803b15801561029d57600080fd5b505af19250505080156102ae575060015b61035d576102ba6114d7565b806308c379a0141561034c57506102cf6114f9565b806102da575061034e565b7fcf34ef537ac33ee1ac626ca1587a0a7e8e51561e5514f8cb36afa1c5102b3bab60405161030790611612565b60405180910390a17fcf34ef537ac33ee1ac626ca1587a0a7e8e51561e5514f8cb36afa1c5102b3bab8160405161033e919061166b565b60405180910390a150610358565b505b3d6000803e3d6000fd5b610393565b7fcf34ef537ac33ee1ac626ca1587a0a7e8e51561e5514f8cb36afa1c5102b3bab60405161038a906116ff565b60405180910390a15b5050565b60008054906101000a900473ffffffffffffffffffffffffffffffffffffffff1673ffffffffffffffffffffffffffffffffffffffff163373ffffffffffffffffffffffffffffffffffffffff1614610425576040517f08c379a000000000000000000000000000000000000000000000000000000000815260040161041c906117b7565b60405180910390fd5b80600260006101000a81548173ffffffffffffffffffffffffffffffffffffffff021916908373ffffffffffffffffffffffffffffffffffffffff160217905550600260009054906101000a900473ffffffffffffffffffffffffffffffffffffffff16600460006101000a81548173ffffffffffffffffffffffffffffffffffffffff021916908373ffffffffffffffffffffffffffffffffffffffff16021790555050565b60008054906101000a900473ffffffffffffffffffffffffffffffffffffffff1673ffffffffffffffffffffffffffffffffffffffff163373ffffffffffffffffffffffffffffffffffffffff161461055a576040517f08c379a0000000000000000000000000000000000000000000000000000000008152600401610551906117b7565b60405180910390fd5b80600160006101000a81548173ffffffffffffffffffffffffffffffffffffffff021916908373ffffffffffffffffffffffffffffffffffffffff160217905550600160009054906101000a900473ffffffffffffffffffffffffffffffffffffffff16600360006101000a81548173ffffffffffffffffffffffffffffffffffffffff021916908373ffffffffffffffffffffffffffffffffffffffff16021790555050565b600060019050919050565b610614610b93565b7fcf34ef537ac33ee1ac626ca1587a0a7e8e51561e5514f8cb36afa1c5102b3bab60405161064190611823565b60405180910390a161065282610696565b8160200181905250610663826108d6565b8160000181905250919050565b600160009054906101000a900473ffffffffffffffffffffffffffffffffffffffff1681565b61069e610bb9565b7fcf34ef537ac33ee1ac626ca1587a0a7e8e51561e5514f8cb36afa1c5102b3bab6040516106cb9061188f565b60405180910390a1600360009054906101000a900473ffffffffffffffffffffffffffffffffffffffff1673ffffffffffffffffffffffffffffffffffffffff16637da8f6a5836040518263ffffffff1660e01b815260040161072e91906112dd565b6000604051808303816000875af192505050801561076f57506040513d6000823e3d601f19601f8201168201806040525081019061076c9190611a30565b60015b61084e5761077b6114d7565b806308c379a0141561084257506107906114f9565b8061079b5750610844565b7fcf34ef537ac33ee1ac626ca1587a0a7e8e51561e5514f8cb36afa1c5102b3bab6040516107c890611612565b60405180910390a17fcf34ef537ac33ee1ac626ca1587a0a7e8e51561e5514f8cb36afa1c5102b3bab816040516107ff919061166b565b60405180910390a16040517f08c379a000000000000000000000000000000000000000000000000000000000815260040161083990611ac5565b60405180910390fd5b505b3d6000803e3d6000fd5b7fcf34ef537ac33ee1ac626ca1587a0a7e8e51561e5514f8cb36afa1c5102b3bab60405161087b90611b31565b60405180910390a180915050919050565b600260009054906101000a900473ffffffffffffffffffffffffffffffffffffffff1681565b60008054906101000a900473ffffffffffffffffffffffffffffffffffffffff1681565b6108de610bea565b7fcf34ef537ac33ee1ac626ca1587a0a7e8e51561e5514f8cb36afa1c5102b3bab60405161090b90611823565b60405180910390a1600460009054906101000a900473ffffffffffffffffffffffffffffffffffffffff1673ffffffffffffffffffffffffffffffffffffffff16637da8f6a5836040518263ffffffff1660e01b815260040161096e91906112dd565b6000604051808303816000875af19250505080156109af57506040513d6000823e3d601f19601f820116820180604052508101906109ac9190611d8b565b60015b610a8e576109bb6114d7565b806308c379a01415610a8257506109d06114f9565b806109db5750610a84565b7fcf34ef537ac33ee1ac626ca1587a0a7e8e51561e5514f8cb36afa1c5102b3bab604051610a0890611612565b60405180910390a17fcf34ef537ac33ee1ac626ca1587a0a7e8e51561e5514f8cb36afa1c5102b3bab81604051610a3f919061166b565b60405180910390a16040517f08c379a0000000000000000000000000000000000000000000000000000000008152600401610a7990611e20565b60405180910390fd5b505b3d6000803e3d6000fd5b7fcf34ef537ac33ee1ac626ca1587a0a7e8e51561e5514f8cb36afa1c5102b3bab604051610abb90611e8c565b60405180910390a180915050919050565b60008054906101000a900473ffffffffffffffffffffffffffffffffffffffff1673ffffffffffffffffffffffffffffffffffffffff163373ffffffffffffffffffffffffffffffffffffffff1614610b5a576040517f08c379a0000000000000000000000000000000000000000000000000000000008152600401610b51906117b7565b60405180910390fd5b60008054906101000a900473ffffffffffffffffffffffffffffffffffffffff1673ffffffffffffffffffffffffffffffffffffffff16ff5b6040518060400160405280610ba6610bea565b8152602001610bb3610bb9565b81525090565b6040518060a00160405280606081526020016060815260200160608152602001606081526020016000151581525090565b6040518061010001604052806060815260200160608152602001606081526020016060815260200160608152602001610c21610c37565b8152602001600081526020016000151581525090565b604051806060016040528060608152602001606081526020016000151581525090565b6000604051905090565b600080fd5b600080fd5b600073ffffffffffffffffffffffffffffffffffffffff82169050919050565b6000610c9982610c6e565b9050919050565b610ca981610c8e565b8114610cb457600080fd5b50565b600081359050610cc681610ca0565b92915050565b600080fd5b6000601f19601f8301169050919050565b7f4e487b7100000000000000000000000000000000000000000000000000000000600052604160045260246000fd5b610d1a82610cd1565b810181811067ffffffffffffffff82111715610d3957610d38610ce2565b5b80604052505050565b6000610d4c610c5a565b9050610d588282610d11565b919050565b600080fd5b600080fd5b600080fd5b600067ffffffffffffffff821115610d8757610d86610ce2565b5b610d9082610cd1565b9050602081019050919050565b82818337600083830152505050565b6000610dbf610dba84610d6c565b610d42565b905082815260208101848484011115610ddb57610dda610d67565b5b610de6848285610d9d565b509392505050565b600082601f830112610e0357610e02610d62565b5b8135610e13848260208601610dac565b91505092915050565b60008115159050919050565b610e3181610e1c565b8114610e3c57600080fd5b50565b600081359050610e4e81610e28565b92915050565b600060a08284031215610e6a57610e69610ccc565b5b610e7460a0610d42565b9050600082013567ffffffffffffffff811115610e9457610e93610d5d565b5b610ea084828501610dee565b600083015250602082013567ffffffffffffffff811115610ec457610ec3610d5d565b5b610ed084828501610dee565b602083015250604082013567ffffffffffffffff811115610ef457610ef3610d5d565b5b610f0084828501610dee565b604083015250606082013567ffffffffffffffff811115610f2457610f23610d5d565b5b610f3084828501610dee565b6060830152506080610f4484828501610e3f565b60808301525092915050565b60008060408385031215610f6757610f66610c64565b5b6000610f7585828601610cb7565b925050602083013567ffffffffffffffff811115610f9657610f95610c69565b5b610fa285828601610e54565b9150509250929050565b600060208284031215610fc257610fc1610c64565b5b6000610fd084828501610cb7565b91505092915050565b610fe281610e1c565b82525050565b6000602082019050610ffd6000830184610fd9565b92915050565b600081519050919050565b600082825260208201905092915050565b60005b8381101561103d578082015181840152602081019050611022565b8381111561104c576000848401525b50505050565b600061105d82611003565b611067818561100e565b935061107781856020860161101f565b61108081610cd1565b840191505092915050565b61109481610e1c565b82525050565b600060608301600083015184820360008601526110b78282611052565b915050602083015184820360208601526110d18282611052565b91505060408301516110e6604086018261108b565b508091505092915050565b6000819050919050565b611104816110f1565b82525050565b60006101008301600083015184820360008601526111288282611052565b915050602083015184820360208601526111428282611052565b9150506040830151848203604086015261115c8282611052565b915050606083015184820360608601526111768282611052565b915050608083015184820360808601526111908282611052565b91505060a083015184820360a08601526111aa828261109a565b91505060c08301516111bf60c08601826110fb565b5060e08301516111d260e086018261108b565b508091505092915050565b600060a08301600083015184820360008601526111fa8282611052565b915050602083015184820360208601526112148282611052565b9150506040830151848203604086015261122e8282611052565b915050606083015184820360608601526112488282611052565b915050608083015161125d608086018261108b565b508091505092915050565b60006040830160008301518482036000860152611285828261110a565b9150506020830151848203602086015261129f82826111dd565b9150508091505092915050565b600060208201905081810360008301526112c68184611268565b905092915050565b6112d781610c8e565b82525050565b60006020820190506112f260008301846112ce565b92915050565b600060a08301600083015184820360008601526113158282611052565b9150506020830151848203602086015261132f8282611052565b915050604083015184820360408601526113498282611052565b915050606083015184820360608601526113638282611052565b9150506080830151611378608086018261108b565b508091505092915050565b6000602082019050818103600083015261139d81846112f8565b905092915050565b60006101008301600083015184820360008601526113c38282611052565b915050602083015184820360208601526113dd8282611052565b915050604083015184820360408601526113f78282611052565b915050606083015184820360608601526114118282611052565b9150506080830151848203608086015261142b8282611052565b91505060a083015184820360a0860152611445828261109a565b91505060c083015161145a60c08601826110fb565b5060e083015161146d60e086018261108b565b508091505092915050565b6000602082019050818103600083015261149281846113a5565b905092915050565b60006040820190506114af60008301856112ce565b81810360208301526114c181846112f8565b90509392505050565b60008160e01c9050919050565b600060033d11156114f65760046000803e6114f36000516114ca565b90505b90565b600060443d10156115095761158c565b611511610c5a565b60043d036004823e80513d602482011167ffffffffffffffff8211171561153957505061158c565b808201805167ffffffffffffffff811115611557575050505061158c565b80602083010160043d03850181111561157457505050505061158c565b61158382602001850186610d11565b82955050505050505b90565b600082825260208201905092915050565b7f736520726f6d70696f20706f7220756e20726576657274206f2072657175697260008201527f6500000000000000000000000000000000000000000000000000000000000000602082015250565b60006115fc60218361158f565b9150611607826115a0565b604082019050919050565b6000602082019050818103600083015261162b816115ef565b9050919050565b600061163d82611003565b611647818561158f565b935061165781856020860161101f565b61166081610cd1565b840191505092915050565b600060208201905081810360008301526116858184611632565b905092915050565b7f536520677561726461206c6120696e666f726d6163696f6e2064656c206d656460008201527f69636f20636f7272656374616d656e7465000000000000000000000000000000602082015250565b60006116e960318361158f565b91506116f48261168d565b604082019050919050565b60006020820190508181036000830152611718816116dc565b9050919050565b7f457374612066756e63696f6e20736f6c6f2070756564652073657220656a656360008201527f757461646120706f7220656c2063726561646f722064656c20636f6e7472617460208201527f6f00000000000000000000000000000000000000000000000000000000000000604082015250565b60006117a160418361158f565b91506117ac8261171f565b606082019050919050565b600060208201905081810360008301526117d081611794565b9050919050565b7f656e74726f206120636f6e73756c746172000000000000000000000000000000600082015250565b600061180d60118361158f565b9150611818826117d7565b602082019050919050565b6000602082019050818103600083015261183c81611800565b9050919050565b7f656e74726f206120636f6e73756c7461722050616369656e7465000000000000600082015250565b6000611879601a8361158f565b915061188482611843565b602082019050919050565b600060208201905081810360008301526118a88161186c565b9050919050565b60006118c26118bd84610d6c565b610d42565b9050828152602081018484840111156118de576118dd610d67565b5b6118e984828561101f565b509392505050565b600082601f83011261190657611905610d62565b5b81516119168482602086016118af565b91505092915050565b60008151905061192e81610e28565b92915050565b600060a0828403121561194a57611949610ccc565b5b61195460a0610d42565b9050600082015167ffffffffffffffff81111561197457611973610d5d565b5b611980848285016118f1565b600083015250602082015167ffffffffffffffff8111156119a4576119a3610d5d565b5b6119b0848285016118f1565b602083015250604082015167ffffffffffffffff8111156119d4576119d3610d5d565b5b6119e0848285016118f1565b604083015250606082015167ffffffffffffffff811115611a0457611a03610d5d565b5b611a10848285016118f1565b6060830152506080611a248482850161191f565b60808301525092915050565b600060208284031215611a4657611a45610c64565b5b600082015167ffffffffffffffff811115611a6457611a63610c69565b5b611a7084828501611934565b91505092915050565b7f4e6f2065786973746520657365206d656469636f000000000000000000000000600082015250565b6000611aaf60148361158f565b9150611aba82611a79565b602082019050919050565b60006020820190508181036000830152611ade81611aa2565b9050919050565b7f656e636f6e74726f20656c206d656469636f0000000000000000000000000000600082015250565b6000611b1b60128361158f565b9150611b2682611ae5565b602082019050919050565b60006020820190508181036000830152611b4a81611b0e565b9050919050565b600060608284031215611b6757611b66610ccc565b5b611b716060610d42565b9050600082015167ffffffffffffffff811115611b9157611b90610d5d565b5b611b9d848285016118f1565b600083015250602082015167ffffffffffffffff811115611bc157611bc0610d5d565b5b611bcd848285016118f1565b6020830152506040611be18482850161191f565b60408301525092915050565b611bf6816110f1565b8114611c0157600080fd5b50565b600081519050611c1381611bed565b92915050565b60006101008284031215611c3057611c2f610ccc565b5b611c3b610100610d42565b9050600082015167ffffffffffffffff811115611c5b57611c5a610d5d565b5b611c67848285016118f1565b600083015250602082015167ffffffffffffffff811115611c8b57611c8a610d5d565b5b611c97848285016118f1565b602083015250604082015167ffffffffffffffff811115611cbb57611cba610d5d565b5b611cc7848285016118f1565b604083015250606082015167ffffffffffffffff811115611ceb57611cea610d5d565b5b611cf7848285016118f1565b606083015250608082015167ffffffffffffffff811115611d1b57611d1a610d5d565b5b611d27848285016118f1565b60808301525060a082015167ffffffffffffffff811115611d4b57611d4a610d5d565b5b611d5784828501611b51565b60a08301525060c0611d6b84828501611c04565b60c08301525060e0611d7f8482850161191f565b60e08301525092915050565b600060208284031215611da157611da0610c64565b5b600082015167ffffffffffffffff811115611dbf57611dbe610c69565b5b611dcb84828501611c19565b91505092915050565b7f4e6f20657869737465206573652070616369656e746500000000000000000000600082015250565b6000611e0a60168361158f565b9150611e1582611dd4565b602082019050919050565b60006020820190508181036000830152611e3981611dfd565b9050919050565b7f656e636f6e74726f206c6120706572736f6e6100000000000000000000000000600082015250565b6000611e7660138361158f565b9150611e8182611e40565b602082019050919050565b60006020820190508181036000830152611ea581611e69565b905091905056fea264697066735822122092e0bb7efdc178e23ef3d5d2586fb3a1786f3cd173c15311f57ec06fe16c34ae64736f6c634300080b0033",
  "immutableReferences": {},
  "source": "pragma solidity ^0.8.10;\n\nimport \"./Persona.sol\";\n// import \"./Usuario.sol\";\nimport \"../models/PersonaStruct.sol\";\nimport \"../models/MedicoStruct.sol\";\nimport \"../persistence/MedicoDAO.sol\";\n\n// TODO: cambiar el diagrama, no puede heredar pero si puede usar o componerse de persona\ncontract Medico {\n    // TODO: consumir este evento desde una clase heredada o algo as\n    event Log(string data);\n    address public creador;\n    address public ContratoMedicoDAOAddress;\n    address public ContratoPersonaAddress;\n\n    MedicoDAO private contratoMedicoDAO;\n    Persona private contratoPersona;\n\n    struct PersonaMedicoStruct {\n        PersonaStruct persona;\n        MedicoStruct medico;\n    }\n\n    struct PerfilMedicoSistemaExternoStruct {\n        string primerNombre;\n        string segundoNombre;\n        string primerApellido;\n        string segundoApellido;\n        string identificacion; // TODO: agregar tipo de identificacion\n        string especialidad;\n    }\n\n    constructor() {\n        creador = msg.sender; // creador del contrato\n    }\n\n    function consultar(address direccion)\n        public\n        returns (PersonaMedicoStruct memory medicoInfo)\n    {\n        emit Log(\"entro a consultar\");\n        medicoInfo.medico = consultarMedico(direccion);\n        medicoInfo.persona = consultarPersona(direccion);\n    }\n\n    function consultarMedico(address direccion)\n        public\n        returns (MedicoStruct memory)\n    {\n        emit Log(\"entro a consultar Paciente\");\n        try contratoMedicoDAO.consultar(direccion) returns (\n            MedicoStruct memory response\n        ) {\n            emit Log(\"encontro el medico\");\n            return response;\n        } catch Error(string memory e) {\n            /*reason*/\n            emit Log(\"se rompio por un revert o require\");\n            emit Log(e);\n            revert(\"No existe ese medico\");\n        }\n    }\n\n    function consultarPersona(address direccion)\n        public\n        returns (PersonaStruct memory)\n    {\n        emit Log(\"entro a consultar\");\n        try contratoPersona.consultar(direccion) returns (\n            PersonaStruct memory response\n        ) {\n            emit Log(\"encontro la persona\");\n            return response;\n        } catch Error(string memory e) {\n            /*reason*/\n            emit Log(\"se rompio por un revert o require\");\n            emit Log(e);\n            revert(\"No existe ese paciente\");\n        }\n    }\n\n    function registrar(address direccion, MedicoStruct memory medico) public {\n        try contratoMedicoDAO.guardar(direccion, medico) {\n            emit Log(\"Se guarda la informacion del medico correctamente\");\n        } catch Error(string memory data) {\n            /*reason*/\n            emit Log(\"se rompio por un revert o require\");\n            emit Log(data);\n        }\n    }\n\n    function verificarExistenciaEnSistemaExterno(address direccion) public returns (bool) {\n        /* TODO: Consultar info del medico (usuario y contrasea)\n        *  despues se hace con oraculos una consulta\n        */\n        return true;\n    }\n\n    /*function buscarPerfilMedicoSistemaExterno(address direccion) public returns (PerfilMedicoSistemaExternoStruct memory){\n        // TODO: tambien con oraculo\n    }*/\n\n\n    function setContratoPersonaAddress(address direccion) public esPropietario {\n        ContratoPersonaAddress = direccion;\n        contratoPersona = Persona(ContratoPersonaAddress);\n    }\n\n    function setContratoPacienteDAOAddress(address direccion)\n        public\n        esPropietario\n    {\n        ContratoMedicoDAOAddress = direccion;\n        contratoMedicoDAO = MedicoDAO(ContratoMedicoDAOAddress);\n    }\n\n    // TODO: poner en clase generica y reusarlo\n    modifier esPropietario() {\n        require(\n            msg.sender == creador,\n            \"Esta funcion solo puede ser ejecutada por el creador del contrato\"\n        );\n        _; // ac se ejecuta la funcin\n    }\n\n    function selfDestruct() public esPropietario {\n        selfdestruct(payable(creador));\n    }\n}\n",
  "sourcePath": "/home/felipe/Documentos/Blockchain/codigo/back-hce/contracts/logica/Medico.sol",
  "compiler": {
    "name": "solc",
    "version": "0.8.11+commit.d7f03943.Emscripten.clang"
  },
  "schemaVersion": "3.4.4",
  "updatedAt": "2022-02-14T04:08:08.782Z",
  "networkType": "ethereum",
  "devdoc": {
    "kind": "dev",
    "methods": {},
    "version": 1
  },
  "userdoc": {
    "kind": "user",
    "methods": {},
    "version": 1
  }
}