{
  "contractName": "MedicoVO",
  "abi": [
    {
      "anonymous": false,
      "inputs": [
        {
          "indexed": false,
          "internalType": "string",
          "name": "data",
          "type": "string"
        }
      ],
      "name": "Log",
      "type": "event"
    },
    {
      "inputs": [],
      "name": "getDireccion",
      "outputs": [
        {
          "internalType": "address",
          "name": "",
          "type": "address"
        }
      ],
      "stateMutability": "view",
      "type": "function"
    },
    {
      "inputs": [],
      "name": "getId",
      "outputs": [
        {
          "internalType": "uint256",
          "name": "",
          "type": "uint256"
        }
      ],
      "stateMutability": "view",
      "type": "function"
    },
    {
      "inputs": [],
      "name": "getIdentificacion",
      "outputs": [
        {
          "internalType": "string",
          "name": "",
          "type": "string"
        }
      ],
      "stateMutability": "view",
      "type": "function"
    },
    {
      "inputs": [],
      "name": "getIsValue",
      "outputs": [
        {
          "internalType": "bool",
          "name": "",
          "type": "bool"
        }
      ],
      "stateMutability": "view",
      "type": "function"
    },
    {
      "inputs": [],
      "name": "getPersonaStructValue",
      "outputs": [
        {
          "components": [
            {
              "internalType": "address",
              "name": "direccion",
              "type": "address"
            },
            {
              "internalType": "uint256",
              "name": "id",
              "type": "uint256"
            },
            {
              "internalType": "string",
              "name": "primerNombre",
              "type": "string"
            },
            {
              "internalType": "string",
              "name": "segundoNombre",
              "type": "string"
            },
            {
              "internalType": "string",
              "name": "primerApellido",
              "type": "string"
            },
            {
              "internalType": "string",
              "name": "segundoApellido",
              "type": "string"
            },
            {
              "internalType": "string",
              "name": "identificacion",
              "type": "string"
            },
            {
              "internalType": "uint256",
              "name": "tipoIdentificacion",
              "type": "uint256"
            },
            {
              "internalType": "bool",
              "name": "isValue",
              "type": "bool"
            }
          ],
          "internalType": "struct Persona.PersonaStruct",
          "name": "",
          "type": "tuple"
        }
      ],
      "stateMutability": "view",
      "type": "function"
    },
    {
      "inputs": [],
      "name": "getPrimerApellido",
      "outputs": [
        {
          "internalType": "string",
          "name": "",
          "type": "string"
        }
      ],
      "stateMutability": "view",
      "type": "function"
    },
    {
      "inputs": [],
      "name": "getPrimerNombre",
      "outputs": [
        {
          "internalType": "string",
          "name": "",
          "type": "string"
        }
      ],
      "stateMutability": "view",
      "type": "function"
    },
    {
      "inputs": [],
      "name": "getSegundoApellido",
      "outputs": [
        {
          "internalType": "string",
          "name": "",
          "type": "string"
        }
      ],
      "stateMutability": "view",
      "type": "function"
    },
    {
      "inputs": [],
      "name": "getSegundoNombre",
      "outputs": [
        {
          "internalType": "string",
          "name": "",
          "type": "string"
        }
      ],
      "stateMutability": "view",
      "type": "function"
    },
    {
      "inputs": [],
      "name": "getTipoIdentificacionId",
      "outputs": [
        {
          "internalType": "contract TipoIdentificacionVO",
          "name": "",
          "type": "address"
        }
      ],
      "stateMutability": "view",
      "type": "function"
    },
    {
      "inputs": [
        {
          "internalType": "address",
          "name": "_direccion",
          "type": "address"
        }
      ],
      "name": "setDireccion",
      "outputs": [],
      "stateMutability": "nonpayable",
      "type": "function"
    },
    {
      "inputs": [
        {
          "internalType": "uint256",
          "name": "_id",
          "type": "uint256"
        }
      ],
      "name": "setId",
      "outputs": [],
      "stateMutability": "nonpayable",
      "type": "function"
    },
    {
      "inputs": [
        {
          "internalType": "string",
          "name": "_identificacion",
          "type": "string"
        }
      ],
      "name": "setIdentificacion",
      "outputs": [],
      "stateMutability": "nonpayable",
      "type": "function"
    },
    {
      "inputs": [
        {
          "internalType": "bool",
          "name": "_isValue",
          "type": "bool"
        }
      ],
      "name": "setIsValue",
      "outputs": [],
      "stateMutability": "nonpayable",
      "type": "function"
    },
    {
      "inputs": [
        {
          "internalType": "string",
          "name": "_primerApellido",
          "type": "string"
        }
      ],
      "name": "setPrimerApellido",
      "outputs": [],
      "stateMutability": "nonpayable",
      "type": "function"
    },
    {
      "inputs": [
        {
          "internalType": "string",
          "name": "_primerNombre",
          "type": "string"
        }
      ],
      "name": "setPrimerNombre",
      "outputs": [],
      "stateMutability": "nonpayable",
      "type": "function"
    },
    {
      "inputs": [
        {
          "internalType": "string",
          "name": "_segundoApellido",
          "type": "string"
        }
      ],
      "name": "setSegundoApellido",
      "outputs": [],
      "stateMutability": "nonpayable",
      "type": "function"
    },
    {
      "inputs": [
        {
          "internalType": "string",
          "name": "_segundoNombre",
          "type": "string"
        }
      ],
      "name": "setSegundoNombre",
      "outputs": [],
      "stateMutability": "nonpayable",
      "type": "function"
    },
    {
      "inputs": [
        {
          "internalType": "contract TipoIdentificacionVO",
          "name": "_tipoIdentificacion",
          "type": "address"
        }
      ],
      "name": "setTipoIdentificacionId",
      "outputs": [],
      "stateMutability": "nonpayable",
      "type": "function"
    },
    {
      "inputs": [
        {
          "components": [
            {
              "internalType": "address",
              "name": "direccion",
              "type": "address"
            },
            {
              "internalType": "uint256",
              "name": "id",
              "type": "uint256"
            },
            {
              "internalType": "string",
              "name": "primerNombre",
              "type": "string"
            },
            {
              "internalType": "string",
              "name": "segundoNombre",
              "type": "string"
            },
            {
              "internalType": "string",
              "name": "primerApellido",
              "type": "string"
            },
            {
              "internalType": "string",
              "name": "segundoApellido",
              "type": "string"
            },
            {
              "internalType": "string",
              "name": "identificacion",
              "type": "string"
            },
            {
              "internalType": "uint256",
              "name": "tipoIdentificacion",
              "type": "uint256"
            },
            {
              "internalType": "bool",
              "name": "isValue",
              "type": "bool"
            }
          ],
          "internalType": "struct Persona.PersonaStruct",
          "name": "_persona",
          "type": "tuple"
        },
        {
          "internalType": "contract TipoIdentificacionVO",
          "name": "_tipoIdentificacionVO",
          "type": "address"
        }
      ],
      "name": "setValuesOfPersonaStruct",
      "outputs": [],
      "stateMutability": "nonpayable",
      "type": "function"
    },
    {
      "inputs": [],
      "name": "getMedicoVOValue",
      "outputs": [
        {
          "components": [
            {
              "components": [
                {
                  "internalType": "address",
                  "name": "direccion",
                  "type": "address"
                },
                {
                  "internalType": "uint256",
                  "name": "id",
                  "type": "uint256"
                },
                {
                  "internalType": "string",
                  "name": "primerNombre",
                  "type": "string"
                },
                {
                  "internalType": "string",
                  "name": "segundoNombre",
                  "type": "string"
                },
                {
                  "internalType": "string",
                  "name": "primerApellido",
                  "type": "string"
                },
                {
                  "internalType": "string",
                  "name": "segundoApellido",
                  "type": "string"
                },
                {
                  "internalType": "string",
                  "name": "identificacion",
                  "type": "string"
                },
                {
                  "internalType": "uint256",
                  "name": "tipoIdentificacion",
                  "type": "uint256"
                },
                {
                  "internalType": "bool",
                  "name": "isValue",
                  "type": "bool"
                }
              ],
              "internalType": "struct Persona.PersonaStruct",
              "name": "persona",
              "type": "tuple"
            },
            {
              "internalType": "uint256",
              "name": "especialidadId",
              "type": "uint256"
            },
            {
              "internalType": "uint256",
              "name": "estadoId",
              "type": "uint256"
            }
          ],
          "internalType": "struct MedicoVO.MedicoVOStruct",
          "name": "",
          "type": "tuple"
        }
      ],
      "stateMutability": "view",
      "type": "function"
    },
    {
      "inputs": [
        {
          "components": [
            {
              "components": [
                {
                  "internalType": "address",
                  "name": "direccion",
                  "type": "address"
                },
                {
                  "internalType": "uint256",
                  "name": "id",
                  "type": "uint256"
                },
                {
                  "internalType": "string",
                  "name": "primerNombre",
                  "type": "string"
                },
                {
                  "internalType": "string",
                  "name": "segundoNombre",
                  "type": "string"
                },
                {
                  "internalType": "string",
                  "name": "primerApellido",
                  "type": "string"
                },
                {
                  "internalType": "string",
                  "name": "segundoApellido",
                  "type": "string"
                },
                {
                  "internalType": "string",
                  "name": "identificacion",
                  "type": "string"
                },
                {
                  "internalType": "uint256",
                  "name": "tipoIdentificacion",
                  "type": "uint256"
                },
                {
                  "internalType": "bool",
                  "name": "isValue",
                  "type": "bool"
                }
              ],
              "internalType": "struct Persona.PersonaStruct",
              "name": "persona",
              "type": "tuple"
            },
            {
              "internalType": "uint256",
              "name": "especialidadId",
              "type": "uint256"
            },
            {
              "internalType": "uint256",
              "name": "estadoId",
              "type": "uint256"
            }
          ],
          "internalType": "struct MedicoVO.MedicoVOStruct",
          "name": "_medicoVOStruct",
          "type": "tuple"
        },
        {
          "internalType": "contract EstadoVO",
          "name": "_estadoVO",
          "type": "address"
        },
        {
          "internalType": "contract TipoIdentificacionVO",
          "name": "_tipoIdentificacionVO",
          "type": "address"
        },
        {
          "internalType": "string",
          "name": "_usuario",
          "type": "string"
        },
        {
          "internalType": "string",
          "name": "_contrasena",
          "type": "string"
        }
      ],
      "name": "setValuesOfMedicoVOStruct",
      "outputs": [],
      "stateMutability": "nonpayable",
      "type": "function"
    },
    {
      "inputs": [],
      "name": "getEstado",
      "outputs": [
        {
          "internalType": "contract EstadoVO",
          "name": "",
          "type": "address"
        }
      ],
      "stateMutability": "view",
      "type": "function"
    },
    {
      "inputs": [],
      "name": "getEspecialidadId",
      "outputs": [
        {
          "internalType": "uint256",
          "name": "",
          "type": "uint256"
        }
      ],
      "stateMutability": "view",
      "type": "function"
    },
    {
      "inputs": [],
      "name": "getUsuario",
      "outputs": [
        {
          "internalType": "string",
          "name": "",
          "type": "string"
        }
      ],
      "stateMutability": "view",
      "type": "function"
    },
    {
      "inputs": [],
      "name": "getContrasena",
      "outputs": [
        {
          "internalType": "string",
          "name": "",
          "type": "string"
        }
      ],
      "stateMutability": "view",
      "type": "function"
    },
    {
      "inputs": [
        {
          "internalType": "contract EstadoVO",
          "name": "_estado",
          "type": "address"
        }
      ],
      "name": "setEstado",
      "outputs": [],
      "stateMutability": "nonpayable",
      "type": "function"
    },
    {
      "inputs": [
        {
          "internalType": "uint256",
          "name": "_especialidadId",
          "type": "uint256"
        }
      ],
      "name": "setEspecialidadId",
      "outputs": [],
      "stateMutability": "nonpayable",
      "type": "function"
    },
    {
      "inputs": [
        {
          "internalType": "string",
          "name": "_usuario",
          "type": "string"
        }
      ],
      "name": "setUsuario",
      "outputs": [],
      "stateMutability": "nonpayable",
      "type": "function"
    },
    {
      "inputs": [
        {
          "internalType": "string",
          "name": "_contrasena",
          "type": "string"
        }
      ],
      "name": "setContrasena",
      "outputs": [],
      "stateMutability": "nonpayable",
      "type": "function"
    }
  ],
  "bytecode": "0x608060405234801561001057600080fd5b506112eb806100206000396000f3fe608060405234801561001057600080fd5b50600436106101da5760003560e01c80637d5c303211610104578063cc9f930e116100a2578063eacd3b9311610071578063eacd3b931461041d578063ec1d22dd14610425578063ef974e8014610438578063f700f4e61461046857600080fd5b8063cc9f930e146103bf578063ccae5784146103d2578063d0e0ba95146103da578063d1e360ff146103ed57600080fd5b80639ac9abd0116100de5780639ac9abd014610394578063aee5de751461039c578063b2f9ccbb146103af578063c461d52e146103b757600080fd5b80637d5c30321461035b57806383cb77b0146103705780638ba686071461038357600080fd5b8063551a5cfa1161017c5780636d07d7e31161014b5780636d07d7e3146102dd578063765fe099146102ee578063787728ab1461030157806378c7e2921461031457600080fd5b8063551a5cfa1461026d5780635745ab98146102805780635d1ca631146102b057806360749724146102b857600080fd5b80633ca452b9116101b85780633ca452b91461022857806349bc8d181461023d5780634e8c23ca146102455780634f63ce131461025857600080fd5b806304a765b2146101df57806328fd4873146101f65780633c3c069f1461020b575b600080fd5b6009545b6040519081526020015b60405180910390f35b610209610204366004610cc6565b61047b565b005b600754600160a01b900460ff1660405190151581526020016101ed565b61023061048b565b6040516101ed9190610d49565b61023061051d565b610209610253366004610cc6565b61052c565b610260610538565b6040516101ed9190610e29565b61020961027b366004610cc6565b6105de565b61020961028e366004610e8d565b600080546001600160a01b0319166001600160a01b0392909216919091179055565b6001546101e3565b6000546001600160a01b03165b6040516001600160a01b0390911681526020016101ed565b6008546001600160a01b03166102c5565b6102096102fc366004610fd0565b6105ea565b61020961030f366004610cc6565b6106b7565b610209610322366004611022565b60078054911515600160a01b027fffffffffffffffffffffff00ffffffffffffffffffffffffffffffffffffffff909216919091179055565b6103636106c3565b6040516101ed919061103d565b61020961037e366004610cc6565b610aa6565b6007546001600160a01b03166102c5565b610230610ab2565b6102096103aa366004611050565b600955565b610230610ac1565b610230610ad0565b6102096103cd366004610cc6565b610adf565b610230610aeb565b6102096103e8366004611050565b600155565b6102096103fb366004610e8d565b600780546001600160a01b0319166001600160a01b0392909216919091179055565b610230610afa565b610209610433366004610cc6565b610b09565b610209610446366004610e8d565b600880546001600160a01b0319166001600160a01b0392909216919091179055565b610209610476366004611069565b610b15565b600661048782826111dc565b5050565b60606002805461049a90611157565b80601f01602080910402602001604051908101604052809291908181526020018280546104c690611157565b80156105135780601f106104e857610100808354040283529160200191610513565b820191906000526020600020905b8154815290600101906020018083116104f657829003601f168201915b5050505050905090565b6060600a805461049a90611157565b600561048782826111dc565b610540610b5d565b60405180606001604052806105536106c3565b81526020016009548152602001600860009054906101000a90046001600160a01b03166001600160a01b0316635d1ca6316040518163ffffffff1660e01b8152600401602060405180830381865afa1580156105b3573d6000803e3d6000fd5b505050506040513d601f19601f820116820180604052508101906105d7919061129c565b9052919050565b600361048782826111dc565b6020820151600155604082015160029061060490826111dc565b50606082015160039061061790826111dc565b50608082015160049061062a90826111dc565b5060a082015160059061063d90826111dc565b5060c082015160069061065090826111dc565b50610100820151600780547fffffffffffffffffffffff00000000000000000000000000000000000000000016600160a01b921515929092026001600160a01b0319908116929092176001600160a01b039384161790559151600080549093169116179055565b600b61048782826111dc565b61071d60405180610120016040528060006001600160a01b03168152602001600081526020016060815260200160608152602001606081526020016060815260200160608152602001600081526020016000151581525090565b60408051610120810182526000546001600160a01b03168152600154602082015260028054919283019161075090611157565b80601f016020809104026020016040519081016040528092919081815260200182805461077c90611157565b80156107c95780601f1061079e576101008083540402835291602001916107c9565b820191906000526020600020905b8154815290600101906020018083116107ac57829003601f168201915b50505050508152602001600380546107e090611157565b80601f016020809104026020016040519081016040528092919081815260200182805461080c90611157565b80156108595780601f1061082e57610100808354040283529160200191610859565b820191906000526020600020905b81548152906001019060200180831161083c57829003601f168201915b505050505081526020016004805461087090611157565b80601f016020809104026020016040519081016040528092919081815260200182805461089c90611157565b80156108e95780601f106108be576101008083540402835291602001916108e9565b820191906000526020600020905b8154815290600101906020018083116108cc57829003601f168201915b505050505081526020016005805461090090611157565b80601f016020809104026020016040519081016040528092919081815260200182805461092c90611157565b80156109795780601f1061094e57610100808354040283529160200191610979565b820191906000526020600020905b81548152906001019060200180831161095c57829003601f168201915b505050505081526020016006805461099090611157565b80601f01602080910402602001604051908101604052809291908181526020018280546109bc90611157565b8015610a095780601f106109de57610100808354040283529160200191610a09565b820191906000526020600020905b8154815290600101906020018083116109ec57829003601f168201915b50505050508152602001600760009054906101000a90046001600160a01b03166001600160a01b0316635d1ca6316040518163ffffffff1660e01b8152600401602060405180830381865afa158015610a66573d6000803e3d6000fd5b505050506040513d601f19601f82011682018060405250810190610a8a919061129c565b8152600754600160a01b900460ff161515602090910152919050565b600261048782826111dc565b60606006805461049a90611157565b60606003805461049a90611157565b60606004805461049a90611157565b600461048782826111dc565b6060600b805461049a90611157565b60606005805461049a90611157565b600a61048782826111dc565b8451610b2190846105ea565b600880546001600160a01b0319166001600160a01b038616179055600a610b4883826111dc565b50600b610b5582826111dc565b505050505050565b6040518060600160405280610bc260405180610120016040528060006001600160a01b03168152602001600081526020016060815260200160608152602001606081526020016060815260200160608152602001600081526020016000151581525090565b815260200160008152602001600081525090565b634e487b7160e01b600052604160045260246000fd5b604051610120810167ffffffffffffffff81118282101715610c1057610c10610bd6565b60405290565b6040516060810167ffffffffffffffff81118282101715610c1057610c10610bd6565b600082601f830112610c4a57600080fd5b813567ffffffffffffffff80821115610c6557610c65610bd6565b604051601f8301601f19908116603f01168101908282118183101715610c8d57610c8d610bd6565b81604052838152866020858801011115610ca657600080fd5b836020870160208301376000602085830101528094505050505092915050565b600060208284031215610cd857600080fd5b813567ffffffffffffffff811115610cef57600080fd5b610cfb84828501610c39565b949350505050565b6000815180845260005b81811015610d2957602081850181015186830182015201610d0d565b506000602082860101526020601f19601f83011685010191505092915050565b602081526000610d5c6020830184610d03565b9392505050565b80516001600160a01b031682526000610120602083015160208501526040830151816040860152610d9682860182610d03565b91505060608301518482036060860152610db08282610d03565b91505060808301518482036080860152610dca8282610d03565b91505060a083015184820360a0860152610de48282610d03565b91505060c083015184820360c0860152610dfe8282610d03565b91505060e083015160e085015261010080840151610e1f8287018215159052565b5090949350505050565b602081526000825160606020840152610e456080840182610d63565b905060208401516040840152604084015160608401528091505092915050565b6001600160a01b0381168114610e7a57600080fd5b50565b8035610e8881610e65565b919050565b600060208284031215610e9f57600080fd5b8135610d5c81610e65565b80358015158114610e8857600080fd5b60006101208284031215610ecd57600080fd5b610ed5610bec565b9050610ee082610e7d565b815260208201356020820152604082013567ffffffffffffffff80821115610f0757600080fd5b610f1385838601610c39565b60408401526060840135915080821115610f2c57600080fd5b610f3885838601610c39565b60608401526080840135915080821115610f5157600080fd5b610f5d85838601610c39565b608084015260a0840135915080821115610f7657600080fd5b610f8285838601610c39565b60a084015260c0840135915080821115610f9b57600080fd5b50610fa884828501610c39565b60c08301525060e082013560e0820152610100610fc6818401610eaa565b9082015292915050565b60008060408385031215610fe357600080fd5b823567ffffffffffffffff811115610ffa57600080fd5b61100685828601610eba565b925050602083013561101781610e65565b809150509250929050565b60006020828403121561103457600080fd5b610d5c82610eaa565b602081526000610d5c6020830184610d63565b60006020828403121561106257600080fd5b5035919050565b600080600080600060a0868803121561108157600080fd5b853567ffffffffffffffff8082111561109957600080fd5b908701906060828a0312156110ad57600080fd5b6110b5610c16565b8235828111156110c457600080fd5b6110d08b828601610eba565b8252506020830135602082015260408301356040820152809750506110f760208901610e7d565b955061110560408901610e7d565b9450606088013591508082111561111b57600080fd5b61112789838a01610c39565b9350608088013591508082111561113d57600080fd5b5061114a88828901610c39565b9150509295509295909350565b600181811c9082168061116b57607f821691505b60208210810361118b57634e487b7160e01b600052602260045260246000fd5b50919050565b601f8211156111d757600081815260208120601f850160051c810160208610156111b85750805b601f850160051c820191505b81811015610b55578281556001016111c4565b505050565b815167ffffffffffffffff8111156111f6576111f6610bd6565b61120a816112048454611157565b84611191565b602080601f83116001811461123f57600084156112275750858301515b600019600386901b1c1916600185901b178555610b55565b600085815260208120601f198616915b8281101561126e5788860151825594840194600190910190840161124f565b508582101561128c5787850151600019600388901b60f8161c191681555b5050505050600190811b01905550565b6000602082840312156112ae57600080fd5b505191905056fea26469706673582212200ec140fc1a2a9e2462bbc6fe5adbc10b3f856ef3a53c5387b7f5abb6c89061ab64736f6c63430008110033",
  "immutableReferences": {},
  "source": "// SPDX-License-Identifier: MIT\npragma solidity ^0.8.17;\n\nimport \"./Persona.sol\";\nimport \"./VOGenerales/EstadoVO.sol\";\n\n// NOTE: se deja el abstrac contract justo con sus hijos por cuestiones de ordenamiento de cdigo solidity, antes decia \"Definition of base has to precede definition of derived contract\"\n// TODO: verificar si se puede dejar como abstract\ncontract MedicoVO is Persona {\n    //\n    EstadoVO private estado;\n    uint256 private especialidadId;\n    string private usuario;\n    string private contrasena;\n    string private entidadId;\n\n    struct MedicoVOStruct {\n        PersonaStruct persona;\n        uint256 especialidadId;\n        uint256 estadoId;\n        // EstadoVO.EstadoVOStruct estado;\n    }\n\n    function getMedicoVOValue() public view returns (MedicoVOStruct memory) {\n        return\n            MedicoVOStruct(\n                getPersonaStructValue(),\n                especialidadId,\n                estado.getId()\n            );\n    }\n\n    function setValuesOfMedicoVOStruct(\n        MedicoVOStruct memory _medicoVOStruct,\n        EstadoVO _estadoVO,\n        TipoIdentificacionVO _tipoIdentificacionVO,\n        string memory _usuario,\n        string memory _contrasena\n    ) public {\n        setValuesOfPersonaStruct(\n            _medicoVOStruct.persona,\n            _tipoIdentificacionVO\n        );        \n        estado = _estadoVO;\n        usuario = _usuario;\n        contrasena = _contrasena;\n    }\n\n    function getEstado() public view returns (EstadoVO) {\n        return estado;\n    }\n\n    function getEspecialidadId() public view returns (uint256) {\n        return especialidadId;\n    }\n\n    function getUsuario() public view returns (string memory) {\n        return usuario;\n    }\n\n    function getContrasena() public view returns (string memory) {\n        return contrasena;\n    }\n\n    function setEstado(EstadoVO _estado) public {\n        estado = _estado;\n    }\n\n    function setEspecialidadId(uint256 _especialidadId) public {\n        especialidadId = _especialidadId;\n    }\n\n    function setUsuario(string memory _usuario) public {\n        usuario = _usuario;\n    }\n\n    function setContrasena(string memory _contrasena) public {\n        contrasena = _contrasena;\n    }\n}\n",
  "sourcePath": "/home/felipe/Documentos/Blockchain/codigo/HCE-full/back-hce/contracts/models/MedicoVO.sol",
  "compiler": {
    "name": "solc",
    "version": "0.8.17+commit.8df45f5f.Emscripten.clang"
  },
  "schemaVersion": "3.4.8",
  "updatedAt": "2023-03-26T17:17:11.191Z",
  "devdoc": {
    "kind": "dev",
    "methods": {},
    "version": 1
  },
  "userdoc": {
    "kind": "user",
    "methods": {},
    "version": 1
  }
}