{
  "contractName": "Medico",
  "abi": [
    {
      "inputs": [],
      "stateMutability": "nonpayable",
      "type": "constructor"
    },
    {
      "anonymous": false,
      "inputs": [
        {
          "indexed": false,
          "internalType": "string",
          "name": "data",
          "type": "string"
        }
      ],
      "name": "Log",
      "type": "event"
    },
    {
      "inputs": [],
      "name": "creador",
      "outputs": [
        {
          "internalType": "address",
          "name": "",
          "type": "address"
        }
      ],
      "stateMutability": "view",
      "type": "function"
    },
    {
      "inputs": [],
      "name": "medicoMapperAddress",
      "outputs": [
        {
          "internalType": "address",
          "name": "",
          "type": "address"
        }
      ],
      "stateMutability": "view",
      "type": "function"
    },
    {
      "inputs": [
        {
          "internalType": "address",
          "name": "direccion",
          "type": "address"
        }
      ],
      "name": "consultar",
      "outputs": [
        {
          "components": [
            {
              "components": [
                {
                  "internalType": "address",
                  "name": "id",
                  "type": "address"
                },
                {
                  "internalType": "string",
                  "name": "primerNombre",
                  "type": "string"
                },
                {
                  "internalType": "string",
                  "name": "segundoNombre",
                  "type": "string"
                },
                {
                  "internalType": "string",
                  "name": "primerApellido",
                  "type": "string"
                },
                {
                  "internalType": "string",
                  "name": "segundoApellido",
                  "type": "string"
                },
                {
                  "internalType": "string",
                  "name": "identificacion",
                  "type": "string"
                },
                {
                  "internalType": "uint256",
                  "name": "tipoIdentificacion",
                  "type": "uint256"
                },
                {
                  "internalType": "bool",
                  "name": "isValue",
                  "type": "bool"
                }
              ],
              "internalType": "struct Persona.PersonaStruct",
              "name": "persona",
              "type": "tuple"
            },
            {
              "internalType": "uint256",
              "name": "especialidadId",
              "type": "uint256"
            },
            {
              "internalType": "uint256",
              "name": "estadoId",
              "type": "uint256"
            }
          ],
          "internalType": "struct MedicoVO.MedicoVOStruct",
          "name": "",
          "type": "tuple"
        }
      ],
      "stateMutability": "nonpayable",
      "type": "function"
    },
    {
      "inputs": [
        {
          "internalType": "address",
          "name": "direccion",
          "type": "address"
        },
        {
          "internalType": "contract MedicoVO",
          "name": "medico",
          "type": "address"
        }
      ],
      "name": "registrar",
      "outputs": [],
      "stateMutability": "nonpayable",
      "type": "function"
    },
    {
      "inputs": [
        {
          "internalType": "address",
          "name": "direccion",
          "type": "address"
        },
        {
          "components": [
            {
              "components": [
                {
                  "internalType": "address",
                  "name": "id",
                  "type": "address"
                },
                {
                  "internalType": "string",
                  "name": "primerNombre",
                  "type": "string"
                },
                {
                  "internalType": "string",
                  "name": "segundoNombre",
                  "type": "string"
                },
                {
                  "internalType": "string",
                  "name": "primerApellido",
                  "type": "string"
                },
                {
                  "internalType": "string",
                  "name": "segundoApellido",
                  "type": "string"
                },
                {
                  "internalType": "string",
                  "name": "identificacion",
                  "type": "string"
                },
                {
                  "internalType": "uint256",
                  "name": "tipoIdentificacion",
                  "type": "uint256"
                },
                {
                  "internalType": "bool",
                  "name": "isValue",
                  "type": "bool"
                }
              ],
              "internalType": "struct Persona.PersonaStruct",
              "name": "persona",
              "type": "tuple"
            },
            {
              "internalType": "uint256",
              "name": "especialidadId",
              "type": "uint256"
            },
            {
              "internalType": "uint256",
              "name": "estadoId",
              "type": "uint256"
            }
          ],
          "internalType": "struct MedicoVO.MedicoVOStruct",
          "name": "medicoVOStruct",
          "type": "tuple"
        },
        {
          "internalType": "string",
          "name": "_usuario",
          "type": "string"
        },
        {
          "internalType": "string",
          "name": "_contrasena",
          "type": "string"
        }
      ],
      "name": "registrarConStruct",
      "outputs": [],
      "stateMutability": "nonpayable",
      "type": "function"
    },
    {
      "inputs": [
        {
          "internalType": "address",
          "name": "direccion",
          "type": "address"
        },
        {
          "internalType": "contract MedicoVO",
          "name": "medico",
          "type": "address"
        }
      ],
      "name": "actualizar",
      "outputs": [],
      "stateMutability": "nonpayable",
      "type": "function"
    },
    {
      "inputs": [
        {
          "internalType": "address",
          "name": "direccion",
          "type": "address"
        }
      ],
      "name": "verificarExistenciaEnSistemaExterno",
      "outputs": [
        {
          "internalType": "bool",
          "name": "",
          "type": "bool"
        }
      ],
      "stateMutability": "nonpayable",
      "type": "function"
    },
    {
      "inputs": [
        {
          "internalType": "contract MedicoMapperInterface",
          "name": "_medicoMapper",
          "type": "address"
        }
      ],
      "name": "setMedicoMapper",
      "outputs": [],
      "stateMutability": "nonpayable",
      "type": "function"
    },
    {
      "inputs": [
        {
          "internalType": "contract DatosParametricosMapperInterface",
          "name": "_datosParametricosMapperAddress",
          "type": "address"
        }
      ],
      "name": "setdatosParametricosMapper",
      "outputs": [],
      "stateMutability": "nonpayable",
      "type": "function"
    },
    {
      "inputs": [],
      "name": "selfDestruct",
      "outputs": [],
      "stateMutability": "nonpayable",
      "type": "function"
    }
  ],
  "bytecode": "0x608060405234801561001057600080fd5b50600080546001600160a01b0319163317905561264f806100326000396000f3fe608060405234801561001057600080fd5b50600436106100be5760003560e01c80639cb8a26a11610076578063b0aaed661161005b578063b0aaed661461017a578063d87093731461018d578063fa7af2bb146101a057600080fd5b80639cb8a26a1461015f578063ac121b2b1461016757600080fd5b80635a2c9ea2116100a75780635a2c9ea2146100eb5780637da8f6a51461011457806392ebdcd21461013457600080fd5b806307b37d1d146100c35780630da7d7a5146100d8575b600080fd5b6100d66100d1366004610b50565b6101b3565b005b6100d66100e6366004610b50565b6103be565b6100ff6100f9366004610b89565b50600190565b60405190151581526020015b60405180910390f35b610127610122366004610b89565b610442565b60405161010b9190610cfc565b600054610147906001600160a01b031681565b6040516001600160a01b03909116815260200161010b565b6100d66105a5565b600154610147906001600160a01b031681565b6100d6610188366004610b89565b610642565b6100d661019b366004610e58565b6106fb565b6100d66101ae366004610b89565b6109f0565b6002546040517fbe381c590000000000000000000000000000000000000000000000000000000081526001600160a01b03848116600483015283811660248301529091169063be381c5990604401600060405180830381600087803b15801561021b57600080fd5b505af192505050801561022c575060015b61032d5761023861101e565b806308c379a01415610321575061024d61103a565b806102585750610323565b7fcf34ef537ac33ee1ac626ca1587a0a7e8e51561e5514f8cb36afa1c5102b3bab6040516102dd9060208082526021908201527f736520726f6d70696f20706f7220756e20726576657274206f2072657175697260408201527f6500000000000000000000000000000000000000000000000000000000000000606082015260800190565b60405180910390a17fcf34ef537ac33ee1ac626ca1587a0a7e8e51561e5514f8cb36afa1c5102b3bab8160405161031491906110c4565b60405180910390a1505050565b505b3d6000803e3d6000fd5b7fcf34ef537ac33ee1ac626ca1587a0a7e8e51561e5514f8cb36afa1c5102b3bab6040516103b29060208082526031908201527f536520677561726461206c6120696e666f726d6163696f6e2064656c206d656460408201527f69636f20636f7272656374616d656e7465000000000000000000000000000000606082015260800190565b60405180910390a15050565b6002546040517f0da7d7a50000000000000000000000000000000000000000000000000000000081526001600160a01b038481166004830152838116602483015290911690630da7d7a590604401600060405180830381600087803b15801561042657600080fd5b505af115801561043a573d6000803e3d6000fd5b505050505050565b61044a610aa9565b7fcf34ef537ac33ee1ac626ca1587a0a7e8e51561e5514f8cb36afa1c5102b3bab6040516104a99060208082526011908201527f656e74726f206120636f6e73756c746172000000000000000000000000000000604082015260600190565b60405180910390a16002546040517f7da8f6a50000000000000000000000000000000000000000000000000000000081526001600160a01b03848116600483015290911690637da8f6a5906024016020604051808303816000875af1158015610516573d6000803e3d6000fd5b505050506040513d601f19601f8201168201806040525081019061053a91906110d7565b6001600160a01b0316634f63ce136040518163ffffffff1660e01b8152600401600060405180830381865afa158015610577573d6000803e3d6000fd5b505050506040513d6000823e601f3d908101601f1916820160405261059f9190810190611162565b92915050565b6000546001600160a01b031633146106345760405162461bcd60e51b815260206004820152604160248201527f457374612066756e63696f6e20736f6c6f2070756564652073657220656a656360448201527f757461646120706f7220656c2063726561646f722064656c20636f6e747261746064820152606f60f81b608482015260a4015b60405180910390fd5b6000546001600160a01b0316ff5b6000546001600160a01b031633146106cc5760405162461bcd60e51b815260206004820152604160248201527f457374612066756e63696f6e20736f6c6f2070756564652073657220656a656360448201527f757461646120706f7220656c2063726561646f722064656c20636f6e747261746064820152606f60f81b608482015260a40161062b565b6003805473ffffffffffffffffffffffffffffffffffffffff19166001600160a01b0392909216919091179055565b600480546040517f3092ebe60000000000000000000000000000000000000000000000000000000081526000926001600160a01b0390921691633092ebe6916107489187918791016112d2565b6020604051808303816000875af1158015610767573d6000803e3d6000fd5b505050506040513d601f19601f8201168201806040525081019061078b91906112f7565b9050806108005760405162461bcd60e51b815260206004820152602360248201527f4e6f2065786973746520657365206d656469636f207061726120656c2065737460448201527f61646f0000000000000000000000000000000000000000000000000000000000606482015260840161062b565b600060405161080e90610b1b565b604051809103906000f08015801561082a573d6000803e3d6000fd5b5060035460408088015190517f480c42a00000000000000000000000000000000000000000000000000000000081529293506000926001600160a01b039092169163480c42a0916108819160040190815260200190565b602060405180830381865afa15801561089e573d6000803e3d6000fd5b505050506040513d601f19601f820116820180604052508101906108c291906110d7565b600354875160c001516040517f1dbaf4030000000000000000000000000000000000000000000000000000000081529293506000926001600160a01b0390921691631dbaf403916109199160040190815260200190565b602060405180830381865afa158015610936573d6000803e3d6000fd5b505050506040513d601f19601f8201168201806040525081019061095a91906110d7565b6040517fa1bc36640000000000000000000000000000000000000000000000000000000081529091506001600160a01b0384169063a1bc3664906109aa908a90869086908c908c90600401611314565b600060405180830381600087803b1580156109c457600080fd5b505af11580156109d8573d6000803e3d6000fd5b505050506109e688846101b3565b5050505050505050565b6000546001600160a01b03163314610a7a5760405162461bcd60e51b815260206004820152604160248201527f457374612066756e63696f6e20736f6c6f2070756564652073657220656a656360448201527f757461646120706f7220656c2063726561646f722064656c20636f6e747261746064820152606f60f81b608482015260a40161062b565b6002805473ffffffffffffffffffffffffffffffffffffffff19166001600160a01b0392909216919091179055565b6040518060600160405280610b0760405180610100016040528060006001600160a01b031681526020016060815260200160608152602001606081526020016060815260200160608152602001600081526020016000151581525090565b815260200160008152602001600081525090565b6112a98061137183390190565b6001600160a01b0381168114610b3d57600080fd5b50565b8035610b4b81610b28565b919050565b60008060408385031215610b6357600080fd5b8235610b6e81610b28565b91506020830135610b7e81610b28565b809150509250929050565b600060208284031215610b9b57600080fd5b8135610ba681610b28565b9392505050565b60005b83811015610bc8578181015183820152602001610bb0565b83811115610bd7576000848401525b50505050565b60008151808452610bf5816020860160208601610bad565b601f01601f19169290920160200192915050565b6000815160608452610c276060850182516001600160a01b03169052565b6020810151610100806080870152610c43610160870183610bdd565b91506040830151605f19808885030160a0890152610c618483610bdd565b935060608501519150808885030160c0890152610c7e8483610bdd565b935060808501519150808885030160e0890152610c9b8483610bdd565b935060a0850151915080888503018389015250610cb88382610bdd565b9250505060c082015161012086015260e08201519150610cdd61014086018315159052565b6020840151602086015260408401516040860152809250505092915050565b602081526000610ba66020830184610c09565b7f4e487b7100000000000000000000000000000000000000000000000000000000600052604160045260246000fd5b6060810181811067ffffffffffffffff82111715610d5e57610d5e610d0f565b60405250565b601f8201601f1916810167ffffffffffffffff81118282101715610d8a57610d8a610d0f565b6040525050565b604051610100810167ffffffffffffffff81118282101715610db557610db5610d0f565b60405290565b600067ffffffffffffffff821115610dd557610dd5610d0f565b50601f01601f191660200190565b600082601f830112610df457600080fd5b8135610dff81610dbb565b604051610e0c8282610d64565b828152856020848701011115610e2157600080fd5b82602086016020830137600092810160200192909252509392505050565b8015158114610b3d57600080fd5b8035610b4b81610e3f565b60008060008060808587031215610e6e57600080fd5b8435610e7981610b28565b9350602085013567ffffffffffffffff80821115610e9657600080fd5b9086019060608289031215610eaa57600080fd5b60408051610eb781610d3e565b833583811115610ec657600080fd5b8401610100818c031215610ed957600080fd5b610ee1610d91565b610eea82610b40565b8152602082013585811115610efe57600080fd5b610f0a8d828501610de3565b6020830152508382013585811115610f2157600080fd5b610f2d8d828501610de3565b8583015250606082013585811115610f4457600080fd5b610f508d828501610de3565b606083015250608082013585811115610f6857600080fd5b610f748d828501610de3565b60808301525060a082013585811115610f8c57600080fd5b610f988d828501610de3565b60a08301525060c082013560c0820152610fb460e08301610e4d565b60e0820152825250602084810135908201529281013581840152919450908601359080821115610fe357600080fd5b610fef88838901610de3565b9350606087013591508082111561100557600080fd5b5061101287828801610de3565b91505092959194509250565b600060033d11156110375760046000803e5060005160e01c5b90565b600060443d10156110485790565b6040516003193d81016004833e81513d67ffffffffffffffff816024840111818411171561107857505050505090565b82850191508151818111156110905750505050505090565b843d87010160208285010111156110aa5750505050505090565b6110b960208286010187610d64565b509095945050505050565b602081526000610ba66020830184610bdd565b6000602082840312156110e957600080fd5b8151610ba681610b28565b8051610b4b81610b28565b600082601f83011261111057600080fd5b815161111b81610dbb565b6040516111288282610d64565b82815285602084870101111561113d57600080fd5b61114e836020830160208801610bad565b95945050505050565b8051610b4b81610e3f565b60006020828403121561117457600080fd5b815167ffffffffffffffff8082111561118c57600080fd5b90830190606082860312156111a057600080fd5b6040516111ac81610d3e565b8251828111156111bb57600080fd5b830161010081880312156111ce57600080fd5b6111d6610d91565b6111df826110f4565b81526020820151848111156111f357600080fd5b6111ff898285016110ff565b60208301525060408201518481111561121757600080fd5b611223898285016110ff565b60408301525060608201518481111561123b57600080fd5b611247898285016110ff565b60608301525060808201518481111561125f57600080fd5b61126b898285016110ff565b60808301525060a08201518481111561128357600080fd5b61128f898285016110ff565b60a08301525060c082015160c08201526112ab60e08301611157565b60e08201528252506020838101519082015260409283015192810192909252509392505050565b6040815260006112e56040830185610bdd565b828103602084015261114e8185610bdd565b60006020828403121561130957600080fd5b8151610ba681610e3f565b60a08152600061132760a0830188610c09565b6001600160a01b0387811660208501528616604084015282810360608401526113508186610bdd565b905082810360808401526113648185610bdd565b9897505050505050505056fe608060405234801561001057600080fd5b50611289806100206000396000f3fe608060405234801561001057600080fd5b50600436106101c45760003560e01c806383cb77b0116100f9578063c461d52e11610097578063d1e360ff11610071578063d1e360ff146103ce578063eacd3b93146103fe578063ec1d22dd14610406578063ef974e801461041957600080fd5b8063c461d52e146103ab578063cc9f930e146103b3578063ccae5784146103c657600080fd5b8063a1bc3664116100d3578063a1bc36641461036a578063aee5de751461037d578063b2f9ccbb14610390578063b750a1f41461039857600080fd5b806383cb77b01461033e5780638ba68607146103515780639ac9abd01461036257600080fd5b80634f63ce13116101665780636d07d7e3116101405780636d07d7e3146102be578063787728ab146102cf57806378c7e292146102e25780637d5c30321461032957600080fd5b80634f63ce1314610271578063551a5cfa146102865780635d1ca6311461029957600080fd5b80633c3c069f116101a25780633c3c069f146102245780633ca452b91461024157806349bc8d18146102565780634e8c23ca1461025e57600080fd5b806304a765b2146101c957806328fd4873146101df5780632cb41958146101f4575b600080fd5b6008546040519081526020015b60405180910390f35b6101f26101ed366004610d7f565b610449565b005b6101f2610202366004610de4565b600080546001600160a01b0319166001600160a01b0392909216919091179055565b600654600160a01b900460ff1660405190151581526020016101d6565b610249610460565b6040516101d69190610e55565b6102496104f2565b6101f261026c366004610d7f565b610501565b610279610514565b6040516101d69190610f21565b6101f2610294366004610d7f565b6105ba565b6000546001600160a01b03165b6040516001600160a01b0390911681526020016101d6565b6007546001600160a01b03166102a6565b6101f26102dd366004610d7f565b6105cd565b6101f26102f0366004610f6d565b60068054911515600160a01b027fffffffffffffffffffffff00ffffffffffffffffffffffffffffffffffffffff909216919091179055565b6103316105e0565b6040516101d69190610f88565b6101f261034c366004610d7f565b6109b6565b6006546001600160a01b03166102a6565b6102496109c9565b6101f26103783660046110a6565b6109d8565b6101f261038b366004611194565b600855565b610249610a2e565b6101f26103a63660046111ad565b610a3d565b610249610b35565b6101f26103c1366004610d7f565b610b44565b610249610b57565b6101f26103dc366004610de4565b600680546001600160a01b0319166001600160a01b0392909216919091179055565b610249610b66565b6101f2610414366004610d7f565b610b75565b6101f2610427366004610de4565b600780546001600160a01b0319166001600160a01b0392909216919091179055565b805161045c906005906020840190610b84565b5050565b60606001805461046f906111ff565b80601f016020809104026020016040519081016040528092919081815260200182805461049b906111ff565b80156104e85780601f106104bd576101008083540402835291602001916104e8565b820191906000526020600020905b8154815290600101906020018083116104cb57829003601f168201915b5050505050905090565b60606009805461046f906111ff565b805161045c906004906020840190610b84565b61051c610c08565b604051806060016040528061052f6105e0565b81526020016008548152602001600760009054906101000a90046001600160a01b03166001600160a01b0316635d1ca6316040518163ffffffff1660e01b8152600401602060405180830381865afa15801561058f573d6000803e3d6000fd5b505050506040513d601f19601f820116820180604052508101906105b3919061123a565b9052919050565b805161045c906002906020840190610b84565b805161045c90600a906020840190610b84565b61063360405180610100016040528060006001600160a01b031681526020016060815260200160608152602001606081526020016060815260200160608152602001600081526020016000151581525090565b6040805161010081019091526000546001600160a01b0316815260018054602083019190610660906111ff565b80601f016020809104026020016040519081016040528092919081815260200182805461068c906111ff565b80156106d95780601f106106ae576101008083540402835291602001916106d9565b820191906000526020600020905b8154815290600101906020018083116106bc57829003601f168201915b50505050508152602001600280546106f0906111ff565b80601f016020809104026020016040519081016040528092919081815260200182805461071c906111ff565b80156107695780601f1061073e57610100808354040283529160200191610769565b820191906000526020600020905b81548152906001019060200180831161074c57829003601f168201915b5050505050815260200160038054610780906111ff565b80601f01602080910402602001604051908101604052809291908181526020018280546107ac906111ff565b80156107f95780601f106107ce576101008083540402835291602001916107f9565b820191906000526020600020905b8154815290600101906020018083116107dc57829003601f168201915b5050505050815260200160048054610810906111ff565b80601f016020809104026020016040519081016040528092919081815260200182805461083c906111ff565b80156108895780601f1061085e57610100808354040283529160200191610889565b820191906000526020600020905b81548152906001019060200180831161086c57829003601f168201915b50505050508152602001600580546108a0906111ff565b80601f01602080910402602001604051908101604052809291908181526020018280546108cc906111ff565b80156109195780601f106108ee57610100808354040283529160200191610919565b820191906000526020600020905b8154815290600101906020018083116108fc57829003601f168201915b50505050508152602001600660009054906101000a90046001600160a01b03166001600160a01b0316635d1ca6316040518163ffffffff1660e01b8152600401602060405180830381865afa158015610976573d6000803e3d6000fd5b505050506040513d601f19601f8201168201806040525081019061099a919061123a565b8152600654600160a01b900460ff161515602090910152919050565b805161045c906001906020840190610b84565b60606005805461046f906111ff565b84516109e49084610a3d565b600780546001600160a01b0319166001600160a01b0386161790558151610a12906009906020850190610b84565b508051610a2690600a906020840190610b84565b505050505050565b60606002805461046f906111ff565b8151600080546001600160a01b0319166001600160a01b039092169190911790556020808301518051610a74926001920190610b84565b5060408201518051610a8e91600291602090910190610b84565b5060608201518051610aa891600391602090910190610b84565b5060808201518051610ac291600491602090910190610b84565b5060a08201518051610adc91600591602090910190610b84565b5060e090910151600680546001600160a01b039093166001600160a01b0319921515600160a01b02929092167fffffffffffffffffffffff00000000000000000000000000000000000000000090931692909217179055565b60606003805461046f906111ff565b805161045c906003906020840190610b84565b6060600a805461046f906111ff565b60606004805461046f906111ff565b805161045c9060099060208401905b828054610b90906111ff565b90600052602060002090601f016020900481019282610bb25760008555610bf8565b82601f10610bcb57805160ff1916838001178555610bf8565b82800160010185558215610bf8579182015b82811115610bf8578251825591602001919060010190610bdd565b50610c04929150610c7a565b5090565b6040518060600160405280610c6660405180610100016040528060006001600160a01b031681526020016060815260200160608152602001606081526020016060815260200160608152602001600081526020016000151581525090565b815260200160008152602001600081525090565b5b80821115610c045760008155600101610c7b565b634e487b7160e01b600052604160045260246000fd5b604051610100810167ffffffffffffffff81118282101715610cc957610cc9610c8f565b60405290565b6040516060810167ffffffffffffffff81118282101715610cc957610cc9610c8f565b600082601f830112610d0357600080fd5b813567ffffffffffffffff80821115610d1e57610d1e610c8f565b604051601f8301601f19908116603f01168101908282118183101715610d4657610d46610c8f565b81604052838152866020858801011115610d5f57600080fd5b836020870160208301376000602085830101528094505050505092915050565b600060208284031215610d9157600080fd5b813567ffffffffffffffff811115610da857600080fd5b610db484828501610cf2565b949350505050565b6001600160a01b0381168114610dd157600080fd5b50565b8035610ddf81610dbc565b919050565b600060208284031215610df657600080fd5b8135610e0181610dbc565b9392505050565b6000815180845260005b81811015610e2e57602081850181015186830182015201610e12565b81811115610e40576000602083870101525b50601f01601f19169290920160200192915050565b602081526000610e016020830184610e08565b80516001600160a01b0316825260006101006020830151816020860152610e9182860182610e08565b91505060408301518482036040860152610eab8282610e08565b91505060608301518482036060860152610ec58282610e08565b91505060808301518482036080860152610edf8282610e08565b91505060a083015184820360a0860152610ef98282610e08565b91505060c083015160c085015260e0830151610f1960e086018215159052565b509392505050565b602081526000825160606020840152610f3d6080840182610e68565b905060208401516040840152604084015160608401528091505092915050565b80358015158114610ddf57600080fd5b600060208284031215610f7f57600080fd5b610e0182610f5d565b602081526000610e016020830184610e68565b60006101008284031215610fae57600080fd5b610fb6610ca5565b9050610fc182610dd4565b8152602082013567ffffffffffffffff80821115610fde57600080fd5b610fea85838601610cf2565b6020840152604084013591508082111561100357600080fd5b61100f85838601610cf2565b6040840152606084013591508082111561102857600080fd5b61103485838601610cf2565b6060840152608084013591508082111561104d57600080fd5b61105985838601610cf2565b608084015260a084013591508082111561107257600080fd5b5061107f84828501610cf2565b60a08301525060c082013560c082015261109b60e08301610f5d565b60e082015292915050565b600080600080600060a086880312156110be57600080fd5b853567ffffffffffffffff808211156110d657600080fd5b908701906060828a0312156110ea57600080fd5b6110f2610ccf565b82358281111561110157600080fd5b61110d8b828601610f9b565b82525060208301356020820152604083013560408201528097505061113460208901610dd4565b955061114260408901610dd4565b9450606088013591508082111561115857600080fd5b61116489838a01610cf2565b9350608088013591508082111561117a57600080fd5b5061118788828901610cf2565b9150509295509295909350565b6000602082840312156111a657600080fd5b5035919050565b600080604083850312156111c057600080fd5b823567ffffffffffffffff8111156111d757600080fd5b6111e385828601610f9b565b92505060208301356111f481610dbc565b809150509250929050565b600181811c9082168061121357607f821691505b6020821081141561123457634e487b7160e01b600052602260045260246000fd5b50919050565b60006020828403121561124c57600080fd5b505191905056fea2646970667358221220fe31b72a1fd03c94c86c2163b19680d412ca95b6c5d6cba49ade4992c49aca5164736f6c634300080b0033a26469706673582212204ec822fbf81fb09c6f542ae9e19a89bc569b55dd70b489c7dbc5e9b53a7d5e7f64736f6c634300080b0033",
  "immutableReferences": {},
  "source": "pragma solidity ^0.8.10;\n\nimport \"../models/MedicoVO.sol\";\nimport \"../persistence/MedicoMapper.sol\";\nimport \"../persistence/DatosParametricosMapper.sol\";\nimport \"../persistence/DatosParametricosMapperInterface.sol\";\nimport \"./sistemaExterno/MedicoOraculo.sol\";\n\ncontract Medico {\n    // TODO: consumir este evento desde una clase heredada o algo as\n    event Log(string data);\n    address public creador;\n    address public medicoMapperAddress;\n\n    MedicoMapperInterface private medicoMapper;\n    DatosParametricosMapperInterface private datosParametricosMapper;\n    MedicoOraculo private medicoOraculo;\n\n    constructor() {\n        creador = msg.sender; // creador del contrato\n    }\n\n    function consultar(address direccion)\n        public\n        returns (MedicoVO.MedicoVOStruct memory)\n    {\n        emit Log(\"entro a consultar\");\n        return medicoMapper.consultar(direccion).getMedicoVOValue();\n    }\n\n    function registrar(address direccion, MedicoVO medico) public {\n        try medicoMapper.guardar(direccion, medico) {\n            emit Log(\"Se guarda la informacion del medico correctamente\");\n        } catch Error(string memory data) {\n            /*reason*/\n            emit Log(\"se rompio por un revert o require\");\n            emit Log(data);\n        }\n    }\n\n    function registrarConStruct(\n        address direccion,\n        MedicoVO.MedicoVOStruct memory medicoVOStruct,\n        string memory _usuario,\n        string memory _contrasena // TODO: Recibir encryptada\n    ) public {\n        bool medicoValido = medicoOraculo.verificarExistenciaEnSistemaExterno(\n            _usuario,\n            _contrasena\n        );\n        if (!medicoValido) {\n            revert(\"No existe ese medico para el estado\");\n        }\n        MedicoVO medicoVO = new MedicoVO();\n        EstadoVO estadoVO = datosParametricosMapper.consultarEstadoVO(\n            medicoVOStruct.estadoId\n        );\n        TipoIdentificacionVO _tipoIdentificacionVO = datosParametricosMapper\n            .consultarTipoIdentificacionVO(\n                medicoVOStruct.persona.tipoIdentificacion\n            );\n\n        medicoVO.setValuesOfMedicoVOStruct(\n            medicoVOStruct,\n            estadoVO,\n            _tipoIdentificacionVO,\n            _usuario,\n            _contrasena\n        );\n        registrar(direccion, medicoVO);\n    }\n\n    function actualizar(address direccion, MedicoVO medico) public {\n        medicoMapper.actualizar(direccion, medico);\n        /*\n        try contratoPacienteDAO.actualizar(direccion, paciente) {\n            emit Log(\"Se guarda la informacion de paciente correctamente\");\n        } catch Error(string memory data) {\n            /*reason*/\n        /*  emit Log(\"se rompio por un revert o require\");\n            emit Log(data);\n        }*/\n    }\n\n    function verificarExistenciaEnSistemaExterno(address direccion)\n        public\n        returns (bool)\n    {\n        /* TODO: Consultar info del medico (usuario y contrasea)\n         *  despues se hace con oraculos una consulta\n         */\n        return true;\n    }\n\n    /*function buscarPerfilMedicoSistemaExterno(address direccion) public returns (PerfilMedicoSistemaExternoStruct memory){\n        // TODO: tambien con oraculo\n    }*/\n\n    function setMedicoMapper(MedicoMapperInterface _medicoMapper)\n        public\n        esPropietario\n    {\n        medicoMapper = _medicoMapper;\n    }\n\n    function setdatosParametricosMapper(\n        DatosParametricosMapperInterface _datosParametricosMapperAddress\n    ) public esPropietario {\n        datosParametricosMapper = _datosParametricosMapperAddress;\n    }\n\n    // TODO: poner en clase generica y reusarlo\n    modifier esPropietario() {\n        require(\n            msg.sender == creador,\n            \"Esta funcion solo puede ser ejecutada por el creador del contrato\"\n        );\n        _; // ac se ejecuta la funcin\n    }\n\n    function selfDestruct() public esPropietario {\n        selfdestruct(payable(creador));\n    }\n}\n",
  "sourcePath": "/home/felipe/Documentos/Blockchain/codigo/back-hce/contracts/logica/Medico.sol",
  "compiler": {
    "name": "solc",
    "version": "0.8.11+commit.d7f03943.Emscripten.clang"
  },
  "schemaVersion": "3.4.8",
  "updatedAt": "2022-07-28T03:19:37.630Z",
  "devdoc": {
    "kind": "dev",
    "methods": {},
    "version": 1
  },
  "userdoc": {
    "kind": "user",
    "methods": {},
    "version": 1
  }
}