{
  "contractName": "Medico",
  "abi": [
    {
      "inputs": [],
      "stateMutability": "nonpayable",
      "type": "constructor"
    },
    {
      "anonymous": false,
      "inputs": [
        {
          "indexed": false,
          "internalType": "string",
          "name": "data",
          "type": "string"
        }
      ],
      "name": "Log",
      "type": "event"
    },
    {
      "inputs": [],
      "name": "PersonaDAOAddress",
      "outputs": [
        {
          "internalType": "address",
          "name": "",
          "type": "address"
        }
      ],
      "stateMutability": "view",
      "type": "function",
      "constant": true
    },
    {
      "inputs": [
        {
          "internalType": "address",
          "name": "direccion",
          "type": "address"
        }
      ],
      "name": "consultar",
      "outputs": [
        {
          "components": [
            {
              "internalType": "string",
              "name": "primerNombre",
              "type": "string"
            },
            {
              "internalType": "string",
              "name": "segundoNombre",
              "type": "string"
            },
            {
              "internalType": "string",
              "name": "primerApellido",
              "type": "string"
            },
            {
              "internalType": "string",
              "name": "segundoApellido",
              "type": "string"
            },
            {
              "internalType": "string",
              "name": "identificacion",
              "type": "string"
            },
            {
              "internalType": "string",
              "name": "tipoIdentificacion",
              "type": "string"
            },
            {
              "internalType": "bool",
              "name": "isValue",
              "type": "bool"
            }
          ],
          "internalType": "struct PersonaStruct",
          "name": "",
          "type": "tuple"
        }
      ],
      "stateMutability": "nonpayable",
      "type": "function"
    },
    {
      "inputs": [],
      "name": "creador",
      "outputs": [
        {
          "internalType": "address",
          "name": "",
          "type": "address"
        }
      ],
      "stateMutability": "view",
      "type": "function",
      "constant": true
    },
    {
      "inputs": [
        {
          "internalType": "address",
          "name": "direccion",
          "type": "address"
        },
        {
          "components": [
            {
              "internalType": "string",
              "name": "primerNombre",
              "type": "string"
            },
            {
              "internalType": "string",
              "name": "segundoNombre",
              "type": "string"
            },
            {
              "internalType": "string",
              "name": "primerApellido",
              "type": "string"
            },
            {
              "internalType": "string",
              "name": "segundoApellido",
              "type": "string"
            },
            {
              "internalType": "string",
              "name": "identificacion",
              "type": "string"
            },
            {
              "internalType": "string",
              "name": "tipoIdentificacion",
              "type": "string"
            },
            {
              "internalType": "bool",
              "name": "isValue",
              "type": "bool"
            }
          ],
          "internalType": "struct PersonaStruct",
          "name": "persona",
          "type": "tuple"
        }
      ],
      "name": "guardar",
      "outputs": [],
      "stateMutability": "nonpayable",
      "type": "function"
    },
    {
      "inputs": [],
      "name": "propietario",
      "outputs": [
        {
          "internalType": "address",
          "name": "",
          "type": "address"
        }
      ],
      "stateMutability": "view",
      "type": "function",
      "constant": true
    },
    {
      "inputs": [
        {
          "components": [
            {
              "internalType": "string",
              "name": "primerNombre",
              "type": "string"
            },
            {
              "internalType": "string",
              "name": "segundoNombre",
              "type": "string"
            },
            {
              "internalType": "string",
              "name": "primerApellido",
              "type": "string"
            },
            {
              "internalType": "string",
              "name": "segundoApellido",
              "type": "string"
            },
            {
              "internalType": "string",
              "name": "identificacion",
              "type": "string"
            },
            {
              "internalType": "string",
              "name": "tipoIdentificacion",
              "type": "string"
            },
            {
              "internalType": "bool",
              "name": "isValue",
              "type": "bool"
            }
          ],
          "internalType": "struct PersonaStruct",
          "name": "persona",
          "type": "tuple"
        }
      ],
      "name": "registrar",
      "outputs": [],
      "stateMutability": "nonpayable",
      "type": "function"
    },
    {
      "inputs": [
        {
          "internalType": "address",
          "name": "direccion",
          "type": "address"
        }
      ],
      "name": "setPersonaDAOAddress",
      "outputs": [],
      "stateMutability": "nonpayable",
      "type": "function"
    },
    {
      "inputs": [],
      "name": "login",
      "outputs": [
        {
          "internalType": "contract Persona",
          "name": "",
          "type": "address"
        }
      ],
      "stateMutability": "view",
      "type": "function",
      "constant": true
    },
    {
      "inputs": [
        {
          "internalType": "uint256",
          "name": "funcionId",
          "type": "uint256"
        }
      ],
      "name": "buscarPermisosDeRol",
      "outputs": [
        {
          "internalType": "bool",
          "name": "",
          "type": "bool"
        }
      ],
      "stateMutability": "view",
      "type": "function",
      "constant": true
    }
  ],
  "bytecode": "0x608060405234801561001057600080fd5b50336000806101000a81548173ffffffffffffffffffffffffffffffffffffffff021916908373ffffffffffffffffffffffffffffffffffffffff16021790555033600360006101000a81548173ffffffffffffffffffffffffffffffffffffffff021916908373ffffffffffffffffffffffffffffffffffffffff160217905550611444806100a16000396000f3fe608060405234801561001057600080fd5b50600436106100935760003560e01c806392ebdcd21161006657806392ebdcd214610120578063b34e97e81461013e578063b86c281e1461015c578063c2aa74d214610178578063f92e61531461019457610093565b8063133584b1146100985780633c4f81cd146100b457806352340e2e146100d25780637da8f6a5146100f0575b600080fd5b6100b260048036038101906100ad9190610a54565b6101c4565b005b6100bc610335565b6040516100c99190610abf565b60405180910390f35b6100da610359565b6040516100e79190610abf565b60405180910390f35b61010a60048036038101906101059190610ada565b61037f565b6040516101179190610c5d565b60405180910390f35b61012861054b565b6040516101359190610abf565b60405180910390f35b610146610571565b6040516101539190610cde565b60405180910390f35b61017660048036038101906101719190610cf9565b61057b565b005b610192600480360381019061018d9190610ada565b61057e565b005b6101ae60048036038101906101a99190610d78565b6106b3565b6040516101bb9190610db4565b60405180910390f35b600260009054906101000a900473ffffffffffffffffffffffffffffffffffffffff1673ffffffffffffffffffffffffffffffffffffffff1663133584b183836040518363ffffffff1660e01b8152600401610221929190610dcf565b600060405180830381600087803b15801561023b57600080fd5b505af192505050801561024c575060015b6102fb57610258610e0c565b806308c379a014156102ea575061026d610e2e565b8061027857506102ec565b7fcf34ef537ac33ee1ac626ca1587a0a7e8e51561e5514f8cb36afa1c5102b3bab6040516102a590610f47565b60405180910390a17fcf34ef537ac33ee1ac626ca1587a0a7e8e51561e5514f8cb36afa1c5102b3bab816040516102dc9190610fa0565b60405180910390a1506102f6565b505b3d6000803e3d6000fd5b610331565b7fcf34ef537ac33ee1ac626ca1587a0a7e8e51561e5514f8cb36afa1c5102b3bab60405161032890611034565b60405180910390a15b5050565b60008054906101000a900473ffffffffffffffffffffffffffffffffffffffff1681565b600160009054906101000a900473ffffffffffffffffffffffffffffffffffffffff1681565b6103876106bf565b7fcf34ef537ac33ee1ac626ca1587a0a7e8e51561e5514f8cb36afa1c5102b3bab6040516103b4906110a0565b60405180910390a1600260009054906101000a900473ffffffffffffffffffffffffffffffffffffffff1673ffffffffffffffffffffffffffffffffffffffff16637da8f6a5836040518263ffffffff1660e01b81526004016104179190610abf565b6000604051808303816000875af192505050801561045857506040513d6000823e3d601f19601f8201168201806040525081019061045591906112a1565b60015b61050757610464610e0c565b806308c379a014156104f65750610479610e2e565b8061048457506104f8565b7fcf34ef537ac33ee1ac626ca1587a0a7e8e51561e5514f8cb36afa1c5102b3bab6040516104b190610f47565b60405180910390a17fcf34ef537ac33ee1ac626ca1587a0a7e8e51561e5514f8cb36afa1c5102b3bab816040516104e89190610fa0565b60405180910390a150610502565b505b3d6000803e3d6000fd5b610545565b7fcf34ef537ac33ee1ac626ca1587a0a7e8e51561e5514f8cb36afa1c5102b3bab60405161053490611336565b60405180910390a180915050610546565b5b919050565b600360009054906101000a900473ffffffffffffffffffffffffffffffffffffffff1681565b6000803390505090565b50565b60008054906101000a900473ffffffffffffffffffffffffffffffffffffffff1673ffffffffffffffffffffffffffffffffffffffff163373ffffffffffffffffffffffffffffffffffffffff161461060c576040517f08c379a0000000000000000000000000000000000000000000000000000000008152600401610603906113ee565b60405180910390fd5b80600160006101000a81548173ffffffffffffffffffffffffffffffffffffffff021916908373ffffffffffffffffffffffffffffffffffffffff160217905550600160009054906101000a900473ffffffffffffffffffffffffffffffffffffffff16600260006101000a81548173ffffffffffffffffffffffffffffffffffffffff021916908373ffffffffffffffffffffffffffffffffffffffff16021790555050565b60008033905050919050565b6040518060e001604052806060815260200160608152602001606081526020016060815260200160608152602001606081526020016000151581525090565b6000604051905090565b600080fd5b600080fd5b600073ffffffffffffffffffffffffffffffffffffffff82169050919050565b600061073d82610712565b9050919050565b61074d81610732565b811461075857600080fd5b50565b60008135905061076a81610744565b92915050565b600080fd5b6000601f19601f8301169050919050565b7f4e487b7100000000000000000000000000000000000000000000000000000000600052604160045260246000fd5b6107be82610775565b810181811067ffffffffffffffff821117156107dd576107dc610786565b5b80604052505050565b60006107f06106fe565b90506107fc82826107b5565b919050565b600080fd5b600080fd5b600080fd5b600067ffffffffffffffff82111561082b5761082a610786565b5b61083482610775565b9050602081019050919050565b82818337600083830152505050565b600061086361085e84610810565b6107e6565b90508281526020810184848401111561087f5761087e61080b565b5b61088a848285610841565b509392505050565b600082601f8301126108a7576108a6610806565b5b81356108b7848260208601610850565b91505092915050565b60008115159050919050565b6108d5816108c0565b81146108e057600080fd5b50565b6000813590506108f2816108cc565b92915050565b600060e0828403121561090e5761090d610770565b5b61091860e06107e6565b9050600082013567ffffffffffffffff81111561093857610937610801565b5b61094484828501610892565b600083015250602082013567ffffffffffffffff81111561096857610967610801565b5b61097484828501610892565b602083015250604082013567ffffffffffffffff81111561099857610997610801565b5b6109a484828501610892565b604083015250606082013567ffffffffffffffff8111156109c8576109c7610801565b5b6109d484828501610892565b606083015250608082013567ffffffffffffffff8111156109f8576109f7610801565b5b610a0484828501610892565b60808301525060a082013567ffffffffffffffff811115610a2857610a27610801565b5b610a3484828501610892565b60a08301525060c0610a48848285016108e3565b60c08301525092915050565b60008060408385031215610a6b57610a6a610708565b5b6000610a798582860161075b565b925050602083013567ffffffffffffffff811115610a9a57610a9961070d565b5b610aa6858286016108f8565b9150509250929050565b610ab981610732565b82525050565b6000602082019050610ad46000830184610ab0565b92915050565b600060208284031215610af057610aef610708565b5b6000610afe8482850161075b565b91505092915050565b600081519050919050565b600082825260208201905092915050565b60005b83811015610b41578082015181840152602081019050610b26565b83811115610b50576000848401525b50505050565b6000610b6182610b07565b610b6b8185610b12565b9350610b7b818560208601610b23565b610b8481610775565b840191505092915050565b610b98816108c0565b82525050565b600060e0830160008301518482036000860152610bbb8282610b56565b91505060208301518482036020860152610bd58282610b56565b91505060408301518482036040860152610bef8282610b56565b91505060608301518482036060860152610c098282610b56565b91505060808301518482036080860152610c238282610b56565b91505060a083015184820360a0860152610c3d8282610b56565b91505060c0830151610c5260c0860182610b8f565b508091505092915050565b60006020820190508181036000830152610c778184610b9e565b905092915050565b6000819050919050565b6000610ca4610c9f610c9a84610712565b610c7f565b610712565b9050919050565b6000610cb682610c89565b9050919050565b6000610cc882610cab565b9050919050565b610cd881610cbd565b82525050565b6000602082019050610cf36000830184610ccf565b92915050565b600060208284031215610d0f57610d0e610708565b5b600082013567ffffffffffffffff811115610d2d57610d2c61070d565b5b610d39848285016108f8565b91505092915050565b6000819050919050565b610d5581610d42565b8114610d6057600080fd5b50565b600081359050610d7281610d4c565b92915050565b600060208284031215610d8e57610d8d610708565b5b6000610d9c84828501610d63565b91505092915050565b610dae816108c0565b82525050565b6000602082019050610dc96000830184610da5565b92915050565b6000604082019050610de46000830185610ab0565b8181036020830152610df68184610b9e565b90509392505050565b60008160e01c9050919050565b600060033d1115610e2b5760046000803e610e28600051610dff565b90505b90565b600060443d1015610e3e57610ec1565b610e466106fe565b60043d036004823e80513d602482011167ffffffffffffffff82111715610e6e575050610ec1565b808201805167ffffffffffffffff811115610e8c5750505050610ec1565b80602083010160043d038501811115610ea9575050505050610ec1565b610eb8826020018501866107b5565b82955050505050505b90565b600082825260208201905092915050565b7f736520726f6d70696f20706f7220756e20726576657274206f2072657175697260008201527f6500000000000000000000000000000000000000000000000000000000000000602082015250565b6000610f31602183610ec4565b9150610f3c82610ed5565b604082019050919050565b60006020820190508181036000830152610f6081610f24565b9050919050565b6000610f7282610b07565b610f7c8185610ec4565b9350610f8c818560208601610b23565b610f9581610775565b840191505092915050565b60006020820190508181036000830152610fba8184610f67565b905092915050565b7f536520677561726461206c6120706572736f6e6120636f7265656374616d656e60008201527f7465000000000000000000000000000000000000000000000000000000000000602082015250565b600061101e602283610ec4565b915061102982610fc2565b604082019050919050565b6000602082019050818103600083015261104d81611011565b9050919050565b7f656e74726f206120636f6e73756c746172000000000000000000000000000000600082015250565b600061108a601183610ec4565b915061109582611054565b602082019050919050565b600060208201905081810360008301526110b98161107d565b9050919050565b60006110d36110ce84610810565b6107e6565b9050828152602081018484840111156110ef576110ee61080b565b5b6110fa848285610b23565b509392505050565b600082601f83011261111757611116610806565b5b81516111278482602086016110c0565b91505092915050565b60008151905061113f816108cc565b92915050565b600060e0828403121561115b5761115a610770565b5b61116560e06107e6565b9050600082015167ffffffffffffffff81111561118557611184610801565b5b61119184828501611102565b600083015250602082015167ffffffffffffffff8111156111b5576111b4610801565b5b6111c184828501611102565b602083015250604082015167ffffffffffffffff8111156111e5576111e4610801565b5b6111f184828501611102565b604083015250606082015167ffffffffffffffff81111561121557611214610801565b5b61122184828501611102565b606083015250608082015167ffffffffffffffff81111561124557611244610801565b5b61125184828501611102565b60808301525060a082015167ffffffffffffffff81111561127557611274610801565b5b61128184828501611102565b60a08301525060c061129584828501611130565b60c08301525092915050565b6000602082840312156112b7576112b6610708565b5b600082015167ffffffffffffffff8111156112d5576112d461070d565b5b6112e184828501611145565b91505092915050565b7f656e636f6e74726f206c6120706572736f6e6100000000000000000000000000600082015250565b6000611320601383610ec4565b915061132b826112ea565b602082019050919050565b6000602082019050818103600083015261134f81611313565b9050919050565b7f457374612066756e63696f6e20736f6c6f2070756564652073657220656a656360008201527f757461646120706f7220656c2063726561646f722064656c20636f6e7472617460208201527f6f00000000000000000000000000000000000000000000000000000000000000604082015250565b60006113d8604183610ec4565b91506113e382611356565b606082019050919050565b60006020820190508181036000830152611407816113cb565b905091905056fea2646970667358221220e8183bfab76771d98e6a2dc568e638f0e764a3f456a8e0e29643c85b8ccd486964736f6c634300080b0033",
  "immutableReferences": {},
  "source": "pragma solidity ^0.8.10; \n\nimport \"./Persona.sol\";\nimport \"./Usuario.sol\";\nimport \"../models/PersonaStruct.sol\";\nimport \"../persistence/PersonaDAO.sol\";\n\ncontract Medico is Persona {\n    address public creador;\n\n    struct MedicoStruct {\n        PersonaStruct persona;\n        string especialidad;\n        string usuario;\n        string contrasena;\n    }\n\n    // EstadoStruct private estado;\n\n    struct PerfilMedicoSistemaExternoStruct {\n        string primerNombre;\n        string segundoNombre;\n        string primerApellido;\n        string segundoApellido;\n        string identificacion; // TODO: agregar tipo de identificacion\n        string especialidad;\n    }\n\n    constructor() public {\n        creador = msg.sender; // creador del contrato\n    }\n\n    function login() public view returns (Persona) {\n        address direccion = msg.sender;\n        // TODO: buscar persona en arreglo\n    }\n\n    // TODO: buscar porque es uint256\n    function buscarPermisosDeRol(uint256 funcionId) public view returns (bool) {\n        address direccion = msg.sender;\n        // TODO: esto es como un filtro (averiguar si lo hay en solidity) y sirve para ver si un usario tiene acceso a x metodo\n    }\n}",
  "sourcePath": "/home/felipe/Documentos/Blockchain/codigo/back-hce/contracts/logica/Medico.sol",
  "compiler": {
    "name": "solc",
    "version": "0.8.11+commit.d7f03943.Emscripten.clang"
  },
  "schemaVersion": "3.4.4",
  "updatedAt": "2022-01-25T01:10:17.772Z",
  "networkType": "ethereum",
  "devdoc": {
    "kind": "dev",
    "methods": {},
    "version": 1
  },
  "userdoc": {
    "kind": "user",
    "methods": {},
    "version": 1
  }
}