{
  "contractName": "Medico",
  "abi": [
    {
      "inputs": [],
      "stateMutability": "nonpayable",
      "type": "constructor"
    },
    {
      "anonymous": false,
      "inputs": [
        {
          "indexed": false,
          "internalType": "string",
          "name": "data",
          "type": "string"
        }
      ],
      "name": "Log",
      "type": "event"
    },
    {
      "inputs": [],
      "name": "ContratoMedicoDAOAddress",
      "outputs": [
        {
          "internalType": "address",
          "name": "",
          "type": "address"
        }
      ],
      "stateMutability": "view",
      "type": "function"
    },
    {
      "inputs": [],
      "name": "ContratoPersonaAddress",
      "outputs": [
        {
          "internalType": "address",
          "name": "",
          "type": "address"
        }
      ],
      "stateMutability": "view",
      "type": "function"
    },
    {
      "inputs": [],
      "name": "creador",
      "outputs": [
        {
          "internalType": "address",
          "name": "",
          "type": "address"
        }
      ],
      "stateMutability": "view",
      "type": "function"
    },
    {
      "inputs": [
        {
          "internalType": "address",
          "name": "direccion",
          "type": "address"
        }
      ],
      "name": "consultar",
      "outputs": [
        {
          "components": [
            {
              "components": [
                {
                  "internalType": "string",
                  "name": "primerNombre",
                  "type": "string"
                },
                {
                  "internalType": "string",
                  "name": "segundoNombre",
                  "type": "string"
                },
                {
                  "internalType": "string",
                  "name": "primerApellido",
                  "type": "string"
                },
                {
                  "internalType": "string",
                  "name": "segundoApellido",
                  "type": "string"
                },
                {
                  "internalType": "string",
                  "name": "identificacion",
                  "type": "string"
                },
                {
                  "components": [
                    {
                      "internalType": "string",
                      "name": "nombre",
                      "type": "string"
                    },
                    {
                      "internalType": "string",
                      "name": "descripcion",
                      "type": "string"
                    },
                    {
                      "internalType": "bool",
                      "name": "estaActiva",
                      "type": "bool"
                    }
                  ],
                  "internalType": "struct TipoIdentificacionStruct",
                  "name": "tipoIdentificacion",
                  "type": "tuple"
                },
                {
                  "internalType": "bool",
                  "name": "isValue",
                  "type": "bool"
                }
              ],
              "internalType": "struct PersonaStruct",
              "name": "persona",
              "type": "tuple"
            },
            {
              "components": [
                {
                  "internalType": "string",
                  "name": "estado",
                  "type": "string"
                },
                {
                  "internalType": "string",
                  "name": "especialidad",
                  "type": "string"
                },
                {
                  "internalType": "string",
                  "name": "usuario",
                  "type": "string"
                },
                {
                  "internalType": "string",
                  "name": "contrasena",
                  "type": "string"
                },
                {
                  "internalType": "bool",
                  "name": "isValue",
                  "type": "bool"
                }
              ],
              "internalType": "struct MedicoStruct",
              "name": "medico",
              "type": "tuple"
            }
          ],
          "internalType": "struct Medico.PersonaMedicoStruct",
          "name": "medicoInfo",
          "type": "tuple"
        }
      ],
      "stateMutability": "nonpayable",
      "type": "function"
    },
    {
      "inputs": [
        {
          "internalType": "address",
          "name": "direccion",
          "type": "address"
        }
      ],
      "name": "consultarMedico",
      "outputs": [
        {
          "components": [
            {
              "internalType": "string",
              "name": "estado",
              "type": "string"
            },
            {
              "internalType": "string",
              "name": "especialidad",
              "type": "string"
            },
            {
              "internalType": "string",
              "name": "usuario",
              "type": "string"
            },
            {
              "internalType": "string",
              "name": "contrasena",
              "type": "string"
            },
            {
              "internalType": "bool",
              "name": "isValue",
              "type": "bool"
            }
          ],
          "internalType": "struct MedicoStruct",
          "name": "",
          "type": "tuple"
        }
      ],
      "stateMutability": "nonpayable",
      "type": "function"
    },
    {
      "inputs": [
        {
          "internalType": "address",
          "name": "direccion",
          "type": "address"
        }
      ],
      "name": "consultarPersona",
      "outputs": [
        {
          "components": [
            {
              "internalType": "string",
              "name": "primerNombre",
              "type": "string"
            },
            {
              "internalType": "string",
              "name": "segundoNombre",
              "type": "string"
            },
            {
              "internalType": "string",
              "name": "primerApellido",
              "type": "string"
            },
            {
              "internalType": "string",
              "name": "segundoApellido",
              "type": "string"
            },
            {
              "internalType": "string",
              "name": "identificacion",
              "type": "string"
            },
            {
              "components": [
                {
                  "internalType": "string",
                  "name": "nombre",
                  "type": "string"
                },
                {
                  "internalType": "string",
                  "name": "descripcion",
                  "type": "string"
                },
                {
                  "internalType": "bool",
                  "name": "estaActiva",
                  "type": "bool"
                }
              ],
              "internalType": "struct TipoIdentificacionStruct",
              "name": "tipoIdentificacion",
              "type": "tuple"
            },
            {
              "internalType": "bool",
              "name": "isValue",
              "type": "bool"
            }
          ],
          "internalType": "struct PersonaStruct",
          "name": "",
          "type": "tuple"
        }
      ],
      "stateMutability": "nonpayable",
      "type": "function"
    },
    {
      "inputs": [
        {
          "internalType": "address",
          "name": "direccion",
          "type": "address"
        },
        {
          "components": [
            {
              "internalType": "string",
              "name": "estado",
              "type": "string"
            },
            {
              "internalType": "string",
              "name": "especialidad",
              "type": "string"
            },
            {
              "internalType": "string",
              "name": "usuario",
              "type": "string"
            },
            {
              "internalType": "string",
              "name": "contrasena",
              "type": "string"
            },
            {
              "internalType": "bool",
              "name": "isValue",
              "type": "bool"
            }
          ],
          "internalType": "struct MedicoStruct",
          "name": "medico",
          "type": "tuple"
        }
      ],
      "name": "registrar",
      "outputs": [],
      "stateMutability": "nonpayable",
      "type": "function"
    },
    {
      "inputs": [
        {
          "internalType": "address",
          "name": "direccion",
          "type": "address"
        }
      ],
      "name": "setContratoPersonaAddress",
      "outputs": [],
      "stateMutability": "nonpayable",
      "type": "function"
    },
    {
      "inputs": [
        {
          "internalType": "address",
          "name": "direccion",
          "type": "address"
        }
      ],
      "name": "setContratoPacienteDAOAddress",
      "outputs": [],
      "stateMutability": "nonpayable",
      "type": "function"
    }
  ],
  "bytecode": "0x608060405234801561001057600080fd5b50336000806101000a81548173ffffffffffffffffffffffffffffffffffffffff021916908373ffffffffffffffffffffffffffffffffffffffff160217905550611d0b806100606000396000f3fe608060405234801561001057600080fd5b50600436106100935760003560e01c806380ac891c1161006657806380ac891c1461011c57806380bce0301461013a578063928c135c1461016a57806392ebdcd21461018857806398b8fe71146101a657610093565b8063176279941461009857806340cd7a60146100b45780634845da3e146100d05780637da8f6a5146100ec575b600080fd5b6100b260048036038101906100ad9190610e26565b6101d6565b005b6100ce60048036038101906100c99190610e82565b610347565b005b6100ea60048036038101906100e59190610e82565b61047c565b005b61010660048036038101906101019190610e82565b6105b1565b604051610113919061112b565b60405180910390f35b610124610615565b604051610131919061115c565b60405180910390f35b610154600480360381019061014f9190610e82565b61063b565b6040516101619190611202565b60405180910390f35b610172610831565b60405161017f919061115c565b60405180910390f35b610190610857565b60405161019d919061115c565b60405180910390f35b6101c060048036038101906101bb9190610e82565b61087b565b6040516101cd91906112e3565b60405180910390f35b600360009054906101000a900473ffffffffffffffffffffffffffffffffffffffff1673ffffffffffffffffffffffffffffffffffffffff166333b6fb8983836040518363ffffffff1660e01b8152600401610233929190611305565b600060405180830381600087803b15801561024d57600080fd5b505af192505050801561025e575060015b61030d5761026a611342565b806308c379a014156102fc575061027f611364565b8061028a57506102fe565b7fcf34ef537ac33ee1ac626ca1587a0a7e8e51561e5514f8cb36afa1c5102b3bab6040516102b79061147d565b60405180910390a17fcf34ef537ac33ee1ac626ca1587a0a7e8e51561e5514f8cb36afa1c5102b3bab816040516102ee91906114d6565b60405180910390a150610308565b505b3d6000803e3d6000fd5b610343565b7fcf34ef537ac33ee1ac626ca1587a0a7e8e51561e5514f8cb36afa1c5102b3bab60405161033a9061156a565b60405180910390a15b5050565b60008054906101000a900473ffffffffffffffffffffffffffffffffffffffff1673ffffffffffffffffffffffffffffffffffffffff163373ffffffffffffffffffffffffffffffffffffffff16146103d5576040517f08c379a00000000000000000000000000000000000000000000000000000000081526004016103cc90611622565b60405180910390fd5b80600260006101000a81548173ffffffffffffffffffffffffffffffffffffffff021916908373ffffffffffffffffffffffffffffffffffffffff160217905550600260009054906101000a900473ffffffffffffffffffffffffffffffffffffffff16600460006101000a81548173ffffffffffffffffffffffffffffffffffffffff021916908373ffffffffffffffffffffffffffffffffffffffff16021790555050565b60008054906101000a900473ffffffffffffffffffffffffffffffffffffffff1673ffffffffffffffffffffffffffffffffffffffff163373ffffffffffffffffffffffffffffffffffffffff161461050a576040517f08c379a000000000000000000000000000000000000000000000000000000000815260040161050190611622565b60405180910390fd5b80600160006101000a81548173ffffffffffffffffffffffffffffffffffffffff021916908373ffffffffffffffffffffffffffffffffffffffff160217905550600160009054906101000a900473ffffffffffffffffffffffffffffffffffffffff16600360006101000a81548173ffffffffffffffffffffffffffffffffffffffff021916908373ffffffffffffffffffffffffffffffffffffffff16021790555050565b6105b9610a71565b7fcf34ef537ac33ee1ac626ca1587a0a7e8e51561e5514f8cb36afa1c5102b3bab6040516105e69061168e565b60405180910390a16105f78261063b565b81602001819052506106088261087b565b8160000181905250919050565b600160009054906101000a900473ffffffffffffffffffffffffffffffffffffffff1681565b610643610a97565b7fcf34ef537ac33ee1ac626ca1587a0a7e8e51561e5514f8cb36afa1c5102b3bab604051610670906116fa565b60405180910390a1600360009054906101000a900473ffffffffffffffffffffffffffffffffffffffff1673ffffffffffffffffffffffffffffffffffffffff16637da8f6a5836040518263ffffffff1660e01b81526004016106d3919061115c565b6000604051808303816000875af192505050801561071457506040513d6000823e3d601f19601f82011682018060405250810190610711919061189b565b60015b6107f357610720611342565b806308c379a014156107e75750610735611364565b8061074057506107e9565b7fcf34ef537ac33ee1ac626ca1587a0a7e8e51561e5514f8cb36afa1c5102b3bab60405161076d9061147d565b60405180910390a17fcf34ef537ac33ee1ac626ca1587a0a7e8e51561e5514f8cb36afa1c5102b3bab816040516107a491906114d6565b60405180910390a16040517f08c379a00000000000000000000000000000000000000000000000000000000081526004016107de90611930565b60405180910390fd5b505b3d6000803e3d6000fd5b7fcf34ef537ac33ee1ac626ca1587a0a7e8e51561e5514f8cb36afa1c5102b3bab6040516108209061199c565b60405180910390a180915050919050565b600260009054906101000a900473ffffffffffffffffffffffffffffffffffffffff1681565b60008054906101000a900473ffffffffffffffffffffffffffffffffffffffff1681565b610883610ac8565b7fcf34ef537ac33ee1ac626ca1587a0a7e8e51561e5514f8cb36afa1c5102b3bab6040516108b09061168e565b60405180910390a1600460009054906101000a900473ffffffffffffffffffffffffffffffffffffffff1673ffffffffffffffffffffffffffffffffffffffff16637da8f6a5836040518263ffffffff1660e01b8152600401610913919061115c565b6000604051808303816000875af192505050801561095457506040513d6000823e3d601f19601f820116820180604052508101906109519190611bb4565b60015b610a3357610960611342565b806308c379a01415610a275750610975611364565b806109805750610a29565b7fcf34ef537ac33ee1ac626ca1587a0a7e8e51561e5514f8cb36afa1c5102b3bab6040516109ad9061147d565b60405180910390a17fcf34ef537ac33ee1ac626ca1587a0a7e8e51561e5514f8cb36afa1c5102b3bab816040516109e491906114d6565b60405180910390a16040517f08c379a0000000000000000000000000000000000000000000000000000000008152600401610a1e90611c49565b60405180910390fd5b505b3d6000803e3d6000fd5b7fcf34ef537ac33ee1ac626ca1587a0a7e8e51561e5514f8cb36afa1c5102b3bab604051610a6090611cb5565b60405180910390a180915050919050565b6040518060400160405280610a84610ac8565b8152602001610a91610a97565b81525090565b6040518060a00160405280606081526020016060815260200160608152602001606081526020016000151581525090565b6040518060e001604052806060815260200160608152602001606081526020016060815260200160608152602001610afe610b0d565b81526020016000151581525090565b604051806060016040528060608152602001606081526020016000151581525090565b6000604051905090565b600080fd5b600080fd5b600073ffffffffffffffffffffffffffffffffffffffff82169050919050565b6000610b6f82610b44565b9050919050565b610b7f81610b64565b8114610b8a57600080fd5b50565b600081359050610b9c81610b76565b92915050565b600080fd5b6000601f19601f8301169050919050565b7f4e487b7100000000000000000000000000000000000000000000000000000000600052604160045260246000fd5b610bf082610ba7565b810181811067ffffffffffffffff82111715610c0f57610c0e610bb8565b5b80604052505050565b6000610c22610b30565b9050610c2e8282610be7565b919050565b600080fd5b600080fd5b600080fd5b600067ffffffffffffffff821115610c5d57610c5c610bb8565b5b610c6682610ba7565b9050602081019050919050565b82818337600083830152505050565b6000610c95610c9084610c42565b610c18565b905082815260208101848484011115610cb157610cb0610c3d565b5b610cbc848285610c73565b509392505050565b600082601f830112610cd957610cd8610c38565b5b8135610ce9848260208601610c82565b91505092915050565b60008115159050919050565b610d0781610cf2565b8114610d1257600080fd5b50565b600081359050610d2481610cfe565b92915050565b600060a08284031215610d4057610d3f610ba2565b5b610d4a60a0610c18565b9050600082013567ffffffffffffffff811115610d6a57610d69610c33565b5b610d7684828501610cc4565b600083015250602082013567ffffffffffffffff811115610d9a57610d99610c33565b5b610da684828501610cc4565b602083015250604082013567ffffffffffffffff811115610dca57610dc9610c33565b5b610dd684828501610cc4565b604083015250606082013567ffffffffffffffff811115610dfa57610df9610c33565b5b610e0684828501610cc4565b6060830152506080610e1a84828501610d15565b60808301525092915050565b60008060408385031215610e3d57610e3c610b3a565b5b6000610e4b85828601610b8d565b925050602083013567ffffffffffffffff811115610e6c57610e6b610b3f565b5b610e7885828601610d2a565b9150509250929050565b600060208284031215610e9857610e97610b3a565b5b6000610ea684828501610b8d565b91505092915050565b600081519050919050565b600082825260208201905092915050565b60005b83811015610ee9578082015181840152602081019050610ece565b83811115610ef8576000848401525b50505050565b6000610f0982610eaf565b610f138185610eba565b9350610f23818560208601610ecb565b610f2c81610ba7565b840191505092915050565b610f4081610cf2565b82525050565b60006060830160008301518482036000860152610f638282610efe565b91505060208301518482036020860152610f7d8282610efe565b9150506040830151610f926040860182610f37565b508091505092915050565b600060e0830160008301518482036000860152610fba8282610efe565b91505060208301518482036020860152610fd48282610efe565b91505060408301518482036040860152610fee8282610efe565b915050606083015184820360608601526110088282610efe565b915050608083015184820360808601526110228282610efe565b91505060a083015184820360a086015261103c8282610f46565b91505060c083015161105160c0860182610f37565b508091505092915050565b600060a08301600083015184820360008601526110798282610efe565b915050602083015184820360208601526110938282610efe565b915050604083015184820360408601526110ad8282610efe565b915050606083015184820360608601526110c78282610efe565b91505060808301516110dc6080860182610f37565b508091505092915050565b600060408301600083015184820360008601526111048282610f9d565b9150506020830151848203602086015261111e828261105c565b9150508091505092915050565b6000602082019050818103600083015261114581846110e7565b905092915050565b61115681610b64565b82525050565b6000602082019050611171600083018461114d565b92915050565b600060a08301600083015184820360008601526111948282610efe565b915050602083015184820360208601526111ae8282610efe565b915050604083015184820360408601526111c88282610efe565b915050606083015184820360608601526111e28282610efe565b91505060808301516111f76080860182610f37565b508091505092915050565b6000602082019050818103600083015261121c8184611177565b905092915050565b600060e08301600083015184820360008601526112418282610efe565b9150506020830151848203602086015261125b8282610efe565b915050604083015184820360408601526112758282610efe565b9150506060830151848203606086015261128f8282610efe565b915050608083015184820360808601526112a98282610efe565b91505060a083015184820360a08601526112c38282610f46565b91505060c08301516112d860c0860182610f37565b508091505092915050565b600060208201905081810360008301526112fd8184611224565b905092915050565b600060408201905061131a600083018561114d565b818103602083015261132c8184611177565b90509392505050565b60008160e01c9050919050565b600060033d11156113615760046000803e61135e600051611335565b90505b90565b600060443d1015611374576113f7565b61137c610b30565b60043d036004823e80513d602482011167ffffffffffffffff821117156113a45750506113f7565b808201805167ffffffffffffffff8111156113c257505050506113f7565b80602083010160043d0385018111156113df5750505050506113f7565b6113ee82602001850186610be7565b82955050505050505b90565b600082825260208201905092915050565b7f736520726f6d70696f20706f7220756e20726576657274206f2072657175697260008201527f6500000000000000000000000000000000000000000000000000000000000000602082015250565b60006114676021836113fa565b91506114728261140b565b604082019050919050565b600060208201905081810360008301526114968161145a565b9050919050565b60006114a882610eaf565b6114b281856113fa565b93506114c2818560208601610ecb565b6114cb81610ba7565b840191505092915050565b600060208201905081810360008301526114f0818461149d565b905092915050565b7f536520677561726461206c6120696e666f726d6163696f6e2064656c206d656460008201527f69636f20636f7272656374616d656e7465000000000000000000000000000000602082015250565b60006115546031836113fa565b915061155f826114f8565b604082019050919050565b6000602082019050818103600083015261158381611547565b9050919050565b7f457374612066756e63696f6e20736f6c6f2070756564652073657220656a656360008201527f757461646120706f7220656c2063726561646f722064656c20636f6e7472617460208201527f6f00000000000000000000000000000000000000000000000000000000000000604082015250565b600061160c6041836113fa565b91506116178261158a565b606082019050919050565b6000602082019050818103600083015261163b816115ff565b9050919050565b7f656e74726f206120636f6e73756c746172000000000000000000000000000000600082015250565b60006116786011836113fa565b915061168382611642565b602082019050919050565b600060208201905081810360008301526116a78161166b565b9050919050565b7f656e74726f206120636f6e73756c7461722050616369656e7465000000000000600082015250565b60006116e4601a836113fa565b91506116ef826116ae565b602082019050919050565b60006020820190508181036000830152611713816116d7565b9050919050565b600061172d61172884610c42565b610c18565b90508281526020810184848401111561174957611748610c3d565b5b611754848285610ecb565b509392505050565b600082601f83011261177157611770610c38565b5b815161178184826020860161171a565b91505092915050565b60008151905061179981610cfe565b92915050565b600060a082840312156117b5576117b4610ba2565b5b6117bf60a0610c18565b9050600082015167ffffffffffffffff8111156117df576117de610c33565b5b6117eb8482850161175c565b600083015250602082015167ffffffffffffffff81111561180f5761180e610c33565b5b61181b8482850161175c565b602083015250604082015167ffffffffffffffff81111561183f5761183e610c33565b5b61184b8482850161175c565b604083015250606082015167ffffffffffffffff81111561186f5761186e610c33565b5b61187b8482850161175c565b606083015250608061188f8482850161178a565b60808301525092915050565b6000602082840312156118b1576118b0610b3a565b5b600082015167ffffffffffffffff8111156118cf576118ce610b3f565b5b6118db8482850161179f565b91505092915050565b7f4e6f2065786973746520657365206d656469636f000000000000000000000000600082015250565b600061191a6014836113fa565b9150611925826118e4565b602082019050919050565b600060208201905081810360008301526119498161190d565b9050919050565b7f656e636f6e74726f20656c206d656469636f0000000000000000000000000000600082015250565b60006119866012836113fa565b915061199182611950565b602082019050919050565b600060208201905081810360008301526119b581611979565b9050919050565b6000606082840312156119d2576119d1610ba2565b5b6119dc6060610c18565b9050600082015167ffffffffffffffff8111156119fc576119fb610c33565b5b611a088482850161175c565b600083015250602082015167ffffffffffffffff811115611a2c57611a2b610c33565b5b611a388482850161175c565b6020830152506040611a4c8482850161178a565b60408301525092915050565b600060e08284031215611a6e57611a6d610ba2565b5b611a7860e0610c18565b9050600082015167ffffffffffffffff811115611a9857611a97610c33565b5b611aa48482850161175c565b600083015250602082015167ffffffffffffffff811115611ac857611ac7610c33565b5b611ad48482850161175c565b602083015250604082015167ffffffffffffffff811115611af857611af7610c33565b5b611b048482850161175c565b604083015250606082015167ffffffffffffffff811115611b2857611b27610c33565b5b611b348482850161175c565b606083015250608082015167ffffffffffffffff811115611b5857611b57610c33565b5b611b648482850161175c565b60808301525060a082015167ffffffffffffffff811115611b8857611b87610c33565b5b611b94848285016119bc565b60a08301525060c0611ba88482850161178a565b60c08301525092915050565b600060208284031215611bca57611bc9610b3a565b5b600082015167ffffffffffffffff811115611be857611be7610b3f565b5b611bf484828501611a58565b91505092915050565b7f4e6f20657869737465206573652070616369656e746500000000000000000000600082015250565b6000611c336016836113fa565b9150611c3e82611bfd565b602082019050919050565b60006020820190508181036000830152611c6281611c26565b9050919050565b7f656e636f6e74726f206c6120706572736f6e6100000000000000000000000000600082015250565b6000611c9f6013836113fa565b9150611caa82611c69565b602082019050919050565b60006020820190508181036000830152611cce81611c92565b905091905056fea2646970667358221220b952312f4a889d2379e0703845c231450d46f59eb79dc8428cc0bb3fa73e334664736f6c634300080b0033",
  "immutableReferences": {},
  "source": "pragma solidity ^0.8.10;\n\nimport \"./Persona.sol\";\n// import \"./Usuario.sol\";\nimport \"../models/PersonaStruct.sol\";\nimport \"../models/MedicoStruct.sol\";\nimport \"../persistence/MedicoDAO.sol\";\n\n// TODO: cambiar el diagrama, no puede heredar pero si puede usar o componerse de persona\ncontract Medico {\n    // TODO: consumir este evento desde una clase heredada o algo as\n    event Log(string data);\n    address public creador;\n    address public ContratoMedicoDAOAddress;\n    address public ContratoPersonaAddress;\n\n    MedicoDAO private contratoMedicoDAO;\n    Persona private contratoPersona;\n\n    struct PersonaMedicoStruct {\n        PersonaStruct persona;\n        MedicoStruct medico;\n    }\n\n    struct PerfilMedicoSistemaExternoStruct {\n        string primerNombre;\n        string segundoNombre;\n        string primerApellido;\n        string segundoApellido;\n        string identificacion; // TODO: agregar tipo de identificacion\n        string especialidad;\n    }\n\n    constructor() {\n        creador = msg.sender; // creador del contrato\n    }\n\n    function consultar(address direccion)\n        public\n        returns (PersonaMedicoStruct memory medicoInfo)\n    {\n        emit Log(\"entro a consultar\");\n        medicoInfo.medico = consultarMedico(direccion);\n        medicoInfo.persona = consultarPersona(direccion);\n    }\n\n    function consultarMedico(address direccion)\n        public\n        returns (MedicoStruct memory)\n    {\n        emit Log(\"entro a consultar Paciente\");\n        try contratoMedicoDAO.consultar(direccion) returns (\n            MedicoStruct memory response\n        ) {\n            emit Log(\"encontro el medico\");\n            return response;\n        } catch Error(string memory e) {\n            /*reason*/\n            emit Log(\"se rompio por un revert o require\");\n            emit Log(e);\n            revert(\"No existe ese medico\");\n        }\n    }\n\n    function consultarPersona(address direccion)\n        public\n        returns (PersonaStruct memory)\n    {\n        emit Log(\"entro a consultar\");\n        try contratoPersona.consultar(direccion) returns (\n            PersonaStruct memory response\n        ) {\n            emit Log(\"encontro la persona\");\n            return response;\n        } catch Error(string memory e) {\n            /*reason*/\n            emit Log(\"se rompio por un revert o require\");\n            emit Log(e);\n            revert(\"No existe ese paciente\");\n        }\n    }\n\n    function registrar(address direccion, MedicoStruct memory medico) public {\n        try contratoMedicoDAO.guardar(direccion, medico) {\n            emit Log(\"Se guarda la informacion del medico correctamente\");\n        } catch Error(string memory data) {\n            /*reason*/\n            emit Log(\"se rompio por un revert o require\");\n            emit Log(data);\n        }\n    }\n\n    function setContratoPersonaAddress(address direccion) public esPropietario {\n        ContratoPersonaAddress = direccion;\n        contratoPersona = Persona(ContratoPersonaAddress);\n    }\n\n    function setContratoPacienteDAOAddress(address direccion)\n        public\n        esPropietario\n    {\n        ContratoMedicoDAOAddress = direccion;\n        contratoMedicoDAO = MedicoDAO(ContratoMedicoDAOAddress);\n    }\n\n    // TODO: poner en clase generica y reusarlo\n    modifier esPropietario() {\n        require(\n            msg.sender == creador,\n            \"Esta funcion solo puede ser ejecutada por el creador del contrato\"\n        );\n        _; // ac se ejecuta la funcin\n    }\n}\n",
  "sourcePath": "/home/felipe/Documentos/Blockchain/codigo/back-hce/contracts/logica/Medico.sol",
  "compiler": {
    "name": "solc",
    "version": "0.8.11+commit.d7f03943.Emscripten.clang"
  },
  "schemaVersion": "3.4.4",
  "updatedAt": "2022-02-05T03:00:20.627Z",
  "devdoc": {
    "kind": "dev",
    "methods": {},
    "version": 1
  },
  "userdoc": {
    "kind": "user",
    "methods": {},
    "version": 1
  }
}