{
  "contractName": "MedicoVO",
  "abi": [
    {
      "inputs": [],
      "name": "getDireccion",
      "outputs": [
        {
          "internalType": "address",
          "name": "",
          "type": "address"
        }
      ],
      "stateMutability": "view",
      "type": "function"
    },
    {
      "inputs": [],
      "name": "getId",
      "outputs": [
        {
          "internalType": "uint256",
          "name": "",
          "type": "uint256"
        }
      ],
      "stateMutability": "view",
      "type": "function"
    },
    {
      "inputs": [],
      "name": "getIdentificacion",
      "outputs": [
        {
          "internalType": "string",
          "name": "",
          "type": "string"
        }
      ],
      "stateMutability": "view",
      "type": "function"
    },
    {
      "inputs": [],
      "name": "getIsValue",
      "outputs": [
        {
          "internalType": "bool",
          "name": "",
          "type": "bool"
        }
      ],
      "stateMutability": "view",
      "type": "function"
    },
    {
      "inputs": [],
      "name": "getPersonaStructValue",
      "outputs": [
        {
          "components": [
            {
              "internalType": "address",
              "name": "direccion",
              "type": "address"
            },
            {
              "internalType": "uint256",
              "name": "id",
              "type": "uint256"
            },
            {
              "internalType": "string",
              "name": "primerNombre",
              "type": "string"
            },
            {
              "internalType": "string",
              "name": "segundoNombre",
              "type": "string"
            },
            {
              "internalType": "string",
              "name": "primerApellido",
              "type": "string"
            },
            {
              "internalType": "string",
              "name": "segundoApellido",
              "type": "string"
            },
            {
              "internalType": "string",
              "name": "identificacion",
              "type": "string"
            },
            {
              "internalType": "uint256",
              "name": "tipoIdentificacion",
              "type": "uint256"
            },
            {
              "internalType": "bool",
              "name": "isValue",
              "type": "bool"
            }
          ],
          "internalType": "struct Persona.PersonaStruct",
          "name": "",
          "type": "tuple"
        }
      ],
      "stateMutability": "view",
      "type": "function"
    },
    {
      "inputs": [],
      "name": "getPrimerApellido",
      "outputs": [
        {
          "internalType": "string",
          "name": "",
          "type": "string"
        }
      ],
      "stateMutability": "view",
      "type": "function"
    },
    {
      "inputs": [],
      "name": "getPrimerNombre",
      "outputs": [
        {
          "internalType": "string",
          "name": "",
          "type": "string"
        }
      ],
      "stateMutability": "view",
      "type": "function"
    },
    {
      "inputs": [],
      "name": "getSegundoApellido",
      "outputs": [
        {
          "internalType": "string",
          "name": "",
          "type": "string"
        }
      ],
      "stateMutability": "view",
      "type": "function"
    },
    {
      "inputs": [],
      "name": "getSegundoNombre",
      "outputs": [
        {
          "internalType": "string",
          "name": "",
          "type": "string"
        }
      ],
      "stateMutability": "view",
      "type": "function"
    },
    {
      "inputs": [],
      "name": "getTipoIdentificacionId",
      "outputs": [
        {
          "internalType": "contract TipoIdentificacionVO",
          "name": "",
          "type": "address"
        }
      ],
      "stateMutability": "view",
      "type": "function"
    },
    {
      "inputs": [
        {
          "internalType": "address",
          "name": "_direccion",
          "type": "address"
        }
      ],
      "name": "setDireccion",
      "outputs": [],
      "stateMutability": "nonpayable",
      "type": "function"
    },
    {
      "inputs": [
        {
          "internalType": "uint256",
          "name": "_id",
          "type": "uint256"
        }
      ],
      "name": "setId",
      "outputs": [],
      "stateMutability": "nonpayable",
      "type": "function"
    },
    {
      "inputs": [
        {
          "internalType": "string",
          "name": "_identificacion",
          "type": "string"
        }
      ],
      "name": "setIdentificacion",
      "outputs": [],
      "stateMutability": "nonpayable",
      "type": "function"
    },
    {
      "inputs": [
        {
          "internalType": "bool",
          "name": "_isValue",
          "type": "bool"
        }
      ],
      "name": "setIsValue",
      "outputs": [],
      "stateMutability": "nonpayable",
      "type": "function"
    },
    {
      "inputs": [
        {
          "internalType": "string",
          "name": "_primerApellido",
          "type": "string"
        }
      ],
      "name": "setPrimerApellido",
      "outputs": [],
      "stateMutability": "nonpayable",
      "type": "function"
    },
    {
      "inputs": [
        {
          "internalType": "string",
          "name": "_primerNombre",
          "type": "string"
        }
      ],
      "name": "setPrimerNombre",
      "outputs": [],
      "stateMutability": "nonpayable",
      "type": "function"
    },
    {
      "inputs": [
        {
          "internalType": "string",
          "name": "_segundoApellido",
          "type": "string"
        }
      ],
      "name": "setSegundoApellido",
      "outputs": [],
      "stateMutability": "nonpayable",
      "type": "function"
    },
    {
      "inputs": [
        {
          "internalType": "string",
          "name": "_segundoNombre",
          "type": "string"
        }
      ],
      "name": "setSegundoNombre",
      "outputs": [],
      "stateMutability": "nonpayable",
      "type": "function"
    },
    {
      "inputs": [
        {
          "internalType": "contract TipoIdentificacionVO",
          "name": "_tipoIdentificacion",
          "type": "address"
        }
      ],
      "name": "setTipoIdentificacionId",
      "outputs": [],
      "stateMutability": "nonpayable",
      "type": "function"
    },
    {
      "inputs": [
        {
          "components": [
            {
              "internalType": "address",
              "name": "direccion",
              "type": "address"
            },
            {
              "internalType": "uint256",
              "name": "id",
              "type": "uint256"
            },
            {
              "internalType": "string",
              "name": "primerNombre",
              "type": "string"
            },
            {
              "internalType": "string",
              "name": "segundoNombre",
              "type": "string"
            },
            {
              "internalType": "string",
              "name": "primerApellido",
              "type": "string"
            },
            {
              "internalType": "string",
              "name": "segundoApellido",
              "type": "string"
            },
            {
              "internalType": "string",
              "name": "identificacion",
              "type": "string"
            },
            {
              "internalType": "uint256",
              "name": "tipoIdentificacion",
              "type": "uint256"
            },
            {
              "internalType": "bool",
              "name": "isValue",
              "type": "bool"
            }
          ],
          "internalType": "struct Persona.PersonaStruct",
          "name": "_persona",
          "type": "tuple"
        },
        {
          "internalType": "contract TipoIdentificacionVO",
          "name": "_tipoIdentificacionVO",
          "type": "address"
        }
      ],
      "name": "setValuesOfPersonaStruct",
      "outputs": [],
      "stateMutability": "nonpayable",
      "type": "function"
    },
    {
      "inputs": [],
      "name": "getMedicoVOValue",
      "outputs": [
        {
          "components": [
            {
              "components": [
                {
                  "internalType": "address",
                  "name": "direccion",
                  "type": "address"
                },
                {
                  "internalType": "uint256",
                  "name": "id",
                  "type": "uint256"
                },
                {
                  "internalType": "string",
                  "name": "primerNombre",
                  "type": "string"
                },
                {
                  "internalType": "string",
                  "name": "segundoNombre",
                  "type": "string"
                },
                {
                  "internalType": "string",
                  "name": "primerApellido",
                  "type": "string"
                },
                {
                  "internalType": "string",
                  "name": "segundoApellido",
                  "type": "string"
                },
                {
                  "internalType": "string",
                  "name": "identificacion",
                  "type": "string"
                },
                {
                  "internalType": "uint256",
                  "name": "tipoIdentificacion",
                  "type": "uint256"
                },
                {
                  "internalType": "bool",
                  "name": "isValue",
                  "type": "bool"
                }
              ],
              "internalType": "struct Persona.PersonaStruct",
              "name": "persona",
              "type": "tuple"
            },
            {
              "internalType": "uint256",
              "name": "especialidadId",
              "type": "uint256"
            },
            {
              "internalType": "uint256",
              "name": "estadoId",
              "type": "uint256"
            }
          ],
          "internalType": "struct MedicoVO.MedicoVOStruct",
          "name": "",
          "type": "tuple"
        }
      ],
      "stateMutability": "view",
      "type": "function"
    },
    {
      "inputs": [
        {
          "components": [
            {
              "components": [
                {
                  "internalType": "address",
                  "name": "direccion",
                  "type": "address"
                },
                {
                  "internalType": "uint256",
                  "name": "id",
                  "type": "uint256"
                },
                {
                  "internalType": "string",
                  "name": "primerNombre",
                  "type": "string"
                },
                {
                  "internalType": "string",
                  "name": "segundoNombre",
                  "type": "string"
                },
                {
                  "internalType": "string",
                  "name": "primerApellido",
                  "type": "string"
                },
                {
                  "internalType": "string",
                  "name": "segundoApellido",
                  "type": "string"
                },
                {
                  "internalType": "string",
                  "name": "identificacion",
                  "type": "string"
                },
                {
                  "internalType": "uint256",
                  "name": "tipoIdentificacion",
                  "type": "uint256"
                },
                {
                  "internalType": "bool",
                  "name": "isValue",
                  "type": "bool"
                }
              ],
              "internalType": "struct Persona.PersonaStruct",
              "name": "persona",
              "type": "tuple"
            },
            {
              "internalType": "uint256",
              "name": "especialidadId",
              "type": "uint256"
            },
            {
              "internalType": "uint256",
              "name": "estadoId",
              "type": "uint256"
            }
          ],
          "internalType": "struct MedicoVO.MedicoVOStruct",
          "name": "_medicoVOStruct",
          "type": "tuple"
        },
        {
          "internalType": "contract EstadoVO",
          "name": "_estadoVO",
          "type": "address"
        },
        {
          "internalType": "contract TipoIdentificacionVO",
          "name": "_tipoIdentificacionVO",
          "type": "address"
        },
        {
          "internalType": "string",
          "name": "_usuario",
          "type": "string"
        },
        {
          "internalType": "string",
          "name": "_contrasena",
          "type": "string"
        }
      ],
      "name": "setValuesOfMedicoVOStruct",
      "outputs": [],
      "stateMutability": "nonpayable",
      "type": "function"
    },
    {
      "inputs": [],
      "name": "getEstado",
      "outputs": [
        {
          "internalType": "contract EstadoVO",
          "name": "",
          "type": "address"
        }
      ],
      "stateMutability": "view",
      "type": "function"
    },
    {
      "inputs": [],
      "name": "getEspecialidadId",
      "outputs": [
        {
          "internalType": "uint256",
          "name": "",
          "type": "uint256"
        }
      ],
      "stateMutability": "view",
      "type": "function"
    },
    {
      "inputs": [],
      "name": "getUsuario",
      "outputs": [
        {
          "internalType": "string",
          "name": "",
          "type": "string"
        }
      ],
      "stateMutability": "view",
      "type": "function"
    },
    {
      "inputs": [],
      "name": "getContrasena",
      "outputs": [
        {
          "internalType": "string",
          "name": "",
          "type": "string"
        }
      ],
      "stateMutability": "view",
      "type": "function"
    },
    {
      "inputs": [
        {
          "internalType": "contract EstadoVO",
          "name": "_estado",
          "type": "address"
        }
      ],
      "name": "setEstado",
      "outputs": [],
      "stateMutability": "nonpayable",
      "type": "function"
    },
    {
      "inputs": [
        {
          "internalType": "uint256",
          "name": "_especialidadId",
          "type": "uint256"
        }
      ],
      "name": "setEspecialidadId",
      "outputs": [],
      "stateMutability": "nonpayable",
      "type": "function"
    },
    {
      "inputs": [
        {
          "internalType": "string",
          "name": "_usuario",
          "type": "string"
        }
      ],
      "name": "setUsuario",
      "outputs": [],
      "stateMutability": "nonpayable",
      "type": "function"
    },
    {
      "inputs": [
        {
          "internalType": "string",
          "name": "_contrasena",
          "type": "string"
        }
      ],
      "name": "setContrasena",
      "outputs": [],
      "stateMutability": "nonpayable",
      "type": "function"
    }
  ],
  "bytecode": "0x608060405234801561001057600080fd5b506112f7806100206000396000f3fe608060405234801561001057600080fd5b50600436106101da5760003560e01c80637d5c303211610104578063cc9f930e116100a2578063eacd3b9311610071578063eacd3b931461041d578063ec1d22dd14610425578063ef974e8014610438578063f700f4e61461046857600080fd5b8063cc9f930e146103bf578063ccae5784146103d2578063d0e0ba95146103da578063d1e360ff146103ed57600080fd5b80639ac9abd0116100de5780639ac9abd014610394578063aee5de751461039c578063b2f9ccbb146103af578063c461d52e146103b757600080fd5b80637d5c30321461035b57806383cb77b0146103705780638ba686071461038357600080fd5b8063551a5cfa1161017c5780636d07d7e31161014b5780636d07d7e3146102dd578063765fe099146102ee578063787728ab1461030157806378c7e2921461031457600080fd5b8063551a5cfa1461026d5780635745ab98146102805780635d1ca631146102b057806360749724146102b857600080fd5b80633ca452b9116101b85780633ca452b91461022857806349bc8d181461023d5780634e8c23ca146102455780634f63ce131461025857600080fd5b806304a765b2146101df57806328fd4873146101f65780633c3c069f1461020b575b600080fd5b6009545b6040519081526020015b60405180910390f35b610209610204366004610cce565b61047b565b005b600754600160a01b900460ff1660405190151581526020016101ed565b61023061048b565b6040516101ed9190610d51565b61023061051d565b610209610253366004610cce565b61052c565b610260610538565b6040516101ed9190610e31565b61020961027b366004610cce565b6105de565b61020961028e366004610e95565b600080546001600160a01b0319166001600160a01b0392909216919091179055565b6001546101e3565b6000546001600160a01b03165b6040516001600160a01b0390911681526020016101ed565b6008546001600160a01b03166102c5565b6102096102fc366004610fd8565b6105ea565b61020961030f366004610cce565b6106b7565b61020961032236600461102a565b60078054911515600160a01b027fffffffffffffffffffffff00ffffffffffffffffffffffffffffffffffffffff909216919091179055565b6103636106c3565b6040516101ed9190611045565b61020961037e366004610cce565b610aa6565b6007546001600160a01b03166102c5565b610230610ab2565b6102096103aa366004611058565b600955565b610230610ac1565b610230610ad0565b6102096103cd366004610cce565b610adf565b610230610aeb565b6102096103e8366004611058565b600155565b6102096103fb366004610e95565b600780546001600160a01b0319166001600160a01b0392909216919091179055565b610230610afa565b610209610433366004610cce565b610b09565b610209610446366004610e95565b600880546001600160a01b0319166001600160a01b0392909216919091179055565b610209610476366004611071565b610b15565b600661048782826111e8565b5050565b60606002805461049a9061115f565b80601f01602080910402602001604051908101604052809291908181526020018280546104c69061115f565b80156105135780601f106104e857610100808354040283529160200191610513565b820191906000526020600020905b8154815290600101906020018083116104f657829003601f168201915b5050505050905090565b6060600a805461049a9061115f565b600561048782826111e8565b610540610b65565b60405180606001604052806105536106c3565b81526020016009548152602001600860009054906101000a90046001600160a01b03166001600160a01b0316635d1ca6316040518163ffffffff1660e01b8152600401602060405180830381865afa1580156105b3573d6000803e3d6000fd5b505050506040513d601f19601f820116820180604052508101906105d791906112a8565b9052919050565b600361048782826111e8565b6020820151600155604082015160029061060490826111e8565b50606082015160039061061790826111e8565b50608082015160049061062a90826111e8565b5060a082015160059061063d90826111e8565b5060c082015160069061065090826111e8565b50610100820151600780547fffffffffffffffffffffff00000000000000000000000000000000000000000016600160a01b921515929092026001600160a01b0319908116929092176001600160a01b039384161790559151600080549093169116179055565b600b61048782826111e8565b61071d60405180610120016040528060006001600160a01b03168152602001600081526020016060815260200160608152602001606081526020016060815260200160608152602001600081526020016000151581525090565b60408051610120810182526000546001600160a01b0316815260015460208201526002805491928301916107509061115f565b80601f016020809104026020016040519081016040528092919081815260200182805461077c9061115f565b80156107c95780601f1061079e576101008083540402835291602001916107c9565b820191906000526020600020905b8154815290600101906020018083116107ac57829003601f168201915b50505050508152602001600380546107e09061115f565b80601f016020809104026020016040519081016040528092919081815260200182805461080c9061115f565b80156108595780601f1061082e57610100808354040283529160200191610859565b820191906000526020600020905b81548152906001019060200180831161083c57829003601f168201915b50505050508152602001600480546108709061115f565b80601f016020809104026020016040519081016040528092919081815260200182805461089c9061115f565b80156108e95780601f106108be576101008083540402835291602001916108e9565b820191906000526020600020905b8154815290600101906020018083116108cc57829003601f168201915b50505050508152602001600580546109009061115f565b80601f016020809104026020016040519081016040528092919081815260200182805461092c9061115f565b80156109795780601f1061094e57610100808354040283529160200191610979565b820191906000526020600020905b81548152906001019060200180831161095c57829003601f168201915b50505050508152602001600680546109909061115f565b80601f01602080910402602001604051908101604052809291908181526020018280546109bc9061115f565b8015610a095780601f106109de57610100808354040283529160200191610a09565b820191906000526020600020905b8154815290600101906020018083116109ec57829003601f168201915b50505050508152602001600760009054906101000a90046001600160a01b03166001600160a01b0316635d1ca6316040518163ffffffff1660e01b8152600401602060405180830381865afa158015610a66573d6000803e3d6000fd5b505050506040513d601f19601f82011682018060405250810190610a8a91906112a8565b8152600754600160a01b900460ff161515602090910152919050565b600261048782826111e8565b60606006805461049a9061115f565b60606003805461049a9061115f565b60606004805461049a9061115f565b600461048782826111e8565b6060600b805461049a9061115f565b60606005805461049a9061115f565b600a61048782826111e8565b8451610b2190846105ea565b600880546001600160a01b0319166001600160a01b038616179055600a610b4883826111e8565b50600b610b5582826111e8565b5050506020909201516009555050565b6040518060600160405280610bca60405180610120016040528060006001600160a01b03168152602001600081526020016060815260200160608152602001606081526020016060815260200160608152602001600081526020016000151581525090565b815260200160008152602001600081525090565b634e487b7160e01b600052604160045260246000fd5b604051610120810167ffffffffffffffff81118282101715610c1857610c18610bde565b60405290565b6040516060810167ffffffffffffffff81118282101715610c1857610c18610bde565b600082601f830112610c5257600080fd5b813567ffffffffffffffff80821115610c6d57610c6d610bde565b604051601f8301601f19908116603f01168101908282118183101715610c9557610c95610bde565b81604052838152866020858801011115610cae57600080fd5b836020870160208301376000602085830101528094505050505092915050565b600060208284031215610ce057600080fd5b813567ffffffffffffffff811115610cf757600080fd5b610d0384828501610c41565b949350505050565b6000815180845260005b81811015610d3157602081850181015186830182015201610d15565b506000602082860101526020601f19601f83011685010191505092915050565b602081526000610d646020830184610d0b565b9392505050565b80516001600160a01b031682526000610120602083015160208501526040830151816040860152610d9e82860182610d0b565b91505060608301518482036060860152610db88282610d0b565b91505060808301518482036080860152610dd28282610d0b565b91505060a083015184820360a0860152610dec8282610d0b565b91505060c083015184820360c0860152610e068282610d0b565b91505060e083015160e085015261010080840151610e278287018215159052565b5090949350505050565b602081526000825160606020840152610e4d6080840182610d6b565b905060208401516040840152604084015160608401528091505092915050565b6001600160a01b0381168114610e8257600080fd5b50565b8035610e9081610e6d565b919050565b600060208284031215610ea757600080fd5b8135610d6481610e6d565b80358015158114610e9057600080fd5b60006101208284031215610ed557600080fd5b610edd610bf4565b9050610ee882610e85565b815260208201356020820152604082013567ffffffffffffffff80821115610f0f57600080fd5b610f1b85838601610c41565b60408401526060840135915080821115610f3457600080fd5b610f4085838601610c41565b60608401526080840135915080821115610f5957600080fd5b610f6585838601610c41565b608084015260a0840135915080821115610f7e57600080fd5b610f8a85838601610c41565b60a084015260c0840135915080821115610fa357600080fd5b50610fb084828501610c41565b60c08301525060e082013560e0820152610100610fce818401610eb2565b9082015292915050565b60008060408385031215610feb57600080fd5b823567ffffffffffffffff81111561100257600080fd5b61100e85828601610ec2565b925050602083013561101f81610e6d565b809150509250929050565b60006020828403121561103c57600080fd5b610d6482610eb2565b602081526000610d646020830184610d6b565b60006020828403121561106a57600080fd5b5035919050565b600080600080600060a0868803121561108957600080fd5b853567ffffffffffffffff808211156110a157600080fd5b908701906060828a0312156110b557600080fd5b6110bd610c1e565b8235828111156110cc57600080fd5b6110d88b828601610ec2565b8252506020830135602082015260408301356040820152809750506110ff60208901610e85565b955061110d60408901610e85565b9450606088013591508082111561112357600080fd5b61112f89838a01610c41565b9350608088013591508082111561114557600080fd5b5061115288828901610c41565b9150509295509295909350565b600181811c9082168061117357607f821691505b60208210810361119357634e487b7160e01b600052602260045260246000fd5b50919050565b601f8211156111e357600081815260208120601f850160051c810160208610156111c05750805b601f850160051c820191505b818110156111df578281556001016111cc565b5050505b505050565b815167ffffffffffffffff81111561120257611202610bde565b61121681611210845461115f565b84611199565b602080601f83116001811461124b57600084156112335750858301515b600019600386901b1c1916600185901b1785556111df565b600085815260208120601f198616915b8281101561127a5788860151825594840194600190910190840161125b565b50858210156112985787850151600019600388901b60f8161c191681555b5050505050600190811b01905550565b6000602082840312156112ba57600080fd5b505191905056fea2646970667358221220b5067091ab12ed4a84e8d832178e55d091661293e9198f8e614d7b4a878b113c64736f6c63430008110033",
  "immutableReferences": {},
  "source": "// SPDX-License-Identifier: MIT\npragma solidity ^0.8.17;\n\nimport \"./Persona.sol\";\nimport \"./VOGenerales/EstadoVO.sol\";\n\n// NOTE: se deja el abstrac contract justo con sus hijos por cuestiones de ordenamiento de cdigo solidity, antes decia \"Definition of base has to precede definition of derived contract\"\n// TODO: verificar si se puede dejar como abstract\ncontract MedicoVO is Persona {\n    //\n    EstadoVO private estado;\n    uint256 private especialidadId;\n    string private usuario;\n    string private contrasena;\n    string private entidadId;\n\n    struct MedicoVOStruct {\n        PersonaStruct persona;\n        uint256 especialidadId;\n        uint256 estadoId;\n        // EstadoVO.EstadoVOStruct estado;\n    }\n\n    function getMedicoVOValue() public view returns (MedicoVOStruct memory) {\n        return\n            MedicoVOStruct(\n                getPersonaStructValue(),\n                especialidadId,\n                estado.getId()\n            );\n    }\n\n    function setValuesOfMedicoVOStruct(\n        MedicoVOStruct memory _medicoVOStruct,\n        EstadoVO _estadoVO,\n        TipoIdentificacionVO _tipoIdentificacionVO,\n        string memory _usuario,\n        string memory _contrasena\n    ) public {\n        setValuesOfPersonaStruct(\n            _medicoVOStruct.persona,\n            _tipoIdentificacionVO\n        );        \n        estado = _estadoVO;\n        usuario = _usuario;\n        contrasena = _contrasena;\n        especialidadId = _medicoVOStruct.especialidadId;        \n    }\n\n    function getEstado() public view returns (EstadoVO) {\n        return estado;\n    }\n\n    function getEspecialidadId() public view returns (uint256) {\n        return especialidadId;\n    }\n\n    function getUsuario() public view returns (string memory) {\n        return usuario;\n    }\n\n    function getContrasena() public view returns (string memory) {\n        return contrasena;\n    }\n\n    function setEstado(EstadoVO _estado) public {\n        estado = _estado;\n    }\n\n    function setEspecialidadId(uint256 _especialidadId) public {\n        especialidadId = _especialidadId;\n    }\n\n    function setUsuario(string memory _usuario) public {\n        usuario = _usuario;\n    }\n\n    function setContrasena(string memory _contrasena) public {\n        contrasena = _contrasena;\n    }\n}\n",
  "sourcePath": "/back/contracts/models/MedicoVO.sol",
  "compiler": {
    "name": "solc",
    "version": "0.8.17+commit.8df45f5f.Emscripten.clang"
  },
  "schemaVersion": "3.4.11",
  "updatedAt": "2023-06-12T22:38:51.838Z",
  "devdoc": {
    "kind": "dev",
    "methods": {},
    "version": 1
  },
  "userdoc": {
    "kind": "user",
    "methods": {},
    "version": 1
  }
}