{
  "contractName": "MedicoService",
  "abi": [
    {
      "inputs": [],
      "stateMutability": "nonpayable",
      "type": "constructor"
    },
    {
      "inputs": [],
      "name": "creador",
      "outputs": [
        {
          "internalType": "address",
          "name": "",
          "type": "address"
        }
      ],
      "stateMutability": "view",
      "type": "function",
      "constant": true
    },
    {
      "inputs": [
        {
          "internalType": "address",
          "name": "direccion",
          "type": "address"
        },
        {
          "components": [
            {
              "components": [
                {
                  "internalType": "string",
                  "name": "primerNombre",
                  "type": "string"
                },
                {
                  "internalType": "string",
                  "name": "segundoNombre",
                  "type": "string"
                },
                {
                  "internalType": "string",
                  "name": "primerApellido",
                  "type": "string"
                },
                {
                  "internalType": "string",
                  "name": "segundoApellido",
                  "type": "string"
                },
                {
                  "internalType": "string",
                  "name": "identificacion",
                  "type": "string"
                },
                {
                  "internalType": "string",
                  "name": "tipoIdentificacion",
                  "type": "string"
                },
                {
                  "internalType": "bool",
                  "name": "isValue",
                  "type": "bool"
                }
              ],
              "internalType": "struct PersonaStruct",
              "name": "persona",
              "type": "tuple"
            },
            {
              "internalType": "string",
              "name": "especialidad",
              "type": "string"
            },
            {
              "internalType": "string",
              "name": "usuario",
              "type": "string"
            },
            {
              "internalType": "string",
              "name": "contrasena",
              "type": "string"
            }
          ],
          "internalType": "struct Medico.MedicoStruct",
          "name": "medico",
          "type": "tuple"
        }
      ],
      "name": "registrar",
      "outputs": [],
      "stateMutability": "nonpayable",
      "type": "function"
    },
    {
      "inputs": [
        {
          "internalType": "address",
          "name": "direccion",
          "type": "address"
        }
      ],
      "name": "consultar",
      "outputs": [
        {
          "components": [
            {
              "components": [
                {
                  "internalType": "string",
                  "name": "primerNombre",
                  "type": "string"
                },
                {
                  "internalType": "string",
                  "name": "segundoNombre",
                  "type": "string"
                },
                {
                  "internalType": "string",
                  "name": "primerApellido",
                  "type": "string"
                },
                {
                  "internalType": "string",
                  "name": "segundoApellido",
                  "type": "string"
                },
                {
                  "internalType": "string",
                  "name": "identificacion",
                  "type": "string"
                },
                {
                  "internalType": "string",
                  "name": "tipoIdentificacion",
                  "type": "string"
                },
                {
                  "internalType": "bool",
                  "name": "isValue",
                  "type": "bool"
                }
              ],
              "internalType": "struct PersonaStruct",
              "name": "persona",
              "type": "tuple"
            },
            {
              "internalType": "string",
              "name": "especialidad",
              "type": "string"
            },
            {
              "internalType": "string",
              "name": "usuario",
              "type": "string"
            },
            {
              "internalType": "string",
              "name": "contrasena",
              "type": "string"
            }
          ],
          "internalType": "struct Medico.MedicoStruct",
          "name": "",
          "type": "tuple"
        }
      ],
      "stateMutability": "nonpayable",
      "type": "function"
    }
  ],
  "bytecode": "0x608060405234801561001057600080fd5b50336000806101000a81548173ffffffffffffffffffffffffffffffffffffffff021916908373ffffffffffffffffffffffffffffffffffffffff16021790555060405161005d906100bf565b604051809103906000f080158015610079573d6000803e3d6000fd5b50600160006101000a81548173ffffffffffffffffffffffffffffffffffffffff021916908373ffffffffffffffffffffffffffffffffffffffff1602179055506100cc565b6115c58061095083390190565b610875806100db6000396000f3fe608060405234801561001057600080fd5b50600436106100415760003560e01c80637da8f6a51461004657806385e52aa81461007657806392ebdcd214610092575b600080fd5b610060600480360381019061005b91906101d0565b6100b0565b60405161006d91906103e8565b60405180910390f35b610090600480360381019061008b91906107b9565b6100c9565b005b61009a6100cd565b6040516100a79190610824565b60405180910390f35b6100b86100f1565b6100c06100f1565b80915050919050565b5050565b60008054906101000a900473ffffffffffffffffffffffffffffffffffffffff1681565b604051806080016040528061010461011f565b81526020016060815260200160608152602001606081525090565b6040518060e001604052806060815260200160608152602001606081526020016060815260200160608152602001606081526020016000151581525090565b6000604051905090565b600080fd5b600080fd5b600073ffffffffffffffffffffffffffffffffffffffff82169050919050565b600061019d82610172565b9050919050565b6101ad81610192565b81146101b857600080fd5b50565b6000813590506101ca816101a4565b92915050565b6000602082840312156101e6576101e5610168565b5b60006101f4848285016101bb565b91505092915050565b600081519050919050565b600082825260208201905092915050565b60005b8381101561023757808201518184015260208101905061021c565b83811115610246576000848401525b50505050565b6000601f19601f8301169050919050565b6000610268826101fd565b6102728185610208565b9350610282818560208601610219565b61028b8161024c565b840191505092915050565b60008115159050919050565b6102ab81610296565b82525050565b600060e08301600083015184820360008601526102ce828261025d565b915050602083015184820360208601526102e8828261025d565b91505060408301518482036040860152610302828261025d565b9150506060830151848203606086015261031c828261025d565b91505060808301518482036080860152610336828261025d565b91505060a083015184820360a0860152610350828261025d565b91505060c083015161036560c08601826102a2565b508091505092915050565b6000608083016000830151848203600086015261038d82826102b1565b915050602083015184820360208601526103a7828261025d565b915050604083015184820360408601526103c1828261025d565b915050606083015184820360608601526103db828261025d565b9150508091505092915050565b600060208201905081810360008301526104028184610370565b905092915050565b600080fd5b7f4e487b7100000000000000000000000000000000000000000000000000000000600052604160045260246000fd5b6104478261024c565b810181811067ffffffffffffffff821117156104665761046561040f565b5b80604052505050565b600061047961015e565b9050610485828261043e565b919050565b600080fd5b600080fd5b600080fd5b600067ffffffffffffffff8211156104b4576104b361040f565b5b6104bd8261024c565b9050602081019050919050565b82818337600083830152505050565b60006104ec6104e784610499565b61046f565b90508281526020810184848401111561050857610507610494565b5b6105138482856104ca565b509392505050565b600082601f8301126105305761052f61048f565b5b81356105408482602086016104d9565b91505092915050565b61055281610296565b811461055d57600080fd5b50565b60008135905061056f81610549565b92915050565b600060e0828403121561058b5761058a61040a565b5b61059560e061046f565b9050600082013567ffffffffffffffff8111156105b5576105b461048a565b5b6105c18482850161051b565b600083015250602082013567ffffffffffffffff8111156105e5576105e461048a565b5b6105f18482850161051b565b602083015250604082013567ffffffffffffffff8111156106155761061461048a565b5b6106218482850161051b565b604083015250606082013567ffffffffffffffff8111156106455761064461048a565b5b6106518482850161051b565b606083015250608082013567ffffffffffffffff8111156106755761067461048a565b5b6106818482850161051b565b60808301525060a082013567ffffffffffffffff8111156106a5576106a461048a565b5b6106b18482850161051b565b60a08301525060c06106c584828501610560565b60c08301525092915050565b6000608082840312156106e7576106e661040a565b5b6106f1608061046f565b9050600082013567ffffffffffffffff8111156107115761071061048a565b5b61071d84828501610575565b600083015250602082013567ffffffffffffffff8111156107415761074061048a565b5b61074d8482850161051b565b602083015250604082013567ffffffffffffffff8111156107715761077061048a565b5b61077d8482850161051b565b604083015250606082013567ffffffffffffffff8111156107a1576107a061048a565b5b6107ad8482850161051b565b60608301525092915050565b600080604083850312156107d0576107cf610168565b5b60006107de858286016101bb565b925050602083013567ffffffffffffffff8111156107ff576107fe61016d565b5b61080b858286016106d1565b9150509250929050565b61081e81610192565b82525050565b60006020820190506108396000830184610815565b9291505056fea26469706673582212205b44046b784ce7468ed3cdab25b970fd8f956e2029eb0aadd4239bfc5737a02964736f6c634300080b0033608060405234801561001057600080fd5b50336000806101000a81548173ffffffffffffffffffffffffffffffffffffffff021916908373ffffffffffffffffffffffffffffffffffffffff160217905550611565806100606000396000f3fe608060405234801561001057600080fd5b506004361061004c5760003560e01c8063133584b11461005157806326d0a3801461006d5780637da8f6a5146100a357806392ebdcd2146100d3575b600080fd5b61006b60048036038101906100669190610f6f565b6100f1565b005b61008760048036038101906100829190610fcb565b6102cb565b60405161009a979695949392919061108f565b60405180910390f35b6100bd60048036038101906100b89190610fcb565b61064a565b6040516100ca9190611240565b60405180910390f35b6100db610b13565b6040516100e89190611271565b60405180910390f35b600160008373ffffffffffffffffffffffffffffffffffffffff1673ffffffffffffffffffffffffffffffffffffffff16815260200190815260200160002060060160009054906101000a900460ff16156101b6577fcf34ef537ac33ee1ac626ca1587a0a7e8e51561e5514f8cb36afa1c5102b3bab604051610173906112fe565b60405180910390a16040517f08c379a00000000000000000000000000000000000000000000000000000000081526004016101ad906112fe565b60405180910390fd5b80600160008473ffffffffffffffffffffffffffffffffffffffff1673ffffffffffffffffffffffffffffffffffffffff1681526020019081526020016000206000820151816000019080519060200190610212929190610b37565b50602082015181600101908051906020019061022f929190610b37565b50604082015181600201908051906020019061024c929190610b37565b506060820151816003019080519060200190610269929190610b37565b506080820151816004019080519060200190610286929190610b37565b5060a08201518160050190805190602001906102a3929190610b37565b5060c08201518160060160006101000a81548160ff0219169083151502179055509050505050565b60016020528060005260406000206000915090508060000180546102ee9061134d565b80601f016020809104026020016040519081016040528092919081815260200182805461031a9061134d565b80156103675780601f1061033c57610100808354040283529160200191610367565b820191906000526020600020905b81548152906001019060200180831161034a57829003601f168201915b50505050509080600101805461037c9061134d565b80601f01602080910402602001604051908101604052809291908181526020018280546103a89061134d565b80156103f55780601f106103ca576101008083540402835291602001916103f5565b820191906000526020600020905b8154815290600101906020018083116103d857829003601f168201915b50505050509080600201805461040a9061134d565b80601f01602080910402602001604051908101604052809291908181526020018280546104369061134d565b80156104835780601f1061045857610100808354040283529160200191610483565b820191906000526020600020905b81548152906001019060200180831161046657829003601f168201915b5050505050908060030180546104989061134d565b80601f01602080910402602001604051908101604052809291908181526020018280546104c49061134d565b80156105115780601f106104e657610100808354040283529160200191610511565b820191906000526020600020905b8154815290600101906020018083116104f457829003601f168201915b5050505050908060040180546105269061134d565b80601f01602080910402602001604051908101604052809291908181526020018280546105529061134d565b801561059f5780601f106105745761010080835404028352916020019161059f565b820191906000526020600020905b81548152906001019060200180831161058257829003601f168201915b5050505050908060050180546105b49061134d565b80601f01602080910402602001604051908101604052809291908181526020018280546105e09061134d565b801561062d5780601f106106025761010080835404028352916020019161062d565b820191906000526020600020905b81548152906001019060200180831161061057829003601f168201915b5050505050908060060160009054906101000a900460ff16905087565b610652610bbd565b7fcf34ef537ac33ee1ac626ca1587a0a7e8e51561e5514f8cb36afa1c5102b3bab60405161067f906113cb565b60405180910390a16000600160008473ffffffffffffffffffffffffffffffffffffffff1673ffffffffffffffffffffffffffffffffffffffff1681526020019081526020016000206040518060e00160405290816000820180546106e39061134d565b80601f016020809104026020016040519081016040528092919081815260200182805461070f9061134d565b801561075c5780601f106107315761010080835404028352916020019161075c565b820191906000526020600020905b81548152906001019060200180831161073f57829003601f168201915b505050505081526020016001820180546107759061134d565b80601f01602080910402602001604051908101604052809291908181526020018280546107a19061134d565b80156107ee5780601f106107c3576101008083540402835291602001916107ee565b820191906000526020600020905b8154815290600101906020018083116107d157829003601f168201915b505050505081526020016002820180546108079061134d565b80601f01602080910402602001604051908101604052809291908181526020018280546108339061134d565b80156108805780601f1061085557610100808354040283529160200191610880565b820191906000526020600020905b81548152906001019060200180831161086357829003601f168201915b505050505081526020016003820180546108999061134d565b80601f01602080910402602001604051908101604052809291908181526020018280546108c59061134d565b80156109125780601f106108e757610100808354040283529160200191610912565b820191906000526020600020905b8154815290600101906020018083116108f557829003601f168201915b5050505050815260200160048201805461092b9061134d565b80601f01602080910402602001604051908101604052809291908181526020018280546109579061134d565b80156109a45780601f10610979576101008083540402835291602001916109a4565b820191906000526020600020905b81548152906001019060200180831161098757829003601f168201915b505050505081526020016005820180546109bd9061134d565b80601f01602080910402602001604051908101604052809291908181526020018280546109e99061134d565b8015610a365780601f10610a0b57610100808354040283529160200191610a36565b820191906000526020600020905b815481529060010190602001808311610a1957829003601f168201915b505050505081526020016006820160009054906101000a900460ff16151515158152505090508060c00151610ad5577fcf34ef537ac33ee1ac626ca1587a0a7e8e51561e5514f8cb36afa1c5102b3bab604051610a9290611437565b60405180910390a16040517f08c379a0000000000000000000000000000000000000000000000000000000008152600401610acc906114a3565b60405180910390fd5b7fcf34ef537ac33ee1ac626ca1587a0a7e8e51561e5514f8cb36afa1c5102b3bab604051610b029061150f565b60405180910390a180915050919050565b60008054906101000a900473ffffffffffffffffffffffffffffffffffffffff1681565b828054610b439061134d565b90600052602060002090601f016020900481019282610b655760008555610bac565b82601f10610b7e57805160ff1916838001178555610bac565b82800160010185558215610bac579182015b82811115610bab578251825591602001919060010190610b90565b5b509050610bb99190610bfc565b5090565b6040518060e001604052806060815260200160608152602001606081526020016060815260200160608152602001606081526020016000151581525090565b5b80821115610c15576000816000905550600101610bfd565b5090565b6000604051905090565b600080fd5b600080fd5b600073ffffffffffffffffffffffffffffffffffffffff82169050919050565b6000610c5882610c2d565b9050919050565b610c6881610c4d565b8114610c7357600080fd5b50565b600081359050610c8581610c5f565b92915050565b600080fd5b6000601f19601f8301169050919050565b7f4e487b7100000000000000000000000000000000000000000000000000000000600052604160045260246000fd5b610cd982610c90565b810181811067ffffffffffffffff82111715610cf857610cf7610ca1565b5b80604052505050565b6000610d0b610c19565b9050610d178282610cd0565b919050565b600080fd5b600080fd5b600080fd5b600067ffffffffffffffff821115610d4657610d45610ca1565b5b610d4f82610c90565b9050602081019050919050565b82818337600083830152505050565b6000610d7e610d7984610d2b565b610d01565b905082815260208101848484011115610d9a57610d99610d26565b5b610da5848285610d5c565b509392505050565b600082601f830112610dc257610dc1610d21565b5b8135610dd2848260208601610d6b565b91505092915050565b60008115159050919050565b610df081610ddb565b8114610dfb57600080fd5b50565b600081359050610e0d81610de7565b92915050565b600060e08284031215610e2957610e28610c8b565b5b610e3360e0610d01565b9050600082013567ffffffffffffffff811115610e5357610e52610d1c565b5b610e5f84828501610dad565b600083015250602082013567ffffffffffffffff811115610e8357610e82610d1c565b5b610e8f84828501610dad565b602083015250604082013567ffffffffffffffff811115610eb357610eb2610d1c565b5b610ebf84828501610dad565b604083015250606082013567ffffffffffffffff811115610ee357610ee2610d1c565b5b610eef84828501610dad565b606083015250608082013567ffffffffffffffff811115610f1357610f12610d1c565b5b610f1f84828501610dad565b60808301525060a082013567ffffffffffffffff811115610f4357610f42610d1c565b5b610f4f84828501610dad565b60a08301525060c0610f6384828501610dfe565b60c08301525092915050565b60008060408385031215610f8657610f85610c23565b5b6000610f9485828601610c76565b925050602083013567ffffffffffffffff811115610fb557610fb4610c28565b5b610fc185828601610e13565b9150509250929050565b600060208284031215610fe157610fe0610c23565b5b6000610fef84828501610c76565b91505092915050565b600081519050919050565b600082825260208201905092915050565b60005b83811015611032578082015181840152602081019050611017565b83811115611041576000848401525b50505050565b600061105282610ff8565b61105c8185611003565b935061106c818560208601611014565b61107581610c90565b840191505092915050565b61108981610ddb565b82525050565b600060e08201905081810360008301526110a9818a611047565b905081810360208301526110bd8189611047565b905081810360408301526110d18188611047565b905081810360608301526110e58187611047565b905081810360808301526110f98186611047565b905081810360a083015261110d8185611047565b905061111c60c0830184611080565b98975050505050505050565b600082825260208201905092915050565b600061114482610ff8565b61114e8185611128565b935061115e818560208601611014565b61116781610c90565b840191505092915050565b61117b81610ddb565b82525050565b600060e083016000830151848203600086015261119e8282611139565b915050602083015184820360208601526111b88282611139565b915050604083015184820360408601526111d28282611139565b915050606083015184820360608601526111ec8282611139565b915050608083015184820360808601526112068282611139565b91505060a083015184820360a08601526112208282611139565b91505060c083015161123560c0860182611172565b508091505092915050565b6000602082019050818103600083015261125a8184611181565b905092915050565b61126b81610c4d565b82525050565b60006020820190506112866000830184611262565b92915050565b7f5961206578697374652075616e20706572736f6e61207265676973747261646160008201527f20636f6e20657365206164647265737300000000000000000000000000000000602082015250565b60006112e8603083611003565b91506112f38261128c565b604082019050919050565b60006020820190508181036000830152611317816112db565b9050919050565b7f4e487b7100000000000000000000000000000000000000000000000000000000600052602260045260246000fd5b6000600282049050600182168061136557607f821691505b602082108114156113795761137861131e565b5b50919050565b7f656e74726f206120636f6e73756c746172000000000000000000000000000000600082015250565b60006113b5601183611003565b91506113c08261137f565b602082019050919050565b600060208201905081810360008301526113e4816113a8565b9050919050565b7f6e6f2065786973746520656c207573756172696f000000000000000000000000600082015250565b6000611421601483611003565b915061142c826113eb565b602082019050919050565b6000602082019050818103600083015261145081611414565b9050919050565b7f4e6f20657869737465206573652070616369656e746500000000000000000000600082015250565b600061148d601683611003565b915061149882611457565b602082019050919050565b600060208201905081810360008301526114bc81611480565b9050919050565b7f7573756172696f2076616c69646f000000000000000000000000000000000000600082015250565b60006114f9600e83611003565b9150611504826114c3565b602082019050919050565b60006020820190508181036000830152611528816114ec565b905091905056fea2646970667358221220144eacde461b5137c2f09c869fe883fc7e2ddf3b4dafe7f4525ab5bec974ea9064736f6c634300080b0033",
  "immutableReferences": {},
  "source": "pragma solidity ^0.8.10; // TODO: Ajustar la versin por consenso con Jos\n\nimport \"../logica/Medico.sol\";\n\ncontract MedicoService {\n    address public creador;\n    PersonaDAO private personaDao;\n\n    constructor() public {\n        creador = msg.sender; // creador del contrato\n        personaDao = new PersonaDAO(); //TODO: verificar si queda guardado el objeto o si hay mejor manera\n    }\n\n    /*\n    function verificarExistenciaEnSistemaExterno(address direccion) public returns (bool) {\n        \n        // TODO: ac va un orculo\n    }\n\n    // TODO: buscar porque es uint256\n    function buscarPerfilMedicoSistemaExterno(address direccion) public view returns (PerfilMedicoSistemaExternoStruct)    {\n        // address direccion = msg.sender;\n        // TODO: ac va un orculo\n    }\n    */\n\n    // TODO: buscar porque es uint256\n    function registrar(address direccion, Medico.MedicoStruct memory medico ) public {\n        // TODO: redefinir, ac le pega a persona dao y usa el mtodo guardar\n        // TODO: poner excepcion en caso de error\n        // personaDao.guardar(direccion, medico);\n    }\n\n    // TODO: intentar volverlo view despues\n    function consultar(address direccion) public returns (Medico.MedicoStruct memory) {\n        // TODO: Validar que sea mdico y sino lanzar excepcin\n        // TODO: mejorar o completar la conversion del tipo padre al hijo,preguntas al profe que se puede hacer\n        // PersonaStruct memory persona = personaDao.consultar(direccion);\n        Medico.MedicoStruct memory medico;\n        //medico.setPrimerApellido(persona.getPrimerApellido());\n        return medico;\n    }\n}\n",
  "sourcePath": "/home/felipe/Documentos/Blockchain/codigo/back-hce/contracts/service/MedicoService.sol",
  "compiler": {
    "name": "solc",
    "version": "0.8.11+commit.d7f03943.Emscripten.clang"
  },
  "schemaVersion": "3.4.4",
  "updatedAt": "2022-01-25T00:17:41.901Z",
  "networkType": "ethereum",
  "devdoc": {
    "kind": "dev",
    "methods": {},
    "version": 1
  },
  "userdoc": {
    "kind": "user",
    "methods": {},
    "version": 1
  }
}