{
  "contractName": "MedicoOraculo",
  "abi": [
    {
      "inputs": [],
      "stateMutability": "nonpayable",
      "type": "constructor"
    },
    {
      "anonymous": false,
      "inputs": [
        {
          "indexed": false,
          "internalType": "string",
          "name": "data",
          "type": "string"
        }
      ],
      "name": "Log",
      "type": "event"
    },
    {
      "inputs": [],
      "name": "creador",
      "outputs": [
        {
          "internalType": "address",
          "name": "",
          "type": "address"
        }
      ],
      "stateMutability": "view",
      "type": "function",
      "constant": true
    },
    {
      "inputs": [
        {
          "internalType": "string",
          "name": "_usuario",
          "type": "string"
        },
        {
          "internalType": "string",
          "name": "_contrasena",
          "type": "string"
        }
      ],
      "name": "verificarExistenciaEnSistemaExterno",
      "outputs": [
        {
          "internalType": "bool",
          "name": "",
          "type": "bool"
        }
      ],
      "stateMutability": "nonpayable",
      "type": "function"
    },
    {
      "inputs": [
        {
          "internalType": "address",
          "name": "direccion",
          "type": "address"
        }
      ],
      "name": "consultarRethus",
      "outputs": [
        {
          "internalType": "bool",
          "name": "",
          "type": "bool"
        }
      ],
      "stateMutability": "nonpayable",
      "type": "function"
    },
    {
      "inputs": [],
      "name": "selfDestruct",
      "outputs": [],
      "stateMutability": "nonpayable",
      "type": "function"
    }
  ],
  "bytecode": "0x608060405234801561001057600080fd5b50600080546001600160a01b0319163317905561038c806100326000396000f3fe608060405234801561001057600080fd5b506004361061004c5760003560e01c80633092ebe61461005157806344b5bfbc1461007957806392ebdcd21461008d5780639cb8a26a146100b8575b600080fd5b61006461005f3660046102c2565b6100c2565b60405190151581526020015b60405180910390f35b610064610087366004610326565b50600190565b6000546100a0906001600160a01b031681565b6040516001600160a01b039091168152602001610070565b6100c0610134565b005b60007fcf34ef537ac33ee1ac626ca1587a0a7e8e51561e5514f8cb36afa1c5102b3bab6040516101239060208082526011908201527f656e74726f206120636f6e73756c746172000000000000000000000000000000604082015260600190565b60405180910390a150600192915050565b6000546001600160a01b031633146101f8576040517f08c379a000000000000000000000000000000000000000000000000000000000815260206004820152604160248201527f457374612066756e63696f6e20736f6c6f2070756564652073657220656a656360448201527f757461646120706f7220656c2063726561646f722064656c20636f6e7472617460648201527f6f00000000000000000000000000000000000000000000000000000000000000608482015260a40160405180910390fd5b6000546001600160a01b0316ff5b7f4e487b7100000000000000000000000000000000000000000000000000000000600052604160045260246000fd5b600082601f83011261024657600080fd5b813567ffffffffffffffff8082111561026157610261610206565b604051601f8301601f19908116603f0116810190828211818310171561028957610289610206565b816040528381528660208588010111156102a257600080fd5b836020870160208301376000602085830101528094505050505092915050565b600080604083850312156102d557600080fd5b823567ffffffffffffffff808211156102ed57600080fd5b6102f986838701610235565b9350602085013591508082111561030f57600080fd5b5061031c85828601610235565b9150509250929050565b60006020828403121561033857600080fd5b81356001600160a01b038116811461034f57600080fd5b939250505056fea26469706673582212207b3d9817d8af3d9857b5bfd449dfd4dd2e59fb74fa17ea98fe8f4537aab1749264736f6c63430008110033",
  "immutableReferences": {},
  "source": "// SPDX-License-Identifier: MIT\npragma solidity ^0.8.17;\n\nimport \"../../models/PerfilMedicoSistemaExternoVO.sol\";\n\n/*\nimport \"../../persistence/MedicoMapper.sol\";\nimport \"../../persistence/DatosParametricosMapper.sol\";\nimport \"../../persistence/DatosParametricosMapperInterface.sol\";\n*/\ncontract MedicoOraculo {\n    // TODO: consumir este evento desde una clase heredada o algo as\n    event Log(string data);\n    address public creador;\n\n    constructor() {\n        creador = msg.sender; // creador del contrato\n    }\n\n    function verificarExistenciaEnSistemaExterno(string memory _usuario, string memory _contrasena)\n        public\n        returns (bool)\n    {\n        emit Log(\"entro a consultar\");\n        return true;\n    }\n\n    function consultarRethus(address direccion)\n        public\n        returns (bool)\n    {\n        /* TODO: Consultar info del medico (usuario y contrasea)\n         *  despues se hace con oraculos una consulta\n         */\n        return true;\n    }\n\n    /*function buscarPerfilMedicoSistemaExterno(address direccion) public returns (PerfilMedicoSistemaExternoStruct memory){\n        // TODO: tambien con oraculo\n    }*/\n\n\n    // TODO: poner en clase generica y reusarlo\n    modifier esPropietario() {\n        require(\n            msg.sender == creador,\n            \"Esta funcion solo puede ser ejecutada por el creador del contrato\"\n        );\n        _; // ac se ejecuta la funcin\n    }\n\n    function selfDestruct() public esPropietario {\n        selfdestruct(payable(creador));\n    }\n}\n",
  "sourcePath": "/back/contracts/logica/sistemaExterno/MedicoOraculo.sol",
  "compiler": {
    "name": "solc",
    "version": "0.8.17+commit.8df45f5f.Emscripten.clang"
  },
  "schemaVersion": "3.4.11",
  "updatedAt": "2023-01-14T20:38:18.567Z",
  "networkType": "ethereum",
  "devdoc": {
    "kind": "dev",
    "methods": {},
    "version": 1
  },
  "userdoc": {
    "kind": "user",
    "methods": {},
    "version": 1
  }
}