{
  "contractName": "Medico",
  "abi": [
    {
      "inputs": [],
      "stateMutability": "nonpayable",
      "type": "constructor"
    },
    {
      "inputs": [],
      "name": "creador",
      "outputs": [
        {
          "internalType": "address",
          "name": "",
          "type": "address"
        }
      ],
      "stateMutability": "view",
      "type": "function",
      "constant": true
    },
    {
      "inputs": [],
      "name": "getAcceso",
      "outputs": [
        {
          "internalType": "contract Acceso",
          "name": "",
          "type": "address"
        }
      ],
      "stateMutability": "view",
      "type": "function",
      "constant": true
    },
    {
      "inputs": [
        {
          "internalType": "contract Acceso",
          "name": "_accesoAddress",
          "type": "address"
        }
      ],
      "name": "setAcceso",
      "outputs": [],
      "stateMutability": "nonpayable",
      "type": "function"
    },
    {
      "inputs": [
        {
          "internalType": "contract AccesoHistoriaClinica",
          "name": "_accesoHistoriaClinicaAddress",
          "type": "address"
        }
      ],
      "name": "setAccesoHistoriaClinica",
      "outputs": [],
      "stateMutability": "nonpayable",
      "type": "function"
    },
    {
      "inputs": [
        {
          "internalType": "uint256",
          "name": "permisoId",
          "type": "uint256"
        }
      ],
      "name": "tieneAccesoFunc",
      "outputs": [
        {
          "internalType": "bool",
          "name": "",
          "type": "bool"
        }
      ],
      "stateMutability": "nonpayable",
      "type": "function"
    },
    {
      "inputs": [
        {
          "internalType": "address",
          "name": "direccion",
          "type": "address"
        }
      ],
      "name": "consultar",
      "outputs": [
        {
          "components": [
            {
              "components": [
                {
                  "internalType": "address",
                  "name": "direccion",
                  "type": "address"
                },
                {
                  "internalType": "uint256",
                  "name": "id",
                  "type": "uint256"
                },
                {
                  "internalType": "string",
                  "name": "primerNombre",
                  "type": "string"
                },
                {
                  "internalType": "string",
                  "name": "segundoNombre",
                  "type": "string"
                },
                {
                  "internalType": "string",
                  "name": "primerApellido",
                  "type": "string"
                },
                {
                  "internalType": "string",
                  "name": "segundoApellido",
                  "type": "string"
                },
                {
                  "internalType": "string",
                  "name": "identificacion",
                  "type": "string"
                },
                {
                  "internalType": "uint256",
                  "name": "tipoIdentificacion",
                  "type": "uint256"
                },
                {
                  "internalType": "bool",
                  "name": "isValue",
                  "type": "bool"
                }
              ],
              "internalType": "struct Persona.PersonaStruct",
              "name": "persona",
              "type": "tuple"
            },
            {
              "internalType": "uint256",
              "name": "especialidadId",
              "type": "uint256"
            },
            {
              "internalType": "uint256",
              "name": "estadoId",
              "type": "uint256"
            }
          ],
          "internalType": "struct MedicoVO.MedicoVOStruct",
          "name": "",
          "type": "tuple"
        }
      ],
      "stateMutability": "nonpayable",
      "type": "function"
    },
    {
      "inputs": [
        {
          "internalType": "address",
          "name": "direccion",
          "type": "address"
        },
        {
          "internalType": "contract MedicoVO",
          "name": "medico",
          "type": "address"
        }
      ],
      "name": "registrar",
      "outputs": [],
      "stateMutability": "nonpayable",
      "type": "function"
    },
    {
      "inputs": [
        {
          "internalType": "address",
          "name": "direccion",
          "type": "address"
        },
        {
          "components": [
            {
              "components": [
                {
                  "internalType": "address",
                  "name": "direccion",
                  "type": "address"
                },
                {
                  "internalType": "uint256",
                  "name": "id",
                  "type": "uint256"
                },
                {
                  "internalType": "string",
                  "name": "primerNombre",
                  "type": "string"
                },
                {
                  "internalType": "string",
                  "name": "segundoNombre",
                  "type": "string"
                },
                {
                  "internalType": "string",
                  "name": "primerApellido",
                  "type": "string"
                },
                {
                  "internalType": "string",
                  "name": "segundoApellido",
                  "type": "string"
                },
                {
                  "internalType": "string",
                  "name": "identificacion",
                  "type": "string"
                },
                {
                  "internalType": "uint256",
                  "name": "tipoIdentificacion",
                  "type": "uint256"
                },
                {
                  "internalType": "bool",
                  "name": "isValue",
                  "type": "bool"
                }
              ],
              "internalType": "struct Persona.PersonaStruct",
              "name": "persona",
              "type": "tuple"
            },
            {
              "internalType": "uint256",
              "name": "especialidadId",
              "type": "uint256"
            },
            {
              "internalType": "uint256",
              "name": "estadoId",
              "type": "uint256"
            }
          ],
          "internalType": "struct MedicoVO.MedicoVOStruct",
          "name": "medicoVOStruct",
          "type": "tuple"
        },
        {
          "internalType": "string",
          "name": "_usuario",
          "type": "string"
        },
        {
          "internalType": "string",
          "name": "_contrasena",
          "type": "string"
        }
      ],
      "name": "registrarConStruct",
      "outputs": [],
      "stateMutability": "nonpayable",
      "type": "function"
    },
    {
      "inputs": [
        {
          "internalType": "address",
          "name": "direccion",
          "type": "address"
        },
        {
          "internalType": "contract MedicoVO",
          "name": "medico",
          "type": "address"
        }
      ],
      "name": "actualizar",
      "outputs": [],
      "stateMutability": "nonpayable",
      "type": "function"
    },
    {
      "inputs": [
        {
          "internalType": "address",
          "name": "direccion",
          "type": "address"
        }
      ],
      "name": "verificarExistenciaEnSistemaExterno",
      "outputs": [],
      "stateMutability": "nonpayable",
      "type": "function"
    },
    {
      "inputs": [
        {
          "internalType": "address",
          "name": "direccion",
          "type": "address"
        }
      ],
      "name": "buscarPerfilMedicoSistemaExterno",
      "outputs": [],
      "stateMutability": "nonpayable",
      "type": "function"
    },
    {
      "inputs": [
        {
          "internalType": "contract MedicoMapperInterface",
          "name": "_medicoMapper",
          "type": "address"
        }
      ],
      "name": "setMedicoMapper",
      "outputs": [],
      "stateMutability": "nonpayable",
      "type": "function"
    },
    {
      "inputs": [
        {
          "internalType": "contract DatosParametricosMapperInterface",
          "name": "_datosParametricosMapperAddress",
          "type": "address"
        }
      ],
      "name": "setDatosParametricosMapper",
      "outputs": [],
      "stateMutability": "nonpayable",
      "type": "function"
    },
    {
      "inputs": [
        {
          "internalType": "contract RolMapperInterface",
          "name": "_rolMapperAddress",
          "type": "address"
        }
      ],
      "name": "setRolMapper",
      "outputs": [],
      "stateMutability": "nonpayable",
      "type": "function"
    },
    {
      "inputs": [
        {
          "internalType": "contract UsuarioMapperInterface",
          "name": "_usuarioMapperAddress",
          "type": "address"
        }
      ],
      "name": "setUsuarioMapper",
      "outputs": [],
      "stateMutability": "nonpayable",
      "type": "function"
    },
    {
      "inputs": [
        {
          "internalType": "contract Oracle",
          "name": "_oracleAddress",
          "type": "address"
        }
      ],
      "name": "setOracle",
      "outputs": [],
      "stateMutability": "nonpayable",
      "type": "function"
    },
    {
      "inputs": [],
      "name": "selfDestruct",
      "outputs": [],
      "stateMutability": "nonpayable",
      "type": "function"
    }
  ],
  "bytecode": "0x608060405234801561001057600080fd5b50600080546001600160a01b03191633179055613b08806100326000396000f3fe608060405234801561001057600080fd5b506004361061011b5760003560e01c80637da8f6a5116100b2578063d4a7986611610081578063d99282c011610066578063d99282c01461025f578063fa7af2bb14610272578063fa7e054e1461028557600080fd5b8063d4a7986614610229578063d7756d9b1461024c57600080fd5b80637da8f6a5146101ba57806392ebdcd2146101e35780639cb8a26a1461020e578063c204c17d1461021657600080fd5b8063596e15e6116100ee578063596e15e61461016e5780635a2c9ea21461018157806378775d32146101945780637adbf973146101a757600080fd5b806307b37d1d146101205780630da7d7a514610135578063137d4722146101485780634022d6721461015b575b600080fd5b61013361012e36600461177a565b610296565b005b61013361014336600461177a565b610622565b6101336101563660046117b3565b61076d565b6101336101693660046117b3565b610819565b61013361017c3660046117b3565b6108c5565b61013361018f3660046117b3565b610971565b6101336101a23660046117b3565b610b7a565b6101336101b53660046117b3565b610c26565b6101cd6101c83660046117b3565b610cd2565b6040516101da9190611923565b60405180910390f35b6000546101f6906001600160a01b031681565b6040516001600160a01b0390911681526020016101da565b610133610e7c565b6101336102243660046117b3565b610f14565b61023c610237366004611936565b610fc0565b60405190151581526020016101da565b61013361025a366004611a7a565b61103c565b61013361026d3660046117b3565b61120e565b6101336102803660046117b3565b6114de565b6001546001600160a01b03166101f6565b6001600160a01b03821633146103195760405162461bcd60e51b815260206004820152602660248201527f556e206d656469636f207365206465626520726567697374726172206120736960448201527f206d69736d6f000000000000000000000000000000000000000000000000000060648201526084015b60405180910390fd5b6005546040517f86dda3680000000000000000000000000000000000000000000000000000000081526000916001600160a01b0316906386dda3689061036490600190600401611c67565b6020604051808303816000875af1158015610383573d6000803e3d6000fd5b505050506040513d601f19601f820116820180604052508101906103a79190611c7a565b905060006040516103b7906116bf565b604051809103906000f0801580156103d3573d6000803e3d6000fd5b506040517f5745ab980000000000000000000000000000000000000000000000000000000081526001600160a01b03868116600483015291925090821690635745ab9890602401600060405180830381600087803b15801561043457600080fd5b505af1158015610448573d6000803e3d6000fd5b50506040517fce8dd29f0000000000000000000000000000000000000000000000000000000081526001600160a01b0385811660048301528416925063ce8dd29f9150602401600060405180830381600087803b1580156104a857600080fd5b505af11580156104bc573d6000803e3d6000fd5b50506040517ffdaef483000000000000000000000000000000000000000000000000000000008152600160048201526001600160a01b038416925063fdaef4839150602401600060405180830381600087803b15801561051b57600080fd5b505af115801561052f573d6000803e3d6000fd5b505060065460405163be381c5960e01b81526001600160a01b0388811660048301528581166024830152909116925063be381c599150604401600060405180830381600087803b15801561058257600080fd5b505af1158015610596573d6000803e3d6000fd5b505060035460405163be381c5960e01b81526001600160a01b0388811660048301528781166024830152909116925063be381c5991506044016020604051808303816000875af11580156105ee573d6000803e3d6000fd5b505050506040513d601f19601f820116820180604052508101906106129190611c97565b5061061c84610971565b50505050565b6001546040516336a664e960e11b8152336004820152600960248201819052916000916001600160a01b0390911690636d4cc9d2906044016020604051808303816000875af1158015610679573d6000803e3d6000fd5b505050506040513d601f19601f8201168201806040525081019061069d9190611cbb565b9050806106a98361158a565b6040516020016106b99190611cd8565b604051602081830303815290604052906106e65760405162461bcd60e51b81526004016103109190611d43565b506003546040517f0da7d7a50000000000000000000000000000000000000000000000000000000081526001600160a01b038681166004830152858116602483015290911690630da7d7a590604401600060405180830381600087803b15801561074f57600080fd5b505af1158015610763573d6000803e3d6000fd5b5050505050505050565b6000546001600160a01b031633146107f75760405162461bcd60e51b815260206004820152604160248201527f457374612066756e63696f6e20736f6c6f2070756564652073657220656a656360448201527f757461646120706f7220656c2063726561646f722064656c20636f6e747261746064820152606f60f81b608482015260a401610310565b600180546001600160a01b0319166001600160a01b0392909216919091179055565b6000546001600160a01b031633146108a35760405162461bcd60e51b815260206004820152604160248201527f457374612066756e63696f6e20736f6c6f2070756564652073657220656a656360448201527f757461646120706f7220656c2063726561646f722064656c20636f6e747261746064820152606f60f81b608482015260a401610310565b600280546001600160a01b0319166001600160a01b0392909216919091179055565b6000546001600160a01b0316331461094f5760405162461bcd60e51b815260206004820152604160248201527f457374612066756e63696f6e20736f6c6f2070756564652073657220656a656360448201527f757461646120706f7220656c2063726561646f722064656c20636f6e747261746064820152606f60f81b608482015260a401610310565b600680546001600160a01b0319166001600160a01b0392909216919091179055565b600354604051637da8f6a560e01b81526001600160a01b0383811660048301526000921690637da8f6a5906024016020604051808303816000875af11580156109be573d6000803e3d6000fd5b505050506040513d601f19601f820116820180604052508101906109e29190611c7a565b90506000816001600160a01b03166349bc8d186040518163ffffffff1660e01b8152600401600060405180830381865afa158015610a24573d6000803e3d6000fd5b505050506040513d6000823e601f3d908101601f19168201604052610a4c9190810190611d9b565b604051602001610a5c9190611dd0565b60408051601f1981840301815290829052610a7991602001611e3b565b604051602081830303815290604052826001600160a01b031663ccae57846040518163ffffffff1660e01b8152600401600060405180830381865afa158015610ac6573d6000803e3d6000fd5b505050506040513d6000823e601f3d908101601f19168201604052610aee9190810190611d9b565b604051602001610aff929190611e7c565b60408051601f19818403018152908290526007546335bc30f560e21b83529092506001600160a01b03169063d6f0c3d490610b439084908790600090600401611eab565b600060405180830381600087803b158015610b5d57600080fd5b505af1158015610b71573d6000803e3d6000fd5b50505050505050565b6000546001600160a01b03163314610c045760405162461bcd60e51b815260206004820152604160248201527f457374612066756e63696f6e20736f6c6f2070756564652073657220656a656360448201527f757461646120706f7220656c2063726561646f722064656c20636f6e747261746064820152606f60f81b608482015260a401610310565b600580546001600160a01b0319166001600160a01b0392909216919091179055565b6000546001600160a01b03163314610cb05760405162461bcd60e51b815260206004820152604160248201527f457374612066756e63696f6e20736f6c6f2070756564652073657220656a656360448201527f757461646120706f7220656c2063726561646f722064656c20636f6e747261746064820152606f60f81b608482015260a401610310565b600780546001600160a01b0319166001600160a01b0392909216919091179055565b610cda6116cc565b6001546040516336a664e960e11b8152336004820152600760248201819052916000916001600160a01b0390911690636d4cc9d2906044016020604051808303816000875af1158015610d31573d6000803e3d6000fd5b505050506040513d601f19601f82011682018060405250810190610d559190611cbb565b905080610d618361158a565b604051602001610d719190611cd8565b60405160208183030381529060405290610d9e5760405162461bcd60e51b81526004016103109190611d43565b50600354604051637da8f6a560e01b81526001600160a01b03868116600483015290911690637da8f6a5906024016020604051808303816000875af1158015610deb573d6000803e3d6000fd5b505050506040513d601f19601f82011682018060405250810190610e0f9190611c7a565b6001600160a01b0316634f63ce136040518163ffffffff1660e01b8152600401600060405180830381865afa158015610e4c573d6000803e3d6000fd5b505050506040513d6000823e601f3d908101601f19168201604052610e749190810190611f28565b949350505050565b6000546001600160a01b03163314610f065760405162461bcd60e51b815260206004820152604160248201527f457374612066756e63696f6e20736f6c6f2070756564652073657220656a656360448201527f757461646120706f7220656c2063726561646f722064656c20636f6e747261746064820152606f60f81b608482015260a401610310565b6000546001600160a01b0316ff5b6000546001600160a01b03163314610f9e5760405162461bcd60e51b815260206004820152604160248201527f457374612066756e63696f6e20736f6c6f2070756564652073657220656a656360448201527f757461646120706f7220656c2063726561646f722064656c20636f6e747261746064820152606f60f81b608482015260a401610310565b600480546001600160a01b0319166001600160a01b0392909216919091179055565b6001546040516336a664e960e11b8152336004820152602481018390526000916001600160a01b031690636d4cc9d2906044016020604051808303816000875af1158015611012573d6000803e3d6000fd5b505050506040513d601f19601f820116820180604052508101906110369190611cbb565b92915050565b600060405161104a90611745565b604051809103906000f080158015611066573d6000803e3d6000fd5b50600480546040517f480c42a00000000000000000000000000000000000000000000000000000000081526002928101929092529192506000916001600160a01b03169063480c42a090602401602060405180830381865afa1580156110d0573d6000803e3d6000fd5b505050506040513d601f19601f820116820180604052508101906110f49190611c7a565b60048054875160e001516040517f1dbaf403000000000000000000000000000000000000000000000000000000008152928301529192506000916001600160a01b031690631dbaf40390602401602060405180830381865afa15801561115e573d6000803e3d6000fd5b505050506040513d601f19601f820116820180604052508101906111829190611c7a565b6040517ff700f4e60000000000000000000000000000000000000000000000000000000081529091506001600160a01b0384169063f700f4e6906111d2908990869086908b908b906004016120a4565b600060405180830381600087803b1580156111ec57600080fd5b505af1158015611200573d6000803e3d6000fd5b50505050610b718784610296565b6001546040516336a664e960e11b8152336004820152600b60248201819052916000916001600160a01b0390911690636d4cc9d2906044016020604051808303816000875af1158015611265573d6000803e3d6000fd5b505050506040513d601f19601f820116820180604052508101906112899190611cbb565b9050806112958361158a565b6040516020016112a59190611cd8565b604051602081830303815290604052906112d25760405162461bcd60e51b81526004016103109190611d43565b50600354604051637da8f6a560e01b81526001600160a01b0385811660048301526000921690637da8f6a5906024016020604051808303816000875af1158015611320573d6000803e3d6000fd5b505050506040513d601f19601f820116820180604052508101906113449190611c7a565b90506000816001600160a01b03166349bc8d186040518163ffffffff1660e01b8152600401600060405180830381865afa158015611386573d6000803e3d6000fd5b505050506040513d6000823e601f3d908101601f191682016040526113ae9190810190611d9b565b6040516020016113be9190612100565b60408051601f19818403018152908290526113db91602001611e3b565b604051602081830303815290604052826001600160a01b031663ccae57846040518163ffffffff1660e01b8152600401600060405180830381865afa158015611428573d6000803e3d6000fd5b505050506040513d6000823e601f3d908101601f191682016040526114509190810190611d9b565b604051602001611461929190611e7c565b60408051601f19818403018152908290526007546335bc30f560e21b83529092506001600160a01b03169063d6f0c3d4906114a59084903390600190600401611eab565b600060405180830381600087803b1580156114bf57600080fd5b505af11580156114d3573d6000803e3d6000fd5b505050505050505050565b6000546001600160a01b031633146115685760405162461bcd60e51b815260206004820152604160248201527f457374612066756e63696f6e20736f6c6f2070756564652073657220656a656360448201527f757461646120706f7220656c2063726561646f722064656c20636f6e747261746064820152606f60f81b608482015260a401610310565b600380546001600160a01b0319166001600160a01b0392909216919091179055565b6060816000036115cd57505060408051808201909152600181527f3000000000000000000000000000000000000000000000000000000000000000602082015290565b8160005b81156115f757806115e181612181565b91506115f09050600a836121b0565b91506115d1565b60008167ffffffffffffffff8111156116125761161261194f565b6040519080825280601f01601f19166020018201604052801561163c576020820181803683370190505b5090505b8415610e74576116516001836121c4565b915061165e600a866121d7565b6116699060306121eb565b60f81b81838151811061167e5761167e6121fe565b60200101907effffffffffffffffffffffffffffffffffffffffffffffffffffffffffffff1916908160001a9053506116b8600a866121b0565b9450611640565b6105a78061221583390190565b604051806060016040528061173160405180610120016040528060006001600160a01b03168152602001600081526020016060815260200160608152602001606081526020016060815260200160608152602001600081526020016000151581525090565b815260200160008152602001600081525090565b611317806127bc83390190565b6001600160a01b038116811461176757600080fd5b50565b803561177581611752565b919050565b6000806040838503121561178d57600080fd5b823561179881611752565b915060208301356117a881611752565b809150509250929050565b6000602082840312156117c557600080fd5b81356117d081611752565b9392505050565b60005b838110156117f25781810151838201526020016117da565b50506000910152565b600081518084526118138160208601602086016117d7565b601f01601f19169290920160200192915050565b60008151606084526118456060850182516001600160a01b03169052565b6020810151608085015260408101516101208060a087015261186b6101808701836117fb565b91506060830151605f19808885030160c089015261188984836117fb565b935060808501519150808885030160e08901526118a684836117fb565b935060a085015191506101008189860301818a01526118c585846117fb565b945060c086015192508189860301848a01526118e185846117fb565b60e08701516101408b01529501518015156101608a015294935061190492505050565b6020840151602086015260408401516040860152809250505092915050565b6020815260006117d06020830184611827565b60006020828403121561194857600080fd5b5035919050565b634e487b7160e01b600052604160045260246000fd5b6040516060810167ffffffffffffffff811182821017156119885761198861194f565b60405290565b604051610120810167ffffffffffffffff811182821017156119885761198861194f565b604051601f8201601f1916810167ffffffffffffffff811182821017156119db576119db61194f565b604052919050565b600067ffffffffffffffff8211156119fd576119fd61194f565b50601f01601f191660200190565b600082601f830112611a1c57600080fd5b8135611a2f611a2a826119e3565b6119b2565b818152846020838601011115611a4457600080fd5b816020850160208301376000918101602001919091529392505050565b801515811461176757600080fd5b803561177581611a61565b60008060008060808587031215611a9057600080fd5b8435611a9b81611752565b9350602085013567ffffffffffffffff80821115611ab857600080fd5b9086019060608289031215611acc57600080fd5b611ad4611965565b823582811115611ae357600080fd5b8301610120818b031215611af657600080fd5b611afe61198e565b611b078261176a565b815260208201356020820152604082013584811115611b2557600080fd5b611b318c828501611a0b565b604083015250606082013584811115611b4957600080fd5b611b558c828501611a0b565b606083015250608082013584811115611b6d57600080fd5b611b798c828501611a0b565b60808301525060a082013584811115611b9157600080fd5b611b9d8c828501611a0b565b60a08301525060c082013584811115611bb557600080fd5b611bc18c828501611a0b565b60c08301525060e082013560e0820152610100611bdf818401611a6f565b9082015282525060208381013590820152604092830135838201529450908601359080821115611c0e57600080fd5b611c1a88838901611a0b565b93506060870135915080821115611c3057600080fd5b50611c3d87828801611a0b565b91505092959194509250565b6002811061176757634e487b7160e01b600052602160045260246000fd5b60208101611c7483611c49565b91905290565b600060208284031215611c8c57600080fd5b81516117d081611752565b600060208284031215611ca957600080fd5b5051919050565b805161177581611a61565b600060208284031215611ccd57600080fd5b81516117d081611a61565b7f456c207573756172696f206e6f207469656e652061636365736f20706f72207281527f6f6c2061206c612066756e63696f6e3a20000000000000000000000000000000602082015260008251611d368160318501602087016117d7565b9190910160310192915050565b6020815260006117d060208301846117fb565b600082601f830112611d6757600080fd5b8151611d75611a2a826119e3565b818152846020838601011115611d8a57600080fd5b610e748260208301602087016117d7565b600060208284031215611dad57600080fd5b815167ffffffffffffffff811115611dc457600080fd5b610e7484828501611d56565b7f687474703a2f2f3137322e31382e302e313a333030312f76616c696461722d7581527f73756172696f3f6964656e74696669636163696f6e3d00000000000000000000602082015260008251611e2e8160368501602087016117d7565b9190910160360192915050565b60008251611e4d8184602087016117d7565b7f26636f6e74726173656e613d0000000000000000000000000000000000000000920191825250600c01919050565b60008351611e8e8184602088016117d7565b835190830190611ea28183602088016117d7565b01949350505050565b608081526000611ebe60808301866117fb565b8281036020840152600381527f47455400000000000000000000000000000000000000000000000000000000006020820152604081019150506001600160a01b0384166040830152611f0f83611c49565b826060830152949350505050565b805161177581611752565b600060208284031215611f3a57600080fd5b815167ffffffffffffffff80821115611f5257600080fd5b9083019060608286031215611f6657600080fd5b611f6e611965565b825182811115611f7d57600080fd5b83016101208188031215611f9057600080fd5b611f9861198e565b611fa182611f1d565b815260208201516020820152604082015184811115611fbf57600080fd5b611fcb89828501611d56565b604083015250606082015184811115611fe357600080fd5b611fef89828501611d56565b60608301525060808201518481111561200757600080fd5b61201389828501611d56565b60808301525060a08201518481111561202b57600080fd5b61203789828501611d56565b60a08301525060c08201518481111561204f57600080fd5b61205b89828501611d56565b60c08301525060e082015160e0820152610100935061207b848301611cb0565b848201528083525050602083015160208201526040830151604082015280935050505092915050565b60a0815260006120b760a0830188611827565b6001600160a01b0387811660208501528616604084015282810360608401526120e081866117fb565b905082810360808401526120f481856117fb565b98975050505050505050565b7f687474703a2f2f3137322e31382e302e313a333030312f6275736361722d757381527f756172696f3f6964656e74696669636163696f6e3d000000000000000000000060208201526000825161215e8160358501602087016117d7565b9190910160350192915050565b634e487b7160e01b600052601160045260246000fd5b6000600182016121935761219361216b565b5060010190565b634e487b7160e01b600052601260045260246000fd5b6000826121bf576121bf61219a565b500490565b818103818111156110365761103661216b565b6000826121e6576121e661219a565b500690565b808201808211156110365761103661216b565b634e487b7160e01b600052603260045260246000fdfe608060405234801561001057600080fd5b50610587806100206000396000f3fe608060405234801561001057600080fd5b506004361061007d5760003560e01c8063af9958461161005b578063af99584614610100578063c3e00aff1461011d578063ce8dd29f1461012e578063fdaef4831461016b57600080fd5b80635745ab981461008257806360749724146100c157806364ff6bbe146100eb575b600080fd5b6100bf6100903660046102d9565b6000805473ffffffffffffffffffffffffffffffffffffffff19166001600160a01b0392909216919091179055565b005b6000546001600160a01b03165b6040516001600160a01b0390911681526020015b60405180910390f35b6100f36101b2565b6040516100e2919061034d565b600154600160a01b900460ff1660405190151581526020016100e2565b6001546001600160a01b03166100ce565b6100bf61013c3660046102d9565b6001805473ffffffffffffffffffffffffffffffffffffffff19166001600160a01b0392909216919091179055565b6100bf6101793660046103c7565b60018054911515600160a01b027fffffffffffffffffffffff00ffffffffffffffffffffffffffffffffffffffff909216919091179055565b6101ba610275565b60408051606081018252600080546001600160a01b03908116835260015484517fea1a6f29000000000000000000000000000000000000000000000000000000008152945193946020860194919092169263ea1a6f2992600480820193918290030181865afa158015610231573d6000803e3d6000fd5b505050506040513d6000823e601f3d908101601f1916820160405261025991908101906104a0565b8152600154600160a01b900460ff161515602090910152919050565b604051806060016040528060006001600160a01b031681526020016102b460405180606001604052806000815260200160608152602001606081525090565b8152600060209091015290565b6001600160a01b03811681146102d657600080fd5b50565b6000602082840312156102eb57600080fd5b81356102f6816102c1565b9392505050565b60005b83811015610318578181015183820152602001610300565b50506000910152565b600081518084526103398160208601602086016102fd565b601f01601f19169290920160200192915050565b602081526001600160a01b0382511660208201526000602083015160606040840152805160808401526020810151606060a085015261038f60e0850182610321565b905060408201519150607f198482030160c08501526103ae8183610321565b9150506040840151151560608401528091505092915050565b6000602082840312156103d957600080fd5b813580151581146102f657600080fd5b7f4e487b7100000000000000000000000000000000000000000000000000000000600052604160045260246000fd5b600082601f83011261042957600080fd5b815167ffffffffffffffff80821115610444576104446103e9565b604051601f8301601f19908116603f0116810190828211818310171561046c5761046c6103e9565b8160405283815286602085880101111561048557600080fd5b6104968460208301602089016102fd565b9695505050505050565b6000602082840312156104b257600080fd5b815167ffffffffffffffff808211156104ca57600080fd5b90830190606082860312156104de57600080fd5b6040516060810181811083821117156104f9576104f96103e9565b6040528251815260208301518281111561051257600080fd5b61051e87828601610418565b60208301525060408301518281111561053657600080fd5b61054287828601610418565b6040830152509594505050505056fea26469706673582212202a8a424cfc8f6bc14a03e781e96cd9937f218c3f62cffa4e7dee3e14410cc5a964736f6c63430008110033608060405234801561001057600080fd5b506112f7806100206000396000f3fe608060405234801561001057600080fd5b50600436106101da5760003560e01c80637d5c303211610104578063cc9f930e116100a2578063eacd3b9311610071578063eacd3b931461041d578063ec1d22dd14610425578063ef974e8014610438578063f700f4e61461046857600080fd5b8063cc9f930e146103bf578063ccae5784146103d2578063d0e0ba95146103da578063d1e360ff146103ed57600080fd5b80639ac9abd0116100de5780639ac9abd014610394578063aee5de751461039c578063b2f9ccbb146103af578063c461d52e146103b757600080fd5b80637d5c30321461035b57806383cb77b0146103705780638ba686071461038357600080fd5b8063551a5cfa1161017c5780636d07d7e31161014b5780636d07d7e3146102dd578063765fe099146102ee578063787728ab1461030157806378c7e2921461031457600080fd5b8063551a5cfa1461026d5780635745ab98146102805780635d1ca631146102b057806360749724146102b857600080fd5b80633ca452b9116101b85780633ca452b91461022857806349bc8d181461023d5780634e8c23ca146102455780634f63ce131461025857600080fd5b806304a765b2146101df57806328fd4873146101f65780633c3c069f1461020b575b600080fd5b6009545b6040519081526020015b60405180910390f35b610209610204366004610cce565b61047b565b005b600754600160a01b900460ff1660405190151581526020016101ed565b61023061048b565b6040516101ed9190610d51565b61023061051d565b610209610253366004610cce565b61052c565b610260610538565b6040516101ed9190610e31565b61020961027b366004610cce565b6105de565b61020961028e366004610e95565b600080546001600160a01b0319166001600160a01b0392909216919091179055565b6001546101e3565b6000546001600160a01b03165b6040516001600160a01b0390911681526020016101ed565b6008546001600160a01b03166102c5565b6102096102fc366004610fd8565b6105ea565b61020961030f366004610cce565b6106b7565b61020961032236600461102a565b60078054911515600160a01b027fffffffffffffffffffffff00ffffffffffffffffffffffffffffffffffffffff909216919091179055565b6103636106c3565b6040516101ed9190611045565b61020961037e366004610cce565b610aa6565b6007546001600160a01b03166102c5565b610230610ab2565b6102096103aa366004611058565b600955565b610230610ac1565b610230610ad0565b6102096103cd366004610cce565b610adf565b610230610aeb565b6102096103e8366004611058565b600155565b6102096103fb366004610e95565b600780546001600160a01b0319166001600160a01b0392909216919091179055565b610230610afa565b610209610433366004610cce565b610b09565b610209610446366004610e95565b600880546001600160a01b0319166001600160a01b0392909216919091179055565b610209610476366004611071565b610b15565b600661048782826111e8565b5050565b60606002805461049a9061115f565b80601f01602080910402602001604051908101604052809291908181526020018280546104c69061115f565b80156105135780601f106104e857610100808354040283529160200191610513565b820191906000526020600020905b8154815290600101906020018083116104f657829003601f168201915b5050505050905090565b6060600a805461049a9061115f565b600561048782826111e8565b610540610b65565b60405180606001604052806105536106c3565b81526020016009548152602001600860009054906101000a90046001600160a01b03166001600160a01b0316635d1ca6316040518163ffffffff1660e01b8152600401602060405180830381865afa1580156105b3573d6000803e3d6000fd5b505050506040513d601f19601f820116820180604052508101906105d791906112a8565b9052919050565b600361048782826111e8565b6020820151600155604082015160029061060490826111e8565b50606082015160039061061790826111e8565b50608082015160049061062a90826111e8565b5060a082015160059061063d90826111e8565b5060c082015160069061065090826111e8565b50610100820151600780547fffffffffffffffffffffff00000000000000000000000000000000000000000016600160a01b921515929092026001600160a01b0319908116929092176001600160a01b039384161790559151600080549093169116179055565b600b61048782826111e8565b61071d60405180610120016040528060006001600160a01b03168152602001600081526020016060815260200160608152602001606081526020016060815260200160608152602001600081526020016000151581525090565b60408051610120810182526000546001600160a01b0316815260015460208201526002805491928301916107509061115f565b80601f016020809104026020016040519081016040528092919081815260200182805461077c9061115f565b80156107c95780601f1061079e576101008083540402835291602001916107c9565b820191906000526020600020905b8154815290600101906020018083116107ac57829003601f168201915b50505050508152602001600380546107e09061115f565b80601f016020809104026020016040519081016040528092919081815260200182805461080c9061115f565b80156108595780601f1061082e57610100808354040283529160200191610859565b820191906000526020600020905b81548152906001019060200180831161083c57829003601f168201915b50505050508152602001600480546108709061115f565b80601f016020809104026020016040519081016040528092919081815260200182805461089c9061115f565b80156108e95780601f106108be576101008083540402835291602001916108e9565b820191906000526020600020905b8154815290600101906020018083116108cc57829003601f168201915b50505050508152602001600580546109009061115f565b80601f016020809104026020016040519081016040528092919081815260200182805461092c9061115f565b80156109795780601f1061094e57610100808354040283529160200191610979565b820191906000526020600020905b81548152906001019060200180831161095c57829003601f168201915b50505050508152602001600680546109909061115f565b80601f01602080910402602001604051908101604052809291908181526020018280546109bc9061115f565b8015610a095780601f106109de57610100808354040283529160200191610a09565b820191906000526020600020905b8154815290600101906020018083116109ec57829003601f168201915b50505050508152602001600760009054906101000a90046001600160a01b03166001600160a01b0316635d1ca6316040518163ffffffff1660e01b8152600401602060405180830381865afa158015610a66573d6000803e3d6000fd5b505050506040513d601f19601f82011682018060405250810190610a8a91906112a8565b8152600754600160a01b900460ff161515602090910152919050565b600261048782826111e8565b60606006805461049a9061115f565b60606003805461049a9061115f565b60606004805461049a9061115f565b600461048782826111e8565b6060600b805461049a9061115f565b60606005805461049a9061115f565b600a61048782826111e8565b8451610b2190846105ea565b600880546001600160a01b0319166001600160a01b038616179055600a610b4883826111e8565b50600b610b5582826111e8565b5050506020909201516009555050565b6040518060600160405280610bca60405180610120016040528060006001600160a01b03168152602001600081526020016060815260200160608152602001606081526020016060815260200160608152602001600081526020016000151581525090565b815260200160008152602001600081525090565b634e487b7160e01b600052604160045260246000fd5b604051610120810167ffffffffffffffff81118282101715610c1857610c18610bde565b60405290565b6040516060810167ffffffffffffffff81118282101715610c1857610c18610bde565b600082601f830112610c5257600080fd5b813567ffffffffffffffff80821115610c6d57610c6d610bde565b604051601f8301601f19908116603f01168101908282118183101715610c9557610c95610bde565b81604052838152866020858801011115610cae57600080fd5b836020870160208301376000602085830101528094505050505092915050565b600060208284031215610ce057600080fd5b813567ffffffffffffffff811115610cf757600080fd5b610d0384828501610c41565b949350505050565b6000815180845260005b81811015610d3157602081850181015186830182015201610d15565b506000602082860101526020601f19601f83011685010191505092915050565b602081526000610d646020830184610d0b565b9392505050565b80516001600160a01b031682526000610120602083015160208501526040830151816040860152610d9e82860182610d0b565b91505060608301518482036060860152610db88282610d0b565b91505060808301518482036080860152610dd28282610d0b565b91505060a083015184820360a0860152610dec8282610d0b565b91505060c083015184820360c0860152610e068282610d0b565b91505060e083015160e085015261010080840151610e278287018215159052565b5090949350505050565b602081526000825160606020840152610e4d6080840182610d6b565b905060208401516040840152604084015160608401528091505092915050565b6001600160a01b0381168114610e8257600080fd5b50565b8035610e9081610e6d565b919050565b600060208284031215610ea757600080fd5b8135610d6481610e6d565b80358015158114610e9057600080fd5b60006101208284031215610ed557600080fd5b610edd610bf4565b9050610ee882610e85565b815260208201356020820152604082013567ffffffffffffffff80821115610f0f57600080fd5b610f1b85838601610c41565b60408401526060840135915080821115610f3457600080fd5b610f4085838601610c41565b60608401526080840135915080821115610f5957600080fd5b610f6585838601610c41565b608084015260a0840135915080821115610f7e57600080fd5b610f8a85838601610c41565b60a084015260c0840135915080821115610fa357600080fd5b50610fb084828501610c41565b60c08301525060e082013560e0820152610100610fce818401610eb2565b9082015292915050565b60008060408385031215610feb57600080fd5b823567ffffffffffffffff81111561100257600080fd5b61100e85828601610ec2565b925050602083013561101f81610e6d565b809150509250929050565b60006020828403121561103c57600080fd5b610d6482610eb2565b602081526000610d646020830184610d6b565b60006020828403121561106a57600080fd5b5035919050565b600080600080600060a0868803121561108957600080fd5b853567ffffffffffffffff808211156110a157600080fd5b908701906060828a0312156110b557600080fd5b6110bd610c1e565b8235828111156110cc57600080fd5b6110d88b828601610ec2565b8252506020830135602082015260408301356040820152809750506110ff60208901610e85565b955061110d60408901610e85565b9450606088013591508082111561112357600080fd5b61112f89838a01610c41565b9350608088013591508082111561114557600080fd5b5061115288828901610c41565b9150509295509295909350565b600181811c9082168061117357607f821691505b60208210810361119357634e487b7160e01b600052602260045260246000fd5b50919050565b601f8211156111e357600081815260208120601f850160051c810160208610156111c05750805b601f850160051c820191505b818110156111df578281556001016111cc565b5050505b505050565b815167ffffffffffffffff81111561120257611202610bde565b61121681611210845461115f565b84611199565b602080601f83116001811461124b57600084156112335750858301515b600019600386901b1c1916600185901b1785556111df565b600085815260208120601f198616915b8281101561127a5788860151825594840194600190910190840161125b565b50858210156112985787850151600019600388901b60f8161c191681555b5050505050600190811b01905550565b6000602082840312156112ba57600080fd5b505191905056fea2646970667358221220b5067091ab12ed4a84e8d832178e55d091661293e9198f8e614d7b4a878b113c64736f6c63430008110033a264697066735822122021fe1109b0bd34a64faebe552e989e1e517cbbdc98bacc8d98fcbc7c81ca06cf64736f6c63430008110033",
  "immutableReferences": {},
  "source": "// SPDX-License-Identifier: MIT\npragma solidity ^0.8.17;\n\nimport \"../models/MedicoVO.sol\";\nimport \"../persistence/MedicoMapper.sol\";\nimport \"../persistence/DatosParametricosMapper.sol\";\nimport \"../models/VOGenerales/enums/RolDeAccesoEnum.sol\";\nimport \"./Acceso.sol\";\nimport \"../utils/Modifiers.sol\";\nimport \"../oracles/Oracle.sol\";\nimport \"../models/oracles/PeticionExternaEnum.sol\";\n\ncontract Medico is Modifiers {\n    //address public creador;\n\n    MedicoMapperInterface private medicoMapper;\n    DatosParametricosMapperInterface private datosParametricosMapper;\n    RolMapperInterface private rolMapper;\n    UsuarioMapperInterface private usuarioMapper;\n\n    Oracle private oraculo;\n\n    constructor() {\n        creador = msg.sender;\n    }\n\n    function consultar(address direccion)\n        public\n        tieneAcceso(7)\n        returns (MedicoVO.MedicoVOStruct memory)\n    {\n        return medicoMapper.consultar(direccion).getMedicoVOValue();\n    }\n\n    function registrar(address direccion, MedicoVO medico)\n        public        \n    {\n        if (direccion != msg.sender) {\n            revert(\"Un medico se debe registrar a si mismo\");\n        }\n        RolVO rol = rolMapper.consultar(RolDeAccesoEnum.MEDICO);\n        UsuarioVO nuevoUsuario = new UsuarioVO();\n        nuevoUsuario.setDireccion(direccion);\n        nuevoUsuario.setRol(rol);\n        nuevoUsuario.setEstaActivo(true);\n        usuarioMapper.guardar(direccion, nuevoUsuario);\n        medicoMapper.guardar(direccion, medico);\n        verificarExistenciaEnSistemaExterno(\n            direccion\n        );\n    }\n\n    function registrarConStruct(\n        address direccion,\n        MedicoVO.MedicoVOStruct memory medicoVOStruct,\n        string memory _usuario,\n        string memory _contrasena // TODO: Recibir encryptada\n    ) public       \n    {        \n        MedicoVO medicoVO = new MedicoVO();\n        EstadoVO estadoVO = datosParametricosMapper.consultarEstadoVO(\n            2 // Medico en validacin  TODO: convertir en enum\n        );\n        TipoIdentificacionVO _tipoIdentificacionVO = datosParametricosMapper\n            .consultarTipoIdentificacionVO(\n                medicoVOStruct.persona.tipoIdentificacion\n            );\n\n        medicoVO.setValuesOfMedicoVOStruct(\n            medicoVOStruct,\n            estadoVO,\n            _tipoIdentificacionVO,\n            _usuario,\n            _contrasena\n        );\n        registrar(direccion, medicoVO);        \n    }\n\n    // TODO: Cambiar por struct\n    function actualizar(address direccion, MedicoVO medico)\n        public\n        tieneAcceso(9)\n    {\n        medicoMapper.actualizar(direccion, medico);\n    }\n\n    function verificarExistenciaEnSistemaExterno(\n        address direccion\n        )\n        public                \n    {\n        // tieneAcceso(10)\n        /* TODO: Consultar info del medico (usuario y contrasea)\n         *  despues se hace con oraculos una consulta\n         */\n\n         MedicoVO informacionMedico = medicoMapper.consultar(direccion);\n\n         string memory url = string.concat(\n            string.concat(\n                string.concat(\n                    \"http://172.18.0.1:3001/validar-usuario?identificacion=\",\n                    informacionMedico.getUsuario()\n                    ),\n            \"&contrasena=\"\n            ),\n            informacionMedico.getContrasena());\n\n         \n         \n         oraculo.createRequest(\n            url,\n            \"GET\", \n            direccion, \n            PeticionExternaEnum.VALIDAR_MEDICO\n            );\n    }\n\n    function buscarPerfilMedicoSistemaExterno(address direccion) public \n    tieneAcceso(11) {\n        // TODO: tambien con oraculo\n         MedicoVO informacionMedico = medicoMapper.consultar(direccion);\n\n         string memory url = string.concat(\n            string.concat(\n                string.concat(\n                    \"http://172.18.0.1:3001/buscar-usuario?identificacion=\",\n                    informacionMedico.getUsuario()\n                    ),\n            \"&contrasena=\"\n            ),\n            informacionMedico.getContrasena());\n\n         \n         \n         oraculo.createRequest(\n            url,\n            \"GET\", \n            msg.sender, \n            PeticionExternaEnum.BUSCAR_MEDICO\n            );\n\n    }\n\n    function setMedicoMapper(MedicoMapperInterface _medicoMapper)\n        public\n        esPropietario\n    {\n        medicoMapper = _medicoMapper;\n    }\n\n    function setDatosParametricosMapper(\n        DatosParametricosMapperInterface _datosParametricosMapperAddress\n    ) public esPropietario {\n        datosParametricosMapper = _datosParametricosMapperAddress;\n    }\n\n    // Eliminar\n    /*function setMedicoOraculo(MedicoOraculo _medicoOraculo)\n        public\n        esPropietario\n    {\n        medicoOraculo = _medicoOraculo;\n    }*/\n\n    function setRolMapper(RolMapperInterface _rolMapperAddress)\n        public\n        esPropietario\n    {\n        rolMapper = _rolMapperAddress;\n    }\n\n    function setUsuarioMapper(UsuarioMapperInterface _usuarioMapperAddress)\n        public\n        esPropietario\n    {\n        usuarioMapper = _usuarioMapperAddress;\n    }\n\n    function setOracle(Oracle _oracleAddress)\n    public\n    esPropietario\n    {\n        oraculo = _oracleAddress;\n    }\n\n    function selfDestruct() public esPropietario {\n        selfdestruct(payable(creador));\n    }\n}\n",
  "sourcePath": "/back/contracts/logica/Medico.sol",
  "compiler": {
    "name": "solc",
    "version": "0.8.17+commit.8df45f5f.Emscripten.clang"
  },
  "schemaVersion": "3.4.11",
  "updatedAt": "2023-06-26T00:48:13.843Z",
  "networkType": "ethereum",
  "devdoc": {
    "kind": "dev",
    "methods": {},
    "version": 1
  },
  "userdoc": {
    "kind": "user",
    "methods": {},
    "version": 1
  }
}