{
  "contractName": "Medico",
  "abi": [
    {
      "inputs": [],
      "stateMutability": "nonpayable",
      "type": "constructor"
    },
    {
      "inputs": [],
      "name": "creador",
      "outputs": [
        {
          "internalType": "address",
          "name": "",
          "type": "address"
        }
      ],
      "stateMutability": "view",
      "type": "function",
      "constant": true
    },
    {
      "inputs": [],
      "name": "login",
      "outputs": [
        {
          "internalType": "contract Persona",
          "name": "",
          "type": "address"
        }
      ],
      "stateMutability": "view",
      "type": "function",
      "constant": true
    },
    {
      "inputs": [
        {
          "internalType": "uint256",
          "name": "funcionId",
          "type": "uint256"
        }
      ],
      "name": "buscarPermisosDeRol",
      "outputs": [
        {
          "internalType": "bool",
          "name": "",
          "type": "bool"
        }
      ],
      "stateMutability": "view",
      "type": "function",
      "constant": true
    }
  ],
  "bytecode": "0x608060405234801561001057600080fd5b50336000806101000a81548173ffffffffffffffffffffffffffffffffffffffff021916908373ffffffffffffffffffffffffffffffffffffffff160217905550610296806100606000396000f3fe608060405234801561001057600080fd5b50600436106100415760003560e01c806392ebdcd214610046578063b34e97e814610064578063f92e615314610082575b600080fd5b61004e6100b2565b60405161005b919061012d565b60405180910390f35b61006c6100d6565b60405161007991906101a7565b60405180910390f35b61009c600480360381019061009791906101fd565b6100e0565b6040516100a99190610245565b60405180910390f35b60008054906101000a900473ffffffffffffffffffffffffffffffffffffffff1681565b6000803390505090565b60008033905050919050565b600073ffffffffffffffffffffffffffffffffffffffff82169050919050565b6000610117826100ec565b9050919050565b6101278161010c565b82525050565b6000602082019050610142600083018461011e565b92915050565b6000819050919050565b600061016d610168610163846100ec565b610148565b6100ec565b9050919050565b600061017f82610152565b9050919050565b600061019182610174565b9050919050565b6101a181610186565b82525050565b60006020820190506101bc6000830184610198565b92915050565b600080fd5b6000819050919050565b6101da816101c7565b81146101e557600080fd5b50565b6000813590506101f7816101d1565b92915050565b600060208284031215610213576102126101c2565b5b6000610221848285016101e8565b91505092915050565b60008115159050919050565b61023f8161022a565b82525050565b600060208201905061025a6000830184610236565b9291505056fea2646970667358221220abd68359ac0bf11c5a0de3ff6ae087f59afcbcf03a3b18cd7eb8a3e9c6ec78ef64736f6c634300080b0033",
  "immutableReferences": {},
  "source": "pragma solidity ^0.8.10; \n\nimport \"./Persona.sol\";\nimport \"./Usuario.sol\";\nimport \"../models/PersonaStruct.sol\";\nimport \"../persistence/PersonaDAO.sol\";\n\n// TODO: cambiar el diagrama, no puede heredar pero si puede usar o componerse de persona\ncontract Medico {\n    address public creador;\n\n    struct MedicoStruct {\n        PersonaStruct persona;\n        string especialidad;\n        string usuario;\n        string contrasena;\n    }\n\n    // EstadoStruct private estado;\n\n    struct PerfilMedicoSistemaExternoStruct {\n        string primerNombre;\n        string segundoNombre;\n        string primerApellido;\n        string segundoApellido;\n        string identificacion; // TODO: agregar tipo de identificacion\n        string especialidad;\n    }\n\n    constructor() {\n        creador = msg.sender; // creador del contrato\n    }\n\n    function login() public view returns (Persona) {\n        address direccion = msg.sender;\n        // TODO: buscar persona en arreglo\n    }\n\n    // TODO: buscar porque es uint256\n    function buscarPermisosDeRol(uint256 funcionId) public view returns (bool) {\n        address direccion = msg.sender;\n        // TODO: esto es como un filtro (averiguar si lo hay en solidity) y sirve para ver si un usario tiene acceso a x metodo\n    }\n}",
  "sourcePath": "/home/felipe/Documentos/Blockchain/codigo/back-hce/contracts/logica/Medico.sol",
  "compiler": {
    "name": "solc",
    "version": "0.8.11+commit.d7f03943.Emscripten.clang"
  },
  "schemaVersion": "3.4.4",
  "updatedAt": "2022-02-05T00:12:00.290Z",
  "networkType": "ethereum",
  "devdoc": {
    "kind": "dev",
    "methods": {},
    "version": 1
  },
  "userdoc": {
    "kind": "user",
    "methods": {},
    "version": 1
  }
}