{
  "contractName": "Medico",
  "abi": [
    {
      "inputs": [],
      "stateMutability": "nonpayable",
      "type": "constructor"
    },
    {
      "anonymous": false,
      "inputs": [
        {
          "indexed": false,
          "internalType": "string",
          "name": "data",
          "type": "string"
        }
      ],
      "name": "Log",
      "type": "event"
    },
    {
      "inputs": [],
      "name": "ContratoMedicoDAOAddress",
      "outputs": [
        {
          "internalType": "address",
          "name": "",
          "type": "address"
        }
      ],
      "stateMutability": "view",
      "type": "function"
    },
    {
      "inputs": [],
      "name": "ContratoPersonaAddress",
      "outputs": [
        {
          "internalType": "address",
          "name": "",
          "type": "address"
        }
      ],
      "stateMutability": "view",
      "type": "function"
    },
    {
      "inputs": [],
      "name": "creador",
      "outputs": [
        {
          "internalType": "address",
          "name": "",
          "type": "address"
        }
      ],
      "stateMutability": "view",
      "type": "function"
    },
    {
      "inputs": [
        {
          "internalType": "address",
          "name": "direccion",
          "type": "address"
        }
      ],
      "name": "consultar",
      "outputs": [
        {
          "components": [
            {
              "components": [
                {
                  "internalType": "string",
                  "name": "primerNombre",
                  "type": "string"
                },
                {
                  "internalType": "string",
                  "name": "segundoNombre",
                  "type": "string"
                },
                {
                  "internalType": "string",
                  "name": "primerApellido",
                  "type": "string"
                },
                {
                  "internalType": "string",
                  "name": "segundoApellido",
                  "type": "string"
                },
                {
                  "internalType": "string",
                  "name": "identificacion",
                  "type": "string"
                },
                {
                  "components": [
                    {
                      "internalType": "string",
                      "name": "nombre",
                      "type": "string"
                    },
                    {
                      "internalType": "string",
                      "name": "descripcion",
                      "type": "string"
                    },
                    {
                      "internalType": "bool",
                      "name": "estaActiva",
                      "type": "bool"
                    }
                  ],
                  "internalType": "struct TipoIdentificacionStruct",
                  "name": "tipoIdentificacionId",
                  "type": "tuple"
                },
                {
                  "internalType": "uint256",
                  "name": "rolId",
                  "type": "uint256"
                },
                {
                  "internalType": "bool",
                  "name": "isValue",
                  "type": "bool"
                }
              ],
              "internalType": "struct PersonaStruct",
              "name": "persona",
              "type": "tuple"
            },
            {
              "components": [
                {
                  "internalType": "string",
                  "name": "estado",
                  "type": "string"
                },
                {
                  "internalType": "string",
                  "name": "especialidad",
                  "type": "string"
                },
                {
                  "internalType": "string",
                  "name": "usuario",
                  "type": "string"
                },
                {
                  "internalType": "string",
                  "name": "contrasena",
                  "type": "string"
                },
                {
                  "internalType": "bool",
                  "name": "isValue",
                  "type": "bool"
                }
              ],
              "internalType": "struct MedicoStruct",
              "name": "medico",
              "type": "tuple"
            }
          ],
          "internalType": "struct Medico.PersonaMedicoStruct",
          "name": "medicoInfo",
          "type": "tuple"
        }
      ],
      "stateMutability": "nonpayable",
      "type": "function"
    },
    {
      "inputs": [
        {
          "internalType": "address",
          "name": "direccion",
          "type": "address"
        }
      ],
      "name": "consultarMedico",
      "outputs": [
        {
          "components": [
            {
              "internalType": "string",
              "name": "estado",
              "type": "string"
            },
            {
              "internalType": "string",
              "name": "especialidad",
              "type": "string"
            },
            {
              "internalType": "string",
              "name": "usuario",
              "type": "string"
            },
            {
              "internalType": "string",
              "name": "contrasena",
              "type": "string"
            },
            {
              "internalType": "bool",
              "name": "isValue",
              "type": "bool"
            }
          ],
          "internalType": "struct MedicoStruct",
          "name": "",
          "type": "tuple"
        }
      ],
      "stateMutability": "nonpayable",
      "type": "function"
    },
    {
      "inputs": [
        {
          "internalType": "address",
          "name": "direccion",
          "type": "address"
        }
      ],
      "name": "consultarPersona",
      "outputs": [
        {
          "components": [
            {
              "internalType": "string",
              "name": "primerNombre",
              "type": "string"
            },
            {
              "internalType": "string",
              "name": "segundoNombre",
              "type": "string"
            },
            {
              "internalType": "string",
              "name": "primerApellido",
              "type": "string"
            },
            {
              "internalType": "string",
              "name": "segundoApellido",
              "type": "string"
            },
            {
              "internalType": "string",
              "name": "identificacion",
              "type": "string"
            },
            {
              "components": [
                {
                  "internalType": "string",
                  "name": "nombre",
                  "type": "string"
                },
                {
                  "internalType": "string",
                  "name": "descripcion",
                  "type": "string"
                },
                {
                  "internalType": "bool",
                  "name": "estaActiva",
                  "type": "bool"
                }
              ],
              "internalType": "struct TipoIdentificacionStruct",
              "name": "tipoIdentificacionId",
              "type": "tuple"
            },
            {
              "internalType": "uint256",
              "name": "rolId",
              "type": "uint256"
            },
            {
              "internalType": "bool",
              "name": "isValue",
              "type": "bool"
            }
          ],
          "internalType": "struct PersonaStruct",
          "name": "",
          "type": "tuple"
        }
      ],
      "stateMutability": "nonpayable",
      "type": "function"
    },
    {
      "inputs": [
        {
          "internalType": "address",
          "name": "direccion",
          "type": "address"
        },
        {
          "components": [
            {
              "internalType": "string",
              "name": "estado",
              "type": "string"
            },
            {
              "internalType": "string",
              "name": "especialidad",
              "type": "string"
            },
            {
              "internalType": "string",
              "name": "usuario",
              "type": "string"
            },
            {
              "internalType": "string",
              "name": "contrasena",
              "type": "string"
            },
            {
              "internalType": "bool",
              "name": "isValue",
              "type": "bool"
            }
          ],
          "internalType": "struct MedicoStruct",
          "name": "medico",
          "type": "tuple"
        }
      ],
      "name": "registrar",
      "outputs": [],
      "stateMutability": "nonpayable",
      "type": "function"
    },
    {
      "inputs": [
        {
          "internalType": "address",
          "name": "direccion",
          "type": "address"
        }
      ],
      "name": "verificarExistenciaEnSistemaExterno",
      "outputs": [
        {
          "internalType": "bool",
          "name": "",
          "type": "bool"
        }
      ],
      "stateMutability": "nonpayable",
      "type": "function"
    },
    {
      "inputs": [
        {
          "internalType": "address",
          "name": "direccion",
          "type": "address"
        }
      ],
      "name": "setContratoPersonaAddress",
      "outputs": [],
      "stateMutability": "nonpayable",
      "type": "function"
    },
    {
      "inputs": [
        {
          "internalType": "address",
          "name": "direccion",
          "type": "address"
        }
      ],
      "name": "setContratoPacienteDAOAddress",
      "outputs": [],
      "stateMutability": "nonpayable",
      "type": "function"
    }
  ],
  "bytecode": "0x608060405234801561001057600080fd5b50336000806101000a81548173ffffffffffffffffffffffffffffffffffffffff021916908373ffffffffffffffffffffffffffffffffffffffff160217905550611e06806100606000396000f3fe608060405234801561001057600080fd5b506004361061009e5760003560e01c806380ac891c1161006657806380ac891c1461015757806380bce03014610175578063928c135c146101a557806392ebdcd2146101c357806398b8fe71146101e15761009e565b806317627994146100a357806340cd7a60146100bf5780634845da3e146100db5780635a2c9ea2146100f75780637da8f6a514610127575b600080fd5b6100bd60048036038101906100b89190610e74565b610211565b005b6100d960048036038101906100d49190610ed0565b610382565b005b6100f560048036038101906100f09190610ed0565b6104b7565b005b610111600480360381019061010c9190610ed0565b6105ec565b60405161011e9190610f0c565b60405180910390f35b610141600480360381019061013c9190610ed0565b6105f7565b60405161014e91906111d0565b60405180910390f35b61015f61065b565b60405161016c9190611201565b60405180910390f35b61018f600480360381019061018a9190610ed0565b610681565b60405161019c91906112a7565b60405180910390f35b6101ad610877565b6040516101ba9190611201565b60405180910390f35b6101cb61089d565b6040516101d89190611201565b60405180910390f35b6101fb60048036038101906101f69190610ed0565b6108c1565b604051610208919061139c565b60405180910390f35b600360009054906101000a900473ffffffffffffffffffffffffffffffffffffffff1673ffffffffffffffffffffffffffffffffffffffff166333b6fb8983836040518363ffffffff1660e01b815260040161026e9291906113be565b600060405180830381600087803b15801561028857600080fd5b505af1925050508015610299575060015b610348576102a56113fb565b806308c379a0141561033757506102ba61141d565b806102c55750610339565b7fcf34ef537ac33ee1ac626ca1587a0a7e8e51561e5514f8cb36afa1c5102b3bab6040516102f290611536565b60405180910390a17fcf34ef537ac33ee1ac626ca1587a0a7e8e51561e5514f8cb36afa1c5102b3bab81604051610329919061158f565b60405180910390a150610343565b505b3d6000803e3d6000fd5b61037e565b7fcf34ef537ac33ee1ac626ca1587a0a7e8e51561e5514f8cb36afa1c5102b3bab60405161037590611623565b60405180910390a15b5050565b60008054906101000a900473ffffffffffffffffffffffffffffffffffffffff1673ffffffffffffffffffffffffffffffffffffffff163373ffffffffffffffffffffffffffffffffffffffff1614610410576040517f08c379a0000000000000000000000000000000000000000000000000000000008152600401610407906116db565b60405180910390fd5b80600260006101000a81548173ffffffffffffffffffffffffffffffffffffffff021916908373ffffffffffffffffffffffffffffffffffffffff160217905550600260009054906101000a900473ffffffffffffffffffffffffffffffffffffffff16600460006101000a81548173ffffffffffffffffffffffffffffffffffffffff021916908373ffffffffffffffffffffffffffffffffffffffff16021790555050565b60008054906101000a900473ffffffffffffffffffffffffffffffffffffffff1673ffffffffffffffffffffffffffffffffffffffff163373ffffffffffffffffffffffffffffffffffffffff1614610545576040517f08c379a000000000000000000000000000000000000000000000000000000000815260040161053c906116db565b60405180910390fd5b80600160006101000a81548173ffffffffffffffffffffffffffffffffffffffff021916908373ffffffffffffffffffffffffffffffffffffffff160217905550600160009054906101000a900473ffffffffffffffffffffffffffffffffffffffff16600360006101000a81548173ffffffffffffffffffffffffffffffffffffffff021916908373ffffffffffffffffffffffffffffffffffffffff16021790555050565b600060019050919050565b6105ff610ab7565b7fcf34ef537ac33ee1ac626ca1587a0a7e8e51561e5514f8cb36afa1c5102b3bab60405161062c90611747565b60405180910390a161063d82610681565b816020018190525061064e826108c1565b8160000181905250919050565b600160009054906101000a900473ffffffffffffffffffffffffffffffffffffffff1681565b610689610add565b7fcf34ef537ac33ee1ac626ca1587a0a7e8e51561e5514f8cb36afa1c5102b3bab6040516106b6906117b3565b60405180910390a1600360009054906101000a900473ffffffffffffffffffffffffffffffffffffffff1673ffffffffffffffffffffffffffffffffffffffff16637da8f6a5836040518263ffffffff1660e01b81526004016107199190611201565b6000604051808303816000875af192505050801561075a57506040513d6000823e3d601f19601f820116820180604052508101906107579190611954565b60015b610839576107666113fb565b806308c379a0141561082d575061077b61141d565b80610786575061082f565b7fcf34ef537ac33ee1ac626ca1587a0a7e8e51561e5514f8cb36afa1c5102b3bab6040516107b390611536565b60405180910390a17fcf34ef537ac33ee1ac626ca1587a0a7e8e51561e5514f8cb36afa1c5102b3bab816040516107ea919061158f565b60405180910390a16040517f08c379a0000000000000000000000000000000000000000000000000000000008152600401610824906119e9565b60405180910390fd5b505b3d6000803e3d6000fd5b7fcf34ef537ac33ee1ac626ca1587a0a7e8e51561e5514f8cb36afa1c5102b3bab60405161086690611a55565b60405180910390a180915050919050565b600260009054906101000a900473ffffffffffffffffffffffffffffffffffffffff1681565b60008054906101000a900473ffffffffffffffffffffffffffffffffffffffff1681565b6108c9610b0e565b7fcf34ef537ac33ee1ac626ca1587a0a7e8e51561e5514f8cb36afa1c5102b3bab6040516108f690611747565b60405180910390a1600460009054906101000a900473ffffffffffffffffffffffffffffffffffffffff1673ffffffffffffffffffffffffffffffffffffffff16637da8f6a5836040518263ffffffff1660e01b81526004016109599190611201565b6000604051808303816000875af192505050801561099a57506040513d6000823e3d601f19601f820116820180604052508101906109979190611caf565b60015b610a79576109a66113fb565b806308c379a01415610a6d57506109bb61141d565b806109c65750610a6f565b7fcf34ef537ac33ee1ac626ca1587a0a7e8e51561e5514f8cb36afa1c5102b3bab6040516109f390611536565b60405180910390a17fcf34ef537ac33ee1ac626ca1587a0a7e8e51561e5514f8cb36afa1c5102b3bab81604051610a2a919061158f565b60405180910390a16040517f08c379a0000000000000000000000000000000000000000000000000000000008152600401610a6490611d44565b60405180910390fd5b505b3d6000803e3d6000fd5b7fcf34ef537ac33ee1ac626ca1587a0a7e8e51561e5514f8cb36afa1c5102b3bab604051610aa690611db0565b60405180910390a180915050919050565b6040518060400160405280610aca610b0e565b8152602001610ad7610add565b81525090565b6040518060a00160405280606081526020016060815260200160608152602001606081526020016000151581525090565b6040518061010001604052806060815260200160608152602001606081526020016060815260200160608152602001610b45610b5b565b8152602001600081526020016000151581525090565b604051806060016040528060608152602001606081526020016000151581525090565b6000604051905090565b600080fd5b600080fd5b600073ffffffffffffffffffffffffffffffffffffffff82169050919050565b6000610bbd82610b92565b9050919050565b610bcd81610bb2565b8114610bd857600080fd5b50565b600081359050610bea81610bc4565b92915050565b600080fd5b6000601f19601f8301169050919050565b7f4e487b7100000000000000000000000000000000000000000000000000000000600052604160045260246000fd5b610c3e82610bf5565b810181811067ffffffffffffffff82111715610c5d57610c5c610c06565b5b80604052505050565b6000610c70610b7e565b9050610c7c8282610c35565b919050565b600080fd5b600080fd5b600080fd5b600067ffffffffffffffff821115610cab57610caa610c06565b5b610cb482610bf5565b9050602081019050919050565b82818337600083830152505050565b6000610ce3610cde84610c90565b610c66565b905082815260208101848484011115610cff57610cfe610c8b565b5b610d0a848285610cc1565b509392505050565b600082601f830112610d2757610d26610c86565b5b8135610d37848260208601610cd0565b91505092915050565b60008115159050919050565b610d5581610d40565b8114610d6057600080fd5b50565b600081359050610d7281610d4c565b92915050565b600060a08284031215610d8e57610d8d610bf0565b5b610d9860a0610c66565b9050600082013567ffffffffffffffff811115610db857610db7610c81565b5b610dc484828501610d12565b600083015250602082013567ffffffffffffffff811115610de857610de7610c81565b5b610df484828501610d12565b602083015250604082013567ffffffffffffffff811115610e1857610e17610c81565b5b610e2484828501610d12565b604083015250606082013567ffffffffffffffff811115610e4857610e47610c81565b5b610e5484828501610d12565b6060830152506080610e6884828501610d63565b60808301525092915050565b60008060408385031215610e8b57610e8a610b88565b5b6000610e9985828601610bdb565b925050602083013567ffffffffffffffff811115610eba57610eb9610b8d565b5b610ec685828601610d78565b9150509250929050565b600060208284031215610ee657610ee5610b88565b5b6000610ef484828501610bdb565b91505092915050565b610f0681610d40565b82525050565b6000602082019050610f216000830184610efd565b92915050565b600081519050919050565b600082825260208201905092915050565b60005b83811015610f61578082015181840152602081019050610f46565b83811115610f70576000848401525b50505050565b6000610f8182610f27565b610f8b8185610f32565b9350610f9b818560208601610f43565b610fa481610bf5565b840191505092915050565b610fb881610d40565b82525050565b60006060830160008301518482036000860152610fdb8282610f76565b91505060208301518482036020860152610ff58282610f76565b915050604083015161100a6040860182610faf565b508091505092915050565b6000819050919050565b61102881611015565b82525050565b600061010083016000830151848203600086015261104c8282610f76565b915050602083015184820360208601526110668282610f76565b915050604083015184820360408601526110808282610f76565b9150506060830151848203606086015261109a8282610f76565b915050608083015184820360808601526110b48282610f76565b91505060a083015184820360a08601526110ce8282610fbe565b91505060c08301516110e360c086018261101f565b5060e08301516110f660e0860182610faf565b508091505092915050565b600060a083016000830151848203600086015261111e8282610f76565b915050602083015184820360208601526111388282610f76565b915050604083015184820360408601526111528282610f76565b9150506060830151848203606086015261116c8282610f76565b91505060808301516111816080860182610faf565b508091505092915050565b600060408301600083015184820360008601526111a9828261102e565b915050602083015184820360208601526111c38282611101565b9150508091505092915050565b600060208201905081810360008301526111ea818461118c565b905092915050565b6111fb81610bb2565b82525050565b600060208201905061121660008301846111f2565b92915050565b600060a08301600083015184820360008601526112398282610f76565b915050602083015184820360208601526112538282610f76565b9150506040830151848203604086015261126d8282610f76565b915050606083015184820360608601526112878282610f76565b915050608083015161129c6080860182610faf565b508091505092915050565b600060208201905081810360008301526112c1818461121c565b905092915050565b60006101008301600083015184820360008601526112e78282610f76565b915050602083015184820360208601526113018282610f76565b9150506040830151848203604086015261131b8282610f76565b915050606083015184820360608601526113358282610f76565b9150506080830151848203608086015261134f8282610f76565b91505060a083015184820360a08601526113698282610fbe565b91505060c083015161137e60c086018261101f565b5060e083015161139160e0860182610faf565b508091505092915050565b600060208201905081810360008301526113b681846112c9565b905092915050565b60006040820190506113d360008301856111f2565b81810360208301526113e5818461121c565b90509392505050565b60008160e01c9050919050565b600060033d111561141a5760046000803e6114176000516113ee565b90505b90565b600060443d101561142d576114b0565b611435610b7e565b60043d036004823e80513d602482011167ffffffffffffffff8211171561145d5750506114b0565b808201805167ffffffffffffffff81111561147b57505050506114b0565b80602083010160043d0385018111156114985750505050506114b0565b6114a782602001850186610c35565b82955050505050505b90565b600082825260208201905092915050565b7f736520726f6d70696f20706f7220756e20726576657274206f2072657175697260008201527f6500000000000000000000000000000000000000000000000000000000000000602082015250565b60006115206021836114b3565b915061152b826114c4565b604082019050919050565b6000602082019050818103600083015261154f81611513565b9050919050565b600061156182610f27565b61156b81856114b3565b935061157b818560208601610f43565b61158481610bf5565b840191505092915050565b600060208201905081810360008301526115a98184611556565b905092915050565b7f536520677561726461206c6120696e666f726d6163696f6e2064656c206d656460008201527f69636f20636f7272656374616d656e7465000000000000000000000000000000602082015250565b600061160d6031836114b3565b9150611618826115b1565b604082019050919050565b6000602082019050818103600083015261163c81611600565b9050919050565b7f457374612066756e63696f6e20736f6c6f2070756564652073657220656a656360008201527f757461646120706f7220656c2063726561646f722064656c20636f6e7472617460208201527f6f00000000000000000000000000000000000000000000000000000000000000604082015250565b60006116c56041836114b3565b91506116d082611643565b606082019050919050565b600060208201905081810360008301526116f4816116b8565b9050919050565b7f656e74726f206120636f6e73756c746172000000000000000000000000000000600082015250565b60006117316011836114b3565b915061173c826116fb565b602082019050919050565b6000602082019050818103600083015261176081611724565b9050919050565b7f656e74726f206120636f6e73756c7461722050616369656e7465000000000000600082015250565b600061179d601a836114b3565b91506117a882611767565b602082019050919050565b600060208201905081810360008301526117cc81611790565b9050919050565b60006117e66117e184610c90565b610c66565b90508281526020810184848401111561180257611801610c8b565b5b61180d848285610f43565b509392505050565b600082601f83011261182a57611829610c86565b5b815161183a8482602086016117d3565b91505092915050565b60008151905061185281610d4c565b92915050565b600060a0828403121561186e5761186d610bf0565b5b61187860a0610c66565b9050600082015167ffffffffffffffff81111561189857611897610c81565b5b6118a484828501611815565b600083015250602082015167ffffffffffffffff8111156118c8576118c7610c81565b5b6118d484828501611815565b602083015250604082015167ffffffffffffffff8111156118f8576118f7610c81565b5b61190484828501611815565b604083015250606082015167ffffffffffffffff81111561192857611927610c81565b5b61193484828501611815565b606083015250608061194884828501611843565b60808301525092915050565b60006020828403121561196a57611969610b88565b5b600082015167ffffffffffffffff81111561198857611987610b8d565b5b61199484828501611858565b91505092915050565b7f4e6f2065786973746520657365206d656469636f000000000000000000000000600082015250565b60006119d36014836114b3565b91506119de8261199d565b602082019050919050565b60006020820190508181036000830152611a02816119c6565b9050919050565b7f656e636f6e74726f20656c206d656469636f0000000000000000000000000000600082015250565b6000611a3f6012836114b3565b9150611a4a82611a09565b602082019050919050565b60006020820190508181036000830152611a6e81611a32565b9050919050565b600060608284031215611a8b57611a8a610bf0565b5b611a956060610c66565b9050600082015167ffffffffffffffff811115611ab557611ab4610c81565b5b611ac184828501611815565b600083015250602082015167ffffffffffffffff811115611ae557611ae4610c81565b5b611af184828501611815565b6020830152506040611b0584828501611843565b60408301525092915050565b611b1a81611015565b8114611b2557600080fd5b50565b600081519050611b3781611b11565b92915050565b60006101008284031215611b5457611b53610bf0565b5b611b5f610100610c66565b9050600082015167ffffffffffffffff811115611b7f57611b7e610c81565b5b611b8b84828501611815565b600083015250602082015167ffffffffffffffff811115611baf57611bae610c81565b5b611bbb84828501611815565b602083015250604082015167ffffffffffffffff811115611bdf57611bde610c81565b5b611beb84828501611815565b604083015250606082015167ffffffffffffffff811115611c0f57611c0e610c81565b5b611c1b84828501611815565b606083015250608082015167ffffffffffffffff811115611c3f57611c3e610c81565b5b611c4b84828501611815565b60808301525060a082015167ffffffffffffffff811115611c6f57611c6e610c81565b5b611c7b84828501611a75565b60a08301525060c0611c8f84828501611b28565b60c08301525060e0611ca384828501611843565b60e08301525092915050565b600060208284031215611cc557611cc4610b88565b5b600082015167ffffffffffffffff811115611ce357611ce2610b8d565b5b611cef84828501611b3d565b91505092915050565b7f4e6f20657869737465206573652070616369656e746500000000000000000000600082015250565b6000611d2e6016836114b3565b9150611d3982611cf8565b602082019050919050565b60006020820190508181036000830152611d5d81611d21565b9050919050565b7f656e636f6e74726f206c6120706572736f6e6100000000000000000000000000600082015250565b6000611d9a6013836114b3565b9150611da582611d64565b602082019050919050565b60006020820190508181036000830152611dc981611d8d565b905091905056fea26469706673582212200544a541618d0747f8b354eba2c5a3cfec5e01c799dc9df685ef1d713167b80264736f6c634300080b0033",
  "immutableReferences": {},
  "source": "pragma solidity ^0.8.10;\n\nimport \"./Persona.sol\";\n// import \"./Usuario.sol\";\nimport \"../models/PersonaStruct.sol\";\nimport \"../models/MedicoStruct.sol\";\nimport \"../persistence/MedicoDAO.sol\";\n\n// TODO: cambiar el diagrama, no puede heredar pero si puede usar o componerse de persona\ncontract Medico {\n    // TODO: consumir este evento desde una clase heredada o algo as\n    event Log(string data);\n    address public creador;\n    address public ContratoMedicoDAOAddress;\n    address public ContratoPersonaAddress;\n\n    MedicoDAO private contratoMedicoDAO;\n    Persona private contratoPersona;\n\n    struct PersonaMedicoStruct {\n        PersonaStruct persona;\n        MedicoStruct medico;\n    }\n\n    struct PerfilMedicoSistemaExternoStruct {\n        string primerNombre;\n        string segundoNombre;\n        string primerApellido;\n        string segundoApellido;\n        string identificacion; // TODO: agregar tipo de identificacion\n        string especialidad;\n    }\n\n    constructor() {\n        creador = msg.sender; // creador del contrato\n    }\n\n    function consultar(address direccion)\n        public\n        returns (PersonaMedicoStruct memory medicoInfo)\n    {\n        emit Log(\"entro a consultar\");\n        medicoInfo.medico = consultarMedico(direccion);\n        medicoInfo.persona = consultarPersona(direccion);\n    }\n\n    function consultarMedico(address direccion)\n        public\n        returns (MedicoStruct memory)\n    {\n        emit Log(\"entro a consultar Paciente\");\n        try contratoMedicoDAO.consultar(direccion) returns (\n            MedicoStruct memory response\n        ) {\n            emit Log(\"encontro el medico\");\n            return response;\n        } catch Error(string memory e) {\n            /*reason*/\n            emit Log(\"se rompio por un revert o require\");\n            emit Log(e);\n            revert(\"No existe ese medico\");\n        }\n    }\n\n    function consultarPersona(address direccion)\n        public\n        returns (PersonaStruct memory)\n    {\n        emit Log(\"entro a consultar\");\n        try contratoPersona.consultar(direccion) returns (\n            PersonaStruct memory response\n        ) {\n            emit Log(\"encontro la persona\");\n            return response;\n        } catch Error(string memory e) {\n            /*reason*/\n            emit Log(\"se rompio por un revert o require\");\n            emit Log(e);\n            revert(\"No existe ese paciente\");\n        }\n    }\n\n    function registrar(address direccion, MedicoStruct memory medico) public {\n        try contratoMedicoDAO.guardar(direccion, medico) {\n            emit Log(\"Se guarda la informacion del medico correctamente\");\n        } catch Error(string memory data) {\n            /*reason*/\n            emit Log(\"se rompio por un revert o require\");\n            emit Log(data);\n        }\n    }\n\n    function verificarExistenciaEnSistemaExterno(address direccion) public returns (bool) {\n        /* TODO: Consultar info del medico (usuario y contrasea)\n        *  despues se hace con oraculos una consulta\n        */\n        return true;\n    }\n\n    /*function buscarPerfilMedicoSistemaExterno(address direccion) public returns (PerfilMedicoSistemaExternoStruct memory){\n        // TODO: tambien con oraculo\n    }*/\n\n\n    function setContratoPersonaAddress(address direccion) public esPropietario {\n        ContratoPersonaAddress = direccion;\n        contratoPersona = Persona(ContratoPersonaAddress);\n    }\n\n    function setContratoPacienteDAOAddress(address direccion)\n        public\n        esPropietario\n    {\n        ContratoMedicoDAOAddress = direccion;\n        contratoMedicoDAO = MedicoDAO(ContratoMedicoDAOAddress);\n    }\n\n    // TODO: poner en clase generica y reusarlo\n    modifier esPropietario() {\n        require(\n            msg.sender == creador,\n            \"Esta funcion solo puede ser ejecutada por el creador del contrato\"\n        );\n        _; // ac se ejecuta la funcin\n    }\n}\n",
  "sourcePath": "/home/felipe/Documentos/Blockchain/codigo/back-hce/contracts/logica/Medico.sol",
  "compiler": {
    "name": "solc",
    "version": "0.8.11+commit.d7f03943.Emscripten.clang"
  },
  "schemaVersion": "3.4.4",
  "updatedAt": "2022-02-07T00:46:03.782Z",
  "devdoc": {
    "kind": "dev",
    "methods": {},
    "version": 1
  },
  "userdoc": {
    "kind": "user",
    "methods": {},
    "version": 1
  }
}