{
  "contractName": "Medico",
  "abi": [
    {
      "inputs": [],
      "stateMutability": "nonpayable",
      "type": "constructor"
    },
    {
      "anonymous": false,
      "inputs": [
        {
          "indexed": false,
          "internalType": "string",
          "name": "data",
          "type": "string"
        }
      ],
      "name": "Log",
      "type": "event"
    },
    {
      "inputs": [],
      "name": "creador",
      "outputs": [
        {
          "internalType": "address",
          "name": "",
          "type": "address"
        }
      ],
      "stateMutability": "view",
      "type": "function"
    },
    {
      "inputs": [],
      "name": "medicoMapperAddress",
      "outputs": [
        {
          "internalType": "address",
          "name": "",
          "type": "address"
        }
      ],
      "stateMutability": "view",
      "type": "function"
    },
    {
      "inputs": [
        {
          "internalType": "address",
          "name": "direccion",
          "type": "address"
        }
      ],
      "name": "consultar",
      "outputs": [
        {
          "internalType": "contract MedicoVO",
          "name": "",
          "type": "address"
        }
      ],
      "stateMutability": "nonpayable",
      "type": "function"
    },
    {
      "inputs": [
        {
          "internalType": "address",
          "name": "direccion",
          "type": "address"
        },
        {
          "internalType": "contract MedicoVO",
          "name": "medico",
          "type": "address"
        }
      ],
      "name": "registrar",
      "outputs": [],
      "stateMutability": "nonpayable",
      "type": "function"
    },
    {
      "inputs": [
        {
          "internalType": "address",
          "name": "direccion",
          "type": "address"
        }
      ],
      "name": "verificarExistenciaEnSistemaExterno",
      "outputs": [
        {
          "internalType": "bool",
          "name": "",
          "type": "bool"
        }
      ],
      "stateMutability": "nonpayable",
      "type": "function"
    },
    {
      "inputs": [
        {
          "internalType": "address",
          "name": "_medicoMapperAddress",
          "type": "address"
        }
      ],
      "name": "setContratoPacienteDAOAddress",
      "outputs": [],
      "stateMutability": "nonpayable",
      "type": "function"
    },
    {
      "inputs": [],
      "name": "selfDestruct",
      "outputs": [],
      "stateMutability": "nonpayable",
      "type": "function"
    }
  ],
  "bytecode": "0x608060405234801561001057600080fd5b50336000806101000a81548173ffffffffffffffffffffffffffffffffffffffff021916908373ffffffffffffffffffffffffffffffffffffffff160217905550610ea0806100606000396000f3fe608060405234801561001057600080fd5b506004361061007d5760003560e01c80637da8f6a51161005b5780637da8f6a5146100ea57806392ebdcd21461011a5780639cb8a26a14610138578063ac121b2b146101425761007d565b806307b37d1d146100825780634845da3e1461009e5780635a2c9ea2146100ba575b600080fd5b61009c600480360381019061009791906107b8565b610160565b005b6100b860048036038101906100b391906107f8565b6102d1565b005b6100d460048036038101906100cf91906107f8565b610406565b6040516100e19190610840565b60405180910390f35b61010460048036038101906100ff91906107f8565b610411565b60405161011191906108ba565b60405180910390f35b6101226105fc565b60405161012f91906108e4565b60405180910390f35b610140610620565b005b61014a6106e7565b60405161015791906108e4565b60405180910390f35b600260009054906101000a900473ffffffffffffffffffffffffffffffffffffffff1673ffffffffffffffffffffffffffffffffffffffff1663be381c5983836040518363ffffffff1660e01b81526004016101bd9291906108ff565b600060405180830381600087803b1580156101d757600080fd5b505af19250505080156101e8575060015b610297576101f4610935565b806308c379a0141561028657506102096109c8565b806102145750610288565b7fcf34ef537ac33ee1ac626ca1587a0a7e8e51561e5514f8cb36afa1c5102b3bab60405161024190610ae1565b60405180910390a17fcf34ef537ac33ee1ac626ca1587a0a7e8e51561e5514f8cb36afa1c5102b3bab816040516102789190610b78565b60405180910390a150610292565b505b3d6000803e3d6000fd5b6102cd565b7fcf34ef537ac33ee1ac626ca1587a0a7e8e51561e5514f8cb36afa1c5102b3bab6040516102c490610c0c565b60405180910390a15b5050565b60008054906101000a900473ffffffffffffffffffffffffffffffffffffffff1673ffffffffffffffffffffffffffffffffffffffff163373ffffffffffffffffffffffffffffffffffffffff161461035f576040517f08c379a000000000000000000000000000000000000000000000000000000000815260040161035690610cc4565b60405180910390fd5b80600160006101000a81548173ffffffffffffffffffffffffffffffffffffffff021916908373ffffffffffffffffffffffffffffffffffffffff160217905550600160009054906101000a900473ffffffffffffffffffffffffffffffffffffffff16600260006101000a81548173ffffffffffffffffffffffffffffffffffffffff021916908373ffffffffffffffffffffffffffffffffffffffff16021790555050565b600060019050919050565b60007fcf34ef537ac33ee1ac626ca1587a0a7e8e51561e5514f8cb36afa1c5102b3bab60405161044090610d30565b60405180910390a1600260009054906101000a900473ffffffffffffffffffffffffffffffffffffffff1673ffffffffffffffffffffffffffffffffffffffff16637da8f6a5836040518263ffffffff1660e01b81526004016104a391906108e4565b6020604051808303816000875af19250505080156104df57506040513d601f19601f820116820180604052508101906104dc9190610d65565b60015b6105be576104eb610935565b806308c379a014156105b257506105006109c8565b8061050b57506105b4565b7fcf34ef537ac33ee1ac626ca1587a0a7e8e51561e5514f8cb36afa1c5102b3bab60405161053890610ae1565b60405180910390a17fcf34ef537ac33ee1ac626ca1587a0a7e8e51561e5514f8cb36afa1c5102b3bab8160405161056f9190610b78565b60405180910390a16040517f08c379a00000000000000000000000000000000000000000000000000000000081526004016105a990610dde565b60405180910390fd5b505b3d6000803e3d6000fd5b7fcf34ef537ac33ee1ac626ca1587a0a7e8e51561e5514f8cb36afa1c5102b3bab6040516105eb90610e4a565b60405180910390a180915050919050565b60008054906101000a900473ffffffffffffffffffffffffffffffffffffffff1681565b60008054906101000a900473ffffffffffffffffffffffffffffffffffffffff1673ffffffffffffffffffffffffffffffffffffffff163373ffffffffffffffffffffffffffffffffffffffff16146106ae576040517f08c379a00000000000000000000000000000000000000000000000000000000081526004016106a590610cc4565b60405180910390fd5b60008054906101000a900473ffffffffffffffffffffffffffffffffffffffff1673ffffffffffffffffffffffffffffffffffffffff16ff5b600160009054906101000a900473ffffffffffffffffffffffffffffffffffffffff1681565b6000604051905090565b600080fd5b600073ffffffffffffffffffffffffffffffffffffffff82169050919050565b60006107478261071c565b9050919050565b6107578161073c565b811461076257600080fd5b50565b6000813590506107748161074e565b92915050565b60006107858261073c565b9050919050565b6107958161077a565b81146107a057600080fd5b50565b6000813590506107b28161078c565b92915050565b600080604083850312156107cf576107ce610717565b5b60006107dd85828601610765565b92505060206107ee858286016107a3565b9150509250929050565b60006020828403121561080e5761080d610717565b5b600061081c84828501610765565b91505092915050565b60008115159050919050565b61083a81610825565b82525050565b60006020820190506108556000830184610831565b92915050565b6000819050919050565b600061088061087b6108768461071c565b61085b565b61071c565b9050919050565b600061089282610865565b9050919050565b60006108a482610887565b9050919050565b6108b481610899565b82525050565b60006020820190506108cf60008301846108ab565b92915050565b6108de8161073c565b82525050565b60006020820190506108f960008301846108d5565b92915050565b600060408201905061091460008301856108d5565b61092160208301846108ab565b9392505050565b60008160e01c9050919050565b600060033d11156109545760046000803e610951600051610928565b90505b90565b6000601f19601f8301169050919050565b7f4e487b7100000000000000000000000000000000000000000000000000000000600052604160045260246000fd5b6109a082610957565b810181811067ffffffffffffffff821117156109bf576109be610968565b5b80604052505050565b600060443d10156109d857610a5b565b6109e061070d565b60043d036004823e80513d602482011167ffffffffffffffff82111715610a08575050610a5b565b808201805167ffffffffffffffff811115610a265750505050610a5b565b80602083010160043d038501811115610a43575050505050610a5b565b610a5282602001850186610997565b82955050505050505b90565b600082825260208201905092915050565b7f736520726f6d70696f20706f7220756e20726576657274206f2072657175697260008201527f6500000000000000000000000000000000000000000000000000000000000000602082015250565b6000610acb602183610a5e565b9150610ad682610a6f565b604082019050919050565b60006020820190508181036000830152610afa81610abe565b9050919050565b600081519050919050565b60005b83811015610b2a578082015181840152602081019050610b0f565b83811115610b39576000848401525b50505050565b6000610b4a82610b01565b610b548185610a5e565b9350610b64818560208601610b0c565b610b6d81610957565b840191505092915050565b60006020820190508181036000830152610b928184610b3f565b905092915050565b7f536520677561726461206c6120696e666f726d6163696f6e2064656c206d656460008201527f69636f20636f7272656374616d656e7465000000000000000000000000000000602082015250565b6000610bf6603183610a5e565b9150610c0182610b9a565b604082019050919050565b60006020820190508181036000830152610c2581610be9565b9050919050565b7f457374612066756e63696f6e20736f6c6f2070756564652073657220656a656360008201527f757461646120706f7220656c2063726561646f722064656c20636f6e7472617460208201527f6f00000000000000000000000000000000000000000000000000000000000000604082015250565b6000610cae604183610a5e565b9150610cb982610c2c565b606082019050919050565b60006020820190508181036000830152610cdd81610ca1565b9050919050565b7f656e74726f206120636f6e73756c746172000000000000000000000000000000600082015250565b6000610d1a601183610a5e565b9150610d2582610ce4565b602082019050919050565b60006020820190508181036000830152610d4981610d0d565b9050919050565b600081519050610d5f8161078c565b92915050565b600060208284031215610d7b57610d7a610717565b5b6000610d8984828501610d50565b91505092915050565b7f4e6f2065786973746520657365206d656469636f000000000000000000000000600082015250565b6000610dc8601483610a5e565b9150610dd382610d92565b602082019050919050565b60006020820190508181036000830152610df781610dbb565b9050919050565b7f656e636f6e74726f20656c206d656469636f0000000000000000000000000000600082015250565b6000610e34601283610a5e565b9150610e3f82610dfe565b602082019050919050565b60006020820190508181036000830152610e6381610e27565b905091905056fea2646970667358221220b89a3807752db9771dc0eb5b7a97e813807cb21c600cf50f4db8006b6870b2c464736f6c634300080b0033",
  "immutableReferences": {},
  "source": "pragma solidity ^0.8.10;\n\nimport \"../models/MedicoVO.sol\";\nimport \"../persistence/MedicoMapper.sol\";\n\n// TODO: cambiar el diagrama, no puede heredar pero si puede usar o componerse de persona\ncontract Medico {\n    // TODO: consumir este evento desde una clase heredada o algo as\n    event Log(string data);\n    address public creador;\n    address public medicoMapperAddress;\n    //address public ContratoPersonaAddress;\n\n    MedicoMapperInterface private medicoMapper; //\n    //Persona private contratoPersona;\n\n    /*struct PersonaMedicoStruct {\n        PersonaStruct persona;\n        MedicoStruct medico;\n    }*/\n\n    struct PerfilMedicoSistemaExternoStruct {\n        string primerNombre;\n        string segundoNombre;\n        string primerApellido;\n        string segundoApellido;\n        string identificacion; // TODO: agregar tipo de identificacion\n        string especialidad;\n    }\n\n    constructor() {\n        creador = msg.sender; // creador del contrato\n    }\n\n    function consultar(address direccion)\n        public\n        returns (MedicoVO)\n    {\n        emit Log(\"entro a consultar\");\n        try medicoMapper.consultar(direccion) returns (\n            MedicoVO response\n        ) {\n            emit Log(\"encontro el medico\");\n            return response;\n        } catch Error(string memory e) {\n            /*reason*/\n            emit Log(\"se rompio por un revert o require\");\n            emit Log(e);\n            revert(\"No existe ese medico\");\n        }\n    }\n\n    /*function consultarPersona(address direccion)\n        public\n        returns (MedicoVO memory)\n    {\n        emit Log(\"entro a consultar\");\n        try contratoPersona.consultar(direccion) returns (\n            PersonaStruct memory response\n        ) {\n            emit Log(\"encontro la persona\");\n            return response;\n        } catch Error(string memory e) {\n            /*reason*/\n            /*emit Log(\"se rompio por un revert o require\");\n            emit Log(e);\n            revert(\"No existe ese paciente\");\n        }\n    }*/\n\n    function registrar(address direccion, MedicoVO medico) public {\n        try medicoMapper.guardar(direccion, medico) {\n            emit Log(\"Se guarda la informacion del medico correctamente\");\n        } catch Error(string memory data) {\n            /*reason*/\n            emit Log(\"se rompio por un revert o require\");\n            emit Log(data);\n        }\n    }\n\n    function verificarExistenciaEnSistemaExterno(address direccion)\n        public\n        returns (bool)\n    {\n        /* TODO: Consultar info del medico (usuario y contrasea)\n         *  despues se hace con oraculos una consulta\n         */\n        return true;\n    }\n\n    /*function buscarPerfilMedicoSistemaExterno(address direccion) public returns (PerfilMedicoSistemaExternoStruct memory){\n        // TODO: tambien con oraculo\n    }*/\n\n    /*function setContratoPersonaAddress(address direccion) public esPropietario {\n        ContratoPersonaAddress = direccion;\n        contratoPersona = Persona(ContratoPersonaAddress);\n    }*/ \n\n    function setContratoPacienteDAOAddress(address _medicoMapperAddress)\n        public\n        esPropietario\n    {\n        medicoMapperAddress = _medicoMapperAddress;\n        medicoMapper = MedicoMapper(medicoMapperAddress); // TODO: quiz es mejor recibir el objeto como contrato\n    }\n\n    // TODO: poner en clase generica y reusarlo\n    modifier esPropietario() {\n        require(\n            msg.sender == creador,\n            \"Esta funcion solo puede ser ejecutada por el creador del contrato\"\n        );\n        _; // ac se ejecuta la funcin\n    }\n\n    function selfDestruct() public esPropietario {\n        selfdestruct(payable(creador));\n    }\n}\n",
  "sourcePath": "/home/felipe/Documentos/Blockchain/codigo/back-hce/contracts/logica/Medico.sol",
  "compiler": {
    "name": "solc",
    "version": "0.8.11+commit.d7f03943.Emscripten.clang"
  },
  "schemaVersion": "3.4.4",
  "updatedAt": "2022-02-21T23:27:23.127Z",
  "devdoc": {
    "kind": "dev",
    "methods": {},
    "version": 1
  },
  "userdoc": {
    "kind": "user",
    "methods": {},
    "version": 1
  }
}