{
  "contractName": "Medico",
  "abi": [
    {
      "inputs": [],
      "stateMutability": "nonpayable",
      "type": "constructor"
    },
    {
      "anonymous": false,
      "inputs": [
        {
          "indexed": false,
          "internalType": "string",
          "name": "data",
          "type": "string"
        }
      ],
      "name": "Log",
      "type": "event"
    },
    {
      "inputs": [],
      "name": "ContratoMedicoDAOAddress",
      "outputs": [
        {
          "internalType": "address",
          "name": "",
          "type": "address"
        }
      ],
      "stateMutability": "view",
      "type": "function"
    },
    {
      "inputs": [],
      "name": "ContratoPersonaAddress",
      "outputs": [
        {
          "internalType": "address",
          "name": "",
          "type": "address"
        }
      ],
      "stateMutability": "view",
      "type": "function"
    },
    {
      "inputs": [],
      "name": "creador",
      "outputs": [
        {
          "internalType": "address",
          "name": "",
          "type": "address"
        }
      ],
      "stateMutability": "view",
      "type": "function"
    },
    {
      "inputs": [
        {
          "internalType": "address",
          "name": "direccion",
          "type": "address"
        }
      ],
      "name": "consultar",
      "outputs": [
        {
          "components": [
            {
              "components": [
                {
                  "internalType": "string",
                  "name": "primerNombre",
                  "type": "string"
                },
                {
                  "internalType": "string",
                  "name": "segundoNombre",
                  "type": "string"
                },
                {
                  "internalType": "string",
                  "name": "primerApellido",
                  "type": "string"
                },
                {
                  "internalType": "string",
                  "name": "segundoApellido",
                  "type": "string"
                },
                {
                  "internalType": "string",
                  "name": "identificacion",
                  "type": "string"
                },
                {
                  "components": [
                    {
                      "internalType": "string",
                      "name": "nombre",
                      "type": "string"
                    },
                    {
                      "internalType": "string",
                      "name": "descripcion",
                      "type": "string"
                    },
                    {
                      "internalType": "bool",
                      "name": "estaActiva",
                      "type": "bool"
                    }
                  ],
                  "internalType": "struct TipoIdentificacionStruct",
                  "name": "tipoIdentificacion",
                  "type": "tuple"
                },
                {
                  "internalType": "bool",
                  "name": "isValue",
                  "type": "bool"
                }
              ],
              "internalType": "struct PersonaStruct",
              "name": "persona",
              "type": "tuple"
            },
            {
              "components": [
                {
                  "internalType": "string",
                  "name": "estado",
                  "type": "string"
                },
                {
                  "internalType": "string",
                  "name": "especialidad",
                  "type": "string"
                },
                {
                  "internalType": "string",
                  "name": "usuario",
                  "type": "string"
                },
                {
                  "internalType": "string",
                  "name": "contrasena",
                  "type": "string"
                },
                {
                  "internalType": "bool",
                  "name": "isValue",
                  "type": "bool"
                }
              ],
              "internalType": "struct MedicoStruct",
              "name": "medico",
              "type": "tuple"
            }
          ],
          "internalType": "struct Medico.PersonaMedicoStruct",
          "name": "medicoInfo",
          "type": "tuple"
        }
      ],
      "stateMutability": "nonpayable",
      "type": "function"
    },
    {
      "inputs": [
        {
          "internalType": "address",
          "name": "direccion",
          "type": "address"
        }
      ],
      "name": "consultarMedico",
      "outputs": [
        {
          "components": [
            {
              "internalType": "string",
              "name": "estado",
              "type": "string"
            },
            {
              "internalType": "string",
              "name": "especialidad",
              "type": "string"
            },
            {
              "internalType": "string",
              "name": "usuario",
              "type": "string"
            },
            {
              "internalType": "string",
              "name": "contrasena",
              "type": "string"
            },
            {
              "internalType": "bool",
              "name": "isValue",
              "type": "bool"
            }
          ],
          "internalType": "struct MedicoStruct",
          "name": "",
          "type": "tuple"
        }
      ],
      "stateMutability": "nonpayable",
      "type": "function"
    },
    {
      "inputs": [
        {
          "internalType": "address",
          "name": "direccion",
          "type": "address"
        }
      ],
      "name": "consultarPersona",
      "outputs": [
        {
          "components": [
            {
              "internalType": "string",
              "name": "primerNombre",
              "type": "string"
            },
            {
              "internalType": "string",
              "name": "segundoNombre",
              "type": "string"
            },
            {
              "internalType": "string",
              "name": "primerApellido",
              "type": "string"
            },
            {
              "internalType": "string",
              "name": "segundoApellido",
              "type": "string"
            },
            {
              "internalType": "string",
              "name": "identificacion",
              "type": "string"
            },
            {
              "components": [
                {
                  "internalType": "string",
                  "name": "nombre",
                  "type": "string"
                },
                {
                  "internalType": "string",
                  "name": "descripcion",
                  "type": "string"
                },
                {
                  "internalType": "bool",
                  "name": "estaActiva",
                  "type": "bool"
                }
              ],
              "internalType": "struct TipoIdentificacionStruct",
              "name": "tipoIdentificacion",
              "type": "tuple"
            },
            {
              "internalType": "bool",
              "name": "isValue",
              "type": "bool"
            }
          ],
          "internalType": "struct PersonaStruct",
          "name": "",
          "type": "tuple"
        }
      ],
      "stateMutability": "nonpayable",
      "type": "function"
    },
    {
      "inputs": [
        {
          "internalType": "address",
          "name": "direccion",
          "type": "address"
        },
        {
          "components": [
            {
              "internalType": "string",
              "name": "estado",
              "type": "string"
            },
            {
              "internalType": "string",
              "name": "especialidad",
              "type": "string"
            },
            {
              "internalType": "string",
              "name": "usuario",
              "type": "string"
            },
            {
              "internalType": "string",
              "name": "contrasena",
              "type": "string"
            },
            {
              "internalType": "bool",
              "name": "isValue",
              "type": "bool"
            }
          ],
          "internalType": "struct MedicoStruct",
          "name": "medico",
          "type": "tuple"
        }
      ],
      "name": "registrar",
      "outputs": [],
      "stateMutability": "nonpayable",
      "type": "function"
    },
    {
      "inputs": [
        {
          "internalType": "address",
          "name": "direccion",
          "type": "address"
        }
      ],
      "name": "verificarExistenciaEnSistemaExterno",
      "outputs": [
        {
          "internalType": "bool",
          "name": "",
          "type": "bool"
        }
      ],
      "stateMutability": "nonpayable",
      "type": "function"
    },
    {
      "inputs": [
        {
          "internalType": "address",
          "name": "direccion",
          "type": "address"
        }
      ],
      "name": "setContratoPersonaAddress",
      "outputs": [],
      "stateMutability": "nonpayable",
      "type": "function"
    },
    {
      "inputs": [
        {
          "internalType": "address",
          "name": "direccion",
          "type": "address"
        }
      ],
      "name": "setContratoPacienteDAOAddress",
      "outputs": [],
      "stateMutability": "nonpayable",
      "type": "function"
    }
  ],
  "bytecode": "0x608060405234801561001057600080fd5b50336000806101000a81548173ffffffffffffffffffffffffffffffffffffffff021916908373ffffffffffffffffffffffffffffffffffffffff160217905550611d7b806100606000396000f3fe608060405234801561001057600080fd5b506004361061009e5760003560e01c806380ac891c1161006657806380ac891c1461015757806380bce03014610175578063928c135c146101a557806392ebdcd2146101c357806398b8fe71146101e15761009e565b806317627994146100a357806340cd7a60146100bf5780634845da3e146100db5780635a2c9ea2146100f75780637da8f6a514610127575b600080fd5b6100bd60048036038101906100b89190610e6c565b610211565b005b6100d960048036038101906100d49190610ec8565b610382565b005b6100f560048036038101906100f09190610ec8565b6104b7565b005b610111600480360381019061010c9190610ec8565b6105ec565b60405161011e9190610f04565b60405180910390f35b610141600480360381019061013c9190610ec8565b6105f7565b60405161014e919061119b565b60405180910390f35b61015f61065b565b60405161016c91906111cc565b60405180910390f35b61018f600480360381019061018a9190610ec8565b610681565b60405161019c9190611272565b60405180910390f35b6101ad610877565b6040516101ba91906111cc565b60405180910390f35b6101cb61089d565b6040516101d891906111cc565b60405180910390f35b6101fb60048036038101906101f69190610ec8565b6108c1565b6040516102089190611353565b60405180910390f35b600360009054906101000a900473ffffffffffffffffffffffffffffffffffffffff1673ffffffffffffffffffffffffffffffffffffffff166333b6fb8983836040518363ffffffff1660e01b815260040161026e929190611375565b600060405180830381600087803b15801561028857600080fd5b505af1925050508015610299575060015b610348576102a56113b2565b806308c379a0141561033757506102ba6113d4565b806102c55750610339565b7fcf34ef537ac33ee1ac626ca1587a0a7e8e51561e5514f8cb36afa1c5102b3bab6040516102f2906114ed565b60405180910390a17fcf34ef537ac33ee1ac626ca1587a0a7e8e51561e5514f8cb36afa1c5102b3bab816040516103299190611546565b60405180910390a150610343565b505b3d6000803e3d6000fd5b61037e565b7fcf34ef537ac33ee1ac626ca1587a0a7e8e51561e5514f8cb36afa1c5102b3bab604051610375906115da565b60405180910390a15b5050565b60008054906101000a900473ffffffffffffffffffffffffffffffffffffffff1673ffffffffffffffffffffffffffffffffffffffff163373ffffffffffffffffffffffffffffffffffffffff1614610410576040517f08c379a000000000000000000000000000000000000000000000000000000000815260040161040790611692565b60405180910390fd5b80600260006101000a81548173ffffffffffffffffffffffffffffffffffffffff021916908373ffffffffffffffffffffffffffffffffffffffff160217905550600260009054906101000a900473ffffffffffffffffffffffffffffffffffffffff16600460006101000a81548173ffffffffffffffffffffffffffffffffffffffff021916908373ffffffffffffffffffffffffffffffffffffffff16021790555050565b60008054906101000a900473ffffffffffffffffffffffffffffffffffffffff1673ffffffffffffffffffffffffffffffffffffffff163373ffffffffffffffffffffffffffffffffffffffff1614610545576040517f08c379a000000000000000000000000000000000000000000000000000000000815260040161053c90611692565b60405180910390fd5b80600160006101000a81548173ffffffffffffffffffffffffffffffffffffffff021916908373ffffffffffffffffffffffffffffffffffffffff160217905550600160009054906101000a900473ffffffffffffffffffffffffffffffffffffffff16600360006101000a81548173ffffffffffffffffffffffffffffffffffffffff021916908373ffffffffffffffffffffffffffffffffffffffff16021790555050565b600060019050919050565b6105ff610ab7565b7fcf34ef537ac33ee1ac626ca1587a0a7e8e51561e5514f8cb36afa1c5102b3bab60405161062c906116fe565b60405180910390a161063d82610681565b816020018190525061064e826108c1565b8160000181905250919050565b600160009054906101000a900473ffffffffffffffffffffffffffffffffffffffff1681565b610689610add565b7fcf34ef537ac33ee1ac626ca1587a0a7e8e51561e5514f8cb36afa1c5102b3bab6040516106b69061176a565b60405180910390a1600360009054906101000a900473ffffffffffffffffffffffffffffffffffffffff1673ffffffffffffffffffffffffffffffffffffffff16637da8f6a5836040518263ffffffff1660e01b815260040161071991906111cc565b6000604051808303816000875af192505050801561075a57506040513d6000823e3d601f19601f82011682018060405250810190610757919061190b565b60015b610839576107666113b2565b806308c379a0141561082d575061077b6113d4565b80610786575061082f565b7fcf34ef537ac33ee1ac626ca1587a0a7e8e51561e5514f8cb36afa1c5102b3bab6040516107b3906114ed565b60405180910390a17fcf34ef537ac33ee1ac626ca1587a0a7e8e51561e5514f8cb36afa1c5102b3bab816040516107ea9190611546565b60405180910390a16040517f08c379a0000000000000000000000000000000000000000000000000000000008152600401610824906119a0565b60405180910390fd5b505b3d6000803e3d6000fd5b7fcf34ef537ac33ee1ac626ca1587a0a7e8e51561e5514f8cb36afa1c5102b3bab60405161086690611a0c565b60405180910390a180915050919050565b600260009054906101000a900473ffffffffffffffffffffffffffffffffffffffff1681565b60008054906101000a900473ffffffffffffffffffffffffffffffffffffffff1681565b6108c9610b0e565b7fcf34ef537ac33ee1ac626ca1587a0a7e8e51561e5514f8cb36afa1c5102b3bab6040516108f6906116fe565b60405180910390a1600460009054906101000a900473ffffffffffffffffffffffffffffffffffffffff1673ffffffffffffffffffffffffffffffffffffffff16637da8f6a5836040518263ffffffff1660e01b815260040161095991906111cc565b6000604051808303816000875af192505050801561099a57506040513d6000823e3d601f19601f820116820180604052508101906109979190611c24565b60015b610a79576109a66113b2565b806308c379a01415610a6d57506109bb6113d4565b806109c65750610a6f565b7fcf34ef537ac33ee1ac626ca1587a0a7e8e51561e5514f8cb36afa1c5102b3bab6040516109f3906114ed565b60405180910390a17fcf34ef537ac33ee1ac626ca1587a0a7e8e51561e5514f8cb36afa1c5102b3bab81604051610a2a9190611546565b60405180910390a16040517f08c379a0000000000000000000000000000000000000000000000000000000008152600401610a6490611cb9565b60405180910390fd5b505b3d6000803e3d6000fd5b7fcf34ef537ac33ee1ac626ca1587a0a7e8e51561e5514f8cb36afa1c5102b3bab604051610aa690611d25565b60405180910390a180915050919050565b6040518060400160405280610aca610b0e565b8152602001610ad7610add565b81525090565b6040518060a00160405280606081526020016060815260200160608152602001606081526020016000151581525090565b6040518060e001604052806060815260200160608152602001606081526020016060815260200160608152602001610b44610b53565b81526020016000151581525090565b604051806060016040528060608152602001606081526020016000151581525090565b6000604051905090565b600080fd5b600080fd5b600073ffffffffffffffffffffffffffffffffffffffff82169050919050565b6000610bb582610b8a565b9050919050565b610bc581610baa565b8114610bd057600080fd5b50565b600081359050610be281610bbc565b92915050565b600080fd5b6000601f19601f8301169050919050565b7f4e487b7100000000000000000000000000000000000000000000000000000000600052604160045260246000fd5b610c3682610bed565b810181811067ffffffffffffffff82111715610c5557610c54610bfe565b5b80604052505050565b6000610c68610b76565b9050610c748282610c2d565b919050565b600080fd5b600080fd5b600080fd5b600067ffffffffffffffff821115610ca357610ca2610bfe565b5b610cac82610bed565b9050602081019050919050565b82818337600083830152505050565b6000610cdb610cd684610c88565b610c5e565b905082815260208101848484011115610cf757610cf6610c83565b5b610d02848285610cb9565b509392505050565b600082601f830112610d1f57610d1e610c7e565b5b8135610d2f848260208601610cc8565b91505092915050565b60008115159050919050565b610d4d81610d38565b8114610d5857600080fd5b50565b600081359050610d6a81610d44565b92915050565b600060a08284031215610d8657610d85610be8565b5b610d9060a0610c5e565b9050600082013567ffffffffffffffff811115610db057610daf610c79565b5b610dbc84828501610d0a565b600083015250602082013567ffffffffffffffff811115610de057610ddf610c79565b5b610dec84828501610d0a565b602083015250604082013567ffffffffffffffff811115610e1057610e0f610c79565b5b610e1c84828501610d0a565b604083015250606082013567ffffffffffffffff811115610e4057610e3f610c79565b5b610e4c84828501610d0a565b6060830152506080610e6084828501610d5b565b60808301525092915050565b60008060408385031215610e8357610e82610b80565b5b6000610e9185828601610bd3565b925050602083013567ffffffffffffffff811115610eb257610eb1610b85565b5b610ebe85828601610d70565b9150509250929050565b600060208284031215610ede57610edd610b80565b5b6000610eec84828501610bd3565b91505092915050565b610efe81610d38565b82525050565b6000602082019050610f196000830184610ef5565b92915050565b600081519050919050565b600082825260208201905092915050565b60005b83811015610f59578082015181840152602081019050610f3e565b83811115610f68576000848401525b50505050565b6000610f7982610f1f565b610f838185610f2a565b9350610f93818560208601610f3b565b610f9c81610bed565b840191505092915050565b610fb081610d38565b82525050565b60006060830160008301518482036000860152610fd38282610f6e565b91505060208301518482036020860152610fed8282610f6e565b91505060408301516110026040860182610fa7565b508091505092915050565b600060e083016000830151848203600086015261102a8282610f6e565b915050602083015184820360208601526110448282610f6e565b9150506040830151848203604086015261105e8282610f6e565b915050606083015184820360608601526110788282610f6e565b915050608083015184820360808601526110928282610f6e565b91505060a083015184820360a08601526110ac8282610fb6565b91505060c08301516110c160c0860182610fa7565b508091505092915050565b600060a08301600083015184820360008601526110e98282610f6e565b915050602083015184820360208601526111038282610f6e565b9150506040830151848203604086015261111d8282610f6e565b915050606083015184820360608601526111378282610f6e565b915050608083015161114c6080860182610fa7565b508091505092915050565b60006040830160008301518482036000860152611174828261100d565b9150506020830151848203602086015261118e82826110cc565b9150508091505092915050565b600060208201905081810360008301526111b58184611157565b905092915050565b6111c681610baa565b82525050565b60006020820190506111e160008301846111bd565b92915050565b600060a08301600083015184820360008601526112048282610f6e565b9150506020830151848203602086015261121e8282610f6e565b915050604083015184820360408601526112388282610f6e565b915050606083015184820360608601526112528282610f6e565b91505060808301516112676080860182610fa7565b508091505092915050565b6000602082019050818103600083015261128c81846111e7565b905092915050565b600060e08301600083015184820360008601526112b18282610f6e565b915050602083015184820360208601526112cb8282610f6e565b915050604083015184820360408601526112e58282610f6e565b915050606083015184820360608601526112ff8282610f6e565b915050608083015184820360808601526113198282610f6e565b91505060a083015184820360a08601526113338282610fb6565b91505060c083015161134860c0860182610fa7565b508091505092915050565b6000602082019050818103600083015261136d8184611294565b905092915050565b600060408201905061138a60008301856111bd565b818103602083015261139c81846111e7565b90509392505050565b60008160e01c9050919050565b600060033d11156113d15760046000803e6113ce6000516113a5565b90505b90565b600060443d10156113e457611467565b6113ec610b76565b60043d036004823e80513d602482011167ffffffffffffffff82111715611414575050611467565b808201805167ffffffffffffffff8111156114325750505050611467565b80602083010160043d03850181111561144f575050505050611467565b61145e82602001850186610c2d565b82955050505050505b90565b600082825260208201905092915050565b7f736520726f6d70696f20706f7220756e20726576657274206f2072657175697260008201527f6500000000000000000000000000000000000000000000000000000000000000602082015250565b60006114d760218361146a565b91506114e28261147b565b604082019050919050565b60006020820190508181036000830152611506816114ca565b9050919050565b600061151882610f1f565b611522818561146a565b9350611532818560208601610f3b565b61153b81610bed565b840191505092915050565b60006020820190508181036000830152611560818461150d565b905092915050565b7f536520677561726461206c6120696e666f726d6163696f6e2064656c206d656460008201527f69636f20636f7272656374616d656e7465000000000000000000000000000000602082015250565b60006115c460318361146a565b91506115cf82611568565b604082019050919050565b600060208201905081810360008301526115f3816115b7565b9050919050565b7f457374612066756e63696f6e20736f6c6f2070756564652073657220656a656360008201527f757461646120706f7220656c2063726561646f722064656c20636f6e7472617460208201527f6f00000000000000000000000000000000000000000000000000000000000000604082015250565b600061167c60418361146a565b9150611687826115fa565b606082019050919050565b600060208201905081810360008301526116ab8161166f565b9050919050565b7f656e74726f206120636f6e73756c746172000000000000000000000000000000600082015250565b60006116e860118361146a565b91506116f3826116b2565b602082019050919050565b60006020820190508181036000830152611717816116db565b9050919050565b7f656e74726f206120636f6e73756c7461722050616369656e7465000000000000600082015250565b6000611754601a8361146a565b915061175f8261171e565b602082019050919050565b6000602082019050818103600083015261178381611747565b9050919050565b600061179d61179884610c88565b610c5e565b9050828152602081018484840111156117b9576117b8610c83565b5b6117c4848285610f3b565b509392505050565b600082601f8301126117e1576117e0610c7e565b5b81516117f184826020860161178a565b91505092915050565b60008151905061180981610d44565b92915050565b600060a0828403121561182557611824610be8565b5b61182f60a0610c5e565b9050600082015167ffffffffffffffff81111561184f5761184e610c79565b5b61185b848285016117cc565b600083015250602082015167ffffffffffffffff81111561187f5761187e610c79565b5b61188b848285016117cc565b602083015250604082015167ffffffffffffffff8111156118af576118ae610c79565b5b6118bb848285016117cc565b604083015250606082015167ffffffffffffffff8111156118df576118de610c79565b5b6118eb848285016117cc565b60608301525060806118ff848285016117fa565b60808301525092915050565b60006020828403121561192157611920610b80565b5b600082015167ffffffffffffffff81111561193f5761193e610b85565b5b61194b8482850161180f565b91505092915050565b7f4e6f2065786973746520657365206d656469636f000000000000000000000000600082015250565b600061198a60148361146a565b915061199582611954565b602082019050919050565b600060208201905081810360008301526119b98161197d565b9050919050565b7f656e636f6e74726f20656c206d656469636f0000000000000000000000000000600082015250565b60006119f660128361146a565b9150611a01826119c0565b602082019050919050565b60006020820190508181036000830152611a25816119e9565b9050919050565b600060608284031215611a4257611a41610be8565b5b611a4c6060610c5e565b9050600082015167ffffffffffffffff811115611a6c57611a6b610c79565b5b611a78848285016117cc565b600083015250602082015167ffffffffffffffff811115611a9c57611a9b610c79565b5b611aa8848285016117cc565b6020830152506040611abc848285016117fa565b60408301525092915050565b600060e08284031215611ade57611add610be8565b5b611ae860e0610c5e565b9050600082015167ffffffffffffffff811115611b0857611b07610c79565b5b611b14848285016117cc565b600083015250602082015167ffffffffffffffff811115611b3857611b37610c79565b5b611b44848285016117cc565b602083015250604082015167ffffffffffffffff811115611b6857611b67610c79565b5b611b74848285016117cc565b604083015250606082015167ffffffffffffffff811115611b9857611b97610c79565b5b611ba4848285016117cc565b606083015250608082015167ffffffffffffffff811115611bc857611bc7610c79565b5b611bd4848285016117cc565b60808301525060a082015167ffffffffffffffff811115611bf857611bf7610c79565b5b611c0484828501611a2c565b60a08301525060c0611c18848285016117fa565b60c08301525092915050565b600060208284031215611c3a57611c39610b80565b5b600082015167ffffffffffffffff811115611c5857611c57610b85565b5b611c6484828501611ac8565b91505092915050565b7f4e6f20657869737465206573652070616369656e746500000000000000000000600082015250565b6000611ca360168361146a565b9150611cae82611c6d565b602082019050919050565b60006020820190508181036000830152611cd281611c96565b9050919050565b7f656e636f6e74726f206c6120706572736f6e6100000000000000000000000000600082015250565b6000611d0f60138361146a565b9150611d1a82611cd9565b602082019050919050565b60006020820190508181036000830152611d3e81611d02565b905091905056fea2646970667358221220245c5a212063ef1eb7782287943b969a0195a7fcaf6f1d4d56f084e62433944164736f6c634300080b0033",
  "immutableReferences": {},
  "source": "pragma solidity ^0.8.10;\n\nimport \"./Persona.sol\";\n// import \"./Usuario.sol\";\nimport \"../models/PersonaStruct.sol\";\nimport \"../models/MedicoStruct.sol\";\nimport \"../persistence/MedicoDAO.sol\";\n\n// TODO: cambiar el diagrama, no puede heredar pero si puede usar o componerse de persona\ncontract Medico {\n    // TODO: consumir este evento desde una clase heredada o algo as\n    event Log(string data);\n    address public creador;\n    address public ContratoMedicoDAOAddress;\n    address public ContratoPersonaAddress;\n\n    MedicoDAO private contratoMedicoDAO;\n    Persona private contratoPersona;\n\n    struct PersonaMedicoStruct {\n        PersonaStruct persona;\n        MedicoStruct medico;\n    }\n\n    struct PerfilMedicoSistemaExternoStruct {\n        string primerNombre;\n        string segundoNombre;\n        string primerApellido;\n        string segundoApellido;\n        string identificacion; // TODO: agregar tipo de identificacion\n        string especialidad;\n    }\n\n    constructor() {\n        creador = msg.sender; // creador del contrato\n    }\n\n    function consultar(address direccion)\n        public\n        returns (PersonaMedicoStruct memory medicoInfo)\n    {\n        emit Log(\"entro a consultar\");\n        medicoInfo.medico = consultarMedico(direccion);\n        medicoInfo.persona = consultarPersona(direccion);\n    }\n\n    function consultarMedico(address direccion)\n        public\n        returns (MedicoStruct memory)\n    {\n        emit Log(\"entro a consultar Paciente\");\n        try contratoMedicoDAO.consultar(direccion) returns (\n            MedicoStruct memory response\n        ) {\n            emit Log(\"encontro el medico\");\n            return response;\n        } catch Error(string memory e) {\n            /*reason*/\n            emit Log(\"se rompio por un revert o require\");\n            emit Log(e);\n            revert(\"No existe ese medico\");\n        }\n    }\n\n    function consultarPersona(address direccion)\n        public\n        returns (PersonaStruct memory)\n    {\n        emit Log(\"entro a consultar\");\n        try contratoPersona.consultar(direccion) returns (\n            PersonaStruct memory response\n        ) {\n            emit Log(\"encontro la persona\");\n            return response;\n        } catch Error(string memory e) {\n            /*reason*/\n            emit Log(\"se rompio por un revert o require\");\n            emit Log(e);\n            revert(\"No existe ese paciente\");\n        }\n    }\n\n    function registrar(address direccion, MedicoStruct memory medico) public {\n        try contratoMedicoDAO.guardar(direccion, medico) {\n            emit Log(\"Se guarda la informacion del medico correctamente\");\n        } catch Error(string memory data) {\n            /*reason*/\n            emit Log(\"se rompio por un revert o require\");\n            emit Log(data);\n        }\n    }\n\n    function verificarExistenciaEnSistemaExterno(address direccion) public returns (bool) {\n        /* TODO: Consultar info del medico (usuario y contrasea)\n        *  despues se hace con oraculos una consulta\n        */\n        return true;\n    }\n\n    /*function buscarPerfilMedicoSistemaExterno(address direccion) public returns (PerfilMedicoSistemaExternoStruct memory){\n        // TODO: tambien con oraculo\n    }*/\n\n\n    function setContratoPersonaAddress(address direccion) public esPropietario {\n        ContratoPersonaAddress = direccion;\n        contratoPersona = Persona(ContratoPersonaAddress);\n    }\n\n    function setContratoPacienteDAOAddress(address direccion)\n        public\n        esPropietario\n    {\n        ContratoMedicoDAOAddress = direccion;\n        contratoMedicoDAO = MedicoDAO(ContratoMedicoDAOAddress);\n    }\n\n    // TODO: poner en clase generica y reusarlo\n    modifier esPropietario() {\n        require(\n            msg.sender == creador,\n            \"Esta funcion solo puede ser ejecutada por el creador del contrato\"\n        );\n        _; // ac se ejecuta la funcin\n    }\n}\n",
  "sourcePath": "/home/felipe/Documentos/Blockchain/codigo/back-hce/contracts/logica/Medico.sol",
  "compiler": {
    "name": "solc",
    "version": "0.8.11+commit.d7f03943.Emscripten.clang"
  },
  "schemaVersion": "3.4.4",
  "updatedAt": "2022-02-06T00:45:08.353Z",
  "devdoc": {
    "kind": "dev",
    "methods": {},
    "version": 1
  },
  "userdoc": {
    "kind": "user",
    "methods": {},
    "version": 1
  }
}