{
  "contractName": "MedicoService",
  "abi": [
    {
      "inputs": [],
      "stateMutability": "nonpayable",
      "type": "constructor"
    },
    {
      "inputs": [],
      "name": "creador",
      "outputs": [
        {
          "internalType": "address",
          "name": "",
          "type": "address"
        }
      ],
      "stateMutability": "view",
      "type": "function"
    },
    {
      "inputs": [
        {
          "internalType": "address",
          "name": "direccion",
          "type": "address"
        },
        {
          "components": [
            {
              "internalType": "string",
              "name": "estado",
              "type": "string"
            },
            {
              "internalType": "string",
              "name": "especialidad",
              "type": "string"
            },
            {
              "internalType": "string",
              "name": "usuario",
              "type": "string"
            },
            {
              "internalType": "string",
              "name": "contrasena",
              "type": "string"
            },
            {
              "internalType": "bool",
              "name": "isValue",
              "type": "bool"
            }
          ],
          "internalType": "struct MedicoStruct",
          "name": "medico",
          "type": "tuple"
        }
      ],
      "name": "registrar",
      "outputs": [],
      "stateMutability": "nonpayable",
      "type": "function"
    },
    {
      "inputs": [
        {
          "internalType": "address",
          "name": "direccion",
          "type": "address"
        }
      ],
      "name": "consultar",
      "outputs": [
        {
          "components": [
            {
              "internalType": "string",
              "name": "estado",
              "type": "string"
            },
            {
              "internalType": "string",
              "name": "especialidad",
              "type": "string"
            },
            {
              "internalType": "string",
              "name": "usuario",
              "type": "string"
            },
            {
              "internalType": "string",
              "name": "contrasena",
              "type": "string"
            },
            {
              "internalType": "bool",
              "name": "isValue",
              "type": "bool"
            }
          ],
          "internalType": "struct MedicoStruct",
          "name": "",
          "type": "tuple"
        }
      ],
      "stateMutability": "nonpayable",
      "type": "function"
    }
  ],
  "bytecode": "0x608060405234801561001057600080fd5b50336000806101000a81548173ffffffffffffffffffffffffffffffffffffffff021916908373ffffffffffffffffffffffffffffffffffffffff16021790555060405161005d906100bf565b604051809103906000f080158015610079573d6000803e3d6000fd5b50600160006101000a81548173ffffffffffffffffffffffffffffffffffffffff021916908373ffffffffffffffffffffffffffffffffffffffff1602179055506100cc565b61174b8061072083390190565b610645806100db6000396000f3fe608060405234801561001057600080fd5b50600436106100415760003560e01c806317627994146100465780637da8f6a51461006257806392ebdcd214610092575b600080fd5b610060600480360381019061005b9190610418565b6100b0565b005b61007c60048036038101906100779190610474565b6100b4565b60405161008991906105c3565b60405180910390f35b61009a6100cd565b6040516100a791906105f4565b60405180910390f35b5050565b6100bc6100f1565b6100c46100f1565b80915050919050565b60008054906101000a900473ffffffffffffffffffffffffffffffffffffffff1681565b6040518060a00160405280606081526020016060815260200160608152602001606081526020016000151581525090565b6000604051905090565b600080fd5b600080fd5b600073ffffffffffffffffffffffffffffffffffffffff82169050919050565b600061016182610136565b9050919050565b61017181610156565b811461017c57600080fd5b50565b60008135905061018e81610168565b92915050565b600080fd5b6000601f19601f8301169050919050565b7f4e487b7100000000000000000000000000000000000000000000000000000000600052604160045260246000fd5b6101e282610199565b810181811067ffffffffffffffff82111715610201576102006101aa565b5b80604052505050565b6000610214610122565b905061022082826101d9565b919050565b600080fd5b600080fd5b600080fd5b600067ffffffffffffffff82111561024f5761024e6101aa565b5b61025882610199565b9050602081019050919050565b82818337600083830152505050565b600061028761028284610234565b61020a565b9050828152602081018484840111156102a3576102a261022f565b5b6102ae848285610265565b509392505050565b600082601f8301126102cb576102ca61022a565b5b81356102db848260208601610274565b91505092915050565b60008115159050919050565b6102f9816102e4565b811461030457600080fd5b50565b600081359050610316816102f0565b92915050565b600060a0828403121561033257610331610194565b5b61033c60a061020a565b9050600082013567ffffffffffffffff81111561035c5761035b610225565b5b610368848285016102b6565b600083015250602082013567ffffffffffffffff81111561038c5761038b610225565b5b610398848285016102b6565b602083015250604082013567ffffffffffffffff8111156103bc576103bb610225565b5b6103c8848285016102b6565b604083015250606082013567ffffffffffffffff8111156103ec576103eb610225565b5b6103f8848285016102b6565b606083015250608061040c84828501610307565b60808301525092915050565b6000806040838503121561042f5761042e61012c565b5b600061043d8582860161017f565b925050602083013567ffffffffffffffff81111561045e5761045d610131565b5b61046a8582860161031c565b9150509250929050565b60006020828403121561048a5761048961012c565b5b60006104988482850161017f565b91505092915050565b600081519050919050565b600082825260208201905092915050565b60005b838110156104db5780820151818401526020810190506104c0565b838111156104ea576000848401525b50505050565b60006104fb826104a1565b61050581856104ac565b93506105158185602086016104bd565b61051e81610199565b840191505092915050565b610532816102e4565b82525050565b600060a083016000830151848203600086015261055582826104f0565b9150506020830151848203602086015261056f82826104f0565b9150506040830151848203604086015261058982826104f0565b915050606083015184820360608601526105a382826104f0565b91505060808301516105b86080860182610529565b508091505092915050565b600060208201905081810360008301526105dd8184610538565b905092915050565b6105ee81610156565b82525050565b600060208201905061060960008301846105e5565b9291505056fea2646970667358221220623dc94355b10944833cfa2d85f53208b521dc9dc840028253c636930f41058a64736f6c634300080b0033608060405234801561001057600080fd5b50336000806101000a81548173ffffffffffffffffffffffffffffffffffffffff021916908373ffffffffffffffffffffffffffffffffffffffff1602179055506116eb806100606000396000f3fe608060405234801561001057600080fd5b506004361061004c5760003560e01c80637da8f6a51461005157806392ebdcd214610081578063beb520e71461009f578063c3b7114a146100bb575b600080fd5b61006b60048036038101906100669190610c6c565b6100d7565b6040516100789190610e90565b60405180910390f35b61008961066c565b6040516100969190610ec1565b60405180910390f35b6100b960048036038101906100b49190611281565b610690565b005b6100d560048036038101906100d09190611281565b6108bb565b005b6100df610ae7565b7fcf34ef537ac33ee1ac626ca1587a0a7e8e51561e5514f8cb36afa1c5102b3bab60405161010c9061133a565b60405180910390a16000600160008473ffffffffffffffffffffffffffffffffffffffff1673ffffffffffffffffffffffffffffffffffffffff1681526020019081526020016000206040518061010001604052908160008201805461017190611389565b80601f016020809104026020016040519081016040528092919081815260200182805461019d90611389565b80156101ea5780601f106101bf576101008083540402835291602001916101ea565b820191906000526020600020905b8154815290600101906020018083116101cd57829003601f168201915b5050505050815260200160018201805461020390611389565b80601f016020809104026020016040519081016040528092919081815260200182805461022f90611389565b801561027c5780601f106102515761010080835404028352916020019161027c565b820191906000526020600020905b81548152906001019060200180831161025f57829003601f168201915b5050505050815260200160028201805461029590611389565b80601f01602080910402602001604051908101604052809291908181526020018280546102c190611389565b801561030e5780601f106102e35761010080835404028352916020019161030e565b820191906000526020600020905b8154815290600101906020018083116102f157829003601f168201915b5050505050815260200160038201805461032790611389565b80601f016020809104026020016040519081016040528092919081815260200182805461035390611389565b80156103a05780601f10610375576101008083540402835291602001916103a0565b820191906000526020600020905b81548152906001019060200180831161038357829003601f168201915b505050505081526020016004820180546103b990611389565b80601f01602080910402602001604051908101604052809291908181526020018280546103e590611389565b80156104325780601f1061040757610100808354040283529160200191610432565b820191906000526020600020905b81548152906001019060200180831161041557829003601f168201915b505050505081526020016005820160405180606001604052908160008201805461045b90611389565b80601f016020809104026020016040519081016040528092919081815260200182805461048790611389565b80156104d45780601f106104a9576101008083540402835291602001916104d4565b820191906000526020600020905b8154815290600101906020018083116104b757829003601f168201915b505050505081526020016001820180546104ed90611389565b80601f016020809104026020016040519081016040528092919081815260200182805461051990611389565b80156105665780601f1061053b57610100808354040283529160200191610566565b820191906000526020600020905b81548152906001019060200180831161054957829003601f168201915b505050505081526020016002820160009054906101000a900460ff1615151515815250508152602001600882015481526020016009820160009054906101000a900460ff16151515158152505090508060e0015161062e577fcf34ef537ac33ee1ac626ca1587a0a7e8e51561e5514f8cb36afa1c5102b3bab6040516105eb90611407565b60405180910390a16040517f08c379a000000000000000000000000000000000000000000000000000000000815260040161062590611473565b60405180910390fd5b7fcf34ef537ac33ee1ac626ca1587a0a7e8e51561e5514f8cb36afa1c5102b3bab60405161065b906114df565b60405180910390a180915050919050565b60008054906101000a900473ffffffffffffffffffffffffffffffffffffffff1681565b600160008373ffffffffffffffffffffffffffffffffffffffff1673ffffffffffffffffffffffffffffffffffffffff16815260200190815260200160002060090160009054906101000a900460ff16610754577fcf34ef537ac33ee1ac626ca1587a0a7e8e51561e5514f8cb36afa1c5102b3bab60405161071190611571565b60405180910390a16040517f08c379a000000000000000000000000000000000000000000000000000000000815260040161074b90611571565b60405180910390fd5b80600160008473ffffffffffffffffffffffffffffffffffffffff1673ffffffffffffffffffffffffffffffffffffffff16815260200190815260200160002060008201518160000190805190602001906107b0929190610b34565b5060208201518160010190805190602001906107cd929190610b34565b5060408201518160020190805190602001906107ea929190610b34565b506060820151816003019080519060200190610807929190610b34565b506080820151816004019080519060200190610824929190610b34565b5060a082015181600501600082015181600001908051906020019061084a929190610b34565b506020820151816001019080519060200190610867929190610b34565b5060408201518160020160006101000a81548160ff021916908315150217905550505060c0820151816008015560e08201518160090160006101000a81548160ff0219169083151502179055509050505050565b600160008373ffffffffffffffffffffffffffffffffffffffff1673ffffffffffffffffffffffffffffffffffffffff16815260200190815260200160002060090160009054906101000a900460ff1615610980577fcf34ef537ac33ee1ac626ca1587a0a7e8e51561e5514f8cb36afa1c5102b3bab60405161093d90611603565b60405180910390a16040517f08c379a000000000000000000000000000000000000000000000000000000000815260040161097790611695565b60405180910390fd5b80600160008473ffffffffffffffffffffffffffffffffffffffff1673ffffffffffffffffffffffffffffffffffffffff16815260200190815260200160002060008201518160000190805190602001906109dc929190610b34565b5060208201518160010190805190602001906109f9929190610b34565b506040820151816002019080519060200190610a16929190610b34565b506060820151816003019080519060200190610a33929190610b34565b506080820151816004019080519060200190610a50929190610b34565b5060a0820151816005016000820151816000019080519060200190610a76929190610b34565b506020820151816001019080519060200190610a93929190610b34565b5060408201518160020160006101000a81548160ff021916908315150217905550505060c0820151816008015560e08201518160090160006101000a81548160ff0219169083151502179055509050505050565b6040518061010001604052806060815260200160608152602001606081526020016060815260200160608152602001610b1e610bba565b8152602001600081526020016000151581525090565b828054610b4090611389565b90600052602060002090601f016020900481019282610b625760008555610ba9565b82601f10610b7b57805160ff1916838001178555610ba9565b82800160010185558215610ba9579182015b82811115610ba8578251825591602001919060010190610b8d565b5b509050610bb69190610bdd565b5090565b604051806060016040528060608152602001606081526020016000151581525090565b5b80821115610bf6576000816000905550600101610bde565b5090565b6000604051905090565b600080fd5b600080fd5b600073ffffffffffffffffffffffffffffffffffffffff82169050919050565b6000610c3982610c0e565b9050919050565b610c4981610c2e565b8114610c5457600080fd5b50565b600081359050610c6681610c40565b92915050565b600060208284031215610c8257610c81610c04565b5b6000610c9084828501610c57565b91505092915050565b600081519050919050565b600082825260208201905092915050565b60005b83811015610cd3578082015181840152602081019050610cb8565b83811115610ce2576000848401525b50505050565b6000601f19601f8301169050919050565b6000610d0482610c99565b610d0e8185610ca4565b9350610d1e818560208601610cb5565b610d2781610ce8565b840191505092915050565b60008115159050919050565b610d4781610d32565b82525050565b60006060830160008301518482036000860152610d6a8282610cf9565b91505060208301518482036020860152610d848282610cf9565b9150506040830151610d996040860182610d3e565b508091505092915050565b6000819050919050565b610db781610da4565b82525050565b6000610100830160008301518482036000860152610ddb8282610cf9565b91505060208301518482036020860152610df58282610cf9565b91505060408301518482036040860152610e0f8282610cf9565b91505060608301518482036060860152610e298282610cf9565b91505060808301518482036080860152610e438282610cf9565b91505060a083015184820360a0860152610e5d8282610d4d565b91505060c0830151610e7260c0860182610dae565b5060e0830151610e8560e0860182610d3e565b508091505092915050565b60006020820190508181036000830152610eaa8184610dbd565b905092915050565b610ebb81610c2e565b82525050565b6000602082019050610ed66000830184610eb2565b92915050565b600080fd5b7f4e487b7100000000000000000000000000000000000000000000000000000000600052604160045260246000fd5b610f1982610ce8565b810181811067ffffffffffffffff82111715610f3857610f37610ee1565b5b80604052505050565b6000610f4b610bfa565b9050610f578282610f10565b919050565b600080fd5b600080fd5b600080fd5b600067ffffffffffffffff821115610f8657610f85610ee1565b5b610f8f82610ce8565b9050602081019050919050565b82818337600083830152505050565b6000610fbe610fb984610f6b565b610f41565b905082815260208101848484011115610fda57610fd9610f66565b5b610fe5848285610f9c565b509392505050565b600082601f83011261100257611001610f61565b5b8135611012848260208601610fab565b91505092915050565b61102481610d32565b811461102f57600080fd5b50565b6000813590506110418161101b565b92915050565b60006060828403121561105d5761105c610edc565b5b6110676060610f41565b9050600082013567ffffffffffffffff81111561108757611086610f5c565b5b61109384828501610fed565b600083015250602082013567ffffffffffffffff8111156110b7576110b6610f5c565b5b6110c384828501610fed565b60208301525060406110d784828501611032565b60408301525092915050565b6110ec81610da4565b81146110f757600080fd5b50565b600081359050611109816110e3565b92915050565b6000610100828403121561112657611125610edc565b5b611131610100610f41565b9050600082013567ffffffffffffffff81111561115157611150610f5c565b5b61115d84828501610fed565b600083015250602082013567ffffffffffffffff81111561118157611180610f5c565b5b61118d84828501610fed565b602083015250604082013567ffffffffffffffff8111156111b1576111b0610f5c565b5b6111bd84828501610fed565b604083015250606082013567ffffffffffffffff8111156111e1576111e0610f5c565b5b6111ed84828501610fed565b606083015250608082013567ffffffffffffffff81111561121157611210610f5c565b5b61121d84828501610fed565b60808301525060a082013567ffffffffffffffff81111561124157611240610f5c565b5b61124d84828501611047565b60a08301525060c0611261848285016110fa565b60c08301525060e061127584828501611032565b60e08301525092915050565b6000806040838503121561129857611297610c04565b5b60006112a685828601610c57565b925050602083013567ffffffffffffffff8111156112c7576112c6610c09565b5b6112d38582860161110f565b9150509250929050565b600082825260208201905092915050565b7f656e74726f206120636f6e73756c746172000000000000000000000000000000600082015250565b60006113246011836112dd565b915061132f826112ee565b602082019050919050565b6000602082019050818103600083015261135381611317565b9050919050565b7f4e487b7100000000000000000000000000000000000000000000000000000000600052602260045260246000fd5b600060028204905060018216806113a157607f821691505b602082108114156113b5576113b461135a565b5b50919050565b7f6e6f2065786973746520656c207573756172696f000000000000000000000000600082015250565b60006113f16014836112dd565b91506113fc826113bb565b602082019050919050565b60006020820190508181036000830152611420816113e4565b9050919050565b7f4e6f20657869737465206573652070616369656e746500000000000000000000600082015250565b600061145d6016836112dd565b915061146882611427565b602082019050919050565b6000602082019050818103600083015261148c81611450565b9050919050565b7f7573756172696f2076616c69646f000000000000000000000000000000000000600082015250565b60006114c9600e836112dd565b91506114d482611493565b602082019050919050565b600060208201905081810360008301526114f8816114bc565b9050919050565b7f4e6f2065786973746520756e6120706572736f6e61207265676973747261646160008201527f20636f6e20657365206164647265737300000000000000000000000000000000602082015250565b600061155b6030836112dd565b9150611566826114ff565b604082019050919050565b6000602082019050818103600083015261158a8161154e565b9050919050565b7f59612065786973746520756e6120706572736f6e61207265676973747261646160008201527f20636f6e20657365206164647265737300000000000000000000000000000000602082015250565b60006115ed6030836112dd565b91506115f882611591565b604082019050919050565b6000602082019050818103600083015261161c816115e0565b9050919050565b7f5961206578697374652075616e20706572736f6e61207265676973747261646160008201527f20636f6e20657365206164647265737300000000000000000000000000000000602082015250565b600061167f6030836112dd565b915061168a82611623565b604082019050919050565b600060208201905081810360008301526116ae81611672565b905091905056fea26469706673582212204d5793a5d4a40f1a09692be8304e00facae615a4972eb4883f29487c30373d9f64736f6c634300080b0033",
  "immutableReferences": {},
  "source": "pragma solidity ^0.8.10; // TODO: Ajustar la versin por consenso con Jos\n\nimport \"../logica/Medico.sol\";\nimport \"../models/MedicoStruct.sol\";\ncontract MedicoService {\n    address public creador;\n    PersonaDAO private personaDao;\n\n    constructor() {\n        creador = msg.sender; // creador del contrato\n        personaDao = new PersonaDAO(); //TODO: verificar si queda guardado el objeto o si hay mejor manera\n    }\n\n    /*\n    function verificarExistenciaEnSistemaExterno(address direccion) public returns (bool) {\n        \n        // TODO: ac va un orculo\n    }\n\n    // TODO: buscar porque es uint256\n    function buscarPerfilMedicoSistemaExterno(address direccion) public view returns (PerfilMedicoSistemaExternoStruct)    {\n        // address direccion = msg.sender;\n        // TODO: ac va un orculo\n    }\n    */\n\n    // TODO: buscar porque es uint256\n    function registrar(address direccion, MedicoStruct memory medico ) public {\n        // TODO: redefinir, ac le pega a persona dao y usa el mtodo guardar\n        // TODO: poner excepcion en caso de error\n        // personaDao.guardar(direccion, medico);\n    }\n\n    // TODO: intentar volverlo view despues\n    function consultar(address direccion) public returns (MedicoStruct memory) {\n        // TODO: Validar que sea mdico y sino lanzar excepcin\n        // TODO: mejorar o completar la conversion del tipo padre al hijo,preguntas al profe que se puede hacer\n        // PersonaStruct memory persona = personaDao.consultar(direccion);\n        MedicoStruct memory medico;\n        //medico.setPrimerApellido(persona.getPrimerApellido());\n        return medico;\n    }\n}\n",
  "sourcePath": "/home/felipe/Documentos/Blockchain/codigo/back-hce/contracts/service/MedicoService.sol",
  "compiler": {
    "name": "solc",
    "version": "0.8.11+commit.d7f03943.Emscripten.clang"
  },
  "schemaVersion": "3.4.4",
  "updatedAt": "2022-02-07T00:46:03.903Z",
  "devdoc": {
    "kind": "dev",
    "methods": {},
    "version": 1
  },
  "userdoc": {
    "kind": "user",
    "methods": {},
    "version": 1
  }
}