{
  "contractName": "Modifiers",
  "abi": [
    {
      "inputs": [],
      "name": "creador",
      "outputs": [
        {
          "internalType": "address",
          "name": "",
          "type": "address"
        }
      ],
      "stateMutability": "view",
      "type": "function"
    },
    {
      "inputs": [
        {
          "internalType": "contract Acceso",
          "name": "_accesoAddress",
          "type": "address"
        }
      ],
      "name": "setAcceso",
      "outputs": [],
      "stateMutability": "nonpayable",
      "type": "function"
    },
    {
      "inputs": [
        {
          "internalType": "contract AccesoHistoriaClinica",
          "name": "_accesoHistoriaClinicaAddress",
          "type": "address"
        }
      ],
      "name": "setAccesoHistoriaClinica",
      "outputs": [],
      "stateMutability": "nonpayable",
      "type": "function"
    },
    {
      "inputs": [],
      "name": "getAcceso",
      "outputs": [
        {
          "internalType": "contract Acceso",
          "name": "",
          "type": "address"
        }
      ],
      "stateMutability": "view",
      "type": "function"
    },
    {
      "inputs": [
        {
          "internalType": "uint256",
          "name": "permisoId",
          "type": "uint256"
        }
      ],
      "name": "tieneAccesoFunc",
      "outputs": [
        {
          "internalType": "bool",
          "name": "",
          "type": "bool"
        }
      ],
      "stateMutability": "nonpayable",
      "type": "function"
    }
  ],
  "bytecode": "0x608060405234801561001057600080fd5b506103b1806100206000396000f3fe608060405234801561001057600080fd5b50600436106100675760003560e01c806392ebdcd21161005057806392ebdcd214610094578063d4a79866146100c4578063fa7e054e146100e757600080fd5b8063137d47221461006c5780634022d67214610081575b600080fd5b61007f61007a36600461031c565b6100f8565b005b61007f61008f36600461031c565b6101b6565b6000546100a7906001600160a01b031681565b6040516001600160a01b0390911681526020015b60405180910390f35b6100d76100d2366004610340565b61026f565b60405190151581526020016100bb565b6001546001600160a01b03166100a7565b6000546001600160a01b031633146101875760405162461bcd60e51b815260206004820152604160248201527f457374612066756e63696f6e20736f6c6f2070756564652073657220656a656360448201527f757461646120706f7220656c2063726561646f722064656c20636f6e747261746064820152606f60f81b608482015260a4015b60405180910390fd5b6001805473ffffffffffffffffffffffffffffffffffffffff19166001600160a01b0392909216919091179055565b6000546001600160a01b031633146102405760405162461bcd60e51b815260206004820152604160248201527f457374612066756e63696f6e20736f6c6f2070756564652073657220656a656360448201527f757461646120706f7220656c2063726561646f722064656c20636f6e747261746064820152606f60f81b608482015260a40161017e565b6002805473ffffffffffffffffffffffffffffffffffffffff19166001600160a01b0392909216919091179055565b6001546040517f6d4cc9d2000000000000000000000000000000000000000000000000000000008152336004820152602481018390526000916001600160a01b031690636d4cc9d2906044016020604051808303816000875af11580156102da573d6000803e3d6000fd5b505050506040513d601f19601f820116820180604052508101906102fe9190610359565b92915050565b6001600160a01b038116811461031957600080fd5b50565b60006020828403121561032e57600080fd5b813561033981610304565b9392505050565b60006020828403121561035257600080fd5b5035919050565b60006020828403121561036b57600080fd5b8151801515811461033957600080fdfea2646970667358221220b0ab4a7e7450ae083185f2c48b6b54d54f1f76630e55569c7d00a43b9934d3cb64736f6c63430008110033",
  "immutableReferences": {},
  "source": "// SPDX-License-Identifier: MIT\npragma solidity 0.8.17;\n\nimport \"../logica/Acceso.sol\";\nimport \"../logica/AccesoHistoriaClinica.sol\";\nimport \"@openzeppelin/contracts/utils/Strings.sol\";\n\ncontract Modifiers {\n    address public creador;\n    Acceso private acceso;\n    AccesoHistoriaClinica private accesoHistoriaClinica;\n\n    modifier tieneAcceso(uint256 permisoId) {\n        bool esAccesible = acceso.validarPermisoDeRol(msg.sender, permisoId);\n        require(\n            esAccesible,\n            string.concat(\n                \"El usuario no tiene acceso por rol a la funcion: \",\n                Strings.toString(permisoId)\n            )\n        );\n        // require(true, \"El usuario no tiene acceso\");\n        _; // ac se ejecuta la funcin\n    }\n\n    modifier tienePermisoDeAccesoTemporal(address direccionPaciente) {\n        if (direccionPaciente != msg.sender) {\n            bool esAccesible = accesoHistoriaClinica.esSolicitudVigente(\n                direccionPaciente,\n                msg.sender\n            );\n            require(esAccesible, \"El usuario no tiene acceso temporal\");\n        }\n\n        _; // ac se ejecuta la funcin\n    }\n\n    modifier esMedicoActivoModifier() {\n        bool esAccesible = accesoHistoriaClinica.esMedicoActivo(msg.sender);\n        require(esAccesible, \"El usuario no es un medico activo en el sistema nacional\");\n        _;\n    }\n\n    modifier esPropietario() {\n        require(\n            msg.sender == creador,\n            \"Esta funcion solo puede ser ejecutada por el creador del contrato\"\n        );\n        _; // ac se ejecuta la funcin\n    }\n\n    function setAcceso(Acceso _accesoAddress) public esPropietario {\n        acceso = _accesoAddress;\n    }\n\n    function setAccesoHistoriaClinica(\n        AccesoHistoriaClinica _accesoHistoriaClinicaAddress\n    ) public esPropietario {\n        accesoHistoriaClinica = _accesoHistoriaClinicaAddress;\n    }\n\n    // TODO: Quitar\n    function getAcceso() public view returns (Acceso) {\n        return acceso;\n    }\n    // TODO: Quitar\n    function tieneAccesoFunc(uint256 permisoId) public returns (bool){\n        return acceso.validarPermisoDeRol(msg.sender, permisoId);\n    }\n}\n",
  "sourcePath": "/back/contracts/utils/Modifiers.sol",
  "compiler": {
    "name": "solc",
    "version": "0.8.17+commit.8df45f5f.Emscripten.clang"
  },
  "schemaVersion": "3.4.13",
  "updatedAt": "2023-05-03T22:18:41.038Z",
  "devdoc": {
    "kind": "dev",
    "methods": {},
    "version": 1
  },
  "userdoc": {
    "kind": "user",
    "methods": {},
    "version": 1
  }
}