{
  "contractName": "Oracle",
  "abi": [
    {
      "inputs": [],
      "stateMutability": "nonpayable",
      "type": "constructor"
    },
    {
      "anonymous": false,
      "inputs": [
        {
          "indexed": false,
          "internalType": "uint256",
          "name": "id",
          "type": "uint256"
        },
        {
          "indexed": false,
          "internalType": "string",
          "name": "urlToQuery",
          "type": "string"
        },
        {
          "indexed": false,
          "internalType": "string",
          "name": "attributeToFetch",
          "type": "string"
        }
      ],
      "name": "NewRequest",
      "type": "event"
    },
    {
      "anonymous": false,
      "inputs": [
        {
          "indexed": false,
          "internalType": "uint256",
          "name": "id",
          "type": "uint256"
        },
        {
          "indexed": false,
          "internalType": "string",
          "name": "urlToQuery",
          "type": "string"
        },
        {
          "indexed": false,
          "internalType": "string",
          "name": "attributeToFetch",
          "type": "string"
        },
        {
          "indexed": false,
          "internalType": "string[]",
          "name": "agreedValue",
          "type": "string[]"
        },
        {
          "indexed": true,
          "internalType": "address",
          "name": "interested",
          "type": "address"
        },
        {
          "indexed": false,
          "internalType": "enum PeticionExternaEnum",
          "name": "cause",
          "type": "uint8"
        }
      ],
      "name": "UpdatedRequest",
      "type": "event"
    },
    {
      "inputs": [],
      "name": "creador",
      "outputs": [
        {
          "internalType": "address",
          "name": "",
          "type": "address"
        }
      ],
      "stateMutability": "view",
      "type": "function",
      "constant": true
    },
    {
      "inputs": [],
      "name": "getAcceso",
      "outputs": [
        {
          "internalType": "contract Acceso",
          "name": "",
          "type": "address"
        }
      ],
      "stateMutability": "view",
      "type": "function",
      "constant": true
    },
    {
      "inputs": [
        {
          "internalType": "contract Acceso",
          "name": "_accesoAddress",
          "type": "address"
        }
      ],
      "name": "setAcceso",
      "outputs": [],
      "stateMutability": "nonpayable",
      "type": "function"
    },
    {
      "inputs": [
        {
          "internalType": "contract AccesoHistoriaClinica",
          "name": "_accesoHistoriaClinicaAddress",
          "type": "address"
        }
      ],
      "name": "setAccesoHistoriaClinica",
      "outputs": [],
      "stateMutability": "nonpayable",
      "type": "function"
    },
    {
      "inputs": [
        {
          "internalType": "uint256",
          "name": "permisoId",
          "type": "uint256"
        }
      ],
      "name": "tieneAccesoFunc",
      "outputs": [
        {
          "internalType": "bool",
          "name": "",
          "type": "bool"
        }
      ],
      "stateMutability": "nonpayable",
      "type": "function"
    },
    {
      "inputs": [
        {
          "internalType": "string",
          "name": "_urlToQuery",
          "type": "string"
        },
        {
          "internalType": "string",
          "name": "_attributeToFetch",
          "type": "string"
        },
        {
          "internalType": "address",
          "name": "interested",
          "type": "address"
        },
        {
          "internalType": "enum PeticionExternaEnum",
          "name": "cause",
          "type": "uint8"
        }
      ],
      "name": "createRequest",
      "outputs": [],
      "stateMutability": "nonpayable",
      "type": "function"
    },
    {
      "inputs": [
        {
          "internalType": "uint256",
          "name": "_id",
          "type": "uint256"
        },
        {
          "internalType": "string[]",
          "name": "_valueRetrieved",
          "type": "string[]"
        }
      ],
      "name": "updateRequest",
      "outputs": [],
      "stateMutability": "nonpayable",
      "type": "function"
    },
    {
      "inputs": [
        {
          "internalType": "address",
          "name": "interested",
          "type": "address"
        },
        {
          "internalType": "enum PeticionExternaEnum",
          "name": "cause",
          "type": "uint8"
        },
        {
          "internalType": "string[]",
          "name": "answer",
          "type": "string[]"
        }
      ],
      "name": "nextStep",
      "outputs": [],
      "stateMutability": "nonpayable",
      "type": "function"
    },
    {
      "inputs": [
        {
          "internalType": "uint256",
          "name": "_id",
          "type": "uint256"
        },
        {
          "internalType": "string[]",
          "name": "_keys",
          "type": "string[]"
        }
      ],
      "name": "updateRequestMedico",
      "outputs": [],
      "stateMutability": "nonpayable",
      "type": "function"
    },
    {
      "inputs": [
        {
          "internalType": "address",
          "name": "_oraculoAddress",
          "type": "address"
        },
        {
          "internalType": "uint256",
          "name": "estado",
          "type": "uint256"
        }
      ],
      "name": "setOraculo",
      "outputs": [],
      "stateMutability": "nonpayable",
      "type": "function"
    },
    {
      "inputs": [
        {
          "internalType": "contract DatosParametricosMapperInterface",
          "name": "_datosParametricosMapperAddress",
          "type": "address"
        }
      ],
      "name": "setDatosParametricosMapper",
      "outputs": [],
      "stateMutability": "nonpayable",
      "type": "function"
    },
    {
      "inputs": [
        {
          "internalType": "contract MedicoMapperInterface",
          "name": "_medicoMapper",
          "type": "address"
        }
      ],
      "name": "setMedicoMapper",
      "outputs": [],
      "stateMutability": "nonpayable",
      "type": "function"
    }
  ],
  "bytecode": "0x608060405260006007556001600855600360095534801561001f57600080fd5b50600080546001600160a01b03191633179055611901806100416000396000f3fe608060405234801561001057600080fd5b50600436106100d45760003560e01c806392ebdcd211610081578063d6f0c3d41161005b578063d6f0c3d4146101b3578063fa7af2bb146101c6578063fa7e054e146101d957600080fd5b806392ebdcd21461014d578063c204c17d1461017d578063d4a798661461019057600080fd5b80634022d672116100b25780634022d67214610114578063573cf792146101275780636ba16c951461013a57600080fd5b80630c8ea42f146100d9578063137d4722146100ee5780632df2c71d14610101575b600080fd5b6100ec6100e73660046111bc565b6101ea565b005b6100ec6100fc366004611218565b610276565b6100ec61010f366004611250565b610327565b6100ec610122366004611218565b610682565b6100ec6101353660046112b0565b61072e565b6100ec6101483660046111bc565b610864565b600054610160906001600160a01b031681565b6040516001600160a01b0390911681526020015b60405180910390f35b6100ec61018b366004611218565b610c07565b6101a361019e3660046112dc565b610cb3565b6040519015158152602001610174565b6100ec6101c13660046112f5565b610d48565b6100ec6101d4366004611218565b610ef5565b6001546001600160a01b0316610160565b6000828152600660205260408120905b82518110156102705760048201546040516001600160a01b038216917f5ab4268c1d8d8be63a1190cf6679f7acd36825a78c5a2f7350d31125db45cacb9161025691859160028801918991600160a01b90910460ff16906114b1565b60405180910390a2806102688161156d565b9150506101fa565b50505050565b6000546001600160a01b031633146103055760405162461bcd60e51b815260206004820152604160248201527f457374612066756e63696f6e20736f6c6f2070756564652073657220656a656360448201527f757461646120706f7220656c2063726561646f722064656c20636f6e747261746064820152606f60f81b608482015260a4015b60405180910390fd5b600180546001600160a01b0319166001600160a01b0392909216919091179055565b600082600181111561033b5761033b611479565b0361066657600073__Utils_________________________________63bed34bba8360048151811061036f5761036f611594565b60200260200101516040518263ffffffff1660e01b815260040161039391906115aa565b602060405180830381865af41580156103b0573d6000803e3d6000fd5b505050506040513d601f19601f820116820180604052508101906103d491906115fc565b8061046c575073__Utils_________________________________63bed34bba8360048151811061040757610407611594565b60200260200101516040518263ffffffff1660e01b815260040161042b919061161e565b602060405180830381865af4158015610448573d6000803e3d6000fd5b505050506040513d601f19601f8201168201806040525081019061046c91906115fc565b9050600081156104eb5760048054604051630240621560e51b81526001928101929092526001600160a01b03169063480c42a090602401602060405180830381865afa1580156104c0573d6000803e3d6000fd5b505050506040513d601f19601f820116820180604052508101906104e49190611670565b905061055c565b60048054604051630240621560e51b81526000928101929092526001600160a01b03169063480c42a090602401602060405180830381865afa158015610535573d6000803e3d6000fd5b505050506040513d601f19601f820116820180604052508101906105599190611670565b90505b6003546040517f7da8f6a50000000000000000000000000000000000000000000000000000000081526001600160a01b0387811660048301526000921690637da8f6a5906024016020604051808303816000875af11580156105c2573d6000803e3d6000fd5b505050506040513d601f19601f820116820180604052508101906105e69190611670565b6040517fef974e800000000000000000000000000000000000000000000000000000000081526001600160a01b0384811660048301529192509082169063ef974e8090602401600060405180830381600087803b15801561064657600080fd5b505af115801561065a573d6000803e3d6000fd5b50505050505050505050565b600182600181111561067a5761067a611479565b50505b505050565b6000546001600160a01b0316331461070c5760405162461bcd60e51b815260206004820152604160248201527f457374612066756e63696f6e20736f6c6f2070756564652073657220656a656360448201527f757461646120706f7220656c2063726561646f722064656c20636f6e747261746064820152606f60f81b608482015260a4016102fc565b600280546001600160a01b0319166001600160a01b0392909216919091179055565b6000546001600160a01b031633146107b85760405162461bcd60e51b815260206004820152604160248201527f457374612066756e63696f6e20736f6c6f2070756564652073657220656a656360448201527f757461646120706f7220656c2063726561646f722064656c20636f6e747261746064820152606f60f81b608482015260a4016102fc565b6001600160a01b0382166000908152600a6020526040812054900361082357600b80546001810182556000919091527f0175b7a638427703f0dbe7bb9bbf987a2551717b34e79f33b5b1008d1fa01db90180546001600160a01b0319166001600160a01b0384161790555b80600114610848576001600160a01b0382166000908152600a60205260409020600290555b6001600160a01b039091166000908152600a6020526040902055565b60008281526006602081815260408084203385529283019091529091205460010361067d57336000908152600682016020526040812060029055805b806108f757600082815260058401602052604081205490036108e557506000818152600583016020908152604090912084516001926108e3929190870190610fa1565b505b816108ef8161156d565b9250506108a0565b6000805b600954811015610a80578551600082815260058701602052604090205403610a6e576000805b6000838152600588016020526040902054811015610a46576000838152600588016020526040812080548390811061095b5761095b611594565b9060005260206000200180546109709061137c565b80601f016020809104026020016040519081016040528092919081815260200182805461099c9061137c565b80156109e95780601f106109be576101008083540402835291602001916109e9565b820191906000526020600020905b8154815290600101906020018083116109cc57829003601f168201915b505050505090506000898381518110610a0457610a04611594565b602002602001015190508080519060200120828051906020012003610a315783610a2d8161156d565b9450505b50508080610a3e9061156d565b915050610921565b5060008281526005870160205260409020548103610a6c5782610a688161156d565b9350505b505b80610a788161156d565b9150506108fb565b506008548110610bff578451610a9f9060038601906020880190610fa1565b50600484015460038501805460408051602080840282018101909252828152610b99946001600160a01b03811694600160a01b90910460ff1693919290919060009084015b82821015610b90578382906000526020600020018054610b039061137c565b80601f0160208091040260200160405190810160405280929190818152602001828054610b2f9061137c565b8015610b7c5780601f10610b5157610100808354040283529160200191610b7c565b820191906000526020600020905b815481529060010190602001808311610b5f57829003601f168201915b505050505081526020019060010190610ae4565b50505050610327565b600484015484546040516001600160a01b038316927f5ab4268c1d8d8be63a1190cf6679f7acd36825a78c5a2f7350d31125db45cacb92610bf692909160018a019160028b019160038c0191600160a01b90910460ff169061168d565b60405180910390a25b505050505050565b6000546001600160a01b03163314610c915760405162461bcd60e51b815260206004820152604160248201527f457374612066756e63696f6e20736f6c6f2070756564652073657220656a656360448201527f757461646120706f7220656c2063726561646f722064656c20636f6e747261746064820152606f60f81b608482015260a4016102fc565b600480546001600160a01b0319166001600160a01b0392909216919091179055565b6001546040517f6d4cc9d2000000000000000000000000000000000000000000000000000000008152336004820152602481018390526000916001600160a01b031690636d4cc9d2906044016020604051808303816000875af1158015610d1e573d6000803e3d6000fd5b505050506040513d601f19601f82011682018060405250810190610d4291906115fc565b92915050565b60058054600091600691839182610d5e8361156d565b90915550815260208101919091526040016000206007548155905060018101610d8786826117e0565b5060028101610d9685826117e0565b506004810180546001600160a01b0385166001600160a01b03198216811783558492917fffffffffffffffffffffff0000000000000000000000000000000000000000001617600160a01b836001811115610df357610df3611479565b021790555060005b600b54811015610e9b57600a6000600b8381548110610e1c57610e1c611594565b60009182526020808320909101546001600160a01b03168352820192909252604001902054600103610e89576001826006016000600b8481548110610e6357610e63611594565b60009182526020808320909101546001600160a01b031683528201929092526040019020555b80610e938161156d565b915050610dfb565b507f0312239616abfb14f7ffa065155abb0ca047274d86c965890db4c8a48b8ce4b66007548686604051610ed1939291906118a0565b60405180910390a160078054906000610ee98361156d565b91905055505050505050565b6000546001600160a01b03163314610f7f5760405162461bcd60e51b815260206004820152604160248201527f457374612066756e63696f6e20736f6c6f2070756564652073657220656a656360448201527f757461646120706f7220656c2063726561646f722064656c20636f6e747261746064820152606f60f81b608482015260a4016102fc565b600380546001600160a01b0319166001600160a01b0392909216919091179055565b828054828255906000526020600020908101928215610fe7579160200282015b82811115610fe75782518290610fd790826117e0565b5091602001919060010190610fc1565b50610ff3929150610ff7565b5090565b80821115610ff357600061100b8282611014565b50600101610ff7565b5080546110209061137c565b6000825580601f10611030575050565b601f01602090049060005260206000209081019061104e9190611051565b50565b5b80821115610ff35760008155600101611052565b634e487b7160e01b600052604160045260246000fd5b604051601f8201601f1916810167ffffffffffffffff811182821017156110a5576110a5611066565b604052919050565b600082601f8301126110be57600080fd5b813567ffffffffffffffff8111156110d8576110d8611066565b6110eb601f8201601f191660200161107c565b81815284602083860101111561110057600080fd5b816020850160208301376000918101602001919091529392505050565b600082601f83011261112e57600080fd5b8135602067ffffffffffffffff8083111561114b5761114b611066565b8260051b61115a83820161107c565b938452858101830193838101908886111561117457600080fd5b84880192505b858310156111b0578235848111156111925760008081fd5b6111a08a87838c01016110ad565b835250918401919084019061117a565b98975050505050505050565b600080604083850312156111cf57600080fd5b82359150602083013567ffffffffffffffff8111156111ed57600080fd5b6111f98582860161111d565b9150509250929050565b6001600160a01b038116811461104e57600080fd5b60006020828403121561122a57600080fd5b813561123581611203565b9392505050565b80356002811061124b57600080fd5b919050565b60008060006060848603121561126557600080fd5b833561127081611203565b925061127e6020850161123c565b9150604084013567ffffffffffffffff81111561129a57600080fd5b6112a68682870161111d565b9150509250925092565b600080604083850312156112c357600080fd5b82356112ce81611203565b946020939093013593505050565b6000602082840312156112ee57600080fd5b5035919050565b6000806000806080858703121561130b57600080fd5b843567ffffffffffffffff8082111561132357600080fd5b61132f888389016110ad565b9550602087013591508082111561134557600080fd5b50611352878288016110ad565b935050604085013561136381611203565b91506113716060860161123c565b905092959194509250565b600181811c9082168061139057607f821691505b6020821081036113b057634e487b7160e01b600052602260045260246000fd5b50919050565b600081546113c38161137c565b8085526020600183811680156113e057600181146113fa57611428565b60ff1985168884015283151560051b880183019550611428565b866000528260002060005b858110156114205781548a8201860152908301908401611405565b890184019650505b505050505092915050565b6000815180845260005b818110156114595760208185018101518683018201520161143d565b506000602082860101526020601f19601f83011685010191505092915050565b634e487b7160e01b600052602160045260246000fd5b600281106114ad57634e487b7160e01b600052602160045260246000fd5b9052565b8481526000602060a081840152600b60a08401527f706970652070727565626100000000000000000000000000000000000000000060c084015260e060408401526114ff60e08401876113b6565b8381036060850152855180825282820190600581901b8301840184890160005b8381101561154d57601f1986840301855261153b838351611433565b9487019492509086019060010161151f565b50508095505050505050611564608083018461148f565b95945050505050565b60006001820161158d57634e487b7160e01b600052601160045260246000fd5b5060010190565b634e487b7160e01b600052603260045260246000fd5b6040815260006115bd6040830184611433565b8281036020840152600481527f747275650000000000000000000000000000000000000000000000000000000060208201526040810191505092915050565b60006020828403121561160e57600080fd5b8151801515811461123557600080fd5b6040815260006116316040830184611433565b8281036020840152600481527f547275650000000000000000000000000000000000000000000000000000000060208201526040810191505092915050565b60006020828403121561168257600080fd5b815161123581611203565b8581526000602060a0818401526116a760a08401886113b6565b83810360408501526116b981886113b6565b905083810360608501528086548083528383019150838160051b8401016000898152858120815b8481101561177857601f198785030186528282546116fd8161137c565b80875260018281168015611718576001811461173257611761565b60ff198416898e015282151560051b89018d019450611761565b8688528c8820885b848110156117595781548f828d01015283820191508e8101905061173a565b8a018e019550505b50988b0198929650505091909101906001016116e0565b5050508095505050505050611790608083018461148f565b9695505050505050565b601f82111561067d57600081815260208120601f850160051c810160208610156117c15750805b601f850160051c820191505b81811015610bff578281556001016117cd565b815167ffffffffffffffff8111156117fa576117fa611066565b61180e81611808845461137c565b8461179a565b602080601f831160018114611843576000841561182b5750858301515b600019600386901b1c1916600185901b178555610bff565b600085815260208120601f198616915b8281101561187257888601518255948401946001909101908401611853565b50858210156118905787850151600019600388901b60f8161c191681555b5050505050600190811b01905550565b8381526060602082015260006118b96060830185611433565b8281036040840152611790818561143356fea264697066735822122027446795a72eece67bf8dc2baa5dbea9aff6644787cf6247f13c6d897767d50264736f6c63430008110033",
  "immutableReferences": {},
  "source": "// SPDX-License-Identifier: MIT\npragma solidity ^0.8.17;\n\nimport \"../utils/Modifiers.sol\";\nimport \"../models/oracles/PeticionExternaEnum.sol\";\nimport \"../persistence/MedicoMapper.sol\";\nimport \"../persistence/DatosParametricosMapper.sol\";\nimport \"../utils/Utils.sol\";\n\ncontract Oracle is Modifiers {\n    MedicoMapperInterface private medicoMapper;\n    DatosParametricosMapperInterface private datosParametricosMapper;\n\n    uint256 numRequests;\n    mapping(uint256 => Request) requests; //list of requests made to the contract\n    uint256 currentId = 0; //increasing request id\n    uint256 minQuorum = 1; // TODO: poner en 2 //minimum number of responses to receive before declaring final result\n    uint256 totalOracleCount = 3; // Hardcoded oracle count\n\n    mapping(address => uint256) private oraculos;\n    address[] private idOraculos;\n\n    // defines a general api request\n    struct Request {\n        uint256 id; //request id\n        string urlToQuery; //API url\n        string attributeToFetch; //json attribute (key) to retrieve in the response\n        string[] agreedValue; //value from key\n        address interested; //interesado en la informacin\n        PeticionExternaEnum cause; //Causa por la cual se usa el oraculo\n        mapping(uint256 => string[]) anwers; //answers provided by the oracles\n        mapping(address => uint256) quorum; //oracles which will query the answer (1=oracle hasn't voted, 2=oracle has voted)\n    }\n\n    //event that triggers oracle outside of the blockchain\n    event NewRequest(uint256 id, string urlToQuery, string attributeToFetch);\n\n    //triggered when there's a consensus on the final result\n    event UpdatedRequest(\n        uint256 id,\n        string urlToQuery,\n        string attributeToFetch,\n        string[] agreedValue,\n        address indexed interested,\n        PeticionExternaEnum cause\n    );\n\n    constructor() {\n        creador = msg.sender;\n    }\n\n    function createRequest(\n        string memory _urlToQuery,\n        string memory _attributeToFetch,\n        address interested,\n        PeticionExternaEnum cause\n    ) public {\n        Request storage r = requests[numRequests++];\n        r.id = currentId;\n        r.urlToQuery = _urlToQuery;\n        r.attributeToFetch = _attributeToFetch;\n        r.interested = interested;\n        r.cause = cause;\n        // Hardcoded oracles address\n        for (uint256 i = 0; i < idOraculos.length; i++) {\n            if (oraculos[idOraculos[i]] == 1) {\n                r.quorum[idOraculos[i]] = 1;\n            }\n        }\n        // r.quorum[address(0x6c2339b46F41a06f09CA0051ddAD54D1e582bA77)] = 1;\n        // r.quorum[address(0xb5346CF224c02186606e5f89EACC21eC25398077)] = 1;\n        // r.quorum[address(0xa2997F1CA363D11a0a35bB1Ac0Ff7849bc13e914)] = 1;\n\n        // launch an event to be detected by oracle outside of blockchain\n        emit NewRequest(currentId, _urlToQuery, _attributeToFetch);\n\n        // increase request id\n        currentId++;\n    }\n\n    //called by the oracle to record its answer\n    function updateRequest(uint256 _id, string[] memory _valueRetrieved)\n        public\n    {\n        Request storage currRequest = requests[_id];\n        //check if oracle is in the list of trusted oracles\n        //and if the oracle hasn't voted yet\n        if (currRequest.quorum[address(msg.sender)] == 1) {\n            //marking that this address has voted\n            currRequest.quorum[msg.sender] = 2;\n\n            //iterate through \"array\" of answers until a position if free and save the retrieved value\n            uint256 tmpI = 0;\n            bool found = false;\n            while (!found) {\n                //find first empty slot\n                // if(bytes(currRequest.anwers[tmpI]).length == 0){\n                if (currRequest.anwers[tmpI].length == 0) {\n                    found = true;\n                    currRequest.anwers[tmpI] = _valueRetrieved;\n                }\n                tmpI++;\n            }\n\n            uint256 currentQuorum = 0;\n\n            //iterate through oracle list and check if enough oracles(minimum quorum)\n            //have voted the same answer has the current one\n            for (uint256 i = 0; i < totalOracleCount; i++) {\n                if (currRequest.anwers[i].length == _valueRetrieved.length) {\n                    uint256 validations = 0;\n                    for (uint256 j = 0; j < currRequest.anwers[i].length; j++) {\n                        bytes memory a = bytes(currRequest.anwers[i][j]);\n                        bytes memory b = bytes(_valueRetrieved[j]);\n\n                        if (keccak256(a) == keccak256(b)) {\n                            validations++;\n                        }\n                    }\n                    if (validations == currRequest.anwers[i].length) {\n                        currentQuorum++;\n                    }\n                }\n            }\n\n            if (currentQuorum >= minQuorum) {\n                currRequest.agreedValue = _valueRetrieved;\n                nextStep(\n                    currRequest.interested,\n                    currRequest.cause,\n                    currRequest.agreedValue\n                );\n                emit UpdatedRequest(\n                    currRequest.id,\n                    currRequest.urlToQuery,\n                    currRequest.attributeToFetch,\n                    currRequest.agreedValue,\n                    currRequest.interested,\n                    currRequest.cause\n                );\n            }\n        }\n    }\n\n    // TODO: Validar que tan viable es esto\n    function nextStep(\n        address interested,\n        PeticionExternaEnum cause,\n        string[] memory answer\n    ) public {\n        if (cause == PeticionExternaEnum.VALIDAR_MEDICO) {\n            // cambia estado en mdico\n            bool estado = Utils.compareStrings(answer[4], \"true\") ||\n                Utils.compareStrings(answer[4], \"True\");\n            EstadoVO objetoEstado;\n            if (estado) {\n                objetoEstado = datosParametricosMapper.consultarEstadoVO(1);\n            } else {\n                objetoEstado = datosParametricosMapper.consultarEstadoVO(0);\n            }\n\n            MedicoVO informacionMedico = medicoMapper.consultar(interested);\n            informacionMedico.setEstado(objetoEstado);\n        } else if (cause == PeticionExternaEnum.BUSCAR_MEDICO) {\n            // No hace nada\n        }\n    }\n\n    // TODO: Eliminar, al parecer no s usa\n    function updateRequestMedico(\n        uint256 _id,\n        // string memory _valueRetrieved\n        string[] memory _keys\n    ) public {\n        // updateReques(_id, _valueRetrieved);\n        Request storage currRequest = requests[_id];\n        //if(currRequest.agreedValue)\n        for (uint256 i = 0; i < _keys.length; i++) {\n            emit UpdatedRequest(\n                i,\n                \"pipe prueba\",\n                currRequest.attributeToFetch,\n                _keys,\n                currRequest.interested,\n                currRequest.cause\n            );\n        }\n    }\n\n    /***\n     * 1. Activo\n     * 2. Inactivo\n     */\n    function setOraculo(address _oraculoAddress, uint256 estado)\n        public\n        esPropietario\n    {\n        if (oraculos[_oraculoAddress] == 0) {\n            // revert(\"Ya existe un medico registrado con ese address\");\n            idOraculos.push(_oraculoAddress);\n        }\n        if (estado != 1) {\n            oraculos[_oraculoAddress] = 2;\n        }\n        oraculos[_oraculoAddress] = estado;\n    }\n\n    function setDatosParametricosMapper(\n        DatosParametricosMapperInterface _datosParametricosMapperAddress\n    ) public esPropietario {\n        datosParametricosMapper = _datosParametricosMapperAddress;\n    }\n\n    function setMedicoMapper(MedicoMapperInterface _medicoMapper)\n        public\n        esPropietario\n    {\n        medicoMapper = _medicoMapper;\n    }\n}\n",
  "sourcePath": "/back/contracts/oracles/Oracle.sol",
  "compiler": {
    "name": "solc",
    "version": "0.8.17+commit.8df45f5f.Emscripten.clang"
  },
  "schemaVersion": "3.4.11",
  "updatedAt": "2023-06-26T00:49:14.862Z",
  "networkType": "ethereum",
  "devdoc": {
    "kind": "dev",
    "methods": {},
    "version": 1
  },
  "userdoc": {
    "kind": "user",
    "methods": {},
    "version": 1
  }
}