{
  "contractName": "PacienteService",
  "abi": [
    {
      "inputs": [],
      "stateMutability": "nonpayable",
      "type": "constructor"
    },
    {
      "anonymous": false,
      "inputs": [
        {
          "indexed": false,
          "internalType": "string",
          "name": "data",
          "type": "string"
        }
      ],
      "name": "Log",
      "type": "event"
    },
    {
      "inputs": [],
      "name": "creador",
      "outputs": [
        {
          "internalType": "address",
          "name": "",
          "type": "address"
        }
      ],
      "stateMutability": "view",
      "type": "function",
      "constant": true
    },
    {
      "inputs": [],
      "name": "activar",
      "outputs": [
        {
          "internalType": "bool",
          "name": "",
          "type": "bool"
        }
      ],
      "stateMutability": "nonpayable",
      "type": "function"
    },
    {
      "inputs": [
        {
          "internalType": "address",
          "name": "direccion",
          "type": "address"
        },
        {
          "internalType": "contract Paciente",
          "name": "paciente",
          "type": "address"
        }
      ],
      "name": "registrar",
      "outputs": [],
      "stateMutability": "nonpayable",
      "type": "function"
    },
    {
      "inputs": [
        {
          "internalType": "address",
          "name": "direccion",
          "type": "address"
        }
      ],
      "name": "consultar",
      "outputs": [
        {
          "components": [
            {
              "internalType": "string",
              "name": "primerNombre",
              "type": "string"
            },
            {
              "internalType": "string",
              "name": "segundoNombre",
              "type": "string"
            },
            {
              "internalType": "string",
              "name": "primerApellido",
              "type": "string"
            },
            {
              "internalType": "string",
              "name": "segundoApellido",
              "type": "string"
            },
            {
              "internalType": "string",
              "name": "identificacion",
              "type": "string"
            },
            {
              "components": [
                {
                  "internalType": "string",
                  "name": "nombre",
                  "type": "string"
                },
                {
                  "internalType": "string",
                  "name": "descripcion",
                  "type": "string"
                },
                {
                  "internalType": "bool",
                  "name": "estaActiva",
                  "type": "bool"
                }
              ],
              "internalType": "struct TipoIdentificacionStruct",
              "name": "tipoIdentificacion",
              "type": "tuple"
            },
            {
              "internalType": "bool",
              "name": "isValue",
              "type": "bool"
            }
          ],
          "internalType": "struct PersonaStruct",
          "name": "",
          "type": "tuple"
        }
      ],
      "stateMutability": "nonpayable",
      "type": "function"
    }
  ],
  "bytecode": "0x608060405234801561001057600080fd5b50336000806101000a81548173ffffffffffffffffffffffffffffffffffffffff021916908373ffffffffffffffffffffffffffffffffffffffff16021790555060405161005d906100bf565b604051809103906000f080158015610079573d6000803e3d6000fd5b50600160006101000a81548173ffffffffffffffffffffffffffffffffffffffff021916908373ffffffffffffffffffffffffffffffffffffffff1602179055506100cc565b61190280610e1e83390190565b610d43806100db6000396000f3fe608060405234801561001057600080fd5b506004361061004c5760003560e01c806307b37d1d146100515780632dd47cac1461006d5780637da8f6a51461008b57806392ebdcd2146100bb575b600080fd5b61006b60048036038101906100669190610417565b6100d9565b005b6100756100dd565b6040516100829190610472565b60405180910390f35b6100a560048036038101906100a0919061048d565b6100e7565b6040516100b29190610678565b60405180910390f35b6100c36102db565b6040516100d091906106a9565b60405180910390f35b5050565b6000803390505090565b6100ef6102ff565b7fcf34ef537ac33ee1ac626ca1587a0a7e8e51561e5514f8cb36afa1c5102b3bab60405161011c90610721565b60405180910390a1600160009054906101000a900473ffffffffffffffffffffffffffffffffffffffff1673ffffffffffffffffffffffffffffffffffffffff16637da8f6a5836040518263ffffffff1660e01b815260040161017f91906106a9565b6000604051808303816000875af19250505080156101c057506040513d6000823e3d601f19601f820116820180604052508101906101bd9190610a95565b60015b610297576101cc610aeb565b806308c379a0141561022757506101e1610b0d565b806101ec5750610229565b7fcf34ef537ac33ee1ac626ca1587a0a7e8e51561e5514f8cb36afa1c5102b3bab60405161021990610c15565b60405180910390a150610292565b505b3d8060008114610255576040519150601f19603f3d011682016040523d82523d6000602084013e61025a565b606091505b507fcf34ef537ac33ee1ac626ca1587a0a7e8e51561e5514f8cb36afa1c5102b3bab60405161028890610c81565b60405180910390a1505b6102d5565b7fcf34ef537ac33ee1ac626ca1587a0a7e8e51561e5514f8cb36afa1c5102b3bab6040516102c490610ced565b60405180910390a1809150506102d6565b5b919050565b60008054906101000a900473ffffffffffffffffffffffffffffffffffffffff1681565b6040518060e001604052806060815260200160608152602001606081526020016060815260200160608152602001610335610344565b81526020016000151581525090565b604051806060016040528060608152602001606081526020016000151581525090565b6000604051905090565b600080fd5b600080fd5b600073ffffffffffffffffffffffffffffffffffffffff82169050919050565b60006103a68261037b565b9050919050565b6103b68161039b565b81146103c157600080fd5b50565b6000813590506103d3816103ad565b92915050565b60006103e48261039b565b9050919050565b6103f4816103d9565b81146103ff57600080fd5b50565b600081359050610411816103eb565b92915050565b6000806040838503121561042e5761042d610371565b5b600061043c858286016103c4565b925050602061044d85828601610402565b9150509250929050565b60008115159050919050565b61046c81610457565b82525050565b60006020820190506104876000830184610463565b92915050565b6000602082840312156104a3576104a2610371565b5b60006104b1848285016103c4565b91505092915050565b600081519050919050565b600082825260208201905092915050565b60005b838110156104f45780820151818401526020810190506104d9565b83811115610503576000848401525b50505050565b6000601f19601f8301169050919050565b6000610525826104ba565b61052f81856104c5565b935061053f8185602086016104d6565b61054881610509565b840191505092915050565b61055c81610457565b82525050565b6000606083016000830151848203600086015261057f828261051a565b91505060208301518482036020860152610599828261051a565b91505060408301516105ae6040860182610553565b508091505092915050565b600060e08301600083015184820360008601526105d6828261051a565b915050602083015184820360208601526105f0828261051a565b9150506040830151848203604086015261060a828261051a565b91505060608301518482036060860152610624828261051a565b9150506080830151848203608086015261063e828261051a565b91505060a083015184820360a08601526106588282610562565b91505060c083015161066d60c0860182610553565b508091505092915050565b6000602082019050818103600083015261069281846105b9565b905092915050565b6106a38161039b565b82525050565b60006020820190506106be600083018461069a565b92915050565b600082825260208201905092915050565b7f656e74726f206120636f6e73756c746172000000000000000000000000000000600082015250565b600061070b6011836106c4565b9150610716826106d5565b602082019050919050565b6000602082019050818103600083015261073a816106fe565b9050919050565b600080fd5b7f4e487b7100000000000000000000000000000000000000000000000000000000600052604160045260246000fd5b61077e82610509565b810181811067ffffffffffffffff8211171561079d5761079c610746565b5b80604052505050565b60006107b0610367565b90506107bc8282610775565b919050565b600080fd5b600080fd5b600080fd5b600067ffffffffffffffff8211156107eb576107ea610746565b5b6107f482610509565b9050602081019050919050565b600061081461080f846107d0565b6107a6565b9050828152602081018484840111156108305761082f6107cb565b5b61083b8482856104d6565b509392505050565b600082601f830112610858576108576107c6565b5b8151610868848260208601610801565b91505092915050565b61087a81610457565b811461088557600080fd5b50565b60008151905061089781610871565b92915050565b6000606082840312156108b3576108b2610741565b5b6108bd60606107a6565b9050600082015167ffffffffffffffff8111156108dd576108dc6107c1565b5b6108e984828501610843565b600083015250602082015167ffffffffffffffff81111561090d5761090c6107c1565b5b61091984828501610843565b602083015250604061092d84828501610888565b60408301525092915050565b600060e0828403121561094f5761094e610741565b5b61095960e06107a6565b9050600082015167ffffffffffffffff811115610979576109786107c1565b5b61098584828501610843565b600083015250602082015167ffffffffffffffff8111156109a9576109a86107c1565b5b6109b584828501610843565b602083015250604082015167ffffffffffffffff8111156109d9576109d86107c1565b5b6109e584828501610843565b604083015250606082015167ffffffffffffffff811115610a0957610a086107c1565b5b610a1584828501610843565b606083015250608082015167ffffffffffffffff811115610a3957610a386107c1565b5b610a4584828501610843565b60808301525060a082015167ffffffffffffffff811115610a6957610a686107c1565b5b610a758482850161089d565b60a08301525060c0610a8984828501610888565b60c08301525092915050565b600060208284031215610aab57610aaa610371565b5b600082015167ffffffffffffffff811115610ac957610ac8610376565b5b610ad584828501610939565b91505092915050565b60008160e01c9050919050565b600060033d1115610b0a5760046000803e610b07600051610ade565b90505b90565b600060443d1015610b1d57610ba0565b610b25610367565b60043d036004823e80513d602482011167ffffffffffffffff82111715610b4d575050610ba0565b808201805167ffffffffffffffff811115610b6b5750505050610ba0565b80602083010160043d038501811115610b88575050505050610ba0565b610b9782602001850186610775565b82955050505050505b90565b7f736520726f6d70696f20706f7220756e20726576657274206f2072657175697260008201527f6500000000000000000000000000000000000000000000000000000000000000602082015250565b6000610bff6021836106c4565b9150610c0a82610ba3565b604082019050919050565b60006020820190508181036000830152610c2e81610bf2565b9050919050565b7f736520726f6d70696f2079206e69206964656120706f72717565200000000000600082015250565b6000610c6b601b836106c4565b9150610c7682610c35565b602082019050919050565b60006020820190508181036000830152610c9a81610c5e565b9050919050565b7f656e636f6e74726f206c6120706572736f6e6100000000000000000000000000600082015250565b6000610cd76013836106c4565b9150610ce282610ca1565b602082019050919050565b60006020820190508181036000830152610d0681610cca565b905091905056fea26469706673582212202c78cbdc3ad1af00a6aa7df2b9d91cd778ecd1b2f27f679df4cc84b8f2113e6e64736f6c634300080b0033608060405234801561001057600080fd5b50336000806101000a81548173ffffffffffffffffffffffffffffffffffffffff021916908373ffffffffffffffffffffffffffffffffffffffff1602179055506118a2806100606000396000f3fe608060405234801561001057600080fd5b506004361061004c5760003560e01c806326d0a380146100515780637da8f6a51461008757806392ebdcd2146100b75780639c8508d7146100d5575b600080fd5b61006b60048036038101906100669190610e7e565b6100f1565b60405161007e979695949392919061100f565b60405180910390f35b6100a1600480360381019061009c9190610e7e565b610531565b6040516100ae91906111be565b60405180910390f35b6100bf610abb565b6040516100cc91906111ef565b60405180910390f35b6100ef60048036038101906100ea919061156d565b610adf565b005b6001602052806000526040600020600091509050806000018054610114906115f8565b80601f0160208091040260200160405190810160405280929190818152602001828054610140906115f8565b801561018d5780601f106101625761010080835404028352916020019161018d565b820191906000526020600020905b81548152906001019060200180831161017057829003601f168201915b5050505050908060010180546101a2906115f8565b80601f01602080910402602001604051908101604052809291908181526020018280546101ce906115f8565b801561021b5780601f106101f05761010080835404028352916020019161021b565b820191906000526020600020905b8154815290600101906020018083116101fe57829003601f168201915b505050505090806002018054610230906115f8565b80601f016020809104026020016040519081016040528092919081815260200182805461025c906115f8565b80156102a95780601f1061027e576101008083540402835291602001916102a9565b820191906000526020600020905b81548152906001019060200180831161028c57829003601f168201915b5050505050908060030180546102be906115f8565b80601f01602080910402602001604051908101604052809291908181526020018280546102ea906115f8565b80156103375780601f1061030c57610100808354040283529160200191610337565b820191906000526020600020905b81548152906001019060200180831161031a57829003601f168201915b50505050509080600401805461034c906115f8565b80601f0160208091040260200160405190810160405280929190818152602001828054610378906115f8565b80156103c55780601f1061039a576101008083540402835291602001916103c5565b820191906000526020600020905b8154815290600101906020018083116103a857829003601f168201915b505050505090806005016040518060600160405290816000820180546103ea906115f8565b80601f0160208091040260200160405190810160405280929190818152602001828054610416906115f8565b80156104635780601f1061043857610100808354040283529160200191610463565b820191906000526020600020905b81548152906001019060200180831161044657829003601f168201915b5050505050815260200160018201805461047c906115f8565b80601f01602080910402602001604051908101604052809291908181526020018280546104a8906115f8565b80156104f55780601f106104ca576101008083540402835291602001916104f5565b820191906000526020600020905b8154815290600101906020018083116104d857829003601f168201915b505050505081526020016002820160009054906101000a900460ff161515151581525050908060080160009054906101000a900460ff16905087565b610539610d01565b7fcf34ef537ac33ee1ac626ca1587a0a7e8e51561e5514f8cb36afa1c5102b3bab60405161056690611676565b60405180910390a16000600160008473ffffffffffffffffffffffffffffffffffffffff1673ffffffffffffffffffffffffffffffffffffffff1681526020019081526020016000206040518060e00160405290816000820180546105ca906115f8565b80601f01602080910402602001604051908101604052809291908181526020018280546105f6906115f8565b80156106435780601f1061061857610100808354040283529160200191610643565b820191906000526020600020905b81548152906001019060200180831161062657829003601f168201915b5050505050815260200160018201805461065c906115f8565b80601f0160208091040260200160405190810160405280929190818152602001828054610688906115f8565b80156106d55780601f106106aa576101008083540402835291602001916106d5565b820191906000526020600020905b8154815290600101906020018083116106b857829003601f168201915b505050505081526020016002820180546106ee906115f8565b80601f016020809104026020016040519081016040528092919081815260200182805461071a906115f8565b80156107675780601f1061073c57610100808354040283529160200191610767565b820191906000526020600020905b81548152906001019060200180831161074a57829003601f168201915b50505050508152602001600382018054610780906115f8565b80601f01602080910402602001604051908101604052809291908181526020018280546107ac906115f8565b80156107f95780601f106107ce576101008083540402835291602001916107f9565b820191906000526020600020905b8154815290600101906020018083116107dc57829003601f168201915b50505050508152602001600482018054610812906115f8565b80601f016020809104026020016040519081016040528092919081815260200182805461083e906115f8565b801561088b5780601f106108605761010080835404028352916020019161088b565b820191906000526020600020905b81548152906001019060200180831161086e57829003601f168201915b50505050508152602001600582016040518060600160405290816000820180546108b4906115f8565b80601f01602080910402602001604051908101604052809291908181526020018280546108e0906115f8565b801561092d5780601f106109025761010080835404028352916020019161092d565b820191906000526020600020905b81548152906001019060200180831161091057829003601f168201915b50505050508152602001600182018054610946906115f8565b80601f0160208091040260200160405190810160405280929190818152602001828054610972906115f8565b80156109bf5780601f10610994576101008083540402835291602001916109bf565b820191906000526020600020905b8154815290600101906020018083116109a257829003601f168201915b505050505081526020016002820160009054906101000a900460ff16151515158152505081526020016008820160009054906101000a900460ff16151515158152505090508060c00151610a7d577fcf34ef537ac33ee1ac626ca1587a0a7e8e51561e5514f8cb36afa1c5102b3bab604051610a3a906116e2565b60405180910390a16040517f08c379a0000000000000000000000000000000000000000000000000000000008152600401610a749061174e565b60405180910390fd5b7fcf34ef537ac33ee1ac626ca1587a0a7e8e51561e5514f8cb36afa1c5102b3bab604051610aaa906117ba565b60405180910390a180915050919050565b60008054906101000a900473ffffffffffffffffffffffffffffffffffffffff1681565b600160008373ffffffffffffffffffffffffffffffffffffffff1673ffffffffffffffffffffffffffffffffffffffff16815260200190815260200160002060080160009054906101000a900460ff1615610ba4577fcf34ef537ac33ee1ac626ca1587a0a7e8e51561e5514f8cb36afa1c5102b3bab604051610b619061184c565b60405180910390a16040517f08c379a0000000000000000000000000000000000000000000000000000000008152600401610b9b9061184c565b60405180910390fd5b80600160008473ffffffffffffffffffffffffffffffffffffffff1673ffffffffffffffffffffffffffffffffffffffff1681526020019081526020016000206000820151816000019080519060200190610c00929190610d46565b506020820151816001019080519060200190610c1d929190610d46565b506040820151816002019080519060200190610c3a929190610d46565b506060820151816003019080519060200190610c57929190610d46565b506080820151816004019080519060200190610c74929190610d46565b5060a0820151816005016000820151816000019080519060200190610c9a929190610d46565b506020820151816001019080519060200190610cb7929190610d46565b5060408201518160020160006101000a81548160ff021916908315150217905550505060c08201518160080160006101000a81548160ff0219169083151502179055509050505050565b6040518060e001604052806060815260200160608152602001606081526020016060815260200160608152602001610d37610dcc565b81526020016000151581525090565b828054610d52906115f8565b90600052602060002090601f016020900481019282610d745760008555610dbb565b82601f10610d8d57805160ff1916838001178555610dbb565b82800160010185558215610dbb579182015b82811115610dba578251825591602001919060010190610d9f565b5b509050610dc89190610def565b5090565b604051806060016040528060608152602001606081526020016000151581525090565b5b80821115610e08576000816000905550600101610df0565b5090565b6000604051905090565b600080fd5b600080fd5b600073ffffffffffffffffffffffffffffffffffffffff82169050919050565b6000610e4b82610e20565b9050919050565b610e5b81610e40565b8114610e6657600080fd5b50565b600081359050610e7881610e52565b92915050565b600060208284031215610e9457610e93610e16565b5b6000610ea284828501610e69565b91505092915050565b600081519050919050565b600082825260208201905092915050565b60005b83811015610ee5578082015181840152602081019050610eca565b83811115610ef4576000848401525b50505050565b6000601f19601f8301169050919050565b6000610f1682610eab565b610f208185610eb6565b9350610f30818560208601610ec7565b610f3981610efa565b840191505092915050565b600082825260208201905092915050565b6000610f6082610eab565b610f6a8185610f44565b9350610f7a818560208601610ec7565b610f8381610efa565b840191505092915050565b60008115159050919050565b610fa381610f8e565b82525050565b60006060830160008301518482036000860152610fc68282610f55565b91505060208301518482036020860152610fe08282610f55565b9150506040830151610ff56040860182610f9a565b508091505092915050565b61100981610f8e565b82525050565b600060e0820190508181036000830152611029818a610f0b565b9050818103602083015261103d8189610f0b565b905081810360408301526110518188610f0b565b905081810360608301526110658187610f0b565b905081810360808301526110798186610f0b565b905081810360a083015261108d8185610fa9565b905061109c60c0830184611000565b98975050505050505050565b600060608301600083015184820360008601526110c58282610f55565b915050602083015184820360208601526110df8282610f55565b91505060408301516110f46040860182610f9a565b508091505092915050565b600060e083016000830151848203600086015261111c8282610f55565b915050602083015184820360208601526111368282610f55565b915050604083015184820360408601526111508282610f55565b9150506060830151848203606086015261116a8282610f55565b915050608083015184820360808601526111848282610f55565b91505060a083015184820360a086015261119e82826110a8565b91505060c08301516111b360c0860182610f9a565b508091505092915050565b600060208201905081810360008301526111d881846110ff565b905092915050565b6111e981610e40565b82525050565b600060208201905061120460008301846111e0565b92915050565b600080fd5b7f4e487b7100000000000000000000000000000000000000000000000000000000600052604160045260246000fd5b61124782610efa565b810181811067ffffffffffffffff821117156112665761126561120f565b5b80604052505050565b6000611279610e0c565b9050611285828261123e565b919050565b600080fd5b600080fd5b600080fd5b600067ffffffffffffffff8211156112b4576112b361120f565b5b6112bd82610efa565b9050602081019050919050565b82818337600083830152505050565b60006112ec6112e784611299565b61126f565b90508281526020810184848401111561130857611307611294565b5b6113138482856112ca565b509392505050565b600082601f8301126113305761132f61128f565b5b81356113408482602086016112d9565b91505092915050565b61135281610f8e565b811461135d57600080fd5b50565b60008135905061136f81611349565b92915050565b60006060828403121561138b5761138a61120a565b5b611395606061126f565b9050600082013567ffffffffffffffff8111156113b5576113b461128a565b5b6113c18482850161131b565b600083015250602082013567ffffffffffffffff8111156113e5576113e461128a565b5b6113f18482850161131b565b602083015250604061140584828501611360565b60408301525092915050565b600060e082840312156114275761142661120a565b5b61143160e061126f565b9050600082013567ffffffffffffffff8111156114515761145061128a565b5b61145d8482850161131b565b600083015250602082013567ffffffffffffffff8111156114815761148061128a565b5b61148d8482850161131b565b602083015250604082013567ffffffffffffffff8111156114b1576114b061128a565b5b6114bd8482850161131b565b604083015250606082013567ffffffffffffffff8111156114e1576114e061128a565b5b6114ed8482850161131b565b606083015250608082013567ffffffffffffffff8111156115115761151061128a565b5b61151d8482850161131b565b60808301525060a082013567ffffffffffffffff8111156115415761154061128a565b5b61154d84828501611375565b60a08301525060c061156184828501611360565b60c08301525092915050565b6000806040838503121561158457611583610e16565b5b600061159285828601610e69565b925050602083013567ffffffffffffffff8111156115b3576115b2610e1b565b5b6115bf85828601611411565b9150509250929050565b7f4e487b7100000000000000000000000000000000000000000000000000000000600052602260045260246000fd5b6000600282049050600182168061161057607f821691505b60208210811415611624576116236115c9565b5b50919050565b7f656e74726f206120636f6e73756c746172000000000000000000000000000000600082015250565b6000611660601183610eb6565b915061166b8261162a565b602082019050919050565b6000602082019050818103600083015261168f81611653565b9050919050565b7f6e6f2065786973746520656c207573756172696f000000000000000000000000600082015250565b60006116cc601483610eb6565b91506116d782611696565b602082019050919050565b600060208201905081810360008301526116fb816116bf565b9050919050565b7f4e6f20657869737465206573652070616369656e746500000000000000000000600082015250565b6000611738601683610eb6565b915061174382611702565b602082019050919050565b600060208201905081810360008301526117678161172b565b9050919050565b7f7573756172696f2076616c69646f000000000000000000000000000000000000600082015250565b60006117a4600e83610eb6565b91506117af8261176e565b602082019050919050565b600060208201905081810360008301526117d381611797565b9050919050565b7f5961206578697374652075616e20706572736f6e61207265676973747261646160008201527f20636f6e20657365206164647265737300000000000000000000000000000000602082015250565b6000611836603083610eb6565b9150611841826117da565b604082019050919050565b6000602082019050818103600083015261186581611829565b905091905056fea26469706673582212200516a36047ff2a195aa4c3350b8fdf45de99c06b58930a0c9c8f0f8b1de8150f64736f6c634300080b0033",
  "immutableReferences": {},
  "source": "// SPDX-License-Identifier: MIT\npragma solidity >=0.4.22 <0.9.0; // TODO: Ajustar la versin por consenso con Jos\n\nimport \"../persistence/PersonaDAO.sol\";\nimport \"../logica/Paciente.sol\";\n\n// TODO: quiz todos los mtodos en los service deban ser external (averiguar)\n// https://ethereum.stackexchange.com/questions/19380/external-vs-public-best-practices?answertab=active#tab-top\ncontract PacienteService {\n\n    event Log(string data);\n\n    address public creador;\n    PersonaDAO private personaDao;\n\n    constructor() public {\n        creador = msg.sender; // creador del contrato\n        personaDao = new PersonaDAO(); //TODO: verificar si queda guardado el objeto o si hay mejor manera\n    }\n\n    function activar() public returns (bool) {\n        address direccion = msg.sender;\n        // TODO: buscar persona en arreglo\n    }\n\n    // TODO: buscar porque es uint256\n    function registrar(address direccion, Paciente paciente) public {\n        // TODO: poner excepcion en caso de error\n        // personaDao.guardar(direccion, paciente);\n    }\n\n    // TODO: intentar dejarla como view\n    // TODO: Cambiar a paciente\n    function consultar(address direccion) external returns (PersonaStruct memory) {\n        // TODO: validar que sea paciente sino lanzar una excepcion\n        // TODO: mejorar o completar la conversion del tipo padre al hijo,preguntas al profe que se puede hacer\n        emit Log(\"entro a consultar\");\n        try personaDao.consultar(direccion) returns (PersonaStruct memory persona) {\n            // Paciente paciente = new Paciente();\n            // paciente.setPrimerApellido(persona.getPrimerApellido()); // ac se rompe\n            emit Log(\"encontro la persona\");            \n            return persona;\n        } catch Error(string memory /*reason*/){\n            emit Log(\"se rompio por un revert o require\");\n        }  catch (bytes memory /*lowLevelData*/){\n            emit Log(\"se rompio y ni idea porque \");\n        }      \n    }\n}\n",
  "sourcePath": "/home/felipe/Documentos/Blockchain/codigo/back-hce/contracts/service/PacienteService.sol",
  "compiler": {
    "name": "solc",
    "version": "0.8.11+commit.d7f03943.Emscripten.clang"
  },
  "schemaVersion": "3.4.4",
  "updatedAt": "2022-01-27T01:23:32.158Z",
  "networkType": "ethereum",
  "devdoc": {
    "kind": "dev",
    "methods": {},
    "version": 1
  },
  "userdoc": {
    "kind": "user",
    "methods": {},
    "version": 1
  }
}