{
  "contractName": "Paciente",
  "abi": [
    {
      "inputs": [],
      "stateMutability": "nonpayable",
      "type": "constructor"
    },
    {
      "anonymous": false,
      "inputs": [
        {
          "indexed": false,
          "internalType": "string",
          "name": "data",
          "type": "string"
        }
      ],
      "name": "Log",
      "type": "event"
    },
    {
      "inputs": [],
      "name": "creador",
      "outputs": [
        {
          "internalType": "address",
          "name": "",
          "type": "address"
        }
      ],
      "stateMutability": "view",
      "type": "function"
    },
    {
      "inputs": [],
      "name": "consultar",
      "outputs": [
        {
          "components": [
            {
              "components": [
                {
                  "internalType": "address",
                  "name": "id",
                  "type": "address"
                },
                {
                  "internalType": "string",
                  "name": "primerNombre",
                  "type": "string"
                },
                {
                  "internalType": "string",
                  "name": "segundoNombre",
                  "type": "string"
                },
                {
                  "internalType": "string",
                  "name": "primerApellido",
                  "type": "string"
                },
                {
                  "internalType": "string",
                  "name": "segundoApellido",
                  "type": "string"
                },
                {
                  "internalType": "string",
                  "name": "identificacion",
                  "type": "string"
                },
                {
                  "internalType": "uint256",
                  "name": "tipoIdentificacion",
                  "type": "uint256"
                },
                {
                  "internalType": "bool",
                  "name": "isValue",
                  "type": "bool"
                }
              ],
              "internalType": "struct Persona.PersonaStruct",
              "name": "persona",
              "type": "tuple"
            },
            {
              "components": [
                {
                  "internalType": "uint256",
                  "name": "sexoId",
                  "type": "uint256"
                },
                {
                  "internalType": "uint256",
                  "name": "estadoCivilId",
                  "type": "uint256"
                },
                {
                  "internalType": "uint256",
                  "name": "fechaNacimiento",
                  "type": "uint256"
                },
                {
                  "internalType": "uint256",
                  "name": "edad",
                  "type": "uint256"
                },
                {
                  "internalType": "string",
                  "name": "ciudadResidencia",
                  "type": "string"
                },
                {
                  "internalType": "string",
                  "name": "ocupacion",
                  "type": "string"
                },
                {
                  "internalType": "string",
                  "name": "direccion",
                  "type": "string"
                },
                {
                  "internalType": "string",
                  "name": "telefono",
                  "type": "string"
                },
                {
                  "internalType": "uint256",
                  "name": "aseguradoraId",
                  "type": "uint256"
                },
                {
                  "internalType": "uint256",
                  "name": "tipoVinculacionId",
                  "type": "uint256"
                },
                {
                  "internalType": "uint256",
                  "name": "acudienteId",
                  "type": "uint256"
                }
              ],
              "internalType": "struct DatosPersonalesStruct",
              "name": "datosPersonales",
              "type": "tuple"
            },
            {
              "internalType": "uint256",
              "name": "estadoId",
              "type": "uint256"
            }
          ],
          "internalType": "struct PacienteVO.PacienteVOStruct",
          "name": "",
          "type": "tuple"
        }
      ],
      "stateMutability": "nonpayable",
      "type": "function"
    },
    {
      "inputs": [
        {
          "internalType": "address",
          "name": "direccion",
          "type": "address"
        }
      ],
      "name": "consultar",
      "outputs": [
        {
          "components": [
            {
              "components": [
                {
                  "internalType": "address",
                  "name": "id",
                  "type": "address"
                },
                {
                  "internalType": "string",
                  "name": "primerNombre",
                  "type": "string"
                },
                {
                  "internalType": "string",
                  "name": "segundoNombre",
                  "type": "string"
                },
                {
                  "internalType": "string",
                  "name": "primerApellido",
                  "type": "string"
                },
                {
                  "internalType": "string",
                  "name": "segundoApellido",
                  "type": "string"
                },
                {
                  "internalType": "string",
                  "name": "identificacion",
                  "type": "string"
                },
                {
                  "internalType": "uint256",
                  "name": "tipoIdentificacion",
                  "type": "uint256"
                },
                {
                  "internalType": "bool",
                  "name": "isValue",
                  "type": "bool"
                }
              ],
              "internalType": "struct Persona.PersonaStruct",
              "name": "persona",
              "type": "tuple"
            },
            {
              "components": [
                {
                  "internalType": "uint256",
                  "name": "sexoId",
                  "type": "uint256"
                },
                {
                  "internalType": "uint256",
                  "name": "estadoCivilId",
                  "type": "uint256"
                },
                {
                  "internalType": "uint256",
                  "name": "fechaNacimiento",
                  "type": "uint256"
                },
                {
                  "internalType": "uint256",
                  "name": "edad",
                  "type": "uint256"
                },
                {
                  "internalType": "string",
                  "name": "ciudadResidencia",
                  "type": "string"
                },
                {
                  "internalType": "string",
                  "name": "ocupacion",
                  "type": "string"
                },
                {
                  "internalType": "string",
                  "name": "direccion",
                  "type": "string"
                },
                {
                  "internalType": "string",
                  "name": "telefono",
                  "type": "string"
                },
                {
                  "internalType": "uint256",
                  "name": "aseguradoraId",
                  "type": "uint256"
                },
                {
                  "internalType": "uint256",
                  "name": "tipoVinculacionId",
                  "type": "uint256"
                },
                {
                  "internalType": "uint256",
                  "name": "acudienteId",
                  "type": "uint256"
                }
              ],
              "internalType": "struct DatosPersonalesStruct",
              "name": "datosPersonales",
              "type": "tuple"
            },
            {
              "internalType": "uint256",
              "name": "estadoId",
              "type": "uint256"
            }
          ],
          "internalType": "struct PacienteVO.PacienteVOStruct",
          "name": "",
          "type": "tuple"
        }
      ],
      "stateMutability": "nonpayable",
      "type": "function"
    },
    {
      "inputs": [
        {
          "internalType": "address",
          "name": "direccion",
          "type": "address"
        },
        {
          "internalType": "contract PacienteVO",
          "name": "paciente",
          "type": "address"
        }
      ],
      "name": "registrar",
      "outputs": [],
      "stateMutability": "nonpayable",
      "type": "function"
    },
    {
      "inputs": [
        {
          "internalType": "address",
          "name": "direccion",
          "type": "address"
        },
        {
          "components": [
            {
              "components": [
                {
                  "internalType": "address",
                  "name": "id",
                  "type": "address"
                },
                {
                  "internalType": "string",
                  "name": "primerNombre",
                  "type": "string"
                },
                {
                  "internalType": "string",
                  "name": "segundoNombre",
                  "type": "string"
                },
                {
                  "internalType": "string",
                  "name": "primerApellido",
                  "type": "string"
                },
                {
                  "internalType": "string",
                  "name": "segundoApellido",
                  "type": "string"
                },
                {
                  "internalType": "string",
                  "name": "identificacion",
                  "type": "string"
                },
                {
                  "internalType": "uint256",
                  "name": "tipoIdentificacion",
                  "type": "uint256"
                },
                {
                  "internalType": "bool",
                  "name": "isValue",
                  "type": "bool"
                }
              ],
              "internalType": "struct Persona.PersonaStruct",
              "name": "persona",
              "type": "tuple"
            },
            {
              "components": [
                {
                  "internalType": "uint256",
                  "name": "sexoId",
                  "type": "uint256"
                },
                {
                  "internalType": "uint256",
                  "name": "estadoCivilId",
                  "type": "uint256"
                },
                {
                  "internalType": "uint256",
                  "name": "fechaNacimiento",
                  "type": "uint256"
                },
                {
                  "internalType": "uint256",
                  "name": "edad",
                  "type": "uint256"
                },
                {
                  "internalType": "string",
                  "name": "ciudadResidencia",
                  "type": "string"
                },
                {
                  "internalType": "string",
                  "name": "ocupacion",
                  "type": "string"
                },
                {
                  "internalType": "string",
                  "name": "direccion",
                  "type": "string"
                },
                {
                  "internalType": "string",
                  "name": "telefono",
                  "type": "string"
                },
                {
                  "internalType": "uint256",
                  "name": "aseguradoraId",
                  "type": "uint256"
                },
                {
                  "internalType": "uint256",
                  "name": "tipoVinculacionId",
                  "type": "uint256"
                },
                {
                  "internalType": "uint256",
                  "name": "acudienteId",
                  "type": "uint256"
                }
              ],
              "internalType": "struct DatosPersonalesStruct",
              "name": "datosPersonales",
              "type": "tuple"
            },
            {
              "internalType": "uint256",
              "name": "estadoId",
              "type": "uint256"
            }
          ],
          "internalType": "struct PacienteVO.PacienteVOStruct",
          "name": "pacienteVOStruct",
          "type": "tuple"
        }
      ],
      "name": "registrarConStruct",
      "outputs": [],
      "stateMutability": "nonpayable",
      "type": "function"
    },
    {
      "inputs": [
        {
          "internalType": "contract PacienteVO",
          "name": "paciente",
          "type": "address"
        }
      ],
      "name": "actualizar",
      "outputs": [],
      "stateMutability": "nonpayable",
      "type": "function"
    },
    {
      "inputs": [
        {
          "internalType": "address",
          "name": "_direccion",
          "type": "address"
        },
        {
          "internalType": "contract EstadoVO",
          "name": "_estado",
          "type": "address"
        }
      ],
      "name": "cambiarEstado",
      "outputs": [],
      "stateMutability": "nonpayable",
      "type": "function"
    },
    {
      "inputs": [
        {
          "internalType": "contract PacienteMapperInterface",
          "name": "_pacienteMapperAddress",
          "type": "address"
        }
      ],
      "name": "setPacienteMapper",
      "outputs": [],
      "stateMutability": "nonpayable",
      "type": "function"
    },
    {
      "inputs": [
        {
          "internalType": "contract RolMapperInterface",
          "name": "_rolMapperAddress",
          "type": "address"
        }
      ],
      "name": "setRolMapper",
      "outputs": [],
      "stateMutability": "nonpayable",
      "type": "function"
    },
    {
      "inputs": [
        {
          "internalType": "contract UsuarioMapperInterface",
          "name": "_usuarioMapperAddress",
          "type": "address"
        }
      ],
      "name": "setUsuarioMapper",
      "outputs": [],
      "stateMutability": "nonpayable",
      "type": "function"
    },
    {
      "inputs": [
        {
          "internalType": "contract DatosParametricosMapperInterface",
          "name": "_datosParametricosMapperAddress",
          "type": "address"
        }
      ],
      "name": "setdatosParametricosMapper",
      "outputs": [],
      "stateMutability": "nonpayable",
      "type": "function"
    },
    {
      "inputs": [
        {
          "internalType": "contract Acceso",
          "name": "_accesoAddress",
          "type": "address"
        }
      ],
      "name": "setAcceso",
      "outputs": [],
      "stateMutability": "nonpayable",
      "type": "function"
    },
    {
      "inputs": [],
      "name": "selfDestruct",
      "outputs": [],
      "stateMutability": "nonpayable",
      "type": "function"
    }
  ],
  "bytecode": "0x6080604052600060065534801561001557600080fd5b50600080546001600160a01b03191633179055613ee3806100376000396000f3fe608060405234801561001057600080fd5b50600436106100df5760003560e01c806378775d321161008c5780639cb8a26a116100665780639cb8a26a146101b45780639fa09ef4146101bc578063b0aaed66146101cf578063c75250d0146101e257600080fd5b806378775d32146101635780637da8f6a51461017657806392ebdcd21461018957600080fd5b8063596e15e6116100bd578063596e15e61461011f57806370f05f9714610132578063731188e71461015057600080fd5b806307b37d1d146100e4578063137d4722146100f95780631d1837601461010c575b600080fd5b6100f76100f23660046113e3565b6101f5565b005b6100f761010736600461141c565b610565565b6100f761011a36600461141c565b610611565b6100f761012d36600461141c565b6106bd565b61013a610769565b6040516101479190611659565b60405180910390f35b6100f761015e36600461141c565b6109a2565b6100f761017136600461141c565b610ad6565b61013a61018436600461141c565b610b82565b60005461019c906001600160a01b031681565b6040516001600160a01b039091168152602001610147565b6100f7610d98565b6100f76101ca3660046113e3565b610e30565b6100f76101dd36600461141c565b611053565b6100f76101f03660046118d9565b6110ff565b6001600160a01b03821633146102785760405162461bcd60e51b815260206004820152602860248201527f556e2070616369656e746520736520646562652072656769737472617220612060448201527f7369206d69736d6f00000000000000000000000000000000000000000000000060648201526084015b60405180910390fd5b6002546006546040517fb10b65ce00000000000000000000000000000000000000000000000000000000815260048101919091526000916001600160a01b03169063b10b65ce906024016020604051808303816000875af11580156102e1573d6000803e3d6000fd5b505050506040513d601f19601f820116820180604052508101906103059190611a72565b90506000604051610315906112d4565b604051809103906000f080158015610331573d6000803e3d6000fd5b506040517f5745ab980000000000000000000000000000000000000000000000000000000081526001600160a01b03868116600483015291925090821690635745ab9890602401600060405180830381600087803b15801561039257600080fd5b505af11580156103a6573d6000803e3d6000fd5b50506040517fce8dd29f0000000000000000000000000000000000000000000000000000000081526001600160a01b0385811660048301528416925063ce8dd29f9150602401600060405180830381600087803b15801561040657600080fd5b505af115801561041a573d6000803e3d6000fd5b50506040517ffdaef483000000000000000000000000000000000000000000000000000000008152600160048201526001600160a01b038416925063fdaef4839150602401600060405180830381600087803b15801561047957600080fd5b505af115801561048d573d6000803e3d6000fd5b505060035460405163be381c5960e01b81526001600160a01b0388811660048301528581166024830152909116925063be381c599150604401600060405180830381600087803b1580156104e057600080fd5b505af11580156104f4573d6000803e3d6000fd5b505060015460405163be381c5960e01b81526001600160a01b0388811660048301528781166024830152909116925063be381c599150604401600060405180830381600087803b15801561054757600080fd5b505af115801561055b573d6000803e3d6000fd5b5050505050505050565b6000546001600160a01b031633146105ef5760405162461bcd60e51b815260206004820152604160248201527f457374612066756e63696f6e20736f6c6f2070756564652073657220656a656360448201527f757461646120706f7220656c2063726561646f722064656c20636f6e747261746064820152606f60f81b608482015260a40161026f565b600580546001600160a01b0319166001600160a01b0392909216919091179055565b6000546001600160a01b0316331461069b5760405162461bcd60e51b815260206004820152604160248201527f457374612066756e63696f6e20736f6c6f2070756564652073657220656a656360448201527f757461646120706f7220656c2063726561646f722064656c20636f6e747261746064820152606f60f81b608482015260a40161026f565b600180546001600160a01b0319166001600160a01b0392909216919091179055565b6000546001600160a01b031633146107475760405162461bcd60e51b815260206004820152604160248201527f457374612066756e63696f6e20736f6c6f2070756564652073657220656a656360448201527f757461646120706f7220656c2063726561646f722064656c20636f6e747261746064820152606f60f81b608482015260a40161026f565b600380546001600160a01b0319166001600160a01b0392909216919091179055565b6107716112e1565b6005546040516336a664e960e11b8152336004820152600260248201819052916000916001600160a01b0390911690636d4cc9d2906044016020604051808303816000875af11580156107c8573d6000803e3d6000fd5b505050506040513d601f19601f820116820180604052508101906107ec9190611a9a565b90508061083b5760405162461bcd60e51b815260206004820152601a60248201527f456c207573756172696f206e6f207469656e652061636365736f000000000000604482015260640161026f565b7fcf34ef537ac33ee1ac626ca1587a0a7e8e51561e5514f8cb36afa1c5102b3bab6040516108c09060208082526028908201527f456e74726f206120636f6e73756c746172206d69496e666f726d6163696f6e2060408201527f70616369656e7465000000000000000000000000000000000000000000000000606082015260800190565b60405180910390a1600154604051637da8f6a560e01b81523360048201526001600160a01b0390911690637da8f6a5906024016020604051808303816000875af1158015610912573d6000803e3d6000fd5b505050506040513d601f19601f820116820180604052508101906109369190611a72565b6001600160a01b03166359d1cfd66040518163ffffffff1660e01b8152600401600060405180830381865afa158015610973573d6000803e3d6000fd5b505050506040513d6000823e601f3d908101601f1916820160405261099b9190810190611c0c565b9250505090565b6005546040516336a664e960e11b8152336004820152600360248201819052916000916001600160a01b0390911690636d4cc9d2906044016020604051808303816000875af11580156109f9573d6000803e3d6000fd5b505050506040513d601f19601f82011682018060405250810190610a1d9190611a9a565b905080610a6c5760405162461bcd60e51b815260206004820152601a60248201527f456c207573756172696f206e6f207469656e652061636365736f000000000000604482015260640161026f565b600154604051630da7d7a560e01b81523360048201526001600160a01b03858116602483015290911690630da7d7a590604401600060405180830381600087803b158015610ab957600080fd5b505af1158015610acd573d6000803e3d6000fd5b50505050505050565b6000546001600160a01b03163314610b605760405162461bcd60e51b815260206004820152604160248201527f457374612066756e63696f6e20736f6c6f2070756564652073657220656a656360448201527f757461646120706f7220656c2063726561646f722064656c20636f6e747261746064820152606f60f81b608482015260a40161026f565b600280546001600160a01b0319166001600160a01b0392909216919091179055565b610b8a6112e1565b6005546040516336a664e960e11b8152336004820152600160248201819052916000916001600160a01b0390911690636d4cc9d2906044016020604051808303816000875af1158015610be1573d6000803e3d6000fd5b505050506040513d601f19601f82011682018060405250810190610c059190611a9a565b905080610c545760405162461bcd60e51b815260206004820152601a60248201527f456c207573756172696f206e6f207469656e652061636365736f000000000000604482015260640161026f565b7fcf34ef537ac33ee1ac626ca1587a0a7e8e51561e5514f8cb36afa1c5102b3bab604051610cb3906020808252601a908201527f456e74726f206120636f6e73756c7461722050616369656e7465000000000000604082015260600190565b60405180910390a1600154604051637da8f6a560e01b81526001600160a01b03868116600483015290911690637da8f6a5906024016020604051808303816000875af1158015610d07573d6000803e3d6000fd5b505050506040513d601f19601f82011682018060405250810190610d2b9190611a72565b6001600160a01b03166359d1cfd66040518163ffffffff1660e01b8152600401600060405180830381865afa158015610d68573d6000803e3d6000fd5b505050506040513d6000823e601f3d908101601f19168201604052610d909190810190611c0c565b949350505050565b6000546001600160a01b03163314610e225760405162461bcd60e51b815260206004820152604160248201527f457374612066756e63696f6e20736f6c6f2070756564652073657220656a656360448201527f757461646120706f7220656c2063726561646f722064656c20636f6e747261746064820152606f60f81b608482015260a40161026f565b6000546001600160a01b0316ff5b6005546040516336a664e960e11b81523360048083019190915260248201819052916000916001600160a01b0390911690636d4cc9d2906044016020604051808303816000875af1158015610e89573d6000803e3d6000fd5b505050506040513d601f19601f82011682018060405250810190610ead9190611a9a565b905080610efc5760405162461bcd60e51b815260206004820152601a60248201527f456c207573756172696f206e6f207469656e652061636365736f000000000000604482015260640161026f565b600154604051637da8f6a560e01b81526001600160a01b0386811660048301526000921690637da8f6a5906024016020604051808303816000875af1158015610f49573d6000803e3d6000fd5b505050506040513d601f19601f82011682018060405250810190610f6d9190611a72565b6040517fef974e800000000000000000000000000000000000000000000000000000000081526001600160a01b0386811660048301529192509082169063ef974e8090602401600060405180830381600087803b158015610fcd57600080fd5b505af1158015610fe1573d6000803e3d6000fd5b5050600154604051630da7d7a560e01b81526001600160a01b03898116600483015285811660248301529091169250630da7d7a59150604401600060405180830381600087803b15801561103457600080fd5b505af1158015611048573d6000803e3d6000fd5b505050505050505050565b6000546001600160a01b031633146110dd5760405162461bcd60e51b815260206004820152604160248201527f457374612066756e63696f6e20736f6c6f2070756564652073657220656a656360448201527f757461646120706f7220656c2063726561646f722064656c20636f6e747261746064820152606f60f81b608482015260a40161026f565b600480546001600160a01b0319166001600160a01b0392909216919091179055565b600060405161110d906113ae565b604051809103906000f080158015611129573d6000803e3d6000fd5b506004805460408581015190517f480c42a0000000000000000000000000000000000000000000000000000000008152928301529192506000916001600160a01b03169063480c42a090602401602060405180830381865afa158015611193573d6000803e3d6000fd5b505050506040513d601f19601f820116820180604052508101906111b79190611a72565b60048054855160c001516040517f1dbaf403000000000000000000000000000000000000000000000000000000008152928301529192506000916001600160a01b031690631dbaf40390602401602060405180830381865afa158015611221573d6000803e3d6000fd5b505050506040513d601f19601f820116820180604052508101906112459190611a72565b6040517f0b4a2b400000000000000000000000000000000000000000000000000000000081529091506001600160a01b03841690630b4a2b409061129190879086908690600401611d93565b600060405180830381600087803b1580156112ab57600080fd5b505af11580156112bf573d6000803e3d6000fd5b505050506112cd85846101f5565b5050505050565b6105b380611dc783390190565b604051806060016040528061133f60405180610100016040528060006001600160a01b031681526020016060815260200160608152602001606081526020016060815260200160608152602001600081526020016000151581525090565b81526020016113a160405180610160016040528060008152602001600081526020016000815260200160008152602001606081526020016060815260200160608152602001606081526020016000815260200160008152602001600081525090565b8152602001600081525090565b611b348061237a83390190565b6001600160a01b03811681146113d057600080fd5b50565b80356113de816113bb565b919050565b600080604083850312156113f657600080fd5b8235611401816113bb565b91506020830135611411816113bb565b809150509250929050565b60006020828403121561142e57600080fd5b8135611439816113bb565b9392505050565b60005b8381101561145b578181015183820152602001611443565b8381111561146a576000848401525b50505050565b60008151808452611488816020860160208601611440565b601f01601f19169290920160200192915050565b60006101608251845260208301516020850152604083015160408501526060830151606085015260808301518160808601526114da82860182611470565b91505060a083015184820360a08601526114f48282611470565b91505060c083015184820360c086015261150e8282611470565b91505060e083015184820360e08601526115288282611470565b61010085810151908701526101208086015190870152610140948501519490950193909352509192915050565b60008151606084526115736060850182516001600160a01b03169052565b602081015161010080608087015261158f610160870183611470565b91506040830151605f19808885030160a08901526115ad8483611470565b935060608501519150808885030160c08901526115ca8483611470565b935060808501519150808885030160e08901526115e78483611470565b935060a08501519150808885030183890152506116048382611470565b9250505060c082015161012086015260e0820151915061162961014086018315159052565b602084015191508481036020860152611642818361149c565b915050604083015160408501528091505092915050565b6020815260006114396020830184611555565b7f4e487b7100000000000000000000000000000000000000000000000000000000600052604160045260246000fd5b604051610160810167ffffffffffffffff811182821017156116bf576116bf61166c565b60405290565b6040516060810167ffffffffffffffff811182821017156116bf576116bf61166c565b604051610100810167ffffffffffffffff811182821017156116bf576116bf61166c565b604051601f8201601f1916810167ffffffffffffffff811182821017156117355761173561166c565b604052919050565b600067ffffffffffffffff8211156117575761175761166c565b50601f01601f191660200190565b600082601f83011261177657600080fd5b81356117896117848261173d565b61170c565b81815284602083860101111561179e57600080fd5b816020850160208301376000918101602001919091529392505050565b80151581146113d057600080fd5b80356113de816117bb565b600061016082840312156117e757600080fd5b6117ef61169b565b905081358152602082013560208201526040820135604082015260608201356060820152608082013567ffffffffffffffff8082111561182e57600080fd5b61183a85838601611765565b608084015260a084013591508082111561185357600080fd5b61185f85838601611765565b60a084015260c084013591508082111561187857600080fd5b61188485838601611765565b60c084015260e084013591508082111561189d57600080fd5b506118aa84828501611765565b60e083015250610100828101359082015261012080830135908201526101409182013591810191909152919050565b600080604083850312156118ec57600080fd5b82356118f7816113bb565b9150602083013567ffffffffffffffff8082111561191457600080fd5b908401906060828703121561192857600080fd5b6119306116c5565b82358281111561193f57600080fd5b8301610100818903121561195257600080fd5b61195a6116e8565b611963826113d3565b815260208201358481111561197757600080fd5b6119838a828501611765565b60208301525060408201358481111561199b57600080fd5b6119a78a828501611765565b6040830152506060820135848111156119bf57600080fd5b6119cb8a828501611765565b6060830152506080820135848111156119e357600080fd5b6119ef8a828501611765565b60808301525060a082013584811115611a0757600080fd5b611a138a828501611765565b60a08301525060c082013560c0820152611a2f60e083016117c9565b60e0820152825250602083013582811115611a4957600080fd5b611a55888286016117d4565b602083015250604083013560408201528093505050509250929050565b600060208284031215611a8457600080fd5b8151611439816113bb565b80516113de816117bb565b600060208284031215611aac57600080fd5b8151611439816117bb565b80516113de816113bb565b600082601f830112611ad357600080fd5b8151611ae16117848261173d565b818152846020838601011115611af657600080fd5b610d90826020830160208701611440565b60006101608284031215611b1a57600080fd5b611b2261169b565b905081518152602082015160208201526040820151604082015260608201516060820152608082015167ffffffffffffffff80821115611b6157600080fd5b611b6d85838601611ac2565b608084015260a0840151915080821115611b8657600080fd5b611b9285838601611ac2565b60a084015260c0840151915080821115611bab57600080fd5b611bb785838601611ac2565b60c084015260e0840151915080821115611bd057600080fd5b50611bdd84828501611ac2565b60e083015250610100828101519082015261012080830151908201526101409182015191810191909152919050565b600060208284031215611c1e57600080fd5b815167ffffffffffffffff80821115611c3657600080fd5b9083019060608286031215611c4a57600080fd5b611c526116c5565b825182811115611c6157600080fd5b83016101008188031215611c7457600080fd5b611c7c6116e8565b611c8582611ab7565b8152602082015184811115611c9957600080fd5b611ca589828501611ac2565b602083015250604082015184811115611cbd57600080fd5b611cc989828501611ac2565b604083015250606082015184811115611ce157600080fd5b611ced89828501611ac2565b606083015250608082015184811115611d0557600080fd5b611d1189828501611ac2565b60808301525060a082015184811115611d2957600080fd5b611d3589828501611ac2565b60a08301525060c082015160c0820152611d5160e08301611a8f565b60e0820152825250602083015182811115611d6b57600080fd5b611d7787828601611b07565b6020830152506040830151604082015280935050505092915050565b606081526000611da66060830186611555565b6001600160a01b039485166020840152929093166040909101529291505056fe608060405234801561001057600080fd5b50610593806100206000396000f3fe608060405234801561001057600080fd5b506004361061007d5760003560e01c8063af9958461161005b578063af99584614610100578063c3e00aff1461011d578063ce8dd29f1461012e578063fdaef4831461016b57600080fd5b80635745ab981461008257806360749724146100c157806364ff6bbe146100eb575b600080fd5b6100bf6100903660046102d9565b6000805473ffffffffffffffffffffffffffffffffffffffff19166001600160a01b0392909216919091179055565b005b6000546001600160a01b03165b6040516001600160a01b0390911681526020015b60405180910390f35b6100f36101b2565b6040516100e29190610359565b600154600160a01b900460ff1660405190151581526020016100e2565b6001546001600160a01b03166100ce565b6100bf61013c3660046102d9565b6001805473ffffffffffffffffffffffffffffffffffffffff19166001600160a01b0392909216919091179055565b6100bf6101793660046103d3565b60018054911515600160a01b027fffffffffffffffffffffff00ffffffffffffffffffffffffffffffffffffffff909216919091179055565b6101ba610275565b60408051606081018252600080546001600160a01b03908116835260015484517fea1a6f29000000000000000000000000000000000000000000000000000000008152945193946020860194919092169263ea1a6f2992600480820193918290030181865afa158015610231573d6000803e3d6000fd5b505050506040513d6000823e601f3d908101601f1916820160405261025991908101906104ac565b8152600154600160a01b900460ff161515602090910152919050565b604051806060016040528060006001600160a01b031681526020016102b460405180606001604052806000815260200160608152602001606081525090565b8152600060209091015290565b6001600160a01b03811681146102d657600080fd5b50565b6000602082840312156102eb57600080fd5b81356102f6816102c1565b9392505050565b60005b83811015610318578181015183820152602001610300565b83811115610327576000848401525b50505050565b600081518084526103458160208601602086016102fd565b601f01601f19169290920160200192915050565b602081526001600160a01b0382511660208201526000602083015160606040840152805160808401526020810151606060a085015261039b60e085018261032d565b905060408201519150607f198482030160c08501526103ba818361032d565b9150506040840151151560608401528091505092915050565b6000602082840312156103e557600080fd5b813580151581146102f657600080fd5b7f4e487b7100000000000000000000000000000000000000000000000000000000600052604160045260246000fd5b600082601f83011261043557600080fd5b815167ffffffffffffffff80821115610450576104506103f5565b604051601f8301601f19908116603f01168101908282118183101715610478576104786103f5565b8160405283815286602085880101111561049157600080fd5b6104a28460208301602089016102fd565b9695505050505050565b6000602082840312156104be57600080fd5b815167ffffffffffffffff808211156104d657600080fd5b90830190606082860312156104ea57600080fd5b604051606081018181108382111715610505576105056103f5565b6040528251815260208301518281111561051e57600080fd5b61052a87828601610424565b60208301525060408301518281111561054257600080fd5b61054e87828601610424565b6040830152509594505050505056fea2646970667358221220ef3b78fac8f343fdc37ebaffbf94c57c3072f2bcbba4957ca82190b2fc6e191d64736f6c634300080b0033608060405234801561001057600080fd5b50611b14806100206000396000f3fe608060405234801561001057600080fd5b50600436106101985760003560e01c80637d5c3032116100e3578063b750a1f41161008c578063d1e360ff11610066578063d1e360ff14610387578063eacd3b93146103b7578063ef974e80146103bf57600080fd5b8063b750a1f414610359578063c461d52e1461036c578063cc9f930e1461037457600080fd5b806399355ed8116100bd57806399355ed8146103365780639ac9abd014610349578063b2f9ccbb1461035157600080fd5b80637d5c3032146102fd57806383cb77b0146103125780638ba686071461032557600080fd5b80634e8c23ca116101455780635d1ca6311161011f5780635d1ca631146102805780636d07d7e3146102a557806378c7e292146102b657600080fd5b80634e8c23ca14610245578063551a5cfa1461025857806359d1cfd61461026b57600080fd5b80632cb41958116101765780632cb41958146101e35780633c3c069f146102135780633ca452b91461023057600080fd5b806303c5e52a1461019d5780630b4a2b40146101bb57806328fd4873146101d0575b600080fd5b6101a56103ef565b6040516101b2919061142b565b60405180910390f35b6101ce6101c93660046117a1565b6106e8565b005b6101ce6101de36600461185f565b6107cd565b6101ce6101f136600461189c565b600080546001600160a01b0319166001600160a01b0392909216919091179055565b600654600160a01b900460ff1660405190151581526020016101b2565b6102386107e4565b6040516101b291906118b9565b6101ce61025336600461185f565b610876565b6101ce61026636600461185f565b610889565b61027361089c565b6040516101b29190611985565b6000546001600160a01b03165b6040516001600160a01b0390911681526020016101b2565b6007546001600160a01b031661028d565b6101ce6102c43660046119d5565b60068054911515600160a01b027fffffffffffffffffffffff00ffffffffffffffffffffffffffffffffffffffff909216919091179055565b610305610bdb565b6040516101b291906119f0565b6101ce61032036600461185f565b610fb1565b6006546001600160a01b031661028d565b6101ce610344366004611a03565b610fc4565b610238611078565b610238611087565b6101ce610367366004611a38565b611096565b61023861118e565b6101ce61038236600461185f565b61119d565b6101ce61039536600461189c565b600680546001600160a01b0319166001600160a01b0392909216919091179055565b6102386111b0565b6101ce6103cd36600461189c565b600780546001600160a01b0319166001600160a01b0392909216919091179055565b61044c60405180610160016040528060008152602001600081526020016000815260200160008152602001606081526020016060815260200160608152602001606081526020016000815260200160008152602001600081525090565b60408051610160810182526008805482526009546020830152600a5492820192909252600b546060820152600c805491929160808401919061048d90611a8a565b80601f01602080910402602001604051908101604052809291908181526020018280546104b990611a8a565b80156105065780601f106104db57610100808354040283529160200191610506565b820191906000526020600020905b8154815290600101906020018083116104e957829003601f168201915b5050505050815260200160058201805461051f90611a8a565b80601f016020809104026020016040519081016040528092919081815260200182805461054b90611a8a565b80156105985780601f1061056d57610100808354040283529160200191610598565b820191906000526020600020905b81548152906001019060200180831161057b57829003601f168201915b505050505081526020016006820180546105b190611a8a565b80601f01602080910402602001604051908101604052809291908181526020018280546105dd90611a8a565b801561062a5780601f106105ff5761010080835404028352916020019161062a565b820191906000526020600020905b81548152906001019060200180831161060d57829003601f168201915b5050505050815260200160078201805461064390611a8a565b80601f016020809104026020016040519081016040528092919081815260200182805461066f90611a8a565b80156106bc5780601f10610691576101008083540402835291602001916106bc565b820191906000526020600020905b81548152906001019060200180831161069f57829003601f168201915b505050505081526020016008820154815260200160098201548152602001600a82015481525050905090565b82516106f49082611096565b60208084015180516008908155818301516009556040820151600a556060820151600b55608082015180519293919261073192600c9201906111bf565b5060a0820151805161074d9160058401916020909101906111bf565b5060c082015180516107699160068401916020909101906111bf565b5060e082015180516107859160078401916020909101906111bf565b506101008201516008820155610120820151600982015561014090910151600a9091015550600780546001600160a01b0319166001600160a01b039290921691909117905550565b80516107e09060059060208401906111bf565b5050565b6060600180546107f390611a8a565b80601f016020809104026020016040519081016040528092919081815260200182805461081f90611a8a565b801561086c5780601f106108415761010080835404028352916020019161086c565b820191906000526020600020905b81548152906001019060200180831161084f57829003601f168201915b5050505050905090565b80516107e09060049060208401906111bf565b80516107e09060029060208401906111bf565b6108a4611243565b60405180606001604052806108b7610bdb565b81526020016008604051806101600160405290816000820154815260200160018201548152602001600282015481526020016003820154815260200160048201805461090290611a8a565b80601f016020809104026020016040519081016040528092919081815260200182805461092e90611a8a565b801561097b5780601f106109505761010080835404028352916020019161097b565b820191906000526020600020905b81548152906001019060200180831161095e57829003601f168201915b5050505050815260200160058201805461099490611a8a565b80601f01602080910402602001604051908101604052809291908181526020018280546109c090611a8a565b8015610a0d5780601f106109e257610100808354040283529160200191610a0d565b820191906000526020600020905b8154815290600101906020018083116109f057829003601f168201915b50505050508152602001600682018054610a2690611a8a565b80601f0160208091040260200160405190810160405280929190818152602001828054610a5290611a8a565b8015610a9f5780601f10610a7457610100808354040283529160200191610a9f565b820191906000526020600020905b815481529060010190602001808311610a8257829003601f168201915b50505050508152602001600782018054610ab890611a8a565b80601f0160208091040260200160405190810160405280929190818152602001828054610ae490611a8a565b8015610b315780601f10610b0657610100808354040283529160200191610b31565b820191906000526020600020905b815481529060010190602001808311610b1457829003601f168201915b505050505081526020016008820154815260200160098201548152602001600a820154815250508152602001600760009054906101000a90046001600160a01b03166001600160a01b0316635d1ca6316040518163ffffffff1660e01b8152600401602060405180830381865afa158015610bb0573d6000803e3d6000fd5b505050506040513d601f19601f82011682018060405250810190610bd49190611ac5565b9052919050565b610c2e60405180610100016040528060006001600160a01b031681526020016060815260200160608152602001606081526020016060815260200160608152602001600081526020016000151581525090565b6040805161010081019091526000546001600160a01b0316815260018054602083019190610c5b90611a8a565b80601f0160208091040260200160405190810160405280929190818152602001828054610c8790611a8a565b8015610cd45780601f10610ca957610100808354040283529160200191610cd4565b820191906000526020600020905b815481529060010190602001808311610cb757829003601f168201915b5050505050815260200160028054610ceb90611a8a565b80601f0160208091040260200160405190810160405280929190818152602001828054610d1790611a8a565b8015610d645780601f10610d3957610100808354040283529160200191610d64565b820191906000526020600020905b815481529060010190602001808311610d4757829003601f168201915b5050505050815260200160038054610d7b90611a8a565b80601f0160208091040260200160405190810160405280929190818152602001828054610da790611a8a565b8015610df45780601f10610dc957610100808354040283529160200191610df4565b820191906000526020600020905b815481529060010190602001808311610dd757829003601f168201915b5050505050815260200160048054610e0b90611a8a565b80601f0160208091040260200160405190810160405280929190818152602001828054610e3790611a8a565b8015610e845780601f10610e5957610100808354040283529160200191610e84565b820191906000526020600020905b815481529060010190602001808311610e6757829003601f168201915b5050505050815260200160058054610e9b90611a8a565b80601f0160208091040260200160405190810160405280929190818152602001828054610ec790611a8a565b8015610f145780601f10610ee957610100808354040283529160200191610f14565b820191906000526020600020905b815481529060010190602001808311610ef757829003601f168201915b50505050508152602001600660009054906101000a90046001600160a01b03166001600160a01b0316635d1ca6316040518163ffffffff1660e01b8152600401602060405180830381865afa158015610f71573d6000803e3d6000fd5b505050506040513d601f19601f82011682018060405250810190610f959190611ac5565b8152600654600160a01b900460ff161515602090910152919050565b80516107e09060019060208401906111bf565b805160089081556020808301516009556040830151600a556060830151600b5560808301518051849392610ffd92600c929101906111bf565b5060a082015180516110199160058401916020909101906111bf565b5060c082015180516110359160068401916020909101906111bf565b5060e082015180516110519160078401916020909101906111bf565b506101008201516008820155610120820151600982015561014090910151600a9091015550565b6060600580546107f390611a8a565b6060600280546107f390611a8a565b8151600080546001600160a01b0319166001600160a01b0390921691909117905560208083015180516110cd9260019201906111bf565b50604082015180516110e7916002916020909101906111bf565b5060608201518051611101916003916020909101906111bf565b506080820151805161111b916004916020909101906111bf565b5060a08201518051611135916005916020909101906111bf565b5060e090910151600680546001600160a01b039093166001600160a01b0319921515600160a01b02929092167fffffffffffffffffffffff00000000000000000000000000000000000000000090931692909217179055565b6060600380546107f390611a8a565b80516107e09060039060208401906111bf565b6060600480546107f390611a8a565b8280546111cb90611a8a565b90600052602060002090601f0160209004810192826111ed5760008555611233565b82601f1061120657805160ff1916838001178555611233565b82800160010185558215611233579182015b82811115611233578251825591602001919060010190611218565b5061123f929150611310565b5090565b60405180606001604052806112a160405180610100016040528060006001600160a01b031681526020016060815260200160608152602001606081526020016060815260200160608152602001600081526020016000151581525090565b815260200161130360405180610160016040528060008152602001600081526020016000815260200160008152602001606081526020016060815260200160608152602001606081526020016000815260200160008152602001600081525090565b8152602001600081525090565b5b8082111561123f5760008155600101611311565b6000815180845260005b8181101561134b5760208185018101518683018201520161132f565b8181111561135d576000602083870101525b50601f01601f19169290920160200192915050565b60006101608251845260208301516020850152604083015160408501526060830151606085015260808301518160808601526113b082860182611325565b91505060a083015184820360a08601526113ca8282611325565b91505060c083015184820360c08601526113e48282611325565b91505060e083015184820360e08601526113fe8282611325565b61010085810151908701526101208086015190870152610140948501519490950193909352509192915050565b60208152600061143e6020830184611372565b9392505050565b634e487b7160e01b600052604160045260246000fd5b604051610100810167ffffffffffffffff8111828210171561147f5761147f611445565b60405290565b604051610160810167ffffffffffffffff8111828210171561147f5761147f611445565b6040516060810167ffffffffffffffff8111828210171561147f5761147f611445565b6001600160a01b03811681146114e157600080fd5b50565b80356114ef816114cc565b919050565b600082601f83011261150557600080fd5b813567ffffffffffffffff8082111561152057611520611445565b604051601f8301601f19908116603f0116810190828211818310171561154857611548611445565b8160405283815286602085880101111561156157600080fd5b836020870160208301376000602085830101528094505050505092915050565b803580151581146114ef57600080fd5b600061010082840312156115a457600080fd5b6115ac61145b565b90506115b7826114e4565b8152602082013567ffffffffffffffff808211156115d457600080fd5b6115e0858386016114f4565b602084015260408401359150808211156115f957600080fd5b611605858386016114f4565b6040840152606084013591508082111561161e57600080fd5b61162a858386016114f4565b6060840152608084013591508082111561164357600080fd5b61164f858386016114f4565b608084015260a084013591508082111561166857600080fd5b50611675848285016114f4565b60a08301525060c082013560c082015261169160e08301611581565b60e082015292915050565b600061016082840312156116af57600080fd5b6116b7611485565b905081358152602082013560208201526040820135604082015260608201356060820152608082013567ffffffffffffffff808211156116f657600080fd5b611702858386016114f4565b608084015260a084013591508082111561171b57600080fd5b611727858386016114f4565b60a084015260c084013591508082111561174057600080fd5b61174c858386016114f4565b60c084015260e084013591508082111561176557600080fd5b50611772848285016114f4565b60e083015250610100828101359082015261012080830135908201526101409182013591810191909152919050565b6000806000606084860312156117b657600080fd5b833567ffffffffffffffff808211156117ce57600080fd5b90850190606082880312156117e257600080fd5b6117ea6114a9565b8235828111156117f957600080fd5b61180589828601611591565b82525060208301358281111561181a57600080fd5b6118268982860161169c565b60208301525060408301356040820152809550505050611848602085016114e4565b9150611856604085016114e4565b90509250925092565b60006020828403121561187157600080fd5b813567ffffffffffffffff81111561188857600080fd5b611894848285016114f4565b949350505050565b6000602082840312156118ae57600080fd5b813561143e816114cc565b60208152600061143e6020830184611325565b80516001600160a01b03168252600061010060208301518160208601526118f582860182611325565b9150506040830151848203604086015261190f8282611325565b915050606083015184820360608601526119298282611325565b915050608083015184820360808601526119438282611325565b91505060a083015184820360a086015261195d8282611325565b91505060c083015160c085015260e083015161197d60e086018215159052565b509392505050565b6020815260008251606060208401526119a160808401826118cc565b90506020840151601f198483030160408501526119be8282611372565b915050604084015160608401528091505092915050565b6000602082840312156119e757600080fd5b61143e82611581565b60208152600061143e60208301846118cc565b600060208284031215611a1557600080fd5b813567ffffffffffffffff811115611a2c57600080fd5b6118948482850161169c565b60008060408385031215611a4b57600080fd5b823567ffffffffffffffff811115611a6257600080fd5b611a6e85828601611591565b9250506020830135611a7f816114cc565b809150509250929050565b600181811c90821680611a9e57607f821691505b60208210811415611abf57634e487b7160e01b600052602260045260246000fd5b50919050565b600060208284031215611ad757600080fd5b505191905056fea2646970667358221220c5c6a1c9169c4a7e349057ba6114670dd6e81176920c22e4b642082949b367ad64736f6c634300080b0033a264697066735822122017e523c1cdf4d37da674ab7424cb6b46393a8e34b94be3a1839099cb3e5268d864736f6c634300080b0033",
  "immutableReferences": {},
  "source": "// SPDX-License-Identifier: MIT\npragma solidity ^0.8.10;\n\n//import \"./Persona.sol\";\nimport \"../models/PacienteVO.sol\";\nimport \"../persistence/PacienteMapper.sol\";\nimport \"./Acceso.sol\";\nimport \"../persistence/DatosParametricosMapper.sol\";\nimport \"../persistence/DatosParametricosMapperInterface.sol\";\n\ncontract Paciente {\n    event Log(string data);\n    address public creador;\n\n    PacienteMapperInterface private pacienteMapper;\n    RolMapperInterface private rolMapper;\n    UsuarioMapperInterface private usuarioMapper;\n    DatosParametricosMapperInterface private datosParametricosMapper;\n    Acceso private acceso;\n\n    //TODO Convertir eventualmente en un enum\n    uint256 rolPacienteId = 0;\n\n    constructor() {\n        creador = msg.sender; // creador del contrato\n    }\n\n    // Puede el medico\n    function consultar(address direccion)\n        public\n        tieneAcceso(1)\n        returns (PacienteVO.PacienteVOStruct memory)\n    {\n        emit Log(\"Entro a consultar Paciente\");\n        return pacienteMapper.consultar(direccion).getPacienteVOValue();\n    }\n\n    // TODO Agregar a diagrama\n    // Solo lo puede usar el paciente\n    function consultar()\n        public\n        tieneAcceso(2)\n        returns (PacienteVO.PacienteVOStruct memory)\n    {\n        emit Log(\"Entro a consultar miInformacion paciente\");\n        return pacienteMapper.consultar(msg.sender).getPacienteVOValue();\n    }\n\n    // TODO: validar que pasa si falla el registro de persona\n    // TODO: que pasa si falla guardar paciente?\n    //tieneAcceso(2)\n    function registrar(address direccion, PacienteVO paciente) public {\n        if (direccion != msg.sender) {\n            revert(\"Un paciente se debe registrar a si mismo\");\n        }\n\n        RolVO rol = rolMapper.consultar(rolPacienteId);\n        UsuarioVO nuevoUsuario = new UsuarioVO();\n        nuevoUsuario.setDireccion(direccion);\n        nuevoUsuario.setRol(rol);\n        nuevoUsuario.setEstaActivo(true);\n        usuarioMapper.guardar(direccion, nuevoUsuario);\n        pacienteMapper.guardar(direccion, paciente);\n        // TODO Crear HC\n    }\n\n    // TODO: validar que pasa si falla el registro de persona\n    // TODO: que pasa si falla guardar paciente?\n    //tieneAcceso(2)\n    function registrarConStruct(\n        address direccion,\n        PacienteVO.PacienteVOStruct memory pacienteVOStruct\n    ) public {\n        PacienteVO pacienteVO = new PacienteVO();\n        EstadoVO estadoVO = datosParametricosMapper.consultarEstadoVO(\n            pacienteVOStruct.estadoId\n        );\n        TipoIdentificacionVO _tipoIdentificacionVO = datosParametricosMapper\n            .consultarTipoIdentificacionVO(\n                pacienteVOStruct.persona.tipoIdentificacion\n            );\n\n        pacienteVO.setValuesOfPacienteVOStruct(\n            pacienteVOStruct,\n            estadoVO,\n            _tipoIdentificacionVO\n        );\n        registrar(direccion, pacienteVO);\n    }\n\n    /*\n    // TODO: Discutir si un mdico debe actualizar al paciente (nombre y demas)\n    // TODO: Sollo se podria acceder con el acceso que da el paciente sobre su info\n    function actualizar(address direccion, PacienteVO paciente)\n        public\n        tieneAcceso(3)\n    {\n        if (direccion != msg.sender) {\n            // si alguien diferente al propietario de la historia la consulta se debe validar quien es\n            // validar quien consulta\n            revert(\"No tiene permisos de actualizar\");\n        }\n        // bloquear actualizacin de estado\n        pacienteMapper.actualizar(direccion, paciente);\n    }\n    */\n\n    function actualizar(PacienteVO paciente) public tieneAcceso(3) {\n        // bloquear actualizacin de estado\n        pacienteMapper.actualizar(msg.sender, paciente);\n    }\n\n    // TODO: poner modificador para que solo lo pueda ejecutar el service y\n    // en el service que solo lo ejecute un mdico\n    // TODO: Debe usar el permiso que da el paciente\n    function cambiarEstado(address _direccion, EstadoVO _estado)\n        public\n        tieneAcceso(4)\n    {\n        PacienteVO paciente = pacienteMapper.consultar(_direccion);\n        paciente.setEstado(_estado);\n        pacienteMapper.actualizar(_direccion, paciente);\n    }\n\n    function setPacienteMapper(PacienteMapperInterface _pacienteMapperAddress)\n        public\n        esPropietario\n    {\n        pacienteMapper = _pacienteMapperAddress;\n    }\n\n    function setRolMapper(RolMapperInterface _rolMapperAddress)\n        public\n        esPropietario\n    {\n        rolMapper = _rolMapperAddress;\n    }\n\n    function setUsuarioMapper(UsuarioMapperInterface _usuarioMapperAddress)\n        public\n        esPropietario\n    {\n        usuarioMapper = _usuarioMapperAddress;\n    }\n\n    function setdatosParametricosMapper(\n        DatosParametricosMapperInterface _datosParametricosMapperAddress\n    ) public esPropietario {\n        datosParametricosMapper = _datosParametricosMapperAddress;\n    }\n\n    function setAcceso(Acceso _accesoAddress) public esPropietario {\n        acceso = _accesoAddress;\n    }\n\n    modifier esPropietario() {\n        require(\n            msg.sender == creador,\n            \"Esta funcion solo puede ser ejecutada por el creador del contrato\"\n        );\n        _; // ac se ejecuta la funcin\n    }\n\n    function selfDestruct() public esPropietario {\n        selfdestruct(payable(creador));\n    }\n\n    modifier tieneAcceso(uint256 permisoId) {\n        bool esAccesible = acceso.validarPermisoDeRol(msg.sender, permisoId);\n        require(esAccesible, \"El usuario no tiene acceso\");\n        _; // ac se ejecuta la funcin\n    }\n}\n",
  "sourcePath": "/home/felipe/Documentos/Blockchain/codigo/back-hce/contracts/logica/Paciente.sol",
  "compiler": {
    "name": "solc",
    "version": "0.8.11+commit.d7f03943.Emscripten.clang"
  },
  "schemaVersion": "3.4.8",
  "updatedAt": "2022-07-28T03:19:37.644Z",
  "devdoc": {
    "kind": "dev",
    "methods": {},
    "version": 1
  },
  "userdoc": {
    "kind": "user",
    "methods": {},
    "version": 1
  }
}