{
  "contractName": "Paciente",
  "abi": [
    {
      "inputs": [],
      "stateMutability": "nonpayable",
      "type": "constructor"
    },
    {
      "anonymous": false,
      "inputs": [
        {
          "indexed": false,
          "internalType": "string",
          "name": "data",
          "type": "string"
        }
      ],
      "name": "Log",
      "type": "event"
    },
    {
      "inputs": [],
      "name": "accesoAddress",
      "outputs": [
        {
          "internalType": "address",
          "name": "",
          "type": "address"
        }
      ],
      "stateMutability": "view",
      "type": "function"
    },
    {
      "inputs": [],
      "name": "creador",
      "outputs": [
        {
          "internalType": "address",
          "name": "",
          "type": "address"
        }
      ],
      "stateMutability": "view",
      "type": "function"
    },
    {
      "inputs": [],
      "name": "consultar",
      "outputs": [
        {
          "internalType": "contract PacienteVO",
          "name": "",
          "type": "address"
        }
      ],
      "stateMutability": "nonpayable",
      "type": "function"
    },
    {
      "inputs": [
        {
          "internalType": "address",
          "name": "direccion",
          "type": "address"
        }
      ],
      "name": "consultar",
      "outputs": [
        {
          "internalType": "contract PacienteVO",
          "name": "",
          "type": "address"
        }
      ],
      "stateMutability": "nonpayable",
      "type": "function"
    },
    {
      "inputs": [
        {
          "internalType": "address",
          "name": "direccion",
          "type": "address"
        },
        {
          "internalType": "contract PacienteVO",
          "name": "paciente",
          "type": "address"
        }
      ],
      "name": "registrar",
      "outputs": [],
      "stateMutability": "nonpayable",
      "type": "function"
    },
    {
      "inputs": [
        {
          "internalType": "address",
          "name": "direccion",
          "type": "address"
        },
        {
          "internalType": "contract PacienteVO",
          "name": "paciente",
          "type": "address"
        }
      ],
      "name": "actualizar",
      "outputs": [],
      "stateMutability": "nonpayable",
      "type": "function"
    },
    {
      "inputs": [
        {
          "internalType": "contract PacienteVO",
          "name": "paciente",
          "type": "address"
        }
      ],
      "name": "actualizar",
      "outputs": [],
      "stateMutability": "nonpayable",
      "type": "function"
    },
    {
      "inputs": [
        {
          "internalType": "address",
          "name": "_direccion",
          "type": "address"
        },
        {
          "internalType": "contract EstadoVO",
          "name": "_estado",
          "type": "address"
        }
      ],
      "name": "cambiarEstado",
      "outputs": [],
      "stateMutability": "nonpayable",
      "type": "function"
    },
    {
      "inputs": [
        {
          "internalType": "contract PacienteMapperInterface",
          "name": "_pacienteMapperAddress",
          "type": "address"
        }
      ],
      "name": "setPacienteMapper",
      "outputs": [],
      "stateMutability": "nonpayable",
      "type": "function"
    },
    {
      "inputs": [
        {
          "internalType": "contract RolMapperInterface",
          "name": "_rolMapperAddress",
          "type": "address"
        }
      ],
      "name": "setRolMapper",
      "outputs": [],
      "stateMutability": "nonpayable",
      "type": "function"
    },
    {
      "inputs": [
        {
          "internalType": "contract UsuarioMapperInterface",
          "name": "_usuarioMapperAddress",
          "type": "address"
        }
      ],
      "name": "setUsuarioMapper",
      "outputs": [],
      "stateMutability": "nonpayable",
      "type": "function"
    },
    {
      "inputs": [
        {
          "internalType": "contract Acceso",
          "name": "_accesoAddress",
          "type": "address"
        }
      ],
      "name": "setAcceso",
      "outputs": [],
      "stateMutability": "nonpayable",
      "type": "function"
    },
    {
      "inputs": [],
      "name": "selfDestruct",
      "outputs": [],
      "stateMutability": "nonpayable",
      "type": "function"
    }
  ],
  "bytecode": "0x6080604052600160065534801561001557600080fd5b50336000806101000a81548173ffffffffffffffffffffffffffffffffffffffff021916908373ffffffffffffffffffffffffffffffffffffffff1602179055506121b4806100656000396000f3fe608060405234801561001057600080fd5b50600436106100cf5760003560e01c806370f05f971161008c5780637da8f6a5116100665780637da8f6a5146101d457806392ebdcd2146102045780639cb8a26a146102225780639fa09ef41461022c576100cf565b806370f05f971461017e578063731188e71461019c57806378775d32146101b8576100cf565b806307b37d1d146100d45780630da7d7a5146100f0578063137d47221461010c5780631d18376014610128578063596e15e6146101445780636b40d0b514610160575b600080fd5b6100ee60048036038101906100e991906113ba565b610248565b005b61010a600480360381019061010591906113ba565b6105ed565b005b61012660048036038101906101219190611438565b6107d6565b005b610142600480360381019061013d91906114a3565b6108a8565b005b61015e6004803603810190610159919061150e565b61097a565b005b610168610a4c565b604051610175919061154a565b60405180910390f35b610186610a72565b60405161019391906115c4565b60405180910390f35b6101b660048036038101906101b191906115df565b610c34565b005b6101d260048036038101906101cd919061164a565b610dae565b005b6101ee60048036038101906101e99190611677565b610e80565b6040516101fb91906115c4565b60405180910390f35b61020c611044565b604051610219919061154a565b60405180910390f35b61022a611068565b005b610246600480360381019061024191906116e2565b61112f565b005b3373ffffffffffffffffffffffffffffffffffffffff168273ffffffffffffffffffffffffffffffffffffffff16146102b6576040517f08c379a00000000000000000000000000000000000000000000000000000000081526004016102ad906117a5565b60405180910390fd5b6000600360009054906101000a900473ffffffffffffffffffffffffffffffffffffffff1673ffffffffffffffffffffffffffffffffffffffff1663b10b65ce6006546040518263ffffffff1660e01b815260040161031591906117de565b6020604051808303816000875af1158015610334573d6000803e3d6000fd5b505050506040513d601f19601f820116820180604052508101906103589190611837565b905060006040516103689061130c565b604051809103906000f080158015610384573d6000803e3d6000fd5b5090508073ffffffffffffffffffffffffffffffffffffffff16635745ab98856040518263ffffffff1660e01b81526004016103c0919061154a565b600060405180830381600087803b1580156103da57600080fd5b505af11580156103ee573d6000803e3d6000fd5b505050508073ffffffffffffffffffffffffffffffffffffffff1663ce8dd29f836040518263ffffffff1660e01b815260040161042b9190611885565b600060405180830381600087803b15801561044557600080fd5b505af1158015610459573d6000803e3d6000fd5b505050508073ffffffffffffffffffffffffffffffffffffffff1663fdaef48360016040518263ffffffff1660e01b815260040161049791906118bb565b600060405180830381600087803b1580156104b157600080fd5b505af11580156104c5573d6000803e3d6000fd5b50505050600460009054906101000a900473ffffffffffffffffffffffffffffffffffffffff1673ffffffffffffffffffffffffffffffffffffffff1663be381c5985836040518363ffffffff1660e01b81526004016105269291906118f7565b600060405180830381600087803b15801561054057600080fd5b505af1158015610554573d6000803e3d6000fd5b50505050600260009054906101000a900473ffffffffffffffffffffffffffffffffffffffff1673ffffffffffffffffffffffffffffffffffffffff1663be381c5985856040518363ffffffff1660e01b81526004016105b5929190611920565b600060405180830381600087803b1580156105cf57600080fd5b505af11580156105e3573d6000803e3d6000fd5b5050505050505050565b60036000600560009054906101000a900473ffffffffffffffffffffffffffffffffffffffff1673ffffffffffffffffffffffffffffffffffffffff16636d4cc9d233846040518363ffffffff1660e01b815260040161064e929190611949565b6020604051808303816000875af115801561066d573d6000803e3d6000fd5b505050506040513d601f19601f82011682018060405250810190610691919061199e565b9050806106d3576040517f08c379a00000000000000000000000000000000000000000000000000000000081526004016106ca90611a17565b60405180910390fd5b3373ffffffffffffffffffffffffffffffffffffffff168473ffffffffffffffffffffffffffffffffffffffff1614610741576040517f08c379a000000000000000000000000000000000000000000000000000000000815260040161073890611a83565b60405180910390fd5b600260009054906101000a900473ffffffffffffffffffffffffffffffffffffffff1673ffffffffffffffffffffffffffffffffffffffff16630da7d7a585856040518363ffffffff1660e01b815260040161079e929190611920565b600060405180830381600087803b1580156107b857600080fd5b505af11580156107cc573d6000803e3d6000fd5b5050505050505050565b60008054906101000a900473ffffffffffffffffffffffffffffffffffffffff1673ffffffffffffffffffffffffffffffffffffffff163373ffffffffffffffffffffffffffffffffffffffff1614610864576040517f08c379a000000000000000000000000000000000000000000000000000000000815260040161085b90611b3b565b60405180910390fd5b80600560006101000a81548173ffffffffffffffffffffffffffffffffffffffff021916908373ffffffffffffffffffffffffffffffffffffffff16021790555050565b60008054906101000a900473ffffffffffffffffffffffffffffffffffffffff1673ffffffffffffffffffffffffffffffffffffffff163373ffffffffffffffffffffffffffffffffffffffff1614610936576040517f08c379a000000000000000000000000000000000000000000000000000000000815260040161092d90611b3b565b60405180910390fd5b80600260006101000a81548173ffffffffffffffffffffffffffffffffffffffff021916908373ffffffffffffffffffffffffffffffffffffffff16021790555050565b60008054906101000a900473ffffffffffffffffffffffffffffffffffffffff1673ffffffffffffffffffffffffffffffffffffffff163373ffffffffffffffffffffffffffffffffffffffff1614610a08576040517f08c379a00000000000000000000000000000000000000000000000000000000081526004016109ff90611b3b565b60405180910390fd5b80600460006101000a81548173ffffffffffffffffffffffffffffffffffffffff021916908373ffffffffffffffffffffffffffffffffffffffff16021790555050565b600160009054906101000a900473ffffffffffffffffffffffffffffffffffffffff1681565b600060026000600560009054906101000a900473ffffffffffffffffffffffffffffffffffffffff1673ffffffffffffffffffffffffffffffffffffffff16636d4cc9d233846040518363ffffffff1660e01b8152600401610ad5929190611949565b6020604051808303816000875af1158015610af4573d6000803e3d6000fd5b505050506040513d601f19601f82011682018060405250810190610b18919061199e565b905080610b5a576040517f08c379a0000000000000000000000000000000000000000000000000000000008152600401610b5190611a17565b60405180910390fd5b7fcf34ef537ac33ee1ac626ca1587a0a7e8e51561e5514f8cb36afa1c5102b3bab604051610b8790611bcd565b60405180910390a1600260009054906101000a900473ffffffffffffffffffffffffffffffffffffffff1673ffffffffffffffffffffffffffffffffffffffff16637da8f6a5336040518263ffffffff1660e01b8152600401610bea919061154a565b6020604051808303816000875af1158015610c09573d6000803e3d6000fd5b505050506040513d601f19601f82011682018060405250810190610c2d9190611c02565b9250505090565b60036000600560009054906101000a900473ffffffffffffffffffffffffffffffffffffffff1673ffffffffffffffffffffffffffffffffffffffff16636d4cc9d233846040518363ffffffff1660e01b8152600401610c95929190611949565b6020604051808303816000875af1158015610cb4573d6000803e3d6000fd5b505050506040513d601f19601f82011682018060405250810190610cd8919061199e565b905080610d1a576040517f08c379a0000000000000000000000000000000000000000000000000000000008152600401610d1190611a17565b60405180910390fd5b600260009054906101000a900473ffffffffffffffffffffffffffffffffffffffff1673ffffffffffffffffffffffffffffffffffffffff16630da7d7a533856040518363ffffffff1660e01b8152600401610d77929190611920565b600060405180830381600087803b158015610d9157600080fd5b505af1158015610da5573d6000803e3d6000fd5b50505050505050565b60008054906101000a900473ffffffffffffffffffffffffffffffffffffffff1673ffffffffffffffffffffffffffffffffffffffff163373ffffffffffffffffffffffffffffffffffffffff1614610e3c576040517f08c379a0000000000000000000000000000000000000000000000000000000008152600401610e3390611b3b565b60405180910390fd5b80600360006101000a81548173ffffffffffffffffffffffffffffffffffffffff021916908373ffffffffffffffffffffffffffffffffffffffff16021790555050565b600060016000600560009054906101000a900473ffffffffffffffffffffffffffffffffffffffff1673ffffffffffffffffffffffffffffffffffffffff16636d4cc9d233846040518363ffffffff1660e01b8152600401610ee3929190611949565b6020604051808303816000875af1158015610f02573d6000803e3d6000fd5b505050506040513d601f19601f82011682018060405250810190610f26919061199e565b905080610f68576040517f08c379a0000000000000000000000000000000000000000000000000000000008152600401610f5f90611a17565b60405180910390fd5b7fcf34ef537ac33ee1ac626ca1587a0a7e8e51561e5514f8cb36afa1c5102b3bab604051610f9590611c7b565b60405180910390a1600260009054906101000a900473ffffffffffffffffffffffffffffffffffffffff1673ffffffffffffffffffffffffffffffffffffffff16637da8f6a5856040518263ffffffff1660e01b8152600401610ff8919061154a565b6020604051808303816000875af1158015611017573d6000803e3d6000fd5b505050506040513d601f19601f8201168201806040525081019061103b9190611c02565b92505050919050565b60008054906101000a900473ffffffffffffffffffffffffffffffffffffffff1681565b60008054906101000a900473ffffffffffffffffffffffffffffffffffffffff1673ffffffffffffffffffffffffffffffffffffffff163373ffffffffffffffffffffffffffffffffffffffff16146110f6576040517f08c379a00000000000000000000000000000000000000000000000000000000081526004016110ed90611b3b565b60405180910390fd5b60008054906101000a900473ffffffffffffffffffffffffffffffffffffffff1673ffffffffffffffffffffffffffffffffffffffff16ff5b60046000600560009054906101000a900473ffffffffffffffffffffffffffffffffffffffff1673ffffffffffffffffffffffffffffffffffffffff16636d4cc9d233846040518363ffffffff1660e01b8152600401611190929190611949565b6020604051808303816000875af11580156111af573d6000803e3d6000fd5b505050506040513d601f19601f820116820180604052508101906111d3919061199e565b905080611215576040517f08c379a000000000000000000000000000000000000000000000000000000000815260040161120c90611a17565b60405180910390fd5b3373ffffffffffffffffffffffffffffffffffffffff168473ffffffffffffffffffffffffffffffffffffffff1614611283576040517f08c379a000000000000000000000000000000000000000000000000000000000815260040161127a90611a83565b60405180910390fd5b600061128e85610e80565b90508073ffffffffffffffffffffffffffffffffffffffff1663ef974e80856040518263ffffffff1660e01b81526004016112c99190611cbc565b600060405180830381600087803b1580156112e357600080fd5b505af11580156112f7573d6000803e3d6000fd5b5050505061130585826105ed565b5050505050565b6104a780611cd883390190565b600080fd5b600073ffffffffffffffffffffffffffffffffffffffff82169050919050565b60006113498261131e565b9050919050565b6113598161133e565b811461136457600080fd5b50565b60008135905061137681611350565b92915050565b60006113878261133e565b9050919050565b6113978161137c565b81146113a257600080fd5b50565b6000813590506113b48161138e565b92915050565b600080604083850312156113d1576113d0611319565b5b60006113df85828601611367565b92505060206113f0858286016113a5565b9150509250929050565b60006114058261133e565b9050919050565b611415816113fa565b811461142057600080fd5b50565b6000813590506114328161140c565b92915050565b60006020828403121561144e5761144d611319565b5b600061145c84828501611423565b91505092915050565b60006114708261133e565b9050919050565b61148081611465565b811461148b57600080fd5b50565b60008135905061149d81611477565b92915050565b6000602082840312156114b9576114b8611319565b5b60006114c78482850161148e565b91505092915050565b60006114db8261133e565b9050919050565b6114eb816114d0565b81146114f657600080fd5b50565b600081359050611508816114e2565b92915050565b60006020828403121561152457611523611319565b5b6000611532848285016114f9565b91505092915050565b6115448161133e565b82525050565b600060208201905061155f600083018461153b565b92915050565b6000819050919050565b600061158a6115856115808461131e565b611565565b61131e565b9050919050565b600061159c8261156f565b9050919050565b60006115ae82611591565b9050919050565b6115be816115a3565b82525050565b60006020820190506115d960008301846115b5565b92915050565b6000602082840312156115f5576115f4611319565b5b6000611603848285016113a5565b91505092915050565b60006116178261133e565b9050919050565b6116278161160c565b811461163257600080fd5b50565b6000813590506116448161161e565b92915050565b6000602082840312156116605761165f611319565b5b600061166e84828501611635565b91505092915050565b60006020828403121561168d5761168c611319565b5b600061169b84828501611367565b91505092915050565b60006116af8261133e565b9050919050565b6116bf816116a4565b81146116ca57600080fd5b50565b6000813590506116dc816116b6565b92915050565b600080604083850312156116f9576116f8611319565b5b600061170785828601611367565b9250506020611718858286016116cd565b9150509250929050565b600082825260208201905092915050565b7f556e2070616369656e746520736520646562652072656769737472617220612060008201527f7369206d69736d6f000000000000000000000000000000000000000000000000602082015250565b600061178f602883611722565b915061179a82611733565b604082019050919050565b600060208201905081810360008301526117be81611782565b9050919050565b6000819050919050565b6117d8816117c5565b82525050565b60006020820190506117f360008301846117cf565b92915050565b60006118048261133e565b9050919050565b611814816117f9565b811461181f57600080fd5b50565b6000815190506118318161180b565b92915050565b60006020828403121561184d5761184c611319565b5b600061185b84828501611822565b91505092915050565b600061186f82611591565b9050919050565b61187f81611864565b82525050565b600060208201905061189a6000830184611876565b92915050565b60008115159050919050565b6118b5816118a0565b82525050565b60006020820190506118d060008301846118ac565b92915050565b60006118e182611591565b9050919050565b6118f1816118d6565b82525050565b600060408201905061190c600083018561153b565b61191960208301846118e8565b9392505050565b6000604082019050611935600083018561153b565b61194260208301846115b5565b9392505050565b600060408201905061195e600083018561153b565b61196b60208301846117cf565b9392505050565b61197b816118a0565b811461198657600080fd5b50565b60008151905061199881611972565b92915050565b6000602082840312156119b4576119b3611319565b5b60006119c284828501611989565b91505092915050565b7f456c207573756172696f206e6f207469656e652061636365736f000000000000600082015250565b6000611a01601a83611722565b9150611a0c826119cb565b602082019050919050565b60006020820190508181036000830152611a30816119f4565b9050919050565b7f4e6f207469656e65207065726d69736f732064652061637475616c697a617200600082015250565b6000611a6d601f83611722565b9150611a7882611a37565b602082019050919050565b60006020820190508181036000830152611a9c81611a60565b9050919050565b7f457374612066756e63696f6e20736f6c6f2070756564652073657220656a656360008201527f757461646120706f7220656c2063726561646f722064656c20636f6e7472617460208201527f6f00000000000000000000000000000000000000000000000000000000000000604082015250565b6000611b25604183611722565b9150611b3082611aa3565b606082019050919050565b60006020820190508181036000830152611b5481611b18565b9050919050565b7f456e74726f206120636f6e73756c746172206d69496e666f726d6163696f6e2060008201527f70616369656e7465000000000000000000000000000000000000000000000000602082015250565b6000611bb7602883611722565b9150611bc282611b5b565b604082019050919050565b60006020820190508181036000830152611be681611baa565b9050919050565b600081519050611bfc8161138e565b92915050565b600060208284031215611c1857611c17611319565b5b6000611c2684828501611bed565b91505092915050565b7f456e74726f206120636f6e73756c7461722050616369656e7465000000000000600082015250565b6000611c65601a83611722565b9150611c7082611c2f565b602082019050919050565b60006020820190508181036000830152611c9481611c58565b9050919050565b6000611ca682611591565b9050919050565b611cb681611c9b565b82525050565b6000602082019050611cd16000830184611cad565b9291505056fe608060405234801561001057600080fd5b50610487806100206000396000f3fe608060405234801561001057600080fd5b50600436106100625760003560e01c80635745ab98146100675780636074972414610083578063af995846146100a1578063c3e00aff146100bf578063ce8dd29f146100dd578063fdaef483146100f9575b600080fd5b610081600480360381019061007c9190610286565b610115565b005b61008b610158565b60405161009891906102c2565b60405180910390f35b6100a9610181565b6040516100b691906102f8565b60405180910390f35b6100c7610198565b6040516100d49190610372565b60405180910390f35b6100f760048036038101906100f291906103cb565b6101c2565b005b610113600480360381019061010e9190610424565b610206565b005b806000806101000a81548173ffffffffffffffffffffffffffffffffffffffff021916908373ffffffffffffffffffffffffffffffffffffffff16021790555050565b60008060009054906101000a900473ffffffffffffffffffffffffffffffffffffffff16905090565b6000600160149054906101000a900460ff16905090565b6000600160009054906101000a900473ffffffffffffffffffffffffffffffffffffffff16905090565b80600160006101000a81548173ffffffffffffffffffffffffffffffffffffffff021916908373ffffffffffffffffffffffffffffffffffffffff16021790555050565b80600160146101000a81548160ff02191690831515021790555050565b600080fd5b600073ffffffffffffffffffffffffffffffffffffffff82169050919050565b600061025382610228565b9050919050565b61026381610248565b811461026e57600080fd5b50565b6000813590506102808161025a565b92915050565b60006020828403121561029c5761029b610223565b5b60006102aa84828501610271565b91505092915050565b6102bc81610248565b82525050565b60006020820190506102d760008301846102b3565b92915050565b60008115159050919050565b6102f2816102dd565b82525050565b600060208201905061030d60008301846102e9565b92915050565b6000819050919050565b600061033861033361032e84610228565b610313565b610228565b9050919050565b600061034a8261031d565b9050919050565b600061035c8261033f565b9050919050565b61036c81610351565b82525050565b60006020820190506103876000830184610363565b92915050565b600061039882610248565b9050919050565b6103a88161038d565b81146103b357600080fd5b50565b6000813590506103c58161039f565b92915050565b6000602082840312156103e1576103e0610223565b5b60006103ef848285016103b6565b91505092915050565b610401816102dd565b811461040c57600080fd5b50565b60008135905061041e816103f8565b92915050565b60006020828403121561043a57610439610223565b5b60006104488482850161040f565b9150509291505056fea2646970667358221220d507f5a68e2750e8e5533c3902bd1de13dafa5cb4d8a78f37f162f40cec0f5c964736f6c634300080b0033a2646970667358221220f6a3daceaac84539915197da0db1b2fc4059be6a67558068a78c9d059e126cb864736f6c634300080b0033",
  "immutableReferences": {},
  "source": "// SPDX-License-Identifier: MIT\npragma solidity ^0.8.10;\n\n//import \"./Persona.sol\";\nimport \"../models/PacienteVO.sol\";\nimport \"../persistence/PacienteMapper.sol\";\nimport \"./Acceso.sol\";\n\ncontract Paciente {\n    event Log(string data);\n    address public creador;\n    //address public pacienteMapperAddress;\n    address public accesoAddress;\n\n    PacienteMapperInterface private pacienteMapper;\n    RolMapperInterface private rolMapper;\n    UsuarioMapperInterface private usuarioMapper;\n    Acceso private acceso;\n    \n\n    //TODO Convertir eventualmente en un enum\n    uint256 rolPacienteId = 1;\n\n    constructor() {\n        creador = msg.sender; // creador del contrato\n    }\n\n    // Puede el medico\n    function consultar(address direccion)\n        public\n        tieneAcceso(1) \n        returns (PacienteVO)\n    {\n        emit Log(\"Entro a consultar Paciente\");\n        return pacienteMapper.consultar(direccion);\n        \n    }\n\n    // TODO Agregar a diagrama\n    // Solo lo puede usar el paciente\n    function consultar()\n        public\n        tieneAcceso(2) \n        returns (PacienteVO)\n    {\n        emit Log(\"Entro a consultar miInformacion paciente\");\n        return pacienteMapper.consultar(msg.sender);\n        \n    }\n    \n    // TODO: validar que pasa si falla el registro de persona\n    // TODO: que pasa si falla guardar paciente?\n    //tieneAcceso(2)\n    function registrar(address direccion, PacienteVO paciente)\n        public\n    {\n        if (direccion != msg.sender) {\n            revert(\"Un paciente se debe registrar a si mismo\");\n        }\n\n        RolVO rol = rolMapper.consultar(rolPacienteId);\n        UsuarioVO nuevoUsuario = new UsuarioVO(); \n        nuevoUsuario.setDireccion(direccion);\n        nuevoUsuario.setRol(rol);\n        nuevoUsuario.setEstaActivo(true);\n        usuarioMapper.guardar(direccion, nuevoUsuario);\n        pacienteMapper.guardar(direccion, paciente);\n        // TODO Crear HC\n        // registrar usuario\n        \n    }\n\n    // TODO: Discutir si un mdico debe actualizar al paciente (nombre y demas)\n    // TODO: Sollo se podria acceder con el acceso que da el paciente sobre su info\n    function actualizar(address direccion, PacienteVO paciente)\n        public\n        tieneAcceso(3)\n    {\n        if (direccion != msg.sender) {\n            // si alguien diferente al propietario de la historia la consulta se debe validar quien es\n            // validar quien consulta\n            revert(\"No tiene permisos de actualizar\");\n        }\n        // bloquear actualizacin de estado\n        pacienteMapper.actualizar(direccion, paciente);\n    }\n\n    function actualizar(PacienteVO paciente)\n        public\n        tieneAcceso(3)\n    {\n        // bloquear actualizacin de estado\n        pacienteMapper.actualizar(msg.sender, paciente);\n    }\n\n    // TODO: poner modificador para que solo lo pueda ejecutar el service y\n    // en el service que solo lo ejecute un mdico\n    // TODO: Debe usar el permiso que da el paciente\n    function cambiarEstado(address _direccion, EstadoVO _estado)\n        public\n        tieneAcceso(4)\n    {\n        if (_direccion != msg.sender) {\n            // si alguien diferente al propietario de la historia la consulta se debe validar quien es\n            // validar quien consulta\n            revert(\"No tiene permisos de actualizar\");\n        }\n        PacienteVO paciente = consultar(_direccion);\n        paciente.setEstado(_estado);\n        actualizar(_direccion, paciente);\n    }\n\n    function setPacienteMapper(PacienteMapperInterface _pacienteMapperAddress)\n        public\n        esPropietario\n    {\n        // pacienteMapperAddress = _pacienteMapperAddress;\n        // pacienteMapper = PacienteMapper(_pacienteMapperAddress);\n        pacienteMapper = _pacienteMapperAddress;\n    }\n\n    function setRolMapper(RolMapperInterface _rolMapperAddress)\n        public\n        esPropietario\n    {\n        // pacienteMapperAddress = _pacienteMapperAddress;\n        // pacienteMapper = PacienteMapper(_pacienteMapperAddress);\n        rolMapper = _rolMapperAddress;\n    }\n\n    function setUsuarioMapper(UsuarioMapperInterface _usuarioMapperAddress)\n        public\n        esPropietario\n    {\n        // pacienteMapperAddress = _pacienteMapperAddress;\n        // pacienteMapper = PacienteMapper(_pacienteMapperAddress);\n        usuarioMapper = _usuarioMapperAddress;\n    }\n\n    function setAcceso(Acceso _accesoAddress) public esPropietario {\n        //accesoAddress = _accesoAddress;\n        //acceso = Acceso(_accesoAddress);\n        acceso = _accesoAddress;\n    }\n\n    modifier esPropietario() {\n        require(\n            msg.sender == creador,\n            \"Esta funcion solo puede ser ejecutada por el creador del contrato\"\n        );\n        _; // ac se ejecuta la funcin\n    }\n\n    function selfDestruct() public esPropietario {\n        selfdestruct(payable(creador));\n    }\n\n    modifier tieneAcceso(uint256 permisoId) {\n        bool esAccesible = acceso.validarPermisoDeRol(msg.sender, permisoId);\n        require(esAccesible, \"El usuario no tiene acceso\");\n        _; // ac se ejecuta la funcin\n    }\n}\n",
  "sourcePath": "/home/felipe/Documentos/Blockchain/codigo/back-hce/contracts/logica/Paciente.sol",
  "compiler": {
    "name": "solc",
    "version": "0.8.11+commit.d7f03943.Emscripten.clang"
  },
  "schemaVersion": "3.4.4",
  "updatedAt": "2022-04-17T01:29:30.555Z",
  "devdoc": {
    "kind": "dev",
    "methods": {},
    "version": 1
  },
  "userdoc": {
    "kind": "user",
    "methods": {},
    "version": 1
  }
}