{
  "contractName": "Paciente",
  "abi": [
    {
      "inputs": [],
      "stateMutability": "nonpayable",
      "type": "constructor"
    },
    {
      "anonymous": false,
      "inputs": [
        {
          "indexed": false,
          "internalType": "string",
          "name": "data",
          "type": "string"
        }
      ],
      "name": "Log",
      "type": "event"
    },
    {
      "inputs": [],
      "name": "creador",
      "outputs": [
        {
          "internalType": "address",
          "name": "",
          "type": "address"
        }
      ],
      "stateMutability": "view",
      "type": "function"
    },
    {
      "inputs": [],
      "name": "consultar",
      "outputs": [
        {
          "components": [
            {
              "components": [
                {
                  "internalType": "address",
                  "name": "direccion",
                  "type": "address"
                },
                {
                  "internalType": "uint256",
                  "name": "id",
                  "type": "uint256"
                },
                {
                  "internalType": "string",
                  "name": "primerNombre",
                  "type": "string"
                },
                {
                  "internalType": "string",
                  "name": "segundoNombre",
                  "type": "string"
                },
                {
                  "internalType": "string",
                  "name": "primerApellido",
                  "type": "string"
                },
                {
                  "internalType": "string",
                  "name": "segundoApellido",
                  "type": "string"
                },
                {
                  "internalType": "string",
                  "name": "identificacion",
                  "type": "string"
                },
                {
                  "internalType": "uint256",
                  "name": "tipoIdentificacion",
                  "type": "uint256"
                },
                {
                  "internalType": "bool",
                  "name": "isValue",
                  "type": "bool"
                }
              ],
              "internalType": "struct Persona.PersonaStruct",
              "name": "persona",
              "type": "tuple"
            },
            {
              "components": [
                {
                  "internalType": "uint256",
                  "name": "sexoId",
                  "type": "uint256"
                },
                {
                  "internalType": "uint256",
                  "name": "estadoCivilId",
                  "type": "uint256"
                },
                {
                  "internalType": "uint256",
                  "name": "fechaNacimiento",
                  "type": "uint256"
                },
                {
                  "internalType": "uint256",
                  "name": "edad",
                  "type": "uint256"
                },
                {
                  "internalType": "string",
                  "name": "ciudadResidencia",
                  "type": "string"
                },
                {
                  "internalType": "string",
                  "name": "ocupacion",
                  "type": "string"
                },
                {
                  "internalType": "string",
                  "name": "direccion",
                  "type": "string"
                },
                {
                  "internalType": "string",
                  "name": "telefono",
                  "type": "string"
                },
                {
                  "internalType": "uint256",
                  "name": "aseguradoraId",
                  "type": "uint256"
                },
                {
                  "internalType": "uint256",
                  "name": "tipoVinculacionId",
                  "type": "uint256"
                },
                {
                  "internalType": "uint256",
                  "name": "acudienteId",
                  "type": "uint256"
                }
              ],
              "internalType": "struct DatosPersonalesStruct",
              "name": "datosPersonales",
              "type": "tuple"
            },
            {
              "internalType": "uint256",
              "name": "estadoId",
              "type": "uint256"
            }
          ],
          "internalType": "struct PacienteVO.PacienteVOStruct",
          "name": "",
          "type": "tuple"
        }
      ],
      "stateMutability": "nonpayable",
      "type": "function"
    },
    {
      "inputs": [
        {
          "internalType": "address",
          "name": "direccion",
          "type": "address"
        }
      ],
      "name": "consultar",
      "outputs": [
        {
          "components": [
            {
              "components": [
                {
                  "internalType": "address",
                  "name": "direccion",
                  "type": "address"
                },
                {
                  "internalType": "uint256",
                  "name": "id",
                  "type": "uint256"
                },
                {
                  "internalType": "string",
                  "name": "primerNombre",
                  "type": "string"
                },
                {
                  "internalType": "string",
                  "name": "segundoNombre",
                  "type": "string"
                },
                {
                  "internalType": "string",
                  "name": "primerApellido",
                  "type": "string"
                },
                {
                  "internalType": "string",
                  "name": "segundoApellido",
                  "type": "string"
                },
                {
                  "internalType": "string",
                  "name": "identificacion",
                  "type": "string"
                },
                {
                  "internalType": "uint256",
                  "name": "tipoIdentificacion",
                  "type": "uint256"
                },
                {
                  "internalType": "bool",
                  "name": "isValue",
                  "type": "bool"
                }
              ],
              "internalType": "struct Persona.PersonaStruct",
              "name": "persona",
              "type": "tuple"
            },
            {
              "components": [
                {
                  "internalType": "uint256",
                  "name": "sexoId",
                  "type": "uint256"
                },
                {
                  "internalType": "uint256",
                  "name": "estadoCivilId",
                  "type": "uint256"
                },
                {
                  "internalType": "uint256",
                  "name": "fechaNacimiento",
                  "type": "uint256"
                },
                {
                  "internalType": "uint256",
                  "name": "edad",
                  "type": "uint256"
                },
                {
                  "internalType": "string",
                  "name": "ciudadResidencia",
                  "type": "string"
                },
                {
                  "internalType": "string",
                  "name": "ocupacion",
                  "type": "string"
                },
                {
                  "internalType": "string",
                  "name": "direccion",
                  "type": "string"
                },
                {
                  "internalType": "string",
                  "name": "telefono",
                  "type": "string"
                },
                {
                  "internalType": "uint256",
                  "name": "aseguradoraId",
                  "type": "uint256"
                },
                {
                  "internalType": "uint256",
                  "name": "tipoVinculacionId",
                  "type": "uint256"
                },
                {
                  "internalType": "uint256",
                  "name": "acudienteId",
                  "type": "uint256"
                }
              ],
              "internalType": "struct DatosPersonalesStruct",
              "name": "datosPersonales",
              "type": "tuple"
            },
            {
              "internalType": "uint256",
              "name": "estadoId",
              "type": "uint256"
            }
          ],
          "internalType": "struct PacienteVO.PacienteVOStruct",
          "name": "",
          "type": "tuple"
        }
      ],
      "stateMutability": "nonpayable",
      "type": "function"
    },
    {
      "inputs": [
        {
          "internalType": "uint256",
          "name": "id",
          "type": "uint256"
        }
      ],
      "name": "consultarPorId",
      "outputs": [
        {
          "components": [
            {
              "components": [
                {
                  "internalType": "address",
                  "name": "direccion",
                  "type": "address"
                },
                {
                  "internalType": "uint256",
                  "name": "id",
                  "type": "uint256"
                },
                {
                  "internalType": "string",
                  "name": "primerNombre",
                  "type": "string"
                },
                {
                  "internalType": "string",
                  "name": "segundoNombre",
                  "type": "string"
                },
                {
                  "internalType": "string",
                  "name": "primerApellido",
                  "type": "string"
                },
                {
                  "internalType": "string",
                  "name": "segundoApellido",
                  "type": "string"
                },
                {
                  "internalType": "string",
                  "name": "identificacion",
                  "type": "string"
                },
                {
                  "internalType": "uint256",
                  "name": "tipoIdentificacion",
                  "type": "uint256"
                },
                {
                  "internalType": "bool",
                  "name": "isValue",
                  "type": "bool"
                }
              ],
              "internalType": "struct Persona.PersonaStruct",
              "name": "persona",
              "type": "tuple"
            },
            {
              "components": [
                {
                  "internalType": "uint256",
                  "name": "sexoId",
                  "type": "uint256"
                },
                {
                  "internalType": "uint256",
                  "name": "estadoCivilId",
                  "type": "uint256"
                },
                {
                  "internalType": "uint256",
                  "name": "fechaNacimiento",
                  "type": "uint256"
                },
                {
                  "internalType": "uint256",
                  "name": "edad",
                  "type": "uint256"
                },
                {
                  "internalType": "string",
                  "name": "ciudadResidencia",
                  "type": "string"
                },
                {
                  "internalType": "string",
                  "name": "ocupacion",
                  "type": "string"
                },
                {
                  "internalType": "string",
                  "name": "direccion",
                  "type": "string"
                },
                {
                  "internalType": "string",
                  "name": "telefono",
                  "type": "string"
                },
                {
                  "internalType": "uint256",
                  "name": "aseguradoraId",
                  "type": "uint256"
                },
                {
                  "internalType": "uint256",
                  "name": "tipoVinculacionId",
                  "type": "uint256"
                },
                {
                  "internalType": "uint256",
                  "name": "acudienteId",
                  "type": "uint256"
                }
              ],
              "internalType": "struct DatosPersonalesStruct",
              "name": "datosPersonales",
              "type": "tuple"
            },
            {
              "internalType": "uint256",
              "name": "estadoId",
              "type": "uint256"
            }
          ],
          "internalType": "struct PacienteVO.PacienteVOStruct",
          "name": "",
          "type": "tuple"
        }
      ],
      "stateMutability": "nonpayable",
      "type": "function"
    },
    {
      "inputs": [
        {
          "internalType": "address",
          "name": "direccion",
          "type": "address"
        },
        {
          "internalType": "contract PacienteVO",
          "name": "paciente",
          "type": "address"
        }
      ],
      "name": "registrar",
      "outputs": [],
      "stateMutability": "nonpayable",
      "type": "function"
    },
    {
      "inputs": [
        {
          "internalType": "address",
          "name": "direccion",
          "type": "address"
        },
        {
          "components": [
            {
              "components": [
                {
                  "internalType": "address",
                  "name": "direccion",
                  "type": "address"
                },
                {
                  "internalType": "uint256",
                  "name": "id",
                  "type": "uint256"
                },
                {
                  "internalType": "string",
                  "name": "primerNombre",
                  "type": "string"
                },
                {
                  "internalType": "string",
                  "name": "segundoNombre",
                  "type": "string"
                },
                {
                  "internalType": "string",
                  "name": "primerApellido",
                  "type": "string"
                },
                {
                  "internalType": "string",
                  "name": "segundoApellido",
                  "type": "string"
                },
                {
                  "internalType": "string",
                  "name": "identificacion",
                  "type": "string"
                },
                {
                  "internalType": "uint256",
                  "name": "tipoIdentificacion",
                  "type": "uint256"
                },
                {
                  "internalType": "bool",
                  "name": "isValue",
                  "type": "bool"
                }
              ],
              "internalType": "struct Persona.PersonaStruct",
              "name": "persona",
              "type": "tuple"
            },
            {
              "components": [
                {
                  "internalType": "uint256",
                  "name": "sexoId",
                  "type": "uint256"
                },
                {
                  "internalType": "uint256",
                  "name": "estadoCivilId",
                  "type": "uint256"
                },
                {
                  "internalType": "uint256",
                  "name": "fechaNacimiento",
                  "type": "uint256"
                },
                {
                  "internalType": "uint256",
                  "name": "edad",
                  "type": "uint256"
                },
                {
                  "internalType": "string",
                  "name": "ciudadResidencia",
                  "type": "string"
                },
                {
                  "internalType": "string",
                  "name": "ocupacion",
                  "type": "string"
                },
                {
                  "internalType": "string",
                  "name": "direccion",
                  "type": "string"
                },
                {
                  "internalType": "string",
                  "name": "telefono",
                  "type": "string"
                },
                {
                  "internalType": "uint256",
                  "name": "aseguradoraId",
                  "type": "uint256"
                },
                {
                  "internalType": "uint256",
                  "name": "tipoVinculacionId",
                  "type": "uint256"
                },
                {
                  "internalType": "uint256",
                  "name": "acudienteId",
                  "type": "uint256"
                }
              ],
              "internalType": "struct DatosPersonalesStruct",
              "name": "datosPersonales",
              "type": "tuple"
            },
            {
              "internalType": "uint256",
              "name": "estadoId",
              "type": "uint256"
            }
          ],
          "internalType": "struct PacienteVO.PacienteVOStruct",
          "name": "pacienteVOStruct",
          "type": "tuple"
        }
      ],
      "name": "registrarConStruct",
      "outputs": [],
      "stateMutability": "nonpayable",
      "type": "function"
    },
    {
      "inputs": [
        {
          "internalType": "contract PacienteVO",
          "name": "paciente",
          "type": "address"
        }
      ],
      "name": "actualizar",
      "outputs": [],
      "stateMutability": "nonpayable",
      "type": "function"
    },
    {
      "inputs": [
        {
          "internalType": "address",
          "name": "_direccion",
          "type": "address"
        },
        {
          "internalType": "contract EstadoVO",
          "name": "_estado",
          "type": "address"
        }
      ],
      "name": "cambiarEstado",
      "outputs": [],
      "stateMutability": "nonpayable",
      "type": "function"
    },
    {
      "inputs": [
        {
          "internalType": "contract PacienteMapperInterface",
          "name": "_pacienteMapperAddress",
          "type": "address"
        }
      ],
      "name": "setPacienteMapper",
      "outputs": [],
      "stateMutability": "nonpayable",
      "type": "function"
    },
    {
      "inputs": [
        {
          "internalType": "contract RolMapperInterface",
          "name": "_rolMapperAddress",
          "type": "address"
        }
      ],
      "name": "setRolMapper",
      "outputs": [],
      "stateMutability": "nonpayable",
      "type": "function"
    },
    {
      "inputs": [
        {
          "internalType": "contract UsuarioMapperInterface",
          "name": "_usuarioMapperAddress",
          "type": "address"
        }
      ],
      "name": "setUsuarioMapper",
      "outputs": [],
      "stateMutability": "nonpayable",
      "type": "function"
    },
    {
      "inputs": [
        {
          "internalType": "contract DatosParametricosMapperInterface",
          "name": "_datosParametricosMapperAddress",
          "type": "address"
        }
      ],
      "name": "setDatosParametricosMapper",
      "outputs": [],
      "stateMutability": "nonpayable",
      "type": "function"
    },
    {
      "inputs": [
        {
          "internalType": "contract Acceso",
          "name": "_accesoAddress",
          "type": "address"
        }
      ],
      "name": "setAcceso",
      "outputs": [],
      "stateMutability": "nonpayable",
      "type": "function"
    },
    {
      "inputs": [],
      "name": "selfDestruct",
      "outputs": [],
      "stateMutability": "nonpayable",
      "type": "function"
    }
  ],
  "bytecode": "0x6080604052600060065534801561001557600080fd5b50600080546001600160a01b03191633179055614119806100376000396000f3fe608060405234801561001057600080fd5b50600436106100ea5760003560e01c806378775d321161008c5780639cb8a26a116100665780639cb8a26a146101d25780639fa09ef4146101da578063adb0a725146101ed578063c204c17d1461020057600080fd5b806378775d32146101815780637da8f6a51461019457806392ebdcd2146101a757600080fd5b80631d183760116100c85780631d1837601461012a578063596e15e61461013d57806370f05f9714610150578063731188e71461016e57600080fd5b806307b37d1d146100ef578063137d4722146101045780631643b38d14610117575b600080fd5b6101026100fd366004611571565b610213565b005b6101026101123660046115aa565b610595565b61010261012536600461183b565b610641565b6101026101383660046115aa565b61080f565b61010261014b3660046115aa565b6108bb565b610158610967565b6040516101659190611bf5565b60405180910390f35b61010261017c3660046115aa565b610b8b565b61010261018f3660046115aa565b610cbf565b6101586101a23660046115aa565b610d6b565b6000546101ba906001600160a01b031681565b6040516001600160a01b039091168152602001610165565b610102610eb5565b6101026101e8366004611571565b610f4d565b6101586101fb366004611c08565b611170565b61010261020e3660046115aa565b6113af565b6001600160a01b03821633146102965760405162461bcd60e51b815260206004820152602860248201527f556e2070616369656e746520736520646562652072656769737472617220612060448201527f7369206d69736d6f00000000000000000000000000000000000000000000000060648201526084015b60405180910390fd5b6002546006546040517fb10b65ce00000000000000000000000000000000000000000000000000000000815260048101919091526000916001600160a01b03169063b10b65ce906024016020604051808303816000875af11580156102ff573d6000803e3d6000fd5b505050506040513d601f19601f820116820180604052508101906103239190611c21565b905060006040516103339061145b565b604051809103906000f08015801561034f573d6000803e3d6000fd5b506040517f5745ab980000000000000000000000000000000000000000000000000000000081526001600160a01b03868116600483015291925090821690635745ab9890602401600060405180830381600087803b1580156103b057600080fd5b505af11580156103c4573d6000803e3d6000fd5b50506040517fce8dd29f0000000000000000000000000000000000000000000000000000000081526001600160a01b0385811660048301528416925063ce8dd29f9150602401600060405180830381600087803b15801561042457600080fd5b505af1158015610438573d6000803e3d6000fd5b50506040517ffdaef483000000000000000000000000000000000000000000000000000000008152600160048201526001600160a01b038416925063fdaef4839150602401600060405180830381600087803b15801561049757600080fd5b505af11580156104ab573d6000803e3d6000fd5b505060035460405163be381c5960e01b81526001600160a01b0388811660048301528581166024830152909116925063be381c599150604401600060405180830381600087803b1580156104fe57600080fd5b505af1158015610512573d6000803e3d6000fd5b505060015460405163be381c5960e01b81526001600160a01b0388811660048301528781166024830152909116925063be381c5991506044016020604051808303816000875af115801561056a573d6000803e3d6000fd5b505050506040513d601f19601f8201168201806040525081019061058e9190611c3e565b5050505050565b6000546001600160a01b0316331461061f5760405162461bcd60e51b815260206004820152604160248201527f457374612066756e63696f6e20736f6c6f2070756564652073657220656a656360448201527f757461646120706f7220656c2063726561646f722064656c20636f6e747261746064820152606f60f81b608482015260a40161028d565b600580546001600160a01b0319166001600160a01b0392909216919091179055565b600060405161064f90611468565b604051809103906000f08015801561066b573d6000803e3d6000fd5b506004805460408581015190517f480c42a0000000000000000000000000000000000000000000000000000000008152928301529192506000916001600160a01b03169063480c42a090602401602060405180830381865afa1580156106d5573d6000803e3d6000fd5b505050506040513d601f19601f820116820180604052508101906106f99190611c21565b60048054855160e001516040517f1dbaf403000000000000000000000000000000000000000000000000000000008152928301529192506000916001600160a01b031690631dbaf40390602401602060405180830381865afa158015610763573d6000803e3d6000fd5b505050506040513d601f19601f820116820180604052508101906107879190611c21565b6040517f71b7a9ba0000000000000000000000000000000000000000000000000000000081529091506001600160a01b038416906371b7a9ba906107d390879086908690600401611c57565b600060405180830381600087803b1580156107ed57600080fd5b505af1158015610801573d6000803e3d6000fd5b5050505061058e8584610213565b6000546001600160a01b031633146108995760405162461bcd60e51b815260206004820152604160248201527f457374612066756e63696f6e20736f6c6f2070756564652073657220656a656360448201527f757461646120706f7220656c2063726561646f722064656c20636f6e747261746064820152606f60f81b608482015260a40161028d565b600180546001600160a01b0319166001600160a01b0392909216919091179055565b6000546001600160a01b031633146109455760405162461bcd60e51b815260206004820152604160248201527f457374612066756e63696f6e20736f6c6f2070756564652073657220656a656360448201527f757461646120706f7220656c2063726561646f722064656c20636f6e747261746064820152606f60f81b608482015260a40161028d565b600380546001600160a01b0319166001600160a01b0392909216919091179055565b61096f611475565b6005546040516336a664e960e11b8152336004820152600260248201819052916000916001600160a01b0390911690636d4cc9d2906044016020604051808303816000875af11580156109c6573d6000803e3d6000fd5b505050506040513d601f19601f820116820180604052508101906109ea9190611c95565b905080610a395760405162461bcd60e51b815260206004820152601a60248201527f456c207573756172696f206e6f207469656e652061636365736f000000000000604482015260640161028d565b7fcf34ef537ac33ee1ac626ca1587a0a7e8e51561e5514f8cb36afa1c5102b3bab604051610aa99060208082526028908201527f456e74726f206120636f6e73756c746172206d69496e666f726d6163696f6e2060408201526770616369656e746560c01b606082015260800190565b60405180910390a1600154604051637da8f6a560e01b81523360048201526001600160a01b0390911690637da8f6a5906024016020604051808303816000875af1158015610afb573d6000803e3d6000fd5b505050506040513d601f19601f82011682018060405250810190610b1f9190611c21565b6001600160a01b03166359d1cfd66040518163ffffffff1660e01b8152600401600060405180830381865afa158015610b5c573d6000803e3d6000fd5b505050506040513d6000823e601f3d908101601f19168201604052610b849190810190611e07565b9250505090565b6005546040516336a664e960e11b8152336004820152600360248201819052916000916001600160a01b0390911690636d4cc9d2906044016020604051808303816000875af1158015610be2573d6000803e3d6000fd5b505050506040513d601f19601f82011682018060405250810190610c069190611c95565b905080610c555760405162461bcd60e51b815260206004820152601a60248201527f456c207573756172696f206e6f207469656e652061636365736f000000000000604482015260640161028d565b600154604051630da7d7a560e01b81523360048201526001600160a01b03858116602483015290911690630da7d7a590604401600060405180830381600087803b158015610ca257600080fd5b505af1158015610cb6573d6000803e3d6000fd5b50505050505050565b6000546001600160a01b03163314610d495760405162461bcd60e51b815260206004820152604160248201527f457374612066756e63696f6e20736f6c6f2070756564652073657220656a656360448201527f757461646120706f7220656c2063726561646f722064656c20636f6e747261746064820152606f60f81b608482015260a40161028d565b600280546001600160a01b0319166001600160a01b0392909216919091179055565b610d73611475565b7fcf34ef537ac33ee1ac626ca1587a0a7e8e51561e5514f8cb36afa1c5102b3bab604051610dd2906020808252601a908201527f456e74726f206120636f6e73756c7461722050616369656e7465000000000000604082015260600190565b60405180910390a1600154604051637da8f6a560e01b81526001600160a01b03848116600483015290911690637da8f6a5906024016020604051808303816000875af1158015610e26573d6000803e3d6000fd5b505050506040513d601f19601f82011682018060405250810190610e4a9190611c21565b6001600160a01b03166359d1cfd66040518163ffffffff1660e01b8152600401600060405180830381865afa158015610e87573d6000803e3d6000fd5b505050506040513d6000823e601f3d908101601f19168201604052610eaf9190810190611e07565b92915050565b6000546001600160a01b03163314610f3f5760405162461bcd60e51b815260206004820152604160248201527f457374612066756e63696f6e20736f6c6f2070756564652073657220656a656360448201527f757461646120706f7220656c2063726561646f722064656c20636f6e747261746064820152606f60f81b608482015260a40161028d565b6000546001600160a01b0316ff5b6005546040516336a664e960e11b81523360048083019190915260248201819052916000916001600160a01b0390911690636d4cc9d2906044016020604051808303816000875af1158015610fa6573d6000803e3d6000fd5b505050506040513d601f19601f82011682018060405250810190610fca9190611c95565b9050806110195760405162461bcd60e51b815260206004820152601a60248201527f456c207573756172696f206e6f207469656e652061636365736f000000000000604482015260640161028d565b600154604051637da8f6a560e01b81526001600160a01b0386811660048301526000921690637da8f6a5906024016020604051808303816000875af1158015611066573d6000803e3d6000fd5b505050506040513d601f19601f8201168201806040525081019061108a9190611c21565b6040517fef974e800000000000000000000000000000000000000000000000000000000081526001600160a01b0386811660048301529192509082169063ef974e8090602401600060405180830381600087803b1580156110ea57600080fd5b505af11580156110fe573d6000803e3d6000fd5b5050600154604051630da7d7a560e01b81526001600160a01b03898116600483015285811660248301529091169250630da7d7a59150604401600060405180830381600087803b15801561115157600080fd5b505af1158015611165573d6000803e3d6000fd5b505050505050505050565b611178611475565b6005546040516336a664e960e11b8152336004820152600260248201819052916000916001600160a01b0390911690636d4cc9d2906044016020604051808303816000875af11580156111cf573d6000803e3d6000fd5b505050506040513d601f19601f820116820180604052508101906111f39190611c95565b9050806112425760405162461bcd60e51b815260206004820152601a60248201527f456c207573756172696f206e6f207469656e652061636365736f000000000000604482015260640161028d565b7fcf34ef537ac33ee1ac626ca1587a0a7e8e51561e5514f8cb36afa1c5102b3bab6040516112b29060208082526028908201527f456e74726f206120636f6e73756c746172206d69496e666f726d6163696f6e2060408201526770616369656e746560c01b606082015260800190565b60405180910390a16001546040517fadb0a725000000000000000000000000000000000000000000000000000000008152600481018690526001600160a01b039091169063adb0a725906024016020604051808303816000875af115801561131e573d6000803e3d6000fd5b505050506040513d601f19601f820116820180604052508101906113429190611c21565b6001600160a01b03166359d1cfd66040518163ffffffff1660e01b8152600401600060405180830381865afa15801561137f573d6000803e3d6000fd5b505050506040513d6000823e601f3d908101601f191682016040526113a79190810190611e07565b949350505050565b6000546001600160a01b031633146114395760405162461bcd60e51b815260206004820152604160248201527f457374612066756e63696f6e20736f6c6f2070756564652073657220656a656360448201527f757461646120706f7220656c2063726561646f722064656c20636f6e747261746064820152606f60f81b608482015260a40161028d565b600480546001600160a01b0319166001600160a01b0392909216919091179055565b6105a780611f9a83390190565b611ba38061254183390190565b60405180606001604052806114da60405180610120016040528060006001600160a01b03168152602001600081526020016060815260200160608152602001606081526020016060815260200160608152602001600081526020016000151581525090565b815260200161153c60405180610160016040528060008152602001600081526020016000815260200160008152602001606081526020016060815260200160608152602001606081526020016000815260200160008152602001600081525090565b8152602001600081525090565b6001600160a01b038116811461155e57600080fd5b50565b803561156c81611549565b919050565b6000806040838503121561158457600080fd5b823561158f81611549565b9150602083013561159f81611549565b809150509250929050565b6000602082840312156115bc57600080fd5b81356115c781611549565b9392505050565b7f4e487b7100000000000000000000000000000000000000000000000000000000600052604160045260246000fd5b604051610160810167ffffffffffffffff81118282101715611621576116216115ce565b60405290565b6040516060810167ffffffffffffffff81118282101715611621576116216115ce565b604051610120810167ffffffffffffffff81118282101715611621576116216115ce565b604051601f8201601f1916810167ffffffffffffffff81118282101715611697576116976115ce565b604052919050565b600067ffffffffffffffff8211156116b9576116b96115ce565b50601f01601f191660200190565b600082601f8301126116d857600080fd5b81356116eb6116e68261169f565b61166e565b81815284602083860101111561170057600080fd5b816020850160208301376000918101602001919091529392505050565b801515811461155e57600080fd5b803561156c8161171d565b6000610160828403121561174957600080fd5b6117516115fd565b905081358152602082013560208201526040820135604082015260608201356060820152608082013567ffffffffffffffff8082111561179057600080fd5b61179c858386016116c7565b608084015260a08401359150808211156117b557600080fd5b6117c1858386016116c7565b60a084015260c08401359150808211156117da57600080fd5b6117e6858386016116c7565b60c084015260e08401359150808211156117ff57600080fd5b5061180c848285016116c7565b60e083015250610100828101359082015261012080830135908201526101409182013591810191909152919050565b6000806040838503121561184e57600080fd5b823561185981611549565b9150602083013567ffffffffffffffff8082111561187657600080fd5b908401906060828703121561188a57600080fd5b611892611627565b8235828111156118a157600080fd5b830161012081890312156118b457600080fd5b6118bc61164a565b6118c582611561565b8152602082013560208201526040820135848111156118e357600080fd5b6118ef8a8285016116c7565b60408301525060608201358481111561190757600080fd5b6119138a8285016116c7565b60608301525060808201358481111561192b57600080fd5b6119378a8285016116c7565b60808301525060a08201358481111561194f57600080fd5b61195b8a8285016116c7565b60a08301525060c08201358481111561197357600080fd5b61197f8a8285016116c7565b60c08301525060e082013560e082015261010061199d81840161172b565b908201528252506020830135828111156119b657600080fd5b6119c288828601611736565b602083015250604083013560408201528093505050509250929050565b60005b838110156119fa5781810151838201526020016119e2565b50506000910152565b60008151808452611a1b8160208601602086016119df565b601f01601f19169290920160200192915050565b6000610160825184526020830151602085015260408301516040850152606083015160608501526080830151816080860152611a6d82860182611a03565b91505060a083015184820360a0860152611a878282611a03565b91505060c083015184820360c0860152611aa18282611a03565b91505060e083015184820360e0860152611abb8282611a03565b61010085810151908701526101208086015190870152610140948501519490950193909352509192915050565b6000815160608452611b066060850182516001600160a01b03169052565b6020810151608085015260408101516101208060a0870152611b2c610180870183611a03565b91506060830151605f19808885030160c0890152611b4a8483611a03565b935060808501519150808885030160e0890152611b678483611a03565b935060a085015191506101008189860301818a0152611b868584611a03565b945060c086015192508189860301848a0152611ba28584611a03565b60e08701516101408b01529501518015156101608a0152949350611bc592505050565b602084015191508481036020860152611bde8183611a2f565b915050604083015160408501528091505092915050565b6020815260006115c76020830184611ae8565b600060208284031215611c1a57600080fd5b5035919050565b600060208284031215611c3357600080fd5b81516115c781611549565b600060208284031215611c5057600080fd5b5051919050565b606081526000611c6a6060830186611ae8565b6001600160a01b0394851660208401529290931660409091015292915050565b805161156c8161171d565b600060208284031215611ca757600080fd5b81516115c78161171d565b805161156c81611549565b600082601f830112611cce57600080fd5b8151611cdc6116e68261169f565b818152846020838601011115611cf157600080fd5b6113a78260208301602087016119df565b60006101608284031215611d1557600080fd5b611d1d6115fd565b905081518152602082015160208201526040820151604082015260608201516060820152608082015167ffffffffffffffff80821115611d5c57600080fd5b611d6885838601611cbd565b608084015260a0840151915080821115611d8157600080fd5b611d8d85838601611cbd565b60a084015260c0840151915080821115611da657600080fd5b611db285838601611cbd565b60c084015260e0840151915080821115611dcb57600080fd5b50611dd884828501611cbd565b60e083015250610100828101519082015261012080830151908201526101409182015191810191909152919050565b600060208284031215611e1957600080fd5b815167ffffffffffffffff80821115611e3157600080fd5b9083019060608286031215611e4557600080fd5b611e4d611627565b825182811115611e5c57600080fd5b83016101208188031215611e6f57600080fd5b611e7761164a565b611e8082611cb2565b815260208201516020820152604082015184811115611e9e57600080fd5b611eaa89828501611cbd565b604083015250606082015184811115611ec257600080fd5b611ece89828501611cbd565b606083015250608082015184811115611ee657600080fd5b611ef289828501611cbd565b60808301525060a082015184811115611f0a57600080fd5b611f1689828501611cbd565b60a08301525060c082015184811115611f2e57600080fd5b611f3a89828501611cbd565b60c08301525060e082015160e0820152610100611f58818401611c8a565b90820152825250602083015182811115611f7157600080fd5b611f7d87828601611d02565b602083015250604083015160408201528093505050509291505056fe608060405234801561001057600080fd5b50610587806100206000396000f3fe608060405234801561001057600080fd5b506004361061007d5760003560e01c8063af9958461161005b578063af99584614610100578063c3e00aff1461011d578063ce8dd29f1461012e578063fdaef4831461016b57600080fd5b80635745ab981461008257806360749724146100c157806364ff6bbe146100eb575b600080fd5b6100bf6100903660046102d9565b6000805473ffffffffffffffffffffffffffffffffffffffff19166001600160a01b0392909216919091179055565b005b6000546001600160a01b03165b6040516001600160a01b0390911681526020015b60405180910390f35b6100f36101b2565b6040516100e2919061034d565b600154600160a01b900460ff1660405190151581526020016100e2565b6001546001600160a01b03166100ce565b6100bf61013c3660046102d9565b6001805473ffffffffffffffffffffffffffffffffffffffff19166001600160a01b0392909216919091179055565b6100bf6101793660046103c7565b60018054911515600160a01b027fffffffffffffffffffffff00ffffffffffffffffffffffffffffffffffffffff909216919091179055565b6101ba610275565b60408051606081018252600080546001600160a01b03908116835260015484517fea1a6f29000000000000000000000000000000000000000000000000000000008152945193946020860194919092169263ea1a6f2992600480820193918290030181865afa158015610231573d6000803e3d6000fd5b505050506040513d6000823e601f3d908101601f1916820160405261025991908101906104a0565b8152600154600160a01b900460ff161515602090910152919050565b604051806060016040528060006001600160a01b031681526020016102b460405180606001604052806000815260200160608152602001606081525090565b8152600060209091015290565b6001600160a01b03811681146102d657600080fd5b50565b6000602082840312156102eb57600080fd5b81356102f6816102c1565b9392505050565b60005b83811015610318578181015183820152602001610300565b50506000910152565b600081518084526103398160208601602086016102fd565b601f01601f19169290920160200192915050565b602081526001600160a01b0382511660208201526000602083015160606040840152805160808401526020810151606060a085015261038f60e0850182610321565b905060408201519150607f198482030160c08501526103ae8183610321565b9150506040840151151560608401528091505092915050565b6000602082840312156103d957600080fd5b813580151581146102f657600080fd5b7f4e487b7100000000000000000000000000000000000000000000000000000000600052604160045260246000fd5b600082601f83011261042957600080fd5b815167ffffffffffffffff80821115610444576104446103e9565b604051601f8301601f19908116603f0116810190828211818310171561046c5761046c6103e9565b8160405283815286602085880101111561048557600080fd5b6104968460208301602089016102fd565b9695505050505050565b6000602082840312156104b257600080fd5b815167ffffffffffffffff808211156104ca57600080fd5b90830190606082860312156104de57600080fd5b6040516060810181811083821117156104f9576104f96103e9565b6040528251815260208301518281111561051257600080fd5b61051e87828601610418565b60208301525060408301518281111561053657600080fd5b61054287828601610418565b6040830152509594505050505056fea264697066735822122099675eb40c3893a2379ad8e8146633f0f6cb5558ed7b4a12483277489150f8bb64736f6c63430008110033608060405234801561001057600080fd5b50611b83806100206000396000f3fe608060405234801561001057600080fd5b50600436106101ae5760003560e01c806378c7e292116100ee578063b2f9ccbb11610097578063d0e0ba9511610071578063d0e0ba95146103ae578063d1e360ff146103c1578063eacd3b93146103f1578063ef974e80146103f957600080fd5b8063b2f9ccbb1461038b578063c461d52e14610393578063cc9f930e1461039b57600080fd5b80638ba68607116100c85780638ba686071461035f57806399355ed8146103705780639ac9abd01461038357600080fd5b806378c7e292146102f05780637d5c30321461033757806383cb77b01461034c57600080fd5b80635745ab981161015b578063607497241161013557806360749724146102945780636d07d7e3146102b957806371b7a9ba146102ca578063765fe099146102dd57600080fd5b80635745ab981461023e57806359d1cfd61461026e5780635d1ca6311461028357600080fd5b80633ca452b91161018c5780633ca452b9146102035780634e8c23ca14610218578063551a5cfa1461022b57600080fd5b806303c5e52a146101b357806328fd4873146101d15780633c3c069f146101e6575b600080fd5b6101bb610429565b6040516101c8919061135b565b60405180910390f35b6101e46101df366004611489565b610722565b005b600754600160a01b900460ff1660405190151581526020016101c8565b61020b610732565b6040516101c891906114c6565b6101e4610226366004611489565b6107c4565b6101e4610239366004611489565b6107d0565b6101e461024c366004611501565b600080546001600160a01b0319166001600160a01b0392909216919091179055565b6102766107dc565b6040516101c891906115e4565b6001546040519081526020016101c8565b6000546001600160a01b03165b6040516001600160a01b0390911681526020016101c8565b6008546001600160a01b03166102a1565b6101e46102d836600461185f565b610b1b565b6101e46102eb36600461191d565b610bea565b6101e46102fe36600461196f565b60078054911515600160a01b027fffffffffffffffffffffff00ffffffffffffffffffffffffffffffffffffffff909216919091179055565b61033f610cb7565b6040516101c8919061198a565b6101e461035a366004611489565b61109a565b6007546001600160a01b03166102a1565b6101e461037e36600461199d565b6110a6565b61020b611140565b61020b61114f565b61020b61115e565b6101e46103a9366004611489565b61116d565b6101e46103bc3660046119d2565b600155565b6101e46103cf366004611501565b600780546001600160a01b0319166001600160a01b0392909216919091179055565b61020b611179565b6101e4610407366004611501565b600880546001600160a01b0319166001600160a01b0392909216919091179055565b61048660405180610160016040528060008152602001600081526020016000815260200160008152602001606081526020016060815260200160608152602001606081526020016000815260200160008152602001600081525090565b6040805161016081018252600980548252600a546020830152600b5492820192909252600c546060820152600d80549192916080840191906104c7906119eb565b80601f01602080910402602001604051908101604052809291908181526020018280546104f3906119eb565b80156105405780601f1061051557610100808354040283529160200191610540565b820191906000526020600020905b81548152906001019060200180831161052357829003601f168201915b50505050508152602001600582018054610559906119eb565b80601f0160208091040260200160405190810160405280929190818152602001828054610585906119eb565b80156105d25780601f106105a7576101008083540402835291602001916105d2565b820191906000526020600020905b8154815290600101906020018083116105b557829003601f168201915b505050505081526020016006820180546105eb906119eb565b80601f0160208091040260200160405190810160405280929190818152602001828054610617906119eb565b80156106645780601f1061063957610100808354040283529160200191610664565b820191906000526020600020905b81548152906001019060200180831161064757829003601f168201915b5050505050815260200160078201805461067d906119eb565b80601f01602080910402602001604051908101604052809291908181526020018280546106a9906119eb565b80156106f65780601f106106cb576101008083540402835291602001916106f6565b820191906000526020600020905b8154815290600101906020018083116106d957829003601f168201915b505050505081526020016008820154815260200160098201548152602001600a82015481525050905090565b600661072e8282611a74565b5050565b606060028054610741906119eb565b80601f016020809104026020016040519081016040528092919081815260200182805461076d906119eb565b80156107ba5780601f1061078f576101008083540402835291602001916107ba565b820191906000526020600020905b81548152906001019060200180831161079d57829003601f168201915b5050505050905090565b600561072e8282611a74565b600361072e8282611a74565b6107e4611188565b60405180606001604052806107f7610cb7565b815260200160096040518061016001604052908160008201548152602001600182015481526020016002820154815260200160038201548152602001600482018054610842906119eb565b80601f016020809104026020016040519081016040528092919081815260200182805461086e906119eb565b80156108bb5780601f10610890576101008083540402835291602001916108bb565b820191906000526020600020905b81548152906001019060200180831161089e57829003601f168201915b505050505081526020016005820180546108d4906119eb565b80601f0160208091040260200160405190810160405280929190818152602001828054610900906119eb565b801561094d5780601f106109225761010080835404028352916020019161094d565b820191906000526020600020905b81548152906001019060200180831161093057829003601f168201915b50505050508152602001600682018054610966906119eb565b80601f0160208091040260200160405190810160405280929190818152602001828054610992906119eb565b80156109df5780601f106109b4576101008083540402835291602001916109df565b820191906000526020600020905b8154815290600101906020018083116109c257829003601f168201915b505050505081526020016007820180546109f8906119eb565b80601f0160208091040260200160405190810160405280929190818152602001828054610a24906119eb565b8015610a715780601f10610a4657610100808354040283529160200191610a71565b820191906000526020600020905b815481529060010190602001808311610a5457829003601f168201915b505050505081526020016008820154815260200160098201548152602001600a820154815250508152602001600860009054906101000a90046001600160a01b03166001600160a01b0316635d1ca6316040518163ffffffff1660e01b8152600401602060405180830381865afa158015610af0573d6000803e3d6000fd5b505050506040513d601f19601f82011682018060405250810190610b149190611b34565b9052919050565b8251610b279082610bea565b6020808401518051600990815591810151600a556040810151600b556060810151600c556080810151909190600d90610b609082611a74565b5060a08201516005820190610b759082611a74565b5060c08201516006820190610b8a9082611a74565b5060e08201516007820190610b9f9082611a74565b50610100820151600882810191909155610120830151600983015561014090920151600a9091015580546001600160a01b0319166001600160a01b0393909316929092179091555050565b60208201516001556040820151600290610c049082611a74565b506060820151600390610c179082611a74565b506080820151600490610c2a9082611a74565b5060a0820151600590610c3d9082611a74565b5060c0820151600690610c509082611a74565b50610100820151600780547fffffffffffffffffffffff00000000000000000000000000000000000000000016600160a01b921515929092026001600160a01b0319908116929092176001600160a01b039384161790559151600080549093169116179055565b610d1160405180610120016040528060006001600160a01b03168152602001600081526020016060815260200160608152602001606081526020016060815260200160608152602001600081526020016000151581525090565b60408051610120810182526000546001600160a01b031681526001546020820152600280549192830191610d44906119eb565b80601f0160208091040260200160405190810160405280929190818152602001828054610d70906119eb565b8015610dbd5780601f10610d9257610100808354040283529160200191610dbd565b820191906000526020600020905b815481529060010190602001808311610da057829003601f168201915b5050505050815260200160038054610dd4906119eb565b80601f0160208091040260200160405190810160405280929190818152602001828054610e00906119eb565b8015610e4d5780601f10610e2257610100808354040283529160200191610e4d565b820191906000526020600020905b815481529060010190602001808311610e3057829003601f168201915b5050505050815260200160048054610e64906119eb565b80601f0160208091040260200160405190810160405280929190818152602001828054610e90906119eb565b8015610edd5780601f10610eb257610100808354040283529160200191610edd565b820191906000526020600020905b815481529060010190602001808311610ec057829003601f168201915b5050505050815260200160058054610ef4906119eb565b80601f0160208091040260200160405190810160405280929190818152602001828054610f20906119eb565b8015610f6d5780601f10610f4257610100808354040283529160200191610f6d565b820191906000526020600020905b815481529060010190602001808311610f5057829003601f168201915b5050505050815260200160068054610f84906119eb565b80601f0160208091040260200160405190810160405280929190818152602001828054610fb0906119eb565b8015610ffd5780601f10610fd257610100808354040283529160200191610ffd565b820191906000526020600020905b815481529060010190602001808311610fe057829003601f168201915b50505050508152602001600760009054906101000a90046001600160a01b03166001600160a01b0316635d1ca6316040518163ffffffff1660e01b8152600401602060405180830381865afa15801561105a573d6000803e3d6000fd5b505050506040513d601f19601f8201168201806040525081019061107e9190611b34565b8152600754600160a01b900460ff161515602090910152919050565b600261072e8282611a74565b805160099081556020820151600a556040820151600b556060820151600c556080820151829190600d906110da9082611a74565b5060a082015160058201906110ef9082611a74565b5060c082015160068201906111049082611a74565b5060e082015160078201906111199082611a74565b506101008201516008820155610120820151600982015561014090910151600a9091015550565b606060068054610741906119eb565b606060038054610741906119eb565b606060048054610741906119eb565b600461072e8282611a74565b606060058054610741906119eb565b60405180606001604052806111ed60405180610120016040528060006001600160a01b03168152602001600081526020016060815260200160608152602001606081526020016060815260200160608152602001600081526020016000151581525090565b815260200161124f60405180610160016040528060008152602001600081526020016000815260200160008152602001606081526020016060815260200160608152602001606081526020016000815260200160008152602001600081525090565b8152602001600081525090565b6000815180845260005b8181101561128257602081850181015186830182015201611266565b506000602082860101526020601f19601f83011685010191505092915050565b60006101608251845260208301516020850152604083015160408501526060830151606085015260808301518160808601526112e08286018261125c565b91505060a083015184820360a08601526112fa828261125c565b91505060c083015184820360c0860152611314828261125c565b91505060e083015184820360e086015261132e828261125c565b61010085810151908701526101208086015190870152610140948501519490950193909352509192915050565b60208152600061136e60208301846112a2565b9392505050565b634e487b7160e01b600052604160045260246000fd5b604051610120810167ffffffffffffffff811182821017156113af576113af611375565b60405290565b604051610160810167ffffffffffffffff811182821017156113af576113af611375565b6040516060810167ffffffffffffffff811182821017156113af576113af611375565b600082601f83011261140d57600080fd5b813567ffffffffffffffff8082111561142857611428611375565b604051601f8301601f19908116603f0116810190828211818310171561145057611450611375565b8160405283815286602085880101111561146957600080fd5b836020870160208301376000602085830101528094505050505092915050565b60006020828403121561149b57600080fd5b813567ffffffffffffffff8111156114b257600080fd5b6114be848285016113fc565b949350505050565b60208152600061136e602083018461125c565b6001600160a01b03811681146114ee57600080fd5b50565b80356114fc816114d9565b919050565b60006020828403121561151357600080fd5b813561136e816114d9565b80516001600160a01b0316825260006101206020830151602085015260408301518160408601526115518286018261125c565b9150506060830151848203606086015261156b828261125c565b91505060808301518482036080860152611585828261125c565b91505060a083015184820360a086015261159f828261125c565b91505060c083015184820360c08601526115b9828261125c565b91505060e083015160e0850152610100808401516115da8287018215159052565b5090949350505050565b602081526000825160606020840152611600608084018261151e565b90506020840151601f1984830301604085015261161d82826112a2565b915050604084015160608401528091505092915050565b803580151581146114fc57600080fd5b6000610120828403121561165757600080fd5b61165f61138b565b905061166a826114f1565b815260208201356020820152604082013567ffffffffffffffff8082111561169157600080fd5b61169d858386016113fc565b604084015260608401359150808211156116b657600080fd5b6116c2858386016113fc565b606084015260808401359150808211156116db57600080fd5b6116e7858386016113fc565b608084015260a084013591508082111561170057600080fd5b61170c858386016113fc565b60a084015260c084013591508082111561172557600080fd5b50611732848285016113fc565b60c08301525060e082013560e0820152610100611750818401611634565b9082015292915050565b6000610160828403121561176d57600080fd5b6117756113b5565b905081358152602082013560208201526040820135604082015260608201356060820152608082013567ffffffffffffffff808211156117b457600080fd5b6117c0858386016113fc565b608084015260a08401359150808211156117d957600080fd5b6117e5858386016113fc565b60a084015260c08401359150808211156117fe57600080fd5b61180a858386016113fc565b60c084015260e084013591508082111561182357600080fd5b50611830848285016113fc565b60e083015250610100828101359082015261012080830135908201526101409182013591810191909152919050565b60008060006060848603121561187457600080fd5b833567ffffffffffffffff8082111561188c57600080fd5b90850190606082880312156118a057600080fd5b6118a86113d9565b8235828111156118b757600080fd5b6118c389828601611644565b8252506020830135828111156118d857600080fd5b6118e48982860161175a565b60208301525060408301356040820152809550505050611906602085016114f1565b9150611914604085016114f1565b90509250925092565b6000806040838503121561193057600080fd5b823567ffffffffffffffff81111561194757600080fd5b61195385828601611644565b9250506020830135611964816114d9565b809150509250929050565b60006020828403121561198157600080fd5b61136e82611634565b60208152600061136e602083018461151e565b6000602082840312156119af57600080fd5b813567ffffffffffffffff8111156119c657600080fd5b6114be8482850161175a565b6000602082840312156119e457600080fd5b5035919050565b600181811c908216806119ff57607f821691505b602082108103611a1f57634e487b7160e01b600052602260045260246000fd5b50919050565b601f821115611a6f57600081815260208120601f850160051c81016020861015611a4c5750805b601f850160051c820191505b81811015611a6b57828155600101611a58565b5050505b505050565b815167ffffffffffffffff811115611a8e57611a8e611375565b611aa281611a9c84546119eb565b84611a25565b602080601f831160018114611ad75760008415611abf5750858301515b600019600386901b1c1916600185901b178555611a6b565b600085815260208120601f198616915b82811015611b0657888601518255948401946001909101908401611ae7565b5085821015611b245787850151600019600388901b60f8161c191681555b5050505050600190811b01905550565b600060208284031215611b4657600080fd5b505191905056fea2646970667358221220f8143987da7297435dd86e9b7ee243c05e4cc17119eb46476eb24c3cdceabb3f64736f6c63430008110033a2646970667358221220d1e533cc2d198c52522421db1fd1de632b302c33cc3e59b3d66fe444ca4b5f5a64736f6c63430008110033",
  "immutableReferences": {},
  "source": "// SPDX-License-Identifier: MIT\npragma solidity ^0.8.17;\n\n//import \"./Persona.sol\";\nimport \"../models/PacienteVO.sol\";\nimport \"../persistence/PacienteMapper.sol\";\nimport \"./Acceso.sol\";\nimport \"../persistence/DatosParametricosMapper.sol\";\nimport \"../persistence/DatosParametricosMapperInterface.sol\";\n\ncontract Paciente {\n    event Log(string data);\n    address public creador;\n\n    PacienteMapperInterface private pacienteMapper;\n    RolMapperInterface private rolMapper;\n    UsuarioMapperInterface private usuarioMapper;\n    DatosParametricosMapperInterface private datosParametricosMapper;\n    Acceso private acceso;\n\n    //TODO Convertir eventualmente en un enum\n    uint256 rolPacienteId = 0;\n\n    constructor() {\n        creador = msg.sender; // creador del contrato\n    }\n\n    // Puede el medico\n    // tieneAcceso(1)\n    function consultar(address direccion)\n        public        \n        returns (PacienteVO.PacienteVOStruct memory)\n    {\n        emit Log(\"Entro a consultar Paciente\");\n        return pacienteMapper.consultar(direccion).getPacienteVOValue();\n    }\n\n    // TODO Agregar a diagrama\n    // Solo lo puede usar el paciente\n    function consultar()\n        public\n        tieneAcceso(2)\n        returns (PacienteVO.PacienteVOStruct memory)\n    {\n        emit Log(\"Entro a consultar miInformacion paciente\");\n        return pacienteMapper.consultar(msg.sender).getPacienteVOValue();\n    }\n\n    // TODO: Solo lo puede usar el medico\n    function consultarPorId(uint256 id)\n        public\n        tieneAcceso(2)\n        returns (PacienteVO.PacienteVOStruct memory)\n    {\n        emit Log(\"Entro a consultar miInformacion paciente\");        \n        return pacienteMapper.consultarPorId(id).getPacienteVOValue();\n    }\n\n    // TODO: validar que pasa si falla el registro de persona\n    // TODO: que pasa si falla guardar paciente?\n    //tieneAcceso(2)\n    function registrar(address direccion, PacienteVO paciente) public {\n        if (direccion != msg.sender) {\n            revert(\"Un paciente se debe registrar a si mismo\");\n        }\n\n        RolVO rol = rolMapper.consultar(rolPacienteId);\n        UsuarioVO nuevoUsuario = new UsuarioVO();\n        nuevoUsuario.setDireccion(direccion);\n        nuevoUsuario.setRol(rol);\n        nuevoUsuario.setEstaActivo(true);\n        usuarioMapper.guardar(direccion, nuevoUsuario);\n        pacienteMapper.guardar(direccion, paciente);\n        // TODO Crear HC\n    }\n\n    // TODO: validar que pasa si falla el registro de persona\n    // TODO: que pasa si falla guardar paciente?\n    //tieneAcceso(2)\n    function registrarConStruct(\n        address direccion,\n        PacienteVO.PacienteVOStruct memory pacienteVOStruct\n    ) public {\n        PacienteVO pacienteVO = new PacienteVO();\n        EstadoVO estadoVO = datosParametricosMapper.consultarEstadoVO(\n            pacienteVOStruct.estadoId\n        );\n        TipoIdentificacionVO _tipoIdentificacionVO = datosParametricosMapper\n            .consultarTipoIdentificacionVO(\n                pacienteVOStruct.persona.tipoIdentificacion\n            );\n\n        pacienteVO.setValuesOfPacienteVOStruct(\n            pacienteVOStruct,\n            estadoVO,\n            _tipoIdentificacionVO\n        );\n        registrar(direccion, pacienteVO);\n    }\n\n    /*\n    // TODO: Discutir si un mdico debe actualizar al paciente (nombre y demas)\n    // TODO: Sollo se podria acceder con el acceso que da el paciente sobre su info\n    function actualizar(address direccion, PacienteVO paciente)\n        public\n        tieneAcceso(3)\n    {\n        if (direccion != msg.sender) {\n            // si alguien diferente al propietario de la historia la consulta se debe validar quien es\n            // validar quien consulta\n            revert(\"No tiene permisos de actualizar\");\n        }\n        // bloquear actualizacin de estado\n        pacienteMapper.actualizar(direccion, paciente);\n    }\n    */\n\n    function actualizar(PacienteVO paciente) public tieneAcceso(3) {\n        // bloquear actualizacin de estado\n        pacienteMapper.actualizar(msg.sender, paciente);\n    }\n\n    // TODO: poner modificador para que solo lo pueda ejecutar el service y\n    // en el service que solo lo ejecute un mdico\n    // TODO: Debe usar el permiso que da el paciente\n    function cambiarEstado(address _direccion, EstadoVO _estado)\n        public\n        tieneAcceso(4)\n    {\n        PacienteVO paciente = pacienteMapper.consultar(_direccion);\n        paciente.setEstado(_estado);\n        pacienteMapper.actualizar(_direccion, paciente);\n    }\n\n    function setPacienteMapper(PacienteMapperInterface _pacienteMapperAddress)\n        public\n        esPropietario\n    {\n        pacienteMapper = _pacienteMapperAddress;\n    }\n\n    function setRolMapper(RolMapperInterface _rolMapperAddress)\n        public\n        esPropietario\n    {\n        rolMapper = _rolMapperAddress;\n    }\n\n    function setUsuarioMapper(UsuarioMapperInterface _usuarioMapperAddress)\n        public\n        esPropietario\n    {\n        usuarioMapper = _usuarioMapperAddress;\n    }\n\n    function setDatosParametricosMapper(\n        DatosParametricosMapperInterface _datosParametricosMapperAddress\n    ) public esPropietario {\n        datosParametricosMapper = _datosParametricosMapperAddress;\n    }\n\n    function setAcceso(Acceso _accesoAddress) public esPropietario {\n        acceso = _accesoAddress;\n    }\n\n    modifier esPropietario() {\n        require(\n            msg.sender == creador,\n            \"Esta funcion solo puede ser ejecutada por el creador del contrato\"\n        );\n        _; // ac se ejecuta la funcin\n    }\n\n    function selfDestruct() public esPropietario {\n        selfdestruct(payable(creador));\n    }\n\n    modifier tieneAcceso(uint256 permisoId) {\n        bool esAccesible = acceso.validarPermisoDeRol(msg.sender, permisoId);\n        require(esAccesible, \"El usuario no tiene acceso\");\n        _; // ac se ejecuta la funcin\n    }\n}\n",
  "sourcePath": "/home/felipe/Documentos/Blockchain/codigo/back-hce/contracts/logica/Paciente.sol",
  "compiler": {
    "name": "solc",
    "version": "0.8.17+commit.8df45f5f.Emscripten.clang"
  },
  "schemaVersion": "3.4.8",
  "updatedAt": "2022-09-26T02:47:27.866Z",
  "devdoc": {
    "kind": "dev",
    "methods": {},
    "version": 1
  },
  "userdoc": {
    "kind": "user",
    "methods": {},
    "version": 1
  }
}