{
  "contractName": "PacienteService",
  "abi": [
    {
      "inputs": [],
      "stateMutability": "nonpayable",
      "type": "constructor"
    },
    {
      "anonymous": false,
      "inputs": [
        {
          "indexed": false,
          "internalType": "string",
          "name": "data",
          "type": "string"
        }
      ],
      "name": "Log",
      "type": "event"
    },
    {
      "inputs": [],
      "name": "ContratoAccesoServiceAddress",
      "outputs": [
        {
          "internalType": "address",
          "name": "",
          "type": "address"
        }
      ],
      "stateMutability": "view",
      "type": "function",
      "constant": true
    },
    {
      "inputs": [],
      "name": "ContratoPacienteAddress",
      "outputs": [
        {
          "internalType": "address",
          "name": "",
          "type": "address"
        }
      ],
      "stateMutability": "view",
      "type": "function",
      "constant": true
    },
    {
      "inputs": [],
      "name": "creador",
      "outputs": [
        {
          "internalType": "address",
          "name": "",
          "type": "address"
        }
      ],
      "stateMutability": "view",
      "type": "function",
      "constant": true
    },
    {
      "inputs": [
        {
          "internalType": "address",
          "name": "direccion",
          "type": "address"
        },
        {
          "internalType": "string",
          "name": "estado",
          "type": "string"
        }
      ],
      "name": "cambiarEstado",
      "outputs": [
        {
          "internalType": "bool",
          "name": "",
          "type": "bool"
        }
      ],
      "stateMutability": "nonpayable",
      "type": "function"
    },
    {
      "inputs": [
        {
          "components": [
            {
              "components": [
                {
                  "internalType": "string",
                  "name": "primerNombre",
                  "type": "string"
                },
                {
                  "internalType": "string",
                  "name": "segundoNombre",
                  "type": "string"
                },
                {
                  "internalType": "string",
                  "name": "primerApellido",
                  "type": "string"
                },
                {
                  "internalType": "string",
                  "name": "segundoApellido",
                  "type": "string"
                },
                {
                  "internalType": "string",
                  "name": "identificacion",
                  "type": "string"
                },
                {
                  "components": [
                    {
                      "internalType": "string",
                      "name": "nombre",
                      "type": "string"
                    },
                    {
                      "internalType": "string",
                      "name": "descripcion",
                      "type": "string"
                    },
                    {
                      "internalType": "bool",
                      "name": "estaActiva",
                      "type": "bool"
                    }
                  ],
                  "internalType": "struct TipoIdentificacionStruct",
                  "name": "tipoIdentificacionId",
                  "type": "tuple"
                },
                {
                  "internalType": "uint256",
                  "name": "rolId",
                  "type": "uint256"
                },
                {
                  "internalType": "bool",
                  "name": "isValue",
                  "type": "bool"
                }
              ],
              "internalType": "struct PersonaStruct",
              "name": "persona",
              "type": "tuple"
            },
            {
              "components": [
                {
                  "internalType": "string",
                  "name": "estado",
                  "type": "string"
                },
                {
                  "internalType": "string",
                  "name": "datosPersonales",
                  "type": "string"
                },
                {
                  "internalType": "bool",
                  "name": "isValue",
                  "type": "bool"
                }
              ],
              "internalType": "struct PacienteStruct",
              "name": "paciente",
              "type": "tuple"
            }
          ],
          "internalType": "struct Paciente.PersonaPacienteStruct",
          "name": "personaPaciente",
          "type": "tuple"
        }
      ],
      "name": "registrar",
      "outputs": [],
      "stateMutability": "nonpayable",
      "type": "function"
    },
    {
      "inputs": [
        {
          "internalType": "address",
          "name": "direccion",
          "type": "address"
        }
      ],
      "name": "consultar",
      "outputs": [
        {
          "components": [
            {
              "components": [
                {
                  "internalType": "string",
                  "name": "primerNombre",
                  "type": "string"
                },
                {
                  "internalType": "string",
                  "name": "segundoNombre",
                  "type": "string"
                },
                {
                  "internalType": "string",
                  "name": "primerApellido",
                  "type": "string"
                },
                {
                  "internalType": "string",
                  "name": "segundoApellido",
                  "type": "string"
                },
                {
                  "internalType": "string",
                  "name": "identificacion",
                  "type": "string"
                },
                {
                  "components": [
                    {
                      "internalType": "string",
                      "name": "nombre",
                      "type": "string"
                    },
                    {
                      "internalType": "string",
                      "name": "descripcion",
                      "type": "string"
                    },
                    {
                      "internalType": "bool",
                      "name": "estaActiva",
                      "type": "bool"
                    }
                  ],
                  "internalType": "struct TipoIdentificacionStruct",
                  "name": "tipoIdentificacionId",
                  "type": "tuple"
                },
                {
                  "internalType": "uint256",
                  "name": "rolId",
                  "type": "uint256"
                },
                {
                  "internalType": "bool",
                  "name": "isValue",
                  "type": "bool"
                }
              ],
              "internalType": "struct PersonaStruct",
              "name": "persona",
              "type": "tuple"
            },
            {
              "components": [
                {
                  "internalType": "string",
                  "name": "estado",
                  "type": "string"
                },
                {
                  "internalType": "string",
                  "name": "datosPersonales",
                  "type": "string"
                },
                {
                  "internalType": "bool",
                  "name": "isValue",
                  "type": "bool"
                }
              ],
              "internalType": "struct PacienteStruct",
              "name": "paciente",
              "type": "tuple"
            }
          ],
          "internalType": "struct Paciente.PersonaPacienteStruct",
          "name": "",
          "type": "tuple"
        }
      ],
      "stateMutability": "nonpayable",
      "type": "function"
    },
    {
      "inputs": [
        {
          "internalType": "address",
          "name": "direccion",
          "type": "address"
        }
      ],
      "name": "setContratoAccesoService",
      "outputs": [],
      "stateMutability": "nonpayable",
      "type": "function"
    },
    {
      "inputs": [
        {
          "internalType": "address",
          "name": "direccion",
          "type": "address"
        }
      ],
      "name": "setContratoPaciente",
      "outputs": [],
      "stateMutability": "nonpayable",
      "type": "function"
    },
    {
      "inputs": [],
      "name": "selfDestruct",
      "outputs": [],
      "stateMutability": "nonpayable",
      "type": "function"
    }
  ],
  "bytecode": "0x608060405234801561001057600080fd5b50336000806101000a81548173ffffffffffffffffffffffffffffffffffffffff021916908373ffffffffffffffffffffffffffffffffffffffff160217905550611e1b806100606000396000f3fe608060405234801561001057600080fd5b50600436106100935760003560e01c806390ceee281161006657806390ceee281461013257806392ebdcd21461014e5780639cb8a26a1461016c578063aa62eb8014610176578063bd416ae21461019457610093565b8063059762c3146100985780634652d829146100b45780637580a026146100d25780637da8f6a514610102575b600080fd5b6100b260048036038101906100ad91906110e5565b6101b0565b005b6100bc610242565b6040516100c9919061116f565b60405180910390f35b6100ec60048036038101906100e791906111b6565b610268565b6040516100f99190611221565b60405180910390f35b61011c6004803603810190610117919061123c565b61049d565b60405161012991906114d4565b60405180910390f35b61014c6004803603810190610147919061123c565b6107ad565b005b6101566108e2565b604051610163919061116f565b60405180910390f35b610174610906565b005b61017e6109cd565b60405161018b919061116f565b60405180910390f35b6101ae60048036038101906101a9919061123c565b6109f3565b005b600460009054906101000a900473ffffffffffffffffffffffffffffffffffffffff1673ffffffffffffffffffffffffffffffffffffffff166397e2cd6f33836040518363ffffffff1660e01b815260040161020d9291906114f6565b600060405180830381600087803b15801561022757600080fd5b505af115801561023b573d6000803e3d6000fd5b5050505050565b600260009054906101000a900473ffffffffffffffffffffffffffffffffffffffff1681565b600080600360009054906101000a900473ffffffffffffffffffffffffffffffffffffffff1673ffffffffffffffffffffffffffffffffffffffff1663ba542708336040518263ffffffff1660e01b81526004016102c6919061116f565b6020604051808303816000875af11580156102e5573d6000803e3d6000fd5b505050506040513d601f19601f82011682018060405250810190610309919061153b565b90506001811461034e576040517f08c379a0000000000000000000000000000000000000000000000000000000008152600401610345906115eb565b60405180910390fd5b6000600460009054906101000a900473ffffffffffffffffffffffffffffffffffffffff1673ffffffffffffffffffffffffffffffffffffffff16637da8f6a5866040518263ffffffff1660e01b81526004016103ab919061116f565b6000604051808303816000875af11580156103ca573d6000803e3d6000fd5b505050506040513d6000823e3d601f19601f820116820180604052508101906103f391906119c2565b905083816020015160000181905250600460009054906101000a900473ffffffffffffffffffffffffffffffffffffffff1673ffffffffffffffffffffffffffffffffffffffff1663f14bc4548683602001516040518363ffffffff1660e01b8152600401610463929190611a62565b600060405180830381600087803b15801561047d57600080fd5b505af1158015610491573d6000803e3d6000fd5b50505050505092915050565b6104a5610b28565b818073ffffffffffffffffffffffffffffffffffffffff163373ffffffffffffffffffffffffffffffffffffffff16146105c0576000600360009054906101000a900473ffffffffffffffffffffffffffffffffffffffff1673ffffffffffffffffffffffffffffffffffffffff1663ba542708336040518263ffffffff1660e01b8152600401610536919061116f565b6020604051808303816000875af1158015610555573d6000803e3d6000fd5b505050506040513d601f19601f82011682018060405250810190610579919061153b565b9050600181146105be576040517f08c379a00000000000000000000000000000000000000000000000000000000081526004016105b5906115eb565b60405180910390fd5b505b7fcf34ef537ac33ee1ac626ca1587a0a7e8e51561e5514f8cb36afa1c5102b3bab6040516105ed90611ade565b60405180910390a1600460009054906101000a900473ffffffffffffffffffffffffffffffffffffffff1673ffffffffffffffffffffffffffffffffffffffff16637da8f6a5846040518263ffffffff1660e01b8152600401610650919061116f565b6000604051808303816000875af192505050801561069157506040513d6000823e3d601f19601f8201168201806040525081019061068e91906119c2565b60015b6107685761069d611b0b565b806308c379a014156106f857506106b2611b2d565b806106bd57506106fa565b7fcf34ef537ac33ee1ac626ca1587a0a7e8e51561e5514f8cb36afa1c5102b3bab6040516106ea90611c35565b60405180910390a150610763565b505b3d8060008114610726576040519150601f19603f3d011682016040523d82523d6000602084013e61072b565b606091505b507fcf34ef537ac33ee1ac626ca1587a0a7e8e51561e5514f8cb36afa1c5102b3bab60405161075990611ca1565b60405180910390a1505b6107a6565b7fcf34ef537ac33ee1ac626ca1587a0a7e8e51561e5514f8cb36afa1c5102b3bab60405161079590611d0d565b60405180910390a1809250506107a7565b5b50919050565b60008054906101000a900473ffffffffffffffffffffffffffffffffffffffff1673ffffffffffffffffffffffffffffffffffffffff163373ffffffffffffffffffffffffffffffffffffffff161461083b576040517f08c379a000000000000000000000000000000000000000000000000000000000815260040161083290611dc5565b60405180910390fd5b80600260006101000a81548173ffffffffffffffffffffffffffffffffffffffff021916908373ffffffffffffffffffffffffffffffffffffffff160217905550600260009054906101000a900473ffffffffffffffffffffffffffffffffffffffff16600460006101000a81548173ffffffffffffffffffffffffffffffffffffffff021916908373ffffffffffffffffffffffffffffffffffffffff16021790555050565b60008054906101000a900473ffffffffffffffffffffffffffffffffffffffff1681565b60008054906101000a900473ffffffffffffffffffffffffffffffffffffffff1673ffffffffffffffffffffffffffffffffffffffff163373ffffffffffffffffffffffffffffffffffffffff1614610994576040517f08c379a000000000000000000000000000000000000000000000000000000000815260040161098b90611dc5565b60405180910390fd5b60008054906101000a900473ffffffffffffffffffffffffffffffffffffffff1673ffffffffffffffffffffffffffffffffffffffff16ff5b600160009054906101000a900473ffffffffffffffffffffffffffffffffffffffff1681565b60008054906101000a900473ffffffffffffffffffffffffffffffffffffffff1673ffffffffffffffffffffffffffffffffffffffff163373ffffffffffffffffffffffffffffffffffffffff1614610a81576040517f08c379a0000000000000000000000000000000000000000000000000000000008152600401610a7890611dc5565b60405180910390fd5b80600160006101000a81548173ffffffffffffffffffffffffffffffffffffffff021916908373ffffffffffffffffffffffffffffffffffffffff160217905550600160009054906101000a900473ffffffffffffffffffffffffffffffffffffffff16600360006101000a81548173ffffffffffffffffffffffffffffffffffffffff021916908373ffffffffffffffffffffffffffffffffffffffff16021790555050565b6040518060400160405280610b3b610b4e565b8152602001610b48610b9b565b81525090565b6040518061010001604052806060815260200160608152602001606081526020016060815260200160608152602001610b85610bbe565b8152602001600081526020016000151581525090565b604051806060016040528060608152602001606081526020016000151581525090565b604051806060016040528060608152602001606081526020016000151581525090565b6000604051905090565b600080fd5b600080fd5b600080fd5b6000601f19601f8301169050919050565b7f4e487b7100000000000000000000000000000000000000000000000000000000600052604160045260246000fd5b610c4382610bfa565b810181811067ffffffffffffffff82111715610c6257610c61610c0b565b5b80604052505050565b6000610c75610be1565b9050610c818282610c3a565b919050565b600080fd5b600080fd5b600080fd5b600067ffffffffffffffff821115610cb057610caf610c0b565b5b610cb982610bfa565b9050602081019050919050565b82818337600083830152505050565b6000610ce8610ce384610c95565b610c6b565b905082815260208101848484011115610d0457610d03610c90565b5b610d0f848285610cc6565b509392505050565b600082601f830112610d2c57610d2b610c8b565b5b8135610d3c848260208601610cd5565b91505092915050565b60008115159050919050565b610d5a81610d45565b8114610d6557600080fd5b50565b600081359050610d7781610d51565b92915050565b600060608284031215610d9357610d92610bf5565b5b610d9d6060610c6b565b9050600082013567ffffffffffffffff811115610dbd57610dbc610c86565b5b610dc984828501610d17565b600083015250602082013567ffffffffffffffff811115610ded57610dec610c86565b5b610df984828501610d17565b6020830152506040610e0d84828501610d68565b60408301525092915050565b6000819050919050565b610e2c81610e19565b8114610e3757600080fd5b50565b600081359050610e4981610e23565b92915050565b60006101008284031215610e6657610e65610bf5565b5b610e71610100610c6b565b9050600082013567ffffffffffffffff811115610e9157610e90610c86565b5b610e9d84828501610d17565b600083015250602082013567ffffffffffffffff811115610ec157610ec0610c86565b5b610ecd84828501610d17565b602083015250604082013567ffffffffffffffff811115610ef157610ef0610c86565b5b610efd84828501610d17565b604083015250606082013567ffffffffffffffff811115610f2157610f20610c86565b5b610f2d84828501610d17565b606083015250608082013567ffffffffffffffff811115610f5157610f50610c86565b5b610f5d84828501610d17565b60808301525060a082013567ffffffffffffffff811115610f8157610f80610c86565b5b610f8d84828501610d7d565b60a08301525060c0610fa184828501610e3a565b60c08301525060e0610fb584828501610d68565b60e08301525092915050565b600060608284031215610fd757610fd6610bf5565b5b610fe16060610c6b565b9050600082013567ffffffffffffffff81111561100157611000610c86565b5b61100d84828501610d17565b600083015250602082013567ffffffffffffffff81111561103157611030610c86565b5b61103d84828501610d17565b602083015250604061105184828501610d68565b60408301525092915050565b60006040828403121561107357611072610bf5565b5b61107d6040610c6b565b9050600082013567ffffffffffffffff81111561109d5761109c610c86565b5b6110a984828501610e4f565b600083015250602082013567ffffffffffffffff8111156110cd576110cc610c86565b5b6110d984828501610fc1565b60208301525092915050565b6000602082840312156110fb576110fa610beb565b5b600082013567ffffffffffffffff81111561111957611118610bf0565b5b6111258482850161105d565b91505092915050565b600073ffffffffffffffffffffffffffffffffffffffff82169050919050565b60006111598261112e565b9050919050565b6111698161114e565b82525050565b60006020820190506111846000830184611160565b92915050565b6111938161114e565b811461119e57600080fd5b50565b6000813590506111b08161118a565b92915050565b600080604083850312156111cd576111cc610beb565b5b60006111db858286016111a1565b925050602083013567ffffffffffffffff8111156111fc576111fb610bf0565b5b61120885828601610d17565b9150509250929050565b61121b81610d45565b82525050565b60006020820190506112366000830184611212565b92915050565b60006020828403121561125257611251610beb565b5b6000611260848285016111a1565b91505092915050565b600081519050919050565b600082825260208201905092915050565b60005b838110156112a3578082015181840152602081019050611288565b838111156112b2576000848401525b50505050565b60006112c382611269565b6112cd8185611274565b93506112dd818560208601611285565b6112e681610bfa565b840191505092915050565b6112fa81610d45565b82525050565b6000606083016000830151848203600086015261131d82826112b8565b9150506020830151848203602086015261133782826112b8565b915050604083015161134c60408601826112f1565b508091505092915050565b61136081610e19565b82525050565b600061010083016000830151848203600086015261138482826112b8565b9150506020830151848203602086015261139e82826112b8565b915050604083015184820360408601526113b882826112b8565b915050606083015184820360608601526113d282826112b8565b915050608083015184820360808601526113ec82826112b8565b91505060a083015184820360a08601526114068282611300565b91505060c083015161141b60c0860182611357565b5060e083015161142e60e08601826112f1565b508091505092915050565b6000606083016000830151848203600086015261145682826112b8565b9150506020830151848203602086015261147082826112b8565b915050604083015161148560408601826112f1565b508091505092915050565b600060408301600083015184820360008601526114ad8282611366565b915050602083015184820360208601526114c78282611439565b9150508091505092915050565b600060208201905081810360008301526114ee8184611490565b905092915050565b600060408201905061150b6000830185611160565b818103602083015261151d8184611490565b90509392505050565b60008151905061153581610e23565b92915050565b60006020828403121561155157611550610beb565b5b600061155f84828501611526565b91505092915050565b600082825260208201905092915050565b7f457374612066756e63696f6e20736f6c6f2070756564652073657220656a656360008201527f757461646120706f7220756e206d656469636f00000000000000000000000000602082015250565b60006115d5603383611568565b91506115e082611579565b604082019050919050565b60006020820190508181036000830152611604816115c8565b9050919050565b600061161e61161984610c95565b610c6b565b90508281526020810184848401111561163a57611639610c90565b5b611645848285611285565b509392505050565b600082601f83011261166257611661610c8b565b5b815161167284826020860161160b565b91505092915050565b60008151905061168a81610d51565b92915050565b6000606082840312156116a6576116a5610bf5565b5b6116b06060610c6b565b9050600082015167ffffffffffffffff8111156116d0576116cf610c86565b5b6116dc8482850161164d565b600083015250602082015167ffffffffffffffff811115611700576116ff610c86565b5b61170c8482850161164d565b60208301525060406117208482850161167b565b60408301525092915050565b6000610100828403121561174357611742610bf5565b5b61174e610100610c6b565b9050600082015167ffffffffffffffff81111561176e5761176d610c86565b5b61177a8482850161164d565b600083015250602082015167ffffffffffffffff81111561179e5761179d610c86565b5b6117aa8482850161164d565b602083015250604082015167ffffffffffffffff8111156117ce576117cd610c86565b5b6117da8482850161164d565b604083015250606082015167ffffffffffffffff8111156117fe576117fd610c86565b5b61180a8482850161164d565b606083015250608082015167ffffffffffffffff81111561182e5761182d610c86565b5b61183a8482850161164d565b60808301525060a082015167ffffffffffffffff81111561185e5761185d610c86565b5b61186a84828501611690565b60a08301525060c061187e84828501611526565b60c08301525060e06118928482850161167b565b60e08301525092915050565b6000606082840312156118b4576118b3610bf5565b5b6118be6060610c6b565b9050600082015167ffffffffffffffff8111156118de576118dd610c86565b5b6118ea8482850161164d565b600083015250602082015167ffffffffffffffff81111561190e5761190d610c86565b5b61191a8482850161164d565b602083015250604061192e8482850161167b565b60408301525092915050565b6000604082840312156119505761194f610bf5565b5b61195a6040610c6b565b9050600082015167ffffffffffffffff81111561197a57611979610c86565b5b6119868482850161172c565b600083015250602082015167ffffffffffffffff8111156119aa576119a9610c86565b5b6119b68482850161189e565b60208301525092915050565b6000602082840312156119d8576119d7610beb565b5b600082015167ffffffffffffffff8111156119f6576119f5610bf0565b5b611a028482850161193a565b91505092915050565b60006060830160008301518482036000860152611a2882826112b8565b91505060208301518482036020860152611a4282826112b8565b9150506040830151611a5760408601826112f1565b508091505092915050565b6000604082019050611a776000830185611160565b8181036020830152611a898184611a0b565b90509392505050565b7f656e74726f206120636f6e73756c746172000000000000000000000000000000600082015250565b6000611ac8601183611568565b9150611ad382611a92565b602082019050919050565b60006020820190508181036000830152611af781611abb565b9050919050565b60008160e01c9050919050565b600060033d1115611b2a5760046000803e611b27600051611afe565b90505b90565b600060443d1015611b3d57611bc0565b611b45610be1565b60043d036004823e80513d602482011167ffffffffffffffff82111715611b6d575050611bc0565b808201805167ffffffffffffffff811115611b8b5750505050611bc0565b80602083010160043d038501811115611ba8575050505050611bc0565b611bb782602001850186610c3a565b82955050505050505b90565b7f4572726f7220696e7465726e6f3a20736520726f6d70696f20706f7220756e2060008201527f726576657274206f207265717569726500000000000000000000000000000000602082015250565b6000611c1f603083611568565b9150611c2a82611bc3565b604082019050919050565b60006020820190508181036000830152611c4e81611c12565b9050919050565b7f736520726f6d70696f2079206e69206964656120706f72717565200000000000600082015250565b6000611c8b601b83611568565b9150611c9682611c55565b602082019050919050565b60006020820190508181036000830152611cba81611c7e565b9050919050565b7f656e636f6e74726f206c6120706572736f6e6100000000000000000000000000600082015250565b6000611cf7601383611568565b9150611d0282611cc1565b602082019050919050565b60006020820190508181036000830152611d2681611cea565b9050919050565b7f457374612066756e63696f6e20736f6c6f2070756564652073657220656a656360008201527f757461646120706f7220656c2063726561646f722064656c20636f6e7472617460208201527f6f00000000000000000000000000000000000000000000000000000000000000604082015250565b6000611daf604183611568565b9150611dba82611d2d565b606082019050919050565b60006020820190508181036000830152611dde81611da2565b905091905056fea26469706673582212204114c1b02aa9e05097f8bae4efad0247a04fb67e1338df46f15d897d4ea1cf5f64736f6c634300080b0033",
  "immutableReferences": {},
  "source": "// SPDX-License-Identifier: MIT\npragma solidity >=0.4.22 <0.9.0; // TODO: Ajustar la versin por consenso con Jos\n\n// import \"../persistence/PersonaDAO.sol\";\nimport \"../logica/Paciente.sol\";\nimport \"./AccesoService.sol\";\n\n// TODO: quiz todos los mtodos en los service deban ser external (averiguar)\n// https://ethereum.stackexchange.com/questions/19380/external-vs-public-best-practices?answertab=active#tab-top\ncontract PacienteService {\n    event Log(string data);\n\n    address public creador;\n    address public ContratoAccesoServiceAddress;\n    address public ContratoPacienteAddress;\n    AccesoService private contratoAccesoService;\n    Paciente private contratoPaciente;\n\n    constructor() {\n        creador = msg.sender; // creador del contrato\n    }\n\n    function cambiarEstado(address direccion, string memory estado)\n        public\n        esMedico\n        returns (bool)\n    {\n        // TODO: quiza controllar el error ac\n        Paciente.PersonaPacienteStruct memory pacienteInfo = contratoPaciente\n            .consultar(direccion);\n        pacienteInfo.paciente.estado = estado;\n        contratoPaciente.actualizar(direccion, pacienteInfo.paciente);\n    }\n\n    function registrar(Paciente.PersonaPacienteStruct memory personaPaciente)\n        public\n    {\n        contratoPaciente.registrar(msg.sender, personaPaciente);\n        // TODO: poner excepcion en caso de error\n        // personaDao.guardar(direccion, paciente);\n    }\n\n    // TODO: intentar dejarla como view\n    // TODO: Cambiar a paciente\n    // TODO: validar si consulta su propia informacion o es medico\n    function consultar(address direccion)\n        external\n        esPropioOMedico(direccion)\n        returns (Paciente.PersonaPacienteStruct memory)\n    {\n        // TODO: validar que sea paciente sino lanzar una excepcion\n        // TODO: mejorar o completar la conversion del tipo padre al hijo,preguntas al profe que se puede hacer\n        emit Log(\"entro a consultar\");\n        try contratoPaciente.consultar(direccion) returns (\n            Paciente.PersonaPacienteStruct memory persona\n        ) {\n            // Paciente paciente = new Paciente();\n            // paciente.setPrimerApellido(persona.getPrimerApellido()); // ac se rompe\n            emit Log(\"encontro la persona\");\n            return persona;\n        } catch Error(\n            string memory /*reason*/\n        ) {\n            emit Log(\"Error interno: se rompio por un revert o require\");\n        } catch (\n            bytes memory /*lowLevelData*/\n        ) {\n            emit Log(\"se rompio y ni idea porque \");\n        }\n    }\n\n    function setContratoAccesoService(address direccion) public esPropietario {\n        ContratoAccesoServiceAddress = direccion;\n        contratoAccesoService = AccesoService(ContratoAccesoServiceAddress);\n    }\n\n    function setContratoPaciente(address direccion) public esPropietario {\n        ContratoPacienteAddress = direccion;\n        contratoPaciente = Paciente(ContratoPacienteAddress);\n    }\n\n    modifier esPropioOMedico(address direccion) {\n        if (!(msg.sender == direccion)) {\n            uint256 rolId = contratoAccesoService.consultarRol(msg.sender);\n            require(\n                rolId == 1,\n                \"Esta funcion solo puede ser ejecutada por un medico\"\n            );\n        }\n        _;\n    }\n\n    modifier esMedico() {\n        uint256 rolId = contratoAccesoService.consultarRol(msg.sender);\n        require(\n            rolId == 1,\n            \"Esta funcion solo puede ser ejecutada por un medico\"\n        );\n        _;\n    }\n\n    modifier esPropietario() {\n        // NOTE: Los string no pueden llevar acentos, encontrar una forma de usarlos\n        require(\n            msg.sender == creador,\n            \"Esta funcion solo puede ser ejecutada por el creador del contrato\"\n        );\n        _; // ac se ejecuta la funcin\n    }\n\n    function selfDestruct() public esPropietario() { \n      selfdestruct(payable(creador)); \n}\n}\n",
  "sourcePath": "/home/felipe/Documentos/Blockchain/codigo/back-hce/contracts/service/PacienteService.sol",
  "compiler": {
    "name": "solc",
    "version": "0.8.11+commit.d7f03943.Emscripten.clang"
  },
  "schemaVersion": "3.4.4",
  "updatedAt": "2022-02-07T00:46:04.971Z",
  "networkType": "ethereum",
  "devdoc": {
    "kind": "dev",
    "methods": {},
    "version": 1
  },
  "userdoc": {
    "kind": "user",
    "methods": {},
    "version": 1
  }
}