{
  "contractName": "PacienteMapper",
  "abi": [
    {
      "inputs": [],
      "stateMutability": "nonpayable",
      "type": "constructor"
    },
    {
      "inputs": [],
      "name": "creador",
      "outputs": [
        {
          "internalType": "address",
          "name": "",
          "type": "address"
        }
      ],
      "stateMutability": "view",
      "type": "function",
      "constant": true
    },
    {
      "inputs": [
        {
          "internalType": "uint256",
          "name": "id",
          "type": "uint256"
        }
      ],
      "name": "consultarPorId",
      "outputs": [
        {
          "internalType": "contract PacienteVO",
          "name": "",
          "type": "address"
        }
      ],
      "stateMutability": "view",
      "type": "function",
      "constant": true
    },
    {
      "inputs": [
        {
          "internalType": "address",
          "name": "direccion",
          "type": "address"
        }
      ],
      "name": "consultar",
      "outputs": [
        {
          "internalType": "contract PacienteVO",
          "name": "",
          "type": "address"
        }
      ],
      "stateMutability": "view",
      "type": "function",
      "constant": true
    },
    {
      "inputs": [
        {
          "internalType": "address",
          "name": "direccion",
          "type": "address"
        },
        {
          "internalType": "contract PacienteVO",
          "name": "_paciente",
          "type": "address"
        }
      ],
      "name": "guardar",
      "outputs": [
        {
          "internalType": "uint256",
          "name": "",
          "type": "uint256"
        }
      ],
      "stateMutability": "nonpayable",
      "type": "function"
    },
    {
      "inputs": [
        {
          "internalType": "address",
          "name": "direccion",
          "type": "address"
        },
        {
          "internalType": "contract PacienteVO",
          "name": "paciente",
          "type": "address"
        }
      ],
      "name": "actualizar",
      "outputs": [],
      "stateMutability": "nonpayable",
      "type": "function"
    },
    {
      "inputs": [],
      "name": "size",
      "outputs": [
        {
          "internalType": "uint256",
          "name": "",
          "type": "uint256"
        }
      ],
      "stateMutability": "view",
      "type": "function",
      "constant": true
    },
    {
      "inputs": [],
      "name": "selfDestruct",
      "outputs": [],
      "stateMutability": "nonpayable",
      "type": "function"
    }
  ],
  "bytecode": "0x608060405234801561001057600080fd5b50600080546001600160a01b0319163317905561061b806100326000396000f3fe608060405234801561001057600080fd5b506004361061007d5760003560e01c8063949d225d1161005b578063949d225d146100da5780639cb8a26a146100ec578063adb0a725146100f4578063be381c591461010757600080fd5b80630da7d7a5146100825780637da8f6a51461009757806392ebdcd2146100c7575b600080fd5b610095610090366004610540565b61011a565b005b6100aa6100a5366004610579565b6101e7565b6040516001600160a01b0390911681526020015b60405180910390f35b6000546100aa906001600160a01b031681565b6002545b6040519081526020016100be565b610095610257565b6100aa61010236600461059d565b61030b565b6100de610115366004610540565b6103a6565b6001600160a01b03828116600090815260016020526040902054166101ac5760405162461bcd60e51b815260206004820152603060248201527f4e6f2065786973746520756e2070616369656e7465207265676973747261646f60448201527f20636f6e2065736520616464726573730000000000000000000000000000000060648201526084015b60405180910390fd5b6001600160a01b039182166000908152600160205260409020805473ffffffffffffffffffffffffffffffffffffffff191691909216179055565b6001600160a01b03808216600090815260016020526040812054909116806102515760405162461bcd60e51b815260206004820152601660248201527f4e6f20657869737465206573652070616369656e74650000000000000000000060448201526064016101a3565b92915050565b6000546001600160a01b031633146102fd5760405162461bcd60e51b815260206004820152604160248201527f457374612066756e63696f6e20736f6c6f2070756564652073657220656a656360448201527f757461646120706f7220656c2063726561646f722064656c20636f6e7472617460648201527f6f00000000000000000000000000000000000000000000000000000000000000608482015260a4016101a3565b6000546001600160a01b0316ff5b60008060028381548110610321576103216105b6565b6000918252602090912001546001600160a01b03169050806103855760405162461bcd60e51b815260206004820152601660248201527f4e6f20657869737465206573652070616369656e74650000000000000000000060448201526064016101a3565b6001600160a01b039081166000908152600160205260409020541692915050565b6001600160a01b03828116600090815260016020526040812054909116156104365760405162461bcd60e51b815260206004820152603060248201527f59612065786973746520756e2070616369656e7465207265676973747261646f60448201527f20636f6e2065736520616464726573730000000000000000000000000000000060648201526084016101a3565b6002546040517fd0e0ba95000000000000000000000000000000000000000000000000000000008152600481018290526001600160a01b0384169063d0e0ba9590602401600060405180830381600087803b15801561049457600080fd5b505af11580156104a8573d6000803e3d6000fd5b50506002805460018082019092557f405787fa12a823e0f2b7631cc41b3ba8828b3321ca811111fa75cd3aa3bb5ace0180546001600160a01b0398891673ffffffffffffffffffffffffffffffffffffffff1991821681179092556000918252602092909252604090208054969097169516949094179094559392505050565b6001600160a01b038116811461053d57600080fd5b50565b6000806040838503121561055357600080fd5b823561055e81610528565b9150602083013561056e81610528565b809150509250929050565b60006020828403121561058b57600080fd5b813561059681610528565b9392505050565b6000602082840312156105af57600080fd5b5035919050565b7f4e487b7100000000000000000000000000000000000000000000000000000000600052603260045260246000fdfea264697066735822122024d24640f6433e225b926c60c4b98bb2c9a4569dc22ff5146abe54d6881a145a64736f6c63430008110033",
  "immutableReferences": {},
  "source": "// SPDX-License-Identifier: MIT\npragma solidity ^0.8.17;\n// import \"../logica/Persona.sol\";\nimport \"../models/PacienteVO.sol\";\nimport \"./PacienteMapperInterface.sol\";\n\ncontract PacienteMapper is PacienteMapperInterface {\n    address public creador;\n\n    mapping(address => PacienteVO) private pacientes;\n    address[] private addressList; // NOTE Mapped Structs with Index\n\n    constructor() {\n        creador = msg.sender;\n    }\n\n    \n    function consultarPorId(uint256 id) external view returns (PacienteVO) {\n        address direccion = addressList[id];\n        if (direccion == address(0)) {\n            revert(\"No existe ese paciente\");\n        }\n        PacienteVO paciente = pacientes[direccion];\n        return paciente;\n    }\n\n    function consultar(address direccion) external view returns (PacienteVO) {\n        PacienteVO paciente = pacientes[direccion];\n        if (address(paciente) == address(0)) {\n            revert(\"No existe ese paciente\");\n        }\n        return paciente;\n    }\n\n    function guardar(address direccion, PacienteVO _paciente) public returns (uint256){\n        if (address(pacientes[direccion]) != address(0)) {\n            revert(\"Ya existe un paciente registrado con ese address\");\n        }\n        uint256 id = addressList.length;\n        _paciente.setId(id);\n        addressList.push(direccion);\n        pacientes[direccion] = _paciente;\n        return id; \n    }\n\n    function actualizar(address direccion, PacienteVO paciente) public {\n        if (address(pacientes[direccion]) == address(0)) {\n            revert(\"No existe un paciente registrado con ese address\");\n        }\n        pacientes[direccion] = paciente;\n    }\n\n    function size() external view returns (uint256) {\n        return addressList.length;\n    }\n\n    modifier esPropietario() {\n        require(\n            msg.sender == creador,\n            \"Esta funcion solo puede ser ejecutada por el creador del contrato\"\n        );\n        _; // ac se ejecuta la funcin\n    }\n\n    function selfDestruct() public esPropietario {\n        selfdestruct(payable(creador));\n    }\n}\n",
  "sourcePath": "/back/contracts/persistence/PacienteMapper.sol",
  "compiler": {
    "name": "solc",
    "version": "0.8.17+commit.8df45f5f.Emscripten.clang"
  },
  "schemaVersion": "3.4.11",
  "updatedAt": "2023-06-26T00:48:03.374Z",
  "networkType": "ethereum",
  "devdoc": {
    "kind": "dev",
    "methods": {},
    "version": 1
  },
  "userdoc": {
    "kind": "user",
    "methods": {},
    "version": 1
  }
}