{
  "contractName": "Paciente",
  "abi": [
    {
      "inputs": [],
      "stateMutability": "nonpayable",
      "type": "constructor"
    },
    {
      "anonymous": false,
      "inputs": [
        {
          "indexed": false,
          "internalType": "string",
          "name": "data",
          "type": "string"
        }
      ],
      "name": "Log",
      "type": "event"
    },
    {
      "inputs": [],
      "name": "creador",
      "outputs": [
        {
          "internalType": "address",
          "name": "",
          "type": "address"
        }
      ],
      "stateMutability": "view",
      "type": "function"
    },
    {
      "inputs": [],
      "name": "pacienteMapperAddress",
      "outputs": [
        {
          "internalType": "address",
          "name": "",
          "type": "address"
        }
      ],
      "stateMutability": "view",
      "type": "function"
    },
    {
      "inputs": [
        {
          "internalType": "address",
          "name": "direccion",
          "type": "address"
        }
      ],
      "name": "consultar",
      "outputs": [
        {
          "internalType": "contract PacienteVO",
          "name": "",
          "type": "address"
        }
      ],
      "stateMutability": "nonpayable",
      "type": "function"
    },
    {
      "inputs": [
        {
          "internalType": "address",
          "name": "direccion",
          "type": "address"
        },
        {
          "internalType": "contract PacienteVO",
          "name": "paciente",
          "type": "address"
        }
      ],
      "name": "registrar",
      "outputs": [],
      "stateMutability": "nonpayable",
      "type": "function"
    },
    {
      "inputs": [
        {
          "internalType": "address",
          "name": "direccion",
          "type": "address"
        },
        {
          "internalType": "contract PacienteVO",
          "name": "paciente",
          "type": "address"
        }
      ],
      "name": "actualizar",
      "outputs": [],
      "stateMutability": "nonpayable",
      "type": "function"
    },
    {
      "inputs": [
        {
          "internalType": "address",
          "name": "_direccion",
          "type": "address"
        },
        {
          "internalType": "uint256",
          "name": "_estadoId",
          "type": "uint256"
        }
      ],
      "name": "cambiarEstado",
      "outputs": [],
      "stateMutability": "nonpayable",
      "type": "function"
    },
    {
      "inputs": [
        {
          "internalType": "address",
          "name": "_pacienteMapperAddress",
          "type": "address"
        }
      ],
      "name": "setPacienteMapperAddress",
      "outputs": [],
      "stateMutability": "nonpayable",
      "type": "function"
    },
    {
      "inputs": [],
      "name": "selfDestruct",
      "outputs": [],
      "stateMutability": "nonpayable",
      "type": "function"
    }
  ],
  "bytecode": "0x608060405234801561001057600080fd5b50336000806101000a81548173ffffffffffffffffffffffffffffffffffffffff021916908373ffffffffffffffffffffffffffffffffffffffff160217905550610d68806100606000396000f3fe608060405234801561001057600080fd5b50600436106100885760003560e01c80637da8f6a51161005b5780637da8f6a5146100ff57806392ebdcd21461012f5780639cb8a26a1461014d578063e8efff131461015757610088565b8063027066421461008d57806307b37d1d146100ab5780630da7d7a5146100c75780630ded6136146100e3575b600080fd5b610095610173565b6040516100a29190610817565b60405180910390f35b6100c560048036038101906100c091906108a1565b610199565b005b6100e160048036038101906100dc91906108a1565b61029a565b005b6100fd60048036038101906100f891906108e1565b61039b565b005b610119600480360381019061011491906108e1565b6104ae565b604051610126919061096d565b60405180910390f35b6101376105f6565b6040516101449190610817565b60405180910390f35b61015561061a565b005b610171600480360381019061016c91906109be565b6106e1565b005b600160009054906101000a900473ffffffffffffffffffffffffffffffffffffffff1681565b3373ffffffffffffffffffffffffffffffffffffffff168273ffffffffffffffffffffffffffffffffffffffff1614610207576040517f08c379a00000000000000000000000000000000000000000000000000000000081526004016101fe90610a81565b60405180910390fd5b600260009054906101000a900473ffffffffffffffffffffffffffffffffffffffff1673ffffffffffffffffffffffffffffffffffffffff1663be381c5983836040518363ffffffff1660e01b8152600401610264929190610aa1565b600060405180830381600087803b15801561027e57600080fd5b505af1158015610292573d6000803e3d6000fd5b505050505050565b3373ffffffffffffffffffffffffffffffffffffffff168273ffffffffffffffffffffffffffffffffffffffff1614610308576040517f08c379a00000000000000000000000000000000000000000000000000000000081526004016102ff90610b16565b60405180910390fd5b600260009054906101000a900473ffffffffffffffffffffffffffffffffffffffff1673ffffffffffffffffffffffffffffffffffffffff16630da7d7a583836040518363ffffffff1660e01b8152600401610365929190610aa1565b600060405180830381600087803b15801561037f57600080fd5b505af1158015610393573d6000803e3d6000fd5b505050505050565b60008054906101000a900473ffffffffffffffffffffffffffffffffffffffff1673ffffffffffffffffffffffffffffffffffffffff163373ffffffffffffffffffffffffffffffffffffffff1614610429576040517f08c379a000000000000000000000000000000000000000000000000000000000815260040161042090610bce565b60405180910390fd5b80600160006101000a81548173ffffffffffffffffffffffffffffffffffffffff021916908373ffffffffffffffffffffffffffffffffffffffff16021790555080600260006101000a81548173ffffffffffffffffffffffffffffffffffffffff021916908373ffffffffffffffffffffffffffffffffffffffff16021790555050565b60003373ffffffffffffffffffffffffffffffffffffffff168273ffffffffffffffffffffffffffffffffffffffff161461051e576040517f08c379a000000000000000000000000000000000000000000000000000000000815260040161051590610c3a565b60405180910390fd5b7fcf34ef537ac33ee1ac626ca1587a0a7e8e51561e5514f8cb36afa1c5102b3bab60405161054b90610ca6565b60405180910390a1600260009054906101000a900473ffffffffffffffffffffffffffffffffffffffff1673ffffffffffffffffffffffffffffffffffffffff16637da8f6a5836040518263ffffffff1660e01b81526004016105ae9190610817565b602060405180830381865afa1580156105cb573d6000803e3d6000fd5b505050506040513d601f19601f820116820180604052508101906105ef9190610cdb565b9050919050565b60008054906101000a900473ffffffffffffffffffffffffffffffffffffffff1681565b60008054906101000a900473ffffffffffffffffffffffffffffffffffffffff1673ffffffffffffffffffffffffffffffffffffffff163373ffffffffffffffffffffffffffffffffffffffff16146106a8576040517f08c379a000000000000000000000000000000000000000000000000000000000815260040161069f90610bce565b60405180910390fd5b60008054906101000a900473ffffffffffffffffffffffffffffffffffffffff1673ffffffffffffffffffffffffffffffffffffffff16ff5b3373ffffffffffffffffffffffffffffffffffffffff168273ffffffffffffffffffffffffffffffffffffffff161461074f576040517f08c379a000000000000000000000000000000000000000000000000000000000815260040161074690610b16565b60405180910390fd5b600061075a836104ae565b90508073ffffffffffffffffffffffffffffffffffffffff1663e79dee02836040518263ffffffff1660e01b81526004016107959190610d17565b600060405180830381600087803b1580156107af57600080fd5b505af11580156107c3573d6000803e3d6000fd5b505050506107d1838261029a565b505050565b600073ffffffffffffffffffffffffffffffffffffffff82169050919050565b6000610801826107d6565b9050919050565b610811816107f6565b82525050565b600060208201905061082c6000830184610808565b92915050565b600080fd5b610840816107f6565b811461084b57600080fd5b50565b60008135905061085d81610837565b92915050565b600061086e826107f6565b9050919050565b61087e81610863565b811461088957600080fd5b50565b60008135905061089b81610875565b92915050565b600080604083850312156108b8576108b7610832565b5b60006108c68582860161084e565b92505060206108d78582860161088c565b9150509250929050565b6000602082840312156108f7576108f6610832565b5b60006109058482850161084e565b91505092915050565b6000819050919050565b600061093361092e610929846107d6565b61090e565b6107d6565b9050919050565b600061094582610918565b9050919050565b60006109578261093a565b9050919050565b6109678161094c565b82525050565b6000602082019050610982600083018461095e565b92915050565b6000819050919050565b61099b81610988565b81146109a657600080fd5b50565b6000813590506109b881610992565b92915050565b600080604083850312156109d5576109d4610832565b5b60006109e38582860161084e565b92505060206109f4858286016109a9565b9150509250929050565b600082825260208201905092915050565b7f556e2070616369656e746520736520646562652072656769737472617220612060008201527f7369206d69736d6f000000000000000000000000000000000000000000000000602082015250565b6000610a6b6028836109fe565b9150610a7682610a0f565b604082019050919050565b60006020820190508181036000830152610a9a81610a5e565b9050919050565b6000604082019050610ab66000830185610808565b610ac3602083018461095e565b9392505050565b7f4e6f207469656e65207065726d69736f732064652061637475616c697a617200600082015250565b6000610b00601f836109fe565b9150610b0b82610aca565b602082019050919050565b60006020820190508181036000830152610b2f81610af3565b9050919050565b7f457374612066756e63696f6e20736f6c6f2070756564652073657220656a656360008201527f757461646120706f7220656c2063726561646f722064656c20636f6e7472617460208201527f6f00000000000000000000000000000000000000000000000000000000000000604082015250565b6000610bb86041836109fe565b9150610bc382610b36565b606082019050919050565b60006020820190508181036000830152610be781610bab565b9050919050565b7f4e6f207469656e65207065726d69736f7320646520636f6e73756c7461000000600082015250565b6000610c24601d836109fe565b9150610c2f82610bee565b602082019050919050565b60006020820190508181036000830152610c5381610c17565b9050919050565b7f656e74726f206120636f6e73756c7461722050616369656e7465000000000000600082015250565b6000610c90601a836109fe565b9150610c9b82610c5a565b602082019050919050565b60006020820190508181036000830152610cbf81610c83565b9050919050565b600081519050610cd581610875565b92915050565b600060208284031215610cf157610cf0610832565b5b6000610cff84828501610cc6565b91505092915050565b610d1181610988565b82525050565b6000602082019050610d2c6000830184610d08565b9291505056fea26469706673582212201c3316f57ea21d1ed2c2261cb8af13789672ef29db2f928f158011b78f7fbede64736f6c634300080b0033",
  "immutableReferences": {},
  "source": "// SPDX-License-Identifier: MIT\npragma solidity ^0.8.10;\n\n//import \"./Persona.sol\";\nimport \"../models/PacienteVO.sol\";\nimport \"../persistence/PacienteMapper.sol\";\n\ncontract Paciente {\n    event Log(string data);\n    address public creador;\n    address public pacienteMapperAddress;\n\n    PacienteMapper private pacienteMapper;\n\n    constructor() {\n        creador = msg.sender; // creador del contrato\n    }\n\n    function consultar(address direccion) public returns (PacienteVO) {\n        if (direccion != msg.sender){\n            // si alguien diferente al propietario de la historia la consulta se debe validar quien es\n            // validar quien consulta\n            revert(\"No tiene permisos de consulta\");\n        } \n        emit Log(\"entro a consultar Paciente\");\n        return pacienteMapper.consultar(direccion);\n        /* try  returns (PacienteVO response){\n            emit Log(\"encontro la Paciente\");\n            return response;\n        } catch Error(string memory e) {\n            /*reason*/\n        /*emit Log(\"se rompio por un revert o require\");\n            emit Log(e);\n            revert(\"No existe ese Paciente\");\n        } */\n    }\n\n    // TODO: validar que pasa si falla el registro de persona\n    // TODO: que pasa si falla guardar paciente?\n    function registrar(address direccion, PacienteVO paciente) public {\n        if (direccion != msg.sender){            \n            revert(\"Un paciente se debe registrar a si mismo\");\n        }\n        pacienteMapper.guardar(direccion, paciente);\n        /* try  {\n            emit Log(\"Se guarda la informacion de paciente correctamente\");\n        } catch Error(string memory data) {\n            revert(\"No existe ese medico\");\n        }*/\n    }\n\n    function actualizar(address direccion, PacienteVO paciente) public {\n        if (direccion != msg.sender){\n            // si alguien diferente al propietario de la historia la consulta se debe validar quien es\n            // validar quien consulta\n            revert(\"No tiene permisos de actualizar\");\n        }\n        pacienteMapper.actualizar(direccion, paciente);\n        /*\n        try contratoPacienteDAO.actualizar(direccion, paciente) {\n            emit Log(\"Se guarda la informacion de paciente correctamente\");\n        } catch Error(string memory data) {\n            /*reason*/\n        /*  emit Log(\"se rompio por un revert o require\");\n            emit Log(data);\n        }*/\n    }\n\n    // TODO: poner modificador para que solo lo pueda ejecutar el service y\n    // en el service que solo lo ejecute un mdico\n    function cambiarEstado(address _direccion, uint256 _estadoId) public {\n\n        if (_direccion != msg.sender){\n            // si alguien diferente al propietario de la historia la consulta se debe validar quien es\n            // validar quien consulta\n            revert(\"No tiene permisos de actualizar\");\n        }\n        PacienteVO paciente = consultar(_direccion);\n        paciente.setEstadoId(_estadoId);\n        actualizar(_direccion, paciente);\n    }\n\n    function setPacienteMapperAddress(address _pacienteMapperAddress)\n        public\n        esPropietario\n    {\n        pacienteMapperAddress = _pacienteMapperAddress;\n        pacienteMapper = PacienteMapper(_pacienteMapperAddress);\n    }\n\n    modifier esPropietario() {\n        require(\n            msg.sender == creador,\n            \"Esta funcion solo puede ser ejecutada por el creador del contrato\"\n        );\n        _; // ac se ejecuta la funcin\n    }\n\n    function selfDestruct() public esPropietario {\n        selfdestruct(payable(creador));\n    }\n}\n",
  "sourcePath": "/home/felipe/Documentos/Blockchain/codigo/back-hce/contracts/logica/Paciente.sol",
  "compiler": {
    "name": "solc",
    "version": "0.8.11+commit.d7f03943.Emscripten.clang"
  },
  "schemaVersion": "3.4.4",
  "updatedAt": "2022-03-21T22:43:20.193Z",
  "devdoc": {
    "kind": "dev",
    "methods": {},
    "version": 1
  },
  "userdoc": {
    "kind": "user",
    "methods": {},
    "version": 1
  }
}