{
  "contractName": "PacienteService",
  "abi": [
    {
      "inputs": [],
      "stateMutability": "nonpayable",
      "type": "constructor"
    },
    {
      "anonymous": false,
      "inputs": [
        {
          "indexed": false,
          "internalType": "string",
          "name": "data",
          "type": "string"
        }
      ],
      "name": "Log",
      "type": "event"
    },
    {
      "inputs": [],
      "name": "creador",
      "outputs": [
        {
          "internalType": "address",
          "name": "",
          "type": "address"
        }
      ],
      "stateMutability": "view",
      "type": "function"
    },
    {
      "inputs": [],
      "name": "activar",
      "outputs": [
        {
          "internalType": "bool",
          "name": "",
          "type": "bool"
        }
      ],
      "stateMutability": "nonpayable",
      "type": "function"
    },
    {
      "inputs": [
        {
          "internalType": "address",
          "name": "direccion",
          "type": "address"
        },
        {
          "internalType": "contract Paciente",
          "name": "paciente",
          "type": "address"
        }
      ],
      "name": "registrar",
      "outputs": [],
      "stateMutability": "nonpayable",
      "type": "function"
    },
    {
      "inputs": [
        {
          "internalType": "address",
          "name": "direccion",
          "type": "address"
        }
      ],
      "name": "consultar",
      "outputs": [
        {
          "components": [
            {
              "internalType": "string",
              "name": "primerNombre",
              "type": "string"
            },
            {
              "internalType": "string",
              "name": "segundoNombre",
              "type": "string"
            },
            {
              "internalType": "string",
              "name": "primerApellido",
              "type": "string"
            },
            {
              "internalType": "string",
              "name": "segundoApellido",
              "type": "string"
            },
            {
              "internalType": "string",
              "name": "identificacion",
              "type": "string"
            },
            {
              "components": [
                {
                  "internalType": "string",
                  "name": "nombre",
                  "type": "string"
                },
                {
                  "internalType": "string",
                  "name": "descripcion",
                  "type": "string"
                },
                {
                  "internalType": "bool",
                  "name": "estaActiva",
                  "type": "bool"
                }
              ],
              "internalType": "struct TipoIdentificacionStruct",
              "name": "tipoIdentificacion",
              "type": "tuple"
            },
            {
              "internalType": "bool",
              "name": "isValue",
              "type": "bool"
            }
          ],
          "internalType": "struct PersonaStruct",
          "name": "",
          "type": "tuple"
        }
      ],
      "stateMutability": "nonpayable",
      "type": "function"
    }
  ],
  "bytecode": "0x608060405234801561001057600080fd5b50336000806101000a81548173ffffffffffffffffffffffffffffffffffffffff021916908373ffffffffffffffffffffffffffffffffffffffff16021790555060405161005d906100bf565b604051809103906000f080158015610079573d6000803e3d6000fd5b50600160006101000a81548173ffffffffffffffffffffffffffffffffffffffff021916908373ffffffffffffffffffffffffffffffffffffffff1602179055506100cc565b6113db80610e1e83390190565b610d43806100db6000396000f3fe608060405234801561001057600080fd5b506004361061004c5760003560e01c806307b37d1d146100515780632dd47cac1461006d5780637da8f6a51461008b57806392ebdcd2146100bb575b600080fd5b61006b60048036038101906100669190610417565b6100d9565b005b6100756100dd565b6040516100829190610472565b60405180910390f35b6100a560048036038101906100a0919061048d565b6100e7565b6040516100b29190610678565b60405180910390f35b6100c36102db565b6040516100d091906106a9565b60405180910390f35b5050565b6000803390505090565b6100ef6102ff565b7fcf34ef537ac33ee1ac626ca1587a0a7e8e51561e5514f8cb36afa1c5102b3bab60405161011c90610721565b60405180910390a1600160009054906101000a900473ffffffffffffffffffffffffffffffffffffffff1673ffffffffffffffffffffffffffffffffffffffff16637da8f6a5836040518263ffffffff1660e01b815260040161017f91906106a9565b6000604051808303816000875af19250505080156101c057506040513d6000823e3d601f19601f820116820180604052508101906101bd9190610a95565b60015b610297576101cc610aeb565b806308c379a0141561022757506101e1610b0d565b806101ec5750610229565b7fcf34ef537ac33ee1ac626ca1587a0a7e8e51561e5514f8cb36afa1c5102b3bab60405161021990610c15565b60405180910390a150610292565b505b3d8060008114610255576040519150601f19603f3d011682016040523d82523d6000602084013e61025a565b606091505b507fcf34ef537ac33ee1ac626ca1587a0a7e8e51561e5514f8cb36afa1c5102b3bab60405161028890610c81565b60405180910390a1505b6102d5565b7fcf34ef537ac33ee1ac626ca1587a0a7e8e51561e5514f8cb36afa1c5102b3bab6040516102c490610ced565b60405180910390a1809150506102d6565b5b919050565b60008054906101000a900473ffffffffffffffffffffffffffffffffffffffff1681565b6040518060e001604052806060815260200160608152602001606081526020016060815260200160608152602001610335610344565b81526020016000151581525090565b604051806060016040528060608152602001606081526020016000151581525090565b6000604051905090565b600080fd5b600080fd5b600073ffffffffffffffffffffffffffffffffffffffff82169050919050565b60006103a68261037b565b9050919050565b6103b68161039b565b81146103c157600080fd5b50565b6000813590506103d3816103ad565b92915050565b60006103e48261039b565b9050919050565b6103f4816103d9565b81146103ff57600080fd5b50565b600081359050610411816103eb565b92915050565b6000806040838503121561042e5761042d610371565b5b600061043c858286016103c4565b925050602061044d85828601610402565b9150509250929050565b60008115159050919050565b61046c81610457565b82525050565b60006020820190506104876000830184610463565b92915050565b6000602082840312156104a3576104a2610371565b5b60006104b1848285016103c4565b91505092915050565b600081519050919050565b600082825260208201905092915050565b60005b838110156104f45780820151818401526020810190506104d9565b83811115610503576000848401525b50505050565b6000601f19601f8301169050919050565b6000610525826104ba565b61052f81856104c5565b935061053f8185602086016104d6565b61054881610509565b840191505092915050565b61055c81610457565b82525050565b6000606083016000830151848203600086015261057f828261051a565b91505060208301518482036020860152610599828261051a565b91505060408301516105ae6040860182610553565b508091505092915050565b600060e08301600083015184820360008601526105d6828261051a565b915050602083015184820360208601526105f0828261051a565b9150506040830151848203604086015261060a828261051a565b91505060608301518482036060860152610624828261051a565b9150506080830151848203608086015261063e828261051a565b91505060a083015184820360a08601526106588282610562565b91505060c083015161066d60c0860182610553565b508091505092915050565b6000602082019050818103600083015261069281846105b9565b905092915050565b6106a38161039b565b82525050565b60006020820190506106be600083018461069a565b92915050565b600082825260208201905092915050565b7f656e74726f206120636f6e73756c746172000000000000000000000000000000600082015250565b600061070b6011836106c4565b9150610716826106d5565b602082019050919050565b6000602082019050818103600083015261073a816106fe565b9050919050565b600080fd5b7f4e487b7100000000000000000000000000000000000000000000000000000000600052604160045260246000fd5b61077e82610509565b810181811067ffffffffffffffff8211171561079d5761079c610746565b5b80604052505050565b60006107b0610367565b90506107bc8282610775565b919050565b600080fd5b600080fd5b600080fd5b600067ffffffffffffffff8211156107eb576107ea610746565b5b6107f482610509565b9050602081019050919050565b600061081461080f846107d0565b6107a6565b9050828152602081018484840111156108305761082f6107cb565b5b61083b8482856104d6565b509392505050565b600082601f830112610858576108576107c6565b5b8151610868848260208601610801565b91505092915050565b61087a81610457565b811461088557600080fd5b50565b60008151905061089781610871565b92915050565b6000606082840312156108b3576108b2610741565b5b6108bd60606107a6565b9050600082015167ffffffffffffffff8111156108dd576108dc6107c1565b5b6108e984828501610843565b600083015250602082015167ffffffffffffffff81111561090d5761090c6107c1565b5b61091984828501610843565b602083015250604061092d84828501610888565b60408301525092915050565b600060e0828403121561094f5761094e610741565b5b61095960e06107a6565b9050600082015167ffffffffffffffff811115610979576109786107c1565b5b61098584828501610843565b600083015250602082015167ffffffffffffffff8111156109a9576109a86107c1565b5b6109b584828501610843565b602083015250604082015167ffffffffffffffff8111156109d9576109d86107c1565b5b6109e584828501610843565b604083015250606082015167ffffffffffffffff811115610a0957610a086107c1565b5b610a1584828501610843565b606083015250608082015167ffffffffffffffff811115610a3957610a386107c1565b5b610a4584828501610843565b60808301525060a082015167ffffffffffffffff811115610a6957610a686107c1565b5b610a758482850161089d565b60a08301525060c0610a8984828501610888565b60c08301525092915050565b600060208284031215610aab57610aaa610371565b5b600082015167ffffffffffffffff811115610ac957610ac8610376565b5b610ad584828501610939565b91505092915050565b60008160e01c9050919050565b600060033d1115610b0a5760046000803e610b07600051610ade565b90505b90565b600060443d1015610b1d57610ba0565b610b25610367565b60043d036004823e80513d602482011167ffffffffffffffff82111715610b4d575050610ba0565b808201805167ffffffffffffffff811115610b6b5750505050610ba0565b80602083010160043d038501811115610b88575050505050610ba0565b610b9782602001850186610775565b82955050505050505b90565b7f736520726f6d70696f20706f7220756e20726576657274206f2072657175697260008201527f6500000000000000000000000000000000000000000000000000000000000000602082015250565b6000610bff6021836106c4565b9150610c0a82610ba3565b604082019050919050565b60006020820190508181036000830152610c2e81610bf2565b9050919050565b7f736520726f6d70696f2079206e69206964656120706f72717565200000000000600082015250565b6000610c6b601b836106c4565b9150610c7682610c35565b602082019050919050565b60006020820190508181036000830152610c9a81610c5e565b9050919050565b7f656e636f6e74726f206c6120706572736f6e6100000000000000000000000000600082015250565b6000610cd76013836106c4565b9150610ce282610ca1565b602082019050919050565b60006020820190508181036000830152610d0681610cca565b905091905056fea2646970667358221220e02feb576cb4242e2bc7dee68386be018abd0cbebb70faaacccab85f2aeedbac64736f6c634300080b0033608060405234801561001057600080fd5b50336000806101000a81548173ffffffffffffffffffffffffffffffffffffffff021916908373ffffffffffffffffffffffffffffffffffffffff16021790555061137b806100606000396000f3fe608060405234801561001057600080fd5b50600436106100415760003560e01c80637da8f6a51461004657806392ebdcd2146100765780639c8508d714610094575b600080fd5b610060600480360381019061005b91906109fd565b6100b0565b60405161006d9190610bf4565b60405180910390f35b61007e61063a565b60405161008b9190610c25565b60405180910390f35b6100ae60048036038101906100a99190610fa3565b61065e565b005b6100b8610880565b7fcf34ef537ac33ee1ac626ca1587a0a7e8e51561e5514f8cb36afa1c5102b3bab6040516100e59061105c565b60405180910390a16000600160008473ffffffffffffffffffffffffffffffffffffffff1673ffffffffffffffffffffffffffffffffffffffff1681526020019081526020016000206040518060e0016040529081600082018054610149906110ab565b80601f0160208091040260200160405190810160405280929190818152602001828054610175906110ab565b80156101c25780601f10610197576101008083540402835291602001916101c2565b820191906000526020600020905b8154815290600101906020018083116101a557829003601f168201915b505050505081526020016001820180546101db906110ab565b80601f0160208091040260200160405190810160405280929190818152602001828054610207906110ab565b80156102545780601f1061022957610100808354040283529160200191610254565b820191906000526020600020905b81548152906001019060200180831161023757829003601f168201915b5050505050815260200160028201805461026d906110ab565b80601f0160208091040260200160405190810160405280929190818152602001828054610299906110ab565b80156102e65780601f106102bb576101008083540402835291602001916102e6565b820191906000526020600020905b8154815290600101906020018083116102c957829003601f168201915b505050505081526020016003820180546102ff906110ab565b80601f016020809104026020016040519081016040528092919081815260200182805461032b906110ab565b80156103785780601f1061034d57610100808354040283529160200191610378565b820191906000526020600020905b81548152906001019060200180831161035b57829003601f168201915b50505050508152602001600482018054610391906110ab565b80601f01602080910402602001604051908101604052809291908181526020018280546103bd906110ab565b801561040a5780601f106103df5761010080835404028352916020019161040a565b820191906000526020600020905b8154815290600101906020018083116103ed57829003601f168201915b5050505050815260200160058201604051806060016040529081600082018054610433906110ab565b80601f016020809104026020016040519081016040528092919081815260200182805461045f906110ab565b80156104ac5780601f10610481576101008083540402835291602001916104ac565b820191906000526020600020905b81548152906001019060200180831161048f57829003601f168201915b505050505081526020016001820180546104c5906110ab565b80601f01602080910402602001604051908101604052809291908181526020018280546104f1906110ab565b801561053e5780601f106105135761010080835404028352916020019161053e565b820191906000526020600020905b81548152906001019060200180831161052157829003601f168201915b505050505081526020016002820160009054906101000a900460ff16151515158152505081526020016008820160009054906101000a900460ff16151515158152505090508060c001516105fc577fcf34ef537ac33ee1ac626ca1587a0a7e8e51561e5514f8cb36afa1c5102b3bab6040516105b990611129565b60405180910390a16040517f08c379a00000000000000000000000000000000000000000000000000000000081526004016105f390611195565b60405180910390fd5b7fcf34ef537ac33ee1ac626ca1587a0a7e8e51561e5514f8cb36afa1c5102b3bab60405161062990611201565b60405180910390a180915050919050565b60008054906101000a900473ffffffffffffffffffffffffffffffffffffffff1681565b600160008373ffffffffffffffffffffffffffffffffffffffff1673ffffffffffffffffffffffffffffffffffffffff16815260200190815260200160002060080160009054906101000a900460ff1615610723577fcf34ef537ac33ee1ac626ca1587a0a7e8e51561e5514f8cb36afa1c5102b3bab6040516106e090611293565b60405180910390a16040517f08c379a000000000000000000000000000000000000000000000000000000000815260040161071a90611325565b60405180910390fd5b80600160008473ffffffffffffffffffffffffffffffffffffffff1673ffffffffffffffffffffffffffffffffffffffff168152602001908152602001600020600082015181600001908051906020019061077f9291906108c5565b50602082015181600101908051906020019061079c9291906108c5565b5060408201518160020190805190602001906107b99291906108c5565b5060608201518160030190805190602001906107d69291906108c5565b5060808201518160040190805190602001906107f39291906108c5565b5060a08201518160050160008201518160000190805190602001906108199291906108c5565b5060208201518160010190805190602001906108369291906108c5565b5060408201518160020160006101000a81548160ff021916908315150217905550505060c08201518160080160006101000a81548160ff0219169083151502179055509050505050565b6040518060e0016040528060608152602001606081526020016060815260200160608152602001606081526020016108b661094b565b81526020016000151581525090565b8280546108d1906110ab565b90600052602060002090601f0160209004810192826108f3576000855561093a565b82601f1061090c57805160ff191683800117855561093a565b8280016001018555821561093a579182015b8281111561093957825182559160200191906001019061091e565b5b509050610947919061096e565b5090565b604051806060016040528060608152602001606081526020016000151581525090565b5b8082111561098757600081600090555060010161096f565b5090565b6000604051905090565b600080fd5b600080fd5b600073ffffffffffffffffffffffffffffffffffffffff82169050919050565b60006109ca8261099f565b9050919050565b6109da816109bf565b81146109e557600080fd5b50565b6000813590506109f7816109d1565b92915050565b600060208284031215610a1357610a12610995565b5b6000610a21848285016109e8565b91505092915050565b600081519050919050565b600082825260208201905092915050565b60005b83811015610a64578082015181840152602081019050610a49565b83811115610a73576000848401525b50505050565b6000601f19601f8301169050919050565b6000610a9582610a2a565b610a9f8185610a35565b9350610aaf818560208601610a46565b610ab881610a79565b840191505092915050565b60008115159050919050565b610ad881610ac3565b82525050565b60006060830160008301518482036000860152610afb8282610a8a565b91505060208301518482036020860152610b158282610a8a565b9150506040830151610b2a6040860182610acf565b508091505092915050565b600060e0830160008301518482036000860152610b528282610a8a565b91505060208301518482036020860152610b6c8282610a8a565b91505060408301518482036040860152610b868282610a8a565b91505060608301518482036060860152610ba08282610a8a565b91505060808301518482036080860152610bba8282610a8a565b91505060a083015184820360a0860152610bd48282610ade565b91505060c0830151610be960c0860182610acf565b508091505092915050565b60006020820190508181036000830152610c0e8184610b35565b905092915050565b610c1f816109bf565b82525050565b6000602082019050610c3a6000830184610c16565b92915050565b600080fd5b7f4e487b7100000000000000000000000000000000000000000000000000000000600052604160045260246000fd5b610c7d82610a79565b810181811067ffffffffffffffff82111715610c9c57610c9b610c45565b5b80604052505050565b6000610caf61098b565b9050610cbb8282610c74565b919050565b600080fd5b600080fd5b600080fd5b600067ffffffffffffffff821115610cea57610ce9610c45565b5b610cf382610a79565b9050602081019050919050565b82818337600083830152505050565b6000610d22610d1d84610ccf565b610ca5565b905082815260208101848484011115610d3e57610d3d610cca565b5b610d49848285610d00565b509392505050565b600082601f830112610d6657610d65610cc5565b5b8135610d76848260208601610d0f565b91505092915050565b610d8881610ac3565b8114610d9357600080fd5b50565b600081359050610da581610d7f565b92915050565b600060608284031215610dc157610dc0610c40565b5b610dcb6060610ca5565b9050600082013567ffffffffffffffff811115610deb57610dea610cc0565b5b610df784828501610d51565b600083015250602082013567ffffffffffffffff811115610e1b57610e1a610cc0565b5b610e2784828501610d51565b6020830152506040610e3b84828501610d96565b60408301525092915050565b600060e08284031215610e5d57610e5c610c40565b5b610e6760e0610ca5565b9050600082013567ffffffffffffffff811115610e8757610e86610cc0565b5b610e9384828501610d51565b600083015250602082013567ffffffffffffffff811115610eb757610eb6610cc0565b5b610ec384828501610d51565b602083015250604082013567ffffffffffffffff811115610ee757610ee6610cc0565b5b610ef384828501610d51565b604083015250606082013567ffffffffffffffff811115610f1757610f16610cc0565b5b610f2384828501610d51565b606083015250608082013567ffffffffffffffff811115610f4757610f46610cc0565b5b610f5384828501610d51565b60808301525060a082013567ffffffffffffffff811115610f7757610f76610cc0565b5b610f8384828501610dab565b60a08301525060c0610f9784828501610d96565b60c08301525092915050565b60008060408385031215610fba57610fb9610995565b5b6000610fc8858286016109e8565b925050602083013567ffffffffffffffff811115610fe957610fe861099a565b5b610ff585828601610e47565b9150509250929050565b600082825260208201905092915050565b7f656e74726f206120636f6e73756c746172000000000000000000000000000000600082015250565b6000611046601183610fff565b915061105182611010565b602082019050919050565b6000602082019050818103600083015261107581611039565b9050919050565b7f4e487b7100000000000000000000000000000000000000000000000000000000600052602260045260246000fd5b600060028204905060018216806110c357607f821691505b602082108114156110d7576110d661107c565b5b50919050565b7f6e6f2065786973746520656c207573756172696f000000000000000000000000600082015250565b6000611113601483610fff565b915061111e826110dd565b602082019050919050565b6000602082019050818103600083015261114281611106565b9050919050565b7f4e6f20657869737465206573652070616369656e746500000000000000000000600082015250565b600061117f601683610fff565b915061118a82611149565b602082019050919050565b600060208201905081810360008301526111ae81611172565b9050919050565b7f7573756172696f2076616c69646f000000000000000000000000000000000000600082015250565b60006111eb600e83610fff565b91506111f6826111b5565b602082019050919050565b6000602082019050818103600083015261121a816111de565b9050919050565b7f59612065786973746520756e6120706572736f6e61207265676973747261646160008201527f20636f6e20657365206164647265737300000000000000000000000000000000602082015250565b600061127d603083610fff565b915061128882611221565b604082019050919050565b600060208201905081810360008301526112ac81611270565b9050919050565b7f5961206578697374652075616e20706572736f6e61207265676973747261646160008201527f20636f6e20657365206164647265737300000000000000000000000000000000602082015250565b600061130f603083610fff565b915061131a826112b3565b604082019050919050565b6000602082019050818103600083015261133e81611302565b905091905056fea26469706673582212200a2e6140ede7902138912c4dfecf0e65890c31934073a7d3635b4c36ec3eaaf564736f6c634300080b0033",
  "immutableReferences": {},
  "source": "// SPDX-License-Identifier: MIT\npragma solidity >=0.4.22 <0.9.0; // TODO: Ajustar la versin por consenso con Jos\n\nimport \"../persistence/PersonaDAO.sol\";\nimport \"../logica/Paciente.sol\";\n\n// TODO: quiz todos los mtodos en los service deban ser external (averiguar)\n// https://ethereum.stackexchange.com/questions/19380/external-vs-public-best-practices?answertab=active#tab-top\ncontract PacienteService {\n\n    event Log(string data);\n\n    address public creador;\n    PersonaDAO private personaDao;\n\n    constructor() {\n        creador = msg.sender; // creador del contrato\n        personaDao = new PersonaDAO(); //TODO: verificar si queda guardado el objeto o si hay mejor manera\n    }\n\n    function activar() public returns (bool) {\n        address direccion = msg.sender;\n        // TODO: buscar persona en arreglo\n    }\n\n    // TODO: buscar porque es uint256\n    function registrar(address direccion, Paciente paciente) public {\n        // TODO: poner excepcion en caso de error\n        // personaDao.guardar(direccion, paciente);\n    }\n\n    // TODO: intentar dejarla como view\n    // TODO: Cambiar a paciente\n    function consultar(address direccion) external returns (PersonaStruct memory) {\n        // TODO: validar que sea paciente sino lanzar una excepcion\n        // TODO: mejorar o completar la conversion del tipo padre al hijo,preguntas al profe que se puede hacer\n        emit Log(\"entro a consultar\");\n        try personaDao.consultar(direccion) returns (PersonaStruct memory persona) {\n            // Paciente paciente = new Paciente();\n            // paciente.setPrimerApellido(persona.getPrimerApellido()); // ac se rompe\n            emit Log(\"encontro la persona\");            \n            return persona;\n        } catch Error(string memory /*reason*/){\n            emit Log(\"se rompio por un revert o require\");\n        }  catch (bytes memory /*lowLevelData*/){\n            emit Log(\"se rompio y ni idea porque \");\n        }      \n    }\n}\n",
  "sourcePath": "/home/felipe/Documentos/Blockchain/codigo/back-hce/contracts/service/PacienteService.sol",
  "compiler": {
    "name": "solc",
    "version": "0.8.11+commit.d7f03943.Emscripten.clang"
  },
  "schemaVersion": "3.4.4",
  "updatedAt": "2022-02-05T03:00:20.828Z",
  "devdoc": {
    "kind": "dev",
    "methods": {},
    "version": 1
  },
  "userdoc": {
    "kind": "user",
    "methods": {},
    "version": 1
  }
}