{
  "contractName": "Paciente",
  "abi": [
    {
      "inputs": [],
      "stateMutability": "nonpayable",
      "type": "constructor"
    },
    {
      "inputs": [],
      "name": "getAccesoUsuario",
      "outputs": [
        {
          "internalType": "string",
          "name": "",
          "type": "string"
        }
      ],
      "stateMutability": "view",
      "type": "function",
      "constant": true
    },
    {
      "inputs": [],
      "name": "getIdentificacion",
      "outputs": [
        {
          "internalType": "string",
          "name": "",
          "type": "string"
        }
      ],
      "stateMutability": "view",
      "type": "function",
      "constant": true
    },
    {
      "inputs": [],
      "name": "getIsValue",
      "outputs": [
        {
          "internalType": "bool",
          "name": "",
          "type": "bool"
        }
      ],
      "stateMutability": "view",
      "type": "function",
      "constant": true
    },
    {
      "inputs": [],
      "name": "getPrimerApellido",
      "outputs": [
        {
          "internalType": "string",
          "name": "",
          "type": "string"
        }
      ],
      "stateMutability": "view",
      "type": "function",
      "constant": true
    },
    {
      "inputs": [],
      "name": "getPrimerNombre",
      "outputs": [
        {
          "internalType": "string",
          "name": "",
          "type": "string"
        }
      ],
      "stateMutability": "view",
      "type": "function",
      "constant": true
    },
    {
      "inputs": [],
      "name": "getSegundoApellido",
      "outputs": [
        {
          "internalType": "string",
          "name": "",
          "type": "string"
        }
      ],
      "stateMutability": "view",
      "type": "function",
      "constant": true
    },
    {
      "inputs": [],
      "name": "getSegundoNombre",
      "outputs": [
        {
          "internalType": "string",
          "name": "",
          "type": "string"
        }
      ],
      "stateMutability": "view",
      "type": "function",
      "constant": true
    },
    {
      "inputs": [],
      "name": "getTipoIdentificacion",
      "outputs": [
        {
          "internalType": "string",
          "name": "",
          "type": "string"
        }
      ],
      "stateMutability": "view",
      "type": "function",
      "constant": true
    },
    {
      "inputs": [
        {
          "internalType": "contract Usuario",
          "name": "newMessage",
          "type": "address"
        }
      ],
      "name": "setAccesoUsuario",
      "outputs": [],
      "stateMutability": "nonpayable",
      "type": "function"
    },
    {
      "inputs": [
        {
          "internalType": "string",
          "name": "newMessage",
          "type": "string"
        }
      ],
      "name": "setIdentificacion",
      "outputs": [],
      "stateMutability": "nonpayable",
      "type": "function"
    },
    {
      "inputs": [
        {
          "internalType": "bool",
          "name": "newMessage",
          "type": "bool"
        }
      ],
      "name": "setIsValue",
      "outputs": [],
      "stateMutability": "nonpayable",
      "type": "function"
    },
    {
      "inputs": [
        {
          "internalType": "string",
          "name": "newMessage",
          "type": "string"
        }
      ],
      "name": "setPrimerApellido",
      "outputs": [],
      "stateMutability": "nonpayable",
      "type": "function"
    },
    {
      "inputs": [
        {
          "internalType": "string",
          "name": "newMessage",
          "type": "string"
        }
      ],
      "name": "setPrimerNombre",
      "outputs": [],
      "stateMutability": "nonpayable",
      "type": "function"
    },
    {
      "inputs": [
        {
          "internalType": "string",
          "name": "newMessage",
          "type": "string"
        }
      ],
      "name": "setSegundoApellido",
      "outputs": [],
      "stateMutability": "nonpayable",
      "type": "function"
    },
    {
      "inputs": [
        {
          "internalType": "string",
          "name": "newMessage",
          "type": "string"
        }
      ],
      "name": "setSegundoNombre",
      "outputs": [],
      "stateMutability": "nonpayable",
      "type": "function"
    },
    {
      "inputs": [
        {
          "internalType": "string",
          "name": "newMessage",
          "type": "string"
        }
      ],
      "name": "setTipoIdentificacion",
      "outputs": [],
      "stateMutability": "nonpayable",
      "type": "function"
    }
  ],
  "bytecode": "0x608060405234801561001057600080fd5b50610c9a806100206000396000f3fe608060405234801561001057600080fd5b50600436106101005760003560e01c806383cb77b011610097578063b2f9ccbb11610066578063b2f9ccbb1461025f578063c461d52e1461027d578063cc9f930e1461029b578063eacd3b93146102b757610100565b806383cb77b0146101eb5780639ac9abd014610207578063ac1e324914610225578063b22458341461024357610100565b80634e8c23ca116100d35780634e8c23ca146101795780634fe5aa0814610195578063551a5cfa146101b357806378c7e292146101cf57610100565b806314dac2ae1461010557806328fd4873146101215780633c3c069f1461013d5780633ca452b91461015b575b600080fd5b61011f600480360381019061011a919061090e565b6102d5565b005b61013b60048036038101906101369190610a81565b610319565b005b610145610333565b6040516101529190610ae5565b60405180910390f35b61016361034a565b6040516101709190610b88565b60405180910390f35b610193600480360381019061018e9190610a81565b6103dc565b005b61019d6103f6565b6040516101aa9190610b88565b60405180910390f35b6101cd60048036038101906101c89190610a81565b610488565b005b6101e960048036038101906101e49190610bd6565b6104a2565b005b61020560048036038101906102009190610a81565b6104bf565b005b61020f6104d9565b60405161021c9190610b88565b60405180910390f35b61022d61056b565b60405161023a9190610b88565b60405180910390f35b61025d60048036038101906102589190610a81565b6105fd565b005b610267610617565b6040516102749190610b88565b60405180910390f35b6102856106a9565b6040516102929190610b88565b60405180910390f35b6102b560048036038101906102b09190610a81565b61073b565b005b6102bf610755565b6040516102cc9190610b88565b60405180910390f35b80600660006101000a81548173ffffffffffffffffffffffffffffffffffffffff021916908373ffffffffffffffffffffffffffffffffffffffff16021790555050565b806004908051906020019061032f9291906107e7565b5050565b6000600660149054906101000a900460ff16905090565b60606000805461035990610c32565b80601f016020809104026020016040519081016040528092919081815260200182805461038590610c32565b80156103d25780601f106103a7576101008083540402835291602001916103d2565b820191906000526020600020905b8154815290600101906020018083116103b557829003601f168201915b5050505050905090565b80600390805190602001906103f29291906107e7565b5050565b60606000805461040590610c32565b80601f016020809104026020016040519081016040528092919081815260200182805461043190610c32565b801561047e5780601f106104535761010080835404028352916020019161047e565b820191906000526020600020905b81548152906001019060200180831161046157829003601f168201915b5050505050905090565b806001908051906020019061049e9291906107e7565b5050565b80600660146101000a81548160ff02191690831515021790555050565b80600090805190602001906104d59291906107e7565b5050565b6060600480546104e890610c32565b80601f016020809104026020016040519081016040528092919081815260200182805461051490610c32565b80156105615780601f1061053657610100808354040283529160200191610561565b820191906000526020600020905b81548152906001019060200180831161054457829003601f168201915b5050505050905090565b60606005805461057a90610c32565b80601f01602080910402602001604051908101604052809291908181526020018280546105a690610c32565b80156105f35780601f106105c8576101008083540402835291602001916105f3565b820191906000526020600020905b8154815290600101906020018083116105d657829003601f168201915b5050505050905090565b80600590805190602001906106139291906107e7565b5050565b60606001805461062690610c32565b80601f016020809104026020016040519081016040528092919081815260200182805461065290610c32565b801561069f5780601f106106745761010080835404028352916020019161069f565b820191906000526020600020905b81548152906001019060200180831161068257829003601f168201915b5050505050905090565b6060600280546106b890610c32565b80601f01602080910402602001604051908101604052809291908181526020018280546106e490610c32565b80156107315780601f1061070657610100808354040283529160200191610731565b820191906000526020600020905b81548152906001019060200180831161071457829003601f168201915b5050505050905090565b80600290805190602001906107519291906107e7565b5050565b60606003805461076490610c32565b80601f016020809104026020016040519081016040528092919081815260200182805461079090610c32565b80156107dd5780601f106107b2576101008083540402835291602001916107dd565b820191906000526020600020905b8154815290600101906020018083116107c057829003601f168201915b5050505050905090565b8280546107f390610c32565b90600052602060002090601f016020900481019282610815576000855561085c565b82601f1061082e57805160ff191683800117855561085c565b8280016001018555821561085c579182015b8281111561085b578251825591602001919060010190610840565b5b509050610869919061086d565b5090565b5b8082111561088657600081600090555060010161086e565b5090565b6000604051905090565b600080fd5b600080fd5b600073ffffffffffffffffffffffffffffffffffffffff82169050919050565b60006108c98261089e565b9050919050565b60006108db826108be565b9050919050565b6108eb816108d0565b81146108f657600080fd5b50565b600081359050610908816108e2565b92915050565b60006020828403121561092457610923610894565b5b6000610932848285016108f9565b91505092915050565b600080fd5b600080fd5b6000601f19601f8301169050919050565b7f4e487b7100000000000000000000000000000000000000000000000000000000600052604160045260246000fd5b61098e82610945565b810181811067ffffffffffffffff821117156109ad576109ac610956565b5b80604052505050565b60006109c061088a565b90506109cc8282610985565b919050565b600067ffffffffffffffff8211156109ec576109eb610956565b5b6109f582610945565b9050602081019050919050565b82818337600083830152505050565b6000610a24610a1f846109d1565b6109b6565b905082815260208101848484011115610a4057610a3f610940565b5b610a4b848285610a02565b509392505050565b600082601f830112610a6857610a6761093b565b5b8135610a78848260208601610a11565b91505092915050565b600060208284031215610a9757610a96610894565b5b600082013567ffffffffffffffff811115610ab557610ab4610899565b5b610ac184828501610a53565b91505092915050565b60008115159050919050565b610adf81610aca565b82525050565b6000602082019050610afa6000830184610ad6565b92915050565b600081519050919050565b600082825260208201905092915050565b60005b83811015610b3a578082015181840152602081019050610b1f565b83811115610b49576000848401525b50505050565b6000610b5a82610b00565b610b648185610b0b565b9350610b74818560208601610b1c565b610b7d81610945565b840191505092915050565b60006020820190508181036000830152610ba28184610b4f565b905092915050565b610bb381610aca565b8114610bbe57600080fd5b50565b600081359050610bd081610baa565b92915050565b600060208284031215610bec57610beb610894565b5b6000610bfa84828501610bc1565b91505092915050565b7f4e487b7100000000000000000000000000000000000000000000000000000000600052602260045260246000fd5b60006002820490506001821680610c4a57607f821691505b60208210811415610c5e57610c5d610c03565b5b5091905056fea26469706673582212207dc58e85e6abf4de91ed0c46b387b097aceadae7491c00ae7bf108db29b1c81c64736f6c634300080b0033",
  "immutableReferences": {},
  "source": "pragma solidity >=0.5.0 <0.9.0; // TODO: Ajustar la versin por consenso con Jos\n\nimport \"./Usuario.sol\";\n\n// NOTE: se deja el abstrac contrac justo con sus hijos por cuestiones de ordenamiento de cdigo solidity, antes decia \"Definition of base has to precede definition of derived contract\"\n\nabstract contract Persona {\n    // address public creador;\n    string private primerNombre;\n    string private segundoNombre;\n    string private primerApellido;\n    string private segundoApellido;\n    string private identificacion;\n    // TipoIdentificacionStruct public tipoIdentificacion; // TODO: cambiar tipo por el de la estructura ms adelante\n    string private tipoIdentificacion;\n    Usuario private accesoUsuario;\n    bool private isValue;\n\n    /*\n    // function registrar() public virtual returns(Persona); ejemplo de funcin abstracta\n    function registrar() public returns(bool){\n        // Persona persona = new Paciente();\n        return true;\n    }\n*/\n    function getAccesoUsuario() public view returns (string memory) {\n        return primerNombre;\n    }\n\n    function setAccesoUsuario(Usuario newMessage) public {\n        accesoUsuario = newMessage;\n    }\n\n    function getIdentificacion() public view returns (string memory) {\n        return identificacion;\n    }\n\n    function setIdentificacion(string memory newMessage) public {\n        // TODO: investigar porque se pone memery en el arametros del mtodo\n        identificacion = newMessage;\n    }\n\n    function getPrimerApellido() public view returns (string memory) {\n        return primerApellido;\n    }\n\n    function setPrimerApellido(string memory newMessage) public {\n        primerApellido = newMessage;\n    }\n\n    function getPrimerNombre() public view returns (string memory) {\n        return primerNombre;\n    }\n\n    function setPrimerNombre(string memory newMessage) public {\n        primerNombre = newMessage;\n    }\n\n    function getSegundoApellido() public view returns (string memory) {\n        return segundoApellido;\n    }\n\n    function setSegundoApellido(string memory newMessage) public {\n        segundoApellido = newMessage;\n    }\n\n    function getSegundoNombre() public view returns (string memory) {\n        return segundoNombre;\n    }\n\n    function setSegundoNombre(string memory newMessage) public {\n        segundoNombre = newMessage;\n    }\n\n    function getTipoIdentificacion() public view returns (string memory) {\n        return tipoIdentificacion;\n    }\n\n    function setTipoIdentificacion(string memory newMessage) public {\n        tipoIdentificacion = newMessage;\n    }\n\n    function getIsValue() public view returns (bool) {\n        return isValue;\n    }\n\n    function setIsValue(bool newMessage) public {\n        isValue = newMessage;\n    }\n}\n\n// TODO: intentar separar en otro documento\ncontract Paciente is Persona {\n    // address public creador;\n\n    // EstadoStruct private estado;\n    uint256 private historiaClinicaId;\n\n    // DatosPersonales private datosPersonales;\n\n    constructor() public {\n        // creador = msg.sender; // creador del contrato\n    }\n}\n\ncontract Medico is Persona {\n    address public creador;\n\n    // EstadoStruct private estado;\n    string private especialidad;\n    string private usuario;\n    string private contrasena;\n\n    struct PerfilMedicoSistemaExternoStruct {\n        string primerNombre;\n        string segundoNombre;\n        string primerApellido;\n        string segundoApellido;\n        string identificacion; // TODO: agregar tipo de identificacion\n        string especialidad;\n    }\n\n    constructor() public {\n        creador = msg.sender; // creador del contrato\n    }\n\n    function login() public returns (Persona) {\n        address direccion = msg.sender;\n        // TODO: buscar persona en arreglo\n    }\n\n    // TODO: buscar porque es uint256\n    function buscarPermisosDeRol(uint256 funcionId) public view returns (bool) {\n        address direccion = msg.sender;\n        // TODO: esto es como un filtro (averiguar si lo hay en solidity) y sirve para ver si un usario tiene acceso a x metodo\n    }\n}\n",
  "sourcePath": "/home/felipe/Documentos/Blockchain/codigo/back-hce/contracts/logica/Persona.sol",
  "compiler": {
    "name": "solc",
    "version": "0.8.11+commit.d7f03943.Emscripten.clang"
  },
  "schemaVersion": "3.4.4",
  "updatedAt": "2022-01-20T03:39:34.069Z",
  "networkType": "ethereum",
  "devdoc": {
    "kind": "dev",
    "methods": {},
    "version": 1
  },
  "userdoc": {
    "kind": "user",
    "methods": {},
    "version": 1
  }
}