{
  "contractName": "Paciente",
  "abi": [
    {
      "inputs": [],
      "stateMutability": "nonpayable",
      "type": "constructor"
    },
    {
      "anonymous": false,
      "inputs": [
        {
          "indexed": false,
          "internalType": "string",
          "name": "data",
          "type": "string"
        }
      ],
      "name": "Log",
      "type": "event"
    },
    {
      "inputs": [],
      "name": "creador",
      "outputs": [
        {
          "internalType": "address",
          "name": "",
          "type": "address"
        }
      ],
      "stateMutability": "view",
      "type": "function",
      "constant": true
    },
    {
      "inputs": [],
      "name": "consultar",
      "outputs": [
        {
          "internalType": "contract PacienteVO",
          "name": "",
          "type": "address"
        }
      ],
      "stateMutability": "nonpayable",
      "type": "function"
    },
    {
      "inputs": [
        {
          "internalType": "address",
          "name": "direccion",
          "type": "address"
        }
      ],
      "name": "consultar",
      "outputs": [
        {
          "components": [
            {
              "components": [
                {
                  "internalType": "address",
                  "name": "id",
                  "type": "address"
                },
                {
                  "internalType": "string",
                  "name": "primerNombre",
                  "type": "string"
                },
                {
                  "internalType": "string",
                  "name": "segundoNombre",
                  "type": "string"
                },
                {
                  "internalType": "string",
                  "name": "primerApellido",
                  "type": "string"
                },
                {
                  "internalType": "string",
                  "name": "segundoApellido",
                  "type": "string"
                },
                {
                  "internalType": "string",
                  "name": "identificacion",
                  "type": "string"
                },
                {
                  "components": [
                    {
                      "internalType": "uint256",
                      "name": "id",
                      "type": "uint256"
                    },
                    {
                      "internalType": "string",
                      "name": "nombre",
                      "type": "string"
                    },
                    {
                      "internalType": "string",
                      "name": "descripcion",
                      "type": "string"
                    },
                    {
                      "internalType": "bool",
                      "name": "estaActivo",
                      "type": "bool"
                    }
                  ],
                  "internalType": "struct TipoIdentificacionVO.TipoIdentificacionVOStruct",
                  "name": "tipoIdentificacion",
                  "type": "tuple"
                },
                {
                  "internalType": "bool",
                  "name": "isValue",
                  "type": "bool"
                }
              ],
              "internalType": "struct Persona.PersonaStruct",
              "name": "persona",
              "type": "tuple"
            },
            {
              "components": [
                {
                  "internalType": "uint256",
                  "name": "sexoId",
                  "type": "uint256"
                },
                {
                  "internalType": "uint256",
                  "name": "estadoCivilId",
                  "type": "uint256"
                },
                {
                  "internalType": "uint256",
                  "name": "fechaNacimiento",
                  "type": "uint256"
                },
                {
                  "internalType": "uint256",
                  "name": "edad",
                  "type": "uint256"
                },
                {
                  "internalType": "string",
                  "name": "ciudadResidencia",
                  "type": "string"
                },
                {
                  "internalType": "string",
                  "name": "ocupacion",
                  "type": "string"
                },
                {
                  "internalType": "string",
                  "name": "direccion",
                  "type": "string"
                },
                {
                  "internalType": "string",
                  "name": "telefono",
                  "type": "string"
                },
                {
                  "internalType": "uint256",
                  "name": "aseguradoraId",
                  "type": "uint256"
                },
                {
                  "internalType": "uint256",
                  "name": "tipoVinculacionId",
                  "type": "uint256"
                },
                {
                  "internalType": "uint256",
                  "name": "acudienteId",
                  "type": "uint256"
                }
              ],
              "internalType": "struct DatosPersonalesStruct",
              "name": "datosPersonales",
              "type": "tuple"
            },
            {
              "components": [
                {
                  "internalType": "uint256",
                  "name": "id",
                  "type": "uint256"
                },
                {
                  "internalType": "string",
                  "name": "nombre",
                  "type": "string"
                },
                {
                  "internalType": "string",
                  "name": "descripcion",
                  "type": "string"
                },
                {
                  "internalType": "bool",
                  "name": "estaActivo",
                  "type": "bool"
                }
              ],
              "internalType": "struct EstadoVO.EstadoVOStruct",
              "name": "estado",
              "type": "tuple"
            }
          ],
          "internalType": "struct PacienteVO.PacienteVOStruct",
          "name": "",
          "type": "tuple"
        }
      ],
      "stateMutability": "nonpayable",
      "type": "function"
    },
    {
      "inputs": [
        {
          "internalType": "address",
          "name": "direccion",
          "type": "address"
        },
        {
          "internalType": "contract PacienteVO",
          "name": "paciente",
          "type": "address"
        }
      ],
      "name": "registrar",
      "outputs": [],
      "stateMutability": "nonpayable",
      "type": "function"
    },
    {
      "inputs": [
        {
          "internalType": "contract PacienteVO",
          "name": "paciente",
          "type": "address"
        }
      ],
      "name": "actualizar",
      "outputs": [],
      "stateMutability": "nonpayable",
      "type": "function"
    },
    {
      "inputs": [
        {
          "internalType": "address",
          "name": "_direccion",
          "type": "address"
        },
        {
          "internalType": "contract EstadoVO",
          "name": "_estado",
          "type": "address"
        }
      ],
      "name": "cambiarEstado",
      "outputs": [],
      "stateMutability": "nonpayable",
      "type": "function"
    },
    {
      "inputs": [
        {
          "internalType": "contract PacienteMapperInterface",
          "name": "_pacienteMapperAddress",
          "type": "address"
        }
      ],
      "name": "setPacienteMapper",
      "outputs": [],
      "stateMutability": "nonpayable",
      "type": "function"
    },
    {
      "inputs": [
        {
          "internalType": "contract RolMapperInterface",
          "name": "_rolMapperAddress",
          "type": "address"
        }
      ],
      "name": "setRolMapper",
      "outputs": [],
      "stateMutability": "nonpayable",
      "type": "function"
    },
    {
      "inputs": [
        {
          "internalType": "contract UsuarioMapperInterface",
          "name": "_usuarioMapperAddress",
          "type": "address"
        }
      ],
      "name": "setUsuarioMapper",
      "outputs": [],
      "stateMutability": "nonpayable",
      "type": "function"
    },
    {
      "inputs": [
        {
          "internalType": "contract Acceso",
          "name": "_accesoAddress",
          "type": "address"
        }
      ],
      "name": "setAcceso",
      "outputs": [],
      "stateMutability": "nonpayable",
      "type": "function"
    },
    {
      "inputs": [],
      "name": "selfDestruct",
      "outputs": [],
      "stateMutability": "nonpayable",
      "type": "function"
    }
  ],
  "bytecode": "0x6080604052600160055534801561001557600080fd5b50336000806101000a81548173ffffffffffffffffffffffffffffffffffffffff021916908373ffffffffffffffffffffffffffffffffffffffff160217905550613188806100656000396000f3fe608060405234801561001057600080fd5b50600436106100a95760003560e01c8063731188e711610071578063731188e71461013c57806378775d32146101585780637da8f6a51461017457806392ebdcd2146101a45780639cb8a26a146101c25780639fa09ef4146101cc576100a9565b806307b37d1d146100ae578063137d4722146100ca5780631d183760146100e6578063596e15e61461010257806370f05f971461011e575b600080fd5b6100c860048036038101906100c391906113c3565b6101e8565b005b6100e460048036038101906100df9190611441565b61058d565b005b61010060048036038101906100fb91906114ac565b61065f565b005b61011c60048036038101906101179190611517565b610731565b005b610126610803565b60405161013391906115a3565b60405180910390f35b610156600480360381019061015191906115be565b6109c5565b005b610172600480360381019061016d9190611629565b610b3f565b005b61018e60048036038101906101899190611656565b610c11565b60405161019b9190611a68565b60405180910390f35b6101ac610e4e565b6040516101b99190611a99565b60405180910390f35b6101ca610e72565b005b6101e660048036038101906101e19190611af2565b610f39565b005b3373ffffffffffffffffffffffffffffffffffffffff168273ffffffffffffffffffffffffffffffffffffffff1614610256576040517f08c379a000000000000000000000000000000000000000000000000000000000815260040161024d90611bb5565b60405180910390fd5b6000600260009054906101000a900473ffffffffffffffffffffffffffffffffffffffff1673ffffffffffffffffffffffffffffffffffffffff1663b10b65ce6005546040518263ffffffff1660e01b81526004016102b59190611be4565b6020604051808303816000875af11580156102d4573d6000803e3d6000fd5b505050506040513d601f19601f820116820180604052508101906102f89190611c3d565b90506000604051610308906111c2565b604051809103906000f080158015610324573d6000803e3d6000fd5b5090508073ffffffffffffffffffffffffffffffffffffffff16635745ab98856040518263ffffffff1660e01b81526004016103609190611a99565b600060405180830381600087803b15801561037a57600080fd5b505af115801561038e573d6000803e3d6000fd5b505050508073ffffffffffffffffffffffffffffffffffffffff1663ce8dd29f836040518263ffffffff1660e01b81526004016103cb9190611c8b565b600060405180830381600087803b1580156103e557600080fd5b505af11580156103f9573d6000803e3d6000fd5b505050508073ffffffffffffffffffffffffffffffffffffffff1663fdaef48360016040518263ffffffff1660e01b81526004016104379190611cb5565b600060405180830381600087803b15801561045157600080fd5b505af1158015610465573d6000803e3d6000fd5b50505050600360009054906101000a900473ffffffffffffffffffffffffffffffffffffffff1673ffffffffffffffffffffffffffffffffffffffff1663be381c5985836040518363ffffffff1660e01b81526004016104c6929190611cf1565b600060405180830381600087803b1580156104e057600080fd5b505af11580156104f4573d6000803e3d6000fd5b50505050600160009054906101000a900473ffffffffffffffffffffffffffffffffffffffff1673ffffffffffffffffffffffffffffffffffffffff1663be381c5985856040518363ffffffff1660e01b8152600401610555929190611d1a565b600060405180830381600087803b15801561056f57600080fd5b505af1158015610583573d6000803e3d6000fd5b5050505050505050565b60008054906101000a900473ffffffffffffffffffffffffffffffffffffffff1673ffffffffffffffffffffffffffffffffffffffff163373ffffffffffffffffffffffffffffffffffffffff161461061b576040517f08c379a000000000000000000000000000000000000000000000000000000000815260040161061290611ddb565b60405180910390fd5b80600460006101000a81548173ffffffffffffffffffffffffffffffffffffffff021916908373ffffffffffffffffffffffffffffffffffffffff16021790555050565b60008054906101000a900473ffffffffffffffffffffffffffffffffffffffff1673ffffffffffffffffffffffffffffffffffffffff163373ffffffffffffffffffffffffffffffffffffffff16146106ed576040517f08c379a00000000000000000000000000000000000000000000000000000000081526004016106e490611ddb565b60405180910390fd5b80600160006101000a81548173ffffffffffffffffffffffffffffffffffffffff021916908373ffffffffffffffffffffffffffffffffffffffff16021790555050565b60008054906101000a900473ffffffffffffffffffffffffffffffffffffffff1673ffffffffffffffffffffffffffffffffffffffff163373ffffffffffffffffffffffffffffffffffffffff16146107bf576040517f08c379a00000000000000000000000000000000000000000000000000000000081526004016107b690611ddb565b60405180910390fd5b80600360006101000a81548173ffffffffffffffffffffffffffffffffffffffff021916908373ffffffffffffffffffffffffffffffffffffffff16021790555050565b600060026000600460009054906101000a900473ffffffffffffffffffffffffffffffffffffffff1673ffffffffffffffffffffffffffffffffffffffff16636d4cc9d233846040518363ffffffff1660e01b8152600401610866929190611dfb565b6020604051808303816000875af1158015610885573d6000803e3d6000fd5b505050506040513d601f19601f820116820180604052508101906108a99190611e50565b9050806108eb576040517f08c379a00000000000000000000000000000000000000000000000000000000081526004016108e290611ec9565b60405180910390fd5b7fcf34ef537ac33ee1ac626ca1587a0a7e8e51561e5514f8cb36afa1c5102b3bab60405161091890611f5b565b60405180910390a1600160009054906101000a900473ffffffffffffffffffffffffffffffffffffffff1673ffffffffffffffffffffffffffffffffffffffff16637da8f6a5336040518263ffffffff1660e01b815260040161097b9190611a99565b6020604051808303816000875af115801561099a573d6000803e3d6000fd5b505050506040513d601f19601f820116820180604052508101906109be9190611f90565b9250505090565b60036000600460009054906101000a900473ffffffffffffffffffffffffffffffffffffffff1673ffffffffffffffffffffffffffffffffffffffff16636d4cc9d233846040518363ffffffff1660e01b8152600401610a26929190611dfb565b6020604051808303816000875af1158015610a45573d6000803e3d6000fd5b505050506040513d601f19601f82011682018060405250810190610a699190611e50565b905080610aab576040517f08c379a0000000000000000000000000000000000000000000000000000000008152600401610aa290611ec9565b60405180910390fd5b600160009054906101000a900473ffffffffffffffffffffffffffffffffffffffff1673ffffffffffffffffffffffffffffffffffffffff16630da7d7a533856040518363ffffffff1660e01b8152600401610b08929190611d1a565b600060405180830381600087803b158015610b2257600080fd5b505af1158015610b36573d6000803e3d6000fd5b50505050505050565b60008054906101000a900473ffffffffffffffffffffffffffffffffffffffff1673ffffffffffffffffffffffffffffffffffffffff163373ffffffffffffffffffffffffffffffffffffffff1614610bcd576040517f08c379a0000000000000000000000000000000000000000000000000000000008152600401610bc490611ddb565b60405180910390fd5b80600260006101000a81548173ffffffffffffffffffffffffffffffffffffffff021916908373ffffffffffffffffffffffffffffffffffffffff16021790555050565b610c196111cf565b60016000600460009054906101000a900473ffffffffffffffffffffffffffffffffffffffff1673ffffffffffffffffffffffffffffffffffffffff16636d4cc9d233846040518363ffffffff1660e01b8152600401610c7a929190611dfb565b6020604051808303816000875af1158015610c99573d6000803e3d6000fd5b505050506040513d601f19601f82011682018060405250810190610cbd9190611e50565b905080610cff576040517f08c379a0000000000000000000000000000000000000000000000000000000008152600401610cf690611ec9565b60405180910390fd5b7fcf34ef537ac33ee1ac626ca1587a0a7e8e51561e5514f8cb36afa1c5102b3bab604051610d2c90612009565b60405180910390a1600160009054906101000a900473ffffffffffffffffffffffffffffffffffffffff1673ffffffffffffffffffffffffffffffffffffffff16637da8f6a5856040518263ffffffff1660e01b8152600401610d8f9190611a99565b6020604051808303816000875af1158015610dae573d6000803e3d6000fd5b505050506040513d601f19601f82011682018060405250810190610dd29190611f90565b73ffffffffffffffffffffffffffffffffffffffff166359d1cfd66040518163ffffffff1660e01b8152600401600060405180830381865afa158015610e1c573d6000803e3d6000fd5b505050506040513d6000823e3d601f19601f82011682018060405250810190610e4591906126a0565b92505050919050565b60008054906101000a900473ffffffffffffffffffffffffffffffffffffffff1681565b60008054906101000a900473ffffffffffffffffffffffffffffffffffffffff1673ffffffffffffffffffffffffffffffffffffffff163373ffffffffffffffffffffffffffffffffffffffff1614610f00576040517f08c379a0000000000000000000000000000000000000000000000000000000008152600401610ef790611ddb565b60405180910390fd5b60008054906101000a900473ffffffffffffffffffffffffffffffffffffffff1673ffffffffffffffffffffffffffffffffffffffff16ff5b60046000600460009054906101000a900473ffffffffffffffffffffffffffffffffffffffff1673ffffffffffffffffffffffffffffffffffffffff16636d4cc9d233846040518363ffffffff1660e01b8152600401610f9a929190611dfb565b6020604051808303816000875af1158015610fb9573d6000803e3d6000fd5b505050506040513d601f19601f82011682018060405250810190610fdd9190611e50565b90508061101f576040517f08c379a000000000000000000000000000000000000000000000000000000000815260040161101690611ec9565b60405180910390fd5b6000600160009054906101000a900473ffffffffffffffffffffffffffffffffffffffff1673ffffffffffffffffffffffffffffffffffffffff16637da8f6a5866040518263ffffffff1660e01b815260040161107c9190611a99565b6020604051808303816000875af115801561109b573d6000803e3d6000fd5b505050506040513d601f19601f820116820180604052508101906110bf9190611f90565b90508073ffffffffffffffffffffffffffffffffffffffff1663ef974e80856040518263ffffffff1660e01b81526004016110fa919061270a565b600060405180830381600087803b15801561111457600080fd5b505af1158015611128573d6000803e3d6000fd5b50505050600160009054906101000a900473ffffffffffffffffffffffffffffffffffffffff1673ffffffffffffffffffffffffffffffffffffffff16630da7d7a586836040518363ffffffff1660e01b8152600401611189929190611d1a565b600060405180830381600087803b1580156111a357600080fd5b505af11580156111b7573d6000803e3d6000fd5b505050505050505050565b610a2d8061272683390190565b60405180606001604052806111e2611202565b81526020016111ef611265565b81526020016111fc6112bf565b81525090565b604051806101000160405280600073ffffffffffffffffffffffffffffffffffffffff16815260200160608152602001606081526020016060815260200160608152602001606081526020016112566112e9565b81526020016000151581525090565b60405180610160016040528060008152602001600081526020016000815260200160008152602001606081526020016060815260200160608152602001606081526020016000815260200160008152602001600081525090565b60405180608001604052806000815260200160608152602001606081526020016000151581525090565b60405180608001604052806000815260200160608152602001606081526020016000151581525090565b6000604051905090565b600080fd5b600080fd5b600073ffffffffffffffffffffffffffffffffffffffff82169050919050565b600061135282611327565b9050919050565b61136281611347565b811461136d57600080fd5b50565b60008135905061137f81611359565b92915050565b600061139082611347565b9050919050565b6113a081611385565b81146113ab57600080fd5b50565b6000813590506113bd81611397565b92915050565b600080604083850312156113da576113d961131d565b5b60006113e885828601611370565b92505060206113f9858286016113ae565b9150509250929050565b600061140e82611347565b9050919050565b61141e81611403565b811461142957600080fd5b50565b60008135905061143b81611415565b92915050565b6000602082840312156114575761145661131d565b5b60006114658482850161142c565b91505092915050565b600061147982611347565b9050919050565b6114898161146e565b811461149457600080fd5b50565b6000813590506114a681611480565b92915050565b6000602082840312156114c2576114c161131d565b5b60006114d084828501611497565b91505092915050565b60006114e482611347565b9050919050565b6114f4816114d9565b81146114ff57600080fd5b50565b600081359050611511816114eb565b92915050565b60006020828403121561152d5761152c61131d565b5b600061153b84828501611502565b91505092915050565b6000819050919050565b600061156961156461155f84611327565b611544565b611327565b9050919050565b600061157b8261154e565b9050919050565b600061158d82611570565b9050919050565b61159d81611582565b82525050565b60006020820190506115b86000830184611594565b92915050565b6000602082840312156115d4576115d361131d565b5b60006115e2848285016113ae565b91505092915050565b60006115f682611347565b9050919050565b611606816115eb565b811461161157600080fd5b50565b600081359050611623816115fd565b92915050565b60006020828403121561163f5761163e61131d565b5b600061164d84828501611614565b91505092915050565b60006020828403121561166c5761166b61131d565b5b600061167a84828501611370565b91505092915050565b61168c81611347565b82525050565b600081519050919050565b600082825260208201905092915050565b60005b838110156116cc5780820151818401526020810190506116b1565b838111156116db576000848401525b50505050565b6000601f19601f8301169050919050565b60006116fd82611692565b611707818561169d565b93506117178185602086016116ae565b611720816116e1565b840191505092915050565b6000819050919050565b61173e8161172b565b82525050565b60008115159050919050565b61175981611744565b82525050565b60006080830160008301516117776000860182611735565b506020830151848203602086015261178f82826116f2565b915050604083015184820360408601526117a982826116f2565b91505060608301516117be6060860182611750565b508091505092915050565b6000610100830160008301516117e26000860182611683565b50602083015184820360208601526117fa82826116f2565b9150506040830151848203604086015261181482826116f2565b9150506060830151848203606086015261182e82826116f2565b9150506080830151848203608086015261184882826116f2565b91505060a083015184820360a086015261186282826116f2565b91505060c083015184820360c086015261187c828261175f565b91505060e083015161189160e0860182611750565b508091505092915050565b6000610160830160008301516118b56000860182611735565b5060208301516118c86020860182611735565b5060408301516118db6040860182611735565b5060608301516118ee6060860182611735565b506080830151848203608086015261190682826116f2565b91505060a083015184820360a086015261192082826116f2565b91505060c083015184820360c086015261193a82826116f2565b91505060e083015184820360e086015261195482826116f2565b91505061010083015161196b610100860182611735565b50610120830151611980610120860182611735565b50610140830151611995610140860182611735565b508091505092915050565b60006080830160008301516119b86000860182611735565b50602083015184820360208601526119d082826116f2565b915050604083015184820360408601526119ea82826116f2565b91505060608301516119ff6060860182611750565b508091505092915050565b60006060830160008301518482036000860152611a2782826117c9565b91505060208301518482036020860152611a41828261189c565b91505060408301518482036040860152611a5b82826119a0565b9150508091505092915050565b60006020820190508181036000830152611a828184611a0a565b905092915050565b611a9381611347565b82525050565b6000602082019050611aae6000830184611a8a565b92915050565b6000611abf82611347565b9050919050565b611acf81611ab4565b8114611ada57600080fd5b50565b600081359050611aec81611ac6565b92915050565b60008060408385031215611b0957611b0861131d565b5b6000611b1785828601611370565b9250506020611b2885828601611add565b9150509250929050565b600082825260208201905092915050565b7f556e2070616369656e746520736520646562652072656769737472617220612060008201527f7369206d69736d6f000000000000000000000000000000000000000000000000602082015250565b6000611b9f602883611b32565b9150611baa82611b43565b604082019050919050565b60006020820190508181036000830152611bce81611b92565b9050919050565b611bde8161172b565b82525050565b6000602082019050611bf96000830184611bd5565b92915050565b6000611c0a82611347565b9050919050565b611c1a81611bff565b8114611c2557600080fd5b50565b600081519050611c3781611c11565b92915050565b600060208284031215611c5357611c5261131d565b5b6000611c6184828501611c28565b91505092915050565b6000611c7582611570565b9050919050565b611c8581611c6a565b82525050565b6000602082019050611ca06000830184611c7c565b92915050565b611caf81611744565b82525050565b6000602082019050611cca6000830184611ca6565b92915050565b6000611cdb82611570565b9050919050565b611ceb81611cd0565b82525050565b6000604082019050611d066000830185611a8a565b611d136020830184611ce2565b9392505050565b6000604082019050611d2f6000830185611a8a565b611d3c6020830184611594565b9392505050565b7f457374612066756e63696f6e20736f6c6f2070756564652073657220656a656360008201527f757461646120706f7220656c2063726561646f722064656c20636f6e7472617460208201527f6f00000000000000000000000000000000000000000000000000000000000000604082015250565b6000611dc5604183611b32565b9150611dd082611d43565b606082019050919050565b60006020820190508181036000830152611df481611db8565b9050919050565b6000604082019050611e106000830185611a8a565b611e1d6020830184611bd5565b9392505050565b611e2d81611744565b8114611e3857600080fd5b50565b600081519050611e4a81611e24565b92915050565b600060208284031215611e6657611e6561131d565b5b6000611e7484828501611e3b565b91505092915050565b7f456c207573756172696f206e6f207469656e652061636365736f000000000000600082015250565b6000611eb3601a83611b32565b9150611ebe82611e7d565b602082019050919050565b60006020820190508181036000830152611ee281611ea6565b9050919050565b7f456e74726f206120636f6e73756c746172206d69496e666f726d6163696f6e2060008201527f70616369656e7465000000000000000000000000000000000000000000000000602082015250565b6000611f45602883611b32565b9150611f5082611ee9565b604082019050919050565b60006020820190508181036000830152611f7481611f38565b9050919050565b600081519050611f8a81611397565b92915050565b600060208284031215611fa657611fa561131d565b5b6000611fb484828501611f7b565b91505092915050565b7f456e74726f206120636f6e73756c7461722050616369656e7465000000000000600082015250565b6000611ff3601a83611b32565b9150611ffe82611fbd565b602082019050919050565b6000602082019050818103600083015261202281611fe6565b9050919050565b600080fd5b7f4e487b7100000000000000000000000000000000000000000000000000000000600052604160045260246000fd5b612066826116e1565b810181811067ffffffffffffffff821117156120855761208461202e565b5b80604052505050565b6000612098611313565b90506120a4828261205d565b919050565b600080fd5b6000815190506120bd81611359565b92915050565b600080fd5b600080fd5b600067ffffffffffffffff8211156120e8576120e761202e565b5b6120f1826116e1565b9050602081019050919050565b600061211161210c846120cd565b61208e565b90508281526020810184848401111561212d5761212c6120c8565b5b6121388482856116ae565b509392505050565b600082601f830112612155576121546120c3565b5b81516121658482602086016120fe565b91505092915050565b6121778161172b565b811461218257600080fd5b50565b6000815190506121948161216e565b92915050565b6000608082840312156121b0576121af612029565b5b6121ba608061208e565b905060006121ca84828501612185565b600083015250602082015167ffffffffffffffff8111156121ee576121ed6120a9565b5b6121fa84828501612140565b602083015250604082015167ffffffffffffffff81111561221e5761221d6120a9565b5b61222a84828501612140565b604083015250606061223e84828501611e3b565b60608301525092915050565b6000610100828403121561226157612260612029565b5b61226c61010061208e565b9050600061227c848285016120ae565b600083015250602082015167ffffffffffffffff8111156122a05761229f6120a9565b5b6122ac84828501612140565b602083015250604082015167ffffffffffffffff8111156122d0576122cf6120a9565b5b6122dc84828501612140565b604083015250606082015167ffffffffffffffff811115612300576122ff6120a9565b5b61230c84828501612140565b606083015250608082015167ffffffffffffffff8111156123305761232f6120a9565b5b61233c84828501612140565b60808301525060a082015167ffffffffffffffff8111156123605761235f6120a9565b5b61236c84828501612140565b60a08301525060c082015167ffffffffffffffff8111156123905761238f6120a9565b5b61239c8482850161219a565b60c08301525060e06123b084828501611e3b565b60e08301525092915050565b600061016082840312156123d3576123d2612029565b5b6123de61016061208e565b905060006123ee84828501612185565b600083015250602061240284828501612185565b602083015250604061241684828501612185565b604083015250606061242a84828501612185565b606083015250608082015167ffffffffffffffff81111561244e5761244d6120a9565b5b61245a84828501612140565b60808301525060a082015167ffffffffffffffff81111561247e5761247d6120a9565b5b61248a84828501612140565b60a08301525060c082015167ffffffffffffffff8111156124ae576124ad6120a9565b5b6124ba84828501612140565b60c08301525060e082015167ffffffffffffffff8111156124de576124dd6120a9565b5b6124ea84828501612140565b60e0830152506101006124ff84828501612185565b6101008301525061012061251584828501612185565b6101208301525061014061252b84828501612185565b6101408301525092915050565b60006080828403121561254e5761254d612029565b5b612558608061208e565b9050600061256884828501612185565b600083015250602082015167ffffffffffffffff81111561258c5761258b6120a9565b5b61259884828501612140565b602083015250604082015167ffffffffffffffff8111156125bc576125bb6120a9565b5b6125c884828501612140565b60408301525060606125dc84828501611e3b565b60608301525092915050565b6000606082840312156125fe576125fd612029565b5b612608606061208e565b9050600082015167ffffffffffffffff811115612628576126276120a9565b5b6126348482850161224a565b600083015250602082015167ffffffffffffffff811115612658576126576120a9565b5b612664848285016123bc565b602083015250604082015167ffffffffffffffff811115612688576126876120a9565b5b61269484828501612538565b60408301525092915050565b6000602082840312156126b6576126b561131d565b5b600082015167ffffffffffffffff8111156126d4576126d3611322565b5b6126e0848285016125e8565b91505092915050565b60006126f482611570565b9050919050565b612704816126e9565b82525050565b600060208201905061271f60008301846126fb565b9291505056fe608060405234801561001057600080fd5b50610a0d806100206000396000f3fe608060405234801561001057600080fd5b506004361061007d5760003560e01c8063af9958461161005b578063af995846146100da578063c3e00aff146100f8578063ce8dd29f14610116578063fdaef483146101325761007d565b80635745ab9814610082578063607497241461009e57806364ff6bbe146100bc575b600080fd5b61009c60048036038101906100979190610432565b61014e565b005b6100a6610191565b6040516100b3919061046e565b60405180910390f35b6100c46101ba565b6040516100d1919061060c565b60405180910390f35b6100e26102be565b6040516100ef919061063d565b60405180910390f35b6101006102d5565b60405161010d91906106b7565b60405180910390f35b610130600480360381019061012b9190610710565b6102ff565b005b61014c60048036038101906101479190610769565b610343565b005b806000806101000a81548173ffffffffffffffffffffffffffffffffffffffff021916908373ffffffffffffffffffffffffffffffffffffffff16021790555050565b60008060009054906101000a900473ffffffffffffffffffffffffffffffffffffffff16905090565b6101c2610360565b604051806060016040528060008054906101000a900473ffffffffffffffffffffffffffffffffffffffff1673ffffffffffffffffffffffffffffffffffffffff168152602001600160009054906101000a900473ffffffffffffffffffffffffffffffffffffffff1673ffffffffffffffffffffffffffffffffffffffff1663ea1a6f296040518163ffffffff1660e01b8152600401600060405180830381865afa158015610276573d6000803e3d6000fd5b505050506040513d6000823e3d601f19601f8201168201806040525081019061029f919061098e565b8152602001600160149054906101000a900460ff161515815250905090565b6000600160149054906101000a900460ff16905090565b6000600160009054906101000a900473ffffffffffffffffffffffffffffffffffffffff16905090565b80600160006101000a81548173ffffffffffffffffffffffffffffffffffffffff021916908373ffffffffffffffffffffffffffffffffffffffff16021790555050565b80600160146101000a81548160ff02191690831515021790555050565b6040518060600160405280600073ffffffffffffffffffffffffffffffffffffffff16815260200161039061039f565b81526020016000151581525090565b60405180606001604052806000815260200160608152602001606081525090565b6000604051905090565b600080fd5b600080fd5b600073ffffffffffffffffffffffffffffffffffffffff82169050919050565b60006103ff826103d4565b9050919050565b61040f816103f4565b811461041a57600080fd5b50565b60008135905061042c81610406565b92915050565b600060208284031215610448576104476103ca565b5b60006104568482850161041d565b91505092915050565b610468816103f4565b82525050565b6000602082019050610483600083018461045f565b92915050565b610492816103f4565b82525050565b6000819050919050565b6104ab81610498565b82525050565b600081519050919050565b600082825260208201905092915050565b60005b838110156104eb5780820151818401526020810190506104d0565b838111156104fa576000848401525b50505050565b6000601f19601f8301169050919050565b600061051c826104b1565b61052681856104bc565b93506105368185602086016104cd565b61053f81610500565b840191505092915050565b600060608301600083015161056260008601826104a2565b506020830151848203602086015261057a8282610511565b915050604083015184820360408601526105948282610511565b9150508091505092915050565b60008115159050919050565b6105b6816105a1565b82525050565b60006060830160008301516105d46000860182610489565b50602083015184820360208601526105ec828261054a565b915050604083015161060160408601826105ad565b508091505092915050565b6000602082019050818103600083015261062681846105bc565b905092915050565b610637816105a1565b82525050565b6000602082019050610652600083018461062e565b92915050565b6000819050919050565b600061067d610678610673846103d4565b610658565b6103d4565b9050919050565b600061068f82610662565b9050919050565b60006106a182610684565b9050919050565b6106b181610696565b82525050565b60006020820190506106cc60008301846106a8565b92915050565b60006106dd826103f4565b9050919050565b6106ed816106d2565b81146106f857600080fd5b50565b60008135905061070a816106e4565b92915050565b600060208284031215610726576107256103ca565b5b6000610734848285016106fb565b91505092915050565b610746816105a1565b811461075157600080fd5b50565b6000813590506107638161073d565b92915050565b60006020828403121561077f5761077e6103ca565b5b600061078d84828501610754565b91505092915050565b600080fd5b7f4e487b7100000000000000000000000000000000000000000000000000000000600052604160045260246000fd5b6107d382610500565b810181811067ffffffffffffffff821117156107f2576107f161079b565b5b80604052505050565b60006108056103c0565b905061081182826107ca565b919050565b600080fd5b61082481610498565b811461082f57600080fd5b50565b6000815190506108418161081b565b92915050565b600080fd5b600080fd5b600067ffffffffffffffff82111561086c5761086b61079b565b5b61087582610500565b9050602081019050919050565b600061089561089084610851565b6107fb565b9050828152602081018484840111156108b1576108b061084c565b5b6108bc8482856104cd565b509392505050565b600082601f8301126108d9576108d8610847565b5b81516108e9848260208601610882565b91505092915050565b60006060828403121561090857610907610796565b5b61091260606107fb565b9050600061092284828501610832565b600083015250602082015167ffffffffffffffff81111561094657610945610816565b5b610952848285016108c4565b602083015250604082015167ffffffffffffffff81111561097657610975610816565b5b610982848285016108c4565b60408301525092915050565b6000602082840312156109a4576109a36103ca565b5b600082015167ffffffffffffffff8111156109c2576109c16103cf565b5b6109ce848285016108f2565b9150509291505056fea2646970667358221220ce7d9bd3624fdd0283edcc9f5a644c0423b162172b37d5f964cec4714818d93d64736f6c634300080b0033a26469706673582212207d77f20f8df0de7ab3476bb83ce6d054fa4602cdcf6ff492f374b6ba543929d464736f6c634300080b0033",
  "immutableReferences": {},
  "source": "// SPDX-License-Identifier: MIT\npragma solidity ^0.8.10;\n\n//import \"./Persona.sol\";\nimport \"../models/PacienteVO.sol\";\nimport \"../persistence/PacienteMapper.sol\";\nimport \"./Acceso.sol\";\n\ncontract Paciente {\n    event Log(string data);\n    address public creador;\n\n    PacienteMapperInterface private pacienteMapper;\n    RolMapperInterface private rolMapper;\n    UsuarioMapperInterface private usuarioMapper;\n    Acceso private acceso;\n    \n\n    //TODO Convertir eventualmente en un enum\n    uint256 rolPacienteId = 1;\n\n    constructor() {\n        creador = msg.sender; // creador del contrato\n    }\n\n    // Puede el medico\n    function consultar(address direccion)\n        public\n        tieneAcceso(1) \n        returns (PacienteVO.PacienteVOStruct memory)\n    {\n        emit Log(\"Entro a consultar Paciente\");\n        return pacienteMapper.consultar(direccion).getPacienteVOValue();\n        \n    }\n\n    // TODO Agregar a diagrama\n    // Solo lo puede usar el paciente\n    function consultar()\n        public\n        tieneAcceso(2) \n        returns (PacienteVO)\n    {\n        emit Log(\"Entro a consultar miInformacion paciente\");\n        return pacienteMapper.consultar(msg.sender);\n        \n    }\n    \n    // TODO: validar que pasa si falla el registro de persona\n    // TODO: que pasa si falla guardar paciente?\n    //tieneAcceso(2)\n    function registrar(address direccion, PacienteVO paciente)\n        public\n    {\n        if (direccion != msg.sender) {\n            revert(\"Un paciente se debe registrar a si mismo\");\n        }\n\n        RolVO rol = rolMapper.consultar(rolPacienteId);\n        UsuarioVO nuevoUsuario = new UsuarioVO(); \n        nuevoUsuario.setDireccion(direccion);\n        nuevoUsuario.setRol(rol);\n        nuevoUsuario.setEstaActivo(true);\n        usuarioMapper.guardar(direccion, nuevoUsuario);\n        pacienteMapper.guardar(direccion, paciente);\n        // TODO Crear HC\n        // registrar usuario\n        \n    }\n    /*\n    // TODO: Discutir si un mdico debe actualizar al paciente (nombre y demas)\n    // TODO: Sollo se podria acceder con el acceso que da el paciente sobre su info\n    function actualizar(address direccion, PacienteVO paciente)\n        public\n        tieneAcceso(3)\n    {\n        if (direccion != msg.sender) {\n            // si alguien diferente al propietario de la historia la consulta se debe validar quien es\n            // validar quien consulta\n            revert(\"No tiene permisos de actualizar\");\n        }\n        // bloquear actualizacin de estado\n        pacienteMapper.actualizar(direccion, paciente);\n    }\n    */\n\n    function actualizar(PacienteVO paciente)\n        public\n        tieneAcceso(3)\n    {\n        // bloquear actualizacin de estado\n        pacienteMapper.actualizar(msg.sender, paciente);\n    }\n\n    // TODO: poner modificador para que solo lo pueda ejecutar el service y\n    // en el service que solo lo ejecute un mdico\n    // TODO: Debe usar el permiso que da el paciente\n    function cambiarEstado(address _direccion, EstadoVO _estado)\n        public\n        tieneAcceso(4)\n    {\n        PacienteVO paciente = pacienteMapper.consultar(_direccion);\n        paciente.setEstado(_estado);\n        pacienteMapper.actualizar(_direccion, paciente);\n    }\n\n    function setPacienteMapper(PacienteMapperInterface _pacienteMapperAddress)\n        public\n        esPropietario\n    {\n        pacienteMapper = _pacienteMapperAddress;\n    }\n\n    function setRolMapper(RolMapperInterface _rolMapperAddress)\n        public\n        esPropietario\n    {\n        rolMapper = _rolMapperAddress;\n    }\n\n    function setUsuarioMapper(UsuarioMapperInterface _usuarioMapperAddress)\n        public\n        esPropietario\n    {\n        usuarioMapper = _usuarioMapperAddress;\n    }\n\n    function setAcceso(Acceso _accesoAddress) public esPropietario {\n        acceso = _accesoAddress;\n    }\n\n    modifier esPropietario() {\n        require(\n            msg.sender == creador,\n            \"Esta funcion solo puede ser ejecutada por el creador del contrato\"\n        );\n        _; // ac se ejecuta la funcin\n    }\n\n    function selfDestruct() public esPropietario {\n        selfdestruct(payable(creador));\n    }\n\n    modifier tieneAcceso(uint256 permisoId) {\n        bool esAccesible = acceso.validarPermisoDeRol(msg.sender, permisoId);\n        require(esAccesible, \"El usuario no tiene acceso\");\n        _; // ac se ejecuta la funcin\n    }\n}\n",
  "sourcePath": "/home/felipe/Documentos/Blockchain/codigo/back-hce/contracts/logica/Paciente.sol",
  "compiler": {
    "name": "solc",
    "version": "0.8.11+commit.d7f03943.Emscripten.clang"
  },
  "schemaVersion": "3.4.4",
  "updatedAt": "2022-06-28T00:26:18.828Z",
  "networkType": "ethereum",
  "devdoc": {
    "kind": "dev",
    "methods": {},
    "version": 1
  },
  "userdoc": {
    "kind": "user",
    "methods": {},
    "version": 1
  }
}