{
  "contractName": "Paciente",
  "abi": [
    {
      "inputs": [],
      "stateMutability": "nonpayable",
      "type": "constructor"
    },
    {
      "anonymous": false,
      "inputs": [
        {
          "indexed": false,
          "internalType": "string",
          "name": "data",
          "type": "string"
        }
      ],
      "name": "Log",
      "type": "event"
    },
    {
      "inputs": [],
      "name": "creador",
      "outputs": [
        {
          "internalType": "address",
          "name": "",
          "type": "address"
        }
      ],
      "stateMutability": "view",
      "type": "function",
      "constant": true
    },
    {
      "inputs": [
        {
          "internalType": "contract Acceso",
          "name": "_accesoAddress",
          "type": "address"
        }
      ],
      "name": "setAcceso",
      "outputs": [],
      "stateMutability": "nonpayable",
      "type": "function"
    },
    {
      "inputs": [
        {
          "internalType": "contract AccesoHistoriaClinica",
          "name": "_accesoHistoriaClinicaAddress",
          "type": "address"
        }
      ],
      "name": "setAccesoHistoriaClinica",
      "outputs": [],
      "stateMutability": "nonpayable",
      "type": "function"
    },
    {
      "inputs": [],
      "name": "consultar",
      "outputs": [
        {
          "components": [
            {
              "components": [
                {
                  "internalType": "address",
                  "name": "direccion",
                  "type": "address"
                },
                {
                  "internalType": "uint256",
                  "name": "id",
                  "type": "uint256"
                },
                {
                  "internalType": "string",
                  "name": "primerNombre",
                  "type": "string"
                },
                {
                  "internalType": "string",
                  "name": "segundoNombre",
                  "type": "string"
                },
                {
                  "internalType": "string",
                  "name": "primerApellido",
                  "type": "string"
                },
                {
                  "internalType": "string",
                  "name": "segundoApellido",
                  "type": "string"
                },
                {
                  "internalType": "string",
                  "name": "identificacion",
                  "type": "string"
                },
                {
                  "internalType": "uint256",
                  "name": "tipoIdentificacion",
                  "type": "uint256"
                },
                {
                  "internalType": "bool",
                  "name": "isValue",
                  "type": "bool"
                }
              ],
              "internalType": "struct Persona.PersonaStruct",
              "name": "persona",
              "type": "tuple"
            },
            {
              "components": [
                {
                  "internalType": "uint256",
                  "name": "sexoId",
                  "type": "uint256"
                },
                {
                  "internalType": "uint256",
                  "name": "estadoCivilId",
                  "type": "uint256"
                },
                {
                  "internalType": "uint256",
                  "name": "fechaNacimiento",
                  "type": "uint256"
                },
                {
                  "internalType": "uint256",
                  "name": "edad",
                  "type": "uint256"
                },
                {
                  "internalType": "string",
                  "name": "ciudadResidencia",
                  "type": "string"
                },
                {
                  "internalType": "string",
                  "name": "ocupacion",
                  "type": "string"
                },
                {
                  "internalType": "string",
                  "name": "direccion",
                  "type": "string"
                },
                {
                  "internalType": "string",
                  "name": "telefono",
                  "type": "string"
                },
                {
                  "internalType": "uint256",
                  "name": "aseguradoraId",
                  "type": "uint256"
                },
                {
                  "internalType": "uint256",
                  "name": "tipoVinculacionId",
                  "type": "uint256"
                },
                {
                  "internalType": "uint256",
                  "name": "acudienteId",
                  "type": "uint256"
                }
              ],
              "internalType": "struct DatosPersonalesStruct",
              "name": "datosPersonales",
              "type": "tuple"
            },
            {
              "internalType": "uint256",
              "name": "estadoId",
              "type": "uint256"
            }
          ],
          "internalType": "struct PacienteVO.PacienteVOStruct",
          "name": "",
          "type": "tuple"
        }
      ],
      "stateMutability": "nonpayable",
      "type": "function"
    },
    {
      "inputs": [
        {
          "internalType": "address",
          "name": "direccion",
          "type": "address"
        }
      ],
      "name": "consultar",
      "outputs": [
        {
          "components": [
            {
              "components": [
                {
                  "internalType": "address",
                  "name": "direccion",
                  "type": "address"
                },
                {
                  "internalType": "uint256",
                  "name": "id",
                  "type": "uint256"
                },
                {
                  "internalType": "string",
                  "name": "primerNombre",
                  "type": "string"
                },
                {
                  "internalType": "string",
                  "name": "segundoNombre",
                  "type": "string"
                },
                {
                  "internalType": "string",
                  "name": "primerApellido",
                  "type": "string"
                },
                {
                  "internalType": "string",
                  "name": "segundoApellido",
                  "type": "string"
                },
                {
                  "internalType": "string",
                  "name": "identificacion",
                  "type": "string"
                },
                {
                  "internalType": "uint256",
                  "name": "tipoIdentificacion",
                  "type": "uint256"
                },
                {
                  "internalType": "bool",
                  "name": "isValue",
                  "type": "bool"
                }
              ],
              "internalType": "struct Persona.PersonaStruct",
              "name": "persona",
              "type": "tuple"
            },
            {
              "components": [
                {
                  "internalType": "uint256",
                  "name": "sexoId",
                  "type": "uint256"
                },
                {
                  "internalType": "uint256",
                  "name": "estadoCivilId",
                  "type": "uint256"
                },
                {
                  "internalType": "uint256",
                  "name": "fechaNacimiento",
                  "type": "uint256"
                },
                {
                  "internalType": "uint256",
                  "name": "edad",
                  "type": "uint256"
                },
                {
                  "internalType": "string",
                  "name": "ciudadResidencia",
                  "type": "string"
                },
                {
                  "internalType": "string",
                  "name": "ocupacion",
                  "type": "string"
                },
                {
                  "internalType": "string",
                  "name": "direccion",
                  "type": "string"
                },
                {
                  "internalType": "string",
                  "name": "telefono",
                  "type": "string"
                },
                {
                  "internalType": "uint256",
                  "name": "aseguradoraId",
                  "type": "uint256"
                },
                {
                  "internalType": "uint256",
                  "name": "tipoVinculacionId",
                  "type": "uint256"
                },
                {
                  "internalType": "uint256",
                  "name": "acudienteId",
                  "type": "uint256"
                }
              ],
              "internalType": "struct DatosPersonalesStruct",
              "name": "datosPersonales",
              "type": "tuple"
            },
            {
              "internalType": "uint256",
              "name": "estadoId",
              "type": "uint256"
            }
          ],
          "internalType": "struct PacienteVO.PacienteVOStruct",
          "name": "",
          "type": "tuple"
        }
      ],
      "stateMutability": "nonpayable",
      "type": "function"
    },
    {
      "inputs": [
        {
          "internalType": "uint256",
          "name": "id",
          "type": "uint256"
        }
      ],
      "name": "consultarPorId",
      "outputs": [
        {
          "components": [
            {
              "components": [
                {
                  "internalType": "address",
                  "name": "direccion",
                  "type": "address"
                },
                {
                  "internalType": "uint256",
                  "name": "id",
                  "type": "uint256"
                },
                {
                  "internalType": "string",
                  "name": "primerNombre",
                  "type": "string"
                },
                {
                  "internalType": "string",
                  "name": "segundoNombre",
                  "type": "string"
                },
                {
                  "internalType": "string",
                  "name": "primerApellido",
                  "type": "string"
                },
                {
                  "internalType": "string",
                  "name": "segundoApellido",
                  "type": "string"
                },
                {
                  "internalType": "string",
                  "name": "identificacion",
                  "type": "string"
                },
                {
                  "internalType": "uint256",
                  "name": "tipoIdentificacion",
                  "type": "uint256"
                },
                {
                  "internalType": "bool",
                  "name": "isValue",
                  "type": "bool"
                }
              ],
              "internalType": "struct Persona.PersonaStruct",
              "name": "persona",
              "type": "tuple"
            },
            {
              "components": [
                {
                  "internalType": "uint256",
                  "name": "sexoId",
                  "type": "uint256"
                },
                {
                  "internalType": "uint256",
                  "name": "estadoCivilId",
                  "type": "uint256"
                },
                {
                  "internalType": "uint256",
                  "name": "fechaNacimiento",
                  "type": "uint256"
                },
                {
                  "internalType": "uint256",
                  "name": "edad",
                  "type": "uint256"
                },
                {
                  "internalType": "string",
                  "name": "ciudadResidencia",
                  "type": "string"
                },
                {
                  "internalType": "string",
                  "name": "ocupacion",
                  "type": "string"
                },
                {
                  "internalType": "string",
                  "name": "direccion",
                  "type": "string"
                },
                {
                  "internalType": "string",
                  "name": "telefono",
                  "type": "string"
                },
                {
                  "internalType": "uint256",
                  "name": "aseguradoraId",
                  "type": "uint256"
                },
                {
                  "internalType": "uint256",
                  "name": "tipoVinculacionId",
                  "type": "uint256"
                },
                {
                  "internalType": "uint256",
                  "name": "acudienteId",
                  "type": "uint256"
                }
              ],
              "internalType": "struct DatosPersonalesStruct",
              "name": "datosPersonales",
              "type": "tuple"
            },
            {
              "internalType": "uint256",
              "name": "estadoId",
              "type": "uint256"
            }
          ],
          "internalType": "struct PacienteVO.PacienteVOStruct",
          "name": "",
          "type": "tuple"
        }
      ],
      "stateMutability": "nonpayable",
      "type": "function"
    },
    {
      "inputs": [
        {
          "internalType": "address",
          "name": "direccion",
          "type": "address"
        },
        {
          "internalType": "contract PacienteVO",
          "name": "paciente",
          "type": "address"
        }
      ],
      "name": "registrar",
      "outputs": [],
      "stateMutability": "nonpayable",
      "type": "function"
    },
    {
      "inputs": [
        {
          "internalType": "address",
          "name": "direccion",
          "type": "address"
        },
        {
          "components": [
            {
              "components": [
                {
                  "internalType": "address",
                  "name": "direccion",
                  "type": "address"
                },
                {
                  "internalType": "uint256",
                  "name": "id",
                  "type": "uint256"
                },
                {
                  "internalType": "string",
                  "name": "primerNombre",
                  "type": "string"
                },
                {
                  "internalType": "string",
                  "name": "segundoNombre",
                  "type": "string"
                },
                {
                  "internalType": "string",
                  "name": "primerApellido",
                  "type": "string"
                },
                {
                  "internalType": "string",
                  "name": "segundoApellido",
                  "type": "string"
                },
                {
                  "internalType": "string",
                  "name": "identificacion",
                  "type": "string"
                },
                {
                  "internalType": "uint256",
                  "name": "tipoIdentificacion",
                  "type": "uint256"
                },
                {
                  "internalType": "bool",
                  "name": "isValue",
                  "type": "bool"
                }
              ],
              "internalType": "struct Persona.PersonaStruct",
              "name": "persona",
              "type": "tuple"
            },
            {
              "components": [
                {
                  "internalType": "uint256",
                  "name": "sexoId",
                  "type": "uint256"
                },
                {
                  "internalType": "uint256",
                  "name": "estadoCivilId",
                  "type": "uint256"
                },
                {
                  "internalType": "uint256",
                  "name": "fechaNacimiento",
                  "type": "uint256"
                },
                {
                  "internalType": "uint256",
                  "name": "edad",
                  "type": "uint256"
                },
                {
                  "internalType": "string",
                  "name": "ciudadResidencia",
                  "type": "string"
                },
                {
                  "internalType": "string",
                  "name": "ocupacion",
                  "type": "string"
                },
                {
                  "internalType": "string",
                  "name": "direccion",
                  "type": "string"
                },
                {
                  "internalType": "string",
                  "name": "telefono",
                  "type": "string"
                },
                {
                  "internalType": "uint256",
                  "name": "aseguradoraId",
                  "type": "uint256"
                },
                {
                  "internalType": "uint256",
                  "name": "tipoVinculacionId",
                  "type": "uint256"
                },
                {
                  "internalType": "uint256",
                  "name": "acudienteId",
                  "type": "uint256"
                }
              ],
              "internalType": "struct DatosPersonalesStruct",
              "name": "datosPersonales",
              "type": "tuple"
            },
            {
              "internalType": "uint256",
              "name": "estadoId",
              "type": "uint256"
            }
          ],
          "internalType": "struct PacienteVO.PacienteVOStruct",
          "name": "pacienteVOStruct",
          "type": "tuple"
        }
      ],
      "name": "registrarConStruct",
      "outputs": [],
      "stateMutability": "nonpayable",
      "type": "function"
    },
    {
      "inputs": [
        {
          "internalType": "contract PacienteVO",
          "name": "paciente",
          "type": "address"
        }
      ],
      "name": "actualizar",
      "outputs": [],
      "stateMutability": "nonpayable",
      "type": "function"
    },
    {
      "inputs": [
        {
          "internalType": "address",
          "name": "_direccion",
          "type": "address"
        },
        {
          "internalType": "contract EstadoVO",
          "name": "_estado",
          "type": "address"
        }
      ],
      "name": "cambiarEstado",
      "outputs": [],
      "stateMutability": "nonpayable",
      "type": "function"
    },
    {
      "inputs": [
        {
          "internalType": "contract PacienteMapperInterface",
          "name": "_pacienteMapperAddress",
          "type": "address"
        }
      ],
      "name": "setPacienteMapper",
      "outputs": [],
      "stateMutability": "nonpayable",
      "type": "function"
    },
    {
      "inputs": [
        {
          "internalType": "contract RolMapperInterface",
          "name": "_rolMapperAddress",
          "type": "address"
        }
      ],
      "name": "setRolMapper",
      "outputs": [],
      "stateMutability": "nonpayable",
      "type": "function"
    },
    {
      "inputs": [
        {
          "internalType": "contract UsuarioMapperInterface",
          "name": "_usuarioMapperAddress",
          "type": "address"
        }
      ],
      "name": "setUsuarioMapper",
      "outputs": [],
      "stateMutability": "nonpayable",
      "type": "function"
    },
    {
      "inputs": [
        {
          "internalType": "contract DatosParametricosMapperInterface",
          "name": "_datosParametricosMapperAddress",
          "type": "address"
        }
      ],
      "name": "setDatosParametricosMapper",
      "outputs": [],
      "stateMutability": "nonpayable",
      "type": "function"
    },
    {
      "inputs": [],
      "name": "selfDestruct",
      "outputs": [],
      "stateMutability": "nonpayable",
      "type": "function"
    }
  ],
  "bytecode": "0x608060405234801561001057600080fd5b50600080546001600160a01b03191633179055614319806100326000396000f3fe608060405234801561001057600080fd5b50600436106100f55760003560e01c8063731188e7116100975780639cb8a26a116100665780639cb8a26a146101f05780639fa09ef4146101f8578063adb0a7251461020b578063c204c17d1461021e57600080fd5b8063731188e71461018c57806378775d321461019f5780637da8f6a5146101b257806392ebdcd2146101c557600080fd5b80631d183760116100d35780631d183760146101355780634022d67214610148578063596e15e61461015b57806370f05f971461016e57600080fd5b806307b37d1d146100fa578063137d47221461010f5780631643b38d14610122575b600080fd5b61010d610108366004611762565b610231565b005b61010d61011d36600461179b565b610682565b61010d610130366004611a13565b61072e565b61010d61014336600461179b565b610917565b61010d61015636600461179b565b6109c3565b61010d61016936600461179b565b610a6f565b610176610b1b565b6040516101839190611dcd565b60405180910390f35b61010d61019a36600461179b565b610d54565b61010d6101ad36600461179b565b610e7f565b6101766101c036600461179b565b610f2b565b6000546101d8906001600160a01b031681565b6040516001600160a01b039091168152602001610183565b61010d61113e565b61010d610206366004611762565b6111d6565b610176610219366004611de0565b6113f7565b61010d61022c36600461179b565b6115a0565b6001546040516336a664e960e11b81523360048083019190915260248201819052916000916001600160a01b0390911690636d4cc9d2906044016020604051808303816000875af115801561028a573d6000803e3d6000fd5b505050506040513d601f19601f820116820180604052508101906102ae9190611e04565b9050806103025760405162461bcd60e51b815260206004820152601a60248201527f456c207573756172696f206e6f207469656e652061636365736f00000000000060448201526064015b60405180910390fd5b6001600160a01b03841633146103805760405162461bcd60e51b815260206004820152602860248201527f556e2070616369656e746520736520646562652072656769737472617220612060448201527f7369206d69736d6f00000000000000000000000000000000000000000000000060648201526084016102f9565b600480546040517f86dda3680000000000000000000000000000000000000000000000000000000081526000926001600160a01b03909216916386dda368916103cb91859101611e21565b6020604051808303816000875af11580156103ea573d6000803e3d6000fd5b505050506040513d601f19601f8201168201806040525081019061040e9190611e49565b9050600060405161041e9061164c565b604051809103906000f08015801561043a573d6000803e3d6000fd5b506040517f5745ab980000000000000000000000000000000000000000000000000000000081526001600160a01b03888116600483015291925090821690635745ab9890602401600060405180830381600087803b15801561049b57600080fd5b505af11580156104af573d6000803e3d6000fd5b50506040517fce8dd29f0000000000000000000000000000000000000000000000000000000081526001600160a01b0385811660048301528416925063ce8dd29f9150602401600060405180830381600087803b15801561050f57600080fd5b505af1158015610523573d6000803e3d6000fd5b50506040517ffdaef483000000000000000000000000000000000000000000000000000000008152600160048201526001600160a01b038416925063fdaef4839150602401600060405180830381600087803b15801561058257600080fd5b505af1158015610596573d6000803e3d6000fd5b505060055460405163be381c5960e01b81526001600160a01b038a811660048301528581166024830152909116925063be381c599150604401600060405180830381600087803b1580156105e957600080fd5b505af11580156105fd573d6000803e3d6000fd5b505060035460405163be381c5960e01b81526001600160a01b038a811660048301528981166024830152909116925063be381c5991506044016020604051808303816000875af1158015610655573d6000803e3d6000fd5b505050506040513d601f19601f820116820180604052508101906106799190611e66565b50505050505050565b6000546001600160a01b0316331461070c5760405162461bcd60e51b815260206004820152604160248201527f457374612066756e63696f6e20736f6c6f2070756564652073657220656a656360448201527f757461646120706f7220656c2063726561646f722064656c20636f6e747261746064820152606f60f81b608482015260a4016102f9565b600180546001600160a01b0319166001600160a01b0392909216919091179055565b600060405161073c90611659565b604051809103906000f080158015610758573d6000803e3d6000fd5b5060065460408085015190517f480c42a00000000000000000000000000000000000000000000000000000000081529293506000926001600160a01b039092169163480c42a0916107af9160040190815260200190565b602060405180830381865afa1580156107cc573d6000803e3d6000fd5b505050506040513d601f19601f820116820180604052508101906107f09190611e49565b600654845160e001516040517f1dbaf4030000000000000000000000000000000000000000000000000000000081529293506000926001600160a01b0390921691631dbaf403916108479160040190815260200190565b602060405180830381865afa158015610864573d6000803e3d6000fd5b505050506040513d601f19601f820116820180604052508101906108889190611e49565b6040517f71b7a9ba0000000000000000000000000000000000000000000000000000000081529091506001600160a01b038416906371b7a9ba906108d490879086908690600401611e7f565b600060405180830381600087803b1580156108ee57600080fd5b505af1158015610902573d6000803e3d6000fd5b505050506109108584610231565b5050505050565b6000546001600160a01b031633146109a15760405162461bcd60e51b815260206004820152604160248201527f457374612066756e63696f6e20736f6c6f2070756564652073657220656a656360448201527f757461646120706f7220656c2063726561646f722064656c20636f6e747261746064820152606f60f81b608482015260a4016102f9565b600380546001600160a01b0319166001600160a01b0392909216919091179055565b6000546001600160a01b03163314610a4d5760405162461bcd60e51b815260206004820152604160248201527f457374612066756e63696f6e20736f6c6f2070756564652073657220656a656360448201527f757461646120706f7220656c2063726561646f722064656c20636f6e747261746064820152606f60f81b608482015260a4016102f9565b600280546001600160a01b0319166001600160a01b0392909216919091179055565b6000546001600160a01b03163314610af95760405162461bcd60e51b815260206004820152604160248201527f457374612066756e63696f6e20736f6c6f2070756564652073657220656a656360448201527f757461646120706f7220656c2063726561646f722064656c20636f6e747261746064820152606f60f81b608482015260a4016102f9565b600580546001600160a01b0319166001600160a01b0392909216919091179055565b610b23611666565b6001546040516336a664e960e11b8152336004820152600260248201819052916000916001600160a01b0390911690636d4cc9d2906044016020604051808303816000875af1158015610b7a573d6000803e3d6000fd5b505050506040513d601f19601f82011682018060405250810190610b9e9190611e04565b905080610bed5760405162461bcd60e51b815260206004820152601a60248201527f456c207573756172696f206e6f207469656e652061636365736f00000000000060448201526064016102f9565b7fcf34ef537ac33ee1ac626ca1587a0a7e8e51561e5514f8cb36afa1c5102b3bab604051610c729060208082526028908201527f456e74726f206120636f6e73756c746172206d69496e666f726d6163696f6e2060408201527f70616369656e7465000000000000000000000000000000000000000000000000606082015260800190565b60405180910390a1600354604051637da8f6a560e01b81523360048201526001600160a01b0390911690637da8f6a5906024016020604051808303816000875af1158015610cc4573d6000803e3d6000fd5b505050506040513d601f19601f82011682018060405250810190610ce89190611e49565b6001600160a01b03166359d1cfd66040518163ffffffff1660e01b8152600401600060405180830381865afa158015610d25573d6000803e3d6000fd5b505050506040513d6000823e601f3d908101601f19168201604052610d4d9190810190612007565b9250505090565b6001546040516336a664e960e11b8152336004820152600360248201819052916000916001600160a01b0390911690636d4cc9d2906044016020604051808303816000875af1158015610dab573d6000803e3d6000fd5b505050506040513d601f19601f82011682018060405250810190610dcf9190611e04565b905080610e1e5760405162461bcd60e51b815260206004820152601a60248201527f456c207573756172696f206e6f207469656e652061636365736f00000000000060448201526064016102f9565b600354604051630da7d7a560e01b81523360048201526001600160a01b03858116602483015290911690630da7d7a590604401600060405180830381600087803b158015610e6b57600080fd5b505af1158015610679573d6000803e3d6000fd5b6000546001600160a01b03163314610f095760405162461bcd60e51b815260206004820152604160248201527f457374612066756e63696f6e20736f6c6f2070756564652073657220656a656360448201527f757461646120706f7220656c2063726561646f722064656c20636f6e747261746064820152606f60f81b608482015260a4016102f9565b600480546001600160a01b0319166001600160a01b0392909216919091179055565b610f33611666565b600180546040516336a664e960e11b8152336004820152602481018390526000916001600160a01b031690636d4cc9d2906044016020604051808303816000875af1158015610f86573d6000803e3d6000fd5b505050506040513d601f19601f82011682018060405250810190610faa9190611e04565b905080610ff95760405162461bcd60e51b815260206004820152601a60248201527f456c207573756172696f206e6f207469656e652061636365736f00000000000060448201526064016102f9565b7fcf34ef537ac33ee1ac626ca1587a0a7e8e51561e5514f8cb36afa1c5102b3bab604051611058906020808252601a908201527f456e74726f206120636f6e73756c7461722050616369656e7465000000000000604082015260600190565b60405180910390a1600354604051637da8f6a560e01b81526001600160a01b03868116600483015290911690637da8f6a5906024015b6020604051808303816000875af11580156110ad573d6000803e3d6000fd5b505050506040513d601f19601f820116820180604052508101906110d19190611e49565b6001600160a01b03166359d1cfd66040518163ffffffff1660e01b8152600401600060405180830381865afa15801561110e573d6000803e3d6000fd5b505050506040513d6000823e601f3d908101601f191682016040526111369190810190612007565b949350505050565b6000546001600160a01b031633146111c85760405162461bcd60e51b815260206004820152604160248201527f457374612066756e63696f6e20736f6c6f2070756564652073657220656a656360448201527f757461646120706f7220656c2063726561646f722064656c20636f6e747261746064820152606f60f81b608482015260a4016102f9565b6000546001600160a01b0316ff5b6001546040516336a664e960e11b8152336004820152600560248201819052916000916001600160a01b0390911690636d4cc9d2906044016020604051808303816000875af115801561122d573d6000803e3d6000fd5b505050506040513d601f19601f820116820180604052508101906112519190611e04565b9050806112a05760405162461bcd60e51b815260206004820152601a60248201527f456c207573756172696f206e6f207469656e652061636365736f00000000000060448201526064016102f9565b600354604051637da8f6a560e01b81526001600160a01b0386811660048301526000921690637da8f6a5906024016020604051808303816000875af11580156112ed573d6000803e3d6000fd5b505050506040513d601f19601f820116820180604052508101906113119190611e49565b6040517fef974e800000000000000000000000000000000000000000000000000000000081526001600160a01b0386811660048301529192509082169063ef974e8090602401600060405180830381600087803b15801561137157600080fd5b505af1158015611385573d6000803e3d6000fd5b5050600354604051630da7d7a560e01b81526001600160a01b03898116600483015285811660248301529091169250630da7d7a59150604401600060405180830381600087803b1580156113d857600080fd5b505af11580156113ec573d6000803e3d6000fd5b505050505050505050565b6113ff611666565b6001546040516336a664e960e11b8152336004820152600360248201819052916000916001600160a01b0390911690636d4cc9d2906044016020604051808303816000875af1158015611456573d6000803e3d6000fd5b505050506040513d601f19601f8201168201806040525081019061147a9190611e04565b9050806114c95760405162461bcd60e51b815260206004820152601a60248201527f456c207573756172696f206e6f207469656e652061636365736f00000000000060448201526064016102f9565b7fcf34ef537ac33ee1ac626ca1587a0a7e8e51561e5514f8cb36afa1c5102b3bab60405161154e9060208082526026908201527f456e74726f206120636f6e73756c7461722070616369656e746520636f6d6f2060408201527f6d656469636f0000000000000000000000000000000000000000000000000000606082015260800190565b60405180910390a16003546040517fadb0a725000000000000000000000000000000000000000000000000000000008152600481018690526001600160a01b039091169063adb0a7259060240161108e565b6000546001600160a01b0316331461162a5760405162461bcd60e51b815260206004820152604160248201527f457374612066756e63696f6e20736f6c6f2070756564652073657220656a656360448201527f757461646120706f7220656c2063726561646f722064656c20636f6e747261746064820152606f60f81b608482015260a4016102f9565b600680546001600160a01b0319166001600160a01b0392909216919091179055565b6105a78061219a83390190565b611ba38061274183390190565b60405180606001604052806116cb60405180610120016040528060006001600160a01b03168152602001600081526020016060815260200160608152602001606081526020016060815260200160608152602001600081526020016000151581525090565b815260200161172d60405180610160016040528060008152602001600081526020016000815260200160008152602001606081526020016060815260200160608152602001606081526020016000815260200160008152602001600081525090565b8152602001600081525090565b6001600160a01b038116811461174f57600080fd5b50565b803561175d8161173a565b919050565b6000806040838503121561177557600080fd5b82356117808161173a565b915060208301356117908161173a565b809150509250929050565b6000602082840312156117ad57600080fd5b81356117b88161173a565b9392505050565b634e487b7160e01b600052604160045260246000fd5b604051610160810167ffffffffffffffff811182821017156117f9576117f96117bf565b60405290565b6040516060810167ffffffffffffffff811182821017156117f9576117f96117bf565b604051610120810167ffffffffffffffff811182821017156117f9576117f96117bf565b604051601f8201601f1916810167ffffffffffffffff8111828210171561186f5761186f6117bf565b604052919050565b600067ffffffffffffffff821115611891576118916117bf565b50601f01601f191660200190565b600082601f8301126118b057600080fd5b81356118c36118be82611877565b611846565b8181528460208386010111156118d857600080fd5b816020850160208301376000918101602001919091529392505050565b801515811461174f57600080fd5b803561175d816118f5565b6000610160828403121561192157600080fd5b6119296117d5565b905081358152602082013560208201526040820135604082015260608201356060820152608082013567ffffffffffffffff8082111561196857600080fd5b6119748583860161189f565b608084015260a084013591508082111561198d57600080fd5b6119998583860161189f565b60a084015260c08401359150808211156119b257600080fd5b6119be8583860161189f565b60c084015260e08401359150808211156119d757600080fd5b506119e48482850161189f565b60e083015250610100828101359082015261012080830135908201526101409182013591810191909152919050565b60008060408385031215611a2657600080fd5b8235611a318161173a565b9150602083013567ffffffffffffffff80821115611a4e57600080fd5b9084019060608287031215611a6257600080fd5b611a6a6117ff565b823582811115611a7957600080fd5b83016101208189031215611a8c57600080fd5b611a94611822565b611a9d82611752565b815260208201356020820152604082013584811115611abb57600080fd5b611ac78a82850161189f565b604083015250606082013584811115611adf57600080fd5b611aeb8a82850161189f565b606083015250608082013584811115611b0357600080fd5b611b0f8a82850161189f565b60808301525060a082013584811115611b2757600080fd5b611b338a82850161189f565b60a08301525060c082013584811115611b4b57600080fd5b611b578a82850161189f565b60c08301525060e082013560e0820152610100611b75818401611903565b90820152825250602083013582811115611b8e57600080fd5b611b9a8882860161190e565b602083015250604083013560408201528093505050509250929050565b60005b83811015611bd2578181015183820152602001611bba565b50506000910152565b60008151808452611bf3816020860160208601611bb7565b601f01601f19169290920160200192915050565b6000610160825184526020830151602085015260408301516040850152606083015160608501526080830151816080860152611c4582860182611bdb565b91505060a083015184820360a0860152611c5f8282611bdb565b91505060c083015184820360c0860152611c798282611bdb565b91505060e083015184820360e0860152611c938282611bdb565b61010085810151908701526101208086015190870152610140948501519490950193909352509192915050565b6000815160608452611cde6060850182516001600160a01b03169052565b6020810151608085015260408101516101208060a0870152611d04610180870183611bdb565b91506060830151605f19808885030160c0890152611d228483611bdb565b935060808501519150808885030160e0890152611d3f8483611bdb565b935060a085015191506101008189860301818a0152611d5e8584611bdb565b945060c086015192508189860301848a0152611d7a8584611bdb565b60e08701516101408b01529501518015156101608a0152949350611d9d92505050565b602084015191508481036020860152611db68183611c07565b915050604083015160408501528091505092915050565b6020815260006117b86020830184611cc0565b600060208284031215611df257600080fd5b5035919050565b805161175d816118f5565b600060208284031215611e1657600080fd5b81516117b8816118f5565b6020810160028310611e4357634e487b7160e01b600052602160045260246000fd5b91905290565b600060208284031215611e5b57600080fd5b81516117b88161173a565b600060208284031215611e7857600080fd5b5051919050565b606081526000611e926060830186611cc0565b6001600160a01b0394851660208401529290931660409091015292915050565b805161175d8161173a565b600082601f830112611ece57600080fd5b8151611edc6118be82611877565b818152846020838601011115611ef157600080fd5b611136826020830160208701611bb7565b60006101608284031215611f1557600080fd5b611f1d6117d5565b905081518152602082015160208201526040820151604082015260608201516060820152608082015167ffffffffffffffff80821115611f5c57600080fd5b611f6885838601611ebd565b608084015260a0840151915080821115611f8157600080fd5b611f8d85838601611ebd565b60a084015260c0840151915080821115611fa657600080fd5b611fb285838601611ebd565b60c084015260e0840151915080821115611fcb57600080fd5b50611fd884828501611ebd565b60e083015250610100828101519082015261012080830151908201526101409182015191810191909152919050565b60006020828403121561201957600080fd5b815167ffffffffffffffff8082111561203157600080fd5b908301906060828603121561204557600080fd5b61204d6117ff565b82518281111561205c57600080fd5b8301610120818803121561206f57600080fd5b612077611822565b61208082611eb2565b81526020820151602082015260408201518481111561209e57600080fd5b6120aa89828501611ebd565b6040830152506060820151848111156120c257600080fd5b6120ce89828501611ebd565b6060830152506080820151848111156120e657600080fd5b6120f289828501611ebd565b60808301525060a08201518481111561210a57600080fd5b61211689828501611ebd565b60a08301525060c08201518481111561212e57600080fd5b61213a89828501611ebd565b60c08301525060e082015160e0820152610100612158818401611df9565b9082015282525060208301518281111561217157600080fd5b61217d87828601611f02565b602083015250604083015160408201528093505050509291505056fe608060405234801561001057600080fd5b50610587806100206000396000f3fe608060405234801561001057600080fd5b506004361061007d5760003560e01c8063af9958461161005b578063af99584614610100578063c3e00aff1461011d578063ce8dd29f1461012e578063fdaef4831461016b57600080fd5b80635745ab981461008257806360749724146100c157806364ff6bbe146100eb575b600080fd5b6100bf6100903660046102d9565b6000805473ffffffffffffffffffffffffffffffffffffffff19166001600160a01b0392909216919091179055565b005b6000546001600160a01b03165b6040516001600160a01b0390911681526020015b60405180910390f35b6100f36101b2565b6040516100e2919061034d565b600154600160a01b900460ff1660405190151581526020016100e2565b6001546001600160a01b03166100ce565b6100bf61013c3660046102d9565b6001805473ffffffffffffffffffffffffffffffffffffffff19166001600160a01b0392909216919091179055565b6100bf6101793660046103c7565b60018054911515600160a01b027fffffffffffffffffffffff00ffffffffffffffffffffffffffffffffffffffff909216919091179055565b6101ba610275565b60408051606081018252600080546001600160a01b03908116835260015484517fea1a6f29000000000000000000000000000000000000000000000000000000008152945193946020860194919092169263ea1a6f2992600480820193918290030181865afa158015610231573d6000803e3d6000fd5b505050506040513d6000823e601f3d908101601f1916820160405261025991908101906104a0565b8152600154600160a01b900460ff161515602090910152919050565b604051806060016040528060006001600160a01b031681526020016102b460405180606001604052806000815260200160608152602001606081525090565b8152600060209091015290565b6001600160a01b03811681146102d657600080fd5b50565b6000602082840312156102eb57600080fd5b81356102f6816102c1565b9392505050565b60005b83811015610318578181015183820152602001610300565b50506000910152565b600081518084526103398160208601602086016102fd565b601f01601f19169290920160200192915050565b602081526001600160a01b0382511660208201526000602083015160606040840152805160808401526020810151606060a085015261038f60e0850182610321565b905060408201519150607f198482030160c08501526103ae8183610321565b9150506040840151151560608401528091505092915050565b6000602082840312156103d957600080fd5b813580151581146102f657600080fd5b7f4e487b7100000000000000000000000000000000000000000000000000000000600052604160045260246000fd5b600082601f83011261042957600080fd5b815167ffffffffffffffff80821115610444576104446103e9565b604051601f8301601f19908116603f0116810190828211818310171561046c5761046c6103e9565b8160405283815286602085880101111561048557600080fd5b6104968460208301602089016102fd565b9695505050505050565b6000602082840312156104b257600080fd5b815167ffffffffffffffff808211156104ca57600080fd5b90830190606082860312156104de57600080fd5b6040516060810181811083821117156104f9576104f96103e9565b6040528251815260208301518281111561051257600080fd5b61051e87828601610418565b60208301525060408301518281111561053657600080fd5b61054287828601610418565b6040830152509594505050505056fea2646970667358221220f9dd82c725c4a2ce3fb43b1afc20795be0b390ae37b2f06ffa212e62ca2113ee64736f6c63430008110033608060405234801561001057600080fd5b50611b83806100206000396000f3fe608060405234801561001057600080fd5b50600436106101ae5760003560e01c806378c7e292116100ee578063b2f9ccbb11610097578063d0e0ba9511610071578063d0e0ba95146103ae578063d1e360ff146103c1578063eacd3b93146103f1578063ef974e80146103f957600080fd5b8063b2f9ccbb1461038b578063c461d52e14610393578063cc9f930e1461039b57600080fd5b80638ba68607116100c85780638ba686071461035f57806399355ed8146103705780639ac9abd01461038357600080fd5b806378c7e292146102f05780637d5c30321461033757806383cb77b01461034c57600080fd5b80635745ab981161015b578063607497241161013557806360749724146102945780636d07d7e3146102b957806371b7a9ba146102ca578063765fe099146102dd57600080fd5b80635745ab981461023e57806359d1cfd61461026e5780635d1ca6311461028357600080fd5b80633ca452b91161018c5780633ca452b9146102035780634e8c23ca14610218578063551a5cfa1461022b57600080fd5b806303c5e52a146101b357806328fd4873146101d15780633c3c069f146101e6575b600080fd5b6101bb610429565b6040516101c8919061135b565b60405180910390f35b6101e46101df366004611489565b610722565b005b600754600160a01b900460ff1660405190151581526020016101c8565b61020b610732565b6040516101c891906114c6565b6101e4610226366004611489565b6107c4565b6101e4610239366004611489565b6107d0565b6101e461024c366004611501565b600080546001600160a01b0319166001600160a01b0392909216919091179055565b6102766107dc565b6040516101c891906115e4565b6001546040519081526020016101c8565b6000546001600160a01b03165b6040516001600160a01b0390911681526020016101c8565b6008546001600160a01b03166102a1565b6101e46102d836600461185f565b610b1b565b6101e46102eb36600461191d565b610bea565b6101e46102fe36600461196f565b60078054911515600160a01b027fffffffffffffffffffffff00ffffffffffffffffffffffffffffffffffffffff909216919091179055565b61033f610cb7565b6040516101c8919061198a565b6101e461035a366004611489565b61109a565b6007546001600160a01b03166102a1565b6101e461037e36600461199d565b6110a6565b61020b611140565b61020b61114f565b61020b61115e565b6101e46103a9366004611489565b61116d565b6101e46103bc3660046119d2565b600155565b6101e46103cf366004611501565b600780546001600160a01b0319166001600160a01b0392909216919091179055565b61020b611179565b6101e4610407366004611501565b600880546001600160a01b0319166001600160a01b0392909216919091179055565b61048660405180610160016040528060008152602001600081526020016000815260200160008152602001606081526020016060815260200160608152602001606081526020016000815260200160008152602001600081525090565b6040805161016081018252600980548252600a546020830152600b5492820192909252600c546060820152600d80549192916080840191906104c7906119eb565b80601f01602080910402602001604051908101604052809291908181526020018280546104f3906119eb565b80156105405780601f1061051557610100808354040283529160200191610540565b820191906000526020600020905b81548152906001019060200180831161052357829003601f168201915b50505050508152602001600582018054610559906119eb565b80601f0160208091040260200160405190810160405280929190818152602001828054610585906119eb565b80156105d25780601f106105a7576101008083540402835291602001916105d2565b820191906000526020600020905b8154815290600101906020018083116105b557829003601f168201915b505050505081526020016006820180546105eb906119eb565b80601f0160208091040260200160405190810160405280929190818152602001828054610617906119eb565b80156106645780601f1061063957610100808354040283529160200191610664565b820191906000526020600020905b81548152906001019060200180831161064757829003601f168201915b5050505050815260200160078201805461067d906119eb565b80601f01602080910402602001604051908101604052809291908181526020018280546106a9906119eb565b80156106f65780601f106106cb576101008083540402835291602001916106f6565b820191906000526020600020905b8154815290600101906020018083116106d957829003601f168201915b505050505081526020016008820154815260200160098201548152602001600a82015481525050905090565b600661072e8282611a74565b5050565b606060028054610741906119eb565b80601f016020809104026020016040519081016040528092919081815260200182805461076d906119eb565b80156107ba5780601f1061078f576101008083540402835291602001916107ba565b820191906000526020600020905b81548152906001019060200180831161079d57829003601f168201915b5050505050905090565b600561072e8282611a74565b600361072e8282611a74565b6107e4611188565b60405180606001604052806107f7610cb7565b815260200160096040518061016001604052908160008201548152602001600182015481526020016002820154815260200160038201548152602001600482018054610842906119eb565b80601f016020809104026020016040519081016040528092919081815260200182805461086e906119eb565b80156108bb5780601f10610890576101008083540402835291602001916108bb565b820191906000526020600020905b81548152906001019060200180831161089e57829003601f168201915b505050505081526020016005820180546108d4906119eb565b80601f0160208091040260200160405190810160405280929190818152602001828054610900906119eb565b801561094d5780601f106109225761010080835404028352916020019161094d565b820191906000526020600020905b81548152906001019060200180831161093057829003601f168201915b50505050508152602001600682018054610966906119eb565b80601f0160208091040260200160405190810160405280929190818152602001828054610992906119eb565b80156109df5780601f106109b4576101008083540402835291602001916109df565b820191906000526020600020905b8154815290600101906020018083116109c257829003601f168201915b505050505081526020016007820180546109f8906119eb565b80601f0160208091040260200160405190810160405280929190818152602001828054610a24906119eb565b8015610a715780601f10610a4657610100808354040283529160200191610a71565b820191906000526020600020905b815481529060010190602001808311610a5457829003601f168201915b505050505081526020016008820154815260200160098201548152602001600a820154815250508152602001600860009054906101000a90046001600160a01b03166001600160a01b0316635d1ca6316040518163ffffffff1660e01b8152600401602060405180830381865afa158015610af0573d6000803e3d6000fd5b505050506040513d601f19601f82011682018060405250810190610b149190611b34565b9052919050565b8251610b279082610bea565b6020808401518051600990815591810151600a556040810151600b556060810151600c556080810151909190600d90610b609082611a74565b5060a08201516005820190610b759082611a74565b5060c08201516006820190610b8a9082611a74565b5060e08201516007820190610b9f9082611a74565b50610100820151600882810191909155610120830151600983015561014090920151600a9091015580546001600160a01b0319166001600160a01b0393909316929092179091555050565b60208201516001556040820151600290610c049082611a74565b506060820151600390610c179082611a74565b506080820151600490610c2a9082611a74565b5060a0820151600590610c3d9082611a74565b5060c0820151600690610c509082611a74565b50610100820151600780547fffffffffffffffffffffff00000000000000000000000000000000000000000016600160a01b921515929092026001600160a01b0319908116929092176001600160a01b039384161790559151600080549093169116179055565b610d1160405180610120016040528060006001600160a01b03168152602001600081526020016060815260200160608152602001606081526020016060815260200160608152602001600081526020016000151581525090565b60408051610120810182526000546001600160a01b031681526001546020820152600280549192830191610d44906119eb565b80601f0160208091040260200160405190810160405280929190818152602001828054610d70906119eb565b8015610dbd5780601f10610d9257610100808354040283529160200191610dbd565b820191906000526020600020905b815481529060010190602001808311610da057829003601f168201915b5050505050815260200160038054610dd4906119eb565b80601f0160208091040260200160405190810160405280929190818152602001828054610e00906119eb565b8015610e4d5780601f10610e2257610100808354040283529160200191610e4d565b820191906000526020600020905b815481529060010190602001808311610e3057829003601f168201915b5050505050815260200160048054610e64906119eb565b80601f0160208091040260200160405190810160405280929190818152602001828054610e90906119eb565b8015610edd5780601f10610eb257610100808354040283529160200191610edd565b820191906000526020600020905b815481529060010190602001808311610ec057829003601f168201915b5050505050815260200160058054610ef4906119eb565b80601f0160208091040260200160405190810160405280929190818152602001828054610f20906119eb565b8015610f6d5780601f10610f4257610100808354040283529160200191610f6d565b820191906000526020600020905b815481529060010190602001808311610f5057829003601f168201915b5050505050815260200160068054610f84906119eb565b80601f0160208091040260200160405190810160405280929190818152602001828054610fb0906119eb565b8015610ffd5780601f10610fd257610100808354040283529160200191610ffd565b820191906000526020600020905b815481529060010190602001808311610fe057829003601f168201915b50505050508152602001600760009054906101000a90046001600160a01b03166001600160a01b0316635d1ca6316040518163ffffffff1660e01b8152600401602060405180830381865afa15801561105a573d6000803e3d6000fd5b505050506040513d601f19601f8201168201806040525081019061107e9190611b34565b8152600754600160a01b900460ff161515602090910152919050565b600261072e8282611a74565b805160099081556020820151600a556040820151600b556060820151600c556080820151829190600d906110da9082611a74565b5060a082015160058201906110ef9082611a74565b5060c082015160068201906111049082611a74565b5060e082015160078201906111199082611a74565b506101008201516008820155610120820151600982015561014090910151600a9091015550565b606060068054610741906119eb565b606060038054610741906119eb565b606060048054610741906119eb565b600461072e8282611a74565b606060058054610741906119eb565b60405180606001604052806111ed60405180610120016040528060006001600160a01b03168152602001600081526020016060815260200160608152602001606081526020016060815260200160608152602001600081526020016000151581525090565b815260200161124f60405180610160016040528060008152602001600081526020016000815260200160008152602001606081526020016060815260200160608152602001606081526020016000815260200160008152602001600081525090565b8152602001600081525090565b6000815180845260005b8181101561128257602081850181015186830182015201611266565b506000602082860101526020601f19601f83011685010191505092915050565b60006101608251845260208301516020850152604083015160408501526060830151606085015260808301518160808601526112e08286018261125c565b91505060a083015184820360a08601526112fa828261125c565b91505060c083015184820360c0860152611314828261125c565b91505060e083015184820360e086015261132e828261125c565b61010085810151908701526101208086015190870152610140948501519490950193909352509192915050565b60208152600061136e60208301846112a2565b9392505050565b634e487b7160e01b600052604160045260246000fd5b604051610120810167ffffffffffffffff811182821017156113af576113af611375565b60405290565b604051610160810167ffffffffffffffff811182821017156113af576113af611375565b6040516060810167ffffffffffffffff811182821017156113af576113af611375565b600082601f83011261140d57600080fd5b813567ffffffffffffffff8082111561142857611428611375565b604051601f8301601f19908116603f0116810190828211818310171561145057611450611375565b8160405283815286602085880101111561146957600080fd5b836020870160208301376000602085830101528094505050505092915050565b60006020828403121561149b57600080fd5b813567ffffffffffffffff8111156114b257600080fd5b6114be848285016113fc565b949350505050565b60208152600061136e602083018461125c565b6001600160a01b03811681146114ee57600080fd5b50565b80356114fc816114d9565b919050565b60006020828403121561151357600080fd5b813561136e816114d9565b80516001600160a01b0316825260006101206020830151602085015260408301518160408601526115518286018261125c565b9150506060830151848203606086015261156b828261125c565b91505060808301518482036080860152611585828261125c565b91505060a083015184820360a086015261159f828261125c565b91505060c083015184820360c08601526115b9828261125c565b91505060e083015160e0850152610100808401516115da8287018215159052565b5090949350505050565b602081526000825160606020840152611600608084018261151e565b90506020840151601f1984830301604085015261161d82826112a2565b915050604084015160608401528091505092915050565b803580151581146114fc57600080fd5b6000610120828403121561165757600080fd5b61165f61138b565b905061166a826114f1565b815260208201356020820152604082013567ffffffffffffffff8082111561169157600080fd5b61169d858386016113fc565b604084015260608401359150808211156116b657600080fd5b6116c2858386016113fc565b606084015260808401359150808211156116db57600080fd5b6116e7858386016113fc565b608084015260a084013591508082111561170057600080fd5b61170c858386016113fc565b60a084015260c084013591508082111561172557600080fd5b50611732848285016113fc565b60c08301525060e082013560e0820152610100611750818401611634565b9082015292915050565b6000610160828403121561176d57600080fd5b6117756113b5565b905081358152602082013560208201526040820135604082015260608201356060820152608082013567ffffffffffffffff808211156117b457600080fd5b6117c0858386016113fc565b608084015260a08401359150808211156117d957600080fd5b6117e5858386016113fc565b60a084015260c08401359150808211156117fe57600080fd5b61180a858386016113fc565b60c084015260e084013591508082111561182357600080fd5b50611830848285016113fc565b60e083015250610100828101359082015261012080830135908201526101409182013591810191909152919050565b60008060006060848603121561187457600080fd5b833567ffffffffffffffff8082111561188c57600080fd5b90850190606082880312156118a057600080fd5b6118a86113d9565b8235828111156118b757600080fd5b6118c389828601611644565b8252506020830135828111156118d857600080fd5b6118e48982860161175a565b60208301525060408301356040820152809550505050611906602085016114f1565b9150611914604085016114f1565b90509250925092565b6000806040838503121561193057600080fd5b823567ffffffffffffffff81111561194757600080fd5b61195385828601611644565b9250506020830135611964816114d9565b809150509250929050565b60006020828403121561198157600080fd5b61136e82611634565b60208152600061136e602083018461151e565b6000602082840312156119af57600080fd5b813567ffffffffffffffff8111156119c657600080fd5b6114be8482850161175a565b6000602082840312156119e457600080fd5b5035919050565b600181811c908216806119ff57607f821691505b602082108103611a1f57634e487b7160e01b600052602260045260246000fd5b50919050565b601f821115611a6f57600081815260208120601f850160051c81016020861015611a4c5750805b601f850160051c820191505b81811015611a6b57828155600101611a58565b5050505b505050565b815167ffffffffffffffff811115611a8e57611a8e611375565b611aa281611a9c84546119eb565b84611a25565b602080601f831160018114611ad75760008415611abf5750858301515b600019600386901b1c1916600185901b178555611a6b565b600085815260208120601f198616915b82811015611b0657888601518255948401946001909101908401611ae7565b5085821015611b245787850151600019600388901b60f8161c191681555b5050505050600190811b01905550565b600060208284031215611b4657600080fd5b505191905056fea2646970667358221220f8143987da7297435dd86e9b7ee243c05e4cc17119eb46476eb24c3cdceabb3f64736f6c63430008110033a26469706673582212201c6e1a6850e1dfa07722c081e86499f829a1b75161781cb25824e678c125d2b964736f6c63430008110033",
  "immutableReferences": {},
  "source": "// SPDX-License-Identifier: MIT\npragma solidity ^0.8.17;\n\n//import \"./Persona.sol\";\nimport \"../models/PacienteVO.sol\";\nimport \"../persistence/PacienteMapper.sol\";\nimport \"./Acceso.sol\";\nimport \"../persistence/DatosParametricosMapper.sol\";\nimport \"../persistence/DatosParametricosMapperInterface.sol\";\nimport \"../models/VOGenerales/enums/RolDeAccesoEnum.sol\";\nimport \"../utils/Modifiers.sol\";\n\n// TODO\ncontract Paciente is Modifiers {\n    event Log(string data);\n    //address public creador;\n\n    PacienteMapperInterface private pacienteMapper;\n    RolMapperInterface private rolMapper;\n    UsuarioMapperInterface private usuarioMapper;\n    DatosParametricosMapperInterface private datosParametricosMapper;\n    Acceso private acceso;\n\n    constructor() {\n        creador = msg.sender; // creador del contrato\n    }\n\n    // Solo lo puede usar el medico\n    function consultar(address direccion)\n        public\n        tieneAcceso(1)\n        returns (PacienteVO.PacienteVOStruct memory)\n    {\n        emit Log(\"Entro a consultar Paciente\");\n        return pacienteMapper.consultar(direccion).getPacienteVOValue();\n    }\n\n    // TODO Agregar a diagrama\n    // Solo lo puede usar el paciente\n    function consultar()\n        public\n        tieneAcceso(2)\n        returns (PacienteVO.PacienteVOStruct memory)\n    {\n        emit Log(\"Entro a consultar miInformacion paciente\");\n        return pacienteMapper.consultar(msg.sender).getPacienteVOValue();\n    }\n\n    // Solo lo puede usar el medico\n    function consultarPorId(uint256 id)\n        public\n        tieneAcceso(3)\n        returns (PacienteVO.PacienteVOStruct memory)\n    {\n        emit Log(\"Entro a consultar paciente como medico\");\n        return pacienteMapper.consultarPorId(id).getPacienteVOValue();\n    }\n\n    // TODO: validar que pasa si falla el registro de persona\n    // TODO: que pasa si falla guardar paciente?\n    // Solo lo puede usar el paciente (si an no esta registrado)\n    function registrar(address direccion, PacienteVO paciente)\n        public\n        tieneAcceso(4)\n    {\n        if (direccion != msg.sender) {\n            revert(\"Un paciente se debe registrar a si mismo\");\n        }\n\n        RolVO rol = rolMapper.consultar(RolDeAccesoEnum.PACIENTE);\n        UsuarioVO nuevoUsuario = new UsuarioVO();\n        nuevoUsuario.setDireccion(direccion);\n        nuevoUsuario.setRol(rol);\n        nuevoUsuario.setEstaActivo(true);\n        usuarioMapper.guardar(direccion, nuevoUsuario);\n        pacienteMapper.guardar(direccion, paciente);\n        // TODO Crear HC\n    }\n\n    // TODO: validar que pasa si falla el registro de persona\n    // TODO: que pasa si falla guardar paciente?\n    function registrarConStruct(\n        address direccion,\n        PacienteVO.PacienteVOStruct memory pacienteVOStruct\n    ) public {\n        PacienteVO pacienteVO = new PacienteVO();\n        EstadoVO estadoVO = datosParametricosMapper.consultarEstadoVO(\n            pacienteVOStruct.estadoId\n        );\n        TipoIdentificacionVO _tipoIdentificacionVO = datosParametricosMapper\n            .consultarTipoIdentificacionVO(\n                pacienteVOStruct.persona.tipoIdentificacion\n            );\n\n        pacienteVO.setValuesOfPacienteVOStruct(\n            pacienteVOStruct,\n            estadoVO,\n            _tipoIdentificacionVO\n        );\n        registrar(direccion, pacienteVO);\n    }\n\n    /*\n    // TODO: Discutir si un mdico debe actualizar al paciente (nombre y demas)\n    // TODO: Solo se podria acceder con el acceso que da el paciente sobre su info\n    function actualizar(address direccion, PacienteVO paciente)\n        public\n        tieneAcceso(6)\n    {\n        if (direccion != msg.sender) {\n            // si alguien diferente al propietario de la historia la consulta se debe validar quien es\n            // validar quien consulta\n            revert(\"No tiene permisos de actualizar\");\n        }\n        // bloquear actualizacin de estado\n        pacienteMapper.actualizar(direccion, paciente);\n    }\n    */\n\n    // TODO: Terminar est mtodo\n    function actualizar(PacienteVO paciente) public tieneAcceso(3) {\n        // bloquear actualizacin de estado\n        pacienteMapper.actualizar(msg.sender, paciente);\n    }\n\n    // Solo lo puede usar el medico\n    function cambiarEstado(address _direccion, EstadoVO _estado)\n        public\n        tieneAcceso(5)\n    {\n        PacienteVO paciente = pacienteMapper.consultar(_direccion);\n        paciente.setEstado(_estado);\n        pacienteMapper.actualizar(_direccion, paciente);\n    }\n\n    function setPacienteMapper(PacienteMapperInterface _pacienteMapperAddress)\n        public\n        esPropietario\n    {\n        pacienteMapper = _pacienteMapperAddress;\n    }\n\n    function setRolMapper(RolMapperInterface _rolMapperAddress)\n        public\n        esPropietario\n    {\n        rolMapper = _rolMapperAddress;\n    }\n\n    function setUsuarioMapper(UsuarioMapperInterface _usuarioMapperAddress)\n        public\n        esPropietario\n    {\n        usuarioMapper = _usuarioMapperAddress;\n    }\n\n    function setDatosParametricosMapper(\n        DatosParametricosMapperInterface _datosParametricosMapperAddress\n    ) public esPropietario {\n        datosParametricosMapper = _datosParametricosMapperAddress;\n    }\n\n    /*function setAcceso(Acceso _accesoAddress) public esPropietario {\n        acceso = _accesoAddress;\n    }*/\n\n    /*\n    modifier esPropietario() {\n        require(\n            msg.sender == creador,\n            \"Esta funcion solo puede ser ejecutada por el creador del contrato\"\n        );\n        _; // ac se ejecuta la funcin\n    }\n    */\n\n    function selfDestruct() public esPropietario {\n        selfdestruct(payable(creador));\n    }\n\n    // TODO: Quitar\n    /* modifier tieneAcceso(uint256 permisoId) {\n        bool esAccesible = acceso.validarPermisoDeRol(msg.sender, permisoId);\n        require(esAccesible, \"El usuario no tiene acceso\");\n        _; // ac se ejecuta la funcin\n    } */\n}\n",
  "sourcePath": "/home/felipe/Documentos/Blockchain/codigo/back-hce/contracts/logica/Paciente.sol",
  "compiler": {
    "name": "solc",
    "version": "0.8.17+commit.8df45f5f.Emscripten.clang"
  },
  "schemaVersion": "3.4.8",
  "updatedAt": "2022-11-08T01:59:22.549Z",
  "networkType": "ethereum",
  "devdoc": {
    "kind": "dev",
    "methods": {},
    "version": 1
  },
  "userdoc": {
    "kind": "user",
    "methods": {},
    "version": 1
  }
}