{
  "contractName": "Paciente",
  "abi": [
    {
      "inputs": [],
      "stateMutability": "nonpayable",
      "type": "constructor"
    },
    {
      "anonymous": false,
      "inputs": [
        {
          "indexed": false,
          "internalType": "string",
          "name": "data",
          "type": "string"
        }
      ],
      "name": "Log",
      "type": "event"
    },
    {
      "inputs": [],
      "name": "creador",
      "outputs": [
        {
          "internalType": "address",
          "name": "",
          "type": "address"
        }
      ],
      "stateMutability": "view",
      "type": "function",
      "constant": true
    },
    {
      "inputs": [],
      "name": "consultar",
      "outputs": [
        {
          "internalType": "contract PacienteVO",
          "name": "",
          "type": "address"
        }
      ],
      "stateMutability": "nonpayable",
      "type": "function"
    },
    {
      "inputs": [
        {
          "internalType": "address",
          "name": "direccion",
          "type": "address"
        }
      ],
      "name": "consultar",
      "outputs": [
        {
          "internalType": "contract PacienteVO",
          "name": "",
          "type": "address"
        }
      ],
      "stateMutability": "nonpayable",
      "type": "function"
    },
    {
      "inputs": [
        {
          "internalType": "address",
          "name": "direccion",
          "type": "address"
        },
        {
          "internalType": "contract PacienteVO",
          "name": "paciente",
          "type": "address"
        }
      ],
      "name": "registrar",
      "outputs": [],
      "stateMutability": "nonpayable",
      "type": "function"
    },
    {
      "inputs": [
        {
          "internalType": "contract PacienteVO",
          "name": "paciente",
          "type": "address"
        }
      ],
      "name": "actualizar",
      "outputs": [],
      "stateMutability": "nonpayable",
      "type": "function"
    },
    {
      "inputs": [
        {
          "internalType": "address",
          "name": "_direccion",
          "type": "address"
        },
        {
          "internalType": "contract EstadoVO",
          "name": "_estado",
          "type": "address"
        }
      ],
      "name": "cambiarEstado",
      "outputs": [],
      "stateMutability": "nonpayable",
      "type": "function"
    },
    {
      "inputs": [
        {
          "internalType": "contract PacienteMapperInterface",
          "name": "_pacienteMapperAddress",
          "type": "address"
        }
      ],
      "name": "setPacienteMapper",
      "outputs": [],
      "stateMutability": "nonpayable",
      "type": "function"
    },
    {
      "inputs": [
        {
          "internalType": "contract RolMapperInterface",
          "name": "_rolMapperAddress",
          "type": "address"
        }
      ],
      "name": "setRolMapper",
      "outputs": [],
      "stateMutability": "nonpayable",
      "type": "function"
    },
    {
      "inputs": [
        {
          "internalType": "contract UsuarioMapperInterface",
          "name": "_usuarioMapperAddress",
          "type": "address"
        }
      ],
      "name": "setUsuarioMapper",
      "outputs": [],
      "stateMutability": "nonpayable",
      "type": "function"
    },
    {
      "inputs": [
        {
          "internalType": "contract Acceso",
          "name": "_accesoAddress",
          "type": "address"
        }
      ],
      "name": "setAcceso",
      "outputs": [],
      "stateMutability": "nonpayable",
      "type": "function"
    },
    {
      "inputs": [],
      "name": "selfDestruct",
      "outputs": [],
      "stateMutability": "nonpayable",
      "type": "function"
    }
  ],
  "bytecode": "0x6080604052600160055534801561001557600080fd5b50336000806101000a81548173ffffffffffffffffffffffffffffffffffffffff021916908373ffffffffffffffffffffffffffffffffffffffff16021790555061213e806100656000396000f3fe608060405234801561001057600080fd5b50600436106100a95760003560e01c8063731188e711610071578063731188e71461013c57806378775d32146101585780637da8f6a51461017457806392ebdcd2146101a45780639cb8a26a146101c25780639fa09ef4146101cc576100a9565b806307b37d1d146100ae578063137d4722146100ca5780631d183760146100e6578063596e15e61461010257806370f05f971461011e575b600080fd5b6100c860048036038101906100c391906111f7565b6101e8565b005b6100e460048036038101906100df9190611275565b61058d565b005b61010060048036038101906100fb91906112e0565b61065f565b005b61011c6004803603810190610117919061134b565b610731565b005b610126610803565b60405161013391906113d7565b60405180910390f35b610156600480360381019061015191906113f2565b6109c5565b005b610172600480360381019061016d919061145d565b610b3f565b005b61018e6004803603810190610189919061148a565b610c11565b60405161019b91906113d7565b60405180910390f35b6101ac610dd5565b6040516101b991906114c6565b60405180910390f35b6101ca610df9565b005b6101e660048036038101906101e1919061151f565b610ec0565b005b3373ffffffffffffffffffffffffffffffffffffffff168273ffffffffffffffffffffffffffffffffffffffff1614610256576040517f08c379a000000000000000000000000000000000000000000000000000000000815260040161024d906115e2565b60405180910390fd5b6000600260009054906101000a900473ffffffffffffffffffffffffffffffffffffffff1673ffffffffffffffffffffffffffffffffffffffff1663b10b65ce6005546040518263ffffffff1660e01b81526004016102b5919061161b565b6020604051808303816000875af11580156102d4573d6000803e3d6000fd5b505050506040513d601f19601f820116820180604052508101906102f89190611674565b9050600060405161030890611149565b604051809103906000f080158015610324573d6000803e3d6000fd5b5090508073ffffffffffffffffffffffffffffffffffffffff16635745ab98856040518263ffffffff1660e01b815260040161036091906114c6565b600060405180830381600087803b15801561037a57600080fd5b505af115801561038e573d6000803e3d6000fd5b505050508073ffffffffffffffffffffffffffffffffffffffff1663ce8dd29f836040518263ffffffff1660e01b81526004016103cb91906116c2565b600060405180830381600087803b1580156103e557600080fd5b505af11580156103f9573d6000803e3d6000fd5b505050508073ffffffffffffffffffffffffffffffffffffffff1663fdaef48360016040518263ffffffff1660e01b815260040161043791906116f8565b600060405180830381600087803b15801561045157600080fd5b505af1158015610465573d6000803e3d6000fd5b50505050600360009054906101000a900473ffffffffffffffffffffffffffffffffffffffff1673ffffffffffffffffffffffffffffffffffffffff1663be381c5985836040518363ffffffff1660e01b81526004016104c6929190611734565b600060405180830381600087803b1580156104e057600080fd5b505af11580156104f4573d6000803e3d6000fd5b50505050600160009054906101000a900473ffffffffffffffffffffffffffffffffffffffff1673ffffffffffffffffffffffffffffffffffffffff1663be381c5985856040518363ffffffff1660e01b815260040161055592919061175d565b600060405180830381600087803b15801561056f57600080fd5b505af1158015610583573d6000803e3d6000fd5b5050505050505050565b60008054906101000a900473ffffffffffffffffffffffffffffffffffffffff1673ffffffffffffffffffffffffffffffffffffffff163373ffffffffffffffffffffffffffffffffffffffff161461061b576040517f08c379a00000000000000000000000000000000000000000000000000000000081526004016106129061181e565b60405180910390fd5b80600460006101000a81548173ffffffffffffffffffffffffffffffffffffffff021916908373ffffffffffffffffffffffffffffffffffffffff16021790555050565b60008054906101000a900473ffffffffffffffffffffffffffffffffffffffff1673ffffffffffffffffffffffffffffffffffffffff163373ffffffffffffffffffffffffffffffffffffffff16146106ed576040517f08c379a00000000000000000000000000000000000000000000000000000000081526004016106e49061181e565b60405180910390fd5b80600160006101000a81548173ffffffffffffffffffffffffffffffffffffffff021916908373ffffffffffffffffffffffffffffffffffffffff16021790555050565b60008054906101000a900473ffffffffffffffffffffffffffffffffffffffff1673ffffffffffffffffffffffffffffffffffffffff163373ffffffffffffffffffffffffffffffffffffffff16146107bf576040517f08c379a00000000000000000000000000000000000000000000000000000000081526004016107b69061181e565b60405180910390fd5b80600360006101000a81548173ffffffffffffffffffffffffffffffffffffffff021916908373ffffffffffffffffffffffffffffffffffffffff16021790555050565b600060026000600460009054906101000a900473ffffffffffffffffffffffffffffffffffffffff1673ffffffffffffffffffffffffffffffffffffffff16636d4cc9d233846040518363ffffffff1660e01b815260040161086692919061183e565b6020604051808303816000875af1158015610885573d6000803e3d6000fd5b505050506040513d601f19601f820116820180604052508101906108a99190611893565b9050806108eb576040517f08c379a00000000000000000000000000000000000000000000000000000000081526004016108e29061190c565b60405180910390fd5b7fcf34ef537ac33ee1ac626ca1587a0a7e8e51561e5514f8cb36afa1c5102b3bab6040516109189061199e565b60405180910390a1600160009054906101000a900473ffffffffffffffffffffffffffffffffffffffff1673ffffffffffffffffffffffffffffffffffffffff16637da8f6a5336040518263ffffffff1660e01b815260040161097b91906114c6565b6020604051808303816000875af115801561099a573d6000803e3d6000fd5b505050506040513d601f19601f820116820180604052508101906109be91906119d3565b9250505090565b60036000600460009054906101000a900473ffffffffffffffffffffffffffffffffffffffff1673ffffffffffffffffffffffffffffffffffffffff16636d4cc9d233846040518363ffffffff1660e01b8152600401610a2692919061183e565b6020604051808303816000875af1158015610a45573d6000803e3d6000fd5b505050506040513d601f19601f82011682018060405250810190610a699190611893565b905080610aab576040517f08c379a0000000000000000000000000000000000000000000000000000000008152600401610aa29061190c565b60405180910390fd5b600160009054906101000a900473ffffffffffffffffffffffffffffffffffffffff1673ffffffffffffffffffffffffffffffffffffffff16630da7d7a533856040518363ffffffff1660e01b8152600401610b0892919061175d565b600060405180830381600087803b158015610b2257600080fd5b505af1158015610b36573d6000803e3d6000fd5b50505050505050565b60008054906101000a900473ffffffffffffffffffffffffffffffffffffffff1673ffffffffffffffffffffffffffffffffffffffff163373ffffffffffffffffffffffffffffffffffffffff1614610bcd576040517f08c379a0000000000000000000000000000000000000000000000000000000008152600401610bc49061181e565b60405180910390fd5b80600260006101000a81548173ffffffffffffffffffffffffffffffffffffffff021916908373ffffffffffffffffffffffffffffffffffffffff16021790555050565b600060016000600460009054906101000a900473ffffffffffffffffffffffffffffffffffffffff1673ffffffffffffffffffffffffffffffffffffffff16636d4cc9d233846040518363ffffffff1660e01b8152600401610c7492919061183e565b6020604051808303816000875af1158015610c93573d6000803e3d6000fd5b505050506040513d601f19601f82011682018060405250810190610cb79190611893565b905080610cf9576040517f08c379a0000000000000000000000000000000000000000000000000000000008152600401610cf09061190c565b60405180910390fd5b7fcf34ef537ac33ee1ac626ca1587a0a7e8e51561e5514f8cb36afa1c5102b3bab604051610d2690611a4c565b60405180910390a1600160009054906101000a900473ffffffffffffffffffffffffffffffffffffffff1673ffffffffffffffffffffffffffffffffffffffff16637da8f6a5856040518263ffffffff1660e01b8152600401610d8991906114c6565b6020604051808303816000875af1158015610da8573d6000803e3d6000fd5b505050506040513d601f19601f82011682018060405250810190610dcc91906119d3565b92505050919050565b60008054906101000a900473ffffffffffffffffffffffffffffffffffffffff1681565b60008054906101000a900473ffffffffffffffffffffffffffffffffffffffff1673ffffffffffffffffffffffffffffffffffffffff163373ffffffffffffffffffffffffffffffffffffffff1614610e87576040517f08c379a0000000000000000000000000000000000000000000000000000000008152600401610e7e9061181e565b60405180910390fd5b60008054906101000a900473ffffffffffffffffffffffffffffffffffffffff1673ffffffffffffffffffffffffffffffffffffffff16ff5b60046000600460009054906101000a900473ffffffffffffffffffffffffffffffffffffffff1673ffffffffffffffffffffffffffffffffffffffff16636d4cc9d233846040518363ffffffff1660e01b8152600401610f2192919061183e565b6020604051808303816000875af1158015610f40573d6000803e3d6000fd5b505050506040513d601f19601f82011682018060405250810190610f649190611893565b905080610fa6576040517f08c379a0000000000000000000000000000000000000000000000000000000008152600401610f9d9061190c565b60405180910390fd5b6000600160009054906101000a900473ffffffffffffffffffffffffffffffffffffffff1673ffffffffffffffffffffffffffffffffffffffff16637da8f6a5866040518263ffffffff1660e01b815260040161100391906114c6565b6020604051808303816000875af1158015611022573d6000803e3d6000fd5b505050506040513d601f19601f8201168201806040525081019061104691906119d3565b90508073ffffffffffffffffffffffffffffffffffffffff1663ef974e80856040518263ffffffff1660e01b81526004016110819190611a8d565b600060405180830381600087803b15801561109b57600080fd5b505af11580156110af573d6000803e3d6000fd5b50505050600160009054906101000a900473ffffffffffffffffffffffffffffffffffffffff1673ffffffffffffffffffffffffffffffffffffffff16630da7d7a586836040518363ffffffff1660e01b815260040161111092919061175d565b600060405180830381600087803b15801561112a57600080fd5b505af115801561113e573d6000803e3d6000fd5b505050505050505050565b61066080611aa983390190565b600080fd5b600073ffffffffffffffffffffffffffffffffffffffff82169050919050565b60006111868261115b565b9050919050565b6111968161117b565b81146111a157600080fd5b50565b6000813590506111b38161118d565b92915050565b60006111c48261117b565b9050919050565b6111d4816111b9565b81146111df57600080fd5b50565b6000813590506111f1816111cb565b92915050565b6000806040838503121561120e5761120d611156565b5b600061121c858286016111a4565b925050602061122d858286016111e2565b9150509250929050565b60006112428261117b565b9050919050565b61125281611237565b811461125d57600080fd5b50565b60008135905061126f81611249565b92915050565b60006020828403121561128b5761128a611156565b5b600061129984828501611260565b91505092915050565b60006112ad8261117b565b9050919050565b6112bd816112a2565b81146112c857600080fd5b50565b6000813590506112da816112b4565b92915050565b6000602082840312156112f6576112f5611156565b5b6000611304848285016112cb565b91505092915050565b60006113188261117b565b9050919050565b6113288161130d565b811461133357600080fd5b50565b6000813590506113458161131f565b92915050565b60006020828403121561136157611360611156565b5b600061136f84828501611336565b91505092915050565b6000819050919050565b600061139d6113986113938461115b565b611378565b61115b565b9050919050565b60006113af82611382565b9050919050565b60006113c1826113a4565b9050919050565b6113d1816113b6565b82525050565b60006020820190506113ec60008301846113c8565b92915050565b60006020828403121561140857611407611156565b5b6000611416848285016111e2565b91505092915050565b600061142a8261117b565b9050919050565b61143a8161141f565b811461144557600080fd5b50565b60008135905061145781611431565b92915050565b60006020828403121561147357611472611156565b5b600061148184828501611448565b91505092915050565b6000602082840312156114a05761149f611156565b5b60006114ae848285016111a4565b91505092915050565b6114c08161117b565b82525050565b60006020820190506114db60008301846114b7565b92915050565b60006114ec8261117b565b9050919050565b6114fc816114e1565b811461150757600080fd5b50565b600081359050611519816114f3565b92915050565b6000806040838503121561153657611535611156565b5b6000611544858286016111a4565b92505060206115558582860161150a565b9150509250929050565b600082825260208201905092915050565b7f556e2070616369656e746520736520646562652072656769737472617220612060008201527f7369206d69736d6f000000000000000000000000000000000000000000000000602082015250565b60006115cc60288361155f565b91506115d782611570565b604082019050919050565b600060208201905081810360008301526115fb816115bf565b9050919050565b6000819050919050565b61161581611602565b82525050565b6000602082019050611630600083018461160c565b92915050565b60006116418261117b565b9050919050565b61165181611636565b811461165c57600080fd5b50565b60008151905061166e81611648565b92915050565b60006020828403121561168a57611689611156565b5b60006116988482850161165f565b91505092915050565b60006116ac826113a4565b9050919050565b6116bc816116a1565b82525050565b60006020820190506116d760008301846116b3565b92915050565b60008115159050919050565b6116f2816116dd565b82525050565b600060208201905061170d60008301846116e9565b92915050565b600061171e826113a4565b9050919050565b61172e81611713565b82525050565b600060408201905061174960008301856114b7565b6117566020830184611725565b9392505050565b600060408201905061177260008301856114b7565b61177f60208301846113c8565b9392505050565b7f457374612066756e63696f6e20736f6c6f2070756564652073657220656a656360008201527f757461646120706f7220656c2063726561646f722064656c20636f6e7472617460208201527f6f00000000000000000000000000000000000000000000000000000000000000604082015250565b600061180860418361155f565b915061181382611786565b606082019050919050565b60006020820190508181036000830152611837816117fb565b9050919050565b600060408201905061185360008301856114b7565b611860602083018461160c565b9392505050565b611870816116dd565b811461187b57600080fd5b50565b60008151905061188d81611867565b92915050565b6000602082840312156118a9576118a8611156565b5b60006118b78482850161187e565b91505092915050565b7f456c207573756172696f206e6f207469656e652061636365736f000000000000600082015250565b60006118f6601a8361155f565b9150611901826118c0565b602082019050919050565b60006020820190508181036000830152611925816118e9565b9050919050565b7f456e74726f206120636f6e73756c746172206d69496e666f726d6163696f6e2060008201527f70616369656e7465000000000000000000000000000000000000000000000000602082015250565b600061198860288361155f565b91506119938261192c565b604082019050919050565b600060208201905081810360008301526119b78161197b565b9050919050565b6000815190506119cd816111cb565b92915050565b6000602082840312156119e9576119e8611156565b5b60006119f7848285016119be565b91505092915050565b7f456e74726f206120636f6e73756c7461722050616369656e7465000000000000600082015250565b6000611a36601a8361155f565b9150611a4182611a00565b602082019050919050565b60006020820190508181036000830152611a6581611a29565b9050919050565b6000611a77826113a4565b9050919050565b611a8781611a6c565b82525050565b6000602082019050611aa26000830184611a7e565b9291505056fe608060405234801561001057600080fd5b50610640806100206000396000f3fe608060405234801561001057600080fd5b506004361061007d5760003560e01c8063af9958461161005b578063af995846146100da578063c3e00aff146100f8578063ce8dd29f14610116578063fdaef483146101325761007d565b80635745ab9814610082578063607497241461009e57806364ff6bbe146100bc575b600080fd5b61009c600480360381019061009791906103b5565b61014e565b005b6100a6610191565b6040516100b391906103f1565b60405180910390f35b6100c46101ba565b6040516100d191906104d7565b60405180910390f35b6100e2610261565b6040516100ef9190610501565b60405180910390f35b610100610278565b60405161010d919061052b565b60405180910390f35b610130600480360381019061012b9190610584565b6102a2565b005b61014c600480360381019061014791906105dd565b6102e6565b005b806000806101000a81548173ffffffffffffffffffffffffffffffffffffffff021916908373ffffffffffffffffffffffffffffffffffffffff16021790555050565b60008060009054906101000a900473ffffffffffffffffffffffffffffffffffffffff16905090565b6101c2610303565b604051806060016040528060008054906101000a900473ffffffffffffffffffffffffffffffffffffffff1673ffffffffffffffffffffffffffffffffffffffff168152602001600160009054906101000a900473ffffffffffffffffffffffffffffffffffffffff1673ffffffffffffffffffffffffffffffffffffffff168152602001600160149054906101000a900460ff161515815250905090565b6000600160149054906101000a900460ff16905090565b6000600160009054906101000a900473ffffffffffffffffffffffffffffffffffffffff16905090565b80600160006101000a81548173ffffffffffffffffffffffffffffffffffffffff021916908373ffffffffffffffffffffffffffffffffffffffff16021790555050565b80600160146101000a81548160ff02191690831515021790555050565b6040518060600160405280600073ffffffffffffffffffffffffffffffffffffffff168152602001600073ffffffffffffffffffffffffffffffffffffffff1681526020016000151581525090565b600080fd5b600073ffffffffffffffffffffffffffffffffffffffff82169050919050565b600061038282610357565b9050919050565b61039281610377565b811461039d57600080fd5b50565b6000813590506103af81610389565b92915050565b6000602082840312156103cb576103ca610352565b5b60006103d9848285016103a0565b91505092915050565b6103eb81610377565b82525050565b600060208201905061040660008301846103e2565b92915050565b61041581610377565b82525050565b6000819050919050565b600061044061043b61043684610357565b61041b565b610357565b9050919050565b600061045282610425565b9050919050565b600061046482610447565b9050919050565b61047481610459565b82525050565b60008115159050919050565b61048f8161047a565b82525050565b6060820160008201516104ab600085018261040c565b5060208201516104be602085018261046b565b5060408201516104d16040850182610486565b50505050565b60006060820190506104ec6000830184610495565b92915050565b6104fb8161047a565b82525050565b600060208201905061051660008301846104f2565b92915050565b61052581610459565b82525050565b6000602082019050610540600083018461051c565b92915050565b600061055182610377565b9050919050565b61056181610546565b811461056c57600080fd5b50565b60008135905061057e81610558565b92915050565b60006020828403121561059a57610599610352565b5b60006105a88482850161056f565b91505092915050565b6105ba8161047a565b81146105c557600080fd5b50565b6000813590506105d7816105b1565b92915050565b6000602082840312156105f3576105f2610352565b5b6000610601848285016105c8565b9150509291505056fea2646970667358221220e0e88fc4e662b4cfa9148aa98ec277f503e2a3b1561059da07469987c13d739864736f6c634300080b0033a264697066735822122022da88755dc8fbfa222e680ca733c522e7dd061405baa4599313243a8d9d69b964736f6c634300080b0033",
  "immutableReferences": {},
  "source": "// SPDX-License-Identifier: MIT\npragma solidity ^0.8.10;\n\n//import \"./Persona.sol\";\nimport \"../models/PacienteVO.sol\";\nimport \"../persistence/PacienteMapper.sol\";\nimport \"./Acceso.sol\";\n\ncontract Paciente {\n    event Log(string data);\n    address public creador;\n\n    PacienteMapperInterface private pacienteMapper;\n    RolMapperInterface private rolMapper;\n    UsuarioMapperInterface private usuarioMapper;\n    Acceso private acceso;\n    \n\n    //TODO Convertir eventualmente en un enum\n    uint256 rolPacienteId = 1;\n\n    constructor() {\n        creador = msg.sender; // creador del contrato\n    }\n\n    // Puede el medico\n    function consultar(address direccion)\n        public\n        tieneAcceso(1) \n        returns (PacienteVO)\n    {\n        emit Log(\"Entro a consultar Paciente\");\n        return pacienteMapper.consultar(direccion);\n        \n    }\n\n    // TODO Agregar a diagrama\n    // Solo lo puede usar el paciente\n    function consultar()\n        public\n        tieneAcceso(2) \n        returns (PacienteVO)\n    {\n        emit Log(\"Entro a consultar miInformacion paciente\");\n        return pacienteMapper.consultar(msg.sender);\n        \n    }\n    \n    // TODO: validar que pasa si falla el registro de persona\n    // TODO: que pasa si falla guardar paciente?\n    //tieneAcceso(2)\n    function registrar(address direccion, PacienteVO paciente)\n        public\n    {\n        if (direccion != msg.sender) {\n            revert(\"Un paciente se debe registrar a si mismo\");\n        }\n\n        RolVO rol = rolMapper.consultar(rolPacienteId);\n        UsuarioVO nuevoUsuario = new UsuarioVO(); \n        nuevoUsuario.setDireccion(direccion);\n        nuevoUsuario.setRol(rol);\n        nuevoUsuario.setEstaActivo(true);\n        usuarioMapper.guardar(direccion, nuevoUsuario);\n        pacienteMapper.guardar(direccion, paciente);\n        // TODO Crear HC\n        // registrar usuario\n        \n    }\n    /*\n    // TODO: Discutir si un mdico debe actualizar al paciente (nombre y demas)\n    // TODO: Sollo se podria acceder con el acceso que da el paciente sobre su info\n    function actualizar(address direccion, PacienteVO paciente)\n        public\n        tieneAcceso(3)\n    {\n        if (direccion != msg.sender) {\n            // si alguien diferente al propietario de la historia la consulta se debe validar quien es\n            // validar quien consulta\n            revert(\"No tiene permisos de actualizar\");\n        }\n        // bloquear actualizacin de estado\n        pacienteMapper.actualizar(direccion, paciente);\n    }\n    */\n\n    function actualizar(PacienteVO paciente)\n        public\n        tieneAcceso(3)\n    {\n        // bloquear actualizacin de estado\n        pacienteMapper.actualizar(msg.sender, paciente);\n    }\n\n    // TODO: poner modificador para que solo lo pueda ejecutar el service y\n    // en el service que solo lo ejecute un mdico\n    // TODO: Debe usar el permiso que da el paciente\n    function cambiarEstado(address _direccion, EstadoVO _estado)\n        public\n        tieneAcceso(4)\n    {\n        PacienteVO paciente = pacienteMapper.consultar(_direccion);\n        paciente.setEstado(_estado);\n        pacienteMapper.actualizar(_direccion, paciente);\n    }\n\n    function setPacienteMapper(PacienteMapperInterface _pacienteMapperAddress)\n        public\n        esPropietario\n    {\n        pacienteMapper = _pacienteMapperAddress;\n    }\n\n    function setRolMapper(RolMapperInterface _rolMapperAddress)\n        public\n        esPropietario\n    {\n        rolMapper = _rolMapperAddress;\n    }\n\n    function setUsuarioMapper(UsuarioMapperInterface _usuarioMapperAddress)\n        public\n        esPropietario\n    {\n        usuarioMapper = _usuarioMapperAddress;\n    }\n\n    function setAcceso(Acceso _accesoAddress) public esPropietario {\n        acceso = _accesoAddress;\n    }\n\n    modifier esPropietario() {\n        require(\n            msg.sender == creador,\n            \"Esta funcion solo puede ser ejecutada por el creador del contrato\"\n        );\n        _; // ac se ejecuta la funcin\n    }\n\n    function selfDestruct() public esPropietario {\n        selfdestruct(payable(creador));\n    }\n\n    modifier tieneAcceso(uint256 permisoId) {\n        bool esAccesible = acceso.validarPermisoDeRol(msg.sender, permisoId);\n        require(esAccesible, \"El usuario no tiene acceso\");\n        _; // ac se ejecuta la funcin\n    }\n}\n",
  "sourcePath": "/home/felipe/Documentos/Blockchain/codigo/back-hce/contracts/logica/Paciente.sol",
  "compiler": {
    "name": "solc",
    "version": "0.8.11+commit.d7f03943.Emscripten.clang"
  },
  "schemaVersion": "3.4.4",
  "updatedAt": "2022-06-18T23:52:28.286Z",
  "networkType": "ethereum",
  "devdoc": {
    "kind": "dev",
    "methods": {},
    "version": 1
  },
  "userdoc": {
    "kind": "user",
    "methods": {},
    "version": 1
  }
}