{
  "contractName": "Paciente",
  "abi": [
    {
      "inputs": [],
      "stateMutability": "nonpayable",
      "type": "constructor"
    },
    {
      "anonymous": false,
      "inputs": [
        {
          "indexed": false,
          "internalType": "string",
          "name": "data",
          "type": "string"
        }
      ],
      "name": "Log",
      "type": "event"
    },
    {
      "inputs": [],
      "name": "ContratoPacienteDAOAddress",
      "outputs": [
        {
          "internalType": "address",
          "name": "",
          "type": "address"
        }
      ],
      "stateMutability": "view",
      "type": "function",
      "constant": true
    },
    {
      "inputs": [],
      "name": "ContratoPersonaAddress",
      "outputs": [
        {
          "internalType": "address",
          "name": "",
          "type": "address"
        }
      ],
      "stateMutability": "view",
      "type": "function",
      "constant": true
    },
    {
      "inputs": [],
      "name": "creador",
      "outputs": [
        {
          "internalType": "address",
          "name": "",
          "type": "address"
        }
      ],
      "stateMutability": "view",
      "type": "function",
      "constant": true
    },
    {
      "inputs": [
        {
          "internalType": "address",
          "name": "direccion",
          "type": "address"
        }
      ],
      "name": "consultar",
      "outputs": [
        {
          "components": [
            {
              "components": [
                {
                  "internalType": "string",
                  "name": "primerNombre",
                  "type": "string"
                },
                {
                  "internalType": "string",
                  "name": "segundoNombre",
                  "type": "string"
                },
                {
                  "internalType": "string",
                  "name": "primerApellido",
                  "type": "string"
                },
                {
                  "internalType": "string",
                  "name": "segundoApellido",
                  "type": "string"
                },
                {
                  "internalType": "string",
                  "name": "identificacion",
                  "type": "string"
                },
                {
                  "components": [
                    {
                      "internalType": "string",
                      "name": "nombre",
                      "type": "string"
                    },
                    {
                      "internalType": "string",
                      "name": "descripcion",
                      "type": "string"
                    },
                    {
                      "internalType": "bool",
                      "name": "estaActiva",
                      "type": "bool"
                    }
                  ],
                  "internalType": "struct TipoIdentificacionStruct",
                  "name": "tipoIdentificacion",
                  "type": "tuple"
                },
                {
                  "internalType": "bool",
                  "name": "isValue",
                  "type": "bool"
                }
              ],
              "internalType": "struct PersonaStruct",
              "name": "persona",
              "type": "tuple"
            },
            {
              "components": [
                {
                  "internalType": "string",
                  "name": "estado",
                  "type": "string"
                },
                {
                  "internalType": "string",
                  "name": "datosPersonales",
                  "type": "string"
                },
                {
                  "internalType": "bool",
                  "name": "isValue",
                  "type": "bool"
                }
              ],
              "internalType": "struct PacienteStruct",
              "name": "paciente",
              "type": "tuple"
            }
          ],
          "internalType": "struct Paciente.PersonaPacienteStruct",
          "name": "pacienteInfo",
          "type": "tuple"
        }
      ],
      "stateMutability": "nonpayable",
      "type": "function"
    },
    {
      "inputs": [
        {
          "internalType": "address",
          "name": "direccion",
          "type": "address"
        }
      ],
      "name": "consultarPaciente",
      "outputs": [
        {
          "components": [
            {
              "internalType": "string",
              "name": "estado",
              "type": "string"
            },
            {
              "internalType": "string",
              "name": "datosPersonales",
              "type": "string"
            },
            {
              "internalType": "bool",
              "name": "isValue",
              "type": "bool"
            }
          ],
          "internalType": "struct PacienteStruct",
          "name": "",
          "type": "tuple"
        }
      ],
      "stateMutability": "nonpayable",
      "type": "function"
    },
    {
      "inputs": [
        {
          "internalType": "address",
          "name": "direccion",
          "type": "address"
        }
      ],
      "name": "consultarPersona",
      "outputs": [
        {
          "components": [
            {
              "internalType": "string",
              "name": "primerNombre",
              "type": "string"
            },
            {
              "internalType": "string",
              "name": "segundoNombre",
              "type": "string"
            },
            {
              "internalType": "string",
              "name": "primerApellido",
              "type": "string"
            },
            {
              "internalType": "string",
              "name": "segundoApellido",
              "type": "string"
            },
            {
              "internalType": "string",
              "name": "identificacion",
              "type": "string"
            },
            {
              "components": [
                {
                  "internalType": "string",
                  "name": "nombre",
                  "type": "string"
                },
                {
                  "internalType": "string",
                  "name": "descripcion",
                  "type": "string"
                },
                {
                  "internalType": "bool",
                  "name": "estaActiva",
                  "type": "bool"
                }
              ],
              "internalType": "struct TipoIdentificacionStruct",
              "name": "tipoIdentificacion",
              "type": "tuple"
            },
            {
              "internalType": "bool",
              "name": "isValue",
              "type": "bool"
            }
          ],
          "internalType": "struct PersonaStruct",
          "name": "",
          "type": "tuple"
        }
      ],
      "stateMutability": "nonpayable",
      "type": "function"
    },
    {
      "inputs": [
        {
          "internalType": "address",
          "name": "direccion",
          "type": "address"
        }
      ],
      "name": "setContratoPersonaAddress",
      "outputs": [],
      "stateMutability": "nonpayable",
      "type": "function"
    },
    {
      "inputs": [
        {
          "internalType": "address",
          "name": "direccion",
          "type": "address"
        }
      ],
      "name": "setContratoPacienteDAOAddress",
      "outputs": [],
      "stateMutability": "nonpayable",
      "type": "function"
    }
  ],
  "bytecode": "0x608060405234801561001057600080fd5b50336000806101000a81548173ffffffffffffffffffffffffffffffffffffffff021916908373ffffffffffffffffffffffffffffffffffffffff1602179055506117ef806100606000396000f3fe608060405234801561001057600080fd5b50600436106100885760003560e01c806392ebdcd21161005b57806392ebdcd21461011357806398b8fe7114610131578063ad36702114610161578063bf1c5e511461019157610088565b806340cd7a601461008d5780634845da3e146100a95780637da8f6a5146100c5578063928c135c146100f5575b600080fd5b6100a760048036038101906100a291906109fc565b6101af565b005b6100c360048036038101906100be91906109fc565b6102e4565b005b6100df60048036038101906100da91906109fc565b610419565b6040516100ec9190610c8e565b60405180910390f35b6100fd61047d565b60405161010a9190610cbf565b60405180910390f35b61011b6104a3565b6040516101289190610cbf565b60405180910390f35b61014b600480360381019061014691906109fc565b6104c7565b6040516101589190610d99565b60405180910390f35b61017b600480360381019061017691906109fc565b6106bd565b6040516101889190610e12565b60405180910390f35b6101996108b3565b6040516101a69190610cbf565b60405180910390f35b60008054906101000a900473ffffffffffffffffffffffffffffffffffffffff1673ffffffffffffffffffffffffffffffffffffffff163373ffffffffffffffffffffffffffffffffffffffff161461023d576040517f08c379a000000000000000000000000000000000000000000000000000000000815260040161023490610edd565b60405180910390fd5b80600260006101000a81548173ffffffffffffffffffffffffffffffffffffffff021916908373ffffffffffffffffffffffffffffffffffffffff160217905550600260009054906101000a900473ffffffffffffffffffffffffffffffffffffffff16600460006101000a81548173ffffffffffffffffffffffffffffffffffffffff021916908373ffffffffffffffffffffffffffffffffffffffff16021790555050565b60008054906101000a900473ffffffffffffffffffffffffffffffffffffffff1673ffffffffffffffffffffffffffffffffffffffff163373ffffffffffffffffffffffffffffffffffffffff1614610372576040517f08c379a000000000000000000000000000000000000000000000000000000000815260040161036990610edd565b60405180910390fd5b80600160006101000a81548173ffffffffffffffffffffffffffffffffffffffff021916908373ffffffffffffffffffffffffffffffffffffffff160217905550600160009054906101000a900473ffffffffffffffffffffffffffffffffffffffff16600360006101000a81548173ffffffffffffffffffffffffffffffffffffffff021916908373ffffffffffffffffffffffffffffffffffffffff16021790555050565b6104216108d9565b7fcf34ef537ac33ee1ac626ca1587a0a7e8e51561e5514f8cb36afa1c5102b3bab60405161044e90610f49565b60405180910390a161045f826106bd565b8160200181905250610470826104c7565b8160000181905250919050565b600260009054906101000a900473ffffffffffffffffffffffffffffffffffffffff1681565b60008054906101000a900473ffffffffffffffffffffffffffffffffffffffff1681565b6104cf6108ff565b7fcf34ef537ac33ee1ac626ca1587a0a7e8e51561e5514f8cb36afa1c5102b3bab6040516104fc90610f49565b60405180910390a1600460009054906101000a900473ffffffffffffffffffffffffffffffffffffffff1673ffffffffffffffffffffffffffffffffffffffff16637da8f6a5836040518263ffffffff1660e01b815260040161055f9190610cbf565b6000604051808303816000875af19250505080156105a057506040513d6000823e3d601f19601f8201168201806040525081019061059d91906112bd565b60015b61067f576105ac611313565b806308c379a0141561067357506105c1611335565b806105cc5750610675565b7fcf34ef537ac33ee1ac626ca1587a0a7e8e51561e5514f8cb36afa1c5102b3bab6040516105f99061143d565b60405180910390a17fcf34ef537ac33ee1ac626ca1587a0a7e8e51561e5514f8cb36afa1c5102b3bab816040516106309190611496565b60405180910390a16040517f08c379a000000000000000000000000000000000000000000000000000000000815260040161066a90611504565b60405180910390fd5b505b3d6000803e3d6000fd5b7fcf34ef537ac33ee1ac626ca1587a0a7e8e51561e5514f8cb36afa1c5102b3bab6040516106ac90611570565b60405180910390a180915050919050565b6106c5610944565b7fcf34ef537ac33ee1ac626ca1587a0a7e8e51561e5514f8cb36afa1c5102b3bab6040516106f2906115dc565b60405180910390a1600360009054906101000a900473ffffffffffffffffffffffffffffffffffffffff1673ffffffffffffffffffffffffffffffffffffffff16637da8f6a5836040518263ffffffff1660e01b81526004016107559190610cbf565b6000604051808303816000875af192505050801561079657506040513d6000823e3d601f19601f820116820180604052508101906107939190611698565b60015b610875576107a2611313565b806308c379a0141561086957506107b7611335565b806107c2575061086b565b7fcf34ef537ac33ee1ac626ca1587a0a7e8e51561e5514f8cb36afa1c5102b3bab6040516107ef9061143d565b60405180910390a17fcf34ef537ac33ee1ac626ca1587a0a7e8e51561e5514f8cb36afa1c5102b3bab816040516108269190611496565b60405180910390a16040517f08c379a00000000000000000000000000000000000000000000000000000000081526004016108609061172d565b60405180910390fd5b505b3d6000803e3d6000fd5b7fcf34ef537ac33ee1ac626ca1587a0a7e8e51561e5514f8cb36afa1c5102b3bab6040516108a290611799565b60405180910390a180915050919050565b600160009054906101000a900473ffffffffffffffffffffffffffffffffffffffff1681565b60405180604001604052806108ec6108ff565b81526020016108f9610944565b81525090565b6040518060e001604052806060815260200160608152602001606081526020016060815260200160608152602001610935610967565b81526020016000151581525090565b604051806060016040528060608152602001606081526020016000151581525090565b604051806060016040528060608152602001606081526020016000151581525090565b6000604051905090565b600080fd5b600080fd5b600073ffffffffffffffffffffffffffffffffffffffff82169050919050565b60006109c98261099e565b9050919050565b6109d9816109be565b81146109e457600080fd5b50565b6000813590506109f6816109d0565b92915050565b600060208284031215610a1257610a11610994565b5b6000610a20848285016109e7565b91505092915050565b600081519050919050565b600082825260208201905092915050565b60005b83811015610a63578082015181840152602081019050610a48565b83811115610a72576000848401525b50505050565b6000601f19601f8301169050919050565b6000610a9482610a29565b610a9e8185610a34565b9350610aae818560208601610a45565b610ab781610a78565b840191505092915050565b60008115159050919050565b610ad781610ac2565b82525050565b60006060830160008301518482036000860152610afa8282610a89565b91505060208301518482036020860152610b148282610a89565b9150506040830151610b296040860182610ace565b508091505092915050565b600060e0830160008301518482036000860152610b518282610a89565b91505060208301518482036020860152610b6b8282610a89565b91505060408301518482036040860152610b858282610a89565b91505060608301518482036060860152610b9f8282610a89565b91505060808301518482036080860152610bb98282610a89565b91505060a083015184820360a0860152610bd38282610add565b91505060c0830151610be860c0860182610ace565b508091505092915050565b60006060830160008301518482036000860152610c108282610a89565b91505060208301518482036020860152610c2a8282610a89565b9150506040830151610c3f6040860182610ace565b508091505092915050565b60006040830160008301518482036000860152610c678282610b34565b91505060208301518482036020860152610c818282610bf3565b9150508091505092915050565b60006020820190508181036000830152610ca88184610c4a565b905092915050565b610cb9816109be565b82525050565b6000602082019050610cd46000830184610cb0565b92915050565b600060e0830160008301518482036000860152610cf78282610a89565b91505060208301518482036020860152610d118282610a89565b91505060408301518482036040860152610d2b8282610a89565b91505060608301518482036060860152610d458282610a89565b91505060808301518482036080860152610d5f8282610a89565b91505060a083015184820360a0860152610d798282610add565b91505060c0830151610d8e60c0860182610ace565b508091505092915050565b60006020820190508181036000830152610db38184610cda565b905092915050565b60006060830160008301518482036000860152610dd88282610a89565b91505060208301518482036020860152610df28282610a89565b9150506040830151610e076040860182610ace565b508091505092915050565b60006020820190508181036000830152610e2c8184610dbb565b905092915050565b600082825260208201905092915050565b7f457374612066756e63696f6e20736f6c6f2070756564652073657220656a656360008201527f757461646120706f7220656c2063726561646f722064656c20636f6e7472617460208201527f6f00000000000000000000000000000000000000000000000000000000000000604082015250565b6000610ec7604183610e34565b9150610ed282610e45565b606082019050919050565b60006020820190508181036000830152610ef681610eba565b9050919050565b7f656e74726f206120636f6e73756c746172000000000000000000000000000000600082015250565b6000610f33601183610e34565b9150610f3e82610efd565b602082019050919050565b60006020820190508181036000830152610f6281610f26565b9050919050565b600080fd5b7f4e487b7100000000000000000000000000000000000000000000000000000000600052604160045260246000fd5b610fa682610a78565b810181811067ffffffffffffffff82111715610fc557610fc4610f6e565b5b80604052505050565b6000610fd861098a565b9050610fe48282610f9d565b919050565b600080fd5b600080fd5b600080fd5b600067ffffffffffffffff82111561101357611012610f6e565b5b61101c82610a78565b9050602081019050919050565b600061103c61103784610ff8565b610fce565b90508281526020810184848401111561105857611057610ff3565b5b611063848285610a45565b509392505050565b600082601f8301126110805761107f610fee565b5b8151611090848260208601611029565b91505092915050565b6110a281610ac2565b81146110ad57600080fd5b50565b6000815190506110bf81611099565b92915050565b6000606082840312156110db576110da610f69565b5b6110e56060610fce565b9050600082015167ffffffffffffffff81111561110557611104610fe9565b5b6111118482850161106b565b600083015250602082015167ffffffffffffffff81111561113557611134610fe9565b5b6111418482850161106b565b6020830152506040611155848285016110b0565b60408301525092915050565b600060e0828403121561117757611176610f69565b5b61118160e0610fce565b9050600082015167ffffffffffffffff8111156111a1576111a0610fe9565b5b6111ad8482850161106b565b600083015250602082015167ffffffffffffffff8111156111d1576111d0610fe9565b5b6111dd8482850161106b565b602083015250604082015167ffffffffffffffff81111561120157611200610fe9565b5b61120d8482850161106b565b604083015250606082015167ffffffffffffffff81111561123157611230610fe9565b5b61123d8482850161106b565b606083015250608082015167ffffffffffffffff81111561126157611260610fe9565b5b61126d8482850161106b565b60808301525060a082015167ffffffffffffffff81111561129157611290610fe9565b5b61129d848285016110c5565b60a08301525060c06112b1848285016110b0565b60c08301525092915050565b6000602082840312156112d3576112d2610994565b5b600082015167ffffffffffffffff8111156112f1576112f0610999565b5b6112fd84828501611161565b91505092915050565b60008160e01c9050919050565b600060033d11156113325760046000803e61132f600051611306565b90505b90565b600060443d1015611345576113c8565b61134d61098a565b60043d036004823e80513d602482011167ffffffffffffffff821117156113755750506113c8565b808201805167ffffffffffffffff81111561139357505050506113c8565b80602083010160043d0385018111156113b05750505050506113c8565b6113bf82602001850186610f9d565b82955050505050505b90565b7f736520726f6d70696f20706f7220756e20726576657274206f2072657175697260008201527f6500000000000000000000000000000000000000000000000000000000000000602082015250565b6000611427602183610e34565b9150611432826113cb565b604082019050919050565b600060208201905081810360008301526114568161141a565b9050919050565b600061146882610a29565b6114728185610e34565b9350611482818560208601610a45565b61148b81610a78565b840191505092915050565b600060208201905081810360008301526114b0818461145d565b905092915050565b7f4e6f20657869737465206573652070616369656e746500000000000000000000600082015250565b60006114ee601683610e34565b91506114f9826114b8565b602082019050919050565b6000602082019050818103600083015261151d816114e1565b9050919050565b7f656e636f6e74726f206c6120706572736f6e6100000000000000000000000000600082015250565b600061155a601383610e34565b915061156582611524565b602082019050919050565b600060208201905081810360008301526115898161154d565b9050919050565b7f656e74726f206120636f6e73756c7461722050616369656e7465000000000000600082015250565b60006115c6601a83610e34565b91506115d182611590565b602082019050919050565b600060208201905081810360008301526115f5816115b9565b9050919050565b60006060828403121561161257611611610f69565b5b61161c6060610fce565b9050600082015167ffffffffffffffff81111561163c5761163b610fe9565b5b6116488482850161106b565b600083015250602082015167ffffffffffffffff81111561166c5761166b610fe9565b5b6116788482850161106b565b602083015250604061168c848285016110b0565b60408301525092915050565b6000602082840312156116ae576116ad610994565b5b600082015167ffffffffffffffff8111156116cc576116cb610999565b5b6116d8848285016115fc565b91505092915050565b7f4e6f20657869737465206573652050616369656e746500000000000000000000600082015250565b6000611717601683610e34565b9150611722826116e1565b602082019050919050565b600060208201905081810360008301526117468161170a565b9050919050565b7f656e636f6e74726f206c612050616369656e7465000000000000000000000000600082015250565b6000611783601483610e34565b915061178e8261174d565b602082019050919050565b600060208201905081810360008301526117b281611776565b905091905056fea264697066735822122097287ef9368b75bc96598a49fbb38764dab412c1d0d917fe419c0e8d77e549d964736f6c634300080b0033",
  "immutableReferences": {},
  "source": "// SPDX-License-Identifier: MIT\npragma solidity ^0.8.10;\n\nimport \"./Persona.sol\";\nimport \"../models/PacienteStruct.sol\";\nimport \"../persistence/PacienteDAO.sol\";\n\n// TODO: cambiar el diagrama, no puede heredar pero si puede usar o componerse de persona\ncontract Paciente {\n    event Log(string data);\n    address public creador;\n    address public ContratoPacienteDAOAddress;\n    address public ContratoPersonaAddress;\n\n    PacienteDAO private contratoPacienteDAO;\n    Persona private contratoPersona;\n\n    struct PersonaPacienteStruct {\n        PersonaStruct persona;\n        PacienteStruct paciente;\n    }\n\n    constructor() {\n        creador = msg.sender; // creador del contrato\n    }\n\n    function consultar(address direccion)\n        public\n        returns (PersonaPacienteStruct memory pacienteInfo)\n    {\n        emit Log(\"entro a consultar\");\n        pacienteInfo.paciente = consultarPaciente(direccion);\n        pacienteInfo.persona = consultarPersona(direccion);\n    }\n\n    function consultarPaciente(address direccion)\n        public\n        returns (PacienteStruct memory)\n    {\n        emit Log(\"entro a consultar Paciente\");\n        try contratoPacienteDAO.consultar(direccion) returns (\n            PacienteStruct memory response\n        ) {\n            emit Log(\"encontro la Paciente\");\n            return response;\n        } catch Error(string memory e) {\n            /*reason*/\n            emit Log(\"se rompio por un revert o require\");\n            emit Log(e);\n            revert(\"No existe ese Paciente\");\n        }\n    }\n\n    function consultarPersona(address direccion)\n        public\n        returns (PersonaStruct memory)\n    {\n        emit Log(\"entro a consultar\");\n        try contratoPersona.consultar(direccion) returns (\n            PersonaStruct memory response\n        ) {\n            emit Log(\"encontro la persona\");\n            return response;\n        } catch Error(string memory e) {\n            /*reason*/\n            emit Log(\"se rompio por un revert o require\");\n            emit Log(e);\n            revert(\"No existe ese paciente\");\n        }\n    }\n\n    function setContratoPersonaAddress(address direccion) public esPropietario {\n        ContratoPersonaAddress = direccion;\n        contratoPersona = Persona(ContratoPersonaAddress);\n    }\n    function setContratoPacienteDAOAddress(address direccion) public esPropietario {\n        ContratoPacienteDAOAddress = direccion;\n        contratoPacienteDAO = PacienteDAO(ContratoPacienteDAOAddress);\n    }\n\n    modifier esPropietario() {\n        require(\n            msg.sender == creador,\n            \"Esta funcion solo puede ser ejecutada por el creador del contrato\"\n        );\n        _; // ac se ejecuta la funcin\n    }\n}\n",
  "sourcePath": "/home/felipe/Documentos/Blockchain/codigo/back-hce/contracts/logica/Paciente.sol",
  "compiler": {
    "name": "solc",
    "version": "0.8.11+commit.d7f03943.Emscripten.clang"
  },
  "schemaVersion": "3.4.4",
  "updatedAt": "2022-02-05T00:12:00.264Z",
  "networkType": "ethereum",
  "devdoc": {
    "kind": "dev",
    "methods": {},
    "version": 1
  },
  "userdoc": {
    "kind": "user",
    "methods": {},
    "version": 1
  }
}