{
  "contractName": "Paciente",
  "abi": [
    {
      "inputs": [],
      "stateMutability": "nonpayable",
      "type": "constructor"
    },
    {
      "anonymous": false,
      "inputs": [
        {
          "indexed": false,
          "internalType": "string",
          "name": "data",
          "type": "string"
        }
      ],
      "name": "Log",
      "type": "event"
    },
    {
      "inputs": [
        {
          "internalType": "address",
          "name": "direccion",
          "type": "address"
        }
      ],
      "name": "consultar",
      "outputs": [
        {
          "components": [
            {
              "internalType": "string",
              "name": "primerNombre",
              "type": "string"
            },
            {
              "internalType": "string",
              "name": "segundoNombre",
              "type": "string"
            },
            {
              "internalType": "string",
              "name": "primerApellido",
              "type": "string"
            },
            {
              "internalType": "string",
              "name": "segundoApellido",
              "type": "string"
            },
            {
              "internalType": "string",
              "name": "identificacion",
              "type": "string"
            },
            {
              "internalType": "string",
              "name": "tipoIdentificacion",
              "type": "string"
            },
            {
              "internalType": "bool",
              "name": "isValue",
              "type": "bool"
            }
          ],
          "internalType": "struct PersonaStruct",
          "name": "",
          "type": "tuple"
        }
      ],
      "stateMutability": "nonpayable",
      "type": "function"
    },
    {
      "inputs": [
        {
          "internalType": "address",
          "name": "direccion",
          "type": "address"
        },
        {
          "components": [
            {
              "internalType": "string",
              "name": "primerNombre",
              "type": "string"
            },
            {
              "internalType": "string",
              "name": "segundoNombre",
              "type": "string"
            },
            {
              "internalType": "string",
              "name": "primerApellido",
              "type": "string"
            },
            {
              "internalType": "string",
              "name": "segundoApellido",
              "type": "string"
            },
            {
              "internalType": "string",
              "name": "identificacion",
              "type": "string"
            },
            {
              "internalType": "string",
              "name": "tipoIdentificacion",
              "type": "string"
            },
            {
              "internalType": "bool",
              "name": "isValue",
              "type": "bool"
            }
          ],
          "internalType": "struct PersonaStruct",
          "name": "persona",
          "type": "tuple"
        }
      ],
      "name": "guardar",
      "outputs": [],
      "stateMutability": "nonpayable",
      "type": "function"
    },
    {
      "inputs": [
        {
          "components": [
            {
              "internalType": "string",
              "name": "primerNombre",
              "type": "string"
            },
            {
              "internalType": "string",
              "name": "segundoNombre",
              "type": "string"
            },
            {
              "internalType": "string",
              "name": "primerApellido",
              "type": "string"
            },
            {
              "internalType": "string",
              "name": "segundoApellido",
              "type": "string"
            },
            {
              "internalType": "string",
              "name": "identificacion",
              "type": "string"
            },
            {
              "internalType": "string",
              "name": "tipoIdentificacion",
              "type": "string"
            },
            {
              "internalType": "bool",
              "name": "isValue",
              "type": "bool"
            }
          ],
          "internalType": "struct PersonaStruct",
          "name": "persona",
          "type": "tuple"
        }
      ],
      "name": "registrar",
      "outputs": [],
      "stateMutability": "nonpayable",
      "type": "function"
    }
  ],
  "bytecode": "0x608060405234801561001057600080fd5b5060405161001d9061007e565b604051809103906000f080158015610039573d6000803e3d6000fd5b506000806101000a81548173ffffffffffffffffffffffffffffffffffffffff021916908373ffffffffffffffffffffffffffffffffffffffff16021790555061008b565b6115c58061117483390190565b6110da8061009a6000396000f3fe608060405234801561001057600080fd5b50600436106100415760003560e01c8063133584b1146100465780637da8f6a514610062578063b86c281e14610092575b600080fd5b610060600480360381019061005b919061083d565b6100ae565b005b61007c60048036038101906100779190610899565b61027c565b6040516100899190610a1c565b60405180910390f35b6100ac60048036038101906100a79190610a3e565b6104a5565b005b60008054906101000a900473ffffffffffffffffffffffffffffffffffffffff1673ffffffffffffffffffffffffffffffffffffffff1663133584b183836040518363ffffffff1660e01b8152600401610109929190610a96565b600060405180830381600087803b15801561012357600080fd5b505af1925050508015610134575060015b61024257610140610ad3565b806308c379a014156101d25750610155610af5565b8061016057506101d4565b7fcf34ef537ac33ee1ac626ca1587a0a7e8e51561e5514f8cb36afa1c5102b3bab60405161018d90610c0e565b60405180910390a17fcf34ef537ac33ee1ac626ca1587a0a7e8e51561e5514f8cb36afa1c5102b3bab816040516101c49190610c67565b60405180910390a15061023d565b505b3d8060008114610200576040519150601f19603f3d011682016040523d82523d6000602084013e610205565b606091505b507fcf34ef537ac33ee1ac626ca1587a0a7e8e51561e5514f8cb36afa1c5102b3bab60405161023390610cd5565b60405180910390a1505b610278565b7fcf34ef537ac33ee1ac626ca1587a0a7e8e51561e5514f8cb36afa1c5102b3bab60405161026f90610d67565b60405180910390a15b5050565b6102846104a8565b7fcf34ef537ac33ee1ac626ca1587a0a7e8e51561e5514f8cb36afa1c5102b3bab6040516102b190610dd3565b60405180910390a160008054906101000a900473ffffffffffffffffffffffffffffffffffffffff1673ffffffffffffffffffffffffffffffffffffffff16637da8f6a5836040518263ffffffff1660e01b81526004016103129190610df3565b6000604051808303816000875af192505050801561035357506040513d6000823e3d601f19601f820116820180604052508101906103509190610fef565b60015b6104615761035f610ad3565b806308c379a014156103f15750610374610af5565b8061037f57506103f3565b7fcf34ef537ac33ee1ac626ca1587a0a7e8e51561e5514f8cb36afa1c5102b3bab6040516103ac90610c0e565b60405180910390a17fcf34ef537ac33ee1ac626ca1587a0a7e8e51561e5514f8cb36afa1c5102b3bab816040516103e39190610c67565b60405180910390a15061045c565b505b3d806000811461041f576040519150601f19603f3d011682016040523d82523d6000602084013e610424565b606091505b507fcf34ef537ac33ee1ac626ca1587a0a7e8e51561e5514f8cb36afa1c5102b3bab60405161045290610cd5565b60405180910390a1505b61049f565b7fcf34ef537ac33ee1ac626ca1587a0a7e8e51561e5514f8cb36afa1c5102b3bab60405161048e90611084565b60405180910390a1809150506104a0565b5b919050565b50565b6040518060e001604052806060815260200160608152602001606081526020016060815260200160608152602001606081526020016000151581525090565b6000604051905090565b600080fd5b600080fd5b600073ffffffffffffffffffffffffffffffffffffffff82169050919050565b6000610526826104fb565b9050919050565b6105368161051b565b811461054157600080fd5b50565b6000813590506105538161052d565b92915050565b600080fd5b6000601f19601f8301169050919050565b7f4e487b7100000000000000000000000000000000000000000000000000000000600052604160045260246000fd5b6105a78261055e565b810181811067ffffffffffffffff821117156105c6576105c561056f565b5b80604052505050565b60006105d96104e7565b90506105e5828261059e565b919050565b600080fd5b600080fd5b600080fd5b600067ffffffffffffffff8211156106145761061361056f565b5b61061d8261055e565b9050602081019050919050565b82818337600083830152505050565b600061064c610647846105f9565b6105cf565b905082815260208101848484011115610668576106676105f4565b5b61067384828561062a565b509392505050565b600082601f8301126106905761068f6105ef565b5b81356106a0848260208601610639565b91505092915050565b60008115159050919050565b6106be816106a9565b81146106c957600080fd5b50565b6000813590506106db816106b5565b92915050565b600060e082840312156106f7576106f6610559565b5b61070160e06105cf565b9050600082013567ffffffffffffffff811115610721576107206105ea565b5b61072d8482850161067b565b600083015250602082013567ffffffffffffffff811115610751576107506105ea565b5b61075d8482850161067b565b602083015250604082013567ffffffffffffffff811115610781576107806105ea565b5b61078d8482850161067b565b604083015250606082013567ffffffffffffffff8111156107b1576107b06105ea565b5b6107bd8482850161067b565b606083015250608082013567ffffffffffffffff8111156107e1576107e06105ea565b5b6107ed8482850161067b565b60808301525060a082013567ffffffffffffffff811115610811576108106105ea565b5b61081d8482850161067b565b60a08301525060c0610831848285016106cc565b60c08301525092915050565b60008060408385031215610854576108536104f1565b5b600061086285828601610544565b925050602083013567ffffffffffffffff811115610883576108826104f6565b5b61088f858286016106e1565b9150509250929050565b6000602082840312156108af576108ae6104f1565b5b60006108bd84828501610544565b91505092915050565b600081519050919050565b600082825260208201905092915050565b60005b838110156109005780820151818401526020810190506108e5565b8381111561090f576000848401525b50505050565b6000610920826108c6565b61092a81856108d1565b935061093a8185602086016108e2565b6109438161055e565b840191505092915050565b610957816106a9565b82525050565b600060e083016000830151848203600086015261097a8282610915565b915050602083015184820360208601526109948282610915565b915050604083015184820360408601526109ae8282610915565b915050606083015184820360608601526109c88282610915565b915050608083015184820360808601526109e28282610915565b91505060a083015184820360a08601526109fc8282610915565b91505060c0830151610a1160c086018261094e565b508091505092915050565b60006020820190508181036000830152610a36818461095d565b905092915050565b600060208284031215610a5457610a536104f1565b5b600082013567ffffffffffffffff811115610a7257610a716104f6565b5b610a7e848285016106e1565b91505092915050565b610a908161051b565b82525050565b6000604082019050610aab6000830185610a87565b8181036020830152610abd818461095d565b90509392505050565b60008160e01c9050919050565b600060033d1115610af25760046000803e610aef600051610ac6565b90505b90565b600060443d1015610b0557610b88565b610b0d6104e7565b60043d036004823e80513d602482011167ffffffffffffffff82111715610b35575050610b88565b808201805167ffffffffffffffff811115610b535750505050610b88565b80602083010160043d038501811115610b70575050505050610b88565b610b7f8260200185018661059e565b82955050505050505b90565b600082825260208201905092915050565b7f736520726f6d70696f20706f7220756e20726576657274206f2072657175697260008201527f6500000000000000000000000000000000000000000000000000000000000000602082015250565b6000610bf8602183610b8b565b9150610c0382610b9c565b604082019050919050565b60006020820190508181036000830152610c2781610beb565b9050919050565b6000610c39826108c6565b610c438185610b8b565b9350610c538185602086016108e2565b610c5c8161055e565b840191505092915050565b60006020820190508181036000830152610c818184610c2e565b905092915050565b7f736520726f6d70696f2079206e69206964656120706f72717565200000000000600082015250565b6000610cbf601b83610b8b565b9150610cca82610c89565b602082019050919050565b60006020820190508181036000830152610cee81610cb2565b9050919050565b7f536520677561726461206c6120706572736f6e6120636f7265656374616d656e60008201527f7465000000000000000000000000000000000000000000000000000000000000602082015250565b6000610d51602283610b8b565b9150610d5c82610cf5565b604082019050919050565b60006020820190508181036000830152610d8081610d44565b9050919050565b7f656e74726f206120636f6e73756c746172000000000000000000000000000000600082015250565b6000610dbd601183610b8b565b9150610dc882610d87565b602082019050919050565b60006020820190508181036000830152610dec81610db0565b9050919050565b6000602082019050610e086000830184610a87565b92915050565b6000610e21610e1c846105f9565b6105cf565b905082815260208101848484011115610e3d57610e3c6105f4565b5b610e488482856108e2565b509392505050565b600082601f830112610e6557610e646105ef565b5b8151610e75848260208601610e0e565b91505092915050565b600081519050610e8d816106b5565b92915050565b600060e08284031215610ea957610ea8610559565b5b610eb360e06105cf565b9050600082015167ffffffffffffffff811115610ed357610ed26105ea565b5b610edf84828501610e50565b600083015250602082015167ffffffffffffffff811115610f0357610f026105ea565b5b610f0f84828501610e50565b602083015250604082015167ffffffffffffffff811115610f3357610f326105ea565b5b610f3f84828501610e50565b604083015250606082015167ffffffffffffffff811115610f6357610f626105ea565b5b610f6f84828501610e50565b606083015250608082015167ffffffffffffffff811115610f9357610f926105ea565b5b610f9f84828501610e50565b60808301525060a082015167ffffffffffffffff811115610fc357610fc26105ea565b5b610fcf84828501610e50565b60a08301525060c0610fe384828501610e7e565b60c08301525092915050565b600060208284031215611005576110046104f1565b5b600082015167ffffffffffffffff811115611023576110226104f6565b5b61102f84828501610e93565b91505092915050565b7f656e636f6e74726f206c6120706572736f6e6100000000000000000000000000600082015250565b600061106e601383610b8b565b915061107982611038565b602082019050919050565b6000602082019050818103600083015261109d81611061565b905091905056fea26469706673582212205c4c796bde27e3b68e4462c1972b776c9f83b833311b6c7b3a433e26e37c9c7764736f6c634300080b0033608060405234801561001057600080fd5b50336000806101000a81548173ffffffffffffffffffffffffffffffffffffffff021916908373ffffffffffffffffffffffffffffffffffffffff160217905550611565806100606000396000f3fe608060405234801561001057600080fd5b506004361061004c5760003560e01c8063133584b11461005157806326d0a3801461006d5780637da8f6a5146100a357806392ebdcd2146100d3575b600080fd5b61006b60048036038101906100669190610f6f565b6100f1565b005b61008760048036038101906100829190610fcb565b6102cb565b60405161009a979695949392919061108f565b60405180910390f35b6100bd60048036038101906100b89190610fcb565b61064a565b6040516100ca9190611240565b60405180910390f35b6100db610b13565b6040516100e89190611271565b60405180910390f35b600160008373ffffffffffffffffffffffffffffffffffffffff1673ffffffffffffffffffffffffffffffffffffffff16815260200190815260200160002060060160009054906101000a900460ff16156101b6577fcf34ef537ac33ee1ac626ca1587a0a7e8e51561e5514f8cb36afa1c5102b3bab604051610173906112fe565b60405180910390a16040517f08c379a00000000000000000000000000000000000000000000000000000000081526004016101ad906112fe565b60405180910390fd5b80600160008473ffffffffffffffffffffffffffffffffffffffff1673ffffffffffffffffffffffffffffffffffffffff1681526020019081526020016000206000820151816000019080519060200190610212929190610b37565b50602082015181600101908051906020019061022f929190610b37565b50604082015181600201908051906020019061024c929190610b37565b506060820151816003019080519060200190610269929190610b37565b506080820151816004019080519060200190610286929190610b37565b5060a08201518160050190805190602001906102a3929190610b37565b5060c08201518160060160006101000a81548160ff0219169083151502179055509050505050565b60016020528060005260406000206000915090508060000180546102ee9061134d565b80601f016020809104026020016040519081016040528092919081815260200182805461031a9061134d565b80156103675780601f1061033c57610100808354040283529160200191610367565b820191906000526020600020905b81548152906001019060200180831161034a57829003601f168201915b50505050509080600101805461037c9061134d565b80601f01602080910402602001604051908101604052809291908181526020018280546103a89061134d565b80156103f55780601f106103ca576101008083540402835291602001916103f5565b820191906000526020600020905b8154815290600101906020018083116103d857829003601f168201915b50505050509080600201805461040a9061134d565b80601f01602080910402602001604051908101604052809291908181526020018280546104369061134d565b80156104835780601f1061045857610100808354040283529160200191610483565b820191906000526020600020905b81548152906001019060200180831161046657829003601f168201915b5050505050908060030180546104989061134d565b80601f01602080910402602001604051908101604052809291908181526020018280546104c49061134d565b80156105115780601f106104e657610100808354040283529160200191610511565b820191906000526020600020905b8154815290600101906020018083116104f457829003601f168201915b5050505050908060040180546105269061134d565b80601f01602080910402602001604051908101604052809291908181526020018280546105529061134d565b801561059f5780601f106105745761010080835404028352916020019161059f565b820191906000526020600020905b81548152906001019060200180831161058257829003601f168201915b5050505050908060050180546105b49061134d565b80601f01602080910402602001604051908101604052809291908181526020018280546105e09061134d565b801561062d5780601f106106025761010080835404028352916020019161062d565b820191906000526020600020905b81548152906001019060200180831161061057829003601f168201915b5050505050908060060160009054906101000a900460ff16905087565b610652610bbd565b7fcf34ef537ac33ee1ac626ca1587a0a7e8e51561e5514f8cb36afa1c5102b3bab60405161067f906113cb565b60405180910390a16000600160008473ffffffffffffffffffffffffffffffffffffffff1673ffffffffffffffffffffffffffffffffffffffff1681526020019081526020016000206040518060e00160405290816000820180546106e39061134d565b80601f016020809104026020016040519081016040528092919081815260200182805461070f9061134d565b801561075c5780601f106107315761010080835404028352916020019161075c565b820191906000526020600020905b81548152906001019060200180831161073f57829003601f168201915b505050505081526020016001820180546107759061134d565b80601f01602080910402602001604051908101604052809291908181526020018280546107a19061134d565b80156107ee5780601f106107c3576101008083540402835291602001916107ee565b820191906000526020600020905b8154815290600101906020018083116107d157829003601f168201915b505050505081526020016002820180546108079061134d565b80601f01602080910402602001604051908101604052809291908181526020018280546108339061134d565b80156108805780601f1061085557610100808354040283529160200191610880565b820191906000526020600020905b81548152906001019060200180831161086357829003601f168201915b505050505081526020016003820180546108999061134d565b80601f01602080910402602001604051908101604052809291908181526020018280546108c59061134d565b80156109125780601f106108e757610100808354040283529160200191610912565b820191906000526020600020905b8154815290600101906020018083116108f557829003601f168201915b5050505050815260200160048201805461092b9061134d565b80601f01602080910402602001604051908101604052809291908181526020018280546109579061134d565b80156109a45780601f10610979576101008083540402835291602001916109a4565b820191906000526020600020905b81548152906001019060200180831161098757829003601f168201915b505050505081526020016005820180546109bd9061134d565b80601f01602080910402602001604051908101604052809291908181526020018280546109e99061134d565b8015610a365780601f10610a0b57610100808354040283529160200191610a36565b820191906000526020600020905b815481529060010190602001808311610a1957829003601f168201915b505050505081526020016006820160009054906101000a900460ff16151515158152505090508060c00151610ad5577fcf34ef537ac33ee1ac626ca1587a0a7e8e51561e5514f8cb36afa1c5102b3bab604051610a9290611437565b60405180910390a16040517f08c379a0000000000000000000000000000000000000000000000000000000008152600401610acc906114a3565b60405180910390fd5b7fcf34ef537ac33ee1ac626ca1587a0a7e8e51561e5514f8cb36afa1c5102b3bab604051610b029061150f565b60405180910390a180915050919050565b60008054906101000a900473ffffffffffffffffffffffffffffffffffffffff1681565b828054610b439061134d565b90600052602060002090601f016020900481019282610b655760008555610bac565b82601f10610b7e57805160ff1916838001178555610bac565b82800160010185558215610bac579182015b82811115610bab578251825591602001919060010190610b90565b5b509050610bb99190610bfc565b5090565b6040518060e001604052806060815260200160608152602001606081526020016060815260200160608152602001606081526020016000151581525090565b5b80821115610c15576000816000905550600101610bfd565b5090565b6000604051905090565b600080fd5b600080fd5b600073ffffffffffffffffffffffffffffffffffffffff82169050919050565b6000610c5882610c2d565b9050919050565b610c6881610c4d565b8114610c7357600080fd5b50565b600081359050610c8581610c5f565b92915050565b600080fd5b6000601f19601f8301169050919050565b7f4e487b7100000000000000000000000000000000000000000000000000000000600052604160045260246000fd5b610cd982610c90565b810181811067ffffffffffffffff82111715610cf857610cf7610ca1565b5b80604052505050565b6000610d0b610c19565b9050610d178282610cd0565b919050565b600080fd5b600080fd5b600080fd5b600067ffffffffffffffff821115610d4657610d45610ca1565b5b610d4f82610c90565b9050602081019050919050565b82818337600083830152505050565b6000610d7e610d7984610d2b565b610d01565b905082815260208101848484011115610d9a57610d99610d26565b5b610da5848285610d5c565b509392505050565b600082601f830112610dc257610dc1610d21565b5b8135610dd2848260208601610d6b565b91505092915050565b60008115159050919050565b610df081610ddb565b8114610dfb57600080fd5b50565b600081359050610e0d81610de7565b92915050565b600060e08284031215610e2957610e28610c8b565b5b610e3360e0610d01565b9050600082013567ffffffffffffffff811115610e5357610e52610d1c565b5b610e5f84828501610dad565b600083015250602082013567ffffffffffffffff811115610e8357610e82610d1c565b5b610e8f84828501610dad565b602083015250604082013567ffffffffffffffff811115610eb357610eb2610d1c565b5b610ebf84828501610dad565b604083015250606082013567ffffffffffffffff811115610ee357610ee2610d1c565b5b610eef84828501610dad565b606083015250608082013567ffffffffffffffff811115610f1357610f12610d1c565b5b610f1f84828501610dad565b60808301525060a082013567ffffffffffffffff811115610f4357610f42610d1c565b5b610f4f84828501610dad565b60a08301525060c0610f6384828501610dfe565b60c08301525092915050565b60008060408385031215610f8657610f85610c23565b5b6000610f9485828601610c76565b925050602083013567ffffffffffffffff811115610fb557610fb4610c28565b5b610fc185828601610e13565b9150509250929050565b600060208284031215610fe157610fe0610c23565b5b6000610fef84828501610c76565b91505092915050565b600081519050919050565b600082825260208201905092915050565b60005b83811015611032578082015181840152602081019050611017565b83811115611041576000848401525b50505050565b600061105282610ff8565b61105c8185611003565b935061106c818560208601611014565b61107581610c90565b840191505092915050565b61108981610ddb565b82525050565b600060e08201905081810360008301526110a9818a611047565b905081810360208301526110bd8189611047565b905081810360408301526110d18188611047565b905081810360608301526110e58187611047565b905081810360808301526110f98186611047565b905081810360a083015261110d8185611047565b905061111c60c0830184611080565b98975050505050505050565b600082825260208201905092915050565b600061114482610ff8565b61114e8185611128565b935061115e818560208601611014565b61116781610c90565b840191505092915050565b61117b81610ddb565b82525050565b600060e083016000830151848203600086015261119e8282611139565b915050602083015184820360208601526111b88282611139565b915050604083015184820360408601526111d28282611139565b915050606083015184820360608601526111ec8282611139565b915050608083015184820360808601526112068282611139565b91505060a083015184820360a08601526112208282611139565b91505060c083015161123560c0860182611172565b508091505092915050565b6000602082019050818103600083015261125a8184611181565b905092915050565b61126b81610c4d565b82525050565b60006020820190506112866000830184611262565b92915050565b7f5961206578697374652075616e20706572736f6e61207265676973747261646160008201527f20636f6e20657365206164647265737300000000000000000000000000000000602082015250565b60006112e8603083611003565b91506112f38261128c565b604082019050919050565b60006020820190508181036000830152611317816112db565b9050919050565b7f4e487b7100000000000000000000000000000000000000000000000000000000600052602260045260246000fd5b6000600282049050600182168061136557607f821691505b602082108114156113795761137861131e565b5b50919050565b7f656e74726f206120636f6e73756c746172000000000000000000000000000000600082015250565b60006113b5601183611003565b91506113c08261137f565b602082019050919050565b600060208201905081810360008301526113e4816113a8565b9050919050565b7f6e6f2065786973746520656c207573756172696f000000000000000000000000600082015250565b6000611421601483611003565b915061142c826113eb565b602082019050919050565b6000602082019050818103600083015261145081611414565b9050919050565b7f4e6f20657869737465206573652070616369656e746500000000000000000000600082015250565b600061148d601683611003565b915061149882611457565b602082019050919050565b600060208201905081810360008301526114bc81611480565b9050919050565b7f7573756172696f2076616c69646f000000000000000000000000000000000000600082015250565b60006114f9600e83611003565b9150611504826114c3565b602082019050919050565b60006020820190508181036000830152611528816114ec565b905091905056fea264697066735822122029372a265f2522c2764c0fb85027498390596430c8458d94f4178d985e5e86ab64736f6c634300080b0033",
  "immutableReferences": {},
  "source": "pragma solidity ^0.8.10; // TODO: Ajustar la versin por consenso con Jos\n\nimport \"./Usuario.sol\";\nimport \"../models/PersonaStruct.sol\";\nimport \"../persistence/PersonaDAO.sol\";\n\n// NOTE: se deja el abstrac contract justo con sus hijos por cuestiones de ordenamiento de cdigo solidity, antes decia \"Definition of base has to precede definition of derived contract\"\n// TODO: verificar si se puede dejar como abstract\ncontract Persona {\n    event Log(string data);\n\n    // TODO: evaluar cuales catch se usan y eliminar los que no se usan\n\n    // TODO: registrar la direccion del contrato personaDAO\n    PersonaDAO private personaDao;\n\n    constructor() public {\n        // TODO: fijar valor en nulo y cargar el objeto desde un mtodo nuevo con la direccin del contrato desplegado\n        personaDao = new PersonaDAO(); //TODO: verificar si queda guardado el objeto o si hay mejor manera\n    }\n\n    // function registrar() public virtual returns(Persona); ejemplo de funcin abstracta\n    // function registrar() public virtual;\n    function registrar(PersonaStruct memory persona) public {}\n\n    function consultar(address direccion)\n        public\n        returns (PersonaStruct memory)\n    {\n        emit Log(\"entro a consultar\");\n        try personaDao.consultar(direccion) returns (\n            PersonaStruct memory persona\n        ) {\n            emit Log(\"encontro la persona\");\n            return persona;\n        } catch Error(string memory e) {\n            /*reason*/\n            emit Log(\"se rompio por un revert o require\");\n            emit Log(e);\n        } catch (bytes memory) {\n            /*lowLevelData*/\n            emit Log(\"se rompio y ni idea porque \");\n        }\n    }\n\n    function guardar(address direccion, PersonaStruct memory persona) public {\n        // TODO: Validar, si falla poner excepcin\n        try personaDao.guardar(direccion, persona) {\n            emit Log(\"Se guarda la persona coreectamente\");\n        } catch Error(string memory data) {\n            /*reason*/\n            emit Log(\"se rompio por un revert o require\");\n            emit Log(data);\n        } catch (bytes memory) {\n            /*lowLevelData*/\n            emit Log(\"se rompio y ni idea porque \");\n        }\n    }\n}\n\n// TODO: intentar separar en otro documento\n/*is Persona*/\ncontract Paciente is Persona {\n    // address public creador;\n    struct PacienteStruct {\n        PersonaStruct persona;\n        uint256 historiaClinicaId;\n    }\n\n    // EstadoStruct private estado;\n\n    // DatosPersonales private datosPersonales;\n\n    constructor() public {\n        // creador = msg.sender; // creador del contrato\n    }\n}\n\n/*is Persona*/\ncontract Medico is Persona {\n    address public creador;\n\n    struct MedicoStruct {\n        PersonaStruct persona;\n        string especialidad;\n        string usuario;\n        string contrasena;\n    }\n\n    // EstadoStruct private estado;\n\n    struct PerfilMedicoSistemaExternoStruct {\n        string primerNombre;\n        string segundoNombre;\n        string primerApellido;\n        string segundoApellido;\n        string identificacion; // TODO: agregar tipo de identificacion\n        string especialidad;\n    }\n\n    constructor() public {\n        creador = msg.sender; // creador del contrato\n    }\n\n    function login() public view returns (Persona) {\n        address direccion = msg.sender;\n        // TODO: buscar persona en arreglo\n    }\n\n    // TODO: buscar porque es uint256\n    function buscarPermisosDeRol(uint256 funcionId) public view returns (bool) {\n        address direccion = msg.sender;\n        // TODO: esto es como un filtro (averiguar si lo hay en solidity) y sirve para ver si un usario tiene acceso a x metodo\n    }\n}\n",
  "sourcePath": "/home/felipe/Documentos/Blockchain/codigo/back-hce/contracts/logica/Persona.sol",
  "compiler": {
    "name": "solc",
    "version": "0.8.11+commit.d7f03943.Emscripten.clang"
  },
  "schemaVersion": "3.4.4",
  "updatedAt": "2022-01-24T03:52:38.625Z",
  "networkType": "ethereum",
  "devdoc": {
    "kind": "dev",
    "methods": {},
    "version": 1
  },
  "userdoc": {
    "kind": "user",
    "methods": {},
    "version": 1
  }
}