{
  "contractName": "Paciente",
  "abi": [
    {
      "inputs": [],
      "stateMutability": "nonpayable",
      "type": "constructor"
    },
    {
      "inputs": [],
      "name": "creador",
      "outputs": [
        {
          "internalType": "address",
          "name": "",
          "type": "address"
        }
      ],
      "stateMutability": "view",
      "type": "function"
    },
    {
      "inputs": [],
      "name": "getAccesoUsuario",
      "outputs": [
        {
          "internalType": "string",
          "name": "",
          "type": "string"
        }
      ],
      "stateMutability": "view",
      "type": "function"
    },
    {
      "inputs": [],
      "name": "getIdentificacion",
      "outputs": [
        {
          "internalType": "string",
          "name": "",
          "type": "string"
        }
      ],
      "stateMutability": "view",
      "type": "function"
    },
    {
      "inputs": [],
      "name": "getPrimerApellido",
      "outputs": [
        {
          "internalType": "string",
          "name": "",
          "type": "string"
        }
      ],
      "stateMutability": "view",
      "type": "function"
    },
    {
      "inputs": [],
      "name": "getPrimerNombre",
      "outputs": [
        {
          "internalType": "string",
          "name": "",
          "type": "string"
        }
      ],
      "stateMutability": "view",
      "type": "function"
    },
    {
      "inputs": [],
      "name": "getSegundoApellido",
      "outputs": [
        {
          "internalType": "string",
          "name": "",
          "type": "string"
        }
      ],
      "stateMutability": "view",
      "type": "function"
    },
    {
      "inputs": [],
      "name": "getSegundoNombre",
      "outputs": [
        {
          "internalType": "string",
          "name": "",
          "type": "string"
        }
      ],
      "stateMutability": "view",
      "type": "function"
    },
    {
      "inputs": [],
      "name": "getTipoIdentificacion",
      "outputs": [
        {
          "internalType": "string",
          "name": "",
          "type": "string"
        }
      ],
      "stateMutability": "view",
      "type": "function"
    },
    {
      "inputs": [
        {
          "internalType": "contract Usuario",
          "name": "newMessage",
          "type": "address"
        }
      ],
      "name": "setAccesoUsuario",
      "outputs": [],
      "stateMutability": "nonpayable",
      "type": "function"
    },
    {
      "inputs": [
        {
          "internalType": "string",
          "name": "newMessage",
          "type": "string"
        }
      ],
      "name": "setIdentificacion",
      "outputs": [],
      "stateMutability": "nonpayable",
      "type": "function"
    },
    {
      "inputs": [
        {
          "internalType": "string",
          "name": "newMessage",
          "type": "string"
        }
      ],
      "name": "setPrimerApellido",
      "outputs": [],
      "stateMutability": "nonpayable",
      "type": "function"
    },
    {
      "inputs": [
        {
          "internalType": "string",
          "name": "newMessage",
          "type": "string"
        }
      ],
      "name": "setPrimerNombre",
      "outputs": [],
      "stateMutability": "nonpayable",
      "type": "function"
    },
    {
      "inputs": [
        {
          "internalType": "string",
          "name": "newMessage",
          "type": "string"
        }
      ],
      "name": "setSegundoApellido",
      "outputs": [],
      "stateMutability": "nonpayable",
      "type": "function"
    },
    {
      "inputs": [
        {
          "internalType": "string",
          "name": "newMessage",
          "type": "string"
        }
      ],
      "name": "setSegundoNombre",
      "outputs": [],
      "stateMutability": "nonpayable",
      "type": "function"
    },
    {
      "inputs": [
        {
          "internalType": "string",
          "name": "newMessage",
          "type": "string"
        }
      ],
      "name": "setTipoIdentificacion",
      "outputs": [],
      "stateMutability": "nonpayable",
      "type": "function"
    }
  ],
  "bytecode": "0x608060405234801561001057600080fd5b5033600760006101000a81548173ffffffffffffffffffffffffffffffffffffffff021916908373ffffffffffffffffffffffffffffffffffffffff160217905550610c00806100616000396000f3fe608060405234801561001057600080fd5b50600436106100f55760003560e01c806392ebdcd211610097578063b2f9ccbb11610066578063b2f9ccbb14610238578063c461d52e14610256578063cc9f930e14610274578063eacd3b9314610290576100f5565b806392ebdcd2146101c25780639ac9abd0146101e0578063ac1e3249146101fe578063b22458341461021c576100f5565b80634e8c23ca116100d35780634e8c23ca146101505780634fe5aa081461016c578063551a5cfa1461018a57806383cb77b0146101a6576100f5565b806314dac2ae146100fa57806328fd4873146101165780633ca452b914610132575b600080fd5b610114600480360381019061010f91906108d9565b6102ae565b005b610130600480360381019061012b9190610a4c565b6102f2565b005b61013a61030c565b6040516101479190610b1d565b60405180910390f35b61016a60048036038101906101659190610a4c565b61039e565b005b6101746103b8565b6040516101819190610b1d565b60405180910390f35b6101a4600480360381019061019f9190610a4c565b61044a565b005b6101c060048036038101906101bb9190610a4c565b610464565b005b6101ca61047e565b6040516101d79190610b4e565b60405180910390f35b6101e86104a4565b6040516101f59190610b1d565b60405180910390f35b610206610536565b6040516102139190610b1d565b60405180910390f35b61023660048036038101906102319190610a4c565b6105c8565b005b6102406105e2565b60405161024d9190610b1d565b60405180910390f35b61025e610674565b60405161026b9190610b1d565b60405180910390f35b61028e60048036038101906102899190610a4c565b610706565b005b610298610720565b6040516102a59190610b1d565b60405180910390f35b80600660006101000a81548173ffffffffffffffffffffffffffffffffffffffff021916908373ffffffffffffffffffffffffffffffffffffffff16021790555050565b80600490805190602001906103089291906107b2565b5050565b60606000805461031b90610b98565b80601f016020809104026020016040519081016040528092919081815260200182805461034790610b98565b80156103945780601f1061036957610100808354040283529160200191610394565b820191906000526020600020905b81548152906001019060200180831161037757829003601f168201915b5050505050905090565b80600390805190602001906103b49291906107b2565b5050565b6060600080546103c790610b98565b80601f01602080910402602001604051908101604052809291908181526020018280546103f390610b98565b80156104405780601f1061041557610100808354040283529160200191610440565b820191906000526020600020905b81548152906001019060200180831161042357829003601f168201915b5050505050905090565b80600190805190602001906104609291906107b2565b5050565b806000908051906020019061047a9291906107b2565b5050565b600760009054906101000a900473ffffffffffffffffffffffffffffffffffffffff1681565b6060600480546104b390610b98565b80601f01602080910402602001604051908101604052809291908181526020018280546104df90610b98565b801561052c5780601f106105015761010080835404028352916020019161052c565b820191906000526020600020905b81548152906001019060200180831161050f57829003601f168201915b5050505050905090565b60606005805461054590610b98565b80601f016020809104026020016040519081016040528092919081815260200182805461057190610b98565b80156105be5780601f10610593576101008083540402835291602001916105be565b820191906000526020600020905b8154815290600101906020018083116105a157829003601f168201915b5050505050905090565b80600590805190602001906105de9291906107b2565b5050565b6060600180546105f190610b98565b80601f016020809104026020016040519081016040528092919081815260200182805461061d90610b98565b801561066a5780601f1061063f5761010080835404028352916020019161066a565b820191906000526020600020905b81548152906001019060200180831161064d57829003601f168201915b5050505050905090565b60606002805461068390610b98565b80601f01602080910402602001604051908101604052809291908181526020018280546106af90610b98565b80156106fc5780601f106106d1576101008083540402835291602001916106fc565b820191906000526020600020905b8154815290600101906020018083116106df57829003601f168201915b5050505050905090565b806002908051906020019061071c9291906107b2565b5050565b60606003805461072f90610b98565b80601f016020809104026020016040519081016040528092919081815260200182805461075b90610b98565b80156107a85780601f1061077d576101008083540402835291602001916107a8565b820191906000526020600020905b81548152906001019060200180831161078b57829003601f168201915b5050505050905090565b8280546107be90610b98565b90600052602060002090601f0160209004810192826107e05760008555610827565b82601f106107f957805160ff1916838001178555610827565b82800160010185558215610827579182015b8281111561082657825182559160200191906001019061080b565b5b5090506108349190610838565b5090565b5b80821115610851576000816000905550600101610839565b5090565b6000604051905090565b600080fd5b600080fd5b600073ffffffffffffffffffffffffffffffffffffffff82169050919050565b600061089482610869565b9050919050565b60006108a682610889565b9050919050565b6108b68161089b565b81146108c157600080fd5b50565b6000813590506108d3816108ad565b92915050565b6000602082840312156108ef576108ee61085f565b5b60006108fd848285016108c4565b91505092915050565b600080fd5b600080fd5b6000601f19601f8301169050919050565b7f4e487b7100000000000000000000000000000000000000000000000000000000600052604160045260246000fd5b61095982610910565b810181811067ffffffffffffffff8211171561097857610977610921565b5b80604052505050565b600061098b610855565b90506109978282610950565b919050565b600067ffffffffffffffff8211156109b7576109b6610921565b5b6109c082610910565b9050602081019050919050565b82818337600083830152505050565b60006109ef6109ea8461099c565b610981565b905082815260208101848484011115610a0b57610a0a61090b565b5b610a168482856109cd565b509392505050565b600082601f830112610a3357610a32610906565b5b8135610a438482602086016109dc565b91505092915050565b600060208284031215610a6257610a6161085f565b5b600082013567ffffffffffffffff811115610a8057610a7f610864565b5b610a8c84828501610a1e565b91505092915050565b600081519050919050565b600082825260208201905092915050565b60005b83811015610acf578082015181840152602081019050610ab4565b83811115610ade576000848401525b50505050565b6000610aef82610a95565b610af98185610aa0565b9350610b09818560208601610ab1565b610b1281610910565b840191505092915050565b60006020820190508181036000830152610b378184610ae4565b905092915050565b610b4881610889565b82525050565b6000602082019050610b636000830184610b3f565b92915050565b7f4e487b7100000000000000000000000000000000000000000000000000000000600052602260045260246000fd5b60006002820490506001821680610bb057607f821691505b60208210811415610bc457610bc3610b69565b5b5091905056fea26469706673582212206f08e0471098ca00155c7c7252ba45909ba9c32b61d5a13884e4ec805692ab9b64736f6c634300080b0033",
  "immutableReferences": {},
  "source": "pragma solidity >=0.5.0 <0.9.0; // TODO: Ajustar la versin por consenso con Jos\n\nimport \"./Usuario.sol\";\n\n// NOTE: se deja el abstrac contrac justo con sus hijos por cuestiones de ordenamiento de cdigo solidity, antes decia \"Definition of base has to precede definition of derived contract\"\n\nabstract contract Persona {\n    // address public creador;\n    string private primerNombre;\n    string private segundoNombre;\n    string private primerApellido;\n    string private segundoApellido;\n    string private identificacion;\n    // TipoIdentificacionStruct public tipoIdentificacion; // TODO: cambiar tipo por el de la estructura ms adelante\n    string private tipoIdentificacion;\n    Usuario private accesoUsuario;\n\n    /*\n    // function registrar() public virtual returns(Persona); ejemplo de funcin abstracta\n    function registrar() public returns(bool){\n        // Persona persona = new Paciente();\n        return true;\n    }\n*/\n    function getAccesoUsuario() public view returns (string memory) {\n        return primerNombre;\n    }\n\n    function setAccesoUsuario(Usuario newMessage) public {\n        accesoUsuario = newMessage;\n    }\n\n    function getIdentificacion() public view returns (string memory) {\n        return identificacion;\n    }\n\n    function setIdentificacion(string memory newMessage) public {\n        // TODO: investigar porque se pone memery en el arametros del mtodo\n        identificacion = newMessage;\n    }\n\n    function getPrimerApellido() public view returns (string memory) {\n        return primerApellido;\n    }\n\n    function setPrimerApellido(string memory newMessage) public {\n        primerApellido = newMessage;\n    }\n\n    function getPrimerNombre() public view returns (string memory) {\n        return primerNombre;\n    }\n\n    function setPrimerNombre(string memory newMessage) public {\n        primerNombre = newMessage;\n    }\n\n    function getSegundoApellido() public view returns (string memory) {\n        return segundoApellido;\n    }\n\n    function setSegundoApellido(string memory newMessage) public {\n        segundoApellido = newMessage;\n    }\n\n    function getSegundoNombre() public view returns (string memory) {\n        return segundoNombre;\n    }\n\n    function setSegundoNombre(string memory newMessage) public {\n        segundoNombre = newMessage;\n    }\n\n    function getTipoIdentificacion() public view returns (string memory) {\n        return tipoIdentificacion;\n    }\n\n    function setTipoIdentificacion(string memory newMessage) public {\n        tipoIdentificacion = newMessage;\n    }\n}\n\ncontract Paciente is Persona {\n    address public creador;\n\n    // EstadoStruct private estado;\n    uint256 private historiaClinicaId;\n\n    // DatosPersonales private datosPersonales;\n\n    constructor() public {\n        creador = msg.sender; // creador del contrato\n    }\n}\n\ncontract Medico is Persona {\n    address public creador;\n\n    // EstadoStruct private estado;\n    string private especialidad;\n    string private usuario;\n    string private contrasena;\n\n    struct PerfilMedicoSistemaExternoStruct {\n        string primerNombre;\n        string segundoNombre;\n        string primerApellido;\n        string segundoApellido;\n        string identificacion; // TODO: agregar tipo de identificacion\n        string especialidad;\n    }\n\n    constructor() public {\n        creador = msg.sender; // creador del contrato\n    }\n\n    function login() public returns (Persona) {\n        address direccion = msg.sender;\n        // TODO: buscar persona en arreglo\n    }\n\n    // TODO: buscar porque es uint256\n    function buscarPermisosDeRol(uint256 funcionId) public view returns (bool) {\n        address direccion = msg.sender;\n        // TODO: esto es como un filtro (averiguar si lo hay en solidity) y sirve para ver si un usario tiene acceso a x metodo\n    }\n}\n",
  "sourcePath": "/home/felipe/Documentos/Blockchain/codigo/back-hce/contracts/logica/Persona.sol",
  "compiler": {
    "name": "solc",
    "version": "0.8.11+commit.d7f03943.Emscripten.clang"
  },
  "schemaVersion": "3.4.4",
  "updatedAt": "2022-01-18T03:13:18.663Z",
  "devdoc": {
    "kind": "dev",
    "methods": {},
    "version": 1
  },
  "userdoc": {
    "kind": "user",
    "methods": {},
    "version": 1
  }
}