{
  "contractName": "Paciente",
  "abi": [
    {
      "inputs": [],
      "stateMutability": "nonpayable",
      "type": "constructor"
    },
    {
      "anonymous": false,
      "inputs": [
        {
          "indexed": false,
          "internalType": "string",
          "name": "data",
          "type": "string"
        }
      ],
      "name": "Log",
      "type": "event"
    },
    {
      "inputs": [],
      "name": "accesoAddress",
      "outputs": [
        {
          "internalType": "address",
          "name": "",
          "type": "address"
        }
      ],
      "stateMutability": "view",
      "type": "function",
      "constant": true
    },
    {
      "inputs": [],
      "name": "creador",
      "outputs": [
        {
          "internalType": "address",
          "name": "",
          "type": "address"
        }
      ],
      "stateMutability": "view",
      "type": "function",
      "constant": true
    },
    {
      "inputs": [],
      "name": "pacienteMapperAddress",
      "outputs": [
        {
          "internalType": "address",
          "name": "",
          "type": "address"
        }
      ],
      "stateMutability": "view",
      "type": "function",
      "constant": true
    },
    {
      "inputs": [
        {
          "internalType": "address",
          "name": "direccion",
          "type": "address"
        }
      ],
      "name": "consultar",
      "outputs": [
        {
          "internalType": "contract PacienteVO",
          "name": "",
          "type": "address"
        }
      ],
      "stateMutability": "nonpayable",
      "type": "function"
    },
    {
      "inputs": [
        {
          "internalType": "address",
          "name": "direccion",
          "type": "address"
        },
        {
          "internalType": "contract PacienteVO",
          "name": "paciente",
          "type": "address"
        }
      ],
      "name": "registrar",
      "outputs": [],
      "stateMutability": "nonpayable",
      "type": "function"
    },
    {
      "inputs": [
        {
          "internalType": "address",
          "name": "direccion",
          "type": "address"
        },
        {
          "internalType": "contract PacienteVO",
          "name": "paciente",
          "type": "address"
        }
      ],
      "name": "actualizar",
      "outputs": [],
      "stateMutability": "nonpayable",
      "type": "function"
    },
    {
      "inputs": [
        {
          "internalType": "address",
          "name": "_direccion",
          "type": "address"
        },
        {
          "internalType": "uint256",
          "name": "_estadoId",
          "type": "uint256"
        }
      ],
      "name": "cambiarEstado",
      "outputs": [],
      "stateMutability": "nonpayable",
      "type": "function"
    },
    {
      "inputs": [
        {
          "internalType": "address",
          "name": "_pacienteMapperAddress",
          "type": "address"
        }
      ],
      "name": "setPacienteMapper",
      "outputs": [],
      "stateMutability": "nonpayable",
      "type": "function"
    },
    {
      "inputs": [
        {
          "internalType": "address",
          "name": "_accesoAddress",
          "type": "address"
        }
      ],
      "name": "setAcceso",
      "outputs": [],
      "stateMutability": "nonpayable",
      "type": "function"
    },
    {
      "inputs": [],
      "name": "selfDestruct",
      "outputs": [],
      "stateMutability": "nonpayable",
      "type": "function"
    }
  ],
  "bytecode": "0x608060405234801561001057600080fd5b50336000806101000a81548173ffffffffffffffffffffffffffffffffffffffff021916908373ffffffffffffffffffffffffffffffffffffffff16021790555061138a806100606000396000f3fe608060405234801561001057600080fd5b506004361061009e5760003560e01c80636b40d0b5116100665780636b40d0b5146101315780637da8f6a51461014f57806392ebdcd21461017f5780639cb8a26a1461019d578063e8efff13146101a75761009e565b806302706642146100a357806307b37d1d146100c15780630da7d7a5146100dd578063137d4722146100f95780631d18376014610115575b600080fd5b6100ab6101c3565b6040516100b89190610d3f565b60405180910390f35b6100db60048036038101906100d69190610dc9565b6101e9565b005b6100f760048036038101906100f29190610dc9565b6103d2565b005b610113600480360381019061010e9190610e09565b6105bb565b005b61012f600480360381019061012a9190610e09565b6106ce565b005b6101396107e1565b6040516101469190610d3f565b60405180910390f35b61016960048036038101906101649190610e09565b610807565b6040516101769190610e95565b60405180910390f35b610187610a36565b6040516101949190610d3f565b60405180910390f35b6101a5610a5a565b005b6101c160048036038101906101bc9190610ee6565b610b21565b005b600160009054906101000a900473ffffffffffffffffffffffffffffffffffffffff1681565b60016000600460009054906101000a900473ffffffffffffffffffffffffffffffffffffffff1673ffffffffffffffffffffffffffffffffffffffff1663824b2d0333846040518363ffffffff1660e01b815260040161024a929190610f35565b6020604051808303816000875af1158015610269573d6000803e3d6000fd5b505050506040513d601f19601f8201168201806040525081019061028d9190610f96565b9050806102cf576040517f08c379a00000000000000000000000000000000000000000000000000000000081526004016102c690611020565b60405180910390fd5b3373ffffffffffffffffffffffffffffffffffffffff168473ffffffffffffffffffffffffffffffffffffffff161461033d576040517f08c379a0000000000000000000000000000000000000000000000000000000008152600401610334906110b2565b60405180910390fd5b600360009054906101000a900473ffffffffffffffffffffffffffffffffffffffff1673ffffffffffffffffffffffffffffffffffffffff1663be381c5985856040518363ffffffff1660e01b815260040161039a9291906110d2565b600060405180830381600087803b1580156103b457600080fd5b505af11580156103c8573d6000803e3d6000fd5b5050505050505050565b60026000600460009054906101000a900473ffffffffffffffffffffffffffffffffffffffff1673ffffffffffffffffffffffffffffffffffffffff1663824b2d0333846040518363ffffffff1660e01b8152600401610433929190610f35565b6020604051808303816000875af1158015610452573d6000803e3d6000fd5b505050506040513d601f19601f820116820180604052508101906104769190610f96565b9050806104b8576040517f08c379a00000000000000000000000000000000000000000000000000000000081526004016104af90611020565b60405180910390fd5b3373ffffffffffffffffffffffffffffffffffffffff168473ffffffffffffffffffffffffffffffffffffffff1614610526576040517f08c379a000000000000000000000000000000000000000000000000000000000815260040161051d90611147565b60405180910390fd5b600360009054906101000a900473ffffffffffffffffffffffffffffffffffffffff1673ffffffffffffffffffffffffffffffffffffffff16630da7d7a585856040518363ffffffff1660e01b81526004016105839291906110d2565b600060405180830381600087803b15801561059d57600080fd5b505af11580156105b1573d6000803e3d6000fd5b5050505050505050565b60008054906101000a900473ffffffffffffffffffffffffffffffffffffffff1673ffffffffffffffffffffffffffffffffffffffff163373ffffffffffffffffffffffffffffffffffffffff1614610649576040517f08c379a0000000000000000000000000000000000000000000000000000000008152600401610640906111ff565b60405180910390fd5b80600260006101000a81548173ffffffffffffffffffffffffffffffffffffffff021916908373ffffffffffffffffffffffffffffffffffffffff16021790555080600460006101000a81548173ffffffffffffffffffffffffffffffffffffffff021916908373ffffffffffffffffffffffffffffffffffffffff16021790555050565b60008054906101000a900473ffffffffffffffffffffffffffffffffffffffff1673ffffffffffffffffffffffffffffffffffffffff163373ffffffffffffffffffffffffffffffffffffffff161461075c576040517f08c379a0000000000000000000000000000000000000000000000000000000008152600401610753906111ff565b60405180910390fd5b80600160006101000a81548173ffffffffffffffffffffffffffffffffffffffff021916908373ffffffffffffffffffffffffffffffffffffffff16021790555080600360006101000a81548173ffffffffffffffffffffffffffffffffffffffff021916908373ffffffffffffffffffffffffffffffffffffffff16021790555050565b600260009054906101000a900473ffffffffffffffffffffffffffffffffffffffff1681565b6000806000600460009054906101000a900473ffffffffffffffffffffffffffffffffffffffff1673ffffffffffffffffffffffffffffffffffffffff1663824b2d0333846040518363ffffffff1660e01b8152600401610869929190610f35565b6020604051808303816000875af1158015610888573d6000803e3d6000fd5b505050506040513d601f19601f820116820180604052508101906108ac9190610f96565b9050806108ee576040517f08c379a00000000000000000000000000000000000000000000000000000000081526004016108e590611020565b60405180910390fd5b3373ffffffffffffffffffffffffffffffffffffffff168473ffffffffffffffffffffffffffffffffffffffff161461095c576040517f08c379a00000000000000000000000000000000000000000000000000000000081526004016109539061126b565b60405180910390fd5b7fcf34ef537ac33ee1ac626ca1587a0a7e8e51561e5514f8cb36afa1c5102b3bab604051610989906112d7565b60405180910390a1600360009054906101000a900473ffffffffffffffffffffffffffffffffffffffff1673ffffffffffffffffffffffffffffffffffffffff16637da8f6a5856040518263ffffffff1660e01b81526004016109ec9190610d3f565b602060405180830381865afa158015610a09573d6000803e3d6000fd5b505050506040513d601f19601f82011682018060405250810190610a2d919061130c565b92505050919050565b60008054906101000a900473ffffffffffffffffffffffffffffffffffffffff1681565b60008054906101000a900473ffffffffffffffffffffffffffffffffffffffff1673ffffffffffffffffffffffffffffffffffffffff163373ffffffffffffffffffffffffffffffffffffffff1614610ae8576040517f08c379a0000000000000000000000000000000000000000000000000000000008152600401610adf906111ff565b60405180910390fd5b60008054906101000a900473ffffffffffffffffffffffffffffffffffffffff1673ffffffffffffffffffffffffffffffffffffffff16ff5b60036000600460009054906101000a900473ffffffffffffffffffffffffffffffffffffffff1673ffffffffffffffffffffffffffffffffffffffff1663824b2d0333846040518363ffffffff1660e01b8152600401610b82929190610f35565b6020604051808303816000875af1158015610ba1573d6000803e3d6000fd5b505050506040513d601f19601f82011682018060405250810190610bc59190610f96565b905080610c07576040517f08c379a0000000000000000000000000000000000000000000000000000000008152600401610bfe90611020565b60405180910390fd5b3373ffffffffffffffffffffffffffffffffffffffff168473ffffffffffffffffffffffffffffffffffffffff1614610c75576040517f08c379a0000000000000000000000000000000000000000000000000000000008152600401610c6c90611147565b60405180910390fd5b6000610c8085610807565b90508073ffffffffffffffffffffffffffffffffffffffff1663e79dee02856040518263ffffffff1660e01b8152600401610cbb9190611339565b600060405180830381600087803b158015610cd557600080fd5b505af1158015610ce9573d6000803e3d6000fd5b50505050610cf785826103d2565b5050505050565b600073ffffffffffffffffffffffffffffffffffffffff82169050919050565b6000610d2982610cfe565b9050919050565b610d3981610d1e565b82525050565b6000602082019050610d546000830184610d30565b92915050565b600080fd5b610d6881610d1e565b8114610d7357600080fd5b50565b600081359050610d8581610d5f565b92915050565b6000610d9682610d1e565b9050919050565b610da681610d8b565b8114610db157600080fd5b50565b600081359050610dc381610d9d565b92915050565b60008060408385031215610de057610ddf610d5a565b5b6000610dee85828601610d76565b9250506020610dff85828601610db4565b9150509250929050565b600060208284031215610e1f57610e1e610d5a565b5b6000610e2d84828501610d76565b91505092915050565b6000819050919050565b6000610e5b610e56610e5184610cfe565b610e36565b610cfe565b9050919050565b6000610e6d82610e40565b9050919050565b6000610e7f82610e62565b9050919050565b610e8f81610e74565b82525050565b6000602082019050610eaa6000830184610e86565b92915050565b6000819050919050565b610ec381610eb0565b8114610ece57600080fd5b50565b600081359050610ee081610eba565b92915050565b60008060408385031215610efd57610efc610d5a565b5b6000610f0b85828601610d76565b9250506020610f1c85828601610ed1565b9150509250929050565b610f2f81610eb0565b82525050565b6000604082019050610f4a6000830185610d30565b610f576020830184610f26565b9392505050565b60008115159050919050565b610f7381610f5e565b8114610f7e57600080fd5b50565b600081519050610f9081610f6a565b92915050565b600060208284031215610fac57610fab610d5a565b5b6000610fba84828501610f81565b91505092915050565b600082825260208201905092915050565b7f636f6e747261746f000000000000000000000000000000000000000000000000600082015250565b600061100a600883610fc3565b915061101582610fd4565b602082019050919050565b6000602082019050818103600083015261103981610ffd565b9050919050565b7f556e2070616369656e746520736520646562652072656769737472617220612060008201527f7369206d69736d6f000000000000000000000000000000000000000000000000602082015250565b600061109c602883610fc3565b91506110a782611040565b604082019050919050565b600060208201905081810360008301526110cb8161108f565b9050919050565b60006040820190506110e76000830185610d30565b6110f46020830184610e86565b9392505050565b7f4e6f207469656e65207065726d69736f732064652061637475616c697a617200600082015250565b6000611131601f83610fc3565b915061113c826110fb565b602082019050919050565b6000602082019050818103600083015261116081611124565b9050919050565b7f457374612066756e63696f6e20736f6c6f2070756564652073657220656a656360008201527f757461646120706f7220656c2063726561646f722064656c20636f6e7472617460208201527f6f00000000000000000000000000000000000000000000000000000000000000604082015250565b60006111e9604183610fc3565b91506111f482611167565b606082019050919050565b60006020820190508181036000830152611218816111dc565b9050919050565b7f4e6f207469656e65207065726d69736f7320646520636f6e73756c7461000000600082015250565b6000611255601d83610fc3565b91506112608261121f565b602082019050919050565b6000602082019050818103600083015261128481611248565b9050919050565b7f656e74726f206120636f6e73756c7461722050616369656e7465000000000000600082015250565b60006112c1601a83610fc3565b91506112cc8261128b565b602082019050919050565b600060208201905081810360008301526112f0816112b4565b9050919050565b60008151905061130681610d9d565b92915050565b60006020828403121561132257611321610d5a565b5b6000611330848285016112f7565b91505092915050565b600060208201905061134e6000830184610f26565b9291505056fea2646970667358221220400f04119305ce2137fdd66b867679ce337c5475530c0801cf0c22908b3c8fe564736f6c634300080b0033",
  "immutableReferences": {},
  "source": "// SPDX-License-Identifier: MIT\npragma solidity ^0.8.10;\n\n//import \"./Persona.sol\";\nimport \"../models/PacienteVO.sol\";\nimport \"../persistence/PacienteMapper.sol\";\nimport \"./Acceso.sol\";\n\ncontract Paciente {\n    event Log(string data);\n    address public creador;\n    address public pacienteMapperAddress;\n    address public accesoAddress;\n\n    PacienteMapper private pacienteMapper;\n    Acceso private acceso;\n\n    constructor() {\n        creador = msg.sender; // creador del contrato\n    }\n\n    function consultar(address direccion)\n        public\n        tieneAcceso(0)\n        returns (PacienteVO)\n    {\n        if (direccion != msg.sender) {\n            // si alguien diferente al propietario de la historia la consulta se debe validar quien es\n            // validar quien consulta\n            revert(\"No tiene permisos de consulta\");\n        }\n        emit Log(\"entro a consultar Paciente\");\n        return pacienteMapper.consultar(direccion);\n        /* try  returns (PacienteVO response){\n            emit Log(\"encontro la Paciente\");\n            return response;\n        } catch Error(string memory e) {\n            /*reason*/\n        /*emit Log(\"se rompio por un revert o require\");\n            emit Log(e);\n            revert(\"No existe ese Paciente\");\n        } */\n    }\n\n    // TODO: validar que pasa si falla el registro de persona\n    // TODO: que pasa si falla guardar paciente?\n    function registrar(address direccion, PacienteVO paciente)\n        public\n        tieneAcceso(1)\n    {\n        if (direccion != msg.sender) {\n            revert(\"Un paciente se debe registrar a si mismo\");\n        }\n        pacienteMapper.guardar(direccion, paciente);\n        /* try  {\n            emit Log(\"Se guarda la informacion de paciente correctamente\");\n        } catch Error(string memory data) {\n            revert(\"No existe ese medico\");\n        }*/\n    }\n\n    function actualizar(address direccion, PacienteVO paciente)\n        public\n        tieneAcceso(2)\n    {\n        if (direccion != msg.sender) {\n            // si alguien diferente al propietario de la historia la consulta se debe validar quien es\n            // validar quien consulta\n            revert(\"No tiene permisos de actualizar\");\n        }\n        pacienteMapper.actualizar(direccion, paciente);\n        /*\n        try contratoPacienteDAO.actualizar(direccion, paciente) {\n            emit Log(\"Se guarda la informacion de paciente correctamente\");\n        } catch Error(string memory data) {\n            /*reason*/\n        /*  emit Log(\"se rompio por un revert o require\");\n            emit Log(data);\n        }*/\n    }\n\n    // TODO: poner modificador para que solo lo pueda ejecutar el service y\n    // en el service que solo lo ejecute un mdico\n    function cambiarEstado(address _direccion, uint256 _estadoId)\n        public\n        tieneAcceso(3)\n    {\n        if (_direccion != msg.sender) {\n            // si alguien diferente al propietario de la historia la consulta se debe validar quien es\n            // validar quien consulta\n            revert(\"No tiene permisos de actualizar\");\n        }\n        PacienteVO paciente = consultar(_direccion);\n        paciente.setEstadoId(_estadoId);\n        actualizar(_direccion, paciente);\n    }\n\n    function setPacienteMapper(address _pacienteMapperAddress)\n        public\n        esPropietario\n    {\n        pacienteMapperAddress = _pacienteMapperAddress;\n        pacienteMapper = PacienteMapper(_pacienteMapperAddress);\n    }\n\n    function setAcceso(address _accesoAddress) public esPropietario {\n        accesoAddress = _accesoAddress;\n        acceso = Acceso(_accesoAddress);\n    }\n\n    modifier esPropietario() {\n        require(\n            msg.sender == creador,\n            \"Esta funcion solo puede ser ejecutada por el creador del contrato\"\n        );\n        _; // ac se ejecuta la funcin\n    }\n\n    function selfDestruct() public esPropietario {\n        selfdestruct(payable(creador));\n    }\n\n    modifier tieneAcceso(uint256 permisoId) {\n        bool esAccesible = acceso.buscarPermisoDeRol(msg.sender, permisoId);\n        require(esAccesible, \"contrato\");\n        _; // ac se ejecuta la funcin\n    }\n}\n",
  "sourcePath": "/home/felipe/Documentos/Blockchain/codigo/back-hce/contracts/logica/Paciente.sol",
  "compiler": {
    "name": "solc",
    "version": "0.8.11+commit.d7f03943.Emscripten.clang"
  },
  "schemaVersion": "3.4.4",
  "updatedAt": "2022-03-22T00:13:26.303Z",
  "networkType": "ethereum",
  "devdoc": {
    "kind": "dev",
    "methods": {},
    "version": 1
  },
  "userdoc": {
    "kind": "user",
    "methods": {},
    "version": 1
  }
}