{
  "contractName": "PacienteVO",
  "abi": [
    {
      "anonymous": false,
      "inputs": [
        {
          "indexed": false,
          "internalType": "string",
          "name": "data",
          "type": "string"
        }
      ],
      "name": "Log",
      "type": "event"
    },
    {
      "inputs": [],
      "name": "getDireccion",
      "outputs": [
        {
          "internalType": "address",
          "name": "",
          "type": "address"
        }
      ],
      "stateMutability": "view",
      "type": "function"
    },
    {
      "inputs": [],
      "name": "getId",
      "outputs": [
        {
          "internalType": "uint256",
          "name": "",
          "type": "uint256"
        }
      ],
      "stateMutability": "view",
      "type": "function"
    },
    {
      "inputs": [],
      "name": "getIdentificacion",
      "outputs": [
        {
          "internalType": "string",
          "name": "",
          "type": "string"
        }
      ],
      "stateMutability": "view",
      "type": "function"
    },
    {
      "inputs": [],
      "name": "getIsValue",
      "outputs": [
        {
          "internalType": "bool",
          "name": "",
          "type": "bool"
        }
      ],
      "stateMutability": "view",
      "type": "function"
    },
    {
      "inputs": [],
      "name": "getPersonaStructValue",
      "outputs": [
        {
          "components": [
            {
              "internalType": "address",
              "name": "direccion",
              "type": "address"
            },
            {
              "internalType": "uint256",
              "name": "id",
              "type": "uint256"
            },
            {
              "internalType": "string",
              "name": "primerNombre",
              "type": "string"
            },
            {
              "internalType": "string",
              "name": "segundoNombre",
              "type": "string"
            },
            {
              "internalType": "string",
              "name": "primerApellido",
              "type": "string"
            },
            {
              "internalType": "string",
              "name": "segundoApellido",
              "type": "string"
            },
            {
              "internalType": "string",
              "name": "identificacion",
              "type": "string"
            },
            {
              "internalType": "uint256",
              "name": "tipoIdentificacion",
              "type": "uint256"
            },
            {
              "internalType": "bool",
              "name": "isValue",
              "type": "bool"
            }
          ],
          "internalType": "struct Persona.PersonaStruct",
          "name": "",
          "type": "tuple"
        }
      ],
      "stateMutability": "view",
      "type": "function"
    },
    {
      "inputs": [],
      "name": "getPrimerApellido",
      "outputs": [
        {
          "internalType": "string",
          "name": "",
          "type": "string"
        }
      ],
      "stateMutability": "view",
      "type": "function"
    },
    {
      "inputs": [],
      "name": "getPrimerNombre",
      "outputs": [
        {
          "internalType": "string",
          "name": "",
          "type": "string"
        }
      ],
      "stateMutability": "view",
      "type": "function"
    },
    {
      "inputs": [],
      "name": "getSegundoApellido",
      "outputs": [
        {
          "internalType": "string",
          "name": "",
          "type": "string"
        }
      ],
      "stateMutability": "view",
      "type": "function"
    },
    {
      "inputs": [],
      "name": "getSegundoNombre",
      "outputs": [
        {
          "internalType": "string",
          "name": "",
          "type": "string"
        }
      ],
      "stateMutability": "view",
      "type": "function"
    },
    {
      "inputs": [],
      "name": "getTipoIdentificacionId",
      "outputs": [
        {
          "internalType": "contract TipoIdentificacionVO",
          "name": "",
          "type": "address"
        }
      ],
      "stateMutability": "view",
      "type": "function"
    },
    {
      "inputs": [
        {
          "internalType": "address",
          "name": "_direccion",
          "type": "address"
        }
      ],
      "name": "setDireccion",
      "outputs": [],
      "stateMutability": "nonpayable",
      "type": "function"
    },
    {
      "inputs": [
        {
          "internalType": "uint256",
          "name": "_id",
          "type": "uint256"
        }
      ],
      "name": "setId",
      "outputs": [],
      "stateMutability": "nonpayable",
      "type": "function"
    },
    {
      "inputs": [
        {
          "internalType": "string",
          "name": "_identificacion",
          "type": "string"
        }
      ],
      "name": "setIdentificacion",
      "outputs": [],
      "stateMutability": "nonpayable",
      "type": "function"
    },
    {
      "inputs": [
        {
          "internalType": "bool",
          "name": "_isValue",
          "type": "bool"
        }
      ],
      "name": "setIsValue",
      "outputs": [],
      "stateMutability": "nonpayable",
      "type": "function"
    },
    {
      "inputs": [
        {
          "internalType": "string",
          "name": "_primerApellido",
          "type": "string"
        }
      ],
      "name": "setPrimerApellido",
      "outputs": [],
      "stateMutability": "nonpayable",
      "type": "function"
    },
    {
      "inputs": [
        {
          "internalType": "string",
          "name": "_primerNombre",
          "type": "string"
        }
      ],
      "name": "setPrimerNombre",
      "outputs": [],
      "stateMutability": "nonpayable",
      "type": "function"
    },
    {
      "inputs": [
        {
          "internalType": "string",
          "name": "_segundoApellido",
          "type": "string"
        }
      ],
      "name": "setSegundoApellido",
      "outputs": [],
      "stateMutability": "nonpayable",
      "type": "function"
    },
    {
      "inputs": [
        {
          "internalType": "string",
          "name": "_segundoNombre",
          "type": "string"
        }
      ],
      "name": "setSegundoNombre",
      "outputs": [],
      "stateMutability": "nonpayable",
      "type": "function"
    },
    {
      "inputs": [
        {
          "internalType": "contract TipoIdentificacionVO",
          "name": "_tipoIdentificacion",
          "type": "address"
        }
      ],
      "name": "setTipoIdentificacionId",
      "outputs": [],
      "stateMutability": "nonpayable",
      "type": "function"
    },
    {
      "inputs": [
        {
          "components": [
            {
              "internalType": "address",
              "name": "direccion",
              "type": "address"
            },
            {
              "internalType": "uint256",
              "name": "id",
              "type": "uint256"
            },
            {
              "internalType": "string",
              "name": "primerNombre",
              "type": "string"
            },
            {
              "internalType": "string",
              "name": "segundoNombre",
              "type": "string"
            },
            {
              "internalType": "string",
              "name": "primerApellido",
              "type": "string"
            },
            {
              "internalType": "string",
              "name": "segundoApellido",
              "type": "string"
            },
            {
              "internalType": "string",
              "name": "identificacion",
              "type": "string"
            },
            {
              "internalType": "uint256",
              "name": "tipoIdentificacion",
              "type": "uint256"
            },
            {
              "internalType": "bool",
              "name": "isValue",
              "type": "bool"
            }
          ],
          "internalType": "struct Persona.PersonaStruct",
          "name": "_persona",
          "type": "tuple"
        },
        {
          "internalType": "contract TipoIdentificacionVO",
          "name": "_tipoIdentificacionVO",
          "type": "address"
        }
      ],
      "name": "setValuesOfPersonaStruct",
      "outputs": [],
      "stateMutability": "nonpayable",
      "type": "function"
    },
    {
      "inputs": [],
      "name": "getPacienteVOValue",
      "outputs": [
        {
          "components": [
            {
              "components": [
                {
                  "internalType": "address",
                  "name": "direccion",
                  "type": "address"
                },
                {
                  "internalType": "uint256",
                  "name": "id",
                  "type": "uint256"
                },
                {
                  "internalType": "string",
                  "name": "primerNombre",
                  "type": "string"
                },
                {
                  "internalType": "string",
                  "name": "segundoNombre",
                  "type": "string"
                },
                {
                  "internalType": "string",
                  "name": "primerApellido",
                  "type": "string"
                },
                {
                  "internalType": "string",
                  "name": "segundoApellido",
                  "type": "string"
                },
                {
                  "internalType": "string",
                  "name": "identificacion",
                  "type": "string"
                },
                {
                  "internalType": "uint256",
                  "name": "tipoIdentificacion",
                  "type": "uint256"
                },
                {
                  "internalType": "bool",
                  "name": "isValue",
                  "type": "bool"
                }
              ],
              "internalType": "struct Persona.PersonaStruct",
              "name": "persona",
              "type": "tuple"
            },
            {
              "components": [
                {
                  "internalType": "uint256",
                  "name": "sexoId",
                  "type": "uint256"
                },
                {
                  "internalType": "uint256",
                  "name": "estadoCivilId",
                  "type": "uint256"
                },
                {
                  "internalType": "int256",
                  "name": "fechaNacimiento",
                  "type": "int256"
                },
                {
                  "internalType": "uint256",
                  "name": "edad",
                  "type": "uint256"
                },
                {
                  "internalType": "string",
                  "name": "ciudadResidencia",
                  "type": "string"
                },
                {
                  "internalType": "string",
                  "name": "ocupacion",
                  "type": "string"
                },
                {
                  "internalType": "string",
                  "name": "direccion",
                  "type": "string"
                },
                {
                  "internalType": "string",
                  "name": "telefono",
                  "type": "string"
                },
                {
                  "internalType": "uint256",
                  "name": "aseguradoraId",
                  "type": "uint256"
                },
                {
                  "internalType": "uint256",
                  "name": "tipoVinculacionId",
                  "type": "uint256"
                },
                {
                  "internalType": "uint256",
                  "name": "acudienteId",
                  "type": "uint256"
                }
              ],
              "internalType": "struct DatosPersonalesStruct",
              "name": "datosPersonales",
              "type": "tuple"
            },
            {
              "internalType": "uint256",
              "name": "estadoId",
              "type": "uint256"
            }
          ],
          "internalType": "struct PacienteVO.PacienteVOStruct",
          "name": "",
          "type": "tuple"
        }
      ],
      "stateMutability": "view",
      "type": "function"
    },
    {
      "inputs": [
        {
          "components": [
            {
              "components": [
                {
                  "internalType": "address",
                  "name": "direccion",
                  "type": "address"
                },
                {
                  "internalType": "uint256",
                  "name": "id",
                  "type": "uint256"
                },
                {
                  "internalType": "string",
                  "name": "primerNombre",
                  "type": "string"
                },
                {
                  "internalType": "string",
                  "name": "segundoNombre",
                  "type": "string"
                },
                {
                  "internalType": "string",
                  "name": "primerApellido",
                  "type": "string"
                },
                {
                  "internalType": "string",
                  "name": "segundoApellido",
                  "type": "string"
                },
                {
                  "internalType": "string",
                  "name": "identificacion",
                  "type": "string"
                },
                {
                  "internalType": "uint256",
                  "name": "tipoIdentificacion",
                  "type": "uint256"
                },
                {
                  "internalType": "bool",
                  "name": "isValue",
                  "type": "bool"
                }
              ],
              "internalType": "struct Persona.PersonaStruct",
              "name": "persona",
              "type": "tuple"
            },
            {
              "components": [
                {
                  "internalType": "uint256",
                  "name": "sexoId",
                  "type": "uint256"
                },
                {
                  "internalType": "uint256",
                  "name": "estadoCivilId",
                  "type": "uint256"
                },
                {
                  "internalType": "int256",
                  "name": "fechaNacimiento",
                  "type": "int256"
                },
                {
                  "internalType": "uint256",
                  "name": "edad",
                  "type": "uint256"
                },
                {
                  "internalType": "string",
                  "name": "ciudadResidencia",
                  "type": "string"
                },
                {
                  "internalType": "string",
                  "name": "ocupacion",
                  "type": "string"
                },
                {
                  "internalType": "string",
                  "name": "direccion",
                  "type": "string"
                },
                {
                  "internalType": "string",
                  "name": "telefono",
                  "type": "string"
                },
                {
                  "internalType": "uint256",
                  "name": "aseguradoraId",
                  "type": "uint256"
                },
                {
                  "internalType": "uint256",
                  "name": "tipoVinculacionId",
                  "type": "uint256"
                },
                {
                  "internalType": "uint256",
                  "name": "acudienteId",
                  "type": "uint256"
                }
              ],
              "internalType": "struct DatosPersonalesStruct",
              "name": "datosPersonales",
              "type": "tuple"
            },
            {
              "internalType": "uint256",
              "name": "estadoId",
              "type": "uint256"
            }
          ],
          "internalType": "struct PacienteVO.PacienteVOStruct",
          "name": "_pacienteVOStruct",
          "type": "tuple"
        },
        {
          "internalType": "contract EstadoVO",
          "name": "_estadoVO",
          "type": "address"
        },
        {
          "internalType": "contract TipoIdentificacionVO",
          "name": "_tipoIdentificacionVO",
          "type": "address"
        }
      ],
      "name": "setValuesOfPacienteVOStruct",
      "outputs": [],
      "stateMutability": "nonpayable",
      "type": "function"
    },
    {
      "inputs": [],
      "name": "getEstado",
      "outputs": [
        {
          "internalType": "contract EstadoVO",
          "name": "",
          "type": "address"
        }
      ],
      "stateMutability": "view",
      "type": "function"
    },
    {
      "inputs": [],
      "name": "getDatosPersonales",
      "outputs": [
        {
          "components": [
            {
              "internalType": "uint256",
              "name": "sexoId",
              "type": "uint256"
            },
            {
              "internalType": "uint256",
              "name": "estadoCivilId",
              "type": "uint256"
            },
            {
              "internalType": "int256",
              "name": "fechaNacimiento",
              "type": "int256"
            },
            {
              "internalType": "uint256",
              "name": "edad",
              "type": "uint256"
            },
            {
              "internalType": "string",
              "name": "ciudadResidencia",
              "type": "string"
            },
            {
              "internalType": "string",
              "name": "ocupacion",
              "type": "string"
            },
            {
              "internalType": "string",
              "name": "direccion",
              "type": "string"
            },
            {
              "internalType": "string",
              "name": "telefono",
              "type": "string"
            },
            {
              "internalType": "uint256",
              "name": "aseguradoraId",
              "type": "uint256"
            },
            {
              "internalType": "uint256",
              "name": "tipoVinculacionId",
              "type": "uint256"
            },
            {
              "internalType": "uint256",
              "name": "acudienteId",
              "type": "uint256"
            }
          ],
          "internalType": "struct DatosPersonalesStruct",
          "name": "",
          "type": "tuple"
        }
      ],
      "stateMutability": "view",
      "type": "function"
    },
    {
      "inputs": [
        {
          "components": [
            {
              "internalType": "uint256",
              "name": "sexoId",
              "type": "uint256"
            },
            {
              "internalType": "uint256",
              "name": "estadoCivilId",
              "type": "uint256"
            },
            {
              "internalType": "int256",
              "name": "fechaNacimiento",
              "type": "int256"
            },
            {
              "internalType": "uint256",
              "name": "edad",
              "type": "uint256"
            },
            {
              "internalType": "string",
              "name": "ciudadResidencia",
              "type": "string"
            },
            {
              "internalType": "string",
              "name": "ocupacion",
              "type": "string"
            },
            {
              "internalType": "string",
              "name": "direccion",
              "type": "string"
            },
            {
              "internalType": "string",
              "name": "telefono",
              "type": "string"
            },
            {
              "internalType": "uint256",
              "name": "aseguradoraId",
              "type": "uint256"
            },
            {
              "internalType": "uint256",
              "name": "tipoVinculacionId",
              "type": "uint256"
            },
            {
              "internalType": "uint256",
              "name": "acudienteId",
              "type": "uint256"
            }
          ],
          "internalType": "struct DatosPersonalesStruct",
          "name": "_datosPersonales",
          "type": "tuple"
        }
      ],
      "name": "setDatosPersonales",
      "outputs": [],
      "stateMutability": "nonpayable",
      "type": "function"
    },
    {
      "inputs": [
        {
          "internalType": "contract EstadoVO",
          "name": "_estado",
          "type": "address"
        }
      ],
      "name": "setEstado",
      "outputs": [],
      "stateMutability": "nonpayable",
      "type": "function"
    }
  ],
  "bytecode": "0x608060405234801561001057600080fd5b50611b83806100206000396000f3fe608060405234801561001057600080fd5b50600436106101ae5760003560e01c806378c7e292116100ee578063b2f9ccbb11610097578063d0e0ba9511610071578063d0e0ba95146103ae578063d1e360ff146103c1578063eacd3b93146103f1578063ef974e80146103f957600080fd5b8063b2f9ccbb1461038b578063c461d52e14610393578063cc9f930e1461039b57600080fd5b806386aeb471116100c857806386aeb4711461035f5780638ba68607146103725780639ac9abd01461038357600080fd5b806378c7e292146102f05780637d5c30321461033757806383cb77b01461034c57600080fd5b80635745ab981161015b578063607497241161013557806360749724146102945780636d07d7e3146102b9578063765fe099146102ca578063784ecc5a146102dd57600080fd5b80635745ab981461023e57806359d1cfd61461026e5780635d1ca6311461028357600080fd5b80633ca452b91161018c5780633ca452b9146102035780634e8c23ca14610218578063551a5cfa1461022b57600080fd5b806303c5e52a146101b357806328fd4873146101d15780633c3c069f146101e6575b600080fd5b6101bb610429565b6040516101c8919061135b565b60405180910390f35b6101e46101df366004611489565b610722565b005b600754600160a01b900460ff1660405190151581526020016101c8565b61020b610732565b6040516101c891906114c6565b6101e4610226366004611489565b6107c4565b6101e4610239366004611489565b6107d0565b6101e461024c366004611501565b600080546001600160a01b0319166001600160a01b0392909216919091179055565b6102766107dc565b6040516101c891906115e4565b6001546040519081526020016101c8565b6000546001600160a01b03165b6040516001600160a01b0390911681526020016101c8565b6008546001600160a01b03166102a1565b6101e46102d836600461175a565b610b1b565b6101e46102eb3660046118b1565b610be8565b6101e46102fe3660046118e6565b60078054911515600160a01b027fffffffffffffffffffffff00ffffffffffffffffffffffffffffffffffffffff909216919091179055565b61033f610c82565b6040516101c89190611901565b6101e461035a366004611489565b611065565b6101e461036d366004611914565b611071565b6007546001600160a01b03166102a1565b61020b611140565b61020b61114f565b61020b61115e565b6101e46103a9366004611489565b61116d565b6101e46103bc3660046119d2565b600155565b6101e46103cf366004611501565b600780546001600160a01b0319166001600160a01b0392909216919091179055565b61020b611179565b6101e4610407366004611501565b600880546001600160a01b0319166001600160a01b0392909216919091179055565b61048660405180610160016040528060008152602001600081526020016000815260200160008152602001606081526020016060815260200160608152602001606081526020016000815260200160008152602001600081525090565b6040805161016081018252600980548252600a546020830152600b5492820192909252600c546060820152600d80549192916080840191906104c7906119eb565b80601f01602080910402602001604051908101604052809291908181526020018280546104f3906119eb565b80156105405780601f1061051557610100808354040283529160200191610540565b820191906000526020600020905b81548152906001019060200180831161052357829003601f168201915b50505050508152602001600582018054610559906119eb565b80601f0160208091040260200160405190810160405280929190818152602001828054610585906119eb565b80156105d25780601f106105a7576101008083540402835291602001916105d2565b820191906000526020600020905b8154815290600101906020018083116105b557829003601f168201915b505050505081526020016006820180546105eb906119eb565b80601f0160208091040260200160405190810160405280929190818152602001828054610617906119eb565b80156106645780601f1061063957610100808354040283529160200191610664565b820191906000526020600020905b81548152906001019060200180831161064757829003601f168201915b5050505050815260200160078201805461067d906119eb565b80601f01602080910402602001604051908101604052809291908181526020018280546106a9906119eb565b80156106f65780601f106106cb576101008083540402835291602001916106f6565b820191906000526020600020905b8154815290600101906020018083116106d957829003601f168201915b505050505081526020016008820154815260200160098201548152602001600a82015481525050905090565b600661072e8282611a74565b5050565b606060028054610741906119eb565b80601f016020809104026020016040519081016040528092919081815260200182805461076d906119eb565b80156107ba5780601f1061078f576101008083540402835291602001916107ba565b820191906000526020600020905b81548152906001019060200180831161079d57829003601f168201915b5050505050905090565b600561072e8282611a74565b600361072e8282611a74565b6107e4611188565b60405180606001604052806107f7610c82565b815260200160096040518061016001604052908160008201548152602001600182015481526020016002820154815260200160038201548152602001600482018054610842906119eb565b80601f016020809104026020016040519081016040528092919081815260200182805461086e906119eb565b80156108bb5780601f10610890576101008083540402835291602001916108bb565b820191906000526020600020905b81548152906001019060200180831161089e57829003601f168201915b505050505081526020016005820180546108d4906119eb565b80601f0160208091040260200160405190810160405280929190818152602001828054610900906119eb565b801561094d5780601f106109225761010080835404028352916020019161094d565b820191906000526020600020905b81548152906001019060200180831161093057829003601f168201915b50505050508152602001600682018054610966906119eb565b80601f0160208091040260200160405190810160405280929190818152602001828054610992906119eb565b80156109df5780601f106109b4576101008083540402835291602001916109df565b820191906000526020600020905b8154815290600101906020018083116109c257829003601f168201915b505050505081526020016007820180546109f8906119eb565b80601f0160208091040260200160405190810160405280929190818152602001828054610a24906119eb565b8015610a715780601f10610a4657610100808354040283529160200191610a71565b820191906000526020600020905b815481529060010190602001808311610a5457829003601f168201915b505050505081526020016008820154815260200160098201548152602001600a820154815250508152602001600860009054906101000a90046001600160a01b03166001600160a01b0316635d1ca6316040518163ffffffff1660e01b8152600401602060405180830381865afa158015610af0573d6000803e3d6000fd5b505050506040513d601f19601f82011682018060405250810190610b149190611b34565b9052919050565b60208201516001556040820151600290610b359082611a74565b506060820151600390610b489082611a74565b506080820151600490610b5b9082611a74565b5060a0820151600590610b6e9082611a74565b5060c0820151600690610b819082611a74565b50610100820151600780547fffffffffffffffffffffff00000000000000000000000000000000000000000016600160a01b921515929092026001600160a01b0319908116929092176001600160a01b039384161790559151600080549093169116179055565b805160099081556020820151600a556040820151600b556060820151600c556080820151829190600d90610c1c9082611a74565b5060a08201516005820190610c319082611a74565b5060c08201516006820190610c469082611a74565b5060e08201516007820190610c5b9082611a74565b506101008201516008820155610120820151600982015561014090910151600a9091015550565b610cdc60405180610120016040528060006001600160a01b03168152602001600081526020016060815260200160608152602001606081526020016060815260200160608152602001600081526020016000151581525090565b60408051610120810182526000546001600160a01b031681526001546020820152600280549192830191610d0f906119eb565b80601f0160208091040260200160405190810160405280929190818152602001828054610d3b906119eb565b8015610d885780601f10610d5d57610100808354040283529160200191610d88565b820191906000526020600020905b815481529060010190602001808311610d6b57829003601f168201915b5050505050815260200160038054610d9f906119eb565b80601f0160208091040260200160405190810160405280929190818152602001828054610dcb906119eb565b8015610e185780601f10610ded57610100808354040283529160200191610e18565b820191906000526020600020905b815481529060010190602001808311610dfb57829003601f168201915b5050505050815260200160048054610e2f906119eb565b80601f0160208091040260200160405190810160405280929190818152602001828054610e5b906119eb565b8015610ea85780601f10610e7d57610100808354040283529160200191610ea8565b820191906000526020600020905b815481529060010190602001808311610e8b57829003601f168201915b5050505050815260200160058054610ebf906119eb565b80601f0160208091040260200160405190810160405280929190818152602001828054610eeb906119eb565b8015610f385780601f10610f0d57610100808354040283529160200191610f38565b820191906000526020600020905b815481529060010190602001808311610f1b57829003601f168201915b5050505050815260200160068054610f4f906119eb565b80601f0160208091040260200160405190810160405280929190818152602001828054610f7b906119eb565b8015610fc85780601f10610f9d57610100808354040283529160200191610fc8565b820191906000526020600020905b815481529060010190602001808311610fab57829003601f168201915b50505050508152602001600760009054906101000a90046001600160a01b03166001600160a01b0316635d1ca6316040518163ffffffff1660e01b8152600401602060405180830381865afa158015611025573d6000803e3d6000fd5b505050506040513d601f19601f820116820180604052508101906110499190611b34565b8152600754600160a01b900460ff161515602090910152919050565b600261072e8282611a74565b825161107d9082610b1b565b6020808401518051600990815591810151600a556040810151600b556060810151600c556080810151909190600d906110b69082611a74565b5060a082015160058201906110cb9082611a74565b5060c082015160068201906110e09082611a74565b5060e082015160078201906110f59082611a74565b50610100820151600882810191909155610120830151600983015561014090920151600a9091015580546001600160a01b0319166001600160a01b0393909316929092179091555050565b606060068054610741906119eb565b606060038054610741906119eb565b606060048054610741906119eb565b600461072e8282611a74565b606060058054610741906119eb565b60405180606001604052806111ed60405180610120016040528060006001600160a01b03168152602001600081526020016060815260200160608152602001606081526020016060815260200160608152602001600081526020016000151581525090565b815260200161124f60405180610160016040528060008152602001600081526020016000815260200160008152602001606081526020016060815260200160608152602001606081526020016000815260200160008152602001600081525090565b8152602001600081525090565b6000815180845260005b8181101561128257602081850181015186830182015201611266565b506000602082860101526020601f19601f83011685010191505092915050565b60006101608251845260208301516020850152604083015160408501526060830151606085015260808301518160808601526112e08286018261125c565b91505060a083015184820360a08601526112fa828261125c565b91505060c083015184820360c0860152611314828261125c565b91505060e083015184820360e086015261132e828261125c565b61010085810151908701526101208086015190870152610140948501519490950193909352509192915050565b60208152600061136e60208301846112a2565b9392505050565b634e487b7160e01b600052604160045260246000fd5b604051610120810167ffffffffffffffff811182821017156113af576113af611375565b60405290565b604051610160810167ffffffffffffffff811182821017156113af576113af611375565b6040516060810167ffffffffffffffff811182821017156113af576113af611375565b600082601f83011261140d57600080fd5b813567ffffffffffffffff8082111561142857611428611375565b604051601f8301601f19908116603f0116810190828211818310171561145057611450611375565b8160405283815286602085880101111561146957600080fd5b836020870160208301376000602085830101528094505050505092915050565b60006020828403121561149b57600080fd5b813567ffffffffffffffff8111156114b257600080fd5b6114be848285016113fc565b949350505050565b60208152600061136e602083018461125c565b6001600160a01b03811681146114ee57600080fd5b50565b80356114fc816114d9565b919050565b60006020828403121561151357600080fd5b813561136e816114d9565b80516001600160a01b0316825260006101206020830151602085015260408301518160408601526115518286018261125c565b9150506060830151848203606086015261156b828261125c565b91505060808301518482036080860152611585828261125c565b91505060a083015184820360a086015261159f828261125c565b91505060c083015184820360c08601526115b9828261125c565b91505060e083015160e0850152610100808401516115da8287018215159052565b5090949350505050565b602081526000825160606020840152611600608084018261151e565b90506020840151601f1984830301604085015261161d82826112a2565b915050604084015160608401528091505092915050565b803580151581146114fc57600080fd5b6000610120828403121561165757600080fd5b61165f61138b565b905061166a826114f1565b815260208201356020820152604082013567ffffffffffffffff8082111561169157600080fd5b61169d858386016113fc565b604084015260608401359150808211156116b657600080fd5b6116c2858386016113fc565b606084015260808401359150808211156116db57600080fd5b6116e7858386016113fc565b608084015260a084013591508082111561170057600080fd5b61170c858386016113fc565b60a084015260c084013591508082111561172557600080fd5b50611732848285016113fc565b60c08301525060e082013560e0820152610100611750818401611634565b9082015292915050565b6000806040838503121561176d57600080fd5b823567ffffffffffffffff81111561178457600080fd5b61179085828601611644565b92505060208301356117a1816114d9565b809150509250929050565b600061016082840312156117bf57600080fd5b6117c76113b5565b905081358152602082013560208201526040820135604082015260608201356060820152608082013567ffffffffffffffff8082111561180657600080fd5b611812858386016113fc565b608084015260a084013591508082111561182b57600080fd5b611837858386016113fc565b60a084015260c084013591508082111561185057600080fd5b61185c858386016113fc565b60c084015260e084013591508082111561187557600080fd5b50611882848285016113fc565b60e083015250610100828101359082015261012080830135908201526101409182013591810191909152919050565b6000602082840312156118c357600080fd5b813567ffffffffffffffff8111156118da57600080fd5b6114be848285016117ac565b6000602082840312156118f857600080fd5b61136e82611634565b60208152600061136e602083018461151e565b60008060006060848603121561192957600080fd5b833567ffffffffffffffff8082111561194157600080fd5b908501906060828803121561195557600080fd5b61195d6113d9565b82358281111561196c57600080fd5b61197889828601611644565b82525060208301358281111561198d57600080fd5b611999898286016117ac565b602083015250604083013560408201528095505050506119bb602085016114f1565b91506119c9604085016114f1565b90509250925092565b6000602082840312156119e457600080fd5b5035919050565b600181811c908216806119ff57607f821691505b602082108103611a1f57634e487b7160e01b600052602260045260246000fd5b50919050565b601f821115611a6f57600081815260208120601f850160051c81016020861015611a4c5750805b601f850160051c820191505b81811015611a6b57828155600101611a58565b5050505b505050565b815167ffffffffffffffff811115611a8e57611a8e611375565b611aa281611a9c84546119eb565b84611a25565b602080601f831160018114611ad75760008415611abf5750858301515b600019600386901b1c1916600185901b178555611a6b565b600085815260208120601f198616915b82811015611b0657888601518255948401946001909101908401611ae7565b5085821015611b245787850151600019600388901b60f8161c191681555b5050505050600190811b01905550565b600060208284031215611b4657600080fd5b505191905056fea26469706673582212206e6ee50eaaa7a3522a8bd4300a2978a64c6dbefc25f1aba3025ddaa1acb219c164736f6c63430008110033",
  "immutableReferences": {},
  "source": "// SPDX-License-Identifier: MIT\npragma solidity ^0.8.17;\n\nimport \"./Persona.sol\";\nimport \"./structsGenerales/DatosPersonalesStruct.sol\";\nimport \"./VOGenerales/EstadoVO.sol\";\n\ncontract PacienteVO is Persona {\n    //\n    EstadoVO private estado;\n    DatosPersonalesStruct private datosPersonales;\n\n    //uint256 private historiaClinicaId;  // TODO: sobra ya que hay un mapping que asocia una direccin con una historia clinica\n    \n\n    struct PacienteVOStruct {\n        PersonaStruct persona;\n        DatosPersonalesStruct datosPersonales;\n        uint256 estadoId;\n    }\n\n    function getPacienteVOValue()\n        public\n        view\n        returns (PacienteVOStruct memory)\n    {\n        return\n            PacienteVOStruct(\n                getPersonaStructValue(),\n                datosPersonales,\n                estado.getId()\n            );\n    }\n\n    function setValuesOfPacienteVOStruct(\n        PacienteVOStruct memory _pacienteVOStruct,\n        EstadoVO _estadoVO,\n        TipoIdentificacionVO _tipoIdentificacionVO\n    ) public {\n        setValuesOfPersonaStruct(_pacienteVOStruct.persona,  _tipoIdentificacionVO);\n        datosPersonales = _pacienteVOStruct.datosPersonales;\n        estado = _estadoVO;\n        //estado.setValueOfEstadoVOStruct(pacienteVOStruct.estado);\n    }\n\n    function getEstado() public view returns (EstadoVO) {\n        return estado;\n    }\n\n    function getDatosPersonales()\n        public\n        view\n        returns (DatosPersonalesStruct memory)\n    {\n        return datosPersonales;\n    }\n\n    function setDatosPersonales(DatosPersonalesStruct memory _datosPersonales)\n        public\n    {\n        datosPersonales = _datosPersonales;\n    }\n\n    function setEstado(EstadoVO _estado) public {\n        estado = _estado;\n    }\n}\n",
  "sourcePath": "/back/contracts/models/PacienteVO.sol",
  "compiler": {
    "name": "solc",
    "version": "0.8.17+commit.8df45f5f.Emscripten.clang"
  },
  "schemaVersion": "3.4.11",
  "updatedAt": "2023-05-03T04:13:42.744Z",
  "devdoc": {
    "kind": "dev",
    "methods": {},
    "version": 1
  },
  "userdoc": {
    "kind": "user",
    "methods": {},
    "version": 1
  }
}