{
  "contractName": "Paciente",
  "abi": [
    {
      "inputs": [],
      "stateMutability": "nonpayable",
      "type": "constructor"
    },
    {
      "anonymous": false,
      "inputs": [
        {
          "indexed": false,
          "internalType": "string",
          "name": "data",
          "type": "string"
        }
      ],
      "name": "Log",
      "type": "event"
    },
    {
      "inputs": [],
      "name": "accesoAddress",
      "outputs": [
        {
          "internalType": "address",
          "name": "",
          "type": "address"
        }
      ],
      "stateMutability": "view",
      "type": "function"
    },
    {
      "inputs": [],
      "name": "creador",
      "outputs": [
        {
          "internalType": "address",
          "name": "",
          "type": "address"
        }
      ],
      "stateMutability": "view",
      "type": "function"
    },
    {
      "inputs": [],
      "name": "pacienteMapperAddress",
      "outputs": [
        {
          "internalType": "address",
          "name": "",
          "type": "address"
        }
      ],
      "stateMutability": "view",
      "type": "function"
    },
    {
      "inputs": [
        {
          "internalType": "address",
          "name": "direccion",
          "type": "address"
        }
      ],
      "name": "consultar",
      "outputs": [
        {
          "internalType": "contract PacienteVO",
          "name": "",
          "type": "address"
        }
      ],
      "stateMutability": "nonpayable",
      "type": "function"
    },
    {
      "inputs": [
        {
          "internalType": "address",
          "name": "direccion",
          "type": "address"
        },
        {
          "internalType": "contract PacienteVO",
          "name": "paciente",
          "type": "address"
        }
      ],
      "name": "registrar",
      "outputs": [],
      "stateMutability": "nonpayable",
      "type": "function"
    },
    {
      "inputs": [
        {
          "internalType": "address",
          "name": "direccion",
          "type": "address"
        },
        {
          "internalType": "contract PacienteVO",
          "name": "paciente",
          "type": "address"
        }
      ],
      "name": "actualizar",
      "outputs": [],
      "stateMutability": "nonpayable",
      "type": "function"
    },
    {
      "inputs": [
        {
          "internalType": "address",
          "name": "_direccion",
          "type": "address"
        },
        {
          "internalType": "contract EstadoVO",
          "name": "_estado",
          "type": "address"
        }
      ],
      "name": "cambiarEstado",
      "outputs": [],
      "stateMutability": "nonpayable",
      "type": "function"
    },
    {
      "inputs": [
        {
          "internalType": "address",
          "name": "_pacienteMapperAddress",
          "type": "address"
        }
      ],
      "name": "setPacienteMapper",
      "outputs": [],
      "stateMutability": "nonpayable",
      "type": "function"
    },
    {
      "inputs": [
        {
          "internalType": "address",
          "name": "_accesoAddress",
          "type": "address"
        }
      ],
      "name": "setAcceso",
      "outputs": [],
      "stateMutability": "nonpayable",
      "type": "function"
    },
    {
      "inputs": [],
      "name": "selfDestruct",
      "outputs": [],
      "stateMutability": "nonpayable",
      "type": "function"
    }
  ],
  "bytecode": "0x608060405234801561001057600080fd5b50336000806101000a81548173ffffffffffffffffffffffffffffffffffffffff021916908373ffffffffffffffffffffffffffffffffffffffff1602179055506112e3806100606000396000f3fe608060405234801561001057600080fd5b506004361061009e5760003560e01c80636b40d0b5116100665780636b40d0b5146101315780637da8f6a51461014f57806392ebdcd21461017f5780639cb8a26a1461019d5780639fa09ef4146101a75761009e565b806302706642146100a357806307b37d1d146100c15780630da7d7a5146100dd578063137d4722146100f95780631d18376014610115575b600080fd5b6100ab6101c3565b6040516100b89190610cd1565b60405180910390f35b6100db60048036038101906100d69190610d5b565b6101e9565b005b6100f760048036038101906100f29190610d5b565b6103d2565b005b610113600480360381019061010e9190610d9b565b6105bb565b005b61012f600480360381019061012a9190610d9b565b6106ce565b005b6101396107e1565b6040516101469190610cd1565b60405180910390f35b61016960048036038101906101649190610d9b565b610807565b6040516101769190610e27565b60405180910390f35b6101876109c8565b6040516101949190610cd1565b60405180910390f35b6101a56109ec565b005b6101c160048036038101906101bc9190610e80565b610ab3565b005b600160009054906101000a900473ffffffffffffffffffffffffffffffffffffffff1681565b60016000600460009054906101000a900473ffffffffffffffffffffffffffffffffffffffff1673ffffffffffffffffffffffffffffffffffffffff16636d4cc9d233846040518363ffffffff1660e01b815260040161024a929190610ed9565b6020604051808303816000875af1158015610269573d6000803e3d6000fd5b505050506040513d601f19601f8201168201806040525081019061028d9190610f3a565b9050806102cf576040517f08c379a00000000000000000000000000000000000000000000000000000000081526004016102c690610fc4565b60405180910390fd5b3373ffffffffffffffffffffffffffffffffffffffff168473ffffffffffffffffffffffffffffffffffffffff161461033d576040517f08c379a000000000000000000000000000000000000000000000000000000000815260040161033490611056565b60405180910390fd5b600360009054906101000a900473ffffffffffffffffffffffffffffffffffffffff1673ffffffffffffffffffffffffffffffffffffffff1663be381c5985856040518363ffffffff1660e01b815260040161039a929190611076565b600060405180830381600087803b1580156103b457600080fd5b505af11580156103c8573d6000803e3d6000fd5b5050505050505050565b60026000600460009054906101000a900473ffffffffffffffffffffffffffffffffffffffff1673ffffffffffffffffffffffffffffffffffffffff16636d4cc9d233846040518363ffffffff1660e01b8152600401610433929190610ed9565b6020604051808303816000875af1158015610452573d6000803e3d6000fd5b505050506040513d601f19601f820116820180604052508101906104769190610f3a565b9050806104b8576040517f08c379a00000000000000000000000000000000000000000000000000000000081526004016104af90610fc4565b60405180910390fd5b3373ffffffffffffffffffffffffffffffffffffffff168473ffffffffffffffffffffffffffffffffffffffff1614610526576040517f08c379a000000000000000000000000000000000000000000000000000000000815260040161051d906110eb565b60405180910390fd5b600360009054906101000a900473ffffffffffffffffffffffffffffffffffffffff1673ffffffffffffffffffffffffffffffffffffffff16630da7d7a585856040518363ffffffff1660e01b8152600401610583929190611076565b600060405180830381600087803b15801561059d57600080fd5b505af11580156105b1573d6000803e3d6000fd5b5050505050505050565b60008054906101000a900473ffffffffffffffffffffffffffffffffffffffff1673ffffffffffffffffffffffffffffffffffffffff163373ffffffffffffffffffffffffffffffffffffffff1614610649576040517f08c379a0000000000000000000000000000000000000000000000000000000008152600401610640906111a3565b60405180910390fd5b80600260006101000a81548173ffffffffffffffffffffffffffffffffffffffff021916908373ffffffffffffffffffffffffffffffffffffffff16021790555080600460006101000a81548173ffffffffffffffffffffffffffffffffffffffff021916908373ffffffffffffffffffffffffffffffffffffffff16021790555050565b60008054906101000a900473ffffffffffffffffffffffffffffffffffffffff1673ffffffffffffffffffffffffffffffffffffffff163373ffffffffffffffffffffffffffffffffffffffff161461075c576040517f08c379a0000000000000000000000000000000000000000000000000000000008152600401610753906111a3565b60405180910390fd5b80600160006101000a81548173ffffffffffffffffffffffffffffffffffffffff021916908373ffffffffffffffffffffffffffffffffffffffff16021790555080600360006101000a81548173ffffffffffffffffffffffffffffffffffffffff021916908373ffffffffffffffffffffffffffffffffffffffff16021790555050565b600260009054906101000a900473ffffffffffffffffffffffffffffffffffffffff1681565b6000806000600460009054906101000a900473ffffffffffffffffffffffffffffffffffffffff1673ffffffffffffffffffffffffffffffffffffffff16636d4cc9d233846040518363ffffffff1660e01b8152600401610869929190610ed9565b6020604051808303816000875af1158015610888573d6000803e3d6000fd5b505050506040513d601f19601f820116820180604052508101906108ac9190610f3a565b9050806108ee576040517f08c379a00000000000000000000000000000000000000000000000000000000081526004016108e590610fc4565b60405180910390fd5b7fcf34ef537ac33ee1ac626ca1587a0a7e8e51561e5514f8cb36afa1c5102b3bab60405161091b9061120f565b60405180910390a1600360009054906101000a900473ffffffffffffffffffffffffffffffffffffffff1673ffffffffffffffffffffffffffffffffffffffff16637da8f6a5856040518263ffffffff1660e01b815260040161097e9190610cd1565b602060405180830381865afa15801561099b573d6000803e3d6000fd5b505050506040513d601f19601f820116820180604052508101906109bf9190611244565b92505050919050565b60008054906101000a900473ffffffffffffffffffffffffffffffffffffffff1681565b60008054906101000a900473ffffffffffffffffffffffffffffffffffffffff1673ffffffffffffffffffffffffffffffffffffffff163373ffffffffffffffffffffffffffffffffffffffff1614610a7a576040517f08c379a0000000000000000000000000000000000000000000000000000000008152600401610a71906111a3565b60405180910390fd5b60008054906101000a900473ffffffffffffffffffffffffffffffffffffffff1673ffffffffffffffffffffffffffffffffffffffff16ff5b60036000600460009054906101000a900473ffffffffffffffffffffffffffffffffffffffff1673ffffffffffffffffffffffffffffffffffffffff16636d4cc9d233846040518363ffffffff1660e01b8152600401610b14929190610ed9565b6020604051808303816000875af1158015610b33573d6000803e3d6000fd5b505050506040513d601f19601f82011682018060405250810190610b579190610f3a565b905080610b99576040517f08c379a0000000000000000000000000000000000000000000000000000000008152600401610b9090610fc4565b60405180910390fd5b3373ffffffffffffffffffffffffffffffffffffffff168473ffffffffffffffffffffffffffffffffffffffff1614610c07576040517f08c379a0000000000000000000000000000000000000000000000000000000008152600401610bfe906110eb565b60405180910390fd5b6000610c1285610807565b90508073ffffffffffffffffffffffffffffffffffffffff1663ef974e80856040518263ffffffff1660e01b8152600401610c4d9190611292565b600060405180830381600087803b158015610c6757600080fd5b505af1158015610c7b573d6000803e3d6000fd5b50505050610c8985826103d2565b5050505050565b600073ffffffffffffffffffffffffffffffffffffffff82169050919050565b6000610cbb82610c90565b9050919050565b610ccb81610cb0565b82525050565b6000602082019050610ce66000830184610cc2565b92915050565b600080fd5b610cfa81610cb0565b8114610d0557600080fd5b50565b600081359050610d1781610cf1565b92915050565b6000610d2882610cb0565b9050919050565b610d3881610d1d565b8114610d4357600080fd5b50565b600081359050610d5581610d2f565b92915050565b60008060408385031215610d7257610d71610cec565b5b6000610d8085828601610d08565b9250506020610d9185828601610d46565b9150509250929050565b600060208284031215610db157610db0610cec565b5b6000610dbf84828501610d08565b91505092915050565b6000819050919050565b6000610ded610de8610de384610c90565b610dc8565b610c90565b9050919050565b6000610dff82610dd2565b9050919050565b6000610e1182610df4565b9050919050565b610e2181610e06565b82525050565b6000602082019050610e3c6000830184610e18565b92915050565b6000610e4d82610cb0565b9050919050565b610e5d81610e42565b8114610e6857600080fd5b50565b600081359050610e7a81610e54565b92915050565b60008060408385031215610e9757610e96610cec565b5b6000610ea585828601610d08565b9250506020610eb685828601610e6b565b9150509250929050565b6000819050919050565b610ed381610ec0565b82525050565b6000604082019050610eee6000830185610cc2565b610efb6020830184610eca565b9392505050565b60008115159050919050565b610f1781610f02565b8114610f2257600080fd5b50565b600081519050610f3481610f0e565b92915050565b600060208284031215610f5057610f4f610cec565b5b6000610f5e84828501610f25565b91505092915050565b600082825260208201905092915050565b7f456c207573756172696f206e6f207469656e652061636365736f000000000000600082015250565b6000610fae601a83610f67565b9150610fb982610f78565b602082019050919050565b60006020820190508181036000830152610fdd81610fa1565b9050919050565b7f556e2070616369656e746520736520646562652072656769737472617220612060008201527f7369206d69736d6f000000000000000000000000000000000000000000000000602082015250565b6000611040602883610f67565b915061104b82610fe4565b604082019050919050565b6000602082019050818103600083015261106f81611033565b9050919050565b600060408201905061108b6000830185610cc2565b6110986020830184610e18565b9392505050565b7f4e6f207469656e65207065726d69736f732064652061637475616c697a617200600082015250565b60006110d5601f83610f67565b91506110e08261109f565b602082019050919050565b60006020820190508181036000830152611104816110c8565b9050919050565b7f457374612066756e63696f6e20736f6c6f2070756564652073657220656a656360008201527f757461646120706f7220656c2063726561646f722064656c20636f6e7472617460208201527f6f00000000000000000000000000000000000000000000000000000000000000604082015250565b600061118d604183610f67565b91506111988261110b565b606082019050919050565b600060208201905081810360008301526111bc81611180565b9050919050565b7f656e74726f206120636f6e73756c7461722050616369656e7465000000000000600082015250565b60006111f9601a83610f67565b9150611204826111c3565b602082019050919050565b60006020820190508181036000830152611228816111ec565b9050919050565b60008151905061123e81610d2f565b92915050565b60006020828403121561125a57611259610cec565b5b60006112688482850161122f565b91505092915050565b600061127c82610df4565b9050919050565b61128c81611271565b82525050565b60006020820190506112a76000830184611283565b9291505056fea26469706673582212204aeea85568fbb29cfe3f2ca85eecb41e49f4ad0dc0d64277841048517ee1afb164736f6c634300080b0033",
  "immutableReferences": {},
  "source": "// SPDX-License-Identifier: MIT\npragma solidity ^0.8.10;\n\n//import \"./Persona.sol\";\nimport \"../models/PacienteVO.sol\";\nimport \"../persistence/PacienteMapper.sol\";\nimport \"./Acceso.sol\";\n\ncontract Paciente {\n    event Log(string data);\n    address public creador;\n    address public pacienteMapperAddress;\n    address public accesoAddress;\n\n    PacienteMapper private pacienteMapper;\n    Acceso private acceso;\n\n    constructor() {\n        creador = msg.sender; // creador del contrato\n    }\n\n    function consultar(address direccion)\n        public\n        tieneAcceso(0)\n        returns (PacienteVO)\n    {\n        /*if (direccion != msg.sender) {\n            // si alguien diferente al propietario de la historia la consulta se debe validar quien es\n            // validar quien consulta\n            revert(\"No tiene permisos de consulta\");\n        }*/\n        emit Log(\"entro a consultar Paciente\");\n        return pacienteMapper.consultar(direccion);\n        /* try  returns (PacienteVO response){\n            emit Log(\"encontro la Paciente\");\n            return response;\n        } catch Error(string memory e) {\n            /*reason*/\n        /*emit Log(\"se rompio por un revert o require\");\n            emit Log(e);\n            revert(\"No existe ese Paciente\");\n        } */\n    }\n\n    // TODO: validar que pasa si falla el registro de persona\n    // TODO: que pasa si falla guardar paciente?\n    function registrar(address direccion, PacienteVO paciente)\n        public\n        tieneAcceso(1)\n    {\n        if (direccion != msg.sender) {\n            revert(\"Un paciente se debe registrar a si mismo\");\n        }\n        pacienteMapper.guardar(direccion, paciente);\n        /* try  {\n            emit Log(\"Se guarda la informacion de paciente correctamente\");\n        } catch Error(string memory data) {\n            revert(\"No existe ese medico\");\n        }*/\n    }\n\n    function actualizar(address direccion, PacienteVO paciente)\n        public\n        tieneAcceso(2)\n    {\n        if (direccion != msg.sender) {\n            // si alguien diferente al propietario de la historia la consulta se debe validar quien es\n            // validar quien consulta\n            revert(\"No tiene permisos de actualizar\");\n        }\n        pacienteMapper.actualizar(direccion, paciente);\n        /*\n        try contratoPacienteDAO.actualizar(direccion, paciente) {\n            emit Log(\"Se guarda la informacion de paciente correctamente\");\n        } catch Error(string memory data) {\n            /*reason*/\n        /*  emit Log(\"se rompio por un revert o require\");\n            emit Log(data);\n        }*/\n    }\n\n    // TODO: poner modificador para que solo lo pueda ejecutar el service y\n    // en el service que solo lo ejecute un mdico\n    function cambiarEstado(address _direccion, EstadoVO _estado)\n        public\n        tieneAcceso(3)\n    {\n        if (_direccion != msg.sender) {\n            // si alguien diferente al propietario de la historia la consulta se debe validar quien es\n            // validar quien consulta\n            revert(\"No tiene permisos de actualizar\");\n        }\n        PacienteVO paciente = consultar(_direccion);\n        paciente.setEstado(_estado);\n        actualizar(_direccion, paciente);\n    }\n\n    function setPacienteMapper(address _pacienteMapperAddress)\n        public\n        esPropietario\n    {\n        pacienteMapperAddress = _pacienteMapperAddress;\n        pacienteMapper = PacienteMapper(_pacienteMapperAddress);\n    }\n\n    function setAcceso(address _accesoAddress) public esPropietario {\n        accesoAddress = _accesoAddress;\n        acceso = Acceso(_accesoAddress);\n    }\n\n    modifier esPropietario() {\n        require(\n            msg.sender == creador,\n            \"Esta funcion solo puede ser ejecutada por el creador del contrato\"\n        );\n        _; // ac se ejecuta la funcin\n    }\n\n    function selfDestruct() public esPropietario {\n        selfdestruct(payable(creador));\n    }\n\n    modifier tieneAcceso(uint256 permisoId) {\n        bool esAccesible = acceso.validarPermisoDeRol(msg.sender, permisoId);\n        require(esAccesible, \"El usuario no tiene acceso\");\n        _; // ac se ejecuta la funcin\n    }\n}\n",
  "sourcePath": "/home/felipe/Documentos/Blockchain/codigo/back-hce/contracts/logica/Paciente.sol",
  "compiler": {
    "name": "solc",
    "version": "0.8.11+commit.d7f03943.Emscripten.clang"
  },
  "schemaVersion": "3.4.4",
  "updatedAt": "2022-04-15T01:28:26.297Z",
  "devdoc": {
    "kind": "dev",
    "methods": {},
    "version": 1
  },
  "userdoc": {
    "kind": "user",
    "methods": {},
    "version": 1
  }
}