{
  "contractName": "PacienteService",
  "abi": [
    {
      "inputs": [],
      "stateMutability": "nonpayable",
      "type": "constructor"
    },
    {
      "anonymous": false,
      "inputs": [
        {
          "indexed": false,
          "internalType": "string",
          "name": "data",
          "type": "string"
        }
      ],
      "name": "Log",
      "type": "event"
    },
    {
      "inputs": [],
      "name": "creador",
      "outputs": [
        {
          "internalType": "address",
          "name": "",
          "type": "address"
        }
      ],
      "stateMutability": "view",
      "type": "function",
      "constant": true
    },
    {
      "inputs": [],
      "name": "activar",
      "outputs": [
        {
          "internalType": "bool",
          "name": "",
          "type": "bool"
        }
      ],
      "stateMutability": "nonpayable",
      "type": "function"
    },
    {
      "inputs": [
        {
          "internalType": "address",
          "name": "direccion",
          "type": "address"
        },
        {
          "internalType": "contract Paciente",
          "name": "paciente",
          "type": "address"
        }
      ],
      "name": "registrar",
      "outputs": [],
      "stateMutability": "nonpayable",
      "type": "function"
    },
    {
      "inputs": [
        {
          "internalType": "address",
          "name": "direccion",
          "type": "address"
        }
      ],
      "name": "consultar",
      "outputs": [
        {
          "components": [
            {
              "internalType": "string",
              "name": "primerNombre",
              "type": "string"
            },
            {
              "internalType": "string",
              "name": "segundoNombre",
              "type": "string"
            },
            {
              "internalType": "string",
              "name": "primerApellido",
              "type": "string"
            },
            {
              "internalType": "string",
              "name": "segundoApellido",
              "type": "string"
            },
            {
              "internalType": "string",
              "name": "identificacion",
              "type": "string"
            },
            {
              "internalType": "string",
              "name": "tipoIdentificacion",
              "type": "string"
            },
            {
              "internalType": "bool",
              "name": "isValue",
              "type": "bool"
            }
          ],
          "internalType": "struct Persona.PersonaStruct",
          "name": "",
          "type": "tuple"
        }
      ],
      "stateMutability": "nonpayable",
      "type": "function"
    }
  ],
  "bytecode": "0x608060405234801561001057600080fd5b50336000806101000a81548173ffffffffffffffffffffffffffffffffffffffff021916908373ffffffffffffffffffffffffffffffffffffffff16021790555060405161005d906100bf565b604051809103906000f080158015610079573d6000803e3d6000fd5b50600160006101000a81548173ffffffffffffffffffffffffffffffffffffffff021916908373ffffffffffffffffffffffffffffffffffffffff1602179055506100cc565b61146e80610d0283390190565b610c27806100db6000396000f3fe608060405234801561001057600080fd5b506004361061004c5760003560e01c806307b37d1d146100515780632dd47cac1461006d5780637da8f6a51461008b57806392ebdcd2146100bb575b600080fd5b61006b600480360381019061006691906103ee565b6100d9565b005b6100756100dd565b6040516100829190610449565b60405180910390f35b6100a560048036038101906100a09190610464565b6100e7565b6040516100b291906105f8565b60405180910390f35b6100c36102db565b6040516100d09190610629565b60405180910390f35b5050565b6000803390505090565b6100ef6102ff565b7fcf34ef537ac33ee1ac626ca1587a0a7e8e51561e5514f8cb36afa1c5102b3bab60405161011c906106a1565b60405180910390a1600160009054906101000a900473ffffffffffffffffffffffffffffffffffffffff1673ffffffffffffffffffffffffffffffffffffffff16637da8f6a5836040518263ffffffff1660e01b815260040161017f9190610629565b6000604051808303816000875af19250505080156101c057506040513d6000823e3d601f19601f820116820180604052508101906101bd9190610979565b60015b610297576101cc6109cf565b806308c379a0141561022757506101e16109f1565b806101ec5750610229565b7fcf34ef537ac33ee1ac626ca1587a0a7e8e51561e5514f8cb36afa1c5102b3bab60405161021990610af9565b60405180910390a150610292565b505b3d8060008114610255576040519150601f19603f3d011682016040523d82523d6000602084013e61025a565b606091505b507fcf34ef537ac33ee1ac626ca1587a0a7e8e51561e5514f8cb36afa1c5102b3bab60405161028890610b65565b60405180910390a1505b6102d5565b7fcf34ef537ac33ee1ac626ca1587a0a7e8e51561e5514f8cb36afa1c5102b3bab6040516102c490610bd1565b60405180910390a1809150506102d6565b5b919050565b60008054906101000a900473ffffffffffffffffffffffffffffffffffffffff1681565b6040518060e001604052806060815260200160608152602001606081526020016060815260200160608152602001606081526020016000151581525090565b6000604051905090565b600080fd5b600080fd5b600073ffffffffffffffffffffffffffffffffffffffff82169050919050565b600061037d82610352565b9050919050565b61038d81610372565b811461039857600080fd5b50565b6000813590506103aa81610384565b92915050565b60006103bb82610372565b9050919050565b6103cb816103b0565b81146103d657600080fd5b50565b6000813590506103e8816103c2565b92915050565b6000806040838503121561040557610404610348565b5b60006104138582860161039b565b9250506020610424858286016103d9565b9150509250929050565b60008115159050919050565b6104438161042e565b82525050565b600060208201905061045e600083018461043a565b92915050565b60006020828403121561047a57610479610348565b5b60006104888482850161039b565b91505092915050565b600081519050919050565b600082825260208201905092915050565b60005b838110156104cb5780820151818401526020810190506104b0565b838111156104da576000848401525b50505050565b6000601f19601f8301169050919050565b60006104fc82610491565b610506818561049c565b93506105168185602086016104ad565b61051f816104e0565b840191505092915050565b6105338161042e565b82525050565b600060e083016000830151848203600086015261055682826104f1565b9150506020830151848203602086015261057082826104f1565b9150506040830151848203604086015261058a82826104f1565b915050606083015184820360608601526105a482826104f1565b915050608083015184820360808601526105be82826104f1565b91505060a083015184820360a08601526105d882826104f1565b91505060c08301516105ed60c086018261052a565b508091505092915050565b600060208201905081810360008301526106128184610539565b905092915050565b61062381610372565b82525050565b600060208201905061063e600083018461061a565b92915050565b600082825260208201905092915050565b7f656e74726f206120636f6e73756c746172000000000000000000000000000000600082015250565b600061068b601183610644565b915061069682610655565b602082019050919050565b600060208201905081810360008301526106ba8161067e565b9050919050565b600080fd5b7f4e487b7100000000000000000000000000000000000000000000000000000000600052604160045260246000fd5b6106fe826104e0565b810181811067ffffffffffffffff8211171561071d5761071c6106c6565b5b80604052505050565b600061073061033e565b905061073c82826106f5565b919050565b600080fd5b600080fd5b600080fd5b600067ffffffffffffffff82111561076b5761076a6106c6565b5b610774826104e0565b9050602081019050919050565b600061079461078f84610750565b610726565b9050828152602081018484840111156107b0576107af61074b565b5b6107bb8482856104ad565b509392505050565b600082601f8301126107d8576107d7610746565b5b81516107e8848260208601610781565b91505092915050565b6107fa8161042e565b811461080557600080fd5b50565b600081519050610817816107f1565b92915050565b600060e08284031215610833576108326106c1565b5b61083d60e0610726565b9050600082015167ffffffffffffffff81111561085d5761085c610741565b5b610869848285016107c3565b600083015250602082015167ffffffffffffffff81111561088d5761088c610741565b5b610899848285016107c3565b602083015250604082015167ffffffffffffffff8111156108bd576108bc610741565b5b6108c9848285016107c3565b604083015250606082015167ffffffffffffffff8111156108ed576108ec610741565b5b6108f9848285016107c3565b606083015250608082015167ffffffffffffffff81111561091d5761091c610741565b5b610929848285016107c3565b60808301525060a082015167ffffffffffffffff81111561094d5761094c610741565b5b610959848285016107c3565b60a08301525060c061096d84828501610808565b60c08301525092915050565b60006020828403121561098f5761098e610348565b5b600082015167ffffffffffffffff8111156109ad576109ac61034d565b5b6109b98482850161081d565b91505092915050565b60008160e01c9050919050565b600060033d11156109ee5760046000803e6109eb6000516109c2565b90505b90565b600060443d1015610a0157610a84565b610a0961033e565b60043d036004823e80513d602482011167ffffffffffffffff82111715610a31575050610a84565b808201805167ffffffffffffffff811115610a4f5750505050610a84565b80602083010160043d038501811115610a6c575050505050610a84565b610a7b826020018501866106f5565b82955050505050505b90565b7f736520726f6d70696f20706f7220756e20726576657274206f2072657175697260008201527f6500000000000000000000000000000000000000000000000000000000000000602082015250565b6000610ae3602183610644565b9150610aee82610a87565b604082019050919050565b60006020820190508181036000830152610b1281610ad6565b9050919050565b7f736520726f6d70696f2079206e69206964656120706f72717565200000000000600082015250565b6000610b4f601b83610644565b9150610b5a82610b19565b602082019050919050565b60006020820190508181036000830152610b7e81610b42565b9050919050565b7f656e636f6e74726f206c6120706572736f6e6100000000000000000000000000600082015250565b6000610bbb601383610644565b9150610bc682610b85565b602082019050919050565b60006020820190508181036000830152610bea81610bae565b905091905056fea2646970667358221220ddbfec03b60cdeb0cf37497489dd07f1f3bd119c36a8bb5004c60ceb980c660764736f6c634300080b0033608060405234801561001057600080fd5b50336000806101000a81548173ffffffffffffffffffffffffffffffffffffffff021916908373ffffffffffffffffffffffffffffffffffffffff16021790555061140e806100606000396000f3fe608060405234801561001057600080fd5b506004361061004c5760003560e01c8063133584b11461005157806326d0a3801461006d5780637da8f6a5146100a357806392ebdcd2146100d3575b600080fd5b61006b60048036038101906100669190610eaa565b6100f1565b005b61008760048036038101906100829190610f06565b610206565b60405161009a9796959493929190610fca565b60405180910390f35b6100bd60048036038101906100b89190610f06565b610585565b6040516100ca919061117b565b60405180910390f35b6100db610a4e565b6040516100e891906111ac565b60405180910390f35b80600160008473ffffffffffffffffffffffffffffffffffffffff1673ffffffffffffffffffffffffffffffffffffffff168152602001908152602001600020600082015181600001908051906020019061014d929190610a72565b50602082015181600101908051906020019061016a929190610a72565b506040820151816002019080519060200190610187929190610a72565b5060608201518160030190805190602001906101a4929190610a72565b5060808201518160040190805190602001906101c1929190610a72565b5060a08201518160050190805190602001906101de929190610a72565b5060c08201518160060160006101000a81548160ff0219169083151502179055509050505050565b6001602052806000526040600020600091509050806000018054610229906111f6565b80601f0160208091040260200160405190810160405280929190818152602001828054610255906111f6565b80156102a25780601f10610277576101008083540402835291602001916102a2565b820191906000526020600020905b81548152906001019060200180831161028557829003601f168201915b5050505050908060010180546102b7906111f6565b80601f01602080910402602001604051908101604052809291908181526020018280546102e3906111f6565b80156103305780601f1061030557610100808354040283529160200191610330565b820191906000526020600020905b81548152906001019060200180831161031357829003601f168201915b505050505090806002018054610345906111f6565b80601f0160208091040260200160405190810160405280929190818152602001828054610371906111f6565b80156103be5780601f10610393576101008083540402835291602001916103be565b820191906000526020600020905b8154815290600101906020018083116103a157829003601f168201915b5050505050908060030180546103d3906111f6565b80601f01602080910402602001604051908101604052809291908181526020018280546103ff906111f6565b801561044c5780601f106104215761010080835404028352916020019161044c565b820191906000526020600020905b81548152906001019060200180831161042f57829003601f168201915b505050505090806004018054610461906111f6565b80601f016020809104026020016040519081016040528092919081815260200182805461048d906111f6565b80156104da5780601f106104af576101008083540402835291602001916104da565b820191906000526020600020905b8154815290600101906020018083116104bd57829003601f168201915b5050505050908060050180546104ef906111f6565b80601f016020809104026020016040519081016040528092919081815260200182805461051b906111f6565b80156105685780601f1061053d57610100808354040283529160200191610568565b820191906000526020600020905b81548152906001019060200180831161054b57829003601f168201915b5050505050908060060160009054906101000a900460ff16905087565b61058d610af8565b7fcf34ef537ac33ee1ac626ca1587a0a7e8e51561e5514f8cb36afa1c5102b3bab6040516105ba90611274565b60405180910390a16000600160008473ffffffffffffffffffffffffffffffffffffffff1673ffffffffffffffffffffffffffffffffffffffff1681526020019081526020016000206040518060e001604052908160008201805461061e906111f6565b80601f016020809104026020016040519081016040528092919081815260200182805461064a906111f6565b80156106975780601f1061066c57610100808354040283529160200191610697565b820191906000526020600020905b81548152906001019060200180831161067a57829003601f168201915b505050505081526020016001820180546106b0906111f6565b80601f01602080910402602001604051908101604052809291908181526020018280546106dc906111f6565b80156107295780601f106106fe57610100808354040283529160200191610729565b820191906000526020600020905b81548152906001019060200180831161070c57829003601f168201915b50505050508152602001600282018054610742906111f6565b80601f016020809104026020016040519081016040528092919081815260200182805461076e906111f6565b80156107bb5780601f10610790576101008083540402835291602001916107bb565b820191906000526020600020905b81548152906001019060200180831161079e57829003601f168201915b505050505081526020016003820180546107d4906111f6565b80601f0160208091040260200160405190810160405280929190818152602001828054610800906111f6565b801561084d5780601f106108225761010080835404028352916020019161084d565b820191906000526020600020905b81548152906001019060200180831161083057829003601f168201915b50505050508152602001600482018054610866906111f6565b80601f0160208091040260200160405190810160405280929190818152602001828054610892906111f6565b80156108df5780601f106108b4576101008083540402835291602001916108df565b820191906000526020600020905b8154815290600101906020018083116108c257829003601f168201915b505050505081526020016005820180546108f8906111f6565b80601f0160208091040260200160405190810160405280929190818152602001828054610924906111f6565b80156109715780601f1061094657610100808354040283529160200191610971565b820191906000526020600020905b81548152906001019060200180831161095457829003601f168201915b505050505081526020016006820160009054906101000a900460ff16151515158152505090508060c00151610a10577fcf34ef537ac33ee1ac626ca1587a0a7e8e51561e5514f8cb36afa1c5102b3bab6040516109cd906112e0565b60405180910390a16040517f08c379a0000000000000000000000000000000000000000000000000000000008152600401610a079061134c565b60405180910390fd5b7fcf34ef537ac33ee1ac626ca1587a0a7e8e51561e5514f8cb36afa1c5102b3bab604051610a3d906113b8565b60405180910390a180915050919050565b60008054906101000a900473ffffffffffffffffffffffffffffffffffffffff1681565b828054610a7e906111f6565b90600052602060002090601f016020900481019282610aa05760008555610ae7565b82601f10610ab957805160ff1916838001178555610ae7565b82800160010185558215610ae7579182015b82811115610ae6578251825591602001919060010190610acb565b5b509050610af49190610b37565b5090565b6040518060e001604052806060815260200160608152602001606081526020016060815260200160608152602001606081526020016000151581525090565b5b80821115610b50576000816000905550600101610b38565b5090565b6000604051905090565b600080fd5b600080fd5b600073ffffffffffffffffffffffffffffffffffffffff82169050919050565b6000610b9382610b68565b9050919050565b610ba381610b88565b8114610bae57600080fd5b50565b600081359050610bc081610b9a565b92915050565b600080fd5b6000601f19601f8301169050919050565b7f4e487b7100000000000000000000000000000000000000000000000000000000600052604160045260246000fd5b610c1482610bcb565b810181811067ffffffffffffffff82111715610c3357610c32610bdc565b5b80604052505050565b6000610c46610b54565b9050610c528282610c0b565b919050565b600080fd5b600080fd5b600080fd5b600067ffffffffffffffff821115610c8157610c80610bdc565b5b610c8a82610bcb565b9050602081019050919050565b82818337600083830152505050565b6000610cb9610cb484610c66565b610c3c565b905082815260208101848484011115610cd557610cd4610c61565b5b610ce0848285610c97565b509392505050565b600082601f830112610cfd57610cfc610c5c565b5b8135610d0d848260208601610ca6565b91505092915050565b60008115159050919050565b610d2b81610d16565b8114610d3657600080fd5b50565b600081359050610d4881610d22565b92915050565b600060e08284031215610d6457610d63610bc6565b5b610d6e60e0610c3c565b9050600082013567ffffffffffffffff811115610d8e57610d8d610c57565b5b610d9a84828501610ce8565b600083015250602082013567ffffffffffffffff811115610dbe57610dbd610c57565b5b610dca84828501610ce8565b602083015250604082013567ffffffffffffffff811115610dee57610ded610c57565b5b610dfa84828501610ce8565b604083015250606082013567ffffffffffffffff811115610e1e57610e1d610c57565b5b610e2a84828501610ce8565b606083015250608082013567ffffffffffffffff811115610e4e57610e4d610c57565b5b610e5a84828501610ce8565b60808301525060a082013567ffffffffffffffff811115610e7e57610e7d610c57565b5b610e8a84828501610ce8565b60a08301525060c0610e9e84828501610d39565b60c08301525092915050565b60008060408385031215610ec157610ec0610b5e565b5b6000610ecf85828601610bb1565b925050602083013567ffffffffffffffff811115610ef057610eef610b63565b5b610efc85828601610d4e565b9150509250929050565b600060208284031215610f1c57610f1b610b5e565b5b6000610f2a84828501610bb1565b91505092915050565b600081519050919050565b600082825260208201905092915050565b60005b83811015610f6d578082015181840152602081019050610f52565b83811115610f7c576000848401525b50505050565b6000610f8d82610f33565b610f978185610f3e565b9350610fa7818560208601610f4f565b610fb081610bcb565b840191505092915050565b610fc481610d16565b82525050565b600060e0820190508181036000830152610fe4818a610f82565b90508181036020830152610ff88189610f82565b9050818103604083015261100c8188610f82565b905081810360608301526110208187610f82565b905081810360808301526110348186610f82565b905081810360a08301526110488185610f82565b905061105760c0830184610fbb565b98975050505050505050565b600082825260208201905092915050565b600061107f82610f33565b6110898185611063565b9350611099818560208601610f4f565b6110a281610bcb565b840191505092915050565b6110b681610d16565b82525050565b600060e08301600083015184820360008601526110d98282611074565b915050602083015184820360208601526110f38282611074565b9150506040830151848203604086015261110d8282611074565b915050606083015184820360608601526111278282611074565b915050608083015184820360808601526111418282611074565b91505060a083015184820360a086015261115b8282611074565b91505060c083015161117060c08601826110ad565b508091505092915050565b6000602082019050818103600083015261119581846110bc565b905092915050565b6111a681610b88565b82525050565b60006020820190506111c1600083018461119d565b92915050565b7f4e487b7100000000000000000000000000000000000000000000000000000000600052602260045260246000fd5b6000600282049050600182168061120e57607f821691505b60208210811415611222576112216111c7565b5b50919050565b7f656e74726f206120636f6e73756c746172000000000000000000000000000000600082015250565b600061125e601183610f3e565b915061126982611228565b602082019050919050565b6000602082019050818103600083015261128d81611251565b9050919050565b7f6e6f2065786973746520656c207573756172696f000000000000000000000000600082015250565b60006112ca601483610f3e565b91506112d582611294565b602082019050919050565b600060208201905081810360008301526112f9816112bd565b9050919050565b7f4e6f20657869737465206573652070616369656e746500000000000000000000600082015250565b6000611336601683610f3e565b915061134182611300565b602082019050919050565b6000602082019050818103600083015261136581611329565b9050919050565b7f7573756172696f2076616c69646f000000000000000000000000000000000000600082015250565b60006113a2600e83610f3e565b91506113ad8261136c565b602082019050919050565b600060208201905081810360008301526113d181611395565b905091905056fea26469706673582212209c977fb0c2f34f31086f6cb597be51fb066c5dcac4730c870576673aabe45d3264736f6c634300080b0033",
  "immutableReferences": {},
  "source": "// SPDX-License-Identifier: MIT\npragma solidity >=0.4.22 <0.9.0; // TODO: Ajustar la versin por consenso con Jos\n\nimport \"../persistence/PersonaDAO.sol\";\nimport \"../logica/Persona.sol\";\n\n// TODO: quiz todos los mtodos en lso service deban ser external (averiguar)\n// https://ethereum.stackexchange.com/questions/19380/external-vs-public-best-practices?answertab=active#tab-top\ncontract PacienteService {\n\n    event Log(string data);\n\n    address public creador;\n    PersonaDAO private personaDao;\n\n    constructor() public {\n        creador = msg.sender; // creador del contrato\n        personaDao = new PersonaDAO(); //TODO: verificar si queda guardado el objeto o si hay mejor manera\n    }\n\n    function activar() public returns (bool) {\n        address direccion = msg.sender;\n        // TODO: buscar persona en arreglo\n    }\n\n    // TODO: buscar porque es uint256\n    function registrar(address direccion, Paciente paciente) public {\n        // TODO: poner excepcion en caso de error\n        // personaDao.guardar(direccion, paciente);\n    }\n\n    // TODO: intentar dejarla como view\n    // TODO: Cambiar a paciente\n    function consultar(address direccion) external returns (Persona.PersonaStruct memory) {\n        // TODO: validar que sea paciente sino lanzar una excepcion\n        // TODO: mejorar o completar la conversion del tipo padre al hijo,preguntas al profe que se puede hacer\n        emit Log(\"entro a consultar\");\n        try personaDao.consultar(direccion) returns (Persona.PersonaStruct memory persona) {\n            // Paciente paciente = new Paciente();\n            // paciente.setPrimerApellido(persona.getPrimerApellido()); // ac se rompe\n            emit Log(\"encontro la persona\");            \n            return persona;\n        } catch Error(string memory /*reason*/){\n            emit Log(\"se rompio por un revert o require\");\n        }  catch (bytes memory /*lowLevelData*/){\n            emit Log(\"se rompio y ni idea porque \");\n        }      \n    }\n}\n",
  "sourcePath": "/home/felipe/Documentos/Blockchain/codigo/back-hce/contracts/service/PacienteService.sol",
  "compiler": {
    "name": "solc",
    "version": "0.8.11+commit.d7f03943.Emscripten.clang"
  },
  "schemaVersion": "3.4.4",
  "updatedAt": "2022-01-23T02:52:56.368Z",
  "networkType": "ethereum",
  "devdoc": {
    "kind": "dev",
    "methods": {},
    "version": 1
  },
  "userdoc": {
    "kind": "user",
    "methods": {},
    "version": 1
  }
}