{
  "contractName": "PacienteService",
  "abi": [
    {
      "inputs": [],
      "stateMutability": "nonpayable",
      "type": "constructor"
    },
    {
      "anonymous": false,
      "inputs": [
        {
          "indexed": false,
          "internalType": "string",
          "name": "data",
          "type": "string"
        }
      ],
      "name": "Log",
      "type": "event"
    },
    {
      "inputs": [],
      "name": "creador",
      "outputs": [
        {
          "internalType": "address",
          "name": "",
          "type": "address"
        }
      ],
      "stateMutability": "view",
      "type": "function",
      "constant": true
    },
    {
      "inputs": [],
      "name": "activar",
      "outputs": [
        {
          "internalType": "bool",
          "name": "",
          "type": "bool"
        }
      ],
      "stateMutability": "nonpayable",
      "type": "function"
    },
    {
      "inputs": [
        {
          "internalType": "address",
          "name": "direccion",
          "type": "address"
        },
        {
          "internalType": "contract Paciente",
          "name": "paciente",
          "type": "address"
        }
      ],
      "name": "registrar",
      "outputs": [],
      "stateMutability": "nonpayable",
      "type": "function"
    },
    {
      "inputs": [
        {
          "internalType": "address",
          "name": "direccion",
          "type": "address"
        }
      ],
      "name": "consultar",
      "outputs": [
        {
          "components": [
            {
              "internalType": "string",
              "name": "primerNombre",
              "type": "string"
            },
            {
              "internalType": "string",
              "name": "segundoNombre",
              "type": "string"
            },
            {
              "internalType": "string",
              "name": "primerApellido",
              "type": "string"
            },
            {
              "internalType": "string",
              "name": "segundoApellido",
              "type": "string"
            },
            {
              "internalType": "string",
              "name": "identificacion",
              "type": "string"
            },
            {
              "internalType": "string",
              "name": "tipoIdentificacion",
              "type": "string"
            },
            {
              "internalType": "bool",
              "name": "isValue",
              "type": "bool"
            }
          ],
          "internalType": "struct PersonaStruct",
          "name": "",
          "type": "tuple"
        }
      ],
      "stateMutability": "nonpayable",
      "type": "function"
    }
  ],
  "bytecode": "0x608060405234801561001057600080fd5b50336000806101000a81548173ffffffffffffffffffffffffffffffffffffffff021916908373ffffffffffffffffffffffffffffffffffffffff16021790555060405161005d906100bf565b604051809103906000f080158015610079573d6000803e3d6000fd5b50600160006101000a81548173ffffffffffffffffffffffffffffffffffffffff021916908373ffffffffffffffffffffffffffffffffffffffff1602179055506100cc565b6115c580610d0283390190565b610c27806100db6000396000f3fe608060405234801561001057600080fd5b506004361061004c5760003560e01c806307b37d1d146100515780632dd47cac1461006d5780637da8f6a51461008b57806392ebdcd2146100bb575b600080fd5b61006b600480360381019061006691906103ee565b6100d9565b005b6100756100dd565b6040516100829190610449565b60405180910390f35b6100a560048036038101906100a09190610464565b6100e7565b6040516100b291906105f8565b60405180910390f35b6100c36102db565b6040516100d09190610629565b60405180910390f35b5050565b6000803390505090565b6100ef6102ff565b7fcf34ef537ac33ee1ac626ca1587a0a7e8e51561e5514f8cb36afa1c5102b3bab60405161011c906106a1565b60405180910390a1600160009054906101000a900473ffffffffffffffffffffffffffffffffffffffff1673ffffffffffffffffffffffffffffffffffffffff16637da8f6a5836040518263ffffffff1660e01b815260040161017f9190610629565b6000604051808303816000875af19250505080156101c057506040513d6000823e3d601f19601f820116820180604052508101906101bd9190610979565b60015b610297576101cc6109cf565b806308c379a0141561022757506101e16109f1565b806101ec5750610229565b7fcf34ef537ac33ee1ac626ca1587a0a7e8e51561e5514f8cb36afa1c5102b3bab60405161021990610af9565b60405180910390a150610292565b505b3d8060008114610255576040519150601f19603f3d011682016040523d82523d6000602084013e61025a565b606091505b507fcf34ef537ac33ee1ac626ca1587a0a7e8e51561e5514f8cb36afa1c5102b3bab60405161028890610b65565b60405180910390a1505b6102d5565b7fcf34ef537ac33ee1ac626ca1587a0a7e8e51561e5514f8cb36afa1c5102b3bab6040516102c490610bd1565b60405180910390a1809150506102d6565b5b919050565b60008054906101000a900473ffffffffffffffffffffffffffffffffffffffff1681565b6040518060e001604052806060815260200160608152602001606081526020016060815260200160608152602001606081526020016000151581525090565b6000604051905090565b600080fd5b600080fd5b600073ffffffffffffffffffffffffffffffffffffffff82169050919050565b600061037d82610352565b9050919050565b61038d81610372565b811461039857600080fd5b50565b6000813590506103aa81610384565b92915050565b60006103bb82610372565b9050919050565b6103cb816103b0565b81146103d657600080fd5b50565b6000813590506103e8816103c2565b92915050565b6000806040838503121561040557610404610348565b5b60006104138582860161039b565b9250506020610424858286016103d9565b9150509250929050565b60008115159050919050565b6104438161042e565b82525050565b600060208201905061045e600083018461043a565b92915050565b60006020828403121561047a57610479610348565b5b60006104888482850161039b565b91505092915050565b600081519050919050565b600082825260208201905092915050565b60005b838110156104cb5780820151818401526020810190506104b0565b838111156104da576000848401525b50505050565b6000601f19601f8301169050919050565b60006104fc82610491565b610506818561049c565b93506105168185602086016104ad565b61051f816104e0565b840191505092915050565b6105338161042e565b82525050565b600060e083016000830151848203600086015261055682826104f1565b9150506020830151848203602086015261057082826104f1565b9150506040830151848203604086015261058a82826104f1565b915050606083015184820360608601526105a482826104f1565b915050608083015184820360808601526105be82826104f1565b91505060a083015184820360a08601526105d882826104f1565b91505060c08301516105ed60c086018261052a565b508091505092915050565b600060208201905081810360008301526106128184610539565b905092915050565b61062381610372565b82525050565b600060208201905061063e600083018461061a565b92915050565b600082825260208201905092915050565b7f656e74726f206120636f6e73756c746172000000000000000000000000000000600082015250565b600061068b601183610644565b915061069682610655565b602082019050919050565b600060208201905081810360008301526106ba8161067e565b9050919050565b600080fd5b7f4e487b7100000000000000000000000000000000000000000000000000000000600052604160045260246000fd5b6106fe826104e0565b810181811067ffffffffffffffff8211171561071d5761071c6106c6565b5b80604052505050565b600061073061033e565b905061073c82826106f5565b919050565b600080fd5b600080fd5b600080fd5b600067ffffffffffffffff82111561076b5761076a6106c6565b5b610774826104e0565b9050602081019050919050565b600061079461078f84610750565b610726565b9050828152602081018484840111156107b0576107af61074b565b5b6107bb8482856104ad565b509392505050565b600082601f8301126107d8576107d7610746565b5b81516107e8848260208601610781565b91505092915050565b6107fa8161042e565b811461080557600080fd5b50565b600081519050610817816107f1565b92915050565b600060e08284031215610833576108326106c1565b5b61083d60e0610726565b9050600082015167ffffffffffffffff81111561085d5761085c610741565b5b610869848285016107c3565b600083015250602082015167ffffffffffffffff81111561088d5761088c610741565b5b610899848285016107c3565b602083015250604082015167ffffffffffffffff8111156108bd576108bc610741565b5b6108c9848285016107c3565b604083015250606082015167ffffffffffffffff8111156108ed576108ec610741565b5b6108f9848285016107c3565b606083015250608082015167ffffffffffffffff81111561091d5761091c610741565b5b610929848285016107c3565b60808301525060a082015167ffffffffffffffff81111561094d5761094c610741565b5b610959848285016107c3565b60a08301525060c061096d84828501610808565b60c08301525092915050565b60006020828403121561098f5761098e610348565b5b600082015167ffffffffffffffff8111156109ad576109ac61034d565b5b6109b98482850161081d565b91505092915050565b60008160e01c9050919050565b600060033d11156109ee5760046000803e6109eb6000516109c2565b90505b90565b600060443d1015610a0157610a84565b610a0961033e565b60043d036004823e80513d602482011167ffffffffffffffff82111715610a31575050610a84565b808201805167ffffffffffffffff811115610a4f5750505050610a84565b80602083010160043d038501811115610a6c575050505050610a84565b610a7b826020018501866106f5565b82955050505050505b90565b7f736520726f6d70696f20706f7220756e20726576657274206f2072657175697260008201527f6500000000000000000000000000000000000000000000000000000000000000602082015250565b6000610ae3602183610644565b9150610aee82610a87565b604082019050919050565b60006020820190508181036000830152610b1281610ad6565b9050919050565b7f736520726f6d70696f2079206e69206964656120706f72717565200000000000600082015250565b6000610b4f601b83610644565b9150610b5a82610b19565b602082019050919050565b60006020820190508181036000830152610b7e81610b42565b9050919050565b7f656e636f6e74726f206c6120706572736f6e6100000000000000000000000000600082015250565b6000610bbb601383610644565b9150610bc682610b85565b602082019050919050565b60006020820190508181036000830152610bea81610bae565b905091905056fea2646970667358221220230cafed3a950490422843c04066a91468eaf6c0adbb80cf7fa94a2adc3ea7e864736f6c634300080b0033608060405234801561001057600080fd5b50336000806101000a81548173ffffffffffffffffffffffffffffffffffffffff021916908373ffffffffffffffffffffffffffffffffffffffff160217905550611565806100606000396000f3fe608060405234801561001057600080fd5b506004361061004c5760003560e01c8063133584b11461005157806326d0a3801461006d5780637da8f6a5146100a357806392ebdcd2146100d3575b600080fd5b61006b60048036038101906100669190610f6f565b6100f1565b005b61008760048036038101906100829190610fcb565b6102cb565b60405161009a979695949392919061108f565b60405180910390f35b6100bd60048036038101906100b89190610fcb565b61064a565b6040516100ca9190611240565b60405180910390f35b6100db610b13565b6040516100e89190611271565b60405180910390f35b600160008373ffffffffffffffffffffffffffffffffffffffff1673ffffffffffffffffffffffffffffffffffffffff16815260200190815260200160002060060160009054906101000a900460ff16156101b6577fcf34ef537ac33ee1ac626ca1587a0a7e8e51561e5514f8cb36afa1c5102b3bab604051610173906112fe565b60405180910390a16040517f08c379a00000000000000000000000000000000000000000000000000000000081526004016101ad906112fe565b60405180910390fd5b80600160008473ffffffffffffffffffffffffffffffffffffffff1673ffffffffffffffffffffffffffffffffffffffff1681526020019081526020016000206000820151816000019080519060200190610212929190610b37565b50602082015181600101908051906020019061022f929190610b37565b50604082015181600201908051906020019061024c929190610b37565b506060820151816003019080519060200190610269929190610b37565b506080820151816004019080519060200190610286929190610b37565b5060a08201518160050190805190602001906102a3929190610b37565b5060c08201518160060160006101000a81548160ff0219169083151502179055509050505050565b60016020528060005260406000206000915090508060000180546102ee9061134d565b80601f016020809104026020016040519081016040528092919081815260200182805461031a9061134d565b80156103675780601f1061033c57610100808354040283529160200191610367565b820191906000526020600020905b81548152906001019060200180831161034a57829003601f168201915b50505050509080600101805461037c9061134d565b80601f01602080910402602001604051908101604052809291908181526020018280546103a89061134d565b80156103f55780601f106103ca576101008083540402835291602001916103f5565b820191906000526020600020905b8154815290600101906020018083116103d857829003601f168201915b50505050509080600201805461040a9061134d565b80601f01602080910402602001604051908101604052809291908181526020018280546104369061134d565b80156104835780601f1061045857610100808354040283529160200191610483565b820191906000526020600020905b81548152906001019060200180831161046657829003601f168201915b5050505050908060030180546104989061134d565b80601f01602080910402602001604051908101604052809291908181526020018280546104c49061134d565b80156105115780601f106104e657610100808354040283529160200191610511565b820191906000526020600020905b8154815290600101906020018083116104f457829003601f168201915b5050505050908060040180546105269061134d565b80601f01602080910402602001604051908101604052809291908181526020018280546105529061134d565b801561059f5780601f106105745761010080835404028352916020019161059f565b820191906000526020600020905b81548152906001019060200180831161058257829003601f168201915b5050505050908060050180546105b49061134d565b80601f01602080910402602001604051908101604052809291908181526020018280546105e09061134d565b801561062d5780601f106106025761010080835404028352916020019161062d565b820191906000526020600020905b81548152906001019060200180831161061057829003601f168201915b5050505050908060060160009054906101000a900460ff16905087565b610652610bbd565b7fcf34ef537ac33ee1ac626ca1587a0a7e8e51561e5514f8cb36afa1c5102b3bab60405161067f906113cb565b60405180910390a16000600160008473ffffffffffffffffffffffffffffffffffffffff1673ffffffffffffffffffffffffffffffffffffffff1681526020019081526020016000206040518060e00160405290816000820180546106e39061134d565b80601f016020809104026020016040519081016040528092919081815260200182805461070f9061134d565b801561075c5780601f106107315761010080835404028352916020019161075c565b820191906000526020600020905b81548152906001019060200180831161073f57829003601f168201915b505050505081526020016001820180546107759061134d565b80601f01602080910402602001604051908101604052809291908181526020018280546107a19061134d565b80156107ee5780601f106107c3576101008083540402835291602001916107ee565b820191906000526020600020905b8154815290600101906020018083116107d157829003601f168201915b505050505081526020016002820180546108079061134d565b80601f01602080910402602001604051908101604052809291908181526020018280546108339061134d565b80156108805780601f1061085557610100808354040283529160200191610880565b820191906000526020600020905b81548152906001019060200180831161086357829003601f168201915b505050505081526020016003820180546108999061134d565b80601f01602080910402602001604051908101604052809291908181526020018280546108c59061134d565b80156109125780601f106108e757610100808354040283529160200191610912565b820191906000526020600020905b8154815290600101906020018083116108f557829003601f168201915b5050505050815260200160048201805461092b9061134d565b80601f01602080910402602001604051908101604052809291908181526020018280546109579061134d565b80156109a45780601f10610979576101008083540402835291602001916109a4565b820191906000526020600020905b81548152906001019060200180831161098757829003601f168201915b505050505081526020016005820180546109bd9061134d565b80601f01602080910402602001604051908101604052809291908181526020018280546109e99061134d565b8015610a365780601f10610a0b57610100808354040283529160200191610a36565b820191906000526020600020905b815481529060010190602001808311610a1957829003601f168201915b505050505081526020016006820160009054906101000a900460ff16151515158152505090508060c00151610ad5577fcf34ef537ac33ee1ac626ca1587a0a7e8e51561e5514f8cb36afa1c5102b3bab604051610a9290611437565b60405180910390a16040517f08c379a0000000000000000000000000000000000000000000000000000000008152600401610acc906114a3565b60405180910390fd5b7fcf34ef537ac33ee1ac626ca1587a0a7e8e51561e5514f8cb36afa1c5102b3bab604051610b029061150f565b60405180910390a180915050919050565b60008054906101000a900473ffffffffffffffffffffffffffffffffffffffff1681565b828054610b439061134d565b90600052602060002090601f016020900481019282610b655760008555610bac565b82601f10610b7e57805160ff1916838001178555610bac565b82800160010185558215610bac579182015b82811115610bab578251825591602001919060010190610b90565b5b509050610bb99190610bfc565b5090565b6040518060e001604052806060815260200160608152602001606081526020016060815260200160608152602001606081526020016000151581525090565b5b80821115610c15576000816000905550600101610bfd565b5090565b6000604051905090565b600080fd5b600080fd5b600073ffffffffffffffffffffffffffffffffffffffff82169050919050565b6000610c5882610c2d565b9050919050565b610c6881610c4d565b8114610c7357600080fd5b50565b600081359050610c8581610c5f565b92915050565b600080fd5b6000601f19601f8301169050919050565b7f4e487b7100000000000000000000000000000000000000000000000000000000600052604160045260246000fd5b610cd982610c90565b810181811067ffffffffffffffff82111715610cf857610cf7610ca1565b5b80604052505050565b6000610d0b610c19565b9050610d178282610cd0565b919050565b600080fd5b600080fd5b600080fd5b600067ffffffffffffffff821115610d4657610d45610ca1565b5b610d4f82610c90565b9050602081019050919050565b82818337600083830152505050565b6000610d7e610d7984610d2b565b610d01565b905082815260208101848484011115610d9a57610d99610d26565b5b610da5848285610d5c565b509392505050565b600082601f830112610dc257610dc1610d21565b5b8135610dd2848260208601610d6b565b91505092915050565b60008115159050919050565b610df081610ddb565b8114610dfb57600080fd5b50565b600081359050610e0d81610de7565b92915050565b600060e08284031215610e2957610e28610c8b565b5b610e3360e0610d01565b9050600082013567ffffffffffffffff811115610e5357610e52610d1c565b5b610e5f84828501610dad565b600083015250602082013567ffffffffffffffff811115610e8357610e82610d1c565b5b610e8f84828501610dad565b602083015250604082013567ffffffffffffffff811115610eb357610eb2610d1c565b5b610ebf84828501610dad565b604083015250606082013567ffffffffffffffff811115610ee357610ee2610d1c565b5b610eef84828501610dad565b606083015250608082013567ffffffffffffffff811115610f1357610f12610d1c565b5b610f1f84828501610dad565b60808301525060a082013567ffffffffffffffff811115610f4357610f42610d1c565b5b610f4f84828501610dad565b60a08301525060c0610f6384828501610dfe565b60c08301525092915050565b60008060408385031215610f8657610f85610c23565b5b6000610f9485828601610c76565b925050602083013567ffffffffffffffff811115610fb557610fb4610c28565b5b610fc185828601610e13565b9150509250929050565b600060208284031215610fe157610fe0610c23565b5b6000610fef84828501610c76565b91505092915050565b600081519050919050565b600082825260208201905092915050565b60005b83811015611032578082015181840152602081019050611017565b83811115611041576000848401525b50505050565b600061105282610ff8565b61105c8185611003565b935061106c818560208601611014565b61107581610c90565b840191505092915050565b61108981610ddb565b82525050565b600060e08201905081810360008301526110a9818a611047565b905081810360208301526110bd8189611047565b905081810360408301526110d18188611047565b905081810360608301526110e58187611047565b905081810360808301526110f98186611047565b905081810360a083015261110d8185611047565b905061111c60c0830184611080565b98975050505050505050565b600082825260208201905092915050565b600061114482610ff8565b61114e8185611128565b935061115e818560208601611014565b61116781610c90565b840191505092915050565b61117b81610ddb565b82525050565b600060e083016000830151848203600086015261119e8282611139565b915050602083015184820360208601526111b88282611139565b915050604083015184820360408601526111d28282611139565b915050606083015184820360608601526111ec8282611139565b915050608083015184820360808601526112068282611139565b91505060a083015184820360a08601526112208282611139565b91505060c083015161123560c0860182611172565b508091505092915050565b6000602082019050818103600083015261125a8184611181565b905092915050565b61126b81610c4d565b82525050565b60006020820190506112866000830184611262565b92915050565b7f5961206578697374652075616e20706572736f6e61207265676973747261646160008201527f20636f6e20657365206164647265737300000000000000000000000000000000602082015250565b60006112e8603083611003565b91506112f38261128c565b604082019050919050565b60006020820190508181036000830152611317816112db565b9050919050565b7f4e487b7100000000000000000000000000000000000000000000000000000000600052602260045260246000fd5b6000600282049050600182168061136557607f821691505b602082108114156113795761137861131e565b5b50919050565b7f656e74726f206120636f6e73756c746172000000000000000000000000000000600082015250565b60006113b5601183611003565b91506113c08261137f565b602082019050919050565b600060208201905081810360008301526113e4816113a8565b9050919050565b7f6e6f2065786973746520656c207573756172696f000000000000000000000000600082015250565b6000611421601483611003565b915061142c826113eb565b602082019050919050565b6000602082019050818103600083015261145081611414565b9050919050565b7f4e6f20657869737465206573652070616369656e746500000000000000000000600082015250565b600061148d601683611003565b915061149882611457565b602082019050919050565b600060208201905081810360008301526114bc81611480565b9050919050565b7f7573756172696f2076616c69646f000000000000000000000000000000000000600082015250565b60006114f9600e83611003565b9150611504826114c3565b602082019050919050565b60006020820190508181036000830152611528816114ec565b905091905056fea2646970667358221220144eacde461b5137c2f09c869fe883fc7e2ddf3b4dafe7f4525ab5bec974ea9064736f6c634300080b0033",
  "immutableReferences": {},
  "source": "// SPDX-License-Identifier: MIT\npragma solidity >=0.4.22 <0.9.0; // TODO: Ajustar la versin por consenso con Jos\n\nimport \"../persistence/PersonaDAO.sol\";\nimport \"../logica/Paciente.sol\";\n\n// TODO: quiz todos los mtodos en lso service deban ser external (averiguar)\n// https://ethereum.stackexchange.com/questions/19380/external-vs-public-best-practices?answertab=active#tab-top\ncontract PacienteService {\n\n    event Log(string data);\n\n    address public creador;\n    PersonaDAO private personaDao;\n\n    constructor() public {\n        creador = msg.sender; // creador del contrato\n        personaDao = new PersonaDAO(); //TODO: verificar si queda guardado el objeto o si hay mejor manera\n    }\n\n    function activar() public returns (bool) {\n        address direccion = msg.sender;\n        // TODO: buscar persona en arreglo\n    }\n\n    // TODO: buscar porque es uint256\n    function registrar(address direccion, Paciente paciente) public {\n        // TODO: poner excepcion en caso de error\n        // personaDao.guardar(direccion, paciente);\n    }\n\n    // TODO: intentar dejarla como view\n    // TODO: Cambiar a paciente\n    function consultar(address direccion) external returns (PersonaStruct memory) {\n        // TODO: validar que sea paciente sino lanzar una excepcion\n        // TODO: mejorar o completar la conversion del tipo padre al hijo,preguntas al profe que se puede hacer\n        emit Log(\"entro a consultar\");\n        try personaDao.consultar(direccion) returns (PersonaStruct memory persona) {\n            // Paciente paciente = new Paciente();\n            // paciente.setPrimerApellido(persona.getPrimerApellido()); // ac se rompe\n            emit Log(\"encontro la persona\");            \n            return persona;\n        } catch Error(string memory /*reason*/){\n            emit Log(\"se rompio por un revert o require\");\n        }  catch (bytes memory /*lowLevelData*/){\n            emit Log(\"se rompio y ni idea porque \");\n        }      \n    }\n}\n",
  "sourcePath": "/home/felipe/Documentos/Blockchain/codigo/back-hce/contracts/service/PacienteService.sol",
  "compiler": {
    "name": "solc",
    "version": "0.8.11+commit.d7f03943.Emscripten.clang"
  },
  "schemaVersion": "3.4.4",
  "updatedAt": "2022-01-25T00:17:41.909Z",
  "networkType": "ethereum",
  "devdoc": {
    "kind": "dev",
    "methods": {},
    "version": 1
  },
  "userdoc": {
    "kind": "user",
    "methods": {},
    "version": 1
  }
}