{
  "contractName": "Paciente",
  "abi": [
    {
      "inputs": [],
      "stateMutability": "nonpayable",
      "type": "constructor"
    },
    {
      "anonymous": false,
      "inputs": [
        {
          "indexed": false,
          "internalType": "string",
          "name": "data",
          "type": "string"
        }
      ],
      "name": "Log",
      "type": "event"
    },
    {
      "inputs": [],
      "name": "ContratoPacienteDAOAddress",
      "outputs": [
        {
          "internalType": "address",
          "name": "",
          "type": "address"
        }
      ],
      "stateMutability": "view",
      "type": "function"
    },
    {
      "inputs": [],
      "name": "ContratoPersonaAddress",
      "outputs": [
        {
          "internalType": "address",
          "name": "",
          "type": "address"
        }
      ],
      "stateMutability": "view",
      "type": "function"
    },
    {
      "inputs": [],
      "name": "creador",
      "outputs": [
        {
          "internalType": "address",
          "name": "",
          "type": "address"
        }
      ],
      "stateMutability": "view",
      "type": "function"
    },
    {
      "inputs": [
        {
          "internalType": "address",
          "name": "direccion",
          "type": "address"
        },
        {
          "internalType": "string",
          "name": "estadoId",
          "type": "string"
        }
      ],
      "name": "cambiarEstado",
      "outputs": [],
      "stateMutability": "nonpayable",
      "type": "function"
    },
    {
      "inputs": [
        {
          "internalType": "address",
          "name": "direccion",
          "type": "address"
        }
      ],
      "name": "consultar",
      "outputs": [
        {
          "components": [
            {
              "components": [
                {
                  "internalType": "string",
                  "name": "primerNombre",
                  "type": "string"
                },
                {
                  "internalType": "string",
                  "name": "segundoNombre",
                  "type": "string"
                },
                {
                  "internalType": "string",
                  "name": "primerApellido",
                  "type": "string"
                },
                {
                  "internalType": "string",
                  "name": "segundoApellido",
                  "type": "string"
                },
                {
                  "internalType": "string",
                  "name": "identificacion",
                  "type": "string"
                },
                {
                  "components": [
                    {
                      "internalType": "string",
                      "name": "nombre",
                      "type": "string"
                    },
                    {
                      "internalType": "string",
                      "name": "descripcion",
                      "type": "string"
                    },
                    {
                      "internalType": "bool",
                      "name": "estaActiva",
                      "type": "bool"
                    }
                  ],
                  "internalType": "struct TipoIdentificacionStruct",
                  "name": "tipoIdentificacion",
                  "type": "tuple"
                },
                {
                  "internalType": "bool",
                  "name": "isValue",
                  "type": "bool"
                }
              ],
              "internalType": "struct PersonaStruct",
              "name": "persona",
              "type": "tuple"
            },
            {
              "components": [
                {
                  "internalType": "string",
                  "name": "estado",
                  "type": "string"
                },
                {
                  "internalType": "string",
                  "name": "datosPersonales",
                  "type": "string"
                },
                {
                  "internalType": "bool",
                  "name": "isValue",
                  "type": "bool"
                }
              ],
              "internalType": "struct PacienteStruct",
              "name": "paciente",
              "type": "tuple"
            }
          ],
          "internalType": "struct Paciente.PersonaPacienteStruct",
          "name": "pacienteInfo",
          "type": "tuple"
        }
      ],
      "stateMutability": "nonpayable",
      "type": "function"
    },
    {
      "inputs": [
        {
          "internalType": "address",
          "name": "direccion",
          "type": "address"
        }
      ],
      "name": "consultarPaciente",
      "outputs": [
        {
          "components": [
            {
              "internalType": "string",
              "name": "estado",
              "type": "string"
            },
            {
              "internalType": "string",
              "name": "datosPersonales",
              "type": "string"
            },
            {
              "internalType": "bool",
              "name": "isValue",
              "type": "bool"
            }
          ],
          "internalType": "struct PacienteStruct",
          "name": "",
          "type": "tuple"
        }
      ],
      "stateMutability": "nonpayable",
      "type": "function"
    },
    {
      "inputs": [
        {
          "internalType": "address",
          "name": "direccion",
          "type": "address"
        }
      ],
      "name": "consultarPersona",
      "outputs": [
        {
          "components": [
            {
              "internalType": "string",
              "name": "primerNombre",
              "type": "string"
            },
            {
              "internalType": "string",
              "name": "segundoNombre",
              "type": "string"
            },
            {
              "internalType": "string",
              "name": "primerApellido",
              "type": "string"
            },
            {
              "internalType": "string",
              "name": "segundoApellido",
              "type": "string"
            },
            {
              "internalType": "string",
              "name": "identificacion",
              "type": "string"
            },
            {
              "components": [
                {
                  "internalType": "string",
                  "name": "nombre",
                  "type": "string"
                },
                {
                  "internalType": "string",
                  "name": "descripcion",
                  "type": "string"
                },
                {
                  "internalType": "bool",
                  "name": "estaActiva",
                  "type": "bool"
                }
              ],
              "internalType": "struct TipoIdentificacionStruct",
              "name": "tipoIdentificacion",
              "type": "tuple"
            },
            {
              "internalType": "bool",
              "name": "isValue",
              "type": "bool"
            }
          ],
          "internalType": "struct PersonaStruct",
          "name": "",
          "type": "tuple"
        }
      ],
      "stateMutability": "nonpayable",
      "type": "function"
    },
    {
      "inputs": [
        {
          "internalType": "address",
          "name": "direccion",
          "type": "address"
        }
      ],
      "name": "setContratoPersonaAddress",
      "outputs": [],
      "stateMutability": "nonpayable",
      "type": "function"
    },
    {
      "inputs": [
        {
          "internalType": "address",
          "name": "direccion",
          "type": "address"
        }
      ],
      "name": "setContratoPacienteDAOAddress",
      "outputs": [],
      "stateMutability": "nonpayable",
      "type": "function"
    },
    {
      "inputs": [
        {
          "internalType": "address",
          "name": "direccion",
          "type": "address"
        },
        {
          "components": [
            {
              "internalType": "string",
              "name": "estado",
              "type": "string"
            },
            {
              "internalType": "string",
              "name": "datosPersonales",
              "type": "string"
            },
            {
              "internalType": "bool",
              "name": "isValue",
              "type": "bool"
            }
          ],
          "internalType": "struct PacienteStruct",
          "name": "paciente",
          "type": "tuple"
        }
      ],
      "name": "registrar",
      "outputs": [],
      "stateMutability": "nonpayable",
      "type": "function"
    }
  ],
  "bytecode": "0x608060405234801561001057600080fd5b50336000806101000a81548173ffffffffffffffffffffffffffffffffffffffff021916908373ffffffffffffffffffffffffffffffffffffffff160217905550611c7d806100606000396000f3fe608060405234801561001057600080fd5b506004361061009e5760003560e01c8063928c135c11610066578063928c135c1461014357806392ebdcd21461016157806398b8fe711461017f578063ad367021146101af578063bf1c5e51146101df5761009e565b806340cd7a60146100a35780634845da3e146100bf5780637580a026146100db5780637da8f6a5146100f757806381c88e7514610127575b600080fd5b6100bd60048036038101906100b89190610be0565b6101fd565b005b6100d960048036038101906100d49190610be0565b610332565b005b6100f560048036038101906100f09190610d53565b610467565b005b610111600480360381019061010c9190610be0565b61048c565b60405161011e9190611003565b60405180910390f35b610141600480360381019061013c91906110f7565b6104f0565b005b61014b610661565b6040516101589190611162565b60405180910390f35b610169610687565b6040516101769190611162565b60405180910390f35b61019960048036038101906101949190610be0565b6106ab565b6040516101a6919061123c565b60405180910390f35b6101c960048036038101906101c49190610be0565b6108a1565b6040516101d691906112b5565b60405180910390f35b6101e7610a97565b6040516101f49190611162565b60405180910390f35b60008054906101000a900473ffffffffffffffffffffffffffffffffffffffff1673ffffffffffffffffffffffffffffffffffffffff163373ffffffffffffffffffffffffffffffffffffffff161461028b576040517f08c379a000000000000000000000000000000000000000000000000000000000815260040161028290611380565b60405180910390fd5b80600260006101000a81548173ffffffffffffffffffffffffffffffffffffffff021916908373ffffffffffffffffffffffffffffffffffffffff160217905550600260009054906101000a900473ffffffffffffffffffffffffffffffffffffffff16600460006101000a81548173ffffffffffffffffffffffffffffffffffffffff021916908373ffffffffffffffffffffffffffffffffffffffff16021790555050565b60008054906101000a900473ffffffffffffffffffffffffffffffffffffffff1673ffffffffffffffffffffffffffffffffffffffff163373ffffffffffffffffffffffffffffffffffffffff16146103c0576040517f08c379a00000000000000000000000000000000000000000000000000000000081526004016103b790611380565b60405180910390fd5b80600160006101000a81548173ffffffffffffffffffffffffffffffffffffffff021916908373ffffffffffffffffffffffffffffffffffffffff160217905550600160009054906101000a900473ffffffffffffffffffffffffffffffffffffffff16600360006101000a81548173ffffffffffffffffffffffffffffffffffffffff021916908373ffffffffffffffffffffffffffffffffffffffff16021790555050565b6000610472836108a1565b905081816000018190525061048783826104f0565b505050565b610494610abd565b7fcf34ef537ac33ee1ac626ca1587a0a7e8e51561e5514f8cb36afa1c5102b3bab6040516104c1906113ec565b60405180910390a16104d2826108a1565b81602001819052506104e3826106ab565b8160000181905250919050565b600360009054906101000a900473ffffffffffffffffffffffffffffffffffffffff1673ffffffffffffffffffffffffffffffffffffffff1663b7b6c19983836040518363ffffffff1660e01b815260040161054d92919061140c565b600060405180830381600087803b15801561056757600080fd5b505af1925050508015610578575060015b61062757610584611449565b806308c379a01415610616575061059961146b565b806105a45750610618565b7fcf34ef537ac33ee1ac626ca1587a0a7e8e51561e5514f8cb36afa1c5102b3bab6040516105d190611573565b60405180910390a17fcf34ef537ac33ee1ac626ca1587a0a7e8e51561e5514f8cb36afa1c5102b3bab8160405161060891906115cc565b60405180910390a150610622565b505b3d6000803e3d6000fd5b61065d565b7fcf34ef537ac33ee1ac626ca1587a0a7e8e51561e5514f8cb36afa1c5102b3bab60405161065490611660565b60405180910390a15b5050565b600260009054906101000a900473ffffffffffffffffffffffffffffffffffffffff1681565b60008054906101000a900473ffffffffffffffffffffffffffffffffffffffff1681565b6106b3610ae3565b7fcf34ef537ac33ee1ac626ca1587a0a7e8e51561e5514f8cb36afa1c5102b3bab6040516106e0906113ec565b60405180910390a1600460009054906101000a900473ffffffffffffffffffffffffffffffffffffffff1673ffffffffffffffffffffffffffffffffffffffff16637da8f6a5836040518263ffffffff1660e01b81526004016107439190611162565b6000604051808303816000875af192505050801561078457506040513d6000823e3d601f19601f8201168201806040525081019061078191906118fd565b60015b61086357610790611449565b806308c379a0141561085757506107a561146b565b806107b05750610859565b7fcf34ef537ac33ee1ac626ca1587a0a7e8e51561e5514f8cb36afa1c5102b3bab6040516107dd90611573565b60405180910390a17fcf34ef537ac33ee1ac626ca1587a0a7e8e51561e5514f8cb36afa1c5102b3bab8160405161081491906115cc565b60405180910390a16040517f08c379a000000000000000000000000000000000000000000000000000000000815260040161084e90611992565b60405180910390fd5b505b3d6000803e3d6000fd5b7fcf34ef537ac33ee1ac626ca1587a0a7e8e51561e5514f8cb36afa1c5102b3bab604051610890906119fe565b60405180910390a180915050919050565b6108a9610b28565b7fcf34ef537ac33ee1ac626ca1587a0a7e8e51561e5514f8cb36afa1c5102b3bab6040516108d690611a6a565b60405180910390a1600360009054906101000a900473ffffffffffffffffffffffffffffffffffffffff1673ffffffffffffffffffffffffffffffffffffffff16637da8f6a5836040518263ffffffff1660e01b81526004016109399190611162565b6000604051808303816000875af192505050801561097a57506040513d6000823e3d601f19601f820116820180604052508101906109779190611b26565b60015b610a5957610986611449565b806308c379a01415610a4d575061099b61146b565b806109a65750610a4f565b7fcf34ef537ac33ee1ac626ca1587a0a7e8e51561e5514f8cb36afa1c5102b3bab6040516109d390611573565b60405180910390a17fcf34ef537ac33ee1ac626ca1587a0a7e8e51561e5514f8cb36afa1c5102b3bab81604051610a0a91906115cc565b60405180910390a16040517f08c379a0000000000000000000000000000000000000000000000000000000008152600401610a4490611bbb565b60405180910390fd5b505b3d6000803e3d6000fd5b7fcf34ef537ac33ee1ac626ca1587a0a7e8e51561e5514f8cb36afa1c5102b3bab604051610a8690611c27565b60405180910390a180915050919050565b600160009054906101000a900473ffffffffffffffffffffffffffffffffffffffff1681565b6040518060400160405280610ad0610ae3565b8152602001610add610b28565b81525090565b6040518060e001604052806060815260200160608152602001606081526020016060815260200160608152602001610b19610b4b565b81526020016000151581525090565b604051806060016040528060608152602001606081526020016000151581525090565b604051806060016040528060608152602001606081526020016000151581525090565b6000604051905090565b600080fd5b600080fd5b600073ffffffffffffffffffffffffffffffffffffffff82169050919050565b6000610bad82610b82565b9050919050565b610bbd81610ba2565b8114610bc857600080fd5b50565b600081359050610bda81610bb4565b92915050565b600060208284031215610bf657610bf5610b78565b5b6000610c0484828501610bcb565b91505092915050565b600080fd5b600080fd5b6000601f19601f8301169050919050565b7f4e487b7100000000000000000000000000000000000000000000000000000000600052604160045260246000fd5b610c6082610c17565b810181811067ffffffffffffffff82111715610c7f57610c7e610c28565b5b80604052505050565b6000610c92610b6e565b9050610c9e8282610c57565b919050565b600067ffffffffffffffff821115610cbe57610cbd610c28565b5b610cc782610c17565b9050602081019050919050565b82818337600083830152505050565b6000610cf6610cf184610ca3565b610c88565b905082815260208101848484011115610d1257610d11610c12565b5b610d1d848285610cd4565b509392505050565b600082601f830112610d3a57610d39610c0d565b5b8135610d4a848260208601610ce3565b91505092915050565b60008060408385031215610d6a57610d69610b78565b5b6000610d7885828601610bcb565b925050602083013567ffffffffffffffff811115610d9957610d98610b7d565b5b610da585828601610d25565b9150509250929050565b600081519050919050565b600082825260208201905092915050565b60005b83811015610de9578082015181840152602081019050610dce565b83811115610df8576000848401525b50505050565b6000610e0982610daf565b610e138185610dba565b9350610e23818560208601610dcb565b610e2c81610c17565b840191505092915050565b60008115159050919050565b610e4c81610e37565b82525050565b60006060830160008301518482036000860152610e6f8282610dfe565b91505060208301518482036020860152610e898282610dfe565b9150506040830151610e9e6040860182610e43565b508091505092915050565b600060e0830160008301518482036000860152610ec68282610dfe565b91505060208301518482036020860152610ee08282610dfe565b91505060408301518482036040860152610efa8282610dfe565b91505060608301518482036060860152610f148282610dfe565b91505060808301518482036080860152610f2e8282610dfe565b91505060a083015184820360a0860152610f488282610e52565b91505060c0830151610f5d60c0860182610e43565b508091505092915050565b60006060830160008301518482036000860152610f858282610dfe565b91505060208301518482036020860152610f9f8282610dfe565b9150506040830151610fb46040860182610e43565b508091505092915050565b60006040830160008301518482036000860152610fdc8282610ea9565b91505060208301518482036020860152610ff68282610f68565b9150508091505092915050565b6000602082019050818103600083015261101d8184610fbf565b905092915050565b600080fd5b600080fd5b61103881610e37565b811461104357600080fd5b50565b6000813590506110558161102f565b92915050565b60006060828403121561107157611070611025565b5b61107b6060610c88565b9050600082013567ffffffffffffffff81111561109b5761109a61102a565b5b6110a784828501610d25565b600083015250602082013567ffffffffffffffff8111156110cb576110ca61102a565b5b6110d784828501610d25565b60208301525060406110eb84828501611046565b60408301525092915050565b6000806040838503121561110e5761110d610b78565b5b600061111c85828601610bcb565b925050602083013567ffffffffffffffff81111561113d5761113c610b7d565b5b6111498582860161105b565b9150509250929050565b61115c81610ba2565b82525050565b60006020820190506111776000830184611153565b92915050565b600060e083016000830151848203600086015261119a8282610dfe565b915050602083015184820360208601526111b48282610dfe565b915050604083015184820360408601526111ce8282610dfe565b915050606083015184820360608601526111e88282610dfe565b915050608083015184820360808601526112028282610dfe565b91505060a083015184820360a086015261121c8282610e52565b91505060c083015161123160c0860182610e43565b508091505092915050565b60006020820190508181036000830152611256818461117d565b905092915050565b6000606083016000830151848203600086015261127b8282610dfe565b915050602083015184820360208601526112958282610dfe565b91505060408301516112aa6040860182610e43565b508091505092915050565b600060208201905081810360008301526112cf818461125e565b905092915050565b600082825260208201905092915050565b7f457374612066756e63696f6e20736f6c6f2070756564652073657220656a656360008201527f757461646120706f7220656c2063726561646f722064656c20636f6e7472617460208201527f6f00000000000000000000000000000000000000000000000000000000000000604082015250565b600061136a6041836112d7565b9150611375826112e8565b606082019050919050565b600060208201905081810360008301526113998161135d565b9050919050565b7f656e74726f206120636f6e73756c746172000000000000000000000000000000600082015250565b60006113d66011836112d7565b91506113e1826113a0565b602082019050919050565b60006020820190508181036000830152611405816113c9565b9050919050565b60006040820190506114216000830185611153565b8181036020830152611433818461125e565b90509392505050565b60008160e01c9050919050565b600060033d11156114685760046000803e61146560005161143c565b90505b90565b600060443d101561147b576114fe565b611483610b6e565b60043d036004823e80513d602482011167ffffffffffffffff821117156114ab5750506114fe565b808201805167ffffffffffffffff8111156114c957505050506114fe565b80602083010160043d0385018111156114e65750505050506114fe565b6114f582602001850186610c57565b82955050505050505b90565b7f736520726f6d70696f20706f7220756e20726576657274206f2072657175697260008201527f6500000000000000000000000000000000000000000000000000000000000000602082015250565b600061155d6021836112d7565b915061156882611501565b604082019050919050565b6000602082019050818103600083015261158c81611550565b9050919050565b600061159e82610daf565b6115a881856112d7565b93506115b8818560208601610dcb565b6115c181610c17565b840191505092915050565b600060208201905081810360008301526115e68184611593565b905092915050565b7f536520677561726461206c6120696e666f726d6163696f6e206465207061636960008201527f656e746520636f7272656374616d656e746520636f7272656374616d656e7465602082015250565b600061164a6040836112d7565b9150611655826115ee565b604082019050919050565b600060208201905081810360008301526116798161163d565b9050919050565b600061169361168e84610ca3565b610c88565b9050828152602081018484840111156116af576116ae610c12565b5b6116ba848285610dcb565b509392505050565b600082601f8301126116d7576116d6610c0d565b5b81516116e7848260208601611680565b91505092915050565b6000815190506116ff8161102f565b92915050565b60006060828403121561171b5761171a611025565b5b6117256060610c88565b9050600082015167ffffffffffffffff8111156117455761174461102a565b5b611751848285016116c2565b600083015250602082015167ffffffffffffffff8111156117755761177461102a565b5b611781848285016116c2565b6020830152506040611795848285016116f0565b60408301525092915050565b600060e082840312156117b7576117b6611025565b5b6117c160e0610c88565b9050600082015167ffffffffffffffff8111156117e1576117e061102a565b5b6117ed848285016116c2565b600083015250602082015167ffffffffffffffff8111156118115761181061102a565b5b61181d848285016116c2565b602083015250604082015167ffffffffffffffff8111156118415761184061102a565b5b61184d848285016116c2565b604083015250606082015167ffffffffffffffff8111156118715761187061102a565b5b61187d848285016116c2565b606083015250608082015167ffffffffffffffff8111156118a1576118a061102a565b5b6118ad848285016116c2565b60808301525060a082015167ffffffffffffffff8111156118d1576118d061102a565b5b6118dd84828501611705565b60a08301525060c06118f1848285016116f0565b60c08301525092915050565b60006020828403121561191357611912610b78565b5b600082015167ffffffffffffffff81111561193157611930610b7d565b5b61193d848285016117a1565b91505092915050565b7f4e6f20657869737465206573652070616369656e746500000000000000000000600082015250565b600061197c6016836112d7565b915061198782611946565b602082019050919050565b600060208201905081810360008301526119ab8161196f565b9050919050565b7f656e636f6e74726f206c6120706572736f6e6100000000000000000000000000600082015250565b60006119e86013836112d7565b91506119f3826119b2565b602082019050919050565b60006020820190508181036000830152611a17816119db565b9050919050565b7f656e74726f206120636f6e73756c7461722050616369656e7465000000000000600082015250565b6000611a54601a836112d7565b9150611a5f82611a1e565b602082019050919050565b60006020820190508181036000830152611a8381611a47565b9050919050565b600060608284031215611aa057611a9f611025565b5b611aaa6060610c88565b9050600082015167ffffffffffffffff811115611aca57611ac961102a565b5b611ad6848285016116c2565b600083015250602082015167ffffffffffffffff811115611afa57611af961102a565b5b611b06848285016116c2565b6020830152506040611b1a848285016116f0565b60408301525092915050565b600060208284031215611b3c57611b3b610b78565b5b600082015167ffffffffffffffff811115611b5a57611b59610b7d565b5b611b6684828501611a8a565b91505092915050565b7f4e6f20657869737465206573652050616369656e746500000000000000000000600082015250565b6000611ba56016836112d7565b9150611bb082611b6f565b602082019050919050565b60006020820190508181036000830152611bd481611b98565b9050919050565b7f656e636f6e74726f206c612050616369656e7465000000000000000000000000600082015250565b6000611c116014836112d7565b9150611c1c82611bdb565b602082019050919050565b60006020820190508181036000830152611c4081611c04565b905091905056fea2646970667358221220a8ccd62b505c833b324cbd76f995afa6d25d77227eda39c68f40cc4aa9dfd7a064736f6c634300080b0033",
  "immutableReferences": {},
  "source": "// SPDX-License-Identifier: MIT\npragma solidity ^0.8.10;\n\nimport \"./Persona.sol\";\nimport \"../models/PacienteStruct.sol\";\nimport \"../persistence/PacienteDAO.sol\";\n\n// TODO: cambiar el diagrama, no puede heredar pero si puede usar o componerse de persona\ncontract Paciente {\n    event Log(string data);\n    address public creador;\n    address public ContratoPacienteDAOAddress;\n    address public ContratoPersonaAddress;\n\n    PacienteDAO private contratoPacienteDAO;\n    Persona private contratoPersona;\n\n    struct PersonaPacienteStruct {\n        PersonaStruct persona;\n        PacienteStruct paciente;\n    }\n\n    constructor() {\n        creador = msg.sender; // creador del contrato\n    }\n\n    // TODO: poner modificador para que solo lo pueda ejecutar el service y \n    // en el service que solo lo ejecute un mdico\n    function cambiarEstado(address direccion, string memory estadoId) public {\n        PacienteStruct memory paciente = consultarPaciente(direccion);\n        // TODO: validar si el estado existe \n        paciente.estado = estadoId;\n        registrar(direccion, paciente);        \n    }\n\n    function consultar(address direccion)\n        public\n        returns (PersonaPacienteStruct memory pacienteInfo)\n    {\n        emit Log(\"entro a consultar\");\n        pacienteInfo.paciente = consultarPaciente(direccion);\n        pacienteInfo.persona = consultarPersona(direccion);\n    }\n\n    function consultarPaciente(address direccion)\n        public\n        returns (PacienteStruct memory)\n    {\n        emit Log(\"entro a consultar Paciente\");\n        try contratoPacienteDAO.consultar(direccion) returns (\n            PacienteStruct memory response\n        ) {\n            emit Log(\"encontro la Paciente\");\n            return response;\n        } catch Error(string memory e) {\n            /*reason*/\n            emit Log(\"se rompio por un revert o require\");\n            emit Log(e);\n            revert(\"No existe ese Paciente\");\n        }\n    }\n\n    function consultarPersona(address direccion)\n        public\n        returns (PersonaStruct memory)\n    {\n        emit Log(\"entro a consultar\");\n        try contratoPersona.consultar(direccion) returns (\n            PersonaStruct memory response\n        ) {\n            emit Log(\"encontro la persona\");\n            return response;\n        } catch Error(string memory e) {\n            /*reason*/\n            emit Log(\"se rompio por un revert o require\");\n            emit Log(e);\n            revert(\"No existe ese paciente\");\n        }\n    }\n\n    function setContratoPersonaAddress(address direccion) public esPropietario {\n        ContratoPersonaAddress = direccion;\n        contratoPersona = Persona(ContratoPersonaAddress);\n    }\n    function setContratoPacienteDAOAddress(address direccion) public esPropietario {\n        ContratoPacienteDAOAddress = direccion;\n        contratoPacienteDAO = PacienteDAO(ContratoPacienteDAOAddress);\n    }\n\n    function registrar(address direccion, PacienteStruct memory paciente) public {\n        try contratoPacienteDAO.guardar(direccion, paciente) {\n            emit Log(\"Se guarda la informacion de paciente correctamente correctamente\");\n        } catch Error(string memory data) {\n            /*reason*/\n            emit Log(\"se rompio por un revert o require\");\n            emit Log(data);\n        }\n    }\n\n\n    modifier esPropietario() {\n        require(\n            msg.sender == creador,\n            \"Esta funcion solo puede ser ejecutada por el creador del contrato\"\n        );\n        _; // ac se ejecuta la funcin\n    }\n}\n",
  "sourcePath": "/home/felipe/Documentos/Blockchain/codigo/back-hce/contracts/logica/Paciente.sol",
  "compiler": {
    "name": "solc",
    "version": "0.8.11+commit.d7f03943.Emscripten.clang"
  },
  "schemaVersion": "3.4.4",
  "updatedAt": "2022-02-05T03:00:20.655Z",
  "devdoc": {
    "kind": "dev",
    "methods": {},
    "version": 1
  },
  "userdoc": {
    "kind": "user",
    "methods": {},
    "version": 1
  }
}