{
  "contractName": "PacienteMapper",
  "abi": [
    {
      "inputs": [],
      "stateMutability": "nonpayable",
      "type": "constructor"
    },
    {
      "anonymous": false,
      "inputs": [
        {
          "indexed": false,
          "internalType": "string",
          "name": "data",
          "type": "string"
        }
      ],
      "name": "Log",
      "type": "event"
    },
    {
      "inputs": [],
      "name": "creador",
      "outputs": [
        {
          "internalType": "address",
          "name": "",
          "type": "address"
        }
      ],
      "stateMutability": "view",
      "type": "function",
      "constant": true
    },
    {
      "inputs": [
        {
          "internalType": "uint256",
          "name": "id",
          "type": "uint256"
        }
      ],
      "name": "consultarPorId",
      "outputs": [
        {
          "internalType": "contract PacienteVO",
          "name": "",
          "type": "address"
        }
      ],
      "stateMutability": "view",
      "type": "function",
      "constant": true
    },
    {
      "inputs": [
        {
          "internalType": "address",
          "name": "direccion",
          "type": "address"
        }
      ],
      "name": "consultar",
      "outputs": [
        {
          "internalType": "contract PacienteVO",
          "name": "",
          "type": "address"
        }
      ],
      "stateMutability": "view",
      "type": "function",
      "constant": true
    },
    {
      "inputs": [
        {
          "internalType": "address",
          "name": "direccion",
          "type": "address"
        },
        {
          "internalType": "contract PacienteVO",
          "name": "_paciente",
          "type": "address"
        }
      ],
      "name": "guardar",
      "outputs": [
        {
          "internalType": "uint256",
          "name": "",
          "type": "uint256"
        }
      ],
      "stateMutability": "nonpayable",
      "type": "function"
    },
    {
      "inputs": [
        {
          "internalType": "address",
          "name": "direccion",
          "type": "address"
        },
        {
          "internalType": "contract PacienteVO",
          "name": "paciente",
          "type": "address"
        }
      ],
      "name": "actualizar",
      "outputs": [],
      "stateMutability": "nonpayable",
      "type": "function"
    },
    {
      "inputs": [],
      "name": "size",
      "outputs": [
        {
          "internalType": "uint256",
          "name": "",
          "type": "uint256"
        }
      ],
      "stateMutability": "view",
      "type": "function",
      "constant": true
    },
    {
      "inputs": [],
      "name": "selfDestruct",
      "outputs": [],
      "stateMutability": "nonpayable",
      "type": "function"
    }
  ],
  "bytecode": "0x608060405234801561001057600080fd5b50600080546001600160a01b03191633179055610681806100326000396000f3fe608060405234801561001057600080fd5b506004361061007d5760003560e01c8063949d225d1161005b578063949d225d146100da5780639cb8a26a146100ec578063adb0a725146100f4578063be381c591461010757600080fd5b80630da7d7a5146100825780637da8f6a51461009757806392ebdcd2146100c7575b600080fd5b6100956100903660046105a6565b61011a565b005b6100aa6100a53660046105df565b6101da565b6040516001600160a01b0390911681526020015b60405180910390f35b6000546100aa906001600160a01b031681565b6002545b6040519081526020016100be565b61009561024a565b6100aa610102366004610603565b6102fe565b6100de6101153660046105a6565b610399565b6001600160a01b038281166000908152600160205260409020541661019f5760405162461bcd60e51b815260206004820152603060248201527f4e6f2065786973746520756e2070616369656e7465207265676973747261646f60448201526f20636f6e20657365206164647265737360801b60648201526084015b60405180910390fd5b6001600160a01b039182166000908152600160205260409020805473ffffffffffffffffffffffffffffffffffffffff191691909216179055565b6001600160a01b03808216600090815260016020526040812054909116806102445760405162461bcd60e51b815260206004820152601660248201527f4e6f20657869737465206573652070616369656e7465000000000000000000006044820152606401610196565b92915050565b6000546001600160a01b031633146102f05760405162461bcd60e51b815260206004820152604160248201527f457374612066756e63696f6e20736f6c6f2070756564652073657220656a656360448201527f757461646120706f7220656c2063726561646f722064656c20636f6e7472617460648201527f6f00000000000000000000000000000000000000000000000000000000000000608482015260a401610196565b6000546001600160a01b0316ff5b600080600283815481106103145761031461061c565b6000918252602090912001546001600160a01b03169050806103785760405162461bcd60e51b815260206004820152601660248201527f4e6f20657869737465206573652070616369656e7465000000000000000000006044820152606401610196565b6001600160a01b039081166000908152600160205260409020541692915050565b6001600160a01b038281166000908152600160205260408120549091161561049c577fcf34ef537ac33ee1ac626ca1587a0a7e8e51561e5514f8cb36afa1c5102b3bab6040516104339060208082526030908201527f59612065786973746520756e2070616369656e7465207265676973747261646f60408201526f20636f6e20657365206164647265737360801b606082015260800190565b60405180910390a160405162461bcd60e51b815260206004820152603060248201527f59612065786973746520756e2070616369656e7465207265676973747261646f60448201526f20636f6e20657365206164647265737360801b6064820152608401610196565b6002546040517fd0e0ba95000000000000000000000000000000000000000000000000000000008152600481018290526001600160a01b0384169063d0e0ba9590602401600060405180830381600087803b1580156104fa57600080fd5b505af115801561050e573d6000803e3d6000fd5b50506002805460018082019092557f405787fa12a823e0f2b7631cc41b3ba8828b3321ca811111fa75cd3aa3bb5ace0180546001600160a01b0398891673ffffffffffffffffffffffffffffffffffffffff1991821681179092556000918252602092909252604090208054969097169516949094179094559392505050565b6001600160a01b03811681146105a357600080fd5b50565b600080604083850312156105b957600080fd5b82356105c48161058e565b915060208301356105d48161058e565b809150509250929050565b6000602082840312156105f157600080fd5b81356105fc8161058e565b9392505050565b60006020828403121561061557600080fd5b5035919050565b7f4e487b7100000000000000000000000000000000000000000000000000000000600052603260045260246000fdfea2646970667358221220157a764511b1fd8b2902178889d07e2d8f3b58314888b0e3c402c3d7e90f28be64736f6c63430008110033",
  "immutableReferences": {},
  "source": "// SPDX-License-Identifier: MIT\npragma solidity ^0.8.17;\n// import \"../logica/Persona.sol\";\nimport \"../models/PacienteVO.sol\";\nimport \"./PacienteMapperInterface.sol\";\n\ncontract PacienteMapper is PacienteMapperInterface {\n    address public creador;\n\n    mapping(address => PacienteVO) private pacientes;\n    address[] private addressList; // NOTE Mapped Structs with Index\n\n    constructor() {\n        creador = msg.sender;\n    }\n\n    \n    function consultarPorId(uint256 id) external view returns (PacienteVO) {\n        address direccion = addressList[id];\n        if (direccion == address(0)) {\n            revert(\"No existe ese paciente\");\n        }\n        PacienteVO paciente = pacientes[direccion];\n        return paciente;\n    }\n\n    function consultar(address direccion) external view returns (PacienteVO) {\n        PacienteVO paciente = pacientes[direccion];\n        if (address(paciente) == address(0)) {\n            revert(\"No existe ese paciente\");\n        }\n        return paciente;\n    }\n\n    function guardar(address direccion, PacienteVO _paciente) public returns (uint256){\n        if (address(pacientes[direccion]) != address(0)) {\n            emit Log(\"Ya existe un paciente registrado con ese address\");\n            revert(\"Ya existe un paciente registrado con ese address\");\n        }\n        uint256 id = addressList.length;\n        _paciente.setId(id);\n        addressList.push(direccion);\n        pacientes[direccion] = _paciente;\n        return id; \n    }\n\n    function actualizar(address direccion, PacienteVO paciente) public {\n        if (address(pacientes[direccion]) == address(0)) {\n            revert(\"No existe un paciente registrado con ese address\");\n        }\n        pacientes[direccion] = paciente;\n    }\n\n    function size() external view returns (uint256) {\n        return addressList.length;\n    }\n\n    modifier esPropietario() {\n        require(\n            msg.sender == creador,\n            \"Esta funcion solo puede ser ejecutada por el creador del contrato\"\n        );\n        _; // ac se ejecuta la funcin\n    }\n\n    function selfDestruct() public esPropietario {\n        selfdestruct(payable(creador));\n    }\n}\n",
  "sourcePath": "/back/contracts/persistence/PacienteMapper.sol",
  "compiler": {
    "name": "solc",
    "version": "0.8.17+commit.8df45f5f.Emscripten.clang"
  },
  "schemaVersion": "3.4.13",
  "updatedAt": "2023-05-03T22:19:01.283Z",
  "networkType": "ethereum",
  "devdoc": {
    "kind": "dev",
    "methods": {},
    "version": 1
  },
  "userdoc": {
    "kind": "user",
    "methods": {},
    "version": 1
  }
}