{
  "contractName": "Paciente",
  "abi": [
    {
      "inputs": [],
      "stateMutability": "nonpayable",
      "type": "constructor"
    },
    {
      "anonymous": false,
      "inputs": [
        {
          "indexed": false,
          "internalType": "string",
          "name": "data",
          "type": "string"
        }
      ],
      "name": "Log",
      "type": "event"
    },
    {
      "inputs": [],
      "name": "creador",
      "outputs": [
        {
          "internalType": "address",
          "name": "",
          "type": "address"
        }
      ],
      "stateMutability": "view",
      "type": "function",
      "constant": true
    },
    {
      "inputs": [],
      "name": "consultar",
      "outputs": [
        {
          "components": [
            {
              "components": [
                {
                  "internalType": "address",
                  "name": "id",
                  "type": "address"
                },
                {
                  "internalType": "string",
                  "name": "primerNombre",
                  "type": "string"
                },
                {
                  "internalType": "string",
                  "name": "segundoNombre",
                  "type": "string"
                },
                {
                  "internalType": "string",
                  "name": "primerApellido",
                  "type": "string"
                },
                {
                  "internalType": "string",
                  "name": "segundoApellido",
                  "type": "string"
                },
                {
                  "internalType": "string",
                  "name": "identificacion",
                  "type": "string"
                },
                {
                  "internalType": "address",
                  "name": "tipoIdentificacion",
                  "type": "address"
                },
                {
                  "internalType": "bool",
                  "name": "isValue",
                  "type": "bool"
                }
              ],
              "internalType": "struct Persona.PersonaStruct",
              "name": "persona",
              "type": "tuple"
            },
            {
              "components": [
                {
                  "internalType": "uint256",
                  "name": "sexoId",
                  "type": "uint256"
                },
                {
                  "internalType": "uint256",
                  "name": "estadoCivilId",
                  "type": "uint256"
                },
                {
                  "internalType": "uint256",
                  "name": "fechaNacimiento",
                  "type": "uint256"
                },
                {
                  "internalType": "uint256",
                  "name": "edad",
                  "type": "uint256"
                },
                {
                  "internalType": "string",
                  "name": "ciudadResidencia",
                  "type": "string"
                },
                {
                  "internalType": "string",
                  "name": "ocupacion",
                  "type": "string"
                },
                {
                  "internalType": "string",
                  "name": "direccion",
                  "type": "string"
                },
                {
                  "internalType": "string",
                  "name": "telefono",
                  "type": "string"
                },
                {
                  "internalType": "uint256",
                  "name": "aseguradoraId",
                  "type": "uint256"
                },
                {
                  "internalType": "uint256",
                  "name": "tipoVinculacionId",
                  "type": "uint256"
                },
                {
                  "internalType": "uint256",
                  "name": "acudienteId",
                  "type": "uint256"
                }
              ],
              "internalType": "struct DatosPersonalesStruct",
              "name": "datosPersonales",
              "type": "tuple"
            },
            {
              "internalType": "address",
              "name": "estado",
              "type": "address"
            }
          ],
          "internalType": "struct PacienteVO.PacienteVOStruct",
          "name": "",
          "type": "tuple"
        }
      ],
      "stateMutability": "nonpayable",
      "type": "function"
    },
    {
      "inputs": [
        {
          "internalType": "address",
          "name": "direccion",
          "type": "address"
        }
      ],
      "name": "consultar",
      "outputs": [
        {
          "components": [
            {
              "components": [
                {
                  "internalType": "address",
                  "name": "id",
                  "type": "address"
                },
                {
                  "internalType": "string",
                  "name": "primerNombre",
                  "type": "string"
                },
                {
                  "internalType": "string",
                  "name": "segundoNombre",
                  "type": "string"
                },
                {
                  "internalType": "string",
                  "name": "primerApellido",
                  "type": "string"
                },
                {
                  "internalType": "string",
                  "name": "segundoApellido",
                  "type": "string"
                },
                {
                  "internalType": "string",
                  "name": "identificacion",
                  "type": "string"
                },
                {
                  "internalType": "address",
                  "name": "tipoIdentificacion",
                  "type": "address"
                },
                {
                  "internalType": "bool",
                  "name": "isValue",
                  "type": "bool"
                }
              ],
              "internalType": "struct Persona.PersonaStruct",
              "name": "persona",
              "type": "tuple"
            },
            {
              "components": [
                {
                  "internalType": "uint256",
                  "name": "sexoId",
                  "type": "uint256"
                },
                {
                  "internalType": "uint256",
                  "name": "estadoCivilId",
                  "type": "uint256"
                },
                {
                  "internalType": "uint256",
                  "name": "fechaNacimiento",
                  "type": "uint256"
                },
                {
                  "internalType": "uint256",
                  "name": "edad",
                  "type": "uint256"
                },
                {
                  "internalType": "string",
                  "name": "ciudadResidencia",
                  "type": "string"
                },
                {
                  "internalType": "string",
                  "name": "ocupacion",
                  "type": "string"
                },
                {
                  "internalType": "string",
                  "name": "direccion",
                  "type": "string"
                },
                {
                  "internalType": "string",
                  "name": "telefono",
                  "type": "string"
                },
                {
                  "internalType": "uint256",
                  "name": "aseguradoraId",
                  "type": "uint256"
                },
                {
                  "internalType": "uint256",
                  "name": "tipoVinculacionId",
                  "type": "uint256"
                },
                {
                  "internalType": "uint256",
                  "name": "acudienteId",
                  "type": "uint256"
                }
              ],
              "internalType": "struct DatosPersonalesStruct",
              "name": "datosPersonales",
              "type": "tuple"
            },
            {
              "internalType": "address",
              "name": "estado",
              "type": "address"
            }
          ],
          "internalType": "struct PacienteVO.PacienteVOStruct",
          "name": "",
          "type": "tuple"
        }
      ],
      "stateMutability": "nonpayable",
      "type": "function"
    },
    {
      "inputs": [
        {
          "internalType": "address",
          "name": "direccion",
          "type": "address"
        },
        {
          "internalType": "contract PacienteVO",
          "name": "paciente",
          "type": "address"
        }
      ],
      "name": "registrar",
      "outputs": [],
      "stateMutability": "nonpayable",
      "type": "function"
    },
    {
      "inputs": [
        {
          "internalType": "address",
          "name": "direccion",
          "type": "address"
        },
        {
          "components": [
            {
              "components": [
                {
                  "internalType": "address",
                  "name": "id",
                  "type": "address"
                },
                {
                  "internalType": "string",
                  "name": "primerNombre",
                  "type": "string"
                },
                {
                  "internalType": "string",
                  "name": "segundoNombre",
                  "type": "string"
                },
                {
                  "internalType": "string",
                  "name": "primerApellido",
                  "type": "string"
                },
                {
                  "internalType": "string",
                  "name": "segundoApellido",
                  "type": "string"
                },
                {
                  "internalType": "string",
                  "name": "identificacion",
                  "type": "string"
                },
                {
                  "internalType": "address",
                  "name": "tipoIdentificacion",
                  "type": "address"
                },
                {
                  "internalType": "bool",
                  "name": "isValue",
                  "type": "bool"
                }
              ],
              "internalType": "struct Persona.PersonaStruct",
              "name": "persona",
              "type": "tuple"
            },
            {
              "components": [
                {
                  "internalType": "uint256",
                  "name": "sexoId",
                  "type": "uint256"
                },
                {
                  "internalType": "uint256",
                  "name": "estadoCivilId",
                  "type": "uint256"
                },
                {
                  "internalType": "uint256",
                  "name": "fechaNacimiento",
                  "type": "uint256"
                },
                {
                  "internalType": "uint256",
                  "name": "edad",
                  "type": "uint256"
                },
                {
                  "internalType": "string",
                  "name": "ciudadResidencia",
                  "type": "string"
                },
                {
                  "internalType": "string",
                  "name": "ocupacion",
                  "type": "string"
                },
                {
                  "internalType": "string",
                  "name": "direccion",
                  "type": "string"
                },
                {
                  "internalType": "string",
                  "name": "telefono",
                  "type": "string"
                },
                {
                  "internalType": "uint256",
                  "name": "aseguradoraId",
                  "type": "uint256"
                },
                {
                  "internalType": "uint256",
                  "name": "tipoVinculacionId",
                  "type": "uint256"
                },
                {
                  "internalType": "uint256",
                  "name": "acudienteId",
                  "type": "uint256"
                }
              ],
              "internalType": "struct DatosPersonalesStruct",
              "name": "datosPersonales",
              "type": "tuple"
            },
            {
              "internalType": "address",
              "name": "estado",
              "type": "address"
            }
          ],
          "internalType": "struct PacienteVO.PacienteVOStruct",
          "name": "pacienteVOStruct",
          "type": "tuple"
        }
      ],
      "name": "registrarConStruct",
      "outputs": [],
      "stateMutability": "nonpayable",
      "type": "function"
    },
    {
      "inputs": [
        {
          "internalType": "contract PacienteVO",
          "name": "paciente",
          "type": "address"
        }
      ],
      "name": "actualizar",
      "outputs": [],
      "stateMutability": "nonpayable",
      "type": "function"
    },
    {
      "inputs": [
        {
          "internalType": "address",
          "name": "_direccion",
          "type": "address"
        },
        {
          "internalType": "contract EstadoVO",
          "name": "_estado",
          "type": "address"
        }
      ],
      "name": "cambiarEstado",
      "outputs": [],
      "stateMutability": "nonpayable",
      "type": "function"
    },
    {
      "inputs": [
        {
          "internalType": "contract PacienteMapperInterface",
          "name": "_pacienteMapperAddress",
          "type": "address"
        }
      ],
      "name": "setPacienteMapper",
      "outputs": [],
      "stateMutability": "nonpayable",
      "type": "function"
    },
    {
      "inputs": [
        {
          "internalType": "contract RolMapperInterface",
          "name": "_rolMapperAddress",
          "type": "address"
        }
      ],
      "name": "setRolMapper",
      "outputs": [],
      "stateMutability": "nonpayable",
      "type": "function"
    },
    {
      "inputs": [
        {
          "internalType": "contract UsuarioMapperInterface",
          "name": "_usuarioMapperAddress",
          "type": "address"
        }
      ],
      "name": "setUsuarioMapper",
      "outputs": [],
      "stateMutability": "nonpayable",
      "type": "function"
    },
    {
      "inputs": [
        {
          "internalType": "contract Acceso",
          "name": "_accesoAddress",
          "type": "address"
        }
      ],
      "name": "setAcceso",
      "outputs": [],
      "stateMutability": "nonpayable",
      "type": "function"
    },
    {
      "inputs": [],
      "name": "selfDestruct",
      "outputs": [],
      "stateMutability": "nonpayable",
      "type": "function"
    }
  ],
  "bytecode": "0x6080604052600160055534801561001557600080fd5b50600080546001600160a01b03191633179055613c39806100376000396000f3fe608060405234801561001057600080fd5b50600436106100d45760003560e01c8063731188e71161008157806392ebdcd21161005b57806392ebdcd2146101915780639cb8a26a146101bc5780639fa09ef4146101c457600080fd5b8063731188e71461015857806378775d321461016b5780637da8f6a51461017e57600080fd5b8063596e15e6116100b2578063596e15e6146101145780635fabf8ff1461012757806370f05f971461013a57600080fd5b806307b37d1d146100d9578063137d4722146100ee5780631d18376014610101575b600080fd5b6100ec6100e7366004611231565b6101d7565b005b6100ec6100fc36600461126a565b610547565b6100ec61010f36600461126a565b610600565b6100ec61012236600461126a565b6106b9565b6100ec6101353660046114fb565b610772565b610142610826565b60405161014f91906117b7565b60405180910390f35b6100ec61016636600461126a565b610a60565b6100ec61017936600461126a565b610b95565b61014261018c36600461126a565b610c4e565b6000546101a4906001600160a01b031681565b6040516001600160a01b03909116815260200161014f565b6100ec610e65565b6100ec6101d2366004611231565b610efd565b6001600160a01b038216331461025a5760405162461bcd60e51b815260206004820152602860248201527f556e2070616369656e746520736520646562652072656769737472617220612060448201527f7369206d69736d6f00000000000000000000000000000000000000000000000060648201526084015b60405180910390fd5b6002546005546040517fb10b65ce00000000000000000000000000000000000000000000000000000000815260048101919091526000916001600160a01b03169063b10b65ce906024016020604051808303816000875af11580156102c3573d6000803e3d6000fd5b505050506040513d601f19601f820116820180604052508101906102e791906118e6565b905060006040516102f790611119565b604051809103906000f080158015610313573d6000803e3d6000fd5b506040517f5745ab980000000000000000000000000000000000000000000000000000000081526001600160a01b03868116600483015291925090821690635745ab9890602401600060405180830381600087803b15801561037457600080fd5b505af1158015610388573d6000803e3d6000fd5b50506040517fce8dd29f0000000000000000000000000000000000000000000000000000000081526001600160a01b0385811660048301528416925063ce8dd29f9150602401600060405180830381600087803b1580156103e857600080fd5b505af11580156103fc573d6000803e3d6000fd5b50506040517ffdaef483000000000000000000000000000000000000000000000000000000008152600160048201526001600160a01b038416925063fdaef4839150602401600060405180830381600087803b15801561045b57600080fd5b505af115801561046f573d6000803e3d6000fd5b505060035460405163be381c5960e01b81526001600160a01b0388811660048301528581166024830152909116925063be381c599150604401600060405180830381600087803b1580156104c257600080fd5b505af11580156104d6573d6000803e3d6000fd5b505060015460405163be381c5960e01b81526001600160a01b0388811660048301528781166024830152909116925063be381c599150604401600060405180830381600087803b15801561052957600080fd5b505af115801561053d573d6000803e3d6000fd5b5050505050505050565b6000546001600160a01b031633146105d15760405162461bcd60e51b815260206004820152604160248201527f457374612066756e63696f6e20736f6c6f2070756564652073657220656a656360448201527f757461646120706f7220656c2063726561646f722064656c20636f6e747261746064820152606f60f81b608482015260a401610251565b6004805473ffffffffffffffffffffffffffffffffffffffff19166001600160a01b0392909216919091179055565b6000546001600160a01b0316331461068a5760405162461bcd60e51b815260206004820152604160248201527f457374612066756e63696f6e20736f6c6f2070756564652073657220656a656360448201527f757461646120706f7220656c2063726561646f722064656c20636f6e747261746064820152606f60f81b608482015260a401610251565b6001805473ffffffffffffffffffffffffffffffffffffffff19166001600160a01b0392909216919091179055565b6000546001600160a01b031633146107435760405162461bcd60e51b815260206004820152604160248201527f457374612066756e63696f6e20736f6c6f2070756564652073657220656a656360448201527f757461646120706f7220656c2063726561646f722064656c20636f6e747261746064820152606f60f81b608482015260a401610251565b6003805473ffffffffffffffffffffffffffffffffffffffff19166001600160a01b0392909216919091179055565b600060405161078090611126565b604051809103906000f08015801561079c573d6000803e3d6000fd5b506040517f4e9012e00000000000000000000000000000000000000000000000000000000081529091506001600160a01b03821690634e9012e0906107e59085906004016117b7565b600060405180830381600087803b1580156107ff57600080fd5b505af1158015610813573d6000803e3d6000fd5b5050505061082183826101d7565b505050565b61082e611133565b600480546040516336a664e960e11b81523392810192909252600260248301819052916000916001600160a01b031690636d4cc9d2906044016020604051808303816000875af1158015610886573d6000803e3d6000fd5b505050506040513d601f19601f820116820180604052508101906108aa919061190e565b9050806108f95760405162461bcd60e51b815260206004820152601a60248201527f456c207573756172696f206e6f207469656e652061636365736f0000000000006044820152606401610251565b7fcf34ef537ac33ee1ac626ca1587a0a7e8e51561e5514f8cb36afa1c5102b3bab60405161097e9060208082526028908201527f456e74726f206120636f6e73756c746172206d69496e666f726d6163696f6e2060408201527f70616369656e7465000000000000000000000000000000000000000000000000606082015260800190565b60405180910390a1600154604051637da8f6a560e01b81523360048201526001600160a01b0390911690637da8f6a5906024016020604051808303816000875af11580156109d0573d6000803e3d6000fd5b505050506040513d601f19601f820116820180604052508101906109f491906118e6565b6001600160a01b03166359d1cfd66040518163ffffffff1660e01b8152600401600060405180830381865afa158015610a31573d6000803e3d6000fd5b505050506040513d6000823e601f3d908101601f19168201604052610a599190810190611a80565b9250505090565b600480546040516336a664e960e11b81523392810192909252600360248301819052916000916001600160a01b031690636d4cc9d2906044016020604051808303816000875af1158015610ab8573d6000803e3d6000fd5b505050506040513d601f19601f82011682018060405250810190610adc919061190e565b905080610b2b5760405162461bcd60e51b815260206004820152601a60248201527f456c207573756172696f206e6f207469656e652061636365736f0000000000006044820152606401610251565b600154604051630da7d7a560e01b81523360048201526001600160a01b03858116602483015290911690630da7d7a590604401600060405180830381600087803b158015610b7857600080fd5b505af1158015610b8c573d6000803e3d6000fd5b50505050505050565b6000546001600160a01b03163314610c1f5760405162461bcd60e51b815260206004820152604160248201527f457374612066756e63696f6e20736f6c6f2070756564652073657220656a656360448201527f757461646120706f7220656c2063726561646f722064656c20636f6e747261746064820152606f60f81b608482015260a401610251565b6002805473ffffffffffffffffffffffffffffffffffffffff19166001600160a01b0392909216919091179055565b610c56611133565b600480546040516336a664e960e11b81523392810192909252600160248301819052916000916001600160a01b031690636d4cc9d2906044016020604051808303816000875af1158015610cae573d6000803e3d6000fd5b505050506040513d601f19601f82011682018060405250810190610cd2919061190e565b905080610d215760405162461bcd60e51b815260206004820152601a60248201527f456c207573756172696f206e6f207469656e652061636365736f0000000000006044820152606401610251565b7fcf34ef537ac33ee1ac626ca1587a0a7e8e51561e5514f8cb36afa1c5102b3bab604051610d80906020808252601a908201527f456e74726f206120636f6e73756c7461722050616369656e7465000000000000604082015260600190565b60405180910390a1600154604051637da8f6a560e01b81526001600160a01b03868116600483015290911690637da8f6a5906024016020604051808303816000875af1158015610dd4573d6000803e3d6000fd5b505050506040513d601f19601f82011682018060405250810190610df891906118e6565b6001600160a01b03166359d1cfd66040518163ffffffff1660e01b8152600401600060405180830381865afa158015610e35573d6000803e3d6000fd5b505050506040513d6000823e601f3d908101601f19168201604052610e5d9190810190611a80565b949350505050565b6000546001600160a01b03163314610eef5760405162461bcd60e51b815260206004820152604160248201527f457374612066756e63696f6e20736f6c6f2070756564652073657220656a656360448201527f757461646120706f7220656c2063726561646f722064656c20636f6e747261746064820152606f60f81b608482015260a401610251565b6000546001600160a01b0316ff5b600480546040516336a664e960e11b81523381840152602481018390526000916001600160a01b031690636d4cc9d2906044016020604051808303816000875af1158015610f4f573d6000803e3d6000fd5b505050506040513d601f19601f82011682018060405250810190610f73919061190e565b905080610fc25760405162461bcd60e51b815260206004820152601a60248201527f456c207573756172696f206e6f207469656e652061636365736f0000000000006044820152606401610251565b600154604051637da8f6a560e01b81526001600160a01b0386811660048301526000921690637da8f6a5906024016020604051808303816000875af115801561100f573d6000803e3d6000fd5b505050506040513d601f19601f8201168201806040525081019061103391906118e6565b6040517fef974e800000000000000000000000000000000000000000000000000000000081526001600160a01b0386811660048301529192509082169063ef974e8090602401600060405180830381600087803b15801561109357600080fd5b505af11580156110a7573d6000803e3d6000fd5b5050600154604051630da7d7a560e01b81526001600160a01b03898116600483015285811660248301529091169250630da7d7a59150604401600060405180830381600087803b1580156110fa57600080fd5b505af115801561110e573d6000803e3d6000fd5b505050505050505050565b6105b380611c1383390190565b611a3e806121c683390190565b604051806060016040528061119a60405180610100016040528060006001600160a01b03168152602001606081526020016060815260200160608152602001606081526020016060815260200160006001600160a01b031681526020016000151581525090565b81526020016111fc60405180610160016040528060008152602001600081526020016000815260200160008152602001606081526020016060815260200160608152602001606081526020016000815260200160008152602001600081525090565b8152600060209091015290565b6001600160a01b038116811461121e57600080fd5b50565b803561122c81611209565b919050565b6000806040838503121561124457600080fd5b823561124f81611209565b9150602083013561125f81611209565b809150509250929050565b60006020828403121561127c57600080fd5b813561128781611209565b9392505050565b7f4e487b7100000000000000000000000000000000000000000000000000000000600052604160045260246000fd5b604051610160810167ffffffffffffffff811182821017156112e1576112e161128e565b60405290565b6040516060810167ffffffffffffffff811182821017156112e1576112e161128e565b604051610100810167ffffffffffffffff811182821017156112e1576112e161128e565b604051601f8201601f1916810167ffffffffffffffff811182821017156113575761135761128e565b604052919050565b600067ffffffffffffffff8211156113795761137961128e565b50601f01601f191660200190565b600082601f83011261139857600080fd5b81356113ab6113a68261135f565b61132e565b8181528460208386010111156113c057600080fd5b816020850160208301376000918101602001919091529392505050565b801515811461121e57600080fd5b803561122c816113dd565b6000610160828403121561140957600080fd5b6114116112bd565b905081358152602082013560208201526040820135604082015260608201356060820152608082013567ffffffffffffffff8082111561145057600080fd5b61145c85838601611387565b608084015260a084013591508082111561147557600080fd5b61148185838601611387565b60a084015260c084013591508082111561149a57600080fd5b6114a685838601611387565b60c084015260e08401359150808211156114bf57600080fd5b506114cc84828501611387565b60e083015250610100828101359082015261012080830135908201526101409182013591810191909152919050565b6000806040838503121561150e57600080fd5b823561151981611209565b9150602083013567ffffffffffffffff8082111561153657600080fd5b908401906060828703121561154a57600080fd5b6115526112e7565b82358281111561156157600080fd5b8301610100818903121561157457600080fd5b61157c61130a565b61158582611221565b815260208201358481111561159957600080fd5b6115a58a828501611387565b6020830152506040820135848111156115bd57600080fd5b6115c98a828501611387565b6040830152506060820135848111156115e157600080fd5b6115ed8a828501611387565b60608301525060808201358481111561160557600080fd5b6116118a828501611387565b60808301525060a08201358481111561162957600080fd5b6116358a828501611387565b60a08301525061164760c08301611221565b60c082015261165860e083016113eb565b60e082015282525060208301358281111561167257600080fd5b61167e888286016113f6565b60208301525061169060408401611221565b60408201528093505050509250929050565b60005b838110156116bd5781810151838201526020016116a5565b838111156116cc576000848401525b50505050565b600081518084526116ea8160208601602086016116a2565b601f01601f19169290920160200192915050565b600061016082518452602083015160208501526040830151604085015260608301516060850152608083015181608086015261173c828601826116d2565b91505060a083015184820360a086015261175682826116d2565b91505060c083015184820360c086015261177082826116d2565b91505060e083015184820360e086015261178a82826116d2565b61010085810151908701526101208086015190870152610140948501519490950193909352509192915050565b6020815260008251606060208401526117dc6080840182516001600160a01b03169052565b60208101516101008060a08601526117f86101808601836116d2565b91506040830151607f19808785030160c088015261181684836116d2565b935060608501519150808785030160e088015261183384836116d2565b93506080850151915080878503018388015261184f84836116d2565b935060a085015192508087850301610120880152505061186f82826116d2565b91505060c082015161188d6101408601826001600160a01b03169052565b5060e082015191506118a461016085018315159052565b6020850151848203601f1901604086015291506118c181836116fe565b91505060408401516118de60608501826001600160a01b03169052565b509392505050565b6000602082840312156118f857600080fd5b815161128781611209565b805161122c816113dd565b60006020828403121561192057600080fd5b8151611287816113dd565b805161122c81611209565b600082601f83011261194757600080fd5b81516119556113a68261135f565b81815284602083860101111561196a57600080fd5b610e5d8260208301602087016116a2565b6000610160828403121561198e57600080fd5b6119966112bd565b905081518152602082015160208201526040820151604082015260608201516060820152608082015167ffffffffffffffff808211156119d557600080fd5b6119e185838601611936565b608084015260a08401519150808211156119fa57600080fd5b611a0685838601611936565b60a084015260c0840151915080821115611a1f57600080fd5b611a2b85838601611936565b60c084015260e0840151915080821115611a4457600080fd5b50611a5184828501611936565b60e083015250610100828101519082015261012080830151908201526101409182015191810191909152919050565b600060208284031215611a9257600080fd5b815167ffffffffffffffff80821115611aaa57600080fd5b9083019060608286031215611abe57600080fd5b611ac66112e7565b825182811115611ad557600080fd5b83016101008188031215611ae857600080fd5b611af061130a565b611af98261192b565b8152602082015184811115611b0d57600080fd5b611b1989828501611936565b602083015250604082015184811115611b3157600080fd5b611b3d89828501611936565b604083015250606082015184811115611b5557600080fd5b611b6189828501611936565b606083015250608082015184811115611b7957600080fd5b611b8589828501611936565b60808301525060a082015184811115611b9d57600080fd5b611ba989828501611936565b60a083015250611bbb60c0830161192b565b60c0820152611bcc60e08301611903565b60e0820152825250602083015182811115611be657600080fd5b611bf28782860161197b565b602083015250611c046040840161192b565b60408201529594505050505056fe608060405234801561001057600080fd5b50610593806100206000396000f3fe608060405234801561001057600080fd5b506004361061007d5760003560e01c8063af9958461161005b578063af99584614610100578063c3e00aff1461011d578063ce8dd29f1461012e578063fdaef4831461016b57600080fd5b80635745ab981461008257806360749724146100c157806364ff6bbe146100eb575b600080fd5b6100bf6100903660046102d9565b6000805473ffffffffffffffffffffffffffffffffffffffff19166001600160a01b0392909216919091179055565b005b6000546001600160a01b03165b6040516001600160a01b0390911681526020015b60405180910390f35b6100f36101b2565b6040516100e29190610359565b600154600160a01b900460ff1660405190151581526020016100e2565b6001546001600160a01b03166100ce565b6100bf61013c3660046102d9565b6001805473ffffffffffffffffffffffffffffffffffffffff19166001600160a01b0392909216919091179055565b6100bf6101793660046103d3565b60018054911515600160a01b027fffffffffffffffffffffff00ffffffffffffffffffffffffffffffffffffffff909216919091179055565b6101ba610275565b60408051606081018252600080546001600160a01b03908116835260015484517fea1a6f29000000000000000000000000000000000000000000000000000000008152945193946020860194919092169263ea1a6f2992600480820193918290030181865afa158015610231573d6000803e3d6000fd5b505050506040513d6000823e601f3d908101601f1916820160405261025991908101906104ac565b8152600154600160a01b900460ff161515602090910152919050565b604051806060016040528060006001600160a01b031681526020016102b460405180606001604052806000815260200160608152602001606081525090565b8152600060209091015290565b6001600160a01b03811681146102d657600080fd5b50565b6000602082840312156102eb57600080fd5b81356102f6816102c1565b9392505050565b60005b83811015610318578181015183820152602001610300565b83811115610327576000848401525b50505050565b600081518084526103458160208601602086016102fd565b601f01601f19169290920160200192915050565b602081526001600160a01b0382511660208201526000602083015160606040840152805160808401526020810151606060a085015261039b60e085018261032d565b905060408201519150607f198482030160c08501526103ba818361032d565b9150506040840151151560608401528091505092915050565b6000602082840312156103e557600080fd5b813580151581146102f657600080fd5b7f4e487b7100000000000000000000000000000000000000000000000000000000600052604160045260246000fd5b600082601f83011261043557600080fd5b815167ffffffffffffffff80821115610450576104506103f5565b604051601f8301601f19908116603f01168101908282118183101715610478576104786103f5565b8160405283815286602085880101111561049157600080fd5b6104a28460208301602089016102fd565b9695505050505050565b6000602082840312156104be57600080fd5b815167ffffffffffffffff808211156104d657600080fd5b90830190606082860312156104ea57600080fd5b604051606081018181108382111715610505576105056103f5565b6040528251815260208301518281111561051e57600080fd5b61052a87828601610424565b60208301525060408301518281111561054257600080fd5b61054e87828601610424565b6040830152509594505050505056fea264697066735822122018ba06da1c812d524a8b65ffd9acb609bd4b89bf9c75f44c29e8d633d300e8aa64736f6c634300080b0033608060405234801561001057600080fd5b50611a1e806100206000396000f3fe608060405234801561001057600080fd5b50600436106101985760003560e01c806378c7e292116100e3578063b2f9ccbb1161008c578063d1e360ff11610066578063d1e360ff14610387578063eacd3b93146103b7578063ef974e80146103bf57600080fd5b8063b2f9ccbb14610364578063c461d52e1461036c578063cc9f930e1461037457600080fd5b80638ba68607116100bd5780638ba686071461033857806399355ed8146103495780639ac9abd01461035c57600080fd5b806378c7e292146102c95780637d5c30321461031057806383cb77b01461032557600080fd5b80634e9012e0116101455780635d1ca6311161011f5780635d1ca631146102805780636d07d7e3146102a55780636ec1eecc146102b657600080fd5b80634e9012e014610245578063551a5cfa1461025857806359d1cfd61461026b57600080fd5b80633c3c069f116101765780633c3c069f146102005780633ca452b91461021d5780634e8c23ca1461023257600080fd5b806303c5e52a1461019d57806328fd4873146101bb5780632cb41958146101d0575b600080fd5b6101a56103ef565b6040516101b2919061136d565b60405180910390f35b6101ce6101c9366004611478565b6106e8565b005b6101ce6101de3660046114dd565b600080546001600160a01b0319166001600160a01b0392909216919091179055565b600654600160a01b900460ff1660405190151581526020016101b2565b6102256106ff565b6040516101b291906114fa565b6101ce610240366004611478565b610791565b6101ce610253366004611734565b6107a4565b6101ce610266366004611478565b610889565b61027361089c565b6040516101b291906118bc565b6000546001600160a01b03165b6040516001600160a01b0390911681526020016101b2565b6007546001600160a01b031661028d565b6101ce6102c4366004611915565b610b74565b6101ce6102d736600461194a565b60068054911515600160a01b027fffffffffffffffffffffff00ffffffffffffffffffffffffffffffffffffffff909216919091179055565b610318610c6f565b6040516101b29190611965565b6101ce610333366004611478565b610fe2565b6006546001600160a01b031661028d565b6101ce610357366004611978565b610ff5565b6102256110a9565b6102256110b8565b6102256110c7565b6101ce610382366004611478565b6110d6565b6101ce6103953660046114dd565b600680546001600160a01b0319166001600160a01b0392909216919091179055565b6102256110e9565b6101ce6103cd3660046114dd565b600780546001600160a01b0319166001600160a01b0392909216919091179055565b61044c60405180610160016040528060008152602001600081526020016000815260200160008152602001606081526020016060815260200160608152602001606081526020016000815260200160008152602001600081525090565b60408051610160810182526008805482526009546020830152600a5492820192909252600b546060820152600c805491929160808401919061048d906119ad565b80601f01602080910402602001604051908101604052809291908181526020018280546104b9906119ad565b80156105065780601f106104db57610100808354040283529160200191610506565b820191906000526020600020905b8154815290600101906020018083116104e957829003601f168201915b5050505050815260200160058201805461051f906119ad565b80601f016020809104026020016040519081016040528092919081815260200182805461054b906119ad565b80156105985780601f1061056d57610100808354040283529160200191610598565b820191906000526020600020905b81548152906001019060200180831161057b57829003601f168201915b505050505081526020016006820180546105b1906119ad565b80601f01602080910402602001604051908101604052809291908181526020018280546105dd906119ad565b801561062a5780601f106105ff5761010080835404028352916020019161062a565b820191906000526020600020905b81548152906001019060200180831161060d57829003601f168201915b50505050508152602001600782018054610643906119ad565b80601f016020809104026020016040519081016040528092919081815260200182805461066f906119ad565b80156106bc5780601f10610691576101008083540402835291602001916106bc565b820191906000526020600020905b81548152906001019060200180831161069f57829003601f168201915b505050505081526020016008820154815260200160098201548152602001600a82015481525050905090565b80516106fb9060059060208401906110f8565b5050565b60606001805461070e906119ad565b80601f016020809104026020016040519081016040528092919081815260200182805461073a906119ad565b80156107875780601f1061075c57610100808354040283529160200191610787565b820191906000526020600020905b81548152906001019060200180831161076a57829003601f168201915b5050505050905090565b80516106fb9060049060208401906110f8565b80516107af90610b74565b60208082015180516008908155818301516009556040820151600a556060820151600b5560808201518051929391926107ec92600c9201906110f8565b5060a082015180516108089160058401916020909101906110f8565b5060c082015180516108249160068401916020909101906110f8565b5060e082015180516108409160078401916020909101906110f8565b506101008201516008820155610120820151600982015561014090910151600a9091015560400151600780546001600160a01b0319166001600160a01b03909216919091179055565b80516106fb9060029060208401906110f8565b6108a461117c565b60405180606001604052806108b7610c6f565b815260200160086040518061016001604052908160008201548152602001600182015481526020016002820154815260200160038201548152602001600482018054610902906119ad565b80601f016020809104026020016040519081016040528092919081815260200182805461092e906119ad565b801561097b5780601f106109505761010080835404028352916020019161097b565b820191906000526020600020905b81548152906001019060200180831161095e57829003601f168201915b50505050508152602001600582018054610994906119ad565b80601f01602080910402602001604051908101604052809291908181526020018280546109c0906119ad565b8015610a0d5780601f106109e257610100808354040283529160200191610a0d565b820191906000526020600020905b8154815290600101906020018083116109f057829003601f168201915b50505050508152602001600682018054610a26906119ad565b80601f0160208091040260200160405190810160405280929190818152602001828054610a52906119ad565b8015610a9f5780601f10610a7457610100808354040283529160200191610a9f565b820191906000526020600020905b815481529060010190602001808311610a8257829003601f168201915b50505050508152602001600782018054610ab8906119ad565b80601f0160208091040260200160405190810160405280929190818152602001828054610ae4906119ad565b8015610b315780601f10610b0657610100808354040283529160200191610b31565b820191906000526020600020905b815481529060010190602001808311610b1457829003601f168201915b5050509183525050600882015460208083019190915260098301546040830152600a909201546060909101529082526007546001600160a01b0316910152919050565b8051600080546001600160a01b0319166001600160a01b039092169190911790556020808201518051610bab9260019201906110f8565b5060408101518051610bc5916002916020909101906110f8565b5060608101518051610bdf916003916020909101906110f8565b5060808101518051610bf9916004916020909101906110f8565b5060a08101518051610c13916005916020909101906110f8565b5060e08101516006805460c0909301516001600160a01b03166001600160a01b0319921515600160a01b02929092167fffffffffffffffffffffff00000000000000000000000000000000000000000090931692909217179055565b610ccb60405180610100016040528060006001600160a01b03168152602001606081526020016060815260200160608152602001606081526020016060815260200160006001600160a01b031681526020016000151581525090565b6040805161010081019091526000546001600160a01b0316815260018054602083019190610cf8906119ad565b80601f0160208091040260200160405190810160405280929190818152602001828054610d24906119ad565b8015610d715780601f10610d4657610100808354040283529160200191610d71565b820191906000526020600020905b815481529060010190602001808311610d5457829003601f168201915b5050505050815260200160028054610d88906119ad565b80601f0160208091040260200160405190810160405280929190818152602001828054610db4906119ad565b8015610e015780601f10610dd657610100808354040283529160200191610e01565b820191906000526020600020905b815481529060010190602001808311610de457829003601f168201915b5050505050815260200160038054610e18906119ad565b80601f0160208091040260200160405190810160405280929190818152602001828054610e44906119ad565b8015610e915780601f10610e6657610100808354040283529160200191610e91565b820191906000526020600020905b815481529060010190602001808311610e7457829003601f168201915b5050505050815260200160048054610ea8906119ad565b80601f0160208091040260200160405190810160405280929190818152602001828054610ed4906119ad565b8015610f215780601f10610ef657610100808354040283529160200191610f21565b820191906000526020600020905b815481529060010190602001808311610f0457829003601f168201915b5050505050815260200160058054610f38906119ad565b80601f0160208091040260200160405190810160405280929190818152602001828054610f64906119ad565b8015610fb15780601f10610f8657610100808354040283529160200191610fb1565b820191906000526020600020905b815481529060010190602001808311610f9457829003601f168201915b50505091835250506006546001600160a01b0381166020830152600160a01b900460ff161515604090910152919050565b80516106fb9060019060208401906110f8565b805160089081556020808301516009556040830151600a556060830151600b556080830151805184939261102e92600c929101906110f8565b5060a0820151805161104a9160058401916020909101906110f8565b5060c082015180516110669160068401916020909101906110f8565b5060e082015180516110829160078401916020909101906110f8565b506101008201516008820155610120820151600982015561014090910151600a9091015550565b60606005805461070e906119ad565b60606002805461070e906119ad565b60606003805461070e906119ad565b80516106fb9060039060208401906110f8565b60606004805461070e906119ad565b828054611104906119ad565b90600052602060002090601f016020900481019282611126576000855561116c565b82601f1061113f57805160ff191683800117855561116c565b8280016001018555821561116c579182015b8281111561116c578251825591602001919060010190611151565b50611178929150611252565b5090565b60405180606001604052806111e360405180610100016040528060006001600160a01b03168152602001606081526020016060815260200160608152602001606081526020016060815260200160006001600160a01b031681526020016000151581525090565b815260200161124560405180610160016040528060008152602001600081526020016000815260200160008152602001606081526020016060815260200160608152602001606081526020016000815260200160008152602001600081525090565b8152600060209091015290565b5b808211156111785760008155600101611253565b6000815180845260005b8181101561128d57602081850181015186830182015201611271565b8181111561129f576000602083870101525b50601f01601f19169290920160200192915050565b60006101608251845260208301516020850152604083015160408501526060830151606085015260808301518160808601526112f282860182611267565b91505060a083015184820360a086015261130c8282611267565b91505060c083015184820360c08601526113268282611267565b91505060e083015184820360e08601526113408282611267565b61010085810151908701526101208086015190870152610140948501519490950193909352509192915050565b60208152600061138060208301846112b4565b9392505050565b634e487b7160e01b600052604160045260246000fd5b604051610100810167ffffffffffffffff811182821017156113c1576113c1611387565b60405290565b604051610160810167ffffffffffffffff811182821017156113c1576113c1611387565b600082601f8301126113fc57600080fd5b813567ffffffffffffffff8082111561141757611417611387565b604051601f8301601f19908116603f0116810190828211818310171561143f5761143f611387565b8160405283815286602085880101111561145857600080fd5b836020870160208301376000602085830101528094505050505092915050565b60006020828403121561148a57600080fd5b813567ffffffffffffffff8111156114a157600080fd5b6114ad848285016113eb565b949350505050565b6001600160a01b03811681146114ca57600080fd5b50565b80356114d8816114b5565b919050565b6000602082840312156114ef57600080fd5b8135611380816114b5565b6020815260006113806020830184611267565b803580151581146114d857600080fd5b6000610100828403121561153057600080fd5b61153861139d565b9050611543826114cd565b8152602082013567ffffffffffffffff8082111561156057600080fd5b61156c858386016113eb565b6020840152604084013591508082111561158557600080fd5b611591858386016113eb565b604084015260608401359150808211156115aa57600080fd5b6115b6858386016113eb565b606084015260808401359150808211156115cf57600080fd5b6115db858386016113eb565b608084015260a08401359150808211156115f457600080fd5b50611601848285016113eb565b60a08301525061161360c083016114cd565b60c082015261162460e0830161150d565b60e082015292915050565b6000610160828403121561164257600080fd5b61164a6113c7565b905081358152602082013560208201526040820135604082015260608201356060820152608082013567ffffffffffffffff8082111561168957600080fd5b611695858386016113eb565b608084015260a08401359150808211156116ae57600080fd5b6116ba858386016113eb565b60a084015260c08401359150808211156116d357600080fd5b6116df858386016113eb565b60c084015260e08401359150808211156116f857600080fd5b50611705848285016113eb565b60e083015250610100828101359082015261012080830135908201526101409182013591810191909152919050565b60006020828403121561174657600080fd5b813567ffffffffffffffff8082111561175e57600080fd5b908301906060828603121561177257600080fd5b60405160608101818110838211171561178d5761178d611387565b60405282358281111561179f57600080fd5b6117ab8782860161151d565b8252506020830135828111156117c057600080fd5b6117cc8782860161162f565b602083015250604083013592506117e2836114b5565b6040810192909252509392505050565b80516001600160a01b031682526000610100602083015181602086015261181b82860182611267565b915050604083015184820360408601526118358282611267565b9150506060830151848203606086015261184f8282611267565b915050608083015184820360808601526118698282611267565b91505060a083015184820360a08601526118838282611267565b91505060c08301516118a060c08601826001600160a01b03169052565b5060e08301516118b460e086018215159052565b509392505050565b6020815260008251606060208401526118d860808401826117f2565b90506020840151601f198483030160408501526118f582826112b4565b9150506001600160a01b0360408501511660608401528091505092915050565b60006020828403121561192757600080fd5b813567ffffffffffffffff81111561193e57600080fd5b6114ad8482850161151d565b60006020828403121561195c57600080fd5b6113808261150d565b60208152600061138060208301846117f2565b60006020828403121561198a57600080fd5b813567ffffffffffffffff8111156119a157600080fd5b6114ad8482850161162f565b600181811c908216806119c157607f821691505b602082108114156119e257634e487b7160e01b600052602260045260246000fd5b5091905056fea2646970667358221220e6757aa6dadf327f583485d07fdf8bcb6ea23746493be7c590ea94865ab2567d64736f6c634300080b0033a2646970667358221220d0687361e2a509d4543ea5ea021ecc93f8967693e2c4193fa4f40c0de4c3f34864736f6c634300080b0033",
  "immutableReferences": {},
  "source": "// SPDX-License-Identifier: MIT\npragma solidity ^0.8.10;\n\n//import \"./Persona.sol\";\nimport \"../models/PacienteVO.sol\";\nimport \"../persistence/PacienteMapper.sol\";\nimport \"./Acceso.sol\";\n\ncontract Paciente {\n    event Log(string data);\n    address public creador;\n\n    PacienteMapperInterface private pacienteMapper;\n    RolMapperInterface private rolMapper;\n    UsuarioMapperInterface private usuarioMapper;\n    Acceso private acceso;\n\n    struct testStructure {\n        PacienteVO.PersonaStruct persona;\n        address id;\n        string primerNombre;\n        string segundoNombre;\n        string primerApellido;\n        string segundoApellido;\n        string identificacion;\n        TipoIdentificacionVO.TipoIdentificacionVOStruct tipoIdentificacion;\n        bool isValue;\n    }\n    struct testStructure2 {\n        uint256 sexoId;\n        uint256 estadoCivilId;\n        uint256 fechaNacimiento;\n        uint256 edad;\n        string ciudadResidencia;\n        string ocupacion;\n        string direccion;\n        string telefono;\n        uint256 aseguradoraId;\n        uint256 tipoVinculacionId;\n        uint256 acudienteId;\n    }\n\n    //TODO Convertir eventualmente en un enum\n    uint256 rolPacienteId = 1;\n\n    constructor() {\n        creador = msg.sender; // creador del contrato\n    }\n\n    // Puede el medico\n    function consultar(address direccion)\n        public\n        tieneAcceso(1)\n        returns (PacienteVO.PacienteVOStruct memory)\n    {\n        emit Log(\"Entro a consultar Paciente\");\n        return pacienteMapper.consultar(direccion).getPacienteVOValue();\n    }\n\n    // TODO Agregar a diagrama\n    // Solo lo puede usar el paciente\n    function consultar()\n        public\n        tieneAcceso(2)\n        returns (PacienteVO.PacienteVOStruct memory)\n    {\n        emit Log(\"Entro a consultar miInformacion paciente\");\n        return pacienteMapper.consultar(msg.sender).getPacienteVOValue();\n    }\n\n    // TODO: validar que pasa si falla el registro de persona\n    // TODO: que pasa si falla guardar paciente?\n    //tieneAcceso(2)\n    function registrar(address direccion, PacienteVO paciente) public {\n        if (direccion != msg.sender) {\n            revert(\"Un paciente se debe registrar a si mismo\");\n        }\n\n        RolVO rol = rolMapper.consultar(rolPacienteId);\n        UsuarioVO nuevoUsuario = new UsuarioVO();\n        nuevoUsuario.setDireccion(direccion);\n        nuevoUsuario.setRol(rol);\n        nuevoUsuario.setEstaActivo(true);\n        usuarioMapper.guardar(direccion, nuevoUsuario);\n        pacienteMapper.guardar(direccion, paciente);\n        // TODO Crear HC\n    }\n\n    // TODO: validar que pasa si falla el registro de persona\n    // TODO: que pasa si falla guardar paciente?\n    //tieneAcceso(2)\n    function registrarConStruct(\n        address direccion,\n        PacienteVO.PacienteVOStruct memory pacienteVOStruct\n    ) public {\n        PacienteVO pacienteVO = new PacienteVO();\n        pacienteVO.setValuesOfPacienteVOStruct(pacienteVOStruct);\n        registrar(direccion, pacienteVO);        \n    }\n\n    /*\n    // TODO: Discutir si un mdico debe actualizar al paciente (nombre y demas)\n    // TODO: Sollo se podria acceder con el acceso que da el paciente sobre su info\n    function actualizar(address direccion, PacienteVO paciente)\n        public\n        tieneAcceso(3)\n    {\n        if (direccion != msg.sender) {\n            // si alguien diferente al propietario de la historia la consulta se debe validar quien es\n            // validar quien consulta\n            revert(\"No tiene permisos de actualizar\");\n        }\n        // bloquear actualizacin de estado\n        pacienteMapper.actualizar(direccion, paciente);\n    }\n    */\n\n    function actualizar(PacienteVO paciente) public tieneAcceso(3) {\n        // bloquear actualizacin de estado\n        pacienteMapper.actualizar(msg.sender, paciente);\n    }\n\n    // TODO: poner modificador para que solo lo pueda ejecutar el service y\n    // en el service que solo lo ejecute un mdico\n    // TODO: Debe usar el permiso que da el paciente\n    function cambiarEstado(address _direccion, EstadoVO _estado)\n        public\n        tieneAcceso(4)\n    {\n        PacienteVO paciente = pacienteMapper.consultar(_direccion);\n        paciente.setEstado(_estado);\n        pacienteMapper.actualizar(_direccion, paciente);\n    }\n\n    function setPacienteMapper(PacienteMapperInterface _pacienteMapperAddress)\n        public\n        esPropietario\n    {\n        pacienteMapper = _pacienteMapperAddress;\n    }\n\n    function setRolMapper(RolMapperInterface _rolMapperAddress)\n        public\n        esPropietario\n    {\n        rolMapper = _rolMapperAddress;\n    }\n\n    function setUsuarioMapper(UsuarioMapperInterface _usuarioMapperAddress)\n        public\n        esPropietario\n    {\n        usuarioMapper = _usuarioMapperAddress;\n    }\n\n    function setAcceso(Acceso _accesoAddress) public esPropietario {\n        acceso = _accesoAddress;\n    }\n\n    modifier esPropietario() {\n        require(\n            msg.sender == creador,\n            \"Esta funcion solo puede ser ejecutada por el creador del contrato\"\n        );\n        _; // ac se ejecuta la funcin\n    }\n\n    function selfDestruct() public esPropietario {\n        selfdestruct(payable(creador));\n    }\n\n    modifier tieneAcceso(uint256 permisoId) {\n        bool esAccesible = acceso.validarPermisoDeRol(msg.sender, permisoId);\n        require(esAccesible, \"El usuario no tiene acceso\");\n        _; // ac se ejecuta la funcin\n    }\n}\n",
  "sourcePath": "/home/felipe/Documentos/Blockchain/codigo/back-hce/contracts/logica/Paciente.sol",
  "compiler": {
    "name": "solc",
    "version": "0.8.11+commit.d7f03943.Emscripten.clang"
  },
  "schemaVersion": "3.4.8",
  "updatedAt": "2022-07-17T17:46:45.621Z",
  "networkType": "ethereum",
  "devdoc": {
    "kind": "dev",
    "methods": {},
    "version": 1
  },
  "userdoc": {
    "kind": "user",
    "methods": {},
    "version": 1
  }
}