{
  "contractName": "Paciente",
  "abi": [
    {
      "inputs": [],
      "stateMutability": "nonpayable",
      "type": "constructor"
    },
    {
      "anonymous": false,
      "inputs": [
        {
          "indexed": false,
          "internalType": "string",
          "name": "data",
          "type": "string"
        }
      ],
      "name": "Log",
      "type": "event"
    },
    {
      "inputs": [],
      "name": "creador",
      "outputs": [
        {
          "internalType": "address",
          "name": "",
          "type": "address"
        }
      ],
      "stateMutability": "view",
      "type": "function",
      "constant": true
    },
    {
      "inputs": [],
      "name": "consultar",
      "outputs": [
        {
          "components": [
            {
              "components": [
                {
                  "internalType": "address",
                  "name": "id",
                  "type": "address"
                },
                {
                  "internalType": "string",
                  "name": "primerNombre",
                  "type": "string"
                },
                {
                  "internalType": "string",
                  "name": "segundoNombre",
                  "type": "string"
                },
                {
                  "internalType": "string",
                  "name": "primerApellido",
                  "type": "string"
                },
                {
                  "internalType": "string",
                  "name": "segundoApellido",
                  "type": "string"
                },
                {
                  "internalType": "string",
                  "name": "identificacion",
                  "type": "string"
                },
                {
                  "internalType": "uint256",
                  "name": "tipoIdentificacion",
                  "type": "uint256"
                },
                {
                  "internalType": "bool",
                  "name": "isValue",
                  "type": "bool"
                }
              ],
              "internalType": "struct Persona.PersonaStruct",
              "name": "persona",
              "type": "tuple"
            },
            {
              "components": [
                {
                  "internalType": "uint256",
                  "name": "sexoId",
                  "type": "uint256"
                },
                {
                  "internalType": "uint256",
                  "name": "estadoCivilId",
                  "type": "uint256"
                },
                {
                  "internalType": "uint256",
                  "name": "fechaNacimiento",
                  "type": "uint256"
                },
                {
                  "internalType": "uint256",
                  "name": "edad",
                  "type": "uint256"
                },
                {
                  "internalType": "string",
                  "name": "ciudadResidencia",
                  "type": "string"
                },
                {
                  "internalType": "string",
                  "name": "ocupacion",
                  "type": "string"
                },
                {
                  "internalType": "string",
                  "name": "direccion",
                  "type": "string"
                },
                {
                  "internalType": "string",
                  "name": "telefono",
                  "type": "string"
                },
                {
                  "internalType": "uint256",
                  "name": "aseguradoraId",
                  "type": "uint256"
                },
                {
                  "internalType": "uint256",
                  "name": "tipoVinculacionId",
                  "type": "uint256"
                },
                {
                  "internalType": "uint256",
                  "name": "acudienteId",
                  "type": "uint256"
                }
              ],
              "internalType": "struct DatosPersonalesStruct",
              "name": "datosPersonales",
              "type": "tuple"
            },
            {
              "internalType": "uint256",
              "name": "estadoId",
              "type": "uint256"
            }
          ],
          "internalType": "struct PacienteVO.PacienteVOStruct",
          "name": "",
          "type": "tuple"
        }
      ],
      "stateMutability": "nonpayable",
      "type": "function"
    },
    {
      "inputs": [
        {
          "internalType": "address",
          "name": "direccion",
          "type": "address"
        }
      ],
      "name": "consultar",
      "outputs": [
        {
          "components": [
            {
              "components": [
                {
                  "internalType": "address",
                  "name": "id",
                  "type": "address"
                },
                {
                  "internalType": "string",
                  "name": "primerNombre",
                  "type": "string"
                },
                {
                  "internalType": "string",
                  "name": "segundoNombre",
                  "type": "string"
                },
                {
                  "internalType": "string",
                  "name": "primerApellido",
                  "type": "string"
                },
                {
                  "internalType": "string",
                  "name": "segundoApellido",
                  "type": "string"
                },
                {
                  "internalType": "string",
                  "name": "identificacion",
                  "type": "string"
                },
                {
                  "internalType": "uint256",
                  "name": "tipoIdentificacion",
                  "type": "uint256"
                },
                {
                  "internalType": "bool",
                  "name": "isValue",
                  "type": "bool"
                }
              ],
              "internalType": "struct Persona.PersonaStruct",
              "name": "persona",
              "type": "tuple"
            },
            {
              "components": [
                {
                  "internalType": "uint256",
                  "name": "sexoId",
                  "type": "uint256"
                },
                {
                  "internalType": "uint256",
                  "name": "estadoCivilId",
                  "type": "uint256"
                },
                {
                  "internalType": "uint256",
                  "name": "fechaNacimiento",
                  "type": "uint256"
                },
                {
                  "internalType": "uint256",
                  "name": "edad",
                  "type": "uint256"
                },
                {
                  "internalType": "string",
                  "name": "ciudadResidencia",
                  "type": "string"
                },
                {
                  "internalType": "string",
                  "name": "ocupacion",
                  "type": "string"
                },
                {
                  "internalType": "string",
                  "name": "direccion",
                  "type": "string"
                },
                {
                  "internalType": "string",
                  "name": "telefono",
                  "type": "string"
                },
                {
                  "internalType": "uint256",
                  "name": "aseguradoraId",
                  "type": "uint256"
                },
                {
                  "internalType": "uint256",
                  "name": "tipoVinculacionId",
                  "type": "uint256"
                },
                {
                  "internalType": "uint256",
                  "name": "acudienteId",
                  "type": "uint256"
                }
              ],
              "internalType": "struct DatosPersonalesStruct",
              "name": "datosPersonales",
              "type": "tuple"
            },
            {
              "internalType": "uint256",
              "name": "estadoId",
              "type": "uint256"
            }
          ],
          "internalType": "struct PacienteVO.PacienteVOStruct",
          "name": "",
          "type": "tuple"
        }
      ],
      "stateMutability": "nonpayable",
      "type": "function"
    },
    {
      "inputs": [
        {
          "internalType": "uint256",
          "name": "id",
          "type": "uint256"
        }
      ],
      "name": "consultarPorId",
      "outputs": [
        {
          "components": [
            {
              "components": [
                {
                  "internalType": "address",
                  "name": "id",
                  "type": "address"
                },
                {
                  "internalType": "string",
                  "name": "primerNombre",
                  "type": "string"
                },
                {
                  "internalType": "string",
                  "name": "segundoNombre",
                  "type": "string"
                },
                {
                  "internalType": "string",
                  "name": "primerApellido",
                  "type": "string"
                },
                {
                  "internalType": "string",
                  "name": "segundoApellido",
                  "type": "string"
                },
                {
                  "internalType": "string",
                  "name": "identificacion",
                  "type": "string"
                },
                {
                  "internalType": "uint256",
                  "name": "tipoIdentificacion",
                  "type": "uint256"
                },
                {
                  "internalType": "bool",
                  "name": "isValue",
                  "type": "bool"
                }
              ],
              "internalType": "struct Persona.PersonaStruct",
              "name": "persona",
              "type": "tuple"
            },
            {
              "components": [
                {
                  "internalType": "uint256",
                  "name": "sexoId",
                  "type": "uint256"
                },
                {
                  "internalType": "uint256",
                  "name": "estadoCivilId",
                  "type": "uint256"
                },
                {
                  "internalType": "uint256",
                  "name": "fechaNacimiento",
                  "type": "uint256"
                },
                {
                  "internalType": "uint256",
                  "name": "edad",
                  "type": "uint256"
                },
                {
                  "internalType": "string",
                  "name": "ciudadResidencia",
                  "type": "string"
                },
                {
                  "internalType": "string",
                  "name": "ocupacion",
                  "type": "string"
                },
                {
                  "internalType": "string",
                  "name": "direccion",
                  "type": "string"
                },
                {
                  "internalType": "string",
                  "name": "telefono",
                  "type": "string"
                },
                {
                  "internalType": "uint256",
                  "name": "aseguradoraId",
                  "type": "uint256"
                },
                {
                  "internalType": "uint256",
                  "name": "tipoVinculacionId",
                  "type": "uint256"
                },
                {
                  "internalType": "uint256",
                  "name": "acudienteId",
                  "type": "uint256"
                }
              ],
              "internalType": "struct DatosPersonalesStruct",
              "name": "datosPersonales",
              "type": "tuple"
            },
            {
              "internalType": "uint256",
              "name": "estadoId",
              "type": "uint256"
            }
          ],
          "internalType": "struct PacienteVO.PacienteVOStruct",
          "name": "",
          "type": "tuple"
        }
      ],
      "stateMutability": "nonpayable",
      "type": "function"
    },
    {
      "inputs": [
        {
          "internalType": "address",
          "name": "direccion",
          "type": "address"
        },
        {
          "internalType": "contract PacienteVO",
          "name": "paciente",
          "type": "address"
        }
      ],
      "name": "registrar",
      "outputs": [],
      "stateMutability": "nonpayable",
      "type": "function"
    },
    {
      "inputs": [
        {
          "internalType": "address",
          "name": "direccion",
          "type": "address"
        },
        {
          "components": [
            {
              "components": [
                {
                  "internalType": "address",
                  "name": "id",
                  "type": "address"
                },
                {
                  "internalType": "string",
                  "name": "primerNombre",
                  "type": "string"
                },
                {
                  "internalType": "string",
                  "name": "segundoNombre",
                  "type": "string"
                },
                {
                  "internalType": "string",
                  "name": "primerApellido",
                  "type": "string"
                },
                {
                  "internalType": "string",
                  "name": "segundoApellido",
                  "type": "string"
                },
                {
                  "internalType": "string",
                  "name": "identificacion",
                  "type": "string"
                },
                {
                  "internalType": "uint256",
                  "name": "tipoIdentificacion",
                  "type": "uint256"
                },
                {
                  "internalType": "bool",
                  "name": "isValue",
                  "type": "bool"
                }
              ],
              "internalType": "struct Persona.PersonaStruct",
              "name": "persona",
              "type": "tuple"
            },
            {
              "components": [
                {
                  "internalType": "uint256",
                  "name": "sexoId",
                  "type": "uint256"
                },
                {
                  "internalType": "uint256",
                  "name": "estadoCivilId",
                  "type": "uint256"
                },
                {
                  "internalType": "uint256",
                  "name": "fechaNacimiento",
                  "type": "uint256"
                },
                {
                  "internalType": "uint256",
                  "name": "edad",
                  "type": "uint256"
                },
                {
                  "internalType": "string",
                  "name": "ciudadResidencia",
                  "type": "string"
                },
                {
                  "internalType": "string",
                  "name": "ocupacion",
                  "type": "string"
                },
                {
                  "internalType": "string",
                  "name": "direccion",
                  "type": "string"
                },
                {
                  "internalType": "string",
                  "name": "telefono",
                  "type": "string"
                },
                {
                  "internalType": "uint256",
                  "name": "aseguradoraId",
                  "type": "uint256"
                },
                {
                  "internalType": "uint256",
                  "name": "tipoVinculacionId",
                  "type": "uint256"
                },
                {
                  "internalType": "uint256",
                  "name": "acudienteId",
                  "type": "uint256"
                }
              ],
              "internalType": "struct DatosPersonalesStruct",
              "name": "datosPersonales",
              "type": "tuple"
            },
            {
              "internalType": "uint256",
              "name": "estadoId",
              "type": "uint256"
            }
          ],
          "internalType": "struct PacienteVO.PacienteVOStruct",
          "name": "pacienteVOStruct",
          "type": "tuple"
        }
      ],
      "name": "registrarConStruct",
      "outputs": [],
      "stateMutability": "nonpayable",
      "type": "function"
    },
    {
      "inputs": [
        {
          "internalType": "contract PacienteVO",
          "name": "paciente",
          "type": "address"
        }
      ],
      "name": "actualizar",
      "outputs": [],
      "stateMutability": "nonpayable",
      "type": "function"
    },
    {
      "inputs": [
        {
          "internalType": "address",
          "name": "_direccion",
          "type": "address"
        },
        {
          "internalType": "contract EstadoVO",
          "name": "_estado",
          "type": "address"
        }
      ],
      "name": "cambiarEstado",
      "outputs": [],
      "stateMutability": "nonpayable",
      "type": "function"
    },
    {
      "inputs": [
        {
          "internalType": "contract PacienteMapperInterface",
          "name": "_pacienteMapperAddress",
          "type": "address"
        }
      ],
      "name": "setPacienteMapper",
      "outputs": [],
      "stateMutability": "nonpayable",
      "type": "function"
    },
    {
      "inputs": [
        {
          "internalType": "contract RolMapperInterface",
          "name": "_rolMapperAddress",
          "type": "address"
        }
      ],
      "name": "setRolMapper",
      "outputs": [],
      "stateMutability": "nonpayable",
      "type": "function"
    },
    {
      "inputs": [
        {
          "internalType": "contract UsuarioMapperInterface",
          "name": "_usuarioMapperAddress",
          "type": "address"
        }
      ],
      "name": "setUsuarioMapper",
      "outputs": [],
      "stateMutability": "nonpayable",
      "type": "function"
    },
    {
      "inputs": [
        {
          "internalType": "contract DatosParametricosMapperInterface",
          "name": "_datosParametricosMapperAddress",
          "type": "address"
        }
      ],
      "name": "setDatosParametricosMapper",
      "outputs": [],
      "stateMutability": "nonpayable",
      "type": "function"
    },
    {
      "inputs": [
        {
          "internalType": "contract Acceso",
          "name": "_accesoAddress",
          "type": "address"
        }
      ],
      "name": "setAcceso",
      "outputs": [],
      "stateMutability": "nonpayable",
      "type": "function"
    },
    {
      "inputs": [],
      "name": "selfDestruct",
      "outputs": [],
      "stateMutability": "nonpayable",
      "type": "function"
    }
  ],
  "bytecode": "0x6080604052600060065534801561001557600080fd5b50600080546001600160a01b0319163317905561409a806100376000396000f3fe608060405234801561001057600080fd5b50600436106100ea5760003560e01c80637da8f6a51161008c5780639fa09ef4116100665780639fa09ef4146101c7578063adb0a725146101da578063c204c17d146101ed578063c75250d01461020057600080fd5b80637da8f6a51461018157806392ebdcd2146101945780639cb8a26a146101bf57600080fd5b8063596e15e6116100c8578063596e15e61461012a57806370f05f971461013d578063731188e71461015b57806378775d321461016e57600080fd5b806307b37d1d146100ef578063137d4722146101045780631d18376014610117575b600080fd5b6101026100fd366004611581565b610213565b005b6101026101123660046115ba565b610583565b6101026101253660046115ba565b61062f565b6101026101383660046115ba565b6106db565b610145610787565b60405161015291906117f7565b60405180910390f35b6101026101693660046115ba565b6109ab565b61010261017c3660046115ba565b610adf565b61014561018f3660046115ba565b610b8b565b6000546101a7906001600160a01b031681565b6040516001600160a01b039091168152602001610152565b610102610da2565b6101026101d5366004611581565b610e3a565b6101456101e836600461180a565b61105d565b6101026101fb3660046115ba565b6111f1565b61010261020e366004611a90565b61129d565b6001600160a01b03821633146102965760405162461bcd60e51b815260206004820152602860248201527f556e2070616369656e746520736520646562652072656769737472617220612060448201527f7369206d69736d6f00000000000000000000000000000000000000000000000060648201526084015b60405180910390fd5b6002546006546040517fb10b65ce00000000000000000000000000000000000000000000000000000000815260048101919091526000916001600160a01b03169063b10b65ce906024016020604051808303816000875af11580156102ff573d6000803e3d6000fd5b505050506040513d601f19601f820116820180604052508101906103239190611c29565b9050600060405161033390611472565b604051809103906000f08015801561034f573d6000803e3d6000fd5b506040517f5745ab980000000000000000000000000000000000000000000000000000000081526001600160a01b03868116600483015291925090821690635745ab9890602401600060405180830381600087803b1580156103b057600080fd5b505af11580156103c4573d6000803e3d6000fd5b50506040517fce8dd29f0000000000000000000000000000000000000000000000000000000081526001600160a01b0385811660048301528416925063ce8dd29f9150602401600060405180830381600087803b15801561042457600080fd5b505af1158015610438573d6000803e3d6000fd5b50506040517ffdaef483000000000000000000000000000000000000000000000000000000008152600160048201526001600160a01b038416925063fdaef4839150602401600060405180830381600087803b15801561049757600080fd5b505af11580156104ab573d6000803e3d6000fd5b505060035460405163be381c5960e01b81526001600160a01b0388811660048301528581166024830152909116925063be381c599150604401600060405180830381600087803b1580156104fe57600080fd5b505af1158015610512573d6000803e3d6000fd5b505060015460405163be381c5960e01b81526001600160a01b0388811660048301528781166024830152909116925063be381c599150604401600060405180830381600087803b15801561056557600080fd5b505af1158015610579573d6000803e3d6000fd5b5050505050505050565b6000546001600160a01b0316331461060d5760405162461bcd60e51b815260206004820152604160248201527f457374612066756e63696f6e20736f6c6f2070756564652073657220656a656360448201527f757461646120706f7220656c2063726561646f722064656c20636f6e747261746064820152606f60f81b608482015260a40161028d565b600580546001600160a01b0319166001600160a01b0392909216919091179055565b6000546001600160a01b031633146106b95760405162461bcd60e51b815260206004820152604160248201527f457374612066756e63696f6e20736f6c6f2070756564652073657220656a656360448201527f757461646120706f7220656c2063726561646f722064656c20636f6e747261746064820152606f60f81b608482015260a40161028d565b600180546001600160a01b0319166001600160a01b0392909216919091179055565b6000546001600160a01b031633146107655760405162461bcd60e51b815260206004820152604160248201527f457374612066756e63696f6e20736f6c6f2070756564652073657220656a656360448201527f757461646120706f7220656c2063726561646f722064656c20636f6e747261746064820152606f60f81b608482015260a40161028d565b600380546001600160a01b0319166001600160a01b0392909216919091179055565b61078f61147f565b6005546040516336a664e960e11b8152336004820152600260248201819052916000916001600160a01b0390911690636d4cc9d2906044016020604051808303816000875af11580156107e6573d6000803e3d6000fd5b505050506040513d601f19601f8201168201806040525081019061080a9190611c51565b9050806108595760405162461bcd60e51b815260206004820152601a60248201527f456c207573756172696f206e6f207469656e652061636365736f000000000000604482015260640161028d565b7fcf34ef537ac33ee1ac626ca1587a0a7e8e51561e5514f8cb36afa1c5102b3bab6040516108c99060208082526028908201527f456e74726f206120636f6e73756c746172206d69496e666f726d6163696f6e2060408201526770616369656e746560c01b606082015260800190565b60405180910390a1600154604051637da8f6a560e01b81523360048201526001600160a01b0390911690637da8f6a5906024016020604051808303816000875af115801561091b573d6000803e3d6000fd5b505050506040513d601f19601f8201168201806040525081019061093f9190611c29565b6001600160a01b03166359d1cfd66040518163ffffffff1660e01b8152600401600060405180830381865afa15801561097c573d6000803e3d6000fd5b505050506040513d6000823e601f3d908101601f191682016040526109a49190810190611dc3565b9250505090565b6005546040516336a664e960e11b8152336004820152600360248201819052916000916001600160a01b0390911690636d4cc9d2906044016020604051808303816000875af1158015610a02573d6000803e3d6000fd5b505050506040513d601f19601f82011682018060405250810190610a269190611c51565b905080610a755760405162461bcd60e51b815260206004820152601a60248201527f456c207573756172696f206e6f207469656e652061636365736f000000000000604482015260640161028d565b600154604051630da7d7a560e01b81523360048201526001600160a01b03858116602483015290911690630da7d7a590604401600060405180830381600087803b158015610ac257600080fd5b505af1158015610ad6573d6000803e3d6000fd5b50505050505050565b6000546001600160a01b03163314610b695760405162461bcd60e51b815260206004820152604160248201527f457374612066756e63696f6e20736f6c6f2070756564652073657220656a656360448201527f757461646120706f7220656c2063726561646f722064656c20636f6e747261746064820152606f60f81b608482015260a40161028d565b600280546001600160a01b0319166001600160a01b0392909216919091179055565b610b9361147f565b6005546040516336a664e960e11b8152336004820152600160248201819052916000916001600160a01b0390911690636d4cc9d2906044016020604051808303816000875af1158015610bea573d6000803e3d6000fd5b505050506040513d601f19601f82011682018060405250810190610c0e9190611c51565b905080610c5d5760405162461bcd60e51b815260206004820152601a60248201527f456c207573756172696f206e6f207469656e652061636365736f000000000000604482015260640161028d565b7fcf34ef537ac33ee1ac626ca1587a0a7e8e51561e5514f8cb36afa1c5102b3bab604051610cbc906020808252601a908201527f456e74726f206120636f6e73756c7461722050616369656e7465000000000000604082015260600190565b60405180910390a1600154604051637da8f6a560e01b81526001600160a01b03868116600483015290911690637da8f6a5906024015b6020604051808303816000875af1158015610d11573d6000803e3d6000fd5b505050506040513d601f19601f82011682018060405250810190610d359190611c29565b6001600160a01b03166359d1cfd66040518163ffffffff1660e01b8152600401600060405180830381865afa158015610d72573d6000803e3d6000fd5b505050506040513d6000823e601f3d908101601f19168201604052610d9a9190810190611dc3565b949350505050565b6000546001600160a01b03163314610e2c5760405162461bcd60e51b815260206004820152604160248201527f457374612066756e63696f6e20736f6c6f2070756564652073657220656a656360448201527f757461646120706f7220656c2063726561646f722064656c20636f6e747261746064820152606f60f81b608482015260a40161028d565b6000546001600160a01b0316ff5b6005546040516336a664e960e11b81523360048083019190915260248201819052916000916001600160a01b0390911690636d4cc9d2906044016020604051808303816000875af1158015610e93573d6000803e3d6000fd5b505050506040513d601f19601f82011682018060405250810190610eb79190611c51565b905080610f065760405162461bcd60e51b815260206004820152601a60248201527f456c207573756172696f206e6f207469656e652061636365736f000000000000604482015260640161028d565b600154604051637da8f6a560e01b81526001600160a01b0386811660048301526000921690637da8f6a5906024016020604051808303816000875af1158015610f53573d6000803e3d6000fd5b505050506040513d601f19601f82011682018060405250810190610f779190611c29565b6040517fef974e800000000000000000000000000000000000000000000000000000000081526001600160a01b0386811660048301529192509082169063ef974e8090602401600060405180830381600087803b158015610fd757600080fd5b505af1158015610feb573d6000803e3d6000fd5b5050600154604051630da7d7a560e01b81526001600160a01b03898116600483015285811660248301529091169250630da7d7a59150604401600060405180830381600087803b15801561103e57600080fd5b505af1158015611052573d6000803e3d6000fd5b505050505050505050565b61106561147f565b6005546040516336a664e960e11b8152336004820152600260248201819052916000916001600160a01b0390911690636d4cc9d2906044016020604051808303816000875af11580156110bc573d6000803e3d6000fd5b505050506040513d601f19601f820116820180604052508101906110e09190611c51565b90508061112f5760405162461bcd60e51b815260206004820152601a60248201527f456c207573756172696f206e6f207469656e652061636365736f000000000000604482015260640161028d565b7fcf34ef537ac33ee1ac626ca1587a0a7e8e51561e5514f8cb36afa1c5102b3bab60405161119f9060208082526028908201527f456e74726f206120636f6e73756c746172206d69496e666f726d6163696f6e2060408201526770616369656e746560c01b606082015260800190565b60405180910390a16001546040517fadb0a725000000000000000000000000000000000000000000000000000000008152600481018690526001600160a01b039091169063adb0a72590602401610cf2565b6000546001600160a01b0316331461127b5760405162461bcd60e51b815260206004820152604160248201527f457374612066756e63696f6e20736f6c6f2070756564652073657220656a656360448201527f757461646120706f7220656c2063726561646f722064656c20636f6e747261746064820152606f60f81b608482015260a40161028d565b600480546001600160a01b0319166001600160a01b0392909216919091179055565b60006040516112ab9061154c565b604051809103906000f0801580156112c7573d6000803e3d6000fd5b506004805460408581015190517f480c42a0000000000000000000000000000000000000000000000000000000008152928301529192506000916001600160a01b03169063480c42a090602401602060405180830381865afa158015611331573d6000803e3d6000fd5b505050506040513d601f19601f820116820180604052508101906113559190611c29565b60048054855160c001516040517f1dbaf403000000000000000000000000000000000000000000000000000000008152928301529192506000916001600160a01b031690631dbaf40390602401602060405180830381865afa1580156113bf573d6000803e3d6000fd5b505050506040513d601f19601f820116820180604052508101906113e39190611c29565b6040517f0b4a2b400000000000000000000000000000000000000000000000000000000081529091506001600160a01b03841690630b4a2b409061142f90879086908690600401611f4a565b600060405180830381600087803b15801561144957600080fd5b505af115801561145d573d6000803e3d6000fd5b5050505061146b8584610213565b5050505050565b6105b380611f7e83390190565b60405180606001604052806114dd60405180610100016040528060006001600160a01b031681526020016060815260200160608152602001606081526020016060815260200160608152602001600081526020016000151581525090565b815260200161153f60405180610160016040528060008152602001600081526020016000815260200160008152602001606081526020016060815260200160608152602001606081526020016000815260200160008152602001600081525090565b8152602001600081525090565b611b348061253183390190565b6001600160a01b038116811461156e57600080fd5b50565b803561157c81611559565b919050565b6000806040838503121561159457600080fd5b823561159f81611559565b915060208301356115af81611559565b809150509250929050565b6000602082840312156115cc57600080fd5b81356115d781611559565b9392505050565b60005b838110156115f95781810151838201526020016115e1565b83811115611608576000848401525b50505050565b600081518084526116268160208601602086016115de565b601f01601f19169290920160200192915050565b60006101608251845260208301516020850152604083015160408501526060830151606085015260808301518160808601526116788286018261160e565b91505060a083015184820360a0860152611692828261160e565b91505060c083015184820360c08601526116ac828261160e565b91505060e083015184820360e08601526116c6828261160e565b61010085810151908701526101208086015190870152610140948501519490950193909352509192915050565b60008151606084526117116060850182516001600160a01b03169052565b602081015161010080608087015261172d61016087018361160e565b91506040830151605f19808885030160a089015261174b848361160e565b935060608501519150808885030160c0890152611768848361160e565b935060808501519150808885030160e0890152611785848361160e565b935060a08501519150808885030183890152506117a2838261160e565b9250505060c082015161012086015260e082015191506117c761014086018315159052565b6020840151915084810360208601526117e0818361163a565b915050604083015160408501528091505092915050565b6020815260006115d760208301846116f3565b60006020828403121561181c57600080fd5b5035919050565b7f4e487b7100000000000000000000000000000000000000000000000000000000600052604160045260246000fd5b604051610160810167ffffffffffffffff8111828210171561187657611876611823565b60405290565b6040516060810167ffffffffffffffff8111828210171561187657611876611823565b604051610100810167ffffffffffffffff8111828210171561187657611876611823565b604051601f8201601f1916810167ffffffffffffffff811182821017156118ec576118ec611823565b604052919050565b600067ffffffffffffffff82111561190e5761190e611823565b50601f01601f191660200190565b600082601f83011261192d57600080fd5b813561194061193b826118f4565b6118c3565b81815284602083860101111561195557600080fd5b816020850160208301376000918101602001919091529392505050565b801515811461156e57600080fd5b803561157c81611972565b6000610160828403121561199e57600080fd5b6119a6611852565b905081358152602082013560208201526040820135604082015260608201356060820152608082013567ffffffffffffffff808211156119e557600080fd5b6119f18583860161191c565b608084015260a0840135915080821115611a0a57600080fd5b611a168583860161191c565b60a084015260c0840135915080821115611a2f57600080fd5b611a3b8583860161191c565b60c084015260e0840135915080821115611a5457600080fd5b50611a618482850161191c565b60e083015250610100828101359082015261012080830135908201526101409182013591810191909152919050565b60008060408385031215611aa357600080fd5b8235611aae81611559565b9150602083013567ffffffffffffffff80821115611acb57600080fd5b9084019060608287031215611adf57600080fd5b611ae761187c565b823582811115611af657600080fd5b83016101008189031215611b0957600080fd5b611b1161189f565b611b1a82611571565b8152602082013584811115611b2e57600080fd5b611b3a8a82850161191c565b602083015250604082013584811115611b5257600080fd5b611b5e8a82850161191c565b604083015250606082013584811115611b7657600080fd5b611b828a82850161191c565b606083015250608082013584811115611b9a57600080fd5b611ba68a82850161191c565b60808301525060a082013584811115611bbe57600080fd5b611bca8a82850161191c565b60a08301525060c082013560c0820152611be660e08301611980565b60e0820152825250602083013582811115611c0057600080fd5b611c0c8882860161198b565b602083015250604083013560408201528093505050509250929050565b600060208284031215611c3b57600080fd5b81516115d781611559565b805161157c81611972565b600060208284031215611c6357600080fd5b81516115d781611972565b805161157c81611559565b600082601f830112611c8a57600080fd5b8151611c9861193b826118f4565b818152846020838601011115611cad57600080fd5b610d9a8260208301602087016115de565b60006101608284031215611cd157600080fd5b611cd9611852565b905081518152602082015160208201526040820151604082015260608201516060820152608082015167ffffffffffffffff80821115611d1857600080fd5b611d2485838601611c79565b608084015260a0840151915080821115611d3d57600080fd5b611d4985838601611c79565b60a084015260c0840151915080821115611d6257600080fd5b611d6e85838601611c79565b60c084015260e0840151915080821115611d8757600080fd5b50611d9484828501611c79565b60e083015250610100828101519082015261012080830151908201526101409182015191810191909152919050565b600060208284031215611dd557600080fd5b815167ffffffffffffffff80821115611ded57600080fd5b9083019060608286031215611e0157600080fd5b611e0961187c565b825182811115611e1857600080fd5b83016101008188031215611e2b57600080fd5b611e3361189f565b611e3c82611c6e565b8152602082015184811115611e5057600080fd5b611e5c89828501611c79565b602083015250604082015184811115611e7457600080fd5b611e8089828501611c79565b604083015250606082015184811115611e9857600080fd5b611ea489828501611c79565b606083015250608082015184811115611ebc57600080fd5b611ec889828501611c79565b60808301525060a082015184811115611ee057600080fd5b611eec89828501611c79565b60a08301525060c082015160c0820152611f0860e08301611c46565b60e0820152825250602083015182811115611f2257600080fd5b611f2e87828601611cbe565b6020830152506040830151604082015280935050505092915050565b606081526000611f5d60608301866116f3565b6001600160a01b039485166020840152929093166040909101529291505056fe608060405234801561001057600080fd5b50610593806100206000396000f3fe608060405234801561001057600080fd5b506004361061007d5760003560e01c8063af9958461161005b578063af99584614610100578063c3e00aff1461011d578063ce8dd29f1461012e578063fdaef4831461016b57600080fd5b80635745ab981461008257806360749724146100c157806364ff6bbe146100eb575b600080fd5b6100bf6100903660046102d9565b6000805473ffffffffffffffffffffffffffffffffffffffff19166001600160a01b0392909216919091179055565b005b6000546001600160a01b03165b6040516001600160a01b0390911681526020015b60405180910390f35b6100f36101b2565b6040516100e29190610359565b600154600160a01b900460ff1660405190151581526020016100e2565b6001546001600160a01b03166100ce565b6100bf61013c3660046102d9565b6001805473ffffffffffffffffffffffffffffffffffffffff19166001600160a01b0392909216919091179055565b6100bf6101793660046103d3565b60018054911515600160a01b027fffffffffffffffffffffff00ffffffffffffffffffffffffffffffffffffffff909216919091179055565b6101ba610275565b60408051606081018252600080546001600160a01b03908116835260015484517fea1a6f29000000000000000000000000000000000000000000000000000000008152945193946020860194919092169263ea1a6f2992600480820193918290030181865afa158015610231573d6000803e3d6000fd5b505050506040513d6000823e601f3d908101601f1916820160405261025991908101906104ac565b8152600154600160a01b900460ff161515602090910152919050565b604051806060016040528060006001600160a01b031681526020016102b460405180606001604052806000815260200160608152602001606081525090565b8152600060209091015290565b6001600160a01b03811681146102d657600080fd5b50565b6000602082840312156102eb57600080fd5b81356102f6816102c1565b9392505050565b60005b83811015610318578181015183820152602001610300565b83811115610327576000848401525b50505050565b600081518084526103458160208601602086016102fd565b601f01601f19169290920160200192915050565b602081526001600160a01b0382511660208201526000602083015160606040840152805160808401526020810151606060a085015261039b60e085018261032d565b905060408201519150607f198482030160c08501526103ba818361032d565b9150506040840151151560608401528091505092915050565b6000602082840312156103e557600080fd5b813580151581146102f657600080fd5b7f4e487b7100000000000000000000000000000000000000000000000000000000600052604160045260246000fd5b600082601f83011261043557600080fd5b815167ffffffffffffffff80821115610450576104506103f5565b604051601f8301601f19908116603f01168101908282118183101715610478576104786103f5565b8160405283815286602085880101111561049157600080fd5b6104a28460208301602089016102fd565b9695505050505050565b6000602082840312156104be57600080fd5b815167ffffffffffffffff808211156104d657600080fd5b90830190606082860312156104ea57600080fd5b604051606081018181108382111715610505576105056103f5565b6040528251815260208301518281111561051e57600080fd5b61052a87828601610424565b60208301525060408301518281111561054257600080fd5b61054e87828601610424565b6040830152509594505050505056fea2646970667358221220ef3b78fac8f343fdc37ebaffbf94c57c3072f2bcbba4957ca82190b2fc6e191d64736f6c634300080b0033608060405234801561001057600080fd5b50611b14806100206000396000f3fe608060405234801561001057600080fd5b50600436106101985760003560e01c80637d5c3032116100e3578063b750a1f41161008c578063d1e360ff11610066578063d1e360ff14610387578063eacd3b93146103b7578063ef974e80146103bf57600080fd5b8063b750a1f414610359578063c461d52e1461036c578063cc9f930e1461037457600080fd5b806399355ed8116100bd57806399355ed8146103365780639ac9abd014610349578063b2f9ccbb1461035157600080fd5b80637d5c3032146102fd57806383cb77b0146103125780638ba686071461032557600080fd5b80634e8c23ca116101455780635d1ca6311161011f5780635d1ca631146102805780636d07d7e3146102a557806378c7e292146102b657600080fd5b80634e8c23ca14610245578063551a5cfa1461025857806359d1cfd61461026b57600080fd5b80632cb41958116101765780632cb41958146101e35780633c3c069f146102135780633ca452b91461023057600080fd5b806303c5e52a1461019d5780630b4a2b40146101bb57806328fd4873146101d0575b600080fd5b6101a56103ef565b6040516101b2919061142b565b60405180910390f35b6101ce6101c93660046117a1565b6106e8565b005b6101ce6101de36600461185f565b6107cd565b6101ce6101f136600461189c565b600080546001600160a01b0319166001600160a01b0392909216919091179055565b600654600160a01b900460ff1660405190151581526020016101b2565b6102386107e4565b6040516101b291906118b9565b6101ce61025336600461185f565b610876565b6101ce61026636600461185f565b610889565b61027361089c565b6040516101b29190611985565b6000546001600160a01b03165b6040516001600160a01b0390911681526020016101b2565b6007546001600160a01b031661028d565b6101ce6102c43660046119d5565b60068054911515600160a01b027fffffffffffffffffffffff00ffffffffffffffffffffffffffffffffffffffff909216919091179055565b610305610bdb565b6040516101b291906119f0565b6101ce61032036600461185f565b610fb1565b6006546001600160a01b031661028d565b6101ce610344366004611a03565b610fc4565b610238611078565b610238611087565b6101ce610367366004611a38565b611096565b61023861118e565b6101ce61038236600461185f565b61119d565b6101ce61039536600461189c565b600680546001600160a01b0319166001600160a01b0392909216919091179055565b6102386111b0565b6101ce6103cd36600461189c565b600780546001600160a01b0319166001600160a01b0392909216919091179055565b61044c60405180610160016040528060008152602001600081526020016000815260200160008152602001606081526020016060815260200160608152602001606081526020016000815260200160008152602001600081525090565b60408051610160810182526008805482526009546020830152600a5492820192909252600b546060820152600c805491929160808401919061048d90611a8a565b80601f01602080910402602001604051908101604052809291908181526020018280546104b990611a8a565b80156105065780601f106104db57610100808354040283529160200191610506565b820191906000526020600020905b8154815290600101906020018083116104e957829003601f168201915b5050505050815260200160058201805461051f90611a8a565b80601f016020809104026020016040519081016040528092919081815260200182805461054b90611a8a565b80156105985780601f1061056d57610100808354040283529160200191610598565b820191906000526020600020905b81548152906001019060200180831161057b57829003601f168201915b505050505081526020016006820180546105b190611a8a565b80601f01602080910402602001604051908101604052809291908181526020018280546105dd90611a8a565b801561062a5780601f106105ff5761010080835404028352916020019161062a565b820191906000526020600020905b81548152906001019060200180831161060d57829003601f168201915b5050505050815260200160078201805461064390611a8a565b80601f016020809104026020016040519081016040528092919081815260200182805461066f90611a8a565b80156106bc5780601f10610691576101008083540402835291602001916106bc565b820191906000526020600020905b81548152906001019060200180831161069f57829003601f168201915b505050505081526020016008820154815260200160098201548152602001600a82015481525050905090565b82516106f49082611096565b60208084015180516008908155818301516009556040820151600a556060820151600b55608082015180519293919261073192600c9201906111bf565b5060a0820151805161074d9160058401916020909101906111bf565b5060c082015180516107699160068401916020909101906111bf565b5060e082015180516107859160078401916020909101906111bf565b506101008201516008820155610120820151600982015561014090910151600a9091015550600780546001600160a01b0319166001600160a01b039290921691909117905550565b80516107e09060059060208401906111bf565b5050565b6060600180546107f390611a8a565b80601f016020809104026020016040519081016040528092919081815260200182805461081f90611a8a565b801561086c5780601f106108415761010080835404028352916020019161086c565b820191906000526020600020905b81548152906001019060200180831161084f57829003601f168201915b5050505050905090565b80516107e09060049060208401906111bf565b80516107e09060029060208401906111bf565b6108a4611243565b60405180606001604052806108b7610bdb565b81526020016008604051806101600160405290816000820154815260200160018201548152602001600282015481526020016003820154815260200160048201805461090290611a8a565b80601f016020809104026020016040519081016040528092919081815260200182805461092e90611a8a565b801561097b5780601f106109505761010080835404028352916020019161097b565b820191906000526020600020905b81548152906001019060200180831161095e57829003601f168201915b5050505050815260200160058201805461099490611a8a565b80601f01602080910402602001604051908101604052809291908181526020018280546109c090611a8a565b8015610a0d5780601f106109e257610100808354040283529160200191610a0d565b820191906000526020600020905b8154815290600101906020018083116109f057829003601f168201915b50505050508152602001600682018054610a2690611a8a565b80601f0160208091040260200160405190810160405280929190818152602001828054610a5290611a8a565b8015610a9f5780601f10610a7457610100808354040283529160200191610a9f565b820191906000526020600020905b815481529060010190602001808311610a8257829003601f168201915b50505050508152602001600782018054610ab890611a8a565b80601f0160208091040260200160405190810160405280929190818152602001828054610ae490611a8a565b8015610b315780601f10610b0657610100808354040283529160200191610b31565b820191906000526020600020905b815481529060010190602001808311610b1457829003601f168201915b505050505081526020016008820154815260200160098201548152602001600a820154815250508152602001600760009054906101000a90046001600160a01b03166001600160a01b0316635d1ca6316040518163ffffffff1660e01b8152600401602060405180830381865afa158015610bb0573d6000803e3d6000fd5b505050506040513d601f19601f82011682018060405250810190610bd49190611ac5565b9052919050565b610c2e60405180610100016040528060006001600160a01b031681526020016060815260200160608152602001606081526020016060815260200160608152602001600081526020016000151581525090565b6040805161010081019091526000546001600160a01b0316815260018054602083019190610c5b90611a8a565b80601f0160208091040260200160405190810160405280929190818152602001828054610c8790611a8a565b8015610cd45780601f10610ca957610100808354040283529160200191610cd4565b820191906000526020600020905b815481529060010190602001808311610cb757829003601f168201915b5050505050815260200160028054610ceb90611a8a565b80601f0160208091040260200160405190810160405280929190818152602001828054610d1790611a8a565b8015610d645780601f10610d3957610100808354040283529160200191610d64565b820191906000526020600020905b815481529060010190602001808311610d4757829003601f168201915b5050505050815260200160038054610d7b90611a8a565b80601f0160208091040260200160405190810160405280929190818152602001828054610da790611a8a565b8015610df45780601f10610dc957610100808354040283529160200191610df4565b820191906000526020600020905b815481529060010190602001808311610dd757829003601f168201915b5050505050815260200160048054610e0b90611a8a565b80601f0160208091040260200160405190810160405280929190818152602001828054610e3790611a8a565b8015610e845780601f10610e5957610100808354040283529160200191610e84565b820191906000526020600020905b815481529060010190602001808311610e6757829003601f168201915b5050505050815260200160058054610e9b90611a8a565b80601f0160208091040260200160405190810160405280929190818152602001828054610ec790611a8a565b8015610f145780601f10610ee957610100808354040283529160200191610f14565b820191906000526020600020905b815481529060010190602001808311610ef757829003601f168201915b50505050508152602001600660009054906101000a90046001600160a01b03166001600160a01b0316635d1ca6316040518163ffffffff1660e01b8152600401602060405180830381865afa158015610f71573d6000803e3d6000fd5b505050506040513d601f19601f82011682018060405250810190610f959190611ac5565b8152600654600160a01b900460ff161515602090910152919050565b80516107e09060019060208401906111bf565b805160089081556020808301516009556040830151600a556060830151600b5560808301518051849392610ffd92600c929101906111bf565b5060a082015180516110199160058401916020909101906111bf565b5060c082015180516110359160068401916020909101906111bf565b5060e082015180516110519160078401916020909101906111bf565b506101008201516008820155610120820151600982015561014090910151600a9091015550565b6060600580546107f390611a8a565b6060600280546107f390611a8a565b8151600080546001600160a01b0319166001600160a01b0390921691909117905560208083015180516110cd9260019201906111bf565b50604082015180516110e7916002916020909101906111bf565b5060608201518051611101916003916020909101906111bf565b506080820151805161111b916004916020909101906111bf565b5060a08201518051611135916005916020909101906111bf565b5060e090910151600680546001600160a01b039093166001600160a01b0319921515600160a01b02929092167fffffffffffffffffffffff00000000000000000000000000000000000000000090931692909217179055565b6060600380546107f390611a8a565b80516107e09060039060208401906111bf565b6060600480546107f390611a8a565b8280546111cb90611a8a565b90600052602060002090601f0160209004810192826111ed5760008555611233565b82601f1061120657805160ff1916838001178555611233565b82800160010185558215611233579182015b82811115611233578251825591602001919060010190611218565b5061123f929150611310565b5090565b60405180606001604052806112a160405180610100016040528060006001600160a01b031681526020016060815260200160608152602001606081526020016060815260200160608152602001600081526020016000151581525090565b815260200161130360405180610160016040528060008152602001600081526020016000815260200160008152602001606081526020016060815260200160608152602001606081526020016000815260200160008152602001600081525090565b8152602001600081525090565b5b8082111561123f5760008155600101611311565b6000815180845260005b8181101561134b5760208185018101518683018201520161132f565b8181111561135d576000602083870101525b50601f01601f19169290920160200192915050565b60006101608251845260208301516020850152604083015160408501526060830151606085015260808301518160808601526113b082860182611325565b91505060a083015184820360a08601526113ca8282611325565b91505060c083015184820360c08601526113e48282611325565b91505060e083015184820360e08601526113fe8282611325565b61010085810151908701526101208086015190870152610140948501519490950193909352509192915050565b60208152600061143e6020830184611372565b9392505050565b634e487b7160e01b600052604160045260246000fd5b604051610100810167ffffffffffffffff8111828210171561147f5761147f611445565b60405290565b604051610160810167ffffffffffffffff8111828210171561147f5761147f611445565b6040516060810167ffffffffffffffff8111828210171561147f5761147f611445565b6001600160a01b03811681146114e157600080fd5b50565b80356114ef816114cc565b919050565b600082601f83011261150557600080fd5b813567ffffffffffffffff8082111561152057611520611445565b604051601f8301601f19908116603f0116810190828211818310171561154857611548611445565b8160405283815286602085880101111561156157600080fd5b836020870160208301376000602085830101528094505050505092915050565b803580151581146114ef57600080fd5b600061010082840312156115a457600080fd5b6115ac61145b565b90506115b7826114e4565b8152602082013567ffffffffffffffff808211156115d457600080fd5b6115e0858386016114f4565b602084015260408401359150808211156115f957600080fd5b611605858386016114f4565b6040840152606084013591508082111561161e57600080fd5b61162a858386016114f4565b6060840152608084013591508082111561164357600080fd5b61164f858386016114f4565b608084015260a084013591508082111561166857600080fd5b50611675848285016114f4565b60a08301525060c082013560c082015261169160e08301611581565b60e082015292915050565b600061016082840312156116af57600080fd5b6116b7611485565b905081358152602082013560208201526040820135604082015260608201356060820152608082013567ffffffffffffffff808211156116f657600080fd5b611702858386016114f4565b608084015260a084013591508082111561171b57600080fd5b611727858386016114f4565b60a084015260c084013591508082111561174057600080fd5b61174c858386016114f4565b60c084015260e084013591508082111561176557600080fd5b50611772848285016114f4565b60e083015250610100828101359082015261012080830135908201526101409182013591810191909152919050565b6000806000606084860312156117b657600080fd5b833567ffffffffffffffff808211156117ce57600080fd5b90850190606082880312156117e257600080fd5b6117ea6114a9565b8235828111156117f957600080fd5b61180589828601611591565b82525060208301358281111561181a57600080fd5b6118268982860161169c565b60208301525060408301356040820152809550505050611848602085016114e4565b9150611856604085016114e4565b90509250925092565b60006020828403121561187157600080fd5b813567ffffffffffffffff81111561188857600080fd5b611894848285016114f4565b949350505050565b6000602082840312156118ae57600080fd5b813561143e816114cc565b60208152600061143e6020830184611325565b80516001600160a01b03168252600061010060208301518160208601526118f582860182611325565b9150506040830151848203604086015261190f8282611325565b915050606083015184820360608601526119298282611325565b915050608083015184820360808601526119438282611325565b91505060a083015184820360a086015261195d8282611325565b91505060c083015160c085015260e083015161197d60e086018215159052565b509392505050565b6020815260008251606060208401526119a160808401826118cc565b90506020840151601f198483030160408501526119be8282611372565b915050604084015160608401528091505092915050565b6000602082840312156119e757600080fd5b61143e82611581565b60208152600061143e60208301846118cc565b600060208284031215611a1557600080fd5b813567ffffffffffffffff811115611a2c57600080fd5b6118948482850161169c565b60008060408385031215611a4b57600080fd5b823567ffffffffffffffff811115611a6257600080fd5b611a6e85828601611591565b9250506020830135611a7f816114cc565b809150509250929050565b600181811c90821680611a9e57607f821691505b60208210811415611abf57634e487b7160e01b600052602260045260246000fd5b50919050565b600060208284031215611ad757600080fd5b505191905056fea2646970667358221220c5c6a1c9169c4a7e349057ba6114670dd6e81176920c22e4b642082949b367ad64736f6c634300080b0033a2646970667358221220e6f112ef7e655f6cdbcced7c609d63d9aebd6ce42799d2b8979e4f645bc48e5e64736f6c634300080b0033",
  "immutableReferences": {},
  "source": "// SPDX-License-Identifier: MIT\npragma solidity ^0.8.10;\n\n//import \"./Persona.sol\";\nimport \"../models/PacienteVO.sol\";\nimport \"../persistence/PacienteMapper.sol\";\nimport \"./Acceso.sol\";\nimport \"../persistence/DatosParametricosMapper.sol\";\nimport \"../persistence/DatosParametricosMapperInterface.sol\";\n\ncontract Paciente {\n    event Log(string data);\n    address public creador;\n\n    PacienteMapperInterface private pacienteMapper;\n    RolMapperInterface private rolMapper;\n    UsuarioMapperInterface private usuarioMapper;\n    DatosParametricosMapperInterface private datosParametricosMapper;\n    Acceso private acceso;\n\n    //TODO Convertir eventualmente en un enum\n    uint256 rolPacienteId = 0;\n\n    constructor() {\n        creador = msg.sender; // creador del contrato\n    }\n\n    // Puede el medico\n    function consultar(address direccion)\n        public\n        tieneAcceso(1)\n        returns (PacienteVO.PacienteVOStruct memory)\n    {\n        emit Log(\"Entro a consultar Paciente\");\n        return pacienteMapper.consultar(direccion).getPacienteVOValue();\n    }\n\n    // TODO Agregar a diagrama\n    // Solo lo puede usar el paciente\n    function consultar()\n        public\n        tieneAcceso(2)\n        returns (PacienteVO.PacienteVOStruct memory)\n    {\n        emit Log(\"Entro a consultar miInformacion paciente\");\n        return pacienteMapper.consultar(msg.sender).getPacienteVOValue();\n    }\n\n    // TODO: Solo lo puede usar el medico\n    function consultarPorId(uint256 id)\n        public\n        tieneAcceso(2)\n        returns (PacienteVO.PacienteVOStruct memory)\n    {\n        emit Log(\"Entro a consultar miInformacion paciente\");        \n        return pacienteMapper.consultarPorId(id).getPacienteVOValue();\n    }\n\n    // TODO: validar que pasa si falla el registro de persona\n    // TODO: que pasa si falla guardar paciente?\n    //tieneAcceso(2)\n    function registrar(address direccion, PacienteVO paciente) public {\n        if (direccion != msg.sender) {\n            revert(\"Un paciente se debe registrar a si mismo\");\n        }\n\n        RolVO rol = rolMapper.consultar(rolPacienteId);\n        UsuarioVO nuevoUsuario = new UsuarioVO();\n        nuevoUsuario.setDireccion(direccion);\n        nuevoUsuario.setRol(rol);\n        nuevoUsuario.setEstaActivo(true);\n        usuarioMapper.guardar(direccion, nuevoUsuario);\n        pacienteMapper.guardar(direccion, paciente);\n        // TODO Crear HC\n    }\n\n    // TODO: validar que pasa si falla el registro de persona\n    // TODO: que pasa si falla guardar paciente?\n    //tieneAcceso(2)\n    function registrarConStruct(\n        address direccion,\n        PacienteVO.PacienteVOStruct memory pacienteVOStruct\n    ) public {\n        PacienteVO pacienteVO = new PacienteVO();\n        EstadoVO estadoVO = datosParametricosMapper.consultarEstadoVO(\n            pacienteVOStruct.estadoId\n        );\n        TipoIdentificacionVO _tipoIdentificacionVO = datosParametricosMapper\n            .consultarTipoIdentificacionVO(\n                pacienteVOStruct.persona.tipoIdentificacion\n            );\n\n        pacienteVO.setValuesOfPacienteVOStruct(\n            pacienteVOStruct,\n            estadoVO,\n            _tipoIdentificacionVO\n        );\n        registrar(direccion, pacienteVO);\n    }\n\n    /*\n    // TODO: Discutir si un mdico debe actualizar al paciente (nombre y demas)\n    // TODO: Sollo se podria acceder con el acceso que da el paciente sobre su info\n    function actualizar(address direccion, PacienteVO paciente)\n        public\n        tieneAcceso(3)\n    {\n        if (direccion != msg.sender) {\n            // si alguien diferente al propietario de la historia la consulta se debe validar quien es\n            // validar quien consulta\n            revert(\"No tiene permisos de actualizar\");\n        }\n        // bloquear actualizacin de estado\n        pacienteMapper.actualizar(direccion, paciente);\n    }\n    */\n\n    function actualizar(PacienteVO paciente) public tieneAcceso(3) {\n        // bloquear actualizacin de estado\n        pacienteMapper.actualizar(msg.sender, paciente);\n    }\n\n    // TODO: poner modificador para que solo lo pueda ejecutar el service y\n    // en el service que solo lo ejecute un mdico\n    // TODO: Debe usar el permiso que da el paciente\n    function cambiarEstado(address _direccion, EstadoVO _estado)\n        public\n        tieneAcceso(4)\n    {\n        PacienteVO paciente = pacienteMapper.consultar(_direccion);\n        paciente.setEstado(_estado);\n        pacienteMapper.actualizar(_direccion, paciente);\n    }\n\n    function setPacienteMapper(PacienteMapperInterface _pacienteMapperAddress)\n        public\n        esPropietario\n    {\n        pacienteMapper = _pacienteMapperAddress;\n    }\n\n    function setRolMapper(RolMapperInterface _rolMapperAddress)\n        public\n        esPropietario\n    {\n        rolMapper = _rolMapperAddress;\n    }\n\n    function setUsuarioMapper(UsuarioMapperInterface _usuarioMapperAddress)\n        public\n        esPropietario\n    {\n        usuarioMapper = _usuarioMapperAddress;\n    }\n\n    function setDatosParametricosMapper(\n        DatosParametricosMapperInterface _datosParametricosMapperAddress\n    ) public esPropietario {\n        datosParametricosMapper = _datosParametricosMapperAddress;\n    }\n\n    function setAcceso(Acceso _accesoAddress) public esPropietario {\n        acceso = _accesoAddress;\n    }\n\n    modifier esPropietario() {\n        require(\n            msg.sender == creador,\n            \"Esta funcion solo puede ser ejecutada por el creador del contrato\"\n        );\n        _; // ac se ejecuta la funcin\n    }\n\n    function selfDestruct() public esPropietario {\n        selfdestruct(payable(creador));\n    }\n\n    modifier tieneAcceso(uint256 permisoId) {\n        bool esAccesible = acceso.validarPermisoDeRol(msg.sender, permisoId);\n        require(esAccesible, \"El usuario no tiene acceso\");\n        _; // ac se ejecuta la funcin\n    }\n}\n",
  "sourcePath": "/home/felipe/Documentos/Blockchain/codigo/back-hce/contracts/logica/Paciente.sol",
  "compiler": {
    "name": "solc",
    "version": "0.8.11+commit.d7f03943.Emscripten.clang"
  },
  "schemaVersion": "3.4.8",
  "updatedAt": "2022-09-07T02:46:55.612Z",
  "networkType": "ethereum",
  "devdoc": {
    "kind": "dev",
    "methods": {},
    "version": 1
  },
  "userdoc": {
    "kind": "user",
    "methods": {},
    "version": 1
  }
}