{
  "contractName": "Paciente",
  "abi": [
    {
      "inputs": [],
      "stateMutability": "nonpayable",
      "type": "constructor"
    },
    {
      "anonymous": false,
      "inputs": [
        {
          "indexed": false,
          "internalType": "string",
          "name": "data",
          "type": "string"
        }
      ],
      "name": "Log",
      "type": "event"
    },
    {
      "inputs": [],
      "name": "ContratoPacienteDAOAddress",
      "outputs": [
        {
          "internalType": "address",
          "name": "",
          "type": "address"
        }
      ],
      "stateMutability": "view",
      "type": "function",
      "constant": true
    },
    {
      "inputs": [],
      "name": "ContratoPersonaAddress",
      "outputs": [
        {
          "internalType": "address",
          "name": "",
          "type": "address"
        }
      ],
      "stateMutability": "view",
      "type": "function",
      "constant": true
    },
    {
      "inputs": [],
      "name": "creador",
      "outputs": [
        {
          "internalType": "address",
          "name": "",
          "type": "address"
        }
      ],
      "stateMutability": "view",
      "type": "function",
      "constant": true
    },
    {
      "inputs": [
        {
          "internalType": "address",
          "name": "direccion",
          "type": "address"
        },
        {
          "internalType": "string",
          "name": "estadoId",
          "type": "string"
        }
      ],
      "name": "cambiarEstado",
      "outputs": [],
      "stateMutability": "nonpayable",
      "type": "function"
    },
    {
      "inputs": [
        {
          "internalType": "address",
          "name": "direccion",
          "type": "address"
        }
      ],
      "name": "consultar",
      "outputs": [
        {
          "components": [
            {
              "components": [
                {
                  "internalType": "string",
                  "name": "primerNombre",
                  "type": "string"
                },
                {
                  "internalType": "string",
                  "name": "segundoNombre",
                  "type": "string"
                },
                {
                  "internalType": "string",
                  "name": "primerApellido",
                  "type": "string"
                },
                {
                  "internalType": "string",
                  "name": "segundoApellido",
                  "type": "string"
                },
                {
                  "internalType": "string",
                  "name": "identificacion",
                  "type": "string"
                },
                {
                  "components": [
                    {
                      "internalType": "string",
                      "name": "nombre",
                      "type": "string"
                    },
                    {
                      "internalType": "string",
                      "name": "descripcion",
                      "type": "string"
                    },
                    {
                      "internalType": "bool",
                      "name": "estaActiva",
                      "type": "bool"
                    }
                  ],
                  "internalType": "struct TipoIdentificacionStruct",
                  "name": "tipoIdentificacionId",
                  "type": "tuple"
                },
                {
                  "internalType": "uint256",
                  "name": "rolId",
                  "type": "uint256"
                },
                {
                  "internalType": "bool",
                  "name": "isValue",
                  "type": "bool"
                }
              ],
              "internalType": "struct PersonaStruct",
              "name": "persona",
              "type": "tuple"
            },
            {
              "components": [
                {
                  "internalType": "string",
                  "name": "estado",
                  "type": "string"
                },
                {
                  "internalType": "string",
                  "name": "datosPersonales",
                  "type": "string"
                },
                {
                  "internalType": "bool",
                  "name": "isValue",
                  "type": "bool"
                }
              ],
              "internalType": "struct PacienteStruct",
              "name": "paciente",
              "type": "tuple"
            }
          ],
          "internalType": "struct Paciente.PersonaPacienteStruct",
          "name": "pacienteInfo",
          "type": "tuple"
        }
      ],
      "stateMutability": "nonpayable",
      "type": "function"
    },
    {
      "inputs": [
        {
          "internalType": "address",
          "name": "direccion",
          "type": "address"
        }
      ],
      "name": "consultarPaciente",
      "outputs": [
        {
          "components": [
            {
              "internalType": "string",
              "name": "estado",
              "type": "string"
            },
            {
              "internalType": "string",
              "name": "datosPersonales",
              "type": "string"
            },
            {
              "internalType": "bool",
              "name": "isValue",
              "type": "bool"
            }
          ],
          "internalType": "struct PacienteStruct",
          "name": "",
          "type": "tuple"
        }
      ],
      "stateMutability": "nonpayable",
      "type": "function"
    },
    {
      "inputs": [
        {
          "internalType": "address",
          "name": "direccion",
          "type": "address"
        }
      ],
      "name": "consultarPersona",
      "outputs": [
        {
          "components": [
            {
              "internalType": "string",
              "name": "primerNombre",
              "type": "string"
            },
            {
              "internalType": "string",
              "name": "segundoNombre",
              "type": "string"
            },
            {
              "internalType": "string",
              "name": "primerApellido",
              "type": "string"
            },
            {
              "internalType": "string",
              "name": "segundoApellido",
              "type": "string"
            },
            {
              "internalType": "string",
              "name": "identificacion",
              "type": "string"
            },
            {
              "components": [
                {
                  "internalType": "string",
                  "name": "nombre",
                  "type": "string"
                },
                {
                  "internalType": "string",
                  "name": "descripcion",
                  "type": "string"
                },
                {
                  "internalType": "bool",
                  "name": "estaActiva",
                  "type": "bool"
                }
              ],
              "internalType": "struct TipoIdentificacionStruct",
              "name": "tipoIdentificacionId",
              "type": "tuple"
            },
            {
              "internalType": "uint256",
              "name": "rolId",
              "type": "uint256"
            },
            {
              "internalType": "bool",
              "name": "isValue",
              "type": "bool"
            }
          ],
          "internalType": "struct PersonaStruct",
          "name": "",
          "type": "tuple"
        }
      ],
      "stateMutability": "nonpayable",
      "type": "function"
    },
    {
      "inputs": [
        {
          "internalType": "address",
          "name": "direccion",
          "type": "address"
        },
        {
          "components": [
            {
              "components": [
                {
                  "internalType": "string",
                  "name": "primerNombre",
                  "type": "string"
                },
                {
                  "internalType": "string",
                  "name": "segundoNombre",
                  "type": "string"
                },
                {
                  "internalType": "string",
                  "name": "primerApellido",
                  "type": "string"
                },
                {
                  "internalType": "string",
                  "name": "segundoApellido",
                  "type": "string"
                },
                {
                  "internalType": "string",
                  "name": "identificacion",
                  "type": "string"
                },
                {
                  "components": [
                    {
                      "internalType": "string",
                      "name": "nombre",
                      "type": "string"
                    },
                    {
                      "internalType": "string",
                      "name": "descripcion",
                      "type": "string"
                    },
                    {
                      "internalType": "bool",
                      "name": "estaActiva",
                      "type": "bool"
                    }
                  ],
                  "internalType": "struct TipoIdentificacionStruct",
                  "name": "tipoIdentificacionId",
                  "type": "tuple"
                },
                {
                  "internalType": "uint256",
                  "name": "rolId",
                  "type": "uint256"
                },
                {
                  "internalType": "bool",
                  "name": "isValue",
                  "type": "bool"
                }
              ],
              "internalType": "struct PersonaStruct",
              "name": "persona",
              "type": "tuple"
            },
            {
              "components": [
                {
                  "internalType": "string",
                  "name": "estado",
                  "type": "string"
                },
                {
                  "internalType": "string",
                  "name": "datosPersonales",
                  "type": "string"
                },
                {
                  "internalType": "bool",
                  "name": "isValue",
                  "type": "bool"
                }
              ],
              "internalType": "struct PacienteStruct",
              "name": "paciente",
              "type": "tuple"
            }
          ],
          "internalType": "struct Paciente.PersonaPacienteStruct",
          "name": "personaPaciente",
          "type": "tuple"
        }
      ],
      "name": "registrar",
      "outputs": [],
      "stateMutability": "nonpayable",
      "type": "function"
    },
    {
      "inputs": [
        {
          "internalType": "address",
          "name": "direccion",
          "type": "address"
        },
        {
          "components": [
            {
              "internalType": "string",
              "name": "estado",
              "type": "string"
            },
            {
              "internalType": "string",
              "name": "datosPersonales",
              "type": "string"
            },
            {
              "internalType": "bool",
              "name": "isValue",
              "type": "bool"
            }
          ],
          "internalType": "struct PacienteStruct",
          "name": "paciente",
          "type": "tuple"
        }
      ],
      "name": "actualizar",
      "outputs": [],
      "stateMutability": "nonpayable",
      "type": "function"
    },
    {
      "inputs": [
        {
          "internalType": "address",
          "name": "direccion",
          "type": "address"
        }
      ],
      "name": "setContratoPersonaAddress",
      "outputs": [],
      "stateMutability": "nonpayable",
      "type": "function"
    },
    {
      "inputs": [
        {
          "internalType": "address",
          "name": "direccion",
          "type": "address"
        }
      ],
      "name": "setContratoPacienteDAOAddress",
      "outputs": [],
      "stateMutability": "nonpayable",
      "type": "function"
    },
    {
      "inputs": [],
      "name": "selfDestruct",
      "outputs": [],
      "stateMutability": "nonpayable",
      "type": "function"
    }
  ],
  "bytecode": "0x608060405234801561001057600080fd5b50336000806101000a81548173ffffffffffffffffffffffffffffffffffffffff021916908373ffffffffffffffffffffffffffffffffffffffff1602179055506120fc806100606000396000f3fe608060405234801561001057600080fd5b50600436106100b45760003560e01c806397e2cd6f1161007157806397e2cd6f1461017957806398b8fe71146101955780639cb8a26a146101c5578063ad367021146101cf578063bf1c5e51146101ff578063f14bc4541461021d576100b4565b806340cd7a60146100b95780634845da3e146100d55780637580a026146100f15780637da8f6a51461010d578063928c135c1461013d57806392ebdcd21461015b575b600080fd5b6100d360048036038101906100ce9190610d37565b610239565b005b6100ef60048036038101906100ea9190610d37565b61036e565b005b61010b60048036038101906101069190610eaa565b6104a3565b005b61012760048036038101906101229190610d37565b6104c8565b6040516101349190611187565b60405180910390f35b61014561052c565b60405161015291906111b8565b60405180910390f35b610163610552565b60405161017091906111b8565b60405180910390f35b610193600480360381019061018e9190611567565b610576565b005b6101af60048036038101906101aa9190610d37565b6106a0565b6040516101bc9190611696565b60405180910390f35b6101cd610896565b005b6101e960048036038101906101e49190610d37565b61095d565b6040516101f6919061170f565b60405180910390f35b610207610b53565b60405161021491906111b8565b60405180910390f35b61023760048036038101906102329190611731565b610b79565b005b60008054906101000a900473ffffffffffffffffffffffffffffffffffffffff1673ffffffffffffffffffffffffffffffffffffffff163373ffffffffffffffffffffffffffffffffffffffff16146102c7576040517f08c379a00000000000000000000000000000000000000000000000000000000081526004016102be90611836565b60405180910390fd5b80600260006101000a81548173ffffffffffffffffffffffffffffffffffffffff021916908373ffffffffffffffffffffffffffffffffffffffff160217905550600260009054906101000a900473ffffffffffffffffffffffffffffffffffffffff16600460006101000a81548173ffffffffffffffffffffffffffffffffffffffff021916908373ffffffffffffffffffffffffffffffffffffffff16021790555050565b60008054906101000a900473ffffffffffffffffffffffffffffffffffffffff1673ffffffffffffffffffffffffffffffffffffffff163373ffffffffffffffffffffffffffffffffffffffff16146103fc576040517f08c379a00000000000000000000000000000000000000000000000000000000081526004016103f390611836565b60405180910390fd5b80600160006101000a81548173ffffffffffffffffffffffffffffffffffffffff021916908373ffffffffffffffffffffffffffffffffffffffff160217905550600160009054906101000a900473ffffffffffffffffffffffffffffffffffffffff16600360006101000a81548173ffffffffffffffffffffffffffffffffffffffff021916908373ffffffffffffffffffffffffffffffffffffffff16021790555050565b60006104ae8361095d565b90508181600001819052506104c38382610b79565b505050565b6104d0610c0c565b7fcf34ef537ac33ee1ac626ca1587a0a7e8e51561e5514f8cb36afa1c5102b3bab6040516104fd906118a2565b60405180910390a161050e8261095d565b816020018190525061051f826106a0565b8160000181905250919050565b600260009054906101000a900473ffffffffffffffffffffffffffffffffffffffff1681565b60008054906101000a900473ffffffffffffffffffffffffffffffffffffffff1681565b600460009054906101000a900473ffffffffffffffffffffffffffffffffffffffff1673ffffffffffffffffffffffffffffffffffffffff16632ecf0e1d8383600001516040518363ffffffff1660e01b81526004016105d79291906118c2565b600060405180830381600087803b1580156105f157600080fd5b505af1158015610605573d6000803e3d6000fd5b50505050600360009054906101000a900473ffffffffffffffffffffffffffffffffffffffff1673ffffffffffffffffffffffffffffffffffffffff1663b7b6c1998383602001516040518363ffffffff1660e01b815260040161066a9291906118f2565b600060405180830381600087803b15801561068457600080fd5b505af1158015610698573d6000803e3d6000fd5b505050505050565b6106a8610c32565b7fcf34ef537ac33ee1ac626ca1587a0a7e8e51561e5514f8cb36afa1c5102b3bab6040516106d5906118a2565b60405180910390a1600460009054906101000a900473ffffffffffffffffffffffffffffffffffffffff1673ffffffffffffffffffffffffffffffffffffffff16637da8f6a5836040518263ffffffff1660e01b815260040161073891906111b8565b6000604051808303816000875af192505050801561077957506040513d6000823e3d601f19601f820116820180604052508101906107769190611bca565b60015b61085857610785611c20565b806308c379a0141561084c575061079a611c42565b806107a5575061084e565b7fcf34ef537ac33ee1ac626ca1587a0a7e8e51561e5514f8cb36afa1c5102b3bab6040516107d290611d4a565b60405180910390a17fcf34ef537ac33ee1ac626ca1587a0a7e8e51561e5514f8cb36afa1c5102b3bab816040516108099190611da3565b60405180910390a16040517f08c379a000000000000000000000000000000000000000000000000000000000815260040161084390611e11565b60405180910390fd5b505b3d6000803e3d6000fd5b7fcf34ef537ac33ee1ac626ca1587a0a7e8e51561e5514f8cb36afa1c5102b3bab60405161088590611e7d565b60405180910390a180915050919050565b60008054906101000a900473ffffffffffffffffffffffffffffffffffffffff1673ffffffffffffffffffffffffffffffffffffffff163373ffffffffffffffffffffffffffffffffffffffff1614610924576040517f08c379a000000000000000000000000000000000000000000000000000000000815260040161091b90611836565b60405180910390fd5b60008054906101000a900473ffffffffffffffffffffffffffffffffffffffff1673ffffffffffffffffffffffffffffffffffffffff16ff5b610965610c7f565b7fcf34ef537ac33ee1ac626ca1587a0a7e8e51561e5514f8cb36afa1c5102b3bab60405161099290611ee9565b60405180910390a1600360009054906101000a900473ffffffffffffffffffffffffffffffffffffffff1673ffffffffffffffffffffffffffffffffffffffff16637da8f6a5836040518263ffffffff1660e01b81526004016109f591906111b8565b6000604051808303816000875af1925050508015610a3657506040513d6000823e3d601f19601f82011682018060405250810190610a339190611fa5565b60015b610b1557610a42611c20565b806308c379a01415610b095750610a57611c42565b80610a625750610b0b565b7fcf34ef537ac33ee1ac626ca1587a0a7e8e51561e5514f8cb36afa1c5102b3bab604051610a8f90611d4a565b60405180910390a17fcf34ef537ac33ee1ac626ca1587a0a7e8e51561e5514f8cb36afa1c5102b3bab81604051610ac69190611da3565b60405180910390a16040517f08c379a0000000000000000000000000000000000000000000000000000000008152600401610b009061203a565b60405180910390fd5b505b3d6000803e3d6000fd5b7fcf34ef537ac33ee1ac626ca1587a0a7e8e51561e5514f8cb36afa1c5102b3bab604051610b42906120a6565b60405180910390a180915050919050565b600160009054906101000a900473ffffffffffffffffffffffffffffffffffffffff1681565b600360009054906101000a900473ffffffffffffffffffffffffffffffffffffffff1673ffffffffffffffffffffffffffffffffffffffff1663f14bc45483836040518363ffffffff1660e01b8152600401610bd69291906118f2565b600060405180830381600087803b158015610bf057600080fd5b505af1158015610c04573d6000803e3d6000fd5b505050505050565b6040518060400160405280610c1f610c32565b8152602001610c2c610c7f565b81525090565b6040518061010001604052806060815260200160608152602001606081526020016060815260200160608152602001610c69610ca2565b8152602001600081526020016000151581525090565b604051806060016040528060608152602001606081526020016000151581525090565b604051806060016040528060608152602001606081526020016000151581525090565b6000604051905090565b600080fd5b600080fd5b600073ffffffffffffffffffffffffffffffffffffffff82169050919050565b6000610d0482610cd9565b9050919050565b610d1481610cf9565b8114610d1f57600080fd5b50565b600081359050610d3181610d0b565b92915050565b600060208284031215610d4d57610d4c610ccf565b5b6000610d5b84828501610d22565b91505092915050565b600080fd5b600080fd5b6000601f19601f8301169050919050565b7f4e487b7100000000000000000000000000000000000000000000000000000000600052604160045260246000fd5b610db782610d6e565b810181811067ffffffffffffffff82111715610dd657610dd5610d7f565b5b80604052505050565b6000610de9610cc5565b9050610df58282610dae565b919050565b600067ffffffffffffffff821115610e1557610e14610d7f565b5b610e1e82610d6e565b9050602081019050919050565b82818337600083830152505050565b6000610e4d610e4884610dfa565b610ddf565b905082815260208101848484011115610e6957610e68610d69565b5b610e74848285610e2b565b509392505050565b600082601f830112610e9157610e90610d64565b5b8135610ea1848260208601610e3a565b91505092915050565b60008060408385031215610ec157610ec0610ccf565b5b6000610ecf85828601610d22565b925050602083013567ffffffffffffffff811115610ef057610eef610cd4565b5b610efc85828601610e7c565b9150509250929050565b600081519050919050565b600082825260208201905092915050565b60005b83811015610f40578082015181840152602081019050610f25565b83811115610f4f576000848401525b50505050565b6000610f6082610f06565b610f6a8185610f11565b9350610f7a818560208601610f22565b610f8381610d6e565b840191505092915050565b60008115159050919050565b610fa381610f8e565b82525050565b60006060830160008301518482036000860152610fc68282610f55565b91505060208301518482036020860152610fe08282610f55565b9150506040830151610ff56040860182610f9a565b508091505092915050565b6000819050919050565b61101381611000565b82525050565b60006101008301600083015184820360008601526110378282610f55565b915050602083015184820360208601526110518282610f55565b9150506040830151848203604086015261106b8282610f55565b915050606083015184820360608601526110858282610f55565b9150506080830151848203608086015261109f8282610f55565b91505060a083015184820360a08601526110b98282610fa9565b91505060c08301516110ce60c086018261100a565b5060e08301516110e160e0860182610f9a565b508091505092915050565b600060608301600083015184820360008601526111098282610f55565b915050602083015184820360208601526111238282610f55565b91505060408301516111386040860182610f9a565b508091505092915050565b600060408301600083015184820360008601526111608282611019565b9150506020830151848203602086015261117a82826110ec565b9150508091505092915050565b600060208201905081810360008301526111a18184611143565b905092915050565b6111b281610cf9565b82525050565b60006020820190506111cd60008301846111a9565b92915050565b600080fd5b600080fd5b6111e681610f8e565b81146111f157600080fd5b50565b600081359050611203816111dd565b92915050565b60006060828403121561121f5761121e6111d3565b5b6112296060610ddf565b9050600082013567ffffffffffffffff811115611249576112486111d8565b5b61125584828501610e7c565b600083015250602082013567ffffffffffffffff811115611279576112786111d8565b5b61128584828501610e7c565b6020830152506040611299848285016111f4565b60408301525092915050565b6112ae81611000565b81146112b957600080fd5b50565b6000813590506112cb816112a5565b92915050565b600061010082840312156112e8576112e76111d3565b5b6112f3610100610ddf565b9050600082013567ffffffffffffffff811115611313576113126111d8565b5b61131f84828501610e7c565b600083015250602082013567ffffffffffffffff811115611343576113426111d8565b5b61134f84828501610e7c565b602083015250604082013567ffffffffffffffff811115611373576113726111d8565b5b61137f84828501610e7c565b604083015250606082013567ffffffffffffffff8111156113a3576113a26111d8565b5b6113af84828501610e7c565b606083015250608082013567ffffffffffffffff8111156113d3576113d26111d8565b5b6113df84828501610e7c565b60808301525060a082013567ffffffffffffffff811115611403576114026111d8565b5b61140f84828501611209565b60a08301525060c0611423848285016112bc565b60c08301525060e0611437848285016111f4565b60e08301525092915050565b600060608284031215611459576114586111d3565b5b6114636060610ddf565b9050600082013567ffffffffffffffff811115611483576114826111d8565b5b61148f84828501610e7c565b600083015250602082013567ffffffffffffffff8111156114b3576114b26111d8565b5b6114bf84828501610e7c565b60208301525060406114d3848285016111f4565b60408301525092915050565b6000604082840312156114f5576114f46111d3565b5b6114ff6040610ddf565b9050600082013567ffffffffffffffff81111561151f5761151e6111d8565b5b61152b848285016112d1565b600083015250602082013567ffffffffffffffff81111561154f5761154e6111d8565b5b61155b84828501611443565b60208301525092915050565b6000806040838503121561157e5761157d610ccf565b5b600061158c85828601610d22565b925050602083013567ffffffffffffffff8111156115ad576115ac610cd4565b5b6115b9858286016114df565b9150509250929050565b60006101008301600083015184820360008601526115e18282610f55565b915050602083015184820360208601526115fb8282610f55565b915050604083015184820360408601526116158282610f55565b9150506060830151848203606086015261162f8282610f55565b915050608083015184820360808601526116498282610f55565b91505060a083015184820360a08601526116638282610fa9565b91505060c083015161167860c086018261100a565b5060e083015161168b60e0860182610f9a565b508091505092915050565b600060208201905081810360008301526116b081846115c3565b905092915050565b600060608301600083015184820360008601526116d58282610f55565b915050602083015184820360208601526116ef8282610f55565b91505060408301516117046040860182610f9a565b508091505092915050565b6000602082019050818103600083015261172981846116b8565b905092915050565b6000806040838503121561174857611747610ccf565b5b600061175685828601610d22565b925050602083013567ffffffffffffffff81111561177757611776610cd4565b5b61178385828601611443565b9150509250929050565b600082825260208201905092915050565b7f457374612066756e63696f6e20736f6c6f2070756564652073657220656a656360008201527f757461646120706f7220656c2063726561646f722064656c20636f6e7472617460208201527f6f00000000000000000000000000000000000000000000000000000000000000604082015250565b600061182060418361178d565b915061182b8261179e565b606082019050919050565b6000602082019050818103600083015261184f81611813565b9050919050565b7f656e74726f206120636f6e73756c746172000000000000000000000000000000600082015250565b600061188c60118361178d565b915061189782611856565b602082019050919050565b600060208201905081810360008301526118bb8161187f565b9050919050565b60006040820190506118d760008301856111a9565b81810360208301526118e981846115c3565b90509392505050565b600060408201905061190760008301856111a9565b818103602083015261191981846116b8565b90509392505050565b600061193561193084610dfa565b610ddf565b90508281526020810184848401111561195157611950610d69565b5b61195c848285610f22565b509392505050565b600082601f83011261197957611978610d64565b5b8151611989848260208601611922565b91505092915050565b6000815190506119a1816111dd565b92915050565b6000606082840312156119bd576119bc6111d3565b5b6119c76060610ddf565b9050600082015167ffffffffffffffff8111156119e7576119e66111d8565b5b6119f384828501611964565b600083015250602082015167ffffffffffffffff811115611a1757611a166111d8565b5b611a2384828501611964565b6020830152506040611a3784828501611992565b60408301525092915050565b600081519050611a52816112a5565b92915050565b60006101008284031215611a6f57611a6e6111d3565b5b611a7a610100610ddf565b9050600082015167ffffffffffffffff811115611a9a57611a996111d8565b5b611aa684828501611964565b600083015250602082015167ffffffffffffffff811115611aca57611ac96111d8565b5b611ad684828501611964565b602083015250604082015167ffffffffffffffff811115611afa57611af96111d8565b5b611b0684828501611964565b604083015250606082015167ffffffffffffffff811115611b2a57611b296111d8565b5b611b3684828501611964565b606083015250608082015167ffffffffffffffff811115611b5a57611b596111d8565b5b611b6684828501611964565b60808301525060a082015167ffffffffffffffff811115611b8a57611b896111d8565b5b611b96848285016119a7565b60a08301525060c0611baa84828501611a43565b60c08301525060e0611bbe84828501611992565b60e08301525092915050565b600060208284031215611be057611bdf610ccf565b5b600082015167ffffffffffffffff811115611bfe57611bfd610cd4565b5b611c0a84828501611a58565b91505092915050565b60008160e01c9050919050565b600060033d1115611c3f5760046000803e611c3c600051611c13565b90505b90565b600060443d1015611c5257611cd5565b611c5a610cc5565b60043d036004823e80513d602482011167ffffffffffffffff82111715611c82575050611cd5565b808201805167ffffffffffffffff811115611ca05750505050611cd5565b80602083010160043d038501811115611cbd575050505050611cd5565b611ccc82602001850186610dae565b82955050505050505b90565b7f736520726f6d70696f20706f7220756e20726576657274206f2072657175697260008201527f6500000000000000000000000000000000000000000000000000000000000000602082015250565b6000611d3460218361178d565b9150611d3f82611cd8565b604082019050919050565b60006020820190508181036000830152611d6381611d27565b9050919050565b6000611d7582610f06565b611d7f818561178d565b9350611d8f818560208601610f22565b611d9881610d6e565b840191505092915050565b60006020820190508181036000830152611dbd8184611d6a565b905092915050565b7f4e6f20657869737465206573652070616369656e746500000000000000000000600082015250565b6000611dfb60168361178d565b9150611e0682611dc5565b602082019050919050565b60006020820190508181036000830152611e2a81611dee565b9050919050565b7f656e636f6e74726f206c6120706572736f6e6100000000000000000000000000600082015250565b6000611e6760138361178d565b9150611e7282611e31565b602082019050919050565b60006020820190508181036000830152611e9681611e5a565b9050919050565b7f656e74726f206120636f6e73756c7461722050616369656e7465000000000000600082015250565b6000611ed3601a8361178d565b9150611ede82611e9d565b602082019050919050565b60006020820190508181036000830152611f0281611ec6565b9050919050565b600060608284031215611f1f57611f1e6111d3565b5b611f296060610ddf565b9050600082015167ffffffffffffffff811115611f4957611f486111d8565b5b611f5584828501611964565b600083015250602082015167ffffffffffffffff811115611f7957611f786111d8565b5b611f8584828501611964565b6020830152506040611f9984828501611992565b60408301525092915050565b600060208284031215611fbb57611fba610ccf565b5b600082015167ffffffffffffffff811115611fd957611fd8610cd4565b5b611fe584828501611f09565b91505092915050565b7f4e6f20657869737465206573652050616369656e746500000000000000000000600082015250565b600061202460168361178d565b915061202f82611fee565b602082019050919050565b6000602082019050818103600083015261205381612017565b9050919050565b7f656e636f6e74726f206c612050616369656e7465000000000000000000000000600082015250565b600061209060148361178d565b915061209b8261205a565b602082019050919050565b600060208201905081810360008301526120bf81612083565b905091905056fea26469706673582212201da5f2161bb531fd84faae96ab846d5ee0ba099bef355dea3bf0e134744dca7864736f6c634300080b0033",
  "immutableReferences": {},
  "source": "// SPDX-License-Identifier: MIT\npragma solidity ^0.8.10;\n\nimport \"./Persona.sol\";\nimport \"../models/PacienteStruct.sol\";\nimport \"../persistence/PacienteDAO.sol\";\n\n// TODO: cambiar el diagrama, no puede heredar pero si puede usar o componerse de persona\ncontract Paciente {\n    event Log(string data);\n    address public creador;\n    address public ContratoPacienteDAOAddress;\n    address public ContratoPersonaAddress;\n\n    PacienteDAO private contratoPacienteDAO;\n    Persona private contratoPersona;\n\n    struct PersonaPacienteStruct {\n        PersonaStruct persona;\n        PacienteStruct paciente;\n    }\n\n    constructor() {\n        creador = msg.sender; // creador del contrato\n    }\n\n    // TODO: poner modificador para que solo lo pueda ejecutar el service y\n    // en el service que solo lo ejecute un mdico\n    function cambiarEstado(address direccion, string memory estadoId) public {\n        PacienteStruct memory paciente = consultarPaciente(direccion);\n        // TODO: validar si el estado existe\n        paciente.estado = estadoId;\n        actualizar(direccion, paciente);\n    }\n\n    function consultar(address direccion)\n        public\n        returns (PersonaPacienteStruct memory pacienteInfo)\n    {\n        emit Log(\"entro a consultar\");\n        pacienteInfo.paciente = consultarPaciente(direccion);\n        pacienteInfo.persona = consultarPersona(direccion);\n    }\n\n    function consultarPaciente(address direccion)\n        public\n        returns (PacienteStruct memory)\n    {\n        emit Log(\"entro a consultar Paciente\");\n        try contratoPacienteDAO.consultar(direccion) returns (\n            PacienteStruct memory response\n        ) {\n            emit Log(\"encontro la Paciente\");\n            return response;\n        } catch Error(string memory e) {\n            /*reason*/\n            emit Log(\"se rompio por un revert o require\");\n            emit Log(e);\n            revert(\"No existe ese Paciente\");\n        }\n    }\n\n    function consultarPersona(address direccion)\n        public\n        returns (PersonaStruct memory)\n    {\n        emit Log(\"entro a consultar\");\n        try contratoPersona.consultar(direccion) returns (\n            PersonaStruct memory response\n        ) {\n            emit Log(\"encontro la persona\");\n            return response;\n        } catch Error(string memory e) {\n            /*reason*/\n            emit Log(\"se rompio por un revert o require\");\n            emit Log(e);\n            revert(\"No existe ese paciente\");\n        }\n    }\n\n    // TODO: validar que pasa si falla el registro de persona\n    // TODO: que pasa si falla guardar paciente?\n    function registrar(\n        address direccion,\n        PersonaPacienteStruct memory personaPaciente\n    ) public {\n        contratoPersona.registrar(direccion, personaPaciente.persona);\n        contratoPacienteDAO.guardar(direccion, personaPaciente.paciente);\n        /*try contratoPacienteDAO.guardar(direccion, personaPaciente.paciente) {\n            emit Log(\"Se guarda la informacion de paciente correctamente\");\n        } catch Error(string memory data) {\n            /*reason*/\n        /*\n            emit Log(\"se rompio por un revert o require\");\n            emit Log(data);\n        }*/\n    }\n\n    function actualizar(address direccion, PacienteStruct memory paciente)\n        public\n    {\n        contratoPacienteDAO.actualizar(direccion, paciente);\n        /*\n        try contratoPacienteDAO.actualizar(direccion, paciente) {\n            emit Log(\"Se guarda la informacion de paciente correctamente\");\n        } catch Error(string memory data) {\n            /*reason*/\n        /*  emit Log(\"se rompio por un revert o require\");\n            emit Log(data);\n        }*/\n    }\n\n    function setContratoPersonaAddress(address direccion) public esPropietario {\n        ContratoPersonaAddress = direccion;\n        contratoPersona = Persona(ContratoPersonaAddress);\n    }\n\n    function setContratoPacienteDAOAddress(address direccion)\n        public\n        esPropietario\n    {\n        ContratoPacienteDAOAddress = direccion;\n        contratoPacienteDAO = PacienteDAO(ContratoPacienteDAOAddress);\n    }\n\n    modifier esPropietario() {\n        require(\n            msg.sender == creador,\n            \"Esta funcion solo puede ser ejecutada por el creador del contrato\"\n        );\n        _; // ac se ejecuta la funcin\n    }\n\n    function selfDestruct() public esPropietario {\n        selfdestruct(payable(creador));\n    }\n}\n",
  "sourcePath": "/home/felipe/Documentos/Blockchain/codigo/back-hce/contracts/logica/Paciente.sol",
  "compiler": {
    "name": "solc",
    "version": "0.8.11+commit.d7f03943.Emscripten.clang"
  },
  "schemaVersion": "3.4.4",
  "updatedAt": "2022-02-18T22:43:22.218Z",
  "networkType": "ethereum",
  "devdoc": {
    "kind": "dev",
    "methods": {},
    "version": 1
  },
  "userdoc": {
    "kind": "user",
    "methods": {},
    "version": 1
  }
}