{
  "contractName": "Paciente",
  "abi": [
    {
      "inputs": [],
      "stateMutability": "nonpayable",
      "type": "constructor"
    },
    {
      "anonymous": false,
      "inputs": [
        {
          "indexed": false,
          "internalType": "string",
          "name": "data",
          "type": "string"
        }
      ],
      "name": "Log",
      "type": "event"
    },
    {
      "inputs": [],
      "name": "ContratoPersonaAddress",
      "outputs": [
        {
          "internalType": "address",
          "name": "",
          "type": "address"
        }
      ],
      "stateMutability": "view",
      "type": "function",
      "constant": true
    },
    {
      "inputs": [],
      "name": "creador",
      "outputs": [
        {
          "internalType": "address",
          "name": "",
          "type": "address"
        }
      ],
      "stateMutability": "view",
      "type": "function",
      "constant": true
    },
    {
      "inputs": [
        {
          "internalType": "address",
          "name": "direccion",
          "type": "address"
        }
      ],
      "name": "consultar",
      "outputs": [
        {
          "components": [
            {
              "internalType": "string",
              "name": "primerNombre",
              "type": "string"
            },
            {
              "internalType": "string",
              "name": "segundoNombre",
              "type": "string"
            },
            {
              "internalType": "string",
              "name": "primerApellido",
              "type": "string"
            },
            {
              "internalType": "string",
              "name": "segundoApellido",
              "type": "string"
            },
            {
              "internalType": "string",
              "name": "identificacion",
              "type": "string"
            },
            {
              "components": [
                {
                  "internalType": "string",
                  "name": "nombre",
                  "type": "string"
                },
                {
                  "internalType": "string",
                  "name": "descripcion",
                  "type": "string"
                },
                {
                  "internalType": "bool",
                  "name": "estaActiva",
                  "type": "bool"
                }
              ],
              "internalType": "struct TipoIdentificacionStruct",
              "name": "tipoIdentificacion",
              "type": "tuple"
            },
            {
              "internalType": "bool",
              "name": "isValue",
              "type": "bool"
            }
          ],
          "internalType": "struct PersonaStruct",
          "name": "",
          "type": "tuple"
        }
      ],
      "stateMutability": "nonpayable",
      "type": "function"
    },
    {
      "inputs": [
        {
          "internalType": "address",
          "name": "direccion",
          "type": "address"
        }
      ],
      "name": "setPersonaAddress",
      "outputs": [],
      "stateMutability": "nonpayable",
      "type": "function"
    }
  ],
  "bytecode": "0x608060405234801561001057600080fd5b50336000806101000a81548173ffffffffffffffffffffffffffffffffffffffff021916908373ffffffffffffffffffffffffffffffffffffffff160217905550610efd806100606000396000f3fe608060405234801561001057600080fd5b506004361061004c5760003560e01c80636a1e61aa146100515780637da8f6a51461006d578063928c135c1461009d57806392ebdcd2146100bb575b600080fd5b61006b60048036038101906100669190610528565b6100d9565b005b61008760048036038101906100829190610528565b61020e565b604051610094919061071f565b60405180910390f35b6100a5610404565b6040516100b29190610750565b60405180910390f35b6100c361042a565b6040516100d09190610750565b60405180910390f35b60008054906101000a900473ffffffffffffffffffffffffffffffffffffffff1673ffffffffffffffffffffffffffffffffffffffff163373ffffffffffffffffffffffffffffffffffffffff1614610167576040517f08c379a000000000000000000000000000000000000000000000000000000000815260040161015e90610814565b60405180910390fd5b80600160006101000a81548173ffffffffffffffffffffffffffffffffffffffff021916908373ffffffffffffffffffffffffffffffffffffffff160217905550600160009054906101000a900473ffffffffffffffffffffffffffffffffffffffff16600260006101000a81548173ffffffffffffffffffffffffffffffffffffffff021916908373ffffffffffffffffffffffffffffffffffffffff16021790555050565b61021661044e565b7fcf34ef537ac33ee1ac626ca1587a0a7e8e51561e5514f8cb36afa1c5102b3bab60405161024390610880565b60405180910390a1600260009054906101000a900473ffffffffffffffffffffffffffffffffffffffff1673ffffffffffffffffffffffffffffffffffffffff16637da8f6a5836040518263ffffffff1660e01b81526004016102a69190610750565b6000604051808303816000875af19250505080156102e757506040513d6000823e3d601f19601f820116820180604052508101906102e49190610bf4565b60015b6103c6576102f3610c4a565b806308c379a014156103ba5750610308610c6c565b8061031357506103bc565b7fcf34ef537ac33ee1ac626ca1587a0a7e8e51561e5514f8cb36afa1c5102b3bab60405161034090610d74565b60405180910390a17fcf34ef537ac33ee1ac626ca1587a0a7e8e51561e5514f8cb36afa1c5102b3bab816040516103779190610dcd565b60405180910390a16040517f08c379a00000000000000000000000000000000000000000000000000000000081526004016103b190610e3b565b60405180910390fd5b505b3d6000803e3d6000fd5b7fcf34ef537ac33ee1ac626ca1587a0a7e8e51561e5514f8cb36afa1c5102b3bab6040516103f390610ea7565b60405180910390a180915050919050565b600160009054906101000a900473ffffffffffffffffffffffffffffffffffffffff1681565b60008054906101000a900473ffffffffffffffffffffffffffffffffffffffff1681565b6040518060e001604052806060815260200160608152602001606081526020016060815260200160608152602001610484610493565b81526020016000151581525090565b604051806060016040528060608152602001606081526020016000151581525090565b6000604051905090565b600080fd5b600080fd5b600073ffffffffffffffffffffffffffffffffffffffff82169050919050565b60006104f5826104ca565b9050919050565b610505816104ea565b811461051057600080fd5b50565b600081359050610522816104fc565b92915050565b60006020828403121561053e5761053d6104c0565b5b600061054c84828501610513565b91505092915050565b600081519050919050565b600082825260208201905092915050565b60005b8381101561058f578082015181840152602081019050610574565b8381111561059e576000848401525b50505050565b6000601f19601f8301169050919050565b60006105c082610555565b6105ca8185610560565b93506105da818560208601610571565b6105e3816105a4565b840191505092915050565b60008115159050919050565b610603816105ee565b82525050565b6000606083016000830151848203600086015261062682826105b5565b9150506020830151848203602086015261064082826105b5565b915050604083015161065560408601826105fa565b508091505092915050565b600060e083016000830151848203600086015261067d82826105b5565b9150506020830151848203602086015261069782826105b5565b915050604083015184820360408601526106b182826105b5565b915050606083015184820360608601526106cb82826105b5565b915050608083015184820360808601526106e582826105b5565b91505060a083015184820360a08601526106ff8282610609565b91505060c083015161071460c08601826105fa565b508091505092915050565b600060208201905081810360008301526107398184610660565b905092915050565b61074a816104ea565b82525050565b60006020820190506107656000830184610741565b92915050565b600082825260208201905092915050565b7f457374612066756e63696f6e20736f6c6f2070756564652073657220656a656360008201527f757461646120706f7220656c2063726561646f722064656c20636f6e7472617460208201527f6f00000000000000000000000000000000000000000000000000000000000000604082015250565b60006107fe60418361076b565b91506108098261077c565b606082019050919050565b6000602082019050818103600083015261082d816107f1565b9050919050565b7f656e74726f206120636f6e73756c746172000000000000000000000000000000600082015250565b600061086a60118361076b565b915061087582610834565b602082019050919050565b600060208201905081810360008301526108998161085d565b9050919050565b600080fd5b7f4e487b7100000000000000000000000000000000000000000000000000000000600052604160045260246000fd5b6108dd826105a4565b810181811067ffffffffffffffff821117156108fc576108fb6108a5565b5b80604052505050565b600061090f6104b6565b905061091b82826108d4565b919050565b600080fd5b600080fd5b600080fd5b600067ffffffffffffffff82111561094a576109496108a5565b5b610953826105a4565b9050602081019050919050565b600061097361096e8461092f565b610905565b90508281526020810184848401111561098f5761098e61092a565b5b61099a848285610571565b509392505050565b600082601f8301126109b7576109b6610925565b5b81516109c7848260208601610960565b91505092915050565b6109d9816105ee565b81146109e457600080fd5b50565b6000815190506109f6816109d0565b92915050565b600060608284031215610a1257610a116108a0565b5b610a1c6060610905565b9050600082015167ffffffffffffffff811115610a3c57610a3b610920565b5b610a48848285016109a2565b600083015250602082015167ffffffffffffffff811115610a6c57610a6b610920565b5b610a78848285016109a2565b6020830152506040610a8c848285016109e7565b60408301525092915050565b600060e08284031215610aae57610aad6108a0565b5b610ab860e0610905565b9050600082015167ffffffffffffffff811115610ad857610ad7610920565b5b610ae4848285016109a2565b600083015250602082015167ffffffffffffffff811115610b0857610b07610920565b5b610b14848285016109a2565b602083015250604082015167ffffffffffffffff811115610b3857610b37610920565b5b610b44848285016109a2565b604083015250606082015167ffffffffffffffff811115610b6857610b67610920565b5b610b74848285016109a2565b606083015250608082015167ffffffffffffffff811115610b9857610b97610920565b5b610ba4848285016109a2565b60808301525060a082015167ffffffffffffffff811115610bc857610bc7610920565b5b610bd4848285016109fc565b60a08301525060c0610be8848285016109e7565b60c08301525092915050565b600060208284031215610c0a57610c096104c0565b5b600082015167ffffffffffffffff811115610c2857610c276104c5565b5b610c3484828501610a98565b91505092915050565b60008160e01c9050919050565b600060033d1115610c695760046000803e610c66600051610c3d565b90505b90565b600060443d1015610c7c57610cff565b610c846104b6565b60043d036004823e80513d602482011167ffffffffffffffff82111715610cac575050610cff565b808201805167ffffffffffffffff811115610cca5750505050610cff565b80602083010160043d038501811115610ce7575050505050610cff565b610cf6826020018501866108d4565b82955050505050505b90565b7f736520726f6d70696f20706f7220756e20726576657274206f2072657175697260008201527f6500000000000000000000000000000000000000000000000000000000000000602082015250565b6000610d5e60218361076b565b9150610d6982610d02565b604082019050919050565b60006020820190508181036000830152610d8d81610d51565b9050919050565b6000610d9f82610555565b610da9818561076b565b9350610db9818560208601610571565b610dc2816105a4565b840191505092915050565b60006020820190508181036000830152610de78184610d94565b905092915050565b7f4e6f20657869737465206573652070616369656e746500000000000000000000600082015250565b6000610e2560168361076b565b9150610e3082610def565b602082019050919050565b60006020820190508181036000830152610e5481610e18565b9050919050565b7f656e636f6e74726f206c6120706572736f6e6100000000000000000000000000600082015250565b6000610e9160138361076b565b9150610e9c82610e5b565b602082019050919050565b60006020820190508181036000830152610ec081610e84565b905091905056fea2646970667358221220e49921f2d3e3aea62bf22eb8ddb95d4cf42c7de1ffa59542cb66b6bf1407cd4f64736f6c634300080b0033",
  "immutableReferences": {},
  "source": "// SPDX-License-Identifier: MIT\npragma solidity ^0.8.10; \n\nimport \"./Persona.sol\";\nimport \"../models/PacienteStruct.sol\";\n\n// TODO: cambiar el diagrama, no puede heredar pero si puede usar o componerse de persona\ncontract Paciente {\n    event Log(string data);\n    address public creador;\n    address public ContratoPersonaAddress;\n\n    Persona private contratoPersona;\n\n    struct PersonaPacienteStruct {\n        PersonaStruct persona;\n        PacienteStruct paciente;\n    }\n\n    // EstadoStruct private estado;\n\n    // DatosPersonales private datosPersonales;\n\n    constructor() {\n        creador = msg.sender; // creador del contrato\n    }\n\n    function consultar(address direccion)\n        public\n        returns (PersonaStruct memory)\n    {\n        emit Log(\"entro a consultar\");\n        try contratoPersona.consultar(direccion) returns (\n            PersonaStruct memory response\n        ) {\n            emit Log(\"encontro la persona\");\n            return response;\n        } catch Error(string memory e) {\n            /*reason*/\n            emit Log(\"se rompio por un revert o require\");\n            emit Log(e);\n            revert(\"No existe ese paciente\");\n        }\n    }\n\n    function setPersonaAddress(address direccion) public esPropietario {\n        ContratoPersonaAddress = direccion;\n        contratoPersona = Persona(ContratoPersonaAddress);\n    }\n\n    modifier esPropietario() {\n        require(\n            msg.sender == creador,\n            \"Esta funcion solo puede ser ejecutada por el creador del contrato\"\n        );\n        _; // ac se ejecuta la funcin\n    }\n}\n",
  "sourcePath": "/home/felipe/Documentos/Blockchain/codigo/back-hce/contracts/logica/Paciente.sol",
  "compiler": {
    "name": "solc",
    "version": "0.8.11+commit.d7f03943.Emscripten.clang"
  },
  "schemaVersion": "3.4.4",
  "updatedAt": "2022-01-30T04:12:06.255Z",
  "networkType": "ethereum",
  "devdoc": {
    "kind": "dev",
    "methods": {},
    "version": 1
  },
  "userdoc": {
    "kind": "user",
    "methods": {},
    "version": 1
  }
}