{
  "contractName": "PartoVO",
  "abi": [
    {
      "inputs": [],
      "name": "creador",
      "outputs": [
        {
          "internalType": "address",
          "name": "",
          "type": "address"
        }
      ],
      "stateMutability": "view",
      "type": "function"
    },
    {
      "inputs": [],
      "name": "getCodPrestadorServicioDeSalud",
      "outputs": [
        {
          "internalType": "address",
          "name": "",
          "type": "address"
        }
      ],
      "stateMutability": "view",
      "type": "function"
    },
    {
      "inputs": [],
      "name": "getFechaRegistro",
      "outputs": [
        {
          "internalType": "uint256",
          "name": "",
          "type": "uint256"
        }
      ],
      "stateMutability": "view",
      "type": "function"
    },
    {
      "inputs": [],
      "name": "getId",
      "outputs": [
        {
          "internalType": "uint256",
          "name": "",
          "type": "uint256"
        }
      ],
      "stateMutability": "view",
      "type": "function"
    },
    {
      "inputs": [],
      "name": "getRegistroMedico",
      "outputs": [
        {
          "components": [
            {
              "internalType": "uint256",
              "name": "id",
              "type": "uint256"
            },
            {
              "internalType": "address",
              "name": "codPrestadorServicioDeSalud",
              "type": "address"
            },
            {
              "internalType": "uint256",
              "name": "fechaRegistro",
              "type": "uint256"
            },
            {
              "internalType": "enum TipoRegistroMedico",
              "name": "tipoRegistroMedico",
              "type": "uint8"
            }
          ],
          "internalType": "struct RegistroMedico.RegistroMedicoStruct",
          "name": "",
          "type": "tuple"
        }
      ],
      "stateMutability": "view",
      "type": "function"
    },
    {
      "inputs": [],
      "name": "getTipoRegistroMedico",
      "outputs": [
        {
          "internalType": "enum TipoRegistroMedico",
          "name": "",
          "type": "uint8"
        }
      ],
      "stateMutability": "view",
      "type": "function"
    },
    {
      "inputs": [],
      "name": "selfDestruct",
      "outputs": [],
      "stateMutability": "nonpayable",
      "type": "function"
    },
    {
      "inputs": [
        {
          "internalType": "address",
          "name": "_codPrestadorServicioDeSalud",
          "type": "address"
        }
      ],
      "name": "setCodPrestadorServicioDeSalud",
      "outputs": [],
      "stateMutability": "nonpayable",
      "type": "function"
    },
    {
      "inputs": [
        {
          "internalType": "uint256",
          "name": "_fechaRegistro",
          "type": "uint256"
        }
      ],
      "name": "setFechaRegistro",
      "outputs": [],
      "stateMutability": "nonpayable",
      "type": "function"
    },
    {
      "inputs": [
        {
          "internalType": "uint256",
          "name": "_id",
          "type": "uint256"
        }
      ],
      "name": "setId",
      "outputs": [],
      "stateMutability": "nonpayable",
      "type": "function"
    },
    {
      "inputs": [
        {
          "components": [
            {
              "internalType": "uint256",
              "name": "id",
              "type": "uint256"
            },
            {
              "internalType": "address",
              "name": "codPrestadorServicioDeSalud",
              "type": "address"
            },
            {
              "internalType": "uint256",
              "name": "fechaRegistro",
              "type": "uint256"
            },
            {
              "internalType": "enum TipoRegistroMedico",
              "name": "tipoRegistroMedico",
              "type": "uint8"
            }
          ],
          "internalType": "struct RegistroMedico.RegistroMedicoStruct",
          "name": "registro",
          "type": "tuple"
        }
      ],
      "name": "setRegistroMedico",
      "outputs": [],
      "stateMutability": "nonpayable",
      "type": "function"
    },
    {
      "inputs": [
        {
          "internalType": "enum TipoRegistroMedico",
          "name": "_tipoRegistroMedico",
          "type": "uint8"
        }
      ],
      "name": "setTipoRegistroMedico",
      "outputs": [],
      "stateMutability": "nonpayable",
      "type": "function"
    },
    {
      "inputs": [],
      "name": "getPeriodoGestacion",
      "outputs": [
        {
          "internalType": "uint256",
          "name": "",
          "type": "uint256"
        }
      ],
      "stateMutability": "view",
      "type": "function"
    },
    {
      "inputs": [],
      "name": "getControlPrenatal",
      "outputs": [
        {
          "internalType": "bool",
          "name": "",
          "type": "bool"
        }
      ],
      "stateMutability": "view",
      "type": "function"
    },
    {
      "inputs": [],
      "name": "getCausaMuerteMadre",
      "outputs": [
        {
          "internalType": "string",
          "name": "",
          "type": "string"
        }
      ],
      "stateMutability": "view",
      "type": "function"
    },
    {
      "inputs": [],
      "name": "getFechaMuerteMadre",
      "outputs": [
        {
          "internalType": "uint256",
          "name": "",
          "type": "uint256"
        }
      ],
      "stateMutability": "view",
      "type": "function"
    },
    {
      "inputs": [],
      "name": "getActaNacimiento",
      "outputs": [
        {
          "components": [
            {
              "internalType": "uint256",
              "name": "fechaNacimiento",
              "type": "uint256"
            },
            {
              "components": [
                {
                  "internalType": "uint256",
                  "name": "id",
                  "type": "uint256"
                },
                {
                  "internalType": "string",
                  "name": "nombre",
                  "type": "string"
                },
                {
                  "internalType": "string",
                  "name": "descripcion",
                  "type": "string"
                },
                {
                  "internalType": "bool",
                  "name": "estaActiva",
                  "type": "bool"
                }
              ],
              "internalType": "struct SexoStruct",
              "name": "sexo",
              "type": "tuple"
            },
            {
              "internalType": "uint256",
              "name": "peso",
              "type": "uint256"
            },
            {
              "internalType": "uint256",
              "name": "talla",
              "type": "uint256"
            },
            {
              "internalType": "string",
              "name": "diagnosticoRecienNacido",
              "type": "string"
            },
            {
              "components": [
                {
                  "internalType": "uint256",
                  "name": "frecuenciaCardiaca",
                  "type": "uint256"
                },
                {
                  "internalType": "uint256",
                  "name": "respiracion",
                  "type": "uint256"
                },
                {
                  "internalType": "uint256",
                  "name": "tonoMuscular",
                  "type": "uint256"
                },
                {
                  "internalType": "uint256",
                  "name": "reflejo",
                  "type": "uint256"
                },
                {
                  "internalType": "uint256",
                  "name": "color",
                  "type": "uint256"
                }
              ],
              "internalType": "struct PartoVO.ApgarStruct",
              "name": "apgar5Min",
              "type": "tuple"
            },
            {
              "internalType": "string",
              "name": "causaMuerte",
              "type": "string"
            },
            {
              "internalType": "uint256",
              "name": "fechaMuerte",
              "type": "uint256"
            },
            {
              "internalType": "uint256",
              "name": "codPrestadorServicioDeSalud",
              "type": "uint256"
            },
            {
              "internalType": "uint256",
              "name": "fechaRegistro",
              "type": "uint256"
            }
          ],
          "internalType": "struct PartoVO.ActaNacimientoStruct",
          "name": "",
          "type": "tuple"
        }
      ],
      "stateMutability": "view",
      "type": "function"
    },
    {
      "inputs": [],
      "name": "getTipoParto",
      "outputs": [
        {
          "internalType": "string",
          "name": "",
          "type": "string"
        }
      ],
      "stateMutability": "view",
      "type": "function"
    },
    {
      "inputs": [],
      "name": "getPartoStruct",
      "outputs": [
        {
          "components": [
            {
              "internalType": "uint256",
              "name": "periodoGestacion",
              "type": "uint256"
            },
            {
              "internalType": "bool",
              "name": "controlPrenatal",
              "type": "bool"
            },
            {
              "internalType": "string",
              "name": "causaMuerteMadre",
              "type": "string"
            },
            {
              "internalType": "uint256",
              "name": "fechaMuerteMadre",
              "type": "uint256"
            },
            {
              "components": [
                {
                  "internalType": "uint256",
                  "name": "fechaNacimiento",
                  "type": "uint256"
                },
                {
                  "components": [
                    {
                      "internalType": "uint256",
                      "name": "id",
                      "type": "uint256"
                    },
                    {
                      "internalType": "string",
                      "name": "nombre",
                      "type": "string"
                    },
                    {
                      "internalType": "string",
                      "name": "descripcion",
                      "type": "string"
                    },
                    {
                      "internalType": "bool",
                      "name": "estaActiva",
                      "type": "bool"
                    }
                  ],
                  "internalType": "struct SexoStruct",
                  "name": "sexo",
                  "type": "tuple"
                },
                {
                  "internalType": "uint256",
                  "name": "peso",
                  "type": "uint256"
                },
                {
                  "internalType": "uint256",
                  "name": "talla",
                  "type": "uint256"
                },
                {
                  "internalType": "string",
                  "name": "diagnosticoRecienNacido",
                  "type": "string"
                },
                {
                  "components": [
                    {
                      "internalType": "uint256",
                      "name": "frecuenciaCardiaca",
                      "type": "uint256"
                    },
                    {
                      "internalType": "uint256",
                      "name": "respiracion",
                      "type": "uint256"
                    },
                    {
                      "internalType": "uint256",
                      "name": "tonoMuscular",
                      "type": "uint256"
                    },
                    {
                      "internalType": "uint256",
                      "name": "reflejo",
                      "type": "uint256"
                    },
                    {
                      "internalType": "uint256",
                      "name": "color",
                      "type": "uint256"
                    }
                  ],
                  "internalType": "struct PartoVO.ApgarStruct",
                  "name": "apgar5Min",
                  "type": "tuple"
                },
                {
                  "internalType": "string",
                  "name": "causaMuerte",
                  "type": "string"
                },
                {
                  "internalType": "uint256",
                  "name": "fechaMuerte",
                  "type": "uint256"
                },
                {
                  "internalType": "uint256",
                  "name": "codPrestadorServicioDeSalud",
                  "type": "uint256"
                },
                {
                  "internalType": "uint256",
                  "name": "fechaRegistro",
                  "type": "uint256"
                }
              ],
              "internalType": "struct PartoVO.ActaNacimientoStruct",
              "name": "actaNacimiento",
              "type": "tuple"
            },
            {
              "internalType": "string",
              "name": "tipoParto",
              "type": "string"
            }
          ],
          "internalType": "struct PartoVO.PartoStruct",
          "name": "",
          "type": "tuple"
        }
      ],
      "stateMutability": "view",
      "type": "function"
    },
    {
      "inputs": [
        {
          "components": [
            {
              "internalType": "uint256",
              "name": "periodoGestacion",
              "type": "uint256"
            },
            {
              "internalType": "bool",
              "name": "controlPrenatal",
              "type": "bool"
            },
            {
              "internalType": "string",
              "name": "causaMuerteMadre",
              "type": "string"
            },
            {
              "internalType": "uint256",
              "name": "fechaMuerteMadre",
              "type": "uint256"
            },
            {
              "components": [
                {
                  "internalType": "uint256",
                  "name": "fechaNacimiento",
                  "type": "uint256"
                },
                {
                  "components": [
                    {
                      "internalType": "uint256",
                      "name": "id",
                      "type": "uint256"
                    },
                    {
                      "internalType": "string",
                      "name": "nombre",
                      "type": "string"
                    },
                    {
                      "internalType": "string",
                      "name": "descripcion",
                      "type": "string"
                    },
                    {
                      "internalType": "bool",
                      "name": "estaActiva",
                      "type": "bool"
                    }
                  ],
                  "internalType": "struct SexoStruct",
                  "name": "sexo",
                  "type": "tuple"
                },
                {
                  "internalType": "uint256",
                  "name": "peso",
                  "type": "uint256"
                },
                {
                  "internalType": "uint256",
                  "name": "talla",
                  "type": "uint256"
                },
                {
                  "internalType": "string",
                  "name": "diagnosticoRecienNacido",
                  "type": "string"
                },
                {
                  "components": [
                    {
                      "internalType": "uint256",
                      "name": "frecuenciaCardiaca",
                      "type": "uint256"
                    },
                    {
                      "internalType": "uint256",
                      "name": "respiracion",
                      "type": "uint256"
                    },
                    {
                      "internalType": "uint256",
                      "name": "tonoMuscular",
                      "type": "uint256"
                    },
                    {
                      "internalType": "uint256",
                      "name": "reflejo",
                      "type": "uint256"
                    },
                    {
                      "internalType": "uint256",
                      "name": "color",
                      "type": "uint256"
                    }
                  ],
                  "internalType": "struct PartoVO.ApgarStruct",
                  "name": "apgar5Min",
                  "type": "tuple"
                },
                {
                  "internalType": "string",
                  "name": "causaMuerte",
                  "type": "string"
                },
                {
                  "internalType": "uint256",
                  "name": "fechaMuerte",
                  "type": "uint256"
                },
                {
                  "internalType": "uint256",
                  "name": "codPrestadorServicioDeSalud",
                  "type": "uint256"
                },
                {
                  "internalType": "uint256",
                  "name": "fechaRegistro",
                  "type": "uint256"
                }
              ],
              "internalType": "struct PartoVO.ActaNacimientoStruct",
              "name": "actaNacimiento",
              "type": "tuple"
            },
            {
              "internalType": "string",
              "name": "tipoParto",
              "type": "string"
            }
          ],
          "internalType": "struct PartoVO.PartoStruct",
          "name": "_partoStruct",
          "type": "tuple"
        }
      ],
      "name": "setPartoStruct",
      "outputs": [],
      "stateMutability": "nonpayable",
      "type": "function"
    },
    {
      "inputs": [
        {
          "internalType": "uint256",
          "name": "_periodoGestacion",
          "type": "uint256"
        }
      ],
      "name": "setPeriodoGestacion",
      "outputs": [],
      "stateMutability": "nonpayable",
      "type": "function"
    },
    {
      "inputs": [
        {
          "internalType": "bool",
          "name": "_controlPrenatal",
          "type": "bool"
        }
      ],
      "name": "setControlPrenatal",
      "outputs": [],
      "stateMutability": "nonpayable",
      "type": "function"
    },
    {
      "inputs": [
        {
          "internalType": "string",
          "name": "_causaMuerteMadre",
          "type": "string"
        }
      ],
      "name": "setCausaMuerteMadre",
      "outputs": [],
      "stateMutability": "nonpayable",
      "type": "function"
    },
    {
      "inputs": [
        {
          "internalType": "uint256",
          "name": "_fechaMuerteMadre",
          "type": "uint256"
        }
      ],
      "name": "setFechaMuerteMadre",
      "outputs": [],
      "stateMutability": "nonpayable",
      "type": "function"
    },
    {
      "inputs": [
        {
          "components": [
            {
              "internalType": "uint256",
              "name": "fechaNacimiento",
              "type": "uint256"
            },
            {
              "components": [
                {
                  "internalType": "uint256",
                  "name": "id",
                  "type": "uint256"
                },
                {
                  "internalType": "string",
                  "name": "nombre",
                  "type": "string"
                },
                {
                  "internalType": "string",
                  "name": "descripcion",
                  "type": "string"
                },
                {
                  "internalType": "bool",
                  "name": "estaActiva",
                  "type": "bool"
                }
              ],
              "internalType": "struct SexoStruct",
              "name": "sexo",
              "type": "tuple"
            },
            {
              "internalType": "uint256",
              "name": "peso",
              "type": "uint256"
            },
            {
              "internalType": "uint256",
              "name": "talla",
              "type": "uint256"
            },
            {
              "internalType": "string",
              "name": "diagnosticoRecienNacido",
              "type": "string"
            },
            {
              "components": [
                {
                  "internalType": "uint256",
                  "name": "frecuenciaCardiaca",
                  "type": "uint256"
                },
                {
                  "internalType": "uint256",
                  "name": "respiracion",
                  "type": "uint256"
                },
                {
                  "internalType": "uint256",
                  "name": "tonoMuscular",
                  "type": "uint256"
                },
                {
                  "internalType": "uint256",
                  "name": "reflejo",
                  "type": "uint256"
                },
                {
                  "internalType": "uint256",
                  "name": "color",
                  "type": "uint256"
                }
              ],
              "internalType": "struct PartoVO.ApgarStruct",
              "name": "apgar5Min",
              "type": "tuple"
            },
            {
              "internalType": "string",
              "name": "causaMuerte",
              "type": "string"
            },
            {
              "internalType": "uint256",
              "name": "fechaMuerte",
              "type": "uint256"
            },
            {
              "internalType": "uint256",
              "name": "codPrestadorServicioDeSalud",
              "type": "uint256"
            },
            {
              "internalType": "uint256",
              "name": "fechaRegistro",
              "type": "uint256"
            }
          ],
          "internalType": "struct PartoVO.ActaNacimientoStruct",
          "name": "_actaNacimiento",
          "type": "tuple"
        }
      ],
      "name": "setActaNacimiento",
      "outputs": [],
      "stateMutability": "nonpayable",
      "type": "function"
    },
    {
      "inputs": [
        {
          "internalType": "string",
          "name": "_tipoParto",
          "type": "string"
        }
      ],
      "name": "setTipoParto",
      "outputs": [],
      "stateMutability": "nonpayable",
      "type": "function"
    }
  ],
  "bytecode": "0x608060405234801561001057600080fd5b506004805460ff1916600b179055611a7f8061002d6000396000f3fe608060405234801561001057600080fd5b50600436106101ae5760003560e01c8063871b84f3116100ee578063a204b7c911610097578063ca3c5a1311610071578063ca3c5a131461037e578063ca99d32314610391578063d0e0ba95146103a4578063f7fc5d74146103b757600080fd5b8063a204b7c91461034e578063a4ec08b814610361578063aba792f61461036957600080fd5b806392ebdcd2116100c857806392ebdcd21461030a57806393be08ef146103355780639cb8a26a1461034657600080fd5b8063871b84f3146102ce5780638e2826e7146102ef57806391f6ffc0146102f757600080fd5b80633f81a1a31161015b57806352b707b71161013557806352b707b7146102635780635d1ca63114610276578063803a56ec1461027e57806385fbe5d8146102bb57600080fd5b80633f81a1a31461022a57806344517a9a1461023d57806349e7aae81461025057600080fd5b80631b59abb91161018c5780631b59abb9146101fb57806325165f651461020d57806327f074cf1461021557600080fd5b8063094377dc146101b35780630b627f3e146101d15780630bcacc1b146101e6575b600080fd5b6101bb6103cd565b6040516101c89190611276565b60405180910390f35b6101d961083b565b6040516101c891906112f7565b6101ee6108d0565b6040516101c89190611349565b6003545b6040519081526020016101c8565b6101d9610945565b61022861022336600461138b565b600355565b005b610228610238366004611494565b610957565b60045460ff166040516101c891906114d1565b61022861025e366004611494565b610967565b61022861027136600461138b565b600855565b6001546101ff565b61022861028c366004611501565b6002805473ffffffffffffffffffffffffffffffffffffffff19166001600160a01b0392909216919091179055565b6102286102c936600461172a565b610973565b6102286102dc366004611804565b6006805460ff1916911515919091179055565b6005546101ff565b61022861030536600461138b565b600555565b60005461031d906001600160a01b031681565b6040516001600160a01b0390911681526020016101c8565b6002546001600160a01b031661031d565b610228610abf565b61022861035c36600461182e565b610b91565b6008546101ff565b610371610bfd565b6040516101c8919061189d565b61022861038c3660046118b0565b610f0f565b61022861039f3660046118cb565b610f2e565b6102286103b236600461138b565b600155565b60065460ff1660405190151581526020016101c8565b6103d561101c565b6040805160c08101825260058054825260065460ff161515602083015260078054929391929184019161040790611900565b80601f016020809104026020016040519081016040528092919081815260200182805461043390611900565b80156104805780601f1061045557610100808354040283529160200191610480565b820191906000526020600020905b81548152906001019060200180831161046357829003601f168201915b505050505081526020016003820154815260200160048201604051806101400160405290816000820154815260200160018201604051806080016040529081600082015481526020016001820180546104d890611900565b80601f016020809104026020016040519081016040528092919081815260200182805461050490611900565b80156105515780601f1061052657610100808354040283529160200191610551565b820191906000526020600020905b81548152906001019060200180831161053457829003601f168201915b5050505050815260200160028201805461056a90611900565b80601f016020809104026020016040519081016040528092919081815260200182805461059690611900565b80156105e35780601f106105b8576101008083540402835291602001916105e3565b820191906000526020600020905b8154815290600101906020018083116105c657829003601f168201915b50505091835250506003919091015460ff1615156020918201529082526005830154908201526006820154604082015260078201805460609092019161062890611900565b80601f016020809104026020016040519081016040528092919081815260200182805461065490611900565b80156106a15780601f10610676576101008083540402835291602001916106a1565b820191906000526020600020905b81548152906001019060200180831161068457829003601f168201915b50505050508152602001600882016040518060a0016040529081600082015481526020016001820154815260200160028201548152602001600382015481526020016004820154815250508152602001600d8201805461070090611900565b80601f016020809104026020016040519081016040528092919081815260200182805461072c90611900565b80156107795780601f1061074e57610100808354040283529160200191610779565b820191906000526020600020905b81548152906001019060200180831161075c57829003601f168201915b50505050508152602001600e8201548152602001600f820154815260200160108201548152505081526020016015820180546107b490611900565b80601f01602080910402602001604051908101604052809291908181526020018280546107e090611900565b801561082d5780601f106108025761010080835404028352916020019161082d565b820191906000526020600020905b81548152906001019060200180831161081057829003601f168201915b505050505081525050905090565b60606005601501805461084d90611900565b80601f016020809104026020016040519081016040528092919081815260200182805461087990611900565b80156108c65780601f1061089b576101008083540402835291602001916108c6565b820191906000526020600020905b8154815290600101906020018083116108a957829003601f168201915b5050505050905090565b6108f86040805160808101825260008082526020820181905291810182905290606082015290565b6040805160808101825260015481526002546001600160a01b0316602082015260035491810191909152600454606082019060ff16601281111561093e5761093e611311565b9052919050565b60606005600201805461084d90611900565b60076109638282611989565b5050565b601a6109638282611989565b8051600590815560208201516006805460ff191691151591909117905560408201518291906007906109a59082611989565b506060820151600382015560808201518051600483019081556020808301518051600586019081559181015190919060068601906109e39082611989565b50604082015160028201906109f89082611989565b50606091820151600391909101805460ff191691151591909117905560408301516005830155820151600682015560808201516007820190610a3a9082611989565b5060a082015180516008830155602081015160098301556040810151600a8301556060810151600b83015560800151600c82015560c0820151600d820190610a829082611989565b5060e0820151600e820155610100820151600f8201556101209091015160109091015560a08201516015820190610ab99082611989565b50505050565b6000546001600160a01b03163314610b83576040517f08c379a000000000000000000000000000000000000000000000000000000000815260206004820152604160248201527f457374612066756e63696f6e20736f6c6f2070756564652073657220656a656360448201527f757461646120706f7220656c2063726561646f722064656c20636f6e7472617460648201527f6f00000000000000000000000000000000000000000000000000000000000000608482015260a40160405180910390fd5b6000546001600160a01b0316ff5b8051600190815560208201516002805473ffffffffffffffffffffffffffffffffffffffff19166001600160a01b0390921691909117905560408201516003556060820151600480549192909160ff191690836012811115610bf557610bf5611311565b021790555050565b610c0561105a565b6040805161014081018252600980548252825160808101909352600a80548452600b805493949293602080870194939290840191610c4290611900565b80601f0160208091040260200160405190810160405280929190818152602001828054610c6e90611900565b8015610cbb5780601f10610c9057610100808354040283529160200191610cbb565b820191906000526020600020905b815481529060010190602001808311610c9e57829003601f168201915b50505050508152602001600282018054610cd490611900565b80601f0160208091040260200160405190810160405280929190818152602001828054610d0090611900565b8015610d4d5780601f10610d2257610100808354040283529160200191610d4d565b820191906000526020600020905b815481529060010190602001808311610d3057829003601f168201915b50505091835250506003919091015460ff16151560209182015290825260058301549082015260068201546040820152600782018054606090920191610d9290611900565b80601f0160208091040260200160405190810160405280929190818152602001828054610dbe90611900565b8015610e0b5780601f10610de057610100808354040283529160200191610e0b565b820191906000526020600020905b815481529060010190602001808311610dee57829003601f168201915b50505050508152602001600882016040518060a0016040529081600082015481526020016001820154815260200160028201548152602001600382015481526020016004820154815250508152602001600d82018054610e6a90611900565b80601f0160208091040260200160405190810160405280929190818152602001828054610e9690611900565b8015610ee35780601f10610eb857610100808354040283529160200191610ee3565b820191906000526020600020905b815481529060010190602001808311610ec657829003601f168201915b50505050508152602001600e8201548152602001600f8201548152602001601082015481525050905090565b6004805482919060ff19166001836012811115610bf557610bf5611311565b805160099081556020808301518051600a9081559181015184939290600b90610f579082611989565b5060408201516002820190610f6c9082611989565b50606091820151600391909101805460ff191691151591909117905560408301516005830155820151600682015560808201516007820190610fae9082611989565b5060a082015180516008830155602081015160098301556040810151600a8301556060810151600b83015560800151600c82015560c0820151600d820190610ff69082611989565b5060e0820151600e820155610100820151600f8201556101209091015160109091015550565b6040518060c0016040528060008152602001600015158152602001606081526020016000815260200161104d61105a565b8152602001606081525090565b6040518061014001604052806000815260200161109a60405180608001604052806000815260200160608152602001606081526020016000151581525090565b81526020016000815260200160008152602001606081526020016110e66040518060a0016040528060008152602001600081526020016000815260200160008152602001600081525090565b8152602001606081526020016000815260200160008152602001600081525090565b6000815180845260005b8181101561112e57602081850181015186830182015201611112565b506000602082860101526020601f19601f83011685010191505092915050565b80518252600060208201516080602085015261116d6080850182611108565b9050604083015184820360408601526111868282611108565b9150506060830151151560608501528091505092915050565b60006101c08251845260208301518160208601526111bf8286018261114e565b9150506040830151604085015260608301516060850152608083015184820360808601526111ed8282611108565b91505060a083015161122d60a086018280518252602081015160208301526040810151604083015260608101516060830152608081015160808301525050565b5060c08301518482036101408601526112468282611108565b91505060e08301516101608501526101008301516101808501526101208301516101a08501528091505092915050565b60208152815160208201526020820151151560408201526000604083015160c060608401526112a860e0840182611108565b9050606084015160808401526080840151601f19808584030160a08601526112d0838361119f565b925060a08601519150808584030160c0860152506112ee8282611108565b95945050505050565b60208152600061130a6020830184611108565b9392505050565b634e487b7160e01b600052602160045260246000fd5b6013811061134557634e487b7160e01b600052602160045260246000fd5b9052565b6000608082019050825182526001600160a01b0360208401511660208301526040830151604083015260608301516113846060840182611327565b5092915050565b60006020828403121561139d57600080fd5b5035919050565b634e487b7160e01b600052604160045260246000fd5b604051610140810167ffffffffffffffff811182821017156113de576113de6113a4565b60405290565b60405160c0810167ffffffffffffffff811182821017156113de576113de6113a4565b600082601f83011261141857600080fd5b813567ffffffffffffffff80821115611433576114336113a4565b604051601f8301601f19908116603f0116810190828211818310171561145b5761145b6113a4565b8160405283815286602085880101111561147457600080fd5b836020870160208301376000602085830101528094505050505092915050565b6000602082840312156114a657600080fd5b813567ffffffffffffffff8111156114bd57600080fd5b6114c984828501611407565b949350505050565b602081016114df8284611327565b92915050565b80356001600160a01b03811681146114fc57600080fd5b919050565b60006020828403121561151357600080fd5b61130a826114e5565b803580151581146114fc57600080fd5b60006080828403121561153e57600080fd5b6040516080810167ffffffffffffffff8282108183111715611562576115626113a4565b8160405282935084358352602085013591508082111561158157600080fd5b61158d86838701611407565b602084015260408501359150808211156115a657600080fd5b506115b385828601611407565b6040830152506115c56060840161151c565b60608201525092915050565b600060a082840312156115e357600080fd5b60405160a0810181811067ffffffffffffffff82111715611606576116066113a4565b806040525080915082358152602083013560208201526040830135604082015260608301356060820152608083013560808201525092915050565b60006101c0828403121561165457600080fd5b61165c6113ba565b905081358152602082013567ffffffffffffffff8082111561167d57600080fd5b6116898583860161152c565b6020840152604084013560408401526060840135606084015260808401359150808211156116b657600080fd5b6116c285838601611407565b60808401526116d48560a086016115d1565b60a08401526101408401359150808211156116ee57600080fd5b506116fb84828501611407565b60c08301525061016082013560e08201526101808201356101008201526101a082013561012082015292915050565b60006020828403121561173c57600080fd5b813567ffffffffffffffff8082111561175457600080fd5b9083019060c0828603121561176857600080fd5b6117706113e4565b823581526117806020840161151c565b602082015260408301358281111561179757600080fd5b6117a387828601611407565b604083015250606083013560608201526080830135828111156117c557600080fd5b6117d187828601611641565b60808301525060a0830135828111156117e957600080fd5b6117f587828601611407565b60a08301525095945050505050565b60006020828403121561181657600080fd5b61130a8261151c565b8035601381106114fc57600080fd5b60006080828403121561184057600080fd5b6040516080810181811067ffffffffffffffff82111715611863576118636113a4565b60405282358152611876602084016114e5565b6020820152604083013560408201526118916060840161181f565b60608201529392505050565b60208152600061130a602083018461119f565b6000602082840312156118c257600080fd5b61130a8261181f565b6000602082840312156118dd57600080fd5b813567ffffffffffffffff8111156118f457600080fd5b6114c984828501611641565b600181811c9082168061191457607f821691505b60208210810361193457634e487b7160e01b600052602260045260246000fd5b50919050565b601f82111561198457600081815260208120601f850160051c810160208610156119615750805b601f850160051c820191505b818110156119805782815560010161196d565b5050505b505050565b815167ffffffffffffffff8111156119a3576119a36113a4565b6119b7816119b18454611900565b8461193a565b602080601f8311600181146119ec57600084156119d45750858301515b600019600386901b1c1916600185901b178555611980565b600085815260208120601f198616915b82811015611a1b578886015182559484019460019091019084016119fc565b5085821015611a395787850151600019600388901b60f8161c191681555b5050505050600190811b0190555056fea2646970667358221220c0717d4e075408d5ecc445184cbff78cdf0c7adc64e772bce26e5a8398fccb1e64736f6c63430008110033",
  "immutableReferences": {},
  "source": "// SPDX-License-Identifier: MIT\npragma solidity ^0.8.17;\n\nimport \"./RegistroMedico.sol\";\nimport \"../structsGenerales/SexoStruct.sol\";\n\ncontract PartoVO is RegistroMedico (TipoRegistroMedico.PARTOVO) {\n    struct PartoStruct {\n        uint256 periodoGestacion;\n        bool controlPrenatal;\n        string causaMuerteMadre;\n        uint256 fechaMuerteMadre;\n        ActaNacimientoStruct actaNacimiento;\n        string tipoParto;\n    }\n\n    struct ActaNacimientoStruct {\n        uint256 fechaNacimiento;\n        SexoStruct sexo;\n        uint256 peso;\n        uint256 talla;\n        string diagnosticoRecienNacido;\n        ApgarStruct apgar5Min;\n        string causaMuerte;\n        uint256 fechaMuerte;\n        uint256 codPrestadorServicioDeSalud;\n        uint256 fechaRegistro;\n    }\n\n    struct ApgarStruct {\n        uint256 frecuenciaCardiaca;\n        uint256 respiracion;\n        uint256 tonoMuscular;\n        uint256 reflejo;\n        uint256 color;\n    }\n\n    PartoStruct private partoStruct;\n\n    function getPeriodoGestacion() public view returns (uint256) {\n        return partoStruct.periodoGestacion;\n    }\n\n    function getControlPrenatal() public view returns (bool) {\n        return partoStruct.controlPrenatal;\n    }\n\n    function getCausaMuerteMadre() public view returns (string memory) {\n        return partoStruct.causaMuerteMadre;\n    }\n\n    function getFechaMuerteMadre() public view returns (uint256) {\n        return partoStruct.fechaMuerteMadre;\n    }\n\n    function getActaNacimiento()\n        public\n        view\n        returns (ActaNacimientoStruct memory)\n    {\n        return partoStruct.actaNacimiento;\n    }\n\n    function getTipoParto() public view returns (string memory) {\n        return partoStruct.tipoParto;\n    }\n\n    function getPartoStruct() public view returns (PartoStruct memory) {\n        return partoStruct;\n    }\n\n    function setPartoStruct(PartoStruct memory _partoStruct) public {\n        partoStruct = _partoStruct;\n    }\n\n    function setPeriodoGestacion(uint256 _periodoGestacion) public {\n        partoStruct.periodoGestacion = _periodoGestacion;\n    }\n\n    function setControlPrenatal(bool _controlPrenatal) public {\n        partoStruct.controlPrenatal = _controlPrenatal;\n    }\n\n    function setCausaMuerteMadre(string memory _causaMuerteMadre) public {\n        partoStruct.causaMuerteMadre = _causaMuerteMadre;\n    }\n\n    function setFechaMuerteMadre(uint256 _fechaMuerteMadre) public {\n        partoStruct.fechaMuerteMadre = _fechaMuerteMadre;\n    }\n\n    function setActaNacimiento(ActaNacimientoStruct memory _actaNacimiento)\n        public\n    {\n        partoStruct.actaNacimiento = _actaNacimiento;\n    }\n\n    function setTipoParto(string memory _tipoParto) public {\n        partoStruct.tipoParto = _tipoParto;\n    }\n}\n",
  "sourcePath": "/home/felipe/Documentos/Blockchain/codigo/HCE-full/back-hce/contracts/models/historiaClinica/PartoVO.sol",
  "compiler": {
    "name": "solc",
    "version": "0.8.17+commit.8df45f5f.Emscripten.clang"
  },
  "schemaVersion": "3.4.8",
  "updatedAt": "2023-04-05T22:10:23.377Z",
  "devdoc": {
    "kind": "dev",
    "methods": {},
    "version": 1
  },
  "userdoc": {
    "kind": "user",
    "methods": {},
    "version": 1
  }
}