{
  "contractName": "PerdidaDeConocimientoVO",
  "abi": [
    {
      "inputs": [],
      "name": "creador",
      "outputs": [
        {
          "internalType": "address",
          "name": "",
          "type": "address"
        }
      ],
      "stateMutability": "view",
      "type": "function"
    },
    {
      "inputs": [],
      "name": "getCodPrestadorServicioDeSalud",
      "outputs": [
        {
          "internalType": "address",
          "name": "",
          "type": "address"
        }
      ],
      "stateMutability": "view",
      "type": "function"
    },
    {
      "inputs": [],
      "name": "getFechaRegistro",
      "outputs": [
        {
          "internalType": "uint256",
          "name": "",
          "type": "uint256"
        }
      ],
      "stateMutability": "view",
      "type": "function"
    },
    {
      "inputs": [],
      "name": "getId",
      "outputs": [
        {
          "internalType": "uint256",
          "name": "",
          "type": "uint256"
        }
      ],
      "stateMutability": "view",
      "type": "function"
    },
    {
      "inputs": [],
      "name": "getRegistroMedico",
      "outputs": [
        {
          "components": [
            {
              "internalType": "uint256",
              "name": "id",
              "type": "uint256"
            },
            {
              "internalType": "address",
              "name": "codPrestadorServicioDeSalud",
              "type": "address"
            },
            {
              "internalType": "uint256",
              "name": "fechaRegistro",
              "type": "uint256"
            },
            {
              "internalType": "enum TipoRegistroMedico",
              "name": "tipoRegistroMedico",
              "type": "uint8"
            }
          ],
          "internalType": "struct RegistroMedico.RegistroMedicoStruct",
          "name": "",
          "type": "tuple"
        }
      ],
      "stateMutability": "view",
      "type": "function"
    },
    {
      "inputs": [],
      "name": "getTipoRegistroMedico",
      "outputs": [
        {
          "internalType": "enum TipoRegistroMedico",
          "name": "",
          "type": "uint8"
        }
      ],
      "stateMutability": "view",
      "type": "function"
    },
    {
      "inputs": [],
      "name": "selfDestruct",
      "outputs": [],
      "stateMutability": "nonpayable",
      "type": "function"
    },
    {
      "inputs": [
        {
          "internalType": "address",
          "name": "_codPrestadorServicioDeSalud",
          "type": "address"
        }
      ],
      "name": "setCodPrestadorServicioDeSalud",
      "outputs": [],
      "stateMutability": "nonpayable",
      "type": "function"
    },
    {
      "inputs": [
        {
          "internalType": "uint256",
          "name": "_fechaRegistro",
          "type": "uint256"
        }
      ],
      "name": "setFechaRegistro",
      "outputs": [],
      "stateMutability": "nonpayable",
      "type": "function"
    },
    {
      "inputs": [
        {
          "internalType": "uint256",
          "name": "_id",
          "type": "uint256"
        }
      ],
      "name": "setId",
      "outputs": [],
      "stateMutability": "nonpayable",
      "type": "function"
    },
    {
      "inputs": [
        {
          "components": [
            {
              "internalType": "uint256",
              "name": "id",
              "type": "uint256"
            },
            {
              "internalType": "address",
              "name": "codPrestadorServicioDeSalud",
              "type": "address"
            },
            {
              "internalType": "uint256",
              "name": "fechaRegistro",
              "type": "uint256"
            },
            {
              "internalType": "enum TipoRegistroMedico",
              "name": "tipoRegistroMedico",
              "type": "uint8"
            }
          ],
          "internalType": "struct RegistroMedico.RegistroMedicoStruct",
          "name": "registro",
          "type": "tuple"
        }
      ],
      "name": "setRegistroMedico",
      "outputs": [],
      "stateMutability": "nonpayable",
      "type": "function"
    },
    {
      "inputs": [
        {
          "internalType": "enum TipoRegistroMedico",
          "name": "_tipoRegistroMedico",
          "type": "uint8"
        }
      ],
      "name": "setTipoRegistroMedico",
      "outputs": [],
      "stateMutability": "nonpayable",
      "type": "function"
    },
    {
      "inputs": [],
      "name": "getDescripcion",
      "outputs": [
        {
          "internalType": "string",
          "name": "",
          "type": "string"
        }
      ],
      "stateMutability": "view",
      "type": "function"
    },
    {
      "inputs": [],
      "name": "getFechaAproximada",
      "outputs": [
        {
          "internalType": "uint256",
          "name": "",
          "type": "uint256"
        }
      ],
      "stateMutability": "view",
      "type": "function"
    },
    {
      "inputs": [],
      "name": "getAntecedentePatologicoPersonalStruct",
      "outputs": [
        {
          "components": [
            {
              "internalType": "string",
              "name": "descripcion",
              "type": "string"
            },
            {
              "internalType": "uint256",
              "name": "fechaAproximada",
              "type": "uint256"
            }
          ],
          "internalType": "struct PerdidaDeConocimientoVO.PerdidaDeConocimientoStruct",
          "name": "",
          "type": "tuple"
        }
      ],
      "stateMutability": "view",
      "type": "function"
    },
    {
      "inputs": [
        {
          "components": [
            {
              "internalType": "string",
              "name": "descripcion",
              "type": "string"
            },
            {
              "internalType": "uint256",
              "name": "fechaAproximada",
              "type": "uint256"
            }
          ],
          "internalType": "struct PerdidaDeConocimientoVO.PerdidaDeConocimientoStruct",
          "name": "_perdidaDeConocimientoStruct",
          "type": "tuple"
        }
      ],
      "name": "setAntecedentePatologicoPersonalStruct",
      "outputs": [],
      "stateMutability": "nonpayable",
      "type": "function"
    },
    {
      "inputs": [
        {
          "internalType": "string",
          "name": "_descripcion",
          "type": "string"
        }
      ],
      "name": "setDescripcion",
      "outputs": [],
      "stateMutability": "nonpayable",
      "type": "function"
    },
    {
      "inputs": [
        {
          "internalType": "uint256",
          "name": "_fechaAproximada",
          "type": "uint256"
        }
      ],
      "name": "setFechaAproximada",
      "outputs": [],
      "stateMutability": "nonpayable",
      "type": "function"
    }
  ],
  "bytecode": "0x608060405234801561001057600080fd5b506004805460ff1916600c179055610b168061002d6000396000f3fe608060405234801561001057600080fd5b50600436106101365760003560e01c806393be08ef116100b2578063ca3c5a1311610081578063d45795cb11610066578063d45795cb14610285578063f9a9ff9d14610298578063f9c0cba7146102ad57600080fd5b8063ca3c5a131461025f578063d0e0ba951461027257600080fd5b806393be08ef1461021e5780639cb8a26a1461022f578063a204b7c914610237578063c089097b1461024a57600080fd5b80634ec4b32d11610109578063802ed085116100ee578063802ed085146101a3578063803a56ec146101b657806392ebdcd2146101f357600080fd5b80634ec4b32d146101935780635d1ca6311461019b57600080fd5b80630bcacc1b1461013b5780631b59abb91461015957806327f074cf1461016b57806344517a9a14610180575b600080fd5b6101436102c0565b6040516101509190610656565b60405180910390f35b6003545b604051908152602001610150565b61017e610179366004610698565b600355565b005b60045460ff1660405161015091906106b1565b60065461015d565b60015461015d565b61017e6101b1366004610768565b610335565b61017e6101c4366004610814565b6002805473ffffffffffffffffffffffffffffffffffffffff19166001600160a01b0392909216919091179055565b600054610206906001600160a01b031681565b6040516001600160a01b039091168152602001610150565b6002546001600160a01b0316610206565b61017e610359565b61017e610245366004610845565b61042b565b610252610497565b60405161015091906108fa565b61017e61026d36600461092c565b61055a565b61017e610280366004610698565b600155565b61017e610293366004610947565b610579565b6102a0610589565b6040516101509190610984565b61017e6102bb366004610698565b600655565b6102e86040805160808101825260008082526020820181905291810182905290606082015290565b6040805160808101825260015481526002546001600160a01b0316602082015260035491810191909152600454606082019060ff16601281111561032e5761032e61061e565b9052919050565b8051819060059081906103489082610a20565b506020820151816001015590505050565b6000546001600160a01b0316331461041d576040517f08c379a000000000000000000000000000000000000000000000000000000000815260206004820152604160248201527f457374612066756e63696f6e20736f6c6f2070756564652073657220656a656360448201527f757461646120706f7220656c2063726561646f722064656c20636f6e7472617460648201527f6f00000000000000000000000000000000000000000000000000000000000000608482015260a40160405180910390fd5b6000546001600160a01b0316ff5b8051600190815560208201516002805473ffffffffffffffffffffffffffffffffffffffff19166001600160a01b0390921691909117905560408201516003556060820151600480549192909160ff19169083601281111561048f5761048f61061e565b021790555050565b60408051808201909152606081526000602082015260056040518060400160405290816000820180546104c990610997565b80601f01602080910402602001604051908101604052809291908181526020018280546104f590610997565b80156105425780601f1061051757610100808354040283529160200191610542565b820191906000526020600020905b81548152906001019060200180831161052557829003601f168201915b50505050508152602001600182015481525050905090565b6004805482919060ff1916600183601281111561048f5761048f61061e565b60056105858282610a20565b5050565b60606005600001805461059b90610997565b80601f01602080910402602001604051908101604052809291908181526020018280546105c790610997565b80156106145780601f106105e957610100808354040283529160200191610614565b820191906000526020600020905b8154815290600101906020018083116105f757829003601f168201915b5050505050905090565b634e487b7160e01b600052602160045260246000fd5b6013811061065257634e487b7160e01b600052602160045260246000fd5b9052565b6000608082019050825182526001600160a01b0360208401511660208301526040830151604083015260608301516106916060840182610634565b5092915050565b6000602082840312156106aa57600080fd5b5035919050565b602081016106bf8284610634565b92915050565b634e487b7160e01b600052604160045260246000fd5b600082601f8301126106ec57600080fd5b813567ffffffffffffffff80821115610707576107076106c5565b604051601f8301601f19908116603f0116810190828211818310171561072f5761072f6106c5565b8160405283815286602085880101111561074857600080fd5b836020870160208301376000602085830101528094505050505092915050565b60006020828403121561077a57600080fd5b813567ffffffffffffffff8082111561079257600080fd5b90830190604082860312156107a657600080fd5b6040516040810181811083821117156107c1576107c16106c5565b6040528235828111156107d357600080fd5b6107df878286016106db565b8252506020830135602082015280935050505092915050565b80356001600160a01b038116811461080f57600080fd5b919050565b60006020828403121561082657600080fd5b61082f826107f8565b9392505050565b80356013811061080f57600080fd5b60006080828403121561085757600080fd5b6040516080810181811067ffffffffffffffff8211171561087a5761087a6106c5565b6040528235815261088d602084016107f8565b6020820152604083013560408201526108a860608401610836565b60608201529392505050565b6000815180845260005b818110156108da576020818501810151868301820152016108be565b506000602082860101526020601f19601f83011685010191505092915050565b60208152600082516040602084015261091660608401826108b4565b9050602084015160408401528091505092915050565b60006020828403121561093e57600080fd5b61082f82610836565b60006020828403121561095957600080fd5b813567ffffffffffffffff81111561097057600080fd5b61097c848285016106db565b949350505050565b60208152600061082f60208301846108b4565b600181811c908216806109ab57607f821691505b6020821081036109cb57634e487b7160e01b600052602260045260246000fd5b50919050565b601f821115610a1b57600081815260208120601f850160051c810160208610156109f85750805b601f850160051c820191505b81811015610a1757828155600101610a04565b5050505b505050565b815167ffffffffffffffff811115610a3a57610a3a6106c5565b610a4e81610a488454610997565b846109d1565b602080601f831160018114610a835760008415610a6b5750858301515b600019600386901b1c1916600185901b178555610a17565b600085815260208120601f198616915b82811015610ab257888601518255948401946001909101908401610a93565b5085821015610ad05787850151600019600388901b60f8161c191681555b5050505050600190811b0190555056fea264697066735822122063735a301c01b0b9b23af2887d61808bfa6c1e05abdbcb3b3225122a787de6fb64736f6c63430008110033",
  "immutableReferences": {},
  "source": "// SPDX-License-Identifier: MIT\npragma solidity ^0.8.17;\n\nimport \"./RegistroMedico.sol\";\n\ncontract PerdidaDeConocimientoVO is RegistroMedico (TipoRegistroMedico.PERDIDADECONOCIMIENTOVO) {\n    struct PerdidaDeConocimientoStruct {\n        string descripcion;\n        uint256 fechaAproximada;\n    }\n\n    PerdidaDeConocimientoStruct private perdidaDeConocimientoStruct;\n\n    function getDescripcion() public view returns (string memory) {\n        return perdidaDeConocimientoStruct.descripcion;\n    }\n\n    function getFechaAproximada() public view returns (uint256) {\n        return perdidaDeConocimientoStruct.fechaAproximada;\n    }\n\n    function getAntecedentePatologicoPersonalStruct()\n        public\n        view\n        returns (PerdidaDeConocimientoStruct memory)\n    {\n        return perdidaDeConocimientoStruct;\n    }\n\n    function setAntecedentePatologicoPersonalStruct(\n        PerdidaDeConocimientoStruct memory _perdidaDeConocimientoStruct\n    ) public {\n        perdidaDeConocimientoStruct = _perdidaDeConocimientoStruct;\n    }\n\n    function setDescripcion(string memory _descripcion) public {\n        perdidaDeConocimientoStruct.descripcion = _descripcion;\n    }\n\n    function setFechaAproximada(uint256 _fechaAproximada) public {\n        perdidaDeConocimientoStruct.fechaAproximada = _fechaAproximada;\n    }\n}\n",
  "sourcePath": "/home/felipe/Documentos/Blockchain/codigo/HCE-full/back-hce/contracts/models/historiaClinica/PerdidaDeConocimientoVO.sol",
  "compiler": {
    "name": "solc",
    "version": "0.8.17+commit.8df45f5f.Emscripten.clang"
  },
  "schemaVersion": "3.4.8",
  "updatedAt": "2023-04-05T22:10:23.433Z",
  "devdoc": {
    "kind": "dev",
    "methods": {},
    "version": 1
  },
  "userdoc": {
    "kind": "user",
    "methods": {},
    "version": 1
  }
}