{
  "contractName": "PerdidaDeConocimientoVO",
  "abi": [
    {
      "inputs": [],
      "name": "creador",
      "outputs": [
        {
          "internalType": "address",
          "name": "",
          "type": "address"
        }
      ],
      "stateMutability": "view",
      "type": "function"
    },
    {
      "inputs": [],
      "name": "getCodPrestadorServicioDeSalud",
      "outputs": [
        {
          "internalType": "address",
          "name": "",
          "type": "address"
        }
      ],
      "stateMutability": "view",
      "type": "function"
    },
    {
      "inputs": [],
      "name": "getFechaRegistro",
      "outputs": [
        {
          "internalType": "int256",
          "name": "",
          "type": "int256"
        }
      ],
      "stateMutability": "view",
      "type": "function"
    },
    {
      "inputs": [],
      "name": "getId",
      "outputs": [
        {
          "internalType": "uint256",
          "name": "",
          "type": "uint256"
        }
      ],
      "stateMutability": "view",
      "type": "function"
    },
    {
      "inputs": [],
      "name": "getRegistroMedico",
      "outputs": [
        {
          "components": [
            {
              "internalType": "uint256",
              "name": "id",
              "type": "uint256"
            },
            {
              "internalType": "address",
              "name": "codPrestadorServicioDeSalud",
              "type": "address"
            },
            {
              "internalType": "int256",
              "name": "fechaRegistro",
              "type": "int256"
            },
            {
              "internalType": "enum TipoRegistroMedico",
              "name": "tipoRegistroMedico",
              "type": "uint8"
            }
          ],
          "internalType": "struct RegistroMedico.RegistroMedicoStruct",
          "name": "",
          "type": "tuple"
        }
      ],
      "stateMutability": "view",
      "type": "function"
    },
    {
      "inputs": [],
      "name": "getTipoRegistroMedico",
      "outputs": [
        {
          "internalType": "enum TipoRegistroMedico",
          "name": "",
          "type": "uint8"
        }
      ],
      "stateMutability": "view",
      "type": "function"
    },
    {
      "inputs": [],
      "name": "selfDestruct",
      "outputs": [],
      "stateMutability": "nonpayable",
      "type": "function"
    },
    {
      "inputs": [
        {
          "internalType": "address",
          "name": "_codPrestadorServicioDeSalud",
          "type": "address"
        }
      ],
      "name": "setCodPrestadorServicioDeSalud",
      "outputs": [],
      "stateMutability": "nonpayable",
      "type": "function"
    },
    {
      "inputs": [
        {
          "internalType": "int256",
          "name": "_fechaRegistro",
          "type": "int256"
        }
      ],
      "name": "setFechaRegistro",
      "outputs": [],
      "stateMutability": "nonpayable",
      "type": "function"
    },
    {
      "inputs": [
        {
          "internalType": "uint256",
          "name": "_id",
          "type": "uint256"
        }
      ],
      "name": "setId",
      "outputs": [],
      "stateMutability": "nonpayable",
      "type": "function"
    },
    {
      "inputs": [
        {
          "components": [
            {
              "internalType": "uint256",
              "name": "id",
              "type": "uint256"
            },
            {
              "internalType": "address",
              "name": "codPrestadorServicioDeSalud",
              "type": "address"
            },
            {
              "internalType": "int256",
              "name": "fechaRegistro",
              "type": "int256"
            },
            {
              "internalType": "enum TipoRegistroMedico",
              "name": "tipoRegistroMedico",
              "type": "uint8"
            }
          ],
          "internalType": "struct RegistroMedico.RegistroMedicoStruct",
          "name": "registro",
          "type": "tuple"
        }
      ],
      "name": "setRegistroMedico",
      "outputs": [],
      "stateMutability": "nonpayable",
      "type": "function"
    },
    {
      "inputs": [
        {
          "internalType": "enum TipoRegistroMedico",
          "name": "_tipoRegistroMedico",
          "type": "uint8"
        }
      ],
      "name": "setTipoRegistroMedico",
      "outputs": [],
      "stateMutability": "nonpayable",
      "type": "function"
    },
    {
      "inputs": [],
      "name": "getDescripcion",
      "outputs": [
        {
          "internalType": "string",
          "name": "",
          "type": "string"
        }
      ],
      "stateMutability": "view",
      "type": "function"
    },
    {
      "inputs": [],
      "name": "getFechaAproximada",
      "outputs": [
        {
          "internalType": "int256",
          "name": "",
          "type": "int256"
        }
      ],
      "stateMutability": "view",
      "type": "function"
    },
    {
      "inputs": [],
      "name": "getPerdidaDeConocimientoStruct",
      "outputs": [
        {
          "components": [
            {
              "internalType": "string",
              "name": "descripcion",
              "type": "string"
            },
            {
              "internalType": "int256",
              "name": "fechaAproximada",
              "type": "int256"
            }
          ],
          "internalType": "struct PerdidaDeConocimientoVO.PerdidaDeConocimientoStruct",
          "name": "",
          "type": "tuple"
        }
      ],
      "stateMutability": "view",
      "type": "function"
    },
    {
      "inputs": [
        {
          "components": [
            {
              "internalType": "string",
              "name": "descripcion",
              "type": "string"
            },
            {
              "internalType": "int256",
              "name": "fechaAproximada",
              "type": "int256"
            }
          ],
          "internalType": "struct PerdidaDeConocimientoVO.PerdidaDeConocimientoStruct",
          "name": "_perdidaDeConocimientoStruct",
          "type": "tuple"
        }
      ],
      "name": "setPerdidaDeConocimientoStruct",
      "outputs": [],
      "stateMutability": "nonpayable",
      "type": "function"
    },
    {
      "inputs": [
        {
          "internalType": "string",
          "name": "_descripcion",
          "type": "string"
        }
      ],
      "name": "setDescripcion",
      "outputs": [],
      "stateMutability": "nonpayable",
      "type": "function"
    },
    {
      "inputs": [
        {
          "internalType": "int256",
          "name": "_fechaAproximada",
          "type": "int256"
        }
      ],
      "name": "setFechaAproximada",
      "outputs": [],
      "stateMutability": "nonpayable",
      "type": "function"
    }
  ],
  "bytecode": "0x608060405234801561001057600080fd5b506004805460ff1916600c179055610b168061002d6000396000f3fe608060405234801561001057600080fd5b50600436106101365760003560e01c8063803a56ec116100b25780639cb8a26a11610081578063d0e0ba9511610066578063d0e0ba9514610285578063d45795cb14610298578063f9a9ff9d146102ab57600080fd5b80639cb8a26a1461026a578063ca3c5a131461027257600080fd5b8063803a56ec146101de57806392ebdcd21461021b57806393be08ef146102465780639ac7744e1461025757600080fd5b806344517a9a116101095780635d1ca631116100ee5780635d1ca631146101b05780635f3774d4146101b857806378b83fdf146101cb57600080fd5b806344517a9a146101955780634ec4b32d146101a857600080fd5b8063045c7bbe1461013b5780630bcacc1b146101505780631b59abb91461016e57806338fbde4914610180575b600080fd5b61014e61014936600461061e565b600355565b005b6101586102c0565b604051610165919061066f565b60405180910390f35b6003545b604051908152602001610165565b610188610335565b60405161016591906106f7565b60045460ff166040516101659190610729565b600654610172565b600154610172565b61014e6101c636600461077e565b6103f8565b61014e6101d936600461061e565b600655565b61014e6101ec3660046107ed565b6002805473ffffffffffffffffffffffffffffffffffffffff19166001600160a01b0392909216919091179055565b60005461022e906001600160a01b031681565b6040516001600160a01b039091168152602001610165565b6002546001600160a01b031661022e565b61014e61026536600461089c565b610464565b61014e610488565b61014e61028036600461092c565b61055a565b61014e61029336600461061e565b600155565b61014e6102a6366004610947565b610579565b6102b3610589565b6040516101659190610984565b6102e86040805160808101825260008082526020820181905291810182905290606082015290565b6040805160808101825260015481526002546001600160a01b0316602082015260035491810191909152600454606082019060ff16601281111561032e5761032e610637565b9052919050565b604080518082019091526060815260006020820152600560405180604001604052908160008201805461036790610997565b80601f016020809104026020016040519081016040528092919081815260200182805461039390610997565b80156103e05780601f106103b5576101008083540402835291602001916103e0565b820191906000526020600020905b8154815290600101906020018083116103c357829003601f168201915b50505050508152602001600182015481525050905090565b8051600190815560208201516002805473ffffffffffffffffffffffffffffffffffffffff19166001600160a01b0390921691909117905560408201516003556060820151600480549192909160ff19169083601281111561045c5761045c610637565b021790555050565b8051819060059081906104779082610a20565b506020820151816001015590505050565b6000546001600160a01b0316331461054c576040517f08c379a000000000000000000000000000000000000000000000000000000000815260206004820152604160248201527f457374612066756e63696f6e20736f6c6f2070756564652073657220656a656360448201527f757461646120706f7220656c2063726561646f722064656c20636f6e7472617460648201527f6f00000000000000000000000000000000000000000000000000000000000000608482015260a40160405180910390fd5b6000546001600160a01b0316ff5b6004805482919060ff1916600183601281111561045c5761045c610637565b60056105858282610a20565b5050565b60606005600001805461059b90610997565b80601f01602080910402602001604051908101604052809291908181526020018280546105c790610997565b80156106145780601f106105e957610100808354040283529160200191610614565b820191906000526020600020905b8154815290600101906020018083116105f757829003601f168201915b5050505050905090565b60006020828403121561063057600080fd5b5035919050565b634e487b7160e01b600052602160045260246000fd5b6013811061066b57634e487b7160e01b600052602160045260246000fd5b9052565b6000608082019050825182526001600160a01b0360208401511660208301526040830151604083015260608301516106aa606084018261064d565b5092915050565b6000815180845260005b818110156106d7576020818501810151868301820152016106bb565b506000602082860101526020601f19601f83011685010191505092915050565b60208152600082516040602084015261071360608401826106b1565b9050602084015160408401528091505092915050565b60208101610737828461064d565b92915050565b634e487b7160e01b600052604160045260246000fd5b80356001600160a01b038116811461076a57600080fd5b919050565b80356013811061076a57600080fd5b60006080828403121561079057600080fd5b6040516080810181811067ffffffffffffffff821117156107b3576107b361073d565b604052823581526107c660208401610753565b6020820152604083013560408201526107e16060840161076f565b60608201529392505050565b6000602082840312156107ff57600080fd5b61080882610753565b9392505050565b600082601f83011261082057600080fd5b813567ffffffffffffffff8082111561083b5761083b61073d565b604051601f8301601f19908116603f011681019082821181831017156108635761086361073d565b8160405283815286602085880101111561087c57600080fd5b836020870160208301376000602085830101528094505050505092915050565b6000602082840312156108ae57600080fd5b813567ffffffffffffffff808211156108c657600080fd5b90830190604082860312156108da57600080fd5b6040516040810181811083821117156108f5576108f561073d565b60405282358281111561090757600080fd5b6109138782860161080f565b8252506020830135602082015280935050505092915050565b60006020828403121561093e57600080fd5b6108088261076f565b60006020828403121561095957600080fd5b813567ffffffffffffffff81111561097057600080fd5b61097c8482850161080f565b949350505050565b60208152600061080860208301846106b1565b600181811c908216806109ab57607f821691505b6020821081036109cb57634e487b7160e01b600052602260045260246000fd5b50919050565b601f821115610a1b57600081815260208120601f850160051c810160208610156109f85750805b601f850160051c820191505b81811015610a1757828155600101610a04565b5050505b505050565b815167ffffffffffffffff811115610a3a57610a3a61073d565b610a4e81610a488454610997565b846109d1565b602080601f831160018114610a835760008415610a6b5750858301515b600019600386901b1c1916600185901b178555610a17565b600085815260208120601f198616915b82811015610ab257888601518255948401946001909101908401610a93565b5085821015610ad05787850151600019600388901b60f8161c191681555b5050505050600190811b0190555056fea2646970667358221220b3694e5e553d2a20b8d9d711f209c82ff428c979edbe2b09415cd94bcc3d4ab164736f6c63430008110033",
  "immutableReferences": {},
  "source": "// SPDX-License-Identifier: MIT\npragma solidity ^0.8.17;\n\nimport \"./RegistroMedico.sol\";\n\ncontract PerdidaDeConocimientoVO is RegistroMedico (TipoRegistroMedico.PERDIDADECONOCIMIENTOVO) {\n    struct PerdidaDeConocimientoStruct {\n        string descripcion;\n        int256 fechaAproximada;\n    }\n\n    PerdidaDeConocimientoStruct private perdidaDeConocimientoStruct;\n\n    function getDescripcion() public view returns (string memory) {\n        return perdidaDeConocimientoStruct.descripcion;\n    }\n\n    function getFechaAproximada() public view returns (int256) {\n        return perdidaDeConocimientoStruct.fechaAproximada;\n    }\n\n    function getPerdidaDeConocimientoStruct()\n        public\n        view\n        returns (PerdidaDeConocimientoStruct memory)\n    {\n        return perdidaDeConocimientoStruct;\n    }\n\n    function setPerdidaDeConocimientoStruct(\n        PerdidaDeConocimientoStruct memory _perdidaDeConocimientoStruct\n    ) public {\n        perdidaDeConocimientoStruct = _perdidaDeConocimientoStruct;\n    }\n\n    function setDescripcion(string memory _descripcion) public {\n        perdidaDeConocimientoStruct.descripcion = _descripcion;\n    }\n\n    function setFechaAproximada(int256 _fechaAproximada) public {\n        perdidaDeConocimientoStruct.fechaAproximada = _fechaAproximada;\n    }\n}\n",
  "sourcePath": "/back/contracts/models/historiaClinica/PerdidaDeConocimientoVO.sol",
  "compiler": {
    "name": "solc",
    "version": "0.8.17+commit.8df45f5f.Emscripten.clang"
  },
  "schemaVersion": "3.4.11",
  "updatedAt": "2023-05-03T04:13:43.440Z",
  "devdoc": {
    "kind": "dev",
    "methods": {},
    "version": 1
  },
  "userdoc": {
    "kind": "user",
    "methods": {},
    "version": 1
  }
}