{
  "contractName": "PerfilMedicoSistemaExternoVO",
  "abi": [
    {
      "inputs": [],
      "name": "getCodPrestadorServicios",
      "outputs": [
        {
          "internalType": "string",
          "name": "",
          "type": "string"
        }
      ],
      "stateMutability": "view",
      "type": "function"
    },
    {
      "inputs": [],
      "name": "getPrimerNombre",
      "outputs": [
        {
          "internalType": "string",
          "name": "",
          "type": "string"
        }
      ],
      "stateMutability": "view",
      "type": "function"
    },
    {
      "inputs": [],
      "name": "getSegundoNombre",
      "outputs": [
        {
          "internalType": "string",
          "name": "",
          "type": "string"
        }
      ],
      "stateMutability": "view",
      "type": "function"
    },
    {
      "inputs": [],
      "name": "getPrimerApellido",
      "outputs": [
        {
          "internalType": "string",
          "name": "",
          "type": "string"
        }
      ],
      "stateMutability": "view",
      "type": "function"
    },
    {
      "inputs": [],
      "name": "getSegundoApellido",
      "outputs": [
        {
          "internalType": "string",
          "name": "",
          "type": "string"
        }
      ],
      "stateMutability": "view",
      "type": "function"
    },
    {
      "inputs": [],
      "name": "getIdentificacion",
      "outputs": [
        {
          "internalType": "string",
          "name": "",
          "type": "string"
        }
      ],
      "stateMutability": "view",
      "type": "function"
    },
    {
      "inputs": [],
      "name": "getTipoIdentificacion",
      "outputs": [
        {
          "internalType": "string",
          "name": "",
          "type": "string"
        }
      ],
      "stateMutability": "view",
      "type": "function"
    },
    {
      "inputs": [],
      "name": "getEstaActivo",
      "outputs": [
        {
          "internalType": "bool",
          "name": "",
          "type": "bool"
        }
      ],
      "stateMutability": "view",
      "type": "function"
    },
    {
      "inputs": [
        {
          "internalType": "string",
          "name": "_codPrestadorServicios",
          "type": "string"
        }
      ],
      "name": "setCodPrestadorServicios",
      "outputs": [],
      "stateMutability": "nonpayable",
      "type": "function"
    },
    {
      "inputs": [
        {
          "internalType": "string",
          "name": "_primerNombre",
          "type": "string"
        }
      ],
      "name": "setPrimerNombre",
      "outputs": [],
      "stateMutability": "nonpayable",
      "type": "function"
    },
    {
      "inputs": [
        {
          "internalType": "string",
          "name": "_segundoNombre",
          "type": "string"
        }
      ],
      "name": "setSegundoNombre",
      "outputs": [],
      "stateMutability": "nonpayable",
      "type": "function"
    },
    {
      "inputs": [
        {
          "internalType": "string",
          "name": "_primerApellido",
          "type": "string"
        }
      ],
      "name": "setPrimerApellido",
      "outputs": [],
      "stateMutability": "nonpayable",
      "type": "function"
    },
    {
      "inputs": [
        {
          "internalType": "string",
          "name": "_segundoApellido",
          "type": "string"
        }
      ],
      "name": "setSegundoApellido",
      "outputs": [],
      "stateMutability": "nonpayable",
      "type": "function"
    },
    {
      "inputs": [
        {
          "internalType": "string",
          "name": "_identificacion",
          "type": "string"
        }
      ],
      "name": "setIdentificacion",
      "outputs": [],
      "stateMutability": "nonpayable",
      "type": "function"
    },
    {
      "inputs": [
        {
          "internalType": "string",
          "name": "_tipoIdentificacion",
          "type": "string"
        }
      ],
      "name": "setTipoIdentificacionId",
      "outputs": [],
      "stateMutability": "nonpayable",
      "type": "function"
    },
    {
      "inputs": [
        {
          "internalType": "bool",
          "name": "_estaActivo",
          "type": "bool"
        }
      ],
      "name": "setEstaActivo",
      "outputs": [],
      "stateMutability": "nonpayable",
      "type": "function"
    }
  ],
  "bytecode": "0x608060405234801561001057600080fd5b50610612806100206000396000f3fe608060405234801561001057600080fd5b50600436106101005760003560e01c80639ac9abd011610097578063c461d52e11610066578063c461d52e146101cd578063cc9f930e146101d5578063eacd3b93146101e8578063fdaef483146101f057600080fd5b80639ac9abd01461019f578063ac1e3249146101a7578063af995846146101af578063b2f9ccbb146101c557600080fd5b80634e8c23ca116100d35780634e8c23ca1461015e578063551a5cfa146101715780635d160b181461018457806383cb77b01461018c57600080fd5b80630cf0cc041461010557806328fd48731461011a5780633ca452b91461012d578063477a64ef1461014b575b600080fd5b61011861011336600461036b565b610211565b005b61011861012836600461036b565b610221565b61013561022d565b604051610142919061041c565b60405180910390f35b61011861015936600461036b565b6102bf565b61011861016c36600461036b565b6102cb565b61011861017f36600461036b565b6102d7565b6101356102e3565b61011861019a36600461036b565b6102f2565b6101356102fe565b61013561030d565b60075460ff166040519015158152602001610142565b61013561031c565b61013561032b565b6101186101e336600461036b565b61033a565b610135610346565b6101186101fe36600461046a565b6007805460ff1916911515919091179055565b600061021d828261051c565b5050565b600661021d828261051c565b60606001805461023c90610493565b80601f016020809104026020016040519081016040528092919081815260200182805461026890610493565b80156102b55780601f1061028a576101008083540402835291602001916102b5565b820191906000526020600020905b81548152906001019060200180831161029857829003601f168201915b5050505050905090565b600561021d828261051c565b600461021d828261051c565b600261021d828261051c565b60606000805461023c90610493565b600161021d828261051c565b60606006805461023c90610493565b60606005805461023c90610493565b60606002805461023c90610493565b60606003805461023c90610493565b600361021d828261051c565b60606004805461023c90610493565b634e487b7160e01b600052604160045260246000fd5b60006020828403121561037d57600080fd5b813567ffffffffffffffff8082111561039557600080fd5b818401915084601f8301126103a957600080fd5b8135818111156103bb576103bb610355565b604051601f8201601f19908116603f011681019083821181831017156103e3576103e3610355565b816040528281528760208487010111156103fc57600080fd5b826020860160208301376000928101602001929092525095945050505050565b600060208083528351808285015260005b818110156104495785810183015185820160400152820161042d565b506000604082860101526040601f19601f8301168501019250505092915050565b60006020828403121561047c57600080fd5b8135801515811461048c57600080fd5b9392505050565b600181811c908216806104a757607f821691505b6020821081036104c757634e487b7160e01b600052602260045260246000fd5b50919050565b601f82111561051757600081815260208120601f850160051c810160208610156104f45750805b601f850160051c820191505b8181101561051357828155600101610500565b5050505b505050565b815167ffffffffffffffff81111561053657610536610355565b61054a816105448454610493565b846104cd565b602080601f83116001811461057f57600084156105675750858301515b600019600386901b1c1916600185901b178555610513565b600085815260208120601f198616915b828110156105ae5788860151825594840194600190910190840161058f565b50858210156105cc5787850151600019600388901b60f8161c191681555b5050505050600190811b0190555056fea2646970667358221220c0f8f6500d066fa6dda526ae5d648fa65f99be7d1252e1b0ce7af05b8014569e64736f6c63430008110033",
  "immutableReferences": {},
  "source": "// SPDX-License-Identifier: MIT\npragma solidity ^0.8.17;\n\nimport \"./Persona.sol\";\nimport \"./VOGenerales/EstadoVO.sol\";\n\n// NOTE: Actualmente no se usa este contrato para nada en el proyecto\n\n// NOTE: se deja el abstrac contract justo con sus hijos por cuestiones de ordenamiento de cdigo solidity, antes decia \"Definition of base has to precede definition of derived contract\"\n// TODO: verificar si se puede dejar como abstract\ncontract PerfilMedicoSistemaExternoVO {\n    //\n    string private codPrestadorServicios; // TODO: agregar al diccionario de datos\n    string private primerNombre;\n    string private segundoNombre;\n    string private primerApellido;\n    string private segundoApellido;\n    string private tipoIdentificacion;\n    string private identificacion;\n    bool private estaActivo;\n\n    struct PerfilMedicoSistemaExternoStruct {\n        string primerNombre;\n        string segundoNombre;\n        string primerApellido;\n        string segundoApellido;\n        string identificacion; // TODO: agregar tipo de identificacion\n        string especialidad;\n    }\n\n    function getCodPrestadorServicios() public view returns (string memory) {\n        return codPrestadorServicios;\n    }\n\n    function getPrimerNombre() public view returns (string memory) {\n        return primerNombre;\n    }\n\n    function getSegundoNombre() public view returns (string memory) {\n        return segundoNombre;\n    }\n\n    function getPrimerApellido() public view returns (string memory) {\n        return primerApellido;\n    }\n\n    function getSegundoApellido() public view returns (string memory) {\n        return segundoApellido;\n    }\n\n    function getIdentificacion() public view returns (string memory) {\n        return identificacion;\n    }\n\n    function getTipoIdentificacion() public view returns (string memory) {\n        return tipoIdentificacion;\n    }\n\n    function getEstaActivo() public view returns (bool) {\n        return estaActivo;\n    }\n\n    function setCodPrestadorServicios(string memory _codPrestadorServicios)\n        public\n    {\n        codPrestadorServicios = _codPrestadorServicios;\n    }\n\n    function setPrimerNombre(string memory _primerNombre) public {\n        primerNombre = _primerNombre;\n    }\n\n    function setSegundoNombre(string memory _segundoNombre) public {\n        segundoNombre = _segundoNombre;\n    }\n\n    function setPrimerApellido(string memory _primerApellido) public {\n        primerApellido = _primerApellido;\n    }\n\n    function setSegundoApellido(string memory _segundoApellido) public {\n        segundoApellido = _segundoApellido;\n    }\n\n    function setIdentificacion(string memory _identificacion) public {\n        identificacion = _identificacion;\n    }\n\n    function setTipoIdentificacionId(string memory _tipoIdentificacion) public {\n        tipoIdentificacion = _tipoIdentificacion;\n    }\n\n    function setEstaActivo(bool _estaActivo) public {\n        estaActivo = _estaActivo;\n    }\n}\n",
  "sourcePath": "/back/contracts/models/PerfilMedicoSistemaExternoVO.sol",
  "compiler": {
    "name": "solc",
    "version": "0.8.17+commit.8df45f5f.Emscripten.clang"
  },
  "schemaVersion": "3.4.11",
  "updatedAt": "2023-05-03T03:35:49.381Z",
  "devdoc": {
    "kind": "dev",
    "methods": {},
    "version": 1
  },
  "userdoc": {
    "kind": "user",
    "methods": {},
    "version": 1
  }
}