{
  "contractName": "PermisoVO",
  "abi": [
    {
      "anonymous": false,
      "inputs": [
        {
          "indexed": false,
          "internalType": "string",
          "name": "data",
          "type": "string"
        }
      ],
      "name": "Log",
      "type": "event"
    },
    {
      "inputs": [],
      "name": "getId",
      "outputs": [
        {
          "internalType": "uint256",
          "name": "",
          "type": "uint256"
        }
      ],
      "stateMutability": "view",
      "type": "function"
    },
    {
      "inputs": [],
      "name": "getNombre",
      "outputs": [
        {
          "internalType": "string",
          "name": "",
          "type": "string"
        }
      ],
      "stateMutability": "view",
      "type": "function"
    },
    {
      "inputs": [],
      "name": "getDescripcion",
      "outputs": [
        {
          "internalType": "string",
          "name": "",
          "type": "string"
        }
      ],
      "stateMutability": "view",
      "type": "function"
    },
    {
      "inputs": [],
      "name": "getEstaActivo",
      "outputs": [
        {
          "internalType": "bool",
          "name": "",
          "type": "bool"
        }
      ],
      "stateMutability": "view",
      "type": "function"
    },
    {
      "inputs": [
        {
          "internalType": "uint256",
          "name": "_id",
          "type": "uint256"
        }
      ],
      "name": "setId",
      "outputs": [],
      "stateMutability": "nonpayable",
      "type": "function"
    },
    {
      "inputs": [
        {
          "internalType": "string",
          "name": "_nombre",
          "type": "string"
        }
      ],
      "name": "setNombre",
      "outputs": [],
      "stateMutability": "nonpayable",
      "type": "function"
    },
    {
      "inputs": [
        {
          "internalType": "string",
          "name": "_descripcion",
          "type": "string"
        }
      ],
      "name": "setDescripcion",
      "outputs": [],
      "stateMutability": "nonpayable",
      "type": "function"
    },
    {
      "inputs": [
        {
          "internalType": "bool",
          "name": "_estaActivo",
          "type": "bool"
        }
      ],
      "name": "setEstaActivo",
      "outputs": [],
      "stateMutability": "nonpayable",
      "type": "function"
    }
  ],
  "bytecode": "0x608060405234801561001057600080fd5b506104c4806100206000396000f3fe608060405234801561001057600080fd5b50600436106100875760003560e01c8063d45795cb1161005b578063d45795cb146100e0578063d75cbf9b146100f3578063f9a9ff9d14610108578063fdaef4831461011057600080fd5b806202736b1461008c5780635d1ca631146100a1578063af995846146100b7578063d0e0ba95146100cd575b600080fd5b61009f61009a366004610204565b610131565b005b6000546040519081526020015b60405180910390f35b60035460ff1660405190151581526020016100ae565b61009f6100db3660046102b5565b600055565b61009f6100ee366004610204565b610141565b6100fb61014d565b6040516100ae91906102ce565b6100fb6101df565b61009f61011e36600461031c565b6003805460ff1916911515919091179055565b600161013d82826103ce565b5050565b600261013d82826103ce565b60606001805461015c90610345565b80601f016020809104026020016040519081016040528092919081815260200182805461018890610345565b80156101d55780601f106101aa576101008083540402835291602001916101d5565b820191906000526020600020905b8154815290600101906020018083116101b857829003601f168201915b5050505050905090565b60606002805461015c90610345565b634e487b7160e01b600052604160045260246000fd5b60006020828403121561021657600080fd5b813567ffffffffffffffff8082111561022e57600080fd5b818401915084601f83011261024257600080fd5b813581811115610254576102546101ee565b604051601f8201601f19908116603f0116810190838211818310171561027c5761027c6101ee565b8160405282815287602084870101111561029557600080fd5b826020860160208301376000928101602001929092525095945050505050565b6000602082840312156102c757600080fd5b5035919050565b600060208083528351808285015260005b818110156102fb578581018301518582016040015282016102df565b506000604082860101526040601f19601f8301168501019250505092915050565b60006020828403121561032e57600080fd5b8135801515811461033e57600080fd5b9392505050565b600181811c9082168061035957607f821691505b60208210810361037957634e487b7160e01b600052602260045260246000fd5b50919050565b601f8211156103c957600081815260208120601f850160051c810160208610156103a65750805b601f850160051c820191505b818110156103c5578281556001016103b2565b5050505b505050565b815167ffffffffffffffff8111156103e8576103e86101ee565b6103fc816103f68454610345565b8461037f565b602080601f83116001811461043157600084156104195750858301515b600019600386901b1c1916600185901b1785556103c5565b600085815260208120601f198616915b8281101561046057888601518255948401946001909101908401610441565b508582101561047e5787850151600019600388901b60f8161c191681555b5050505050600190811b0190555056fea264697066735822122057f12f7a0fb0dd1571f41added2a5845ced94f9d983575214f23248d522654b964736f6c63430008110033",
  "immutableReferences": {},
  "source": "// SPDX-License-Identifier: MIT\npragma solidity ^0.8.17;\n\ncontract PermisoVO {\n    event Log(string data);\n    uint256 id;\n    string private nombre;\n    string private descripcion;\n    bool private estaActivo;\n\n    function getId() public view returns (uint256) {\n        return id;\n    }\n\n    function getNombre() public view returns (string memory) {\n        return nombre;\n    }\n\n    function getDescripcion() public view returns (string memory) {\n        return descripcion;\n    }\n\n    function getEstaActivo() public view returns (bool) {\n        return estaActivo;\n    }\n\n    function setId(uint256 _id) public {\n        id = _id;\n    }\n\n    function setNombre(string memory _nombre) public {\n        nombre = _nombre;\n    }\n\n    function setDescripcion(string memory _descripcion) public {\n        descripcion = _descripcion;\n    }\n\n    function setEstaActivo(bool _estaActivo) public {\n        estaActivo = _estaActivo;\n    }\n}\n",
  "sourcePath": "/home/felipe/Documentos/Blockchain/codigo/HCE-full/back-hce/contracts/models/PermisoVO.sol",
  "compiler": {
    "name": "solc",
    "version": "0.8.17+commit.8df45f5f.Emscripten.clang"
  },
  "schemaVersion": "3.4.8",
  "updatedAt": "2023-03-26T17:17:11.251Z",
  "devdoc": {
    "kind": "dev",
    "methods": {},
    "version": 1
  },
  "userdoc": {
    "kind": "user",
    "methods": {},
    "version": 1
  }
}