{
  "contractName": "PermisoDeAccesoVO",
  "abi": [
    {
      "inputs": [],
      "stateMutability": "nonpayable",
      "type": "constructor"
    },
    {
      "inputs": [],
      "name": "creador",
      "outputs": [
        {
          "internalType": "address",
          "name": "",
          "type": "address"
        }
      ],
      "stateMutability": "view",
      "type": "function"
    },
    {
      "inputs": [],
      "name": "getPermisoDeAccesoStruct",
      "outputs": [
        {
          "components": [
            {
              "internalType": "uint256",
              "name": "id",
              "type": "uint256"
            },
            {
              "internalType": "string",
              "name": "llave",
              "type": "string"
            },
            {
              "internalType": "address",
              "name": "paciente",
              "type": "address"
            },
            {
              "internalType": "address",
              "name": "solicitante",
              "type": "address"
            },
            {
              "internalType": "bool",
              "name": "fueRespondido",
              "type": "bool"
            },
            {
              "internalType": "int256",
              "name": "fechaSolicitud",
              "type": "int256"
            },
            {
              "internalType": "int256",
              "name": "fechaExpiracion",
              "type": "int256"
            }
          ],
          "internalType": "struct PermisoDeAccesoVO.PermisoDeAccesoStruct",
          "name": "",
          "type": "tuple"
        }
      ],
      "stateMutability": "view",
      "type": "function"
    },
    {
      "inputs": [
        {
          "components": [
            {
              "internalType": "uint256",
              "name": "id",
              "type": "uint256"
            },
            {
              "internalType": "string",
              "name": "llave",
              "type": "string"
            },
            {
              "internalType": "address",
              "name": "paciente",
              "type": "address"
            },
            {
              "internalType": "address",
              "name": "solicitante",
              "type": "address"
            },
            {
              "internalType": "bool",
              "name": "fueRespondido",
              "type": "bool"
            },
            {
              "internalType": "int256",
              "name": "fechaSolicitud",
              "type": "int256"
            },
            {
              "internalType": "int256",
              "name": "fechaExpiracion",
              "type": "int256"
            }
          ],
          "internalType": "struct PermisoDeAccesoVO.PermisoDeAccesoStruct",
          "name": "_permisoDeAccesoStruct",
          "type": "tuple"
        }
      ],
      "name": "setPermisoDeAccesoStruct",
      "outputs": [],
      "stateMutability": "nonpayable",
      "type": "function"
    },
    {
      "inputs": [],
      "name": "getId",
      "outputs": [
        {
          "internalType": "uint256",
          "name": "",
          "type": "uint256"
        }
      ],
      "stateMutability": "view",
      "type": "function"
    },
    {
      "inputs": [],
      "name": "getLlave",
      "outputs": [
        {
          "internalType": "string",
          "name": "",
          "type": "string"
        }
      ],
      "stateMutability": "view",
      "type": "function"
    },
    {
      "inputs": [],
      "name": "getPaciente",
      "outputs": [
        {
          "internalType": "address",
          "name": "",
          "type": "address"
        }
      ],
      "stateMutability": "view",
      "type": "function"
    },
    {
      "inputs": [],
      "name": "getSolicitante",
      "outputs": [
        {
          "internalType": "address",
          "name": "",
          "type": "address"
        }
      ],
      "stateMutability": "view",
      "type": "function"
    },
    {
      "inputs": [],
      "name": "getFueRespondido",
      "outputs": [
        {
          "internalType": "bool",
          "name": "",
          "type": "bool"
        }
      ],
      "stateMutability": "view",
      "type": "function"
    },
    {
      "inputs": [],
      "name": "getFechaSolicitud",
      "outputs": [
        {
          "internalType": "int256",
          "name": "",
          "type": "int256"
        }
      ],
      "stateMutability": "view",
      "type": "function"
    },
    {
      "inputs": [],
      "name": "getFechaExpiracion",
      "outputs": [
        {
          "internalType": "int256",
          "name": "",
          "type": "int256"
        }
      ],
      "stateMutability": "view",
      "type": "function"
    },
    {
      "inputs": [
        {
          "internalType": "uint256",
          "name": "_id",
          "type": "uint256"
        }
      ],
      "name": "setId",
      "outputs": [],
      "stateMutability": "nonpayable",
      "type": "function"
    },
    {
      "inputs": [
        {
          "internalType": "string",
          "name": "_llave",
          "type": "string"
        }
      ],
      "name": "setLlave",
      "outputs": [],
      "stateMutability": "nonpayable",
      "type": "function"
    },
    {
      "inputs": [
        {
          "internalType": "address",
          "name": "_paciente",
          "type": "address"
        }
      ],
      "name": "setPaciente",
      "outputs": [],
      "stateMutability": "nonpayable",
      "type": "function"
    },
    {
      "inputs": [
        {
          "internalType": "address",
          "name": "_solicitante",
          "type": "address"
        }
      ],
      "name": "setSolicitante",
      "outputs": [],
      "stateMutability": "nonpayable",
      "type": "function"
    },
    {
      "inputs": [
        {
          "internalType": "bool",
          "name": "_fueRespondido",
          "type": "bool"
        }
      ],
      "name": "setFueRespondido",
      "outputs": [],
      "stateMutability": "nonpayable",
      "type": "function"
    },
    {
      "inputs": [
        {
          "internalType": "int256",
          "name": "_fechaSolicitud",
          "type": "int256"
        }
      ],
      "name": "setFechaSolicitud",
      "outputs": [],
      "stateMutability": "nonpayable",
      "type": "function"
    },
    {
      "inputs": [
        {
          "internalType": "int256",
          "name": "_fechaExpiracion",
          "type": "int256"
        }
      ],
      "name": "setFechaExpiracion",
      "outputs": [],
      "stateMutability": "nonpayable",
      "type": "function"
    }
  ],
  "bytecode": "0x608060405234801561001057600080fd5b50600080546001600160a01b031916331790556109a2806100326000396000f3fe608060405234801561001057600080fd5b506004361061011b5760003560e01c8063a2c499a7116100b2578063d72dcce611610081578063ebbf321b11610066578063ebbf321b14610283578063fd2f223914610294578063fe341d6a146102d157600080fd5b8063d72dcce61461025b578063e0b001921461026e57600080fd5b8063a2c499a714610225578063ab2d092c1461022d578063b251f00514610240578063d0e0ba951461024857600080fd5b80635d1ca631116100ee5780635d1ca631146101c057806366cb6c41146101d257806392ebdcd2146101e557806399e30e1e1461021057600080fd5b806316f167501461012057806343f66f181461015f57806350cfa3b81461018b578063542f17e4146101ad575b600080fd5b61015d61012e366004610524565b6003805473ffffffffffffffffffffffffffffffffffffffff19166001600160a01b0392909216919091179055565b005b61015d61016d366004610556565b60048054911515600160a01b0260ff60a01b19909216919091179055565b600454600160a01b900460ff1660405190151581526020015b60405180910390f35b61015d6101bb36600461063d565b6102e2565b6001545b6040519081526020016101a4565b61015d6101e03660046106fe565b600655565b6000546101f8906001600160a01b031681565b6040516001600160a01b0390911681526020016101a4565b61021861032c565b6040516101a4919061075d565b6005546101c4565b61015d61023b3660046107d3565b610466565b6006546101c4565b61015d6102563660046106fe565b600155565b61015d6102693660046106fe565b600555565b610276610476565b6040516101a49190610810565b6004546001600160a01b03166101f8565b61015d6102a2366004610524565b6004805473ffffffffffffffffffffffffffffffffffffffff19166001600160a01b0392909216919091179055565b6003546001600160a01b03166101f8565b805160015560208101516002906102f990826108ac565b50608081015160048054911515600160a01b0260ff60a01b1990921691909117905560a081015160055560c00151600655565b6103806040518060e00160405280600081526020016060815260200160006001600160a01b0316815260200160006001600160a01b0316815260200160001515815260200160008152602001600081525090565b6040518060e001604052806001548152602001600280546103a090610823565b80601f01602080910402602001604051908101604052809291908181526020018280546103cc90610823565b80156104195780601f106103ee57610100808354040283529160200191610419565b820191906000526020600020905b8154815290600101906020018083116103fc57829003601f168201915b50505091835250506003546001600160a01b0390811660208301526004549081166040830152600160a01b900460ff1615156060820152600554608082015260065460a090910152919050565b600261047282826108ac565b5050565b60606002805461048590610823565b80601f01602080910402602001604051908101604052809291908181526020018280546104b190610823565b80156104fe5780601f106104d3576101008083540402835291602001916104fe565b820191906000526020600020905b8154815290600101906020018083116104e157829003601f168201915b5050505050905090565b80356001600160a01b038116811461051f57600080fd5b919050565b60006020828403121561053657600080fd5b61053f82610508565b9392505050565b8035801515811461051f57600080fd5b60006020828403121561056857600080fd5b61053f82610546565b634e487b7160e01b600052604160045260246000fd5b60405160e0810167ffffffffffffffff811182821017156105aa576105aa610571565b60405290565b600082601f8301126105c157600080fd5b813567ffffffffffffffff808211156105dc576105dc610571565b604051601f8301601f19908116603f0116810190828211818310171561060457610604610571565b8160405283815286602085880101111561061d57600080fd5b836020870160208301376000602085830101528094505050505092915050565b60006020828403121561064f57600080fd5b813567ffffffffffffffff8082111561066757600080fd5b9083019060e0828603121561067b57600080fd5b610683610587565b8235815260208301358281111561069957600080fd5b6106a5878286016105b0565b6020830152506106b760408401610508565b60408201526106c860608401610508565b60608201526106d960808401610546565b608082015260a083013560a082015260c083013560c082015280935050505092915050565b60006020828403121561071057600080fd5b5035919050565b6000815180845260005b8181101561073d57602081850181015186830182015201610721565b506000602082860101526020601f19601f83011685010191505092915050565b60208152815160208201526000602083015160e06040840152610784610100840182610717565b905060408401516001600160a01b03808216606086015280606087015116608086015250506080840151151560a084015260a084015160c084015260c084015160e08401528091505092915050565b6000602082840312156107e557600080fd5b813567ffffffffffffffff8111156107fc57600080fd5b610808848285016105b0565b949350505050565b60208152600061053f6020830184610717565b600181811c9082168061083757607f821691505b60208210810361085757634e487b7160e01b600052602260045260246000fd5b50919050565b601f8211156108a757600081815260208120601f850160051c810160208610156108845750805b601f850160051c820191505b818110156108a357828155600101610890565b5050505b505050565b815167ffffffffffffffff8111156108c6576108c6610571565b6108da816108d48454610823565b8461085d565b602080601f83116001811461090f57600084156108f75750858301515b600019600386901b1c1916600185901b1785556108a3565b600085815260208120601f198616915b8281101561093e5788860151825594840194600190910190840161091f565b508582101561095c5787850151600019600388901b60f8161c191681555b5050505050600190811b0190555056fea2646970667358221220d4a96ee21dcac12f724232d0bfa0f493fd38f7965c034b6f421dd9db5080ad8564736f6c63430008110033",
  "immutableReferences": {},
  "source": "// SPDX-License-Identifier: MIT\npragma solidity ^0.8.17;\n\n//import \"./structsGenerales/DatosPersonalesStruct.sol\";\n\ncontract PermisoDeAccesoVO {\n    address public creador;\n\n    struct PermisoDeAccesoStruct {\n        uint256 id;\n        string llave;\n        address paciente;\n        address solicitante;\n        bool fueRespondido;\n        int256 fechaSolicitud;\n        int256 fechaExpiracion;\n    }\n\n    // TODO: Actualizar en diagrama\n    uint256 private id;\n    string private llave;\n    address private paciente;\n    address private solicitante;\n    bool private fueRespondido;\n    int256 private fechaSolicitud;\n    int256 private fechaExpiracion;\n\n    constructor() {\n        creador = msg.sender;\n    }\n\n    function getPermisoDeAccesoStruct()\n        public\n        view\n        returns (PermisoDeAccesoStruct memory)\n    {\n        return\n            PermisoDeAccesoStruct(\n                id,\n                llave,\n                paciente,\n                solicitante,\n                fueRespondido,\n                fechaSolicitud,\n                fechaExpiracion\n            );\n    }\n\n    function setPermisoDeAccesoStruct(\n        PermisoDeAccesoStruct memory _permisoDeAccesoStruct\n    ) public {\n        id = _permisoDeAccesoStruct.id;\n        llave = _permisoDeAccesoStruct.llave;\n        fueRespondido = _permisoDeAccesoStruct.fueRespondido;\n        fechaSolicitud = _permisoDeAccesoStruct.fechaSolicitud;\n        fechaExpiracion = _permisoDeAccesoStruct.fechaExpiracion;\n    }\n\n    function getId() public view returns (uint256) {\n        return id;\n    }\n\n    function getLlave() public view returns (string memory) {\n        return llave;\n    }\n\n    function getPaciente() public view returns (address) {\n        return paciente;\n    }\n\n    function getSolicitante() public view returns (address) {\n        return solicitante;\n    }\n\n    function getFueRespondido() public view returns (bool) {\n        return fueRespondido;\n    }\n\n    function getFechaSolicitud() public view returns (int256) {\n        return fechaSolicitud;\n    }\n\n    function getFechaExpiracion() public view returns (int256) {\n        return fechaExpiracion;\n    }\n\n    function setId(uint256 _id) public {\n        id = _id;\n    }\n\n    function setLlave(string memory _llave) public {\n        llave = _llave;\n    }\n\n    function setPaciente(address _paciente) public {\n        paciente = _paciente;\n    }\n\n    function setSolicitante(address _solicitante) public {\n        solicitante = _solicitante;\n    }\n\n    function setFueRespondido(bool _fueRespondido) public {\n        fueRespondido = _fueRespondido;\n    }\n\n    function setFechaSolicitud(int256 _fechaSolicitud) public {\n        fechaSolicitud = _fechaSolicitud;\n    }\n\n    function setFechaExpiracion(int256 _fechaExpiracion) public {\n        fechaExpiracion = _fechaExpiracion;\n    }\n}\n",
  "sourcePath": "/back/contracts/models/accesoHistoriaClinica/PermisoDeAccesoVO.sol",
  "compiler": {
    "name": "solc",
    "version": "0.8.17+commit.8df45f5f.Emscripten.clang"
  },
  "schemaVersion": "3.4.11",
  "updatedAt": "2023-05-03T03:35:49.764Z",
  "devdoc": {
    "kind": "dev",
    "methods": {},
    "version": 1
  },
  "userdoc": {
    "kind": "user",
    "methods": {},
    "version": 1
  }
}