{
  "contractName": "PermisoDeAccesoVO",
  "abi": [
    {
      "inputs": [],
      "stateMutability": "nonpayable",
      "type": "constructor"
    },
    {
      "inputs": [],
      "name": "creador",
      "outputs": [
        {
          "internalType": "address",
          "name": "",
          "type": "address"
        }
      ],
      "stateMutability": "view",
      "type": "function"
    },
    {
      "inputs": [],
      "name": "getPermisoDeAccesoStruct",
      "outputs": [
        {
          "components": [
            {
              "internalType": "uint256",
              "name": "id",
              "type": "uint256"
            },
            {
              "internalType": "string",
              "name": "llave",
              "type": "string"
            },
            {
              "internalType": "address",
              "name": "paciente",
              "type": "address"
            },
            {
              "internalType": "address",
              "name": "solicitante",
              "type": "address"
            },
            {
              "internalType": "bool",
              "name": "fueRespondido",
              "type": "bool"
            },
            {
              "internalType": "bool",
              "name": "fueAceptado",
              "type": "bool"
            },
            {
              "internalType": "int256",
              "name": "fechaSolicitud",
              "type": "int256"
            },
            {
              "internalType": "int256",
              "name": "fechaExpiracion",
              "type": "int256"
            }
          ],
          "internalType": "struct PermisoDeAccesoVO.PermisoDeAccesoStruct",
          "name": "",
          "type": "tuple"
        }
      ],
      "stateMutability": "view",
      "type": "function"
    },
    {
      "inputs": [
        {
          "components": [
            {
              "internalType": "uint256",
              "name": "id",
              "type": "uint256"
            },
            {
              "internalType": "string",
              "name": "llave",
              "type": "string"
            },
            {
              "internalType": "address",
              "name": "paciente",
              "type": "address"
            },
            {
              "internalType": "address",
              "name": "solicitante",
              "type": "address"
            },
            {
              "internalType": "bool",
              "name": "fueRespondido",
              "type": "bool"
            },
            {
              "internalType": "bool",
              "name": "fueAceptado",
              "type": "bool"
            },
            {
              "internalType": "int256",
              "name": "fechaSolicitud",
              "type": "int256"
            },
            {
              "internalType": "int256",
              "name": "fechaExpiracion",
              "type": "int256"
            }
          ],
          "internalType": "struct PermisoDeAccesoVO.PermisoDeAccesoStruct",
          "name": "_permisoDeAccesoStruct",
          "type": "tuple"
        }
      ],
      "name": "setPermisoDeAccesoStruct",
      "outputs": [],
      "stateMutability": "nonpayable",
      "type": "function"
    },
    {
      "inputs": [],
      "name": "getId",
      "outputs": [
        {
          "internalType": "uint256",
          "name": "",
          "type": "uint256"
        }
      ],
      "stateMutability": "view",
      "type": "function"
    },
    {
      "inputs": [],
      "name": "getLlave",
      "outputs": [
        {
          "internalType": "string",
          "name": "",
          "type": "string"
        }
      ],
      "stateMutability": "view",
      "type": "function"
    },
    {
      "inputs": [],
      "name": "getPaciente",
      "outputs": [
        {
          "internalType": "address",
          "name": "",
          "type": "address"
        }
      ],
      "stateMutability": "view",
      "type": "function"
    },
    {
      "inputs": [],
      "name": "getSolicitante",
      "outputs": [
        {
          "internalType": "address",
          "name": "",
          "type": "address"
        }
      ],
      "stateMutability": "view",
      "type": "function"
    },
    {
      "inputs": [],
      "name": "getFueRespondido",
      "outputs": [
        {
          "internalType": "bool",
          "name": "",
          "type": "bool"
        }
      ],
      "stateMutability": "view",
      "type": "function"
    },
    {
      "inputs": [],
      "name": "getFueAceptado",
      "outputs": [
        {
          "internalType": "bool",
          "name": "",
          "type": "bool"
        }
      ],
      "stateMutability": "view",
      "type": "function"
    },
    {
      "inputs": [],
      "name": "getFechaSolicitud",
      "outputs": [
        {
          "internalType": "int256",
          "name": "",
          "type": "int256"
        }
      ],
      "stateMutability": "view",
      "type": "function"
    },
    {
      "inputs": [],
      "name": "getFechaExpiracion",
      "outputs": [
        {
          "internalType": "int256",
          "name": "",
          "type": "int256"
        }
      ],
      "stateMutability": "view",
      "type": "function"
    },
    {
      "inputs": [
        {
          "internalType": "uint256",
          "name": "_id",
          "type": "uint256"
        }
      ],
      "name": "setId",
      "outputs": [],
      "stateMutability": "nonpayable",
      "type": "function"
    },
    {
      "inputs": [
        {
          "internalType": "string",
          "name": "_llave",
          "type": "string"
        }
      ],
      "name": "setLlave",
      "outputs": [],
      "stateMutability": "nonpayable",
      "type": "function"
    },
    {
      "inputs": [
        {
          "internalType": "address",
          "name": "_paciente",
          "type": "address"
        }
      ],
      "name": "setPaciente",
      "outputs": [],
      "stateMutability": "nonpayable",
      "type": "function"
    },
    {
      "inputs": [
        {
          "internalType": "address",
          "name": "_solicitante",
          "type": "address"
        }
      ],
      "name": "setSolicitante",
      "outputs": [],
      "stateMutability": "nonpayable",
      "type": "function"
    },
    {
      "inputs": [
        {
          "internalType": "bool",
          "name": "_fueRespondido",
          "type": "bool"
        }
      ],
      "name": "setFueRespondido",
      "outputs": [],
      "stateMutability": "nonpayable",
      "type": "function"
    },
    {
      "inputs": [
        {
          "internalType": "bool",
          "name": "_fueAceptado",
          "type": "bool"
        }
      ],
      "name": "setFueAceptado",
      "outputs": [],
      "stateMutability": "nonpayable",
      "type": "function"
    },
    {
      "inputs": [
        {
          "internalType": "int256",
          "name": "_fechaSolicitud",
          "type": "int256"
        }
      ],
      "name": "setFechaSolicitud",
      "outputs": [],
      "stateMutability": "nonpayable",
      "type": "function"
    },
    {
      "inputs": [
        {
          "internalType": "int256",
          "name": "_fechaExpiracion",
          "type": "int256"
        }
      ],
      "name": "setFechaExpiracion",
      "outputs": [],
      "stateMutability": "nonpayable",
      "type": "function"
    }
  ],
  "bytecode": "0x608060405234801561001057600080fd5b50600080546001600160a01b03191633179055610aac806100326000396000f3fe608060405234801561001057600080fd5b50600436106101515760003560e01c8063a2c499a7116100cd578063e0b0019211610081578063f291782711610066578063f2917827146102f8578063fd2f223914610324578063fe341d6a1461036157600080fd5b8063e0b00192146102d2578063ebbf321b146102e757600080fd5b8063b251f005116100b2578063b251f005146102a4578063d0e0ba95146102ac578063d72dcce6146102bf57600080fd5b8063a2c499a714610289578063ab2d092c1461029157600080fd5b80635d1ca6311161012457806366cb6c411161010957806366cb6c411461023657806392ebdcd21461024957806399e30e1e1461027457600080fd5b80635d1ca631146102125780636109a3a71461022457600080fd5b806316f1675014610156578063366d0f721461019557806343f66f18146101a857806350cfa3b8146101ef575b600080fd5b610193610164366004610603565b6003805473ffffffffffffffffffffffffffffffffffffffff19166001600160a01b0392909216919091179055565b005b6101936101a3366004610702565b610372565b6101936101b63660046107d5565b60048054911515600160a01b027fffffffffffffffffffffff00ffffffffffffffffffffffffffffffffffffffff909216919091179055565b600454600160a01b900460ff165b60405190151581526020015b60405180910390f35b6001545b604051908152602001610209565b600454600160a81b900460ff166101fd565b6101936102443660046107f0565b600655565b60005461025c906001600160a01b031681565b6040516001600160a01b039091168152602001610209565b61027c6103ef565b604051610209919061084f565b600554610216565b61019361029f3660046108dd565b610545565b600654610216565b6101936102ba3660046107f0565b600155565b6101936102cd3660046107f0565b600555565b6102da610555565b604051610209919061091a565b6004546001600160a01b031661025c565b6101936103063660046107d5565b60048054911515600160a81b0260ff60a81b19909216919091179055565b610193610332366004610603565b6004805473ffffffffffffffffffffffffffffffffffffffff19166001600160a01b0392909216919091179055565b6003546001600160a01b031661025c565b8051600155602081015160029061038990826109b6565b5060808101516004805460a08401511515600160a81b0260ff60a81b19931515600160a01b02939093167fffffffffffffffffffff0000ffffffffffffffffffffffffffffffffffffffff9091161791909117905560c081015160055560e00151600655565b61044d604051806101000160405280600081526020016060815260200160006001600160a01b0316815260200160006001600160a01b0316815260200160001515815260200160001515815260200160008152602001600081525090565b60405180610100016040528060015481526020016002805461046e9061092d565b80601f016020809104026020016040519081016040528092919081815260200182805461049a9061092d565b80156104e75780601f106104bc576101008083540402835291602001916104e7565b820191906000526020600020905b8154815290600101906020018083116104ca57829003601f168201915b50505091835250506003546001600160a01b039081166020830152600454908116604083015260ff600160a01b8204811615156060840152600160a81b909104161515608082015260055460a082015260065460c090910152919050565b600261055182826109b6565b5050565b6060600280546105649061092d565b80601f01602080910402602001604051908101604052809291908181526020018280546105909061092d565b80156105dd5780601f106105b2576101008083540402835291602001916105dd565b820191906000526020600020905b8154815290600101906020018083116105c057829003601f168201915b5050505050905090565b80356001600160a01b03811681146105fe57600080fd5b919050565b60006020828403121561061557600080fd5b61061e826105e7565b9392505050565b634e487b7160e01b600052604160045260246000fd5b604051610100810167ffffffffffffffff8111828210171561065f5761065f610625565b60405290565b600082601f83011261067657600080fd5b813567ffffffffffffffff8082111561069157610691610625565b604051601f8301601f19908116603f011681019082821181831017156106b9576106b9610625565b816040528381528660208588010111156106d257600080fd5b836020870160208301376000602085830101528094505050505092915050565b803580151581146105fe57600080fd5b60006020828403121561071457600080fd5b813567ffffffffffffffff8082111561072c57600080fd5b90830190610100828603121561074157600080fd5b61074961063b565b8235815260208301358281111561075f57600080fd5b61076b87828601610665565b60208301525061077d604084016105e7565b604082015261078e606084016105e7565b606082015261079f608084016106f2565b60808201526107b060a084016106f2565b60a082015260c083013560c082015260e083013560e082015280935050505092915050565b6000602082840312156107e757600080fd5b61061e826106f2565b60006020828403121561080257600080fd5b5035919050565b6000815180845260005b8181101561082f57602081850181015186830182015201610813565b506000602082860101526020601f19601f83011685010191505092915050565b602081528151602082015260006020830151610100806040850152610878610120850183610809565b915060408501516001600160a01b038082166060870152806060880151166080870152505060808501516108b060a086018215159052565b5060a085015180151560c08601525060c085015160e085015260e085015181850152508091505092915050565b6000602082840312156108ef57600080fd5b813567ffffffffffffffff81111561090657600080fd5b61091284828501610665565b949350505050565b60208152600061061e6020830184610809565b600181811c9082168061094157607f821691505b60208210810361096157634e487b7160e01b600052602260045260246000fd5b50919050565b601f8211156109b157600081815260208120601f850160051c8101602086101561098e5750805b601f850160051c820191505b818110156109ad5782815560010161099a565b5050505b505050565b815167ffffffffffffffff8111156109d0576109d0610625565b6109e4816109de845461092d565b84610967565b602080601f831160018114610a195760008415610a015750858301515b600019600386901b1c1916600185901b1785556109ad565b600085815260208120601f198616915b82811015610a4857888601518255948401946001909101908401610a29565b5085821015610a665787850151600019600388901b60f8161c191681555b5050505050600190811b0190555056fea26469706673582212202564c5ed41756d8ee7772a869f951af3d898226d1d49f33c57e250cabd289a6964736f6c63430008110033",
  "immutableReferences": {},
  "source": "// SPDX-License-Identifier: MIT\npragma solidity ^0.8.17;\n\n//import \"./structsGenerales/DatosPersonalesStruct.sol\";\n\ncontract PermisoDeAccesoVO {\n    address public creador;\n\n    struct PermisoDeAccesoStruct {\n        uint256 id;\n        string llave;\n        address paciente;\n        address solicitante;\n        bool fueRespondido;\n        bool fueAceptado;\n        int256 fechaSolicitud;\n        int256 fechaExpiracion;\n    }\n\n    // TODO: Actualizar en diagrama\n    uint256 private id;\n    string private llave;\n    address private paciente;\n    address private solicitante;\n    bool private fueRespondido;\n    bool private fueAceptado;\n    int256 private fechaSolicitud;\n    int256 private fechaExpiracion;\n\n    constructor() {\n        creador = msg.sender;\n    }\n\n    function getPermisoDeAccesoStruct()\n        public\n        view\n        returns (PermisoDeAccesoStruct memory)\n    {\n        return\n            PermisoDeAccesoStruct(\n                id,\n                llave,\n                paciente,\n                solicitante,\n                fueRespondido,\n                fueAceptado,\n                fechaSolicitud,\n                fechaExpiracion\n            );\n    }\n\n    function setPermisoDeAccesoStruct(\n        PermisoDeAccesoStruct memory _permisoDeAccesoStruct\n    ) public {\n        id = _permisoDeAccesoStruct.id;\n        llave = _permisoDeAccesoStruct.llave;\n        fueRespondido = _permisoDeAccesoStruct.fueRespondido;\n        fueAceptado = _permisoDeAccesoStruct.fueAceptado;\n        fechaSolicitud = _permisoDeAccesoStruct.fechaSolicitud;\n        fechaExpiracion = _permisoDeAccesoStruct.fechaExpiracion;\n    }\n\n    function getId() public view returns (uint256) {\n        return id;\n    }\n\n    function getLlave() public view returns (string memory) {\n        return llave;\n    }\n\n    function getPaciente() public view returns (address) {\n        return paciente;\n    }\n\n    function getSolicitante() public view returns (address) {\n        return solicitante;\n    }\n\n    function getFueRespondido() public view returns (bool) {\n        return fueRespondido;\n    }\n\n    function getFueAceptado() public view returns (bool) {\n        return fueAceptado;\n    }\n\n    function getFechaSolicitud() public view returns (int256) {\n        return fechaSolicitud;\n    }\n\n    function getFechaExpiracion() public view returns (int256) {\n        return fechaExpiracion;\n    }\n\n    function setId(uint256 _id) public {\n        id = _id;\n    }\n\n    function setLlave(string memory _llave) public {\n        llave = _llave;\n    }\n\n    function setPaciente(address _paciente) public {\n        paciente = _paciente;\n    }\n\n    function setSolicitante(address _solicitante) public {\n        solicitante = _solicitante;\n    }\n\n    function setFueRespondido(bool _fueRespondido) public {\n        fueRespondido = _fueRespondido;\n    }\n\n    function setFueAceptado(bool _fueAceptado) public {\n        fueAceptado = _fueAceptado;\n    }\n\n    function setFechaSolicitud(int256 _fechaSolicitud) public {\n        fechaSolicitud = _fechaSolicitud;\n    }\n\n    function setFechaExpiracion(int256 _fechaExpiracion) public {\n        fechaExpiracion = _fechaExpiracion;\n    }\n}\n",
  "sourcePath": "/back/contracts/models/accesoHistoriaClinica/PermisoDeAccesoVO.sol",
  "compiler": {
    "name": "solc",
    "version": "0.8.17+commit.8df45f5f.Emscripten.clang"
  },
  "schemaVersion": "3.4.11",
  "updatedAt": "2023-06-26T00:47:43.389Z",
  "devdoc": {
    "kind": "dev",
    "methods": {},
    "version": 1
  },
  "userdoc": {
    "kind": "user",
    "methods": {},
    "version": 1
  }
}