{
  "contractName": "PermisoMapper",
  "abi": [
    {
      "inputs": [],
      "stateMutability": "nonpayable",
      "type": "constructor"
    },
    {
      "anonymous": false,
      "inputs": [
        {
          "indexed": false,
          "internalType": "string",
          "name": "data",
          "type": "string"
        }
      ],
      "name": "Log",
      "type": "event"
    },
    {
      "inputs": [],
      "name": "creador",
      "outputs": [
        {
          "internalType": "address",
          "name": "",
          "type": "address"
        }
      ],
      "stateMutability": "view",
      "type": "function"
    },
    {
      "inputs": [
        {
          "internalType": "uint256",
          "name": "_id",
          "type": "uint256"
        }
      ],
      "name": "consultar",
      "outputs": [
        {
          "internalType": "contract PermisoVO",
          "name": "",
          "type": "address"
        }
      ],
      "stateMutability": "view",
      "type": "function"
    },
    {
      "inputs": [],
      "name": "getPermisosSize",
      "outputs": [
        {
          "internalType": "uint256",
          "name": "",
          "type": "uint256"
        }
      ],
      "stateMutability": "view",
      "type": "function"
    },
    {
      "inputs": [],
      "name": "getPermisos",
      "outputs": [
        {
          "internalType": "contract PermisoVO[]",
          "name": "",
          "type": "address[]"
        }
      ],
      "stateMutability": "view",
      "type": "function"
    },
    {
      "inputs": [
        {
          "internalType": "uint256",
          "name": "_id",
          "type": "uint256"
        },
        {
          "internalType": "contract PermisoVO",
          "name": "_permiso",
          "type": "address"
        }
      ],
      "name": "guardar",
      "outputs": [],
      "stateMutability": "nonpayable",
      "type": "function"
    },
    {
      "inputs": [
        {
          "internalType": "uint256",
          "name": "_id",
          "type": "uint256"
        },
        {
          "internalType": "contract PermisoVO",
          "name": "_permiso",
          "type": "address"
        }
      ],
      "name": "actualizar",
      "outputs": [],
      "stateMutability": "nonpayable",
      "type": "function"
    },
    {
      "inputs": [],
      "name": "selfDestruct",
      "outputs": [],
      "stateMutability": "nonpayable",
      "type": "function"
    }
  ],
  "bytecode": "0x608060405234801561001057600080fd5b50600080546001600160a01b03191633179055610606806100326000396000f3fe608060405234801561001057600080fd5b506004361061007d5760003560e01c806392ebdcd21161005b57806392ebdcd2146100c25780639cb8a26a146100ed578063b10b65ce146100f5578063d058e4371461010857600080fd5b806327fcdf2b146100825780637ce8aae414610097578063804851c0146100ad575b600080fd5b6100956100903660046104db565b61011b565b005b6002546040519081526020015b60405180910390f35b6100b56101e5565b6040516100a49190610517565b6000546100d5906001600160a01b031681565b6040516001600160a01b0390911681526020016100a4565b6100956102c5565b6100d5610103366004610564565b610379565b6100956101163660046104db565b6103e4565b6000828152600160205260409020546001600160a01b03166101aa5760405162461bcd60e51b815260206004820152602f60248201527f4e6f2065786973746520756e207065726d69736f207265676973747261646f2060448201527f636f6e206573652061646472657373000000000000000000000000000000000060648201526084015b60405180910390fd5b600091825260016020526040909120805473ffffffffffffffffffffffffffffffffffffffff19166001600160a01b03909216919091179055565b60025460609060009067ffffffffffffffff8111156102065761020661057d565b60405190808252806020026020018201604052801561022f578160200160208202803683370190505b50905060005b6002548110156102bf57600160006002838154811061025657610256610593565b9060005260206000200154815260200190815260200160002060009054906101000a90046001600160a01b031682828151811061029557610295610593565b6001600160a01b0390921660209283029190910190910152806102b7816105a9565b915050610235565b50919050565b6000546001600160a01b0316331461036b5760405162461bcd60e51b815260206004820152604160248201527f457374612066756e63696f6e20736f6c6f2070756564652073657220656a656360448201527f757461646120706f7220656c2063726561646f722064656c20636f6e7472617460648201527f6f00000000000000000000000000000000000000000000000000000000000000608482015260a4016101a1565b6000546001600160a01b0316ff5b6000818152600160205260408120546001600160a01b0316806103de5760405162461bcd60e51b815260206004820152601560248201527f4e6f2065786973746520657365207065726d69736f000000000000000000000060448201526064016101a1565b92915050565b6000828152600160205260409020546001600160a01b03161561046f5760405162461bcd60e51b815260206004820152602f60248201527f59612065786973746520756e207065726d69736f207265676973747261646f2060448201527f636f6e206573652061646472657373000000000000000000000000000000000060648201526084016101a1565b60008281526001602081905260408220805473ffffffffffffffffffffffffffffffffffffffff19166001600160a01b03949094169390931790925560028054928301815590527f405787fa12a823e0f2b7631cc41b3ba8828b3321ca811111fa75cd3aa3bb5ace0155565b600080604083850312156104ee57600080fd5b8235915060208301356001600160a01b038116811461050c57600080fd5b809150509250929050565b6020808252825182820181905260009190848201906040850190845b818110156105585783516001600160a01b031683529284019291840191600101610533565b50909695505050505050565b60006020828403121561057657600080fd5b5035919050565b634e487b7160e01b600052604160045260246000fd5b634e487b7160e01b600052603260045260246000fd5b6000600182016105c957634e487b7160e01b600052601160045260246000fd5b506001019056fea264697066735822122077d14e0723010938492322dbb779807f1986de292b965e155343966166d9a75d64736f6c63430008110033",
  "immutableReferences": {},
  "source": "// SPDX-License-Identifier: MIT\npragma solidity ^0.8.17;\n// import \"../logica/Persona.sol\";\nimport \"../models/PermisoVO.sol\";\nimport \"./PermisoMapperInterface.sol\";\n\n// TODO Deuda tecnica, agregar al diagrama de clases\ncontract PermisoMapper is PermisoMapperInterface {\n    address public creador;\n    mapping(uint256 => PermisoVO) private permisos;\n    uint256[] private idsList; // NOTE Mapped Structs with Index\n\n    constructor() {\n        creador = msg.sender;\n    }\n\n    function consultar(uint256 _id) external view returns (PermisoVO) {\n        PermisoVO permisoVO = permisos[_id];\n        if (address(permisoVO) == address(0)) {\n            revert(\"No existe ese permiso\");\n        }\n        return permisoVO;\n    }\n\n    function getPermisosSize() public view returns (uint256) {\n        return idsList.length;\n    }\n\n    function getPermisos() public view returns (PermisoVO[] memory) {\n        PermisoVO[] memory lista = new PermisoVO[](idsList.length);\n        for (uint256 i = 0; i < idsList.length; i++) {\n            lista[i] = permisos[idsList[i]];\n        }\n        return lista;\n    }\n\n    // TODO: Revisar\n    function guardar(uint256 _id, PermisoVO _permiso) public {\n        if (address(permisos[_id]) != address(0)) {\n            revert(\"Ya existe un permiso registrado con ese address\");\n        }\n        permisos[_id] = _permiso;\n        idsList.push(_id);\n    }\n\n    function actualizar(uint256 _id, PermisoVO _permiso) public {\n        if (address(permisos[_id]) == address(0)) {\n            revert(\"No existe un permiso registrado con ese address\");\n        }\n        permisos[_id] = _permiso;\n    }\n\n    modifier esPropietario() {\n        require(\n            msg.sender == creador,\n            \"Esta funcion solo puede ser ejecutada por el creador del contrato\"\n        );\n        _; // ac se ejecuta la funcin\n    }\n\n    function selfDestruct() public esPropietario {\n        selfdestruct(payable(creador));\n    }\n}\n",
  "sourcePath": "/back/contracts/persistence/PermisoMapper.sol",
  "compiler": {
    "name": "solc",
    "version": "0.8.17+commit.8df45f5f.Emscripten.clang"
  },
  "schemaVersion": "3.4.11",
  "updatedAt": "2023-06-26T00:47:43.791Z",
  "devdoc": {
    "kind": "dev",
    "methods": {},
    "version": 1
  },
  "userdoc": {
    "kind": "user",
    "methods": {},
    "version": 1
  }
}