{
  "contractName": "PermisoMapper",
  "abi": [
    {
      "inputs": [],
      "stateMutability": "nonpayable",
      "type": "constructor"
    },
    {
      "anonymous": false,
      "inputs": [
        {
          "indexed": false,
          "internalType": "string",
          "name": "data",
          "type": "string"
        }
      ],
      "name": "Log",
      "type": "event"
    },
    {
      "inputs": [],
      "name": "creador",
      "outputs": [
        {
          "internalType": "address",
          "name": "",
          "type": "address"
        }
      ],
      "stateMutability": "view",
      "type": "function"
    },
    {
      "inputs": [
        {
          "internalType": "uint256",
          "name": "_id",
          "type": "uint256"
        }
      ],
      "name": "consultar",
      "outputs": [
        {
          "internalType": "contract PermisoVO",
          "name": "",
          "type": "address"
        }
      ],
      "stateMutability": "view",
      "type": "function"
    },
    {
      "inputs": [],
      "name": "getPermisosSize",
      "outputs": [
        {
          "internalType": "uint256",
          "name": "",
          "type": "uint256"
        }
      ],
      "stateMutability": "view",
      "type": "function"
    },
    {
      "inputs": [],
      "name": "getPermisos",
      "outputs": [
        {
          "internalType": "contract PermisoVO[]",
          "name": "",
          "type": "address[]"
        }
      ],
      "stateMutability": "view",
      "type": "function"
    },
    {
      "inputs": [
        {
          "internalType": "uint256",
          "name": "_id",
          "type": "uint256"
        },
        {
          "internalType": "contract PermisoVO",
          "name": "_permiso",
          "type": "address"
        }
      ],
      "name": "guardar",
      "outputs": [],
      "stateMutability": "nonpayable",
      "type": "function"
    },
    {
      "inputs": [
        {
          "internalType": "uint256",
          "name": "_id",
          "type": "uint256"
        },
        {
          "internalType": "contract PermisoVO",
          "name": "_permiso",
          "type": "address"
        }
      ],
      "name": "actualizar",
      "outputs": [],
      "stateMutability": "nonpayable",
      "type": "function"
    },
    {
      "inputs": [],
      "name": "selfDestruct",
      "outputs": [],
      "stateMutability": "nonpayable",
      "type": "function"
    }
  ],
  "bytecode": "0x608060405234801561001057600080fd5b50600080546001600160a01b03191633179055610669806100326000396000f3fe608060405234801561001057600080fd5b506004361061007d5760003560e01c806392ebdcd21161005b57806392ebdcd2146100c25780639cb8a26a146100ed578063b10b65ce146100f5578063d058e4371461010857600080fd5b806327fcdf2b146100825780637ce8aae414610097578063804851c0146100ad575b600080fd5b61009561009036600461053e565b61011b565b005b6002546040519081526020015b60405180910390f35b6100b56101d7565b6040516100a4919061057a565b6000546100d5906001600160a01b031681565b6040516001600160a01b0390911681526020016100a4565b6100956102b7565b6100d56101033660046105c7565b61036b565b61009561011636600461053e565b6103d6565b6000828152600160205260409020546001600160a01b031661019c5760405162461bcd60e51b815260206004820152602f60248201527f4e6f2065786973746520756e207065726d69736f207265676973747261646f2060448201526e636f6e20657365206164647265737360881b60648201526084015b60405180910390fd5b600091825260016020526040909120805473ffffffffffffffffffffffffffffffffffffffff19166001600160a01b03909216919091179055565b60025460609060009067ffffffffffffffff8111156101f8576101f86105e0565b604051908082528060200260200182016040528015610221578160200160208202803683370190505b50905060005b6002548110156102b1576001600060028381548110610248576102486105f6565b9060005260206000200154815260200190815260200160002060009054906101000a90046001600160a01b0316828281518110610287576102876105f6565b6001600160a01b0390921660209283029190910190910152806102a98161060c565b915050610227565b50919050565b6000546001600160a01b0316331461035d5760405162461bcd60e51b815260206004820152604160248201527f457374612066756e63696f6e20736f6c6f2070756564652073657220656a656360448201527f757461646120706f7220656c2063726561646f722064656c20636f6e7472617460648201527f6f00000000000000000000000000000000000000000000000000000000000000608482015260a401610193565b6000546001600160a01b0316ff5b6000818152600160205260408120546001600160a01b0316806103d05760405162461bcd60e51b815260206004820152601560248201527f4e6f2065786973746520657365207065726d69736f00000000000000000000006044820152606401610193565b92915050565b6000828152600160205260409020546001600160a01b0316156104d2577fcf34ef537ac33ee1ac626ca1587a0a7e8e51561e5514f8cb36afa1c5102b3bab60405161046a906020808252602f908201527f59612065786973746520756e207065726d69736f207265676973747261646f2060408201526e636f6e20657365206164647265737360881b606082015260800190565b60405180910390a160405162461bcd60e51b815260206004820152602f60248201527f59612065786973746520756e207065726d69736f207265676973747261646f2060448201526e636f6e20657365206164647265737360881b6064820152608401610193565b60008281526001602081905260408220805473ffffffffffffffffffffffffffffffffffffffff19166001600160a01b03949094169390931790925560028054928301815590527f405787fa12a823e0f2b7631cc41b3ba8828b3321ca811111fa75cd3aa3bb5ace0155565b6000806040838503121561055157600080fd5b8235915060208301356001600160a01b038116811461056f57600080fd5b809150509250929050565b6020808252825182820181905260009190848201906040850190845b818110156105bb5783516001600160a01b031683529284019291840191600101610596565b50909695505050505050565b6000602082840312156105d957600080fd5b5035919050565b634e487b7160e01b600052604160045260246000fd5b634e487b7160e01b600052603260045260246000fd5b60006001820161062c57634e487b7160e01b600052601160045260246000fd5b506001019056fea2646970667358221220c91428f3636a0c10a1305a7788b57251134a74e7aace171f1db52b9910c6147c64736f6c63430008110033",
  "immutableReferences": {},
  "source": "// SPDX-License-Identifier: MIT\npragma solidity ^0.8.17;\n// import \"../logica/Persona.sol\";\nimport \"../models/PermisoVO.sol\";\nimport \"./PermisoMapperInterface.sol\";\n\n// TODO Deuda tecnica, agregar al diagrama de clases\ncontract PermisoMapper is PermisoMapperInterface {\n    address public creador;\n    mapping(uint256 => PermisoVO) private permisos;\n    uint256[] private idsList; // NOTE Mapped Structs with Index\n\n    constructor() {\n        creador = msg.sender;\n    }\n\n    function consultar(uint256 _id) external view returns (PermisoVO) {\n        //emit Log(\"entro a consultar\");\n        PermisoVO permisoVO = permisos[_id];\n        if (address(permisoVO) == address(0)) {\n            revert(\"No existe ese permiso\");\n        }\n        return permisoVO;\n    }\n\n    function getPermisosSize() public view returns (uint256) {\n        return idsList.length;\n    }\n\n    function getPermisos() public view returns (PermisoVO[] memory) {\n        PermisoVO[] memory lista = new PermisoVO[](idsList.length);\n        for (uint256 i = 0; i < idsList.length; i++) {\n            lista[i] = permisos[idsList[i]];\n        }\n        return lista;\n    }\n\n    // TODO: Revisar\n    function guardar(uint256 _id, PermisoVO _permiso) public {\n        if (address(permisos[_id]) != address(0)) {\n            emit Log(\"Ya existe un permiso registrado con ese address\");\n            revert(\"Ya existe un permiso registrado con ese address\");\n        }\n        permisos[_id] = _permiso;\n        idsList.push(_id);\n    }\n\n    function actualizar(uint256 _id, PermisoVO _permiso) public {\n        if (address(permisos[_id]) == address(0)) {\n            revert(\"No existe un permiso registrado con ese address\");\n        }\n        permisos[_id] = _permiso;\n    }\n\n    modifier esPropietario() {\n        require(\n            msg.sender == creador,\n            \"Esta funcion solo puede ser ejecutada por el creador del contrato\"\n        );\n        _; // ac se ejecuta la funcin\n    }\n\n    function selfDestruct() public esPropietario {\n        selfdestruct(payable(creador));\n    }\n}\n",
  "sourcePath": "/back/contracts/persistence/PermisoMapper.sol",
  "compiler": {
    "name": "solc",
    "version": "0.8.17+commit.8df45f5f.Emscripten.clang"
  },
  "schemaVersion": "3.4.11",
  "updatedAt": "2023-05-03T03:35:50.895Z",
  "devdoc": {
    "kind": "dev",
    "methods": {},
    "version": 1
  },
  "userdoc": {
    "kind": "user",
    "methods": {},
    "version": 1
  }
}