{
  "contractName": "PersonaDAO",
  "abi": [
    {
      "inputs": [],
      "stateMutability": "nonpayable",
      "type": "constructor"
    },
    {
      "inputs": [],
      "name": "creador",
      "outputs": [
        {
          "internalType": "address",
          "name": "",
          "type": "address"
        }
      ],
      "stateMutability": "view",
      "type": "function"
    },
    {
      "inputs": [
        {
          "internalType": "address",
          "name": "",
          "type": "address"
        }
      ],
      "name": "personas",
      "outputs": [
        {
          "internalType": "contract Persona",
          "name": "",
          "type": "address"
        }
      ],
      "stateMutability": "view",
      "type": "function"
    },
    {
      "inputs": [
        {
          "internalType": "address",
          "name": "direccion",
          "type": "address"
        }
      ],
      "name": "consultar",
      "outputs": [
        {
          "internalType": "contract Persona",
          "name": "",
          "type": "address"
        }
      ],
      "stateMutability": "view",
      "type": "function"
    },
    {
      "inputs": [
        {
          "internalType": "address",
          "name": "direccion",
          "type": "address"
        },
        {
          "internalType": "contract Persona",
          "name": "persona",
          "type": "address"
        }
      ],
      "name": "guardar",
      "outputs": [],
      "stateMutability": "nonpayable",
      "type": "function"
    }
  ],
  "bytecode": "0x608060405234801561001057600080fd5b50336000806101000a81548173ffffffffffffffffffffffffffffffffffffffff021916908373ffffffffffffffffffffffffffffffffffffffff160217905550610415806100606000396000f3fe608060405234801561001057600080fd5b506004361061004c5760003560e01c806326d0a380146100515780637da8f6a51461008157806392ebdcd2146100b1578063be381c59146100cf575b600080fd5b61006b60048036038101906100669190610290565b6100eb565b604051610078919061031c565b60405180910390f35b61009b60048036038101906100969190610290565b61011e565b6040516100a8919061031c565b60405180910390f35b6100b9610187565b6040516100c69190610346565b60405180910390f35b6100e960048036038101906100e4919061039f565b6101ab565b005b60016020528060005260406000206000915054906101000a900473ffffffffffffffffffffffffffffffffffffffff1681565b6000600160008373ffffffffffffffffffffffffffffffffffffffff1673ffffffffffffffffffffffffffffffffffffffff16815260200190815260200160002060009054906101000a900473ffffffffffffffffffffffffffffffffffffffff169050919050565b60008054906101000a900473ffffffffffffffffffffffffffffffffffffffff1681565b80600160008473ffffffffffffffffffffffffffffffffffffffff1673ffffffffffffffffffffffffffffffffffffffff16815260200190815260200160002060006101000a81548173ffffffffffffffffffffffffffffffffffffffff021916908373ffffffffffffffffffffffffffffffffffffffff1602179055505050565b600080fd5b600073ffffffffffffffffffffffffffffffffffffffff82169050919050565b600061025d82610232565b9050919050565b61026d81610252565b811461027857600080fd5b50565b60008135905061028a81610264565b92915050565b6000602082840312156102a6576102a561022d565b5b60006102b48482850161027b565b91505092915050565b6000819050919050565b60006102e26102dd6102d884610232565b6102bd565b610232565b9050919050565b60006102f4826102c7565b9050919050565b6000610306826102e9565b9050919050565b610316816102fb565b82525050565b6000602082019050610331600083018461030d565b92915050565b61034081610252565b82525050565b600060208201905061035b6000830184610337565b92915050565b600061036c82610252565b9050919050565b61037c81610361565b811461038757600080fd5b50565b60008135905061039981610373565b92915050565b600080604083850312156103b6576103b561022d565b5b60006103c48582860161027b565b92505060206103d58582860161038a565b915050925092905056fea26469706673582212209a9a0ec4e69e7a5022752e9965697d6b09edc19348ed19f110c639c33eb9df4a64736f6c634300080b0033",
  "immutableReferences": {},
  "source": "pragma solidity >=0.4.22 <0.9.0; // TODO: Ajustar la versin por consenso con Jos\n\nimport \"../logica/Persona.sol\";\n\ncontract PersonaDAO {\n    address public creador;\n\n    mapping(address => Persona) public personas;\n\n    constructor() public {\n        creador = msg.sender; // creador del contrato\n    }\n\n    function consultar(address direccion) public view returns (Persona) {\n        // TODO: buscar persona en arreglo, ajustar para ver si existe el key en el mapping\n        return personas[direccion]; \n    }\n\n    // TODO: buscar porque es uint256\n    function guardar(address direccion, Persona persona) public {  // TODO: quitar return en clase de enterprise architect        \n        // TODO: Validar, si falla poner excepcin\n        personas[direccion] = persona;\n    }\n}\n",
  "sourcePath": "/home/felipe/Documentos/Blockchain/codigo/back-hce/contracts/persistence/PersonaDAO.sol",
  "compiler": {
    "name": "solc",
    "version": "0.8.11+commit.d7f03943.Emscripten.clang"
  },
  "schemaVersion": "3.4.4",
  "updatedAt": "2022-01-18T03:05:30.693Z",
  "devdoc": {
    "kind": "dev",
    "methods": {},
    "version": 1
  },
  "userdoc": {
    "kind": "user",
    "methods": {},
    "version": 1
  }
}