{
  "contractName": "PersonaDAO",
  "abi": [
    {
      "inputs": [],
      "stateMutability": "nonpayable",
      "type": "constructor"
    },
    {
      "anonymous": false,
      "inputs": [
        {
          "indexed": false,
          "internalType": "string",
          "name": "data",
          "type": "string"
        }
      ],
      "name": "Log",
      "type": "event"
    },
    {
      "inputs": [],
      "name": "creador",
      "outputs": [
        {
          "internalType": "address",
          "name": "",
          "type": "address"
        }
      ],
      "stateMutability": "view",
      "type": "function"
    },
    {
      "inputs": [
        {
          "internalType": "address",
          "name": "direccion",
          "type": "address"
        }
      ],
      "name": "consultar",
      "outputs": [
        {
          "components": [
            {
              "internalType": "string",
              "name": "primerNombre",
              "type": "string"
            },
            {
              "internalType": "string",
              "name": "segundoNombre",
              "type": "string"
            },
            {
              "internalType": "string",
              "name": "primerApellido",
              "type": "string"
            },
            {
              "internalType": "string",
              "name": "segundoApellido",
              "type": "string"
            },
            {
              "internalType": "string",
              "name": "identificacion",
              "type": "string"
            },
            {
              "components": [
                {
                  "internalType": "string",
                  "name": "nombre",
                  "type": "string"
                },
                {
                  "internalType": "string",
                  "name": "descripcion",
                  "type": "string"
                },
                {
                  "internalType": "bool",
                  "name": "estaActiva",
                  "type": "bool"
                }
              ],
              "internalType": "struct TipoIdentificacionStruct",
              "name": "tipoIdentificacionId",
              "type": "tuple"
            },
            {
              "internalType": "uint256",
              "name": "rolId",
              "type": "uint256"
            },
            {
              "internalType": "bool",
              "name": "isValue",
              "type": "bool"
            }
          ],
          "internalType": "struct PersonaStruct",
          "name": "",
          "type": "tuple"
        }
      ],
      "stateMutability": "nonpayable",
      "type": "function"
    },
    {
      "inputs": [
        {
          "internalType": "address",
          "name": "direccion",
          "type": "address"
        },
        {
          "components": [
            {
              "internalType": "string",
              "name": "primerNombre",
              "type": "string"
            },
            {
              "internalType": "string",
              "name": "segundoNombre",
              "type": "string"
            },
            {
              "internalType": "string",
              "name": "primerApellido",
              "type": "string"
            },
            {
              "internalType": "string",
              "name": "segundoApellido",
              "type": "string"
            },
            {
              "internalType": "string",
              "name": "identificacion",
              "type": "string"
            },
            {
              "components": [
                {
                  "internalType": "string",
                  "name": "nombre",
                  "type": "string"
                },
                {
                  "internalType": "string",
                  "name": "descripcion",
                  "type": "string"
                },
                {
                  "internalType": "bool",
                  "name": "estaActiva",
                  "type": "bool"
                }
              ],
              "internalType": "struct TipoIdentificacionStruct",
              "name": "tipoIdentificacionId",
              "type": "tuple"
            },
            {
              "internalType": "uint256",
              "name": "rolId",
              "type": "uint256"
            },
            {
              "internalType": "bool",
              "name": "isValue",
              "type": "bool"
            }
          ],
          "internalType": "struct PersonaStruct",
          "name": "persona",
          "type": "tuple"
        }
      ],
      "name": "guardar",
      "outputs": [],
      "stateMutability": "nonpayable",
      "type": "function"
    },
    {
      "inputs": [
        {
          "internalType": "address",
          "name": "direccion",
          "type": "address"
        },
        {
          "components": [
            {
              "internalType": "string",
              "name": "primerNombre",
              "type": "string"
            },
            {
              "internalType": "string",
              "name": "segundoNombre",
              "type": "string"
            },
            {
              "internalType": "string",
              "name": "primerApellido",
              "type": "string"
            },
            {
              "internalType": "string",
              "name": "segundoApellido",
              "type": "string"
            },
            {
              "internalType": "string",
              "name": "identificacion",
              "type": "string"
            },
            {
              "components": [
                {
                  "internalType": "string",
                  "name": "nombre",
                  "type": "string"
                },
                {
                  "internalType": "string",
                  "name": "descripcion",
                  "type": "string"
                },
                {
                  "internalType": "bool",
                  "name": "estaActiva",
                  "type": "bool"
                }
              ],
              "internalType": "struct TipoIdentificacionStruct",
              "name": "tipoIdentificacionId",
              "type": "tuple"
            },
            {
              "internalType": "uint256",
              "name": "rolId",
              "type": "uint256"
            },
            {
              "internalType": "bool",
              "name": "isValue",
              "type": "bool"
            }
          ],
          "internalType": "struct PersonaStruct",
          "name": "persona",
          "type": "tuple"
        }
      ],
      "name": "actualizar",
      "outputs": [],
      "stateMutability": "nonpayable",
      "type": "function"
    },
    {
      "inputs": [],
      "name": "selfDestruct",
      "outputs": [],
      "stateMutability": "nonpayable",
      "type": "function"
    }
  ],
  "bytecode": "0x608060405234801561001057600080fd5b50336000806101000a81548173ffffffffffffffffffffffffffffffffffffffff021916908373ffffffffffffffffffffffffffffffffffffffff16021790555061187f806100606000396000f3fe608060405234801561001057600080fd5b50600436106100575760003560e01c80637da8f6a51461005c57806392ebdcd21461008c5780639cb8a26a146100aa578063beb520e7146100b4578063c3b7114a146100d0575b600080fd5b61007660048036038101906100719190610d48565b6100ec565b6040516100839190610f6c565b60405180910390f35b610094610681565b6040516100a19190610f9d565b60405180910390f35b6100b26106a5565b005b6100ce60048036038101906100c9919061135d565b61076c565b005b6100ea60048036038101906100e5919061135d565b610997565b005b6100f4610bc3565b7fcf34ef537ac33ee1ac626ca1587a0a7e8e51561e5514f8cb36afa1c5102b3bab60405161012190611416565b60405180910390a16000600160008473ffffffffffffffffffffffffffffffffffffffff1673ffffffffffffffffffffffffffffffffffffffff1681526020019081526020016000206040518061010001604052908160008201805461018690611465565b80601f01602080910402602001604051908101604052809291908181526020018280546101b290611465565b80156101ff5780601f106101d4576101008083540402835291602001916101ff565b820191906000526020600020905b8154815290600101906020018083116101e257829003601f168201915b5050505050815260200160018201805461021890611465565b80601f016020809104026020016040519081016040528092919081815260200182805461024490611465565b80156102915780601f1061026657610100808354040283529160200191610291565b820191906000526020600020905b81548152906001019060200180831161027457829003601f168201915b505050505081526020016002820180546102aa90611465565b80601f01602080910402602001604051908101604052809291908181526020018280546102d690611465565b80156103235780601f106102f857610100808354040283529160200191610323565b820191906000526020600020905b81548152906001019060200180831161030657829003601f168201915b5050505050815260200160038201805461033c90611465565b80601f016020809104026020016040519081016040528092919081815260200182805461036890611465565b80156103b55780601f1061038a576101008083540402835291602001916103b5565b820191906000526020600020905b81548152906001019060200180831161039857829003601f168201915b505050505081526020016004820180546103ce90611465565b80601f01602080910402602001604051908101604052809291908181526020018280546103fa90611465565b80156104475780601f1061041c57610100808354040283529160200191610447565b820191906000526020600020905b81548152906001019060200180831161042a57829003601f168201915b505050505081526020016005820160405180606001604052908160008201805461047090611465565b80601f016020809104026020016040519081016040528092919081815260200182805461049c90611465565b80156104e95780601f106104be576101008083540402835291602001916104e9565b820191906000526020600020905b8154815290600101906020018083116104cc57829003601f168201915b5050505050815260200160018201805461050290611465565b80601f016020809104026020016040519081016040528092919081815260200182805461052e90611465565b801561057b5780601f106105505761010080835404028352916020019161057b565b820191906000526020600020905b81548152906001019060200180831161055e57829003601f168201915b505050505081526020016002820160009054906101000a900460ff1615151515815250508152602001600882015481526020016009820160009054906101000a900460ff16151515158152505090508060e00151610643577fcf34ef537ac33ee1ac626ca1587a0a7e8e51561e5514f8cb36afa1c5102b3bab604051610600906114e3565b60405180910390a16040517f08c379a000000000000000000000000000000000000000000000000000000000815260040161063a9061154f565b60405180910390fd5b7fcf34ef537ac33ee1ac626ca1587a0a7e8e51561e5514f8cb36afa1c5102b3bab604051610670906115bb565b60405180910390a180915050919050565b60008054906101000a900473ffffffffffffffffffffffffffffffffffffffff1681565b60008054906101000a900473ffffffffffffffffffffffffffffffffffffffff1673ffffffffffffffffffffffffffffffffffffffff163373ffffffffffffffffffffffffffffffffffffffff1614610733576040517f08c379a000000000000000000000000000000000000000000000000000000000815260040161072a90611673565b60405180910390fd5b60008054906101000a900473ffffffffffffffffffffffffffffffffffffffff1673ffffffffffffffffffffffffffffffffffffffff16ff5b600160008373ffffffffffffffffffffffffffffffffffffffff1673ffffffffffffffffffffffffffffffffffffffff16815260200190815260200160002060090160009054906101000a900460ff16610830577fcf34ef537ac33ee1ac626ca1587a0a7e8e51561e5514f8cb36afa1c5102b3bab6040516107ed90611705565b60405180910390a16040517f08c379a000000000000000000000000000000000000000000000000000000000815260040161082790611705565b60405180910390fd5b80600160008473ffffffffffffffffffffffffffffffffffffffff1673ffffffffffffffffffffffffffffffffffffffff168152602001908152602001600020600082015181600001908051906020019061088c929190610c10565b5060208201518160010190805190602001906108a9929190610c10565b5060408201518160020190805190602001906108c6929190610c10565b5060608201518160030190805190602001906108e3929190610c10565b506080820151816004019080519060200190610900929190610c10565b5060a0820151816005016000820151816000019080519060200190610926929190610c10565b506020820151816001019080519060200190610943929190610c10565b5060408201518160020160006101000a81548160ff021916908315150217905550505060c0820151816008015560e08201518160090160006101000a81548160ff0219169083151502179055509050505050565b600160008373ffffffffffffffffffffffffffffffffffffffff1673ffffffffffffffffffffffffffffffffffffffff16815260200190815260200160002060090160009054906101000a900460ff1615610a5c577fcf34ef537ac33ee1ac626ca1587a0a7e8e51561e5514f8cb36afa1c5102b3bab604051610a1990611797565b60405180910390a16040517f08c379a0000000000000000000000000000000000000000000000000000000008152600401610a5390611829565b60405180910390fd5b80600160008473ffffffffffffffffffffffffffffffffffffffff1673ffffffffffffffffffffffffffffffffffffffff1681526020019081526020016000206000820151816000019080519060200190610ab8929190610c10565b506020820151816001019080519060200190610ad5929190610c10565b506040820151816002019080519060200190610af2929190610c10565b506060820151816003019080519060200190610b0f929190610c10565b506080820151816004019080519060200190610b2c929190610c10565b5060a0820151816005016000820151816000019080519060200190610b52929190610c10565b506020820151816001019080519060200190610b6f929190610c10565b5060408201518160020160006101000a81548160ff021916908315150217905550505060c0820151816008015560e08201518160090160006101000a81548160ff0219169083151502179055509050505050565b6040518061010001604052806060815260200160608152602001606081526020016060815260200160608152602001610bfa610c96565b8152602001600081526020016000151581525090565b828054610c1c90611465565b90600052602060002090601f016020900481019282610c3e5760008555610c85565b82601f10610c5757805160ff1916838001178555610c85565b82800160010185558215610c85579182015b82811115610c84578251825591602001919060010190610c69565b5b509050610c929190610cb9565b5090565b604051806060016040528060608152602001606081526020016000151581525090565b5b80821115610cd2576000816000905550600101610cba565b5090565b6000604051905090565b600080fd5b600080fd5b600073ffffffffffffffffffffffffffffffffffffffff82169050919050565b6000610d1582610cea565b9050919050565b610d2581610d0a565b8114610d3057600080fd5b50565b600081359050610d4281610d1c565b92915050565b600060208284031215610d5e57610d5d610ce0565b5b6000610d6c84828501610d33565b91505092915050565b600081519050919050565b600082825260208201905092915050565b60005b83811015610daf578082015181840152602081019050610d94565b83811115610dbe576000848401525b50505050565b6000601f19601f8301169050919050565b6000610de082610d75565b610dea8185610d80565b9350610dfa818560208601610d91565b610e0381610dc4565b840191505092915050565b60008115159050919050565b610e2381610e0e565b82525050565b60006060830160008301518482036000860152610e468282610dd5565b91505060208301518482036020860152610e608282610dd5565b9150506040830151610e756040860182610e1a565b508091505092915050565b6000819050919050565b610e9381610e80565b82525050565b6000610100830160008301518482036000860152610eb78282610dd5565b91505060208301518482036020860152610ed18282610dd5565b91505060408301518482036040860152610eeb8282610dd5565b91505060608301518482036060860152610f058282610dd5565b91505060808301518482036080860152610f1f8282610dd5565b91505060a083015184820360a0860152610f398282610e29565b91505060c0830151610f4e60c0860182610e8a565b5060e0830151610f6160e0860182610e1a565b508091505092915050565b60006020820190508181036000830152610f868184610e99565b905092915050565b610f9781610d0a565b82525050565b6000602082019050610fb26000830184610f8e565b92915050565b600080fd5b7f4e487b7100000000000000000000000000000000000000000000000000000000600052604160045260246000fd5b610ff582610dc4565b810181811067ffffffffffffffff8211171561101457611013610fbd565b5b80604052505050565b6000611027610cd6565b90506110338282610fec565b919050565b600080fd5b600080fd5b600080fd5b600067ffffffffffffffff82111561106257611061610fbd565b5b61106b82610dc4565b9050602081019050919050565b82818337600083830152505050565b600061109a61109584611047565b61101d565b9050828152602081018484840111156110b6576110b5611042565b5b6110c1848285611078565b509392505050565b600082601f8301126110de576110dd61103d565b5b81356110ee848260208601611087565b91505092915050565b61110081610e0e565b811461110b57600080fd5b50565b60008135905061111d816110f7565b92915050565b60006060828403121561113957611138610fb8565b5b611143606061101d565b9050600082013567ffffffffffffffff81111561116357611162611038565b5b61116f848285016110c9565b600083015250602082013567ffffffffffffffff81111561119357611192611038565b5b61119f848285016110c9565b60208301525060406111b38482850161110e565b60408301525092915050565b6111c881610e80565b81146111d357600080fd5b50565b6000813590506111e5816111bf565b92915050565b6000610100828403121561120257611201610fb8565b5b61120d61010061101d565b9050600082013567ffffffffffffffff81111561122d5761122c611038565b5b611239848285016110c9565b600083015250602082013567ffffffffffffffff81111561125d5761125c611038565b5b611269848285016110c9565b602083015250604082013567ffffffffffffffff81111561128d5761128c611038565b5b611299848285016110c9565b604083015250606082013567ffffffffffffffff8111156112bd576112bc611038565b5b6112c9848285016110c9565b606083015250608082013567ffffffffffffffff8111156112ed576112ec611038565b5b6112f9848285016110c9565b60808301525060a082013567ffffffffffffffff81111561131d5761131c611038565b5b61132984828501611123565b60a08301525060c061133d848285016111d6565b60c08301525060e06113518482850161110e565b60e08301525092915050565b6000806040838503121561137457611373610ce0565b5b600061138285828601610d33565b925050602083013567ffffffffffffffff8111156113a3576113a2610ce5565b5b6113af858286016111eb565b9150509250929050565b600082825260208201905092915050565b7f656e74726f206120636f6e73756c746172000000000000000000000000000000600082015250565b60006114006011836113b9565b915061140b826113ca565b602082019050919050565b6000602082019050818103600083015261142f816113f3565b9050919050565b7f4e487b7100000000000000000000000000000000000000000000000000000000600052602260045260246000fd5b6000600282049050600182168061147d57607f821691505b6020821081141561149157611490611436565b5b50919050565b7f6e6f2065786973746520656c207573756172696f000000000000000000000000600082015250565b60006114cd6014836113b9565b91506114d882611497565b602082019050919050565b600060208201905081810360008301526114fc816114c0565b9050919050565b7f4e6f20657869737465206573652070616369656e746500000000000000000000600082015250565b60006115396016836113b9565b915061154482611503565b602082019050919050565b600060208201905081810360008301526115688161152c565b9050919050565b7f7573756172696f2076616c69646f000000000000000000000000000000000000600082015250565b60006115a5600e836113b9565b91506115b08261156f565b602082019050919050565b600060208201905081810360008301526115d481611598565b9050919050565b7f457374612066756e63696f6e20736f6c6f2070756564652073657220656a656360008201527f757461646120706f7220656c2063726561646f722064656c20636f6e7472617460208201527f6f00000000000000000000000000000000000000000000000000000000000000604082015250565b600061165d6041836113b9565b9150611668826115db565b606082019050919050565b6000602082019050818103600083015261168c81611650565b9050919050565b7f4e6f2065786973746520756e6120706572736f6e61207265676973747261646160008201527f20636f6e20657365206164647265737300000000000000000000000000000000602082015250565b60006116ef6030836113b9565b91506116fa82611693565b604082019050919050565b6000602082019050818103600083015261171e816116e2565b9050919050565b7f59612065786973746520756e6120706572736f6e61207265676973747261646160008201527f20636f6e20657365206164647265737300000000000000000000000000000000602082015250565b60006117816030836113b9565b915061178c82611725565b604082019050919050565b600060208201905081810360008301526117b081611774565b9050919050565b7f5961206578697374652075616e20706572736f6e61207265676973747261646160008201527f20636f6e20657365206164647265737300000000000000000000000000000000602082015250565b60006118136030836113b9565b915061181e826117b7565b604082019050919050565b6000602082019050818103600083015261184281611806565b905091905056fea26469706673582212203e265fed984184588bd5e89e3dd6abdded346393f5c7a6f8dd54bc3c675b691164736f6c634300080b0033",
  "immutableReferences": {},
  "source": "// SPDX-License-Identifier: MIT\npragma solidity ^0.8.10;\n// import \"../logica/Persona.sol\";\nimport \"../models/PersonaStruct.sol\";\n\n// TODO: hacer un name resgistry para validar que solo los contratos del proyecto y el propietario puedan acceder a las funciones\ncontract PersonaDAO {\n    // event Log(address indexed user,  string data);\n    event Log(string data);\n\n    address public creador;\n\n    mapping(address => PersonaStruct) private personas; // TODO: Dejar como private\n\n    constructor() {\n        creador = msg.sender;\n    }\n\n    // TODO: si no es external fallan los try catch, investigar al respecto\n    function consultar(address direccion)\n        external\n        returns (PersonaStruct memory)\n    {\n        emit Log(\"entro a consultar\");\n        PersonaStruct memory persona = personas[direccion];\n        if (!persona.isValue) {\n            emit Log(\"no existe el usuario\");\n            revert(\"No existe ese paciente\");\n        }\n        emit Log(\"usuario valido\");\n        return persona;\n    }\n\n    function guardar(address direccion, PersonaStruct memory persona) public {\n        // TODO: quitar return en clase de enterprise architect\n        // TODO: Validar, si falla poner excepcin\n        if (personas[direccion].isValue) {\n            emit Log(\"Ya existe una persona registrada con ese address\");\n            revert(\"Ya existe uan persona registrada con ese address\");\n        }\n        personas[direccion] = persona;\n    }\n\n    function actualizar(address direccion, PersonaStruct memory persona)\n        public\n    {\n        // TODO: quitar return en clase de enterprise architect\n        // TODO: Validar, si falla poner excepcin\n        if (!personas[direccion].isValue) {\n            emit Log(\"No existe una persona registrada con ese address\");\n            revert(\"No existe una persona registrada con ese address\");\n        }\n        personas[direccion] = persona;\n    }\n    \n    // TODO: agregar funcin actualizar\n\n    modifier esPropietario() {\n        // NOTE: Los string no pueden llevar acentos, encontrar una forma de usarlos\n        require(\n            msg.sender == creador,\n            \"Esta funcion solo puede ser ejecutada por el creador del contrato\"\n        );\n        _; // ac se ejecuta la funcin\n    }\n\n    function selfDestruct() public esPropietario {\n        selfdestruct(payable(creador));\n    }\n}\n",
  "sourcePath": "/home/felipe/Documentos/Blockchain/codigo/back-hce/contracts/persistence/PersonaDAO.sol",
  "compiler": {
    "name": "solc",
    "version": "0.8.11+commit.d7f03943.Emscripten.clang"
  },
  "schemaVersion": "3.4.4",
  "updatedAt": "2022-02-07T01:59:50.739Z",
  "devdoc": {
    "kind": "dev",
    "methods": {},
    "version": 1
  },
  "userdoc": {
    "kind": "user",
    "methods": {},
    "version": 1
  }
}