{
  "contractName": "PersonaDAO",
  "abi": [
    {
      "inputs": [],
      "stateMutability": "nonpayable",
      "type": "constructor"
    },
    {
      "anonymous": false,
      "inputs": [
        {
          "indexed": false,
          "internalType": "string",
          "name": "data",
          "type": "string"
        }
      ],
      "name": "Log",
      "type": "event"
    },
    {
      "inputs": [],
      "name": "creador",
      "outputs": [
        {
          "internalType": "address",
          "name": "",
          "type": "address"
        }
      ],
      "stateMutability": "view",
      "type": "function",
      "constant": true
    },
    {
      "inputs": [
        {
          "internalType": "address",
          "name": "",
          "type": "address"
        }
      ],
      "name": "personas",
      "outputs": [
        {
          "internalType": "contract Persona",
          "name": "",
          "type": "address"
        }
      ],
      "stateMutability": "view",
      "type": "function",
      "constant": true
    },
    {
      "inputs": [
        {
          "internalType": "address",
          "name": "direccion",
          "type": "address"
        }
      ],
      "name": "existe",
      "outputs": [
        {
          "internalType": "bool",
          "name": "existe",
          "type": "bool"
        }
      ],
      "stateMutability": "nonpayable",
      "type": "function"
    },
    {
      "inputs": [
        {
          "internalType": "address",
          "name": "direccion",
          "type": "address"
        }
      ],
      "name": "consultar",
      "outputs": [
        {
          "internalType": "contract Persona",
          "name": "",
          "type": "address"
        }
      ],
      "stateMutability": "nonpayable",
      "type": "function"
    },
    {
      "inputs": [
        {
          "internalType": "address",
          "name": "direccion",
          "type": "address"
        },
        {
          "internalType": "contract Persona",
          "name": "persona",
          "type": "address"
        }
      ],
      "name": "guardar",
      "outputs": [],
      "stateMutability": "nonpayable",
      "type": "function"
    }
  ],
  "bytecode": "0x608060405234801561001057600080fd5b50336000806101000a81548173ffffffffffffffffffffffffffffffffffffffff021916908373ffffffffffffffffffffffffffffffffffffffff16021790555061086a806100606000396000f3fe608060405234801561001057600080fd5b50600436106100575760003560e01c806326d0a3801461005c5780637da8f6a51461008c5780638050711a146100bc57806392ebdcd2146100ec578063be381c591461010a575b600080fd5b61007660048036038101906100719190610495565b610126565b6040516100839190610521565b60405180910390f35b6100a660048036038101906100a19190610495565b610159565b6040516100b39190610521565b60405180910390f35b6100d660048036038101906100d19190610495565b6102b5565b6040516100e39190610557565b60405180910390f35b6100f461038c565b6040516101019190610581565b60405180910390f35b610124600480360381019061011f91906105da565b6103b0565b005b60016020528060005260406000206000915054906101000a900473ffffffffffffffffffffffffffffffffffffffff1681565b60007fcf34ef537ac33ee1ac626ca1587a0a7e8e51561e5514f8cb36afa1c5102b3bab60405161018890610677565b60405180910390a1610199826102b5565b15610240577fcf34ef537ac33ee1ac626ca1587a0a7e8e51561e5514f8cb36afa1c5102b3bab6040516101cb906106e3565b60405180910390a16000600160008473ffffffffffffffffffffffffffffffffffffffff1673ffffffffffffffffffffffffffffffffffffffff16815260200190815260200160002060009054906101000a900473ffffffffffffffffffffffffffffffffffffffff169050809150506102b0565b7fcf34ef537ac33ee1ac626ca1587a0a7e8e51561e5514f8cb36afa1c5102b3bab60405161026d9061074f565b60405180910390a16040517f08c379a00000000000000000000000000000000000000000000000000000000081526004016102a7906107bb565b60405180910390fd5b919050565b6000600160008373ffffffffffffffffffffffffffffffffffffffff1673ffffffffffffffffffffffffffffffffffffffff16815260200190815260200160002060009054906101000a900473ffffffffffffffffffffffffffffffffffffffff1673ffffffffffffffffffffffffffffffffffffffff16633c3c069f6040518163ffffffff1660e01b8152600401602060405180830381865afa158015610361573d6000803e3d6000fd5b505050506040513d601f19601f820116820180604052508101906103859190610807565b9050919050565b60008054906101000a900473ffffffffffffffffffffffffffffffffffffffff1681565b80600160008473ffffffffffffffffffffffffffffffffffffffff1673ffffffffffffffffffffffffffffffffffffffff16815260200190815260200160002060006101000a81548173ffffffffffffffffffffffffffffffffffffffff021916908373ffffffffffffffffffffffffffffffffffffffff1602179055505050565b600080fd5b600073ffffffffffffffffffffffffffffffffffffffff82169050919050565b600061046282610437565b9050919050565b61047281610457565b811461047d57600080fd5b50565b60008135905061048f81610469565b92915050565b6000602082840312156104ab576104aa610432565b5b60006104b984828501610480565b91505092915050565b6000819050919050565b60006104e76104e26104dd84610437565b6104c2565b610437565b9050919050565b60006104f9826104cc565b9050919050565b600061050b826104ee565b9050919050565b61051b81610500565b82525050565b60006020820190506105366000830184610512565b92915050565b60008115159050919050565b6105518161053c565b82525050565b600060208201905061056c6000830184610548565b92915050565b61057b81610457565b82525050565b60006020820190506105966000830184610572565b92915050565b60006105a782610457565b9050919050565b6105b78161059c565b81146105c257600080fd5b50565b6000813590506105d4816105ae565b92915050565b600080604083850312156105f1576105f0610432565b5b60006105ff85828601610480565b9250506020610610858286016105c5565b9150509250929050565b600082825260208201905092915050565b7f656e74726f206120636f6e73756c746172000000000000000000000000000000600082015250565b600061066160118361061a565b915061066c8261062b565b602082019050919050565b6000602082019050818103600083015261069081610654565b9050919050565b7f7573756172696f2076616c69646f000000000000000000000000000000000000600082015250565b60006106cd600e8361061a565b91506106d882610697565b602082019050919050565b600060208201905081810360008301526106fc816106c0565b9050919050565b7f6e6f2065786973746520656c207573756172696f000000000000000000000000600082015250565b600061073960148361061a565b915061074482610703565b602082019050919050565b600060208201905081810360008301526107688161072c565b9050919050565b7f4e6f20657869737465206573652070616369656e746500000000000000000000600082015250565b60006107a560168361061a565b91506107b08261076f565b602082019050919050565b600060208201905081810360008301526107d481610798565b9050919050565b6107e48161053c565b81146107ef57600080fd5b50565b600081519050610801816107db565b92915050565b60006020828403121561081d5761081c610432565b5b600061082b848285016107f2565b9150509291505056fea26469706673582212206f06878ea79f8f044458db5a8415db7929379e74ae6ff6da023f8975d88ab9c864736f6c634300080b0033",
  "immutableReferences": {},
  "source": "pragma solidity >=0.4.22 <0.9.0; // TODO: Ajustar la versin por consenso con Jos\n\nimport \"../logica/Persona.sol\";\n\ncontract PersonaDAO {\n    // Evento: envia una respuesta a un usuario, como un mensaje al parecer\n    // event Log(address indexed user,  string data);\n    event Log(string data);\n\n    address public creador;\n\n    mapping(address => Persona) public personas;\n\n    constructor() public {\n        creador = msg.sender; // creador del contrato\n    }\n\n    function existe(address direccion) public returns (bool existe)\n    {\n        return personas[direccion].getIsValue();\n    }\n\n    function consultar(address direccion) public returns (Persona) {\n        // TODO: buscar persona en arreglo, ajustar para ver si existe el key en el mapping\n        emit Log(\"entro a consultar\");\n        // bytes4(0x0) o !=0        \n        if (existe(direccion)) {\n            emit Log(\"usuario valido\");\n            Persona persona = personas[direccion];\n            return persona;\n        } else {\n            emit Log(\"no existe el usuario\");\n            revert(\"No existe ese paciente\");\n        }\n    }\n\n    // TODO: buscar porque es uint256\n    function guardar(address direccion, Persona persona) public {\n        // TODO: quitar return en clase de enterprise architect\n        // TODO: Validar, si falla poner excepcin\n        personas[direccion] = persona;\n    }\n}\n",
  "sourcePath": "/home/felipe/Documentos/Blockchain/codigo/back-hce/contracts/persistence/PersonaDAO.sol",
  "compiler": {
    "name": "solc",
    "version": "0.8.11+commit.d7f03943.Emscripten.clang"
  },
  "schemaVersion": "3.4.4",
  "updatedAt": "2022-01-20T03:39:34.092Z",
  "networkType": "ethereum",
  "devdoc": {
    "kind": "dev",
    "methods": {},
    "version": 1
  },
  "userdoc": {
    "kind": "user",
    "methods": {},
    "version": 1
  }
}