{
  "contractName": "Persona",
  "abi": [
    {
      "inputs": [],
      "stateMutability": "nonpayable",
      "type": "constructor"
    },
    {
      "anonymous": false,
      "inputs": [
        {
          "indexed": false,
          "internalType": "string",
          "name": "data",
          "type": "string"
        }
      ],
      "name": "Log",
      "type": "event"
    },
    {
      "inputs": [],
      "name": "PersonaDAOAddress",
      "outputs": [
        {
          "internalType": "address",
          "name": "",
          "type": "address"
        }
      ],
      "stateMutability": "view",
      "type": "function"
    },
    {
      "inputs": [],
      "name": "creador",
      "outputs": [
        {
          "internalType": "address",
          "name": "",
          "type": "address"
        }
      ],
      "stateMutability": "view",
      "type": "function"
    },
    {
      "inputs": [
        {
          "internalType": "address",
          "name": "direccion",
          "type": "address"
        }
      ],
      "name": "consultar",
      "outputs": [
        {
          "components": [
            {
              "internalType": "string",
              "name": "primerNombre",
              "type": "string"
            },
            {
              "internalType": "string",
              "name": "segundoNombre",
              "type": "string"
            },
            {
              "internalType": "string",
              "name": "primerApellido",
              "type": "string"
            },
            {
              "internalType": "string",
              "name": "segundoApellido",
              "type": "string"
            },
            {
              "internalType": "string",
              "name": "identificacion",
              "type": "string"
            },
            {
              "components": [
                {
                  "internalType": "string",
                  "name": "nombre",
                  "type": "string"
                },
                {
                  "internalType": "string",
                  "name": "descripcion",
                  "type": "string"
                },
                {
                  "internalType": "bool",
                  "name": "estaActiva",
                  "type": "bool"
                }
              ],
              "internalType": "struct TipoIdentificacionStruct",
              "name": "tipoIdentificacion",
              "type": "tuple"
            },
            {
              "internalType": "bool",
              "name": "isValue",
              "type": "bool"
            }
          ],
          "internalType": "struct PersonaStruct",
          "name": "",
          "type": "tuple"
        }
      ],
      "stateMutability": "nonpayable",
      "type": "function"
    },
    {
      "inputs": [
        {
          "internalType": "address",
          "name": "direccion",
          "type": "address"
        },
        {
          "components": [
            {
              "internalType": "string",
              "name": "primerNombre",
              "type": "string"
            },
            {
              "internalType": "string",
              "name": "segundoNombre",
              "type": "string"
            },
            {
              "internalType": "string",
              "name": "primerApellido",
              "type": "string"
            },
            {
              "internalType": "string",
              "name": "segundoApellido",
              "type": "string"
            },
            {
              "internalType": "string",
              "name": "identificacion",
              "type": "string"
            },
            {
              "components": [
                {
                  "internalType": "string",
                  "name": "nombre",
                  "type": "string"
                },
                {
                  "internalType": "string",
                  "name": "descripcion",
                  "type": "string"
                },
                {
                  "internalType": "bool",
                  "name": "estaActiva",
                  "type": "bool"
                }
              ],
              "internalType": "struct TipoIdentificacionStruct",
              "name": "tipoIdentificacion",
              "type": "tuple"
            },
            {
              "internalType": "bool",
              "name": "isValue",
              "type": "bool"
            }
          ],
          "internalType": "struct PersonaStruct",
          "name": "persona",
          "type": "tuple"
        }
      ],
      "name": "registrar",
      "outputs": [],
      "stateMutability": "nonpayable",
      "type": "function"
    },
    {
      "inputs": [
        {
          "internalType": "address",
          "name": "direccion",
          "type": "address"
        }
      ],
      "name": "setContratoPersonaDAOAddress",
      "outputs": [],
      "stateMutability": "nonpayable",
      "type": "function"
    }
  ],
  "bytecode": "0x608060405234801561001057600080fd5b50336000806101000a81548173ffffffffffffffffffffffffffffffffffffffff021916908373ffffffffffffffffffffffffffffffffffffffff16021790555061143f806100606000396000f3fe608060405234801561001057600080fd5b50600436106100575760003560e01c806352340e2e1461005c5780637da8f6a51461007a57806392ebdcd2146100aa578063af4856f8146100c8578063b603064a146100e4575b600080fd5b610064610100565b604051610071919061068f565b60405180910390f35b610094600480360381019061008f91906106ea565b610126565b6040516100a191906108e1565b60405180910390f35b6100b261031c565b6040516100bf919061068f565b60405180910390f35b6100e260048036038101906100dd9190610c66565b610340565b005b6100fe60048036038101906100f991906106ea565b6104b1565b005b600160009054906101000a900473ffffffffffffffffffffffffffffffffffffffff1681565b61012e6105e6565b7fcf34ef537ac33ee1ac626ca1587a0a7e8e51561e5514f8cb36afa1c5102b3bab60405161015b90610d1f565b60405180910390a1600260009054906101000a900473ffffffffffffffffffffffffffffffffffffffff1673ffffffffffffffffffffffffffffffffffffffff16637da8f6a5836040518263ffffffff1660e01b81526004016101be919061068f565b6000604051808303816000875af19250505080156101ff57506040513d6000823e3d601f19601f820116820180604052508101906101fc9190610fbc565b60015b6102de5761020b611012565b806308c379a014156102d25750610220611034565b8061022b57506102d4565b7fcf34ef537ac33ee1ac626ca1587a0a7e8e51561e5514f8cb36afa1c5102b3bab8160405161025a9190611103565b60405180910390a17fcf34ef537ac33ee1ac626ca1587a0a7e8e51561e5514f8cb36afa1c5102b3bab60405161028f90611197565b60405180910390a16040517f08c379a00000000000000000000000000000000000000000000000000000000081526004016102c990611203565b60405180910390fd5b505b3d6000803e3d6000fd5b7fcf34ef537ac33ee1ac626ca1587a0a7e8e51561e5514f8cb36afa1c5102b3bab60405161030b9061126f565b60405180910390a180915050919050565b60008054906101000a900473ffffffffffffffffffffffffffffffffffffffff1681565b600260009054906101000a900473ffffffffffffffffffffffffffffffffffffffff1673ffffffffffffffffffffffffffffffffffffffff16639c8508d783836040518363ffffffff1660e01b815260040161039d92919061128f565b600060405180830381600087803b1580156103b757600080fd5b505af19250505080156103c8575060015b610477576103d4611012565b806308c379a0141561046657506103e9611034565b806103f45750610468565b7fcf34ef537ac33ee1ac626ca1587a0a7e8e51561e5514f8cb36afa1c5102b3bab60405161042190611197565b60405180910390a17fcf34ef537ac33ee1ac626ca1587a0a7e8e51561e5514f8cb36afa1c5102b3bab816040516104589190611103565b60405180910390a150610472565b505b3d6000803e3d6000fd5b6104ad565b7fcf34ef537ac33ee1ac626ca1587a0a7e8e51561e5514f8cb36afa1c5102b3bab6040516104a490611331565b60405180910390a15b5050565b60008054906101000a900473ffffffffffffffffffffffffffffffffffffffff1673ffffffffffffffffffffffffffffffffffffffff163373ffffffffffffffffffffffffffffffffffffffff161461053f576040517f08c379a0000000000000000000000000000000000000000000000000000000008152600401610536906113e9565b60405180910390fd5b80600160006101000a81548173ffffffffffffffffffffffffffffffffffffffff021916908373ffffffffffffffffffffffffffffffffffffffff160217905550600160009054906101000a900473ffffffffffffffffffffffffffffffffffffffff16600260006101000a81548173ffffffffffffffffffffffffffffffffffffffff021916908373ffffffffffffffffffffffffffffffffffffffff16021790555050565b6040518060e00160405280606081526020016060815260200160608152602001606081526020016060815260200161061c61062b565b81526020016000151581525090565b604051806060016040528060608152602001606081526020016000151581525090565b600073ffffffffffffffffffffffffffffffffffffffff82169050919050565b60006106798261064e565b9050919050565b6106898161066e565b82525050565b60006020820190506106a46000830184610680565b92915050565b6000604051905090565b600080fd5b600080fd5b6106c78161066e565b81146106d257600080fd5b50565b6000813590506106e4816106be565b92915050565b600060208284031215610700576106ff6106b4565b5b600061070e848285016106d5565b91505092915050565b600081519050919050565b600082825260208201905092915050565b60005b83811015610751578082015181840152602081019050610736565b83811115610760576000848401525b50505050565b6000601f19601f8301169050919050565b600061078282610717565b61078c8185610722565b935061079c818560208601610733565b6107a581610766565b840191505092915050565b60008115159050919050565b6107c5816107b0565b82525050565b600060608301600083015184820360008601526107e88282610777565b915050602083015184820360208601526108028282610777565b915050604083015161081760408601826107bc565b508091505092915050565b600060e083016000830151848203600086015261083f8282610777565b915050602083015184820360208601526108598282610777565b915050604083015184820360408601526108738282610777565b9150506060830151848203606086015261088d8282610777565b915050608083015184820360808601526108a78282610777565b91505060a083015184820360a08601526108c182826107cb565b91505060c08301516108d660c08601826107bc565b508091505092915050565b600060208201905081810360008301526108fb8184610822565b905092915050565b600080fd5b7f4e487b7100000000000000000000000000000000000000000000000000000000600052604160045260246000fd5b61094082610766565b810181811067ffffffffffffffff8211171561095f5761095e610908565b5b80604052505050565b60006109726106aa565b905061097e8282610937565b919050565b600080fd5b600080fd5b600080fd5b600067ffffffffffffffff8211156109ad576109ac610908565b5b6109b682610766565b9050602081019050919050565b82818337600083830152505050565b60006109e56109e084610992565b610968565b905082815260208101848484011115610a0157610a0061098d565b5b610a0c8482856109c3565b509392505050565b600082601f830112610a2957610a28610988565b5b8135610a398482602086016109d2565b91505092915050565b610a4b816107b0565b8114610a5657600080fd5b50565b600081359050610a6881610a42565b92915050565b600060608284031215610a8457610a83610903565b5b610a8e6060610968565b9050600082013567ffffffffffffffff811115610aae57610aad610983565b5b610aba84828501610a14565b600083015250602082013567ffffffffffffffff811115610ade57610add610983565b5b610aea84828501610a14565b6020830152506040610afe84828501610a59565b60408301525092915050565b600060e08284031215610b2057610b1f610903565b5b610b2a60e0610968565b9050600082013567ffffffffffffffff811115610b4a57610b49610983565b5b610b5684828501610a14565b600083015250602082013567ffffffffffffffff811115610b7a57610b79610983565b5b610b8684828501610a14565b602083015250604082013567ffffffffffffffff811115610baa57610ba9610983565b5b610bb684828501610a14565b604083015250606082013567ffffffffffffffff811115610bda57610bd9610983565b5b610be684828501610a14565b606083015250608082013567ffffffffffffffff811115610c0a57610c09610983565b5b610c1684828501610a14565b60808301525060a082013567ffffffffffffffff811115610c3a57610c39610983565b5b610c4684828501610a6e565b60a08301525060c0610c5a84828501610a59565b60c08301525092915050565b60008060408385031215610c7d57610c7c6106b4565b5b6000610c8b858286016106d5565b925050602083013567ffffffffffffffff811115610cac57610cab6106b9565b5b610cb885828601610b0a565b9150509250929050565b600082825260208201905092915050565b7f656e74726f206120636f6e73756c746172000000000000000000000000000000600082015250565b6000610d09601183610cc2565b9150610d1482610cd3565b602082019050919050565b60006020820190508181036000830152610d3881610cfc565b9050919050565b6000610d52610d4d84610992565b610968565b905082815260208101848484011115610d6e57610d6d61098d565b5b610d79848285610733565b509392505050565b600082601f830112610d9657610d95610988565b5b8151610da6848260208601610d3f565b91505092915050565b600081519050610dbe81610a42565b92915050565b600060608284031215610dda57610dd9610903565b5b610de46060610968565b9050600082015167ffffffffffffffff811115610e0457610e03610983565b5b610e1084828501610d81565b600083015250602082015167ffffffffffffffff811115610e3457610e33610983565b5b610e4084828501610d81565b6020830152506040610e5484828501610daf565b60408301525092915050565b600060e08284031215610e7657610e75610903565b5b610e8060e0610968565b9050600082015167ffffffffffffffff811115610ea057610e9f610983565b5b610eac84828501610d81565b600083015250602082015167ffffffffffffffff811115610ed057610ecf610983565b5b610edc84828501610d81565b602083015250604082015167ffffffffffffffff811115610f0057610eff610983565b5b610f0c84828501610d81565b604083015250606082015167ffffffffffffffff811115610f3057610f2f610983565b5b610f3c84828501610d81565b606083015250608082015167ffffffffffffffff811115610f6057610f5f610983565b5b610f6c84828501610d81565b60808301525060a082015167ffffffffffffffff811115610f9057610f8f610983565b5b610f9c84828501610dc4565b60a08301525060c0610fb084828501610daf565b60c08301525092915050565b600060208284031215610fd257610fd16106b4565b5b600082015167ffffffffffffffff811115610ff057610fef6106b9565b5b610ffc84828501610e60565b91505092915050565b60008160e01c9050919050565b600060033d11156110315760046000803e61102e600051611005565b90505b90565b600060443d1015611044576110c7565b61104c6106aa565b60043d036004823e80513d602482011167ffffffffffffffff821117156110745750506110c7565b808201805167ffffffffffffffff81111561109257505050506110c7565b80602083010160043d0385018111156110af5750505050506110c7565b6110be82602001850186610937565b82955050505050505b90565b60006110d582610717565b6110df8185610cc2565b93506110ef818560208601610733565b6110f881610766565b840191505092915050565b6000602082019050818103600083015261111d81846110ca565b905092915050565b7f736520726f6d70696f20706f7220756e20726576657274206f2072657175697260008201527f6500000000000000000000000000000000000000000000000000000000000000602082015250565b6000611181602183610cc2565b915061118c82611125565b604082019050919050565b600060208201905081810360008301526111b081611174565b9050919050565b7f4e6f20657869737465206573652070616369656e746500000000000000000000600082015250565b60006111ed601683610cc2565b91506111f8826111b7565b602082019050919050565b6000602082019050818103600083015261121c816111e0565b9050919050565b7f656e636f6e74726f206c6120706572736f6e6100000000000000000000000000600082015250565b6000611259601383610cc2565b915061126482611223565b602082019050919050565b600060208201905081810360008301526112888161124c565b9050919050565b60006040820190506112a46000830185610680565b81810360208301526112b68184610822565b90509392505050565b7f536520677561726461206c6120706572736f6e6120636f7272656374616d656e60008201527f7465000000000000000000000000000000000000000000000000000000000000602082015250565b600061131b602283610cc2565b9150611326826112bf565b604082019050919050565b6000602082019050818103600083015261134a8161130e565b9050919050565b7f457374612066756e63696f6e20736f6c6f2070756564652073657220656a656360008201527f757461646120706f7220656c2063726561646f722064656c20636f6e7472617460208201527f6f00000000000000000000000000000000000000000000000000000000000000604082015250565b60006113d3604183610cc2565b91506113de82611351565b606082019050919050565b60006020820190508181036000830152611402816113c6565b905091905056fea2646970667358221220575ea93451065dd1c32915784d8a6d02549dba8dba3a597a2547c97a27d45c4964736f6c634300080b0033",
  "immutableReferences": {},
  "source": "// SPDX-License-Identifier: MIT\npragma solidity ^0.8.10;\n\nimport \"./Usuario.sol\";\nimport \"../models/PersonaStruct.sol\";\nimport \"../persistence/PersonaDAO.sol\";\n\n// NOTE: se deja el abstrac contract justo con sus hijos por cuestiones de ordenamiento de cdigo solidity, antes decia \"Definition of base has to precede definition of derived contract\"\n// TODO: verificar si se puede dejar como abstract\ncontract Persona {\n    event Log(string data);\n    address public creador;\n    address public PersonaDAOAddress;\n\n    // TODO: registrar la direccion del contrato personaDAO\n    PersonaDAO private personaDao;\n\n    constructor() {\n        creador = msg.sender;\n    }\n\n    // TODO: agregar modifier para retornar un revert ms bonito, para cuando la direccion del dao sea invalida\n    function consultar(address direccion)\n        external\n        returns (PersonaStruct memory)\n    {\n        emit Log(\"entro a consultar\");\n        try personaDao.consultar(direccion) returns (\n            PersonaStruct memory persona\n        ) {\n            emit Log(\"encontro la persona\");\n            // TODO: validar si esta activa\n            return persona;\n        } catch Error(string memory e) {\n            emit Log(e);\n            emit Log(\"se rompio por un revert o require\"); // TODO: ver si puedo obtener info de e y reusarla\n            revert(\"No existe ese paciente\");\n        }\n    }\n\n    function registrar(address direccion, PersonaStruct memory persona) public {\n        try personaDao.guardar(direccion, persona) {\n            emit Log(\"Se guarda la persona correctamente\");\n        } catch Error(string memory data) {\n            /*reason*/\n            emit Log(\"se rompio por un revert o require\");\n            emit Log(data);\n        }\n    }\n\n    function setContratoPersonaDAOAddress(address direccion) public esPropietario {\n        PersonaDAOAddress = direccion;\n        personaDao = PersonaDAO(PersonaDAOAddress);\n    }\n\n    modifier esPropietario() {\n        // NOTE: Los string no pueden llevar acentos, encontrar una forma de usarlos\n        require(\n            msg.sender == creador,\n            \"Esta funcion solo puede ser ejecutada por el creador del contrato\"\n        );\n        _; // ac se ejecuta la funcin\n    }\n}\n",
  "sourcePath": "/home/felipe/Documentos/Blockchain/codigo/back-hce/contracts/logica/Persona.sol",
  "compiler": {
    "name": "solc",
    "version": "0.8.11+commit.d7f03943.Emscripten.clang"
  },
  "schemaVersion": "3.4.4",
  "updatedAt": "2022-02-05T03:00:20.689Z",
  "devdoc": {
    "kind": "dev",
    "methods": {},
    "version": 1
  },
  "userdoc": {
    "kind": "user",
    "methods": {},
    "version": 1
  }
}