{
  "contractName": "Persona",
  "abi": [
    {
      "inputs": [],
      "stateMutability": "nonpayable",
      "type": "constructor"
    },
    {
      "anonymous": false,
      "inputs": [
        {
          "indexed": false,
          "internalType": "string",
          "name": "data",
          "type": "string"
        }
      ],
      "name": "Log",
      "type": "event"
    },
    {
      "inputs": [],
      "name": "PersonaDAOAddress",
      "outputs": [
        {
          "internalType": "address",
          "name": "",
          "type": "address"
        }
      ],
      "stateMutability": "view",
      "type": "function",
      "constant": true
    },
    {
      "inputs": [],
      "name": "propietario",
      "outputs": [
        {
          "internalType": "address",
          "name": "",
          "type": "address"
        }
      ],
      "stateMutability": "view",
      "type": "function",
      "constant": true
    },
    {
      "inputs": [
        {
          "internalType": "address",
          "name": "direccion",
          "type": "address"
        }
      ],
      "name": "consultar",
      "outputs": [
        {
          "components": [
            {
              "internalType": "string",
              "name": "primerNombre",
              "type": "string"
            },
            {
              "internalType": "string",
              "name": "segundoNombre",
              "type": "string"
            },
            {
              "internalType": "string",
              "name": "primerApellido",
              "type": "string"
            },
            {
              "internalType": "string",
              "name": "segundoApellido",
              "type": "string"
            },
            {
              "internalType": "string",
              "name": "identificacion",
              "type": "string"
            },
            {
              "components": [
                {
                  "internalType": "string",
                  "name": "nombre",
                  "type": "string"
                },
                {
                  "internalType": "string",
                  "name": "descripcion",
                  "type": "string"
                },
                {
                  "internalType": "bool",
                  "name": "estaActiva",
                  "type": "bool"
                }
              ],
              "internalType": "struct TipoIdentificacionStruct",
              "name": "tipoIdentificacion",
              "type": "tuple"
            },
            {
              "internalType": "bool",
              "name": "isValue",
              "type": "bool"
            }
          ],
          "internalType": "struct PersonaStruct",
          "name": "",
          "type": "tuple"
        }
      ],
      "stateMutability": "nonpayable",
      "type": "function"
    },
    {
      "inputs": [
        {
          "internalType": "address",
          "name": "direccion",
          "type": "address"
        },
        {
          "components": [
            {
              "internalType": "string",
              "name": "primerNombre",
              "type": "string"
            },
            {
              "internalType": "string",
              "name": "segundoNombre",
              "type": "string"
            },
            {
              "internalType": "string",
              "name": "primerApellido",
              "type": "string"
            },
            {
              "internalType": "string",
              "name": "segundoApellido",
              "type": "string"
            },
            {
              "internalType": "string",
              "name": "identificacion",
              "type": "string"
            },
            {
              "components": [
                {
                  "internalType": "string",
                  "name": "nombre",
                  "type": "string"
                },
                {
                  "internalType": "string",
                  "name": "descripcion",
                  "type": "string"
                },
                {
                  "internalType": "bool",
                  "name": "estaActiva",
                  "type": "bool"
                }
              ],
              "internalType": "struct TipoIdentificacionStruct",
              "name": "tipoIdentificacion",
              "type": "tuple"
            },
            {
              "internalType": "bool",
              "name": "isValue",
              "type": "bool"
            }
          ],
          "internalType": "struct PersonaStruct",
          "name": "persona",
          "type": "tuple"
        }
      ],
      "name": "registrar",
      "outputs": [],
      "stateMutability": "nonpayable",
      "type": "function"
    },
    {
      "inputs": [
        {
          "internalType": "address",
          "name": "direccion",
          "type": "address"
        }
      ],
      "name": "setPersonaDAOAddress",
      "outputs": [],
      "stateMutability": "nonpayable",
      "type": "function"
    }
  ],
  "bytecode": "0x608060405234801561001057600080fd5b50336000806101000a81548173ffffffffffffffffffffffffffffffffffffffff021916908373ffffffffffffffffffffffffffffffffffffffff1602179055506113a9806100606000396000f3fe608060405234801561001057600080fd5b50600436106100575760003560e01c80633c4f81cd1461005c57806352340e2e1461007a5780637da8f6a514610098578063af4856f8146100c8578063c2aa74d2146100e4575b600080fd5b610064610100565b6040516100719190610665565b60405180910390f35b610082610124565b60405161008f9190610665565b60405180910390f35b6100b260048036038101906100ad91906106c0565b61014a565b6040516100bf91906108b7565b60405180910390f35b6100e260048036038101906100dd9190610c3c565b610316565b005b6100fe60048036038101906100f991906106c0565b610487565b005b60008054906101000a900473ffffffffffffffffffffffffffffffffffffffff1681565b600160009054906101000a900473ffffffffffffffffffffffffffffffffffffffff1681565b6101526105bc565b7fcf34ef537ac33ee1ac626ca1587a0a7e8e51561e5514f8cb36afa1c5102b3bab60405161017f90610cf5565b60405180910390a1600260009054906101000a900473ffffffffffffffffffffffffffffffffffffffff1673ffffffffffffffffffffffffffffffffffffffff16637da8f6a5836040518263ffffffff1660e01b81526004016101e29190610665565b6000604051808303816000875af192505050801561022357506040513d6000823e3d601f19601f820116820180604052508101906102209190610f92565b60015b6102d25761022f610fe8565b806308c379a014156102c1575061024461100a565b8061024f57506102c3565b7fcf34ef537ac33ee1ac626ca1587a0a7e8e51561e5514f8cb36afa1c5102b3bab60405161027c90611112565b60405180910390a17fcf34ef537ac33ee1ac626ca1587a0a7e8e51561e5514f8cb36afa1c5102b3bab816040516102b3919061116b565b60405180910390a1506102cd565b505b3d6000803e3d6000fd5b610310565b7fcf34ef537ac33ee1ac626ca1587a0a7e8e51561e5514f8cb36afa1c5102b3bab6040516102ff906111d9565b60405180910390a180915050610311565b5b919050565b600260009054906101000a900473ffffffffffffffffffffffffffffffffffffffff1673ffffffffffffffffffffffffffffffffffffffff16639c8508d783836040518363ffffffff1660e01b81526004016103739291906111f9565b600060405180830381600087803b15801561038d57600080fd5b505af192505050801561039e575060015b61044d576103aa610fe8565b806308c379a0141561043c57506103bf61100a565b806103ca575061043e565b7fcf34ef537ac33ee1ac626ca1587a0a7e8e51561e5514f8cb36afa1c5102b3bab6040516103f790611112565b60405180910390a17fcf34ef537ac33ee1ac626ca1587a0a7e8e51561e5514f8cb36afa1c5102b3bab8160405161042e919061116b565b60405180910390a150610448565b505b3d6000803e3d6000fd5b610483565b7fcf34ef537ac33ee1ac626ca1587a0a7e8e51561e5514f8cb36afa1c5102b3bab60405161047a9061129b565b60405180910390a15b5050565b60008054906101000a900473ffffffffffffffffffffffffffffffffffffffff1673ffffffffffffffffffffffffffffffffffffffff163373ffffffffffffffffffffffffffffffffffffffff1614610515576040517f08c379a000000000000000000000000000000000000000000000000000000000815260040161050c90611353565b60405180910390fd5b80600160006101000a81548173ffffffffffffffffffffffffffffffffffffffff021916908373ffffffffffffffffffffffffffffffffffffffff160217905550600160009054906101000a900473ffffffffffffffffffffffffffffffffffffffff16600260006101000a81548173ffffffffffffffffffffffffffffffffffffffff021916908373ffffffffffffffffffffffffffffffffffffffff16021790555050565b6040518060e0016040528060608152602001606081526020016060815260200160608152602001606081526020016105f2610601565b81526020016000151581525090565b604051806060016040528060608152602001606081526020016000151581525090565b600073ffffffffffffffffffffffffffffffffffffffff82169050919050565b600061064f82610624565b9050919050565b61065f81610644565b82525050565b600060208201905061067a6000830184610656565b92915050565b6000604051905090565b600080fd5b600080fd5b61069d81610644565b81146106a857600080fd5b50565b6000813590506106ba81610694565b92915050565b6000602082840312156106d6576106d561068a565b5b60006106e4848285016106ab565b91505092915050565b600081519050919050565b600082825260208201905092915050565b60005b8381101561072757808201518184015260208101905061070c565b83811115610736576000848401525b50505050565b6000601f19601f8301169050919050565b6000610758826106ed565b61076281856106f8565b9350610772818560208601610709565b61077b8161073c565b840191505092915050565b60008115159050919050565b61079b81610786565b82525050565b600060608301600083015184820360008601526107be828261074d565b915050602083015184820360208601526107d8828261074d565b91505060408301516107ed6040860182610792565b508091505092915050565b600060e0830160008301518482036000860152610815828261074d565b9150506020830151848203602086015261082f828261074d565b91505060408301518482036040860152610849828261074d565b91505060608301518482036060860152610863828261074d565b9150506080830151848203608086015261087d828261074d565b91505060a083015184820360a086015261089782826107a1565b91505060c08301516108ac60c0860182610792565b508091505092915050565b600060208201905081810360008301526108d181846107f8565b905092915050565b600080fd5b7f4e487b7100000000000000000000000000000000000000000000000000000000600052604160045260246000fd5b6109168261073c565b810181811067ffffffffffffffff82111715610935576109346108de565b5b80604052505050565b6000610948610680565b9050610954828261090d565b919050565b600080fd5b600080fd5b600080fd5b600067ffffffffffffffff821115610983576109826108de565b5b61098c8261073c565b9050602081019050919050565b82818337600083830152505050565b60006109bb6109b684610968565b61093e565b9050828152602081018484840111156109d7576109d6610963565b5b6109e2848285610999565b509392505050565b600082601f8301126109ff576109fe61095e565b5b8135610a0f8482602086016109a8565b91505092915050565b610a2181610786565b8114610a2c57600080fd5b50565b600081359050610a3e81610a18565b92915050565b600060608284031215610a5a57610a596108d9565b5b610a64606061093e565b9050600082013567ffffffffffffffff811115610a8457610a83610959565b5b610a90848285016109ea565b600083015250602082013567ffffffffffffffff811115610ab457610ab3610959565b5b610ac0848285016109ea565b6020830152506040610ad484828501610a2f565b60408301525092915050565b600060e08284031215610af657610af56108d9565b5b610b0060e061093e565b9050600082013567ffffffffffffffff811115610b2057610b1f610959565b5b610b2c848285016109ea565b600083015250602082013567ffffffffffffffff811115610b5057610b4f610959565b5b610b5c848285016109ea565b602083015250604082013567ffffffffffffffff811115610b8057610b7f610959565b5b610b8c848285016109ea565b604083015250606082013567ffffffffffffffff811115610bb057610baf610959565b5b610bbc848285016109ea565b606083015250608082013567ffffffffffffffff811115610be057610bdf610959565b5b610bec848285016109ea565b60808301525060a082013567ffffffffffffffff811115610c1057610c0f610959565b5b610c1c84828501610a44565b60a08301525060c0610c3084828501610a2f565b60c08301525092915050565b60008060408385031215610c5357610c5261068a565b5b6000610c61858286016106ab565b925050602083013567ffffffffffffffff811115610c8257610c8161068f565b5b610c8e85828601610ae0565b9150509250929050565b600082825260208201905092915050565b7f656e74726f206120636f6e73756c746172000000000000000000000000000000600082015250565b6000610cdf601183610c98565b9150610cea82610ca9565b602082019050919050565b60006020820190508181036000830152610d0e81610cd2565b9050919050565b6000610d28610d2384610968565b61093e565b905082815260208101848484011115610d4457610d43610963565b5b610d4f848285610709565b509392505050565b600082601f830112610d6c57610d6b61095e565b5b8151610d7c848260208601610d15565b91505092915050565b600081519050610d9481610a18565b92915050565b600060608284031215610db057610daf6108d9565b5b610dba606061093e565b9050600082015167ffffffffffffffff811115610dda57610dd9610959565b5b610de684828501610d57565b600083015250602082015167ffffffffffffffff811115610e0a57610e09610959565b5b610e1684828501610d57565b6020830152506040610e2a84828501610d85565b60408301525092915050565b600060e08284031215610e4c57610e4b6108d9565b5b610e5660e061093e565b9050600082015167ffffffffffffffff811115610e7657610e75610959565b5b610e8284828501610d57565b600083015250602082015167ffffffffffffffff811115610ea657610ea5610959565b5b610eb284828501610d57565b602083015250604082015167ffffffffffffffff811115610ed657610ed5610959565b5b610ee284828501610d57565b604083015250606082015167ffffffffffffffff811115610f0657610f05610959565b5b610f1284828501610d57565b606083015250608082015167ffffffffffffffff811115610f3657610f35610959565b5b610f4284828501610d57565b60808301525060a082015167ffffffffffffffff811115610f6657610f65610959565b5b610f7284828501610d9a565b60a08301525060c0610f8684828501610d85565b60c08301525092915050565b600060208284031215610fa857610fa761068a565b5b600082015167ffffffffffffffff811115610fc657610fc561068f565b5b610fd284828501610e36565b91505092915050565b60008160e01c9050919050565b600060033d11156110075760046000803e611004600051610fdb565b90505b90565b600060443d101561101a5761109d565b611022610680565b60043d036004823e80513d602482011167ffffffffffffffff8211171561104a57505061109d565b808201805167ffffffffffffffff811115611068575050505061109d565b80602083010160043d03850181111561108557505050505061109d565b6110948260200185018661090d565b82955050505050505b90565b7f736520726f6d70696f20706f7220756e20726576657274206f2072657175697260008201527f6500000000000000000000000000000000000000000000000000000000000000602082015250565b60006110fc602183610c98565b9150611107826110a0565b604082019050919050565b6000602082019050818103600083015261112b816110ef565b9050919050565b600061113d826106ed565b6111478185610c98565b9350611157818560208601610709565b6111608161073c565b840191505092915050565b600060208201905081810360008301526111858184611132565b905092915050565b7f656e636f6e74726f206c6120706572736f6e6100000000000000000000000000600082015250565b60006111c3601383610c98565b91506111ce8261118d565b602082019050919050565b600060208201905081810360008301526111f2816111b6565b9050919050565b600060408201905061120e6000830185610656565b818103602083015261122081846107f8565b90509392505050565b7f536520677561726461206c6120706572736f6e6120636f7265656374616d656e60008201527f7465000000000000000000000000000000000000000000000000000000000000602082015250565b6000611285602283610c98565b915061129082611229565b604082019050919050565b600060208201905081810360008301526112b481611278565b9050919050565b7f457374612066756e63696f6e20736f6c6f2070756564652073657220656a656360008201527f757461646120706f7220656c2063726561646f722064656c20636f6e7472617460208201527f6f00000000000000000000000000000000000000000000000000000000000000604082015250565b600061133d604183610c98565b9150611348826112bb565b606082019050919050565b6000602082019050818103600083015261136c81611330565b905091905056fea2646970667358221220cf5ba35f88dbc22cc18889a83e0ab0002b766d6e36701534cb0a6b0a8cb301dd64736f6c634300080b0033",
  "immutableReferences": {},
  "source": "pragma solidity ^0.8.10;\n\nimport \"./Usuario.sol\";\nimport \"../models/PersonaStruct.sol\";\nimport \"../persistence/PersonaDAO.sol\";\n\n// NOTE: se deja el abstrac contract justo con sus hijos por cuestiones de ordenamiento de cdigo solidity, antes decia \"Definition of base has to precede definition of derived contract\"\n// TODO: verificar si se puede dejar como abstract\ncontract Persona {\n    event Log(string data);\n    address public propietario;\n    address public PersonaDAOAddress;\n\n    // TODO: registrar la direccion del contrato personaDAO\n    PersonaDAO private personaDao;\n\n    constructor() public {\n        propietario = msg.sender;\n    }\n\n    // TODO: agregar modifier para retornar un revert ms bonito, para cuando la direccion del dao sea invalida\n    function consultar(address direccion)\n        public\n        returns (PersonaStruct memory)\n    {\n        emit Log(\"entro a consultar\");\n        try personaDao.consultar(direccion) returns (\n            PersonaStruct memory persona\n        ) {\n            emit Log(\"encontro la persona\");\n            return persona;\n        } catch Error(string memory e) {\n            /*reason*/\n            emit Log(\"se rompio por un revert o require\");\n            emit Log(e);\n        }\n    }\n\n    function registrar(address direccion, PersonaStruct memory persona) public {\n        // TODO: Validar, si falla poner excepcin\n        try personaDao.guardar(direccion, persona) {\n            emit Log(\"Se guarda la persona coreectamente\");\n        } catch Error(string memory data) {\n            /*reason*/\n            emit Log(\"se rompio por un revert o require\");\n            emit Log(data);\n        }\n    }\n\n    function setPersonaDAOAddress(address direccion) public esPropietario {\n        PersonaDAOAddress = direccion;\n        personaDao = PersonaDAO(PersonaDAOAddress);\n    }\n\n    modifier esPropietario() {\n        // NOTE: Los string no pueden llevar acentos, encontrar una forma de usarlos\n        require(\n            msg.sender == propietario,\n            \"Esta funcion solo puede ser ejecutada por el creador del contrato\"\n        );\n        _; // ac se ejecuta la funcin\n    }\n\n}\n",
  "sourcePath": "/home/felipe/Documentos/Blockchain/codigo/back-hce/contracts/logica/Persona.sol",
  "compiler": {
    "name": "solc",
    "version": "0.8.11+commit.d7f03943.Emscripten.clang"
  },
  "schemaVersion": "3.4.4",
  "updatedAt": "2022-01-27T01:23:32.070Z",
  "networkType": "ethereum",
  "devdoc": {
    "kind": "dev",
    "methods": {},
    "version": 1
  },
  "userdoc": {
    "kind": "user",
    "methods": {},
    "version": 1
  }
}