{
  "contractName": "PersonaDAO",
  "abi": [
    {
      "inputs": [],
      "stateMutability": "nonpayable",
      "type": "constructor"
    },
    {
      "anonymous": false,
      "inputs": [
        {
          "indexed": false,
          "internalType": "string",
          "name": "data",
          "type": "string"
        }
      ],
      "name": "Log",
      "type": "event"
    },
    {
      "inputs": [],
      "name": "creador",
      "outputs": [
        {
          "internalType": "address",
          "name": "",
          "type": "address"
        }
      ],
      "stateMutability": "view",
      "type": "function"
    },
    {
      "inputs": [
        {
          "internalType": "address",
          "name": "direccion",
          "type": "address"
        }
      ],
      "name": "consultar",
      "outputs": [
        {
          "components": [
            {
              "internalType": "string",
              "name": "primerNombre",
              "type": "string"
            },
            {
              "internalType": "string",
              "name": "segundoNombre",
              "type": "string"
            },
            {
              "internalType": "string",
              "name": "primerApellido",
              "type": "string"
            },
            {
              "internalType": "string",
              "name": "segundoApellido",
              "type": "string"
            },
            {
              "internalType": "string",
              "name": "identificacion",
              "type": "string"
            },
            {
              "components": [
                {
                  "internalType": "string",
                  "name": "nombre",
                  "type": "string"
                },
                {
                  "internalType": "string",
                  "name": "descripcion",
                  "type": "string"
                },
                {
                  "internalType": "bool",
                  "name": "estaActiva",
                  "type": "bool"
                }
              ],
              "internalType": "struct TipoIdentificacionStruct",
              "name": "tipoIdentificacion",
              "type": "tuple"
            },
            {
              "internalType": "bool",
              "name": "isValue",
              "type": "bool"
            }
          ],
          "internalType": "struct PersonaStruct",
          "name": "",
          "type": "tuple"
        }
      ],
      "stateMutability": "nonpayable",
      "type": "function"
    },
    {
      "inputs": [
        {
          "internalType": "address",
          "name": "direccion",
          "type": "address"
        },
        {
          "components": [
            {
              "internalType": "string",
              "name": "primerNombre",
              "type": "string"
            },
            {
              "internalType": "string",
              "name": "segundoNombre",
              "type": "string"
            },
            {
              "internalType": "string",
              "name": "primerApellido",
              "type": "string"
            },
            {
              "internalType": "string",
              "name": "segundoApellido",
              "type": "string"
            },
            {
              "internalType": "string",
              "name": "identificacion",
              "type": "string"
            },
            {
              "components": [
                {
                  "internalType": "string",
                  "name": "nombre",
                  "type": "string"
                },
                {
                  "internalType": "string",
                  "name": "descripcion",
                  "type": "string"
                },
                {
                  "internalType": "bool",
                  "name": "estaActiva",
                  "type": "bool"
                }
              ],
              "internalType": "struct TipoIdentificacionStruct",
              "name": "tipoIdentificacion",
              "type": "tuple"
            },
            {
              "internalType": "bool",
              "name": "isValue",
              "type": "bool"
            }
          ],
          "internalType": "struct PersonaStruct",
          "name": "persona",
          "type": "tuple"
        }
      ],
      "name": "guardar",
      "outputs": [],
      "stateMutability": "nonpayable",
      "type": "function"
    }
  ],
  "bytecode": "0x608060405234801561001057600080fd5b50336000806101000a81548173ffffffffffffffffffffffffffffffffffffffff021916908373ffffffffffffffffffffffffffffffffffffffff16021790555061137b806100606000396000f3fe608060405234801561001057600080fd5b50600436106100415760003560e01c80637da8f6a51461004657806392ebdcd2146100765780639c8508d714610094575b600080fd5b610060600480360381019061005b91906109fd565b6100b0565b60405161006d9190610bf4565b60405180910390f35b61007e61063a565b60405161008b9190610c25565b60405180910390f35b6100ae60048036038101906100a99190610fa3565b61065e565b005b6100b8610880565b7fcf34ef537ac33ee1ac626ca1587a0a7e8e51561e5514f8cb36afa1c5102b3bab6040516100e59061105c565b60405180910390a16000600160008473ffffffffffffffffffffffffffffffffffffffff1673ffffffffffffffffffffffffffffffffffffffff1681526020019081526020016000206040518060e0016040529081600082018054610149906110ab565b80601f0160208091040260200160405190810160405280929190818152602001828054610175906110ab565b80156101c25780601f10610197576101008083540402835291602001916101c2565b820191906000526020600020905b8154815290600101906020018083116101a557829003601f168201915b505050505081526020016001820180546101db906110ab565b80601f0160208091040260200160405190810160405280929190818152602001828054610207906110ab565b80156102545780601f1061022957610100808354040283529160200191610254565b820191906000526020600020905b81548152906001019060200180831161023757829003601f168201915b5050505050815260200160028201805461026d906110ab565b80601f0160208091040260200160405190810160405280929190818152602001828054610299906110ab565b80156102e65780601f106102bb576101008083540402835291602001916102e6565b820191906000526020600020905b8154815290600101906020018083116102c957829003601f168201915b505050505081526020016003820180546102ff906110ab565b80601f016020809104026020016040519081016040528092919081815260200182805461032b906110ab565b80156103785780601f1061034d57610100808354040283529160200191610378565b820191906000526020600020905b81548152906001019060200180831161035b57829003601f168201915b50505050508152602001600482018054610391906110ab565b80601f01602080910402602001604051908101604052809291908181526020018280546103bd906110ab565b801561040a5780601f106103df5761010080835404028352916020019161040a565b820191906000526020600020905b8154815290600101906020018083116103ed57829003601f168201915b5050505050815260200160058201604051806060016040529081600082018054610433906110ab565b80601f016020809104026020016040519081016040528092919081815260200182805461045f906110ab565b80156104ac5780601f10610481576101008083540402835291602001916104ac565b820191906000526020600020905b81548152906001019060200180831161048f57829003601f168201915b505050505081526020016001820180546104c5906110ab565b80601f01602080910402602001604051908101604052809291908181526020018280546104f1906110ab565b801561053e5780601f106105135761010080835404028352916020019161053e565b820191906000526020600020905b81548152906001019060200180831161052157829003601f168201915b505050505081526020016002820160009054906101000a900460ff16151515158152505081526020016008820160009054906101000a900460ff16151515158152505090508060c001516105fc577fcf34ef537ac33ee1ac626ca1587a0a7e8e51561e5514f8cb36afa1c5102b3bab6040516105b990611129565b60405180910390a16040517f08c379a00000000000000000000000000000000000000000000000000000000081526004016105f390611195565b60405180910390fd5b7fcf34ef537ac33ee1ac626ca1587a0a7e8e51561e5514f8cb36afa1c5102b3bab60405161062990611201565b60405180910390a180915050919050565b60008054906101000a900473ffffffffffffffffffffffffffffffffffffffff1681565b600160008373ffffffffffffffffffffffffffffffffffffffff1673ffffffffffffffffffffffffffffffffffffffff16815260200190815260200160002060080160009054906101000a900460ff1615610723577fcf34ef537ac33ee1ac626ca1587a0a7e8e51561e5514f8cb36afa1c5102b3bab6040516106e090611293565b60405180910390a16040517f08c379a000000000000000000000000000000000000000000000000000000000815260040161071a90611325565b60405180910390fd5b80600160008473ffffffffffffffffffffffffffffffffffffffff1673ffffffffffffffffffffffffffffffffffffffff168152602001908152602001600020600082015181600001908051906020019061077f9291906108c5565b50602082015181600101908051906020019061079c9291906108c5565b5060408201518160020190805190602001906107b99291906108c5565b5060608201518160030190805190602001906107d69291906108c5565b5060808201518160040190805190602001906107f39291906108c5565b5060a08201518160050160008201518160000190805190602001906108199291906108c5565b5060208201518160010190805190602001906108369291906108c5565b5060408201518160020160006101000a81548160ff021916908315150217905550505060c08201518160080160006101000a81548160ff0219169083151502179055509050505050565b6040518060e0016040528060608152602001606081526020016060815260200160608152602001606081526020016108b661094b565b81526020016000151581525090565b8280546108d1906110ab565b90600052602060002090601f0160209004810192826108f3576000855561093a565b82601f1061090c57805160ff191683800117855561093a565b8280016001018555821561093a579182015b8281111561093957825182559160200191906001019061091e565b5b509050610947919061096e565b5090565b604051806060016040528060608152602001606081526020016000151581525090565b5b8082111561098757600081600090555060010161096f565b5090565b6000604051905090565b600080fd5b600080fd5b600073ffffffffffffffffffffffffffffffffffffffff82169050919050565b60006109ca8261099f565b9050919050565b6109da816109bf565b81146109e557600080fd5b50565b6000813590506109f7816109d1565b92915050565b600060208284031215610a1357610a12610995565b5b6000610a21848285016109e8565b91505092915050565b600081519050919050565b600082825260208201905092915050565b60005b83811015610a64578082015181840152602081019050610a49565b83811115610a73576000848401525b50505050565b6000601f19601f8301169050919050565b6000610a9582610a2a565b610a9f8185610a35565b9350610aaf818560208601610a46565b610ab881610a79565b840191505092915050565b60008115159050919050565b610ad881610ac3565b82525050565b60006060830160008301518482036000860152610afb8282610a8a565b91505060208301518482036020860152610b158282610a8a565b9150506040830151610b2a6040860182610acf565b508091505092915050565b600060e0830160008301518482036000860152610b528282610a8a565b91505060208301518482036020860152610b6c8282610a8a565b91505060408301518482036040860152610b868282610a8a565b91505060608301518482036060860152610ba08282610a8a565b91505060808301518482036080860152610bba8282610a8a565b91505060a083015184820360a0860152610bd48282610ade565b91505060c0830151610be960c0860182610acf565b508091505092915050565b60006020820190508181036000830152610c0e8184610b35565b905092915050565b610c1f816109bf565b82525050565b6000602082019050610c3a6000830184610c16565b92915050565b600080fd5b7f4e487b7100000000000000000000000000000000000000000000000000000000600052604160045260246000fd5b610c7d82610a79565b810181811067ffffffffffffffff82111715610c9c57610c9b610c45565b5b80604052505050565b6000610caf61098b565b9050610cbb8282610c74565b919050565b600080fd5b600080fd5b600080fd5b600067ffffffffffffffff821115610cea57610ce9610c45565b5b610cf382610a79565b9050602081019050919050565b82818337600083830152505050565b6000610d22610d1d84610ccf565b610ca5565b905082815260208101848484011115610d3e57610d3d610cca565b5b610d49848285610d00565b509392505050565b600082601f830112610d6657610d65610cc5565b5b8135610d76848260208601610d0f565b91505092915050565b610d8881610ac3565b8114610d9357600080fd5b50565b600081359050610da581610d7f565b92915050565b600060608284031215610dc157610dc0610c40565b5b610dcb6060610ca5565b9050600082013567ffffffffffffffff811115610deb57610dea610cc0565b5b610df784828501610d51565b600083015250602082013567ffffffffffffffff811115610e1b57610e1a610cc0565b5b610e2784828501610d51565b6020830152506040610e3b84828501610d96565b60408301525092915050565b600060e08284031215610e5d57610e5c610c40565b5b610e6760e0610ca5565b9050600082013567ffffffffffffffff811115610e8757610e86610cc0565b5b610e9384828501610d51565b600083015250602082013567ffffffffffffffff811115610eb757610eb6610cc0565b5b610ec384828501610d51565b602083015250604082013567ffffffffffffffff811115610ee757610ee6610cc0565b5b610ef384828501610d51565b604083015250606082013567ffffffffffffffff811115610f1757610f16610cc0565b5b610f2384828501610d51565b606083015250608082013567ffffffffffffffff811115610f4757610f46610cc0565b5b610f5384828501610d51565b60808301525060a082013567ffffffffffffffff811115610f7757610f76610cc0565b5b610f8384828501610dab565b60a08301525060c0610f9784828501610d96565b60c08301525092915050565b60008060408385031215610fba57610fb9610995565b5b6000610fc8858286016109e8565b925050602083013567ffffffffffffffff811115610fe957610fe861099a565b5b610ff585828601610e47565b9150509250929050565b600082825260208201905092915050565b7f656e74726f206120636f6e73756c746172000000000000000000000000000000600082015250565b6000611046601183610fff565b915061105182611010565b602082019050919050565b6000602082019050818103600083015261107581611039565b9050919050565b7f4e487b7100000000000000000000000000000000000000000000000000000000600052602260045260246000fd5b600060028204905060018216806110c357607f821691505b602082108114156110d7576110d661107c565b5b50919050565b7f6e6f2065786973746520656c207573756172696f000000000000000000000000600082015250565b6000611113601483610fff565b915061111e826110dd565b602082019050919050565b6000602082019050818103600083015261114281611106565b9050919050565b7f4e6f20657869737465206573652070616369656e746500000000000000000000600082015250565b600061117f601683610fff565b915061118a82611149565b602082019050919050565b600060208201905081810360008301526111ae81611172565b9050919050565b7f7573756172696f2076616c69646f000000000000000000000000000000000000600082015250565b60006111eb600e83610fff565b91506111f6826111b5565b602082019050919050565b6000602082019050818103600083015261121a816111de565b9050919050565b7f59612065786973746520756e6120706572736f6e61207265676973747261646160008201527f20636f6e20657365206164647265737300000000000000000000000000000000602082015250565b600061127d603083610fff565b915061128882611221565b604082019050919050565b600060208201905081810360008301526112ac81611270565b9050919050565b7f5961206578697374652075616e20706572736f6e61207265676973747261646160008201527f20636f6e20657365206164647265737300000000000000000000000000000000602082015250565b600061130f603083610fff565b915061131a826112b3565b604082019050919050565b6000602082019050818103600083015261133e81611302565b905091905056fea26469706673582212200a2e6140ede7902138912c4dfecf0e65890c31934073a7d3635b4c36ec3eaaf564736f6c634300080b0033",
  "immutableReferences": {},
  "source": "// SPDX-License-Identifier: MIT\npragma solidity ^0.8.10; \n// import \"../logica/Persona.sol\";\nimport \"../models/PersonaStruct.sol\";\n\n// TODO: hacer un name resgistry para validar que solo los contratos del proyecto y el propietario puedan acceder a las funciones\ncontract PersonaDAO {\n    // event Log(address indexed user,  string data);\n    event Log(string data);\n\n    address public creador;\n\n    mapping(address => PersonaStruct) private personas; // TODO: Dejar como private\n\n    constructor() {\n        creador = msg.sender;\n    }\n\n     // TODO: si no es external fallan los try catch, investigar al respecto\n    function consultar(address direccion) \n        external\n        returns (PersonaStruct memory)\n    {\n        emit Log(\"entro a consultar\");\n        PersonaStruct memory persona = personas[direccion];\n        if (!persona.isValue) {\n            emit Log(\"no existe el usuario\");\n            revert(\"No existe ese paciente\");\n        }\n        emit Log(\"usuario valido\");\n        return persona;\n    }\n\n    function guardar(address direccion, PersonaStruct memory persona) public {\n        // TODO: quitar return en clase de enterprise architect\n        // TODO: Validar, si falla poner excepcin\n        if (personas[direccion].isValue) {\n            emit Log(\"Ya existe una persona registrada con ese address\");\n            revert(\"Ya existe uan persona registrada con ese address\");            \n        }\n        personas[direccion] = persona;\n    }\n\n    // TODO: agregar funcin actualizar\n}\n",
  "sourcePath": "/home/felipe/Documentos/Blockchain/codigo/back-hce/contracts/persistence/PersonaDAO.sol",
  "compiler": {
    "name": "solc",
    "version": "0.8.11+commit.d7f03943.Emscripten.clang"
  },
  "schemaVersion": "3.4.4",
  "updatedAt": "2022-02-05T03:00:20.778Z",
  "devdoc": {
    "kind": "dev",
    "methods": {},
    "version": 1
  },
  "userdoc": {
    "kind": "user",
    "methods": {},
    "version": 1
  }
}