{
  "contractName": "Persona",
  "abi": [
    {
      "inputs": [],
      "stateMutability": "nonpayable",
      "type": "constructor"
    },
    {
      "anonymous": false,
      "inputs": [
        {
          "indexed": false,
          "internalType": "string",
          "name": "data",
          "type": "string"
        }
      ],
      "name": "Log",
      "type": "event"
    },
    {
      "inputs": [],
      "name": "PersonaDAOAddress",
      "outputs": [
        {
          "internalType": "address",
          "name": "",
          "type": "address"
        }
      ],
      "stateMutability": "view",
      "type": "function",
      "constant": true
    },
    {
      "inputs": [],
      "name": "propietario",
      "outputs": [
        {
          "internalType": "address",
          "name": "",
          "type": "address"
        }
      ],
      "stateMutability": "view",
      "type": "function",
      "constant": true
    },
    {
      "inputs": [
        {
          "components": [
            {
              "internalType": "string",
              "name": "primerNombre",
              "type": "string"
            },
            {
              "internalType": "string",
              "name": "segundoNombre",
              "type": "string"
            },
            {
              "internalType": "string",
              "name": "primerApellido",
              "type": "string"
            },
            {
              "internalType": "string",
              "name": "segundoApellido",
              "type": "string"
            },
            {
              "internalType": "string",
              "name": "identificacion",
              "type": "string"
            },
            {
              "internalType": "string",
              "name": "tipoIdentificacion",
              "type": "string"
            },
            {
              "internalType": "bool",
              "name": "isValue",
              "type": "bool"
            }
          ],
          "internalType": "struct PersonaStruct",
          "name": "persona",
          "type": "tuple"
        }
      ],
      "name": "registrar",
      "outputs": [],
      "stateMutability": "nonpayable",
      "type": "function"
    },
    {
      "inputs": [
        {
          "internalType": "address",
          "name": "direccion",
          "type": "address"
        }
      ],
      "name": "consultar",
      "outputs": [
        {
          "components": [
            {
              "internalType": "string",
              "name": "primerNombre",
              "type": "string"
            },
            {
              "internalType": "string",
              "name": "segundoNombre",
              "type": "string"
            },
            {
              "internalType": "string",
              "name": "primerApellido",
              "type": "string"
            },
            {
              "internalType": "string",
              "name": "segundoApellido",
              "type": "string"
            },
            {
              "internalType": "string",
              "name": "identificacion",
              "type": "string"
            },
            {
              "internalType": "string",
              "name": "tipoIdentificacion",
              "type": "string"
            },
            {
              "internalType": "bool",
              "name": "isValue",
              "type": "bool"
            }
          ],
          "internalType": "struct PersonaStruct",
          "name": "",
          "type": "tuple"
        }
      ],
      "stateMutability": "nonpayable",
      "type": "function"
    },
    {
      "inputs": [
        {
          "internalType": "address",
          "name": "direccion",
          "type": "address"
        },
        {
          "components": [
            {
              "internalType": "string",
              "name": "primerNombre",
              "type": "string"
            },
            {
              "internalType": "string",
              "name": "segundoNombre",
              "type": "string"
            },
            {
              "internalType": "string",
              "name": "primerApellido",
              "type": "string"
            },
            {
              "internalType": "string",
              "name": "segundoApellido",
              "type": "string"
            },
            {
              "internalType": "string",
              "name": "identificacion",
              "type": "string"
            },
            {
              "internalType": "string",
              "name": "tipoIdentificacion",
              "type": "string"
            },
            {
              "internalType": "bool",
              "name": "isValue",
              "type": "bool"
            }
          ],
          "internalType": "struct PersonaStruct",
          "name": "persona",
          "type": "tuple"
        }
      ],
      "name": "guardar",
      "outputs": [],
      "stateMutability": "nonpayable",
      "type": "function"
    },
    {
      "inputs": [
        {
          "internalType": "address",
          "name": "direccion",
          "type": "address"
        }
      ],
      "name": "setPersonaDAOAddress",
      "outputs": [],
      "stateMutability": "nonpayable",
      "type": "function"
    }
  ],
  "bytecode": "0x608060405234801561001057600080fd5b50336000806101000a81548173ffffffffffffffffffffffffffffffffffffffff021916908373ffffffffffffffffffffffffffffffffffffffff160217905550611264806100606000396000f3fe608060405234801561001057600080fd5b50600436106100625760003560e01c8063133584b1146100675780633c4f81cd1461008357806352340e2e146100a15780637da8f6a5146100bf578063b86c281e146100ef578063c2aa74d21461010b575b600080fd5b610081600480360381019061007c919061097b565b610127565b005b61008b610298565b60405161009891906109e6565b60405180910390f35b6100a96102bc565b6040516100b691906109e6565b60405180910390f35b6100d960048036038101906100d49190610a01565b6102e2565b6040516100e69190610b84565b60405180910390f35b61010960048036038101906101049190610ba6565b6104ae565b005b61012560048036038101906101209190610a01565b6104b1565b005b600260009054906101000a900473ffffffffffffffffffffffffffffffffffffffff1673ffffffffffffffffffffffffffffffffffffffff1663133584b183836040518363ffffffff1660e01b8152600401610184929190610bef565b600060405180830381600087803b15801561019e57600080fd5b505af19250505080156101af575060015b61025e576101bb610c2c565b806308c379a0141561024d57506101d0610c4e565b806101db575061024f565b7fcf34ef537ac33ee1ac626ca1587a0a7e8e51561e5514f8cb36afa1c5102b3bab60405161020890610d67565b60405180910390a17fcf34ef537ac33ee1ac626ca1587a0a7e8e51561e5514f8cb36afa1c5102b3bab8160405161023f9190610dc0565b60405180910390a150610259565b505b3d6000803e3d6000fd5b610294565b7fcf34ef537ac33ee1ac626ca1587a0a7e8e51561e5514f8cb36afa1c5102b3bab60405161028b90610e54565b60405180910390a15b5050565b60008054906101000a900473ffffffffffffffffffffffffffffffffffffffff1681565b600160009054906101000a900473ffffffffffffffffffffffffffffffffffffffff1681565b6102ea6105e6565b7fcf34ef537ac33ee1ac626ca1587a0a7e8e51561e5514f8cb36afa1c5102b3bab60405161031790610ec0565b60405180910390a1600260009054906101000a900473ffffffffffffffffffffffffffffffffffffffff1673ffffffffffffffffffffffffffffffffffffffff16637da8f6a5836040518263ffffffff1660e01b815260040161037a91906109e6565b6000604051808303816000875af19250505080156103bb57506040513d6000823e3d601f19601f820116820180604052508101906103b891906110c1565b60015b61046a576103c7610c2c565b806308c379a0141561045957506103dc610c4e565b806103e7575061045b565b7fcf34ef537ac33ee1ac626ca1587a0a7e8e51561e5514f8cb36afa1c5102b3bab60405161041490610d67565b60405180910390a17fcf34ef537ac33ee1ac626ca1587a0a7e8e51561e5514f8cb36afa1c5102b3bab8160405161044b9190610dc0565b60405180910390a150610465565b505b3d6000803e3d6000fd5b6104a8565b7fcf34ef537ac33ee1ac626ca1587a0a7e8e51561e5514f8cb36afa1c5102b3bab60405161049790611156565b60405180910390a1809150506104a9565b5b919050565b50565b60008054906101000a900473ffffffffffffffffffffffffffffffffffffffff1673ffffffffffffffffffffffffffffffffffffffff163373ffffffffffffffffffffffffffffffffffffffff161461053f576040517f08c379a00000000000000000000000000000000000000000000000000000000081526004016105369061120e565b60405180910390fd5b80600160006101000a81548173ffffffffffffffffffffffffffffffffffffffff021916908373ffffffffffffffffffffffffffffffffffffffff160217905550600160009054906101000a900473ffffffffffffffffffffffffffffffffffffffff16600260006101000a81548173ffffffffffffffffffffffffffffffffffffffff021916908373ffffffffffffffffffffffffffffffffffffffff16021790555050565b6040518060e001604052806060815260200160608152602001606081526020016060815260200160608152602001606081526020016000151581525090565b6000604051905090565b600080fd5b600080fd5b600073ffffffffffffffffffffffffffffffffffffffff82169050919050565b600061066482610639565b9050919050565b61067481610659565b811461067f57600080fd5b50565b6000813590506106918161066b565b92915050565b600080fd5b6000601f19601f8301169050919050565b7f4e487b7100000000000000000000000000000000000000000000000000000000600052604160045260246000fd5b6106e58261069c565b810181811067ffffffffffffffff82111715610704576107036106ad565b5b80604052505050565b6000610717610625565b905061072382826106dc565b919050565b600080fd5b600080fd5b600080fd5b600067ffffffffffffffff821115610752576107516106ad565b5b61075b8261069c565b9050602081019050919050565b82818337600083830152505050565b600061078a61078584610737565b61070d565b9050828152602081018484840111156107a6576107a5610732565b5b6107b1848285610768565b509392505050565b600082601f8301126107ce576107cd61072d565b5b81356107de848260208601610777565b91505092915050565b60008115159050919050565b6107fc816107e7565b811461080757600080fd5b50565b600081359050610819816107f3565b92915050565b600060e0828403121561083557610834610697565b5b61083f60e061070d565b9050600082013567ffffffffffffffff81111561085f5761085e610728565b5b61086b848285016107b9565b600083015250602082013567ffffffffffffffff81111561088f5761088e610728565b5b61089b848285016107b9565b602083015250604082013567ffffffffffffffff8111156108bf576108be610728565b5b6108cb848285016107b9565b604083015250606082013567ffffffffffffffff8111156108ef576108ee610728565b5b6108fb848285016107b9565b606083015250608082013567ffffffffffffffff81111561091f5761091e610728565b5b61092b848285016107b9565b60808301525060a082013567ffffffffffffffff81111561094f5761094e610728565b5b61095b848285016107b9565b60a08301525060c061096f8482850161080a565b60c08301525092915050565b600080604083850312156109925761099161062f565b5b60006109a085828601610682565b925050602083013567ffffffffffffffff8111156109c1576109c0610634565b5b6109cd8582860161081f565b9150509250929050565b6109e081610659565b82525050565b60006020820190506109fb60008301846109d7565b92915050565b600060208284031215610a1757610a1661062f565b5b6000610a2584828501610682565b91505092915050565b600081519050919050565b600082825260208201905092915050565b60005b83811015610a68578082015181840152602081019050610a4d565b83811115610a77576000848401525b50505050565b6000610a8882610a2e565b610a928185610a39565b9350610aa2818560208601610a4a565b610aab8161069c565b840191505092915050565b610abf816107e7565b82525050565b600060e0830160008301518482036000860152610ae28282610a7d565b91505060208301518482036020860152610afc8282610a7d565b91505060408301518482036040860152610b168282610a7d565b91505060608301518482036060860152610b308282610a7d565b91505060808301518482036080860152610b4a8282610a7d565b91505060a083015184820360a0860152610b648282610a7d565b91505060c0830151610b7960c0860182610ab6565b508091505092915050565b60006020820190508181036000830152610b9e8184610ac5565b905092915050565b600060208284031215610bbc57610bbb61062f565b5b600082013567ffffffffffffffff811115610bda57610bd9610634565b5b610be68482850161081f565b91505092915050565b6000604082019050610c0460008301856109d7565b8181036020830152610c168184610ac5565b90509392505050565b60008160e01c9050919050565b600060033d1115610c4b5760046000803e610c48600051610c1f565b90505b90565b600060443d1015610c5e57610ce1565b610c66610625565b60043d036004823e80513d602482011167ffffffffffffffff82111715610c8e575050610ce1565b808201805167ffffffffffffffff811115610cac5750505050610ce1565b80602083010160043d038501811115610cc9575050505050610ce1565b610cd8826020018501866106dc565b82955050505050505b90565b600082825260208201905092915050565b7f736520726f6d70696f20706f7220756e20726576657274206f2072657175697260008201527f6500000000000000000000000000000000000000000000000000000000000000602082015250565b6000610d51602183610ce4565b9150610d5c82610cf5565b604082019050919050565b60006020820190508181036000830152610d8081610d44565b9050919050565b6000610d9282610a2e565b610d9c8185610ce4565b9350610dac818560208601610a4a565b610db58161069c565b840191505092915050565b60006020820190508181036000830152610dda8184610d87565b905092915050565b7f536520677561726461206c6120706572736f6e6120636f7265656374616d656e60008201527f7465000000000000000000000000000000000000000000000000000000000000602082015250565b6000610e3e602283610ce4565b9150610e4982610de2565b604082019050919050565b60006020820190508181036000830152610e6d81610e31565b9050919050565b7f656e74726f206120636f6e73756c746172000000000000000000000000000000600082015250565b6000610eaa601183610ce4565b9150610eb582610e74565b602082019050919050565b60006020820190508181036000830152610ed981610e9d565b9050919050565b6000610ef3610eee84610737565b61070d565b905082815260208101848484011115610f0f57610f0e610732565b5b610f1a848285610a4a565b509392505050565b600082601f830112610f3757610f3661072d565b5b8151610f47848260208601610ee0565b91505092915050565b600081519050610f5f816107f3565b92915050565b600060e08284031215610f7b57610f7a610697565b5b610f8560e061070d565b9050600082015167ffffffffffffffff811115610fa557610fa4610728565b5b610fb184828501610f22565b600083015250602082015167ffffffffffffffff811115610fd557610fd4610728565b5b610fe184828501610f22565b602083015250604082015167ffffffffffffffff81111561100557611004610728565b5b61101184828501610f22565b604083015250606082015167ffffffffffffffff81111561103557611034610728565b5b61104184828501610f22565b606083015250608082015167ffffffffffffffff81111561106557611064610728565b5b61107184828501610f22565b60808301525060a082015167ffffffffffffffff81111561109557611094610728565b5b6110a184828501610f22565b60a08301525060c06110b584828501610f50565b60c08301525092915050565b6000602082840312156110d7576110d661062f565b5b600082015167ffffffffffffffff8111156110f5576110f4610634565b5b61110184828501610f65565b91505092915050565b7f656e636f6e74726f206c6120706572736f6e6100000000000000000000000000600082015250565b6000611140601383610ce4565b915061114b8261110a565b602082019050919050565b6000602082019050818103600083015261116f81611133565b9050919050565b7f457374612066756e63696f6e20736f6c6f2070756564652073657220656a656360008201527f757461646120706f7220656c2063726561646f722064656c20636f6e7472617460208201527f6f00000000000000000000000000000000000000000000000000000000000000604082015250565b60006111f8604183610ce4565b915061120382611176565b606082019050919050565b60006020820190508181036000830152611227816111eb565b905091905056fea2646970667358221220311670f6cfd8aa8886572f50d3411810a5e214bbbf8836d9170b9ee3db143c0464736f6c634300080b0033",
  "immutableReferences": {},
  "source": "pragma solidity ^0.8.10;\n\nimport \"./Usuario.sol\";\nimport \"../models/PersonaStruct.sol\";\nimport \"../persistence/PersonaDAO.sol\";\n\n// NOTE: se deja el abstrac contract justo con sus hijos por cuestiones de ordenamiento de cdigo solidity, antes decia \"Definition of base has to precede definition of derived contract\"\n// TODO: verificar si se puede dejar como abstract\ncontract Persona {\n    event Log(string data);\n    address public propietario;\n    address public PersonaDAOAddress;\n\n    // TODO: registrar la direccion del contrato personaDAO\n    PersonaDAO private personaDao;\n\n    constructor() public {\n        propietario = msg.sender;\n        // TODO: fijar valor en nulo y cargar el objeto desde un mtodo nuevo con la direccin del contrato desplegado\n        //personaDao = new PersonaDAO(); //TODO: verificar si queda guardado el objeto o si hay mejor manera\n    }\n\n    function registrar(PersonaStruct memory persona) public {}\n\n    // TODO: agregar modifier para retornar un revert ms bonito, para cuando la direccion del dao sea invalida\n    function consultar(address direccion)\n        public\n        returns (PersonaStruct memory)\n    {\n        emit Log(\"entro a consultar\");\n        try personaDao.consultar(direccion) returns (\n            PersonaStruct memory persona\n        ) {\n            emit Log(\"encontro la persona\");\n            return persona;\n        } catch Error(string memory e) {\n            /*reason*/\n            emit Log(\"se rompio por un revert o require\");\n            emit Log(e);\n        }\n    }\n\n    function guardar(address direccion, PersonaStruct memory persona) public {\n        // TODO: Validar, si falla poner excepcin\n        try personaDao.guardar(direccion, persona) {\n            emit Log(\"Se guarda la persona coreectamente\");\n        } catch Error(string memory data) {\n            /*reason*/\n            emit Log(\"se rompio por un revert o require\");\n            emit Log(data);\n        }\n    }\n\n    function setPersonaDAOAddress(address direccion) public esPropietario {\n        PersonaDAOAddress = direccion;\n        personaDao = PersonaDAO(PersonaDAOAddress);\n    }\n\n    modifier esPropietario() {\n        // NOTE: Los string no pueden llevar acentos, encontrar una forma de usarlos\n        require(\n            msg.sender == propietario,\n            \"Esta funcion solo puede ser ejecutada por el creador del contrato\"\n        );\n        _; // ac se ejecuta la funcin\n    }\n\n    modifier daoNoEsNulo() {\n        require(\n            msg.sender == propietario,\n            \"Esta funcion solo puede ser ejecutada por el creador del contrato\"\n        );\n        _; // ac se ejecuta la funcin\n    }\n}\n",
  "sourcePath": "/home/felipe/Documentos/Blockchain/codigo/back-hce/contracts/logica/Persona.sol",
  "compiler": {
    "name": "solc",
    "version": "0.8.11+commit.d7f03943.Emscripten.clang"
  },
  "schemaVersion": "3.4.4",
  "updatedAt": "2022-01-25T01:10:17.720Z",
  "networkType": "ethereum",
  "devdoc": {
    "kind": "dev",
    "methods": {},
    "version": 1
  },
  "userdoc": {
    "kind": "user",
    "methods": {},
    "version": 1
  }
}