{
  "contractName": "Persona",
  "abi": [
    {
      "inputs": [],
      "stateMutability": "nonpayable",
      "type": "constructor"
    },
    {
      "anonymous": false,
      "inputs": [
        {
          "indexed": false,
          "internalType": "string",
          "name": "data",
          "type": "string"
        }
      ],
      "name": "Log",
      "type": "event"
    },
    {
      "inputs": [],
      "name": "PersonaDAOAddress",
      "outputs": [
        {
          "internalType": "address",
          "name": "",
          "type": "address"
        }
      ],
      "stateMutability": "view",
      "type": "function",
      "constant": true
    },
    {
      "inputs": [],
      "name": "creador",
      "outputs": [
        {
          "internalType": "address",
          "name": "",
          "type": "address"
        }
      ],
      "stateMutability": "view",
      "type": "function",
      "constant": true
    },
    {
      "inputs": [
        {
          "internalType": "address",
          "name": "direccion",
          "type": "address"
        }
      ],
      "name": "consultar",
      "outputs": [
        {
          "components": [
            {
              "internalType": "string",
              "name": "primerNombre",
              "type": "string"
            },
            {
              "internalType": "string",
              "name": "segundoNombre",
              "type": "string"
            },
            {
              "internalType": "string",
              "name": "primerApellido",
              "type": "string"
            },
            {
              "internalType": "string",
              "name": "segundoApellido",
              "type": "string"
            },
            {
              "internalType": "string",
              "name": "identificacion",
              "type": "string"
            },
            {
              "components": [
                {
                  "internalType": "string",
                  "name": "nombre",
                  "type": "string"
                },
                {
                  "internalType": "string",
                  "name": "descripcion",
                  "type": "string"
                },
                {
                  "internalType": "bool",
                  "name": "estaActiva",
                  "type": "bool"
                }
              ],
              "internalType": "struct TipoIdentificacionStruct",
              "name": "tipoIdentificacionId",
              "type": "tuple"
            },
            {
              "internalType": "uint256",
              "name": "rolId",
              "type": "uint256"
            },
            {
              "internalType": "bool",
              "name": "isValue",
              "type": "bool"
            }
          ],
          "internalType": "struct PersonaStruct",
          "name": "",
          "type": "tuple"
        }
      ],
      "stateMutability": "nonpayable",
      "type": "function"
    },
    {
      "inputs": [
        {
          "internalType": "address",
          "name": "direccion",
          "type": "address"
        },
        {
          "components": [
            {
              "internalType": "string",
              "name": "primerNombre",
              "type": "string"
            },
            {
              "internalType": "string",
              "name": "segundoNombre",
              "type": "string"
            },
            {
              "internalType": "string",
              "name": "primerApellido",
              "type": "string"
            },
            {
              "internalType": "string",
              "name": "segundoApellido",
              "type": "string"
            },
            {
              "internalType": "string",
              "name": "identificacion",
              "type": "string"
            },
            {
              "components": [
                {
                  "internalType": "string",
                  "name": "nombre",
                  "type": "string"
                },
                {
                  "internalType": "string",
                  "name": "descripcion",
                  "type": "string"
                },
                {
                  "internalType": "bool",
                  "name": "estaActiva",
                  "type": "bool"
                }
              ],
              "internalType": "struct TipoIdentificacionStruct",
              "name": "tipoIdentificacionId",
              "type": "tuple"
            },
            {
              "internalType": "uint256",
              "name": "rolId",
              "type": "uint256"
            },
            {
              "internalType": "bool",
              "name": "isValue",
              "type": "bool"
            }
          ],
          "internalType": "struct PersonaStruct",
          "name": "persona",
          "type": "tuple"
        }
      ],
      "name": "registrar",
      "outputs": [],
      "stateMutability": "nonpayable",
      "type": "function"
    },
    {
      "inputs": [
        {
          "internalType": "address",
          "name": "direccion",
          "type": "address"
        }
      ],
      "name": "setContratoPersonaDAOAddress",
      "outputs": [],
      "stateMutability": "nonpayable",
      "type": "function"
    },
    {
      "inputs": [],
      "name": "selfDestruct",
      "outputs": [],
      "stateMutability": "nonpayable",
      "type": "function"
    }
  ],
  "bytecode": "0x608060405234801561001057600080fd5b50336000806101000a81548173ffffffffffffffffffffffffffffffffffffffff021916908373ffffffffffffffffffffffffffffffffffffffff1602179055506110b4806100606000396000f3fe608060405234801561001057600080fd5b50600436106100625760003560e01c80632ecf0e1d1461006757806352340e2e146100835780637da8f6a5146100a157806392ebdcd2146100d15780639cb8a26a146100ef578063b603064a146100f9575b600080fd5b610081600480360381019061007c9190610983565b610115565b005b61008b6101a8565b60405161009891906109ee565b60405180910390f35b6100bb60048036038101906100b69190610a09565b6101ce565b6040516100c89190610c06565b60405180910390f35b6100d96102b5565b6040516100e691906109ee565b60405180910390f35b6100f76102d9565b005b610113600480360381019061010e9190610a09565b6103a0565b005b600260009054906101000a900473ffffffffffffffffffffffffffffffffffffffff1673ffffffffffffffffffffffffffffffffffffffff1663c3b7114a83836040518363ffffffff1660e01b8152600401610172929190610c28565b600060405180830381600087803b15801561018c57600080fd5b505af11580156101a0573d6000803e3d6000fd5b505050505050565b600160009054906101000a900473ffffffffffffffffffffffffffffffffffffffff1681565b6101d66104d5565b7fcf34ef537ac33ee1ac626ca1587a0a7e8e51561e5514f8cb36afa1c5102b3bab60405161020390610cb5565b60405180910390a1600260009054906101000a900473ffffffffffffffffffffffffffffffffffffffff1673ffffffffffffffffffffffffffffffffffffffff16637da8f6a5836040518263ffffffff1660e01b815260040161026691906109ee565b6000604051808303816000875af1158015610285573d6000803e3d6000fd5b505050506040513d6000823e3d601f19601f820116820180604052508101906102ae9190610f7d565b9050919050565b60008054906101000a900473ffffffffffffffffffffffffffffffffffffffff1681565b60008054906101000a900473ffffffffffffffffffffffffffffffffffffffff1673ffffffffffffffffffffffffffffffffffffffff163373ffffffffffffffffffffffffffffffffffffffff1614610367576040517f08c379a000000000000000000000000000000000000000000000000000000000815260040161035e9061105e565b60405180910390fd5b60008054906101000a900473ffffffffffffffffffffffffffffffffffffffff1673ffffffffffffffffffffffffffffffffffffffff16ff5b60008054906101000a900473ffffffffffffffffffffffffffffffffffffffff1673ffffffffffffffffffffffffffffffffffffffff163373ffffffffffffffffffffffffffffffffffffffff161461042e576040517f08c379a00000000000000000000000000000000000000000000000000000000081526004016104259061105e565b60405180910390fd5b80600160006101000a81548173ffffffffffffffffffffffffffffffffffffffff021916908373ffffffffffffffffffffffffffffffffffffffff160217905550600160009054906101000a900473ffffffffffffffffffffffffffffffffffffffff16600260006101000a81548173ffffffffffffffffffffffffffffffffffffffff021916908373ffffffffffffffffffffffffffffffffffffffff16021790555050565b604051806101000160405280606081526020016060815260200160608152602001606081526020016060815260200161050c610522565b8152602001600081526020016000151581525090565b604051806060016040528060608152602001606081526020016000151581525090565b6000604051905090565b600080fd5b600080fd5b600073ffffffffffffffffffffffffffffffffffffffff82169050919050565b600061058482610559565b9050919050565b61059481610579565b811461059f57600080fd5b50565b6000813590506105b18161058b565b92915050565b600080fd5b6000601f19601f8301169050919050565b7f4e487b7100000000000000000000000000000000000000000000000000000000600052604160045260246000fd5b610605826105bc565b810181811067ffffffffffffffff82111715610624576106236105cd565b5b80604052505050565b6000610637610545565b905061064382826105fc565b919050565b600080fd5b600080fd5b600080fd5b600067ffffffffffffffff821115610672576106716105cd565b5b61067b826105bc565b9050602081019050919050565b82818337600083830152505050565b60006106aa6106a584610657565b61062d565b9050828152602081018484840111156106c6576106c5610652565b5b6106d1848285610688565b509392505050565b600082601f8301126106ee576106ed61064d565b5b81356106fe848260208601610697565b91505092915050565b60008115159050919050565b61071c81610707565b811461072757600080fd5b50565b60008135905061073981610713565b92915050565b600060608284031215610755576107546105b7565b5b61075f606061062d565b9050600082013567ffffffffffffffff81111561077f5761077e610648565b5b61078b848285016106d9565b600083015250602082013567ffffffffffffffff8111156107af576107ae610648565b5b6107bb848285016106d9565b60208301525060406107cf8482850161072a565b60408301525092915050565b6000819050919050565b6107ee816107db565b81146107f957600080fd5b50565b60008135905061080b816107e5565b92915050565b60006101008284031215610828576108276105b7565b5b61083361010061062d565b9050600082013567ffffffffffffffff81111561085357610852610648565b5b61085f848285016106d9565b600083015250602082013567ffffffffffffffff81111561088357610882610648565b5b61088f848285016106d9565b602083015250604082013567ffffffffffffffff8111156108b3576108b2610648565b5b6108bf848285016106d9565b604083015250606082013567ffffffffffffffff8111156108e3576108e2610648565b5b6108ef848285016106d9565b606083015250608082013567ffffffffffffffff81111561091357610912610648565b5b61091f848285016106d9565b60808301525060a082013567ffffffffffffffff81111561094357610942610648565b5b61094f8482850161073f565b60a08301525060c0610963848285016107fc565b60c08301525060e06109778482850161072a565b60e08301525092915050565b6000806040838503121561099a5761099961054f565b5b60006109a8858286016105a2565b925050602083013567ffffffffffffffff8111156109c9576109c8610554565b5b6109d585828601610811565b9150509250929050565b6109e881610579565b82525050565b6000602082019050610a0360008301846109df565b92915050565b600060208284031215610a1f57610a1e61054f565b5b6000610a2d848285016105a2565b91505092915050565b600081519050919050565b600082825260208201905092915050565b60005b83811015610a70578082015181840152602081019050610a55565b83811115610a7f576000848401525b50505050565b6000610a9082610a36565b610a9a8185610a41565b9350610aaa818560208601610a52565b610ab3816105bc565b840191505092915050565b610ac781610707565b82525050565b60006060830160008301518482036000860152610aea8282610a85565b91505060208301518482036020860152610b048282610a85565b9150506040830151610b196040860182610abe565b508091505092915050565b610b2d816107db565b82525050565b6000610100830160008301518482036000860152610b518282610a85565b91505060208301518482036020860152610b6b8282610a85565b91505060408301518482036040860152610b858282610a85565b91505060608301518482036060860152610b9f8282610a85565b91505060808301518482036080860152610bb98282610a85565b91505060a083015184820360a0860152610bd38282610acd565b91505060c0830151610be860c0860182610b24565b5060e0830151610bfb60e0860182610abe565b508091505092915050565b60006020820190508181036000830152610c208184610b33565b905092915050565b6000604082019050610c3d60008301856109df565b8181036020830152610c4f8184610b33565b90509392505050565b600082825260208201905092915050565b7f656e74726f206120636f6e73756c746172000000000000000000000000000000600082015250565b6000610c9f601183610c58565b9150610caa82610c69565b602082019050919050565b60006020820190508181036000830152610cce81610c92565b9050919050565b6000610ce8610ce384610657565b61062d565b905082815260208101848484011115610d0457610d03610652565b5b610d0f848285610a52565b509392505050565b600082601f830112610d2c57610d2b61064d565b5b8151610d3c848260208601610cd5565b91505092915050565b600081519050610d5481610713565b92915050565b600060608284031215610d7057610d6f6105b7565b5b610d7a606061062d565b9050600082015167ffffffffffffffff811115610d9a57610d99610648565b5b610da684828501610d17565b600083015250602082015167ffffffffffffffff811115610dca57610dc9610648565b5b610dd684828501610d17565b6020830152506040610dea84828501610d45565b60408301525092915050565b600081519050610e05816107e5565b92915050565b60006101008284031215610e2257610e216105b7565b5b610e2d61010061062d565b9050600082015167ffffffffffffffff811115610e4d57610e4c610648565b5b610e5984828501610d17565b600083015250602082015167ffffffffffffffff811115610e7d57610e7c610648565b5b610e8984828501610d17565b602083015250604082015167ffffffffffffffff811115610ead57610eac610648565b5b610eb984828501610d17565b604083015250606082015167ffffffffffffffff811115610edd57610edc610648565b5b610ee984828501610d17565b606083015250608082015167ffffffffffffffff811115610f0d57610f0c610648565b5b610f1984828501610d17565b60808301525060a082015167ffffffffffffffff811115610f3d57610f3c610648565b5b610f4984828501610d5a565b60a08301525060c0610f5d84828501610df6565b60c08301525060e0610f7184828501610d45565b60e08301525092915050565b600060208284031215610f9357610f9261054f565b5b600082015167ffffffffffffffff811115610fb157610fb0610554565b5b610fbd84828501610e0b565b91505092915050565b7f457374612066756e63696f6e20736f6c6f2070756564652073657220656a656360008201527f757461646120706f7220656c2063726561646f722064656c20636f6e7472617460208201527f6f00000000000000000000000000000000000000000000000000000000000000604082015250565b6000611048604183610c58565b915061105382610fc6565b606082019050919050565b600060208201905081810360008301526110778161103b565b905091905056fea26469706673582212203c73d355984f441e7e9dae039a1e0e41277fa6f33d2fbb960262f12a3ed3d96c64736f6c634300080b0033",
  "immutableReferences": {},
  "source": "// SPDX-License-Identifier: MIT\npragma solidity ^0.8.10;\n\nimport \"./Usuario.sol\";\nimport \"../models/PersonaStruct.sol\";\nimport \"../persistence/PersonaDAO.sol\";\n\n// NOTE: se deja el abstrac contract justo con sus hijos por cuestiones de ordenamiento de cdigo solidity, antes decia \"Definition of base has to precede definition of derived contract\"\n// TODO: verificar si se puede dejar como abstract\ncontract Persona {\n    event Log(string data);\n    address public creador;\n    address public PersonaDAOAddress;\n\n    // TODO: registrar la direccion del contrato personaDAO\n    PersonaDAO private personaDao;\n\n    constructor() {\n        creador = msg.sender;\n    }\n\n    // TODO: agregar modifier para retornar un revert ms bonito, para cuando la direccion del dao sea invalida\n    function consultar(address direccion)\n        external\n        returns (PersonaStruct memory)\n    {\n        emit Log(\"entro a consultar\");\n        return personaDao.consultar(direccion);\n        /*try personaDao.consultar(direccion) returns (\n            PersonaStruct memory persona\n        ) {\n            emit Log(\"encontro la persona\");\n            // TODO: validar si esta activa\n            return persona;\n        } catch Error(string memory e) {\n            emit Log(e);\n            emit Log(\"se rompio por un revert o require\"); // TODO: ver si puedo obtener info de e y reusarla\n            revert(\"No existe ese paciente\");\n        }*/\n    }\n\n    function registrar(address direccion, PersonaStruct memory persona) public {\n        personaDao.guardar(direccion, persona);\n        /*try personaDao.guardar(direccion, persona) {\n            emit Log(\"Se guarda la persona correctamente\");\n        } catch Error(string memory data) {\n            /*reason*/\n           /* emit Log(\"se rompio por un revert o require\");\n            emit Log(data);\n        }*/\n    }\n\n    function setContratoPersonaDAOAddress(address direccion) public esPropietario {\n        PersonaDAOAddress = direccion;\n        personaDao = PersonaDAO(PersonaDAOAddress);\n    }\n\n    modifier esPropietario() {\n        // NOTE: Los string no pueden llevar acentos, encontrar una forma de usarlos\n        require(\n            msg.sender == creador,\n            \"Esta funcion solo puede ser ejecutada por el creador del contrato\"\n        );\n        _; // ac se ejecuta la funcin\n    }\n\n    function selfDestruct() public esPropietario {\n        selfdestruct(payable(creador));\n    }\n}\n",
  "sourcePath": "/home/felipe/Documentos/Blockchain/codigo/back-hce/contracts/logica/Persona.sol",
  "compiler": {
    "name": "solc",
    "version": "0.8.11+commit.d7f03943.Emscripten.clang"
  },
  "schemaVersion": "3.4.4",
  "updatedAt": "2022-02-14T04:08:08.735Z",
  "networkType": "ethereum",
  "devdoc": {
    "kind": "dev",
    "methods": {},
    "version": 1
  },
  "userdoc": {
    "kind": "user",
    "methods": {},
    "version": 1
  }
}