{
  "contractName": "ProcedimientoQuirurgicoVO",
  "abi": [
    {
      "inputs": [],
      "name": "creador",
      "outputs": [
        {
          "internalType": "address",
          "name": "",
          "type": "address"
        }
      ],
      "stateMutability": "view",
      "type": "function"
    },
    {
      "inputs": [],
      "name": "getCodPrestadorServicioDeSalud",
      "outputs": [
        {
          "internalType": "address",
          "name": "",
          "type": "address"
        }
      ],
      "stateMutability": "view",
      "type": "function"
    },
    {
      "inputs": [],
      "name": "getFechaRegistro",
      "outputs": [
        {
          "internalType": "int256",
          "name": "",
          "type": "int256"
        }
      ],
      "stateMutability": "view",
      "type": "function"
    },
    {
      "inputs": [],
      "name": "getId",
      "outputs": [
        {
          "internalType": "uint256",
          "name": "",
          "type": "uint256"
        }
      ],
      "stateMutability": "view",
      "type": "function"
    },
    {
      "inputs": [],
      "name": "getRegistroMedico",
      "outputs": [
        {
          "components": [
            {
              "internalType": "uint256",
              "name": "id",
              "type": "uint256"
            },
            {
              "internalType": "address",
              "name": "codPrestadorServicioDeSalud",
              "type": "address"
            },
            {
              "internalType": "int256",
              "name": "fechaRegistro",
              "type": "int256"
            },
            {
              "internalType": "enum TipoRegistroMedico",
              "name": "tipoRegistroMedico",
              "type": "uint8"
            }
          ],
          "internalType": "struct RegistroMedico.RegistroMedicoStruct",
          "name": "",
          "type": "tuple"
        }
      ],
      "stateMutability": "view",
      "type": "function"
    },
    {
      "inputs": [],
      "name": "getTipoRegistroMedico",
      "outputs": [
        {
          "internalType": "enum TipoRegistroMedico",
          "name": "",
          "type": "uint8"
        }
      ],
      "stateMutability": "view",
      "type": "function"
    },
    {
      "inputs": [],
      "name": "selfDestruct",
      "outputs": [],
      "stateMutability": "nonpayable",
      "type": "function"
    },
    {
      "inputs": [
        {
          "internalType": "address",
          "name": "_codPrestadorServicioDeSalud",
          "type": "address"
        }
      ],
      "name": "setCodPrestadorServicioDeSalud",
      "outputs": [],
      "stateMutability": "nonpayable",
      "type": "function"
    },
    {
      "inputs": [
        {
          "internalType": "int256",
          "name": "_fechaRegistro",
          "type": "int256"
        }
      ],
      "name": "setFechaRegistro",
      "outputs": [],
      "stateMutability": "nonpayable",
      "type": "function"
    },
    {
      "inputs": [
        {
          "internalType": "uint256",
          "name": "_id",
          "type": "uint256"
        }
      ],
      "name": "setId",
      "outputs": [],
      "stateMutability": "nonpayable",
      "type": "function"
    },
    {
      "inputs": [
        {
          "components": [
            {
              "internalType": "uint256",
              "name": "id",
              "type": "uint256"
            },
            {
              "internalType": "address",
              "name": "codPrestadorServicioDeSalud",
              "type": "address"
            },
            {
              "internalType": "int256",
              "name": "fechaRegistro",
              "type": "int256"
            },
            {
              "internalType": "enum TipoRegistroMedico",
              "name": "tipoRegistroMedico",
              "type": "uint8"
            }
          ],
          "internalType": "struct RegistroMedico.RegistroMedicoStruct",
          "name": "registro",
          "type": "tuple"
        }
      ],
      "name": "setRegistroMedico",
      "outputs": [],
      "stateMutability": "nonpayable",
      "type": "function"
    },
    {
      "inputs": [
        {
          "internalType": "enum TipoRegistroMedico",
          "name": "_tipoRegistroMedico",
          "type": "uint8"
        }
      ],
      "name": "setTipoRegistroMedico",
      "outputs": [],
      "stateMutability": "nonpayable",
      "type": "function"
    },
    {
      "inputs": [],
      "name": "getAmbitoProcedimiento",
      "outputs": [
        {
          "internalType": "uint256",
          "name": "",
          "type": "uint256"
        }
      ],
      "stateMutability": "view",
      "type": "function"
    },
    {
      "inputs": [],
      "name": "getComplicacion",
      "outputs": [
        {
          "internalType": "string",
          "name": "",
          "type": "string"
        }
      ],
      "stateMutability": "view",
      "type": "function"
    },
    {
      "inputs": [],
      "name": "getProcedimiento",
      "outputs": [
        {
          "components": [
            {
              "internalType": "string",
              "name": "nombre",
              "type": "string"
            },
            {
              "internalType": "string",
              "name": "descripcion",
              "type": "string"
            },
            {
              "internalType": "bool",
              "name": "estaActiva",
              "type": "bool"
            }
          ],
          "internalType": "struct ClaseProcedimientoStruct",
          "name": "",
          "type": "tuple"
        }
      ],
      "stateMutability": "view",
      "type": "function"
    },
    {
      "inputs": [],
      "name": "getFormaRealizacionProcedimientoQuirurgico",
      "outputs": [
        {
          "internalType": "string",
          "name": "",
          "type": "string"
        }
      ],
      "stateMutability": "view",
      "type": "function"
    },
    {
      "inputs": [],
      "name": "getDiagnosticoPrincipal",
      "outputs": [
        {
          "internalType": "string",
          "name": "",
          "type": "string"
        }
      ],
      "stateMutability": "view",
      "type": "function"
    },
    {
      "inputs": [],
      "name": "getDiagnosticoRelacionado",
      "outputs": [
        {
          "internalType": "string",
          "name": "",
          "type": "string"
        }
      ],
      "stateMutability": "view",
      "type": "function"
    },
    {
      "inputs": [],
      "name": "getFechaProcedimiento",
      "outputs": [
        {
          "internalType": "int256",
          "name": "",
          "type": "int256"
        }
      ],
      "stateMutability": "view",
      "type": "function"
    },
    {
      "inputs": [],
      "name": "getFinalidadProcedimiento",
      "outputs": [
        {
          "components": [
            {
              "internalType": "string",
              "name": "nombre",
              "type": "string"
            },
            {
              "internalType": "string",
              "name": "descripcion",
              "type": "string"
            },
            {
              "internalType": "bool",
              "name": "estaActiva",
              "type": "bool"
            }
          ],
          "internalType": "struct TipoProcedimientoStruct",
          "name": "",
          "type": "tuple"
        }
      ],
      "stateMutability": "view",
      "type": "function"
    },
    {
      "inputs": [],
      "name": "getProcedimientoQuirurgicoStruct",
      "outputs": [
        {
          "components": [
            {
              "internalType": "uint256",
              "name": "ambitoProcedimiento",
              "type": "uint256"
            },
            {
              "internalType": "string",
              "name": "complicacion",
              "type": "string"
            },
            {
              "components": [
                {
                  "internalType": "string",
                  "name": "nombre",
                  "type": "string"
                },
                {
                  "internalType": "string",
                  "name": "descripcion",
                  "type": "string"
                },
                {
                  "internalType": "bool",
                  "name": "estaActiva",
                  "type": "bool"
                }
              ],
              "internalType": "struct ClaseProcedimientoStruct",
              "name": "procedimiento",
              "type": "tuple"
            },
            {
              "internalType": "string",
              "name": "formaRealizacionProcedimientoQuirurgico",
              "type": "string"
            },
            {
              "internalType": "string",
              "name": "diagnosticoPrincipal",
              "type": "string"
            },
            {
              "internalType": "string",
              "name": "diagnosticoRelacionado",
              "type": "string"
            },
            {
              "internalType": "int256",
              "name": "fechaProcedimiento",
              "type": "int256"
            },
            {
              "components": [
                {
                  "internalType": "string",
                  "name": "nombre",
                  "type": "string"
                },
                {
                  "internalType": "string",
                  "name": "descripcion",
                  "type": "string"
                },
                {
                  "internalType": "bool",
                  "name": "estaActiva",
                  "type": "bool"
                }
              ],
              "internalType": "struct TipoProcedimientoStruct",
              "name": "finalidadProcedimiento",
              "type": "tuple"
            }
          ],
          "internalType": "struct ProcedimientoQuirurgicoVO.ProcedimientoQuirurgicoStruct",
          "name": "",
          "type": "tuple"
        }
      ],
      "stateMutability": "view",
      "type": "function"
    },
    {
      "inputs": [
        {
          "components": [
            {
              "internalType": "uint256",
              "name": "ambitoProcedimiento",
              "type": "uint256"
            },
            {
              "internalType": "string",
              "name": "complicacion",
              "type": "string"
            },
            {
              "components": [
                {
                  "internalType": "string",
                  "name": "nombre",
                  "type": "string"
                },
                {
                  "internalType": "string",
                  "name": "descripcion",
                  "type": "string"
                },
                {
                  "internalType": "bool",
                  "name": "estaActiva",
                  "type": "bool"
                }
              ],
              "internalType": "struct ClaseProcedimientoStruct",
              "name": "procedimiento",
              "type": "tuple"
            },
            {
              "internalType": "string",
              "name": "formaRealizacionProcedimientoQuirurgico",
              "type": "string"
            },
            {
              "internalType": "string",
              "name": "diagnosticoPrincipal",
              "type": "string"
            },
            {
              "internalType": "string",
              "name": "diagnosticoRelacionado",
              "type": "string"
            },
            {
              "internalType": "int256",
              "name": "fechaProcedimiento",
              "type": "int256"
            },
            {
              "components": [
                {
                  "internalType": "string",
                  "name": "nombre",
                  "type": "string"
                },
                {
                  "internalType": "string",
                  "name": "descripcion",
                  "type": "string"
                },
                {
                  "internalType": "bool",
                  "name": "estaActiva",
                  "type": "bool"
                }
              ],
              "internalType": "struct TipoProcedimientoStruct",
              "name": "finalidadProcedimiento",
              "type": "tuple"
            }
          ],
          "internalType": "struct ProcedimientoQuirurgicoVO.ProcedimientoQuirurgicoStruct",
          "name": "_procedimientoQuirurgicoStruct",
          "type": "tuple"
        }
      ],
      "name": "setProcedimientoQuirurgicoStruct",
      "outputs": [],
      "stateMutability": "nonpayable",
      "type": "function"
    },
    {
      "inputs": [
        {
          "internalType": "uint256",
          "name": "_ambitoProcedimiento",
          "type": "uint256"
        }
      ],
      "name": "setAmbitoProcedimiento",
      "outputs": [],
      "stateMutability": "nonpayable",
      "type": "function"
    },
    {
      "inputs": [
        {
          "internalType": "string",
          "name": "_complicacion",
          "type": "string"
        }
      ],
      "name": "setComplicacion",
      "outputs": [],
      "stateMutability": "nonpayable",
      "type": "function"
    },
    {
      "inputs": [
        {
          "components": [
            {
              "internalType": "string",
              "name": "nombre",
              "type": "string"
            },
            {
              "internalType": "string",
              "name": "descripcion",
              "type": "string"
            },
            {
              "internalType": "bool",
              "name": "estaActiva",
              "type": "bool"
            }
          ],
          "internalType": "struct ClaseProcedimientoStruct",
          "name": "_procedimiento",
          "type": "tuple"
        }
      ],
      "name": "setProcedimiento",
      "outputs": [],
      "stateMutability": "nonpayable",
      "type": "function"
    },
    {
      "inputs": [
        {
          "internalType": "string",
          "name": "_formaRealizacionProcedimientoQuirurgico",
          "type": "string"
        }
      ],
      "name": "setFormaRealizacionProcedimientoQuirurgico",
      "outputs": [],
      "stateMutability": "nonpayable",
      "type": "function"
    },
    {
      "inputs": [
        {
          "internalType": "string",
          "name": "_diagnosticoPrincipal",
          "type": "string"
        }
      ],
      "name": "setDiagnosticoPrincipal",
      "outputs": [],
      "stateMutability": "nonpayable",
      "type": "function"
    },
    {
      "inputs": [
        {
          "internalType": "string",
          "name": "_diagnosticoRelacionado",
          "type": "string"
        }
      ],
      "name": "setDiagnosticoRelacionado",
      "outputs": [],
      "stateMutability": "nonpayable",
      "type": "function"
    },
    {
      "inputs": [
        {
          "internalType": "int256",
          "name": "_fechaProcedimiento",
          "type": "int256"
        }
      ],
      "name": "setFechaProcedimiento",
      "outputs": [],
      "stateMutability": "nonpayable",
      "type": "function"
    }
  ],
  "bytecode": "0x608060405234801561001057600080fd5b506004805460ff1916600d1790556116d18061002d6000396000f3fe608060405234801561001057600080fd5b50600436106101cf5760003560e01c8063803a56ec11610104578063b5bfa179116100a2578063dcf06ebd11610071578063dcf06ebd146103bf578063e38bcd64146103c7578063e8c0ed09146103da578063f3516188146103ed57600080fd5b8063b5bfa1791461037e578063ca3c5a1314610391578063ce641da2146103a4578063d0e0ba95146103ac57600080fd5b806392ebdcd2116100de57806392ebdcd21461032757806393be08ef146103525780639cb8a26a146103635780639ea585a61461036b57600080fd5b8063803a56ec146102cd57806388b906cf1461030a5780638db24cef1461031257600080fd5b80635c82b4d1116101715780636322439b1161014b5780636322439b14610295578063694e33921461029d5780637545c2f8146102b25780637e79ef1f146102ba57600080fd5b80635c82b4d1146102655780635d1ca6311461027a5780635f3774d41461028257600080fd5b806326980d9b116101ad57806326980d9b146102195780633d12bc531461022c5780633e74bb3f1461023f57806344517a9a1461025257600080fd5b8063045c7bbe146101d45780630bcacc1b146101e95780631b59abb914610207575b600080fd5b6101e76101e2366004610f3a565b600355565b005b6101f16103f5565b6040516101fe9190610f8b565b60405180910390f35b6003545b6040519081526020016101fe565b6101e761022736600461109a565b61044a565b6101e761023a36600461109a565b61045a565b6101e761024d36600461117a565b610466565b60045460ff166040516101fe91906111af565b61026d6104ad565b6040516101fe9190611209565b60015461020b565b6101e761029036600461124e565b610541565b61026d6105ad565b6102a56105bf565b6040516101fe9190611304565b60055461020b565b6101e76102c8366004610f3a565b600d55565b6101e76102db3660046113d3565b6002805473ffffffffffffffffffffffffffffffffffffffff19166001600160a01b0392909216919091179055565b600d5461020b565b61031a610ac7565b6040516101fe91906113ee565b60005461033a906001600160a01b031681565b6040516001600160a01b0390911681526020016101fe565b6002546001600160a01b031661033a565b6101e7610c29565b6101e7610379366004611401565b610cfb565b6101e761038c366004610f3a565b600555565b6101e761039f366004611537565b610df8565b61026d610e17565b6101e76103ba366004610f3a565b600155565b61026d610e29565b6101e76103d536600461109a565b610e3b565b6101e76103e836600461109a565b610e47565b61031a610e53565b6103fd610e8b565b6040805160808101825260015481526002546001600160a01b0316602082015260035491810191909152600454606082019060ff16601281111561044357610443610f53565b9052919050565b600a61045682826115db565b5050565b600c61045682826115db565b80518190600790819061047990826115db565b506020820151600182019061048e90826115db565b50604091909101516002909101805460ff191691151591909117905550565b60606005800180546104be90611552565b80601f01602080910402602001604051908101604052809291908181526020018280546104ea90611552565b80156105375780601f1061050c57610100808354040283529160200191610537565b820191906000526020600020905b81548152906001019060200180831161051a57829003601f168201915b5050505050905090565b8051600190815560208201516002805473ffffffffffffffffffffffffffffffffffffffff19166001600160a01b0390921691909117905560408201516003556060820151600480549192909160ff1916908360128111156105a5576105a5610f53565b021790555050565b6060600560070180546104be90611552565b6105c7610eb3565b604080516101008101909152600580548252600680546020840191906105ec90611552565b80601f016020809104026020016040519081016040528092919081815260200182805461061890611552565b80156106655780601f1061063a57610100808354040283529160200191610665565b820191906000526020600020905b81548152906001019060200180831161064857829003601f168201915b505050505081526020016002820160405180606001604052908160008201805461068e90611552565b80601f01602080910402602001604051908101604052809291908181526020018280546106ba90611552565b80156107075780601f106106dc57610100808354040283529160200191610707565b820191906000526020600020905b8154815290600101906020018083116106ea57829003601f168201915b5050505050815260200160018201805461072090611552565b80601f016020809104026020016040519081016040528092919081815260200182805461074c90611552565b80156107995780601f1061076e57610100808354040283529160200191610799565b820191906000526020600020905b81548152906001019060200180831161077c57829003601f168201915b50505091835250506002919091015460ff16151560209182015290825260058301805492909101916107ca90611552565b80601f01602080910402602001604051908101604052809291908181526020018280546107f690611552565b80156108435780601f1061081857610100808354040283529160200191610843565b820191906000526020600020905b81548152906001019060200180831161082657829003601f168201915b5050505050815260200160068201805461085c90611552565b80601f016020809104026020016040519081016040528092919081815260200182805461088890611552565b80156108d55780601f106108aa576101008083540402835291602001916108d5565b820191906000526020600020905b8154815290600101906020018083116108b857829003601f168201915b505050505081526020016007820180546108ee90611552565b80601f016020809104026020016040519081016040528092919081815260200182805461091a90611552565b80156109675780601f1061093c57610100808354040283529160200191610967565b820191906000526020600020905b81548152906001019060200180831161094a57829003601f168201915b50505050508152602001600882015481526020016009820160405180606001604052908160008201805461099a90611552565b80601f01602080910402602001604051908101604052809291908181526020018280546109c690611552565b8015610a135780601f106109e857610100808354040283529160200191610a13565b820191906000526020600020905b8154815290600101906020018083116109f657829003601f168201915b50505050508152602001600182018054610a2c90611552565b80601f0160208091040260200160405190810160405280929190818152602001828054610a5890611552565b8015610aa55780601f10610a7a57610100808354040283529160200191610aa5565b820191906000526020600020905b815481529060010190602001808311610a8857829003601f168201915b50505091835250506002919091015460ff161515602090910152905250919050565b6040805160608082018352808252602082015260009181019190915260408051606081019091526007805482908290610aff90611552565b80601f0160208091040260200160405190810160405280929190818152602001828054610b2b90611552565b8015610b785780601f10610b4d57610100808354040283529160200191610b78565b820191906000526020600020905b815481529060010190602001808311610b5b57829003601f168201915b50505050508152602001600182018054610b9190611552565b80601f0160208091040260200160405190810160405280929190818152602001828054610bbd90611552565b8015610c0a5780601f10610bdf57610100808354040283529160200191610c0a565b820191906000526020600020905b815481529060010190602001808311610bed57829003601f168201915b50505091835250506002919091015460ff161515602090910152919050565b6000546001600160a01b03163314610ced576040517f08c379a000000000000000000000000000000000000000000000000000000000815260206004820152604160248201527f457374612066756e63696f6e20736f6c6f2070756564652073657220656a656360448201527f757461646120706f7220656c2063726561646f722064656c20636f6e7472617460648201527f6f00000000000000000000000000000000000000000000000000000000000000608482015260a40160405180910390fd5b6000546001600160a01b0316ff5b805160059081556020820151829190600690610d1790826115db565b506040820151805160028301908190610d3090826115db565b5060208201516001820190610d4590826115db565b50604091909101516002909101805460ff191691151591909117905560608201516005820190610d7590826115db565b5060808201516006820190610d8a90826115db565b5060a08201516007820190610d9f90826115db565b5060c0820151600882015560e0820151805160098301908190610dc290826115db565b5060208201516001820190610dd790826115db565b50604091909101516002909101805460ff1916911515919091179055505050565b6004805482919060ff191660018360128111156105a5576105a5610f53565b6060600560010180546104be90611552565b6060600560060180546104be90611552565b600b61045682826115db565b600661045682826115db565b604080516060808201835280825260208201526000918101919091526040805160608101909152600e805482908290610aff90611552565b604080516080810182526000808252602082018190529181018290529060608201905b905290565b6040518061010001604052806000815260200160608152602001610ef3604051806060016040528060608152602001606081526020016000151581525090565b815260200160608152602001606081526020016060815260200160008152602001610eae604051806060016040528060608152602001606081526020016000151581525090565b600060208284031215610f4c57600080fd5b5035919050565b634e487b7160e01b600052602160045260246000fd5b60138110610f8757634e487b7160e01b600052602160045260246000fd5b9052565b6000608082019050825182526001600160a01b036020840151166020830152604083015160408301526060830151610fc66060840182610f69565b5092915050565b634e487b7160e01b600052604160045260246000fd5b604051610100810167ffffffffffffffff8111828210171561100757611007610fcd565b60405290565b600082601f83011261101e57600080fd5b813567ffffffffffffffff8082111561103957611039610fcd565b604051601f8301601f19908116603f0116810190828211818310171561106157611061610fcd565b8160405283815286602085880101111561107a57600080fd5b836020870160208301376000602085830101528094505050505092915050565b6000602082840312156110ac57600080fd5b813567ffffffffffffffff8111156110c357600080fd5b6110cf8482850161100d565b949350505050565b6000606082840312156110e957600080fd5b6040516060810167ffffffffffffffff828210818311171561110d5761110d610fcd565b81604052829350843591508082111561112557600080fd5b6111318683870161100d565b8352602085013591508082111561114757600080fd5b506111548582860161100d565b6020830152506040830135801515811461116d57600080fd5b6040919091015292915050565b60006020828403121561118c57600080fd5b813567ffffffffffffffff8111156111a357600080fd5b6110cf848285016110d7565b602081016111bd8284610f69565b92915050565b6000815180845260005b818110156111e9576020818501810151868301820152016111cd565b506000602082860101526020601f19601f83011685010191505092915050565b60208152600061121c60208301846111c3565b9392505050565b80356001600160a01b038116811461123a57600080fd5b919050565b80356013811061123a57600080fd5b60006080828403121561126057600080fd5b6040516080810181811067ffffffffffffffff8211171561128357611283610fcd565b6040528235815261129660208401611223565b6020820152604083013560408201526112b16060840161123f565b60608201529392505050565b60008151606084526112d260608501826111c3565b9050602083015184820360208601526112eb82826111c3565b9150506040830151151560408501528091505092915050565b60208152815160208201526000602083015161010080604085015261132d6101208501836111c3565b91506040850151601f198086850301606087015261134b84836112bd565b9350606087015191508086850301608087015261136884836111c3565b935060808701519150808685030160a087015261138584836111c3565b935060a08701519150808685030160c08701526113a284836111c3565b935060c087015160e087015260e08701519150808685030183870152506113c983826112bd565b9695505050505050565b6000602082840312156113e557600080fd5b61121c82611223565b60208152600061121c60208301846112bd565b60006020828403121561141357600080fd5b813567ffffffffffffffff8082111561142b57600080fd5b90830190610100828603121561144057600080fd5b611448610fe3565b8235815260208301358281111561145e57600080fd5b61146a8782860161100d565b60208301525060408301358281111561148257600080fd5b61148e878286016110d7565b6040830152506060830135828111156114a657600080fd5b6114b28782860161100d565b6060830152506080830135828111156114ca57600080fd5b6114d68782860161100d565b60808301525060a0830135828111156114ee57600080fd5b6114fa8782860161100d565b60a08301525060c083013560c082015260e08301358281111561151c57600080fd5b611528878286016110d7565b60e08301525095945050505050565b60006020828403121561154957600080fd5b61121c8261123f565b600181811c9082168061156657607f821691505b60208210810361158657634e487b7160e01b600052602260045260246000fd5b50919050565b601f8211156115d657600081815260208120601f850160051c810160208610156115b35750805b601f850160051c820191505b818110156115d2578281556001016115bf565b5050505b505050565b815167ffffffffffffffff8111156115f5576115f5610fcd565b611609816116038454611552565b8461158c565b602080601f83116001811461163e57600084156116265750858301515b600019600386901b1c1916600185901b1785556115d2565b600085815260208120601f198616915b8281101561166d5788860151825594840194600190910190840161164e565b508582101561168b5787850151600019600388901b60f8161c191681555b5050505050600190811b0190555056fea2646970667358221220f3d3915f2b27c48f9d2b7fdae4ea4b230d230756bd38f0c47d5a3eef343fbf2464736f6c63430008110033",
  "immutableReferences": {},
  "source": "// SPDX-License-Identifier: MIT\npragma solidity ^0.8.17;\n\nimport \"./RegistroMedico.sol\";\nimport \"../structsGenerales/ProcedimientosStruct.sol\";\n\ncontract ProcedimientoQuirurgicoVO is RegistroMedico (TipoRegistroMedico.PROCEDIMIENTOQUIRURGICOVO) {\n    struct ProcedimientoQuirurgicoStruct {\n        uint ambitoProcedimiento;\n        string complicacion;\n        ClaseProcedimientoStruct procedimiento;\n        string formaRealizacionProcedimientoQuirurgico;\n        string diagnosticoPrincipal;\n        string diagnosticoRelacionado;        \n        int256 fechaProcedimiento;\n        TipoProcedimientoStruct finalidadProcedimiento;\n    }\n\n    ProcedimientoQuirurgicoStruct private procedimientoQuirurgicoStruct;\n\n    function getAmbitoProcedimiento() public view returns (uint256) {\n        return procedimientoQuirurgicoStruct.ambitoProcedimiento;\n    }\n\n    function getComplicacion() public view returns (string memory) {\n        return procedimientoQuirurgicoStruct.complicacion;\n    }\n\n    function getProcedimiento() public view returns (ClaseProcedimientoStruct memory) {\n        return procedimientoQuirurgicoStruct.procedimiento;\n    }\n\n    function getFormaRealizacionProcedimientoQuirurgico() public view returns (string memory) {\n        return procedimientoQuirurgicoStruct.formaRealizacionProcedimientoQuirurgico;\n    }\n\n    function getDiagnosticoPrincipal() public view returns (string memory) {\n        return procedimientoQuirurgicoStruct.diagnosticoPrincipal;\n    }\n\n    function getDiagnosticoRelacionado() public view returns (string memory) {\n        return procedimientoQuirurgicoStruct.diagnosticoRelacionado;\n    }\n\n    function getFechaProcedimiento() public view returns (int256) {\n        return procedimientoQuirurgicoStruct.fechaProcedimiento;\n    }\n\n    function getFinalidadProcedimiento() public view returns (TipoProcedimientoStruct memory) {\n        return procedimientoQuirurgicoStruct.finalidadProcedimiento;\n    }\n\n    function getProcedimientoQuirurgicoStruct()\n        public\n        view\n        returns (ProcedimientoQuirurgicoStruct memory)\n    {\n        return procedimientoQuirurgicoStruct;\n    }\n\n    function setProcedimientoQuirurgicoStruct(\n        ProcedimientoQuirurgicoStruct memory _procedimientoQuirurgicoStruct\n    ) public {\n        procedimientoQuirurgicoStruct = _procedimientoQuirurgicoStruct;\n    }\n\n    function setAmbitoProcedimiento(uint256 _ambitoProcedimiento) public {\n        procedimientoQuirurgicoStruct.ambitoProcedimiento = _ambitoProcedimiento;\n    }\n\n    function setComplicacion(string memory _complicacion) public {\n        procedimientoQuirurgicoStruct.complicacion = _complicacion;\n    }\n\n    function setProcedimiento(ClaseProcedimientoStruct memory _procedimiento) public {\n        procedimientoQuirurgicoStruct.procedimiento = _procedimiento;\n    }    \n\n    function setFormaRealizacionProcedimientoQuirurgico(string memory _formaRealizacionProcedimientoQuirurgico) public {\n        procedimientoQuirurgicoStruct.formaRealizacionProcedimientoQuirurgico = _formaRealizacionProcedimientoQuirurgico;\n    }\n\n    function setDiagnosticoPrincipal(string memory _diagnosticoPrincipal) public {\n        procedimientoQuirurgicoStruct.diagnosticoPrincipal = _diagnosticoPrincipal;\n    }\n\n    function setDiagnosticoRelacionado(string memory _diagnosticoRelacionado) public {\n        procedimientoQuirurgicoStruct.diagnosticoRelacionado = _diagnosticoRelacionado;\n    }\n\n    function setFechaProcedimiento(int256 _fechaProcedimiento) public {\n        procedimientoQuirurgicoStruct.fechaProcedimiento = _fechaProcedimiento;\n    }\n}\n",
  "sourcePath": "/back/contracts/models/historiaClinica/ProcedimientoQuirurgicoVO.sol",
  "compiler": {
    "name": "solc",
    "version": "0.8.17+commit.8df45f5f.Emscripten.clang"
  },
  "schemaVersion": "3.4.13",
  "updatedAt": "2023-05-03T22:18:40.936Z",
  "devdoc": {
    "kind": "dev",
    "methods": {},
    "version": 1
  },
  "userdoc": {
    "kind": "user",
    "methods": {},
    "version": 1
  }
}