{
  "contractName": "ProcedimientoQuirurgicoVO",
  "abi": [
    {
      "inputs": [],
      "name": "creador",
      "outputs": [
        {
          "internalType": "address",
          "name": "",
          "type": "address"
        }
      ],
      "stateMutability": "view",
      "type": "function"
    },
    {
      "inputs": [],
      "name": "getCodPrestadorServicioDeSalud",
      "outputs": [
        {
          "internalType": "address",
          "name": "",
          "type": "address"
        }
      ],
      "stateMutability": "view",
      "type": "function"
    },
    {
      "inputs": [],
      "name": "getFechaRegistro",
      "outputs": [
        {
          "internalType": "uint256",
          "name": "",
          "type": "uint256"
        }
      ],
      "stateMutability": "view",
      "type": "function"
    },
    {
      "inputs": [],
      "name": "getId",
      "outputs": [
        {
          "internalType": "uint256",
          "name": "",
          "type": "uint256"
        }
      ],
      "stateMutability": "view",
      "type": "function"
    },
    {
      "inputs": [],
      "name": "getRegistroMedico",
      "outputs": [
        {
          "components": [
            {
              "internalType": "uint256",
              "name": "id",
              "type": "uint256"
            },
            {
              "internalType": "address",
              "name": "codPrestadorServicioDeSalud",
              "type": "address"
            },
            {
              "internalType": "uint256",
              "name": "fechaRegistro",
              "type": "uint256"
            },
            {
              "internalType": "enum TipoRegistroMedico",
              "name": "tipoRegistroMedico",
              "type": "uint8"
            }
          ],
          "internalType": "struct RegistroMedico.RegistroMedicoStruct",
          "name": "",
          "type": "tuple"
        }
      ],
      "stateMutability": "view",
      "type": "function"
    },
    {
      "inputs": [],
      "name": "getTipoRegistroMedico",
      "outputs": [
        {
          "internalType": "enum TipoRegistroMedico",
          "name": "",
          "type": "uint8"
        }
      ],
      "stateMutability": "view",
      "type": "function"
    },
    {
      "inputs": [],
      "name": "selfDestruct",
      "outputs": [],
      "stateMutability": "nonpayable",
      "type": "function"
    },
    {
      "inputs": [
        {
          "internalType": "address",
          "name": "_codPrestadorServicioDeSalud",
          "type": "address"
        }
      ],
      "name": "setCodPrestadorServicioDeSalud",
      "outputs": [],
      "stateMutability": "nonpayable",
      "type": "function"
    },
    {
      "inputs": [
        {
          "internalType": "uint256",
          "name": "_fechaRegistro",
          "type": "uint256"
        }
      ],
      "name": "setFechaRegistro",
      "outputs": [],
      "stateMutability": "nonpayable",
      "type": "function"
    },
    {
      "inputs": [
        {
          "internalType": "uint256",
          "name": "_id",
          "type": "uint256"
        }
      ],
      "name": "setId",
      "outputs": [],
      "stateMutability": "nonpayable",
      "type": "function"
    },
    {
      "inputs": [
        {
          "components": [
            {
              "internalType": "uint256",
              "name": "id",
              "type": "uint256"
            },
            {
              "internalType": "address",
              "name": "codPrestadorServicioDeSalud",
              "type": "address"
            },
            {
              "internalType": "uint256",
              "name": "fechaRegistro",
              "type": "uint256"
            },
            {
              "internalType": "enum TipoRegistroMedico",
              "name": "tipoRegistroMedico",
              "type": "uint8"
            }
          ],
          "internalType": "struct RegistroMedico.RegistroMedicoStruct",
          "name": "registro",
          "type": "tuple"
        }
      ],
      "name": "setRegistroMedico",
      "outputs": [],
      "stateMutability": "nonpayable",
      "type": "function"
    },
    {
      "inputs": [
        {
          "internalType": "enum TipoRegistroMedico",
          "name": "_tipoRegistroMedico",
          "type": "uint8"
        }
      ],
      "name": "setTipoRegistroMedico",
      "outputs": [],
      "stateMutability": "nonpayable",
      "type": "function"
    },
    {
      "inputs": [],
      "name": "getAmbitoProcedimiento",
      "outputs": [
        {
          "internalType": "uint256",
          "name": "",
          "type": "uint256"
        }
      ],
      "stateMutability": "view",
      "type": "function"
    },
    {
      "inputs": [],
      "name": "getComplicacion",
      "outputs": [
        {
          "internalType": "string",
          "name": "",
          "type": "string"
        }
      ],
      "stateMutability": "view",
      "type": "function"
    },
    {
      "inputs": [],
      "name": "getProcedimiento",
      "outputs": [
        {
          "components": [
            {
              "internalType": "string",
              "name": "nombre",
              "type": "string"
            },
            {
              "internalType": "string",
              "name": "descripcion",
              "type": "string"
            },
            {
              "internalType": "bool",
              "name": "estaActiva",
              "type": "bool"
            }
          ],
          "internalType": "struct ClaseProcedimientoStruct",
          "name": "",
          "type": "tuple"
        }
      ],
      "stateMutability": "view",
      "type": "function"
    },
    {
      "inputs": [],
      "name": "getFormaRealizacionProcedimientoQuirurgico",
      "outputs": [
        {
          "internalType": "string",
          "name": "",
          "type": "string"
        }
      ],
      "stateMutability": "view",
      "type": "function"
    },
    {
      "inputs": [],
      "name": "getDiagnosticoPrincipal",
      "outputs": [
        {
          "internalType": "string",
          "name": "",
          "type": "string"
        }
      ],
      "stateMutability": "view",
      "type": "function"
    },
    {
      "inputs": [],
      "name": "getDiagnosticoRelacionado",
      "outputs": [
        {
          "internalType": "string",
          "name": "",
          "type": "string"
        }
      ],
      "stateMutability": "view",
      "type": "function"
    },
    {
      "inputs": [],
      "name": "getFechaProcedimiento",
      "outputs": [
        {
          "internalType": "uint256",
          "name": "",
          "type": "uint256"
        }
      ],
      "stateMutability": "view",
      "type": "function"
    },
    {
      "inputs": [],
      "name": "getFinalidadProcedimiento",
      "outputs": [
        {
          "components": [
            {
              "internalType": "string",
              "name": "nombre",
              "type": "string"
            },
            {
              "internalType": "string",
              "name": "descripcion",
              "type": "string"
            },
            {
              "internalType": "bool",
              "name": "estaActiva",
              "type": "bool"
            }
          ],
          "internalType": "struct TipoProcedimientoStruct",
          "name": "",
          "type": "tuple"
        }
      ],
      "stateMutability": "view",
      "type": "function"
    },
    {
      "inputs": [],
      "name": "getProcedimientoQuirurgicoStruct",
      "outputs": [
        {
          "components": [
            {
              "internalType": "uint256",
              "name": "ambitoProcedimiento",
              "type": "uint256"
            },
            {
              "internalType": "string",
              "name": "complicacion",
              "type": "string"
            },
            {
              "components": [
                {
                  "internalType": "string",
                  "name": "nombre",
                  "type": "string"
                },
                {
                  "internalType": "string",
                  "name": "descripcion",
                  "type": "string"
                },
                {
                  "internalType": "bool",
                  "name": "estaActiva",
                  "type": "bool"
                }
              ],
              "internalType": "struct ClaseProcedimientoStruct",
              "name": "procedimiento",
              "type": "tuple"
            },
            {
              "internalType": "string",
              "name": "formaRealizacionProcedimientoQuirurgico",
              "type": "string"
            },
            {
              "internalType": "string",
              "name": "diagnosticoPrincipal",
              "type": "string"
            },
            {
              "internalType": "string",
              "name": "diagnosticoRelacionado",
              "type": "string"
            },
            {
              "internalType": "uint256",
              "name": "fechaProcedimiento",
              "type": "uint256"
            },
            {
              "components": [
                {
                  "internalType": "string",
                  "name": "nombre",
                  "type": "string"
                },
                {
                  "internalType": "string",
                  "name": "descripcion",
                  "type": "string"
                },
                {
                  "internalType": "bool",
                  "name": "estaActiva",
                  "type": "bool"
                }
              ],
              "internalType": "struct TipoProcedimientoStruct",
              "name": "finalidadProcedimiento",
              "type": "tuple"
            }
          ],
          "internalType": "struct ProcedimientoQuirurgicoVO.ProcedimientoQuirurgicoStruct",
          "name": "",
          "type": "tuple"
        }
      ],
      "stateMutability": "view",
      "type": "function"
    },
    {
      "inputs": [
        {
          "components": [
            {
              "internalType": "uint256",
              "name": "ambitoProcedimiento",
              "type": "uint256"
            },
            {
              "internalType": "string",
              "name": "complicacion",
              "type": "string"
            },
            {
              "components": [
                {
                  "internalType": "string",
                  "name": "nombre",
                  "type": "string"
                },
                {
                  "internalType": "string",
                  "name": "descripcion",
                  "type": "string"
                },
                {
                  "internalType": "bool",
                  "name": "estaActiva",
                  "type": "bool"
                }
              ],
              "internalType": "struct ClaseProcedimientoStruct",
              "name": "procedimiento",
              "type": "tuple"
            },
            {
              "internalType": "string",
              "name": "formaRealizacionProcedimientoQuirurgico",
              "type": "string"
            },
            {
              "internalType": "string",
              "name": "diagnosticoPrincipal",
              "type": "string"
            },
            {
              "internalType": "string",
              "name": "diagnosticoRelacionado",
              "type": "string"
            },
            {
              "internalType": "uint256",
              "name": "fechaProcedimiento",
              "type": "uint256"
            },
            {
              "components": [
                {
                  "internalType": "string",
                  "name": "nombre",
                  "type": "string"
                },
                {
                  "internalType": "string",
                  "name": "descripcion",
                  "type": "string"
                },
                {
                  "internalType": "bool",
                  "name": "estaActiva",
                  "type": "bool"
                }
              ],
              "internalType": "struct TipoProcedimientoStruct",
              "name": "finalidadProcedimiento",
              "type": "tuple"
            }
          ],
          "internalType": "struct ProcedimientoQuirurgicoVO.ProcedimientoQuirurgicoStruct",
          "name": "_procedimientoQuirurgicoStruct",
          "type": "tuple"
        }
      ],
      "name": "setProcedimientoQuirurgicoStruct",
      "outputs": [],
      "stateMutability": "nonpayable",
      "type": "function"
    },
    {
      "inputs": [
        {
          "internalType": "uint256",
          "name": "_ambitoProcedimiento",
          "type": "uint256"
        }
      ],
      "name": "setAmbitoProcedimiento",
      "outputs": [],
      "stateMutability": "nonpayable",
      "type": "function"
    },
    {
      "inputs": [
        {
          "internalType": "string",
          "name": "_complicacion",
          "type": "string"
        }
      ],
      "name": "setComplicacion",
      "outputs": [],
      "stateMutability": "nonpayable",
      "type": "function"
    },
    {
      "inputs": [
        {
          "components": [
            {
              "internalType": "string",
              "name": "nombre",
              "type": "string"
            },
            {
              "internalType": "string",
              "name": "descripcion",
              "type": "string"
            },
            {
              "internalType": "bool",
              "name": "estaActiva",
              "type": "bool"
            }
          ],
          "internalType": "struct ClaseProcedimientoStruct",
          "name": "_procedimiento",
          "type": "tuple"
        }
      ],
      "name": "setProcedimiento",
      "outputs": [],
      "stateMutability": "nonpayable",
      "type": "function"
    },
    {
      "inputs": [
        {
          "internalType": "string",
          "name": "_formaRealizacionProcedimientoQuirurgico",
          "type": "string"
        }
      ],
      "name": "setFormaRealizacionProcedimientoQuirurgico",
      "outputs": [],
      "stateMutability": "nonpayable",
      "type": "function"
    },
    {
      "inputs": [
        {
          "internalType": "string",
          "name": "_diagnosticoPrincipal",
          "type": "string"
        }
      ],
      "name": "setDiagnosticoPrincipal",
      "outputs": [],
      "stateMutability": "nonpayable",
      "type": "function"
    },
    {
      "inputs": [
        {
          "internalType": "string",
          "name": "_diagnosticoRelacionado",
          "type": "string"
        }
      ],
      "name": "setDiagnosticoRelacionado",
      "outputs": [],
      "stateMutability": "nonpayable",
      "type": "function"
    },
    {
      "inputs": [
        {
          "internalType": "uint256",
          "name": "_fechaProcedimiento",
          "type": "uint256"
        }
      ],
      "name": "setFechaProcedimiento",
      "outputs": [],
      "stateMutability": "nonpayable",
      "type": "function"
    }
  ],
  "bytecode": "0x608060405234801561001057600080fd5b506004805460ff1916600d1790556116d18061002d6000396000f3fe608060405234801561001057600080fd5b50600436106101cf5760003560e01c8063803a56ec11610104578063b5bfa179116100a2578063dcf06ebd11610071578063dcf06ebd146103bf578063e38bcd64146103c7578063e8c0ed09146103da578063f3516188146103ed57600080fd5b8063b5bfa1791461037e578063ca3c5a1314610391578063ce641da2146103a4578063d0e0ba95146103ac57600080fd5b806392ebdcd2116100de57806392ebdcd21461032757806393be08ef146103525780639cb8a26a14610363578063a204b7c91461036b57600080fd5b8063803a56ec146102cd57806388b906cf1461030a5780638db24cef1461031257600080fd5b80633e74bb3f116101715780635d1ca6311161014b5780635d1ca631146102a05780636322439b146102a8578063694e3392146102b05780637545c2f8146102c557600080fd5b80633e74bb3f1461026557806344517a9a146102785780635c82b4d11461028b57600080fd5b806327f074cf116101ad57806327f074cf1461021957806329fa60341461022c5780633277bf3e1461023f5780633d12bc531461025257600080fd5b80630bcacc1b146101d45780631b59abb9146101f257806326980d9b14610204575b600080fd5b6101dc6103f5565b6040516101e99190610f72565b60405180910390f35b6003545b6040519081526020016101e9565b610217610212366004611081565b61044a565b005b6102176102273660046110be565b600355565b61021761023a36600461117a565b61045a565b61021761024d3660046110be565b600d55565b610217610260366004611081565b610557565b6102176102733660046112b0565b610563565b60045460ff166040516101e991906112e5565b6102936105aa565b6040516101e9919061133f565b6001546101f6565b61029361063e565b6102b8610650565b6040516101e991906113a0565b6005546101f6565b6102176102db36600461148b565b6002805473ffffffffffffffffffffffffffffffffffffffff19166001600160a01b0392909216919091179055565b600d546101f6565b61031a610b58565b6040516101e991906114a6565b60005461033a906001600160a01b031681565b6040516001600160a01b0390911681526020016101e9565b6002546001600160a01b031661033a565b610217610cba565b6102176103793660046114c8565b610d8c565b61021761038c3660046110be565b600555565b61021761039f366004611537565b610df8565b610293610e17565b6102176103ba3660046110be565b600155565b610293610e29565b6102176103d5366004611081565b610e3b565b6102176103e8366004611081565b610e47565b61031a610e53565b6103fd610e8b565b6040805160808101825260015481526002546001600160a01b0316602082015260035491810191909152600454606082019060ff16601281111561044357610443610f3a565b9052919050565b600a61045682826115db565b5050565b80516005908155602082015182919060069061047690826115db565b50604082015180516002830190819061048f90826115db565b50602082015160018201906104a490826115db565b50604091909101516002909101805460ff1916911515919091179055606082015160058201906104d490826115db565b50608082015160068201906104e990826115db565b5060a082015160078201906104fe90826115db565b5060c0820151600882015560e082015180516009830190819061052190826115db565b506020820151600182019061053690826115db565b50604091909101516002909101805460ff1916911515919091179055505050565b600c61045682826115db565b80518190600790819061057690826115db565b506020820151600182019061058b90826115db565b50604091909101516002909101805460ff191691151591909117905550565b60606005800180546105bb90611552565b80601f01602080910402602001604051908101604052809291908181526020018280546105e790611552565b80156106345780601f1061060957610100808354040283529160200191610634565b820191906000526020600020905b81548152906001019060200180831161061757829003601f168201915b5050505050905090565b6060600560070180546105bb90611552565b610658610eb3565b6040805161010081019091526005805482526006805460208401919061067d90611552565b80601f01602080910402602001604051908101604052809291908181526020018280546106a990611552565b80156106f65780601f106106cb576101008083540402835291602001916106f6565b820191906000526020600020905b8154815290600101906020018083116106d957829003601f168201915b505050505081526020016002820160405180606001604052908160008201805461071f90611552565b80601f016020809104026020016040519081016040528092919081815260200182805461074b90611552565b80156107985780601f1061076d57610100808354040283529160200191610798565b820191906000526020600020905b81548152906001019060200180831161077b57829003601f168201915b505050505081526020016001820180546107b190611552565b80601f01602080910402602001604051908101604052809291908181526020018280546107dd90611552565b801561082a5780601f106107ff5761010080835404028352916020019161082a565b820191906000526020600020905b81548152906001019060200180831161080d57829003601f168201915b50505091835250506002919091015460ff161515602091820152908252600583018054929091019161085b90611552565b80601f016020809104026020016040519081016040528092919081815260200182805461088790611552565b80156108d45780601f106108a9576101008083540402835291602001916108d4565b820191906000526020600020905b8154815290600101906020018083116108b757829003601f168201915b505050505081526020016006820180546108ed90611552565b80601f016020809104026020016040519081016040528092919081815260200182805461091990611552565b80156109665780601f1061093b57610100808354040283529160200191610966565b820191906000526020600020905b81548152906001019060200180831161094957829003601f168201915b5050505050815260200160078201805461097f90611552565b80601f01602080910402602001604051908101604052809291908181526020018280546109ab90611552565b80156109f85780601f106109cd576101008083540402835291602001916109f8565b820191906000526020600020905b8154815290600101906020018083116109db57829003601f168201915b505050505081526020016008820154815260200160098201604051806060016040529081600082018054610a2b90611552565b80601f0160208091040260200160405190810160405280929190818152602001828054610a5790611552565b8015610aa45780601f10610a7957610100808354040283529160200191610aa4565b820191906000526020600020905b815481529060010190602001808311610a8757829003601f168201915b50505050508152602001600182018054610abd90611552565b80601f0160208091040260200160405190810160405280929190818152602001828054610ae990611552565b8015610b365780601f10610b0b57610100808354040283529160200191610b36565b820191906000526020600020905b815481529060010190602001808311610b1957829003601f168201915b50505091835250506002919091015460ff161515602090910152905250919050565b6040805160608082018352808252602082015260009181019190915260408051606081019091526007805482908290610b9090611552565b80601f0160208091040260200160405190810160405280929190818152602001828054610bbc90611552565b8015610c095780601f10610bde57610100808354040283529160200191610c09565b820191906000526020600020905b815481529060010190602001808311610bec57829003601f168201915b50505050508152602001600182018054610c2290611552565b80601f0160208091040260200160405190810160405280929190818152602001828054610c4e90611552565b8015610c9b5780601f10610c7057610100808354040283529160200191610c9b565b820191906000526020600020905b815481529060010190602001808311610c7e57829003601f168201915b50505091835250506002919091015460ff161515602090910152919050565b6000546001600160a01b03163314610d7e576040517f08c379a000000000000000000000000000000000000000000000000000000000815260206004820152604160248201527f457374612066756e63696f6e20736f6c6f2070756564652073657220656a656360448201527f757461646120706f7220656c2063726561646f722064656c20636f6e7472617460648201527f6f00000000000000000000000000000000000000000000000000000000000000608482015260a40160405180910390fd5b6000546001600160a01b0316ff5b8051600190815560208201516002805473ffffffffffffffffffffffffffffffffffffffff19166001600160a01b0390921691909117905560408201516003556060820151600480549192909160ff191690836012811115610df057610df0610f3a565b021790555050565b6004805482919060ff19166001836012811115610df057610df0610f3a565b6060600560010180546105bb90611552565b6060600560060180546105bb90611552565b600b61045682826115db565b600661045682826115db565b604080516060808201835280825260208201526000918101919091526040805160608101909152600e805482908290610b9090611552565b604080516080810182526000808252602082018190529181018290529060608201905b905290565b6040518061010001604052806000815260200160608152602001610ef3604051806060016040528060608152602001606081526020016000151581525090565b815260200160608152602001606081526020016060815260200160008152602001610eae604051806060016040528060608152602001606081526020016000151581525090565b634e487b7160e01b600052602160045260246000fd5b60138110610f6e57634e487b7160e01b600052602160045260246000fd5b9052565b6000608082019050825182526001600160a01b036020840151166020830152604083015160408301526060830151610fad6060840182610f50565b5092915050565b634e487b7160e01b600052604160045260246000fd5b604051610100810167ffffffffffffffff81118282101715610fee57610fee610fb4565b60405290565b600082601f83011261100557600080fd5b813567ffffffffffffffff8082111561102057611020610fb4565b604051601f8301601f19908116603f0116810190828211818310171561104857611048610fb4565b8160405283815286602085880101111561106157600080fd5b836020870160208301376000602085830101528094505050505092915050565b60006020828403121561109357600080fd5b813567ffffffffffffffff8111156110aa57600080fd5b6110b684828501610ff4565b949350505050565b6000602082840312156110d057600080fd5b5035919050565b6000606082840312156110e957600080fd5b6040516060810167ffffffffffffffff828210818311171561110d5761110d610fb4565b81604052829350843591508082111561112557600080fd5b61113186838701610ff4565b8352602085013591508082111561114757600080fd5b5061115485828601610ff4565b6020830152506040830135801515811461116d57600080fd5b6040919091015292915050565b60006020828403121561118c57600080fd5b813567ffffffffffffffff808211156111a457600080fd5b9083019061010082860312156111b957600080fd5b6111c1610fca565b823581526020830135828111156111d757600080fd5b6111e387828601610ff4565b6020830152506040830135828111156111fb57600080fd5b611207878286016110d7565b60408301525060608301358281111561121f57600080fd5b61122b87828601610ff4565b60608301525060808301358281111561124357600080fd5b61124f87828601610ff4565b60808301525060a08301358281111561126757600080fd5b61127387828601610ff4565b60a08301525060c083013560c082015260e08301358281111561129557600080fd5b6112a1878286016110d7565b60e08301525095945050505050565b6000602082840312156112c257600080fd5b813567ffffffffffffffff8111156112d957600080fd5b6110b6848285016110d7565b602081016112f38284610f50565b92915050565b6000815180845260005b8181101561131f57602081850181015186830182015201611303565b506000602082860101526020601f19601f83011685010191505092915050565b60208152600061135260208301846112f9565b9392505050565b600081516060845261136e60608501826112f9565b90506020830151848203602086015261138782826112f9565b9150506040830151151560408501528091505092915050565b6020815281516020820152600060208301516101008060408501526113c96101208501836112f9565b91506040850151601f19808685030160608701526113e78483611359565b9350606087015191508086850301608087015261140484836112f9565b935060808701519150808685030160a087015261142184836112f9565b935060a08701519150808685030160c087015261143e84836112f9565b935060c087015160e087015260e08701519150808685030183870152506114658382611359565b9695505050505050565b80356001600160a01b038116811461148657600080fd5b919050565b60006020828403121561149d57600080fd5b6113528261146f565b6020815260006113526020830184611359565b80356013811061148657600080fd5b6000608082840312156114da57600080fd5b6040516080810181811067ffffffffffffffff821117156114fd576114fd610fb4565b604052823581526115106020840161146f565b60208201526040830135604082015261152b606084016114b9565b60608201529392505050565b60006020828403121561154957600080fd5b611352826114b9565b600181811c9082168061156657607f821691505b60208210810361158657634e487b7160e01b600052602260045260246000fd5b50919050565b601f8211156115d657600081815260208120601f850160051c810160208610156115b35750805b601f850160051c820191505b818110156115d2578281556001016115bf565b5050505b505050565b815167ffffffffffffffff8111156115f5576115f5610fb4565b611609816116038454611552565b8461158c565b602080601f83116001811461163e57600084156116265750858301515b600019600386901b1c1916600185901b1785556115d2565b600085815260208120601f198616915b8281101561166d5788860151825594840194600190910190840161164e565b508582101561168b5787850151600019600388901b60f8161c191681555b5050505050600190811b0190555056fea2646970667358221220c2e16ce0e1f721403721fc2b6ee6eeeb107ffd36a218819f798e14037770772564736f6c63430008110033",
  "immutableReferences": {},
  "source": "// SPDX-License-Identifier: MIT\npragma solidity ^0.8.17;\n\nimport \"./RegistroMedico.sol\";\nimport \"../structsGenerales/ProcedimientosStruct.sol\";\n\ncontract ProcedimientoQuirurgicoVO is RegistroMedico (TipoRegistroMedico.PROCEDIMIENTOQUIRURGICOVO) {\n    struct ProcedimientoQuirurgicoStruct {\n        uint ambitoProcedimiento;\n        string complicacion;\n        ClaseProcedimientoStruct procedimiento;\n        string formaRealizacionProcedimientoQuirurgico;\n        string diagnosticoPrincipal;\n        string diagnosticoRelacionado;        \n        uint256 fechaProcedimiento;\n        TipoProcedimientoStruct finalidadProcedimiento;\n    }\n\n    ProcedimientoQuirurgicoStruct private procedimientoQuirurgicoStruct;\n\n    function getAmbitoProcedimiento() public view returns (uint256) {\n        return procedimientoQuirurgicoStruct.ambitoProcedimiento;\n    }\n\n    function getComplicacion() public view returns (string memory) {\n        return procedimientoQuirurgicoStruct.complicacion;\n    }\n\n    function getProcedimiento() public view returns (ClaseProcedimientoStruct memory) {\n        return procedimientoQuirurgicoStruct.procedimiento;\n    }\n\n    function getFormaRealizacionProcedimientoQuirurgico() public view returns (string memory) {\n        return procedimientoQuirurgicoStruct.formaRealizacionProcedimientoQuirurgico;\n    }\n\n    function getDiagnosticoPrincipal() public view returns (string memory) {\n        return procedimientoQuirurgicoStruct.diagnosticoPrincipal;\n    }\n\n    function getDiagnosticoRelacionado() public view returns (string memory) {\n        return procedimientoQuirurgicoStruct.diagnosticoRelacionado;\n    }\n\n    function getFechaProcedimiento() public view returns (uint256) {\n        return procedimientoQuirurgicoStruct.fechaProcedimiento;\n    }\n\n    function getFinalidadProcedimiento() public view returns (TipoProcedimientoStruct memory) {\n        return procedimientoQuirurgicoStruct.finalidadProcedimiento;\n    }\n\n    function getProcedimientoQuirurgicoStruct()\n        public\n        view\n        returns (ProcedimientoQuirurgicoStruct memory)\n    {\n        return procedimientoQuirurgicoStruct;\n    }\n\n    function setProcedimientoQuirurgicoStruct(\n        ProcedimientoQuirurgicoStruct memory _procedimientoQuirurgicoStruct\n    ) public {\n        procedimientoQuirurgicoStruct = _procedimientoQuirurgicoStruct;\n    }\n\n    function setAmbitoProcedimiento(uint256 _ambitoProcedimiento) public {\n        procedimientoQuirurgicoStruct.ambitoProcedimiento = _ambitoProcedimiento;\n    }\n\n    function setComplicacion(string memory _complicacion) public {\n        procedimientoQuirurgicoStruct.complicacion = _complicacion;\n    }\n\n    function setProcedimiento(ClaseProcedimientoStruct memory _procedimiento) public {\n        procedimientoQuirurgicoStruct.procedimiento = _procedimiento;\n    }    \n\n    function setFormaRealizacionProcedimientoQuirurgico(string memory _formaRealizacionProcedimientoQuirurgico) public {\n        procedimientoQuirurgicoStruct.formaRealizacionProcedimientoQuirurgico = _formaRealizacionProcedimientoQuirurgico;\n    }\n\n    function setDiagnosticoPrincipal(string memory _diagnosticoPrincipal) public {\n        procedimientoQuirurgicoStruct.diagnosticoPrincipal = _diagnosticoPrincipal;\n    }\n\n    function setDiagnosticoRelacionado(string memory _diagnosticoRelacionado) public {\n        procedimientoQuirurgicoStruct.diagnosticoRelacionado = _diagnosticoRelacionado;\n    }\n\n    function setFechaProcedimiento(uint256 _fechaProcedimiento) public {\n        procedimientoQuirurgicoStruct.fechaProcedimiento = _fechaProcedimiento;\n    }\n}\n",
  "sourcePath": "/home/felipe/Documentos/Blockchain/codigo/HCE-full/back-hce/contracts/models/historiaClinica/ProcedimientoQuirurgicoVO.sol",
  "compiler": {
    "name": "solc",
    "version": "0.8.17+commit.8df45f5f.Emscripten.clang"
  },
  "schemaVersion": "3.4.8",
  "updatedAt": "2023-04-05T22:10:23.444Z",
  "devdoc": {
    "kind": "dev",
    "methods": {},
    "version": 1
  },
  "userdoc": {
    "kind": "user",
    "methods": {},
    "version": 1
  }
}