{
  "contractName": "PruebaDeLaboratorioVO",
  "abi": [
    {
      "inputs": [],
      "name": "creador",
      "outputs": [
        {
          "internalType": "address",
          "name": "",
          "type": "address"
        }
      ],
      "stateMutability": "view",
      "type": "function"
    },
    {
      "inputs": [],
      "name": "getCodPrestadorServicioDeSalud",
      "outputs": [
        {
          "internalType": "address",
          "name": "",
          "type": "address"
        }
      ],
      "stateMutability": "view",
      "type": "function"
    },
    {
      "inputs": [],
      "name": "getFechaRegistro",
      "outputs": [
        {
          "internalType": "uint256",
          "name": "",
          "type": "uint256"
        }
      ],
      "stateMutability": "view",
      "type": "function"
    },
    {
      "inputs": [],
      "name": "getId",
      "outputs": [
        {
          "internalType": "uint256",
          "name": "",
          "type": "uint256"
        }
      ],
      "stateMutability": "view",
      "type": "function"
    },
    {
      "inputs": [],
      "name": "getRegistroMedico",
      "outputs": [
        {
          "components": [
            {
              "internalType": "uint256",
              "name": "id",
              "type": "uint256"
            },
            {
              "internalType": "address",
              "name": "codPrestadorServicioDeSalud",
              "type": "address"
            },
            {
              "internalType": "uint256",
              "name": "fechaRegistro",
              "type": "uint256"
            },
            {
              "internalType": "enum TipoRegistroMedico",
              "name": "tipoRegistroMedico",
              "type": "uint8"
            }
          ],
          "internalType": "struct RegistroMedico.RegistroMedicoStruct",
          "name": "",
          "type": "tuple"
        }
      ],
      "stateMutability": "view",
      "type": "function"
    },
    {
      "inputs": [],
      "name": "getTipoRegistroMedico",
      "outputs": [
        {
          "internalType": "enum TipoRegistroMedico",
          "name": "",
          "type": "uint8"
        }
      ],
      "stateMutability": "view",
      "type": "function"
    },
    {
      "inputs": [],
      "name": "selfDestruct",
      "outputs": [],
      "stateMutability": "nonpayable",
      "type": "function"
    },
    {
      "inputs": [
        {
          "internalType": "address",
          "name": "_codPrestadorServicioDeSalud",
          "type": "address"
        }
      ],
      "name": "setCodPrestadorServicioDeSalud",
      "outputs": [],
      "stateMutability": "nonpayable",
      "type": "function"
    },
    {
      "inputs": [
        {
          "internalType": "uint256",
          "name": "_fechaRegistro",
          "type": "uint256"
        }
      ],
      "name": "setFechaRegistro",
      "outputs": [],
      "stateMutability": "nonpayable",
      "type": "function"
    },
    {
      "inputs": [
        {
          "internalType": "uint256",
          "name": "_id",
          "type": "uint256"
        }
      ],
      "name": "setId",
      "outputs": [],
      "stateMutability": "nonpayable",
      "type": "function"
    },
    {
      "inputs": [
        {
          "components": [
            {
              "internalType": "uint256",
              "name": "id",
              "type": "uint256"
            },
            {
              "internalType": "address",
              "name": "codPrestadorServicioDeSalud",
              "type": "address"
            },
            {
              "internalType": "uint256",
              "name": "fechaRegistro",
              "type": "uint256"
            },
            {
              "internalType": "enum TipoRegistroMedico",
              "name": "tipoRegistroMedico",
              "type": "uint8"
            }
          ],
          "internalType": "struct RegistroMedico.RegistroMedicoStruct",
          "name": "registro",
          "type": "tuple"
        }
      ],
      "name": "setRegistroMedico",
      "outputs": [],
      "stateMutability": "nonpayable",
      "type": "function"
    },
    {
      "inputs": [
        {
          "internalType": "enum TipoRegistroMedico",
          "name": "_tipoRegistroMedico",
          "type": "uint8"
        }
      ],
      "name": "setTipoRegistroMedico",
      "outputs": [],
      "stateMutability": "nonpayable",
      "type": "function"
    },
    {
      "inputs": [],
      "name": "getAmbitoProcedimiento",
      "outputs": [
        {
          "internalType": "uint256",
          "name": "",
          "type": "uint256"
        }
      ],
      "stateMutability": "view",
      "type": "function"
    },
    {
      "inputs": [],
      "name": "getFecha",
      "outputs": [
        {
          "internalType": "uint256",
          "name": "",
          "type": "uint256"
        }
      ],
      "stateMutability": "view",
      "type": "function"
    },
    {
      "inputs": [],
      "name": "getProcedimiento",
      "outputs": [
        {
          "components": [
            {
              "internalType": "string",
              "name": "nombre",
              "type": "string"
            },
            {
              "internalType": "string",
              "name": "descripcion",
              "type": "string"
            },
            {
              "internalType": "bool",
              "name": "estaActiva",
              "type": "bool"
            }
          ],
          "internalType": "struct ClaseProcedimientoStruct",
          "name": "",
          "type": "tuple"
        }
      ],
      "stateMutability": "view",
      "type": "function"
    },
    {
      "inputs": [],
      "name": "getAnexo",
      "outputs": [
        {
          "internalType": "string",
          "name": "",
          "type": "string"
        }
      ],
      "stateMutability": "view",
      "type": "function"
    },
    {
      "inputs": [],
      "name": "getPruebaDeLaboratorioStruct",
      "outputs": [
        {
          "components": [
            {
              "internalType": "uint256",
              "name": "ambitoProcedimiento",
              "type": "uint256"
            },
            {
              "internalType": "uint256",
              "name": "fecha",
              "type": "uint256"
            },
            {
              "components": [
                {
                  "internalType": "string",
                  "name": "nombre",
                  "type": "string"
                },
                {
                  "internalType": "string",
                  "name": "descripcion",
                  "type": "string"
                },
                {
                  "internalType": "bool",
                  "name": "estaActiva",
                  "type": "bool"
                }
              ],
              "internalType": "struct ClaseProcedimientoStruct",
              "name": "procedimiento",
              "type": "tuple"
            },
            {
              "internalType": "string",
              "name": "anexo",
              "type": "string"
            }
          ],
          "internalType": "struct PruebaDeLaboratorioVO.PruebaDeLaboratorioStruct",
          "name": "",
          "type": "tuple"
        }
      ],
      "stateMutability": "view",
      "type": "function"
    },
    {
      "inputs": [
        {
          "components": [
            {
              "internalType": "uint256",
              "name": "ambitoProcedimiento",
              "type": "uint256"
            },
            {
              "internalType": "uint256",
              "name": "fecha",
              "type": "uint256"
            },
            {
              "components": [
                {
                  "internalType": "string",
                  "name": "nombre",
                  "type": "string"
                },
                {
                  "internalType": "string",
                  "name": "descripcion",
                  "type": "string"
                },
                {
                  "internalType": "bool",
                  "name": "estaActiva",
                  "type": "bool"
                }
              ],
              "internalType": "struct ClaseProcedimientoStruct",
              "name": "procedimiento",
              "type": "tuple"
            },
            {
              "internalType": "string",
              "name": "anexo",
              "type": "string"
            }
          ],
          "internalType": "struct PruebaDeLaboratorioVO.PruebaDeLaboratorioStruct",
          "name": "_pruebaDeLaboratorioStruct",
          "type": "tuple"
        }
      ],
      "name": "setPruebaDeLaboratorioStruct",
      "outputs": [],
      "stateMutability": "nonpayable",
      "type": "function"
    },
    {
      "inputs": [
        {
          "internalType": "uint256",
          "name": "_ambitoProcedimiento",
          "type": "uint256"
        }
      ],
      "name": "setAmbitoProcedimiento",
      "outputs": [],
      "stateMutability": "nonpayable",
      "type": "function"
    },
    {
      "inputs": [
        {
          "internalType": "uint256",
          "name": "_fecha",
          "type": "uint256"
        }
      ],
      "name": "setFecha",
      "outputs": [],
      "stateMutability": "nonpayable",
      "type": "function"
    },
    {
      "inputs": [
        {
          "components": [
            {
              "internalType": "string",
              "name": "nombre",
              "type": "string"
            },
            {
              "internalType": "string",
              "name": "descripcion",
              "type": "string"
            },
            {
              "internalType": "bool",
              "name": "estaActiva",
              "type": "bool"
            }
          ],
          "internalType": "struct ClaseProcedimientoStruct",
          "name": "_procedimiento",
          "type": "tuple"
        }
      ],
      "name": "setProcedimiento",
      "outputs": [],
      "stateMutability": "nonpayable",
      "type": "function"
    },
    {
      "inputs": [
        {
          "internalType": "string",
          "name": "_anexo",
          "type": "string"
        }
      ],
      "name": "setAnexo",
      "outputs": [],
      "stateMutability": "nonpayable",
      "type": "function"
    }
  ],
  "bytecode": "0x608060405234801561001057600080fd5b506004805460ff1916600e1790556110be8061002d6000396000f3fe608060405234801561001057600080fd5b50600436106101825760003560e01c80638db24cef116100d8578063ae1ca5611161008c578063ca3c5a1311610066578063ca3c5a1314610314578063d0e0ba9514610327578063ee25e09d1461033a57600080fd5b8063ae1ca561146102db578063b30a4add146102ee578063b5bfa1791461030157600080fd5b806393be08ef116100bd57806393be08ef146102af5780639cb8a26a146102c0578063a204b7c9146102c857600080fd5b80638db24cef1461026f57806392ebdcd21461028457600080fd5b8063474e473c1161013a5780637545c2f8116101145780637545c2f814610217578063803a56ec1461021f578063872dd0951461025c57600080fd5b8063474e473c146101f25780635d1ca6311461020757806366dc36591461020f57600080fd5b806327f074cf1161016b57806327f074cf146101b75780633e74bb3f146101cc57806344517a9a146101df57600080fd5b80630bcacc1b146101875780631b59abb9146101a5575b600080fd5b61018f61034f565b60405161019c9190610a6a565b60405180910390f35b6003545b60405190815260200161019c565b6101ca6101c5366004610aac565b600355565b005b6101ca6101da366004610c34565b6103c4565b60045460ff1660405161019c9190610c71565b6101fa61040b565b60405161019c9190610ccb565b6001546101a9565b6006546101a9565b6005546101a9565b6101ca61022d366004610d01565b6002805473ffffffffffffffffffffffffffffffffffffffff19166001600160a01b0392909216919091179055565b6101ca61026a366004610d1c565b61049f565b6102776104af565b60405161019c9190610d98565b600054610297906001600160a01b031681565b6040516001600160a01b03909116815260200161019c565b6002546001600160a01b0316610297565b6101ca610611565b6101ca6102d6366004610dba565b6106e3565b6101ca6102e9366004610aac565b600655565b6101ca6102fc366004610e29565b61074f565b6101ca61030f366004610aac565b600555565b6101ca610322366004610ece565b6107c3565b6101ca610335366004610aac565b600155565b6103426107e2565b60405161019c9190610ee9565b6103776040805160808101825260008082526020820181905291810182905290606082015290565b6040805160808101825260015481526002546001600160a01b0316602082015260035491810191909152600454606082019060ff1660128111156103bd576103bd610a32565b9052919050565b8051819060079081906103d79082610fc8565b50602082015160018201906103ec9082610fc8565b50604091909101516002909101805460ff191691151591909117905550565b606060058001805461041c90610f3f565b80601f016020809104026020016040519081016040528092919081815260200182805461044890610f3f565b80156104955780601f1061046a57610100808354040283529160200191610495565b820191906000526020600020905b81548152906001019060200180831161047857829003601f168201915b5050505050905090565b600a6104ab8282610fc8565b5050565b60408051606080820183528082526020820152600091810191909152604080516060810190915260078054829082906104e790610f3f565b80601f016020809104026020016040519081016040528092919081815260200182805461051390610f3f565b80156105605780601f1061053557610100808354040283529160200191610560565b820191906000526020600020905b81548152906001019060200180831161054357829003601f168201915b5050505050815260200160018201805461057990610f3f565b80601f01602080910402602001604051908101604052809291908181526020018280546105a590610f3f565b80156105f25780601f106105c7576101008083540402835291602001916105f2565b820191906000526020600020905b8154815290600101906020018083116105d557829003601f168201915b50505091835250506002919091015460ff161515602090910152919050565b6000546001600160a01b031633146106d5576040517f08c379a000000000000000000000000000000000000000000000000000000000815260206004820152604160248201527f457374612066756e63696f6e20736f6c6f2070756564652073657220656a656360448201527f757461646120706f7220656c2063726561646f722064656c20636f6e7472617460648201527f6f00000000000000000000000000000000000000000000000000000000000000608482015260a40160405180910390fd5b6000546001600160a01b0316ff5b8051600190815560208201516002805473ffffffffffffffffffffffffffffffffffffffff19166001600160a01b0390921691909117905560408201516003556060820151600480549192909160ff19169083601281111561074757610747610a32565b021790555050565b805160059081556020820151600655604082015180518392919060079081906107789082610fc8565b506020820151600182019061078d9082610fc8565b50604091909101516002909101805460ff1916911515919091179055606082015160058201906107bd9082610fc8565b50505050565b6004805482919060ff1916600183601281111561074757610747610a32565b6107ea6109e6565b60408051608081018252600580548252600654602083015282516060810184526007805493949293928501928290829061082390610f3f565b80601f016020809104026020016040519081016040528092919081815260200182805461084f90610f3f565b801561089c5780601f106108715761010080835404028352916020019161089c565b820191906000526020600020905b81548152906001019060200180831161087f57829003601f168201915b505050505081526020016001820180546108b590610f3f565b80601f01602080910402602001604051908101604052809291908181526020018280546108e190610f3f565b801561092e5780601f106109035761010080835404028352916020019161092e565b820191906000526020600020905b81548152906001019060200180831161091157829003601f168201915b50505091835250506002919091015460ff161515602091820152908252600583018054929091019161095f90610f3f565b80601f016020809104026020016040519081016040528092919081815260200182805461098b90610f3f565b80156109d85780601f106109ad576101008083540402835291602001916109d8565b820191906000526020600020905b8154815290600101906020018083116109bb57829003601f168201915b505050505081525050905090565b60405180608001604052806000815260200160008152602001610a25604051806060016040528060608152602001606081526020016000151581525090565b8152602001606081525090565b634e487b7160e01b600052602160045260246000fd5b60138110610a6657634e487b7160e01b600052602160045260246000fd5b9052565b6000608082019050825182526001600160a01b036020840151166020830152604083015160408301526060830151610aa56060840182610a48565b5092915050565b600060208284031215610abe57600080fd5b5035919050565b634e487b7160e01b600052604160045260246000fd5b6040516080810167ffffffffffffffff81118282101715610afe57610afe610ac5565b60405290565b600082601f830112610b1557600080fd5b813567ffffffffffffffff80821115610b3057610b30610ac5565b604051601f8301601f19908116603f01168101908282118183101715610b5857610b58610ac5565b81604052838152866020858801011115610b7157600080fd5b836020870160208301376000602085830101528094505050505092915050565b600060608284031215610ba357600080fd5b6040516060810167ffffffffffffffff8282108183111715610bc757610bc7610ac5565b816040528293508435915080821115610bdf57600080fd5b610beb86838701610b04565b83526020850135915080821115610c0157600080fd5b50610c0e85828601610b04565b60208301525060408301358015158114610c2757600080fd5b6040919091015292915050565b600060208284031215610c4657600080fd5b813567ffffffffffffffff811115610c5d57600080fd5b610c6984828501610b91565b949350505050565b60208101610c7f8284610a48565b92915050565b6000815180845260005b81811015610cab57602081850181015186830182015201610c8f565b506000602082860101526020601f19601f83011685010191505092915050565b602081526000610cde6020830184610c85565b9392505050565b80356001600160a01b0381168114610cfc57600080fd5b919050565b600060208284031215610d1357600080fd5b610cde82610ce5565b600060208284031215610d2e57600080fd5b813567ffffffffffffffff811115610d4557600080fd5b610c6984828501610b04565b6000815160608452610d666060850182610c85565b905060208301518482036020860152610d7f8282610c85565b9150506040830151151560408501528091505092915050565b602081526000610cde6020830184610d51565b803560138110610cfc57600080fd5b600060808284031215610dcc57600080fd5b6040516080810181811067ffffffffffffffff82111715610def57610def610ac5565b60405282358152610e0260208401610ce5565b602082015260408301356040820152610e1d60608401610dab565b60608201529392505050565b600060208284031215610e3b57600080fd5b813567ffffffffffffffff80821115610e5357600080fd5b9083019060808286031215610e6757600080fd5b610e6f610adb565b8235815260208301356020820152604083013582811115610e8f57600080fd5b610e9b87828601610b91565b604083015250606083013582811115610eb357600080fd5b610ebf87828601610b04565b60608301525095945050505050565b600060208284031215610ee057600080fd5b610cde82610dab565b6020815281516020820152602082015160408201526000604083015160806060840152610f1960a0840182610d51565b90506060840151601f19848303016080850152610f368282610c85565b95945050505050565b600181811c90821680610f5357607f821691505b602082108103610f7357634e487b7160e01b600052602260045260246000fd5b50919050565b601f821115610fc357600081815260208120601f850160051c81016020861015610fa05750805b601f850160051c820191505b81811015610fbf57828155600101610fac565b5050505b505050565b815167ffffffffffffffff811115610fe257610fe2610ac5565b610ff681610ff08454610f3f565b84610f79565b602080601f83116001811461102b57600084156110135750858301515b600019600386901b1c1916600185901b178555610fbf565b600085815260208120601f198616915b8281101561105a5788860151825594840194600190910190840161103b565b50858210156110785787850151600019600388901b60f8161c191681555b5050505050600190811b0190555056fea2646970667358221220c4e0771a6186e00853ce9b8e640fa21bb666d135516b388f16066bb532fe6fec64736f6c63430008110033",
  "immutableReferences": {},
  "source": "// SPDX-License-Identifier: MIT\npragma solidity ^0.8.17;\n\nimport \"./RegistroMedico.sol\";\nimport \"../structsGenerales/ProcedimientosStruct.sol\";\n\ncontract PruebaDeLaboratorioVO is RegistroMedico (TipoRegistroMedico.PRUEBADELABORATORIOVO) {\n    struct PruebaDeLaboratorioStruct {\n        uint256 ambitoProcedimiento;\n        uint256 fecha;\n        ClaseProcedimientoStruct procedimiento;\n        string anexo;\n    }\n\n    PruebaDeLaboratorioStruct private pruebaDeLaboratorioStruct;\n\n    function getAmbitoProcedimiento() public view returns (uint256) {\n        return pruebaDeLaboratorioStruct.ambitoProcedimiento;\n    }\n\n    function getFecha() public view returns (uint256) {\n        return pruebaDeLaboratorioStruct.fecha;\n    }\n\n    function getProcedimiento()\n        public\n        view\n        returns (ClaseProcedimientoStruct memory)\n    {\n        return pruebaDeLaboratorioStruct.procedimiento;\n    }\n\n    function getAnexo() public view returns (string memory) {\n        return pruebaDeLaboratorioStruct.anexo;\n    }\n\n    function getPruebaDeLaboratorioStruct()\n        public\n        view\n        returns (PruebaDeLaboratorioStruct memory)\n    {\n        return pruebaDeLaboratorioStruct;\n    }\n\n    function setPruebaDeLaboratorioStruct(\n        PruebaDeLaboratorioStruct memory _pruebaDeLaboratorioStruct\n    ) public {\n        pruebaDeLaboratorioStruct = _pruebaDeLaboratorioStruct;\n    }\n\n    function setAmbitoProcedimiento(uint256 _ambitoProcedimiento) public {\n        pruebaDeLaboratorioStruct.ambitoProcedimiento = _ambitoProcedimiento;\n    }\n\n    function setFecha(uint256 _fecha) public {\n        pruebaDeLaboratorioStruct.fecha = _fecha;\n    }\n\n    function setProcedimiento(ClaseProcedimientoStruct memory _procedimiento)\n        public\n    {\n        pruebaDeLaboratorioStruct.procedimiento = _procedimiento;\n    }\n\n    function setAnexo(string memory _anexo) public {\n        pruebaDeLaboratorioStruct.anexo = _anexo;\n    }\n}\n",
  "sourcePath": "/home/felipe/Documentos/Blockchain/codigo/HCE-full/back-hce/contracts/models/historiaClinica/PruebaDeLaboratorioVO.sol",
  "compiler": {
    "name": "solc",
    "version": "0.8.17+commit.8df45f5f.Emscripten.clang"
  },
  "schemaVersion": "3.4.8",
  "updatedAt": "2023-04-05T22:10:23.457Z",
  "devdoc": {
    "kind": "dev",
    "methods": {},
    "version": 1
  },
  "userdoc": {
    "kind": "user",
    "methods": {},
    "version": 1
  }
}