{
  "contractName": "RolMapper",
  "abi": [
    {
      "inputs": [],
      "stateMutability": "nonpayable",
      "type": "constructor"
    },
    {
      "anonymous": false,
      "inputs": [
        {
          "indexed": false,
          "internalType": "string",
          "name": "data",
          "type": "string"
        }
      ],
      "name": "Log",
      "type": "event"
    },
    {
      "inputs": [],
      "name": "creador",
      "outputs": [
        {
          "internalType": "address",
          "name": "",
          "type": "address"
        }
      ],
      "stateMutability": "view",
      "type": "function",
      "constant": true
    },
    {
      "inputs": [
        {
          "internalType": "enum RolDeAccesoEnum",
          "name": "_id",
          "type": "uint8"
        }
      ],
      "name": "consultar",
      "outputs": [
        {
          "internalType": "contract RolVO",
          "name": "",
          "type": "address"
        }
      ],
      "stateMutability": "view",
      "type": "function",
      "constant": true
    },
    {
      "inputs": [
        {
          "internalType": "contract RolVO",
          "name": "_rol",
          "type": "address"
        }
      ],
      "name": "guardar",
      "outputs": [
        {
          "internalType": "uint256",
          "name": "",
          "type": "uint256"
        }
      ],
      "stateMutability": "nonpayable",
      "type": "function"
    },
    {
      "inputs": [
        {
          "internalType": "enum RolDeAccesoEnum",
          "name": "_id",
          "type": "uint8"
        },
        {
          "internalType": "contract RolVO",
          "name": "rol",
          "type": "address"
        }
      ],
      "name": "actualizar",
      "outputs": [],
      "stateMutability": "nonpayable",
      "type": "function"
    },
    {
      "inputs": [],
      "name": "selfDestruct",
      "outputs": [],
      "stateMutability": "nonpayable",
      "type": "function"
    }
  ],
  "bytecode": "0x608060405234801561001057600080fd5b50600080546001600160a01b03191633179055610618806100326000396000f3fe608060405234801561001057600080fd5b50600436106100675760003560e01c806386dda3681161005057806386dda368146100a757806392ebdcd2146100d25780639cb8a26a146100e557600080fd5b80630b7f20101461006c578063415b268b14610081575b600080fd5b61007f61007a366004610546565b6100ed565b005b61009461008f366004610579565b6101ce565b6040519081526020015b60405180910390f35b6100ba6100b536600461059b565b6103bb565b6040516001600160a01b03909116815260200161009e565b6000546100ba906001600160a01b031681565b61007f610467565b60006002836001811115610103576101036105b6565b81548110610113576101136105cc565b6000918252602090912001546001600160a01b03169050806101905760405162461bcd60e51b815260206004820152602b60248201527f4e6f2065786973746520756e20726f6c207265676973747261646f20636f6e2060448201526a657365206164647265737360a81b60648201526084015b60405180910390fd5b6001600160a01b03908116600090815260016020526040902080549190921673ffffffffffffffffffffffffffffffffffffffff1990911617905550565b6001600160a01b038082166000908152600160205260408120549091839116156102c9577fcf34ef537ac33ee1ac626ca1587a0a7e8e51561e5514f8cb36afa1c5102b3bab604051610265906020808252602b908201527f59612065786973746520756e20726f6c207265676973747261646f20636f6e2060408201526a657365206164647265737360a81b606082015260800190565b60405180910390a160405162461bcd60e51b815260206004820152602b60248201527f59612065786973746520756e20726f6c207265676973747261646f20636f6e2060448201526a657365206164647265737360a81b6064820152608401610187565b6002546040517fd0e0ba95000000000000000000000000000000000000000000000000000000008152600481018290526001600160a01b0385169063d0e0ba9590602401600060405180830381600087803b15801561032757600080fd5b505af115801561033b573d6000803e3d6000fd5b50506002805460018181019092557f405787fa12a823e0f2b7631cc41b3ba8828b3321ca811111fa75cd3aa3bb5ace0180546001600160a01b0396871673ffffffffffffffffffffffffffffffffffffffff1991821681179092556000918252602092909252604090208054979095169616959095179092559392505050565b60008060028360018111156103d2576103d26105b6565b815481106103e2576103e26105cc565b6000918252602090912001546001600160a01b03169050806104465760405162461bcd60e51b815260206004820152601160248201527f4e6f206578697374652065736520726f6c0000000000000000000000000000006044820152606401610187565b6001600160a01b039081166000908152600160205260409020541692915050565b6000546001600160a01b0316331461050d5760405162461bcd60e51b815260206004820152604160248201527f457374612066756e63696f6e20736f6c6f2070756564652073657220656a656360448201527f757461646120706f7220656c2063726561646f722064656c20636f6e7472617460648201527f6f00000000000000000000000000000000000000000000000000000000000000608482015260a401610187565b6000546001600160a01b0316ff5b80356002811061052a57600080fd5b919050565b80356001600160a01b038116811461052a57600080fd5b6000806040838503121561055957600080fd5b6105628361051b565b91506105706020840161052f565b90509250929050565b60006020828403121561058b57600080fd5b6105948261052f565b9392505050565b6000602082840312156105ad57600080fd5b6105948261051b565b634e487b7160e01b600052602160045260246000fd5b634e487b7160e01b600052603260045260246000fdfea2646970667358221220c76f2974004bfb181a470b6c4de96e99d85996f3c077f5c5266402119db80b5064736f6c63430008110033",
  "immutableReferences": {},
  "source": "// SPDX-License-Identifier: MIT\npragma solidity ^0.8.17;\n// import \"../logica/Persona.sol\";\nimport \"../models/RolVO.sol\";\nimport \"./RolMapperInterface.sol\";\n\n\ncontract RolMapper is RolMapperInterface {\n    address public creador;\n\n    mapping(address => RolVO) private roles;\n    address[] private rolAddressList; // NOTE Mapped Structs with Index\n\n    constructor() {\n        creador = msg.sender;\n    }\n\n    function consultar(RolDeAccesoEnum _id) external view returns (RolVO) {\n        address direccion = rolAddressList[uint(_id)];\n        if (direccion == address(0)) {\n            revert(\"No existe ese rol\");\n        }\n        RolVO rolVO = roles[direccion];\n        return rolVO;\n    }\n\n    function guardar(RolVO _rol) external returns (uint256){\n        address direccion = address(_rol);\n        if (address(roles[direccion]) != address(0)) {\n            emit Log(\"Ya existe un rol registrado con ese address\");\n            revert(\"Ya existe un rol registrado con ese address\");\n        }\n        uint256 id = rolAddressList.length;\n        _rol.setId(id);\n        rolAddressList.push(direccion);\n        roles[direccion] = _rol;\n        return id;\n    }\n\n    function actualizar(RolDeAccesoEnum _id, RolVO rol) external {\n        address direccion = rolAddressList[uint(_id)];\n        if (direccion == address(0)) {\n            revert(\"No existe un rol registrado con ese address\");\n        }\n        roles[direccion] = rol;\n    }\n\n    modifier esPropietario() {\n        require(\n            msg.sender == creador,\n            \"Esta funcion solo puede ser ejecutada por el creador del contrato\"\n        );\n        _; // ac se ejecuta la funcin\n    }\n\n    function selfDestruct() public esPropietario {\n        selfdestruct(payable(creador));\n    }\n}\n",
  "sourcePath": "/back/contracts/persistence/RolMapper.sol",
  "compiler": {
    "name": "solc",
    "version": "0.8.17+commit.8df45f5f.Emscripten.clang"
  },
  "schemaVersion": "3.4.13",
  "updatedAt": "2023-05-03T22:19:38.982Z",
  "networkType": "ethereum",
  "devdoc": {
    "kind": "dev",
    "methods": {},
    "version": 1
  },
  "userdoc": {
    "kind": "user",
    "methods": {},
    "version": 1
  }
}