{
  "contractName": "RolVO",
  "abi": [
    {
      "anonymous": false,
      "inputs": [
        {
          "indexed": false,
          "internalType": "string",
          "name": "data",
          "type": "string"
        }
      ],
      "name": "Log",
      "type": "event"
    },
    {
      "inputs": [],
      "name": "getRolVoValue",
      "outputs": [
        {
          "components": [
            {
              "internalType": "uint256",
              "name": "id",
              "type": "uint256"
            },
            {
              "internalType": "string",
              "name": "nombre",
              "type": "string"
            },
            {
              "internalType": "string",
              "name": "descripcion",
              "type": "string"
            }
          ],
          "internalType": "struct RolVO.RolVoStruct",
          "name": "",
          "type": "tuple"
        }
      ],
      "stateMutability": "view",
      "type": "function"
    },
    {
      "inputs": [],
      "name": "getId",
      "outputs": [
        {
          "internalType": "uint256",
          "name": "",
          "type": "uint256"
        }
      ],
      "stateMutability": "view",
      "type": "function"
    },
    {
      "inputs": [],
      "name": "getNombre",
      "outputs": [
        {
          "internalType": "string",
          "name": "",
          "type": "string"
        }
      ],
      "stateMutability": "view",
      "type": "function"
    },
    {
      "inputs": [],
      "name": "getDescripcion",
      "outputs": [
        {
          "internalType": "string",
          "name": "",
          "type": "string"
        }
      ],
      "stateMutability": "view",
      "type": "function"
    },
    {
      "inputs": [],
      "name": "getPermisos",
      "outputs": [
        {
          "components": [
            {
              "internalType": "uint256",
              "name": "id",
              "type": "uint256"
            },
            {
              "internalType": "contract PermisoVO",
              "name": "permiso",
              "type": "address"
            },
            {
              "internalType": "bool",
              "name": "accesoPermitido",
              "type": "bool"
            }
          ],
          "internalType": "struct RolVO.PermisoRol[]",
          "name": "",
          "type": "tuple[]"
        }
      ],
      "stateMutability": "view",
      "type": "function"
    },
    {
      "inputs": [],
      "name": "getPermisosSize",
      "outputs": [
        {
          "internalType": "uint256",
          "name": "",
          "type": "uint256"
        }
      ],
      "stateMutability": "view",
      "type": "function"
    },
    {
      "inputs": [
        {
          "internalType": "uint256",
          "name": "_id",
          "type": "uint256"
        }
      ],
      "name": "getPermiso",
      "outputs": [
        {
          "components": [
            {
              "internalType": "uint256",
              "name": "id",
              "type": "uint256"
            },
            {
              "internalType": "contract PermisoVO",
              "name": "permiso",
              "type": "address"
            },
            {
              "internalType": "bool",
              "name": "accesoPermitido",
              "type": "bool"
            }
          ],
          "internalType": "struct RolVO.PermisoRol",
          "name": "",
          "type": "tuple"
        }
      ],
      "stateMutability": "view",
      "type": "function"
    },
    {
      "inputs": [],
      "name": "getEstaActivo",
      "outputs": [
        {
          "internalType": "bool",
          "name": "",
          "type": "bool"
        }
      ],
      "stateMutability": "view",
      "type": "function"
    },
    {
      "inputs": [
        {
          "internalType": "uint256",
          "name": "_id",
          "type": "uint256"
        }
      ],
      "name": "setId",
      "outputs": [],
      "stateMutability": "nonpayable",
      "type": "function"
    },
    {
      "inputs": [
        {
          "internalType": "string",
          "name": "_nombre",
          "type": "string"
        }
      ],
      "name": "setNombre",
      "outputs": [],
      "stateMutability": "nonpayable",
      "type": "function"
    },
    {
      "inputs": [
        {
          "internalType": "string",
          "name": "_descripcion",
          "type": "string"
        }
      ],
      "name": "setDescripcion",
      "outputs": [],
      "stateMutability": "nonpayable",
      "type": "function"
    },
    {
      "inputs": [
        {
          "internalType": "uint256",
          "name": "_id",
          "type": "uint256"
        },
        {
          "internalType": "contract PermisoVO",
          "name": "_permiso",
          "type": "address"
        },
        {
          "internalType": "bool",
          "name": "_accesoPermitido",
          "type": "bool"
        }
      ],
      "name": "setPermiso",
      "outputs": [],
      "stateMutability": "nonpayable",
      "type": "function"
    },
    {
      "inputs": [
        {
          "components": [
            {
              "internalType": "uint256",
              "name": "id",
              "type": "uint256"
            },
            {
              "internalType": "contract PermisoVO",
              "name": "permiso",
              "type": "address"
            },
            {
              "internalType": "bool",
              "name": "accesoPermitido",
              "type": "bool"
            }
          ],
          "internalType": "struct RolVO.PermisoRol[]",
          "name": "_permisos",
          "type": "tuple[]"
        }
      ],
      "name": "setPermisos",
      "outputs": [],
      "stateMutability": "nonpayable",
      "type": "function"
    },
    {
      "inputs": [
        {
          "internalType": "bool",
          "name": "_estaActivo",
          "type": "bool"
        }
      ],
      "name": "setEstaActivo",
      "outputs": [],
      "stateMutability": "nonpayable",
      "type": "function"
    }
  ],
  "bytecode": "0x608060405234801561001057600080fd5b50610d71806100206000396000f3fe608060405234801561001057600080fd5b50600436106100e95760003560e01c8063af9958461161008c578063d75cbf9b11610066578063d75cbf9b14610230578063ea1a6f2914610245578063f9a9ff9d1461025a578063fdaef4831461026257600080fd5b8063af995846146101f4578063d0e0ba951461020a578063d45795cb1461021d57600080fd5b806362d31320116100c857806362d313201461012d5780637ce8aae414610140578063804851c014610148578063ade2a6121461015d57600080fd5b806202736b146100ee5780633d7c901a146101035780635d1ca63114610116575b600080fd5b6101016100fc36600461088f565b610283565b005b610101610111366004610950565b610293565b6000545b6040519081526020015b60405180910390f35b61010161013b36600461098c565b6103d3565b60055461011a565b6101506104fa565b6040516101249190610a6e565b6101c761016b366004610adb565b60408051606080820183526000808352602080840182905292840181905293845260048252928290208251938401835280548452600101546001600160a01b03811691840191909152600160a01b900460ff1615159082015290565b60408051825181526020808401516001600160a01b03169082015291810151151590820152606001610124565b60035460ff166040519015158152602001610124565b610101610218366004610adb565b600055565b61010161022b36600461088f565b610618565b610238610624565b6040516101249190610b3a565b61024d6106b6565b6040516101249190610b54565b610238610810565b610101610270366004610ba0565b6003805460ff1916911515919091179055565b600161028f8282610c3e565b5050565b6000838152600460205260408120549003610347576005805460018181019092557f036b6384b5eca791c62761152d0c79bb0604c104a5fb6f4eb0703f3154bb3db001849055604080516060810182528581526001600160a01b03808616602083810191825286151584860190815260008a81526004909252949020925183555191909301805492511515600160a01b0274ffffffffffffffffffffffffffffffffffffffffff1990931691909316171790555b6040517f08c379a000000000000000000000000000000000000000000000000000000000815260206004820152603560248201527f59612065786973746520756e207065726d69736f207265676973747261646f2060448201527f7061726120657365204944206465206d65746f646f0000000000000000000000606482015260840160405180910390fd5b60005b815181101561028f57600460008383815181106103f5576103f5610cfe565b60200260200101516000015181526020019081526020016000206000015460000361044f57600582828151811061042e5761042e610cfe565b60209081029190910181015151825460018101845560009384529190922001555b81818151811061046157610461610cfe565b60200260200101516004600084848151811061047f5761047f610cfe565b60209081029190910181015151825281810192909252604090810160002083518155918301516001909201805493909101511515600160a01b0274ffffffffffffffffffffffffffffffffffffffffff199093166001600160a01b0390921691909117919091179055806104f281610d14565b9150506103d6565b60055460609060009067ffffffffffffffff81111561051b5761051b61081f565b60405190808252806020026020018201604052801561056657816020015b60408051606081018252600080825260208083018290529282015282526000199092019101816105395790505b50905060005b60055481101561061257600460006005838154811061058d5761058d610cfe565b600091825260208083209190910154835282810193909352604091820190208151606081018352815481526001909101546001600160a01b03811693820193909352600160a01b90920460ff1615159082015282518390839081106105f4576105f4610cfe565b6020026020010181905250808061060a90610d14565b91505061056c565b50919050565b600261028f8282610c3e565b60606001805461063390610bbb565b80601f016020809104026020016040519081016040528092919081815260200182805461065f90610bbb565b80156106ac5780601f10610681576101008083540402835291602001916106ac565b820191906000526020600020905b81548152906001019060200180831161068f57829003601f168201915b5050505050905090565b6106da60405180606001604052806000815260200160608152602001606081525090565b60405180606001604052806000548152602001600180546106fa90610bbb565b80601f016020809104026020016040519081016040528092919081815260200182805461072690610bbb565b80156107735780601f1061074857610100808354040283529160200191610773565b820191906000526020600020905b81548152906001019060200180831161075657829003601f168201915b505050505081526020016002805461078a90610bbb565b80601f01602080910402602001604051908101604052809291908181526020018280546107b690610bbb565b80156108035780601f106107d857610100808354040283529160200191610803565b820191906000526020600020905b8154815290600101906020018083116107e657829003601f168201915b5050505050815250905090565b60606002805461063390610bbb565b634e487b7160e01b600052604160045260246000fd5b6040516060810167ffffffffffffffff811182821017156108585761085861081f565b60405290565b604051601f8201601f1916810167ffffffffffffffff811182821017156108875761088761081f565b604052919050565b600060208083850312156108a257600080fd5b823567ffffffffffffffff808211156108ba57600080fd5b818501915085601f8301126108ce57600080fd5b8135818111156108e0576108e061081f565b6108f2601f8201601f1916850161085e565b9150808252868482850101111561090857600080fd5b8084840185840137600090820190930192909252509392505050565b80356001600160a01b038116811461093b57600080fd5b919050565b8035801515811461093b57600080fd5b60008060006060848603121561096557600080fd5b8335925061097560208501610924565b915061098360408501610940565b90509250925092565b6000602080838503121561099f57600080fd5b823567ffffffffffffffff808211156109b757600080fd5b818501915085601f8301126109cb57600080fd5b8135818111156109dd576109dd61081f565b6109eb848260051b0161085e565b81815284810192506060918202840185019188831115610a0a57600080fd5b938501935b82851015610a625780858a031215610a275760008081fd5b610a2f610835565b85358152610a3e878701610924565b878201526040610a4f818801610940565b9082015284529384019392850192610a0f565b50979650505050505050565b6020808252825182820181905260009190848201906040850190845b81811015610acf57610abc838551805182526020808201516001600160a01b0316908301526040908101511515910152565b9284019260609290920191600101610a8a565b50909695505050505050565b600060208284031215610aed57600080fd5b5035919050565b6000815180845260005b81811015610b1a57602081850181015186830182015201610afe565b506000602082860101526020601f19601f83011685010191505092915050565b602081526000610b4d6020830184610af4565b9392505050565b60208152815160208201526000602083015160606040840152610b7a6080840182610af4565b90506040840151601f19848303016060850152610b978282610af4565b95945050505050565b600060208284031215610bb257600080fd5b610b4d82610940565b600181811c90821680610bcf57607f821691505b60208210810361061257634e487b7160e01b600052602260045260246000fd5b601f821115610c3957600081815260208120601f850160051c81016020861015610c165750805b601f850160051c820191505b81811015610c3557828155600101610c22565b5050505b505050565b815167ffffffffffffffff811115610c5857610c5861081f565b610c6c81610c668454610bbb565b84610bef565b602080601f831160018114610ca15760008415610c895750858301515b600019600386901b1c1916600185901b178555610c35565b600085815260208120601f198616915b82811015610cd057888601518255948401946001909101908401610cb1565b5085821015610cee5787850151600019600388901b60f8161c191681555b5050505050600190811b01905550565b634e487b7160e01b600052603260045260246000fd5b600060018201610d3457634e487b7160e01b600052601160045260246000fd5b506001019056fea264697066735822122082afef54e5fcd26a46c6b150453989a8146e81a2e79d3afb11e0f8f4df1a971664736f6c63430008110033",
  "immutableReferences": {},
  "source": "// SPDX-License-Identifier: MIT\npragma solidity ^0.8.17;\n\nimport \"./PermisoVO.sol\";\n\ncontract RolVO {\n    struct PermisoRol {\n        uint256 id;\n        PermisoVO permiso;\n        bool accesoPermitido;\n    }\n\n    struct RolVoStruct {\n        uint256 id;\n        string nombre;\n        string descripcion;\n    }\n\n    event Log(string data);\n\n    uint256 private id;\n    string private nombre;\n    string private descripcion;\n    bool private estaActivo;\n\n\n    mapping(uint256 => PermisoRol) private permisos; // TODO: Hacer mapper de permisos, para la info de estos\n    uint256[] private idsList; // NOTE Mapped Structs with Index\n\n    function getRolVoValue() public view returns (RolVoStruct memory) {\n        return RolVoStruct(id, nombre, descripcion);\n    }\n\n    function getId() public view returns (uint256) {\n        return id;\n    }\n\n    function getNombre() public view returns (string memory) {\n        return nombre;\n    }\n\n    function getDescripcion() public view returns (string memory) {\n        return descripcion;\n    }\n\n    function getPermisos() public view returns (PermisoRol[] memory) {\n        PermisoRol[] memory lista = new PermisoRol[](idsList.length);\n        for (uint256 i = 0; i < idsList.length; i++) {\n            lista[i] = permisos[idsList[i]];\n        }\n        return lista;\n    }\n\n    function getPermisosSize() public view returns (uint256) {\n        return idsList.length;\n    }\n\n    /*function getPermisos() public view returns (IdValue[] memory) {\n        IdValue[] memory lista = new IdValue[](idsList.length);\n        for (uint256 i = 0; i < idsList.length; i++) {\n            lista[i] = IdValue(idsList[i], permisos[idsList[i]]);\n        }\n        return lista;\n    }*/\n\n    function getPermiso(uint256 _id) public view returns (PermisoRol memory) {\n        return permisos[_id];\n    }\n\n    function getEstaActivo() public view returns (bool) {\n        return estaActivo;\n    }\n\n    function setId(uint256 _id) public {\n        id = _id;\n    }\n\n    function setNombre(string memory _nombre) public {\n        nombre = _nombre;\n    }\n\n    function setDescripcion(string memory _descripcion) public {\n        descripcion = _descripcion;\n    }\n\n    function setPermiso(\n        uint256 _id,\n        PermisoVO _permiso,\n        bool _accesoPermitido\n    ) public {\n        if (permisos[_id].id == 0) {\n            idsList.push(_id);\n            permisos[_id] = PermisoRol(_id, _permiso, _accesoPermitido);\n        }\n        revert(\"Ya existe un permiso registrado para ese ID de metodo\");\n        \n    }\n\n    // TODO: Revisar lgica\n    function setPermisos(PermisoRol[] memory _permisos) public {\n        for (uint256 i = 0; i < _permisos.length; i++) {\n            if (permisos[_permisos[i].id].id == 0) {\n                idsList.push(_permisos[i].id);\n            }\n            permisos[_permisos[i].id] = _permisos[i];\n        }\n    }\n\n    function setEstaActivo(bool _estaActivo) public {\n        estaActivo = _estaActivo;\n    }\n}\n",
  "sourcePath": "/home/felipe/Documentos/Blockchain/codigo/HCE-full/back-hce/contracts/models/RolVO.sol",
  "compiler": {
    "name": "solc",
    "version": "0.8.17+commit.8df45f5f.Emscripten.clang"
  },
  "schemaVersion": "3.4.8",
  "updatedAt": "2023-03-26T17:17:11.259Z",
  "devdoc": {
    "kind": "dev",
    "methods": {},
    "version": 1
  },
  "userdoc": {
    "kind": "user",
    "methods": {},
    "version": 1
  }
}