{
  "contractName": "TipoVinculacionVO",
  "abi": [
    {
      "inputs": [],
      "name": "getTipoVinculacionVOValue",
      "outputs": [
        {
          "components": [
            {
              "internalType": "uint256",
              "name": "id",
              "type": "uint256"
            },
            {
              "internalType": "string",
              "name": "nombre",
              "type": "string"
            },
            {
              "internalType": "string",
              "name": "beneficios",
              "type": "string"
            },
            {
              "internalType": "bool",
              "name": "estaActivo",
              "type": "bool"
            }
          ],
          "internalType": "struct TipoVinculacionVO.TipoVinculacionVOStruct",
          "name": "",
          "type": "tuple"
        }
      ],
      "stateMutability": "view",
      "type": "function"
    },
    {
      "inputs": [
        {
          "components": [
            {
              "internalType": "uint256",
              "name": "id",
              "type": "uint256"
            },
            {
              "internalType": "string",
              "name": "nombre",
              "type": "string"
            },
            {
              "internalType": "string",
              "name": "beneficios",
              "type": "string"
            },
            {
              "internalType": "bool",
              "name": "estaActivo",
              "type": "bool"
            }
          ],
          "internalType": "struct TipoVinculacionVO.TipoVinculacionVOStruct",
          "name": "tipoVinculacionVOStruct",
          "type": "tuple"
        }
      ],
      "name": "setValueOfTipoVinculacionVOStruct",
      "outputs": [],
      "stateMutability": "nonpayable",
      "type": "function"
    },
    {
      "inputs": [],
      "name": "getId",
      "outputs": [
        {
          "internalType": "uint256",
          "name": "",
          "type": "uint256"
        }
      ],
      "stateMutability": "view",
      "type": "function"
    },
    {
      "inputs": [],
      "name": "getNombre",
      "outputs": [
        {
          "internalType": "string",
          "name": "",
          "type": "string"
        }
      ],
      "stateMutability": "view",
      "type": "function"
    },
    {
      "inputs": [],
      "name": "getBeneficios",
      "outputs": [
        {
          "internalType": "string",
          "name": "",
          "type": "string"
        }
      ],
      "stateMutability": "view",
      "type": "function"
    },
    {
      "inputs": [],
      "name": "getEstaActivo",
      "outputs": [
        {
          "internalType": "bool",
          "name": "",
          "type": "bool"
        }
      ],
      "stateMutability": "view",
      "type": "function"
    },
    {
      "inputs": [
        {
          "internalType": "string",
          "name": "_nombre",
          "type": "string"
        }
      ],
      "name": "setNombre",
      "outputs": [],
      "stateMutability": "nonpayable",
      "type": "function"
    },
    {
      "inputs": [
        {
          "internalType": "string",
          "name": "_beneficios",
          "type": "string"
        }
      ],
      "name": "setBeneficios",
      "outputs": [],
      "stateMutability": "nonpayable",
      "type": "function"
    },
    {
      "inputs": [
        {
          "internalType": "bool",
          "name": "_estaActivo",
          "type": "bool"
        }
      ],
      "name": "setEstaActivo",
      "outputs": [],
      "stateMutability": "nonpayable",
      "type": "function"
    },
    {
      "inputs": [
        {
          "internalType": "uint256",
          "name": "_id",
          "type": "uint256"
        }
      ],
      "name": "setId",
      "outputs": [],
      "stateMutability": "nonpayable",
      "type": "function"
    }
  ],
  "bytecode": "0x608060405234801561001057600080fd5b50610838806100206000396000f3fe608060405234801561001057600080fd5b50600436106100bd5760003560e01c80636e4d6afa11610076578063d0e0ba951161005b578063d0e0ba9514610153578063d75cbf9b14610166578063fdaef4831461016e57600080fd5b80636e4d6afa14610128578063af9958461461013d57600080fd5b80633d98f72f116100a75780633d98f72f146100ea5780635d1ca631146100fd578063636b36831461011357600080fd5b806202736b146100c257806325c87ac4146100d7575b600080fd5b6100d56100d03660046104cb565b61018f565b005b6100d56100e536600461051d565b61019f565b6100d56100f83660046104cb565b6101e1565b6000546040519081526020015b60405180910390f35b61011b6101ed565b60405161010a919061060f565b61013061027f565b60405161010a9190610629565b60035460ff16604051901515815260200161010a565b6100d5610161366004610685565b600055565b61011b6103f0565b6100d561017c36600461069e565b6003805460ff1916911515919091179055565b600161019b8282610742565b5050565b805160005560208101516001906101b69082610742565b5060408101516002906101c99082610742565b50606001516003805460ff1916911515919091179055565b600261019b8282610742565b6060600280546101fc906106b9565b80601f0160208091040260200160405190810160405280929190818152602001828054610228906106b9565b80156102755780601f1061024a57610100808354040283529160200191610275565b820191906000526020600020905b81548152906001019060200180831161025857829003601f168201915b5050505050905090565b6102ac60405180608001604052806000815260200160608152602001606081526020016000151581525090565b60405180608001604052806000548152602001600180546102cc906106b9565b80601f01602080910402602001604051908101604052809291908181526020018280546102f8906106b9565b80156103455780601f1061031a57610100808354040283529160200191610345565b820191906000526020600020905b81548152906001019060200180831161032857829003601f168201915b505050505081526020016002805461035c906106b9565b80601f0160208091040260200160405190810160405280929190818152602001828054610388906106b9565b80156103d55780601f106103aa576101008083540402835291602001916103d5565b820191906000526020600020905b8154815290600101906020018083116103b857829003601f168201915b505050918352505060035460ff161515602090910152919050565b6060600180546101fc906106b9565b634e487b7160e01b600052604160045260246000fd5b6040516080810167ffffffffffffffff81118282101715610438576104386103ff565b60405290565b600082601f83011261044f57600080fd5b813567ffffffffffffffff8082111561046a5761046a6103ff565b604051601f8301601f19908116603f01168101908282118183101715610492576104926103ff565b816040528381528660208588010111156104ab57600080fd5b836020870160208301376000602085830101528094505050505092915050565b6000602082840312156104dd57600080fd5b813567ffffffffffffffff8111156104f457600080fd5b6105008482850161043e565b949350505050565b8035801515811461051857600080fd5b919050565b60006020828403121561052f57600080fd5b813567ffffffffffffffff8082111561054757600080fd5b908301906080828603121561055b57600080fd5b610563610415565b8235815260208301358281111561057957600080fd5b6105858782860161043e565b60208301525060408301358281111561059d57600080fd5b6105a98782860161043e565b6040830152506105bb60608401610508565b606082015295945050505050565b6000815180845260005b818110156105ef576020818501810151868301820152016105d3565b506000602082860101526020601f19601f83011685010191505092915050565b60208152600061062260208301846105c9565b9392505050565b6020815281516020820152600060208301516080604084015261064f60a08401826105c9565b90506040840151601f1984830301606085015261066c82826105c9565b9150506060840151151560808401528091505092915050565b60006020828403121561069757600080fd5b5035919050565b6000602082840312156106b057600080fd5b61062282610508565b600181811c908216806106cd57607f821691505b6020821081036106ed57634e487b7160e01b600052602260045260246000fd5b50919050565b601f82111561073d57600081815260208120601f850160051c8101602086101561071a5750805b601f850160051c820191505b8181101561073957828155600101610726565b5050505b505050565b815167ffffffffffffffff81111561075c5761075c6103ff565b6107708161076a84546106b9565b846106f3565b602080601f8311600181146107a5576000841561078d5750858301515b600019600386901b1c1916600185901b178555610739565b600085815260208120601f198616915b828110156107d4578886015182559484019460019091019084016107b5565b50858210156107f25787850151600019600388901b60f8161c191681555b5050505050600190811b0190555056fea2646970667358221220feab22742f1a20626153a60800be4ac54eef4085df6cd5357fc812a2de82198464736f6c63430008110033",
  "immutableReferences": {},
  "source": "// SPDX-License-Identifier: MIT\npragma solidity ^0.8.17;\n\ncontract TipoVinculacionVO {\n    uint256 private id;\n    string private nombre;\n    string private beneficios;\n    bool private estaActivo;\n\n    struct TipoVinculacionVOStruct {\n        uint256 id;\n        string nombre;\n        string beneficios; // Convertir a arreglo\n        bool estaActivo;\n    }\n\n    function getTipoVinculacionVOValue()\n        public\n        view\n        returns (TipoVinculacionVOStruct memory)\n    {\n        return TipoVinculacionVOStruct(id, nombre, beneficios, estaActivo);\n    }\n\n    function setValueOfTipoVinculacionVOStruct(\n        TipoVinculacionVOStruct memory tipoVinculacionVOStruct\n    ) public {\n        id = tipoVinculacionVOStruct.id;\n        nombre = tipoVinculacionVOStruct.nombre;\n        beneficios = tipoVinculacionVOStruct.beneficios;\n        estaActivo = tipoVinculacionVOStruct.estaActivo;\n    }\n\n    function getId() public view returns (uint256) {\n        return id;\n    }\n\n    function getNombre() public view returns (string memory) {\n        return nombre;\n    }\n\n    function getBeneficios() public view returns (string memory) {\n        return beneficios;\n    }\n\n    function getEstaActivo() public view returns (bool) {\n        return estaActivo;\n    }\n\n    function setNombre(string memory _nombre) public {\n        nombre = _nombre;\n    }\n\n    function setBeneficios(string memory _beneficios) public {\n        beneficios = _beneficios;\n    }\n\n    function setEstaActivo(bool _estaActivo) public {\n        estaActivo= _estaActivo;\n    }\n\n    function setId(uint256 _id) public {\n        id = _id;\n    }\n}\n",
  "sourcePath": "/back/contracts/models/VOGenerales/TipoVinculacionVO.sol",
  "compiler": {
    "name": "solc",
    "version": "0.8.17+commit.8df45f5f.Emscripten.clang"
  },
  "schemaVersion": "3.4.11",
  "updatedAt": "2023-05-03T03:35:49.755Z",
  "devdoc": {
    "kind": "dev",
    "methods": {},
    "version": 1
  },
  "userdoc": {
    "kind": "user",
    "methods": {},
    "version": 1
  }
}