{
  "contractName": "TransfusionVO",
  "abi": [
    {
      "inputs": [],
      "stateMutability": "nonpayable",
      "type": "constructor"
    },
    {
      "inputs": [],
      "name": "creador",
      "outputs": [
        {
          "internalType": "address",
          "name": "",
          "type": "address"
        }
      ],
      "stateMutability": "view",
      "type": "function"
    },
    {
      "inputs": [],
      "name": "getCodPrestadorServicioDeSalud",
      "outputs": [
        {
          "internalType": "address",
          "name": "",
          "type": "address"
        }
      ],
      "stateMutability": "view",
      "type": "function"
    },
    {
      "inputs": [],
      "name": "getFechaRegistro",
      "outputs": [
        {
          "internalType": "int256",
          "name": "",
          "type": "int256"
        }
      ],
      "stateMutability": "view",
      "type": "function"
    },
    {
      "inputs": [],
      "name": "getId",
      "outputs": [
        {
          "internalType": "uint256",
          "name": "",
          "type": "uint256"
        }
      ],
      "stateMutability": "view",
      "type": "function"
    },
    {
      "inputs": [],
      "name": "getRegistroMedico",
      "outputs": [
        {
          "components": [
            {
              "internalType": "uint256",
              "name": "id",
              "type": "uint256"
            },
            {
              "internalType": "address",
              "name": "codPrestadorServicioDeSalud",
              "type": "address"
            },
            {
              "internalType": "int256",
              "name": "fechaRegistro",
              "type": "int256"
            },
            {
              "internalType": "enum TipoRegistroMedico",
              "name": "tipoRegistroMedico",
              "type": "uint8"
            }
          ],
          "internalType": "struct RegistroMedico.RegistroMedicoStruct",
          "name": "",
          "type": "tuple"
        }
      ],
      "stateMutability": "view",
      "type": "function"
    },
    {
      "inputs": [],
      "name": "getTipoRegistroMedico",
      "outputs": [
        {
          "internalType": "enum TipoRegistroMedico",
          "name": "",
          "type": "uint8"
        }
      ],
      "stateMutability": "view",
      "type": "function"
    },
    {
      "inputs": [],
      "name": "selfDestruct",
      "outputs": [],
      "stateMutability": "nonpayable",
      "type": "function"
    },
    {
      "inputs": [
        {
          "internalType": "address",
          "name": "_codPrestadorServicioDeSalud",
          "type": "address"
        }
      ],
      "name": "setCodPrestadorServicioDeSalud",
      "outputs": [],
      "stateMutability": "nonpayable",
      "type": "function"
    },
    {
      "inputs": [
        {
          "internalType": "int256",
          "name": "_fechaRegistro",
          "type": "int256"
        }
      ],
      "name": "setFechaRegistro",
      "outputs": [],
      "stateMutability": "nonpayable",
      "type": "function"
    },
    {
      "inputs": [
        {
          "internalType": "uint256",
          "name": "_id",
          "type": "uint256"
        }
      ],
      "name": "setId",
      "outputs": [],
      "stateMutability": "nonpayable",
      "type": "function"
    },
    {
      "inputs": [
        {
          "components": [
            {
              "internalType": "uint256",
              "name": "id",
              "type": "uint256"
            },
            {
              "internalType": "address",
              "name": "codPrestadorServicioDeSalud",
              "type": "address"
            },
            {
              "internalType": "int256",
              "name": "fechaRegistro",
              "type": "int256"
            },
            {
              "internalType": "enum TipoRegistroMedico",
              "name": "tipoRegistroMedico",
              "type": "uint8"
            }
          ],
          "internalType": "struct RegistroMedico.RegistroMedicoStruct",
          "name": "registro",
          "type": "tuple"
        }
      ],
      "name": "setRegistroMedico",
      "outputs": [],
      "stateMutability": "nonpayable",
      "type": "function"
    },
    {
      "inputs": [
        {
          "internalType": "enum TipoRegistroMedico",
          "name": "_tipoRegistroMedico",
          "type": "uint8"
        }
      ],
      "name": "setTipoRegistroMedico",
      "outputs": [],
      "stateMutability": "nonpayable",
      "type": "function"
    },
    {
      "inputs": [],
      "name": "getCantidad",
      "outputs": [
        {
          "internalType": "uint256",
          "name": "",
          "type": "uint256"
        }
      ],
      "stateMutability": "view",
      "type": "function"
    },
    {
      "inputs": [],
      "name": "getReacciones",
      "outputs": [
        {
          "internalType": "string",
          "name": "",
          "type": "string"
        }
      ],
      "stateMutability": "view",
      "type": "function"
    },
    {
      "inputs": [],
      "name": "getFechaTransfusion",
      "outputs": [
        {
          "internalType": "int256",
          "name": "",
          "type": "int256"
        }
      ],
      "stateMutability": "view",
      "type": "function"
    },
    {
      "inputs": [],
      "name": "getTransfusionStruct",
      "outputs": [
        {
          "components": [
            {
              "internalType": "uint256",
              "name": "cantidad",
              "type": "uint256"
            },
            {
              "internalType": "string",
              "name": "reacciones",
              "type": "string"
            },
            {
              "internalType": "int256",
              "name": "fechaTransfusion",
              "type": "int256"
            }
          ],
          "internalType": "struct TransfusionVO.TransfusionStruct",
          "name": "",
          "type": "tuple"
        }
      ],
      "stateMutability": "view",
      "type": "function"
    },
    {
      "inputs": [
        {
          "components": [
            {
              "internalType": "uint256",
              "name": "cantidad",
              "type": "uint256"
            },
            {
              "internalType": "string",
              "name": "reacciones",
              "type": "string"
            },
            {
              "internalType": "int256",
              "name": "fechaTransfusion",
              "type": "int256"
            }
          ],
          "internalType": "struct TransfusionVO.TransfusionStruct",
          "name": "_transfusionStruct",
          "type": "tuple"
        }
      ],
      "name": "setTransfusionStruct",
      "outputs": [],
      "stateMutability": "nonpayable",
      "type": "function"
    },
    {
      "inputs": [
        {
          "internalType": "uint256",
          "name": "_cantidad",
          "type": "uint256"
        }
      ],
      "name": "setCantidad",
      "outputs": [],
      "stateMutability": "nonpayable",
      "type": "function"
    },
    {
      "inputs": [
        {
          "internalType": "string",
          "name": "_reacciones",
          "type": "string"
        }
      ],
      "name": "setReacciones",
      "outputs": [],
      "stateMutability": "nonpayable",
      "type": "function"
    },
    {
      "inputs": [
        {
          "internalType": "int256",
          "name": "_fechaTransfusion",
          "type": "int256"
        }
      ],
      "name": "setFechaTransfusion",
      "outputs": [],
      "stateMutability": "nonpayable",
      "type": "function"
    }
  ],
  "bytecode": "0x608060405234801561001057600080fd5b506004805460ff1916600f17905560008054336001600160a01b0319909116179055610b96806100416000396000f3fe608060405234801561001057600080fd5b506004361061016c5760003560e01c80635f3774d4116100cd57806393be08ef11610081578063ca3c5a1311610066578063ca3c5a13146102d2578063d0e0ba95146102e5578063e45a4f8d146102f857600080fd5b806393be08ef146102b95780639cb8a26a146102ca57600080fd5b8063803a56ec116100b2578063803a56ec1461023c5780638423ed981461027957806392ebdcd21461028e57600080fd5b80635f3774d4146102165780636d6bb1121461022957600080fd5b80631b59abb91161012457806341be1feb1161010957806341be1feb146101e857806344517a9a146101fb5780635d1ca6311461020e57600080fd5b80631b59abb9146101cd5780633d62cc76146101d557600080fd5b806304c8589c1161015557806304c8589c1461019d5780630bcacc1b146101b05780630d676325146101c557600080fd5b806303a2d8d714610171578063045c7bbe14610188575b600080fd5b6005545b6040519081526020015b60405180910390f35b61019b61019636600461068a565b600355565b005b61019b6101ab36600461068a565b600755565b6101b861030d565b60405161017f91906106db565b600754610175565b600354610175565b61019b6101e336600461068a565b600555565b61019b6101f63660046107c0565b610382565b60045460ff1660405161017f91906107fd565b600154610175565b61019b61022436600461083c565b610392565b61019b6102373660046108ab565b6103fe565b61019b61024a366004610945565b6002805473ffffffffffffffffffffffffffffffffffffffff19166001600160a01b0392909216919091179055565b61028161042b565b60405161017f91906109ad565b6000546102a1906001600160a01b031681565b6040516001600160a01b03909116815260200161017f565b6002546001600160a01b03166102a1565b61019b610504565b61019b6102e03660046109e9565b6105d6565b61019b6102f336600461068a565b600155565b6103006105f5565b60405161017f9190610a04565b6103356040805160808101825260008082526020820181905291810182905290606082015290565b6040805160808101825260015481526002546001600160a01b0316602082015260035491810191909152600454606082019060ff16601281111561037b5761037b6106a3565b9052919050565b600661038e8282610aa0565b5050565b8051600190815560208201516002805473ffffffffffffffffffffffffffffffffffffffff19166001600160a01b0390921691909117905560408201516003556060820151600480549192909160ff1916908360128111156103f6576103f66106a3565b021790555050565b80516005908155602082015182919060069061041a9082610aa0565b506040820151816002015590505050565b61044f60405180606001604052806000815260200160608152602001600081525090565b60408051606081019091526005805482526006805460208401919061047390610a17565b80601f016020809104026020016040519081016040528092919081815260200182805461049f90610a17565b80156104ec5780601f106104c1576101008083540402835291602001916104ec565b820191906000526020600020905b8154815290600101906020018083116104cf57829003601f168201915b50505050508152602001600282015481525050905090565b6000546001600160a01b031633146105c8576040517f08c379a000000000000000000000000000000000000000000000000000000000815260206004820152604160248201527f457374612066756e63696f6e20736f6c6f2070756564652073657220656a656360448201527f757461646120706f7220656c2063726561646f722064656c20636f6e7472617460648201527f6f00000000000000000000000000000000000000000000000000000000000000608482015260a40160405180910390fd5b6000546001600160a01b0316ff5b6004805482919060ff191660018360128111156103f6576103f66106a3565b60606005600101805461060790610a17565b80601f016020809104026020016040519081016040528092919081815260200182805461063390610a17565b80156106805780601f1061065557610100808354040283529160200191610680565b820191906000526020600020905b81548152906001019060200180831161066357829003601f168201915b5050505050905090565b60006020828403121561069c57600080fd5b5035919050565b634e487b7160e01b600052602160045260246000fd5b601381106106d757634e487b7160e01b600052602160045260246000fd5b9052565b6000608082019050825182526001600160a01b03602084015116602083015260408301516040830152606083015161071660608401826106b9565b5092915050565b634e487b7160e01b600052604160045260246000fd5b600082601f83011261074457600080fd5b813567ffffffffffffffff8082111561075f5761075f61071d565b604051601f8301601f19908116603f011681019082821181831017156107875761078761071d565b816040528381528660208588010111156107a057600080fd5b836020870160208301376000602085830101528094505050505092915050565b6000602082840312156107d257600080fd5b813567ffffffffffffffff8111156107e957600080fd5b6107f584828501610733565b949350505050565b6020810161080b82846106b9565b92915050565b80356001600160a01b038116811461082857600080fd5b919050565b80356013811061082857600080fd5b60006080828403121561084e57600080fd5b6040516080810181811067ffffffffffffffff821117156108715761087161071d565b6040528235815261088460208401610811565b60208201526040830135604082015261089f6060840161082d565b60608201529392505050565b6000602082840312156108bd57600080fd5b813567ffffffffffffffff808211156108d557600080fd5b90830190606082860312156108e957600080fd5b6040516060810181811083821117156109045761090461071d565b6040528235815260208301358281111561091d57600080fd5b61092987828601610733565b6020830152506040830135604082015280935050505092915050565b60006020828403121561095757600080fd5b61096082610811565b9392505050565b6000815180845260005b8181101561098d57602081850181015186830182015201610971565b506000602082860101526020601f19601f83011685010191505092915050565b602081528151602082015260006020830151606060408401526109d36080840182610967565b9050604084015160608401528091505092915050565b6000602082840312156109fb57600080fd5b6109608261082d565b6020815260006109606020830184610967565b600181811c90821680610a2b57607f821691505b602082108103610a4b57634e487b7160e01b600052602260045260246000fd5b50919050565b601f821115610a9b57600081815260208120601f850160051c81016020861015610a785750805b601f850160051c820191505b81811015610a9757828155600101610a84565b5050505b505050565b815167ffffffffffffffff811115610aba57610aba61071d565b610ace81610ac88454610a17565b84610a51565b602080601f831160018114610b035760008415610aeb5750858301515b600019600386901b1c1916600185901b178555610a97565b600085815260208120601f198616915b82811015610b3257888601518255948401946001909101908401610b13565b5085821015610b505787850151600019600388901b60f8161c191681555b5050505050600190811b0190555056fea26469706673582212200f775900abd2ed29d5f0e489cae6ba236aca9f3f04c9591ce9996d333df833b464736f6c63430008110033",
  "immutableReferences": {},
  "source": "// SPDX-License-Identifier: MIT\npragma solidity ^0.8.17;\n\nimport \"./RegistroMedico.sol\";\n\n\ncontract TransfusionVO is RegistroMedico (TipoRegistroMedico.TRANSFUSIONVO) {\n    struct TransfusionStruct {\n        uint cantidad;\n        string reacciones;\n        int256 fechaTransfusion;        \n    }\n\n    TransfusionStruct private transfusionStruct;\n\n    constructor() {\n        creador = msg.sender;\n    }\n\n    function getCantidad() public view returns (uint256) {\n        return transfusionStruct.cantidad;\n    }\n\n    function getReacciones() public view returns (string memory) {\n        return transfusionStruct.reacciones;\n    }\n\n    function getFechaTransfusion() public view returns (int256) {\n        return transfusionStruct.fechaTransfusion;\n    }\n\n    function getTransfusionStruct()\n        public\n        view\n        returns (TransfusionStruct memory)\n    {\n        return transfusionStruct;\n    }\n\n    function setTransfusionStruct(\n        TransfusionStruct memory _transfusionStruct\n    ) public {\n        transfusionStruct = _transfusionStruct;\n    }\n\n    function setCantidad(uint256 _cantidad) public {\n        transfusionStruct.cantidad = _cantidad;\n    }\n\n    function setReacciones(string memory _reacciones) public {\n        transfusionStruct.reacciones = _reacciones;\n    }\n\n    function setFechaTransfusion(int256 _fechaTransfusion) public {\n        transfusionStruct.fechaTransfusion = _fechaTransfusion;\n    }\n}\n",
  "sourcePath": "/back/contracts/models/historiaClinica/TransfusionVO.sol",
  "compiler": {
    "name": "solc",
    "version": "0.8.17+commit.8df45f5f.Emscripten.clang"
  },
  "schemaVersion": "3.4.11",
  "updatedAt": "2023-06-26T00:47:43.625Z",
  "devdoc": {
    "kind": "dev",
    "methods": {},
    "version": 1
  },
  "userdoc": {
    "kind": "user",
    "methods": {},
    "version": 1
  }
}