{
  "contractName": "TraumatismoVO",
  "abi": [
    {
      "inputs": [],
      "name": "creador",
      "outputs": [
        {
          "internalType": "address",
          "name": "",
          "type": "address"
        }
      ],
      "stateMutability": "view",
      "type": "function"
    },
    {
      "inputs": [],
      "name": "getCodPrestadorServicioDeSalud",
      "outputs": [
        {
          "internalType": "address",
          "name": "",
          "type": "address"
        }
      ],
      "stateMutability": "view",
      "type": "function"
    },
    {
      "inputs": [],
      "name": "getFechaRegistro",
      "outputs": [
        {
          "internalType": "uint256",
          "name": "",
          "type": "uint256"
        }
      ],
      "stateMutability": "view",
      "type": "function"
    },
    {
      "inputs": [],
      "name": "getId",
      "outputs": [
        {
          "internalType": "uint256",
          "name": "",
          "type": "uint256"
        }
      ],
      "stateMutability": "view",
      "type": "function"
    },
    {
      "inputs": [],
      "name": "getRegistroMedico",
      "outputs": [
        {
          "components": [
            {
              "internalType": "uint256",
              "name": "id",
              "type": "uint256"
            },
            {
              "internalType": "address",
              "name": "codPrestadorServicioDeSalud",
              "type": "address"
            },
            {
              "internalType": "uint256",
              "name": "fechaRegistro",
              "type": "uint256"
            },
            {
              "internalType": "enum TipoRegistroMedico",
              "name": "tipoRegistroMedico",
              "type": "uint8"
            }
          ],
          "internalType": "struct RegistroMedico.RegistroMedicoStruct",
          "name": "",
          "type": "tuple"
        }
      ],
      "stateMutability": "view",
      "type": "function"
    },
    {
      "inputs": [],
      "name": "getTipoRegistroMedico",
      "outputs": [
        {
          "internalType": "enum TipoRegistroMedico",
          "name": "",
          "type": "uint8"
        }
      ],
      "stateMutability": "view",
      "type": "function"
    },
    {
      "inputs": [],
      "name": "selfDestruct",
      "outputs": [],
      "stateMutability": "nonpayable",
      "type": "function"
    },
    {
      "inputs": [
        {
          "internalType": "address",
          "name": "_codPrestadorServicioDeSalud",
          "type": "address"
        }
      ],
      "name": "setCodPrestadorServicioDeSalud",
      "outputs": [],
      "stateMutability": "nonpayable",
      "type": "function"
    },
    {
      "inputs": [
        {
          "internalType": "uint256",
          "name": "_fechaRegistro",
          "type": "uint256"
        }
      ],
      "name": "setFechaRegistro",
      "outputs": [],
      "stateMutability": "nonpayable",
      "type": "function"
    },
    {
      "inputs": [
        {
          "internalType": "uint256",
          "name": "_id",
          "type": "uint256"
        }
      ],
      "name": "setId",
      "outputs": [],
      "stateMutability": "nonpayable",
      "type": "function"
    },
    {
      "inputs": [
        {
          "components": [
            {
              "internalType": "uint256",
              "name": "id",
              "type": "uint256"
            },
            {
              "internalType": "address",
              "name": "codPrestadorServicioDeSalud",
              "type": "address"
            },
            {
              "internalType": "uint256",
              "name": "fechaRegistro",
              "type": "uint256"
            },
            {
              "internalType": "enum TipoRegistroMedico",
              "name": "tipoRegistroMedico",
              "type": "uint8"
            }
          ],
          "internalType": "struct RegistroMedico.RegistroMedicoStruct",
          "name": "registro",
          "type": "tuple"
        }
      ],
      "name": "setRegistroMedico",
      "outputs": [],
      "stateMutability": "nonpayable",
      "type": "function"
    },
    {
      "inputs": [
        {
          "internalType": "enum TipoRegistroMedico",
          "name": "_tipoRegistroMedico",
          "type": "uint8"
        }
      ],
      "name": "setTipoRegistroMedico",
      "outputs": [],
      "stateMutability": "nonpayable",
      "type": "function"
    },
    {
      "inputs": [],
      "name": "getDescripcion",
      "outputs": [
        {
          "internalType": "string",
          "name": "",
          "type": "string"
        }
      ],
      "stateMutability": "view",
      "type": "function"
    },
    {
      "inputs": [],
      "name": "getFechaAproximada",
      "outputs": [
        {
          "internalType": "uint256",
          "name": "",
          "type": "uint256"
        }
      ],
      "stateMutability": "view",
      "type": "function"
    },
    {
      "inputs": [],
      "name": "getTraumatismoStruct",
      "outputs": [
        {
          "components": [
            {
              "internalType": "string",
              "name": "descripcion",
              "type": "string"
            },
            {
              "internalType": "uint256",
              "name": "fechaAproximada",
              "type": "uint256"
            }
          ],
          "internalType": "struct TraumatismoVO.TraumatismoStruct",
          "name": "",
          "type": "tuple"
        }
      ],
      "stateMutability": "view",
      "type": "function"
    },
    {
      "inputs": [
        {
          "components": [
            {
              "internalType": "string",
              "name": "descripcion",
              "type": "string"
            },
            {
              "internalType": "uint256",
              "name": "fechaAproximada",
              "type": "uint256"
            }
          ],
          "internalType": "struct TraumatismoVO.TraumatismoStruct",
          "name": "_traumatismoStruct",
          "type": "tuple"
        }
      ],
      "name": "setTraumatismoStruct",
      "outputs": [],
      "stateMutability": "nonpayable",
      "type": "function"
    },
    {
      "inputs": [
        {
          "internalType": "string",
          "name": "_descripcion",
          "type": "string"
        }
      ],
      "name": "setDescripcion",
      "outputs": [],
      "stateMutability": "nonpayable",
      "type": "function"
    },
    {
      "inputs": [
        {
          "internalType": "uint256",
          "name": "_fechaAproximada",
          "type": "uint256"
        }
      ],
      "name": "setFechaAproximada",
      "outputs": [],
      "stateMutability": "nonpayable",
      "type": "function"
    }
  ],
  "bytecode": "0x608060405234801561001057600080fd5b506004805460ff19166010179055610b168061002d6000396000f3fe608060405234801561001057600080fd5b50600436106101365760003560e01c806393be08ef116100b2578063ca3c5a1311610081578063d45795cb11610066578063d45795cb14610285578063f9a9ff9d14610298578063f9c0cba7146102ad57600080fd5b8063ca3c5a131461025f578063d0e0ba951461027257600080fd5b806393be08ef1461022057806399c0e3cd146102315780639cb8a26a14610244578063a204b7c91461024c57600080fd5b80634ec4b32d11610109578063725d4550116100ee578063725d4550146101a3578063803a56ec146101b857806392ebdcd2146101f557600080fd5b80634ec4b32d146101935780635d1ca6311461019b57600080fd5b80630bcacc1b1461013b5780631b59abb91461015957806327f074cf1461016b57806344517a9a14610180575b600080fd5b6101436102c0565b6040516101509190610656565b60405180910390f35b6003545b604051908152602001610150565b61017e610179366004610698565b600355565b005b60045460ff1660405161015091906106b1565b60065461015d565b60015461015d565b6101ab610335565b604051610150919061070b565b61017e6101c6366004610759565b6002805473ffffffffffffffffffffffffffffffffffffffff19166001600160a01b0392909216919091179055565b600054610208906001600160a01b031681565b6040516001600160a01b039091168152602001610150565b6002546001600160a01b0316610208565b61017e61023f36600461081e565b6103f8565b61017e61041c565b61017e61025a3660046108bd565b6104ee565b61017e61026d36600461092c565b61055a565b61017e610280366004610698565b600155565b61017e610293366004610947565b610579565b6102a0610589565b6040516101509190610984565b61017e6102bb366004610698565b600655565b6102e86040805160808101825260008082526020820181905291810182905290606082015290565b6040805160808101825260015481526002546001600160a01b0316602082015260035491810191909152600454606082019060ff16601281111561032e5761032e61061e565b9052919050565b604080518082019091526060815260006020820152600560405180604001604052908160008201805461036790610997565b80601f016020809104026020016040519081016040528092919081815260200182805461039390610997565b80156103e05780601f106103b5576101008083540402835291602001916103e0565b820191906000526020600020905b8154815290600101906020018083116103c357829003601f168201915b50505050508152602001600182015481525050905090565b80518190600590819061040b9082610a20565b506020820151816001015590505050565b6000546001600160a01b031633146104e0576040517f08c379a000000000000000000000000000000000000000000000000000000000815260206004820152604160248201527f457374612066756e63696f6e20736f6c6f2070756564652073657220656a656360448201527f757461646120706f7220656c2063726561646f722064656c20636f6e7472617460648201527f6f00000000000000000000000000000000000000000000000000000000000000608482015260a40160405180910390fd5b6000546001600160a01b0316ff5b8051600190815560208201516002805473ffffffffffffffffffffffffffffffffffffffff19166001600160a01b0390921691909117905560408201516003556060820151600480549192909160ff1916908360128111156105525761055261061e565b021790555050565b6004805482919060ff191660018360128111156105525761055261061e565b60056105858282610a20565b5050565b60606005600001805461059b90610997565b80601f01602080910402602001604051908101604052809291908181526020018280546105c790610997565b80156106145780601f106105e957610100808354040283529160200191610614565b820191906000526020600020905b8154815290600101906020018083116105f757829003601f168201915b5050505050905090565b634e487b7160e01b600052602160045260246000fd5b6013811061065257634e487b7160e01b600052602160045260246000fd5b9052565b6000608082019050825182526001600160a01b0360208401511660208301526040830151604083015260608301516106916060840182610634565b5092915050565b6000602082840312156106aa57600080fd5b5035919050565b602081016106bf8284610634565b92915050565b6000815180845260005b818110156106eb576020818501810151868301820152016106cf565b506000602082860101526020601f19601f83011685010191505092915050565b60208152600082516040602084015261072760608401826106c5565b9050602084015160408401528091505092915050565b80356001600160a01b038116811461075457600080fd5b919050565b60006020828403121561076b57600080fd5b6107748261073d565b9392505050565b634e487b7160e01b600052604160045260246000fd5b600082601f8301126107a257600080fd5b813567ffffffffffffffff808211156107bd576107bd61077b565b604051601f8301601f19908116603f011681019082821181831017156107e5576107e561077b565b816040528381528660208588010111156107fe57600080fd5b836020870160208301376000602085830101528094505050505092915050565b60006020828403121561083057600080fd5b813567ffffffffffffffff8082111561084857600080fd5b908301906040828603121561085c57600080fd5b6040516040810181811083821117156108775761087761077b565b60405282358281111561088957600080fd5b61089587828601610791565b8252506020830135602082015280935050505092915050565b80356013811061075457600080fd5b6000608082840312156108cf57600080fd5b6040516080810181811067ffffffffffffffff821117156108f2576108f261077b565b604052823581526109056020840161073d565b602082015260408301356040820152610920606084016108ae565b60608201529392505050565b60006020828403121561093e57600080fd5b610774826108ae565b60006020828403121561095957600080fd5b813567ffffffffffffffff81111561097057600080fd5b61097c84828501610791565b949350505050565b60208152600061077460208301846106c5565b600181811c908216806109ab57607f821691505b6020821081036109cb57634e487b7160e01b600052602260045260246000fd5b50919050565b601f821115610a1b57600081815260208120601f850160051c810160208610156109f85750805b601f850160051c820191505b81811015610a1757828155600101610a04565b5050505b505050565b815167ffffffffffffffff811115610a3a57610a3a61077b565b610a4e81610a488454610997565b846109d1565b602080601f831160018114610a835760008415610a6b5750858301515b600019600386901b1c1916600185901b178555610a17565b600085815260208120601f198616915b82811015610ab257888601518255948401946001909101908401610a93565b5085821015610ad05787850151600019600388901b60f8161c191681555b5050505050600190811b0190555056fea2646970667358221220f30359fb0b003841194dab2f2871fd0c83a9b1407297cdcb6a95662febd99c9964736f6c63430008110033",
  "immutableReferences": {},
  "source": "// SPDX-License-Identifier: MIT\npragma solidity ^0.8.17;\n\nimport \"./RegistroMedico.sol\";\n\ncontract TraumatismoVO is RegistroMedico (TipoRegistroMedico.TRAUMATISMOVO) {\n    struct TraumatismoStruct {\n        string descripcion;\n        uint256 fechaAproximada;\n    }\n\n    TraumatismoStruct private traumatismoStruct;\n\n    function getDescripcion() public view returns (string memory) {\n        return traumatismoStruct.descripcion;\n    }\n\n    function getFechaAproximada() public view returns (uint256) {\n        return traumatismoStruct.fechaAproximada;\n    }\n\n    function getTraumatismoStruct()\n        public\n        view\n        returns (TraumatismoStruct memory)\n    {\n        return traumatismoStruct;\n    }\n\n    function setTraumatismoStruct(\n        TraumatismoStruct memory _traumatismoStruct\n    ) public {\n        traumatismoStruct = _traumatismoStruct;\n    }\n\n    function setDescripcion(string memory _descripcion) public {\n        traumatismoStruct.descripcion = _descripcion;\n    }\n\n    function setFechaAproximada(uint256 _fechaAproximada) public {\n        traumatismoStruct.fechaAproximada = _fechaAproximada;\n    }\n}\n",
  "sourcePath": "/home/felipe/Documentos/Blockchain/codigo/HCE-full/back-hce/contracts/models/historiaClinica/TraumatismoVO.sol",
  "compiler": {
    "name": "solc",
    "version": "0.8.17+commit.8df45f5f.Emscripten.clang"
  },
  "schemaVersion": "3.4.8",
  "updatedAt": "2023-04-05T22:10:23.474Z",
  "devdoc": {
    "kind": "dev",
    "methods": {},
    "version": 1
  },
  "userdoc": {
    "kind": "user",
    "methods": {},
    "version": 1
  }
}