{
  "contractName": "UsuarioMapper",
  "abi": [
    {
      "inputs": [],
      "stateMutability": "nonpayable",
      "type": "constructor"
    },
    {
      "anonymous": false,
      "inputs": [
        {
          "indexed": false,
          "internalType": "string",
          "name": "data",
          "type": "string"
        }
      ],
      "name": "Log",
      "type": "event"
    },
    {
      "inputs": [],
      "name": "creador",
      "outputs": [
        {
          "internalType": "address",
          "name": "",
          "type": "address"
        }
      ],
      "stateMutability": "view",
      "type": "function",
      "constant": true
    },
    {
      "inputs": [
        {
          "internalType": "address",
          "name": "direccion",
          "type": "address"
        }
      ],
      "name": "consultar",
      "outputs": [
        {
          "internalType": "contract UsuarioVO",
          "name": "",
          "type": "address"
        }
      ],
      "stateMutability": "view",
      "type": "function",
      "constant": true
    },
    {
      "inputs": [
        {
          "internalType": "address",
          "name": "direccion",
          "type": "address"
        },
        {
          "internalType": "contract UsuarioVO",
          "name": "_usuario",
          "type": "address"
        }
      ],
      "name": "guardar",
      "outputs": [],
      "stateMutability": "nonpayable",
      "type": "function"
    },
    {
      "inputs": [
        {
          "internalType": "address",
          "name": "direccion",
          "type": "address"
        },
        {
          "internalType": "contract UsuarioVO",
          "name": "usuario",
          "type": "address"
        }
      ],
      "name": "actualizar",
      "outputs": [],
      "stateMutability": "nonpayable",
      "type": "function"
    },
    {
      "inputs": [],
      "name": "selfDestruct",
      "outputs": [],
      "stateMutability": "nonpayable",
      "type": "function"
    }
  ],
  "bytecode": "0x608060405234801561001057600080fd5b50600080546001600160a01b03191633179055610413806100326000396000f3fe608060405234801561001057600080fd5b50600436106100675760003560e01c806392ebdcd21161005057806392ebdcd2146100b05780639cb8a26a146100c3578063be381c59146100cb57600080fd5b80630da7d7a51461006c5780637da8f6a514610081575b600080fd5b61007f61007a366004610380565b6100de565b005b61009461008f3660046103b9565b6101b6565b6040516001600160a01b03909116815260200160405180910390f35b600054610094906001600160a01b031681565b61007f610226565b61007f6100d9366004610380565b6102da565b6001600160a01b03828116600090815260016020526040902054166101705760405162461bcd60e51b815260206004820152602f60248201527f4e6f2065786973746520756e207573756172696f207265676973747261646f2060448201527f636f6e206573652061646472657373000000000000000000000000000000000060648201526084015b60405180910390fd5b6001600160a01b03918216600090815260016020526040902080547fffffffffffffffffffffffff00000000000000000000000000000000000000001691909216179055565b6001600160a01b03808216600090815260016020526040812054909116806102205760405162461bcd60e51b815260206004820152601560248201527f4e6f2065786973746520657365207573756172696f00000000000000000000006044820152606401610167565b92915050565b6000546001600160a01b031633146102cc5760405162461bcd60e51b815260206004820152604160248201527f457374612066756e63696f6e20736f6c6f2070756564652073657220656a656360448201527f757461646120706f7220656c2063726561646f722064656c20636f6e7472617460648201527f6f00000000000000000000000000000000000000000000000000000000000000608482015260a401610167565b6000546001600160a01b0316ff5b6001600160a01b0382811660009081526001602052604090205416156101705760405162461bcd60e51b815260206004820152602f60248201527f59612065786973746520756e207573756172696f207265676973747261646f2060448201527f636f6e20657365206164647265737300000000000000000000000000000000006064820152608401610167565b6001600160a01b038116811461037d57600080fd5b50565b6000806040838503121561039357600080fd5b823561039e81610368565b915060208301356103ae81610368565b809150509250929050565b6000602082840312156103cb57600080fd5b81356103d681610368565b939250505056fea2646970667358221220d8656ac5fad08101856cd64b63582158a1be1bd9e3364d7b952eb439e83784a264736f6c63430008110033",
  "immutableReferences": {},
  "source": "// SPDX-License-Identifier: MIT\npragma solidity ^0.8.17;\n// import \"../logica/Persona.sol\";\nimport \"../models/UsuarioVO.sol\";\nimport \"./UsuarioMapperInterface.sol\";\n\ncontract UsuarioMapper is UsuarioMapperInterface {\n    address public creador;\n\n    mapping(address => UsuarioVO) private usuarios;\n\n    constructor() {\n        creador = msg.sender;\n    }\n\n    function consultar(address direccion) external view returns (UsuarioVO) {\n        UsuarioVO usuario = usuarios[direccion];\n        if (address(usuario) == address(0)) {\n            revert(\"No existe ese usuario\");\n        }\n\n        return usuario;\n    }\n\n    function guardar(address direccion, UsuarioVO _usuario) public {\n        if (address(usuarios[direccion]) != address(0)) {\n            revert(\"Ya existe un usuario registrado con ese address\");\n        }\n        usuarios[direccion] = _usuario;\n    }\n\n    function actualizar(address direccion, UsuarioVO usuario) public {\n        if (address(usuarios[direccion]) == address(0)) {\n            revert(\"No existe un usuario registrado con ese address\");\n        }\n        usuarios[direccion] = usuario;\n    }\n\n    modifier esPropietario() {\n        require(\n            msg.sender == creador,\n            \"Esta funcion solo puede ser ejecutada por el creador del contrato\"\n        );\n        _; // ac se ejecuta la funcin\n    }\n\n    function selfDestruct() public esPropietario {\n        selfdestruct(payable(creador));\n    }\n}\n",
  "sourcePath": "/back/contracts/persistence/UsuarioMapper.sol",
  "compiler": {
    "name": "solc",
    "version": "0.8.17+commit.8df45f5f.Emscripten.clang"
  },
  "schemaVersion": "3.4.11",
  "updatedAt": "2023-06-26T00:48:28.040Z",
  "networkType": "ethereum",
  "devdoc": {
    "kind": "dev",
    "methods": {},
    "version": 1
  },
  "userdoc": {
    "kind": "user",
    "methods": {},
    "version": 1
  }
}