{
  "contractName": "Usuario",
  "abi": [
    {
      "inputs": [],
      "stateMutability": "nonpayable",
      "type": "constructor"
    },
    {
      "inputs": [],
      "name": "creador",
      "outputs": [
        {
          "internalType": "address",
          "name": "",
          "type": "address"
        }
      ],
      "stateMutability": "view",
      "type": "function"
    },
    {
      "inputs": [],
      "name": "getDirecion",
      "outputs": [
        {
          "internalType": "address",
          "name": "",
          "type": "address"
        }
      ],
      "stateMutability": "view",
      "type": "function"
    },
    {
      "inputs": [
        {
          "internalType": "address",
          "name": "newMessage",
          "type": "address"
        }
      ],
      "name": "setDirecion",
      "outputs": [],
      "stateMutability": "nonpayable",
      "type": "function"
    },
    {
      "inputs": [],
      "name": "getRol",
      "outputs": [
        {
          "internalType": "string",
          "name": "",
          "type": "string"
        }
      ],
      "stateMutability": "view",
      "type": "function"
    },
    {
      "inputs": [
        {
          "internalType": "address",
          "name": "newMessage",
          "type": "address"
        }
      ],
      "name": "setRol",
      "outputs": [],
      "stateMutability": "nonpayable",
      "type": "function"
    }
  ],
  "bytecode": "0x608060405234801561001057600080fd5b50336000806101000a81548173ffffffffffffffffffffffffffffffffffffffff021916908373ffffffffffffffffffffffffffffffffffffffff160217905550610462806100606000396000f3fe608060405234801561001057600080fd5b50600436106100575760003560e01c8063329f11ca1461005c57806343e50b001461007857806392ebdcd214610096578063c3e00aff146100b4578063ce8dd29f146100d2575b600080fd5b610076600480360381019061007191906102b9565b6100ee565b005b610080610132565b60405161008d91906102f5565b60405180910390f35b61009e61015c565b6040516100ab91906102f5565b60405180910390f35b6100bc610180565b6040516100c991906103a9565b60405180910390f35b6100ec60048036038101906100e791906102b9565b610212565b005b80600160006101000a81548173ffffffffffffffffffffffffffffffffffffffff021916908373ffffffffffffffffffffffffffffffffffffffff16021790555050565b6000600160009054906101000a900473ffffffffffffffffffffffffffffffffffffffff16905090565b60008054906101000a900473ffffffffffffffffffffffffffffffffffffffff1681565b60606002805461018f906103fa565b80601f01602080910402602001604051908101604052809291908181526020018280546101bb906103fa565b80156102085780601f106101dd57610100808354040283529160200191610208565b820191906000526020600020905b8154815290600101906020018083116101eb57829003601f168201915b5050505050905090565b80600160006101000a81548173ffffffffffffffffffffffffffffffffffffffff021916908373ffffffffffffffffffffffffffffffffffffffff16021790555050565b600080fd5b600073ffffffffffffffffffffffffffffffffffffffff82169050919050565b60006102868261025b565b9050919050565b6102968161027b565b81146102a157600080fd5b50565b6000813590506102b38161028d565b92915050565b6000602082840312156102cf576102ce610256565b5b60006102dd848285016102a4565b91505092915050565b6102ef8161027b565b82525050565b600060208201905061030a60008301846102e6565b92915050565b600081519050919050565b600082825260208201905092915050565b60005b8381101561034a57808201518184015260208101905061032f565b83811115610359576000848401525b50505050565b6000601f19601f8301169050919050565b600061037b82610310565b610385818561031b565b935061039581856020860161032c565b61039e8161035f565b840191505092915050565b600060208201905081810360008301526103c38184610370565b905092915050565b7f4e487b7100000000000000000000000000000000000000000000000000000000600052602260045260246000fd5b6000600282049050600182168061041257607f821691505b60208210811415610426576104256103cb565b5b5091905056fea2646970667358221220060277a73f2ff8afe038e4be363a9ad85507dfa3d202a40995e1e3bb906d635764736f6c634300080b0033",
  "immutableReferences": {},
  "source": "pragma solidity >=0.4.22 <0.9.0; // TODO: Ajustar la versin por consenso con Jos\n\ncontract Usuario {\n    address public creador;\n\n    address private direccion;\n    string private rol; // TODO: Cambiar al tipo RolStruct\n\n    constructor() public {\n        creador = msg.sender; // creador del contrato\n    }\n\n    function getDirecion() public view returns (address) {\n        return direccion;\n    }\n\n    function setDirecion(address newMessage) public {\n        direccion = newMessage;\n    }\n\n    function getRol() public view returns (string memory) {\n        return rol;\n    }\n\n    function setRol(address newMessage) public {\n        direccion = newMessage;\n    }\n}\n",
  "sourcePath": "/home/felipe/Documentos/Blockchain/codigo/back-hce/contracts/logica/Usuario.sol",
  "compiler": {
    "name": "solc",
    "version": "0.8.11+commit.d7f03943.Emscripten.clang"
  },
  "schemaVersion": "3.4.4",
  "updatedAt": "2022-01-18T03:05:30.691Z",
  "devdoc": {
    "kind": "dev",
    "methods": {},
    "version": 1
  },
  "userdoc": {
    "kind": "user",
    "methods": {},
    "version": 1
  }
}