{
  "contractName": "Usuario",
  "abi": [
    {
      "inputs": [],
      "stateMutability": "nonpayable",
      "type": "constructor"
    },
    {
      "inputs": [],
      "name": "creador",
      "outputs": [
        {
          "internalType": "address",
          "name": "",
          "type": "address"
        }
      ],
      "stateMutability": "view",
      "type": "function"
    },
    {
      "inputs": [],
      "name": "rolMapperAddress",
      "outputs": [
        {
          "internalType": "address",
          "name": "",
          "type": "address"
        }
      ],
      "stateMutability": "view",
      "type": "function"
    },
    {
      "inputs": [],
      "name": "usuarioMapperAddress",
      "outputs": [
        {
          "internalType": "address",
          "name": "",
          "type": "address"
        }
      ],
      "stateMutability": "view",
      "type": "function"
    },
    {
      "inputs": [],
      "name": "login",
      "outputs": [
        {
          "internalType": "contract UsuarioVO",
          "name": "",
          "type": "address"
        }
      ],
      "stateMutability": "nonpayable",
      "type": "function"
    },
    {
      "inputs": [
        {
          "internalType": "address",
          "name": "_direccion",
          "type": "address"
        }
      ],
      "name": "traerUsuarioActivo",
      "outputs": [
        {
          "internalType": "contract UsuarioVO",
          "name": "",
          "type": "address"
        }
      ],
      "stateMutability": "nonpayable",
      "type": "function"
    },
    {
      "inputs": [
        {
          "internalType": "address",
          "name": "_direccion",
          "type": "address"
        }
      ],
      "name": "usuarioEsMedico",
      "outputs": [
        {
          "internalType": "bool",
          "name": "",
          "type": "bool"
        }
      ],
      "stateMutability": "nonpayable",
      "type": "function"
    },
    {
      "inputs": [
        {
          "internalType": "address",
          "name": "_direccion",
          "type": "address"
        }
      ],
      "name": "usuarioEsPaciente",
      "outputs": [
        {
          "internalType": "bool",
          "name": "",
          "type": "bool"
        }
      ],
      "stateMutability": "nonpayable",
      "type": "function"
    },
    {
      "inputs": [
        {
          "internalType": "address",
          "name": "_direccion",
          "type": "address"
        },
        {
          "internalType": "uint256",
          "name": "permisoId",
          "type": "uint256"
        }
      ],
      "name": "buscarPermisoDeRol",
      "outputs": [],
      "stateMutability": "nonpayable",
      "type": "function"
    },
    {
      "inputs": [
        {
          "internalType": "address",
          "name": "_rolMapperAddress",
          "type": "address"
        }
      ],
      "name": "setRolMapper",
      "outputs": [],
      "stateMutability": "nonpayable",
      "type": "function"
    },
    {
      "inputs": [
        {
          "internalType": "address",
          "name": "_usuarioMapperAddress",
          "type": "address"
        }
      ],
      "name": "setUsuarioMapper",
      "outputs": [],
      "stateMutability": "nonpayable",
      "type": "function"
    },
    {
      "inputs": [],
      "name": "selfDestruct",
      "outputs": [],
      "stateMutability": "nonpayable",
      "type": "function"
    }
  ],
  "bytecode": "0x60806040526000600555600160065534801561001a57600080fd5b50336000806101000a81548173ffffffffffffffffffffffffffffffffffffffff021916908373ffffffffffffffffffffffffffffffffffffffff160217905550610e218061006a6000396000f3fe608060405234801561001057600080fd5b50600436106100a95760003560e01c8063807cc70611610071578063807cc70614610164578063824b2d031461018257806392ebdcd21461019e5780639cb8a26a146101bc578063b34e97e8146101c6578063c56b7af2146101e4576100a9565b8063596e15e6146100ae5780635cb3c8e4146100ca578063734be08e146100fa57806378775d32146101185780637efe730114610134575b600080fd5b6100c860048036038101906100c3919061099e565b610214565b005b6100e460048036038101906100df919061099e565b610327565b6040516100f19190610a2a565b60405180910390f35b610102610481565b60405161010f9190610a54565b60405180910390f35b610132600480360381019061012d919061099e565b6104a7565b005b61014e6004803603810190610149919061099e565b6105ba565b60405161015b9190610a8a565b60405180910390f35b61016c610655565b6040516101799190610a54565b60405180910390f35b61019c60048036038101906101979190610adb565b61067b565b005b6101a66107a0565b6040516101b39190610a54565b60405180910390f35b6101c46107c4565b005b6101ce61088b565b6040516101db9190610a2a565b60405180910390f35b6101fe60048036038101906101f9919061099e565b6108a0565b60405161020b9190610a8a565b60405180910390f35b60008054906101000a900473ffffffffffffffffffffffffffffffffffffffff1673ffffffffffffffffffffffffffffffffffffffff163373ffffffffffffffffffffffffffffffffffffffff16146102a2576040517f08c379a000000000000000000000000000000000000000000000000000000000815260040161029990610bc4565b60405180910390fd5b80600160006101000a81548173ffffffffffffffffffffffffffffffffffffffff021916908373ffffffffffffffffffffffffffffffffffffffff16021790555080600360006101000a81548173ffffffffffffffffffffffffffffffffffffffff021916908373ffffffffffffffffffffffffffffffffffffffff16021790555050565b600080600360009054906101000a900473ffffffffffffffffffffffffffffffffffffffff1673ffffffffffffffffffffffffffffffffffffffff16637da8f6a5846040518263ffffffff1660e01b81526004016103859190610a54565b6020604051808303816000875af11580156103a4573d6000803e3d6000fd5b505050506040513d601f19601f820116820180604052508101906103c89190610c22565b90508073ffffffffffffffffffffffffffffffffffffffff1663af9958466040518163ffffffff1660e01b8152600401602060405180830381865afa158015610415573d6000803e3d6000fd5b505050506040513d601f19601f820116820180604052508101906104399190610c7b565b610478576040517f08c379a000000000000000000000000000000000000000000000000000000000815260040161046f90610cf4565b60405180910390fd5b80915050919050565b600260009054906101000a900473ffffffffffffffffffffffffffffffffffffffff1681565b60008054906101000a900473ffffffffffffffffffffffffffffffffffffffff1673ffffffffffffffffffffffffffffffffffffffff163373ffffffffffffffffffffffffffffffffffffffff1614610535576040517f08c379a000000000000000000000000000000000000000000000000000000000815260040161052c90610bc4565b60405180910390fd5b80600260006101000a81548173ffffffffffffffffffffffffffffffffffffffff021916908373ffffffffffffffffffffffffffffffffffffffff16021790555080600460006101000a81548173ffffffffffffffffffffffffffffffffffffffff021916908373ffffffffffffffffffffffffffffffffffffffff16021790555050565b6000806105c683610327565b90506005548173ffffffffffffffffffffffffffffffffffffffff16633b656d776040518163ffffffff1660e01b8152600401602060405180830381865afa158015610616573d6000803e3d6000fd5b505050506040513d601f19601f8201168201806040525081019061063a9190610d29565b141561064a576001915050610650565b60009150505b919050565b600160009054906101000a900473ffffffffffffffffffffffffffffffffffffffff1681565b600061068683610327565b905060008173ffffffffffffffffffffffffffffffffffffffff16633b656d776040518163ffffffff1660e01b8152600401602060405180830381865afa1580156106d5573d6000803e3d6000fd5b505050506040513d601f19601f820116820180604052508101906106f99190610d29565b9050600460009054906101000a900473ffffffffffffffffffffffffffffffffffffffff1673ffffffffffffffffffffffffffffffffffffffff1663b10b65ce826040518263ffffffff1660e01b81526004016107569190610d65565b6020604051808303816000875af1158015610775573d6000803e3d6000fd5b505050506040513d601f19601f820116820180604052508101906107999190610dbe565b5050505050565b60008054906101000a900473ffffffffffffffffffffffffffffffffffffffff1681565b60008054906101000a900473ffffffffffffffffffffffffffffffffffffffff1673ffffffffffffffffffffffffffffffffffffffff163373ffffffffffffffffffffffffffffffffffffffff1614610852576040517f08c379a000000000000000000000000000000000000000000000000000000000815260040161084990610bc4565b60405180910390fd5b60008054906101000a900473ffffffffffffffffffffffffffffffffffffffff1673ffffffffffffffffffffffffffffffffffffffff16ff5b60008033905061089a81610327565b91505090565b6000806108ac83610327565b90506006548173ffffffffffffffffffffffffffffffffffffffff16633b656d776040518163ffffffff1660e01b8152600401602060405180830381865afa1580156108fc573d6000803e3d6000fd5b505050506040513d601f19601f820116820180604052508101906109209190610d29565b1415610930576001915050610936565b60009150505b919050565b600080fd5b600073ffffffffffffffffffffffffffffffffffffffff82169050919050565b600061096b82610940565b9050919050565b61097b81610960565b811461098657600080fd5b50565b60008135905061099881610972565b92915050565b6000602082840312156109b4576109b361093b565b5b60006109c284828501610989565b91505092915050565b6000819050919050565b60006109f06109eb6109e684610940565b6109cb565b610940565b9050919050565b6000610a02826109d5565b9050919050565b6000610a14826109f7565b9050919050565b610a2481610a09565b82525050565b6000602082019050610a3f6000830184610a1b565b92915050565b610a4e81610960565b82525050565b6000602082019050610a696000830184610a45565b92915050565b60008115159050919050565b610a8481610a6f565b82525050565b6000602082019050610a9f6000830184610a7b565b92915050565b6000819050919050565b610ab881610aa5565b8114610ac357600080fd5b50565b600081359050610ad581610aaf565b92915050565b60008060408385031215610af257610af161093b565b5b6000610b0085828601610989565b9250506020610b1185828601610ac6565b9150509250929050565b600082825260208201905092915050565b7f457374612066756e63696f6e20736f6c6f2070756564652073657220656a656360008201527f757461646120706f7220656c2063726561646f722064656c20636f6e7472617460208201527f6f00000000000000000000000000000000000000000000000000000000000000604082015250565b6000610bae604183610b1b565b9150610bb982610b2c565b606082019050919050565b60006020820190508181036000830152610bdd81610ba1565b9050919050565b6000610bef82610960565b9050919050565b610bff81610be4565b8114610c0a57600080fd5b50565b600081519050610c1c81610bf6565b92915050565b600060208284031215610c3857610c3761093b565b5b6000610c4684828501610c0d565b91505092915050565b610c5881610a6f565b8114610c6357600080fd5b50565b600081519050610c7581610c4f565b92915050565b600060208284031215610c9157610c9061093b565b5b6000610c9f84828501610c66565b91505092915050565b7f5573756172696f20696e61637469766f00000000000000000000000000000000600082015250565b6000610cde601083610b1b565b9150610ce982610ca8565b602082019050919050565b60006020820190508181036000830152610d0d81610cd1565b9050919050565b600081519050610d2381610aaf565b92915050565b600060208284031215610d3f57610d3e61093b565b5b6000610d4d84828501610d14565b91505092915050565b610d5f81610aa5565b82525050565b6000602082019050610d7a6000830184610d56565b92915050565b6000610d8b82610960565b9050919050565b610d9b81610d80565b8114610da657600080fd5b50565b600081519050610db881610d92565b92915050565b600060208284031215610dd457610dd361093b565b5b6000610de284828501610da9565b9150509291505056fea2646970667358221220cc508b65fb6c34b96760e75891e7b29f7edd66690fe2fb25d69619ece2731afc64736f6c634300080b0033",
  "immutableReferences": {},
  "source": "// SPDX-License-Identifier: MIT\npragma solidity ^0.8.10;\n\nimport \"../persistence/RolMapperInterface.sol\";\nimport \"../persistence/UsuarioMapperInterface.sol\";\nimport \"../persistence/RolMapper.sol\";\nimport \"../persistence/UsuarioMapper.sol\";\n\ncontract Usuario {\n    address public creador;\n    address public usuarioMapperAddress;\n    address public rolMapperAddress;\n\n    UsuarioMapperInterface private usuarioMapper;\n    RolMapperInterface private rolMapper;\n\n    uint256 rolPaciente = 0;\n    uint256 rolMedico = 1;\n\n    constructor() {\n        creador = msg.sender;\n    }\n\n    function login() public returns (UsuarioVO) {\n        address direccion = msg.sender;          \n        return traerUsuarioActivo(direccion); \n    }\n\n    function traerUsuarioActivo(address _direccion) public returns (UsuarioVO) {       \n        UsuarioVO usuario = usuarioMapper.consultar(_direccion);\n        if( !usuario.getEstaActivo()){\n            revert(\"Usuario inactivo\");\n        }\n        return usuario;\n    }\n\n    function usuarioEsMedico(address _direccion) public returns (bool) {\n        UsuarioVO usuario = traerUsuarioActivo(_direccion);  \n        if (usuario.getRolId() == rolMedico){\n            return true;\n        }\n        return false;\n    }\n\n    function usuarioEsPaciente(address _direccion) public returns (bool) {\n        UsuarioVO usuario = traerUsuarioActivo(_direccion);  \n        if (usuario.getRolId() == rolPaciente){\n            return true;\n        }\n        return false;\n    }\n\n    function buscarPermisoDeRol(address _direccion, uint256 permisoId) public{\n        UsuarioVO usuario = traerUsuarioActivo(_direccion); \n        uint256 rol = usuario.getRolId();\n        rolMapper.consultar(rol);\n\n    }\n\n    function setRolMapper(address _rolMapperAddress) public esPropietario {\n        rolMapperAddress = _rolMapperAddress;\n        rolMapper = RolMapper(_rolMapperAddress);\n    }\n\n    function setUsuarioMapper(address _usuarioMapperAddress) public esPropietario {\n        usuarioMapperAddress = _usuarioMapperAddress;\n        usuarioMapper = UsuarioMapper(_usuarioMapperAddress);\n    }\n\n    modifier esPropietario() {\n        require(\n            msg.sender == creador,\n            \"Esta funcion solo puede ser ejecutada por el creador del contrato\"\n        );\n        _; // ac se ejecuta la funcin\n    }\n\n    function selfDestruct() public esPropietario {\n        selfdestruct(payable(creador));\n    }\n}\n",
  "sourcePath": "/home/felipe/Documentos/Blockchain/codigo/back-hce/contracts/logica/Acceso.sol",
  "compiler": {
    "name": "solc",
    "version": "0.8.11+commit.d7f03943.Emscripten.clang"
  },
  "schemaVersion": "3.4.4",
  "updatedAt": "2022-03-20T23:28:32.647Z",
  "devdoc": {
    "kind": "dev",
    "methods": {},
    "version": 1
  },
  "userdoc": {
    "kind": "user",
    "methods": {},
    "version": 1
  }
}