{
  "contractName": "Usuario",
  "abi": [
    {
      "inputs": [],
      "stateMutability": "nonpayable",
      "type": "constructor"
    },
    {
      "inputs": [],
      "name": "getDirecion",
      "outputs": [
        {
          "internalType": "address",
          "name": "",
          "type": "address"
        }
      ],
      "stateMutability": "view",
      "type": "function"
    },
    {
      "inputs": [
        {
          "internalType": "address",
          "name": "newMessage",
          "type": "address"
        }
      ],
      "name": "setDirecion",
      "outputs": [],
      "stateMutability": "nonpayable",
      "type": "function"
    },
    {
      "inputs": [],
      "name": "getRol",
      "outputs": [
        {
          "internalType": "string",
          "name": "",
          "type": "string"
        }
      ],
      "stateMutability": "view",
      "type": "function"
    },
    {
      "inputs": [
        {
          "internalType": "address",
          "name": "newMessage",
          "type": "address"
        }
      ],
      "name": "setRol",
      "outputs": [],
      "stateMutability": "nonpayable",
      "type": "function"
    }
  ],
  "bytecode": "0x608060405234801561001057600080fd5b50610412806100206000396000f3fe608060405234801561001057600080fd5b506004361061004c5760003560e01c8063329f11ca1461005157806343e50b001461006d578063c3e00aff1461008b578063ce8dd29f146100a9575b600080fd5b61006b60048036038101906100669190610269565b6100c5565b005b610075610108565b60405161008291906102a5565b60405180910390f35b610093610131565b6040516100a09190610359565b60405180910390f35b6100c360048036038101906100be9190610269565b6101c3565b005b806000806101000a81548173ffffffffffffffffffffffffffffffffffffffff021916908373ffffffffffffffffffffffffffffffffffffffff16021790555050565b60008060009054906101000a900473ffffffffffffffffffffffffffffffffffffffff16905090565b606060018054610140906103aa565b80601f016020809104026020016040519081016040528092919081815260200182805461016c906103aa565b80156101b95780601f1061018e576101008083540402835291602001916101b9565b820191906000526020600020905b81548152906001019060200180831161019c57829003601f168201915b5050505050905090565b806000806101000a81548173ffffffffffffffffffffffffffffffffffffffff021916908373ffffffffffffffffffffffffffffffffffffffff16021790555050565b600080fd5b600073ffffffffffffffffffffffffffffffffffffffff82169050919050565b60006102368261020b565b9050919050565b6102468161022b565b811461025157600080fd5b50565b6000813590506102638161023d565b92915050565b60006020828403121561027f5761027e610206565b5b600061028d84828501610254565b91505092915050565b61029f8161022b565b82525050565b60006020820190506102ba6000830184610296565b92915050565b600081519050919050565b600082825260208201905092915050565b60005b838110156102fa5780820151818401526020810190506102df565b83811115610309576000848401525b50505050565b6000601f19601f8301169050919050565b600061032b826102c0565b61033581856102cb565b93506103458185602086016102dc565b61034e8161030f565b840191505092915050565b600060208201905081810360008301526103738184610320565b905092915050565b7f4e487b7100000000000000000000000000000000000000000000000000000000600052602260045260246000fd5b600060028204905060018216806103c257607f821691505b602082108114156103d6576103d561037b565b5b5091905056fea26469706673582212207b79dc576f185cd4d78e162769df33f9b650344474179a31041c1c80d124a0ec64736f6c634300080b0033",
  "immutableReferences": {},
  "source": "pragma solidity ^0.8.10;\n\ncontract Usuario { \n    //address public creador;\n    /*struct UsuarioStruct {\n        address direccion;\n        string rol;\n    }*/\n    address private direccion;\n    string private rol; // TODO: Cambiar al tipo RolStruct\n\n    constructor() public {\n        //creador = msg.sender; // creador del contrato\n    }\n\n    function getDirecion() public view returns (address) {\n        return direccion;\n    }\n\n    function setDirecion(address newMessage) public {\n        direccion = newMessage;\n    }\n\n    function getRol() public view returns (string memory) {\n        return rol;\n    }\n\n    function setRol(address newMessage) public {\n        direccion = newMessage;\n    }\n}\n",
  "sourcePath": "/home/felipe/Documentos/Blockchain/codigo/back-hce/contracts/logica/Usuario.sol",
  "compiler": {
    "name": "solc",
    "version": "0.8.11+commit.d7f03943.Emscripten.clang"
  },
  "schemaVersion": "3.4.4",
  "updatedAt": "2022-03-10T03:27:08.358Z",
  "devdoc": {
    "kind": "dev",
    "methods": {},
    "version": 1
  },
  "userdoc": {
    "kind": "user",
    "methods": {},
    "version": 1
  }
}