{
  "contractName": "Usuario",
  "abi": [
    {
      "inputs": [],
      "stateMutability": "nonpayable",
      "type": "constructor"
    },
    {
      "inputs": [],
      "name": "creador",
      "outputs": [
        {
          "internalType": "address",
          "name": "",
          "type": "address"
        }
      ],
      "stateMutability": "view",
      "type": "function"
    },
    {
      "inputs": [],
      "name": "permisoRolMapperAddress",
      "outputs": [
        {
          "internalType": "address",
          "name": "",
          "type": "address"
        }
      ],
      "stateMutability": "view",
      "type": "function"
    },
    {
      "inputs": [],
      "name": "usuarioMapperAddress",
      "outputs": [
        {
          "internalType": "address",
          "name": "",
          "type": "address"
        }
      ],
      "stateMutability": "view",
      "type": "function"
    },
    {
      "inputs": [],
      "name": "login",
      "outputs": [
        {
          "internalType": "contract UsuarioVO",
          "name": "",
          "type": "address"
        }
      ],
      "stateMutability": "nonpayable",
      "type": "function"
    },
    {
      "inputs": [
        {
          "internalType": "address",
          "name": "_direccion",
          "type": "address"
        }
      ],
      "name": "traerUsuarioActivo",
      "outputs": [
        {
          "internalType": "contract UsuarioVO",
          "name": "",
          "type": "address"
        }
      ],
      "stateMutability": "nonpayable",
      "type": "function"
    },
    {
      "inputs": [
        {
          "internalType": "address",
          "name": "_direccion",
          "type": "address"
        }
      ],
      "name": "usuarioEsMedico",
      "outputs": [
        {
          "internalType": "bool",
          "name": "",
          "type": "bool"
        }
      ],
      "stateMutability": "nonpayable",
      "type": "function"
    },
    {
      "inputs": [
        {
          "internalType": "address",
          "name": "_direccion",
          "type": "address"
        }
      ],
      "name": "usuarioEsPaciente",
      "outputs": [
        {
          "internalType": "bool",
          "name": "",
          "type": "bool"
        }
      ],
      "stateMutability": "nonpayable",
      "type": "function"
    },
    {
      "inputs": [
        {
          "internalType": "address",
          "name": "_direccion",
          "type": "address"
        },
        {
          "internalType": "uint256",
          "name": "permisoId",
          "type": "uint256"
        }
      ],
      "name": "buscarPermisoDeRol",
      "outputs": [
        {
          "internalType": "bool",
          "name": "",
          "type": "bool"
        }
      ],
      "stateMutability": "nonpayable",
      "type": "function"
    },
    {
      "inputs": [
        {
          "internalType": "address",
          "name": "_permisoRolMapperAddress",
          "type": "address"
        }
      ],
      "name": "setPermisoRolMapper",
      "outputs": [],
      "stateMutability": "nonpayable",
      "type": "function"
    },
    {
      "inputs": [
        {
          "internalType": "address",
          "name": "_usuarioMapperAddress",
          "type": "address"
        }
      ],
      "name": "setUsuarioMapper",
      "outputs": [],
      "stateMutability": "nonpayable",
      "type": "function"
    },
    {
      "inputs": [],
      "name": "selfDestruct",
      "outputs": [],
      "stateMutability": "nonpayable",
      "type": "function"
    }
  ],
  "bytecode": "0x60806040526000600555600160065534801561001a57600080fd5b50336000806101000a81548173ffffffffffffffffffffffffffffffffffffffff021916908373ffffffffffffffffffffffffffffffffffffffff160217905550610dde8061006a6000396000f3fe608060405234801561001057600080fd5b50600436106100a95760003560e01c8063824b2d0311610071578063824b2d031461016457806392ebdcd2146101945780639cb8a26a146101b2578063b34e97e8146101bc578063c56b7af2146101da578063d388d3ed1461020a576100a9565b80635476f467146100ae578063596e15e6146100ca5780635cb3c8e4146100e65780637efe730114610116578063807cc70614610146575b600080fd5b6100c860048036038101906100c391906109b8565b610228565b005b6100e460048036038101906100df91906109b8565b61033b565b005b61010060048036038101906100fb91906109b8565b61044e565b60405161010d9190610a44565b60405180910390f35b610130600480360381019061012b91906109b8565b6105a8565b60405161013d9190610a7a565b60405180910390f35b61014e610643565b60405161015b9190610aa4565b60405180910390f35b61017e60048036038101906101799190610af5565b610669565b60405161018b9190610a7a565b60405180910390f35b61019c610794565b6040516101a99190610aa4565b60405180910390f35b6101ba6107b8565b005b6101c461087f565b6040516101d19190610a44565b60405180910390f35b6101f460048036038101906101ef91906109b8565b610894565b6040516102019190610a7a565b60405180910390f35b61021261092f565b60405161021f9190610aa4565b60405180910390f35b60008054906101000a900473ffffffffffffffffffffffffffffffffffffffff1673ffffffffffffffffffffffffffffffffffffffff163373ffffffffffffffffffffffffffffffffffffffff16146102b6576040517f08c379a00000000000000000000000000000000000000000000000000000000081526004016102ad90610bde565b60405180910390fd5b80600260006101000a81548173ffffffffffffffffffffffffffffffffffffffff021916908373ffffffffffffffffffffffffffffffffffffffff16021790555080600460006101000a81548173ffffffffffffffffffffffffffffffffffffffff021916908373ffffffffffffffffffffffffffffffffffffffff16021790555050565b60008054906101000a900473ffffffffffffffffffffffffffffffffffffffff1673ffffffffffffffffffffffffffffffffffffffff163373ffffffffffffffffffffffffffffffffffffffff16146103c9576040517f08c379a00000000000000000000000000000000000000000000000000000000081526004016103c090610bde565b60405180910390fd5b80600160006101000a81548173ffffffffffffffffffffffffffffffffffffffff021916908373ffffffffffffffffffffffffffffffffffffffff16021790555080600360006101000a81548173ffffffffffffffffffffffffffffffffffffffff021916908373ffffffffffffffffffffffffffffffffffffffff16021790555050565b600080600360009054906101000a900473ffffffffffffffffffffffffffffffffffffffff1673ffffffffffffffffffffffffffffffffffffffff16637da8f6a5846040518263ffffffff1660e01b81526004016104ac9190610aa4565b6020604051808303816000875af11580156104cb573d6000803e3d6000fd5b505050506040513d601f19601f820116820180604052508101906104ef9190610c3c565b90508073ffffffffffffffffffffffffffffffffffffffff1663af9958466040518163ffffffff1660e01b8152600401602060405180830381865afa15801561053c573d6000803e3d6000fd5b505050506040513d601f19601f820116820180604052508101906105609190610c95565b61059f576040517f08c379a000000000000000000000000000000000000000000000000000000000815260040161059690610d0e565b60405180910390fd5b80915050919050565b6000806105b48361044e565b90506005548173ffffffffffffffffffffffffffffffffffffffff16633b656d776040518163ffffffff1660e01b8152600401602060405180830381865afa158015610604573d6000803e3d6000fd5b505050506040513d601f19601f820116820180604052508101906106289190610d43565b141561063857600191505061063e565b60009150505b919050565b600160009054906101000a900473ffffffffffffffffffffffffffffffffffffffff1681565b6000806106758461044e565b905060008173ffffffffffffffffffffffffffffffffffffffff16633b656d776040518163ffffffff1660e01b8152600401602060405180830381865afa1580156106c4573d6000803e3d6000fd5b505050506040513d601f19601f820116820180604052508101906106e89190610d43565b9050600460009054906101000a900473ffffffffffffffffffffffffffffffffffffffff1673ffffffffffffffffffffffffffffffffffffffff1663c515ae5185836040518363ffffffff1660e01b8152600401610747929190610d7f565b6020604051808303816000875af1158015610766573d6000803e3d6000fd5b505050506040513d601f19601f8201168201806040525081019061078a9190610c95565b9250505092915050565b60008054906101000a900473ffffffffffffffffffffffffffffffffffffffff1681565b60008054906101000a900473ffffffffffffffffffffffffffffffffffffffff1673ffffffffffffffffffffffffffffffffffffffff163373ffffffffffffffffffffffffffffffffffffffff1614610846576040517f08c379a000000000000000000000000000000000000000000000000000000000815260040161083d90610bde565b60405180910390fd5b60008054906101000a900473ffffffffffffffffffffffffffffffffffffffff1673ffffffffffffffffffffffffffffffffffffffff16ff5b60008033905061088e8161044e565b91505090565b6000806108a08361044e565b90506006548173ffffffffffffffffffffffffffffffffffffffff16633b656d776040518163ffffffff1660e01b8152600401602060405180830381865afa1580156108f0573d6000803e3d6000fd5b505050506040513d601f19601f820116820180604052508101906109149190610d43565b141561092457600191505061092a565b60009150505b919050565b600260009054906101000a900473ffffffffffffffffffffffffffffffffffffffff1681565b600080fd5b600073ffffffffffffffffffffffffffffffffffffffff82169050919050565b60006109858261095a565b9050919050565b6109958161097a565b81146109a057600080fd5b50565b6000813590506109b28161098c565b92915050565b6000602082840312156109ce576109cd610955565b5b60006109dc848285016109a3565b91505092915050565b6000819050919050565b6000610a0a610a05610a008461095a565b6109e5565b61095a565b9050919050565b6000610a1c826109ef565b9050919050565b6000610a2e82610a11565b9050919050565b610a3e81610a23565b82525050565b6000602082019050610a596000830184610a35565b92915050565b60008115159050919050565b610a7481610a5f565b82525050565b6000602082019050610a8f6000830184610a6b565b92915050565b610a9e8161097a565b82525050565b6000602082019050610ab96000830184610a95565b92915050565b6000819050919050565b610ad281610abf565b8114610add57600080fd5b50565b600081359050610aef81610ac9565b92915050565b60008060408385031215610b0c57610b0b610955565b5b6000610b1a858286016109a3565b9250506020610b2b85828601610ae0565b9150509250929050565b600082825260208201905092915050565b7f457374612066756e63696f6e20736f6c6f2070756564652073657220656a656360008201527f757461646120706f7220656c2063726561646f722064656c20636f6e7472617460208201527f6f00000000000000000000000000000000000000000000000000000000000000604082015250565b6000610bc8604183610b35565b9150610bd382610b46565b606082019050919050565b60006020820190508181036000830152610bf781610bbb565b9050919050565b6000610c098261097a565b9050919050565b610c1981610bfe565b8114610c2457600080fd5b50565b600081519050610c3681610c10565b92915050565b600060208284031215610c5257610c51610955565b5b6000610c6084828501610c27565b91505092915050565b610c7281610a5f565b8114610c7d57600080fd5b50565b600081519050610c8f81610c69565b92915050565b600060208284031215610cab57610caa610955565b5b6000610cb984828501610c80565b91505092915050565b7f5573756172696f20696e61637469766f00000000000000000000000000000000600082015250565b6000610cf8601083610b35565b9150610d0382610cc2565b602082019050919050565b60006020820190508181036000830152610d2781610ceb565b9050919050565b600081519050610d3d81610ac9565b92915050565b600060208284031215610d5957610d58610955565b5b6000610d6784828501610d2e565b91505092915050565b610d7981610abf565b82525050565b6000604082019050610d946000830185610d70565b610da16020830184610d70565b939250505056fea2646970667358221220189e437f0bd301ce8d05cd9a432192433baa6431f57db21681a20be02168fd5064736f6c634300080b0033",
  "immutableReferences": {},
  "source": "// SPDX-License-Identifier: MIT\npragma solidity ^0.8.10;\n\nimport \"../persistence/PermisoRolMapperInterface.sol\";\nimport \"../persistence/RolMapperInterface.sol\";\nimport \"../persistence/UsuarioMapperInterface.sol\";\nimport \"../persistence/PermisoRolMapper.sol\";\nimport \"../persistence/RolMapper.sol\";\nimport \"../persistence/UsuarioMapper.sol\";\n\ncontract Usuario {\n    address public creador;\n    address public usuarioMapperAddress;\n    address public permisoRolMapperAddress;\n    // address public rolMapperAddress;\n\n    UsuarioMapperInterface private usuarioMapper;\n    PermisoRolMapperInterface private permisoRolMapper;\n    // RolMapperInterface private rolMapper;\n\n    uint256 rolPaciente = 0;\n    uint256 rolMedico = 1;\n\n    constructor() {\n        creador = msg.sender;\n    }\n\n    function login() public returns (UsuarioVO) {\n        address direccion = msg.sender;          \n        return traerUsuarioActivo(direccion); \n    }\n\n    function traerUsuarioActivo(address _direccion) public returns (UsuarioVO) {       \n        UsuarioVO usuario = usuarioMapper.consultar(_direccion);\n        if( !usuario.getEstaActivo()){\n            revert(\"Usuario inactivo\");\n        }\n        return usuario;\n    }\n\n    function usuarioEsMedico(address _direccion) public returns (bool) {\n        UsuarioVO usuario = traerUsuarioActivo(_direccion);  \n        if (usuario.getRolId() == rolMedico){\n            return true;\n        }\n        return false;\n    }\n\n    function usuarioEsPaciente(address _direccion) public returns (bool) {\n        UsuarioVO usuario = traerUsuarioActivo(_direccion);  \n        if (usuario.getRolId() == rolPaciente){\n            return true;\n        }\n        return false;\n    }\n\n    // TODO: Quiz cambiar el nombre por otro que describa mejor que valida que un usuario tenga un permiso especifico\n    function buscarPermisoDeRol(address _direccion, uint256 permisoId) public returns (bool){\n        UsuarioVO usuario = traerUsuarioActivo(_direccion); \n        uint256 rolId = usuario.getRolId();\n        // RolVO rol= rolMapper.consultar(rolId);\n        return permisoRolMapper.consultar(permisoId, rolId);      \n    }\n\n    function setPermisoRolMapper(address _permisoRolMapperAddress) public esPropietario {\n        permisoRolMapperAddress = _permisoRolMapperAddress;\n        permisoRolMapper = PermisoRolMapper(_permisoRolMapperAddress);\n    }\n\n    /*function setRolMapper(address _rolMapperAddress) public esPropietario {\n        rolMapperAddress = _rolMapperAddress;\n        rolMapper = RolMapper(_rolMapperAddress);\n    }*/\n\n    function setUsuarioMapper(address _usuarioMapperAddress) public esPropietario {\n        usuarioMapperAddress = _usuarioMapperAddress;\n        usuarioMapper = UsuarioMapper(_usuarioMapperAddress);\n    }\n\n    modifier esPropietario() {\n        require(\n            msg.sender == creador,\n            \"Esta funcion solo puede ser ejecutada por el creador del contrato\"\n        );\n        _; // ac se ejecuta la funcin\n    }\n\n    function selfDestruct() public esPropietario {\n        selfdestruct(payable(creador));\n    }\n}\n",
  "sourcePath": "/home/felipe/Documentos/Blockchain/codigo/back-hce/contracts/logica/Acceso.sol",
  "compiler": {
    "name": "solc",
    "version": "0.8.11+commit.d7f03943.Emscripten.clang"
  },
  "schemaVersion": "3.4.4",
  "updatedAt": "2022-03-21T18:46:33.285Z",
  "devdoc": {
    "kind": "dev",
    "methods": {},
    "version": 1
  },
  "userdoc": {
    "kind": "user",
    "methods": {},
    "version": 1
  }
}