{
  "contractName": "Utils",
  "abi": [
    {
      "inputs": [
        {
          "internalType": "string",
          "name": "_s1",
          "type": "string"
        },
        {
          "internalType": "string",
          "name": "_s2",
          "type": "string"
        }
      ],
      "name": "compareStrings",
      "outputs": [
        {
          "internalType": "bool",
          "name": "areEual",
          "type": "bool"
        }
      ],
      "stateMutability": "pure",
      "type": "function",
      "constant": true
    }
  ],
  "bytecode": "0x61023f61003a600b82828239805160001a60731461002d57634e487b7160e01b600052600060045260246000fd5b30600052607381538281f3fe73000000000000000000000000000000000000000030146080604052600436106100355760003560e01c8063bed34bba1461003a575b600080fd5b61004d610048366004610176565b610061565b604051901515815260200160405180910390f35b60008160405160200161007491906101da565b604051602081830303815290604052805190602001208360405160200161009b91906101da565b6040516020818303038152906040528051906020012014905092915050565b7f4e487b7100000000000000000000000000000000000000000000000000000000600052604160045260246000fd5b600082601f8301126100fa57600080fd5b813567ffffffffffffffff80821115610115576101156100ba565b604051601f8301601f19908116603f0116810190828211818310171561013d5761013d6100ba565b8160405283815286602085880101111561015657600080fd5b836020870160208301376000602085830101528094505050505092915050565b6000806040838503121561018957600080fd5b823567ffffffffffffffff808211156101a157600080fd5b6101ad868387016100e9565b935060208501359150808211156101c357600080fd5b506101d0858286016100e9565b9150509250929050565b6000825160005b818110156101fb57602081860181015185830152016101e1565b50600092019182525091905056fea26469706673582212204882101ad6ad23c2d07debd0b3bfcb12e675a68cc9899a52e5bd7fe7e776595a64736f6c63430008110033",
  "immutableReferences": {},
  "source": "// SPDX-License-Identifier: MIT\npragma solidity 0.8.17;\n\nlibrary Utils{\n    function compareStrings(string memory _s1, string memory _s2) public pure returns(bool areEual){\n        return keccak256(abi.encodePacked(_s1)) == keccak256(abi.encodePacked(_s2));\n    }\n}",
  "sourcePath": "/home/felipe/Documentos/Blockchain/codigo/HCE-full/back-hce/contracts/utils/Utils.sol",
  "compiler": {
    "name": "solc",
    "version": "0.8.17+commit.8df45f5f.Emscripten.clang"
  },
  "schemaVersion": "3.4.8",
  "updatedAt": "2023-04-05T22:11:43.104Z",
  "networkType": "ethereum",
  "devdoc": {
    "kind": "dev",
    "methods": {},
    "version": 1
  },
  "userdoc": {
    "kind": "user",
    "methods": {},
    "version": 1
  }
}